{
  "_format": "hh-sol-artifact-1",
  "contractName": "dETH",
  "sourceName": "contracts/dETH.sol",
  "abi": [
    {
      "inputs": [
        {
          "internalType": "address",
          "name": "treasure",
          "type": "address"
        },
        {
          "internalType": "address",
          "name": "router",
          "type": "address"
        }
      ],
      "stateMutability": "nonpayable",
      "type": "constructor"
    },
    {
      "anonymous": false,
      "inputs": [
        {
          "indexed": true,
          "internalType": "address",
          "name": "owner",
          "type": "address"
        },
        {
          "indexed": true,
          "internalType": "address",
          "name": "spender",
          "type": "address"
        },
        {
          "indexed": false,
          "internalType": "uint256",
          "name": "value",
          "type": "uint256"
        }
      ],
      "name": "Approval",
      "type": "event"
    },
    {
      "anonymous": false,
      "inputs": [
        {
          "indexed": true,
          "internalType": "address",
          "name": "previousOwner",
          "type": "address"
        },
        {
          "indexed": true,
          "internalType": "address",
          "name": "newOwner",
          "type": "address"
        }
      ],
      "name": "OwnershipTransferred",
      "type": "event"
    },
    {
      "anonymous": false,
      "inputs": [
        {
          "indexed": false,
          "internalType": "uint256",
          "name": "amount",
          "type": "uint256"
        }
      ],
      "name": "SendETHToFee",
      "type": "event"
    },
    {
      "anonymous": false,
      "inputs": [
        {
          "indexed": false,
          "internalType": "uint256",
          "name": "amountIn",
          "type": "uint256"
        },
        {
          "indexed": false,
          "internalType": "address[]",
          "name": "path",
          "type": "address[]"
        }
      ],
      "name": "SwapETHForTokens",
      "type": "event"
    },
    {
      "anonymous": false,
      "inputs": [
        {
          "indexed": false,
          "internalType": "uint256",
          "name": "contractTokenBalance",
          "type": "uint256"
        },
        {
          "indexed": false,
          "internalType": "uint256",
          "name": "contractETHBalance",
          "type": "uint256"
        }
      ],
      "name": "SwapTokens",
      "type": "event"
    },
    {
      "anonymous": false,
      "inputs": [
        {
          "indexed": false,
          "internalType": "uint256",
          "name": "amountIn",
          "type": "uint256"
        },
        {
          "indexed": false,
          "internalType": "address[]",
          "name": "path",
          "type": "address[]"
        }
      ],
      "name": "SwapTokensForETH",
      "type": "event"
    },
    {
      "anonymous": false,
      "inputs": [
        {
          "indexed": true,
          "internalType": "address",
          "name": "from",
          "type": "address"
        },
        {
          "indexed": true,
          "internalType": "address",
          "name": "to",
          "type": "address"
        },
        {
          "indexed": false,
          "internalType": "uint256",
          "name": "value",
          "type": "uint256"
        }
      ],
      "name": "Transfer",
      "type": "event"
    },
    {
      "inputs": [
        {
          "internalType": "address",
          "name": "account",
          "type": "address"
        }
      ],
      "name": "_amnestySniper",
      "outputs": [],
      "stateMutability": "nonpayable",
      "type": "function"
    },
    {
      "inputs": [],
      "name": "_liquidityFee",
      "outputs": [
        {
          "internalType": "uint256",
          "name": "",
          "type": "uint256"
        }
      ],
      "stateMutability": "view",
      "type": "function"
    },
    {
      "inputs": [
        {
          "internalType": "address",
          "name": "account",
          "type": "address"
        }
      ],
      "name": "_removeSniper",
      "outputs": [],
      "stateMutability": "nonpayable",
      "type": "function"
    },
    {
      "inputs": [],
      "name": "_taxFee",
      "outputs": [
        {
          "internalType": "uint256",
          "name": "",
          "type": "uint256"
        }
      ],
      "stateMutability": "view",
      "type": "function"
    },
    {
      "inputs": [
        {
          "internalType": "address",
          "name": "owner",
          "type": "address"
        },
        {
          "internalType": "address",
          "name": "spender",
          "type": "address"
        }
      ],
      "name": "allowance",
      "outputs": [
        {
          "internalType": "uint256",
          "name": "",
          "type": "uint256"
        }
      ],
      "stateMutability": "view",
      "type": "function"
    },
    {
      "inputs": [
        {
          "internalType": "address",
          "name": "spender",
          "type": "address"
        },
        {
          "internalType": "uint256",
          "name": "amount",
          "type": "uint256"
        }
      ],
      "name": "approve",
      "outputs": [
        {
          "internalType": "bool",
          "name": "",
          "type": "bool"
        }
      ],
      "stateMutability": "nonpayable",
      "type": "function"
    },
    {
      "inputs": [
        {
          "internalType": "address",
          "name": "account",
          "type": "address"
        }
      ],
      "name": "balanceOf",
      "outputs": [
        {
          "internalType": "uint256",
          "name": "",
          "type": "uint256"
        }
      ],
      "stateMutability": "view",
      "type": "function"
    },
    {
      "inputs": [],
      "name": "decimals",
      "outputs": [
        {
          "internalType": "uint8",
          "name": "",
          "type": "uint8"
        }
      ],
      "stateMutability": "view",
      "type": "function"
    },
    {
      "inputs": [
        {
          "internalType": "address",
          "name": "spender",
          "type": "address"
        },
        {
          "internalType": "uint256",
          "name": "subtractedValue",
          "type": "uint256"
        }
      ],
      "name": "decreaseAllowance",
      "outputs": [
        {
          "internalType": "bool",
          "name": "",
          "type": "bool"
        }
      ],
      "stateMutability": "nonpayable",
      "type": "function"
    },
    {
      "inputs": [
        {
          "internalType": "uint256",
          "name": "tAmount",
          "type": "uint256"
        }
      ],
      "name": "deliver",
      "outputs": [],
      "stateMutability": "nonpayable",
      "type": "function"
    },
    {
      "inputs": [],
      "name": "emergencyWithdraw",
      "outputs": [],
      "stateMutability": "nonpayable",
      "type": "function"
    },
    {
      "inputs": [
        {
          "internalType": "address",
          "name": "account",
          "type": "address"
        }
      ],
      "name": "excludeFromFee",
      "outputs": [],
      "stateMutability": "nonpayable",
      "type": "function"
    },
    {
      "inputs": [
        {
          "internalType": "address",
          "name": "account",
          "type": "address"
        }
      ],
      "name": "excludeFromReward",
      "outputs": [],
      "stateMutability": "nonpayable",
      "type": "function"
    },
    {
      "inputs": [],
      "name": "getBlockTime",
      "outputs": [
        {
          "internalType": "uint256",
          "name": "",
          "type": "uint256"
        }
      ],
      "stateMutability": "view",
      "type": "function"
    },
    {
      "inputs": [
        {
          "internalType": "address",
          "name": "account",
          "type": "address"
        }
      ],
      "name": "includeInFee",
      "outputs": [],
      "stateMutability": "nonpayable",
      "type": "function"
    },
    {
      "inputs": [
        {
          "internalType": "address",
          "name": "account",
          "type": "address"
        }
      ],
      "name": "includeInReward",
      "outputs": [],
      "stateMutability": "nonpayable",
      "type": "function"
    },
    {
      "inputs": [
        {
          "internalType": "address",
          "name": "spender",
          "type": "address"
        },
        {
          "internalType": "uint256",
          "name": "addedValue",
          "type": "uint256"
        }
      ],
      "name": "increaseAllowance",
      "outputs": [
        {
          "internalType": "bool",
          "name": "",
          "type": "bool"
        }
      ],
      "stateMutability": "nonpayable",
      "type": "function"
    },
    {
      "inputs": [
        {
          "internalType": "address",
          "name": "account",
          "type": "address"
        }
      ],
      "name": "isExcludedFromFee",
      "outputs": [
        {
          "internalType": "bool",
          "name": "",
          "type": "bool"
        }
      ],
      "stateMutability": "view",
      "type": "function"
    },
    {
      "inputs": [
        {
          "internalType": "address",
          "name": "account",
          "type": "address"
        }
      ],
      "name": "isExcludedFromReward",
      "outputs": [
        {
          "internalType": "bool",
          "name": "",
          "type": "bool"
        }
      ],
      "stateMutability": "view",
      "type": "function"
    },
    {
      "inputs": [
        {
          "internalType": "address",
          "name": "account",
          "type": "address"
        }
      ],
      "name": "isRemovedSniper",
      "outputs": [
        {
          "internalType": "bool",
          "name": "",
          "type": "bool"
        }
      ],
      "stateMutability": "view",
      "type": "function"
    },
    {
      "inputs": [],
      "name": "name",
      "outputs": [
        {
          "internalType": "string",
          "name": "",
          "type": "string"
        }
      ],
      "stateMutability": "view",
      "type": "function"
    },
    {
      "inputs": [],
      "name": "openTrading",
      "outputs": [],
      "stateMutability": "nonpayable",
      "type": "function"
    },
    {
      "inputs": [],
      "name": "owner",
      "outputs": [
        {
          "internalType": "address",
          "name": "",
          "type": "address"
        }
      ],
      "stateMutability": "view",
      "type": "function"
    },
    {
      "inputs": [
        {
          "internalType": "uint256",
          "name": "tAmount",
          "type": "uint256"
        },
        {
          "internalType": "bool",
          "name": "deductTransferFee",
          "type": "bool"
        }
      ],
      "name": "reflectionFromToken",
      "outputs": [
        {
          "internalType": "uint256",
          "name": "",
          "type": "uint256"
        }
      ],
      "stateMutability": "view",
      "type": "function"
    },
    {
      "inputs": [],
      "name": "renounceOwnership",
      "outputs": [],
      "stateMutability": "nonpayable",
      "type": "function"
    },
    {
      "inputs": [
        {
          "internalType": "uint256",
          "name": "rate",
          "type": "uint256"
        }
      ],
      "name": "setFeeRate",
      "outputs": [],
      "stateMutability": "nonpayable",
      "type": "function"
    },
    {
      "inputs": [
        {
          "internalType": "uint256",
          "name": "liquidityFee",
          "type": "uint256"
        }
      ],
      "name": "setLiquidityFeePercent",
      "outputs": [],
      "stateMutability": "nonpayable",
      "type": "function"
    },
    {
      "inputs": [
        {
          "internalType": "address",
          "name": "_marketingAddress",
          "type": "address"
        }
      ],
      "name": "setMarketingAddress",
      "outputs": [],
      "stateMutability": "nonpayable",
      "type": "function"
    },
    {
      "inputs": [
        {
          "internalType": "uint256",
          "name": "taxFee",
          "type": "uint256"
        }
      ],
      "name": "setTaxFeePercent",
      "outputs": [],
      "stateMutability": "nonpayable",
      "type": "function"
    },
    {
      "inputs": [],
      "name": "symbol",
      "outputs": [
        {
          "internalType": "string",
          "name": "",
          "type": "string"
        }
      ],
      "stateMutability": "view",
      "type": "function"
    },
    {
      "inputs": [],
      "name": "teamAddress",
      "outputs": [
        {
          "internalType": "address payable",
          "name": "",
          "type": "address"
        }
      ],
      "stateMutability": "view",
      "type": "function"
    },
    {
      "inputs": [
        {
          "internalType": "uint256",
          "name": "rAmount",
          "type": "uint256"
        }
      ],
      "name": "tokenFromReflection",
      "outputs": [
        {
          "internalType": "uint256",
          "name": "",
          "type": "uint256"
        }
      ],
      "stateMutability": "view",
      "type": "function"
    },
    {
      "inputs": [],
      "name": "totalFees",
      "outputs": [
        {
          "internalType": "uint256",
          "name": "",
          "type": "uint256"
        }
      ],
      "stateMutability": "view",
      "type": "function"
    },
    {
      "inputs": [],
      "name": "totalSupply",
      "outputs": [
        {
          "internalType": "uint256",
          "name": "",
          "type": "uint256"
        }
      ],
      "stateMutability": "view",
      "type": "function"
    },
    {
      "inputs": [
        {
          "internalType": "address",
          "name": "recipient",
          "type": "address"
        },
        {
          "internalType": "uint256",
          "name": "amount",
          "type": "uint256"
        }
      ],
      "name": "transfer",
      "outputs": [
        {
          "internalType": "bool",
          "name": "",
          "type": "bool"
        }
      ],
      "stateMutability": "nonpayable",
      "type": "function"
    },
    {
      "inputs": [
        {
          "internalType": "address",
          "name": "sender",
          "type": "address"
        },
        {
          "internalType": "address",
          "name": "recipient",
          "type": "address"
        },
        {
          "internalType": "uint256",
          "name": "amount",
          "type": "uint256"
        }
      ],
      "name": "transferFrom",
      "outputs": [
        {
          "internalType": "bool",
          "name": "",
          "type": "bool"
        }
      ],
      "stateMutability": "nonpayable",
      "type": "function"
    },
    {
      "inputs": [
        {
          "internalType": "address",
          "name": "newOwner",
          "type": "address"
        }
      ],
      "name": "transferOwnership",
      "outputs": [],
      "stateMutability": "nonpayable",
      "type": "function"
    },
    {
      "inputs": [],
      "name": "uniswapV2Pair",
      "outputs": [
        {
          "internalType": "address",
          "name": "",
          "type": "address"
        }
      ],
      "stateMutability": "view",
      "type": "function"
    },
    {
      "inputs": [],
      "name": "uniswapV2Router",
      "outputs": [
        {
          "internalType": "contract IUniswapV2Router02",
          "name": "",
          "type": "address"
        }
      ],
      "stateMutability": "view",
      "type": "function"
    },
    {
      "stateMutability": "payable",
      "type": "receive"
    }
  ],
  "bytecode": "0x600380546001600160a01b0319167340da1dd681ec6175c3bcfe1641cd2826a99ebdd817905569021e19e0c9bab2400000600c55690200b25812c4f53fffff19600d5560c06040526009608081905268088cacecadc408aa8960bb1b60a09081526200006f91600f9190620003b1565b50604080518082019091526005808252640c85c8aa8960db1b60209092019182526200009e91601091620003b1565b506011805460ff1916600917905560076012819055601355600a601481905560155560026016556019805460ff60a81b19169055348015620000df57600080fd5b50604051620031f0380380620031f0833981810160405260408110156200010557600080fd5b50805160209091015160006200011a620003ad565b600080546001600160a01b0319166001600160a01b0383169081178255604051929350917f8be0079c531659141344cd1fd0a4f28419497f9722a3daafe3b4186f6b6457e0908290a350600d543360009081526004602052604090205562000181620003ad565b6001600160a01b031660006001600160a01b03167fddf252ad1be2c89b69c2b068fc378daa952ba7f163c4a11628f55a4df523b3ef600c546040518082815260200191505060405180910390a36000819050806001600160a01b031663c45a01556040518163ffffffff1660e01b815260040160206040518083038186803b1580156200020d57600080fd5b505afa15801562000222573d6000803e3d6000fd5b505050506040513d60208110156200023957600080fd5b5051604080516315ab88c960e31b815290516001600160a01b039283169263c9c653969230929186169163ad5c464891600480820192602092909190829003018186803b1580156200028a57600080fd5b505afa1580156200029f573d6000803e3d6000fd5b505050506040513d6020811015620002b657600080fd5b5051604080516001600160e01b031960e086901b1681526001600160a01b0393841660048201529290911660248301525160448083019260209291908290030181600087803b1580156200030957600080fd5b505af11580156200031e573d6000803e3d6000fd5b505050506040513d60208110156200033557600080fd5b5051601980546001600160a01b03199081166001600160a01b0393841617909155601880549091169282169290921790915533600090815260096020526040808220805460ff19908116600190811790925595909316825280822080548616841790553082529020805490931617909155506200044d565b3390565b828054600181600116156101000203166002900490600052602060002090601f016020900481019282601f10620003f457805160ff191683800117855562000424565b8280016001018555821562000424579182015b828111156200042457825182559160200191906001019062000407565b506200043292915062000436565b5090565b5b8082111562000432576000815560010162000437565b612d93806200045d6000396000f3fe6080604052600436106102345760003560e01c806352390c021161012e578063906e9dd0116100ab578063db2e21bc1161006f578063db2e21bc1461082b578063dd62ed3e14610840578063ea2f0b371461087b578063f2fde38b146108ae578063f375b253146108e15761023b565b8063906e9dd01461075c57806395d89b411461078f578063a457c2d7146107a4578063a9059cbb146107dd578063c9567bf9146108165761023b565b8063715018a6116100f2578063715018a6146106c057806387ceff09146106d557806388f82020146106ea5780638da5cb5b1461071d5780638ee88c53146107325761023b565b806352390c02146105df5780635342acb414610612578063610d5b19146106455780636bc87c3a1461067857806370a082311461068d5761023b565b8063313ce567116101bc5780633bd5d173116101805780633bd5d17314610511578063437823ec1461053b5780634549b0391461056e57806345596e2e146105a057806349bd5a5e146105ca5761023b565b8063313ce56714610432578063362a3c5d1461045d5780633685d4191461049057806339509351146104c35780633b124fe7146104fc5761023b565b80631694505e116102035780631694505e1461036a57806318160ddd1461039b5780631c75f085146103b057806323b872dd146103c55780632d838119146104085761023b565b8063061c82d01461024057806306fdde031461026c578063095ea7b3146102f657806313114a9d146103435761023b565b3661023b57005b600080fd5b34801561024c57600080fd5b5061026a6004803603602081101561026357600080fd5b5035610914565b005b34801561027857600080fd5b50610281610971565b6040805160208082528351818301528351919283929083019185019080838360005b838110156102bb5781810151838201526020016102a3565b50505050905090810190601f1680156102e85780820380516001836020036101000a031916815260200191505b509250505060405180910390f35b34801561030257600080fd5b5061032f6004803603604081101561031957600080fd5b506001600160a01b038135169060200135610a07565b604080519115158252519081900360200190f35b34801561034f57600080fd5b50610358610a25565b60408051918252519081900360200190f35b34801561037657600080fd5b5061037f610a2b565b604080516001600160a01b039092168252519081900360200190f35b3480156103a757600080fd5b50610358610a3a565b3480156103bc57600080fd5b5061037f610a40565b3480156103d157600080fd5b5061032f600480360360608110156103e857600080fd5b506001600160a01b03813581169160208101359091169060400135610a4f565b34801561041457600080fd5b506103586004803603602081101561042b57600080fd5b5035610ad6565b34801561043e57600080fd5b50610447610b38565b6040805160ff9092168252519081900360200190f35b34801561046957600080fd5b5061026a6004803603602081101561048057600080fd5b50356001600160a01b0316610b41565b34801561049c57600080fd5b5061026a600480360360208110156104b357600080fd5b50356001600160a01b0316610cf9565b3480156104cf57600080fd5b5061032f600480360360408110156104e657600080fd5b506001600160a01b038135169060200135610e8f565b34801561050857600080fd5b50610358610edd565b34801561051d57600080fd5b5061026a6004803603602081101561053457600080fd5b5035610ee3565b34801561054757600080fd5b5061026a6004803603602081101561055e57600080fd5b50356001600160a01b0316610fbd565b34801561057a57600080fd5b506103586004803603604081101561059157600080fd5b50803590602001351515611039565b3480156105ac57600080fd5b5061026a600480360360208110156105c357600080fd5b50356110cb565b3480156105d657600080fd5b5061037f611128565b3480156105eb57600080fd5b5061026a6004803603602081101561060257600080fd5b50356001600160a01b0316611137565b34801561061e57600080fd5b5061032f6004803603602081101561063557600080fd5b50356001600160a01b03166112bd565b34801561065157600080fd5b5061032f6004803603602081101561066857600080fd5b50356001600160a01b03166112db565b34801561068457600080fd5b506103586112f9565b34801561069957600080fd5b50610358600480360360208110156106b057600080fd5b50356001600160a01b03166112ff565b3480156106cc57600080fd5b5061026a611361565b3480156106e157600080fd5b50610358611403565b3480156106f657600080fd5b5061032f6004803603602081101561070d57600080fd5b50356001600160a01b0316611407565b34801561072957600080fd5b5061037f611425565b34801561073e57600080fd5b5061026a6004803603602081101561075557600080fd5b5035611434565b34801561076857600080fd5b5061026a6004803603602081101561077f57600080fd5b50356001600160a01b0316611491565b34801561079b57600080fd5b5061028161150b565b3480156107b057600080fd5b5061032f600480360360408110156107c757600080fd5b506001600160a01b03813516906020013561156c565b3480156107e957600080fd5b5061032f6004803603604081101561080057600080fd5b506001600160a01b0381351690602001356115d4565b34801561082257600080fd5b5061026a6115e8565b34801561083757600080fd5b5061026a611659565b34801561084c57600080fd5b506103586004803603604081101561086357600080fd5b506001600160a01b03813581169160200135166116f4565b34801561088757600080fd5b5061026a6004803603602081101561089e57600080fd5b50356001600160a01b031661171f565b3480156108ba57600080fd5b5061026a600480360360208110156108d157600080fd5b50356001600160a01b0316611798565b3480156108ed57600080fd5b5061026a6004803603602081101561090457600080fd5b50356001600160a01b0316611890565b61091c611a2e565b6000546001600160a01b0390811691161461096c576040805162461bcd60e51b81526020600482018190526024820152600080516020612c7b833981519152604482015290519081900360640190fd5b601255565b600f8054604080516020601f60026000196101006001881615020190951694909404938401819004810282018101909252828152606093909290918301828280156109fd5780601f106109d2576101008083540402835291602001916109fd565b820191906000526020600020905b8154815290600101906020018083116109e057829003601f168201915b5050505050905090565b6000610a1b610a14611a2e565b8484611a32565b5060015b92915050565b600e5490565b6018546001600160a01b031681565b600c5490565b6003546001600160a01b031681565b6000610a5c848484611b1e565b610acc84610a68611a2e565b610ac785604051806060016040528060288152602001612c53602891396001600160a01b038a16600090815260066020526040812090610aa6611a2e565b6001600160a01b031681526020810191909152604001600020549190611f1d565b611a32565b5060019392505050565b6000600d54821115610b195760405162461bcd60e51b815260040180806020018281038252602a815260200180612bc0602a913960400191505060405180910390fd5b6000610b23611fb4565b9050610b2f8382611fd7565b9150505b919050565b60115460ff1690565b610b49611a2e565b6000546001600160a01b03908116911614610b99576040805162461bcd60e51b81526020600482018190526024820152600080516020612c7b833981519152604482015290519081900360640190fd5b6001600160a01b03811660009081526007602052604090205460ff16610c06576040805162461bcd60e51b815260206004820152601a60248201527f4163636f756e74206973206e6f7420626c61636b6c6973746564000000000000604482015290519081900360640190fd5b60005b600854811015610cf557816001600160a01b031660088281548110610c2a57fe5b6000918252602090912001546001600160a01b03161415610ced57600880546000198101908110610c5757fe5b600091825260209091200154600880546001600160a01b039092169183908110610c7d57fe5b600091825260208083209190910180546001600160a01b0319166001600160a01b039485161790559184168152600790915260409020805460ff191690556008805480610cc657fe5b600082815260209020810160001990810180546001600160a01b0319169055019055610cf5565b600101610c09565b5050565b610d01611a2e565b6000546001600160a01b03908116911614610d51576040805162461bcd60e51b81526020600482018190526024820152600080516020612c7b833981519152604482015290519081900360640190fd5b6001600160a01b0381166000908152600a602052604090205460ff16610dbe576040805162461bcd60e51b815260206004820152601b60248201527f4163636f756e7420697320616c7265616479206578636c756465640000000000604482015290519081900360640190fd5b60005b600b54811015610cf557816001600160a01b0316600b8281548110610de257fe5b6000918252602090912001546001600160a01b03161415610e8757600b80546000198101908110610e0f57fe5b600091825260209091200154600b80546001600160a01b039092169183908110610e3557fe5b600091825260208083209190910180546001600160a01b0319166001600160a01b039485161790559184168152600582526040808220829055600a90925220805460ff19169055600b805480610cc657fe5b600101610dc1565b6000610a1b610e9c611a2e565b84610ac78560066000610ead611a2e565b6001600160a01b03908116825260208083019390935260409182016000908120918c168152925290205490612020565b60125481565b6000610eed611a2e565b6001600160a01b0381166000908152600a602052604090205490915060ff1615610f485760405162461bcd60e51b815260040180806020018281038252602c815260200180612d0d602c913960400191505060405180910390fd5b6000610f538361207a565b505050506001600160a01b038416600090815260046020526040902054919250610f7f919050826120c9565b6001600160a01b038316600090815260046020526040902055600d54610fa590826120c9565b600d55600e54610fb59084612020565b600e55505050565b610fc5611a2e565b6000546001600160a01b03908116911614611015576040805162461bcd60e51b81526020600482018190526024820152600080516020612c7b833981519152604482015290519081900360640190fd5b6001600160a01b03166000908152600960205260409020805460ff19166001179055565b6000600c54831115611092576040805162461bcd60e51b815260206004820152601f60248201527f416d6f756e74206d757374206265206c657373207468616e20737570706c7900604482015290519081900360640190fd5b816110b15760006110a28461207a565b50939550610a1f945050505050565b60006110bc8461207a565b50929550610a1f945050505050565b6110d3611a2e565b6000546001600160a01b03908116911614611123576040805162461bcd60e51b81526020600482018190526024820152600080516020612c7b833981519152604482015290519081900360640190fd5b601655565b6019546001600160a01b031681565b61113f611a2e565b6000546001600160a01b0390811691161461118f576040805162461bcd60e51b81526020600482018190526024820152600080516020612c7b833981519152604482015290519081900360640190fd5b6001600160a01b0381166000908152600a602052604090205460ff16156111fd576040805162461bcd60e51b815260206004820152601b60248201527f4163636f756e7420697320616c7265616479206578636c756465640000000000604482015290519081900360640190fd5b6001600160a01b03811660009081526004602052604090205415611257576001600160a01b03811660009081526004602052604090205461123d90610ad6565b6001600160a01b0382166000908152600560205260409020555b6001600160a01b03166000818152600a60205260408120805460ff19166001908117909155600b805491820181559091527f0175b7a638427703f0dbe7bb9bbf987a2551717b34e79f33b5b1008d1fa01db90180546001600160a01b0319169091179055565b6001600160a01b031660009081526009602052604090205460ff1690565b6001600160a01b031660009081526007602052604090205460ff1690565b60145481565b6001600160a01b0381166000908152600a602052604081205460ff161561133f57506001600160a01b038116600090815260056020526040902054610b33565b6001600160a01b038216600090815260046020526040902054610a1f90610ad6565b611369611a2e565b6000546001600160a01b039081169116146113b9576040805162461bcd60e51b81526020600482018190526024820152600080516020612c7b833981519152604482015290519081900360640190fd5b600080546040516001600160a01b03909116907f8be0079c531659141344cd1fd0a4f28419497f9722a3daafe3b4186f6b6457e0908390a3600080546001600160a01b0319169055565b4290565b6001600160a01b03166000908152600a602052604090205460ff1690565b6000546001600160a01b031690565b61143c611a2e565b6000546001600160a01b0390811691161461148c576040805162461bcd60e51b81526020600482018190526024820152600080516020612c7b833981519152604482015290519081900360640190fd5b601455565b611499611a2e565b6000546001600160a01b039081169116146114e9576040805162461bcd60e51b81526020600482018190526024820152600080516020612c7b833981519152604482015290519081900360640190fd5b600380546001600160a01b0319166001600160a01b0392909216919091179055565b60108054604080516020601f60026000196101006001881615020190951694909404938401819004810282018101909252828152606093909290918301828280156109fd5780601f106109d2576101008083540402835291602001916109fd565b6000610a1b611579611a2e565b84610ac785604051806060016040528060258152602001612d3960259139600660006115a3611a2e565b6001600160a01b03908116825260208083019390935260409182016000908120918d16815292529020549190611f1d565b6000610a1b6115e1611a2e565b8484611b1e565b6115f0611a2e565b6000546001600160a01b03908116911614611640576040805162461bcd60e51b81526020600482018190526024820152600080516020612c7b833981519152604482015290519081900360640190fd5b6019805460ff60a81b1916600160a81b17905542601755565b611661611a2e565b6000546001600160a01b039081169116146116b1576040805162461bcd60e51b81526020600482018190526024820152600080516020612c7b833981519152604482015290519081900360640190fd5b6116b9611425565b6001600160a01b03166108fc479081150290604051600060405180830381858888f193505050501580156116f1573d6000803e3d6000fd5b50565b6001600160a01b03918216600090815260066020908152604080832093909416825291909152205490565b611727611a2e565b6000546001600160a01b03908116911614611777576040805162461bcd60e51b81526020600482018190526024820152600080516020612c7b833981519152604482015290519081900360640190fd5b6001600160a01b03166000908152600960205260409020805460ff19169055565b6117a0611a2e565b6000546001600160a01b039081169116146117f0576040805162461bcd60e51b81526020600482018190526024820152600080516020612c7b833981519152604482015290519081900360640190fd5b6001600160a01b0381166118355760405162461bcd60e51b8152600401808060200182810382526026815260200180612bea6026913960400191505060405180910390fd5b600080546040516001600160a01b03808516939216917f8be0079c531659141344cd1fd0a4f28419497f9722a3daafe3b4186f6b6457e091a3600080546001600160a01b0319166001600160a01b0392909216919091179055565b611898611a2e565b6000546001600160a01b039081169116146118e8576040805162461bcd60e51b81526020600482018190526024820152600080516020612c7b833981519152604482015290519081900360640190fd5b737a250d5630b4cf539739df2c5dacb4c659f2488d6001600160a01b038216141561195a576040805162461bcd60e51b815260206004820152601b60248201527f57652063616e206e6f7420626c61636b6c69737420526f757465720000000000604482015290519081900360640190fd5b6001600160a01b03811660009081526007602052604090205460ff16156119c8576040805162461bcd60e51b815260206004820152601e60248201527f4163636f756e7420697320616c726561647920626c61636b6c69737465640000604482015290519081900360640190fd5b6001600160a01b03166000818152600760205260408120805460ff191660019081179091556008805491820181559091527ff3f7a9fe364faab93b216da50a3214154f22a0a2b415b23a84c8169e8b636ee30180546001600160a01b0319169091179055565b3390565b6001600160a01b038316611a775760405162461bcd60e51b8152600401808060200182810382526024815260200180612ce96024913960400191505060405180910390fd5b6001600160a01b038216611abc5760405162461bcd60e51b8152600401808060200182810382526022815260200180612c106022913960400191505060405180910390fd5b6001600160a01b03808416600081815260066020908152604080832094871680845294825291829020859055815185815291517f8c5be1e5ebec7d5bd14f71427d1e84f3dd0314c0f7b2291e5b200ac8c7c3b9259281900390910190a3505050565b6001600160a01b038316611b635760405162461bcd60e51b8152600401808060200182810382526025815260200180612cc46025913960400191505060405180910390fd5b6001600160a01b038216611ba85760405162461bcd60e51b8152600401808060200182810382526023815260200180612b9d6023913960400191505060405180910390fd5b60008111611be75760405162461bcd60e51b8152600401808060200182810382526029815260200180612c9b6029913960400191505060405180910390fd5b6001600160a01b03821660009081526007602052604090205460ff1615611c4f576040805162461bcd60e51b8152602060048201526017602482015276596f752068617665206e6f20706f77657220686572652160481b604482015290519081900360640190fd5b3360009081526007602052604090205460ff1615611cae576040805162461bcd60e51b8152602060048201526017602482015276596f752068617665206e6f20706f77657220686572652160481b604482015290519081900360640190fd5b6019546001600160a01b038481169116148015611cd957506018546001600160a01b03838116911614155b8015611cfe57506001600160a01b03821660009081526009602052604090205460ff16155b15611dd157601954600160a81b900460ff16611d61576040805162461bcd60e51b815260206004820152601860248201527f54726164696e67206e6f742079657420656e61626c65642e0000000000000000604482015290519081900360640190fd5b601754421415611dd1576001600160a01b0382166000818152600760205260408120805460ff191660019081179091556008805491820181559091527ff3f7a9fe364faab93b216da50a3214154f22a0a2b415b23a84c8169e8b636ee30180546001600160a01b03191690911790555b6000611ddc306112ff565b601954909150600160a01b900460ff16158015611e025750601954600160a81b900460ff165b8015611e1b57506019546001600160a01b038481169116145b15611e8d578015611e8d57601654601954611e5691606491611e509190611e4a906001600160a01b03166112ff565b9061210b565b90611fd7565b811115611e8457601654601954611e8191606491611e509190611e4a906001600160a01b03166112ff565b90505b611e8d81612164565b6019546000906001600160a01b0386811691161480611eb957506019546001600160a01b038581169116145b8015611f0157506001600160a01b03851660009081526009602052604090205460ff1680611eff57506001600160a01b03841660009081526009602052604090205460ff165b155b15611f0a575060015b611f16858585846121db565b5050505050565b60008184841115611fac5760405162461bcd60e51b81526004018080602001828103825283818151815260200191508051906020019080838360005b83811015611f71578181015183820152602001611f59565b50505050905090810190601f168015611f9e5780820380516001836020036101000a031916815260200191505b509250505060405180910390fd5b505050900390565b6000806000611fc16122fd565b9092509050611fd08282611fd7565b9250505090565b600061201983836040518060400160405280601a81526020017f536166654d6174683a206469766973696f6e206279207a65726f000000000000815250612460565b9392505050565b600082820183811015612019576040805162461bcd60e51b815260206004820152601b60248201527f536166654d6174683a206164646974696f6e206f766572666c6f770000000000604482015290519081900360640190fd5b60008060008060008060008060006120918a6124c5565b92509250925060008060006120af8d86866120aa611fb4565b612507565b919f909e50909c50959a5093985091965092945050505050565b600061201983836040518060400160405280601e81526020017f536166654d6174683a207375627472616374696f6e206f766572666c6f770000815250611f1d565b60008261211a57506000610a1f565b8282028284828161212757fe5b04146120195760405162461bcd60e51b8152600401808060200182810382526021815260200180612c326021913960400191505060405180910390fd5b6019805460ff60a01b1916600160a01b17905561218081612557565b604080518281524760208201819052825190927f738b737502df4c5f230bbb98a45ea9c2821bad262e880f883357ad3695f8dae4928290030190a180156121ca576121ca47612782565b50506019805460ff60a01b19169055565b806121e8576121e86127f3565b6001600160a01b0384166000908152600a602052604090205460ff16801561222957506001600160a01b0383166000908152600a602052604090205460ff16155b1561223e57612239848484612825565b6122ea565b6001600160a01b0384166000908152600a602052604090205460ff1615801561227f57506001600160a01b0383166000908152600a602052604090205460ff165b1561228f57612239848484612949565b6001600160a01b0384166000908152600a602052604090205460ff1680156122cf57506001600160a01b0383166000908152600a602052604090205460ff165b156122df576122398484846129f2565b6122ea848484612a65565b806122f7576122f7612aa9565b50505050565b600d54600c546000918291825b600b5481101561242e578260046000600b848154811061232657fe5b60009182526020808320909101546001600160a01b03168352820192909252604001902054118061238b57508160056000600b848154811061236457fe5b60009182526020808320909101546001600160a01b03168352820192909252604001902054115b156123a257600d54600c549450945050505061245c565b6123e260046000600b84815481106123b657fe5b60009182526020808320909101546001600160a01b0316835282019290925260400190205484906120c9565b925061242460056000600b84815481106123f857fe5b60009182526020808320909101546001600160a01b0316835282019290925260400190205483906120c9565b915060010161230a565b50600c54600d5461243e91611fd7565b82101561245657600d54600c5493509350505061245c565b90925090505b9091565b600081836124af5760405162461bcd60e51b8152602060048201818152835160248401528351909283926044909101919085019080838360008315611f71578181015183820152602001611f59565b5060008385816124bb57fe5b0495945050505050565b6000806000806124d485612ab7565b905060006124e186612ad3565b905060006124f9826124f389866120c9565b906120c9565b979296509094509092505050565b6000808080612516888661210b565b90506000612524888761210b565b90506000612532888861210b565b90506000612544826124f386866120c9565b939b939a50919850919650505050505050565b6040805160028082526060808301845292602083019080368337019050509050308160008151811061258557fe5b6001600160a01b03928316602091820292909201810191909152601854604080516315ab88c960e31b81529051919093169263ad5c4648926004808301939192829003018186803b1580156125d957600080fd5b505afa1580156125ed573d6000803e3d6000fd5b505050506040513d602081101561260357600080fd5b505181518290600190811061261457fe5b6001600160a01b03928316602091820292909201015260185461263a9130911684611a32565b60185460405163791ac94760e01b8152600481018481526000602483018190523060648401819052426084850181905260a060448601908152875160a487015287516001600160a01b039097169663791ac947968a968a9594939092909160c40190602080880191028083838b5b838110156126c05781810151838201526020016126a8565b505050509050019650505050505050600060405180830381600087803b1580156126e957600080fd5b505af11580156126fd573d6000803e3d6000fd5b505050507f32cde87eb454f3a0b875ab23547023107cfad454363ec88ba5695e2c24aa52a782826040518083815260200180602001828103825283818151815260200191508051906020019060200280838360005b8381101561276a578181015183820152602001612752565b50505050905001935050505060405180910390a15050565b6003546040516001600160a01b039091169082156108fc029083906000818181858888f193505050501580156127bc573d6000803e3d6000fd5b506040805182815290517fb6b34f3cfef2b0bb0e47223ab355ff7c3615a62fe5f469444611e679411246c69181900360200190a150565b6012541580156128035750601454155b1561280d57612823565b6012805460135560148054601555600091829055555b565b6000806000806000806128378761207a565b6001600160a01b038f16600090815260056020526040902054959b5093995091975095509350915061286990886120c9565b6001600160a01b038a1660009081526005602090815260408083209390935560049052205461289890876120c9565b6001600160a01b03808b1660009081526004602052604080822093909355908a16815220546128c79086612020565b6001600160a01b0389166000908152600460205260409020556128e981612aef565b6128f38483612b78565b876001600160a01b0316896001600160a01b03167fddf252ad1be2c89b69c2b068fc378daa952ba7f163c4a11628f55a4df523b3ef856040518082815260200191505060405180910390a3505050505050505050565b60008060008060008061295b8761207a565b6001600160a01b038f16600090815260046020526040902054959b5093995091975095509350915061298d90876120c9565b6001600160a01b03808b16600090815260046020908152604080832094909455918b168152600590915220546129c39084612020565b6001600160a01b0389166000908152600560209081526040808320939093556004905220546128c79086612020565b600080600080600080612a048761207a565b6001600160a01b038f16600090815260056020526040902054959b50939950919750955093509150612a3690886120c9565b6001600160a01b038a1660009081526005602090815260408083209390935560049052205461298d90876120c9565b600080600080600080612a778761207a565b6001600160a01b038f16600090815260046020526040902054959b5093995091975095509350915061289890876120c9565b601354601255601554601455565b6000610a1f6064611e506012548561210b90919063ffffffff16565b6000610a1f6064611e506014548561210b90919063ffffffff16565b6000612af9611fb4565b90506000612b07838361210b565b30600090815260046020526040902054909150612b249082612020565b30600090815260046020908152604080832093909355600a9052205460ff1615612b735730600090815260056020526040902054612b629084612020565b306000908152600560205260409020555b505050565b600d54612b8590836120c9565b600d55600e54612b959082612020565b600e55505056fe45524332303a207472616e7366657220746f20746865207a65726f2061646472657373416d6f756e74206d757374206265206c657373207468616e20746f74616c207265666c656374696f6e734f776e61626c653a206e6577206f776e657220697320746865207a65726f206164647265737345524332303a20617070726f766520746f20746865207a65726f2061646472657373536166654d6174683a206d756c7469706c69636174696f6e206f766572666c6f7745524332303a207472616e7366657220616d6f756e74206578636565647320616c6c6f77616e63654f776e61626c653a2063616c6c6572206973206e6f7420746865206f776e65725472616e7366657220616d6f756e74206d7573742062652067726561746572207468616e207a65726f45524332303a207472616e736665722066726f6d20746865207a65726f206164647265737345524332303a20617070726f76652066726f6d20746865207a65726f20616464726573734578636c75646564206164647265737365732063616e6e6f742063616c6c20746869732066756e6374696f6e45524332303a2064656372656173656420616c6c6f77616e63652062656c6f77207a65726fa264697066735822122069281ea315238fab76a5d4fe053e6857bf07f6bcb922d5cd3456db80c849b7ed64736f6c634300060c0033",
  "linkReferences": {},
  "deployedLinkReferences": {}
}