{
  "_format": "hh-sol-artifact-1",
  "contractName": "dETHV3",
  "sourceName": "contracts/dethV3.sol",
  "abi": [
    {
      "inputs": [],
      "stateMutability": "nonpayable",
      "type": "constructor"
    },
    {
      "anonymous": false,
      "inputs": [
        {
          "indexed": true,
          "internalType": "address",
          "name": "owner",
          "type": "address"
        },
        {
          "indexed": true,
          "internalType": "address",
          "name": "spender",
          "type": "address"
        },
        {
          "indexed": false,
          "internalType": "uint256",
          "name": "value",
          "type": "uint256"
        }
      ],
      "name": "Approval",
      "type": "event"
    },
    {
      "anonymous": false,
      "inputs": [
        {
          "indexed": true,
          "internalType": "address",
          "name": "account",
          "type": "address"
        },
        {
          "indexed": false,
          "internalType": "bool",
          "name": "isExcluded",
          "type": "bool"
        }
      ],
      "name": "ExcludeFromFees",
      "type": "event"
    },
    {
      "anonymous": false,
      "inputs": [
        {
          "indexed": false,
          "internalType": "address[]",
          "name": "accounts",
          "type": "address[]"
        },
        {
          "indexed": false,
          "internalType": "bool",
          "name": "isExcluded",
          "type": "bool"
        }
      ],
      "name": "ExcludeMultipleAccountsFromFees",
      "type": "event"
    },
    {
      "anonymous": false,
      "inputs": [
        {
          "indexed": true,
          "internalType": "uint256",
          "name": "newValue",
          "type": "uint256"
        },
        {
          "indexed": true,
          "internalType": "uint256",
          "name": "oldValue",
          "type": "uint256"
        }
      ],
      "name": "GasForProcessingUpdated",
      "type": "event"
    },
    {
      "anonymous": false,
      "inputs": [
        {
          "indexed": true,
          "internalType": "address",
          "name": "newLiquidityWallet",
          "type": "address"
        },
        {
          "indexed": true,
          "internalType": "address",
          "name": "oldLiquidityWallet",
          "type": "address"
        }
      ],
      "name": "LiquidityWalletUpdated",
      "type": "event"
    },
    {
      "anonymous": false,
      "inputs": [
        {
          "indexed": true,
          "internalType": "address",
          "name": "previousOwner",
          "type": "address"
        },
        {
          "indexed": true,
          "internalType": "address",
          "name": "newOwner",
          "type": "address"
        }
      ],
      "name": "OwnershipTransferred",
      "type": "event"
    },
    {
      "anonymous": false,
      "inputs": [
        {
          "indexed": false,
          "internalType": "uint256",
          "name": "iterations",
          "type": "uint256"
        },
        {
          "indexed": false,
          "internalType": "uint256",
          "name": "claims",
          "type": "uint256"
        },
        {
          "indexed": false,
          "internalType": "uint256",
          "name": "lastProcessedIndex",
          "type": "uint256"
        },
        {
          "indexed": true,
          "internalType": "bool",
          "name": "automatic",
          "type": "bool"
        },
        {
          "indexed": false,
          "internalType": "uint256",
          "name": "gas",
          "type": "uint256"
        },
        {
          "indexed": true,
          "internalType": "address",
          "name": "processor",
          "type": "address"
        }
      ],
      "name": "ProcessedDividendTracker",
      "type": "event"
    },
    {
      "anonymous": false,
      "inputs": [
        {
          "indexed": false,
          "internalType": "uint256",
          "name": "tokensSwapped",
          "type": "uint256"
        },
        {
          "indexed": false,
          "internalType": "uint256",
          "name": "amount",
          "type": "uint256"
        }
      ],
      "name": "SendDividends",
      "type": "event"
    },
    {
      "anonymous": false,
      "inputs": [
        {
          "indexed": true,
          "internalType": "address",
          "name": "pair",
          "type": "address"
        },
        {
          "indexed": true,
          "internalType": "bool",
          "name": "value",
          "type": "bool"
        }
      ],
      "name": "SetAutomatedMarketMakerPair",
      "type": "event"
    },
    {
      "anonymous": false,
      "inputs": [
        {
          "indexed": false,
          "internalType": "uint256",
          "name": "tokensSwapped",
          "type": "uint256"
        },
        {
          "indexed": false,
          "internalType": "uint256",
          "name": "ethReceived",
          "type": "uint256"
        },
        {
          "indexed": false,
          "internalType": "uint256",
          "name": "tokensIntoLiqudity",
          "type": "uint256"
        }
      ],
      "name": "SwapAndLiquify",
      "type": "event"
    },
    {
      "anonymous": false,
      "inputs": [
        {
          "indexed": true,
          "internalType": "address",
          "name": "from",
          "type": "address"
        },
        {
          "indexed": true,
          "internalType": "address",
          "name": "to",
          "type": "address"
        },
        {
          "indexed": false,
          "internalType": "uint256",
          "name": "value",
          "type": "uint256"
        }
      ],
      "name": "Transfer",
      "type": "event"
    },
    {
      "anonymous": false,
      "inputs": [
        {
          "indexed": true,
          "internalType": "address",
          "name": "newAddress",
          "type": "address"
        },
        {
          "indexed": true,
          "internalType": "address",
          "name": "oldAddress",
          "type": "address"
        }
      ],
      "name": "UpdateDividendTracker",
      "type": "event"
    },
    {
      "anonymous": false,
      "inputs": [
        {
          "indexed": true,
          "internalType": "address",
          "name": "newAddress",
          "type": "address"
        },
        {
          "indexed": true,
          "internalType": "address",
          "name": "oldAddress",
          "type": "address"
        }
      ],
      "name": "UpdateUniswapV2Router",
      "type": "event"
    },
    {
      "anonymous": false,
      "inputs": [
        {
          "indexed": true,
          "internalType": "address",
          "name": "newmarketingWallet",
          "type": "address"
        },
        {
          "indexed": true,
          "internalType": "address",
          "name": "oldmarketingWallet",
          "type": "address"
        }
      ],
      "name": "marketingWalletUpdated",
      "type": "event"
    },
    {
      "inputs": [],
      "name": "ETHRewardsFee",
      "outputs": [
        {
          "internalType": "uint256",
          "name": "",
          "type": "uint256"
        }
      ],
      "stateMutability": "view",
      "type": "function"
    },
    {
      "inputs": [],
      "name": "Launch",
      "outputs": [],
      "stateMutability": "nonpayable",
      "type": "function"
    },
    {
      "inputs": [],
      "name": "MAX_FEE_RATE",
      "outputs": [
        {
          "internalType": "uint256",
          "name": "",
          "type": "uint256"
        }
      ],
      "stateMutability": "view",
      "type": "function"
    },
    {
      "inputs": [
        {
          "internalType": "address",
          "name": "_Wallet",
          "type": "address"
        }
      ],
      "name": "SetcanTransferBeforeTradingIsEnabled",
      "outputs": [],
      "stateMutability": "nonpayable",
      "type": "function"
    },
    {
      "inputs": [
        {
          "internalType": "address",
          "name": "_router",
          "type": "address"
        }
      ],
      "name": "adminCreatePair",
      "outputs": [],
      "stateMutability": "nonpayable",
      "type": "function"
    },
    {
      "inputs": [
        {
          "internalType": "address",
          "name": "owner",
          "type": "address"
        },
        {
          "internalType": "address",
          "name": "spender",
          "type": "address"
        }
      ],
      "name": "allowance",
      "outputs": [
        {
          "internalType": "uint256",
          "name": "",
          "type": "uint256"
        }
      ],
      "stateMutability": "view",
      "type": "function"
    },
    {
      "inputs": [
        {
          "internalType": "address",
          "name": "spender",
          "type": "address"
        },
        {
          "internalType": "uint256",
          "name": "amount",
          "type": "uint256"
        }
      ],
      "name": "approve",
      "outputs": [
        {
          "internalType": "bool",
          "name": "",
          "type": "bool"
        }
      ],
      "stateMutability": "nonpayable",
      "type": "function"
    },
    {
      "inputs": [
        {
          "internalType": "address",
          "name": "",
          "type": "address"
        }
      ],
      "name": "automatedMarketMakerPairs",
      "outputs": [
        {
          "internalType": "bool",
          "name": "",
          "type": "bool"
        }
      ],
      "stateMutability": "view",
      "type": "function"
    },
    {
      "inputs": [
        {
          "internalType": "address",
          "name": "account",
          "type": "address"
        }
      ],
      "name": "balanceOf",
      "outputs": [
        {
          "internalType": "uint256",
          "name": "",
          "type": "uint256"
        }
      ],
      "stateMutability": "view",
      "type": "function"
    },
    {
      "inputs": [],
      "name": "claim",
      "outputs": [],
      "stateMutability": "nonpayable",
      "type": "function"
    },
    {
      "inputs": [],
      "name": "decimals",
      "outputs": [
        {
          "internalType": "uint8",
          "name": "",
          "type": "uint8"
        }
      ],
      "stateMutability": "view",
      "type": "function"
    },
    {
      "inputs": [
        {
          "internalType": "address",
          "name": "spender",
          "type": "address"
        },
        {
          "internalType": "uint256",
          "name": "subtractedValue",
          "type": "uint256"
        }
      ],
      "name": "decreaseAllowance",
      "outputs": [
        {
          "internalType": "bool",
          "name": "",
          "type": "bool"
        }
      ],
      "stateMutability": "nonpayable",
      "type": "function"
    },
    {
      "inputs": [
        {
          "internalType": "address",
          "name": "account",
          "type": "address"
        }
      ],
      "name": "dividendTokenBalanceOf",
      "outputs": [
        {
          "internalType": "uint256",
          "name": "",
          "type": "uint256"
        }
      ],
      "stateMutability": "view",
      "type": "function"
    },
    {
      "inputs": [],
      "name": "dividendTracker",
      "outputs": [
        {
          "internalType": "contract dETHDividendTracker",
          "name": "",
          "type": "address"
        }
      ],
      "stateMutability": "view",
      "type": "function"
    },
    {
      "inputs": [
        {
          "internalType": "address",
          "name": "account",
          "type": "address"
        },
        {
          "internalType": "bool",
          "name": "excluded",
          "type": "bool"
        }
      ],
      "name": "excludeFromFees",
      "outputs": [],
      "stateMutability": "nonpayable",
      "type": "function"
    },
    {
      "inputs": [
        {
          "internalType": "address[]",
          "name": "accounts",
          "type": "address[]"
        },
        {
          "internalType": "bool",
          "name": "excluded",
          "type": "bool"
        }
      ],
      "name": "excludeMultipleAccountsFromFees",
      "outputs": [],
      "stateMutability": "nonpayable",
      "type": "function"
    },
    {
      "inputs": [],
      "name": "gasForProcessing",
      "outputs": [
        {
          "internalType": "uint256",
          "name": "",
          "type": "uint256"
        }
      ],
      "stateMutability": "view",
      "type": "function"
    },
    {
      "inputs": [
        {
          "internalType": "address",
          "name": "account",
          "type": "address"
        }
      ],
      "name": "getAccountDividendsInfo",
      "outputs": [
        {
          "internalType": "address",
          "name": "",
          "type": "address"
        },
        {
          "internalType": "int256",
          "name": "",
          "type": "int256"
        },
        {
          "internalType": "int256",
          "name": "",
          "type": "int256"
        },
        {
          "internalType": "uint256",
          "name": "",
          "type": "uint256"
        },
        {
          "internalType": "uint256",
          "name": "",
          "type": "uint256"
        },
        {
          "internalType": "uint256",
          "name": "",
          "type": "uint256"
        },
        {
          "internalType": "uint256",
          "name": "",
          "type": "uint256"
        },
        {
          "internalType": "uint256",
          "name": "",
          "type": "uint256"
        }
      ],
      "stateMutability": "view",
      "type": "function"
    },
    {
      "inputs": [
        {
          "internalType": "uint256",
          "name": "index",
          "type": "uint256"
        }
      ],
      "name": "getAccountDividendsInfoAtIndex",
      "outputs": [
        {
          "internalType": "address",
          "name": "",
          "type": "address"
        },
        {
          "internalType": "int256",
          "name": "",
          "type": "int256"
        },
        {
          "internalType": "int256",
          "name": "",
          "type": "int256"
        },
        {
          "internalType": "uint256",
          "name": "",
          "type": "uint256"
        },
        {
          "internalType": "uint256",
          "name": "",
          "type": "uint256"
        },
        {
          "internalType": "uint256",
          "name": "",
          "type": "uint256"
        },
        {
          "internalType": "uint256",
          "name": "",
          "type": "uint256"
        },
        {
          "internalType": "uint256",
          "name": "",
          "type": "uint256"
        }
      ],
      "stateMutability": "view",
      "type": "function"
    },
    {
      "inputs": [],
      "name": "getClaimWait",
      "outputs": [
        {
          "internalType": "uint256",
          "name": "",
          "type": "uint256"
        }
      ],
      "stateMutability": "view",
      "type": "function"
    },
    {
      "inputs": [],
      "name": "getLastProcessedIndex",
      "outputs": [
        {
          "internalType": "uint256",
          "name": "",
          "type": "uint256"
        }
      ],
      "stateMutability": "view",
      "type": "function"
    },
    {
      "inputs": [],
      "name": "getNumberOfDividendTokenHolders",
      "outputs": [
        {
          "internalType": "uint256",
          "name": "",
          "type": "uint256"
        }
      ],
      "stateMutability": "view",
      "type": "function"
    },
    {
      "inputs": [],
      "name": "getTotalDividendsDistributed",
      "outputs": [
        {
          "internalType": "uint256",
          "name": "",
          "type": "uint256"
        }
      ],
      "stateMutability": "view",
      "type": "function"
    },
    {
      "inputs": [],
      "name": "getTradingIsEnabled",
      "outputs": [
        {
          "internalType": "bool",
          "name": "",
          "type": "bool"
        }
      ],
      "stateMutability": "view",
      "type": "function"
    },
    {
      "inputs": [
        {
          "internalType": "address",
          "name": "spender",
          "type": "address"
        },
        {
          "internalType": "uint256",
          "name": "addedValue",
          "type": "uint256"
        }
      ],
      "name": "increaseAllowance",
      "outputs": [
        {
          "internalType": "bool",
          "name": "",
          "type": "bool"
        }
      ],
      "stateMutability": "nonpayable",
      "type": "function"
    },
    {
      "inputs": [
        {
          "internalType": "address",
          "name": "account",
          "type": "address"
        }
      ],
      "name": "isExcludedFromFees",
      "outputs": [
        {
          "internalType": "bool",
          "name": "",
          "type": "bool"
        }
      ],
      "stateMutability": "view",
      "type": "function"
    },
    {
      "inputs": [],
      "name": "liquidityFee",
      "outputs": [
        {
          "internalType": "uint256",
          "name": "",
          "type": "uint256"
        }
      ],
      "stateMutability": "view",
      "type": "function"
    },
    {
      "inputs": [],
      "name": "liquidityWallet",
      "outputs": [
        {
          "internalType": "address",
          "name": "",
          "type": "address"
        }
      ],
      "stateMutability": "view",
      "type": "function"
    },
    {
      "inputs": [],
      "name": "marketingFee",
      "outputs": [
        {
          "internalType": "uint256",
          "name": "",
          "type": "uint256"
        }
      ],
      "stateMutability": "view",
      "type": "function"
    },
    {
      "inputs": [],
      "name": "marketingWallet",
      "outputs": [
        {
          "internalType": "address",
          "name": "",
          "type": "address"
        }
      ],
      "stateMutability": "view",
      "type": "function"
    },
    {
      "inputs": [],
      "name": "maxSellTransactionAmount",
      "outputs": [
        {
          "internalType": "uint256",
          "name": "",
          "type": "uint256"
        }
      ],
      "stateMutability": "view",
      "type": "function"
    },
    {
      "inputs": [],
      "name": "name",
      "outputs": [
        {
          "internalType": "string",
          "name": "",
          "type": "string"
        }
      ],
      "stateMutability": "view",
      "type": "function"
    },
    {
      "inputs": [],
      "name": "owner",
      "outputs": [
        {
          "internalType": "address",
          "name": "",
          "type": "address"
        }
      ],
      "stateMutability": "view",
      "type": "function"
    },
    {
      "inputs": [
        {
          "internalType": "uint256",
          "name": "gas",
          "type": "uint256"
        }
      ],
      "name": "processDividendTracker",
      "outputs": [],
      "stateMutability": "nonpayable",
      "type": "function"
    },
    {
      "inputs": [],
      "name": "renounceOwnership",
      "outputs": [],
      "stateMutability": "nonpayable",
      "type": "function"
    },
    {
      "inputs": [],
      "name": "sellFeeIncreaseFactor",
      "outputs": [
        {
          "internalType": "uint256",
          "name": "",
          "type": "uint256"
        }
      ],
      "stateMutability": "view",
      "type": "function"
    },
    {
      "inputs": [
        {
          "internalType": "address",
          "name": "pair",
          "type": "address"
        },
        {
          "internalType": "bool",
          "name": "value",
          "type": "bool"
        }
      ],
      "name": "setAutomatedMarketMakerPair",
      "outputs": [],
      "stateMutability": "nonpayable",
      "type": "function"
    },
    {
      "inputs": [
        {
          "internalType": "uint256",
          "name": "_maxTxn",
          "type": "uint256"
        }
      ],
      "name": "setMaxSellTransaction",
      "outputs": [],
      "stateMutability": "nonpayable",
      "type": "function"
    },
    {
      "inputs": [
        {
          "internalType": "uint256",
          "name": "_swapAmount",
          "type": "uint256"
        }
      ],
      "name": "setSwapTokensAtAmount",
      "outputs": [],
      "stateMutability": "nonpayable",
      "type": "function"
    },
    {
      "inputs": [],
      "name": "swapTokensAtAmount",
      "outputs": [
        {
          "internalType": "uint256",
          "name": "",
          "type": "uint256"
        }
      ],
      "stateMutability": "view",
      "type": "function"
    },
    {
      "inputs": [],
      "name": "symbol",
      "outputs": [
        {
          "internalType": "string",
          "name": "",
          "type": "string"
        }
      ],
      "stateMutability": "view",
      "type": "function"
    },
    {
      "inputs": [],
      "name": "totalFees",
      "outputs": [
        {
          "internalType": "uint256",
          "name": "",
          "type": "uint256"
        }
      ],
      "stateMutability": "view",
      "type": "function"
    },
    {
      "inputs": [],
      "name": "totalSupply",
      "outputs": [
        {
          "internalType": "uint256",
          "name": "",
          "type": "uint256"
        }
      ],
      "stateMutability": "view",
      "type": "function"
    },
    {
      "inputs": [],
      "name": "tradingIsEnabled",
      "outputs": [
        {
          "internalType": "bool",
          "name": "",
          "type": "bool"
        }
      ],
      "stateMutability": "view",
      "type": "function"
    },
    {
      "inputs": [
        {
          "internalType": "address",
          "name": "recipient",
          "type": "address"
        },
        {
          "internalType": "uint256",
          "name": "amount",
          "type": "uint256"
        }
      ],
      "name": "transfer",
      "outputs": [
        {
          "internalType": "bool",
          "name": "",
          "type": "bool"
        }
      ],
      "stateMutability": "nonpayable",
      "type": "function"
    },
    {
      "inputs": [
        {
          "internalType": "address",
          "name": "sender",
          "type": "address"
        },
        {
          "internalType": "address",
          "name": "recipient",
          "type": "address"
        },
        {
          "internalType": "uint256",
          "name": "amount",
          "type": "uint256"
        }
      ],
      "name": "transferFrom",
      "outputs": [
        {
          "internalType": "bool",
          "name": "",
          "type": "bool"
        }
      ],
      "stateMutability": "nonpayable",
      "type": "function"
    },
    {
      "inputs": [
        {
          "internalType": "address",
          "name": "newOwner",
          "type": "address"
        }
      ],
      "name": "transferOwnership",
      "outputs": [],
      "stateMutability": "nonpayable",
      "type": "function"
    },
    {
      "inputs": [],
      "name": "uniswapV2Pair",
      "outputs": [
        {
          "internalType": "address",
          "name": "",
          "type": "address"
        }
      ],
      "stateMutability": "view",
      "type": "function"
    },
    {
      "inputs": [],
      "name": "uniswapV2Router",
      "outputs": [
        {
          "internalType": "contract IUniswapV2Router02",
          "name": "",
          "type": "address"
        }
      ],
      "stateMutability": "view",
      "type": "function"
    },
    {
      "inputs": [
        {
          "internalType": "uint8",
          "name": "newFee",
          "type": "uint8"
        }
      ],
      "name": "updateBNBRewardsFee",
      "outputs": [],
      "stateMutability": "nonpayable",
      "type": "function"
    },
    {
      "inputs": [
        {
          "internalType": "uint256",
          "name": "claimWait",
          "type": "uint256"
        }
      ],
      "name": "updateClaimWait",
      "outputs": [],
      "stateMutability": "nonpayable",
      "type": "function"
    },
    {
      "inputs": [
        {
          "internalType": "address",
          "name": "newAddress",
          "type": "address"
        }
      ],
      "name": "updateDividendTracker",
      "outputs": [],
      "stateMutability": "nonpayable",
      "type": "function"
    },
    {
      "inputs": [
        {
          "internalType": "uint256",
          "name": "newValue",
          "type": "uint256"
        }
      ],
      "name": "updateGasForProcessing",
      "outputs": [],
      "stateMutability": "nonpayable",
      "type": "function"
    },
    {
      "inputs": [
        {
          "internalType": "uint8",
          "name": "newFee",
          "type": "uint8"
        }
      ],
      "name": "updateLiquidityFee",
      "outputs": [],
      "stateMutability": "nonpayable",
      "type": "function"
    },
    {
      "inputs": [
        {
          "internalType": "address",
          "name": "newLiquidityWallet",
          "type": "address"
        }
      ],
      "name": "updateLiquidityWallet",
      "outputs": [],
      "stateMutability": "nonpayable",
      "type": "function"
    },
    {
      "inputs": [
        {
          "internalType": "uint8",
          "name": "newFee",
          "type": "uint8"
        }
      ],
      "name": "updateMarketingFee",
      "outputs": [],
      "stateMutability": "nonpayable",
      "type": "function"
    },
    {
      "inputs": [
        {
          "internalType": "uint256",
          "name": "newMinimumBalance",
          "type": "uint256"
        }
      ],
      "name": "updateMinimumBalanceForDividends",
      "outputs": [],
      "stateMutability": "nonpayable",
      "type": "function"
    },
    {
      "inputs": [
        {
          "internalType": "address",
          "name": "newAddress",
          "type": "address"
        }
      ],
      "name": "updateUniswapV2Router",
      "outputs": [],
      "stateMutability": "nonpayable",
      "type": "function"
    },
    {
      "inputs": [
        {
          "internalType": "address",
          "name": "newmarketingWallet",
          "type": "address"
        }
      ],
      "name": "updatemarketingWallet",
      "outputs": [],
      "stateMutability": "nonpayable",
      "type": "function"
    },
    {
      "inputs": [
        {
          "internalType": "address",
          "name": "account",
          "type": "address"
        }
      ],
      "name": "withdrawableDividendOf",
      "outputs": [
        {
          "internalType": "uint256",
          "name": "",
          "type": "uint256"
        }
      ],
      "stateMutability": "view",
      "type": "function"
    },
    {
      "stateMutability": "payable",
      "type": "receive"
    }
  ],
  "bytecode": "0x60a06040526a084595161401484a000000600a5568056bc75e2d63100000600b55600c80546001600160a01b0319167372d57a858a619cf05b4755968a094cad93f139861790556064608052620493e06011556012805460ff191690553480156200006957600080fd5b506040805180820182526009815268088cacecadc408aa8960bb1b6020808301918252835180850190945260048452630c88aa8960e31b908401528151919291620000b79160039162000664565b508051620000cd90600490602084019062000664565b5050506000620000e2620003ae60201b60201c565b600580546001600160a01b0319166001600160a01b038316908117909155604051919250906000907f8be0079c531659141344cd1fd0a4f28419497f9722a3daafe3b4186f6b6457e0908290a3506006600d819055600e8190556008600f81905581906200017681620001628480620003b2602090811b62002a4617901c565b620003b260201b62002a461790919060201c565b6010556040516200018790620006e9565b604051809103906000f080158015620001a4573d6000803e3d6000fd5b50600880546001600160a01b0319166001600160a01b0392909216919091179055620001cf62000414565b600980546001600160a01b0319166001600160a01b039283161790556008546040805163031e79db60e41b8152919092166004820181905291516331e79db09160248082019260009290919082900301818387803b1580156200023157600080fd5b505af115801562000246573d6000803e3d6000fd5b50506008546040805163031e79db60e41b815230600482015290516001600160a01b0390921693506331e79db0925060248082019260009290919082900301818387803b1580156200029757600080fd5b505af1158015620002ac573d6000803e3d6000fd5b50506008546001600160a01b031691506331e79db09050620002cd62000414565b6040518263ffffffff1660e01b815260040180826001600160a01b03168152602001915050600060405180830381600087803b1580156200030d57600080fd5b505af115801562000322573d6000803e3d6000fd5b50506009546200034092506001600160a01b03169050600162000423565b6200034d30600162000423565b6001601460006200035d62000414565b6001600160a01b031681526020810191909152604001600020805460ff1916911515919091179055620003a56200039362000414565b6a084595161401484a00000062000550565b5050506200070e565b3390565b6000828201838110156200040d576040805162461bcd60e51b815260206004820152601b60248201527f536166654d6174683a206164646974696f6e206f766572666c6f770000000000604482015290519081900360640190fd5b9392505050565b6005546001600160a01b031690565b6200042d620003ae565b6005546001600160a01b0390811691161462000490576040805162461bcd60e51b815260206004820181905260248201527f4f776e61626c653a2063616c6c6572206973206e6f7420746865206f776e6572604482015290519081900360640190fd5b6001600160a01b03821660009081526013602052604090205460ff1615158115151415620004f05760405162461bcd60e51b815260040180806020018281038252603081526020018062006a4b6030913960400191505060405180910390fd5b6001600160a01b038216600081815260136020908152604091829020805460ff1916851515908117909155825190815291517f9d8f7706ea1113d1a167b526eca956215946dd36cc7df39eb16180222d8b5df79281900390910190a25050565b6001600160a01b038216620005ac576040805162461bcd60e51b815260206004820152601f60248201527f45524332303a206d696e7420746f20746865207a65726f206164647265737300604482015290519081900360640190fd5b620005ba600083836200065f565b620005d681600254620003b260201b62002a461790919060201c565b6002556001600160a01b038216600090815260208181526040909120546200060991839062002a46620003b2821b17901c565b6001600160a01b0383166000818152602081815260408083209490945583518581529351929391927fddf252ad1be2c89b69c2b068fc378daa952ba7f163c4a11628f55a4df523b3ef9281900390910190a35050565b505050565b828054600181600116156101000203166002900490600052602060002090601f016020900481019282601f10620006a757805160ff1916838001178555620006d7565b82800160010185558215620006d7579182015b82811115620006d7578251825591602001919060010190620006ba565b50620006e5929150620006f7565b5090565b612417806200463483390190565b5b80821115620006e55760008155600101620006f8565b608051613f066200072e60003980610fc25280612f3b5250613f066000f3fe60806040526004361061039b5760003560e01c8063871c128d116101dc578063ad56c13c11610102578063d46d9ba1116100a0578063e7841ec01161006f578063e7841ec014610d0c578063e98030c714610d21578063f27fd25414610d4b578063f2fde38b14610d75576103a2565b8063d46d9ba114610c5c578063dd62ed3e14610c89578063e2f4560514610cc4578063e37ba8f914610cd9576103a2565b8063bff78169116100dc578063bff7816914610b5a578063c024666814610b8d578063c492f04614610bc8578063d469801614610c47576103a2565b8063ad56c13c14610a7f578063afa4f3b214610afd578063b62496f514610b27576103a2565b806398118cb41161017a578063a26579ad11610149578063a26579ad146109c5578063a457c2d7146109da578063a8b9d24014610a13578063a9059cbb14610a46576103a2565b806398118cb41461093357806398f28874146109485780639a7a23d6146109755780639c1b8af5146109b0576103a2565b80638da5cb5b116101b65780638da5cb5b146108c157806392e4ef9d146108d657806392f6576e1461090957806395d89b411461091e576103a2565b8063871c128d1461084f57806388bdd9be146108795780638c0344db146108ac576103a2565b80633b364da8116102c157806365b8dbc01161025f57806370a082311161022e57806370a08231146107bf578063715018a6146107f25780637386f7341461080757806375f0a8741461083a576103a2565b806365b8dbc01461071a5780636843cd841461074d5780636b67c4df14610780578063700bb19114610795576103a2565b80634e71d92d1161029b5780634e71d92d146106935780634fbee193146106a85780635c38ffe2146106db57806364b0f65314610705576103a2565b80633b364da81461063f57806349bd5a5e146106695780634d33b1ef1461067e576103a2565b80631694505e116103395780632c1f5216116103085780632c1f5216146105b157806330bb4cff146105c6578063313ce567146105db5780633950935114610606576103a2565b80631694505e1461051357806318160ddd1461054457806322bd3f7f1461055957806323b872dd1461056e576103a2565b8063095ea7b311610375578063095ea7b31461046f57806309c58fcd146104bc57806313114a9d146104d15780631519f1f0146104e6576103a2565b806302259e9e146103a757806302ac8168146103ce57806306fdde03146103e5576103a2565b366103a257005b600080fd5b3480156103b357600080fd5b506103bc610da8565b60408051918252519081900360200190f35b3480156103da57600080fd5b506103e3610dae565b005b3480156103f157600080fd5b506103fa610e25565b6040805160208082528351818301528351919283929083019185019080838360005b8381101561043457818101518382015260200161041c565b50505050905090810190601f1680156104615780820380516001836020036101000a031916815260200191505b509250505060405180910390f35b34801561047b57600080fd5b506104a86004803603604081101561049257600080fd5b506001600160a01b038135169060200135610ebb565b604080519115158252519081900360200190f35b3480156104c857600080fd5b506104a8610ed9565b3480156104dd57600080fd5b506103bc610ee2565b3480156104f257600080fd5b506103e36004803603602081101561050957600080fd5b503560ff16610ee8565b34801561051f57600080fd5b50610528610fab565b604080516001600160a01b039092168252519081900360200190f35b34801561055057600080fd5b506103bc610fba565b34801561056557600080fd5b506103bc610fc0565b34801561057a57600080fd5b506104a86004803603606081101561059157600080fd5b506001600160a01b03813581169160208101359091169060400135610fe4565b3480156105bd57600080fd5b5061052861106b565b3480156105d257600080fd5b506103bc61107a565b3480156105e757600080fd5b506105f06110f0565b6040805160ff9092168252519081900360200190f35b34801561061257600080fd5b506104a86004803603604081101561062957600080fd5b506001600160a01b0381351690602001356110f5565b34801561064b57600080fd5b506103e36004803603602081101561066257600080fd5b5035611143565b34801561067557600080fd5b50610528611203565b34801561068a57600080fd5b506104a8611212565b34801561069f57600080fd5b506103e361121b565b3480156106b457600080fd5b506104a8600480360360208110156106cb57600080fd5b50356001600160a01b03166112a0565b3480156106e757600080fd5b506103e3600480360360208110156106fe57600080fd5b50356112be565b34801561071157600080fd5b506103bc611325565b34801561072657600080fd5b506103e36004803603602081101561073d57600080fd5b50356001600160a01b031661136a565b34801561075957600080fd5b506103bc6004803603602081101561077057600080fd5b50356001600160a01b031661146c565b34801561078c57600080fd5b506103bc6114ef565b3480156107a157600080fd5b506103e3600480360360208110156107b857600080fd5b50356114f5565b3480156107cb57600080fd5b506103bc600480360360208110156107e257600080fd5b50356001600160a01b03166115dc565b3480156107fe57600080fd5b506103e36115f7565b34801561081357600080fd5b506103e36004803603602081101561082a57600080fd5b50356001600160a01b0316611699565b34801561084657600080fd5b506105286118f9565b34801561085b57600080fd5b506103e36004803603602081101561087257600080fd5b5035611908565b34801561088557600080fd5b506103e36004803603602081101561089c57600080fd5b50356001600160a01b0316611a25565b3480156108b857600080fd5b506103bc611d7c565b3480156108cd57600080fd5b50610528611d82565b3480156108e257600080fd5b506103e3600480360360208110156108f957600080fd5b50356001600160a01b0316611d91565b34801561091557600080fd5b506103bc611e7e565b34801561092a57600080fd5b506103fa611e83565b34801561093f57600080fd5b506103bc611ee4565b34801561095457600080fd5b506103e36004803603602081101561096b57600080fd5b503560ff16611eea565b34801561098157600080fd5b506103e36004803603604081101561099857600080fd5b506001600160a01b0381351690602001351515611f9f565b3480156109bc57600080fd5b506103bc61204e565b3480156109d157600080fd5b506103bc612054565b3480156109e657600080fd5b506104a8600480360360408110156109fd57600080fd5b506001600160a01b038135169060200135612099565b348015610a1f57600080fd5b506103bc60048036036020811015610a3657600080fd5b50356001600160a01b0316612101565b348015610a5257600080fd5b506104a860048036036040811015610a6957600080fd5b506001600160a01b038135169060200135612152565b348015610a8b57600080fd5b50610ab260048036036020811015610aa257600080fd5b50356001600160a01b0316612166565b604080516001600160a01b0390991689526020890197909752878701959095526060870193909352608086019190915260a085015260c084015260e083015251908190036101000190f35b348015610b0957600080fd5b506103e360048036036020811015610b2057600080fd5b5035612246565b348015610b3357600080fd5b506104a860048036036020811015610b4a57600080fd5b50356001600160a01b03166122ad565b348015610b6657600080fd5b506103e360048036036020811015610b7d57600080fd5b50356001600160a01b03166122c2565b348015610b9957600080fd5b506103e360048036036040811015610bb057600080fd5b506001600160a01b03813516906020013515156123c4565b348015610bd457600080fd5b506103e360048036036040811015610beb57600080fd5b810190602081018135640100000000811115610c0657600080fd5b820183602082011115610c1857600080fd5b80359060200191846020830284011164010000000083111715610c3a57600080fd5b91935091503515156124da565b348015610c5357600080fd5b506105286125fa565b348015610c6857600080fd5b506103e360048036036020811015610c7f57600080fd5b503560ff16612609565b348015610c9557600080fd5b506103bc60048036036040811015610cac57600080fd5b506001600160a01b03813581169160200135166126bf565b348015610cd057600080fd5b506103bc6126ea565b348015610ce557600080fd5b506103e360048036036020811015610cfc57600080fd5b50356001600160a01b03166126f0565b348015610d1857600080fd5b506103bc6127fd565b348015610d2d57600080fd5b506103e360048036036020811015610d4457600080fd5b5035612842565b348015610d5757600080fd5b50610ab260048036036020811015610d6e57600080fd5b50356128e7565b348015610d8157600080fd5b506103e360048036036020811015610d9857600080fd5b50356001600160a01b031661294d565b600a5481565b610db6612aa7565b6005546001600160a01b03908116911614610e06576040805162461bcd60e51b81526020600482018190526024820152600080516020613d11833981519152604482015290519081900360640190fd5b60125460ff1615610e1657600080fd5b6012805460ff19166001179055565b60038054604080516020601f6002600019610100600188161502019095169490940493840181900481028201810190925282815260609390929091830182828015610eb15780601f10610e8657610100808354040283529160200191610eb1565b820191906000526020600020905b815481529060010190602001808311610e9457829003601f168201915b5050505050905090565b6000610ecf610ec8612aa7565b8484612aab565b5060015b92915050565b60125460ff1681565b60105481565b610ef0612aa7565b6005546001600160a01b03908116911614610f40576040805162461bcd60e51b81526020600482018190526024820152600080516020613d11833981519152604482015290519081900360640190fd5b60148160ff161115610f81576040805162461bcd60e51b815260206004820152600560248201526477726f6e6760d81b604482015290519081900360640190fd5b60ff8116600e819055600f54600d54610fa59291610f9f9190612a46565b90612a46565b60105550565b6006546001600160a01b031681565b60025490565b7f000000000000000000000000000000000000000000000000000000000000000081565b6000610ff1848484612b97565b61106184610ffd612aa7565b61105c85604051806060016040528060288152602001613cab602891396001600160a01b038a1660009081526001602052604081209061103b612aa7565b6001600160a01b031681526020810191909152604001600020549190613168565b612aab565b5060019392505050565b6008546001600160a01b031681565b600854604080516342d359d760e11b815290516000926001600160a01b0316916385a6b3ae916004808301926020929190829003018186803b1580156110bf57600080fd5b505afa1580156110d3573d6000803e3d6000fd5b505050506040513d60208110156110e957600080fd5b5051905090565b601290565b6000610ecf611102612aa7565b8461105c8560016000611113612aa7565b6001600160a01b03908116825260208083019390935260409182016000908120918c168152925290205490612a46565b61114b612aa7565b6005546001600160a01b0390811691161461119b576040805162461bcd60e51b81526020600482018190526024820152600080516020613d11833981519152604482015290519081900360640190fd5b60085460408051630dcb2e8960e01b81526004810184905290516001600160a01b0390921691630dcb2e899160248082019260009290919082900301818387803b1580156111e857600080fd5b505af11580156111fc573d6000803e3d6000fd5b5050505050565b6007546001600160a01b031681565b60125460ff1690565b6008546040805163bc4c4b3760e01b815233600482015260006024820181905291516001600160a01b039093169263bc4c4b3792604480840193602093929083900390910190829087803b15801561127257600080fd5b505af1158015611286573d6000803e3d6000fd5b505050506040513d602081101561129c57600080fd5b5050565b6001600160a01b031660009081526013602052604090205460ff1690565b6112c6612aa7565b6005546001600160a01b03908116911614611316576040805162461bcd60e51b81526020600482018190526024820152600080516020613d11833981519152604482015290519081900360640190fd5b670de0b6b3a764000002600a55565b600854604080516304ddf6ef60e11b815290516000926001600160a01b0316916309bbedde916004808301926020929190829003018186803b1580156110bf57600080fd5b611372612aa7565b6005546001600160a01b039081169116146113c2576040805162461bcd60e51b81526020600482018190526024820152600080516020613d11833981519152604482015290519081900360640190fd5b6006546001600160a01b038281169116141561140f5760405162461bcd60e51b8152600401808060200182810382526029815260200180613e206029913960400191505060405180910390fd5b6006546040516001600160a01b03918216918316907f8fc842bbd331dfa973645f4ed48b11683d501ebf1352708d77a5da2ab49a576e90600090a3600680546001600160a01b0319166001600160a01b0392909216919091179055565b600854604080516370a0823160e01b81526001600160a01b038481166004830152915160009392909216916370a0823191602480820192602092909190829003018186803b1580156114bd57600080fd5b505afa1580156114d1573d6000803e3d6000fd5b505050506040513d60208110156114e757600080fd5b505192915050565b600f5481565b600854604080516001624d3b8760e01b03198152600481018490529051600092839283926001600160a01b039092169163ffb2c4799160248082019260609290919082900301818787803b15801561154c57600080fd5b505af1158015611560573d6000803e3d6000fd5b505050506040513d606081101561157657600080fd5b5080516020808301516040938401518451848152928301829052828501819052606083018990529351929650945091925032916000917fc864333d6121033635ab41b29ae52f10a22cf4438c3e4f1c4c68518feb2f8a989181900360800190a350505050565b6001600160a01b031660009081526020819052604090205490565b6115ff612aa7565b6005546001600160a01b0390811691161461164f576040805162461bcd60e51b81526020600482018190526024820152600080516020613d11833981519152604482015290519081900360640190fd5b6005546040516000916001600160a01b0316907f8be0079c531659141344cd1fd0a4f28419497f9722a3daafe3b4186f6b6457e0908390a3600580546001600160a01b0319169055565b6116a1612aa7565b6005546001600160a01b039081169116146116f1576040805162461bcd60e51b81526020600482018190526024820152600080516020613d11833981519152604482015290519081900360640190fd5b6008546040805163031e79db60e41b81526001600160a01b0380851660048301529151849392909216916331e79db09160248082019260009290919082900301818387803b15801561174257600080fd5b505af1158015611756573d6000803e3d6000fd5b505050506000816001600160a01b031663c45a01556040518163ffffffff1660e01b815260040160206040518083038186803b15801561179557600080fd5b505afa1580156117a9573d6000803e3d6000fd5b505050506040513d60208110156117bf57600080fd5b5051604080516315ab88c960e31b815290516001600160a01b039283169263c9c653969230929187169163ad5c464891600480820192602092909190829003018186803b15801561180f57600080fd5b505afa158015611823573d6000803e3d6000fd5b505050506040513d602081101561183957600080fd5b5051604080516001600160e01b031960e086901b1681526001600160a01b0393841660048201529290911660248301525160448083019260209291908290030181600087803b15801561188b57600080fd5b505af115801561189f573d6000803e3d6000fd5b505050506040513d60208110156118b557600080fd5b5051600680546001600160a01b038086166001600160a01b031992831617909255600780549284169290911691909117905590506118f48160016131ff565b505050565b600c546001600160a01b031681565b611910612aa7565b6005546001600160a01b03908116911614611960576040805162461bcd60e51b81526020600482018190526024820152600080516020613d11833981519152604482015290519081900360640190fd5b62030d40811015801561197657506207a1208111155b6119b15760405162461bcd60e51b815260040180806020018281038252603a815260200180613d63603a913960400191505060405180910390fd5b6011548114156119f25760405162461bcd60e51b8152600401808060200182810382526032815260200180613d316032913960400191505060405180910390fd5b60115460405182907f40d7e40e79af4e8e5a9b3c57030d8ea93f13d669c06d448c4d631d4ae7d23db790600090a3601155565b611a2d612aa7565b6005546001600160a01b03908116911614611a7d576040805162461bcd60e51b81526020600482018190526024820152600080516020613d11833981519152604482015290519081900360640190fd5b6008546001600160a01b0382811691161415611aca5760405162461bcd60e51b8152600401808060200182810382526033815260200180613e9e6033913960400191505060405180910390fd5b6000819050306001600160a01b0316816001600160a01b0316638da5cb5b6040518163ffffffff1660e01b815260040160206040518083038186803b158015611b1257600080fd5b505afa158015611b26573d6000803e3d6000fd5b505050506040513d6020811015611b3c57600080fd5b50516001600160a01b031614611b835760405162461bcd60e51b8152600401808060200182810382526047815260200180613bcc6047913960600191505060405180910390fd5b806001600160a01b03166331e79db0826040518263ffffffff1660e01b815260040180826001600160a01b03168152602001915050600060405180830381600087803b158015611bd257600080fd5b505af1158015611be6573d6000803e3d6000fd5b50506040805163031e79db60e41b815230600482015290516001600160a01b03851693506331e79db09250602480830192600092919082900301818387803b158015611c3157600080fd5b505af1158015611c45573d6000803e3d6000fd5b50505050806001600160a01b03166331e79db0611c60611d82565b6040518263ffffffff1660e01b815260040180826001600160a01b03168152602001915050600060405180830381600087803b158015611c9f57600080fd5b505af1158015611cb3573d6000803e3d6000fd5b50506006546040805163031e79db60e41b81526001600160a01b039283166004820152905191851693506331e79db0925060248082019260009290919082900301818387803b158015611d0557600080fd5b505af1158015611d19573d6000803e3d6000fd5b50506008546040516001600160a01b03918216935090851691507f90c7d74461c613da5efa97d90740869367d74ab3aa5837aa4ae9a975f954b7a890600090a3600880546001600160a01b0319166001600160a01b039290921691909117905550565b600d5481565b6005546001600160a01b031690565b611d99612aa7565b6005546001600160a01b03908116911614611de9576040805162461bcd60e51b81526020600482018190526024820152600080516020613d11833981519152604482015290519081900360640190fd5b6008546040805163031e79db60e41b81526001600160a01b038481166004830152915191909216916331e79db091602480830192600092919082900301818387803b158015611e3757600080fd5b505af1158015611e4b573d6000803e3d6000fd5b50505050611e5a8160016123c4565b6001600160a01b03166000908152601460205260409020805460ff19166001179055565b601481565b60048054604080516020601f6002600019610100600188161502019095169490940493840181900481028201810190925282815260609390929091830182828015610eb15780601f10610e8657610100808354040283529160200191610eb1565b600e5481565b611ef2612aa7565b6005546001600160a01b03908116911614611f42576040805162461bcd60e51b81526020600482018190526024820152600080516020613d11833981519152604482015290519081900360640190fd5b60148160ff161115611f83576040805162461bcd60e51b815260206004820152600560248201526477726f6e6760d81b604482015290519081900360640190fd5b60ff8116600d819055600e54600f54610fa592610f9f91612a46565b611fa7612aa7565b6005546001600160a01b03908116911614611ff7576040805162461bcd60e51b81526020600482018190526024820152600080516020613d11833981519152604482015290519081900360640190fd5b6007546001600160a01b03838116911614156120445760405162461bcd60e51b8152600401808060200182810382526045815260200180613c666045913960600191505060405180910390fd5b61129c82826131ff565b60115481565b60085460408051631bc9e27b60e21b815290516000926001600160a01b031691636f2789ec916004808301926020929190829003018186803b1580156110bf57600080fd5b6000610ecf6120a6612aa7565b8461105c85604051806060016040528060258152602001613e7960259139600160006120d0612aa7565b6001600160a01b03908116825260208083019390935260409182016000908120918d16815292529020549190613168565b600854604080516302a2e74960e61b81526001600160a01b0384811660048301529151600093929092169163a8b9d24091602480820192602092909190829003018186803b1580156114bd57600080fd5b6000610ecf61215f612aa7565b8484612b97565b600080600080600080600080600860009054906101000a90046001600160a01b03166001600160a01b031663fbcbc0f18a6040518263ffffffff1660e01b815260040180826001600160a01b031681526020019150506101006040518083038186803b1580156121d557600080fd5b505afa1580156121e9573d6000803e3d6000fd5b505050506040513d61010081101561220057600080fd5b508051602082015160408301516060840151608085015160a086015160c087015160e090970151959e50939c50919a509850965094509092509050919395975091939597565b61224e612aa7565b6005546001600160a01b0390811691161461229e576040805162461bcd60e51b81526020600482018190526024820152600080516020613d11833981519152604482015290519081900360640190fd5b670de0b6b3a764000002600b55565b60156020526000908152604090205460ff1681565b6122ca612aa7565b6005546001600160a01b0390811691161461231a576040805162461bcd60e51b81526020600482018190526024820152600080516020613d11833981519152604482015290519081900360640190fd5b600c546001600160a01b03828116911614156123675760405162461bcd60e51b8152600401808060200182810382526032815260200180613b2c6032913960400191505060405180910390fd5b600c546040516001600160a01b03918216918316907fa751787977eeb3902e30e1d19ca00c6ad274a1f622c31a206e32366700b0567490600090a3600c80546001600160a01b0319166001600160a01b0392909216919091179055565b6123cc612aa7565b6005546001600160a01b0390811691161461241c576040805162461bcd60e51b81526020600482018190526024820152600080516020613d11833981519152604482015290519081900360640190fd5b6001600160a01b03821660009081526013602052604090205460ff161515811515141561247a5760405162461bcd60e51b8152600401808060200182810382526030815260200180613e496030913960400191505060405180910390fd5b6001600160a01b038216600081815260136020908152604091829020805460ff1916851515908117909155825190815291517f9d8f7706ea1113d1a167b526eca956215946dd36cc7df39eb16180222d8b5df79281900390910190a25050565b6124e2612aa7565b6005546001600160a01b03908116911614612532576040805162461bcd60e51b81526020600482018190526024820152600080516020613d11833981519152604482015290519081900360640190fd5b60005b8281101561258757816013600086868581811061254e57fe5b602090810292909201356001600160a01b0316835250810191909152604001600020805460ff1916911515919091179055600101612535565b507f7fdaf542373fa84f4ee8d662c642f44e4c2276a217d7d29e548b6eb29a233b35838383604051808060200183151581526020018281038252858582818152602001925060200280828437600083820152604051601f909101601f1916909201829003965090945050505050a1505050565b6009546001600160a01b031681565b612611612aa7565b6005546001600160a01b03908116911614612661576040805162461bcd60e51b81526020600482018190526024820152600080516020613d11833981519152604482015290519081900360640190fd5b60148160ff1611156126a2576040805162461bcd60e51b815260206004820152600560248201526477726f6e6760d81b604482015290519081900360640190fd5b60ff8116600f819055600e54600d54610fa592610f9f9190612a46565b6001600160a01b03918216600090815260016020908152604080832093909416825291909152205490565b600b5481565b6126f8612aa7565b6005546001600160a01b03908116911614612748576040805162461bcd60e51b81526020600482018190526024820152600080516020613d11833981519152604482015290519081900360640190fd5b6009546001600160a01b03828116911614156127955760405162461bcd60e51b8152600401808060200182810382526032815260200180613c136032913960400191505060405180910390fd5b6127a08160016123c4565b6009546040516001600160a01b03918216918316907f6080503d1da552ae8eb4b7b8a20245d9fabed014180510e7d1a05ea08fdb0f3e90600090a3600980546001600160a01b0319166001600160a01b0392909216919091179055565b6008546040805163039e107b60e61b815290516000926001600160a01b03169163e7841ec0916004808301926020929190829003018186803b1580156110bf57600080fd5b61284a612aa7565b6005546001600160a01b0390811691161461289a576040805162461bcd60e51b81526020600482018190526024820152600080516020613d11833981519152604482015290519081900360640190fd5b6008546040805163e98030c760e01b81526004810184905290516001600160a01b039092169163e98030c79160248082019260009290919082900301818387803b1580156111e857600080fd5b600080600080600080600080600860009054906101000a90046001600160a01b03166001600160a01b0316635183d6fd8a6040518263ffffffff1660e01b8152600401808281526020019150506101006040518083038186803b1580156121d557600080fd5b612955612aa7565b6005546001600160a01b039081169116146129a5576040805162461bcd60e51b81526020600482018190526024820152600080516020613d11833981519152604482015290519081900360640190fd5b6001600160a01b0381166129ea5760405162461bcd60e51b8152600401808060200182810382526026815260200180613b5e6026913960400191505060405180910390fd5b6005546040516001600160a01b038084169216907f8be0079c531659141344cd1fd0a4f28419497f9722a3daafe3b4186f6b6457e090600090a3600580546001600160a01b0319166001600160a01b0392909216919091179055565b600082820183811015612aa0576040805162461bcd60e51b815260206004820152601b60248201527f536166654d6174683a206164646974696f6e206f766572666c6f770000000000604482015290519081900360640190fd5b9392505050565b3390565b6001600160a01b038316612af05760405162461bcd60e51b8152600401808060200182810382526024815260200180613dfc6024913960400191505060405180910390fd5b6001600160a01b038216612b355760405162461bcd60e51b8152600401808060200182810382526022815260200180613b846022913960400191505060405180910390fd5b6001600160a01b03808416600081815260016020908152604080832094871680845294825291829020859055815185815291517f8c5be1e5ebec7d5bd14f71427d1e84f3dd0314c0f7b2291e5b200ac8c7c3b9259281900390910190a3505050565b6001600160a01b038316612bdc5760405162461bcd60e51b8152600401808060200182810382526025815260200180613d9d6025913960400191505060405180910390fd5b6001600160a01b038216612c215760405162461bcd60e51b8152600401808060200182810382526023815260200180613b096023913960400191505060405180910390fd5b60125460ff16612c82576001600160a01b03831660009081526014602052604090205460ff16612c825760405162461bcd60e51b815260040180806020018281038252603e815260200180613cd3603e913960400191505060405180910390fd5b80612c9857612c938383600061332d565b6118f4565b600754600160a01b900460ff16158015612cb4575060125460ff165b8015612cd857506001600160a01b03821660009081526015602052604090205460ff165b8015612cf257506006546001600160a01b03848116911614155b8015612d1757506001600160a01b03821660009081526013602052604090205460ff16155b15612d5d57600a54811115612d5d5760405162461bcd60e51b815260040180806020018281038252603a815260200180613dc2603a913960400191505060405180910390fd5b6000612d68306115dc565b600b546012549192508210159060ff168015612d815750805b8015612d975750600754600160a01b900460ff16155b8015612dbc57506001600160a01b03851660009081526015602052604090205460ff16155b8015612dd657506009546001600160a01b03868116911614155b8015612df057506009546001600160a01b03858116911614155b15612e80576007805460ff60a01b1916600160a01b179055601054600e54600091612e2691612e20908690613488565b906134e1565b9050612e3181613523565b6000612e4e601054612e20600f548761348890919063ffffffff16565b9050612e59816135a9565b6000612e64306115dc565b9050612e6f81613756565b50506007805460ff60a01b19169055505b60125460009060ff168015612e9f5750600754600160a01b900460ff16155b6001600160a01b03871660009081526013602052604090205490915060ff1680612ee157506001600160a01b03851660009081526013602052604090205460ff165b15612eea575060005b8015612f7b576000612f0c6064612e206010548861348890919063ffffffff16565b6001600160a01b03871660009081526015602052604090205490915060ff1615612f6257612f5f6064612e20837f0000000000000000000000000000000000000000000000000000000000000000613488565b90505b612f6c85826137ff565b9450612f7987308361332d565b505b612f8686868661332d565b6008546001600160a01b031663e30443bc87612fa1816115dc565b6040518363ffffffff1660e01b815260040180836001600160a01b0316815260200182815260200192505050600060405180830381600087803b158015612fe757600080fd5b505af1925050508015612ff8575060015b506008546001600160a01b031663e30443bc86613014816115dc565b6040518363ffffffff1660e01b815260040180836001600160a01b0316815260200182815260200192505050600060405180830381600087803b15801561305a57600080fd5b505af192505050801561306b575060015b50600754600160a01b900460ff1661316057601154600854604080516001624d3b8760e01b031981526004810184905290516001600160a01b039092169163ffb2c479916024808201926060929091908290030181600087803b1580156130d157600080fd5b505af192505050801561310557506040513d60608110156130f157600080fd5b508051602082015160409092015190919060015b61310e5761315e565b604080518481526020810184905280820183905260608101869052905132916001917fc864333d6121033635ab41b29ae52f10a22cf4438c3e4f1c4c68518feb2f8a989181900360800190a35050505b505b505050505050565b600081848411156131f75760405162461bcd60e51b81526004018080602001828103825283818151815260200191508051906020019080838360005b838110156131bc5781810151838201526020016131a4565b50505050905090810190601f1680156131e95780820380516001836020036101000a031916815260200191505b509250505060405180910390fd5b505050900390565b6001600160a01b03821660009081526015602052604090205460ff161515811515141561325d5760405162461bcd60e51b815260040180806020018281038252603e815260200180613acb603e913960400191505060405180910390fd5b6001600160a01b0382166000908152601560205260409020805460ff191682158015919091179091556132f1576008546040805163031e79db60e41b81526001600160a01b038581166004830152915191909216916331e79db091602480830192600092919082900301818387803b1580156132d857600080fd5b505af11580156132ec573d6000803e3d6000fd5b505050505b604051811515906001600160a01b038416907fffa9187bf1f18bf477bd0ea1bcbb64e93b6a98132473929edfce215cd9b16fab90600090a35050565b6001600160a01b0383166133725760405162461bcd60e51b8152600401808060200182810382526025815260200180613d9d6025913960400191505060405180910390fd5b6001600160a01b0382166133b75760405162461bcd60e51b8152600401808060200182810382526023815260200180613b096023913960400191505060405180910390fd5b6133c28383836118f4565b6133ff81604051806060016040528060268152602001613ba6602691396001600160a01b0386166000908152602081905260409020549190613168565b6001600160a01b03808516600090815260208190526040808220939093559084168152205461342e9082612a46565b6001600160a01b038084166000818152602081815260409182902094909455805185815290519193928716927fddf252ad1be2c89b69c2b068fc378daa952ba7f163c4a11628f55a4df523b3ef92918290030190a3505050565b60008261349757506000610ed3565b828202828482816134a457fe5b0414612aa05760405162461bcd60e51b8152600401808060200182810382526021815260200180613c456021913960400191505060405180910390fd5b6000612aa083836040518060400160405280601a81526020017f536166654d6174683a206469766973696f6e206279207a65726f000000000000815250613841565b60006135308260026134e1565b9050600061353e83836137ff565b90504761354a836138a6565b600061355647836137ff565b90506135628382613a0c565b604080518581526020810183905280820185905290517f17bbfb9a6069321b6ded73bd96327c9e6b7212a5cd51ff219cd61370acafb5619181900360600190a15050505050565b604080516002808252606080830184529260208301908036833701905050905030816000815181106135d757fe5b6001600160a01b03928316602091820292909201810191909152600654604080516315ab88c960e31b81529051919093169263ad5c4648926004808301939192829003018186803b15801561362b57600080fd5b505afa15801561363f573d6000803e3d6000fd5b505050506040513d602081101561365557600080fd5b505181518290600190811061366657fe5b6001600160a01b03928316602091820292909201015260065461368c9130911684612aab565b600654600c5460405163791ac94760e01b8152600481018581526000602483018190526001600160a01b0393841660648401819052426084850181905260a060448601908152885160a48701528851969097169663791ac947968a9694958a9590929160c490910190602080880191028083838b5b83811015613719578181015183820152602001613701565b505050509050019650505050505050600060405180830381600087803b15801561374257600080fd5b505af1158015613160573d6000803e3d6000fd5b61375f816138a6565b60085460405147916000916001600160a01b039091169083908381818185875af1925050503d80600081146137b0576040519150601f19603f3d011682016040523d82523d6000602084013e6137b5565b606091505b5050905080156118f457604080518481526020810184905281517f80195cc573b02cc48460cbca6e6e4cc85ddb91959d946e1c3025ea3d87942dc3929181900390910190a1505050565b6000612aa083836040518060400160405280601e81526020017f536166654d6174683a207375627472616374696f6e206f766572666c6f770000815250613168565b600081836138905760405162461bcd60e51b81526020600482018181528351602484015283519092839260449091019190850190808383600083156131bc5781810151838201526020016131a4565b50600083858161389c57fe5b0495945050505050565b604080516002808252606080830184529260208301908036833701905050905030816000815181106138d457fe5b6001600160a01b03928316602091820292909201810191909152600654604080516315ab88c960e31b81529051919093169263ad5c4648926004808301939192829003018186803b15801561392857600080fd5b505afa15801561393c573d6000803e3d6000fd5b505050506040513d602081101561395257600080fd5b505181518290600190811061396357fe5b6001600160a01b0392831660209182029290920101526006546139899130911684612aab565b60065460405163791ac94760e01b8152600481018481526000602483018190523060648401819052426084850181905260a060448601908152875160a487015287516001600160a01b039097169663791ac947968a968a9594939092909160c40190602087810191028083838b8315613719578181015183820152602001613701565b600654613a249030906001600160a01b031684612aab565b6006546009546040805163f305d71960e01b81523060048201526024810186905260006044820181905260648201526001600160a01b0392831660848201524260a48201529051919092169163f305d71991849160c48082019260609290919082900301818588803b158015613a9957600080fd5b505af1158015613aad573d6000803e3d6000fd5b50505050506040513d6060811015613ac457600080fd5b5050505056fe644554483a204175746f6d61746564206d61726b6574206d616b6572207061697220697320616c72656164792073657420746f20746861742076616c756545524332303a207472616e7366657220746f20746865207a65726f2061646472657373644554483a20546865206d61726b6574696e672077616c6c657420697320616c7265616479207468697320616464726573734f776e61626c653a206e6577206f776e657220697320746865207a65726f206164647265737345524332303a20617070726f766520746f20746865207a65726f206164647265737345524332303a207472616e7366657220616d6f756e7420657863656564732062616c616e6365644554483a20546865206e6577206469766964656e6420747261636b6572206d757374206265206f776e656420627920746865206445544820746f6b656e20636f6e7472616374644554483a20546865206c69717569646974792077616c6c657420697320616c726561647920746869732061646472657373536166654d6174683a206d756c7469706c69636174696f6e206f766572666c6f77644554483a2054686520556e69563220706169722063616e6e6f742062652072656d6f7665642066726f6d206175746f6d617465644d61726b65744d616b6572506169727345524332303a207472616e7366657220616d6f756e74206578636565647320616c6c6f77616e6365644554483a2054686973206163636f756e742063616e6e6f742073656e6420746f6b656e7320756e74696c2074726164696e6720697320656e61626c65644f776e61626c653a2063616c6c6572206973206e6f7420746865206f776e6572644554483a2043616e6e6f742075706461746520676173466f7250726f63657373696e6720746f2073616d652076616c7565644554483a20676173466f7250726f63657373696e67206d757374206265206265747765656e203230302c30303020616e64203530302c30303045524332303a207472616e736665722066726f6d20746865207a65726f206164647265737353656c6c207472616e7366657220616d6f756e74206578636565647320746865206d617853656c6c5472616e73616374696f6e416d6f756e742e45524332303a20617070726f76652066726f6d20746865207a65726f2061646472657373644554483a2054686520726f7574657220616c72656164792068617320746861742061646472657373644554483a204163636f756e7420697320616c7265616479207468652076616c7565206f6620276578636c756465642745524332303a2064656372656173656420616c6c6f77616e63652062656c6f77207a65726f644554483a20546865206469766964656e6420747261636b657220616c72656164792068617320746861742061646472657373a264697066735822122067c56e7b401898cd8f751f211f3de05c1fb0e2382f939236115ce10983769b0364736f6c634300060c003360806040523480156200001157600080fd5b5060408051808201825260158082527f644554485f4469766964656e645f547261636b65720000000000000000000000602080840182815285518087019096529285528401528151919291839183916200006e9160039162000104565b5080516200008490600490602084019062000104565b505050505060006200009b6200010060201b60201c565b600980546001600160a01b0319166001600160a01b038316908117909155604051919250906000907f8be0079c531659141344cd1fd0a4f28419497f9722a3daafe3b4186f6b6457e0908290a350603c601155670de0b6b3a7640000601255620001a0565b3390565b828054600181600116156101000203166002900490600052602060002090601f016020900481019282601f106200014757805160ff191683800117855562000177565b8280016001018555821562000177579182015b82811115620001775782518255916020019190600101906200015a565b506200018592915062000189565b5090565b5b808211156200018557600081556001016200018a565b61226780620001b06000396000f3fe6080604052600436106102135760003560e01c8063715018a611610118578063bc4c4b37116100a0578063e7841ec01161006f578063e7841ec014610805578063e98030c71461081a578063f2fde38b14610844578063fbcbc0f114610877578063ffb2c479146108aa57610222565b8063bc4c4b3714610741578063be10b6141461077c578063dd62ed3e14610791578063e30443bc146107cc57610222565b806395d89b41116100e757806395d89b4114610654578063a457c2d714610669578063a8b9d240146106a2578063a9059cbb146106d5578063aafd847a1461070e57610222565b8063715018a6146105c657806385a6b3ae146105db5780638da5cb5b146105f057806391b89fba1461062157610222565b80633009a6091161019b5780634e7b827f1161016a5780634e7b827f146104c15780635183d6fd146104f45780636a474002146105695780636f2789ec1461057e57806370a082311461059357610222565b80633009a60914610415578063313ce5671461042a57806331e79db014610455578063395093511461048857610222565b80630dcb2e89116101e25780630dcb2e891461032d57806318160ddd14610357578063226cfa3d1461036c57806323b872dd1461039f57806327ce0147146103e257610222565b806303c833021461022757806306fdde031461022f578063095ea7b3146102b957806309bbedde1461030657610222565b36610222576102206108f2565b005b600080fd5b6102206108f2565b34801561023b57600080fd5b50610244610983565b6040805160208082528351818301528351919283929083019185019080838360005b8381101561027e578181015183820152602001610266565b50505050905090810190601f1680156102ab5780820380516001836020036101000a031916815260200191505b509250505060405180910390f35b3480156102c557600080fd5b506102f2600480360360408110156102dc57600080fd5b506001600160a01b038135169060200135610a19565b604080519115158252519081900360200190f35b34801561031257600080fd5b5061031b610a37565b60408051918252519081900360200190f35b34801561033957600080fd5b506102206004803603602081101561035057600080fd5b5035610a3d565b34801561036357600080fd5b5061031b610aa4565b34801561037857600080fd5b5061031b6004803603602081101561038f57600080fd5b50356001600160a01b0316610aaa565b3480156103ab57600080fd5b506102f2600480360360608110156103c257600080fd5b506001600160a01b03813581169160208101359091169060400135610abc565b3480156103ee57600080fd5b5061031b6004803603602081101561040557600080fd5b50356001600160a01b0316610b43565b34801561042157600080fd5b5061031b610ba2565b34801561043657600080fd5b5061043f610ba8565b6040805160ff9092168252519081900360200190f35b34801561046157600080fd5b506102206004803603602081101561047857600080fd5b50356001600160a01b0316610bad565b34801561049457600080fd5b506102f2600480360360408110156104ab57600080fd5b506001600160a01b038135169060200135610d09565b3480156104cd57600080fd5b506102f2600480360360208110156104e457600080fd5b50356001600160a01b0316610d57565b34801561050057600080fd5b5061051e6004803603602081101561051757600080fd5b5035610d6c565b604080516001600160a01b0390991689526020890197909752878701959095526060870193909352608086019190915260a085015260c084015260e083015251908190036101000190f35b34801561057557600080fd5b50610220610ecb565b34801561058a57600080fd5b5061031b610f02565b34801561059f57600080fd5b5061031b600480360360208110156105b657600080fd5b50356001600160a01b0316610f08565b3480156105d257600080fd5b50610220610f23565b3480156105e757600080fd5b5061031b610fc5565b3480156105fc57600080fd5b50610605610fcb565b604080516001600160a01b039092168252519081900360200190f35b34801561062d57600080fd5b5061031b6004803603602081101561064457600080fd5b50356001600160a01b0316610fda565b34801561066057600080fd5b50610244610fe5565b34801561067557600080fd5b506102f26004803603604081101561068c57600080fd5b506001600160a01b038135169060200135611046565b3480156106ae57600080fd5b5061031b600480360360208110156106c557600080fd5b50356001600160a01b03166110ae565b3480156106e157600080fd5b506102f2600480360360408110156106f857600080fd5b506001600160a01b0381351690602001356110da565b34801561071a57600080fd5b5061031b6004803603602081101561073157600080fd5b50356001600160a01b03166110ee565b34801561074d57600080fd5b506102f26004803603604081101561076457600080fd5b506001600160a01b0381351690602001351515611109565b34801561078857600080fd5b5061031b6111de565b34801561079d57600080fd5b5061031b600480360360408110156107b457600080fd5b506001600160a01b03813581169160200135166111e4565b3480156107d857600080fd5b50610220600480360360408110156107ef57600080fd5b506001600160a01b03813516906020013561120f565b34801561081157600080fd5b5061031b6113bb565b34801561082657600080fd5b506102206004803603602081101561083d57600080fd5b50356113c1565b34801561085057600080fd5b506102206004803603602081101561086757600080fd5b50356001600160a01b03166114db565b34801561088357600080fd5b5061051e6004803603602081101561089a57600080fd5b50356001600160a01b03166115d4565b3480156108b657600080fd5b506108d4600480360360208110156108cd57600080fd5b5035611747565b60408051938452602084019290925282820152519081900360600190f35b60006108fc610aa4565b1161090657600080fd5b341561098157610937610917610aa4565b61092534600160801b611845565b8161092c57fe5b6005549190046118a5565b60055560408051348152905133917fa493a9229478c3fcd73f66d2cdeb7f94fd0f341da924d1054236d78454116511919081900360200190a260085461097d90346118a5565b6008555b565b60038054604080516020601f6002600019610100600188161502019095169490940493840181900481028201810190925282815260609390929091830182828015610a0f5780601f106109e457610100808354040283529160200191610a0f565b820191906000526020600020905b8154815290600101906020018083116109f257829003601f168201915b5050505050905090565b6000610a2d610a266118ff565b8484611903565b5060015b92915050565b600a5490565b610a456118ff565b6009546001600160a01b03908116911614610a95576040805162461bcd60e51b81526020600482018190526024820152600080516020612120833981519152604482015290519081900360640190fd5b670de0b6b3a764000002601255565b60025490565b60106020526000908152604090205481565b6000610ac98484846119ef565b610b3984610ad56118ff565b610b34856040518060600160405280602881526020016120f8602891396001600160a01b038a16600090815260016020526040812090610b136118ff565b6001600160a01b031681526020810191909152604001600020549190611a26565b611903565b5060019392505050565b6001600160a01b038116600090815260066020526040812054600160801b90610b9290610b8d90610b87610b82610b7988610f08565b60055490611845565b611abd565b90611acd565b611b00565b81610b9957fe5b0490505b919050565b600e5481565b601290565b610bb56118ff565b6009546001600160a01b03908116911614610c05576040805162461bcd60e51b81526020600482018190526024820152600080516020612120833981519152604482015290519081900360640190fd5b6001600160a01b0381166000908152600f602052604090205460ff1615610c2b57600080fd5b6001600160a01b0381166000908152600f60205260408120805460ff19166001179055610c59908290611b13565b6040805163131836e760e21b8152600a60048201526001600160a01b0383166024820152905173__$c41798c36f77fae473f6420c0101d2f226$__91634c60db9c916044808301926000929190829003018186803b158015610cba57600080fd5b505af4158015610cce573d6000803e3d6000fd5b50506040516001600160a01b03841692507fa878b31040b2e6d0a9a3d3361209db3908ba62014b0dca52adbaee451d128b259150600090a250565b6000610a2d610d166118ff565b84610b348560016000610d276118ff565b6001600160a01b03908116825260208083019390935260409182016000908120918c1681529252902054906118a5565b600f6020526000908152604090205460ff1681565b600080600080600080600080600a73__$c41798c36f77fae473f6420c0101d2f226$__63deb3d89690916040518263ffffffff1660e01b81526004018082815260200191505060206040518083038186803b158015610dca57600080fd5b505af4158015610dde573d6000803e3d6000fd5b505050506040513d6020811015610df457600080fd5b50518910610e1b575060009650600019955085945086935083925082915081905080610ec0565b6000600a73__$c41798c36f77fae473f6420c0101d2f226$__63d1aa9e7e90918c6040518363ffffffff1660e01b8152600401808381526020018281526020019250505060206040518083038186803b158015610e7757600080fd5b505af4158015610e8b573d6000803e3d6000fd5b505050506040513d6020811015610ea157600080fd5b50519050610eae816115d4565b98509850985098509850985098509850505b919395975091939597565b60405162461bcd60e51b81526004018080602001828103825260658152602001806120726065913960800191505060405180910390fd5b60115481565b6001600160a01b031660009081526020819052604090205490565b610f2b6118ff565b6009546001600160a01b03908116911614610f7b576040805162461bcd60e51b81526020600482018190526024820152600080516020612120833981519152604482015290519081900360640190fd5b6009546040516000916001600160a01b0316907f8be0079c531659141344cd1fd0a4f28419497f9722a3daafe3b4186f6b6457e0908390a3600980546001600160a01b0319169055565b60085481565b6009546001600160a01b031690565b6000610a31826110ae565b60048054604080516020601f6002600019610100600188161502019095169490940493840181900481028201810190925282815260609390929091830182828015610a0f5780601f106109e457610100808354040283529160200191610a0f565b6000610a2d6110536118ff565b84610b34856040518060600160405280602581526020016121c1602591396001600061107d6118ff565b6001600160a01b03908116825260208083019390935260409182016000908120918d16815292529020549190611a26565b6001600160a01b038116600090815260076020526040812054610a31906110d484610b43565b90611b6c565b6000610a2d6110e76118ff565b84846119ef565b6001600160a01b031660009081526007602052604090205490565b60006111136118ff565b6009546001600160a01b03908116911614611163576040805162461bcd60e51b81526020600482018190526024820152600080516020612120833981519152604482015290519081900360640190fd5b600061116e84611bae565b905080156111d4576001600160a01b0384166000818152601060209081526040918290204290558151848152915186151593927fa2c38e2d2fb7e3e1912d937fd1ca11ed6d51864dee4cfa7a7bf02becd7acf09292908290030190a36001915050610a31565b5060009392505050565b60125481565b6001600160a01b03918216600090815260016020908152604080832093909416825291909152205490565b6112176118ff565b6009546001600160a01b03908116911614611267576040805162461bcd60e51b81526020600482018190526024820152600080516020612120833981519152604482015290519081900360640190fd5b6001600160a01b0382166000908152600f602052604090205460ff161561128d576113b7565b6012548110611325576112a08282611b13565b60408051632f0ad01760e21b8152600a60048201526001600160a01b038416602482015260448101839052905173__$c41798c36f77fae473f6420c0101d2f226$__9163bc2b405c916064808301926000929190829003018186803b15801561130857600080fd5b505af415801561131c573d6000803e3d6000fd5b505050506113aa565b611330826000611b13565b6040805163131836e760e21b8152600a60048201526001600160a01b0384166024820152905173__$c41798c36f77fae473f6420c0101d2f226$__91634c60db9c916044808301926000929190829003018186803b15801561139157600080fd5b505af41580156113a5573d6000803e3d6000fd5b505050505b6113b5826001611109565b505b5050565b600e5490565b6113c96118ff565b6009546001600160a01b03908116911614611419576040805162461bcd60e51b81526020600482018190526024820152600080516020612120833981519152604482015290519081900360640190fd5b603c811015801561142c57506102588111155b6114675760405162461bcd60e51b815260040180806020018281038252604c8152602001806121e6604c913960600191505060405180910390fd5b6011548114156114a85760405162461bcd60e51b815260040180806020018281038252603c815260200180612161603c913960400191505060405180910390fd5b60115460405182907f474ea64804364a1e29a4487ddb63c3342a2dd826ccd8acf48825e680a0e6f20f90600090a3601155565b6114e36118ff565b6009546001600160a01b03908116911614611533576040805162461bcd60e51b81526020600482018190526024820152600080516020612120833981519152604482015290519081900360640190fd5b6001600160a01b0381166115785760405162461bcd60e51b815260040180806020018281038252602681526020018061202a6026913960400191505060405180910390fd5b6009546040516001600160a01b038084169216907f8be0079c531659141344cd1fd0a4f28419497f9722a3daafe3b4186f6b6457e090600090a3600980546001600160a01b0319166001600160a01b0392909216919091179055565b600080600080600080600080889750600a73__$c41798c36f77fae473f6420c0101d2f226$__6317e142d190918a6040518363ffffffff1660e01b815260040180838152602001826001600160a01b031681526020019250505060206040518083038186803b15801561164657600080fd5b505af415801561165a573d6000803e3d6000fd5b505050506040513d602081101561167057600080fd5b505196506000199550600087126116d457600e548711156116a057600e54611699908890611cef565b95506116d4565b600e54600a54600091106116b55760006116c4565b600e54600a546116c491611b6c565b90506116d08882611acd565b9650505b6116dd886110ae565b94506116e888610b43565b6001600160a01b038916600090815260106020526040902054909450925082611712576000611720565b6011546117209084906118a5565b915042821161173057600061173a565b61173a8242611b6c565b9050919395975091939597565b600a546000908190819080611767575050600e546000925082915061183e565b600e546000805a90506000805b898410801561178257508582105b1561182d57600a54600190950194851061179b57600094505b6000600a60000186815481106117ad57fe5b60009182526020808320909101546001600160a01b031680835260109091526040909120549091506117de90611d21565b156117fa576117ee816001611109565b156117fa576001909101905b60019092019160005a9050808511156118245761182161181a8683611b6c565b87906118a5565b95505b93506117749050565b600e85905590975095509193505050505b9193909250565b60008261185457506000610a31565b8282028284828161186157fe5b041461189e5760405162461bcd60e51b81526004018080602001828103825260218152602001806120d76021913960400191505060405180910390fd5b9392505050565b60008282018381101561189e576040805162461bcd60e51b815260206004820152601b60248201527f536166654d6174683a206164646974696f6e206f766572666c6f770000000000604482015290519081900360640190fd5b3390565b6001600160a01b0383166119485760405162461bcd60e51b815260040180806020018281038252602481526020018061219d6024913960400191505060405180910390fd5b6001600160a01b03821661198d5760405162461bcd60e51b81526004018080602001828103825260228152602001806120506022913960400191505060405180910390fd5b6001600160a01b03808416600081815260016020908152604080832094871680845294825291829020859055815185815291517f8c5be1e5ebec7d5bd14f71427d1e84f3dd0314c0f7b2291e5b200ac8c7c3b9259281900390910190a3505050565b60405162461bcd60e51b815260040180806020018281038252602b815260200180611fff602b913960400191505060405180910390fd5b60008184841115611ab55760405162461bcd60e51b81526004018080602001828103825283818151815260200191508051906020019080838360005b83811015611a7a578181015183820152602001611a62565b50505050905090810190601f168015611aa75780820380516001836020036101000a031916815260200191505b509250505060405180910390fd5b505050900390565b60008181811215610a3157600080fd5b6000828201818312801590611ae25750838112155b80611af75750600083128015611af757508381125b61189e57600080fd5b600080821215611b0f57600080fd5b5090565b6000611b1e83610f08565b905080821115611b46576000611b348383611b6c565b9050611b408482611d48565b506113b5565b808210156113b5576000611b5a8284611b6c565b9050611b668482611dac565b50505050565b600061189e83836040518060400160405280601e81526020017f536166654d6174683a207375627472616374696f6e206f766572666c6f770000815250611a26565b600080611bba836110ae565b90508015611ce6576001600160a01b038316600090815260076020526040902054611be590826118a5565b6001600160a01b038416600081815260076020908152604091829020939093558051848152905191927fee503bee2bb6a87e57bc57db795f98137327401a0e7b7ce42e37926cc1a9ca4d92918290030190a26040516000906001600160a01b03851690610bb890849084818181858888f193505050503d8060008114611c87576040519150601f19603f3d011682016040523d82523d6000602084013e611c8c565b606091505b5050905080611cde576001600160a01b038416600090815260076020526040902054611cb89083611b6c565b6001600160a01b0385166000908152600760205260408120919091559250610b9d915050565b509050610b9d565b50600092915050565b6000818303818312801590611d045750838113155b80611af75750600083128015611af7575083811361189e57600080fd5b600042821115611d3357506000610b9d565b601154611d404284611b6c565b101592915050565b611d528282611df0565b611d8c611d6d610b828360055461184590919063ffffffff16565b6001600160a01b03841660009081526006602052604090205490611cef565b6001600160a01b0390921660009081526006602052604090209190915550565b611db68282611ee0565b611d8c611dd1610b828360055461184590919063ffffffff16565b6001600160a01b03841660009081526006602052604090205490611acd565b6001600160a01b038216611e4b576040805162461bcd60e51b815260206004820152601f60248201527f45524332303a206d696e7420746f20746865207a65726f206164647265737300604482015290519081900360640190fd5b611e57600083836113b5565b600254611e6490826118a5565b6002556001600160a01b038216600090815260208190526040902054611e8a90826118a5565b6001600160a01b0383166000818152602081815260408083209490945583518581529351929391927fddf252ad1be2c89b69c2b068fc378daa952ba7f163c4a11628f55a4df523b3ef9281900390910190a35050565b6001600160a01b038216611f255760405162461bcd60e51b81526004018080602001828103825260218152602001806121406021913960400191505060405180910390fd5b611f31826000836113b5565b611f6e81604051806060016040528060228152602001611fdd602291396001600160a01b0385166000908152602081905260409020549190611a26565b6001600160a01b038316600090815260208190526040902055600254611f949082611b6c565b6002556040805182815290516000916001600160a01b038516917fddf252ad1be2c89b69c2b068fc378daa952ba7f163c4a11628f55a4df523b3ef9181900360200190a3505056fe45524332303a206275726e20616d6f756e7420657863656564732062616c616e6365644554485f4469766964656e645f547261636b65723a204e6f207472616e736665727320616c6c6f7765644f776e61626c653a206e6577206f776e657220697320746865207a65726f206164647265737345524332303a20617070726f766520746f20746865207a65726f2061646472657373644554485f4469766964656e645f547261636b65723a2077697468647261774469766964656e642064697361626c65642e20557365207468652027636c61696d272066756e6374696f6e206f6e20746865206d61696e206445544820636f6e74726163742e536166654d6174683a206d756c7469706c69636174696f6e206f766572666c6f7745524332303a207472616e7366657220616d6f756e74206578636565647320616c6c6f77616e63654f776e61626c653a2063616c6c6572206973206e6f7420746865206f776e657245524332303a206275726e2066726f6d20746865207a65726f2061646472657373644554485f4469766964656e645f547261636b65723a2043616e6e6f742075706461746520636c61696d5761697420746f2073616d652076616c756545524332303a20617070726f76652066726f6d20746865207a65726f206164647265737345524332303a2064656372656173656420616c6c6f77616e63652062656c6f77207a65726f644554485f4469766964656e645f547261636b65723a20636c61696d57616974206d757374206265207570646174656420746f206265747765656e203120616e64203130206d696e75746573a2646970667358221220d380af9c4b3a0647a7cf647df3c2279fa74d8a97887159bf1dd928ff40fb75e564736f6c634300060c0033644554483a204163636f756e7420697320616c7265616479207468652076616c7565206f6620276578636c7564656427",
  "linkReferences": {
    "contracts/dethV3.sol": {
      "IterableMapping": [
        {
          "length": 20,
          "start": 21605
        },
        {
          "length": 20,
          "start": 21856
        },
        {
          "length": 20,
          "start": 22021
        },
        {
          "length": 20,
          "start": 23219
        },
        {
          "length": 20,
          "start": 23356
        },
        {
          "length": 20,
          "start": 24011
        }
      ]
    }
  },
  "deployedLinkReferences": {}
}