{
  "_format": "hh-sol-artifact-1",
  "contractName": "DividendPayingToken",
  "sourceName": "contracts/dethV3.sol",
  "abi": [
    {
      "inputs": [
        {
          "internalType": "string",
          "name": "_name",
          "type": "string"
        },
        {
          "internalType": "string",
          "name": "_symbol",
          "type": "string"
        }
      ],
      "stateMutability": "nonpayable",
      "type": "constructor"
    },
    {
      "anonymous": false,
      "inputs": [
        {
          "indexed": true,
          "internalType": "address",
          "name": "owner",
          "type": "address"
        },
        {
          "indexed": true,
          "internalType": "address",
          "name": "spender",
          "type": "address"
        },
        {
          "indexed": false,
          "internalType": "uint256",
          "name": "value",
          "type": "uint256"
        }
      ],
      "name": "Approval",
      "type": "event"
    },
    {
      "anonymous": false,
      "inputs": [
        {
          "indexed": true,
          "internalType": "address",
          "name": "to",
          "type": "address"
        },
        {
          "indexed": false,
          "internalType": "uint256",
          "name": "weiAmount",
          "type": "uint256"
        }
      ],
      "name": "DividendWithdrawn",
      "type": "event"
    },
    {
      "anonymous": false,
      "inputs": [
        {
          "indexed": true,
          "internalType": "address",
          "name": "from",
          "type": "address"
        },
        {
          "indexed": false,
          "internalType": "uint256",
          "name": "weiAmount",
          "type": "uint256"
        }
      ],
      "name": "DividendsDistributed",
      "type": "event"
    },
    {
      "anonymous": false,
      "inputs": [
        {
          "indexed": true,
          "internalType": "address",
          "name": "from",
          "type": "address"
        },
        {
          "indexed": true,
          "internalType": "address",
          "name": "to",
          "type": "address"
        },
        {
          "indexed": false,
          "internalType": "uint256",
          "name": "value",
          "type": "uint256"
        }
      ],
      "name": "Transfer",
      "type": "event"
    },
    {
      "inputs": [
        {
          "internalType": "address",
          "name": "_owner",
          "type": "address"
        }
      ],
      "name": "accumulativeDividendOf",
      "outputs": [
        {
          "internalType": "uint256",
          "name": "",
          "type": "uint256"
        }
      ],
      "stateMutability": "view",
      "type": "function"
    },
    {
      "inputs": [
        {
          "internalType": "address",
          "name": "owner",
          "type": "address"
        },
        {
          "internalType": "address",
          "name": "spender",
          "type": "address"
        }
      ],
      "name": "allowance",
      "outputs": [
        {
          "internalType": "uint256",
          "name": "",
          "type": "uint256"
        }
      ],
      "stateMutability": "view",
      "type": "function"
    },
    {
      "inputs": [
        {
          "internalType": "address",
          "name": "spender",
          "type": "address"
        },
        {
          "internalType": "uint256",
          "name": "amount",
          "type": "uint256"
        }
      ],
      "name": "approve",
      "outputs": [
        {
          "internalType": "bool",
          "name": "",
          "type": "bool"
        }
      ],
      "stateMutability": "nonpayable",
      "type": "function"
    },
    {
      "inputs": [
        {
          "internalType": "address",
          "name": "account",
          "type": "address"
        }
      ],
      "name": "balanceOf",
      "outputs": [
        {
          "internalType": "uint256",
          "name": "",
          "type": "uint256"
        }
      ],
      "stateMutability": "view",
      "type": "function"
    },
    {
      "inputs": [],
      "name": "decimals",
      "outputs": [
        {
          "internalType": "uint8",
          "name": "",
          "type": "uint8"
        }
      ],
      "stateMutability": "view",
      "type": "function"
    },
    {
      "inputs": [
        {
          "internalType": "address",
          "name": "spender",
          "type": "address"
        },
        {
          "internalType": "uint256",
          "name": "subtractedValue",
          "type": "uint256"
        }
      ],
      "name": "decreaseAllowance",
      "outputs": [
        {
          "internalType": "bool",
          "name": "",
          "type": "bool"
        }
      ],
      "stateMutability": "nonpayable",
      "type": "function"
    },
    {
      "inputs": [],
      "name": "distributeDividends",
      "outputs": [],
      "stateMutability": "payable",
      "type": "function"
    },
    {
      "inputs": [
        {
          "internalType": "address",
          "name": "_owner",
          "type": "address"
        }
      ],
      "name": "dividendOf",
      "outputs": [
        {
          "internalType": "uint256",
          "name": "",
          "type": "uint256"
        }
      ],
      "stateMutability": "view",
      "type": "function"
    },
    {
      "inputs": [
        {
          "internalType": "address",
          "name": "spender",
          "type": "address"
        },
        {
          "internalType": "uint256",
          "name": "addedValue",
          "type": "uint256"
        }
      ],
      "name": "increaseAllowance",
      "outputs": [
        {
          "internalType": "bool",
          "name": "",
          "type": "bool"
        }
      ],
      "stateMutability": "nonpayable",
      "type": "function"
    },
    {
      "inputs": [],
      "name": "name",
      "outputs": [
        {
          "internalType": "string",
          "name": "",
          "type": "string"
        }
      ],
      "stateMutability": "view",
      "type": "function"
    },
    {
      "inputs": [],
      "name": "symbol",
      "outputs": [
        {
          "internalType": "string",
          "name": "",
          "type": "string"
        }
      ],
      "stateMutability": "view",
      "type": "function"
    },
    {
      "inputs": [],
      "name": "totalDividendsDistributed",
      "outputs": [
        {
          "internalType": "uint256",
          "name": "",
          "type": "uint256"
        }
      ],
      "stateMutability": "view",
      "type": "function"
    },
    {
      "inputs": [],
      "name": "totalSupply",
      "outputs": [
        {
          "internalType": "uint256",
          "name": "",
          "type": "uint256"
        }
      ],
      "stateMutability": "view",
      "type": "function"
    },
    {
      "inputs": [
        {
          "internalType": "address",
          "name": "recipient",
          "type": "address"
        },
        {
          "internalType": "uint256",
          "name": "amount",
          "type": "uint256"
        }
      ],
      "name": "transfer",
      "outputs": [
        {
          "internalType": "bool",
          "name": "",
          "type": "bool"
        }
      ],
      "stateMutability": "nonpayable",
      "type": "function"
    },
    {
      "inputs": [
        {
          "internalType": "address",
          "name": "sender",
          "type": "address"
        },
        {
          "internalType": "address",
          "name": "recipient",
          "type": "address"
        },
        {
          "internalType": "uint256",
          "name": "amount",
          "type": "uint256"
        }
      ],
      "name": "transferFrom",
      "outputs": [
        {
          "internalType": "bool",
          "name": "",
          "type": "bool"
        }
      ],
      "stateMutability": "nonpayable",
      "type": "function"
    },
    {
      "inputs": [],
      "name": "withdrawDividend",
      "outputs": [],
      "stateMutability": "nonpayable",
      "type": "function"
    },
    {
      "inputs": [
        {
          "internalType": "address",
          "name": "_owner",
          "type": "address"
        }
      ],
      "name": "withdrawableDividendOf",
      "outputs": [
        {
          "internalType": "uint256",
          "name": "",
          "type": "uint256"
        }
      ],
      "stateMutability": "view",
      "type": "function"
    },
    {
      "inputs": [
        {
          "internalType": "address",
          "name": "_owner",
          "type": "address"
        }
      ],
      "name": "withdrawnDividendOf",
      "outputs": [
        {
          "internalType": "uint256",
          "name": "",
          "type": "uint256"
        }
      ],
      "stateMutability": "view",
      "type": "function"
    },
    {
      "stateMutability": "payable",
      "type": "receive"
    }
  ],
  "bytecode": "0x60806040523480156200001157600080fd5b506040516200104d3803806200104d833981810160405260408110156200003757600080fd5b81019080805160405193929190846401000000008211156200005857600080fd5b9083019060208201858111156200006e57600080fd5b82516401000000008111828201881017156200008957600080fd5b82525081516020918201929091019080838360005b83811015620000b85781810151838201526020016200009e565b50505050905090810190601f168015620000e65780820380516001836020036101000a031916815260200191505b50604052602001805160405193929190846401000000008211156200010a57600080fd5b9083019060208201858111156200012057600080fd5b82516401000000008111828201881017156200013b57600080fd5b82525081516020918201929091019080838360005b838110156200016a57818101518382015260200162000150565b50505050905090810190601f168015620001985780820380516001836020036101000a031916815260200191505b50604052505082518391508290620001b8906003906020850190620001d9565b508051620001ce906004906020840190620001d9565b505050505062000275565b828054600181600116156101000203166002900490600052602060002090601f016020900481019282601f106200021c57805160ff19168380011785556200024c565b828001600101855582156200024c579182015b828111156200024c5782518255916020019190600101906200022f565b506200025a9291506200025e565b5090565b5b808211156200025a57600081556001016200025f565b610dc880620002856000396000f3fe60806040526004361061010d5760003560e01c806370a0823111610095578063a457c2d711610064578063a457c2d7146103a6578063a8b9d240146103df578063a9059cbb14610412578063aafd847a1461044b578063dd62ed3e1461047e5761011c565b806370a082311461031657806385a6b3ae1461034957806391b89fba1461035e57806395d89b41146103915761011c565b806323b872dd116100dc57806323b872dd1461022757806327ce01471461026a578063313ce5671461029d57806339509351146102c85780636a474002146103015761011c565b806303c833021461012157806306fdde0314610129578063095ea7b3146101b357806318160ddd146102005761011c565b3661011c5761011a6104b9565b005b600080fd5b61011a6104b9565b34801561013557600080fd5b5061013e61054a565b6040805160208082528351818301528351919283929083019185019080838360005b83811015610178578181015183820152602001610160565b50505050905090810190601f1680156101a55780820380516001836020036101000a031916815260200191505b509250505060405180910390f35b3480156101bf57600080fd5b506101ec600480360360408110156101d657600080fd5b506001600160a01b0381351690602001356105e0565b604080519115158252519081900360200190f35b34801561020c57600080fd5b506102156105fe565b60408051918252519081900360200190f35b34801561023357600080fd5b506101ec6004803603606081101561024a57600080fd5b506001600160a01b03813581169160208101359091169060400135610604565b34801561027657600080fd5b506102156004803603602081101561028d57600080fd5b50356001600160a01b031661068b565b3480156102a957600080fd5b506102b26106ea565b6040805160ff9092168252519081900360200190f35b3480156102d457600080fd5b506101ec600480360360408110156102eb57600080fd5b506001600160a01b0381351690602001356106ef565b34801561030d57600080fd5b5061011a61073d565b34801561032257600080fd5b506102156004803603602081101561033957600080fd5b50356001600160a01b0316610749565b34801561035557600080fd5b50610215610764565b34801561036a57600080fd5b506102156004803603602081101561038157600080fd5b50356001600160a01b031661076a565b34801561039d57600080fd5b5061013e610775565b3480156103b257600080fd5b506101ec600480360360408110156103c957600080fd5b506001600160a01b0381351690602001356107d6565b3480156103eb57600080fd5b506102156004803603602081101561040257600080fd5b50356001600160a01b031661083e565b34801561041e57600080fd5b506101ec6004803603604081101561043557600080fd5b506001600160a01b03813516906020013561086a565b34801561045757600080fd5b506102156004803603602081101561046e57600080fd5b50356001600160a01b031661087e565b34801561048a57600080fd5b50610215600480360360408110156104a157600080fd5b506001600160a01b0381358116916020013516610899565b60006104c36105fe565b116104cd57600080fd5b3415610548576104fe6104de6105fe565b6104ec34600160801b6108c4565b816104f357fe5b600554919004610924565b60055560408051348152905133917fa493a9229478c3fcd73f66d2cdeb7f94fd0f341da924d1054236d78454116511919081900360200190a26008546105449034610924565b6008555b565b60038054604080516020601f60026000196101006001881615020190951694909404938401819004810282018101909252828152606093909290918301828280156105d65780601f106105ab576101008083540402835291602001916105d6565b820191906000526020600020905b8154815290600101906020018083116105b957829003601f168201915b5050505050905090565b60006105f46105ed61097e565b8484610982565b5060015b92915050565b60025490565b600061061184848461011c565b6106818461061d61097e565b61067c85604051806060016040528060288152602001610d22602891396001600160a01b038a1660009081526001602052604081209061065b61097e565b6001600160a01b031681526020810191909152604001600020549190610a6e565b610982565b5060019392505050565b6001600160a01b038116600090815260066020526040812054600160801b906106da906106d5906106cf6106ca6106c188610749565b600554906108c4565b610b05565b90610b15565b610b48565b816106e157fe5b0490505b919050565b601290565b60006105f46106fc61097e565b8461067c856001600061070d61097e565b6001600160a01b03908116825260208083019390935260409182016000908120918c168152925290205490610924565b61074633610b5b565b50565b6001600160a01b031660009081526020819052604090205490565b60085481565b60006105f88261083e565b60048054604080516020601f60026000196101006001881615020190951694909404938401819004810282018101909252828152606093909290918301828280156105d65780601f106105ab576101008083540402835291602001916105d6565b60006105f46107e361097e565b8461067c85604051806060016040528060258152602001610d6e602591396001600061080d61097e565b6001600160a01b03908116825260208083019390935260409182016000908120918d16815292529020549190610a6e565b6001600160a01b0381166000908152600760205260408120546105f8906108648461068b565b90610c9c565b60006105f461087761097e565b848461011c565b6001600160a01b031660009081526007602052604090205490565b6001600160a01b03918216600090815260016020908152604080832093909416825291909152205490565b6000826108d3575060006105f8565b828202828482816108e057fe5b041461091d5760405162461bcd60e51b8152600401808060200182810382526021815260200180610d016021913960400191505060405180910390fd5b9392505050565b60008282018381101561091d576040805162461bcd60e51b815260206004820152601b60248201527f536166654d6174683a206164646974696f6e206f766572666c6f770000000000604482015290519081900360640190fd5b3390565b6001600160a01b0383166109c75760405162461bcd60e51b8152600401808060200182810382526024815260200180610d4a6024913960400191505060405180910390fd5b6001600160a01b038216610a0c5760405162461bcd60e51b8152600401808060200182810382526022815260200180610cdf6022913960400191505060405180910390fd5b6001600160a01b03808416600081815260016020908152604080832094871680845294825291829020859055815185815291517f8c5be1e5ebec7d5bd14f71427d1e84f3dd0314c0f7b2291e5b200ac8c7c3b9259281900390910190a3505050565b60008184841115610afd5760405162461bcd60e51b81526004018080602001828103825283818151815260200191508051906020019080838360005b83811015610ac2578181015183820152602001610aaa565b50505050905090810190601f168015610aef5780820380516001836020036101000a031916815260200191505b509250505060405180910390fd5b505050900390565b600081818112156105f857600080fd5b6000828201818312801590610b2a5750838112155b80610b3f5750600083128015610b3f57508381125b61091d57600080fd5b600080821215610b5757600080fd5b5090565b600080610b678361083e565b90508015610c93576001600160a01b038316600090815260076020526040902054610b929082610924565b6001600160a01b038416600081815260076020908152604091829020939093558051848152905191927fee503bee2bb6a87e57bc57db795f98137327401a0e7b7ce42e37926cc1a9ca4d92918290030190a26040516000906001600160a01b03851690610bb890849084818181858888f193505050503d8060008114610c34576040519150601f19603f3d011682016040523d82523d6000602084013e610c39565b606091505b5050905080610c8b576001600160a01b038416600090815260076020526040902054610c659083610c9c565b6001600160a01b03851660009081526007602052604081209190915592506106e5915050565b5090506106e5565b50600092915050565b600061091d83836040518060400160405280601e81526020017f536166654d6174683a207375627472616374696f6e206f766572666c6f770000815250610a6e56fe45524332303a20617070726f766520746f20746865207a65726f2061646472657373536166654d6174683a206d756c7469706c69636174696f6e206f766572666c6f7745524332303a207472616e7366657220616d6f756e74206578636565647320616c6c6f77616e636545524332303a20617070726f76652066726f6d20746865207a65726f206164647265737345524332303a2064656372656173656420616c6c6f77616e63652062656c6f77207a65726fa2646970667358221220e456aad74ab135b28f44d5cc8a6b10132ab6033e9bf7d39cd6e34441c63e218064736f6c634300060c0033",
  "linkReferences": {},
  "deployedLinkReferences": {}
}