{
	"contracts/dethDividendTracker.sol": {
		"DividendPayingToken": {
			"abi": [
				{
					"inputs": [
						{
							"internalType": "string",
							"name": "_name",
							"type": "string"
						},
						{
							"internalType": "string",
							"name": "_symbol",
							"type": "string"
						}
					],
					"stateMutability": "nonpayable",
					"type": "constructor"
				},
				{
					"anonymous": false,
					"inputs": [
						{
							"indexed": true,
							"internalType": "address",
							"name": "owner",
							"type": "address"
						},
						{
							"indexed": true,
							"internalType": "address",
							"name": "spender",
							"type": "address"
						},
						{
							"indexed": false,
							"internalType": "uint256",
							"name": "value",
							"type": "uint256"
						}
					],
					"name": "Approval",
					"type": "event"
				},
				{
					"anonymous": false,
					"inputs": [
						{
							"indexed": true,
							"internalType": "address",
							"name": "to",
							"type": "address"
						},
						{
							"indexed": false,
							"internalType": "uint256",
							"name": "weiAmount",
							"type": "uint256"
						}
					],
					"name": "DividendWithdrawn",
					"type": "event"
				},
				{
					"anonymous": false,
					"inputs": [
						{
							"indexed": true,
							"internalType": "address",
							"name": "from",
							"type": "address"
						},
						{
							"indexed": false,
							"internalType": "uint256",
							"name": "weiAmount",
							"type": "uint256"
						}
					],
					"name": "DividendsDistributed",
					"type": "event"
				},
				{
					"anonymous": false,
					"inputs": [
						{
							"indexed": true,
							"internalType": "address",
							"name": "from",
							"type": "address"
						},
						{
							"indexed": true,
							"internalType": "address",
							"name": "to",
							"type": "address"
						},
						{
							"indexed": false,
							"internalType": "uint256",
							"name": "value",
							"type": "uint256"
						}
					],
					"name": "Transfer",
					"type": "event"
				},
				{
					"inputs": [
						{
							"internalType": "address",
							"name": "_owner",
							"type": "address"
						}
					],
					"name": "accumulativeDividendOf",
					"outputs": [
						{
							"internalType": "uint256",
							"name": "",
							"type": "uint256"
						}
					],
					"stateMutability": "view",
					"type": "function"
				},
				{
					"inputs": [
						{
							"internalType": "address",
							"name": "owner",
							"type": "address"
						},
						{
							"internalType": "address",
							"name": "spender",
							"type": "address"
						}
					],
					"name": "allowance",
					"outputs": [
						{
							"internalType": "uint256",
							"name": "",
							"type": "uint256"
						}
					],
					"stateMutability": "view",
					"type": "function"
				},
				{
					"inputs": [
						{
							"internalType": "address",
							"name": "spender",
							"type": "address"
						},
						{
							"internalType": "uint256",
							"name": "amount",
							"type": "uint256"
						}
					],
					"name": "approve",
					"outputs": [
						{
							"internalType": "bool",
							"name": "",
							"type": "bool"
						}
					],
					"stateMutability": "nonpayable",
					"type": "function"
				},
				{
					"inputs": [
						{
							"internalType": "address",
							"name": "account",
							"type": "address"
						}
					],
					"name": "balanceOf",
					"outputs": [
						{
							"internalType": "uint256",
							"name": "",
							"type": "uint256"
						}
					],
					"stateMutability": "view",
					"type": "function"
				},
				{
					"inputs": [],
					"name": "decimals",
					"outputs": [
						{
							"internalType": "uint8",
							"name": "",
							"type": "uint8"
						}
					],
					"stateMutability": "view",
					"type": "function"
				},
				{
					"inputs": [
						{
							"internalType": "address",
							"name": "spender",
							"type": "address"
						},
						{
							"internalType": "uint256",
							"name": "subtractedValue",
							"type": "uint256"
						}
					],
					"name": "decreaseAllowance",
					"outputs": [
						{
							"internalType": "bool",
							"name": "",
							"type": "bool"
						}
					],
					"stateMutability": "nonpayable",
					"type": "function"
				},
				{
					"inputs": [],
					"name": "distributeDividends",
					"outputs": [],
					"stateMutability": "payable",
					"type": "function"
				},
				{
					"inputs": [
						{
							"internalType": "address",
							"name": "_owner",
							"type": "address"
						}
					],
					"name": "dividendOf",
					"outputs": [
						{
							"internalType": "uint256",
							"name": "",
							"type": "uint256"
						}
					],
					"stateMutability": "view",
					"type": "function"
				},
				{
					"inputs": [
						{
							"internalType": "address",
							"name": "spender",
							"type": "address"
						},
						{
							"internalType": "uint256",
							"name": "addedValue",
							"type": "uint256"
						}
					],
					"name": "increaseAllowance",
					"outputs": [
						{
							"internalType": "bool",
							"name": "",
							"type": "bool"
						}
					],
					"stateMutability": "nonpayable",
					"type": "function"
				},
				{
					"inputs": [],
					"name": "name",
					"outputs": [
						{
							"internalType": "string",
							"name": "",
							"type": "string"
						}
					],
					"stateMutability": "view",
					"type": "function"
				},
				{
					"inputs": [],
					"name": "symbol",
					"outputs": [
						{
							"internalType": "string",
							"name": "",
							"type": "string"
						}
					],
					"stateMutability": "view",
					"type": "function"
				},
				{
					"inputs": [],
					"name": "totalDividendsDistributed",
					"outputs": [
						{
							"internalType": "uint256",
							"name": "",
							"type": "uint256"
						}
					],
					"stateMutability": "view",
					"type": "function"
				},
				{
					"inputs": [],
					"name": "totalSupply",
					"outputs": [
						{
							"internalType": "uint256",
							"name": "",
							"type": "uint256"
						}
					],
					"stateMutability": "view",
					"type": "function"
				},
				{
					"inputs": [
						{
							"internalType": "address",
							"name": "recipient",
							"type": "address"
						},
						{
							"internalType": "uint256",
							"name": "amount",
							"type": "uint256"
						}
					],
					"name": "transfer",
					"outputs": [
						{
							"internalType": "bool",
							"name": "",
							"type": "bool"
						}
					],
					"stateMutability": "nonpayable",
					"type": "function"
				},
				{
					"inputs": [
						{
							"internalType": "address",
							"name": "sender",
							"type": "address"
						},
						{
							"internalType": "address",
							"name": "recipient",
							"type": "address"
						},
						{
							"internalType": "uint256",
							"name": "amount",
							"type": "uint256"
						}
					],
					"name": "transferFrom",
					"outputs": [
						{
							"internalType": "bool",
							"name": "",
							"type": "bool"
						}
					],
					"stateMutability": "nonpayable",
					"type": "function"
				},
				{
					"inputs": [],
					"name": "withdrawDividend",
					"outputs": [],
					"stateMutability": "nonpayable",
					"type": "function"
				},
				{
					"inputs": [
						{
							"internalType": "address",
							"name": "_owner",
							"type": "address"
						}
					],
					"name": "withdrawableDividendOf",
					"outputs": [
						{
							"internalType": "uint256",
							"name": "",
							"type": "uint256"
						}
					],
					"stateMutability": "view",
					"type": "function"
				},
				{
					"inputs": [
						{
							"internalType": "address",
							"name": "_owner",
							"type": "address"
						}
					],
					"name": "withdrawnDividendOf",
					"outputs": [
						{
							"internalType": "uint256",
							"name": "",
							"type": "uint256"
						}
					],
					"stateMutability": "view",
					"type": "function"
				},
				{
					"stateMutability": "payable",
					"type": "receive"
				}
			],
			"devdoc": {
				"kind": "dev",
				"methods": {},
				"version": 1
			},
			"evm": {
				"assembly": "    /* \"contracts/dethDividendTracker.sol\":9506:13327  contract DividendPayingToken is ERC20, DividendPayingTokenInterface, DividendPayingTokenOptionalInterface {\r... */\n  mstore(0x40, 0x80)\n    /* \"contracts/dethDividendTracker.sol\":9996:10089  constructor(string memory _name, string memory _symbol) public ERC20(_name, _symbol) {\r... */\n  callvalue\n  dup1\n  iszero\n  tag_1\n  jumpi\n  0x00\n  dup1\n  revert\ntag_1:\n  pop\n  mload(0x40)\n  sub(codesize, bytecodeSize)\n  dup1\n  bytecodeSize\n  dup4\n  codecopy\n  dup2\n  dup2\n  add\n  0x40\n  mstore\n  0x40\n  dup2\n  lt\n  iszero\n  tag_2\n  jumpi\n  0x00\n  dup1\n  revert\ntag_2:\n  dup2\n  add\n  swap1\n  dup1\n  dup1\n  mload\n  mload(0x40)\n  swap4\n  swap3\n  swap2\n  swap1\n  dup5\n  0x0100000000\n  dup3\n  gt\n  iszero\n  tag_3\n  jumpi\n  0x00\n  dup1\n  revert\ntag_3:\n  dup4\n  dup3\n  add\n  swap2\n  pop\n  0x20\n  dup3\n  add\n  dup6\n  dup2\n  gt\n  iszero\n  tag_4\n  jumpi\n  0x00\n  dup1\n  revert\ntag_4:\n  dup3\n  mload\n  dup7\n  0x01\n  dup3\n  mul\n  dup4\n  add\n  gt\n  0x0100000000\n  dup3\n  gt\n  or\n  iszero\n  tag_5\n  jumpi\n  0x00\n  dup1\n  revert\ntag_5:\n  dup1\n  dup4\n  mstore\n  0x20\n  dup4\n  add\n  swap3\n  pop\n  pop\n  pop\n  swap1\n  dup1\n  mload\n  swap1\n  0x20\n  add\n  swap1\n  dup1\n  dup4\n  dup4\n  0x00\ntag_6:\n  dup4\n  dup2\n  lt\n  iszero\n  tag_8\n  jumpi\n  dup1\n  dup3\n  add\n  mload\n  dup2\n  dup5\n  add\n  mstore\n  0x20\n  dup2\n  add\n  swap1\n  pop\n  jump(tag_6)\ntag_8:\n  pop\n  pop\n  pop\n  pop\n  swap1\n  pop\n  swap1\n  dup2\n  add\n  swap1\n  0x1f\n  and\n  dup1\n  iszero\n  tag_9\n  jumpi\n  dup1\n  dup3\n  sub\n  dup1\n  mload\n  0x01\n  dup4\n  0x20\n  sub\n  0x0100\n  exp\n  sub\n  not\n  and\n  dup2\n  mstore\n  0x20\n  add\n  swap2\n  pop\ntag_9:\n  pop\n  0x40\n  mstore\n  0x20\n  add\n  dup1\n  mload\n  mload(0x40)\n  swap4\n  swap3\n  swap2\n  swap1\n  dup5\n  0x0100000000\n  dup3\n  gt\n  iszero\n  tag_10\n  jumpi\n  0x00\n  dup1\n  revert\ntag_10:\n  dup4\n  dup3\n  add\n  swap2\n  pop\n  0x20\n  dup3\n  add\n  dup6\n  dup2\n  gt\n  iszero\n  tag_11\n  jumpi\n  0x00\n  dup1\n  revert\ntag_11:\n  dup3\n  mload\n  dup7\n  0x01\n  dup3\n  mul\n  dup4\n  add\n  gt\n  0x0100000000\n  dup3\n  gt\n  or\n  iszero\n  tag_12\n  jumpi\n  0x00\n  dup1\n  revert\ntag_12:\n  dup1\n  dup4\n  mstore\n  0x20\n  dup4\n  add\n  swap3\n  pop\n  pop\n  pop\n  swap1\n  dup1\n  mload\n  swap1\n  0x20\n  add\n  swap1\n  dup1\n  dup4\n  dup4\n  0x00\ntag_13:\n  dup4\n  dup2\n  lt\n  iszero\n  tag_15\n  jumpi\n  dup1\n  dup3\n  add\n  mload\n  dup2\n  dup5\n  add\n  mstore\n  0x20\n  dup2\n  add\n  swap1\n  pop\n  jump(tag_13)\ntag_15:\n  pop\n  pop\n  pop\n  pop\n  swap1\n  pop\n  swap1\n  dup2\n  add\n  swap1\n  0x1f\n  and\n  dup1\n  iszero\n  tag_16\n  jumpi\n  dup1\n  dup3\n  sub\n  dup1\n  mload\n  0x01\n  dup4\n  0x20\n  sub\n  0x0100\n  exp\n  sub\n  not\n  and\n  dup2\n  mstore\n  0x20\n  add\n  swap2\n  pop\ntag_16:\n  pop\n  0x40\n  mstore\n  pop\n  pop\n  pop\n    /* \"contracts/dethDividendTracker.sol\":10065:10070  _name */\n  dup2\n    /* \"contracts/dethDividendTracker.sol\":10072:10079  _symbol */\n  dup2\n    /* \"contracts/dethDividendTracker.sol\":3352:3357  name_ */\n  dup2\n    /* \"contracts/dethDividendTracker.sol\":3344:3349  _name */\n  0x03\n    /* \"contracts/dethDividendTracker.sol\":3344:3357  _name = name_ */\n  swap1\n  dup1\n  mload\n  swap1\n  0x20\n  add\n  swap1\n  tag_20\n  swap3\n  swap2\n  swap1\n  tag_21\n  jump\t// in\ntag_20:\n  pop\n    /* \"contracts/dethDividendTracker.sol\":3378:3385  symbol_ */\n  dup1\n    /* \"contracts/dethDividendTracker.sol\":3368:3375  _symbol */\n  0x04\n    /* \"contracts/dethDividendTracker.sol\":3368:3385  _symbol = symbol_ */\n  swap1\n  dup1\n  mload\n  swap1\n  0x20\n  add\n  swap1\n  tag_22\n  swap3\n  swap2\n  swap1\n  tag_21\n  jump\t// in\ntag_22:\n  pop\n    /* \"contracts/dethDividendTracker.sol\":3270:3393  constructor(string memory name_, string memory symbol_) public {\r... */\n  pop\n  pop\n    /* \"contracts/dethDividendTracker.sol\":9996:10089  constructor(string memory _name, string memory _symbol) public ERC20(_name, _symbol) {\r... */\n  pop\n  pop\n    /* \"contracts/dethDividendTracker.sol\":9506:13327  contract DividendPayingToken is ERC20, DividendPayingTokenInterface, DividendPayingTokenOptionalInterface {\r... */\n  jump(tag_24)\ntag_21:\n  dup3\n  dup1\n  sload\n  0x01\n  dup2\n  0x01\n  and\n  iszero\n  0x0100\n  mul\n  sub\n  and\n  0x02\n  swap1\n  div\n  swap1\n  0x00\n  mstore\n  keccak256(0x00, 0x20)\n  swap1\n  0x1f\n  add\n  0x20\n  swap1\n  div\n  dup2\n  add\n  swap3\n  dup3\n  0x1f\n  lt\n  tag_26\n  jumpi\n  dup1\n  mload\n  not(0xff)\n  and\n  dup4\n  dup1\n  add\n  or\n  dup6\n  sstore\n  jump(tag_25)\ntag_26:\n  dup3\n  dup1\n  add\n  0x01\n  add\n  dup6\n  sstore\n  dup3\n  iszero\n  tag_25\n  jumpi\n  swap2\n  dup3\n  add\ntag_27:\n  dup3\n  dup2\n  gt\n  iszero\n  tag_28\n  jumpi\n  dup3\n  mload\n  dup3\n  sstore\n  swap2\n  0x20\n  add\n  swap2\n  swap1\n  0x01\n  add\n  swap1\n  jump(tag_27)\ntag_28:\ntag_25:\n  pop\n  swap1\n  pop\n  tag_29\n  swap2\n  swap1\n  tag_30\n  jump\t// in\ntag_29:\n  pop\n  swap1\n  jump\t// out\ntag_30:\ntag_31:\n  dup1\n  dup3\n  gt\n  iszero\n  tag_32\n  jumpi\n  0x00\n  dup2\n  0x00\n  swap1\n  sstore\n  pop\n  0x01\n  add\n  jump(tag_31)\ntag_32:\n  pop\n  swap1\n  jump\t// out\ntag_24:\n  dataSize(sub_0)\n  dup1\n  dataOffset(sub_0)\n  0x00\n  codecopy\n  0x00\n  return\nstop\n\nsub_0: assembly {\n        /* \"contracts/dethDividendTracker.sol\":9506:13327  contract DividendPayingToken is ERC20, DividendPayingTokenInterface, DividendPayingTokenOptionalInterface {\r... */\n      mstore(0x40, 0x80)\n      jumpi(tag_1, lt(calldatasize, 0x04))\n      shr(0xe0, calldataload(0x00))\n      dup1\n      0x70a08231\n      gt\n      tag_21\n      jumpi\n      dup1\n      0xa457c2d7\n      gt\n      tag_22\n      jumpi\n      dup1\n      0xa457c2d7\n      eq\n      tag_16\n      jumpi\n      dup1\n      0xa8b9d240\n      eq\n      tag_17\n      jumpi\n      dup1\n      0xa9059cbb\n      eq\n      tag_18\n      jumpi\n      dup1\n      0xaafd847a\n      eq\n      tag_19\n      jumpi\n      dup1\n      0xdd62ed3e\n      eq\n      tag_20\n      jumpi\n      jump(tag_2)\n    tag_22:\n      dup1\n      0x70a08231\n      eq\n      tag_12\n      jumpi\n      dup1\n      0x85a6b3ae\n      eq\n      tag_13\n      jumpi\n      dup1\n      0x91b89fba\n      eq\n      tag_14\n      jumpi\n      dup1\n      0x95d89b41\n      eq\n      tag_15\n      jumpi\n      jump(tag_2)\n    tag_21:\n      dup1\n      0x23b872dd\n      gt\n      tag_23\n      jumpi\n      dup1\n      0x23b872dd\n      eq\n      tag_7\n      jumpi\n      dup1\n      0x27ce0147\n      eq\n      tag_8\n      jumpi\n      dup1\n      0x313ce567\n      eq\n      tag_9\n      jumpi\n      dup1\n      0x39509351\n      eq\n      tag_10\n      jumpi\n      dup1\n      0x6a474002\n      eq\n      tag_11\n      jumpi\n      jump(tag_2)\n    tag_23:\n      dup1\n      0x03c83302\n      eq\n      tag_3\n      jumpi\n      dup1\n      0x06fdde03\n      eq\n      tag_4\n      jumpi\n      dup1\n      0x095ea7b3\n      eq\n      tag_5\n      jumpi\n      dup1\n      0x18160ddd\n      eq\n      tag_6\n      jumpi\n      jump(tag_2)\n    tag_1:\n      jumpi(tag_2, calldatasize)\n        /* \"contracts/dethDividendTracker.sol\":10129:10150  distributeDividends() */\n      tag_26\n        /* \"contracts/dethDividendTracker.sol\":10129:10148  distributeDividends */\n      tag_27\n        /* \"contracts/dethDividendTracker.sol\":10129:10150  distributeDividends() */\n      jump\t// in\n    tag_26:\n        /* \"contracts/dethDividendTracker.sol\":9506:13327  contract DividendPayingToken is ERC20, DividendPayingTokenInterface, DividendPayingTokenOptionalInterface {\r... */\n      stop\n    tag_2:\n      0x00\n      dup1\n      revert\n        /* \"contracts/dethDividendTracker.sol\":10162:10555  function distributeDividends() public override payable {\r... */\n    tag_3:\n      tag_28\n      tag_27\n      jump\t// in\n    tag_28:\n      stop\n        /* \"contracts/dethDividendTracker.sol\":3401:3501  function name() public view virtual override returns (string memory) {\r... */\n    tag_4:\n      callvalue\n      dup1\n      iszero\n      tag_29\n      jumpi\n      0x00\n      dup1\n      revert\n    tag_29:\n      pop\n      tag_30\n      tag_31\n      jump\t// in\n    tag_30:\n      mload(0x40)\n      dup1\n      dup1\n      0x20\n      add\n      dup3\n      dup2\n      sub\n      dup3\n      mstore\n      dup4\n      dup2\n      dup2\n      mload\n      dup2\n      mstore\n      0x20\n      add\n      swap2\n      pop\n      dup1\n      mload\n      swap1\n      0x20\n      add\n      swap1\n      dup1\n      dup4\n      dup4\n      0x00\n    tag_32:\n      dup4\n      dup2\n      lt\n      iszero\n      tag_34\n      jumpi\n      dup1\n      dup3\n      add\n      mload\n      dup2\n      dup5\n      add\n      mstore\n      0x20\n      dup2\n      add\n      swap1\n      pop\n      jump(tag_32)\n    tag_34:\n      pop\n      pop\n      pop\n      pop\n      swap1\n      pop\n      swap1\n      dup2\n      add\n      swap1\n      0x1f\n      and\n      dup1\n      iszero\n      tag_35\n      jumpi\n      dup1\n      dup3\n      sub\n      dup1\n      mload\n      0x01\n      dup4\n      0x20\n      sub\n      0x0100\n      exp\n      sub\n      not\n      and\n      dup2\n      mstore\n      0x20\n      add\n      swap2\n      pop\n    tag_35:\n      pop\n      swap3\n      pop\n      pop\n      pop\n      mload(0x40)\n      dup1\n      swap2\n      sub\n      swap1\n      return\n        /* \"contracts/dethDividendTracker.sol\":4315:4484  function approve(address spender, uint256 amount) public virtual override returns (bool) {\r... */\n    tag_5:\n      callvalue\n      dup1\n      iszero\n      tag_36\n      jumpi\n      0x00\n      dup1\n      revert\n    tag_36:\n      pop\n      tag_37\n      0x04\n      dup1\n      calldatasize\n      sub\n      0x40\n      dup2\n      lt\n      iszero\n      tag_38\n      jumpi\n      0x00\n      dup1\n      revert\n    tag_38:\n      dup2\n      add\n      swap1\n      dup1\n      dup1\n      calldataload\n      0xffffffffffffffffffffffffffffffffffffffff\n      and\n      swap1\n      0x20\n      add\n      swap1\n      swap3\n      swap2\n      swap1\n      dup1\n      calldataload\n      swap1\n      0x20\n      add\n      swap1\n      swap3\n      swap2\n      swap1\n      pop\n      pop\n      pop\n      tag_39\n      jump\t// in\n    tag_37:\n      mload(0x40)\n      dup1\n      dup3\n      iszero\n      iszero\n      dup2\n      mstore\n      0x20\n      add\n      swap2\n      pop\n      pop\n      mload(0x40)\n      dup1\n      swap2\n      sub\n      swap1\n      return\n        /* \"contracts/dethDividendTracker.sol\":3722:3830  function totalSupply() public view virtual override returns (uint256) {\r... */\n    tag_6:\n      callvalue\n      dup1\n      iszero\n      tag_40\n      jumpi\n      0x00\n      dup1\n      revert\n    tag_40:\n      pop\n      tag_41\n      tag_42\n      jump\t// in\n    tag_41:\n      mload(0x40)\n      dup1\n      dup3\n      dup2\n      mstore\n      0x20\n      add\n      swap2\n      pop\n      pop\n      mload(0x40)\n      dup1\n      swap2\n      sub\n      swap1\n      return\n        /* \"contracts/dethDividendTracker.sol\":4492:4847  function transferFrom(\r... */\n    tag_7:\n      callvalue\n      dup1\n      iszero\n      tag_43\n      jumpi\n      0x00\n      dup1\n      revert\n    tag_43:\n      pop\n      tag_44\n      0x04\n      dup1\n      calldatasize\n      sub\n      0x60\n      dup2\n      lt\n      iszero\n      tag_45\n      jumpi\n      0x00\n      dup1\n      revert\n    tag_45:\n      dup2\n      add\n      swap1\n      dup1\n      dup1\n      calldataload\n      0xffffffffffffffffffffffffffffffffffffffff\n      and\n      swap1\n      0x20\n      add\n      swap1\n      swap3\n      swap2\n      swap1\n      dup1\n      calldataload\n      0xffffffffffffffffffffffffffffffffffffffff\n      and\n      swap1\n      0x20\n      add\n      swap1\n      swap3\n      swap2\n      swap1\n      dup1\n      calldataload\n      swap1\n      0x20\n      add\n      swap1\n      swap3\n      swap2\n      swap1\n      pop\n      pop\n      pop\n      tag_46\n      jump\t// in\n    tag_44:\n      mload(0x40)\n      dup1\n      dup3\n      iszero\n      iszero\n      dup2\n      mstore\n      0x20\n      add\n      swap2\n      pop\n      pop\n      mload(0x40)\n      dup1\n      swap2\n      sub\n      swap1\n      return\n        /* \"contracts/dethDividendTracker.sol\":11737:11984  function accumulativeDividendOf(address _owner) public view override returns(uint256) {\r... */\n    tag_8:\n      callvalue\n      dup1\n      iszero\n      tag_47\n      jumpi\n      0x00\n      dup1\n      revert\n    tag_47:\n      pop\n      tag_48\n      0x04\n      dup1\n      calldatasize\n      sub\n      0x20\n      dup2\n      lt\n      iszero\n      tag_49\n      jumpi\n      0x00\n      dup1\n      revert\n    tag_49:\n      dup2\n      add\n      swap1\n      dup1\n      dup1\n      calldataload\n      0xffffffffffffffffffffffffffffffffffffffff\n      and\n      swap1\n      0x20\n      add\n      swap1\n      swap3\n      swap2\n      swap1\n      pop\n      pop\n      pop\n      tag_50\n      jump\t// in\n    tag_48:\n      mload(0x40)\n      dup1\n      dup3\n      dup2\n      mstore\n      0x20\n      add\n      swap2\n      pop\n      pop\n      mload(0x40)\n      dup1\n      swap2\n      sub\n      swap1\n      return\n        /* \"contracts/dethDividendTracker.sol\":3621:3714  function decimals() public view virtual override returns (uint8) {\r... */\n    tag_9:\n      callvalue\n      dup1\n      iszero\n      tag_51\n      jumpi\n      0x00\n      dup1\n      revert\n    tag_51:\n      pop\n      tag_52\n      tag_53\n      jump\t// in\n    tag_52:\n      mload(0x40)\n      dup1\n      dup3\n      0xff\n      and\n      dup2\n      mstore\n      0x20\n      add\n      swap2\n      pop\n      pop\n      mload(0x40)\n      dup1\n      swap2\n      sub\n      swap1\n      return\n        /* \"contracts/dethDividendTracker.sol\":4855:5073  function increaseAllowance(address spender, uint256 addedValue) public virtual returns (bool) {\r... */\n    tag_10:\n      callvalue\n      dup1\n      iszero\n      tag_54\n      jumpi\n      0x00\n      dup1\n      revert\n    tag_54:\n      pop\n      tag_55\n      0x04\n      dup1\n      calldatasize\n      sub\n      0x40\n      dup2\n      lt\n      iszero\n      tag_56\n      jumpi\n      0x00\n      dup1\n      revert\n    tag_56:\n      dup2\n      add\n      swap1\n      dup1\n      dup1\n      calldataload\n      0xffffffffffffffffffffffffffffffffffffffff\n      and\n      swap1\n      0x20\n      add\n      swap1\n      swap3\n      swap2\n      swap1\n      dup1\n      calldataload\n      swap1\n      0x20\n      add\n      swap1\n      swap3\n      swap2\n      swap1\n      pop\n      pop\n      pop\n      tag_57\n      jump\t// in\n    tag_55:\n      mload(0x40)\n      dup1\n      dup3\n      iszero\n      iszero\n      dup2\n      mstore\n      0x20\n      add\n      swap2\n      pop\n      pop\n      mload(0x40)\n      dup1\n      swap2\n      sub\n      swap1\n      return\n        /* \"contracts/dethDividendTracker.sol\":10561:10661  function withdrawDividend() public virtual override {\r... */\n    tag_11:\n      callvalue\n      dup1\n      iszero\n      tag_58\n      jumpi\n      0x00\n      dup1\n      revert\n    tag_58:\n      pop\n      tag_59\n      tag_60\n      jump\t// in\n    tag_59:\n      stop\n        /* \"contracts/dethDividendTracker.sol\":3838:3965  function balanceOf(address account) public view virtual override returns (uint256) {\r... */\n    tag_12:\n      callvalue\n      dup1\n      iszero\n      tag_61\n      jumpi\n      0x00\n      dup1\n      revert\n    tag_61:\n      pop\n      tag_62\n      0x04\n      dup1\n      calldatasize\n      sub\n      0x20\n      dup2\n      lt\n      iszero\n      tag_63\n      jumpi\n      0x00\n      dup1\n      revert\n    tag_63:\n      dup2\n      add\n      swap1\n      dup1\n      dup1\n      calldataload\n      0xffffffffffffffffffffffffffffffffffffffff\n      and\n      swap1\n      0x20\n      add\n      swap1\n      swap3\n      swap2\n      swap1\n      pop\n      pop\n      pop\n      tag_64\n      jump\t// in\n    tag_62:\n      mload(0x40)\n      dup1\n      dup3\n      dup2\n      mstore\n      0x20\n      add\n      swap2\n      pop\n      pop\n      mload(0x40)\n      dup1\n      swap2\n      sub\n      swap1\n      return\n        /* \"contracts/dethDividendTracker.sol\":9949:9989  uint256 public totalDividendsDistributed */\n    tag_13:\n      callvalue\n      dup1\n      iszero\n      tag_65\n      jumpi\n      0x00\n      dup1\n      revert\n    tag_65:\n      pop\n      tag_66\n      tag_67\n      jump\t// in\n    tag_66:\n      mload(0x40)\n      dup1\n      dup3\n      dup2\n      mstore\n      0x20\n      add\n      swap2\n      pop\n      pop\n      mload(0x40)\n      dup1\n      swap2\n      sub\n      swap1\n      return\n        /* \"contracts/dethDividendTracker.sol\":11298:11422  function dividendOf(address _owner) public view override returns(uint256) {\r... */\n    tag_14:\n      callvalue\n      dup1\n      iszero\n      tag_68\n      jumpi\n      0x00\n      dup1\n      revert\n    tag_68:\n      pop\n      tag_69\n      0x04\n      dup1\n      calldatasize\n      sub\n      0x20\n      dup2\n      lt\n      iszero\n      tag_70\n      jumpi\n      0x00\n      dup1\n      revert\n    tag_70:\n      dup2\n      add\n      swap1\n      dup1\n      dup1\n      calldataload\n      0xffffffffffffffffffffffffffffffffffffffff\n      and\n      swap1\n      0x20\n      add\n      swap1\n      swap3\n      swap2\n      swap1\n      pop\n      pop\n      pop\n      tag_71\n      jump\t// in\n    tag_69:\n      mload(0x40)\n      dup1\n      dup3\n      dup2\n      mstore\n      0x20\n      add\n      swap2\n      pop\n      pop\n      mload(0x40)\n      dup1\n      swap2\n      sub\n      swap1\n      return\n        /* \"contracts/dethDividendTracker.sol\":3509:3613  function symbol() public view virtual override returns (string memory) {\r... */\n    tag_15:\n      callvalue\n      dup1\n      iszero\n      tag_72\n      jumpi\n      0x00\n      dup1\n      revert\n    tag_72:\n      pop\n      tag_73\n      tag_74\n      jump\t// in\n    tag_73:\n      mload(0x40)\n      dup1\n      dup1\n      0x20\n      add\n      dup3\n      dup2\n      sub\n      dup3\n      mstore\n      dup4\n      dup2\n      dup2\n      mload\n      dup2\n      mstore\n      0x20\n      add\n      swap2\n      pop\n      dup1\n      mload\n      swap1\n      0x20\n      add\n      swap1\n      dup1\n      dup4\n      dup4\n      0x00\n    tag_75:\n      dup4\n      dup2\n      lt\n      iszero\n      tag_77\n      jumpi\n      dup1\n      dup3\n      add\n      mload\n      dup2\n      dup5\n      add\n      mstore\n      0x20\n      dup2\n      add\n      swap1\n      pop\n      jump(tag_75)\n    tag_77:\n      pop\n      pop\n      pop\n      pop\n      swap1\n      pop\n      swap1\n      dup2\n      add\n      swap1\n      0x1f\n      and\n      dup1\n      iszero\n      tag_78\n      jumpi\n      dup1\n      dup3\n      sub\n      dup1\n      mload\n      0x01\n      dup4\n      0x20\n      sub\n      0x0100\n      exp\n      sub\n      not\n      and\n      dup2\n      mstore\n      0x20\n      add\n      swap2\n      pop\n    tag_78:\n      pop\n      swap3\n      pop\n      pop\n      pop\n      mload(0x40)\n      dup1\n      swap2\n      sub\n      swap1\n      return\n        /* \"contracts/dethDividendTracker.sol\":5081:5350  function decreaseAllowance(address spender, uint256 subtractedValue) public virtual returns (bool) {\r... */\n    tag_16:\n      callvalue\n      dup1\n      iszero\n      tag_79\n      jumpi\n      0x00\n      dup1\n      revert\n    tag_79:\n      pop\n      tag_80\n      0x04\n      dup1\n      calldatasize\n      sub\n      0x40\n      dup2\n      lt\n      iszero\n      tag_81\n      jumpi\n      0x00\n      dup1\n      revert\n    tag_81:\n      dup2\n      add\n      swap1\n      dup1\n      dup1\n      calldataload\n      0xffffffffffffffffffffffffffffffffffffffff\n      and\n      swap1\n      0x20\n      add\n      swap1\n      swap3\n      swap2\n      swap1\n      dup1\n      calldataload\n      swap1\n      0x20\n      add\n      swap1\n      swap3\n      swap2\n      swap1\n      pop\n      pop\n      pop\n      tag_82\n      jump\t// in\n    tag_80:\n      mload(0x40)\n      dup1\n      dup3\n      iszero\n      iszero\n      dup2\n      mstore\n      0x20\n      add\n      swap2\n      pop\n      pop\n      mload(0x40)\n      dup1\n      swap2\n      sub\n      swap1\n      return\n        /* \"contracts/dethDividendTracker.sol\":11428:11596  function withdrawableDividendOf(address _owner) public view override returns(uint256) {\r... */\n    tag_17:\n      callvalue\n      dup1\n      iszero\n      tag_83\n      jumpi\n      0x00\n      dup1\n      revert\n    tag_83:\n      pop\n      tag_84\n      0x04\n      dup1\n      calldatasize\n      sub\n      0x20\n      dup2\n      lt\n      iszero\n      tag_85\n      jumpi\n      0x00\n      dup1\n      revert\n    tag_85:\n      dup2\n      add\n      swap1\n      dup1\n      dup1\n      calldataload\n      0xffffffffffffffffffffffffffffffffffffffff\n      and\n      swap1\n      0x20\n      add\n      swap1\n      swap3\n      swap2\n      swap1\n      pop\n      pop\n      pop\n      tag_86\n      jump\t// in\n    tag_84:\n      mload(0x40)\n      dup1\n      dup3\n      dup2\n      mstore\n      0x20\n      add\n      swap2\n      pop\n      pop\n      mload(0x40)\n      dup1\n      swap2\n      sub\n      swap1\n      return\n        /* \"contracts/dethDividendTracker.sol\":3973:4148  function transfer(address recipient, uint256 amount) public virtual override returns (bool) {\r... */\n    tag_18:\n      callvalue\n      dup1\n      iszero\n      tag_87\n      jumpi\n      0x00\n      dup1\n      revert\n    tag_87:\n      pop\n      tag_88\n      0x04\n      dup1\n      calldatasize\n      sub\n      0x40\n      dup2\n      lt\n      iszero\n      tag_89\n      jumpi\n      0x00\n      dup1\n      revert\n    tag_89:\n      dup2\n      add\n      swap1\n      dup1\n      dup1\n      calldataload\n      0xffffffffffffffffffffffffffffffffffffffff\n      and\n      swap1\n      0x20\n      add\n      swap1\n      swap3\n      swap2\n      swap1\n      dup1\n      calldataload\n      swap1\n      0x20\n      add\n      swap1\n      swap3\n      swap2\n      swap1\n      pop\n      pop\n      pop\n      tag_90\n      jump\t// in\n    tag_88:\n      mload(0x40)\n      dup1\n      dup3\n      iszero\n      iszero\n      dup2\n      mstore\n      0x20\n      add\n      swap2\n      pop\n      pop\n      mload(0x40)\n      dup1\n      swap2\n      sub\n      swap1\n      return\n        /* \"contracts/dethDividendTracker.sol\":11602:11731  function withdrawnDividendOf(address _owner) public view override returns(uint256) {\r... */\n    tag_19:\n      callvalue\n      dup1\n      iszero\n      tag_91\n      jumpi\n      0x00\n      dup1\n      revert\n    tag_91:\n      pop\n      tag_92\n      0x04\n      dup1\n      calldatasize\n      sub\n      0x20\n      dup2\n      lt\n      iszero\n      tag_93\n      jumpi\n      0x00\n      dup1\n      revert\n    tag_93:\n      dup2\n      add\n      swap1\n      dup1\n      dup1\n      calldataload\n      0xffffffffffffffffffffffffffffffffffffffff\n      and\n      swap1\n      0x20\n      add\n      swap1\n      swap3\n      swap2\n      swap1\n      pop\n      pop\n      pop\n      tag_94\n      jump\t// in\n    tag_92:\n      mload(0x40)\n      dup1\n      dup3\n      dup2\n      mstore\n      0x20\n      add\n      swap2\n      pop\n      pop\n      mload(0x40)\n      dup1\n      swap2\n      sub\n      swap1\n      return\n        /* \"contracts/dethDividendTracker.sol\":4156:4307  function allowance(address owner, address spender) public view virtual override returns (uint256) {\r... */\n    tag_20:\n      callvalue\n      dup1\n      iszero\n      tag_95\n      jumpi\n      0x00\n      dup1\n      revert\n    tag_95:\n      pop\n      tag_96\n      0x04\n      dup1\n      calldatasize\n      sub\n      0x40\n      dup2\n      lt\n      iszero\n      tag_97\n      jumpi\n      0x00\n      dup1\n      revert\n    tag_97:\n      dup2\n      add\n      swap1\n      dup1\n      dup1\n      calldataload\n      0xffffffffffffffffffffffffffffffffffffffff\n      and\n      swap1\n      0x20\n      add\n      swap1\n      swap3\n      swap2\n      swap1\n      dup1\n      calldataload\n      0xffffffffffffffffffffffffffffffffffffffff\n      and\n      swap1\n      0x20\n      add\n      swap1\n      swap3\n      swap2\n      swap1\n      pop\n      pop\n      pop\n      tag_98\n      jump\t// in\n    tag_96:\n      mload(0x40)\n      dup1\n      dup3\n      dup2\n      mstore\n      0x20\n      add\n      swap2\n      pop\n      pop\n      mload(0x40)\n      dup1\n      swap2\n      sub\n      swap1\n      return\n        /* \"contracts/dethDividendTracker.sol\":10162:10555  function distributeDividends() public override payable {\r... */\n    tag_27:\n        /* \"contracts/dethDividendTracker.sol\":10248:10249  0 */\n      0x00\n        /* \"contracts/dethDividendTracker.sol\":10232:10245  totalSupply() */\n      tag_100\n        /* \"contracts/dethDividendTracker.sol\":10232:10243  totalSupply */\n      tag_42\n        /* \"contracts/dethDividendTracker.sol\":10232:10245  totalSupply() */\n      jump\t// in\n    tag_100:\n        /* \"contracts/dethDividendTracker.sol\":10232:10249  totalSupply() > 0 */\n      gt\n        /* \"contracts/dethDividendTracker.sol\":10224:10250  require(totalSupply() > 0) */\n      tag_101\n      jumpi\n      0x00\n      dup1\n      revert\n    tag_101:\n        /* \"contracts/dethDividendTracker.sol\":10275:10276  0 */\n      0x00\n        /* \"contracts/dethDividendTracker.sol\":10263:10272  msg.value */\n      callvalue\n        /* \"contracts/dethDividendTracker.sol\":10263:10276  msg.value > 0 */\n      gt\n        /* \"contracts/dethDividendTracker.sol\":10259:10550  if (msg.value > 0) {\r... */\n      iszero\n      tag_102\n      jumpi\n        /* \"contracts/dethDividendTracker.sol\":10315:10406  magnifiedDividendPerShare.add(\r... */\n      tag_103\n        /* \"contracts/dethDividendTracker.sol\":10384:10397  totalSupply() */\n      tag_104\n        /* \"contracts/dethDividendTracker.sol\":10384:10395  totalSupply */\n      tag_42\n        /* \"contracts/dethDividendTracker.sol\":10384:10397  totalSupply() */\n      jump\t// in\n    tag_104:\n        /* \"contracts/dethDividendTracker.sol\":10355:10381  (msg.value).mul(magnitude) */\n      tag_105\n        /* \"contracts/dethDividendTracker.sol\":9756:9762  2**128 */\n      0x0100000000000000000000000000000000\n        /* \"contracts/dethDividendTracker.sol\":10356:10365  msg.value */\n      callvalue\n        /* \"contracts/dethDividendTracker.sol\":10355:10370  (msg.value).mul */\n      tag_106\n      swap1\n        /* \"contracts/dethDividendTracker.sol\":10355:10381  (msg.value).mul(magnitude) */\n      swap2\n      swap1\n      0xffffffff\n      and\n      jump\t// in\n    tag_105:\n        /* \"contracts/dethDividendTracker.sol\":10355:10397  (msg.value).mul(magnitude) / totalSupply() */\n      dup2\n      tag_107\n      jumpi\n      invalid\n    tag_107:\n      div\n        /* \"contracts/dethDividendTracker.sol\":10315:10340  magnifiedDividendPerShare */\n      sload(0x05)\n        /* \"contracts/dethDividendTracker.sol\":10315:10344  magnifiedDividendPerShare.add */\n      tag_108\n      swap1\n        /* \"contracts/dethDividendTracker.sol\":10315:10406  magnifiedDividendPerShare.add(\r... */\n      swap2\n      swap1\n      0xffffffff\n      and\n      jump\t// in\n    tag_103:\n        /* \"contracts/dethDividendTracker.sol\":10287:10312  magnifiedDividendPerShare */\n      0x05\n        /* \"contracts/dethDividendTracker.sol\":10287:10406  magnifiedDividendPerShare = magnifiedDividendPerShare.add(\r... */\n      dup2\n      swap1\n      sstore\n      pop\n        /* \"contracts/dethDividendTracker.sol\":10441:10451  msg.sender */\n      caller\n        /* \"contracts/dethDividendTracker.sol\":10420:10463  DividendsDistributed(msg.sender, msg.value) */\n      0xffffffffffffffffffffffffffffffffffffffff\n      and\n      0xa493a9229478c3fcd73f66d2cdeb7f94fd0f341da924d1054236d78454116511\n        /* \"contracts/dethDividendTracker.sol\":10453:10462  msg.value */\n      callvalue\n        /* \"contracts/dethDividendTracker.sol\":10420:10463  DividendsDistributed(msg.sender, msg.value) */\n      mload(0x40)\n      dup1\n      dup3\n      dup2\n      mstore\n      0x20\n      add\n      swap2\n      pop\n      pop\n      mload(0x40)\n      dup1\n      swap2\n      sub\n      swap1\n      log2\n        /* \"contracts/dethDividendTracker.sol\":10502:10542  totalDividendsDistributed.add(msg.value) */\n      tag_109\n        /* \"contracts/dethDividendTracker.sol\":10532:10541  msg.value */\n      callvalue\n        /* \"contracts/dethDividendTracker.sol\":10502:10527  totalDividendsDistributed */\n      sload(0x08)\n        /* \"contracts/dethDividendTracker.sol\":10502:10531  totalDividendsDistributed.add */\n      tag_108\n      swap1\n        /* \"contracts/dethDividendTracker.sol\":10502:10542  totalDividendsDistributed.add(msg.value) */\n      swap2\n      swap1\n      0xffffffff\n      and\n      jump\t// in\n    tag_109:\n        /* \"contracts/dethDividendTracker.sol\":10474:10499  totalDividendsDistributed */\n      0x08\n        /* \"contracts/dethDividendTracker.sol\":10474:10542  totalDividendsDistributed = totalDividendsDistributed.add(msg.value) */\n      dup2\n      swap1\n      sstore\n      pop\n        /* \"contracts/dethDividendTracker.sol\":10259:10550  if (msg.value > 0) {\r... */\n    tag_102:\n        /* \"contracts/dethDividendTracker.sol\":10162:10555  function distributeDividends() public override payable {\r... */\n      jump\t// out\n        /* \"contracts/dethDividendTracker.sol\":3401:3501  function name() public view virtual override returns (string memory) {\r... */\n    tag_31:\n        /* \"contracts/dethDividendTracker.sol\":3455:3468  string memory */\n      0x60\n        /* \"contracts/dethDividendTracker.sol\":3488:3493  _name */\n      0x03\n        /* \"contracts/dethDividendTracker.sol\":3481:3493  return _name */\n      dup1\n      sload\n      0x01\n      dup2\n      0x01\n      and\n      iszero\n      0x0100\n      mul\n      sub\n      and\n      0x02\n      swap1\n      div\n      dup1\n      0x1f\n      add\n      0x20\n      dup1\n      swap2\n      div\n      mul\n      0x20\n      add\n      mload(0x40)\n      swap1\n      dup2\n      add\n      0x40\n      mstore\n      dup1\n      swap3\n      swap2\n      swap1\n      dup2\n      dup2\n      mstore\n      0x20\n      add\n      dup3\n      dup1\n      sload\n      0x01\n      dup2\n      0x01\n      and\n      iszero\n      0x0100\n      mul\n      sub\n      and\n      0x02\n      swap1\n      div\n      dup1\n      iszero\n      tag_111\n      jumpi\n      dup1\n      0x1f\n      lt\n      tag_112\n      jumpi\n      0x0100\n      dup1\n      dup4\n      sload\n      div\n      mul\n      dup4\n      mstore\n      swap2\n      0x20\n      add\n      swap2\n      jump(tag_111)\n    tag_112:\n      dup3\n      add\n      swap2\n      swap1\n      0x00\n      mstore\n      keccak256(0x00, 0x20)\n      swap1\n    tag_113:\n      dup2\n      sload\n      dup2\n      mstore\n      swap1\n      0x01\n      add\n      swap1\n      0x20\n      add\n      dup1\n      dup4\n      gt\n      tag_113\n      jumpi\n      dup3\n      swap1\n      sub\n      0x1f\n      and\n      dup3\n      add\n      swap2\n    tag_111:\n      pop\n      pop\n      pop\n      pop\n      pop\n      swap1\n      pop\n        /* \"contracts/dethDividendTracker.sol\":3401:3501  function name() public view virtual override returns (string memory) {\r... */\n      swap1\n      jump\t// out\n        /* \"contracts/dethDividendTracker.sol\":4315:4484  function approve(address spender, uint256 amount) public virtual override returns (bool) {\r... */\n    tag_39:\n        /* \"contracts/dethDividendTracker.sol\":4398:4402  bool */\n      0x00\n        /* \"contracts/dethDividendTracker.sol\":4415:4454  _approve(_msgSender(), spender, amount) */\n      tag_115\n        /* \"contracts/dethDividendTracker.sol\":4424:4436  _msgSender() */\n      tag_116\n        /* \"contracts/dethDividendTracker.sol\":4424:4434  _msgSender */\n      tag_117\n        /* \"contracts/dethDividendTracker.sol\":4424:4436  _msgSender() */\n      jump\t// in\n    tag_116:\n        /* \"contracts/dethDividendTracker.sol\":4438:4445  spender */\n      dup5\n        /* \"contracts/dethDividendTracker.sol\":4447:4453  amount */\n      dup5\n        /* \"contracts/dethDividendTracker.sol\":4415:4423  _approve */\n      tag_118\n        /* \"contracts/dethDividendTracker.sol\":4415:4454  _approve(_msgSender(), spender, amount) */\n      jump\t// in\n    tag_115:\n        /* \"contracts/dethDividendTracker.sol\":4472:4476  true */\n      0x01\n        /* \"contracts/dethDividendTracker.sol\":4465:4476  return true */\n      swap1\n      pop\n        /* \"contracts/dethDividendTracker.sol\":4315:4484  function approve(address spender, uint256 amount) public virtual override returns (bool) {\r... */\n      swap3\n      swap2\n      pop\n      pop\n      jump\t// out\n        /* \"contracts/dethDividendTracker.sol\":3722:3830  function totalSupply() public view virtual override returns (uint256) {\r... */\n    tag_42:\n        /* \"contracts/dethDividendTracker.sol\":3783:3790  uint256 */\n      0x00\n        /* \"contracts/dethDividendTracker.sol\":3810:3822  _totalSupply */\n      sload(0x02)\n        /* \"contracts/dethDividendTracker.sol\":3803:3822  return _totalSupply */\n      swap1\n      pop\n        /* \"contracts/dethDividendTracker.sol\":3722:3830  function totalSupply() public view virtual override returns (uint256) {\r... */\n      swap1\n      jump\t// out\n        /* \"contracts/dethDividendTracker.sol\":4492:4847  function transferFrom(\r... */\n    tag_46:\n        /* \"contracts/dethDividendTracker.sol\":4632:4636  bool */\n      0x00\n        /* \"contracts/dethDividendTracker.sol\":4649:4685  _transfer(sender, recipient, amount) */\n      tag_121\n        /* \"contracts/dethDividendTracker.sol\":4659:4665  sender */\n      dup5\n        /* \"contracts/dethDividendTracker.sol\":4667:4676  recipient */\n      dup5\n        /* \"contracts/dethDividendTracker.sol\":4678:4684  amount */\n      dup5\n        /* \"contracts/dethDividendTracker.sol\":4649:4658  _transfer */\n      tag_122\n        /* \"contracts/dethDividendTracker.sol\":4649:4685  _transfer(sender, recipient, amount) */\n      jump\t// in\n    tag_121:\n        /* \"contracts/dethDividendTracker.sol\":4696:4817  _approve(sender, _msgSender(), _allowances[sender][_msgSender()].sub(amount, \"ERC20: transfer amount exceeds allowance\")) */\n      tag_123\n        /* \"contracts/dethDividendTracker.sol\":4705:4711  sender */\n      dup5\n        /* \"contracts/dethDividendTracker.sol\":4713:4725  _msgSender() */\n      tag_124\n        /* \"contracts/dethDividendTracker.sol\":4713:4723  _msgSender */\n      tag_117\n        /* \"contracts/dethDividendTracker.sol\":4713:4725  _msgSender() */\n      jump\t// in\n    tag_124:\n        /* \"contracts/dethDividendTracker.sol\":4727:4816  _allowances[sender][_msgSender()].sub(amount, \"ERC20: transfer amount exceeds allowance\") */\n      tag_125\n        /* \"contracts/dethDividendTracker.sol\":4765:4771  amount */\n      dup6\n        /* \"contracts/dethDividendTracker.sol\":4727:4816  _allowances[sender][_msgSender()].sub(amount, \"ERC20: transfer amount exceeds allowance\") */\n      mload(0x40)\n      dup1\n      0x60\n      add\n      0x40\n      mstore\n      dup1\n      0x28\n      dup2\n      mstore\n      0x20\n      add\n      data_974d1b4421da69cc60b481194f0dad36a5bb4e23da810da7a7fb30cdba178330\n      0x28\n      swap2\n      codecopy\n        /* \"contracts/dethDividendTracker.sol\":4727:4738  _allowances */\n      0x01\n        /* \"contracts/dethDividendTracker.sol\":4727:4746  _allowances[sender] */\n      0x00\n        /* \"contracts/dethDividendTracker.sol\":4739:4745  sender */\n      dup12\n        /* \"contracts/dethDividendTracker.sol\":4727:4746  _allowances[sender] */\n      0xffffffffffffffffffffffffffffffffffffffff\n      and\n      0xffffffffffffffffffffffffffffffffffffffff\n      and\n      dup2\n      mstore\n      0x20\n      add\n      swap1\n      dup2\n      mstore\n      0x20\n      add\n      0x00\n      keccak256\n        /* \"contracts/dethDividendTracker.sol\":4727:4760  _allowances[sender][_msgSender()] */\n      0x00\n        /* \"contracts/dethDividendTracker.sol\":4747:4759  _msgSender() */\n      tag_126\n        /* \"contracts/dethDividendTracker.sol\":4747:4757  _msgSender */\n      tag_117\n        /* \"contracts/dethDividendTracker.sol\":4747:4759  _msgSender() */\n      jump\t// in\n    tag_126:\n        /* \"contracts/dethDividendTracker.sol\":4727:4760  _allowances[sender][_msgSender()] */\n      0xffffffffffffffffffffffffffffffffffffffff\n      and\n      0xffffffffffffffffffffffffffffffffffffffff\n      and\n      dup2\n      mstore\n      0x20\n      add\n      swap1\n      dup2\n      mstore\n      0x20\n      add\n      0x00\n      keccak256\n      sload\n        /* \"contracts/dethDividendTracker.sol\":4727:4764  _allowances[sender][_msgSender()].sub */\n      tag_127\n      swap1\n        /* \"contracts/dethDividendTracker.sol\":4727:4816  _allowances[sender][_msgSender()].sub(amount, \"ERC20: transfer amount exceeds allowance\") */\n      swap3\n      swap2\n      swap1\n      0xffffffff\n      and\n      jump\t// in\n    tag_125:\n        /* \"contracts/dethDividendTracker.sol\":4696:4704  _approve */\n      tag_118\n        /* \"contracts/dethDividendTracker.sol\":4696:4817  _approve(sender, _msgSender(), _allowances[sender][_msgSender()].sub(amount, \"ERC20: transfer amount exceeds allowance\")) */\n      jump\t// in\n    tag_123:\n        /* \"contracts/dethDividendTracker.sol\":4835:4839  true */\n      0x01\n        /* \"contracts/dethDividendTracker.sol\":4828:4839  return true */\n      swap1\n      pop\n        /* \"contracts/dethDividendTracker.sol\":4492:4847  function transferFrom(\r... */\n      swap4\n      swap3\n      pop\n      pop\n      pop\n      jump\t// out\n        /* \"contracts/dethDividendTracker.sol\":11737:11984  function accumulativeDividendOf(address _owner) public view override returns(uint256) {\r... */\n    tag_50:\n        /* \"contracts/dethDividendTracker.sol\":11814:11821  uint256 */\n      0x00\n        /* \"contracts/dethDividendTracker.sol\":9756:9762  2**128 */\n      0x0100000000000000000000000000000000\n        /* \"contracts/dethDividendTracker.sol\":11837:11966  magnifiedDividendPerShare.mul(balanceOf(_owner)).toInt256Safe()\r... */\n      tag_129\n        /* \"contracts/dethDividendTracker.sol\":11837:11950  magnifiedDividendPerShare.mul(balanceOf(_owner)).toInt256Safe()\r... */\n      tag_130\n        /* \"contracts/dethDividendTracker.sol\":11913:11941  magnifiedDividendCorrections */\n      0x06\n        /* \"contracts/dethDividendTracker.sol\":11913:11949  magnifiedDividendCorrections[_owner] */\n      0x00\n        /* \"contracts/dethDividendTracker.sol\":11942:11948  _owner */\n      dup7\n        /* \"contracts/dethDividendTracker.sol\":11913:11949  magnifiedDividendCorrections[_owner] */\n      0xffffffffffffffffffffffffffffffffffffffff\n      and\n      0xffffffffffffffffffffffffffffffffffffffff\n      and\n      dup2\n      mstore\n      0x20\n      add\n      swap1\n      dup2\n      mstore\n      0x20\n      add\n      0x00\n      keccak256\n      sload\n        /* \"contracts/dethDividendTracker.sol\":11837:11900  magnifiedDividendPerShare.mul(balanceOf(_owner)).toInt256Safe() */\n      tag_131\n        /* \"contracts/dethDividendTracker.sol\":11837:11885  magnifiedDividendPerShare.mul(balanceOf(_owner)) */\n      tag_132\n        /* \"contracts/dethDividendTracker.sol\":11867:11884  balanceOf(_owner) */\n      tag_133\n        /* \"contracts/dethDividendTracker.sol\":11877:11883  _owner */\n      dup9\n        /* \"contracts/dethDividendTracker.sol\":11867:11876  balanceOf */\n      tag_64\n        /* \"contracts/dethDividendTracker.sol\":11867:11884  balanceOf(_owner) */\n      jump\t// in\n    tag_133:\n        /* \"contracts/dethDividendTracker.sol\":11837:11862  magnifiedDividendPerShare */\n      sload(0x05)\n        /* \"contracts/dethDividendTracker.sol\":11837:11866  magnifiedDividendPerShare.mul */\n      tag_106\n      swap1\n        /* \"contracts/dethDividendTracker.sol\":11837:11885  magnifiedDividendPerShare.mul(balanceOf(_owner)) */\n      swap2\n      swap1\n      0xffffffff\n      and\n      jump\t// in\n    tag_132:\n        /* \"contracts/dethDividendTracker.sol\":11837:11898  magnifiedDividendPerShare.mul(balanceOf(_owner)).toInt256Safe */\n      tag_134\n        /* \"contracts/dethDividendTracker.sol\":11837:11900  magnifiedDividendPerShare.mul(balanceOf(_owner)).toInt256Safe() */\n      jump\t// in\n    tag_131:\n        /* \"contracts/dethDividendTracker.sol\":11837:11912  magnifiedDividendPerShare.mul(balanceOf(_owner)).toInt256Safe()\r... */\n      tag_135\n      swap1\n        /* \"contracts/dethDividendTracker.sol\":11837:11950  magnifiedDividendPerShare.mul(balanceOf(_owner)).toInt256Safe()\r... */\n      swap2\n      swap1\n      0xffffffff\n      and\n      jump\t// in\n    tag_130:\n        /* \"contracts/dethDividendTracker.sol\":11837:11964  magnifiedDividendPerShare.mul(balanceOf(_owner)).toInt256Safe()\r... */\n      tag_136\n        /* \"contracts/dethDividendTracker.sol\":11837:11966  magnifiedDividendPerShare.mul(balanceOf(_owner)).toInt256Safe()\r... */\n      jump\t// in\n    tag_129:\n        /* \"contracts/dethDividendTracker.sol\":11837:11978  magnifiedDividendPerShare.mul(balanceOf(_owner)).toInt256Safe()\r... */\n      dup2\n      tag_137\n      jumpi\n      invalid\n    tag_137:\n      div\n        /* \"contracts/dethDividendTracker.sol\":11830:11978  return magnifiedDividendPerShare.mul(balanceOf(_owner)).toInt256Safe()\r... */\n      swap1\n      pop\n        /* \"contracts/dethDividendTracker.sol\":11737:11984  function accumulativeDividendOf(address _owner) public view override returns(uint256) {\r... */\n      swap2\n      swap1\n      pop\n      jump\t// out\n        /* \"contracts/dethDividendTracker.sol\":3621:3714  function decimals() public view virtual override returns (uint8) {\r... */\n    tag_53:\n        /* \"contracts/dethDividendTracker.sol\":3679:3684  uint8 */\n      0x00\n        /* \"contracts/dethDividendTracker.sol\":3704:3706  18 */\n      0x12\n        /* \"contracts/dethDividendTracker.sol\":3697:3706  return 18 */\n      swap1\n      pop\n        /* \"contracts/dethDividendTracker.sol\":3621:3714  function decimals() public view virtual override returns (uint8) {\r... */\n      swap1\n      jump\t// out\n        /* \"contracts/dethDividendTracker.sol\":4855:5073  function increaseAllowance(address spender, uint256 addedValue) public virtual returns (bool) {\r... */\n    tag_57:\n        /* \"contracts/dethDividendTracker.sol\":4943:4947  bool */\n      0x00\n        /* \"contracts/dethDividendTracker.sol\":4960:5043  _approve(_msgSender(), spender, _allowances[_msgSender()][spender].add(addedValue)) */\n      tag_140\n        /* \"contracts/dethDividendTracker.sol\":4969:4981  _msgSender() */\n      tag_141\n        /* \"contracts/dethDividendTracker.sol\":4969:4979  _msgSender */\n      tag_117\n        /* \"contracts/dethDividendTracker.sol\":4969:4981  _msgSender() */\n      jump\t// in\n    tag_141:\n        /* \"contracts/dethDividendTracker.sol\":4983:4990  spender */\n      dup5\n        /* \"contracts/dethDividendTracker.sol\":4992:5042  _allowances[_msgSender()][spender].add(addedValue) */\n      tag_142\n        /* \"contracts/dethDividendTracker.sol\":5031:5041  addedValue */\n      dup6\n        /* \"contracts/dethDividendTracker.sol\":4992:5003  _allowances */\n      0x01\n        /* \"contracts/dethDividendTracker.sol\":4992:5017  _allowances[_msgSender()] */\n      0x00\n        /* \"contracts/dethDividendTracker.sol\":5004:5016  _msgSender() */\n      tag_143\n        /* \"contracts/dethDividendTracker.sol\":5004:5014  _msgSender */\n      tag_117\n        /* \"contracts/dethDividendTracker.sol\":5004:5016  _msgSender() */\n      jump\t// in\n    tag_143:\n        /* \"contracts/dethDividendTracker.sol\":4992:5017  _allowances[_msgSender()] */\n      0xffffffffffffffffffffffffffffffffffffffff\n      and\n      0xffffffffffffffffffffffffffffffffffffffff\n      and\n      dup2\n      mstore\n      0x20\n      add\n      swap1\n      dup2\n      mstore\n      0x20\n      add\n      0x00\n      keccak256\n        /* \"contracts/dethDividendTracker.sol\":4992:5026  _allowances[_msgSender()][spender] */\n      0x00\n        /* \"contracts/dethDividendTracker.sol\":5018:5025  spender */\n      dup10\n        /* \"contracts/dethDividendTracker.sol\":4992:5026  _allowances[_msgSender()][spender] */\n      0xffffffffffffffffffffffffffffffffffffffff\n      and\n      0xffffffffffffffffffffffffffffffffffffffff\n      and\n      dup2\n      mstore\n      0x20\n      add\n      swap1\n      dup2\n      mstore\n      0x20\n      add\n      0x00\n      keccak256\n      sload\n        /* \"contracts/dethDividendTracker.sol\":4992:5030  _allowances[_msgSender()][spender].add */\n      tag_108\n      swap1\n        /* \"contracts/dethDividendTracker.sol\":4992:5042  _allowances[_msgSender()][spender].add(addedValue) */\n      swap2\n      swap1\n      0xffffffff\n      and\n      jump\t// in\n    tag_142:\n        /* \"contracts/dethDividendTracker.sol\":4960:4968  _approve */\n      tag_118\n        /* \"contracts/dethDividendTracker.sol\":4960:5043  _approve(_msgSender(), spender, _allowances[_msgSender()][spender].add(addedValue)) */\n      jump\t// in\n    tag_140:\n        /* \"contracts/dethDividendTracker.sol\":5061:5065  true */\n      0x01\n        /* \"contracts/dethDividendTracker.sol\":5054:5065  return true */\n      swap1\n      pop\n        /* \"contracts/dethDividendTracker.sol\":4855:5073  function increaseAllowance(address spender, uint256 addedValue) public virtual returns (bool) {\r... */\n      swap3\n      swap2\n      pop\n      pop\n      jump\t// out\n        /* \"contracts/dethDividendTracker.sol\":10561:10661  function withdrawDividend() public virtual override {\r... */\n    tag_60:\n        /* \"contracts/dethDividendTracker.sol\":10620:10655  _withdrawDividendOfUser(msg.sender) */\n      tag_145\n        /* \"contracts/dethDividendTracker.sol\":10644:10654  msg.sender */\n      caller\n        /* \"contracts/dethDividendTracker.sol\":10620:10643  _withdrawDividendOfUser */\n      tag_146\n        /* \"contracts/dethDividendTracker.sol\":10620:10655  _withdrawDividendOfUser(msg.sender) */\n      jump\t// in\n    tag_145:\n      pop\n        /* \"contracts/dethDividendTracker.sol\":10561:10661  function withdrawDividend() public virtual override {\r... */\n      jump\t// out\n        /* \"contracts/dethDividendTracker.sol\":3838:3965  function balanceOf(address account) public view virtual override returns (uint256) {\r... */\n    tag_64:\n        /* \"contracts/dethDividendTracker.sol\":3912:3919  uint256 */\n      0x00\n        /* \"contracts/dethDividendTracker.sol\":3939:3948  _balances */\n      dup1\n        /* \"contracts/dethDividendTracker.sol\":3939:3957  _balances[account] */\n      0x00\n        /* \"contracts/dethDividendTracker.sol\":3949:3956  account */\n      dup4\n        /* \"contracts/dethDividendTracker.sol\":3939:3957  _balances[account] */\n      0xffffffffffffffffffffffffffffffffffffffff\n      and\n      0xffffffffffffffffffffffffffffffffffffffff\n      and\n      dup2\n      mstore\n      0x20\n      add\n      swap1\n      dup2\n      mstore\n      0x20\n      add\n      0x00\n      keccak256\n      sload\n        /* \"contracts/dethDividendTracker.sol\":3932:3957  return _balances[account] */\n      swap1\n      pop\n        /* \"contracts/dethDividendTracker.sol\":3838:3965  function balanceOf(address account) public view virtual override returns (uint256) {\r... */\n      swap2\n      swap1\n      pop\n      jump\t// out\n        /* \"contracts/dethDividendTracker.sol\":9949:9989  uint256 public totalDividendsDistributed */\n    tag_67:\n      sload(0x08)\n      dup2\n      jump\t// out\n        /* \"contracts/dethDividendTracker.sol\":11298:11422  function dividendOf(address _owner) public view override returns(uint256) {\r... */\n    tag_71:\n        /* \"contracts/dethDividendTracker.sol\":11363:11370  uint256 */\n      0x00\n        /* \"contracts/dethDividendTracker.sol\":11386:11416  withdrawableDividendOf(_owner) */\n      tag_149\n        /* \"contracts/dethDividendTracker.sol\":11409:11415  _owner */\n      dup3\n        /* \"contracts/dethDividendTracker.sol\":11386:11408  withdrawableDividendOf */\n      tag_86\n        /* \"contracts/dethDividendTracker.sol\":11386:11416  withdrawableDividendOf(_owner) */\n      jump\t// in\n    tag_149:\n        /* \"contracts/dethDividendTracker.sol\":11379:11416  return withdrawableDividendOf(_owner) */\n      swap1\n      pop\n        /* \"contracts/dethDividendTracker.sol\":11298:11422  function dividendOf(address _owner) public view override returns(uint256) {\r... */\n      swap2\n      swap1\n      pop\n      jump\t// out\n        /* \"contracts/dethDividendTracker.sol\":3509:3613  function symbol() public view virtual override returns (string memory) {\r... */\n    tag_74:\n        /* \"contracts/dethDividendTracker.sol\":3565:3578  string memory */\n      0x60\n        /* \"contracts/dethDividendTracker.sol\":3598:3605  _symbol */\n      0x04\n        /* \"contracts/dethDividendTracker.sol\":3591:3605  return _symbol */\n      dup1\n      sload\n      0x01\n      dup2\n      0x01\n      and\n      iszero\n      0x0100\n      mul\n      sub\n      and\n      0x02\n      swap1\n      div\n      dup1\n      0x1f\n      add\n      0x20\n      dup1\n      swap2\n      div\n      mul\n      0x20\n      add\n      mload(0x40)\n      swap1\n      dup2\n      add\n      0x40\n      mstore\n      dup1\n      swap3\n      swap2\n      swap1\n      dup2\n      dup2\n      mstore\n      0x20\n      add\n      dup3\n      dup1\n      sload\n      0x01\n      dup2\n      0x01\n      and\n      iszero\n      0x0100\n      mul\n      sub\n      and\n      0x02\n      swap1\n      div\n      dup1\n      iszero\n      tag_151\n      jumpi\n      dup1\n      0x1f\n      lt\n      tag_152\n      jumpi\n      0x0100\n      dup1\n      dup4\n      sload\n      div\n      mul\n      dup4\n      mstore\n      swap2\n      0x20\n      add\n      swap2\n      jump(tag_151)\n    tag_152:\n      dup3\n      add\n      swap2\n      swap1\n      0x00\n      mstore\n      keccak256(0x00, 0x20)\n      swap1\n    tag_153:\n      dup2\n      sload\n      dup2\n      mstore\n      swap1\n      0x01\n      add\n      swap1\n      0x20\n      add\n      dup1\n      dup4\n      gt\n      tag_153\n      jumpi\n      dup3\n      swap1\n      sub\n      0x1f\n      and\n      dup3\n      add\n      swap2\n    tag_151:\n      pop\n      pop\n      pop\n      pop\n      pop\n      swap1\n      pop\n        /* \"contracts/dethDividendTracker.sol\":3509:3613  function symbol() public view virtual override returns (string memory) {\r... */\n      swap1\n      jump\t// out\n        /* \"contracts/dethDividendTracker.sol\":5081:5350  function decreaseAllowance(address spender, uint256 subtractedValue) public virtual returns (bool) {\r... */\n    tag_82:\n        /* \"contracts/dethDividendTracker.sol\":5174:5178  bool */\n      0x00\n        /* \"contracts/dethDividendTracker.sol\":5191:5320  _approve(_msgSender(), spender, _allowances[_msgSender()][spender].sub(subtractedValue, \"ERC20: decreased allowance below zero\")) */\n      tag_155\n        /* \"contracts/dethDividendTracker.sol\":5200:5212  _msgSender() */\n      tag_156\n        /* \"contracts/dethDividendTracker.sol\":5200:5210  _msgSender */\n      tag_117\n        /* \"contracts/dethDividendTracker.sol\":5200:5212  _msgSender() */\n      jump\t// in\n    tag_156:\n        /* \"contracts/dethDividendTracker.sol\":5214:5221  spender */\n      dup5\n        /* \"contracts/dethDividendTracker.sol\":5223:5319  _allowances[_msgSender()][spender].sub(subtractedValue, \"ERC20: decreased allowance below zero\") */\n      tag_157\n        /* \"contracts/dethDividendTracker.sol\":5262:5277  subtractedValue */\n      dup6\n        /* \"contracts/dethDividendTracker.sol\":5223:5319  _allowances[_msgSender()][spender].sub(subtractedValue, \"ERC20: decreased allowance below zero\") */\n      mload(0x40)\n      dup1\n      0x60\n      add\n      0x40\n      mstore\n      dup1\n      0x25\n      dup2\n      mstore\n      0x20\n      add\n      data_f8b476f7d28209d77d4a4ac1fe36b9f8259aa1bb6bddfa6e89de7e51615cf8a8\n      0x25\n      swap2\n      codecopy\n        /* \"contracts/dethDividendTracker.sol\":5223:5234  _allowances */\n      0x01\n        /* \"contracts/dethDividendTracker.sol\":5223:5248  _allowances[_msgSender()] */\n      0x00\n        /* \"contracts/dethDividendTracker.sol\":5235:5247  _msgSender() */\n      tag_158\n        /* \"contracts/dethDividendTracker.sol\":5235:5245  _msgSender */\n      tag_117\n        /* \"contracts/dethDividendTracker.sol\":5235:5247  _msgSender() */\n      jump\t// in\n    tag_158:\n        /* \"contracts/dethDividendTracker.sol\":5223:5248  _allowances[_msgSender()] */\n      0xffffffffffffffffffffffffffffffffffffffff\n      and\n      0xffffffffffffffffffffffffffffffffffffffff\n      and\n      dup2\n      mstore\n      0x20\n      add\n      swap1\n      dup2\n      mstore\n      0x20\n      add\n      0x00\n      keccak256\n        /* \"contracts/dethDividendTracker.sol\":5223:5257  _allowances[_msgSender()][spender] */\n      0x00\n        /* \"contracts/dethDividendTracker.sol\":5249:5256  spender */\n      dup11\n        /* \"contracts/dethDividendTracker.sol\":5223:5257  _allowances[_msgSender()][spender] */\n      0xffffffffffffffffffffffffffffffffffffffff\n      and\n      0xffffffffffffffffffffffffffffffffffffffff\n      and\n      dup2\n      mstore\n      0x20\n      add\n      swap1\n      dup2\n      mstore\n      0x20\n      add\n      0x00\n      keccak256\n      sload\n        /* \"contracts/dethDividendTracker.sol\":5223:5261  _allowances[_msgSender()][spender].sub */\n      tag_127\n      swap1\n        /* \"contracts/dethDividendTracker.sol\":5223:5319  _allowances[_msgSender()][spender].sub(subtractedValue, \"ERC20: decreased allowance below zero\") */\n      swap3\n      swap2\n      swap1\n      0xffffffff\n      and\n      jump\t// in\n    tag_157:\n        /* \"contracts/dethDividendTracker.sol\":5191:5199  _approve */\n      tag_118\n        /* \"contracts/dethDividendTracker.sol\":5191:5320  _approve(_msgSender(), spender, _allowances[_msgSender()][spender].sub(subtractedValue, \"ERC20: decreased allowance below zero\")) */\n      jump\t// in\n    tag_155:\n        /* \"contracts/dethDividendTracker.sol\":5338:5342  true */\n      0x01\n        /* \"contracts/dethDividendTracker.sol\":5331:5342  return true */\n      swap1\n      pop\n        /* \"contracts/dethDividendTracker.sol\":5081:5350  function decreaseAllowance(address spender, uint256 subtractedValue) public virtual returns (bool) {\r... */\n      swap3\n      swap2\n      pop\n      pop\n      jump\t// out\n        /* \"contracts/dethDividendTracker.sol\":11428:11596  function withdrawableDividendOf(address _owner) public view override returns(uint256) {\r... */\n    tag_86:\n        /* \"contracts/dethDividendTracker.sol\":11505:11512  uint256 */\n      0x00\n        /* \"contracts/dethDividendTracker.sol\":11528:11590  accumulativeDividendOf(_owner).sub(withdrawnDividends[_owner]) */\n      tag_160\n        /* \"contracts/dethDividendTracker.sol\":11563:11581  withdrawnDividends */\n      0x07\n        /* \"contracts/dethDividendTracker.sol\":11563:11589  withdrawnDividends[_owner] */\n      0x00\n        /* \"contracts/dethDividendTracker.sol\":11582:11588  _owner */\n      dup5\n        /* \"contracts/dethDividendTracker.sol\":11563:11589  withdrawnDividends[_owner] */\n      0xffffffffffffffffffffffffffffffffffffffff\n      and\n      0xffffffffffffffffffffffffffffffffffffffff\n      and\n      dup2\n      mstore\n      0x20\n      add\n      swap1\n      dup2\n      mstore\n      0x20\n      add\n      0x00\n      keccak256\n      sload\n        /* \"contracts/dethDividendTracker.sol\":11528:11558  accumulativeDividendOf(_owner) */\n      tag_161\n        /* \"contracts/dethDividendTracker.sol\":11551:11557  _owner */\n      dup5\n        /* \"contracts/dethDividendTracker.sol\":11528:11550  accumulativeDividendOf */\n      tag_50\n        /* \"contracts/dethDividendTracker.sol\":11528:11558  accumulativeDividendOf(_owner) */\n      jump\t// in\n    tag_161:\n        /* \"contracts/dethDividendTracker.sol\":11528:11562  accumulativeDividendOf(_owner).sub */\n      tag_162\n      swap1\n        /* \"contracts/dethDividendTracker.sol\":11528:11590  accumulativeDividendOf(_owner).sub(withdrawnDividends[_owner]) */\n      swap2\n      swap1\n      0xffffffff\n      and\n      jump\t// in\n    tag_160:\n        /* \"contracts/dethDividendTracker.sol\":11521:11590  return accumulativeDividendOf(_owner).sub(withdrawnDividends[_owner]) */\n      swap1\n      pop\n        /* \"contracts/dethDividendTracker.sol\":11428:11596  function withdrawableDividendOf(address _owner) public view override returns(uint256) {\r... */\n      swap2\n      swap1\n      pop\n      jump\t// out\n        /* \"contracts/dethDividendTracker.sol\":3973:4148  function transfer(address recipient, uint256 amount) public virtual override returns (bool) {\r... */\n    tag_90:\n        /* \"contracts/dethDividendTracker.sol\":4059:4063  bool */\n      0x00\n        /* \"contracts/dethDividendTracker.sol\":4076:4118  _transfer(_msgSender(), recipient, amount) */\n      tag_164\n        /* \"contracts/dethDividendTracker.sol\":4086:4098  _msgSender() */\n      tag_165\n        /* \"contracts/dethDividendTracker.sol\":4086:4096  _msgSender */\n      tag_117\n        /* \"contracts/dethDividendTracker.sol\":4086:4098  _msgSender() */\n      jump\t// in\n    tag_165:\n        /* \"contracts/dethDividendTracker.sol\":4100:4109  recipient */\n      dup5\n        /* \"contracts/dethDividendTracker.sol\":4111:4117  amount */\n      dup5\n        /* \"contracts/dethDividendTracker.sol\":4076:4085  _transfer */\n      tag_122\n        /* \"contracts/dethDividendTracker.sol\":4076:4118  _transfer(_msgSender(), recipient, amount) */\n      jump\t// in\n    tag_164:\n        /* \"contracts/dethDividendTracker.sol\":4136:4140  true */\n      0x01\n        /* \"contracts/dethDividendTracker.sol\":4129:4140  return true */\n      swap1\n      pop\n        /* \"contracts/dethDividendTracker.sol\":3973:4148  function transfer(address recipient, uint256 amount) public virtual override returns (bool) {\r... */\n      swap3\n      swap2\n      pop\n      pop\n      jump\t// out\n        /* \"contracts/dethDividendTracker.sol\":11602:11731  function withdrawnDividendOf(address _owner) public view override returns(uint256) {\r... */\n    tag_94:\n        /* \"contracts/dethDividendTracker.sol\":11676:11683  uint256 */\n      0x00\n        /* \"contracts/dethDividendTracker.sol\":11699:11717  withdrawnDividends */\n      0x07\n        /* \"contracts/dethDividendTracker.sol\":11699:11725  withdrawnDividends[_owner] */\n      0x00\n        /* \"contracts/dethDividendTracker.sol\":11718:11724  _owner */\n      dup4\n        /* \"contracts/dethDividendTracker.sol\":11699:11725  withdrawnDividends[_owner] */\n      0xffffffffffffffffffffffffffffffffffffffff\n      and\n      0xffffffffffffffffffffffffffffffffffffffff\n      and\n      dup2\n      mstore\n      0x20\n      add\n      swap1\n      dup2\n      mstore\n      0x20\n      add\n      0x00\n      keccak256\n      sload\n        /* \"contracts/dethDividendTracker.sol\":11692:11725  return withdrawnDividends[_owner] */\n      swap1\n      pop\n        /* \"contracts/dethDividendTracker.sol\":11602:11731  function withdrawnDividendOf(address _owner) public view override returns(uint256) {\r... */\n      swap2\n      swap1\n      pop\n      jump\t// out\n        /* \"contracts/dethDividendTracker.sol\":4156:4307  function allowance(address owner, address spender) public view virtual override returns (uint256) {\r... */\n    tag_98:\n        /* \"contracts/dethDividendTracker.sol\":4245:4252  uint256 */\n      0x00\n        /* \"contracts/dethDividendTracker.sol\":4272:4283  _allowances */\n      0x01\n        /* \"contracts/dethDividendTracker.sol\":4272:4290  _allowances[owner] */\n      0x00\n        /* \"contracts/dethDividendTracker.sol\":4284:4289  owner */\n      dup5\n        /* \"contracts/dethDividendTracker.sol\":4272:4290  _allowances[owner] */\n      0xffffffffffffffffffffffffffffffffffffffff\n      and\n      0xffffffffffffffffffffffffffffffffffffffff\n      and\n      dup2\n      mstore\n      0x20\n      add\n      swap1\n      dup2\n      mstore\n      0x20\n      add\n      0x00\n      keccak256\n        /* \"contracts/dethDividendTracker.sol\":4272:4299  _allowances[owner][spender] */\n      0x00\n        /* \"contracts/dethDividendTracker.sol\":4291:4298  spender */\n      dup4\n        /* \"contracts/dethDividendTracker.sol\":4272:4299  _allowances[owner][spender] */\n      0xffffffffffffffffffffffffffffffffffffffff\n      and\n      0xffffffffffffffffffffffffffffffffffffffff\n      and\n      dup2\n      mstore\n      0x20\n      add\n      swap1\n      dup2\n      mstore\n      0x20\n      add\n      0x00\n      keccak256\n      sload\n        /* \"contracts/dethDividendTracker.sol\":4265:4299  return _allowances[owner][spender] */\n      swap1\n      pop\n        /* \"contracts/dethDividendTracker.sol\":4156:4307  function allowance(address owner, address spender) public view virtual override returns (uint256) {\r... */\n      swap3\n      swap2\n      pop\n      pop\n      jump\t// out\n        /* \"contracts/dethDividendTracker.sol\":1956:2208  function mul(uint256 a, uint256 b) internal pure returns (uint256) {\r... */\n    tag_106:\n        /* \"contracts/dethDividendTracker.sol\":2014:2021  uint256 */\n      0x00\n        /* \"contracts/dethDividendTracker.sol\":2045:2046  0 */\n      dup1\n        /* \"contracts/dethDividendTracker.sol\":2040:2041  a */\n      dup4\n        /* \"contracts/dethDividendTracker.sol\":2040:2046  a == 0 */\n      eq\n        /* \"contracts/dethDividendTracker.sol\":2036:2083  if (a == 0) {\r... */\n      iszero\n      tag_169\n      jumpi\n        /* \"contracts/dethDividendTracker.sol\":2070:2071  0 */\n      0x00\n        /* \"contracts/dethDividendTracker.sol\":2063:2071  return 0 */\n      swap1\n      pop\n      jump(tag_168)\n        /* \"contracts/dethDividendTracker.sol\":2036:2083  if (a == 0) {\r... */\n    tag_169:\n        /* \"contracts/dethDividendTracker.sol\":2095:2104  uint256 c */\n      0x00\n        /* \"contracts/dethDividendTracker.sol\":2111:2112  b */\n      dup3\n        /* \"contracts/dethDividendTracker.sol\":2107:2108  a */\n      dup5\n        /* \"contracts/dethDividendTracker.sol\":2107:2112  a * b */\n      mul\n        /* \"contracts/dethDividendTracker.sol\":2095:2112  uint256 c = a * b */\n      swap1\n      pop\n        /* \"contracts/dethDividendTracker.sol\":2140:2141  b */\n      dup3\n        /* \"contracts/dethDividendTracker.sol\":2135:2136  a */\n      dup5\n        /* \"contracts/dethDividendTracker.sol\":2131:2132  c */\n      dup3\n        /* \"contracts/dethDividendTracker.sol\":2131:2136  c / a */\n      dup2\n      tag_170\n      jumpi\n      invalid\n    tag_170:\n      div\n        /* \"contracts/dethDividendTracker.sol\":2131:2141  c / a == b */\n      eq\n        /* \"contracts/dethDividendTracker.sol\":2123:2179  require(c / a == b, \"SafeMath: multiplication overflow\") */\n      tag_171\n      jumpi\n      mload(0x40)\n      0x08c379a000000000000000000000000000000000000000000000000000000000\n      dup2\n      mstore\n      0x04\n      add\n      dup1\n      dup1\n      0x20\n      add\n      dup3\n      dup2\n      sub\n      dup3\n      mstore\n      0x21\n      dup2\n      mstore\n      0x20\n      add\n      dup1\n      data_9113bb53c2876a3805b2c9242029423fc540a728243ce887ab24c82cf119fba3\n      0x21\n      swap2\n      codecopy\n      0x40\n      add\n      swap2\n      pop\n      pop\n      mload(0x40)\n      dup1\n      swap2\n      sub\n      swap1\n      revert\n    tag_171:\n        /* \"contracts/dethDividendTracker.sol\":2199:2200  c */\n      dup1\n        /* \"contracts/dethDividendTracker.sol\":2192:2200  return c */\n      swap2\n      pop\n      pop\n        /* \"contracts/dethDividendTracker.sol\":1956:2208  function mul(uint256 a, uint256 b) internal pure returns (uint256) {\r... */\n    tag_168:\n      swap3\n      swap2\n      pop\n      pop\n      jump\t// out\n        /* \"contracts/dethDividendTracker.sol\":1423:1604  function add(uint256 a, uint256 b) internal pure returns (uint256) {\r... */\n    tag_108:\n        /* \"contracts/dethDividendTracker.sol\":1481:1488  uint256 */\n      0x00\n        /* \"contracts/dethDividendTracker.sol\":1501:1510  uint256 c */\n      dup1\n        /* \"contracts/dethDividendTracker.sol\":1517:1518  b */\n      dup3\n        /* \"contracts/dethDividendTracker.sol\":1513:1514  a */\n      dup5\n        /* \"contracts/dethDividendTracker.sol\":1513:1518  a + b */\n      add\n        /* \"contracts/dethDividendTracker.sol\":1501:1518  uint256 c = a + b */\n      swap1\n      pop\n        /* \"contracts/dethDividendTracker.sol\":1542:1543  a */\n      dup4\n        /* \"contracts/dethDividendTracker.sol\":1537:1538  c */\n      dup2\n        /* \"contracts/dethDividendTracker.sol\":1537:1543  c >= a */\n      lt\n      iszero\n        /* \"contracts/dethDividendTracker.sol\":1529:1575  require(c >= a, \"SafeMath: addition overflow\") */\n      tag_173\n      jumpi\n      mload(0x40)\n      0x08c379a000000000000000000000000000000000000000000000000000000000\n      dup2\n      mstore\n      0x04\n      add\n      dup1\n      dup1\n      0x20\n      add\n      dup3\n      dup2\n      sub\n      dup3\n      mstore\n      0x1b\n      dup2\n      mstore\n      0x20\n      add\n      dup1\n      0x536166654d6174683a206164646974696f6e206f766572666c6f770000000000\n      dup2\n      mstore\n      pop\n      0x20\n      add\n      swap2\n      pop\n      pop\n      mload(0x40)\n      dup1\n      swap2\n      sub\n      swap1\n      revert\n    tag_173:\n        /* \"contracts/dethDividendTracker.sol\":1595:1596  c */\n      dup1\n        /* \"contracts/dethDividendTracker.sol\":1588:1596  return c */\n      swap2\n      pop\n      pop\n        /* \"contracts/dethDividendTracker.sol\":1423:1604  function add(uint256 a, uint256 b) internal pure returns (uint256) {\r... */\n      swap3\n      swap2\n      pop\n      pop\n      jump\t// out\n        /* \"contracts/dethDividendTracker.sol\":1049:1147  function _msgSender() internal view virtual returns (address) {\r... */\n    tag_117:\n        /* \"contracts/dethDividendTracker.sol\":1102:1109  address */\n      0x00\n        /* \"contracts/dethDividendTracker.sol\":1129:1139  msg.sender */\n      caller\n        /* \"contracts/dethDividendTracker.sol\":1122:1139  return msg.sender */\n      swap1\n      pop\n        /* \"contracts/dethDividendTracker.sol\":1049:1147  function _msgSender() internal view virtual returns (address) {\r... */\n      swap1\n      jump\t// out\n        /* \"contracts/dethDividendTracker.sol\":6751:7131  function _approve(\r... */\n    tag_118:\n        /* \"contracts/dethDividendTracker.sol\":6904:6905  0 */\n      0x00\n        /* \"contracts/dethDividendTracker.sol\":6887:6906  owner != address(0) */\n      0xffffffffffffffffffffffffffffffffffffffff\n      and\n        /* \"contracts/dethDividendTracker.sol\":6887:6892  owner */\n      dup4\n        /* \"contracts/dethDividendTracker.sol\":6887:6906  owner != address(0) */\n      0xffffffffffffffffffffffffffffffffffffffff\n      and\n      eq\n      iszero\n        /* \"contracts/dethDividendTracker.sol\":6879:6947  require(owner != address(0), \"ERC20: approve from the zero address\") */\n      tag_176\n      jumpi\n      mload(0x40)\n      0x08c379a000000000000000000000000000000000000000000000000000000000\n      dup2\n      mstore\n      0x04\n      add\n      dup1\n      dup1\n      0x20\n      add\n      dup3\n      dup2\n      sub\n      dup3\n      mstore\n      0x24\n      dup2\n      mstore\n      0x20\n      add\n      dup1\n      data_c953f4879035ed60e766b34720f656aab5c697b141d924c283124ecedb91c208\n      0x24\n      swap2\n      codecopy\n      0x40\n      add\n      swap2\n      pop\n      pop\n      mload(0x40)\n      dup1\n      swap2\n      sub\n      swap1\n      revert\n    tag_176:\n        /* \"contracts/dethDividendTracker.sol\":6985:6986  0 */\n      0x00\n        /* \"contracts/dethDividendTracker.sol\":6966:6987  spender != address(0) */\n      0xffffffffffffffffffffffffffffffffffffffff\n      and\n        /* \"contracts/dethDividendTracker.sol\":6966:6973  spender */\n      dup3\n        /* \"contracts/dethDividendTracker.sol\":6966:6987  spender != address(0) */\n      0xffffffffffffffffffffffffffffffffffffffff\n      and\n      eq\n      iszero\n        /* \"contracts/dethDividendTracker.sol\":6958:7026  require(spender != address(0), \"ERC20: approve to the zero address\") */\n      tag_177\n      jumpi\n      mload(0x40)\n      0x08c379a000000000000000000000000000000000000000000000000000000000\n      dup2\n      mstore\n      0x04\n      add\n      dup1\n      dup1\n      0x20\n      add\n      dup3\n      dup2\n      sub\n      dup3\n      mstore\n      0x22\n      dup2\n      mstore\n      0x20\n      add\n      dup1\n      data_24883cc5fe64ace9d0df1893501ecb93c77180f0ff69cca79affb3c316dc8029\n      0x22\n      swap2\n      codecopy\n      0x40\n      add\n      swap2\n      pop\n      pop\n      mload(0x40)\n      dup1\n      swap2\n      sub\n      swap1\n      revert\n    tag_177:\n        /* \"contracts/dethDividendTracker.sol\":7069:7075  amount */\n      dup1\n        /* \"contracts/dethDividendTracker.sol\":7039:7050  _allowances */\n      0x01\n        /* \"contracts/dethDividendTracker.sol\":7039:7057  _allowances[owner] */\n      0x00\n        /* \"contracts/dethDividendTracker.sol\":7051:7056  owner */\n      dup6\n        /* \"contracts/dethDividendTracker.sol\":7039:7057  _allowances[owner] */\n      0xffffffffffffffffffffffffffffffffffffffff\n      and\n      0xffffffffffffffffffffffffffffffffffffffff\n      and\n      dup2\n      mstore\n      0x20\n      add\n      swap1\n      dup2\n      mstore\n      0x20\n      add\n      0x00\n      keccak256\n        /* \"contracts/dethDividendTracker.sol\":7039:7066  _allowances[owner][spender] */\n      0x00\n        /* \"contracts/dethDividendTracker.sol\":7058:7065  spender */\n      dup5\n        /* \"contracts/dethDividendTracker.sol\":7039:7066  _allowances[owner][spender] */\n      0xffffffffffffffffffffffffffffffffffffffff\n      and\n      0xffffffffffffffffffffffffffffffffffffffff\n      and\n      dup2\n      mstore\n      0x20\n      add\n      swap1\n      dup2\n      mstore\n      0x20\n      add\n      0x00\n      keccak256\n        /* \"contracts/dethDividendTracker.sol\":7039:7075  _allowances[owner][spender] = amount */\n      dup2\n      swap1\n      sstore\n      pop\n        /* \"contracts/dethDividendTracker.sol\":7107:7114  spender */\n      dup2\n        /* \"contracts/dethDividendTracker.sol\":7091:7123  Approval(owner, spender, amount) */\n      0xffffffffffffffffffffffffffffffffffffffff\n      and\n        /* \"contracts/dethDividendTracker.sol\":7100:7105  owner */\n      dup4\n        /* \"contracts/dethDividendTracker.sol\":7091:7123  Approval(owner, spender, amount) */\n      0xffffffffffffffffffffffffffffffffffffffff\n      and\n      0x8c5be1e5ebec7d5bd14f71427d1e84f3dd0314c0f7b2291e5b200ac8c7c3b925\n        /* \"contracts/dethDividendTracker.sol\":7116:7122  amount */\n      dup4\n        /* \"contracts/dethDividendTracker.sol\":7091:7123  Approval(owner, spender, amount) */\n      mload(0x40)\n      dup1\n      dup3\n      dup2\n      mstore\n      0x20\n      add\n      swap2\n      pop\n      pop\n      mload(0x40)\n      dup1\n      swap2\n      sub\n      swap1\n      log3\n        /* \"contracts/dethDividendTracker.sol\":6751:7131  function _approve(\r... */\n      pop\n      pop\n      pop\n      jump\t// out\n        /* \"contracts/dethDividendTracker.sol\":11990:12379  function _transfer(address from, address to, uint256 value) internal virtual override {\r... */\n    tag_122:\n        /* \"contracts/dethDividendTracker.sol\":12091:12096  false */\n      0x00\n        /* \"contracts/dethDividendTracker.sol\":12083:12097  require(false) */\n      tag_179\n      jumpi\n      0x00\n      dup1\n      revert\n    tag_179:\n        /* \"contracts/dethDividendTracker.sol\":12106:12127  int256 _magCorrection */\n      0x00\n        /* \"contracts/dethDividendTracker.sol\":12130:12181  magnifiedDividendPerShare.mul(value).toInt256Safe() */\n      tag_180\n        /* \"contracts/dethDividendTracker.sol\":12130:12166  magnifiedDividendPerShare.mul(value) */\n      tag_181\n        /* \"contracts/dethDividendTracker.sol\":12160:12165  value */\n      dup4\n        /* \"contracts/dethDividendTracker.sol\":12130:12155  magnifiedDividendPerShare */\n      sload(0x05)\n        /* \"contracts/dethDividendTracker.sol\":12130:12159  magnifiedDividendPerShare.mul */\n      tag_106\n      swap1\n        /* \"contracts/dethDividendTracker.sol\":12130:12166  magnifiedDividendPerShare.mul(value) */\n      swap2\n      swap1\n      0xffffffff\n      and\n      jump\t// in\n    tag_181:\n        /* \"contracts/dethDividendTracker.sol\":12130:12179  magnifiedDividendPerShare.mul(value).toInt256Safe */\n      tag_134\n        /* \"contracts/dethDividendTracker.sol\":12130:12181  magnifiedDividendPerShare.mul(value).toInt256Safe() */\n      jump\t// in\n    tag_180:\n        /* \"contracts/dethDividendTracker.sol\":12106:12181  int256 _magCorrection = magnifiedDividendPerShare.mul(value).toInt256Safe() */\n      swap1\n      pop\n        /* \"contracts/dethDividendTracker.sol\":12225:12279  magnifiedDividendCorrections[from].add(_magCorrection) */\n      tag_182\n        /* \"contracts/dethDividendTracker.sol\":12264:12278  _magCorrection */\n      dup2\n        /* \"contracts/dethDividendTracker.sol\":12225:12253  magnifiedDividendCorrections */\n      0x06\n        /* \"contracts/dethDividendTracker.sol\":12225:12259  magnifiedDividendCorrections[from] */\n      0x00\n        /* \"contracts/dethDividendTracker.sol\":12254:12258  from */\n      dup8\n        /* \"contracts/dethDividendTracker.sol\":12225:12259  magnifiedDividendCorrections[from] */\n      0xffffffffffffffffffffffffffffffffffffffff\n      and\n      0xffffffffffffffffffffffffffffffffffffffff\n      and\n      dup2\n      mstore\n      0x20\n      add\n      swap1\n      dup2\n      mstore\n      0x20\n      add\n      0x00\n      keccak256\n      sload\n        /* \"contracts/dethDividendTracker.sol\":12225:12263  magnifiedDividendCorrections[from].add */\n      tag_135\n      swap1\n        /* \"contracts/dethDividendTracker.sol\":12225:12279  magnifiedDividendCorrections[from].add(_magCorrection) */\n      swap2\n      swap1\n      0xffffffff\n      and\n      jump\t// in\n    tag_182:\n        /* \"contracts/dethDividendTracker.sol\":12188:12216  magnifiedDividendCorrections */\n      0x06\n        /* \"contracts/dethDividendTracker.sol\":12188:12222  magnifiedDividendCorrections[from] */\n      0x00\n        /* \"contracts/dethDividendTracker.sol\":12217:12221  from */\n      dup7\n        /* \"contracts/dethDividendTracker.sol\":12188:12222  magnifiedDividendCorrections[from] */\n      0xffffffffffffffffffffffffffffffffffffffff\n      and\n      0xffffffffffffffffffffffffffffffffffffffff\n      and\n      dup2\n      mstore\n      0x20\n      add\n      swap1\n      dup2\n      mstore\n      0x20\n      add\n      0x00\n      keccak256\n        /* \"contracts/dethDividendTracker.sol\":12188:12279  magnifiedDividendCorrections[from] = magnifiedDividendCorrections[from].add(_magCorrection) */\n      dup2\n      swap1\n      sstore\n      pop\n        /* \"contracts/dethDividendTracker.sol\":12321:12373  magnifiedDividendCorrections[to].sub(_magCorrection) */\n      tag_183\n        /* \"contracts/dethDividendTracker.sol\":12358:12372  _magCorrection */\n      dup2\n        /* \"contracts/dethDividendTracker.sol\":12321:12349  magnifiedDividendCorrections */\n      0x06\n        /* \"contracts/dethDividendTracker.sol\":12321:12353  magnifiedDividendCorrections[to] */\n      0x00\n        /* \"contracts/dethDividendTracker.sol\":12350:12352  to */\n      dup7\n        /* \"contracts/dethDividendTracker.sol\":12321:12353  magnifiedDividendCorrections[to] */\n      0xffffffffffffffffffffffffffffffffffffffff\n      and\n      0xffffffffffffffffffffffffffffffffffffffff\n      and\n      dup2\n      mstore\n      0x20\n      add\n      swap1\n      dup2\n      mstore\n      0x20\n      add\n      0x00\n      keccak256\n      sload\n        /* \"contracts/dethDividendTracker.sol\":12321:12357  magnifiedDividendCorrections[to].sub */\n      tag_184\n      swap1\n        /* \"contracts/dethDividendTracker.sol\":12321:12373  magnifiedDividendCorrections[to].sub(_magCorrection) */\n      swap2\n      swap1\n      0xffffffff\n      and\n      jump\t// in\n    tag_183:\n        /* \"contracts/dethDividendTracker.sol\":12286:12314  magnifiedDividendCorrections */\n      0x06\n        /* \"contracts/dethDividendTracker.sol\":12286:12318  magnifiedDividendCorrections[to] */\n      0x00\n        /* \"contracts/dethDividendTracker.sol\":12315:12317  to */\n      dup6\n        /* \"contracts/dethDividendTracker.sol\":12286:12318  magnifiedDividendCorrections[to] */\n      0xffffffffffffffffffffffffffffffffffffffff\n      and\n      0xffffffffffffffffffffffffffffffffffffffff\n      and\n      dup2\n      mstore\n      0x20\n      add\n      swap1\n      dup2\n      mstore\n      0x20\n      add\n      0x00\n      keccak256\n        /* \"contracts/dethDividendTracker.sol\":12286:12373  magnifiedDividendCorrections[to] = magnifiedDividendCorrections[to].sub(_magCorrection) */\n      dup2\n      swap1\n      sstore\n      pop\n        /* \"contracts/dethDividendTracker.sol\":11990:12379  function _transfer(address from, address to, uint256 value) internal virtual override {\r... */\n      pop\n      pop\n      pop\n      pop\n      jump\t// out\n        /* \"contracts/dethDividendTracker.sol\":1756:1948  function sub(uint256 a, uint256 b, string memory errorMessage) internal pure returns (uint256) {\r... */\n    tag_127:\n        /* \"contracts/dethDividendTracker.sol\":1842:1849  uint256 */\n      0x00\n        /* \"contracts/dethDividendTracker.sol\":1875:1876  a */\n      dup4\n        /* \"contracts/dethDividendTracker.sol\":1870:1871  b */\n      dup4\n        /* \"contracts/dethDividendTracker.sol\":1870:1876  b <= a */\n      gt\n      iszero\n        /* \"contracts/dethDividendTracker.sol\":1878:1890  errorMessage */\n      dup3\n        /* \"contracts/dethDividendTracker.sol\":1862:1891  require(b <= a, errorMessage) */\n      swap1\n      tag_186\n      jumpi\n      mload(0x40)\n      0x08c379a000000000000000000000000000000000000000000000000000000000\n      dup2\n      mstore\n      0x04\n      add\n      dup1\n      dup1\n      0x20\n      add\n      dup3\n      dup2\n      sub\n      dup3\n      mstore\n      dup4\n      dup2\n      dup2\n      mload\n      dup2\n      mstore\n      0x20\n      add\n      swap2\n      pop\n      dup1\n      mload\n      swap1\n      0x20\n      add\n      swap1\n      dup1\n      dup4\n      dup4\n      0x00\n    tag_187:\n      dup4\n      dup2\n      lt\n      iszero\n      tag_189\n      jumpi\n      dup1\n      dup3\n      add\n      mload\n      dup2\n      dup5\n      add\n      mstore\n      0x20\n      dup2\n      add\n      swap1\n      pop\n      jump(tag_187)\n    tag_189:\n      pop\n      pop\n      pop\n      pop\n      swap1\n      pop\n      swap1\n      dup2\n      add\n      swap1\n      0x1f\n      and\n      dup1\n      iszero\n      tag_190\n      jumpi\n      dup1\n      dup3\n      sub\n      dup1\n      mload\n      0x01\n      dup4\n      0x20\n      sub\n      0x0100\n      exp\n      sub\n      not\n      and\n      dup2\n      mstore\n      0x20\n      add\n      swap2\n      pop\n    tag_190:\n      pop\n      swap3\n      pop\n      pop\n      pop\n      mload(0x40)\n      dup1\n      swap2\n      sub\n      swap1\n      revert\n    tag_186:\n      pop\n        /* \"contracts/dethDividendTracker.sol\":1902:1911  uint256 c */\n      0x00\n        /* \"contracts/dethDividendTracker.sol\":1918:1919  b */\n      dup4\n        /* \"contracts/dethDividendTracker.sol\":1914:1915  a */\n      dup6\n        /* \"contracts/dethDividendTracker.sol\":1914:1919  a - b */\n      sub\n        /* \"contracts/dethDividendTracker.sol\":1902:1919  uint256 c = a - b */\n      swap1\n      pop\n        /* \"contracts/dethDividendTracker.sol\":1939:1940  c */\n      dup1\n        /* \"contracts/dethDividendTracker.sol\":1932:1940  return c */\n      swap2\n      pop\n      pop\n        /* \"contracts/dethDividendTracker.sol\":1756:1948  function sub(uint256 a, uint256 b, string memory errorMessage) internal pure returns (uint256) {\r... */\n      swap4\n      swap3\n      pop\n      pop\n      pop\n      jump\t// out\n        /* \"contracts/dethDividendTracker.sol\":7996:8130  function toInt256Safe(uint256 a) internal pure returns (int256) {\r... */\n    tag_134:\n        /* \"contracts/dethDividendTracker.sol\":8052:8058  int256 */\n      0x00\n        /* \"contracts/dethDividendTracker.sol\":8067:8075  int256 b */\n      dup1\n        /* \"contracts/dethDividendTracker.sol\":8085:8086  a */\n      dup3\n        /* \"contracts/dethDividendTracker.sol\":8067:8087  int256 b = int256(a) */\n      swap1\n      pop\n        /* \"contracts/dethDividendTracker.sol\":8107:8108  0 */\n      0x00\n        /* \"contracts/dethDividendTracker.sol\":8102:8103  b */\n      dup2\n        /* \"contracts/dethDividendTracker.sol\":8102:8108  b >= 0 */\n      slt\n      iszero\n        /* \"contracts/dethDividendTracker.sol\":8094:8109  require(b >= 0) */\n      tag_192\n      jumpi\n      0x00\n      dup1\n      revert\n    tag_192:\n        /* \"contracts/dethDividendTracker.sol\":8123:8124  b */\n      dup1\n        /* \"contracts/dethDividendTracker.sol\":8116:8124  return b */\n      swap2\n      pop\n      pop\n        /* \"contracts/dethDividendTracker.sol\":7996:8130  function toInt256Safe(uint256 a) internal pure returns (int256) {\r... */\n      swap2\n      swap1\n      pop\n      jump\t// out\n        /* \"contracts/dethDividendTracker.sol\":9051:9227  function add(int256 a, int256 b) internal pure returns (int256) {\r... */\n    tag_135:\n        /* \"contracts/dethDividendTracker.sol\":9107:9113  int256 */\n      0x00\n        /* \"contracts/dethDividendTracker.sol\":9126:9134  int256 c */\n      dup1\n        /* \"contracts/dethDividendTracker.sol\":9141:9142  b */\n      dup3\n        /* \"contracts/dethDividendTracker.sol\":9137:9138  a */\n      dup5\n        /* \"contracts/dethDividendTracker.sol\":9137:9142  a + b */\n      add\n        /* \"contracts/dethDividendTracker.sol\":9126:9142  int256 c = a + b */\n      swap1\n      pop\n        /* \"contracts/dethDividendTracker.sol\":9167:9168  0 */\n      0x00\n        /* \"contracts/dethDividendTracker.sol\":9162:9163  b */\n      dup4\n        /* \"contracts/dethDividendTracker.sol\":9162:9168  b >= 0 */\n      slt\n      iszero\n        /* \"contracts/dethDividendTracker.sol\":9162:9178  b >= 0 && c >= a */\n      dup1\n      iszero\n      tag_194\n      jumpi\n      pop\n        /* \"contracts/dethDividendTracker.sol\":9177:9178  a */\n      dup4\n        /* \"contracts/dethDividendTracker.sol\":9172:9173  c */\n      dup2\n        /* \"contracts/dethDividendTracker.sol\":9172:9178  c >= a */\n      slt\n      iszero\n        /* \"contracts/dethDividendTracker.sol\":9162:9178  b >= 0 && c >= a */\n    tag_194:\n        /* \"contracts/dethDividendTracker.sol\":9161:9199  (b >= 0 && c >= a) || (b < 0 && c < a) */\n      dup1\n      tag_195\n      jumpi\n      pop\n        /* \"contracts/dethDividendTracker.sol\":9188:9189  0 */\n      0x00\n        /* \"contracts/dethDividendTracker.sol\":9184:9185  b */\n      dup4\n        /* \"contracts/dethDividendTracker.sol\":9184:9189  b < 0 */\n      slt\n        /* \"contracts/dethDividendTracker.sol\":9184:9198  b < 0 && c < a */\n      dup1\n      iszero\n      tag_196\n      jumpi\n      pop\n        /* \"contracts/dethDividendTracker.sol\":9197:9198  a */\n      dup4\n        /* \"contracts/dethDividendTracker.sol\":9193:9194  c */\n      dup2\n        /* \"contracts/dethDividendTracker.sol\":9193:9198  c < a */\n      slt\n        /* \"contracts/dethDividendTracker.sol\":9184:9198  b < 0 && c < a */\n    tag_196:\n        /* \"contracts/dethDividendTracker.sol\":9161:9199  (b >= 0 && c >= a) || (b < 0 && c < a) */\n    tag_195:\n        /* \"contracts/dethDividendTracker.sol\":9153:9200  require((b >= 0 && c >= a) || (b < 0 && c < a)) */\n      tag_197\n      jumpi\n      0x00\n      dup1\n      revert\n    tag_197:\n        /* \"contracts/dethDividendTracker.sol\":9218:9219  c */\n      dup1\n        /* \"contracts/dethDividendTracker.sol\":9211:9219  return c */\n      swap2\n      pop\n      pop\n        /* \"contracts/dethDividendTracker.sol\":9051:9227  function add(int256 a, int256 b) internal pure returns (int256) {\r... */\n      swap3\n      swap2\n      pop\n      pop\n      jump\t// out\n        /* \"contracts/dethDividendTracker.sol\":9372:9499  function toUint256Safe(int256 a) internal pure returns (uint256) {\r... */\n    tag_136:\n        /* \"contracts/dethDividendTracker.sol\":9428:9435  uint256 */\n      0x00\n        /* \"contracts/dethDividendTracker.sol\":9461:9462  0 */\n      dup1\n        /* \"contracts/dethDividendTracker.sol\":9456:9457  a */\n      dup3\n        /* \"contracts/dethDividendTracker.sol\":9456:9462  a >= 0 */\n      slt\n      iszero\n        /* \"contracts/dethDividendTracker.sol\":9448:9463  require(a >= 0) */\n      tag_199\n      jumpi\n      0x00\n      dup1\n      revert\n    tag_199:\n        /* \"contracts/dethDividendTracker.sol\":9489:9490  a */\n      dup2\n        /* \"contracts/dethDividendTracker.sol\":9474:9491  return uint256(a) */\n      swap1\n      pop\n        /* \"contracts/dethDividendTracker.sol\":9372:9499  function toUint256Safe(int256 a) internal pure returns (uint256) {\r... */\n      swap2\n      swap1\n      pop\n      jump\t// out\n        /* \"contracts/dethDividendTracker.sol\":10667:11292  function _withdrawDividendOfUser(address payable user) internal returns (uint256) {\r... */\n    tag_146:\n        /* \"contracts/dethDividendTracker.sol\":10740:10747  uint256 */\n      0x00\n        /* \"contracts/dethDividendTracker.sol\":10756:10785  uint256 _withdrawableDividend */\n      dup1\n        /* \"contracts/dethDividendTracker.sol\":10788:10816  withdrawableDividendOf(user) */\n      tag_201\n        /* \"contracts/dethDividendTracker.sol\":10811:10815  user */\n      dup4\n        /* \"contracts/dethDividendTracker.sol\":10788:10810  withdrawableDividendOf */\n      tag_86\n        /* \"contracts/dethDividendTracker.sol\":10788:10816  withdrawableDividendOf(user) */\n      jump\t// in\n    tag_201:\n        /* \"contracts/dethDividendTracker.sol\":10756:10816  uint256 _withdrawableDividend = withdrawableDividendOf(user) */\n      swap1\n      pop\n        /* \"contracts/dethDividendTracker.sol\":10851:10852  0 */\n      0x00\n        /* \"contracts/dethDividendTracker.sol\":10827:10848  _withdrawableDividend */\n      dup2\n        /* \"contracts/dethDividendTracker.sol\":10827:10852  _withdrawableDividend > 0 */\n      gt\n        /* \"contracts/dethDividendTracker.sol\":10823:11270  if (_withdrawableDividend > 0) {\r... */\n      iszero\n      tag_202\n      jumpi\n        /* \"contracts/dethDividendTracker.sol\":10890:10941  withdrawnDividends[user].add(_withdrawableDividend) */\n      tag_203\n        /* \"contracts/dethDividendTracker.sol\":10919:10940  _withdrawableDividend */\n      dup2\n        /* \"contracts/dethDividendTracker.sol\":10890:10908  withdrawnDividends */\n      0x07\n        /* \"contracts/dethDividendTracker.sol\":10890:10914  withdrawnDividends[user] */\n      0x00\n        /* \"contracts/dethDividendTracker.sol\":10909:10913  user */\n      dup7\n        /* \"contracts/dethDividendTracker.sol\":10890:10914  withdrawnDividends[user] */\n      0xffffffffffffffffffffffffffffffffffffffff\n      and\n      0xffffffffffffffffffffffffffffffffffffffff\n      and\n      dup2\n      mstore\n      0x20\n      add\n      swap1\n      dup2\n      mstore\n      0x20\n      add\n      0x00\n      keccak256\n      sload\n        /* \"contracts/dethDividendTracker.sol\":10890:10918  withdrawnDividends[user].add */\n      tag_108\n      swap1\n        /* \"contracts/dethDividendTracker.sol\":10890:10941  withdrawnDividends[user].add(_withdrawableDividend) */\n      swap2\n      swap1\n      0xffffffff\n      and\n      jump\t// in\n    tag_203:\n        /* \"contracts/dethDividendTracker.sol\":10863:10881  withdrawnDividends */\n      0x07\n        /* \"contracts/dethDividendTracker.sol\":10863:10887  withdrawnDividends[user] */\n      0x00\n        /* \"contracts/dethDividendTracker.sol\":10882:10886  user */\n      dup6\n        /* \"contracts/dethDividendTracker.sol\":10863:10887  withdrawnDividends[user] */\n      0xffffffffffffffffffffffffffffffffffffffff\n      and\n      0xffffffffffffffffffffffffffffffffffffffff\n      and\n      dup2\n      mstore\n      0x20\n      add\n      swap1\n      dup2\n      mstore\n      0x20\n      add\n      0x00\n      keccak256\n        /* \"contracts/dethDividendTracker.sol\":10863:10941  withdrawnDividends[user] = withdrawnDividends[user].add(_withdrawableDividend) */\n      dup2\n      swap1\n      sstore\n      pop\n        /* \"contracts/dethDividendTracker.sol\":10973:10977  user */\n      dup3\n        /* \"contracts/dethDividendTracker.sol\":10955:11001  DividendWithdrawn(user, _withdrawableDividend) */\n      0xffffffffffffffffffffffffffffffffffffffff\n      and\n      0xee503bee2bb6a87e57bc57db795f98137327401a0e7b7ce42e37926cc1a9ca4d\n        /* \"contracts/dethDividendTracker.sol\":10979:11000  _withdrawableDividend */\n      dup3\n        /* \"contracts/dethDividendTracker.sol\":10955:11001  DividendWithdrawn(user, _withdrawableDividend) */\n      mload(0x40)\n      dup1\n      dup3\n      dup2\n      mstore\n      0x20\n      add\n      swap2\n      pop\n      pop\n      mload(0x40)\n      dup1\n      swap2\n      sub\n      swap1\n      log2\n        /* \"contracts/dethDividendTracker.sol\":11011:11023  bool success */\n      0x00\n        /* \"contracts/dethDividendTracker.sol\":11028:11032  user */\n      dup4\n        /* \"contracts/dethDividendTracker.sol\":11028:11037  user.call */\n      0xffffffffffffffffffffffffffffffffffffffff\n      and\n        /* \"contracts/dethDividendTracker.sol\":11045:11066  _withdrawableDividend */\n      dup3\n        /* \"contracts/dethDividendTracker.sol\":11073:11077  3000 */\n      0x0bb8\n        /* \"contracts/dethDividendTracker.sol\":11028:11082  user.call{value: _withdrawableDividend, gas: 3000}(\"\") */\n      swap1\n      mload(0x40)\n      dup1\n      0x00\n      add\n      swap1\n      pop\n      0x00\n      mload(0x40)\n      dup1\n      dup4\n      sub\n      dup2\n      dup6\n      dup9\n      dup9\n      call\n      swap4\n      pop\n      pop\n      pop\n      pop\n      returndatasize\n      dup1\n      0x00\n      dup2\n      eq\n      tag_206\n      jumpi\n      mload(0x40)\n      swap2\n      pop\n      and(add(returndatasize, 0x3f), not(0x1f))\n      dup3\n      add\n      0x40\n      mstore\n      returndatasize\n      dup3\n      mstore\n      returndatasize\n      0x00\n      0x20\n      dup5\n      add\n      returndatacopy\n      jump(tag_205)\n    tag_206:\n      0x60\n      swap2\n      pop\n    tag_205:\n      pop\n        /* \"contracts/dethDividendTracker.sol\":11010:11082  (bool success,) = user.call{value: _withdrawableDividend, gas: 3000}(\"\") */\n      pop\n      swap1\n      pop\n        /* \"contracts/dethDividendTracker.sol\":11097:11104  success */\n      dup1\n        /* \"contracts/dethDividendTracker.sol\":11093:11224  if(!success) {\r... */\n      tag_207\n      jumpi\n        /* \"contracts/dethDividendTracker.sol\":11144:11195  withdrawnDividends[user].sub(_withdrawableDividend) */\n      tag_208\n        /* \"contracts/dethDividendTracker.sol\":11173:11194  _withdrawableDividend */\n      dup3\n        /* \"contracts/dethDividendTracker.sol\":11144:11162  withdrawnDividends */\n      0x07\n        /* \"contracts/dethDividendTracker.sol\":11144:11168  withdrawnDividends[user] */\n      0x00\n        /* \"contracts/dethDividendTracker.sol\":11163:11167  user */\n      dup8\n        /* \"contracts/dethDividendTracker.sol\":11144:11168  withdrawnDividends[user] */\n      0xffffffffffffffffffffffffffffffffffffffff\n      and\n      0xffffffffffffffffffffffffffffffffffffffff\n      and\n      dup2\n      mstore\n      0x20\n      add\n      swap1\n      dup2\n      mstore\n      0x20\n      add\n      0x00\n      keccak256\n      sload\n        /* \"contracts/dethDividendTracker.sol\":11144:11172  withdrawnDividends[user].sub */\n      tag_162\n      swap1\n        /* \"contracts/dethDividendTracker.sol\":11144:11195  withdrawnDividends[user].sub(_withdrawableDividend) */\n      swap2\n      swap1\n      0xffffffff\n      and\n      jump\t// in\n    tag_208:\n        /* \"contracts/dethDividendTracker.sol\":11117:11135  withdrawnDividends */\n      0x07\n        /* \"contracts/dethDividendTracker.sol\":11117:11141  withdrawnDividends[user] */\n      0x00\n        /* \"contracts/dethDividendTracker.sol\":11136:11140  user */\n      dup7\n        /* \"contracts/dethDividendTracker.sol\":11117:11141  withdrawnDividends[user] */\n      0xffffffffffffffffffffffffffffffffffffffff\n      and\n      0xffffffffffffffffffffffffffffffffffffffff\n      and\n      dup2\n      mstore\n      0x20\n      add\n      swap1\n      dup2\n      mstore\n      0x20\n      add\n      0x00\n      keccak256\n        /* \"contracts/dethDividendTracker.sol\":11117:11195  withdrawnDividends[user] = withdrawnDividends[user].sub(_withdrawableDividend) */\n      dup2\n      swap1\n      sstore\n      pop\n        /* \"contracts/dethDividendTracker.sol\":11213:11214  0 */\n      0x00\n        /* \"contracts/dethDividendTracker.sol\":11206:11214  return 0 */\n      swap3\n      pop\n      pop\n      pop\n      jump(tag_200)\n        /* \"contracts/dethDividendTracker.sol\":11093:11224  if(!success) {\r... */\n    tag_207:\n        /* \"contracts/dethDividendTracker.sol\":11241:11262  _withdrawableDividend */\n      dup2\n        /* \"contracts/dethDividendTracker.sol\":11234:11262  return _withdrawableDividend */\n      swap3\n      pop\n      pop\n      pop\n      jump(tag_200)\n        /* \"contracts/dethDividendTracker.sol\":10823:11270  if (_withdrawableDividend > 0) {\r... */\n    tag_202:\n        /* \"contracts/dethDividendTracker.sol\":11285:11286  0 */\n      0x00\n        /* \"contracts/dethDividendTracker.sol\":11278:11286  return 0 */\n      swap2\n      pop\n      pop\n        /* \"contracts/dethDividendTracker.sol\":10667:11292  function _withdrawDividendOfUser(address payable user) internal returns (uint256) {\r... */\n    tag_200:\n      swap2\n      swap1\n      pop\n      jump\t// out\n        /* \"contracts/dethDividendTracker.sol\":1612:1748  function sub(uint256 a, uint256 b) internal pure returns (uint256) {\r... */\n    tag_162:\n        /* \"contracts/dethDividendTracker.sol\":1670:1677  uint256 */\n      0x00\n        /* \"contracts/dethDividendTracker.sol\":1697:1740  sub(a, b, \"SafeMath: subtraction overflow\") */\n      tag_210\n        /* \"contracts/dethDividendTracker.sol\":1701:1702  a */\n      dup4\n        /* \"contracts/dethDividendTracker.sol\":1704:1705  b */\n      dup4\n        /* \"contracts/dethDividendTracker.sol\":1697:1740  sub(a, b, \"SafeMath: subtraction overflow\") */\n      mload(0x40)\n      dup1\n      0x40\n      add\n      0x40\n      mstore\n      dup1\n      0x1e\n      dup2\n      mstore\n      0x20\n      add\n      0x536166654d6174683a207375627472616374696f6e206f766572666c6f770000\n      dup2\n      mstore\n      pop\n        /* \"contracts/dethDividendTracker.sol\":1697:1700  sub */\n      tag_127\n        /* \"contracts/dethDividendTracker.sol\":1697:1740  sub(a, b, \"SafeMath: subtraction overflow\") */\n      jump\t// in\n    tag_210:\n        /* \"contracts/dethDividendTracker.sol\":1690:1740  return sub(a, b, \"SafeMath: subtraction overflow\") */\n      swap1\n      pop\n        /* \"contracts/dethDividendTracker.sol\":1612:1748  function sub(uint256 a, uint256 b) internal pure returns (uint256) {\r... */\n      swap3\n      swap2\n      pop\n      pop\n      jump\t// out\n        /* \"contracts/dethDividendTracker.sol\":8867:9043  function sub(int256 a, int256 b) internal pure returns (int256) {\r... */\n    tag_184:\n        /* \"contracts/dethDividendTracker.sol\":8923:8929  int256 */\n      0x00\n        /* \"contracts/dethDividendTracker.sol\":8942:8950  int256 c */\n      dup1\n        /* \"contracts/dethDividendTracker.sol\":8957:8958  b */\n      dup3\n        /* \"contracts/dethDividendTracker.sol\":8953:8954  a */\n      dup5\n        /* \"contracts/dethDividendTracker.sol\":8953:8958  a - b */\n      sub\n        /* \"contracts/dethDividendTracker.sol\":8942:8958  int256 c = a - b */\n      swap1\n      pop\n        /* \"contracts/dethDividendTracker.sol\":8983:8984  0 */\n      0x00\n        /* \"contracts/dethDividendTracker.sol\":8978:8979  b */\n      dup4\n        /* \"contracts/dethDividendTracker.sol\":8978:8984  b >= 0 */\n      slt\n      iszero\n        /* \"contracts/dethDividendTracker.sol\":8978:8994  b >= 0 && c <= a */\n      dup1\n      iszero\n      tag_212\n      jumpi\n      pop\n        /* \"contracts/dethDividendTracker.sol\":8993:8994  a */\n      dup4\n        /* \"contracts/dethDividendTracker.sol\":8988:8989  c */\n      dup2\n        /* \"contracts/dethDividendTracker.sol\":8988:8994  c <= a */\n      sgt\n      iszero\n        /* \"contracts/dethDividendTracker.sol\":8978:8994  b >= 0 && c <= a */\n    tag_212:\n        /* \"contracts/dethDividendTracker.sol\":8977:9015  (b >= 0 && c <= a) || (b < 0 && c > a) */\n      dup1\n      tag_213\n      jumpi\n      pop\n        /* \"contracts/dethDividendTracker.sol\":9004:9005  0 */\n      0x00\n        /* \"contracts/dethDividendTracker.sol\":9000:9001  b */\n      dup4\n        /* \"contracts/dethDividendTracker.sol\":9000:9005  b < 0 */\n      slt\n        /* \"contracts/dethDividendTracker.sol\":9000:9014  b < 0 && c > a */\n      dup1\n      iszero\n      tag_214\n      jumpi\n      pop\n        /* \"contracts/dethDividendTracker.sol\":9013:9014  a */\n      dup4\n        /* \"contracts/dethDividendTracker.sol\":9009:9010  c */\n      dup2\n        /* \"contracts/dethDividendTracker.sol\":9009:9014  c > a */\n      sgt\n        /* \"contracts/dethDividendTracker.sol\":9000:9014  b < 0 && c > a */\n    tag_214:\n        /* \"contracts/dethDividendTracker.sol\":8977:9015  (b >= 0 && c <= a) || (b < 0 && c > a) */\n    tag_213:\n        /* \"contracts/dethDividendTracker.sol\":8969:9016  require((b >= 0 && c <= a) || (b < 0 && c > a)) */\n      tag_215\n      jumpi\n      0x00\n      dup1\n      revert\n    tag_215:\n        /* \"contracts/dethDividendTracker.sol\":9034:9035  c */\n      dup1\n        /* \"contracts/dethDividendTracker.sol\":9027:9035  return c */\n      swap2\n      pop\n      pop\n        /* \"contracts/dethDividendTracker.sol\":8867:9043  function sub(int256 a, int256 b) internal pure returns (int256) {\r... */\n      swap3\n      swap2\n      pop\n      pop\n      jump\t// out\n    stop\n    data_24883cc5fe64ace9d0df1893501ecb93c77180f0ff69cca79affb3c316dc8029 45524332303a20617070726f766520746f20746865207a65726f2061646472657373\n    data_9113bb53c2876a3805b2c9242029423fc540a728243ce887ab24c82cf119fba3 536166654d6174683a206d756c7469706c69636174696f6e206f766572666c6f77\n    data_974d1b4421da69cc60b481194f0dad36a5bb4e23da810da7a7fb30cdba178330 45524332303a207472616e7366657220616d6f756e74206578636565647320616c6c6f77616e6365\n    data_c953f4879035ed60e766b34720f656aab5c697b141d924c283124ecedb91c208 45524332303a20617070726f76652066726f6d20746865207a65726f2061646472657373\n    data_f8b476f7d28209d77d4a4ac1fe36b9f8259aa1bb6bddfa6e89de7e51615cf8a8 45524332303a2064656372656173656420616c6c6f77616e63652062656c6f77207a65726f\n\n    auxdata: 0xa264697066735822122086bef5b4ca4b6ba91e90f4e23cf3ea1909b5f5d51608cc3bf6cada00ea78434c64736f6c634300060c0033\n}\n",
				"bytecode": {
					"linkReferences": {},
					"object": "60806040523480156200001157600080fd5b5060405162001a9c38038062001a9c833981810160405260408110156200003757600080fd5b81019080805160405193929190846401000000008211156200005857600080fd5b838201915060208201858111156200006f57600080fd5b82518660018202830111640100000000821117156200008d57600080fd5b8083526020830192505050908051906020019080838360005b83811015620000c3578082015181840152602081019050620000a6565b50505050905090810190601f168015620000f15780820380516001836020036101000a031916815260200191505b50604052602001805160405193929190846401000000008211156200011557600080fd5b838201915060208201858111156200012c57600080fd5b82518660018202830111640100000000821117156200014a57600080fd5b8083526020830192505050908051906020019080838360005b838110156200018057808201518184015260208101905062000163565b50505050905090810190601f168015620001ae5780820380516001836020036101000a031916815260200191505b5060405250505081818160039080519060200190620001cf929190620001f3565b508060049080519060200190620001e8929190620001f3565b505050505062000299565b828054600181600116156101000203166002900490600052602060002090601f016020900481019282601f106200023657805160ff191683800117855562000267565b8280016001018555821562000267579182015b828111156200026657825182559160200191906001019062000249565b5b5090506200027691906200027a565b5090565b5b80821115620002955760008160009055506001016200027b565b5090565b6117f380620002a96000396000f3fe60806040526004361061010d5760003560e01c806370a0823111610095578063a457c2d711610064578063a457c2d714610588578063a8b9d240146105f9578063a9059cbb1461065e578063aafd847a146106cf578063dd62ed3e146107345761011c565b806370a082311461040357806385a6b3ae1461046857806391b89fba1461049357806395d89b41146104f85761011c565b806323b872dd116100dc57806323b872dd1461025757806327ce0147146102e8578063313ce5671461034d578063395093511461037b5780636a474002146103ec5761011c565b806303c833021461012157806306fdde031461012b578063095ea7b3146101bb57806318160ddd1461022c5761011c565b3661011c5761011a6107b9565b005b600080fd5b6101296107b9565b005b34801561013757600080fd5b50610140610890565b6040518080602001828103825283818151815260200191508051906020019080838360005b83811015610180578082015181840152602081019050610165565b50505050905090810190601f1680156101ad5780820380516001836020036101000a031916815260200191505b509250505060405180910390f35b3480156101c757600080fd5b50610214600480360360408110156101de57600080fd5b81019080803573ffffffffffffffffffffffffffffffffffffffff16906020019092919080359060200190929190505050610932565b60405180821515815260200191505060405180910390f35b34801561023857600080fd5b50610241610950565b6040518082815260200191505060405180910390f35b34801561026357600080fd5b506102d06004803603606081101561027a57600080fd5b81019080803573ffffffffffffffffffffffffffffffffffffffff169060200190929190803573ffffffffffffffffffffffffffffffffffffffff1690602001909291908035906020019092919050505061095a565b60405180821515815260200191505060405180910390f35b3480156102f457600080fd5b506103376004803603602081101561030b57600080fd5b81019080803573ffffffffffffffffffffffffffffffffffffffff169060200190929190505050610a33565b6040518082815260200191505060405180910390f35b34801561035957600080fd5b50610362610ad4565b604051808260ff16815260200191505060405180910390f35b34801561038757600080fd5b506103d46004803603604081101561039e57600080fd5b81019080803573ffffffffffffffffffffffffffffffffffffffff16906020019092919080359060200190929190505050610add565b60405180821515815260200191505060405180910390f35b3480156103f857600080fd5b50610401610b90565b005b34801561040f57600080fd5b506104526004803603602081101561042657600080fd5b81019080803573ffffffffffffffffffffffffffffffffffffffff169060200190929190505050610b9c565b6040518082815260200191505060405180910390f35b34801561047457600080fd5b5061047d610be4565b6040518082815260200191505060405180910390f35b34801561049f57600080fd5b506104e2600480360360208110156104b657600080fd5b81019080803573ffffffffffffffffffffffffffffffffffffffff169060200190929190505050610bea565b6040518082815260200191505060405180910390f35b34801561050457600080fd5b5061050d610bfc565b6040518080602001828103825283818151815260200191508051906020019080838360005b8381101561054d578082015181840152602081019050610532565b50505050905090810190601f16801561057a5780820380516001836020036101000a031916815260200191505b509250505060405180910390f35b34801561059457600080fd5b506105e1600480360360408110156105ab57600080fd5b81019080803573ffffffffffffffffffffffffffffffffffffffff16906020019092919080359060200190929190505050610c9e565b60405180821515815260200191505060405180910390f35b34801561060557600080fd5b506106486004803603602081101561061c57600080fd5b81019080803573ffffffffffffffffffffffffffffffffffffffff169060200190929190505050610d6b565b6040518082815260200191505060405180910390f35b34801561066a57600080fd5b506106b76004803603604081101561068157600080fd5b81019080803573ffffffffffffffffffffffffffffffffffffffff16906020019092919080359060200190929190505050610dce565b60405180821515815260200191505060405180910390f35b3480156106db57600080fd5b5061071e600480360360208110156106f257600080fd5b81019080803573ffffffffffffffffffffffffffffffffffffffff169060200190929190505050610dec565b6040518082815260200191505060405180910390f35b34801561074057600080fd5b506107a36004803603604081101561075757600080fd5b81019080803573ffffffffffffffffffffffffffffffffffffffff169060200190929190803573ffffffffffffffffffffffffffffffffffffffff169060200190929190505050610e35565b6040518082815260200191505060405180910390f35b60006107c3610950565b116107cd57600080fd5b600034111561088e5761081e6107e1610950565b61080570010000000000000000000000000000000034610ebc90919063ffffffff16565b8161080c57fe5b04600554610f4290919063ffffffff16565b6005819055503373ffffffffffffffffffffffffffffffffffffffff167fa493a9229478c3fcd73f66d2cdeb7f94fd0f341da924d1054236d78454116511346040518082815260200191505060405180910390a261088734600854610f4290919063ffffffff16565b6008819055505b565b606060038054600181600116156101000203166002900480601f0160208091040260200160405190810160405280929190818152602001828054600181600116156101000203166002900480156109285780601f106108fd57610100808354040283529160200191610928565b820191906000526020600020905b81548152906001019060200180831161090b57829003601f168201915b5050505050905090565b600061094661093f610fca565b8484610fd2565b6001905092915050565b6000600254905090565b60006109678484846111c9565b610a2884610973610fca565b610a238560405180606001604052806028815260200161174d60289139600160008b73ffffffffffffffffffffffffffffffffffffffff1673ffffffffffffffffffffffffffffffffffffffff16815260200190815260200160002060006109d9610fca565b73ffffffffffffffffffffffffffffffffffffffff1673ffffffffffffffffffffffffffffffffffffffff168152602001908152602001600020546113259092919063ffffffff16565b610fd2565b600190509392505050565b6000700100000000000000000000000000000000610ac5610ac0600660008673ffffffffffffffffffffffffffffffffffffffff1673ffffffffffffffffffffffffffffffffffffffff16815260200190815260200160002054610ab2610aad610a9c88610b9c565b600554610ebc90919063ffffffff16565b6113e5565b61140290919063ffffffff16565b611444565b81610acc57fe5b049050919050565b60006012905090565b6000610b86610aea610fca565b84610b818560016000610afb610fca565b73ffffffffffffffffffffffffffffffffffffffff1673ffffffffffffffffffffffffffffffffffffffff16815260200190815260200160002060008973ffffffffffffffffffffffffffffffffffffffff1673ffffffffffffffffffffffffffffffffffffffff16815260200190815260200160002054610f4290919063ffffffff16565b610fd2565b6001905092915050565b610b993361145b565b50565b60008060008373ffffffffffffffffffffffffffffffffffffffff1673ffffffffffffffffffffffffffffffffffffffff168152602001908152602001600020549050919050565b60085481565b6000610bf582610d6b565b9050919050565b606060048054600181600116156101000203166002900480601f016020809104026020016040519081016040528092919081815260200182805460018160011615610100020316600290048015610c945780601f10610c6957610100808354040283529160200191610c94565b820191906000526020600020905b815481529060010190602001808311610c7757829003601f168201915b5050505050905090565b6000610d61610cab610fca565b84610d5c856040518060600160405280602581526020016117996025913960016000610cd5610fca565b73ffffffffffffffffffffffffffffffffffffffff1673ffffffffffffffffffffffffffffffffffffffff16815260200190815260200160002060008a73ffffffffffffffffffffffffffffffffffffffff1673ffffffffffffffffffffffffffffffffffffffff168152602001908152602001600020546113259092919063ffffffff16565b610fd2565b6001905092915050565b6000610dc7600760008473ffffffffffffffffffffffffffffffffffffffff1673ffffffffffffffffffffffffffffffffffffffff16815260200190815260200160002054610db984610a33565b61167d90919063ffffffff16565b9050919050565b6000610de2610ddb610fca565b84846111c9565b6001905092915050565b6000600760008373ffffffffffffffffffffffffffffffffffffffff1673ffffffffffffffffffffffffffffffffffffffff168152602001908152602001600020549050919050565b6000600160008473ffffffffffffffffffffffffffffffffffffffff1673ffffffffffffffffffffffffffffffffffffffff16815260200190815260200160002060008373ffffffffffffffffffffffffffffffffffffffff1673ffffffffffffffffffffffffffffffffffffffff16815260200190815260200160002054905092915050565b600080831415610ecf5760009050610f3c565b6000828402905082848281610ee057fe5b0414610f37576040517f08c379a000000000000000000000000000000000000000000000000000000000815260040180806020018281038252602181526020018061172c6021913960400191505060405180910390fd5b809150505b92915050565b600080828401905083811015610fc0576040517f08c379a000000000000000000000000000000000000000000000000000000000815260040180806020018281038252601b8152602001807f536166654d6174683a206164646974696f6e206f766572666c6f77000000000081525060200191505060405180910390fd5b8091505092915050565b600033905090565b600073ffffffffffffffffffffffffffffffffffffffff168373ffffffffffffffffffffffffffffffffffffffff161415611058576040517f08c379a00000000000000000000000000000000000000000000000000000000081526004018080602001828103825260248152602001806117756024913960400191505060405180910390fd5b600073ffffffffffffffffffffffffffffffffffffffff168273ffffffffffffffffffffffffffffffffffffffff1614156110de576040517f08c379a000000000000000000000000000000000000000000000000000000000815260040180806020018281038252602281526020018061170a6022913960400191505060405180910390fd5b80600160008573ffffffffffffffffffffffffffffffffffffffff1673ffffffffffffffffffffffffffffffffffffffff16815260200190815260200160002060008473ffffffffffffffffffffffffffffffffffffffff1673ffffffffffffffffffffffffffffffffffffffff168152602001908152602001600020819055508173ffffffffffffffffffffffffffffffffffffffff168373ffffffffffffffffffffffffffffffffffffffff167f8c5be1e5ebec7d5bd14f71427d1e84f3dd0314c0f7b2291e5b200ac8c7c3b925836040518082815260200191505060405180910390a3505050565b60006111d457600080fd5b60006111f36111ee83600554610ebc90919063ffffffff16565b6113e5565b905061124781600660008773ffffffffffffffffffffffffffffffffffffffff1673ffffffffffffffffffffffffffffffffffffffff1681526020019081526020016000205461140290919063ffffffff16565b600660008673ffffffffffffffffffffffffffffffffffffffff1673ffffffffffffffffffffffffffffffffffffffff168152602001908152602001600020819055506112dc81600660008673ffffffffffffffffffffffffffffffffffffffff1673ffffffffffffffffffffffffffffffffffffffff168152602001908152602001600020546116c790919063ffffffff16565b600660008573ffffffffffffffffffffffffffffffffffffffff1673ffffffffffffffffffffffffffffffffffffffff1681526020019081526020016000208190555050505050565b60008383111582906113d2576040517f08c379a00000000000000000000000000000000000000000000000000000000081526004018080602001828103825283818151815260200191508051906020019080838360005b8381101561139757808201518184015260208101905061137c565b50505050905090810190601f1680156113c45780820380516001836020036101000a031916815260200191505b509250505060405180910390fd5b5060008385039050809150509392505050565b60008082905060008112156113f957600080fd5b80915050919050565b60008082840190506000831215801561141b5750838112155b80611431575060008312801561143057508381125b5b61143a57600080fd5b8091505092915050565b60008082121561145357600080fd5b819050919050565b60008061146783610d6b565b90506000811115611672576114c481600760008673ffffffffffffffffffffffffffffffffffffffff1673ffffffffffffffffffffffffffffffffffffffff16815260200190815260200160002054610f4290919063ffffffff16565b600760008573ffffffffffffffffffffffffffffffffffffffff1673ffffffffffffffffffffffffffffffffffffffff168152602001908152602001600020819055508273ffffffffffffffffffffffffffffffffffffffff167fee503bee2bb6a87e57bc57db795f98137327401a0e7b7ce42e37926cc1a9ca4d826040518082815260200191505060405180910390a260008373ffffffffffffffffffffffffffffffffffffffff1682610bb890604051806000019050600060405180830381858888f193505050503d80600081146115ba576040519150601f19603f3d011682016040523d82523d6000602084013e6115bf565b606091505b50509050806116685761161a82600760008773ffffffffffffffffffffffffffffffffffffffff1673ffffffffffffffffffffffffffffffffffffffff1681526020019081526020016000205461167d90919063ffffffff16565b600760008673ffffffffffffffffffffffffffffffffffffffff1673ffffffffffffffffffffffffffffffffffffffff16815260200190815260200160002081905550600092505050611678565b8192505050611678565b60009150505b919050565b60006116bf83836040518060400160405280601e81526020017f536166654d6174683a207375627472616374696f6e206f766572666c6f770000815250611325565b905092915050565b6000808284039050600083121580156116e05750838113155b806116f657506000831280156116f557508381135b5b6116ff57600080fd5b809150509291505056fe45524332303a20617070726f766520746f20746865207a65726f2061646472657373536166654d6174683a206d756c7469706c69636174696f6e206f766572666c6f7745524332303a207472616e7366657220616d6f756e74206578636565647320616c6c6f77616e636545524332303a20617070726f76652066726f6d20746865207a65726f206164647265737345524332303a2064656372656173656420616c6c6f77616e63652062656c6f77207a65726fa264697066735822122086bef5b4ca4b6ba91e90f4e23cf3ea1909b5f5d51608cc3bf6cada00ea78434c64736f6c634300060c0033",
					"opcodes": "PUSH1 0x80 PUSH1 0x40 MSTORE CALLVALUE DUP1 ISZERO PUSH3 0x11 JUMPI PUSH1 0x0 DUP1 REVERT JUMPDEST POP PUSH1 0x40 MLOAD PUSH3 0x1A9C CODESIZE SUB DUP1 PUSH3 0x1A9C DUP4 CODECOPY DUP2 DUP2 ADD PUSH1 0x40 MSTORE PUSH1 0x40 DUP2 LT ISZERO PUSH3 0x37 JUMPI PUSH1 0x0 DUP1 REVERT JUMPDEST DUP2 ADD SWAP1 DUP1 DUP1 MLOAD PUSH1 0x40 MLOAD SWAP4 SWAP3 SWAP2 SWAP1 DUP5 PUSH5 0x100000000 DUP3 GT ISZERO PUSH3 0x58 JUMPI PUSH1 0x0 DUP1 REVERT JUMPDEST DUP4 DUP3 ADD SWAP2 POP PUSH1 0x20 DUP3 ADD DUP6 DUP2 GT ISZERO PUSH3 0x6F JUMPI PUSH1 0x0 DUP1 REVERT JUMPDEST DUP3 MLOAD DUP7 PUSH1 0x1 DUP3 MUL DUP4 ADD GT PUSH5 0x100000000 DUP3 GT OR ISZERO PUSH3 0x8D JUMPI PUSH1 0x0 DUP1 REVERT JUMPDEST DUP1 DUP4 MSTORE PUSH1 0x20 DUP4 ADD SWAP3 POP POP POP SWAP1 DUP1 MLOAD SWAP1 PUSH1 0x20 ADD SWAP1 DUP1 DUP4 DUP4 PUSH1 0x0 JUMPDEST DUP4 DUP2 LT ISZERO PUSH3 0xC3 JUMPI DUP1 DUP3 ADD MLOAD DUP2 DUP5 ADD MSTORE PUSH1 0x20 DUP2 ADD SWAP1 POP PUSH3 0xA6 JUMP JUMPDEST POP POP POP POP SWAP1 POP SWAP1 DUP2 ADD SWAP1 PUSH1 0x1F AND DUP1 ISZERO PUSH3 0xF1 JUMPI DUP1 DUP3 SUB DUP1 MLOAD PUSH1 0x1 DUP4 PUSH1 0x20 SUB PUSH2 0x100 EXP SUB NOT AND DUP2 MSTORE PUSH1 0x20 ADD SWAP2 POP JUMPDEST POP PUSH1 0x40 MSTORE PUSH1 0x20 ADD DUP1 MLOAD PUSH1 0x40 MLOAD SWAP4 SWAP3 SWAP2 SWAP1 DUP5 PUSH5 0x100000000 DUP3 GT ISZERO PUSH3 0x115 JUMPI PUSH1 0x0 DUP1 REVERT JUMPDEST DUP4 DUP3 ADD SWAP2 POP PUSH1 0x20 DUP3 ADD DUP6 DUP2 GT ISZERO PUSH3 0x12C JUMPI PUSH1 0x0 DUP1 REVERT JUMPDEST DUP3 MLOAD DUP7 PUSH1 0x1 DUP3 MUL DUP4 ADD GT PUSH5 0x100000000 DUP3 GT OR ISZERO PUSH3 0x14A JUMPI PUSH1 0x0 DUP1 REVERT JUMPDEST DUP1 DUP4 MSTORE PUSH1 0x20 DUP4 ADD SWAP3 POP POP POP SWAP1 DUP1 MLOAD SWAP1 PUSH1 0x20 ADD SWAP1 DUP1 DUP4 DUP4 PUSH1 0x0 JUMPDEST DUP4 DUP2 LT ISZERO PUSH3 0x180 JUMPI DUP1 DUP3 ADD MLOAD DUP2 DUP5 ADD MSTORE PUSH1 0x20 DUP2 ADD SWAP1 POP PUSH3 0x163 JUMP JUMPDEST POP POP POP POP SWAP1 POP SWAP1 DUP2 ADD SWAP1 PUSH1 0x1F AND DUP1 ISZERO PUSH3 0x1AE JUMPI DUP1 DUP3 SUB DUP1 MLOAD PUSH1 0x1 DUP4 PUSH1 0x20 SUB PUSH2 0x100 EXP SUB NOT AND DUP2 MSTORE PUSH1 0x20 ADD SWAP2 POP JUMPDEST POP PUSH1 0x40 MSTORE POP POP POP DUP2 DUP2 DUP2 PUSH1 0x3 SWAP1 DUP1 MLOAD SWAP1 PUSH1 0x20 ADD SWAP1 PUSH3 0x1CF SWAP3 SWAP2 SWAP1 PUSH3 0x1F3 JUMP JUMPDEST POP DUP1 PUSH1 0x4 SWAP1 DUP1 MLOAD SWAP1 PUSH1 0x20 ADD SWAP1 PUSH3 0x1E8 SWAP3 SWAP2 SWAP1 PUSH3 0x1F3 JUMP JUMPDEST POP POP POP POP POP PUSH3 0x299 JUMP JUMPDEST DUP3 DUP1 SLOAD PUSH1 0x1 DUP2 PUSH1 0x1 AND ISZERO PUSH2 0x100 MUL SUB AND PUSH1 0x2 SWAP1 DIV SWAP1 PUSH1 0x0 MSTORE PUSH1 0x20 PUSH1 0x0 KECCAK256 SWAP1 PUSH1 0x1F ADD PUSH1 0x20 SWAP1 DIV DUP2 ADD SWAP3 DUP3 PUSH1 0x1F LT PUSH3 0x236 JUMPI DUP1 MLOAD PUSH1 0xFF NOT AND DUP4 DUP1 ADD OR DUP6 SSTORE PUSH3 0x267 JUMP JUMPDEST DUP3 DUP1 ADD PUSH1 0x1 ADD DUP6 SSTORE DUP3 ISZERO PUSH3 0x267 JUMPI SWAP2 DUP3 ADD JUMPDEST DUP3 DUP2 GT ISZERO PUSH3 0x266 JUMPI DUP3 MLOAD DUP3 SSTORE SWAP2 PUSH1 0x20 ADD SWAP2 SWAP1 PUSH1 0x1 ADD SWAP1 PUSH3 0x249 JUMP JUMPDEST JUMPDEST POP SWAP1 POP PUSH3 0x276 SWAP2 SWAP1 PUSH3 0x27A JUMP JUMPDEST POP SWAP1 JUMP JUMPDEST JUMPDEST DUP1 DUP3 GT ISZERO PUSH3 0x295 JUMPI PUSH1 0x0 DUP2 PUSH1 0x0 SWAP1 SSTORE POP PUSH1 0x1 ADD PUSH3 0x27B JUMP JUMPDEST POP SWAP1 JUMP JUMPDEST PUSH2 0x17F3 DUP1 PUSH3 0x2A9 PUSH1 0x0 CODECOPY PUSH1 0x0 RETURN INVALID PUSH1 0x80 PUSH1 0x40 MSTORE PUSH1 0x4 CALLDATASIZE LT PUSH2 0x10D JUMPI PUSH1 0x0 CALLDATALOAD PUSH1 0xE0 SHR DUP1 PUSH4 0x70A08231 GT PUSH2 0x95 JUMPI DUP1 PUSH4 0xA457C2D7 GT PUSH2 0x64 JUMPI DUP1 PUSH4 0xA457C2D7 EQ PUSH2 0x588 JUMPI DUP1 PUSH4 0xA8B9D240 EQ PUSH2 0x5F9 JUMPI DUP1 PUSH4 0xA9059CBB EQ PUSH2 0x65E JUMPI DUP1 PUSH4 0xAAFD847A EQ PUSH2 0x6CF JUMPI DUP1 PUSH4 0xDD62ED3E EQ PUSH2 0x734 JUMPI PUSH2 0x11C JUMP JUMPDEST DUP1 PUSH4 0x70A08231 EQ PUSH2 0x403 JUMPI DUP1 PUSH4 0x85A6B3AE EQ PUSH2 0x468 JUMPI DUP1 PUSH4 0x91B89FBA EQ PUSH2 0x493 JUMPI DUP1 PUSH4 0x95D89B41 EQ PUSH2 0x4F8 JUMPI PUSH2 0x11C JUMP JUMPDEST DUP1 PUSH4 0x23B872DD GT PUSH2 0xDC JUMPI DUP1 PUSH4 0x23B872DD EQ PUSH2 0x257 JUMPI DUP1 PUSH4 0x27CE0147 EQ PUSH2 0x2E8 JUMPI DUP1 PUSH4 0x313CE567 EQ PUSH2 0x34D JUMPI DUP1 PUSH4 0x39509351 EQ PUSH2 0x37B JUMPI DUP1 PUSH4 0x6A474002 EQ PUSH2 0x3EC JUMPI PUSH2 0x11C JUMP JUMPDEST DUP1 PUSH4 0x3C83302 EQ PUSH2 0x121 JUMPI DUP1 PUSH4 0x6FDDE03 EQ PUSH2 0x12B JUMPI DUP1 PUSH4 0x95EA7B3 EQ PUSH2 0x1BB JUMPI DUP1 PUSH4 0x18160DDD EQ PUSH2 0x22C JUMPI PUSH2 0x11C JUMP JUMPDEST CALLDATASIZE PUSH2 0x11C JUMPI PUSH2 0x11A PUSH2 0x7B9 JUMP JUMPDEST STOP JUMPDEST PUSH1 0x0 DUP1 REVERT JUMPDEST PUSH2 0x129 PUSH2 0x7B9 JUMP JUMPDEST STOP JUMPDEST CALLVALUE DUP1 ISZERO PUSH2 0x137 JUMPI PUSH1 0x0 DUP1 REVERT JUMPDEST POP PUSH2 0x140 PUSH2 0x890 JUMP JUMPDEST PUSH1 0x40 MLOAD DUP1 DUP1 PUSH1 0x20 ADD DUP3 DUP2 SUB DUP3 MSTORE DUP4 DUP2 DUP2 MLOAD DUP2 MSTORE PUSH1 0x20 ADD SWAP2 POP DUP1 MLOAD SWAP1 PUSH1 0x20 ADD SWAP1 DUP1 DUP4 DUP4 PUSH1 0x0 JUMPDEST DUP4 DUP2 LT ISZERO PUSH2 0x180 JUMPI DUP1 DUP3 ADD MLOAD DUP2 DUP5 ADD MSTORE PUSH1 0x20 DUP2 ADD SWAP1 POP PUSH2 0x165 JUMP JUMPDEST POP POP POP POP SWAP1 POP SWAP1 DUP2 ADD SWAP1 PUSH1 0x1F AND DUP1 ISZERO PUSH2 0x1AD JUMPI DUP1 DUP3 SUB DUP1 MLOAD PUSH1 0x1 DUP4 PUSH1 0x20 SUB PUSH2 0x100 EXP SUB NOT AND DUP2 MSTORE PUSH1 0x20 ADD SWAP2 POP JUMPDEST POP SWAP3 POP POP POP PUSH1 0x40 MLOAD DUP1 SWAP2 SUB SWAP1 RETURN JUMPDEST CALLVALUE DUP1 ISZERO PUSH2 0x1C7 JUMPI PUSH1 0x0 DUP1 REVERT JUMPDEST POP PUSH2 0x214 PUSH1 0x4 DUP1 CALLDATASIZE SUB PUSH1 0x40 DUP2 LT ISZERO PUSH2 0x1DE JUMPI PUSH1 0x0 DUP1 REVERT JUMPDEST DUP2 ADD SWAP1 DUP1 DUP1 CALLDATALOAD PUSH20 0xFFFFFFFFFFFFFFFFFFFFFFFFFFFFFFFFFFFFFFFF AND SWAP1 PUSH1 0x20 ADD SWAP1 SWAP3 SWAP2 SWAP1 DUP1 CALLDATALOAD SWAP1 PUSH1 0x20 ADD SWAP1 SWAP3 SWAP2 SWAP1 POP POP POP PUSH2 0x932 JUMP JUMPDEST PUSH1 0x40 MLOAD DUP1 DUP3 ISZERO ISZERO DUP2 MSTORE PUSH1 0x20 ADD SWAP2 POP POP PUSH1 0x40 MLOAD DUP1 SWAP2 SUB SWAP1 RETURN JUMPDEST CALLVALUE DUP1 ISZERO PUSH2 0x238 JUMPI PUSH1 0x0 DUP1 REVERT JUMPDEST POP PUSH2 0x241 PUSH2 0x950 JUMP JUMPDEST PUSH1 0x40 MLOAD DUP1 DUP3 DUP2 MSTORE PUSH1 0x20 ADD SWAP2 POP POP PUSH1 0x40 MLOAD DUP1 SWAP2 SUB SWAP1 RETURN JUMPDEST CALLVALUE DUP1 ISZERO PUSH2 0x263 JUMPI PUSH1 0x0 DUP1 REVERT JUMPDEST POP PUSH2 0x2D0 PUSH1 0x4 DUP1 CALLDATASIZE SUB PUSH1 0x60 DUP2 LT ISZERO PUSH2 0x27A JUMPI PUSH1 0x0 DUP1 REVERT JUMPDEST DUP2 ADD SWAP1 DUP1 DUP1 CALLDATALOAD PUSH20 0xFFFFFFFFFFFFFFFFFFFFFFFFFFFFFFFFFFFFFFFF AND SWAP1 PUSH1 0x20 ADD SWAP1 SWAP3 SWAP2 SWAP1 DUP1 CALLDATALOAD PUSH20 0xFFFFFFFFFFFFFFFFFFFFFFFFFFFFFFFFFFFFFFFF AND SWAP1 PUSH1 0x20 ADD SWAP1 SWAP3 SWAP2 SWAP1 DUP1 CALLDATALOAD SWAP1 PUSH1 0x20 ADD SWAP1 SWAP3 SWAP2 SWAP1 POP POP POP PUSH2 0x95A JUMP JUMPDEST PUSH1 0x40 MLOAD DUP1 DUP3 ISZERO ISZERO DUP2 MSTORE PUSH1 0x20 ADD SWAP2 POP POP PUSH1 0x40 MLOAD DUP1 SWAP2 SUB SWAP1 RETURN JUMPDEST CALLVALUE DUP1 ISZERO PUSH2 0x2F4 JUMPI PUSH1 0x0 DUP1 REVERT JUMPDEST POP PUSH2 0x337 PUSH1 0x4 DUP1 CALLDATASIZE SUB PUSH1 0x20 DUP2 LT ISZERO PUSH2 0x30B JUMPI PUSH1 0x0 DUP1 REVERT JUMPDEST DUP2 ADD SWAP1 DUP1 DUP1 CALLDATALOAD PUSH20 0xFFFFFFFFFFFFFFFFFFFFFFFFFFFFFFFFFFFFFFFF AND SWAP1 PUSH1 0x20 ADD SWAP1 SWAP3 SWAP2 SWAP1 POP POP POP PUSH2 0xA33 JUMP JUMPDEST PUSH1 0x40 MLOAD DUP1 DUP3 DUP2 MSTORE PUSH1 0x20 ADD SWAP2 POP POP PUSH1 0x40 MLOAD DUP1 SWAP2 SUB SWAP1 RETURN JUMPDEST CALLVALUE DUP1 ISZERO PUSH2 0x359 JUMPI PUSH1 0x0 DUP1 REVERT JUMPDEST POP PUSH2 0x362 PUSH2 0xAD4 JUMP JUMPDEST PUSH1 0x40 MLOAD DUP1 DUP3 PUSH1 0xFF AND DUP2 MSTORE PUSH1 0x20 ADD SWAP2 POP POP PUSH1 0x40 MLOAD DUP1 SWAP2 SUB SWAP1 RETURN JUMPDEST CALLVALUE DUP1 ISZERO PUSH2 0x387 JUMPI PUSH1 0x0 DUP1 REVERT JUMPDEST POP PUSH2 0x3D4 PUSH1 0x4 DUP1 CALLDATASIZE SUB PUSH1 0x40 DUP2 LT ISZERO PUSH2 0x39E JUMPI PUSH1 0x0 DUP1 REVERT JUMPDEST DUP2 ADD SWAP1 DUP1 DUP1 CALLDATALOAD PUSH20 0xFFFFFFFFFFFFFFFFFFFFFFFFFFFFFFFFFFFFFFFF AND SWAP1 PUSH1 0x20 ADD SWAP1 SWAP3 SWAP2 SWAP1 DUP1 CALLDATALOAD SWAP1 PUSH1 0x20 ADD SWAP1 SWAP3 SWAP2 SWAP1 POP POP POP PUSH2 0xADD JUMP JUMPDEST PUSH1 0x40 MLOAD DUP1 DUP3 ISZERO ISZERO DUP2 MSTORE PUSH1 0x20 ADD SWAP2 POP POP PUSH1 0x40 MLOAD DUP1 SWAP2 SUB SWAP1 RETURN JUMPDEST CALLVALUE DUP1 ISZERO PUSH2 0x3F8 JUMPI PUSH1 0x0 DUP1 REVERT JUMPDEST POP PUSH2 0x401 PUSH2 0xB90 JUMP JUMPDEST STOP JUMPDEST CALLVALUE DUP1 ISZERO PUSH2 0x40F JUMPI PUSH1 0x0 DUP1 REVERT JUMPDEST POP PUSH2 0x452 PUSH1 0x4 DUP1 CALLDATASIZE SUB PUSH1 0x20 DUP2 LT ISZERO PUSH2 0x426 JUMPI PUSH1 0x0 DUP1 REVERT JUMPDEST DUP2 ADD SWAP1 DUP1 DUP1 CALLDATALOAD PUSH20 0xFFFFFFFFFFFFFFFFFFFFFFFFFFFFFFFFFFFFFFFF AND SWAP1 PUSH1 0x20 ADD SWAP1 SWAP3 SWAP2 SWAP1 POP POP POP PUSH2 0xB9C JUMP JUMPDEST PUSH1 0x40 MLOAD DUP1 DUP3 DUP2 MSTORE PUSH1 0x20 ADD SWAP2 POP POP PUSH1 0x40 MLOAD DUP1 SWAP2 SUB SWAP1 RETURN JUMPDEST CALLVALUE DUP1 ISZERO PUSH2 0x474 JUMPI PUSH1 0x0 DUP1 REVERT JUMPDEST POP PUSH2 0x47D PUSH2 0xBE4 JUMP JUMPDEST PUSH1 0x40 MLOAD DUP1 DUP3 DUP2 MSTORE PUSH1 0x20 ADD SWAP2 POP POP PUSH1 0x40 MLOAD DUP1 SWAP2 SUB SWAP1 RETURN JUMPDEST CALLVALUE DUP1 ISZERO PUSH2 0x49F JUMPI PUSH1 0x0 DUP1 REVERT JUMPDEST POP PUSH2 0x4E2 PUSH1 0x4 DUP1 CALLDATASIZE SUB PUSH1 0x20 DUP2 LT ISZERO PUSH2 0x4B6 JUMPI PUSH1 0x0 DUP1 REVERT JUMPDEST DUP2 ADD SWAP1 DUP1 DUP1 CALLDATALOAD PUSH20 0xFFFFFFFFFFFFFFFFFFFFFFFFFFFFFFFFFFFFFFFF AND SWAP1 PUSH1 0x20 ADD SWAP1 SWAP3 SWAP2 SWAP1 POP POP POP PUSH2 0xBEA JUMP JUMPDEST PUSH1 0x40 MLOAD DUP1 DUP3 DUP2 MSTORE PUSH1 0x20 ADD SWAP2 POP POP PUSH1 0x40 MLOAD DUP1 SWAP2 SUB SWAP1 RETURN JUMPDEST CALLVALUE DUP1 ISZERO PUSH2 0x504 JUMPI PUSH1 0x0 DUP1 REVERT JUMPDEST POP PUSH2 0x50D PUSH2 0xBFC JUMP JUMPDEST PUSH1 0x40 MLOAD DUP1 DUP1 PUSH1 0x20 ADD DUP3 DUP2 SUB DUP3 MSTORE DUP4 DUP2 DUP2 MLOAD DUP2 MSTORE PUSH1 0x20 ADD SWAP2 POP DUP1 MLOAD SWAP1 PUSH1 0x20 ADD SWAP1 DUP1 DUP4 DUP4 PUSH1 0x0 JUMPDEST DUP4 DUP2 LT ISZERO PUSH2 0x54D JUMPI DUP1 DUP3 ADD MLOAD DUP2 DUP5 ADD MSTORE PUSH1 0x20 DUP2 ADD SWAP1 POP PUSH2 0x532 JUMP JUMPDEST POP POP POP POP SWAP1 POP SWAP1 DUP2 ADD SWAP1 PUSH1 0x1F AND DUP1 ISZERO PUSH2 0x57A JUMPI DUP1 DUP3 SUB DUP1 MLOAD PUSH1 0x1 DUP4 PUSH1 0x20 SUB PUSH2 0x100 EXP SUB NOT AND DUP2 MSTORE PUSH1 0x20 ADD SWAP2 POP JUMPDEST POP SWAP3 POP POP POP PUSH1 0x40 MLOAD DUP1 SWAP2 SUB SWAP1 RETURN JUMPDEST CALLVALUE DUP1 ISZERO PUSH2 0x594 JUMPI PUSH1 0x0 DUP1 REVERT JUMPDEST POP PUSH2 0x5E1 PUSH1 0x4 DUP1 CALLDATASIZE SUB PUSH1 0x40 DUP2 LT ISZERO PUSH2 0x5AB JUMPI PUSH1 0x0 DUP1 REVERT JUMPDEST DUP2 ADD SWAP1 DUP1 DUP1 CALLDATALOAD PUSH20 0xFFFFFFFFFFFFFFFFFFFFFFFFFFFFFFFFFFFFFFFF AND SWAP1 PUSH1 0x20 ADD SWAP1 SWAP3 SWAP2 SWAP1 DUP1 CALLDATALOAD SWAP1 PUSH1 0x20 ADD SWAP1 SWAP3 SWAP2 SWAP1 POP POP POP PUSH2 0xC9E JUMP JUMPDEST PUSH1 0x40 MLOAD DUP1 DUP3 ISZERO ISZERO DUP2 MSTORE PUSH1 0x20 ADD SWAP2 POP POP PUSH1 0x40 MLOAD DUP1 SWAP2 SUB SWAP1 RETURN JUMPDEST CALLVALUE DUP1 ISZERO PUSH2 0x605 JUMPI PUSH1 0x0 DUP1 REVERT JUMPDEST POP PUSH2 0x648 PUSH1 0x4 DUP1 CALLDATASIZE SUB PUSH1 0x20 DUP2 LT ISZERO PUSH2 0x61C JUMPI PUSH1 0x0 DUP1 REVERT JUMPDEST DUP2 ADD SWAP1 DUP1 DUP1 CALLDATALOAD PUSH20 0xFFFFFFFFFFFFFFFFFFFFFFFFFFFFFFFFFFFFFFFF AND SWAP1 PUSH1 0x20 ADD SWAP1 SWAP3 SWAP2 SWAP1 POP POP POP PUSH2 0xD6B JUMP JUMPDEST PUSH1 0x40 MLOAD DUP1 DUP3 DUP2 MSTORE PUSH1 0x20 ADD SWAP2 POP POP PUSH1 0x40 MLOAD DUP1 SWAP2 SUB SWAP1 RETURN JUMPDEST CALLVALUE DUP1 ISZERO PUSH2 0x66A JUMPI PUSH1 0x0 DUP1 REVERT JUMPDEST POP PUSH2 0x6B7 PUSH1 0x4 DUP1 CALLDATASIZE SUB PUSH1 0x40 DUP2 LT ISZERO PUSH2 0x681 JUMPI PUSH1 0x0 DUP1 REVERT JUMPDEST DUP2 ADD SWAP1 DUP1 DUP1 CALLDATALOAD PUSH20 0xFFFFFFFFFFFFFFFFFFFFFFFFFFFFFFFFFFFFFFFF AND SWAP1 PUSH1 0x20 ADD SWAP1 SWAP3 SWAP2 SWAP1 DUP1 CALLDATALOAD SWAP1 PUSH1 0x20 ADD SWAP1 SWAP3 SWAP2 SWAP1 POP POP POP PUSH2 0xDCE JUMP JUMPDEST PUSH1 0x40 MLOAD DUP1 DUP3 ISZERO ISZERO DUP2 MSTORE PUSH1 0x20 ADD SWAP2 POP POP PUSH1 0x40 MLOAD DUP1 SWAP2 SUB SWAP1 RETURN JUMPDEST CALLVALUE DUP1 ISZERO PUSH2 0x6DB JUMPI PUSH1 0x0 DUP1 REVERT JUMPDEST POP PUSH2 0x71E PUSH1 0x4 DUP1 CALLDATASIZE SUB PUSH1 0x20 DUP2 LT ISZERO PUSH2 0x6F2 JUMPI PUSH1 0x0 DUP1 REVERT JUMPDEST DUP2 ADD SWAP1 DUP1 DUP1 CALLDATALOAD PUSH20 0xFFFFFFFFFFFFFFFFFFFFFFFFFFFFFFFFFFFFFFFF AND SWAP1 PUSH1 0x20 ADD SWAP1 SWAP3 SWAP2 SWAP1 POP POP POP PUSH2 0xDEC JUMP JUMPDEST PUSH1 0x40 MLOAD DUP1 DUP3 DUP2 MSTORE PUSH1 0x20 ADD SWAP2 POP POP PUSH1 0x40 MLOAD DUP1 SWAP2 SUB SWAP1 RETURN JUMPDEST CALLVALUE DUP1 ISZERO PUSH2 0x740 JUMPI PUSH1 0x0 DUP1 REVERT JUMPDEST POP PUSH2 0x7A3 PUSH1 0x4 DUP1 CALLDATASIZE SUB PUSH1 0x40 DUP2 LT ISZERO PUSH2 0x757 JUMPI PUSH1 0x0 DUP1 REVERT JUMPDEST DUP2 ADD SWAP1 DUP1 DUP1 CALLDATALOAD PUSH20 0xFFFFFFFFFFFFFFFFFFFFFFFFFFFFFFFFFFFFFFFF AND SWAP1 PUSH1 0x20 ADD SWAP1 SWAP3 SWAP2 SWAP1 DUP1 CALLDATALOAD PUSH20 0xFFFFFFFFFFFFFFFFFFFFFFFFFFFFFFFFFFFFFFFF AND SWAP1 PUSH1 0x20 ADD SWAP1 SWAP3 SWAP2 SWAP1 POP POP POP PUSH2 0xE35 JUMP JUMPDEST PUSH1 0x40 MLOAD DUP1 DUP3 DUP2 MSTORE PUSH1 0x20 ADD SWAP2 POP POP PUSH1 0x40 MLOAD DUP1 SWAP2 SUB SWAP1 RETURN JUMPDEST PUSH1 0x0 PUSH2 0x7C3 PUSH2 0x950 JUMP JUMPDEST GT PUSH2 0x7CD JUMPI PUSH1 0x0 DUP1 REVERT JUMPDEST PUSH1 0x0 CALLVALUE GT ISZERO PUSH2 0x88E JUMPI PUSH2 0x81E PUSH2 0x7E1 PUSH2 0x950 JUMP JUMPDEST PUSH2 0x805 PUSH17 0x100000000000000000000000000000000 CALLVALUE PUSH2 0xEBC SWAP1 SWAP2 SWAP1 PUSH4 0xFFFFFFFF AND JUMP JUMPDEST DUP2 PUSH2 0x80C JUMPI INVALID JUMPDEST DIV PUSH1 0x5 SLOAD PUSH2 0xF42 SWAP1 SWAP2 SWAP1 PUSH4 0xFFFFFFFF AND JUMP JUMPDEST PUSH1 0x5 DUP2 SWAP1 SSTORE POP CALLER PUSH20 0xFFFFFFFFFFFFFFFFFFFFFFFFFFFFFFFFFFFFFFFF AND PUSH32 0xA493A9229478C3FCD73F66D2CDEB7F94FD0F341DA924D1054236D78454116511 CALLVALUE PUSH1 0x40 MLOAD DUP1 DUP3 DUP2 MSTORE PUSH1 0x20 ADD SWAP2 POP POP PUSH1 0x40 MLOAD DUP1 SWAP2 SUB SWAP1 LOG2 PUSH2 0x887 CALLVALUE PUSH1 0x8 SLOAD PUSH2 0xF42 SWAP1 SWAP2 SWAP1 PUSH4 0xFFFFFFFF AND JUMP JUMPDEST PUSH1 0x8 DUP2 SWAP1 SSTORE POP JUMPDEST JUMP JUMPDEST PUSH1 0x60 PUSH1 0x3 DUP1 SLOAD PUSH1 0x1 DUP2 PUSH1 0x1 AND ISZERO PUSH2 0x100 MUL SUB AND PUSH1 0x2 SWAP1 DIV DUP1 PUSH1 0x1F ADD PUSH1 0x20 DUP1 SWAP2 DIV MUL PUSH1 0x20 ADD PUSH1 0x40 MLOAD SWAP1 DUP2 ADD PUSH1 0x40 MSTORE DUP1 SWAP3 SWAP2 SWAP1 DUP2 DUP2 MSTORE PUSH1 0x20 ADD DUP3 DUP1 SLOAD PUSH1 0x1 DUP2 PUSH1 0x1 AND ISZERO PUSH2 0x100 MUL SUB AND PUSH1 0x2 SWAP1 DIV DUP1 ISZERO PUSH2 0x928 JUMPI DUP1 PUSH1 0x1F LT PUSH2 0x8FD JUMPI PUSH2 0x100 DUP1 DUP4 SLOAD DIV MUL DUP4 MSTORE SWAP2 PUSH1 0x20 ADD SWAP2 PUSH2 0x928 JUMP JUMPDEST DUP3 ADD SWAP2 SWAP1 PUSH1 0x0 MSTORE PUSH1 0x20 PUSH1 0x0 KECCAK256 SWAP1 JUMPDEST DUP2 SLOAD DUP2 MSTORE SWAP1 PUSH1 0x1 ADD SWAP1 PUSH1 0x20 ADD DUP1 DUP4 GT PUSH2 0x90B JUMPI DUP3 SWAP1 SUB PUSH1 0x1F AND DUP3 ADD SWAP2 JUMPDEST POP POP POP POP POP SWAP1 POP SWAP1 JUMP JUMPDEST PUSH1 0x0 PUSH2 0x946 PUSH2 0x93F PUSH2 0xFCA JUMP JUMPDEST DUP5 DUP5 PUSH2 0xFD2 JUMP JUMPDEST PUSH1 0x1 SWAP1 POP SWAP3 SWAP2 POP POP JUMP JUMPDEST PUSH1 0x0 PUSH1 0x2 SLOAD SWAP1 POP SWAP1 JUMP JUMPDEST PUSH1 0x0 PUSH2 0x967 DUP5 DUP5 DUP5 PUSH2 0x11C9 JUMP JUMPDEST PUSH2 0xA28 DUP5 PUSH2 0x973 PUSH2 0xFCA JUMP JUMPDEST PUSH2 0xA23 DUP6 PUSH1 0x40 MLOAD DUP1 PUSH1 0x60 ADD PUSH1 0x40 MSTORE DUP1 PUSH1 0x28 DUP2 MSTORE PUSH1 0x20 ADD PUSH2 0x174D PUSH1 0x28 SWAP2 CODECOPY PUSH1 0x1 PUSH1 0x0 DUP12 PUSH20 0xFFFFFFFFFFFFFFFFFFFFFFFFFFFFFFFFFFFFFFFF AND PUSH20 0xFFFFFFFFFFFFFFFFFFFFFFFFFFFFFFFFFFFFFFFF AND DUP2 MSTORE PUSH1 0x20 ADD SWAP1 DUP2 MSTORE PUSH1 0x20 ADD PUSH1 0x0 KECCAK256 PUSH1 0x0 PUSH2 0x9D9 PUSH2 0xFCA JUMP JUMPDEST PUSH20 0xFFFFFFFFFFFFFFFFFFFFFFFFFFFFFFFFFFFFFFFF AND PUSH20 0xFFFFFFFFFFFFFFFFFFFFFFFFFFFFFFFFFFFFFFFF AND DUP2 MSTORE PUSH1 0x20 ADD SWAP1 DUP2 MSTORE PUSH1 0x20 ADD PUSH1 0x0 KECCAK256 SLOAD PUSH2 0x1325 SWAP1 SWAP3 SWAP2 SWAP1 PUSH4 0xFFFFFFFF AND JUMP JUMPDEST PUSH2 0xFD2 JUMP JUMPDEST PUSH1 0x1 SWAP1 POP SWAP4 SWAP3 POP POP POP JUMP JUMPDEST PUSH1 0x0 PUSH17 0x100000000000000000000000000000000 PUSH2 0xAC5 PUSH2 0xAC0 PUSH1 0x6 PUSH1 0x0 DUP7 PUSH20 0xFFFFFFFFFFFFFFFFFFFFFFFFFFFFFFFFFFFFFFFF AND PUSH20 0xFFFFFFFFFFFFFFFFFFFFFFFFFFFFFFFFFFFFFFFF AND DUP2 MSTORE PUSH1 0x20 ADD SWAP1 DUP2 MSTORE PUSH1 0x20 ADD PUSH1 0x0 KECCAK256 SLOAD PUSH2 0xAB2 PUSH2 0xAAD PUSH2 0xA9C DUP9 PUSH2 0xB9C JUMP JUMPDEST PUSH1 0x5 SLOAD PUSH2 0xEBC SWAP1 SWAP2 SWAP1 PUSH4 0xFFFFFFFF AND JUMP JUMPDEST PUSH2 0x13E5 JUMP JUMPDEST PUSH2 0x1402 SWAP1 SWAP2 SWAP1 PUSH4 0xFFFFFFFF AND JUMP JUMPDEST PUSH2 0x1444 JUMP JUMPDEST DUP2 PUSH2 0xACC JUMPI INVALID JUMPDEST DIV SWAP1 POP SWAP2 SWAP1 POP JUMP JUMPDEST PUSH1 0x0 PUSH1 0x12 SWAP1 POP SWAP1 JUMP JUMPDEST PUSH1 0x0 PUSH2 0xB86 PUSH2 0xAEA PUSH2 0xFCA JUMP JUMPDEST DUP5 PUSH2 0xB81 DUP6 PUSH1 0x1 PUSH1 0x0 PUSH2 0xAFB PUSH2 0xFCA JUMP JUMPDEST PUSH20 0xFFFFFFFFFFFFFFFFFFFFFFFFFFFFFFFFFFFFFFFF AND PUSH20 0xFFFFFFFFFFFFFFFFFFFFFFFFFFFFFFFFFFFFFFFF AND DUP2 MSTORE PUSH1 0x20 ADD SWAP1 DUP2 MSTORE PUSH1 0x20 ADD PUSH1 0x0 KECCAK256 PUSH1 0x0 DUP10 PUSH20 0xFFFFFFFFFFFFFFFFFFFFFFFFFFFFFFFFFFFFFFFF AND PUSH20 0xFFFFFFFFFFFFFFFFFFFFFFFFFFFFFFFFFFFFFFFF AND DUP2 MSTORE PUSH1 0x20 ADD SWAP1 DUP2 MSTORE PUSH1 0x20 ADD PUSH1 0x0 KECCAK256 SLOAD PUSH2 0xF42 SWAP1 SWAP2 SWAP1 PUSH4 0xFFFFFFFF AND JUMP JUMPDEST PUSH2 0xFD2 JUMP JUMPDEST PUSH1 0x1 SWAP1 POP SWAP3 SWAP2 POP POP JUMP JUMPDEST PUSH2 0xB99 CALLER PUSH2 0x145B JUMP JUMPDEST POP JUMP JUMPDEST PUSH1 0x0 DUP1 PUSH1 0x0 DUP4 PUSH20 0xFFFFFFFFFFFFFFFFFFFFFFFFFFFFFFFFFFFFFFFF AND PUSH20 0xFFFFFFFFFFFFFFFFFFFFFFFFFFFFFFFFFFFFFFFF AND DUP2 MSTORE PUSH1 0x20 ADD SWAP1 DUP2 MSTORE PUSH1 0x20 ADD PUSH1 0x0 KECCAK256 SLOAD SWAP1 POP SWAP2 SWAP1 POP JUMP JUMPDEST PUSH1 0x8 SLOAD DUP2 JUMP JUMPDEST PUSH1 0x0 PUSH2 0xBF5 DUP3 PUSH2 0xD6B JUMP JUMPDEST SWAP1 POP SWAP2 SWAP1 POP JUMP JUMPDEST PUSH1 0x60 PUSH1 0x4 DUP1 SLOAD PUSH1 0x1 DUP2 PUSH1 0x1 AND ISZERO PUSH2 0x100 MUL SUB AND PUSH1 0x2 SWAP1 DIV DUP1 PUSH1 0x1F ADD PUSH1 0x20 DUP1 SWAP2 DIV MUL PUSH1 0x20 ADD PUSH1 0x40 MLOAD SWAP1 DUP2 ADD PUSH1 0x40 MSTORE DUP1 SWAP3 SWAP2 SWAP1 DUP2 DUP2 MSTORE PUSH1 0x20 ADD DUP3 DUP1 SLOAD PUSH1 0x1 DUP2 PUSH1 0x1 AND ISZERO PUSH2 0x100 MUL SUB AND PUSH1 0x2 SWAP1 DIV DUP1 ISZERO PUSH2 0xC94 JUMPI DUP1 PUSH1 0x1F LT PUSH2 0xC69 JUMPI PUSH2 0x100 DUP1 DUP4 SLOAD DIV MUL DUP4 MSTORE SWAP2 PUSH1 0x20 ADD SWAP2 PUSH2 0xC94 JUMP JUMPDEST DUP3 ADD SWAP2 SWAP1 PUSH1 0x0 MSTORE PUSH1 0x20 PUSH1 0x0 KECCAK256 SWAP1 JUMPDEST DUP2 SLOAD DUP2 MSTORE SWAP1 PUSH1 0x1 ADD SWAP1 PUSH1 0x20 ADD DUP1 DUP4 GT PUSH2 0xC77 JUMPI DUP3 SWAP1 SUB PUSH1 0x1F AND DUP3 ADD SWAP2 JUMPDEST POP POP POP POP POP SWAP1 POP SWAP1 JUMP JUMPDEST PUSH1 0x0 PUSH2 0xD61 PUSH2 0xCAB PUSH2 0xFCA JUMP JUMPDEST DUP5 PUSH2 0xD5C DUP6 PUSH1 0x40 MLOAD DUP1 PUSH1 0x60 ADD PUSH1 0x40 MSTORE DUP1 PUSH1 0x25 DUP2 MSTORE PUSH1 0x20 ADD PUSH2 0x1799 PUSH1 0x25 SWAP2 CODECOPY PUSH1 0x1 PUSH1 0x0 PUSH2 0xCD5 PUSH2 0xFCA JUMP JUMPDEST PUSH20 0xFFFFFFFFFFFFFFFFFFFFFFFFFFFFFFFFFFFFFFFF AND PUSH20 0xFFFFFFFFFFFFFFFFFFFFFFFFFFFFFFFFFFFFFFFF AND DUP2 MSTORE PUSH1 0x20 ADD SWAP1 DUP2 MSTORE PUSH1 0x20 ADD PUSH1 0x0 KECCAK256 PUSH1 0x0 DUP11 PUSH20 0xFFFFFFFFFFFFFFFFFFFFFFFFFFFFFFFFFFFFFFFF AND PUSH20 0xFFFFFFFFFFFFFFFFFFFFFFFFFFFFFFFFFFFFFFFF AND DUP2 MSTORE PUSH1 0x20 ADD SWAP1 DUP2 MSTORE PUSH1 0x20 ADD PUSH1 0x0 KECCAK256 SLOAD PUSH2 0x1325 SWAP1 SWAP3 SWAP2 SWAP1 PUSH4 0xFFFFFFFF AND JUMP JUMPDEST PUSH2 0xFD2 JUMP JUMPDEST PUSH1 0x1 SWAP1 POP SWAP3 SWAP2 POP POP JUMP JUMPDEST PUSH1 0x0 PUSH2 0xDC7 PUSH1 0x7 PUSH1 0x0 DUP5 PUSH20 0xFFFFFFFFFFFFFFFFFFFFFFFFFFFFFFFFFFFFFFFF AND PUSH20 0xFFFFFFFFFFFFFFFFFFFFFFFFFFFFFFFFFFFFFFFF AND DUP2 MSTORE PUSH1 0x20 ADD SWAP1 DUP2 MSTORE PUSH1 0x20 ADD PUSH1 0x0 KECCAK256 SLOAD PUSH2 0xDB9 DUP5 PUSH2 0xA33 JUMP JUMPDEST PUSH2 0x167D SWAP1 SWAP2 SWAP1 PUSH4 0xFFFFFFFF AND JUMP JUMPDEST SWAP1 POP SWAP2 SWAP1 POP JUMP JUMPDEST PUSH1 0x0 PUSH2 0xDE2 PUSH2 0xDDB PUSH2 0xFCA JUMP JUMPDEST DUP5 DUP5 PUSH2 0x11C9 JUMP JUMPDEST PUSH1 0x1 SWAP1 POP SWAP3 SWAP2 POP POP JUMP JUMPDEST PUSH1 0x0 PUSH1 0x7 PUSH1 0x0 DUP4 PUSH20 0xFFFFFFFFFFFFFFFFFFFFFFFFFFFFFFFFFFFFFFFF AND PUSH20 0xFFFFFFFFFFFFFFFFFFFFFFFFFFFFFFFFFFFFFFFF AND DUP2 MSTORE PUSH1 0x20 ADD SWAP1 DUP2 MSTORE PUSH1 0x20 ADD PUSH1 0x0 KECCAK256 SLOAD SWAP1 POP SWAP2 SWAP1 POP JUMP JUMPDEST PUSH1 0x0 PUSH1 0x1 PUSH1 0x0 DUP5 PUSH20 0xFFFFFFFFFFFFFFFFFFFFFFFFFFFFFFFFFFFFFFFF AND PUSH20 0xFFFFFFFFFFFFFFFFFFFFFFFFFFFFFFFFFFFFFFFF AND DUP2 MSTORE PUSH1 0x20 ADD SWAP1 DUP2 MSTORE PUSH1 0x20 ADD PUSH1 0x0 KECCAK256 PUSH1 0x0 DUP4 PUSH20 0xFFFFFFFFFFFFFFFFFFFFFFFFFFFFFFFFFFFFFFFF AND PUSH20 0xFFFFFFFFFFFFFFFFFFFFFFFFFFFFFFFFFFFFFFFF AND DUP2 MSTORE PUSH1 0x20 ADD SWAP1 DUP2 MSTORE PUSH1 0x20 ADD PUSH1 0x0 KECCAK256 SLOAD SWAP1 POP SWAP3 SWAP2 POP POP JUMP JUMPDEST PUSH1 0x0 DUP1 DUP4 EQ ISZERO PUSH2 0xECF JUMPI PUSH1 0x0 SWAP1 POP PUSH2 0xF3C JUMP JUMPDEST PUSH1 0x0 DUP3 DUP5 MUL SWAP1 POP DUP3 DUP5 DUP3 DUP2 PUSH2 0xEE0 JUMPI INVALID JUMPDEST DIV EQ PUSH2 0xF37 JUMPI PUSH1 0x40 MLOAD PUSH32 0x8C379A000000000000000000000000000000000000000000000000000000000 DUP2 MSTORE PUSH1 0x4 ADD DUP1 DUP1 PUSH1 0x20 ADD DUP3 DUP2 SUB DUP3 MSTORE PUSH1 0x21 DUP2 MSTORE PUSH1 0x20 ADD DUP1 PUSH2 0x172C PUSH1 0x21 SWAP2 CODECOPY PUSH1 0x40 ADD SWAP2 POP POP PUSH1 0x40 MLOAD DUP1 SWAP2 SUB SWAP1 REVERT JUMPDEST DUP1 SWAP2 POP POP JUMPDEST SWAP3 SWAP2 POP POP JUMP JUMPDEST PUSH1 0x0 DUP1 DUP3 DUP5 ADD SWAP1 POP DUP4 DUP2 LT ISZERO PUSH2 0xFC0 JUMPI PUSH1 0x40 MLOAD PUSH32 0x8C379A000000000000000000000000000000000000000000000000000000000 DUP2 MSTORE PUSH1 0x4 ADD DUP1 DUP1 PUSH1 0x20 ADD DUP3 DUP2 SUB DUP3 MSTORE PUSH1 0x1B DUP2 MSTORE PUSH1 0x20 ADD DUP1 PUSH32 0x536166654D6174683A206164646974696F6E206F766572666C6F770000000000 DUP2 MSTORE POP PUSH1 0x20 ADD SWAP2 POP POP PUSH1 0x40 MLOAD DUP1 SWAP2 SUB SWAP1 REVERT JUMPDEST DUP1 SWAP2 POP POP SWAP3 SWAP2 POP POP JUMP JUMPDEST PUSH1 0x0 CALLER SWAP1 POP SWAP1 JUMP JUMPDEST PUSH1 0x0 PUSH20 0xFFFFFFFFFFFFFFFFFFFFFFFFFFFFFFFFFFFFFFFF AND DUP4 PUSH20 0xFFFFFFFFFFFFFFFFFFFFFFFFFFFFFFFFFFFFFFFF AND EQ ISZERO PUSH2 0x1058 JUMPI PUSH1 0x40 MLOAD PUSH32 0x8C379A000000000000000000000000000000000000000000000000000000000 DUP2 MSTORE PUSH1 0x4 ADD DUP1 DUP1 PUSH1 0x20 ADD DUP3 DUP2 SUB DUP3 MSTORE PUSH1 0x24 DUP2 MSTORE PUSH1 0x20 ADD DUP1 PUSH2 0x1775 PUSH1 0x24 SWAP2 CODECOPY PUSH1 0x40 ADD SWAP2 POP POP PUSH1 0x40 MLOAD DUP1 SWAP2 SUB SWAP1 REVERT JUMPDEST PUSH1 0x0 PUSH20 0xFFFFFFFFFFFFFFFFFFFFFFFFFFFFFFFFFFFFFFFF AND DUP3 PUSH20 0xFFFFFFFFFFFFFFFFFFFFFFFFFFFFFFFFFFFFFFFF AND EQ ISZERO PUSH2 0x10DE JUMPI PUSH1 0x40 MLOAD PUSH32 0x8C379A000000000000000000000000000000000000000000000000000000000 DUP2 MSTORE PUSH1 0x4 ADD DUP1 DUP1 PUSH1 0x20 ADD DUP3 DUP2 SUB DUP3 MSTORE PUSH1 0x22 DUP2 MSTORE PUSH1 0x20 ADD DUP1 PUSH2 0x170A PUSH1 0x22 SWAP2 CODECOPY PUSH1 0x40 ADD SWAP2 POP POP PUSH1 0x40 MLOAD DUP1 SWAP2 SUB SWAP1 REVERT JUMPDEST DUP1 PUSH1 0x1 PUSH1 0x0 DUP6 PUSH20 0xFFFFFFFFFFFFFFFFFFFFFFFFFFFFFFFFFFFFFFFF AND PUSH20 0xFFFFFFFFFFFFFFFFFFFFFFFFFFFFFFFFFFFFFFFF AND DUP2 MSTORE PUSH1 0x20 ADD SWAP1 DUP2 MSTORE PUSH1 0x20 ADD PUSH1 0x0 KECCAK256 PUSH1 0x0 DUP5 PUSH20 0xFFFFFFFFFFFFFFFFFFFFFFFFFFFFFFFFFFFFFFFF AND PUSH20 0xFFFFFFFFFFFFFFFFFFFFFFFFFFFFFFFFFFFFFFFF AND DUP2 MSTORE PUSH1 0x20 ADD SWAP1 DUP2 MSTORE PUSH1 0x20 ADD PUSH1 0x0 KECCAK256 DUP2 SWAP1 SSTORE POP DUP2 PUSH20 0xFFFFFFFFFFFFFFFFFFFFFFFFFFFFFFFFFFFFFFFF AND DUP4 PUSH20 0xFFFFFFFFFFFFFFFFFFFFFFFFFFFFFFFFFFFFFFFF AND PUSH32 0x8C5BE1E5EBEC7D5BD14F71427D1E84F3DD0314C0F7B2291E5B200AC8C7C3B925 DUP4 PUSH1 0x40 MLOAD DUP1 DUP3 DUP2 MSTORE PUSH1 0x20 ADD SWAP2 POP POP PUSH1 0x40 MLOAD DUP1 SWAP2 SUB SWAP1 LOG3 POP POP POP JUMP JUMPDEST PUSH1 0x0 PUSH2 0x11D4 JUMPI PUSH1 0x0 DUP1 REVERT JUMPDEST PUSH1 0x0 PUSH2 0x11F3 PUSH2 0x11EE DUP4 PUSH1 0x5 SLOAD PUSH2 0xEBC SWAP1 SWAP2 SWAP1 PUSH4 0xFFFFFFFF AND JUMP JUMPDEST PUSH2 0x13E5 JUMP JUMPDEST SWAP1 POP PUSH2 0x1247 DUP2 PUSH1 0x6 PUSH1 0x0 DUP8 PUSH20 0xFFFFFFFFFFFFFFFFFFFFFFFFFFFFFFFFFFFFFFFF AND PUSH20 0xFFFFFFFFFFFFFFFFFFFFFFFFFFFFFFFFFFFFFFFF AND DUP2 MSTORE PUSH1 0x20 ADD SWAP1 DUP2 MSTORE PUSH1 0x20 ADD PUSH1 0x0 KECCAK256 SLOAD PUSH2 0x1402 SWAP1 SWAP2 SWAP1 PUSH4 0xFFFFFFFF AND JUMP JUMPDEST PUSH1 0x6 PUSH1 0x0 DUP7 PUSH20 0xFFFFFFFFFFFFFFFFFFFFFFFFFFFFFFFFFFFFFFFF AND PUSH20 0xFFFFFFFFFFFFFFFFFFFFFFFFFFFFFFFFFFFFFFFF AND DUP2 MSTORE PUSH1 0x20 ADD SWAP1 DUP2 MSTORE PUSH1 0x20 ADD PUSH1 0x0 KECCAK256 DUP2 SWAP1 SSTORE POP PUSH2 0x12DC DUP2 PUSH1 0x6 PUSH1 0x0 DUP7 PUSH20 0xFFFFFFFFFFFFFFFFFFFFFFFFFFFFFFFFFFFFFFFF AND PUSH20 0xFFFFFFFFFFFFFFFFFFFFFFFFFFFFFFFFFFFFFFFF AND DUP2 MSTORE PUSH1 0x20 ADD SWAP1 DUP2 MSTORE PUSH1 0x20 ADD PUSH1 0x0 KECCAK256 SLOAD PUSH2 0x16C7 SWAP1 SWAP2 SWAP1 PUSH4 0xFFFFFFFF AND JUMP JUMPDEST PUSH1 0x6 PUSH1 0x0 DUP6 PUSH20 0xFFFFFFFFFFFFFFFFFFFFFFFFFFFFFFFFFFFFFFFF AND PUSH20 0xFFFFFFFFFFFFFFFFFFFFFFFFFFFFFFFFFFFFFFFF AND DUP2 MSTORE PUSH1 0x20 ADD SWAP1 DUP2 MSTORE PUSH1 0x20 ADD PUSH1 0x0 KECCAK256 DUP2 SWAP1 SSTORE POP POP POP POP POP JUMP JUMPDEST PUSH1 0x0 DUP4 DUP4 GT ISZERO DUP3 SWAP1 PUSH2 0x13D2 JUMPI PUSH1 0x40 MLOAD PUSH32 0x8C379A000000000000000000000000000000000000000000000000000000000 DUP2 MSTORE PUSH1 0x4 ADD DUP1 DUP1 PUSH1 0x20 ADD DUP3 DUP2 SUB DUP3 MSTORE DUP4 DUP2 DUP2 MLOAD DUP2 MSTORE PUSH1 0x20 ADD SWAP2 POP DUP1 MLOAD SWAP1 PUSH1 0x20 ADD SWAP1 DUP1 DUP4 DUP4 PUSH1 0x0 JUMPDEST DUP4 DUP2 LT ISZERO PUSH2 0x1397 JUMPI DUP1 DUP3 ADD MLOAD DUP2 DUP5 ADD MSTORE PUSH1 0x20 DUP2 ADD SWAP1 POP PUSH2 0x137C JUMP JUMPDEST POP POP POP POP SWAP1 POP SWAP1 DUP2 ADD SWAP1 PUSH1 0x1F AND DUP1 ISZERO PUSH2 0x13C4 JUMPI DUP1 DUP3 SUB DUP1 MLOAD PUSH1 0x1 DUP4 PUSH1 0x20 SUB PUSH2 0x100 EXP SUB NOT AND DUP2 MSTORE PUSH1 0x20 ADD SWAP2 POP JUMPDEST POP SWAP3 POP POP POP PUSH1 0x40 MLOAD DUP1 SWAP2 SUB SWAP1 REVERT JUMPDEST POP PUSH1 0x0 DUP4 DUP6 SUB SWAP1 POP DUP1 SWAP2 POP POP SWAP4 SWAP3 POP POP POP JUMP JUMPDEST PUSH1 0x0 DUP1 DUP3 SWAP1 POP PUSH1 0x0 DUP2 SLT ISZERO PUSH2 0x13F9 JUMPI PUSH1 0x0 DUP1 REVERT JUMPDEST DUP1 SWAP2 POP POP SWAP2 SWAP1 POP JUMP JUMPDEST PUSH1 0x0 DUP1 DUP3 DUP5 ADD SWAP1 POP PUSH1 0x0 DUP4 SLT ISZERO DUP1 ISZERO PUSH2 0x141B JUMPI POP DUP4 DUP2 SLT ISZERO JUMPDEST DUP1 PUSH2 0x1431 JUMPI POP PUSH1 0x0 DUP4 SLT DUP1 ISZERO PUSH2 0x1430 JUMPI POP DUP4 DUP2 SLT JUMPDEST JUMPDEST PUSH2 0x143A JUMPI PUSH1 0x0 DUP1 REVERT JUMPDEST DUP1 SWAP2 POP POP SWAP3 SWAP2 POP POP JUMP JUMPDEST PUSH1 0x0 DUP1 DUP3 SLT ISZERO PUSH2 0x1453 JUMPI PUSH1 0x0 DUP1 REVERT JUMPDEST DUP2 SWAP1 POP SWAP2 SWAP1 POP JUMP JUMPDEST PUSH1 0x0 DUP1 PUSH2 0x1467 DUP4 PUSH2 0xD6B JUMP JUMPDEST SWAP1 POP PUSH1 0x0 DUP2 GT ISZERO PUSH2 0x1672 JUMPI PUSH2 0x14C4 DUP2 PUSH1 0x7 PUSH1 0x0 DUP7 PUSH20 0xFFFFFFFFFFFFFFFFFFFFFFFFFFFFFFFFFFFFFFFF AND PUSH20 0xFFFFFFFFFFFFFFFFFFFFFFFFFFFFFFFFFFFFFFFF AND DUP2 MSTORE PUSH1 0x20 ADD SWAP1 DUP2 MSTORE PUSH1 0x20 ADD PUSH1 0x0 KECCAK256 SLOAD PUSH2 0xF42 SWAP1 SWAP2 SWAP1 PUSH4 0xFFFFFFFF AND JUMP JUMPDEST PUSH1 0x7 PUSH1 0x0 DUP6 PUSH20 0xFFFFFFFFFFFFFFFFFFFFFFFFFFFFFFFFFFFFFFFF AND PUSH20 0xFFFFFFFFFFFFFFFFFFFFFFFFFFFFFFFFFFFFFFFF AND DUP2 MSTORE PUSH1 0x20 ADD SWAP1 DUP2 MSTORE PUSH1 0x20 ADD PUSH1 0x0 KECCAK256 DUP2 SWAP1 SSTORE POP DUP3 PUSH20 0xFFFFFFFFFFFFFFFFFFFFFFFFFFFFFFFFFFFFFFFF AND PUSH32 0xEE503BEE2BB6A87E57BC57DB795F98137327401A0E7B7CE42E37926CC1A9CA4D DUP3 PUSH1 0x40 MLOAD DUP1 DUP3 DUP2 MSTORE PUSH1 0x20 ADD SWAP2 POP POP PUSH1 0x40 MLOAD DUP1 SWAP2 SUB SWAP1 LOG2 PUSH1 0x0 DUP4 PUSH20 0xFFFFFFFFFFFFFFFFFFFFFFFFFFFFFFFFFFFFFFFF AND DUP3 PUSH2 0xBB8 SWAP1 PUSH1 0x40 MLOAD DUP1 PUSH1 0x0 ADD SWAP1 POP PUSH1 0x0 PUSH1 0x40 MLOAD DUP1 DUP4 SUB DUP2 DUP6 DUP9 DUP9 CALL SWAP4 POP POP POP POP RETURNDATASIZE DUP1 PUSH1 0x0 DUP2 EQ PUSH2 0x15BA JUMPI PUSH1 0x40 MLOAD SWAP2 POP PUSH1 0x1F NOT PUSH1 0x3F RETURNDATASIZE ADD AND DUP3 ADD PUSH1 0x40 MSTORE RETURNDATASIZE DUP3 MSTORE RETURNDATASIZE PUSH1 0x0 PUSH1 0x20 DUP5 ADD RETURNDATACOPY PUSH2 0x15BF JUMP JUMPDEST PUSH1 0x60 SWAP2 POP JUMPDEST POP POP SWAP1 POP DUP1 PUSH2 0x1668 JUMPI PUSH2 0x161A DUP3 PUSH1 0x7 PUSH1 0x0 DUP8 PUSH20 0xFFFFFFFFFFFFFFFFFFFFFFFFFFFFFFFFFFFFFFFF AND PUSH20 0xFFFFFFFFFFFFFFFFFFFFFFFFFFFFFFFFFFFFFFFF AND DUP2 MSTORE PUSH1 0x20 ADD SWAP1 DUP2 MSTORE PUSH1 0x20 ADD PUSH1 0x0 KECCAK256 SLOAD PUSH2 0x167D SWAP1 SWAP2 SWAP1 PUSH4 0xFFFFFFFF AND JUMP JUMPDEST PUSH1 0x7 PUSH1 0x0 DUP7 PUSH20 0xFFFFFFFFFFFFFFFFFFFFFFFFFFFFFFFFFFFFFFFF AND PUSH20 0xFFFFFFFFFFFFFFFFFFFFFFFFFFFFFFFFFFFFFFFF AND DUP2 MSTORE PUSH1 0x20 ADD SWAP1 DUP2 MSTORE PUSH1 0x20 ADD PUSH1 0x0 KECCAK256 DUP2 SWAP1 SSTORE POP PUSH1 0x0 SWAP3 POP POP POP PUSH2 0x1678 JUMP JUMPDEST DUP2 SWAP3 POP POP POP PUSH2 0x1678 JUMP JUMPDEST PUSH1 0x0 SWAP2 POP POP JUMPDEST SWAP2 SWAP1 POP JUMP JUMPDEST PUSH1 0x0 PUSH2 0x16BF DUP4 DUP4 PUSH1 0x40 MLOAD DUP1 PUSH1 0x40 ADD PUSH1 0x40 MSTORE DUP1 PUSH1 0x1E DUP2 MSTORE PUSH1 0x20 ADD PUSH32 0x536166654D6174683A207375627472616374696F6E206F766572666C6F770000 DUP2 MSTORE POP PUSH2 0x1325 JUMP JUMPDEST SWAP1 POP SWAP3 SWAP2 POP POP JUMP JUMPDEST PUSH1 0x0 DUP1 DUP3 DUP5 SUB SWAP1 POP PUSH1 0x0 DUP4 SLT ISZERO DUP1 ISZERO PUSH2 0x16E0 JUMPI POP DUP4 DUP2 SGT ISZERO JUMPDEST DUP1 PUSH2 0x16F6 JUMPI POP PUSH1 0x0 DUP4 SLT DUP1 ISZERO PUSH2 0x16F5 JUMPI POP DUP4 DUP2 SGT JUMPDEST JUMPDEST PUSH2 0x16FF JUMPI PUSH1 0x0 DUP1 REVERT JUMPDEST DUP1 SWAP2 POP POP SWAP3 SWAP2 POP POP JUMP INVALID GASLIMIT MSTORE NUMBER ORIGIN ADDRESS GASPRICE KECCAK256 PUSH2 0x7070 PUSH19 0x6F766520746F20746865207A65726F20616464 PUSH19 0x657373536166654D6174683A206D756C746970 PUSH13 0x69636174696F6E206F76657266 PUSH13 0x6F7745524332303A207472616E PUSH20 0x66657220616D6F756E7420657863656564732061 PUSH13 0x6C6F77616E636545524332303A KECCAK256 PUSH2 0x7070 PUSH19 0x6F76652066726F6D20746865207A65726F2061 PUSH5 0x6472657373 GASLIMIT MSTORE NUMBER ORIGIN ADDRESS GASPRICE KECCAK256 PUSH5 0x6563726561 PUSH20 0x656420616C6C6F77616E63652062656C6F77207A PUSH6 0x726FA2646970 PUSH7 0x735822122086BE CREATE2 0xB4 0xCA 0x4B PUSH12 0xA91E90F4E23CF3EA1909B5F5 0xD5 AND ADDMOD 0xCC EXTCODESIZE 0xF6 0xCA 0xDA STOP 0xEA PUSH25 0x434C64736F6C634300060C0033000000000000000000000000 "
				},
				"gasEstimates": {
					"creation": {
						"codeDepositCost": "1226200",
						"executionCost": "infinite",
						"totalCost": "infinite"
					},
					"external": {
						"accumulativeDividendOf(address)": "infinite",
						"allowance(address,address)": "1431",
						"approve(address,uint256)": "infinite",
						"balanceOf(address)": "1219",
						"decimals()": "286",
						"decreaseAllowance(address,uint256)": "infinite",
						"distributeDividends()": "infinite",
						"dividendOf(address)": "infinite",
						"increaseAllowance(address,uint256)": "infinite",
						"name()": "infinite",
						"symbol()": "infinite",
						"totalDividendsDistributed()": "1050",
						"totalSupply()": "1103",
						"transfer(address,uint256)": "399",
						"transferFrom(address,address,uint256)": "355",
						"withdrawDividend()": "infinite",
						"withdrawableDividendOf(address)": "infinite",
						"withdrawnDividendOf(address)": "1284"
					},
					"internal": {
						"_burn(address,uint256)": "infinite",
						"_mint(address,uint256)": "infinite",
						"_setBalance(address,uint256)": "infinite",
						"_transfer(address,address,uint256)": "23",
						"_withdrawDividendOfUser(address payable)": "infinite"
					}
				},
				"methodIdentifiers": {
					"accumulativeDividendOf(address)": "27ce0147",
					"allowance(address,address)": "dd62ed3e",
					"approve(address,uint256)": "095ea7b3",
					"balanceOf(address)": "70a08231",
					"decimals()": "313ce567",
					"decreaseAllowance(address,uint256)": "a457c2d7",
					"distributeDividends()": "03c83302",
					"dividendOf(address)": "91b89fba",
					"increaseAllowance(address,uint256)": "39509351",
					"name()": "06fdde03",
					"symbol()": "95d89b41",
					"totalDividendsDistributed()": "85a6b3ae",
					"totalSupply()": "18160ddd",
					"transfer(address,uint256)": "a9059cbb",
					"transferFrom(address,address,uint256)": "23b872dd",
					"withdrawDividend()": "6a474002",
					"withdrawableDividendOf(address)": "a8b9d240",
					"withdrawnDividendOf(address)": "aafd847a"
				}
			},
			"storageLayout": {
				"storage": [
					{
						"astId": 305,
						"contract": "contracts/dethDividendTracker.sol:DividendPayingToken",
						"label": "_balances",
						"offset": 0,
						"slot": "0",
						"type": "t_mapping(t_address,t_uint256)"
					},
					{
						"astId": 311,
						"contract": "contracts/dethDividendTracker.sol:DividendPayingToken",
						"label": "_allowances",
						"offset": 0,
						"slot": "1",
						"type": "t_mapping(t_address,t_mapping(t_address,t_uint256))"
					},
					{
						"astId": 313,
						"contract": "contracts/dethDividendTracker.sol:DividendPayingToken",
						"label": "_totalSupply",
						"offset": 0,
						"slot": "2",
						"type": "t_uint256"
					},
					{
						"astId": 315,
						"contract": "contracts/dethDividendTracker.sol:DividendPayingToken",
						"label": "_name",
						"offset": 0,
						"slot": "3",
						"type": "t_string_storage"
					},
					{
						"astId": 317,
						"contract": "contracts/dethDividendTracker.sol:DividendPayingToken",
						"label": "_symbol",
						"offset": 0,
						"slot": "4",
						"type": "t_string_storage"
					},
					{
						"astId": 1063,
						"contract": "contracts/dethDividendTracker.sol:DividendPayingToken",
						"label": "magnifiedDividendPerShare",
						"offset": 0,
						"slot": "5",
						"type": "t_uint256"
					},
					{
						"astId": 1067,
						"contract": "contracts/dethDividendTracker.sol:DividendPayingToken",
						"label": "magnifiedDividendCorrections",
						"offset": 0,
						"slot": "6",
						"type": "t_mapping(t_address,t_int256)"
					},
					{
						"astId": 1071,
						"contract": "contracts/dethDividendTracker.sol:DividendPayingToken",
						"label": "withdrawnDividends",
						"offset": 0,
						"slot": "7",
						"type": "t_mapping(t_address,t_uint256)"
					},
					{
						"astId": 1073,
						"contract": "contracts/dethDividendTracker.sol:DividendPayingToken",
						"label": "totalDividendsDistributed",
						"offset": 0,
						"slot": "8",
						"type": "t_uint256"
					}
				],
				"types": {
					"t_address": {
						"encoding": "inplace",
						"label": "address",
						"numberOfBytes": "20"
					},
					"t_int256": {
						"encoding": "inplace",
						"label": "int256",
						"numberOfBytes": "32"
					},
					"t_mapping(t_address,t_int256)": {
						"encoding": "mapping",
						"key": "t_address",
						"label": "mapping(address => int256)",
						"numberOfBytes": "32",
						"value": "t_int256"
					},
					"t_mapping(t_address,t_mapping(t_address,t_uint256))": {
						"encoding": "mapping",
						"key": "t_address",
						"label": "mapping(address => mapping(address => uint256))",
						"numberOfBytes": "32",
						"value": "t_mapping(t_address,t_uint256)"
					},
					"t_mapping(t_address,t_uint256)": {
						"encoding": "mapping",
						"key": "t_address",
						"label": "mapping(address => uint256)",
						"numberOfBytes": "32",
						"value": "t_uint256"
					},
					"t_string_storage": {
						"encoding": "bytes",
						"label": "string",
						"numberOfBytes": "32"
					},
					"t_uint256": {
						"encoding": "inplace",
						"label": "uint256",
						"numberOfBytes": "32"
					}
				}
			},
			"userdoc": {
				"kind": "user",
				"methods": {},
				"version": 1
			}
		}
	}
}