{
	"contracts/dETHRewardsPools.sol": {
		"dETHRewardPools": {
			"abi": [
				{
					"inputs": [
						{
							"internalType": "address",
							"name": "_deth",
							"type": "address"
						},
						{
							"internalType": "uint256",
							"name": "_poolStartTime",
							"type": "uint256"
						},
						{
							"internalType": "uint16",
							"name": "_depositFeeBP",
							"type": "uint16"
						},
						{
							"internalType": "address",
							"name": "_depositfeeAddress",
							"type": "address"
						}
					],
					"stateMutability": "nonpayable",
					"type": "constructor"
				},
				{
					"anonymous": false,
					"inputs": [
						{
							"indexed": true,
							"internalType": "address",
							"name": "user",
							"type": "address"
						},
						{
							"indexed": true,
							"internalType": "uint256",
							"name": "pid",
							"type": "uint256"
						},
						{
							"indexed": false,
							"internalType": "uint256",
							"name": "amount",
							"type": "uint256"
						}
					],
					"name": "Deposit",
					"type": "event"
				},
				{
					"anonymous": false,
					"inputs": [
						{
							"indexed": true,
							"internalType": "address",
							"name": "user",
							"type": "address"
						},
						{
							"indexed": true,
							"internalType": "uint256",
							"name": "pid",
							"type": "uint256"
						},
						{
							"indexed": false,
							"internalType": "uint256",
							"name": "amount",
							"type": "uint256"
						}
					],
					"name": "EmergencyWithdraw",
					"type": "event"
				},
				{
					"anonymous": false,
					"inputs": [
						{
							"indexed": true,
							"internalType": "address",
							"name": "user",
							"type": "address"
						},
						{
							"indexed": false,
							"internalType": "uint256",
							"name": "amount",
							"type": "uint256"
						}
					],
					"name": "RewardPaid",
					"type": "event"
				},
				{
					"anonymous": false,
					"inputs": [
						{
							"indexed": true,
							"internalType": "address",
							"name": "user",
							"type": "address"
						},
						{
							"indexed": true,
							"internalType": "uint256",
							"name": "pid",
							"type": "uint256"
						},
						{
							"indexed": false,
							"internalType": "uint256",
							"name": "amount",
							"type": "uint256"
						}
					],
					"name": "Withdraw",
					"type": "event"
				},
				{
					"anonymous": false,
					"inputs": [
						{
							"indexed": true,
							"internalType": "uint256",
							"name": "pid",
							"type": "uint256"
						},
						{
							"indexed": false,
							"internalType": "address",
							"name": "lpToken",
							"type": "address"
						},
						{
							"indexed": false,
							"internalType": "uint256",
							"name": "allocPoint",
							"type": "uint256"
						},
						{
							"indexed": false,
							"internalType": "uint256",
							"name": "depositFeeBP",
							"type": "uint256"
						}
					],
					"name": "setPool",
					"type": "event"
				},
				{
					"inputs": [],
					"name": "TOTAL_REWARDS",
					"outputs": [
						{
							"internalType": "uint256",
							"name": "",
							"type": "uint256"
						}
					],
					"stateMutability": "view",
					"type": "function"
				},
				{
					"inputs": [
						{
							"internalType": "uint256",
							"name": "_allocPoint",
							"type": "uint256"
						},
						{
							"internalType": "contract IERC20",
							"name": "_token",
							"type": "address"
						},
						{
							"internalType": "bool",
							"name": "_withUpdate",
							"type": "bool"
						},
						{
							"internalType": "uint16",
							"name": "_depositFeeBP",
							"type": "uint16"
						},
						{
							"internalType": "uint256",
							"name": "_lastRewardTime",
							"type": "uint256"
						}
					],
					"name": "add",
					"outputs": [],
					"stateMutability": "nonpayable",
					"type": "function"
				},
				{
					"inputs": [
						{
							"internalType": "uint256",
							"name": "_pid",
							"type": "uint256"
						},
						{
							"internalType": "uint256",
							"name": "_amount",
							"type": "uint256"
						}
					],
					"name": "deposit",
					"outputs": [],
					"stateMutability": "nonpayable",
					"type": "function"
				},
				{
					"inputs": [],
					"name": "deth",
					"outputs": [
						{
							"internalType": "contract IERC20",
							"name": "",
							"type": "address"
						}
					],
					"stateMutability": "view",
					"type": "function"
				},
				{
					"inputs": [],
					"name": "dethPerSecond",
					"outputs": [
						{
							"internalType": "uint256",
							"name": "",
							"type": "uint256"
						}
					],
					"stateMutability": "view",
					"type": "function"
				},
				{
					"inputs": [
						{
							"internalType": "uint256",
							"name": "_pid",
							"type": "uint256"
						}
					],
					"name": "emergencyWithdraw",
					"outputs": [],
					"stateMutability": "nonpayable",
					"type": "function"
				},
				{
					"inputs": [],
					"name": "feeAddress",
					"outputs": [
						{
							"internalType": "address",
							"name": "",
							"type": "address"
						}
					],
					"stateMutability": "view",
					"type": "function"
				},
				{
					"inputs": [
						{
							"internalType": "uint256",
							"name": "_fromTime",
							"type": "uint256"
						},
						{
							"internalType": "uint256",
							"name": "_toTime",
							"type": "uint256"
						}
					],
					"name": "getGeneratedReward",
					"outputs": [
						{
							"internalType": "uint256",
							"name": "",
							"type": "uint256"
						}
					],
					"stateMutability": "view",
					"type": "function"
				},
				{
					"inputs": [
						{
							"internalType": "contract IERC20",
							"name": "_token",
							"type": "address"
						},
						{
							"internalType": "uint256",
							"name": "amount",
							"type": "uint256"
						},
						{
							"internalType": "address",
							"name": "to",
							"type": "address"
						}
					],
					"name": "governanceRecoverUnsupported",
					"outputs": [],
					"stateMutability": "nonpayable",
					"type": "function"
				},
				{
					"inputs": [],
					"name": "massUpdatePools",
					"outputs": [],
					"stateMutability": "nonpayable",
					"type": "function"
				},
				{
					"inputs": [],
					"name": "operator",
					"outputs": [
						{
							"internalType": "address",
							"name": "",
							"type": "address"
						}
					],
					"stateMutability": "view",
					"type": "function"
				},
				{
					"inputs": [
						{
							"internalType": "uint256",
							"name": "_pid",
							"type": "uint256"
						},
						{
							"internalType": "address",
							"name": "_user",
							"type": "address"
						}
					],
					"name": "pendingdETH",
					"outputs": [
						{
							"internalType": "uint256",
							"name": "",
							"type": "uint256"
						}
					],
					"stateMutability": "view",
					"type": "function"
				},
				{
					"inputs": [],
					"name": "poolEndTime",
					"outputs": [
						{
							"internalType": "uint256",
							"name": "",
							"type": "uint256"
						}
					],
					"stateMutability": "view",
					"type": "function"
				},
				{
					"inputs": [
						{
							"internalType": "uint256",
							"name": "",
							"type": "uint256"
						}
					],
					"name": "poolInfo",
					"outputs": [
						{
							"internalType": "contract IERC20",
							"name": "token",
							"type": "address"
						},
						{
							"internalType": "uint256",
							"name": "allocPoint",
							"type": "uint256"
						},
						{
							"internalType": "uint256",
							"name": "lastRewardTime",
							"type": "uint256"
						},
						{
							"internalType": "uint256",
							"name": "accDETHPerShare",
							"type": "uint256"
						},
						{
							"internalType": "uint16",
							"name": "depositFeeBP",
							"type": "uint16"
						},
						{
							"internalType": "bool",
							"name": "isStarted",
							"type": "bool"
						}
					],
					"stateMutability": "view",
					"type": "function"
				},
				{
					"inputs": [],
					"name": "poolStartTime",
					"outputs": [
						{
							"internalType": "uint256",
							"name": "",
							"type": "uint256"
						}
					],
					"stateMutability": "view",
					"type": "function"
				},
				{
					"inputs": [],
					"name": "runningTime",
					"outputs": [
						{
							"internalType": "uint256",
							"name": "",
							"type": "uint256"
						}
					],
					"stateMutability": "view",
					"type": "function"
				},
				{
					"inputs": [
						{
							"internalType": "uint256",
							"name": "_pid",
							"type": "uint256"
						},
						{
							"internalType": "uint256",
							"name": "_allocPoint",
							"type": "uint256"
						},
						{
							"internalType": "uint16",
							"name": "_depositFeeBP",
							"type": "uint16"
						}
					],
					"name": "set",
					"outputs": [],
					"stateMutability": "nonpayable",
					"type": "function"
				},
				{
					"inputs": [
						{
							"internalType": "uint16",
							"name": "_globalDepositFeeBP",
							"type": "uint16"
						}
					],
					"name": "setGlobalDepositFee",
					"outputs": [],
					"stateMutability": "nonpayable",
					"type": "function"
				},
				{
					"inputs": [
						{
							"internalType": "address",
							"name": "_operator",
							"type": "address"
						}
					],
					"name": "setOperator",
					"outputs": [],
					"stateMutability": "nonpayable",
					"type": "function"
				},
				{
					"inputs": [],
					"name": "totalAllocPoint",
					"outputs": [
						{
							"internalType": "uint256",
							"name": "",
							"type": "uint256"
						}
					],
					"stateMutability": "view",
					"type": "function"
				},
				{
					"inputs": [
						{
							"internalType": "uint256",
							"name": "_pid",
							"type": "uint256"
						}
					],
					"name": "updatePool",
					"outputs": [],
					"stateMutability": "nonpayable",
					"type": "function"
				},
				{
					"inputs": [
						{
							"internalType": "uint256",
							"name": "",
							"type": "uint256"
						},
						{
							"internalType": "address",
							"name": "",
							"type": "address"
						}
					],
					"name": "userInfo",
					"outputs": [
						{
							"internalType": "uint256",
							"name": "amount",
							"type": "uint256"
						},
						{
							"internalType": "uint256",
							"name": "rewardDebt",
							"type": "uint256"
						}
					],
					"stateMutability": "view",
					"type": "function"
				},
				{
					"inputs": [
						{
							"internalType": "uint256",
							"name": "_pid",
							"type": "uint256"
						},
						{
							"internalType": "uint256",
							"name": "_amount",
							"type": "uint256"
						}
					],
					"name": "withdraw",
					"outputs": [],
					"stateMutability": "nonpayable",
					"type": "function"
				}
			],
			"devdoc": {
				"kind": "dev",
				"methods": {},
				"version": 1
			},
			"evm": {
				"assembly": "    /* \"contracts/dETHRewardsPools.sol\":400:12233  contract dETHRewardPools {... */\n  mstore(0x40, 0x80)\n    /* \"contracts/dETHRewardsPools.sol\":1596:1597  0 */\n  0x00\n    /* \"contracts/dETHRewardsPools.sol\":1563:1597  uint256 public totalAllocPoint = 0 */\n  0x05\n  sstore\n    /* \"contracts/dETHRewardsPools.sol\":1809:1830  0.3991060025542 ether */\n  0x0589e8cb75f81fc0\n    /* \"contracts/dETHRewardsPools.sol\":1778:1830  uint256 public dethPerSecond = 0.3991060025542 ether */\n  0x08\n  sstore\n    /* \"contracts/dETHRewardsPools.sol\":1902:1910  115 days */\n  0x979c80\n    /* \"contracts/dETHRewardsPools.sol\":1873:1910  uint256 public runningTime = 115 days */\n  0x09\n  sstore\n    /* \"contracts/dETHRewardsPools.sol\":2446:2929  constructor(... */\n  callvalue\n  dup1\n  iszero\n  tag_1\n  jumpi\n  0x00\n  dup1\n  revert\ntag_1:\n  pop\n  mload(0x40)\n  sub(codesize, bytecodeSize)\n  dup1\n  bytecodeSize\n  dup4\n  codecopy\n  dup2\n  add\n  0x40\n  dup2\n  swap1\n  mstore\n  tag_2\n  swap2\n  tag_3\n  jump\t// in\ntag_2:\n    /* \"contracts/dETHRewardsPools.sol\":2634:2648  _poolStartTime */\n  dup3\n    /* \"contracts/dETHRewardsPools.sol\":2616:2631  block.timestamp */\n  timestamp\n    /* \"contracts/dETHRewardsPools.sol\":2616:2648  block.timestamp < _poolStartTime */\n  lt\n    /* \"contracts/dETHRewardsPools.sol\":2608:2657  require(block.timestamp < _poolStartTime, \"late\") */\n  tag_6\n  jumpi\n  mload(0x40)\n  shl(0xe5, 0x461bcd)\n  dup2\n  mstore\n  0x04\n  add\n  tag_7\n  swap1\n    /* \"#utility.yul\":911:913   */\n  0x20\n    /* \"#utility.yul\":893:914   */\n  dup1\n  dup3\n  mstore\n    /* \"#utility.yul\":950:951   */\n  0x04\n    /* \"#utility.yul\":930:948   */\n  swap1\n  dup3\n  add\n    /* \"#utility.yul\":923:952   */\n  mstore\n  shl(0xe0, 0x6c617465)\n    /* \"#utility.yul\":983:985   */\n  0x40\n    /* \"#utility.yul\":968:986   */\n  dup3\n  add\n    /* \"#utility.yul\":961:995   */\n  mstore\n    /* \"#utility.yul\":1027:1029   */\n  0x60\n    /* \"#utility.yul\":1012:1030   */\n  add\n  swap1\n    /* \"#utility.yul\":709:1036   */\n  jump\n    /* \"contracts/dETHRewardsPools.sol\":2608:2657  require(block.timestamp < _poolStartTime, \"late\") */\ntag_7:\n  mload(0x40)\n  dup1\n  swap2\n  sub\n  swap1\n  revert\ntag_6:\n  sub(shl(0xa0, 0x01), 0x01)\n    /* \"contracts/dETHRewardsPools.sol\":2672:2691  _deth != address(0) */\n  dup5\n  and\n  iszero\n    /* \"contracts/dETHRewardsPools.sol\":2668:2713  if (_deth != address(0)) deth = IERC20(_deth) */\n  tag_9\n  jumpi\n    /* \"contracts/dETHRewardsPools.sol\":2693:2697  deth */\n  0x01\n    /* \"contracts/dETHRewardsPools.sol\":2693:2713  deth = IERC20(_deth) */\n  dup1\n  sload\n  not(sub(shl(0xa0, 0x01), 0x01))\n  and\n  sub(shl(0xa0, 0x01), 0x01)\n  dup7\n  and\n  or\n  swap1\n  sstore\n    /* \"contracts/dETHRewardsPools.sol\":2668:2713  if (_deth != address(0)) deth = IERC20(_deth) */\ntag_9:\n    /* \"contracts/dETHRewardsPools.sol\":2724:2737  poolStartTime */\n  0x06\n    /* \"contracts/dETHRewardsPools.sol\":2724:2754  poolStartTime = _poolStartTime */\n  dup4\n  swap1\n  sstore\n    /* \"contracts/dETHRewardsPools.sol\":2795:2806  runningTime */\n  sload(0x09)\n    /* \"contracts/dETHRewardsPools.sol\":2779:2806  poolStartTime + runningTime */\n  tag_10\n  swap1\n    /* \"contracts/dETHRewardsPools.sol\":2740:2754  _poolStartTime */\n  dup5\n    /* \"contracts/dETHRewardsPools.sol\":2779:2806  poolStartTime + runningTime */\n  tag_11\n  jump\t// in\ntag_10:\n    /* \"contracts/dETHRewardsPools.sol\":2765:2776  poolEndTime */\n  0x07\n    /* \"contracts/dETHRewardsPools.sol\":2765:2806  poolEndTime = poolStartTime + runningTime */\n  sstore\n    /* \"contracts/dETHRewardsPools.sol\":2817:2829  depositFeeBP */\n  0x0a\n    /* \"contracts/dETHRewardsPools.sol\":2817:2845  depositFeeBP = _depositFeeBP */\n  dup1\n  sload\n  0xffff\n  swap1\n  swap4\n  and\n  not(0xffff)\n  swap1\n  swap4\n  and\n  swap3\n  swap1\n  swap3\n  or\n  swap1\n  swap2\n  sstore\n    /* \"contracts/dETHRewardsPools.sol\":2858:2868  feeAddress */\n  0x02\n    /* \"contracts/dETHRewardsPools.sol\":2858:2889  feeAddress = _depositfeeAddress */\n  dup1\n  sload\n  sub(shl(0xa0, 0x01), 0x01)\n  swap1\n  swap3\n  and\n  not(sub(shl(0xa0, 0x01), 0x01))\n  swap3\n  dup4\n  and\n  or\n  swap1\n  sstore\n    /* \"contracts/dETHRewardsPools.sol\":2817:2829  depositFeeBP */\n  0x00\n    /* \"contracts/dETHRewardsPools.sol\":2900:2921  operator = msg.sender */\n  dup1\n  sload\n  swap1\n  swap2\n  and\n    /* \"contracts/dETHRewardsPools.sol\":2911:2921  msg.sender */\n  caller\n    /* \"contracts/dETHRewardsPools.sol\":2900:2921  operator = msg.sender */\n  or\n  swap1\n  sstore\n  pop\n    /* \"contracts/dETHRewardsPools.sol\":400:12233  contract dETHRewardPools {... */\n  tag_14\n  swap1\n  pop\n  jump\n    /* \"#utility.yul\":14:191   */\ntag_13:\n    /* \"#utility.yul\":93:106   */\n  dup1\n  mload\n  sub(shl(0xa0, 0x01), 0x01)\n    /* \"#utility.yul\":135:166   */\n  dup2\n  and\n    /* \"#utility.yul\":125:167   */\n  dup2\n  eq\n    /* \"#utility.yul\":115:185   */\n  tag_16\n  jumpi\n    /* \"#utility.yul\":181:182   */\n  0x00\n    /* \"#utility.yul\":178:179   */\n  dup1\n    /* \"#utility.yul\":171:183   */\n  revert\n    /* \"#utility.yul\":115:185   */\ntag_16:\n    /* \"#utility.yul\":14:191   */\n  swap2\n  swap1\n  pop\n  jump\t// out\n    /* \"#utility.yul\":196:704   */\ntag_3:\n    /* \"#utility.yul\":292:298   */\n  0x00\n    /* \"#utility.yul\":300:306   */\n  dup1\n    /* \"#utility.yul\":308:314   */\n  0x00\n    /* \"#utility.yul\":316:322   */\n  dup1\n    /* \"#utility.yul\":369:372   */\n  0x80\n    /* \"#utility.yul\":357:366   */\n  dup6\n    /* \"#utility.yul\":348:355   */\n  dup8\n    /* \"#utility.yul\":344:367   */\n  sub\n    /* \"#utility.yul\":340:373   */\n  slt\n    /* \"#utility.yul\":337:390   */\n  iszero\n  tag_18\n  jumpi\n    /* \"#utility.yul\":386:387   */\n  0x00\n    /* \"#utility.yul\":383:384   */\n  dup1\n    /* \"#utility.yul\":376:388   */\n  revert\n    /* \"#utility.yul\":337:390   */\ntag_18:\n    /* \"#utility.yul\":409:449   */\n  tag_19\n    /* \"#utility.yul\":439:448   */\n  dup6\n    /* \"#utility.yul\":409:449   */\n  tag_13\n  jump\t// in\ntag_19:\n    /* \"#utility.yul\":399:449   */\n  swap4\n  pop\n    /* \"#utility.yul\":489:491   */\n  0x20\n    /* \"#utility.yul\":478:487   */\n  dup6\n    /* \"#utility.yul\":474:492   */\n  add\n    /* \"#utility.yul\":468:493   */\n  mload\n    /* \"#utility.yul\":458:493   */\n  swap3\n  pop\n    /* \"#utility.yul\":536:538   */\n  0x40\n    /* \"#utility.yul\":525:534   */\n  dup6\n    /* \"#utility.yul\":521:539   */\n  add\n    /* \"#utility.yul\":515:540   */\n  mload\n    /* \"#utility.yul\":580:586   */\n  0xffff\n    /* \"#utility.yul\":573:578   */\n  dup2\n    /* \"#utility.yul\":569:587   */\n  and\n    /* \"#utility.yul\":562:567   */\n  dup2\n    /* \"#utility.yul\":559:588   */\n  eq\n    /* \"#utility.yul\":549:606   */\n  tag_20\n  jumpi\n    /* \"#utility.yul\":602:603   */\n  0x00\n    /* \"#utility.yul\":599:600   */\n  dup1\n    /* \"#utility.yul\":592:604   */\n  revert\n    /* \"#utility.yul\":549:606   */\ntag_20:\n    /* \"#utility.yul\":625:630   */\n  swap2\n  pop\n    /* \"#utility.yul\":649:698   */\n  tag_21\n    /* \"#utility.yul\":694:696   */\n  0x60\n    /* \"#utility.yul\":679:697   */\n  dup7\n  add\n    /* \"#utility.yul\":649:698   */\n  tag_13\n  jump\t// in\ntag_21:\n    /* \"#utility.yul\":639:698   */\n  swap1\n  pop\n    /* \"#utility.yul\":196:704   */\n  swap3\n  swap6\n  swap2\n  swap5\n  pop\n  swap3\n  pop\n  jump\t// out\n    /* \"#utility.yul\":1041:1263   */\ntag_11:\n    /* \"#utility.yul\":1106:1115   */\n  dup1\n  dup3\n  add\n    /* \"#utility.yul\":1127:1137   */\n  dup1\n  dup3\n  gt\n    /* \"#utility.yul\":1124:1257   */\n  iszero\n  tag_24\n  jumpi\n    /* \"#utility.yul\":1179:1189   */\n  0x4e487b71\n    /* \"#utility.yul\":1174:1177   */\n  0xe0\n    /* \"#utility.yul\":1170:1190   */\n  shl\n    /* \"#utility.yul\":1167:1168   */\n  0x00\n    /* \"#utility.yul\":1160:1191   */\n  mstore\n    /* \"#utility.yul\":1214:1218   */\n  0x11\n    /* \"#utility.yul\":1211:1212   */\n  0x04\n    /* \"#utility.yul\":1204:1219   */\n  mstore\n    /* \"#utility.yul\":1242:1246   */\n  0x24\n    /* \"#utility.yul\":1239:1240   */\n  0x00\n    /* \"#utility.yul\":1232:1247   */\n  revert\n    /* \"#utility.yul\":1124:1257   */\ntag_24:\n    /* \"#utility.yul\":1041:1263   */\n  swap3\n  swap2\n  pop\n  pop\n  jump\t// out\ntag_14:\n    /* \"contracts/dETHRewardsPools.sol\":400:12233  contract dETHRewardPools {... */\n  dataSize(sub_0)\n  dup1\n  dataOffset(sub_0)\n  0x00\n  codecopy\n  0x00\n  return\nstop\n\nsub_0: assembly {\n        /* \"contracts/dETHRewardsPools.sol\":400:12233  contract dETHRewardPools {... */\n      mstore(0x40, 0x80)\n      callvalue\n      dup1\n      iszero\n      tag_1\n      jumpi\n      0x00\n      dup1\n      revert\n    tag_1:\n      pop\n      jumpi(tag_2, lt(calldatasize, 0x04))\n      shr(0xe0, calldataload(0x00))\n      dup1\n      0x54575af4\n      gt\n      tag_26\n      jumpi\n      dup1\n      0x943f013d\n      gt\n      tag_27\n      jumpi\n      dup1\n      0x943f013d\n      eq\n      tag_20\n      jumpi\n      dup1\n      0xb3ab15fb\n      eq\n      tag_21\n      jumpi\n      dup1\n      0xd18ccd89\n      eq\n      tag_22\n      jumpi\n      dup1\n      0xdc9e5dea\n      eq\n      tag_23\n      jumpi\n      dup1\n      0xe2bbb158\n      eq\n      tag_24\n      jumpi\n      dup1\n      0xecb1ab54\n      eq\n      tag_25\n      jumpi\n      0x00\n      dup1\n      revert\n    tag_27:\n      dup1\n      0x54575af4\n      eq\n      tag_14\n      jumpi\n      dup1\n      0x570ca735\n      eq\n      tag_15\n      jumpi\n      dup1\n      0x5f96dc11\n      eq\n      tag_16\n      jumpi\n      dup1\n      0x630b5ba1\n      eq\n      tag_17\n      jumpi\n      dup1\n      0x6e271dd5\n      eq\n      tag_18\n      jumpi\n      dup1\n      0x93f1a40b\n      eq\n      tag_19\n      jumpi\n      0x00\n      dup1\n      revert\n    tag_26:\n      dup1\n      0x231f0c6a\n      gt\n      tag_28\n      jumpi\n      dup1\n      0x231f0c6a\n      eq\n      tag_8\n      jumpi\n      dup1\n      0x24bcb38c\n      eq\n      tag_9\n      jumpi\n      dup1\n      0x41275358\n      eq\n      tag_10\n      jumpi\n      dup1\n      0x441a3e70\n      eq\n      tag_11\n      jumpi\n      dup1\n      0x51eb05a6\n      eq\n      tag_12\n      jumpi\n      dup1\n      0x5312ea8e\n      eq\n      tag_13\n      jumpi\n      0x00\n      dup1\n      revert\n    tag_28:\n      dup1\n      0x08bee642\n      eq\n      tag_3\n      jumpi\n      dup1\n      0x09cf6091\n      eq\n      tag_4\n      jumpi\n      dup1\n      0x1526fe27\n      eq\n      tag_5\n      jumpi\n      dup1\n      0x17caf6f1\n      eq\n      tag_6\n      jumpi\n      dup1\n      0x1e8fa23a\n      eq\n      tag_7\n      jumpi\n    tag_2:\n      0x00\n      dup1\n      revert\n        /* \"contracts/dETHRewardsPools.sol\":3415:4729  function add(... */\n    tag_3:\n      tag_29\n      tag_30\n      calldatasize\n      0x04\n      tag_31\n      jump\t// in\n    tag_30:\n      tag_32\n      jump\t// in\n    tag_29:\n      stop\n        /* \"contracts/dETHRewardsPools.sol\":1927:1980  uint256 public constant TOTAL_REWARDS = 5000000 ether */\n    tag_4:\n      tag_33\n        /* \"contracts/dETHRewardsPools.sol\":1967:1980  5000000 ether */\n      0x0422ca8b0a00a425000000\n        /* \"contracts/dETHRewardsPools.sol\":1927:1980  uint256 public constant TOTAL_REWARDS = 5000000 ether */\n      dup2\n      jump\n    tag_33:\n      mload(0x40)\n        /* \"#utility.yul\":1209:1234   */\n      swap1\n      dup2\n      mstore\n        /* \"#utility.yul\":1197:1199   */\n      0x20\n        /* \"#utility.yul\":1182:1200   */\n      add\n        /* \"contracts/dETHRewardsPools.sol\":1927:1980  uint256 public constant TOTAL_REWARDS = 5000000 ether */\n    tag_35:\n      mload(0x40)\n      dup1\n      swap2\n      sub\n      swap1\n      return\n        /* \"contracts/dETHRewardsPools.sol\":1318:1344  PoolInfo[] public poolInfo */\n    tag_5:\n      tag_37\n      tag_38\n      calldatasize\n      0x04\n      tag_39\n      jump\t// in\n    tag_38:\n      tag_40\n      jump\t// in\n    tag_37:\n      0x40\n      dup1\n      mload\n      sub(shl(0xa0, 0x01), 0x01)\n        /* \"#utility.yul\":1740:1772   */\n      swap1\n      swap8\n      and\n        /* \"#utility.yul\":1722:1773   */\n      dup8\n      mstore\n        /* \"#utility.yul\":1804:1806   */\n      0x20\n        /* \"#utility.yul\":1789:1807   */\n      dup8\n      add\n        /* \"#utility.yul\":1782:1816   */\n      swap6\n      swap1\n      swap6\n      mstore\n        /* \"#utility.yul\":1832:1850   */\n      swap4\n      dup6\n      add\n        /* \"#utility.yul\":1825:1859   */\n      swap3\n      swap1\n      swap3\n      mstore\n        /* \"#utility.yul\":1890:1892   */\n      0x60\n        /* \"#utility.yul\":1875:1893   */\n      dup5\n      add\n        /* \"#utility.yul\":1868:1902   */\n      mstore\n        /* \"#utility.yul\":1951:1957   */\n      0xffff\n        /* \"#utility.yul\":1939:1958   */\n      and\n        /* \"#utility.yul\":1933:1936   */\n      0x80\n        /* \"#utility.yul\":1918:1937   */\n      dup4\n      add\n        /* \"#utility.yul\":1911:1959   */\n      mstore\n        /* \"#utility.yul\":2003:2017   */\n      iszero\n        /* \"#utility.yul\":1996:2018   */\n      iszero\n        /* \"#utility.yul\":1760:1763   */\n      0xa0\n        /* \"#utility.yul\":1975:1994   */\n      dup3\n      add\n        /* \"#utility.yul\":1968:2019   */\n      mstore\n        /* \"#utility.yul\":1709:1712   */\n      0xc0\n        /* \"#utility.yul\":1694:1713   */\n      add\n        /* \"contracts/dETHRewardsPools.sol\":1318:1344  PoolInfo[] public poolInfo */\n      tag_35\n        /* \"#utility.yul\":1430:2025   */\n      jump\n        /* \"contracts/dETHRewardsPools.sol\":1563:1597  uint256 public totalAllocPoint = 0 */\n    tag_6:\n      tag_33\n      sload(0x05)\n      dup2\n      jump\n        /* \"contracts/dETHRewardsPools.sol\":6513:7284  function pendingdETH(uint256 _pid, address _user) external view returns (uint256) {... */\n    tag_7:\n      tag_33\n      tag_47\n      calldatasize\n      0x04\n      tag_48\n      jump\t// in\n    tag_47:\n      tag_49\n      jump\t// in\n        /* \"contracts/dETHRewardsPools.sol\":5796:6449  function getGeneratedReward(uint256 _fromTime, uint256 _toTime) public view returns (uint256) {... */\n    tag_8:\n      tag_33\n      tag_52\n      calldatasize\n      0x04\n      tag_53\n      jump\t// in\n    tag_52:\n      tag_54\n      jump\t// in\n        /* \"contracts/dETHRewardsPools.sol\":4826:5290  function set(uint256 _pid, uint256 _allocPoint, uint16 _depositFeeBP) public onlyOperator {... */\n    tag_9:\n      tag_29\n      tag_57\n      calldatasize\n      0x04\n      tag_58\n      jump\t// in\n    tag_57:\n      tag_59\n      jump\t// in\n        /* \"contracts/dETHRewardsPools.sol\":1257:1282  address public feeAddress */\n    tag_10:\n      sload(0x02)\n      tag_60\n      swap1\n      sub(shl(0xa0, 0x01), 0x01)\n      and\n      dup2\n      jump\n    tag_60:\n      mload(0x40)\n      sub(shl(0xa0, 0x01), 0x01)\n        /* \"#utility.yul\":3100:3132   */\n      swap1\n      swap2\n      and\n        /* \"#utility.yul\":3082:3133   */\n      dup2\n      mstore\n        /* \"#utility.yul\":3070:3072   */\n      0x20\n        /* \"#utility.yul\":3055:3073   */\n      add\n        /* \"contracts/dETHRewardsPools.sol\":1257:1282  address public feeAddress */\n      tag_35\n        /* \"#utility.yul\":2936:3139   */\n      jump\n        /* \"contracts/dETHRewardsPools.sol\":9737:10547  function withdraw(uint256 _pid, uint256 _amount) public {... */\n    tag_11:\n      tag_29\n      tag_65\n      calldatasize\n      0x04\n      tag_53\n      jump\t// in\n    tag_65:\n      tag_66\n      jump\t// in\n        /* \"contracts/dETHRewardsPools.sol\":7623:8531  function updatePool(uint256 _pid) public {... */\n    tag_12:\n      tag_29\n      tag_68\n      calldatasize\n      0x04\n      tag_39\n      jump\t// in\n    tag_68:\n      tag_69\n      jump\t// in\n        /* \"contracts/dETHRewardsPools.sol\":10618:10995  function emergencyWithdraw(uint256 _pid) public {... */\n    tag_13:\n      tag_29\n      tag_71\n      calldatasize\n      0x04\n      tag_39\n      jump\t// in\n    tag_71:\n      tag_72\n      jump\t// in\n        /* \"contracts/dETHRewardsPools.sol\":11591:12230  function governanceRecoverUnsupported(... */\n    tag_14:\n      tag_29\n      tag_74\n      calldatasize\n      0x04\n      tag_75\n      jump\t// in\n    tag_74:\n      tag_76\n      jump\t// in\n        /* \"contracts/dETHRewardsPools.sol\":519:542  address public operator */\n    tag_15:\n      sload(0x00)\n      tag_60\n      swap1\n      sub(shl(0xa0, 0x01), 0x01)\n      and\n      dup2\n      jump\n        /* \"contracts/dETHRewardsPools.sol\":1649:1677  uint256 public poolStartTime */\n    tag_16:\n      tag_33\n      sload(0x06)\n      dup2\n      jump\n        /* \"contracts/dETHRewardsPools.sol\":7367:7547  function massUpdatePools() public {... */\n    tag_17:\n      tag_29\n      tag_84\n      jump\t// in\n        /* \"contracts/dETHRewardsPools.sol\":1727:1753  uint256 public poolEndTime */\n    tag_18:\n      tag_33\n      sload(0x07)\n      dup2\n      jump\n        /* \"contracts/dETHRewardsPools.sol\":1402:1466  mapping(uint256 => mapping(address => UserInfo)) public userInfo */\n    tag_19:\n      tag_88\n      tag_89\n      calldatasize\n      0x04\n      tag_48\n      jump\t// in\n    tag_89:\n      0x04\n      0x20\n      swap1\n      dup2\n      mstore\n      0x00\n      swap3\n      dup4\n      mstore\n      0x40\n      dup1\n      dup5\n      keccak256\n      swap1\n      swap2\n      mstore\n      swap1\n      dup3\n      mstore\n      swap1\n      keccak256\n      dup1\n      sload\n      0x01\n      swap1\n      swap2\n      add\n      sload\n      dup3\n      jump\n    tag_88:\n      0x40\n      dup1\n      mload\n        /* \"#utility.yul\":3808:3833   */\n      swap3\n      dup4\n      mstore\n        /* \"#utility.yul\":3864:3866   */\n      0x20\n        /* \"#utility.yul\":3849:3867   */\n      dup4\n      add\n        /* \"#utility.yul\":3842:3876   */\n      swap2\n      swap1\n      swap2\n      mstore\n        /* \"#utility.yul\":3781:3799   */\n      add\n        /* \"contracts/dETHRewardsPools.sol\":1402:1466  mapping(uint256 => mapping(address => UserInfo)) public userInfo */\n      tag_35\n        /* \"#utility.yul\":3634:3882   */\n      jump\n        /* \"contracts/dETHRewardsPools.sol\":1873:1910  uint256 public runningTime = 115 days */\n    tag_20:\n      tag_33\n      sload(0x09)\n      dup2\n      jump\n        /* \"contracts/dETHRewardsPools.sol\":11482:11583  function setOperator(address _operator) external onlyOperator {... */\n    tag_21:\n      tag_29\n      tag_97\n      calldatasize\n      0x04\n      tag_98\n      jump\t// in\n    tag_97:\n      tag_99\n      jump\t// in\n        /* \"contracts/dETHRewardsPools.sol\":1232:1250  IERC20 public deth */\n    tag_22:\n      sload(0x01)\n      tag_60\n      swap1\n      sub(shl(0xa0, 0x01), 0x01)\n      and\n      dup2\n      jump\n        /* \"contracts/dETHRewardsPools.sol\":1778:1830  uint256 public dethPerSecond = 0.3991060025542 ether */\n    tag_23:\n      tag_33\n      sload(0x08)\n      dup2\n      jump\n        /* \"contracts/dETHRewardsPools.sol\":8566:9701  function deposit(uint256 _pid, uint256 _amount) public {... */\n    tag_24:\n      tag_29\n      tag_108\n      calldatasize\n      0x04\n      tag_53\n      jump\t// in\n    tag_108:\n      tag_109\n      jump\t// in\n        /* \"contracts/dETHRewardsPools.sol\":5337:5719  function setGlobalDepositFee(uint16 _globalDepositFeeBP) external onlyOperator {... */\n    tag_25:\n      tag_29\n      tag_111\n      calldatasize\n      0x04\n      tag_112\n      jump\t// in\n    tag_111:\n      tag_113\n      jump\t// in\n        /* \"contracts/dETHRewardsPools.sol\":3415:4729  function add(... */\n    tag_32:\n        /* \"contracts/dETHRewardsPools.sol\":2980:2988  operator */\n      and(sub(shl(0xa0, 0x01), 0x01), sload(0x00))\n        /* \"contracts/dETHRewardsPools.sol\":2992:3002  msg.sender */\n      caller\n        /* \"contracts/dETHRewardsPools.sol\":2980:3002  operator == msg.sender */\n      eq\n        /* \"contracts/dETHRewardsPools.sol\":2972:3049  require(operator == msg.sender, \"dETHRewardPool: caller is not the operator\") */\n      tag_115\n      jumpi\n      mload(0x40)\n      shl(0xe5, 0x461bcd)\n      dup2\n      mstore\n      0x04\n      add\n      tag_116\n      swap1\n      tag_117\n      jump\t// in\n    tag_116:\n      mload(0x40)\n      dup1\n      swap2\n      sub\n      swap1\n      revert\n    tag_115:\n        /* \"contracts/dETHRewardsPools.sol\":3612:3638  checkPoolDuplicate(_token) */\n      tag_119\n        /* \"contracts/dETHRewardsPools.sol\":3631:3637  _token */\n      dup5\n        /* \"contracts/dETHRewardsPools.sol\":3612:3630  checkPoolDuplicate */\n      tag_120\n        /* \"contracts/dETHRewardsPools.sol\":3612:3638  checkPoolDuplicate(_token) */\n      jump\t// in\n    tag_119:\n        /* \"contracts/dETHRewardsPools.sol\":3674:3677  100 */\n      0x64\n        /* \"contracts/dETHRewardsPools.sol\":3657:3670  _depositFeeBP */\n      dup3\n        /* \"contracts/dETHRewardsPools.sol\":3657:3677  _depositFeeBP <= 100 */\n      0xffff\n      and\n      gt\n      iszero\n        /* \"contracts/dETHRewardsPools.sol\":3649:3719  require(_depositFeeBP <= 100, \"add: invalid deposit fee basis points\") */\n      tag_121\n      jumpi\n      mload(0x40)\n      shl(0xe5, 0x461bcd)\n      dup2\n      mstore\n        /* \"#utility.yul\":5170:5172   */\n      0x20\n        /* \"contracts/dETHRewardsPools.sol\":3649:3719  require(_depositFeeBP <= 100, \"add: invalid deposit fee basis points\") */\n      0x04\n      dup3\n      add\n        /* \"#utility.yul\":5152:5173   */\n      mstore\n        /* \"#utility.yul\":5209:5211   */\n      0x25\n        /* \"#utility.yul\":5189:5207   */\n      0x24\n      dup3\n      add\n        /* \"#utility.yul\":5182:5212   */\n      mstore\n        /* \"#utility.yul\":5248:5282   */\n      0x6164643a20696e76616c6964206465706f736974206665652062617369732070\n        /* \"#utility.yul\":5228:5246   */\n      0x44\n      dup3\n      add\n        /* \"#utility.yul\":5221:5283   */\n      mstore\n      shl(0xd8, 0x6f696e7473)\n        /* \"#utility.yul\":5299:5317   */\n      0x64\n      dup3\n      add\n        /* \"#utility.yul\":5292:5327   */\n      mstore\n        /* \"#utility.yul\":5344:5363   */\n      0x84\n      add\n        /* \"contracts/dETHRewardsPools.sol\":3649:3719  require(_depositFeeBP <= 100, \"add: invalid deposit fee basis points\") */\n      tag_116\n        /* \"#utility.yul\":4968:5369   */\n      jump\n        /* \"contracts/dETHRewardsPools.sol\":3649:3719  require(_depositFeeBP <= 100, \"add: invalid deposit fee basis points\") */\n    tag_121:\n        /* \"contracts/dETHRewardsPools.sol\":3734:3745  _withUpdate */\n      dup3\n        /* \"contracts/dETHRewardsPools.sol\":3730:3791  if (_withUpdate) {... */\n      iszero\n      tag_125\n      jumpi\n        /* \"contracts/dETHRewardsPools.sol\":3762:3779  massUpdatePools() */\n      tag_125\n        /* \"contracts/dETHRewardsPools.sol\":3762:3777  massUpdatePools */\n      tag_84\n        /* \"contracts/dETHRewardsPools.sol\":3762:3779  massUpdatePools() */\n      jump\t// in\n    tag_125:\n        /* \"contracts/dETHRewardsPools.sol\":3823:3836  poolStartTime */\n      sload(0x06)\n        /* \"contracts/dETHRewardsPools.sol\":3805:3820  block.timestamp */\n      timestamp\n        /* \"contracts/dETHRewardsPools.sol\":3805:3836  block.timestamp < poolStartTime */\n      lt\n        /* \"contracts/dETHRewardsPools.sol\":3801:4335  if (block.timestamp < poolStartTime) {... */\n      iszero\n      tag_126\n      jumpi\n        /* \"contracts/dETHRewardsPools.sol\":3890:3905  _lastRewardTime */\n      dup1\n        /* \"contracts/dETHRewardsPools.sol\":3909:3910  0 */\n      0x00\n        /* \"contracts/dETHRewardsPools.sol\":3890:3910  _lastRewardTime == 0 */\n      sub\n        /* \"contracts/dETHRewardsPools.sol\":3886:4129  if (_lastRewardTime == 0) {... */\n      tag_127\n      jumpi\n      pop\n        /* \"contracts/dETHRewardsPools.sol\":3949:3962  poolStartTime */\n      sload(0x06)\n        /* \"contracts/dETHRewardsPools.sol\":3801:4335  if (block.timestamp < poolStartTime) {... */\n      jump(tag_132)\n        /* \"contracts/dETHRewardsPools.sol\":3886:4129  if (_lastRewardTime == 0) {... */\n    tag_127:\n        /* \"contracts/dETHRewardsPools.sol\":4025:4038  poolStartTime */\n      sload(0x06)\n        /* \"contracts/dETHRewardsPools.sol\":4007:4022  _lastRewardTime */\n      dup2\n        /* \"contracts/dETHRewardsPools.sol\":4007:4038  _lastRewardTime < poolStartTime */\n      lt\n        /* \"contracts/dETHRewardsPools.sol\":4003:4114  if (_lastRewardTime < poolStartTime) {... */\n      iszero\n      tag_129\n      jumpi\n      pop\n        /* \"contracts/dETHRewardsPools.sol\":4081:4094  poolStartTime */\n      sload(0x06)\n        /* \"contracts/dETHRewardsPools.sol\":4003:4114  if (_lastRewardTime < poolStartTime) {... */\n    tag_129:\n        /* \"contracts/dETHRewardsPools.sol\":3801:4335  if (block.timestamp < poolStartTime) {... */\n      jump(tag_132)\n    tag_126:\n        /* \"contracts/dETHRewardsPools.sol\":4197:4217  _lastRewardTime == 0 */\n      dup1\n      iszero\n      dup1\n        /* \"contracts/dETHRewardsPools.sol\":4197:4254  _lastRewardTime == 0 || _lastRewardTime < block.timestamp */\n      tag_131\n      jumpi\n      pop\n        /* \"contracts/dETHRewardsPools.sol\":4239:4254  block.timestamp */\n      timestamp\n        /* \"contracts/dETHRewardsPools.sol\":4221:4236  _lastRewardTime */\n      dup2\n        /* \"contracts/dETHRewardsPools.sol\":4221:4254  _lastRewardTime < block.timestamp */\n      lt\n        /* \"contracts/dETHRewardsPools.sol\":4197:4254  _lastRewardTime == 0 || _lastRewardTime < block.timestamp */\n    tag_131:\n        /* \"contracts/dETHRewardsPools.sol\":4193:4324  if (_lastRewardTime == 0 || _lastRewardTime < block.timestamp) {... */\n      iszero\n      tag_132\n      jumpi\n      pop\n        /* \"contracts/dETHRewardsPools.sol\":4293:4308  block.timestamp */\n      timestamp\n        /* \"contracts/dETHRewardsPools.sol\":4193:4324  if (_lastRewardTime == 0 || _lastRewardTime < block.timestamp) {... */\n    tag_132:\n        /* \"contracts/dETHRewardsPools.sol\":4345:4360  bool _isStarted */\n      0x00\n        /* \"contracts/dETHRewardsPools.sol\":4383:4396  poolStartTime */\n      sload(0x06)\n        /* \"contracts/dETHRewardsPools.sol\":4364:4379  _lastRewardTime */\n      dup3\n        /* \"contracts/dETHRewardsPools.sol\":4364:4396  _lastRewardTime <= poolStartTime */\n      gt\n      iszero\n        /* \"contracts/dETHRewardsPools.sol\":4363:4437  (_lastRewardTime <= poolStartTime) || (_lastRewardTime <= block.timestamp) */\n      dup1\n      tag_133\n      jumpi\n      pop\n        /* \"contracts/dETHRewardsPools.sol\":4421:4436  block.timestamp */\n      timestamp\n        /* \"contracts/dETHRewardsPools.sol\":4402:4417  _lastRewardTime */\n      dup3\n        /* \"contracts/dETHRewardsPools.sol\":4402:4436  _lastRewardTime <= block.timestamp */\n      gt\n      iszero\n        /* \"contracts/dETHRewardsPools.sol\":4363:4437  (_lastRewardTime <= poolStartTime) || (_lastRewardTime <= block.timestamp) */\n    tag_133:\n        /* \"contracts/dETHRewardsPools.sol\":4462:4617  PoolInfo({token: _token, allocPoint: _allocPoint, depositFeeBP: _depositFeeBP, lastRewardTime: _lastRewardTime, accDETHPerShare: 0, isStarted: _isStarted}) */\n      0x40\n      dup1\n      mload\n      0xc0\n      dup2\n      add\n      dup3\n      mstore\n      sub(shl(0xa0, 0x01), 0x01)\n      dup9\n      dup2\n      and\n      dup3\n      mstore\n      0x20\n      dup3\n      add\n      dup11\n      dup2\n      mstore\n      swap3\n      dup3\n      add\n      dup7\n      dup2\n      mstore\n      0x00\n      0x60\n      dup5\n      add\n      dup2\n      dup2\n      mstore\n      0xffff\n      dup11\n      dup2\n      and\n      0x80\n      dup8\n      add\n      swap1\n      dup2\n      mstore\n      dup9\n      iszero\n      dup1\n      iszero\n      0xa0\n      dup10\n      add\n      swap1\n      dup2\n      mstore\n        /* \"contracts/dETHRewardsPools.sol\":4448:4456  poolInfo */\n      0x03\n        /* \"contracts/dETHRewardsPools.sol\":4448:4618  poolInfo.push(PoolInfo({token: _token, allocPoint: _allocPoint, depositFeeBP: _depositFeeBP, lastRewardTime: _lastRewardTime, accDETHPerShare: 0, isStarted: _isStarted})) */\n      dup1\n      sload\n      0x01\n      dup2\n      add\n      dup3\n      sstore\n      swap7\n      mstore\n      swap8\n      mload\n      0xc2575a0e9e593c00f959f8c92f12db2869c3395a3b0502d05e2516446f71f85b\n      0x05\n      swap1\n      swap7\n      mul\n      swap6\n      dup7\n      add\n      dup1\n      sload\n      not(sub(shl(0xa0, 0x01), 0x01))\n      and\n      swap2\n      swap1\n      swap9\n      and\n      or\n      swap1\n      swap7\n      sstore\n      swap7\n      mload\n      0xc2575a0e9e593c00f959f8c92f12db2869c3395a3b0502d05e2516446f71f85c\n      dup5\n      add\n      sstore\n      swap3\n      mload\n      0xc2575a0e9e593c00f959f8c92f12db2869c3395a3b0502d05e2516446f71f85d\n      dup4\n      add\n      sstore\n      mload\n      0xc2575a0e9e593c00f959f8c92f12db2869c3395a3b0502d05e2516446f71f85e\n      dup3\n      add\n      sstore\n      swap4\n      mload\n      0xc2575a0e9e593c00f959f8c92f12db2869c3395a3b0502d05e2516446f71f85f\n      swap1\n      swap5\n      add\n      dup1\n      sload\n      swap4\n      mload\n      swap5\n      swap1\n      swap2\n      and\n      not(0xffffff)\n      swap1\n      swap4\n      and\n      swap3\n      swap1\n      swap3\n      or\n      0x010000\n      swap4\n      iszero\n      iszero\n      swap4\n      swap1\n      swap4\n      mul\n      swap3\n      swap1\n      swap3\n      or\n      swap1\n      sstore\n        /* \"contracts/dETHRewardsPools.sol\":4462:4617  PoolInfo({token: _token, allocPoint: _allocPoint, depositFeeBP: _depositFeeBP, lastRewardTime: _lastRewardTime, accDETHPerShare: 0, isStarted: _isStarted}) */\n      swap1\n      swap2\n      pop\n        /* \"contracts/dETHRewardsPools.sol\":4629:4722  if (_isStarted) {... */\n      tag_135\n      jumpi\n        /* \"contracts/dETHRewardsPools.sol\":4678:4693  totalAllocPoint */\n      sload(0x05)\n        /* \"contracts/dETHRewardsPools.sol\":4678:4710  totalAllocPoint.add(_allocPoint) */\n      tag_136\n      swap1\n        /* \"contracts/dETHRewardsPools.sol\":4698:4709  _allocPoint */\n      dup8\n        /* \"contracts/dETHRewardsPools.sol\":4678:4697  totalAllocPoint.add */\n      tag_137\n        /* \"contracts/dETHRewardsPools.sol\":4678:4710  totalAllocPoint.add(_allocPoint) */\n      jump\t// in\n    tag_136:\n        /* \"contracts/dETHRewardsPools.sol\":4660:4675  totalAllocPoint */\n      0x05\n        /* \"contracts/dETHRewardsPools.sol\":4660:4710  totalAllocPoint = totalAllocPoint.add(_allocPoint) */\n      sstore\n        /* \"contracts/dETHRewardsPools.sol\":4629:4722  if (_isStarted) {... */\n    tag_135:\n        /* \"contracts/dETHRewardsPools.sol\":3601:4729  {... */\n      pop\n        /* \"contracts/dETHRewardsPools.sol\":3415:4729  function add(... */\n      pop\n      pop\n      pop\n      pop\n      pop\n      jump\t// out\n        /* \"contracts/dETHRewardsPools.sol\":1318:1344  PoolInfo[] public poolInfo */\n    tag_40:\n      0x03\n      dup2\n      dup2\n      sload\n      dup2\n      lt\n      tag_138\n      jumpi\n      0x00\n      dup1\n      revert\n    tag_138:\n      0x00\n      swap2\n      dup3\n      mstore\n      0x20\n      swap1\n      swap2\n      keccak256\n      0x05\n      swap1\n      swap2\n      mul\n      add\n      dup1\n      sload\n      0x01\n      dup3\n      add\n      sload\n      0x02\n      dup4\n      add\n      sload\n      0x03\n      dup5\n      add\n      sload\n      0x04\n      swap1\n      swap5\n      add\n      sload\n      sub(shl(0xa0, 0x01), 0x01)\n      swap1\n      swap4\n      and\n      swap5\n      pop\n      swap1\n      swap3\n      swap1\n      swap2\n      0xffff\n      dup2\n      and\n      swap1\n      0x010000\n      swap1\n      div\n      0xff\n      and\n      dup7\n      jump\t// out\n        /* \"contracts/dETHRewardsPools.sol\":6513:7284  function pendingdETH(uint256 _pid, address _user) external view returns (uint256) {... */\n    tag_49:\n        /* \"contracts/dETHRewardsPools.sol\":6586:6593  uint256 */\n      0x00\n        /* \"contracts/dETHRewardsPools.sol\":6606:6627  PoolInfo storage pool */\n      dup1\n        /* \"contracts/dETHRewardsPools.sol\":6630:6638  poolInfo */\n      0x03\n        /* \"contracts/dETHRewardsPools.sol\":6639:6643  _pid */\n      dup5\n        /* \"contracts/dETHRewardsPools.sol\":6630:6644  poolInfo[_pid] */\n      dup2\n      sload\n      dup2\n      lt\n      tag_142\n      jumpi\n      tag_142\n      tag_143\n      jump\t// in\n    tag_142:\n      0x00\n      swap2\n      dup3\n      mstore\n      0x20\n      dup1\n      dup4\n      keccak256\n        /* \"contracts/dETHRewardsPools.sol\":6679:6693  userInfo[_pid] */\n      dup8\n      dup5\n      mstore\n        /* \"contracts/dETHRewardsPools.sol\":6679:6687  userInfo */\n      0x04\n        /* \"contracts/dETHRewardsPools.sol\":6679:6693  userInfo[_pid] */\n      dup1\n      dup4\n      mstore\n      0x40\n      dup1\n      dup7\n      keccak256\n      sub(shl(0xa0, 0x01), 0x01)\n        /* \"contracts/dETHRewardsPools.sol\":6679:6700  userInfo[_pid][_user] */\n      dup11\n      dup2\n      and\n      dup9\n      mstore\n      swap5\n      mstore\n      dup1\n      dup7\n      keccak256\n        /* \"contracts/dETHRewardsPools.sol\":6630:6644  poolInfo[_pid] */\n      0x05\n      swap6\n      swap1\n      swap6\n      mul\n      swap1\n      swap3\n      add\n        /* \"contracts/dETHRewardsPools.sol\":6737:6757  pool.accDETHPerShare */\n      0x03\n      dup2\n      add\n      sload\n        /* \"contracts/dETHRewardsPools.sol\":6790:6800  pool.token */\n      dup2\n      sload\n        /* \"contracts/dETHRewardsPools.sol\":6790:6825  pool.token.balanceOf(address(this)) */\n      swap4\n      mload\n      shl(0xe0, 0x70a08231)\n      dup2\n      mstore\n        /* \"contracts/dETHRewardsPools.sol\":6819:6823  this */\n      address\n        /* \"contracts/dETHRewardsPools.sol\":6790:6825  pool.token.balanceOf(address(this)) */\n      swap4\n      dup2\n      add\n        /* \"#utility.yul\":3082:3133   */\n      swap4\n      swap1\n      swap4\n      mstore\n        /* \"contracts/dETHRewardsPools.sol\":6630:6644  poolInfo[_pid] */\n      swap1\n      swap7\n      pop\n        /* \"contracts/dETHRewardsPools.sol\":6679:6700  userInfo[_pid][_user] */\n      swap4\n      swap5\n        /* \"contracts/dETHRewardsPools.sol\":6630:6644  poolInfo[_pid] */\n      swap3\n        /* \"contracts/dETHRewardsPools.sol\":6790:6800  pool.token */\n      swap2\n      swap1\n      swap2\n      and\n      swap1\n        /* \"contracts/dETHRewardsPools.sol\":6790:6810  pool.token.balanceOf */\n      0x70a08231\n      swap1\n        /* \"#utility.yul\":3055:3073   */\n      0x24\n      add\n        /* \"contracts/dETHRewardsPools.sol\":6790:6825  pool.token.balanceOf(address(this)) */\n      0x20\n      mload(0x40)\n      dup1\n      dup4\n      sub\n      dup2\n      dup7\n      gas\n      staticcall\n      iszero\n      dup1\n      iszero\n      tag_147\n      jumpi\n      returndatasize\n      0x00\n      dup1\n      returndatacopy\n      revert(0x00, returndatasize)\n    tag_147:\n      pop\n      pop\n      pop\n      pop\n      mload(0x40)\n      returndatasize\n      not(0x1f)\n      0x1f\n      dup3\n      add\n      and\n      dup3\n      add\n      dup1\n      0x40\n      mstore\n      pop\n      dup2\n      add\n      swap1\n      tag_148\n      swap2\n      swap1\n      tag_149\n      jump\t// in\n    tag_148:\n        /* \"contracts/dETHRewardsPools.sol\":6768:6825  uint256 tokenSupply = pool.token.balanceOf(address(this)) */\n      swap1\n      pop\n        /* \"contracts/dETHRewardsPools.sol\":6858:6862  pool */\n      dup4\n        /* \"contracts/dETHRewardsPools.sol\":6858:6877  pool.lastRewardTime */\n      0x02\n      add\n      sload\n        /* \"contracts/dETHRewardsPools.sol\":6840:6855  block.timestamp */\n      timestamp\n        /* \"contracts/dETHRewardsPools.sol\":6840:6877  block.timestamp > pool.lastRewardTime */\n      gt\n        /* \"contracts/dETHRewardsPools.sol\":6840:6897  block.timestamp > pool.lastRewardTime && tokenSupply != 0 */\n      dup1\n      iszero\n      tag_150\n      jumpi\n      pop\n        /* \"contracts/dETHRewardsPools.sol\":6881:6897  tokenSupply != 0 */\n      dup1\n      iszero\n      iszero\n        /* \"contracts/dETHRewardsPools.sol\":6840:6897  block.timestamp > pool.lastRewardTime && tokenSupply != 0 */\n    tag_150:\n        /* \"contracts/dETHRewardsPools.sol\":6836:7196  if (block.timestamp > pool.lastRewardTime && tokenSupply != 0) {... */\n      iszero\n      tag_151\n      jumpi\n        /* \"contracts/dETHRewardsPools.sol\":6914:6938  uint256 _generatedReward */\n      0x00\n        /* \"contracts/dETHRewardsPools.sol\":6941:6997  getGeneratedReward(pool.lastRewardTime, block.timestamp) */\n      tag_152\n        /* \"contracts/dETHRewardsPools.sol\":6960:6964  pool */\n      dup6\n        /* \"contracts/dETHRewardsPools.sol\":6960:6979  pool.lastRewardTime */\n      0x02\n      add\n      sload\n        /* \"contracts/dETHRewardsPools.sol\":6981:6996  block.timestamp */\n      timestamp\n        /* \"contracts/dETHRewardsPools.sol\":6941:6959  getGeneratedReward */\n      tag_54\n        /* \"contracts/dETHRewardsPools.sol\":6941:6997  getGeneratedReward(pool.lastRewardTime, block.timestamp) */\n      jump\t// in\n    tag_152:\n        /* \"contracts/dETHRewardsPools.sol\":6914:6997  uint256 _generatedReward = getGeneratedReward(pool.lastRewardTime, block.timestamp) */\n      swap1\n      pop\n        /* \"contracts/dETHRewardsPools.sol\":7012:7031  uint256 _dethReward */\n      0x00\n        /* \"contracts/dETHRewardsPools.sol\":7034:7092  _generatedReward.mul(pool.allocPoint).div(totalAllocPoint) */\n      tag_153\n        /* \"contracts/dETHRewardsPools.sol\":7076:7091  totalAllocPoint */\n      sload(0x05)\n        /* \"contracts/dETHRewardsPools.sol\":7034:7071  _generatedReward.mul(pool.allocPoint) */\n      tag_154\n        /* \"contracts/dETHRewardsPools.sol\":7055:7059  pool */\n      dup9\n        /* \"contracts/dETHRewardsPools.sol\":7055:7070  pool.allocPoint */\n      0x01\n      add\n      sload\n        /* \"contracts/dETHRewardsPools.sol\":7034:7050  _generatedReward */\n      dup6\n        /* \"contracts/dETHRewardsPools.sol\":7034:7054  _generatedReward.mul */\n      tag_155\n      swap1\n        /* \"contracts/dETHRewardsPools.sol\":7034:7071  _generatedReward.mul(pool.allocPoint) */\n      swap2\n      swap1\n      0xffffffff\n      and\n      jump\t// in\n    tag_154:\n        /* \"contracts/dETHRewardsPools.sol\":7034:7075  _generatedReward.mul(pool.allocPoint).div */\n      swap1\n      tag_156\n        /* \"contracts/dETHRewardsPools.sol\":7034:7092  _generatedReward.mul(pool.allocPoint).div(totalAllocPoint) */\n      jump\t// in\n    tag_153:\n        /* \"contracts/dETHRewardsPools.sol\":7012:7092  uint256 _dethReward = _generatedReward.mul(pool.allocPoint).div(totalAllocPoint) */\n      swap1\n      pop\n        /* \"contracts/dETHRewardsPools.sol\":7125:7184  accDETHPerShare.add(_dethReward.mul(1e18).div(tokenSupply)) */\n      tag_157\n        /* \"contracts/dETHRewardsPools.sol\":7145:7183  _dethReward.mul(1e18).div(tokenSupply) */\n      tag_158\n        /* \"contracts/dETHRewardsPools.sol\":7171:7182  tokenSupply */\n      dup5\n        /* \"contracts/dETHRewardsPools.sol\":7145:7166  _dethReward.mul(1e18) */\n      tag_154\n        /* \"contracts/dETHRewardsPools.sol\":7012:7092  uint256 _dethReward = _generatedReward.mul(pool.allocPoint).div(totalAllocPoint) */\n      dup5\n        /* \"contracts/dETHRewardsPools.sol\":7161:7165  1e18 */\n      0x0de0b6b3a7640000\n        /* \"contracts/dETHRewardsPools.sol\":7145:7160  _dethReward.mul */\n      tag_155\n        /* \"contracts/dETHRewardsPools.sol\":7145:7166  _dethReward.mul(1e18) */\n      jump\t// in\n        /* \"contracts/dETHRewardsPools.sol\":7145:7183  _dethReward.mul(1e18).div(tokenSupply) */\n    tag_158:\n        /* \"contracts/dETHRewardsPools.sol\":7125:7140  accDETHPerShare */\n      dup6\n      swap1\n        /* \"contracts/dETHRewardsPools.sol\":7125:7144  accDETHPerShare.add */\n      tag_137\n        /* \"contracts/dETHRewardsPools.sol\":7125:7184  accDETHPerShare.add(_dethReward.mul(1e18).div(tokenSupply)) */\n      jump\t// in\n    tag_157:\n        /* \"contracts/dETHRewardsPools.sol\":7107:7184  accDETHPerShare = accDETHPerShare.add(_dethReward.mul(1e18).div(tokenSupply)) */\n      swap4\n      pop\n        /* \"contracts/dETHRewardsPools.sol\":6899:7196  {... */\n      pop\n      pop\n        /* \"contracts/dETHRewardsPools.sol\":6836:7196  if (block.timestamp > pool.lastRewardTime && tokenSupply != 0) {... */\n    tag_151:\n        /* \"contracts/dETHRewardsPools.sol\":7213:7276  user.amount.mul(accDETHPerShare).div(1e18).sub(user.rewardDebt) */\n      tag_160\n        /* \"contracts/dETHRewardsPools.sol\":7260:7264  user */\n      dup4\n        /* \"contracts/dETHRewardsPools.sol\":7260:7275  user.rewardDebt */\n      0x01\n      add\n      sload\n        /* \"contracts/dETHRewardsPools.sol\":7213:7255  user.amount.mul(accDETHPerShare).div(1e18) */\n      tag_161\n        /* \"contracts/dETHRewardsPools.sol\":7250:7254  1e18 */\n      0x0de0b6b3a7640000\n        /* \"contracts/dETHRewardsPools.sol\":7213:7245  user.amount.mul(accDETHPerShare) */\n      tag_154\n        /* \"contracts/dETHRewardsPools.sol\":7229:7244  accDETHPerShare */\n      dup7\n        /* \"contracts/dETHRewardsPools.sol\":7213:7217  user */\n      dup9\n        /* \"contracts/dETHRewardsPools.sol\":7213:7224  user.amount */\n      0x00\n      add\n      sload\n        /* \"contracts/dETHRewardsPools.sol\":7213:7228  user.amount.mul */\n      tag_155\n      swap1\n        /* \"contracts/dETHRewardsPools.sol\":7213:7245  user.amount.mul(accDETHPerShare) */\n      swap2\n      swap1\n      0xffffffff\n      and\n      jump\t// in\n        /* \"contracts/dETHRewardsPools.sol\":7213:7255  user.amount.mul(accDETHPerShare).div(1e18) */\n    tag_161:\n        /* \"contracts/dETHRewardsPools.sol\":7213:7259  user.amount.mul(accDETHPerShare).div(1e18).sub */\n      swap1\n      tag_163\n        /* \"contracts/dETHRewardsPools.sol\":7213:7276  user.amount.mul(accDETHPerShare).div(1e18).sub(user.rewardDebt) */\n      jump\t// in\n    tag_160:\n        /* \"contracts/dETHRewardsPools.sol\":7206:7276  return user.amount.mul(accDETHPerShare).div(1e18).sub(user.rewardDebt) */\n      swap5\n      pop\n      pop\n      pop\n      pop\n      pop\n        /* \"contracts/dETHRewardsPools.sol\":6513:7284  function pendingdETH(uint256 _pid, address _user) external view returns (uint256) {... */\n    tag_140:\n      swap3\n      swap2\n      pop\n      pop\n      jump\t// out\n        /* \"contracts/dETHRewardsPools.sol\":5796:6449  function getGeneratedReward(uint256 _fromTime, uint256 _toTime) public view returns (uint256) {... */\n    tag_54:\n        /* \"contracts/dETHRewardsPools.sol\":5881:5888  uint256 */\n      0x00\n        /* \"contracts/dETHRewardsPools.sol\":5918:5925  _toTime */\n      dup2\n        /* \"contracts/dETHRewardsPools.sol\":5905:5914  _fromTime */\n      dup4\n        /* \"contracts/dETHRewardsPools.sol\":5905:5925  _fromTime >= _toTime */\n      lt\n        /* \"contracts/dETHRewardsPools.sol\":5901:5935  if (_fromTime >= _toTime) return 0 */\n      tag_165\n      jumpi\n      pop\n        /* \"contracts/dETHRewardsPools.sol\":5934:5935  0 */\n      0x00\n        /* \"contracts/dETHRewardsPools.sol\":5927:5935  return 0 */\n      jump(tag_140)\n        /* \"contracts/dETHRewardsPools.sol\":5901:5935  if (_fromTime >= _toTime) return 0 */\n    tag_165:\n        /* \"contracts/dETHRewardsPools.sol\":5961:5972  poolEndTime */\n      sload(0x07)\n        /* \"contracts/dETHRewardsPools.sol\":5950:5957  _toTime */\n      dup3\n        /* \"contracts/dETHRewardsPools.sol\":5950:5972  _toTime >= poolEndTime */\n      lt\n        /* \"contracts/dETHRewardsPools.sol\":5946:6442  if (_toTime >= poolEndTime) {... */\n      tag_166\n      jumpi\n        /* \"contracts/dETHRewardsPools.sol\":6006:6017  poolEndTime */\n      sload(0x07)\n        /* \"contracts/dETHRewardsPools.sol\":5993:6002  _fromTime */\n      dup4\n        /* \"contracts/dETHRewardsPools.sol\":5993:6017  _fromTime >= poolEndTime */\n      lt\n        /* \"contracts/dETHRewardsPools.sol\":5989:6027  if (_fromTime >= poolEndTime) return 0 */\n      tag_167\n      jumpi\n      pop\n        /* \"contracts/dETHRewardsPools.sol\":6026:6027  0 */\n      0x00\n        /* \"contracts/dETHRewardsPools.sol\":6019:6027  return 0 */\n      jump(tag_140)\n        /* \"contracts/dETHRewardsPools.sol\":5989:6027  if (_fromTime >= poolEndTime) return 0 */\n    tag_167:\n        /* \"contracts/dETHRewardsPools.sol\":6059:6072  poolStartTime */\n      sload(0x06)\n        /* \"contracts/dETHRewardsPools.sol\":6046:6055  _fromTime */\n      dup4\n        /* \"contracts/dETHRewardsPools.sol\":6046:6072  _fromTime <= poolStartTime */\n      gt\n        /* \"contracts/dETHRewardsPools.sol\":6042:6130  if (_fromTime <= poolStartTime) return poolEndTime.sub(poolStartTime).mul(dethPerSecond) */\n      tag_168\n      jumpi\n        /* \"contracts/dETHRewardsPools.sol\":6081:6130  poolEndTime.sub(poolStartTime).mul(dethPerSecond) */\n      tag_169\n        /* \"contracts/dETHRewardsPools.sol\":6116:6129  dethPerSecond */\n      sload(0x08)\n        /* \"contracts/dETHRewardsPools.sol\":6081:6111  poolEndTime.sub(poolStartTime) */\n      tag_170\n        /* \"contracts/dETHRewardsPools.sol\":6097:6110  poolStartTime */\n      sload(0x06)\n        /* \"contracts/dETHRewardsPools.sol\":6081:6092  poolEndTime */\n      sload(0x07)\n        /* \"contracts/dETHRewardsPools.sol\":6081:6096  poolEndTime.sub */\n      tag_163\n      swap1\n        /* \"contracts/dETHRewardsPools.sol\":6081:6111  poolEndTime.sub(poolStartTime) */\n      swap2\n      swap1\n      0xffffffff\n      and\n      jump\t// in\n    tag_170:\n        /* \"contracts/dETHRewardsPools.sol\":6081:6115  poolEndTime.sub(poolStartTime).mul */\n      swap1\n      tag_155\n        /* \"contracts/dETHRewardsPools.sol\":6081:6130  poolEndTime.sub(poolStartTime).mul(dethPerSecond) */\n      jump\t// in\n    tag_169:\n        /* \"contracts/dETHRewardsPools.sol\":6074:6130  return poolEndTime.sub(poolStartTime).mul(dethPerSecond) */\n      swap1\n      pop\n      jump(tag_140)\n        /* \"contracts/dETHRewardsPools.sol\":6042:6130  if (_fromTime <= poolStartTime) return poolEndTime.sub(poolStartTime).mul(dethPerSecond) */\n    tag_168:\n        /* \"contracts/dETHRewardsPools.sol\":6152:6197  poolEndTime.sub(_fromTime).mul(dethPerSecond) */\n      tag_169\n        /* \"contracts/dETHRewardsPools.sol\":6183:6196  dethPerSecond */\n      sload(0x08)\n        /* \"contracts/dETHRewardsPools.sol\":6152:6178  poolEndTime.sub(_fromTime) */\n      tag_170\n        /* \"contracts/dETHRewardsPools.sol\":6168:6177  _fromTime */\n      dup6\n        /* \"contracts/dETHRewardsPools.sol\":6152:6163  poolEndTime */\n      sload(0x07)\n        /* \"contracts/dETHRewardsPools.sol\":6152:6167  poolEndTime.sub */\n      tag_163\n      swap1\n        /* \"contracts/dETHRewardsPools.sol\":6152:6178  poolEndTime.sub(_fromTime) */\n      swap2\n      swap1\n      0xffffffff\n      and\n      jump\t// in\n        /* \"contracts/dETHRewardsPools.sol\":5946:6442  if (_toTime >= poolEndTime) {... */\n    tag_166:\n        /* \"contracts/dETHRewardsPools.sol\":6245:6258  poolStartTime */\n      sload(0x06)\n        /* \"contracts/dETHRewardsPools.sol\":6234:6241  _toTime */\n      dup3\n        /* \"contracts/dETHRewardsPools.sol\":6234:6258  _toTime <= poolStartTime */\n      gt\n        /* \"contracts/dETHRewardsPools.sol\":6230:6268  if (_toTime <= poolStartTime) return 0 */\n      tag_174\n      jumpi\n      pop\n        /* \"contracts/dETHRewardsPools.sol\":6267:6268  0 */\n      0x00\n        /* \"contracts/dETHRewardsPools.sol\":6260:6268  return 0 */\n      jump(tag_140)\n        /* \"contracts/dETHRewardsPools.sol\":6230:6268  if (_toTime <= poolStartTime) return 0 */\n    tag_174:\n        /* \"contracts/dETHRewardsPools.sol\":6300:6313  poolStartTime */\n      sload(0x06)\n        /* \"contracts/dETHRewardsPools.sol\":6287:6296  _fromTime */\n      dup4\n        /* \"contracts/dETHRewardsPools.sol\":6287:6313  _fromTime <= poolStartTime */\n      gt\n        /* \"contracts/dETHRewardsPools.sol\":6283:6367  if (_fromTime <= poolStartTime) return _toTime.sub(poolStartTime).mul(dethPerSecond) */\n      tag_175\n      jumpi\n        /* \"contracts/dETHRewardsPools.sol\":6322:6367  _toTime.sub(poolStartTime).mul(dethPerSecond) */\n      tag_169\n        /* \"contracts/dETHRewardsPools.sol\":6353:6366  dethPerSecond */\n      sload(0x08)\n        /* \"contracts/dETHRewardsPools.sol\":6322:6348  _toTime.sub(poolStartTime) */\n      tag_170\n        /* \"contracts/dETHRewardsPools.sol\":6334:6347  poolStartTime */\n      sload(0x06)\n        /* \"contracts/dETHRewardsPools.sol\":6322:6329  _toTime */\n      dup6\n        /* \"contracts/dETHRewardsPools.sol\":6322:6333  _toTime.sub */\n      tag_163\n      swap1\n        /* \"contracts/dETHRewardsPools.sol\":6322:6348  _toTime.sub(poolStartTime) */\n      swap2\n      swap1\n      0xffffffff\n      and\n      jump\t// in\n        /* \"contracts/dETHRewardsPools.sol\":6283:6367  if (_fromTime <= poolStartTime) return _toTime.sub(poolStartTime).mul(dethPerSecond) */\n    tag_175:\n        /* \"contracts/dETHRewardsPools.sol\":6416:6429  dethPerSecond */\n      sload(0x08)\n        /* \"contracts/dETHRewardsPools.sol\":6389:6430  _toTime.sub(_fromTime).mul(dethPerSecond) */\n      tag_169\n      swap1\n        /* \"contracts/dETHRewardsPools.sol\":6389:6411  _toTime.sub(_fromTime) */\n      tag_170\n        /* \"contracts/dETHRewardsPools.sol\":6389:6396  _toTime */\n      dup5\n        /* \"contracts/dETHRewardsPools.sol\":6401:6410  _fromTime */\n      dup7\n        /* \"contracts/dETHRewardsPools.sol\":6389:6400  _toTime.sub */\n      tag_163\n        /* \"contracts/dETHRewardsPools.sol\":6389:6411  _toTime.sub(_fromTime) */\n      jump\t// in\n        /* \"contracts/dETHRewardsPools.sol\":4826:5290  function set(uint256 _pid, uint256 _allocPoint, uint16 _depositFeeBP) public onlyOperator {... */\n    tag_59:\n        /* \"contracts/dETHRewardsPools.sol\":2980:2988  operator */\n      and(sub(shl(0xa0, 0x01), 0x01), sload(0x00))\n        /* \"contracts/dETHRewardsPools.sol\":2992:3002  msg.sender */\n      caller\n        /* \"contracts/dETHRewardsPools.sol\":2980:3002  operator == msg.sender */\n      eq\n        /* \"contracts/dETHRewardsPools.sol\":2972:3049  require(operator == msg.sender, \"dETHRewardPool: caller is not the operator\") */\n      tag_181\n      jumpi\n      mload(0x40)\n      shl(0xe5, 0x461bcd)\n      dup2\n      mstore\n      0x04\n      add\n      tag_116\n      swap1\n      tag_117\n      jump\t// in\n    tag_181:\n        /* \"contracts/dETHRewardsPools.sol\":4933:4951  _depositFeeBP <= 0 */\n      0xffff\n      dup2\n      and\n      iszero\n        /* \"contracts/dETHRewardsPools.sol\":4925:4993  require(_depositFeeBP <= 0, \"Deposit Fee Cannot equal more than 0%\") */\n      tag_184\n      jumpi\n      mload(0x40)\n      shl(0xe5, 0x461bcd)\n      dup2\n      mstore\n        /* \"#utility.yul\":5897:5899   */\n      0x20\n        /* \"contracts/dETHRewardsPools.sol\":4925:4993  require(_depositFeeBP <= 0, \"Deposit Fee Cannot equal more than 0%\") */\n      0x04\n      dup3\n      add\n        /* \"#utility.yul\":5879:5900   */\n      mstore\n        /* \"#utility.yul\":5936:5938   */\n      0x25\n        /* \"#utility.yul\":5916:5934   */\n      0x24\n      dup3\n      add\n        /* \"#utility.yul\":5909:5939   */\n      mstore\n        /* \"#utility.yul\":5975:6009   */\n      0x4465706f736974204665652043616e6e6f7420657175616c206d6f7265207468\n        /* \"#utility.yul\":5955:5973   */\n      0x44\n      dup3\n      add\n        /* \"#utility.yul\":5948:6010   */\n      mstore\n      shl(0xd8, 0x616e203025)\n        /* \"#utility.yul\":6026:6044   */\n      0x64\n      dup3\n      add\n        /* \"#utility.yul\":6019:6054   */\n      mstore\n        /* \"#utility.yul\":6071:6090   */\n      0x84\n      add\n        /* \"contracts/dETHRewardsPools.sol\":4925:4993  require(_depositFeeBP <= 0, \"Deposit Fee Cannot equal more than 0%\") */\n      tag_116\n        /* \"#utility.yul\":5695:6096   */\n      jump\n        /* \"contracts/dETHRewardsPools.sol\":4925:4993  require(_depositFeeBP <= 0, \"Deposit Fee Cannot equal more than 0%\") */\n    tag_184:\n        /* \"contracts/dETHRewardsPools.sol\":5004:5021  massUpdatePools() */\n      tag_187\n        /* \"contracts/dETHRewardsPools.sol\":5004:5019  massUpdatePools */\n      tag_84\n        /* \"contracts/dETHRewardsPools.sol\":5004:5021  massUpdatePools() */\n      jump\t// in\n    tag_187:\n        /* \"contracts/dETHRewardsPools.sol\":5032:5053  PoolInfo storage pool */\n      0x00\n        /* \"contracts/dETHRewardsPools.sol\":5056:5064  poolInfo */\n      0x03\n        /* \"contracts/dETHRewardsPools.sol\":5065:5069  _pid */\n      dup5\n        /* \"contracts/dETHRewardsPools.sol\":5056:5070  poolInfo[_pid] */\n      dup2\n      sload\n      dup2\n      lt\n      tag_189\n      jumpi\n      tag_189\n      tag_143\n      jump\t// in\n    tag_189:\n      swap1\n      0x00\n      mstore\n      keccak256(0x00, 0x20)\n      swap1\n      0x05\n      mul\n      add\n        /* \"contracts/dETHRewardsPools.sol\":5032:5070  PoolInfo storage pool = poolInfo[_pid] */\n      swap1\n      pop\n        /* \"contracts/dETHRewardsPools.sol\":5085:5089  pool */\n      dup1\n        /* \"contracts/dETHRewardsPools.sol\":5085:5099  pool.isStarted */\n      0x04\n      add\n      0x02\n      swap1\n      sload\n      swap1\n      0x0100\n      exp\n      swap1\n      div\n      0xff\n      and\n        /* \"contracts/dETHRewardsPools.sol\":5081:5199  if (pool.isStarted) {... */\n      iszero\n      tag_191\n      jumpi\n        /* \"contracts/dETHRewardsPools.sol\":5134:5187  totalAllocPoint.sub(pool.allocPoint).add(_allocPoint) */\n      tag_192\n        /* \"contracts/dETHRewardsPools.sol\":5175:5186  _allocPoint */\n      dup4\n        /* \"contracts/dETHRewardsPools.sol\":5134:5170  totalAllocPoint.sub(pool.allocPoint) */\n      tag_193\n        /* \"contracts/dETHRewardsPools.sol\":5154:5158  pool */\n      dup4\n        /* \"contracts/dETHRewardsPools.sol\":5154:5169  pool.allocPoint */\n      0x01\n      add\n      sload\n        /* \"contracts/dETHRewardsPools.sol\":5134:5149  totalAllocPoint */\n      sload(0x05)\n        /* \"contracts/dETHRewardsPools.sol\":5134:5153  totalAllocPoint.sub */\n      tag_163\n      swap1\n        /* \"contracts/dETHRewardsPools.sol\":5134:5170  totalAllocPoint.sub(pool.allocPoint) */\n      swap2\n      swap1\n      0xffffffff\n      and\n      jump\t// in\n    tag_193:\n        /* \"contracts/dETHRewardsPools.sol\":5134:5174  totalAllocPoint.sub(pool.allocPoint).add */\n      swap1\n      tag_137\n        /* \"contracts/dETHRewardsPools.sol\":5134:5187  totalAllocPoint.sub(pool.allocPoint).add(_allocPoint) */\n      jump\t// in\n    tag_192:\n        /* \"contracts/dETHRewardsPools.sol\":5116:5131  totalAllocPoint */\n      0x05\n        /* \"contracts/dETHRewardsPools.sol\":5116:5187  totalAllocPoint = totalAllocPoint.sub(pool.allocPoint).add(_allocPoint) */\n      sstore\n        /* \"contracts/dETHRewardsPools.sol\":5081:5199  if (pool.isStarted) {... */\n    tag_191:\n        /* \"contracts/dETHRewardsPools.sol\":5209:5224  pool.allocPoint */\n      0x01\n      dup2\n      add\n        /* \"contracts/dETHRewardsPools.sol\":5209:5238  pool.allocPoint = _allocPoint */\n      swap3\n      swap1\n      swap3\n      sstore\n        /* \"contracts/dETHRewardsPools.sol\":5249:5266  pool.depositFeeBP */\n      0x04\n      swap1\n      swap2\n      add\n        /* \"contracts/dETHRewardsPools.sol\":5249:5282  pool.depositFeeBP = _depositFeeBP */\n      dup1\n      sload\n      not(0xffff)\n      and\n      0xffff\n      swap1\n      swap3\n      and\n      swap2\n      swap1\n      swap2\n      or\n      swap1\n      sstore\n      pop\n        /* \"contracts/dETHRewardsPools.sol\":4826:5290  function set(uint256 _pid, uint256 _allocPoint, uint16 _depositFeeBP) public onlyOperator {... */\n      jump\t// out\n        /* \"contracts/dETHRewardsPools.sol\":9737:10547  function withdraw(uint256 _pid, uint256 _amount) public {... */\n    tag_66:\n        /* \"contracts/dETHRewardsPools.sol\":9804:9819  address _sender */\n      0x00\n        /* \"contracts/dETHRewardsPools.sol\":9822:9832  msg.sender */\n      caller\n        /* \"contracts/dETHRewardsPools.sol\":9804:9832  address _sender = msg.sender */\n      swap1\n      pop\n        /* \"contracts/dETHRewardsPools.sol\":9843:9864  PoolInfo storage pool */\n      0x00\n        /* \"contracts/dETHRewardsPools.sol\":9867:9875  poolInfo */\n      0x03\n        /* \"contracts/dETHRewardsPools.sol\":9876:9880  _pid */\n      dup5\n        /* \"contracts/dETHRewardsPools.sol\":9867:9881  poolInfo[_pid] */\n      dup2\n      sload\n      dup2\n      lt\n      tag_196\n      jumpi\n      tag_196\n      tag_143\n      jump\t// in\n    tag_196:\n      0x00\n      swap2\n      dup3\n      mstore\n      0x20\n      dup1\n      dup4\n      keccak256\n        /* \"contracts/dETHRewardsPools.sol\":9916:9930  userInfo[_pid] */\n      dup8\n      dup5\n      mstore\n        /* \"contracts/dETHRewardsPools.sol\":9916:9924  userInfo */\n      0x04\n        /* \"contracts/dETHRewardsPools.sol\":9916:9930  userInfo[_pid] */\n      dup3\n      mstore\n      0x40\n      dup1\n      dup6\n      keccak256\n      sub(shl(0xa0, 0x01), 0x01)\n        /* \"contracts/dETHRewardsPools.sol\":9916:9939  userInfo[_pid][_sender] */\n      dup9\n      and\n      dup7\n      mstore\n      swap1\n      swap3\n      mstore\n      swap3\n      keccak256\n        /* \"contracts/dETHRewardsPools.sol\":9958:9969  user.amount */\n      dup1\n      sload\n        /* \"contracts/dETHRewardsPools.sol\":9867:9881  poolInfo[_pid] */\n      0x05\n      swap1\n      swap3\n      mul\n      swap1\n      swap3\n      add\n      swap3\n      pop\n        /* \"contracts/dETHRewardsPools.sol\":9958:9980  user.amount >= _amount */\n      dup5\n      gt\n      iszero\n        /* \"contracts/dETHRewardsPools.sol\":9950:10003  require(user.amount >= _amount, \"withdraw: not good\") */\n      tag_198\n      jumpi\n      mload(0x40)\n      shl(0xe5, 0x461bcd)\n      dup2\n      mstore\n        /* \"#utility.yul\":6303:6305   */\n      0x20\n        /* \"contracts/dETHRewardsPools.sol\":9950:10003  require(user.amount >= _amount, \"withdraw: not good\") */\n      0x04\n      dup3\n      add\n        /* \"#utility.yul\":6285:6306   */\n      mstore\n        /* \"#utility.yul\":6342:6344   */\n      0x12\n        /* \"#utility.yul\":6322:6340   */\n      0x24\n      dup3\n      add\n        /* \"#utility.yul\":6315:6345   */\n      mstore\n      shl(0x72, 0x1dda5d1a191c985dce881b9bdd0819dbdbd9)\n        /* \"#utility.yul\":6361:6379   */\n      0x44\n      dup3\n      add\n        /* \"#utility.yul\":6354:6402   */\n      mstore\n        /* \"#utility.yul\":6419:6437   */\n      0x64\n      add\n        /* \"contracts/dETHRewardsPools.sol\":9950:10003  require(user.amount >= _amount, \"withdraw: not good\") */\n      tag_116\n        /* \"#utility.yul\":6101:6443   */\n      jump\n        /* \"contracts/dETHRewardsPools.sol\":9950:10003  require(user.amount >= _amount, \"withdraw: not good\") */\n    tag_198:\n        /* \"contracts/dETHRewardsPools.sol\":10014:10030  updatePool(_pid) */\n      tag_201\n        /* \"contracts/dETHRewardsPools.sol\":10025:10029  _pid */\n      dup6\n        /* \"contracts/dETHRewardsPools.sol\":10014:10024  updatePool */\n      tag_69\n        /* \"contracts/dETHRewardsPools.sol\":10014:10030  updatePool(_pid) */\n      jump\t// in\n    tag_201:\n        /* \"contracts/dETHRewardsPools.sol\":10041:10057  uint256 _pending */\n      0x00\n        /* \"contracts/dETHRewardsPools.sol\":10060:10128  user.amount.mul(pool.accDETHPerShare).div(1e18).sub(user.rewardDebt) */\n      tag_202\n        /* \"contracts/dETHRewardsPools.sol\":10112:10116  user */\n      dup3\n        /* \"contracts/dETHRewardsPools.sol\":10112:10127  user.rewardDebt */\n      0x01\n      add\n      sload\n        /* \"contracts/dETHRewardsPools.sol\":10060:10107  user.amount.mul(pool.accDETHPerShare).div(1e18) */\n      tag_161\n        /* \"contracts/dETHRewardsPools.sol\":10102:10106  1e18 */\n      0x0de0b6b3a7640000\n        /* \"contracts/dETHRewardsPools.sol\":10060:10097  user.amount.mul(pool.accDETHPerShare) */\n      tag_154\n        /* \"contracts/dETHRewardsPools.sol\":10076:10080  pool */\n      dup8\n        /* \"contracts/dETHRewardsPools.sol\":10076:10096  pool.accDETHPerShare */\n      0x03\n      add\n      sload\n        /* \"contracts/dETHRewardsPools.sol\":10060:10064  user */\n      dup8\n        /* \"contracts/dETHRewardsPools.sol\":10060:10071  user.amount */\n      0x00\n      add\n      sload\n        /* \"contracts/dETHRewardsPools.sol\":10060:10075  user.amount.mul */\n      tag_155\n      swap1\n        /* \"contracts/dETHRewardsPools.sol\":10060:10097  user.amount.mul(pool.accDETHPerShare) */\n      swap2\n      swap1\n      0xffffffff\n      and\n      jump\t// in\n        /* \"contracts/dETHRewardsPools.sol\":10060:10128  user.amount.mul(pool.accDETHPerShare).div(1e18).sub(user.rewardDebt) */\n    tag_202:\n        /* \"contracts/dETHRewardsPools.sol\":10041:10128  uint256 _pending = user.amount.mul(pool.accDETHPerShare).div(1e18).sub(user.rewardDebt) */\n      swap1\n      pop\n        /* \"contracts/dETHRewardsPools.sol\":10143:10155  _pending > 0 */\n      dup1\n      iszero\n        /* \"contracts/dETHRewardsPools.sol\":10139:10268  if (_pending > 0) {... */\n      tag_205\n      jumpi\n        /* \"contracts/dETHRewardsPools.sol\":10172:10207  safedETHTransfer(_sender, _pending) */\n      tag_206\n        /* \"contracts/dETHRewardsPools.sol\":10189:10196  _sender */\n      dup5\n        /* \"contracts/dETHRewardsPools.sol\":10198:10206  _pending */\n      dup3\n        /* \"contracts/dETHRewardsPools.sol\":10172:10188  safedETHTransfer */\n      tag_207\n        /* \"contracts/dETHRewardsPools.sol\":10172:10207  safedETHTransfer(_sender, _pending) */\n      jump\t// in\n    tag_206:\n        /* \"contracts/dETHRewardsPools.sol\":10238:10245  _sender */\n      dup4\n      sub(shl(0xa0, 0x01), 0x01)\n        /* \"contracts/dETHRewardsPools.sol\":10227:10256  RewardPaid(_sender, _pending) */\n      and\n      0xe2403640ba68fed3a2f88b7557551d1993f84b99bb10ff833f0cf8db0c5e0486\n        /* \"contracts/dETHRewardsPools.sol\":10247:10255  _pending */\n      dup3\n        /* \"contracts/dETHRewardsPools.sol\":10227:10256  RewardPaid(_sender, _pending) */\n      mload(0x40)\n      tag_208\n      swap2\n        /* \"#utility.yul\":1209:1234   */\n      dup2\n      mstore\n        /* \"#utility.yul\":1197:1199   */\n      0x20\n        /* \"#utility.yul\":1182:1200   */\n      add\n      swap1\n        /* \"#utility.yul\":1063:1240   */\n      jump\n        /* \"contracts/dETHRewardsPools.sol\":10227:10256  RewardPaid(_sender, _pending) */\n    tag_208:\n      mload(0x40)\n      dup1\n      swap2\n      sub\n      swap1\n      log2\n        /* \"contracts/dETHRewardsPools.sol\":10139:10268  if (_pending > 0) {... */\n    tag_205:\n        /* \"contracts/dETHRewardsPools.sol\":10282:10293  _amount > 0 */\n      dup5\n      iszero\n        /* \"contracts/dETHRewardsPools.sol\":10278:10416  if (_amount > 0) {... */\n      tag_211\n      jumpi\n        /* \"contracts/dETHRewardsPools.sol\":10324:10335  user.amount */\n      dup2\n      sload\n        /* \"contracts/dETHRewardsPools.sol\":10324:10348  user.amount.sub(_amount) */\n      tag_210\n      swap1\n        /* \"contracts/dETHRewardsPools.sol\":10340:10347  _amount */\n      dup7\n        /* \"contracts/dETHRewardsPools.sol\":10324:10339  user.amount.sub */\n      tag_163\n        /* \"contracts/dETHRewardsPools.sol\":10324:10348  user.amount.sub(_amount) */\n      jump\t// in\n    tag_210:\n        /* \"contracts/dETHRewardsPools.sol\":10310:10348  user.amount = user.amount.sub(_amount) */\n      dup3\n      sstore\n        /* \"contracts/dETHRewardsPools.sol\":10363:10373  pool.token */\n      dup3\n      sload\n        /* \"contracts/dETHRewardsPools.sol\":10363:10404  pool.token.safeTransfer(_sender, _amount) */\n      tag_211\n      swap1\n      sub(shl(0xa0, 0x01), 0x01)\n        /* \"contracts/dETHRewardsPools.sol\":10363:10373  pool.token */\n      and\n        /* \"contracts/dETHRewardsPools.sol\":10387:10394  _sender */\n      dup6\n        /* \"contracts/dETHRewardsPools.sol\":10396:10403  _amount */\n      dup8\n        /* \"contracts/dETHRewardsPools.sol\":10363:10386  pool.token.safeTransfer */\n      tag_212\n        /* \"contracts/dETHRewardsPools.sol\":10363:10404  pool.token.safeTransfer(_sender, _amount) */\n      jump\t// in\n    tag_211:\n        /* \"contracts/dETHRewardsPools.sol\":10460:10480  pool.accDETHPerShare */\n      0x03\n      dup4\n      add\n      sload\n        /* \"contracts/dETHRewardsPools.sol\":10444:10455  user.amount */\n      dup3\n      sload\n        /* \"contracts/dETHRewardsPools.sol\":10444:10491  user.amount.mul(pool.accDETHPerShare).div(1e18) */\n      tag_213\n      swap2\n        /* \"contracts/dETHRewardsPools.sol\":10486:10490  1e18 */\n      0x0de0b6b3a7640000\n      swap2\n        /* \"contracts/dETHRewardsPools.sol\":10444:10481  user.amount.mul(pool.accDETHPerShare) */\n      tag_154\n      swap2\n        /* \"contracts/dETHRewardsPools.sol\":10444:10459  user.amount.mul */\n      tag_155\n        /* \"contracts/dETHRewardsPools.sol\":10444:10481  user.amount.mul(pool.accDETHPerShare) */\n      jump\t// in\n        /* \"contracts/dETHRewardsPools.sol\":10444:10491  user.amount.mul(pool.accDETHPerShare).div(1e18) */\n    tag_213:\n        /* \"contracts/dETHRewardsPools.sol\":10426:10441  user.rewardDebt */\n      0x01\n      dup4\n      add\n        /* \"contracts/dETHRewardsPools.sol\":10426:10491  user.rewardDebt = user.amount.mul(pool.accDETHPerShare).div(1e18) */\n      sstore\n        /* \"contracts/dETHRewardsPools.sol\":10507:10539  Withdraw(_sender, _pid, _amount) */\n      mload(0x40)\n        /* \"#utility.yul\":1209:1234   */\n      dup6\n      dup2\n      mstore\n        /* \"contracts/dETHRewardsPools.sol\":10525:10529  _pid */\n      dup7\n      swap1\n      sub(shl(0xa0, 0x01), 0x01)\n        /* \"contracts/dETHRewardsPools.sol\":10507:10539  Withdraw(_sender, _pid, _amount) */\n      dup7\n      and\n      swap1\n      0xf279e6a1f5e320cca91135676d9cb6e44ca8a08c0b88342bcdb1144f6511b568\n      swap1\n        /* \"#utility.yul\":1197:1199   */\n      0x20\n        /* \"#utility.yul\":1182:1200   */\n      add\n        /* \"contracts/dETHRewardsPools.sol\":10507:10539  Withdraw(_sender, _pid, _amount) */\n      mload(0x40)\n      dup1\n      swap2\n      sub\n      swap1\n      log3\n        /* \"contracts/dETHRewardsPools.sol\":9793:10547  {... */\n      pop\n      pop\n      pop\n      pop\n        /* \"contracts/dETHRewardsPools.sol\":9737:10547  function withdraw(uint256 _pid, uint256 _amount) public {... */\n      pop\n      pop\n      jump\t// out\n        /* \"contracts/dETHRewardsPools.sol\":7623:8531  function updatePool(uint256 _pid) public {... */\n    tag_69:\n        /* \"contracts/dETHRewardsPools.sol\":7675:7696  PoolInfo storage pool */\n      0x00\n        /* \"contracts/dETHRewardsPools.sol\":7699:7707  poolInfo */\n      0x03\n        /* \"contracts/dETHRewardsPools.sol\":7708:7712  _pid */\n      dup3\n        /* \"contracts/dETHRewardsPools.sol\":7699:7713  poolInfo[_pid] */\n      dup2\n      sload\n      dup2\n      lt\n      tag_218\n      jumpi\n      tag_218\n      tag_143\n      jump\t// in\n    tag_218:\n      swap1\n      0x00\n      mstore\n      keccak256(0x00, 0x20)\n      swap1\n      0x05\n      mul\n      add\n        /* \"contracts/dETHRewardsPools.sol\":7675:7713  PoolInfo storage pool = poolInfo[_pid] */\n      swap1\n      pop\n        /* \"contracts/dETHRewardsPools.sol\":7747:7751  pool */\n      dup1\n        /* \"contracts/dETHRewardsPools.sol\":7747:7766  pool.lastRewardTime */\n      0x02\n      add\n      sload\n        /* \"contracts/dETHRewardsPools.sol\":7728:7743  block.timestamp */\n      timestamp\n        /* \"contracts/dETHRewardsPools.sol\":7728:7766  block.timestamp <= pool.lastRewardTime */\n      gt\n        /* \"contracts/dETHRewardsPools.sol\":7724:7801  if (block.timestamp <= pool.lastRewardTime) {... */\n      tag_220\n      jumpi\n        /* \"contracts/dETHRewardsPools.sol\":7783:7790  return; */\n      pop\n        /* \"contracts/dETHRewardsPools.sol\":7623:8531  function updatePool(uint256 _pid) public {... */\n      pop\n      jump\t// out\n        /* \"contracts/dETHRewardsPools.sol\":7724:7801  if (block.timestamp <= pool.lastRewardTime) {... */\n    tag_220:\n        /* \"contracts/dETHRewardsPools.sol\":7833:7843  pool.token */\n      dup1\n      sload\n        /* \"contracts/dETHRewardsPools.sol\":7833:7868  pool.token.balanceOf(address(this)) */\n      mload(0x40)\n      shl(0xe0, 0x70a08231)\n      dup2\n      mstore\n        /* \"contracts/dETHRewardsPools.sol\":7862:7866  this */\n      address\n        /* \"contracts/dETHRewardsPools.sol\":7833:7868  pool.token.balanceOf(address(this)) */\n      0x04\n      dup3\n      add\n        /* \"#utility.yul\":3082:3133   */\n      mstore\n        /* \"contracts/dETHRewardsPools.sol\":7811:7830  uint256 tokenSupply */\n      0x00\n      swap2\n      sub(shl(0xa0, 0x01), 0x01)\n        /* \"contracts/dETHRewardsPools.sol\":7833:7843  pool.token */\n      and\n      swap1\n        /* \"contracts/dETHRewardsPools.sol\":7833:7853  pool.token.balanceOf */\n      0x70a08231\n      swap1\n        /* \"#utility.yul\":3055:3073   */\n      0x24\n      add\n        /* \"contracts/dETHRewardsPools.sol\":7833:7868  pool.token.balanceOf(address(this)) */\n      0x20\n      mload(0x40)\n      dup1\n      dup4\n      sub\n      dup2\n      dup7\n      gas\n      staticcall\n      iszero\n      dup1\n      iszero\n      tag_223\n      jumpi\n      returndatasize\n      0x00\n      dup1\n      returndatacopy\n      revert(0x00, returndatasize)\n    tag_223:\n      pop\n      pop\n      pop\n      pop\n      mload(0x40)\n      returndatasize\n      not(0x1f)\n      0x1f\n      dup3\n      add\n      and\n      dup3\n      add\n      dup1\n      0x40\n      mstore\n      pop\n      dup2\n      add\n      swap1\n      tag_224\n      swap2\n      swap1\n      tag_149\n      jump\t// in\n    tag_224:\n        /* \"contracts/dETHRewardsPools.sol\":7811:7868  uint256 tokenSupply = pool.token.balanceOf(address(this)) */\n      swap1\n      pop\n        /* \"contracts/dETHRewardsPools.sol\":7883:7894  tokenSupply */\n      dup1\n        /* \"contracts/dETHRewardsPools.sol\":7898:7899  0 */\n      0x00\n        /* \"contracts/dETHRewardsPools.sol\":7883:7899  tokenSupply == 0 */\n      sub\n        /* \"contracts/dETHRewardsPools.sol\":7879:7986  if (tokenSupply == 0) {... */\n      tag_225\n      jumpi\n      pop\n        /* \"contracts/dETHRewardsPools.sol\":7938:7953  block.timestamp */\n      timestamp\n        /* \"contracts/dETHRewardsPools.sol\":7916:7935  pool.lastRewardTime */\n      0x02\n      swap1\n      swap2\n      add\n        /* \"contracts/dETHRewardsPools.sol\":7916:7953  pool.lastRewardTime = block.timestamp */\n      sstore\n      pop\n        /* \"contracts/dETHRewardsPools.sol\":7623:8531  function updatePool(uint256 _pid) public {... */\n      jump\t// out\n        /* \"contracts/dETHRewardsPools.sol\":7879:7986  if (tokenSupply == 0) {... */\n    tag_225:\n        /* \"contracts/dETHRewardsPools.sol\":8001:8015  pool.isStarted */\n      0x04\n      dup3\n      add\n      sload\n      0x010000\n      swap1\n      div\n      0xff\n      and\n        /* \"contracts/dETHRewardsPools.sol\":7996:8134  if (!pool.isStarted) {... */\n      tag_226\n      jumpi\n        /* \"contracts/dETHRewardsPools.sol\":8032:8046  pool.isStarted */\n      0x04\n      dup3\n      add\n        /* \"contracts/dETHRewardsPools.sol\":8032:8053  pool.isStarted = true */\n      dup1\n      sload\n      not(0xff0000)\n      and\n      0x010000\n      or\n      swap1\n      sstore\n        /* \"contracts/dETHRewardsPools.sol\":8049:8053  true */\n      0x01\n        /* \"contracts/dETHRewardsPools.sol\":8106:8121  pool.allocPoint */\n      dup3\n      add\n      sload\n        /* \"contracts/dETHRewardsPools.sol\":8086:8101  totalAllocPoint */\n      sload(0x05)\n        /* \"contracts/dETHRewardsPools.sol\":8086:8122  totalAllocPoint.add(pool.allocPoint) */\n      tag_227\n      swap2\n        /* \"contracts/dETHRewardsPools.sol\":8086:8105  totalAllocPoint.add */\n      tag_137\n        /* \"contracts/dETHRewardsPools.sol\":8086:8122  totalAllocPoint.add(pool.allocPoint) */\n      jump\t// in\n    tag_227:\n        /* \"contracts/dETHRewardsPools.sol\":8068:8083  totalAllocPoint */\n      0x05\n        /* \"contracts/dETHRewardsPools.sol\":8068:8122  totalAllocPoint = totalAllocPoint.add(pool.allocPoint) */\n      sstore\n        /* \"contracts/dETHRewardsPools.sol\":7996:8134  if (!pool.isStarted) {... */\n    tag_226:\n        /* \"contracts/dETHRewardsPools.sol\":8148:8163  totalAllocPoint */\n      sload(0x05)\n        /* \"contracts/dETHRewardsPools.sol\":8148:8167  totalAllocPoint > 0 */\n      iszero\n        /* \"contracts/dETHRewardsPools.sol\":8144:8476  if (totalAllocPoint > 0) {... */\n      tag_228\n      jumpi\n        /* \"contracts/dETHRewardsPools.sol\":8184:8208  uint256 _generatedReward */\n      0x00\n        /* \"contracts/dETHRewardsPools.sol\":8211:8267  getGeneratedReward(pool.lastRewardTime, block.timestamp) */\n      tag_229\n        /* \"contracts/dETHRewardsPools.sol\":8230:8234  pool */\n      dup4\n        /* \"contracts/dETHRewardsPools.sol\":8230:8249  pool.lastRewardTime */\n      0x02\n      add\n      sload\n        /* \"contracts/dETHRewardsPools.sol\":8251:8266  block.timestamp */\n      timestamp\n        /* \"contracts/dETHRewardsPools.sol\":8211:8229  getGeneratedReward */\n      tag_54\n        /* \"contracts/dETHRewardsPools.sol\":8211:8267  getGeneratedReward(pool.lastRewardTime, block.timestamp) */\n      jump\t// in\n    tag_229:\n        /* \"contracts/dETHRewardsPools.sol\":8184:8267  uint256 _generatedReward = getGeneratedReward(pool.lastRewardTime, block.timestamp) */\n      swap1\n      pop\n        /* \"contracts/dETHRewardsPools.sol\":8282:8301  uint256 _dethReward */\n      0x00\n        /* \"contracts/dETHRewardsPools.sol\":8304:8362  _generatedReward.mul(pool.allocPoint).div(totalAllocPoint) */\n      tag_230\n        /* \"contracts/dETHRewardsPools.sol\":8346:8361  totalAllocPoint */\n      sload(0x05)\n        /* \"contracts/dETHRewardsPools.sol\":8304:8341  _generatedReward.mul(pool.allocPoint) */\n      tag_154\n        /* \"contracts/dETHRewardsPools.sol\":8325:8329  pool */\n      dup7\n        /* \"contracts/dETHRewardsPools.sol\":8325:8340  pool.allocPoint */\n      0x01\n      add\n      sload\n        /* \"contracts/dETHRewardsPools.sol\":8304:8320  _generatedReward */\n      dup6\n        /* \"contracts/dETHRewardsPools.sol\":8304:8324  _generatedReward.mul */\n      tag_155\n      swap1\n        /* \"contracts/dETHRewardsPools.sol\":8304:8341  _generatedReward.mul(pool.allocPoint) */\n      swap2\n      swap1\n      0xffffffff\n      and\n      jump\t// in\n        /* \"contracts/dETHRewardsPools.sol\":8304:8362  _generatedReward.mul(pool.allocPoint).div(totalAllocPoint) */\n    tag_230:\n        /* \"contracts/dETHRewardsPools.sol\":8282:8362  uint256 _dethReward = _generatedReward.mul(pool.allocPoint).div(totalAllocPoint) */\n      swap1\n      pop\n        /* \"contracts/dETHRewardsPools.sol\":8400:8464  pool.accDETHPerShare.add(_dethReward.mul(1e18).div(tokenSupply)) */\n      tag_232\n        /* \"contracts/dETHRewardsPools.sol\":8425:8463  _dethReward.mul(1e18).div(tokenSupply) */\n      tag_233\n        /* \"contracts/dETHRewardsPools.sol\":8451:8462  tokenSupply */\n      dup5\n        /* \"contracts/dETHRewardsPools.sol\":8425:8446  _dethReward.mul(1e18) */\n      tag_154\n        /* \"contracts/dETHRewardsPools.sol\":8282:8362  uint256 _dethReward = _generatedReward.mul(pool.allocPoint).div(totalAllocPoint) */\n      dup5\n        /* \"contracts/dETHRewardsPools.sol\":8441:8445  1e18 */\n      0x0de0b6b3a7640000\n        /* \"contracts/dETHRewardsPools.sol\":8425:8440  _dethReward.mul */\n      tag_155\n        /* \"contracts/dETHRewardsPools.sol\":8425:8446  _dethReward.mul(1e18) */\n      jump\t// in\n        /* \"contracts/dETHRewardsPools.sol\":8425:8463  _dethReward.mul(1e18).div(tokenSupply) */\n    tag_233:\n        /* \"contracts/dETHRewardsPools.sol\":8400:8420  pool.accDETHPerShare */\n      0x03\n      dup7\n      add\n      sload\n      swap1\n        /* \"contracts/dETHRewardsPools.sol\":8400:8424  pool.accDETHPerShare.add */\n      tag_137\n        /* \"contracts/dETHRewardsPools.sol\":8400:8464  pool.accDETHPerShare.add(_dethReward.mul(1e18).div(tokenSupply)) */\n      jump\t// in\n    tag_232:\n        /* \"contracts/dETHRewardsPools.sol\":8377:8397  pool.accDETHPerShare */\n      0x03\n      dup6\n      add\n        /* \"contracts/dETHRewardsPools.sol\":8377:8464  pool.accDETHPerShare = pool.accDETHPerShare.add(_dethReward.mul(1e18).div(tokenSupply)) */\n      sstore\n      pop\n      pop\n        /* \"contracts/dETHRewardsPools.sol\":8144:8476  if (totalAllocPoint > 0) {... */\n    tag_228:\n      pop\n        /* \"contracts/dETHRewardsPools.sol\":8508:8523  block.timestamp */\n      timestamp\n        /* \"contracts/dETHRewardsPools.sol\":8486:8505  pool.lastRewardTime */\n      0x02\n      swap1\n      swap2\n      add\n        /* \"contracts/dETHRewardsPools.sol\":8486:8523  pool.lastRewardTime = block.timestamp */\n      sstore\n      pop\n        /* \"contracts/dETHRewardsPools.sol\":7623:8531  function updatePool(uint256 _pid) public {... */\n      jump\t// out\n        /* \"contracts/dETHRewardsPools.sol\":10618:10995  function emergencyWithdraw(uint256 _pid) public {... */\n    tag_72:\n        /* \"contracts/dETHRewardsPools.sol\":10677:10698  PoolInfo storage pool */\n      0x00\n        /* \"contracts/dETHRewardsPools.sol\":10701:10709  poolInfo */\n      0x03\n        /* \"contracts/dETHRewardsPools.sol\":10710:10714  _pid */\n      dup3\n        /* \"contracts/dETHRewardsPools.sol\":10701:10715  poolInfo[_pid] */\n      dup2\n      sload\n      dup2\n      lt\n      tag_237\n      jumpi\n      tag_237\n      tag_143\n      jump\t// in\n    tag_237:\n      0x00\n      swap2\n      dup3\n      mstore\n      0x20\n      dup1\n      dup4\n      keccak256\n        /* \"contracts/dETHRewardsPools.sol\":10750:10764  userInfo[_pid] */\n      dup6\n      dup5\n      mstore\n        /* \"contracts/dETHRewardsPools.sol\":10750:10758  userInfo */\n      0x04\n        /* \"contracts/dETHRewardsPools.sol\":10750:10764  userInfo[_pid] */\n      dup3\n      mstore\n      0x40\n      dup1\n      dup6\n      keccak256\n        /* \"contracts/dETHRewardsPools.sol\":10765:10775  msg.sender */\n      caller\n        /* \"contracts/dETHRewardsPools.sol\":10750:10776  userInfo[_pid][msg.sender] */\n      dup1\n      dup8\n      mstore\n      swap4\n      mstore\n      dup5\n      keccak256\n        /* \"contracts/dETHRewardsPools.sol\":10805:10816  user.amount */\n      dup1\n      sload\n        /* \"contracts/dETHRewardsPools.sol\":10827:10842  user.amount = 0 */\n      dup6\n      dup3\n      sstore\n      0x01\n        /* \"contracts/dETHRewardsPools.sol\":10853:10868  user.rewardDebt */\n      dup3\n      add\n        /* \"contracts/dETHRewardsPools.sol\":10853:10872  user.rewardDebt = 0 */\n      swap6\n      swap1\n      swap6\n      sstore\n        /* \"contracts/dETHRewardsPools.sol\":10701:10715  poolInfo[_pid] */\n      0x05\n      swap1\n      swap4\n      mul\n      add\n        /* \"contracts/dETHRewardsPools.sol\":10883:10893  pool.token */\n      dup1\n      sload\n        /* \"contracts/dETHRewardsPools.sol\":10701:10715  poolInfo[_pid] */\n      swap1\n      swap5\n      pop\n        /* \"contracts/dETHRewardsPools.sol\":10750:10776  userInfo[_pid][msg.sender] */\n      swap2\n      swap3\n        /* \"contracts/dETHRewardsPools.sol\":10805:10816  user.amount */\n      swap2\n        /* \"contracts/dETHRewardsPools.sol\":10883:10927  pool.token.safeTransfer(msg.sender, _amount) */\n      tag_239\n      swap2\n      sub(shl(0xa0, 0x01), 0x01)\n        /* \"contracts/dETHRewardsPools.sol\":10883:10893  pool.token */\n      swap2\n      swap1\n      swap2\n      and\n      swap1\n        /* \"contracts/dETHRewardsPools.sol\":10805:10816  user.amount */\n      dup4\n        /* \"contracts/dETHRewardsPools.sol\":10883:10906  pool.token.safeTransfer */\n      tag_212\n        /* \"contracts/dETHRewardsPools.sol\":10883:10927  pool.token.safeTransfer(msg.sender, _amount) */\n      jump\t// in\n    tag_239:\n        /* \"contracts/dETHRewardsPools.sol\":10943:10987  EmergencyWithdraw(msg.sender, _pid, _amount) */\n      mload(0x40)\n        /* \"#utility.yul\":1209:1234   */\n      dup2\n      dup2\n      mstore\n        /* \"contracts/dETHRewardsPools.sol\":10973:10977  _pid */\n      dup5\n      swap1\n        /* \"contracts/dETHRewardsPools.sol\":10961:10971  msg.sender */\n      caller\n      swap1\n        /* \"contracts/dETHRewardsPools.sol\":10943:10987  EmergencyWithdraw(msg.sender, _pid, _amount) */\n      0xbb757047c2b5f3974fe26b7c10f732e7bce710b0952a71082702781e62ae0595\n      swap1\n        /* \"#utility.yul\":1197:1199   */\n      0x20\n        /* \"#utility.yul\":1182:1200   */\n      add\n        /* \"contracts/dETHRewardsPools.sol\":10943:10987  EmergencyWithdraw(msg.sender, _pid, _amount) */\n      mload(0x40)\n      dup1\n      swap2\n      sub\n      swap1\n      log3\n        /* \"contracts/dETHRewardsPools.sol\":10666:10995  {... */\n      pop\n      pop\n      pop\n        /* \"contracts/dETHRewardsPools.sol\":10618:10995  function emergencyWithdraw(uint256 _pid) public {... */\n      pop\n      jump\t// out\n        /* \"contracts/dETHRewardsPools.sol\":11591:12230  function governanceRecoverUnsupported(... */\n    tag_76:\n        /* \"contracts/dETHRewardsPools.sol\":2980:2988  operator */\n      and(sub(shl(0xa0, 0x01), 0x01), sload(0x00))\n        /* \"contracts/dETHRewardsPools.sol\":2992:3002  msg.sender */\n      caller\n        /* \"contracts/dETHRewardsPools.sol\":2980:3002  operator == msg.sender */\n      eq\n        /* \"contracts/dETHRewardsPools.sol\":2972:3049  require(operator == msg.sender, \"dETHRewardPool: caller is not the operator\") */\n      tag_242\n      jumpi\n      mload(0x40)\n      shl(0xe5, 0x461bcd)\n      dup2\n      mstore\n      0x04\n      add\n      tag_116\n      swap1\n      tag_117\n      jump\t// in\n    tag_242:\n        /* \"contracts/dETHRewardsPools.sol\":11761:11772  poolEndTime */\n      sload(0x07)\n        /* \"contracts/dETHRewardsPools.sol\":11761:11782  poolEndTime + 90 days */\n      tag_245\n      swap1\n        /* \"contracts/dETHRewardsPools.sol\":11775:11782  90 days */\n      0x76a700\n        /* \"contracts/dETHRewardsPools.sol\":11761:11782  poolEndTime + 90 days */\n      tag_246\n      jump\t// in\n    tag_245:\n        /* \"contracts/dETHRewardsPools.sol\":11743:11758  block.timestamp */\n      timestamp\n        /* \"contracts/dETHRewardsPools.sol\":11743:11782  block.timestamp < poolEndTime + 90 days */\n      lt\n        /* \"contracts/dETHRewardsPools.sol\":11739:12181  if (block.timestamp < poolEndTime + 90 days) {... */\n      iszero\n      tag_247\n      jumpi\n        /* \"contracts/dETHRewardsPools.sol\":11918:11922  deth */\n      sload(0x01)\n      sub(shl(0xa0, 0x01), 0x01)\n      swap1\n      dup2\n      and\n        /* \"contracts/dETHRewardsPools.sol\":11908:11922  _token != deth */\n      swap1\n      dup5\n      and\n      sub\n        /* \"contracts/dETHRewardsPools.sol\":11900:11931  require(_token != deth, \"deth\") */\n      tag_248\n      jumpi\n      mload(0x40)\n      shl(0xe5, 0x461bcd)\n      dup2\n      mstore\n      0x04\n      add\n      tag_116\n      swap1\n        /* \"#utility.yul\":6912:6914   */\n      0x20\n        /* \"#utility.yul\":6894:6915   */\n      dup1\n      dup3\n      mstore\n        /* \"#utility.yul\":6951:6952   */\n      0x04\n        /* \"#utility.yul\":6931:6949   */\n      swap1\n      dup3\n      add\n        /* \"#utility.yul\":6924:6953   */\n      mstore\n      shl(0xe3, 0x0c8cae8d)\n        /* \"#utility.yul\":6984:6986   */\n      0x40\n        /* \"#utility.yul\":6969:6987   */\n      dup3\n      add\n        /* \"#utility.yul\":6962:6996   */\n      mstore\n        /* \"#utility.yul\":7028:7030   */\n      0x60\n        /* \"#utility.yul\":7013:7031   */\n      add\n      swap1\n        /* \"#utility.yul\":6710:7037   */\n      jump\n        /* \"contracts/dETHRewardsPools.sol\":11900:11931  require(_token != deth, \"deth\") */\n    tag_248:\n        /* \"contracts/dETHRewardsPools.sol\":11963:11971  poolInfo */\n      0x03\n        /* \"contracts/dETHRewardsPools.sol\":11963:11978  poolInfo.length */\n      sload\n        /* \"contracts/dETHRewardsPools.sol\":11946:11960  uint256 length */\n      0x00\n        /* \"contracts/dETHRewardsPools.sol\":11993:12170  for (uint256 pid = 0; pid < length; ++pid) {... */\n    tag_251:\n        /* \"contracts/dETHRewardsPools.sol\":12021:12027  length */\n      dup2\n        /* \"contracts/dETHRewardsPools.sol\":12015:12018  pid */\n      dup2\n        /* \"contracts/dETHRewardsPools.sol\":12015:12027  pid < length */\n      lt\n        /* \"contracts/dETHRewardsPools.sol\":11993:12170  for (uint256 pid = 0; pid < length; ++pid) {... */\n      iszero\n      tag_252\n      jumpi\n        /* \"contracts/dETHRewardsPools.sol\":12055:12076  PoolInfo storage pool */\n      0x00\n        /* \"contracts/dETHRewardsPools.sol\":12079:12087  poolInfo */\n      0x03\n        /* \"contracts/dETHRewardsPools.sol\":12088:12091  pid */\n      dup3\n        /* \"contracts/dETHRewardsPools.sol\":12079:12092  poolInfo[pid] */\n      dup2\n      sload\n      dup2\n      lt\n      tag_255\n      jumpi\n      tag_255\n      tag_143\n      jump\t// in\n    tag_255:\n      0x00\n      swap2\n      dup3\n      mstore\n      0x20\n      swap1\n      swap2\n      keccak256\n      0x05\n      swap1\n      swap2\n      mul\n      add\n        /* \"contracts/dETHRewardsPools.sol\":12129:12139  pool.token */\n      dup1\n      sload\n        /* \"contracts/dETHRewardsPools.sol\":12079:12092  poolInfo[pid] */\n      swap1\n      swap2\n      pop\n      sub(shl(0xa0, 0x01), 0x01)\n        /* \"contracts/dETHRewardsPools.sol\":12129:12139  pool.token */\n      swap1\n      dup2\n      and\n        /* \"contracts/dETHRewardsPools.sol\":12119:12139  _token != pool.token */\n      swap1\n      dup8\n      and\n      sub\n        /* \"contracts/dETHRewardsPools.sol\":12111:12154  require(_token != pool.token, \"pool.token\") */\n      tag_257\n      jumpi\n      mload(0x40)\n      shl(0xe5, 0x461bcd)\n      dup2\n      mstore\n        /* \"#utility.yul\":7244:7246   */\n      0x20\n        /* \"contracts/dETHRewardsPools.sol\":12111:12154  require(_token != pool.token, \"pool.token\") */\n      0x04\n      dup3\n      add\n        /* \"#utility.yul\":7226:7247   */\n      mstore\n        /* \"#utility.yul\":7283:7285   */\n      0x0a\n        /* \"#utility.yul\":7263:7281   */\n      0x24\n      dup3\n      add\n        /* \"#utility.yul\":7256:7286   */\n      mstore\n      shl(0xb1, 0x3837b7b6173a37b5b2b7)\n        /* \"#utility.yul\":7302:7320   */\n      0x44\n      dup3\n      add\n        /* \"#utility.yul\":7295:7335   */\n      mstore\n        /* \"#utility.yul\":7352:7370   */\n      0x64\n      add\n        /* \"contracts/dETHRewardsPools.sol\":12111:12154  require(_token != pool.token, \"pool.token\") */\n      tag_116\n        /* \"#utility.yul\":7042:7376   */\n      jump\n        /* \"contracts/dETHRewardsPools.sol\":12111:12154  require(_token != pool.token, \"pool.token\") */\n    tag_257:\n      pop\n        /* \"contracts/dETHRewardsPools.sol\":12029:12034  ++pid */\n      tag_260\n      dup2\n      tag_261\n      jump\t// in\n    tag_260:\n      swap1\n      pop\n        /* \"contracts/dETHRewardsPools.sol\":11993:12170  for (uint256 pid = 0; pid < length; ++pid) {... */\n      jump(tag_251)\n    tag_252:\n      pop\n        /* \"contracts/dETHRewardsPools.sol\":11784:12181  {... */\n      pop\n        /* \"contracts/dETHRewardsPools.sol\":11739:12181  if (block.timestamp < poolEndTime + 90 days) {... */\n    tag_247:\n        /* \"contracts/dETHRewardsPools.sol\":12191:12222  _token.safeTransfer(to, amount) */\n      tag_262\n      sub(shl(0xa0, 0x01), 0x01)\n        /* \"contracts/dETHRewardsPools.sol\":12191:12210  _token.safeTransfer */\n      dup5\n      and\n        /* \"contracts/dETHRewardsPools.sol\":12211:12213  to */\n      dup3\n        /* \"contracts/dETHRewardsPools.sol\":12215:12221  amount */\n      dup5\n        /* \"contracts/dETHRewardsPools.sol\":12191:12210  _token.safeTransfer */\n      tag_212\n        /* \"contracts/dETHRewardsPools.sol\":12191:12222  _token.safeTransfer(to, amount) */\n      jump\t// in\n    tag_262:\n        /* \"contracts/dETHRewardsPools.sol\":11591:12230  function governanceRecoverUnsupported(... */\n      pop\n      pop\n      pop\n      jump\t// out\n        /* \"contracts/dETHRewardsPools.sol\":7367:7547  function massUpdatePools() public {... */\n    tag_84:\n        /* \"contracts/dETHRewardsPools.sol\":7429:7437  poolInfo */\n      0x03\n        /* \"contracts/dETHRewardsPools.sol\":7429:7444  poolInfo.length */\n      sload\n        /* \"contracts/dETHRewardsPools.sol\":7412:7426  uint256 length */\n      0x00\n        /* \"contracts/dETHRewardsPools.sol\":7455:7540  for (uint256 pid = 0; pid < length; ++pid) {... */\n    tag_264:\n        /* \"contracts/dETHRewardsPools.sol\":7483:7489  length */\n      dup2\n        /* \"contracts/dETHRewardsPools.sol\":7477:7480  pid */\n      dup2\n        /* \"contracts/dETHRewardsPools.sol\":7477:7489  pid < length */\n      lt\n        /* \"contracts/dETHRewardsPools.sol\":7455:7540  for (uint256 pid = 0; pid < length; ++pid) {... */\n      iszero\n      tag_265\n      jumpi\n        /* \"contracts/dETHRewardsPools.sol\":7513:7528  updatePool(pid) */\n      tag_267\n        /* \"contracts/dETHRewardsPools.sol\":7524:7527  pid */\n      dup2\n        /* \"contracts/dETHRewardsPools.sol\":7513:7523  updatePool */\n      tag_69\n        /* \"contracts/dETHRewardsPools.sol\":7513:7528  updatePool(pid) */\n      jump\t// in\n    tag_267:\n        /* \"contracts/dETHRewardsPools.sol\":7491:7496  ++pid */\n      tag_268\n      dup2\n      tag_261\n      jump\t// in\n    tag_268:\n      swap1\n      pop\n        /* \"contracts/dETHRewardsPools.sol\":7455:7540  for (uint256 pid = 0; pid < length; ++pid) {... */\n      jump(tag_264)\n    tag_265:\n      pop\n        /* \"contracts/dETHRewardsPools.sol\":7401:7547  {... */\n      pop\n        /* \"contracts/dETHRewardsPools.sol\":7367:7547  function massUpdatePools() public {... */\n      jump\t// out\n        /* \"contracts/dETHRewardsPools.sol\":11482:11583  function setOperator(address _operator) external onlyOperator {... */\n    tag_99:\n        /* \"contracts/dETHRewardsPools.sol\":2980:2988  operator */\n      and(sub(shl(0xa0, 0x01), 0x01), sload(0x00))\n        /* \"contracts/dETHRewardsPools.sol\":2992:3002  msg.sender */\n      caller\n        /* \"contracts/dETHRewardsPools.sol\":2980:3002  operator == msg.sender */\n      eq\n        /* \"contracts/dETHRewardsPools.sol\":2972:3049  require(operator == msg.sender, \"dETHRewardPool: caller is not the operator\") */\n      tag_270\n      jumpi\n      mload(0x40)\n      shl(0xe5, 0x461bcd)\n      dup2\n      mstore\n      0x04\n      add\n      tag_116\n      swap1\n      tag_117\n      jump\t// in\n    tag_270:\n        /* \"contracts/dETHRewardsPools.sol\":11555:11563  operator */\n      0x00\n        /* \"contracts/dETHRewardsPools.sol\":11555:11575  operator = _operator */\n      dup1\n      sload\n      not(sub(shl(0xa0, 0x01), 0x01))\n      and\n      sub(shl(0xa0, 0x01), 0x01)\n      swap3\n      swap1\n      swap3\n      and\n      swap2\n      swap1\n      swap2\n      or\n      swap1\n      sstore\n        /* \"contracts/dETHRewardsPools.sol\":11482:11583  function setOperator(address _operator) external onlyOperator {... */\n      jump\t// out\n        /* \"contracts/dETHRewardsPools.sol\":8566:9701  function deposit(uint256 _pid, uint256 _amount) public {... */\n    tag_109:\n        /* \"contracts/dETHRewardsPools.sol\":8632:8647  address _sender */\n      0x00\n        /* \"contracts/dETHRewardsPools.sol\":8650:8660  msg.sender */\n      caller\n        /* \"contracts/dETHRewardsPools.sol\":8632:8660  address _sender = msg.sender */\n      swap1\n      pop\n        /* \"contracts/dETHRewardsPools.sol\":8671:8692  PoolInfo storage pool */\n      0x00\n        /* \"contracts/dETHRewardsPools.sol\":8695:8703  poolInfo */\n      0x03\n        /* \"contracts/dETHRewardsPools.sol\":8704:8708  _pid */\n      dup5\n        /* \"contracts/dETHRewardsPools.sol\":8695:8709  poolInfo[_pid] */\n      dup2\n      sload\n      dup2\n      lt\n      tag_275\n      jumpi\n      tag_275\n      tag_143\n      jump\t// in\n    tag_275:\n      0x00\n      swap2\n      dup3\n      mstore\n      0x20\n      dup1\n      dup4\n      keccak256\n        /* \"contracts/dETHRewardsPools.sol\":8744:8758  userInfo[_pid] */\n      dup8\n      dup5\n      mstore\n        /* \"contracts/dETHRewardsPools.sol\":8744:8752  userInfo */\n      0x04\n        /* \"contracts/dETHRewardsPools.sol\":8744:8758  userInfo[_pid] */\n      dup3\n      mstore\n      0x40\n      dup1\n      dup6\n      keccak256\n      sub(shl(0xa0, 0x01), 0x01)\n        /* \"contracts/dETHRewardsPools.sol\":8744:8767  userInfo[_pid][_sender] */\n      dup9\n      and\n      dup7\n      mstore\n      swap1\n      swap3\n      mstore\n      swap3\n      keccak256\n        /* \"contracts/dETHRewardsPools.sol\":8695:8709  poolInfo[_pid] */\n      0x05\n      swap1\n      swap2\n      mul\n      swap1\n      swap2\n      add\n      swap2\n      pop\n        /* \"contracts/dETHRewardsPools.sol\":8778:8794  updatePool(_pid) */\n      tag_277\n        /* \"contracts/dETHRewardsPools.sol\":8753:8757  _pid */\n      dup6\n        /* \"contracts/dETHRewardsPools.sol\":8778:8788  updatePool */\n      tag_69\n        /* \"contracts/dETHRewardsPools.sol\":8778:8794  updatePool(_pid) */\n      jump\t// in\n    tag_277:\n        /* \"contracts/dETHRewardsPools.sol\":8809:8820  user.amount */\n      dup1\n      sload\n        /* \"contracts/dETHRewardsPools.sol\":8809:8824  user.amount > 0 */\n      iszero\n        /* \"contracts/dETHRewardsPools.sol\":8805:9102  if (user.amount > 0) {... */\n      tag_278\n      jumpi\n        /* \"contracts/dETHRewardsPools.sol\":8841:8857  uint256 _pending */\n      0x00\n        /* \"contracts/dETHRewardsPools.sol\":8860:8928  user.amount.mul(pool.accDETHPerShare).div(1e18).sub(user.rewardDebt) */\n      tag_279\n        /* \"contracts/dETHRewardsPools.sol\":8912:8916  user */\n      dup3\n        /* \"contracts/dETHRewardsPools.sol\":8912:8927  user.rewardDebt */\n      0x01\n      add\n      sload\n        /* \"contracts/dETHRewardsPools.sol\":8860:8907  user.amount.mul(pool.accDETHPerShare).div(1e18) */\n      tag_161\n        /* \"contracts/dETHRewardsPools.sol\":8902:8906  1e18 */\n      0x0de0b6b3a7640000\n        /* \"contracts/dETHRewardsPools.sol\":8860:8897  user.amount.mul(pool.accDETHPerShare) */\n      tag_154\n        /* \"contracts/dETHRewardsPools.sol\":8876:8880  pool */\n      dup8\n        /* \"contracts/dETHRewardsPools.sol\":8876:8896  pool.accDETHPerShare */\n      0x03\n      add\n      sload\n        /* \"contracts/dETHRewardsPools.sol\":8860:8864  user */\n      dup8\n        /* \"contracts/dETHRewardsPools.sol\":8860:8871  user.amount */\n      0x00\n      add\n      sload\n        /* \"contracts/dETHRewardsPools.sol\":8860:8875  user.amount.mul */\n      tag_155\n      swap1\n        /* \"contracts/dETHRewardsPools.sol\":8860:8897  user.amount.mul(pool.accDETHPerShare) */\n      swap2\n      swap1\n      0xffffffff\n      and\n      jump\t// in\n        /* \"contracts/dETHRewardsPools.sol\":8860:8928  user.amount.mul(pool.accDETHPerShare).div(1e18).sub(user.rewardDebt) */\n    tag_279:\n        /* \"contracts/dETHRewardsPools.sol\":8841:8928  uint256 _pending = user.amount.mul(pool.accDETHPerShare).div(1e18).sub(user.rewardDebt) */\n      swap1\n      pop\n        /* \"contracts/dETHRewardsPools.sol\":8947:8959  _pending > 0 */\n      dup1\n      iszero\n        /* \"contracts/dETHRewardsPools.sol\":8943:9091  if (_pending > 0) {... */\n      tag_282\n      jumpi\n        /* \"contracts/dETHRewardsPools.sol\":8980:8990  pool.token */\n      dup3\n      sload\n        /* \"contracts/dETHRewardsPools.sol\":8980:9022  pool.token.safeTransfer(_sender, _pending) */\n      tag_283\n      swap1\n      sub(shl(0xa0, 0x01), 0x01)\n        /* \"contracts/dETHRewardsPools.sol\":8980:8990  pool.token */\n      and\n        /* \"contracts/dETHRewardsPools.sol\":9004:9011  _sender */\n      dup6\n        /* \"contracts/dETHRewardsPools.sol\":9013:9021  _pending */\n      dup4\n        /* \"contracts/dETHRewardsPools.sol\":8980:9003  pool.token.safeTransfer */\n      tag_212\n        /* \"contracts/dETHRewardsPools.sol\":8980:9022  pool.token.safeTransfer(_sender, _pending) */\n      jump\t// in\n    tag_283:\n        /* \"contracts/dETHRewardsPools.sol\":9057:9064  _sender */\n      dup4\n      sub(shl(0xa0, 0x01), 0x01)\n        /* \"contracts/dETHRewardsPools.sol\":9046:9075  RewardPaid(_sender, _pending) */\n      and\n      0xe2403640ba68fed3a2f88b7557551d1993f84b99bb10ff833f0cf8db0c5e0486\n        /* \"contracts/dETHRewardsPools.sol\":9066:9074  _pending */\n      dup3\n        /* \"contracts/dETHRewardsPools.sol\":9046:9075  RewardPaid(_sender, _pending) */\n      mload(0x40)\n      tag_284\n      swap2\n        /* \"#utility.yul\":1209:1234   */\n      dup2\n      mstore\n        /* \"#utility.yul\":1197:1199   */\n      0x20\n        /* \"#utility.yul\":1182:1200   */\n      add\n      swap1\n        /* \"#utility.yul\":1063:1240   */\n      jump\n        /* \"contracts/dETHRewardsPools.sol\":9046:9075  RewardPaid(_sender, _pending) */\n    tag_284:\n      mload(0x40)\n      dup1\n      swap2\n      sub\n      swap1\n      log2\n        /* \"contracts/dETHRewardsPools.sol\":8943:9091  if (_pending > 0) {... */\n    tag_282:\n        /* \"contracts/dETHRewardsPools.sol\":8826:9102  {... */\n      pop\n        /* \"contracts/dETHRewardsPools.sol\":8805:9102  if (user.amount > 0) {... */\n    tag_278:\n        /* \"contracts/dETHRewardsPools.sol\":9116:9127  _amount > 0 */\n      dup4\n      iszero\n        /* \"contracts/dETHRewardsPools.sol\":9112:9694  if (_amount > 0) {... */\n      tag_285\n      jumpi\n        /* \"contracts/dETHRewardsPools.sol\":9144:9154  pool.token */\n      dup2\n      sload\n        /* \"contracts/dETHRewardsPools.sol\":9144:9204  pool.token.safeTransferFrom(_sender, address(this), _amount) */\n      tag_286\n      swap1\n      sub(shl(0xa0, 0x01), 0x01)\n        /* \"contracts/dETHRewardsPools.sol\":9144:9154  pool.token */\n      and\n        /* \"contracts/dETHRewardsPools.sol\":9172:9179  _sender */\n      dup5\n        /* \"contracts/dETHRewardsPools.sol\":9189:9193  this */\n      address\n        /* \"contracts/dETHRewardsPools.sol\":9196:9203  _amount */\n      dup8\n        /* \"contracts/dETHRewardsPools.sol\":9144:9171  pool.token.safeTransferFrom */\n      tag_287\n        /* \"contracts/dETHRewardsPools.sol\":9144:9204  pool.token.safeTransferFrom(_sender, address(this), _amount) */\n      jump\t// in\n    tag_286:\n        /* \"contracts/dETHRewardsPools.sol\":9223:9240  pool.depositFeeBP */\n      0x04\n      dup3\n      add\n      sload\n      0xffff\n      and\n        /* \"contracts/dETHRewardsPools.sol\":9223:9244  pool.depositFeeBP > 0 */\n      iszero\n        /* \"contracts/dETHRewardsPools.sol\":9219:9561  if (pool.depositFeeBP > 0) {... */\n      tag_288\n      jumpi\n        /* \"contracts/dETHRewardsPools.sol\":9298:9315  pool.depositFeeBP */\n      0x04\n      dup3\n      add\n      sload\n        /* \"contracts/dETHRewardsPools.sol\":9265:9283  uint256 depositFee */\n      0x00\n      swap1\n        /* \"contracts/dETHRewardsPools.sol\":9286:9327  _amount.mul(pool.depositFeeBP).div(10000) */\n      tag_289\n      swap1\n        /* \"contracts/dETHRewardsPools.sol\":9321:9326  10000 */\n      0x2710\n      swap1\n        /* \"contracts/dETHRewardsPools.sol\":9286:9316  _amount.mul(pool.depositFeeBP) */\n      tag_154\n      swap1\n        /* \"contracts/dETHRewardsPools.sol\":9286:9293  _amount */\n      dup9\n      swap1\n        /* \"contracts/dETHRewardsPools.sol\":9298:9315  pool.depositFeeBP */\n      0xffff\n      and\n        /* \"contracts/dETHRewardsPools.sol\":9286:9297  _amount.mul */\n      tag_155\n        /* \"contracts/dETHRewardsPools.sol\":9286:9316  _amount.mul(pool.depositFeeBP) */\n      jump\t// in\n        /* \"contracts/dETHRewardsPools.sol\":9286:9327  _amount.mul(pool.depositFeeBP).div(10000) */\n    tag_289:\n        /* \"contracts/dETHRewardsPools.sol\":9370:9380  feeAddress */\n      sload(0x02)\n        /* \"contracts/dETHRewardsPools.sol\":9346:9356  pool.token */\n      dup5\n      sload\n        /* \"contracts/dETHRewardsPools.sol\":9265:9327  uint256 depositFee = _amount.mul(pool.depositFeeBP).div(10000) */\n      swap2\n      swap3\n      pop\n        /* \"contracts/dETHRewardsPools.sol\":9346:9393  pool.token.safeTransfer(feeAddress, depositFee) */\n      tag_291\n      swap2\n      sub(shl(0xa0, 0x01), 0x01)\n        /* \"contracts/dETHRewardsPools.sol\":9346:9356  pool.token */\n      swap1\n      dup2\n      and\n      swap2\n        /* \"contracts/dETHRewardsPools.sol\":9370:9380  feeAddress */\n      and\n        /* \"contracts/dETHRewardsPools.sol\":9265:9327  uint256 depositFee = _amount.mul(pool.depositFeeBP).div(10000) */\n      dup4\n        /* \"contracts/dETHRewardsPools.sol\":9346:9369  pool.token.safeTransfer */\n      tag_212\n        /* \"contracts/dETHRewardsPools.sol\":9346:9393  pool.token.safeTransfer(feeAddress, depositFee) */\n      jump\t// in\n    tag_291:\n        /* \"contracts/dETHRewardsPools.sol\":9426:9437  user.amount */\n      dup2\n      sload\n        /* \"contracts/dETHRewardsPools.sol\":9426:9466  user.amount.add(_amount).sub(depositFee) */\n      tag_292\n      swap1\n        /* \"contracts/dETHRewardsPools.sol\":9455:9465  depositFee */\n      dup3\n      swap1\n        /* \"contracts/dETHRewardsPools.sol\":9426:9450  user.amount.add(_amount) */\n      tag_161\n      swap1\n        /* \"contracts/dETHRewardsPools.sol\":9442:9449  _amount */\n      dup9\n        /* \"contracts/dETHRewardsPools.sol\":9426:9441  user.amount.add */\n      tag_137\n        /* \"contracts/dETHRewardsPools.sol\":9426:9450  user.amount.add(_amount) */\n      jump\t// in\n        /* \"contracts/dETHRewardsPools.sol\":9426:9466  user.amount.add(_amount).sub(depositFee) */\n    tag_292:\n        /* \"contracts/dETHRewardsPools.sol\":9412:9466  user.amount = user.amount.add(_amount).sub(depositFee) */\n      dup3\n      sstore\n      pop\n        /* \"contracts/dETHRewardsPools.sol\":9219:9561  if (pool.depositFeeBP > 0) {... */\n      jump(tag_294)\n    tag_288:\n        /* \"contracts/dETHRewardsPools.sol\":9521:9532  user.amount */\n      dup1\n      sload\n        /* \"contracts/dETHRewardsPools.sol\":9521:9545  user.amount.add(_amount) */\n      tag_295\n      swap1\n        /* \"contracts/dETHRewardsPools.sol\":9537:9544  _amount */\n      dup6\n        /* \"contracts/dETHRewardsPools.sol\":9521:9536  user.amount.add */\n      tag_137\n        /* \"contracts/dETHRewardsPools.sol\":9521:9545  user.amount.add(_amount) */\n      jump\t// in\n    tag_295:\n        /* \"contracts/dETHRewardsPools.sol\":9507:9545  user.amount = user.amount.add(_amount) */\n      dup2\n      sstore\n        /* \"contracts/dETHRewardsPools.sol\":9219:9561  if (pool.depositFeeBP > 0) {... */\n    tag_294:\n        /* \"contracts/dETHRewardsPools.sol\":9605:9625  pool.accDETHPerShare */\n      0x03\n      dup3\n      add\n      sload\n        /* \"contracts/dETHRewardsPools.sol\":9589:9600  user.amount */\n      dup2\n      sload\n        /* \"contracts/dETHRewardsPools.sol\":9589:9636  user.amount.mul(pool.accDETHPerShare).div(1e18) */\n      tag_296\n      swap2\n        /* \"contracts/dETHRewardsPools.sol\":9631:9635  1e18 */\n      0x0de0b6b3a7640000\n      swap2\n        /* \"contracts/dETHRewardsPools.sol\":9589:9626  user.amount.mul(pool.accDETHPerShare) */\n      tag_154\n      swap2\n        /* \"contracts/dETHRewardsPools.sol\":9589:9604  user.amount.mul */\n      tag_155\n        /* \"contracts/dETHRewardsPools.sol\":9589:9626  user.amount.mul(pool.accDETHPerShare) */\n      jump\t// in\n        /* \"contracts/dETHRewardsPools.sol\":9589:9636  user.amount.mul(pool.accDETHPerShare).div(1e18) */\n    tag_296:\n        /* \"contracts/dETHRewardsPools.sol\":9571:9586  user.rewardDebt */\n      0x01\n      dup3\n      add\n        /* \"contracts/dETHRewardsPools.sol\":9571:9636  user.rewardDebt = user.amount.mul(pool.accDETHPerShare).div(1e18) */\n      sstore\n        /* \"contracts/dETHRewardsPools.sol\":9652:9683  Deposit(_sender, _pid, _amount) */\n      mload(0x40)\n        /* \"#utility.yul\":1209:1234   */\n      dup5\n      dup2\n      mstore\n        /* \"contracts/dETHRewardsPools.sol\":9669:9673  _pid */\n      dup6\n      swap1\n      sub(shl(0xa0, 0x01), 0x01)\n        /* \"contracts/dETHRewardsPools.sol\":9652:9683  Deposit(_sender, _pid, _amount) */\n      dup6\n      and\n      swap1\n      0x90890809c654f11d6e72a28fa60149770a0d11ec6c92319d6ceb2bb0a4ea1a15\n      swap1\n        /* \"#utility.yul\":1197:1199   */\n      0x20\n        /* \"#utility.yul\":1182:1200   */\n      add\n        /* \"contracts/dETHRewardsPools.sol\":9652:9683  Deposit(_sender, _pid, _amount) */\n      mload(0x40)\n      dup1\n      swap2\n      sub\n      swap1\n      log3\n        /* \"contracts/dETHRewardsPools.sol\":9112:9694  if (_amount > 0) {... */\n    tag_285:\n        /* \"contracts/dETHRewardsPools.sol\":8621:9701  {... */\n      pop\n      pop\n      pop\n        /* \"contracts/dETHRewardsPools.sol\":8566:9701  function deposit(uint256 _pid, uint256 _amount) public {... */\n      pop\n      pop\n      jump\t// out\n        /* \"contracts/dETHRewardsPools.sol\":5337:5719  function setGlobalDepositFee(uint16 _globalDepositFeeBP) external onlyOperator {... */\n    tag_113:\n        /* \"contracts/dETHRewardsPools.sol\":2980:2988  operator */\n      and(sub(shl(0xa0, 0x01), 0x01), sload(0x00))\n        /* \"contracts/dETHRewardsPools.sol\":2992:3002  msg.sender */\n      caller\n        /* \"contracts/dETHRewardsPools.sol\":2980:3002  operator == msg.sender */\n      eq\n        /* \"contracts/dETHRewardsPools.sol\":2972:3049  require(operator == msg.sender, \"dETHRewardPool: caller is not the operator\") */\n      tag_300\n      jumpi\n      mload(0x40)\n      shl(0xe5, 0x461bcd)\n      dup2\n      mstore\n      0x04\n      add\n      tag_116\n      swap1\n      tag_117\n      jump\t// in\n    tag_300:\n        /* \"contracts/dETHRewardsPools.sol\":5435:5459  _globalDepositFeeBP <= 0 */\n      0xffff\n      dup2\n      and\n      iszero\n        /* \"contracts/dETHRewardsPools.sol\":5427:5501  require(_globalDepositFeeBP <= 0, \"set: invalid deposit fee basis points\") */\n      tag_303\n      jumpi\n      mload(0x40)\n      shl(0xe5, 0x461bcd)\n      dup2\n      mstore\n        /* \"#utility.yul\":7723:7725   */\n      0x20\n        /* \"contracts/dETHRewardsPools.sol\":5427:5501  require(_globalDepositFeeBP <= 0, \"set: invalid deposit fee basis points\") */\n      0x04\n      dup3\n      add\n        /* \"#utility.yul\":7705:7726   */\n      mstore\n        /* \"#utility.yul\":7762:7764   */\n      0x25\n        /* \"#utility.yul\":7742:7760   */\n      0x24\n      dup3\n      add\n        /* \"#utility.yul\":7735:7765   */\n      mstore\n        /* \"#utility.yul\":7801:7835   */\n      0x7365743a20696e76616c6964206465706f736974206665652062617369732070\n        /* \"#utility.yul\":7781:7799   */\n      0x44\n      dup3\n      add\n        /* \"#utility.yul\":7774:7836   */\n      mstore\n      shl(0xd8, 0x6f696e7473)\n        /* \"#utility.yul\":7852:7870   */\n      0x64\n      dup3\n      add\n        /* \"#utility.yul\":7845:7880   */\n      mstore\n        /* \"#utility.yul\":7897:7916   */\n      0x84\n      add\n        /* \"contracts/dETHRewardsPools.sol\":5427:5501  require(_globalDepositFeeBP <= 0, \"set: invalid deposit fee basis points\") */\n      tag_116\n        /* \"#utility.yul\":7521:7922   */\n      jump\n        /* \"contracts/dETHRewardsPools.sol\":5427:5501  require(_globalDepositFeeBP <= 0, \"set: invalid deposit fee basis points\") */\n    tag_303:\n        /* \"contracts/dETHRewardsPools.sol\":5517:5528  uint256 pid */\n      0x00\n        /* \"contracts/dETHRewardsPools.sol\":5512:5712  for (uint256 pid = 0; pid < poolInfo.length; ++pid) {                ... */\n    tag_306:\n        /* \"contracts/dETHRewardsPools.sol\":5540:5548  poolInfo */\n      0x03\n        /* \"contracts/dETHRewardsPools.sol\":5540:5555  poolInfo.length */\n      sload\n        /* \"contracts/dETHRewardsPools.sol\":5534:5555  pid < poolInfo.length */\n      dup2\n      lt\n        /* \"contracts/dETHRewardsPools.sol\":5512:5712  for (uint256 pid = 0; pid < poolInfo.length; ++pid) {                ... */\n      iszero\n      tag_265\n      jumpi\n        /* \"contracts/dETHRewardsPools.sol\":5604:5607  pid */\n      dup1\n        /* \"contracts/dETHRewardsPools.sol\":5596:5685  setPool(pid, address(poolInfo[pid].token), poolInfo[pid].allocPoint, _globalDepositFeeBP) */\n      0x39f0c3d078af018954b4fa56832a05a2b511afaa999b133ea3f1c487c21ed287\n        /* \"contracts/dETHRewardsPools.sol\":5617:5625  poolInfo */\n      0x03\n        /* \"contracts/dETHRewardsPools.sol\":5626:5629  pid */\n      dup4\n        /* \"contracts/dETHRewardsPools.sol\":5617:5630  poolInfo[pid] */\n      dup2\n      sload\n      dup2\n      lt\n      tag_310\n      jumpi\n      tag_310\n      tag_143\n      jump\t// in\n    tag_310:\n      0x00\n      swap2\n      dup3\n      mstore\n      0x20\n      swap1\n      swap2\n      keccak256\n      0x05\n      swap1\n      swap2\n      mul\n      add\n        /* \"contracts/dETHRewardsPools.sol\":5617:5636  poolInfo[pid].token */\n      sload\n        /* \"contracts/dETHRewardsPools.sol\":5639:5647  poolInfo */\n      0x03\n        /* \"contracts/dETHRewardsPools.sol\":5639:5652  poolInfo[pid] */\n      dup1\n      sload\n      sub(shl(0xa0, 0x01), 0x01)\n        /* \"contracts/dETHRewardsPools.sol\":5617:5636  poolInfo[pid].token */\n      swap1\n      swap3\n      and\n      swap2\n        /* \"contracts/dETHRewardsPools.sol\":5648:5651  pid */\n      dup6\n      swap1\n        /* \"contracts/dETHRewardsPools.sol\":5639:5652  poolInfo[pid] */\n      dup2\n      lt\n      tag_313\n      jumpi\n      tag_313\n      tag_143\n      jump\t// in\n    tag_313:\n      0x00\n      swap2\n      dup3\n      mstore\n      0x20\n      swap2\n      dup3\n      swap1\n      keccak256\n        /* \"contracts/dETHRewardsPools.sol\":5639:5663  poolInfo[pid].allocPoint */\n      0x01\n        /* \"contracts/dETHRewardsPools.sol\":5639:5652  poolInfo[pid] */\n      0x05\n      swap1\n      swap3\n      mul\n      add\n        /* \"contracts/dETHRewardsPools.sol\":5639:5663  poolInfo[pid].allocPoint */\n      add\n      sload\n        /* \"contracts/dETHRewardsPools.sol\":5596:5685  setPool(pid, address(poolInfo[pid].token), poolInfo[pid].allocPoint, _globalDepositFeeBP) */\n      0x40\n      dup1\n      mload\n      sub(shl(0xa0, 0x01), 0x01)\n        /* \"#utility.yul\":8146:8178   */\n      swap1\n      swap5\n      and\n        /* \"#utility.yul\":8128:8179   */\n      dup5\n      mstore\n        /* \"#utility.yul\":8195:8213   */\n      swap2\n      dup4\n      add\n        /* \"#utility.yul\":8188:8222   */\n      mstore\n        /* \"#utility.yul\":8270:8276   */\n      0xffff\n        /* \"#utility.yul\":8258:8277   */\n      dup7\n      and\n        /* \"#utility.yul\":8238:8256   */\n      swap1\n      dup3\n      add\n        /* \"#utility.yul\":8231:8278   */\n      mstore\n        /* \"#utility.yul\":8116:8118   */\n      0x60\n        /* \"#utility.yul\":8101:8119   */\n      add\n        /* \"contracts/dETHRewardsPools.sol\":5596:5685  setPool(pid, address(poolInfo[pid].token), poolInfo[pid].allocPoint, _globalDepositFeeBP) */\n      mload(0x40)\n      dup1\n      swap2\n      sub\n      swap1\n      log2\n        /* \"contracts/dETHRewardsPools.sol\":5557:5562  ++pid */\n      tag_317\n      dup2\n      tag_261\n      jump\t// in\n    tag_317:\n      swap1\n      pop\n        /* \"contracts/dETHRewardsPools.sol\":5512:5712  for (uint256 pid = 0; pid < poolInfo.length; ++pid) {                ... */\n      jump(tag_306)\n        /* \"contracts/dETHRewardsPools.sol\":3077:3337  function checkPoolDuplicate(IERC20 _token) internal view {... */\n    tag_120:\n        /* \"contracts/dETHRewardsPools.sol\":3162:3170  poolInfo */\n      0x03\n        /* \"contracts/dETHRewardsPools.sol\":3162:3177  poolInfo.length */\n      sload\n        /* \"contracts/dETHRewardsPools.sol\":3145:3159  uint256 length */\n      0x00\n        /* \"contracts/dETHRewardsPools.sol\":3188:3330  for (uint256 pid = 0; pid < length; ++pid) {... */\n    tag_319:\n        /* \"contracts/dETHRewardsPools.sol\":3216:3222  length */\n      dup2\n        /* \"contracts/dETHRewardsPools.sol\":3210:3213  pid */\n      dup2\n        /* \"contracts/dETHRewardsPools.sol\":3210:3222  pid < length */\n      lt\n        /* \"contracts/dETHRewardsPools.sol\":3188:3330  for (uint256 pid = 0; pid < length; ++pid) {... */\n      iszero\n      tag_262\n      jumpi\n        /* \"contracts/dETHRewardsPools.sol\":3277:3283  _token */\n      dup3\n      sub(shl(0xa0, 0x01), 0x01)\n        /* \"contracts/dETHRewardsPools.sol\":3254:3283  poolInfo[pid].token != _token */\n      and\n        /* \"contracts/dETHRewardsPools.sol\":3254:3262  poolInfo */\n      0x03\n        /* \"contracts/dETHRewardsPools.sol\":3263:3266  pid */\n      dup3\n        /* \"contracts/dETHRewardsPools.sol\":3254:3267  poolInfo[pid] */\n      dup2\n      sload\n      dup2\n      lt\n      tag_323\n      jumpi\n      tag_323\n      tag_143\n      jump\t// in\n    tag_323:\n      0x00\n      swap2\n      dup3\n      mstore\n      0x20\n      swap1\n      swap2\n      keccak256\n      0x05\n      swap1\n      swap2\n      mul\n      add\n        /* \"contracts/dETHRewardsPools.sol\":3254:3273  poolInfo[pid].token */\n      sload\n      sub(shl(0xa0, 0x01), 0x01)\n      and\n        /* \"contracts/dETHRewardsPools.sol\":3254:3283  poolInfo[pid].token != _token */\n      sub\n        /* \"contracts/dETHRewardsPools.sol\":3246:3318  require(poolInfo[pid].token != _token, \"dETHRewardPool: existing pool?\") */\n      tag_325\n      jumpi\n      mload(0x40)\n      shl(0xe5, 0x461bcd)\n      dup2\n      mstore\n        /* \"#utility.yul\":8491:8493   */\n      0x20\n        /* \"contracts/dETHRewardsPools.sol\":3246:3318  require(poolInfo[pid].token != _token, \"dETHRewardPool: existing pool?\") */\n      0x04\n      dup3\n      add\n        /* \"#utility.yul\":8473:8494   */\n      mstore\n        /* \"#utility.yul\":8530:8532   */\n      0x1e\n        /* \"#utility.yul\":8510:8528   */\n      0x24\n      dup3\n      add\n        /* \"#utility.yul\":8503:8533   */\n      mstore\n        /* \"#utility.yul\":8569:8601   */\n      0x64455448526577617264506f6f6c3a206578697374696e6720706f6f6c3f0000\n        /* \"#utility.yul\":8549:8567   */\n      0x44\n      dup3\n      add\n        /* \"#utility.yul\":8542:8602   */\n      mstore\n        /* \"#utility.yul\":8619:8637   */\n      0x64\n      add\n        /* \"contracts/dETHRewardsPools.sol\":3246:3318  require(poolInfo[pid].token != _token, \"dETHRewardPool: existing pool?\") */\n      tag_116\n        /* \"#utility.yul\":8289:8643   */\n      jump\n        /* \"contracts/dETHRewardsPools.sol\":3246:3318  require(poolInfo[pid].token != _token, \"dETHRewardPool: existing pool?\") */\n    tag_325:\n        /* \"contracts/dETHRewardsPools.sol\":3224:3229  ++pid */\n      tag_328\n      dup2\n      tag_261\n      jump\t// in\n    tag_328:\n      swap1\n      pop\n        /* \"contracts/dETHRewardsPools.sol\":3188:3330  for (uint256 pid = 0; pid < length; ++pid) {... */\n      jump(tag_319)\n        /* \"@openzeppelin/contracts/utils/math/SafeMath.sol\":2755:2851  function add(uint256 a, uint256 b) internal pure returns (uint256) {... */\n    tag_137:\n        /* \"@openzeppelin/contracts/utils/math/SafeMath.sol\":2813:2820  uint256 */\n      0x00\n        /* \"@openzeppelin/contracts/utils/math/SafeMath.sol\":2839:2844  a + b */\n      tag_330\n        /* \"@openzeppelin/contracts/utils/math/SafeMath.sol\":2843:2844  b */\n      dup3\n        /* \"@openzeppelin/contracts/utils/math/SafeMath.sol\":2839:2840  a */\n      dup5\n        /* \"@openzeppelin/contracts/utils/math/SafeMath.sol\":2839:2844  a + b */\n      tag_246\n      jump\t// in\n    tag_330:\n        /* \"@openzeppelin/contracts/utils/math/SafeMath.sol\":2832:2844  return a + b */\n      swap4\n        /* \"@openzeppelin/contracts/utils/math/SafeMath.sol\":2755:2851  function add(uint256 a, uint256 b) internal pure returns (uint256) {... */\n      swap3\n      pop\n      pop\n      pop\n      jump\t// out\n        /* \"@openzeppelin/contracts/utils/math/SafeMath.sol\":3465:3561  function mul(uint256 a, uint256 b) internal pure returns (uint256) {... */\n    tag_155:\n        /* \"@openzeppelin/contracts/utils/math/SafeMath.sol\":3523:3530  uint256 */\n      0x00\n        /* \"@openzeppelin/contracts/utils/math/SafeMath.sol\":3549:3554  a * b */\n      tag_330\n        /* \"@openzeppelin/contracts/utils/math/SafeMath.sol\":3553:3554  b */\n      dup3\n        /* \"@openzeppelin/contracts/utils/math/SafeMath.sol\":3549:3550  a */\n      dup5\n        /* \"@openzeppelin/contracts/utils/math/SafeMath.sol\":3549:3554  a * b */\n      tag_333\n      jump\t// in\n        /* \"@openzeppelin/contracts/utils/math/SafeMath.sol\":3850:3946  function div(uint256 a, uint256 b) internal pure returns (uint256) {... */\n    tag_156:\n        /* \"@openzeppelin/contracts/utils/math/SafeMath.sol\":3908:3915  uint256 */\n      0x00\n        /* \"@openzeppelin/contracts/utils/math/SafeMath.sol\":3934:3939  a / b */\n      tag_330\n        /* \"@openzeppelin/contracts/utils/math/SafeMath.sol\":3938:3939  b */\n      dup3\n        /* \"@openzeppelin/contracts/utils/math/SafeMath.sol\":3934:3935  a */\n      dup5\n        /* \"@openzeppelin/contracts/utils/math/SafeMath.sol\":3934:3939  a / b */\n      tag_336\n      jump\t// in\n        /* \"@openzeppelin/contracts/utils/math/SafeMath.sol\":3122:3218  function sub(uint256 a, uint256 b) internal pure returns (uint256) {... */\n    tag_163:\n        /* \"@openzeppelin/contracts/utils/math/SafeMath.sol\":3180:3187  uint256 */\n      0x00\n        /* \"@openzeppelin/contracts/utils/math/SafeMath.sol\":3206:3211  a - b */\n      tag_330\n        /* \"@openzeppelin/contracts/utils/math/SafeMath.sol\":3210:3211  b */\n      dup3\n        /* \"@openzeppelin/contracts/utils/math/SafeMath.sol\":3206:3207  a */\n      dup5\n        /* \"@openzeppelin/contracts/utils/math/SafeMath.sol\":3206:3211  a - b */\n      tag_339\n      jump\t// in\n        /* \"contracts/dETHRewardsPools.sol\":11109:11474  function safedETHTransfer(address _to, uint256 _amount) internal {... */\n    tag_207:\n        /* \"contracts/dETHRewardsPools.sol\":11208:11212  deth */\n      sload(0x01)\n        /* \"contracts/dETHRewardsPools.sol\":11208:11237  deth.balanceOf(address(this)) */\n      mload(0x40)\n      shl(0xe0, 0x70a08231)\n      dup2\n      mstore\n        /* \"contracts/dETHRewardsPools.sol\":11231:11235  this */\n      address\n        /* \"contracts/dETHRewardsPools.sol\":11208:11237  deth.balanceOf(address(this)) */\n      0x04\n      dup3\n      add\n        /* \"#utility.yul\":3082:3133   */\n      mstore\n        /* \"contracts/dETHRewardsPools.sol\":11185:11205  uint256 _dETHBalance */\n      0x00\n      swap2\n      sub(shl(0xa0, 0x01), 0x01)\n        /* \"contracts/dETHRewardsPools.sol\":11208:11212  deth */\n      and\n      swap1\n        /* \"contracts/dETHRewardsPools.sol\":11208:11222  deth.balanceOf */\n      0x70a08231\n      swap1\n        /* \"#utility.yul\":3055:3073   */\n      0x24\n      add\n        /* \"contracts/dETHRewardsPools.sol\":11208:11237  deth.balanceOf(address(this)) */\n      0x20\n      mload(0x40)\n      dup1\n      dup4\n      sub\n      dup2\n      dup7\n      gas\n      staticcall\n      iszero\n      dup1\n      iszero\n      tag_343\n      jumpi\n      returndatasize\n      0x00\n      dup1\n      returndatacopy\n      revert(0x00, returndatasize)\n    tag_343:\n      pop\n      pop\n      pop\n      pop\n      mload(0x40)\n      returndatasize\n      not(0x1f)\n      0x1f\n      dup3\n      add\n      and\n      dup3\n      add\n      dup1\n      0x40\n      mstore\n      pop\n      dup2\n      add\n      swap1\n      tag_344\n      swap2\n      swap1\n      tag_149\n      jump\t// in\n    tag_344:\n        /* \"contracts/dETHRewardsPools.sol\":11185:11237  uint256 _dETHBalance = deth.balanceOf(address(this)) */\n      swap1\n      pop\n        /* \"contracts/dETHRewardsPools.sol\":11252:11268  _dETHBalance > 0 */\n      dup1\n      iszero\n        /* \"contracts/dETHRewardsPools.sol\":11248:11467  if (_dETHBalance > 0) {... */\n      tag_262\n      jumpi\n        /* \"contracts/dETHRewardsPools.sol\":11299:11311  _dETHBalance */\n      dup1\n        /* \"contracts/dETHRewardsPools.sol\":11289:11296  _amount */\n      dup3\n        /* \"contracts/dETHRewardsPools.sol\":11289:11311  _amount > _dETHBalance */\n      gt\n        /* \"contracts/dETHRewardsPools.sol\":11285:11456  if (_amount > _dETHBalance) {... */\n      iszero\n      tag_346\n      jumpi\n        /* \"contracts/dETHRewardsPools.sol\":11332:11336  deth */\n      sload(0x01)\n        /* \"contracts/dETHRewardsPools.sol\":11332:11368  deth.safeTransfer(_to, _dETHBalance) */\n      tag_262\n      swap1\n      sub(shl(0xa0, 0x01), 0x01)\n        /* \"contracts/dETHRewardsPools.sol\":11332:11336  deth */\n      and\n        /* \"contracts/dETHRewardsPools.sol\":11350:11353  _to */\n      dup5\n        /* \"contracts/dETHRewardsPools.sol\":11355:11367  _dETHBalance */\n      dup4\n        /* \"contracts/dETHRewardsPools.sol\":11332:11349  deth.safeTransfer */\n      tag_212\n        /* \"contracts/dETHRewardsPools.sol\":11332:11368  deth.safeTransfer(_to, _dETHBalance) */\n      jump\t// in\n        /* \"contracts/dETHRewardsPools.sol\":11285:11456  if (_amount > _dETHBalance) {... */\n    tag_346:\n        /* \"contracts/dETHRewardsPools.sol\":11409:11413  deth */\n      sload(0x01)\n        /* \"contracts/dETHRewardsPools.sol\":11409:11440  deth.safeTransfer(_to, _amount) */\n      tag_262\n      swap1\n      sub(shl(0xa0, 0x01), 0x01)\n        /* \"contracts/dETHRewardsPools.sol\":11409:11413  deth */\n      and\n        /* \"contracts/dETHRewardsPools.sol\":11427:11430  _to */\n      dup5\n        /* \"contracts/dETHRewardsPools.sol\":11432:11439  _amount */\n      dup5\n        /* \"@openzeppelin/contracts/token/ERC20/utils/SafeERC20.sol\":763:968  function safeTransfer(... */\n    tag_212:\n        /* \"@openzeppelin/contracts/token/ERC20/utils/SafeERC20.sol\":902:960  abi.encodeWithSelector(token.transfer.selector, to, value) */\n      mload(0x40)\n      sub(shl(0xa0, 0x01), 0x01)\n        /* \"#utility.yul\":9368:9400   */\n      dup4\n      and\n        /* \"@openzeppelin/contracts/token/ERC20/utils/SafeERC20.sol\":902:960  abi.encodeWithSelector(token.transfer.selector, to, value) */\n      0x24\n      dup3\n      add\n        /* \"#utility.yul\":9350:9401   */\n      mstore\n        /* \"#utility.yul\":9417:9435   */\n      0x44\n      dup2\n      add\n        /* \"#utility.yul\":9410:9444   */\n      dup3\n      swap1\n      mstore\n        /* \"@openzeppelin/contracts/token/ERC20/utils/SafeERC20.sol\":875:961  _callOptionalReturn(token, abi.encodeWithSelector(token.transfer.selector, to, value)) */\n      tag_262\n      swap1\n        /* \"@openzeppelin/contracts/token/ERC20/utils/SafeERC20.sol\":895:900  token */\n      dup5\n      swap1\n      shl(0xe0, 0xa9059cbb)\n        /* \"@openzeppelin/contracts/token/ERC20/utils/SafeERC20.sol\":925:948  token.transfer.selector */\n      swap1\n        /* \"#utility.yul\":9323:9341   */\n      0x64\n      add\n        /* \"@openzeppelin/contracts/token/ERC20/utils/SafeERC20.sol\":902:960  abi.encodeWithSelector(token.transfer.selector, to, value) */\n    tag_352:\n      0x40\n      dup1\n      mload\n      not(0x1f)\n      dup2\n      dup5\n      sub\n      add\n      dup2\n      mstore\n      swap2\n      swap1\n      mstore\n      0x20\n      dup2\n      add\n      dup1\n      mload\n      sub(shl(0xe0, 0x01), 0x01)\n      and\n      not(sub(shl(0xe0, 0x01), 0x01))\n      swap1\n      swap4\n      and\n      swap3\n      swap1\n      swap3\n      or\n      swap1\n      swap2\n      mstore\n        /* \"@openzeppelin/contracts/token/ERC20/utils/SafeERC20.sol\":875:894  _callOptionalReturn */\n      tag_354\n        /* \"@openzeppelin/contracts/token/ERC20/utils/SafeERC20.sol\":875:961  _callOptionalReturn(token, abi.encodeWithSelector(token.transfer.selector, to, value)) */\n      jump\t// in\n        /* \"@openzeppelin/contracts/token/ERC20/utils/SafeERC20.sol\":974:1215  function safeTransferFrom(... */\n    tag_287:\n        /* \"@openzeppelin/contracts/token/ERC20/utils/SafeERC20.sol\":1139:1207  abi.encodeWithSelector(token.transferFrom.selector, from, to, value) */\n      mload(0x40)\n      sub(shl(0xa0, 0x01), 0x01)\n        /* \"#utility.yul\":9713:9728   */\n      dup1\n      dup6\n      and\n        /* \"@openzeppelin/contracts/token/ERC20/utils/SafeERC20.sol\":1139:1207  abi.encodeWithSelector(token.transferFrom.selector, from, to, value) */\n      0x24\n      dup4\n      add\n        /* \"#utility.yul\":9695:9729   */\n      mstore\n        /* \"#utility.yul\":9765:9780   */\n      dup4\n      and\n        /* \"#utility.yul\":9745:9763   */\n      0x44\n      dup3\n      add\n        /* \"#utility.yul\":9738:9781   */\n      mstore\n        /* \"#utility.yul\":9797:9815   */\n      0x64\n      dup2\n      add\n        /* \"#utility.yul\":9790:9824   */\n      dup3\n      swap1\n      mstore\n        /* \"@openzeppelin/contracts/token/ERC20/utils/SafeERC20.sol\":1112:1208  _callOptionalReturn(token, abi.encodeWithSelector(token.transferFrom.selector, from, to, value)) */\n      tag_356\n      swap1\n        /* \"@openzeppelin/contracts/token/ERC20/utils/SafeERC20.sol\":1132:1137  token */\n      dup6\n      swap1\n      shl(0xe0, 0x23b872dd)\n        /* \"@openzeppelin/contracts/token/ERC20/utils/SafeERC20.sol\":1162:1189  token.transferFrom.selector */\n      swap1\n        /* \"#utility.yul\":9630:9648   */\n      0x84\n      add\n        /* \"@openzeppelin/contracts/token/ERC20/utils/SafeERC20.sol\":1139:1207  abi.encodeWithSelector(token.transferFrom.selector, from, to, value) */\n      tag_352\n        /* \"#utility.yul\":9455:9830   */\n      jump\n        /* \"@openzeppelin/contracts/token/ERC20/utils/SafeERC20.sol\":1112:1208  _callOptionalReturn(token, abi.encodeWithSelector(token.transferFrom.selector, from, to, value)) */\n    tag_356:\n        /* \"@openzeppelin/contracts/token/ERC20/utils/SafeERC20.sol\":974:1215  function safeTransferFrom(... */\n      pop\n      pop\n      pop\n      pop\n      jump\t// out\n        /* \"@openzeppelin/contracts/token/ERC20/utils/SafeERC20.sol\":3747:4453  function _callOptionalReturn(IERC20 token, bytes memory data) private {... */\n    tag_354:\n        /* \"@openzeppelin/contracts/token/ERC20/utils/SafeERC20.sol\":4166:4189  bytes memory returndata */\n      0x00\n        /* \"@openzeppelin/contracts/token/ERC20/utils/SafeERC20.sol\":4192:4261  address(token).functionCall(data, \"SafeERC20: low-level call failed\") */\n      tag_360\n        /* \"@openzeppelin/contracts/token/ERC20/utils/SafeERC20.sol\":4220:4224  data */\n      dup3\n        /* \"@openzeppelin/contracts/token/ERC20/utils/SafeERC20.sol\":4192:4261  address(token).functionCall(data, \"SafeERC20: low-level call failed\") */\n      mload(0x40)\n      dup1\n      0x40\n      add\n      0x40\n      mstore\n      dup1\n      0x20\n      dup2\n      mstore\n      0x20\n      add\n      0x5361666545524332303a206c6f772d6c6576656c2063616c6c206661696c6564\n      dup2\n      mstore\n      pop\n        /* \"@openzeppelin/contracts/token/ERC20/utils/SafeERC20.sol\":4200:4205  token */\n      dup6\n      sub(shl(0xa0, 0x01), 0x01)\n        /* \"@openzeppelin/contracts/token/ERC20/utils/SafeERC20.sol\":4192:4219  address(token).functionCall */\n      and\n      tag_361\n      swap1\n        /* \"@openzeppelin/contracts/token/ERC20/utils/SafeERC20.sol\":4192:4261  address(token).functionCall(data, \"SafeERC20: low-level call failed\") */\n      swap3\n      swap2\n      swap1\n      0xffffffff\n      and\n      jump\t// in\n    tag_360:\n        /* \"@openzeppelin/contracts/token/ERC20/utils/SafeERC20.sol\":4275:4292  returndata.length */\n      dup1\n      mload\n        /* \"@openzeppelin/contracts/token/ERC20/utils/SafeERC20.sol\":4166:4261  bytes memory returndata = address(token).functionCall(data, \"SafeERC20: low-level call failed\") */\n      swap1\n      swap2\n      pop\n        /* \"@openzeppelin/contracts/token/ERC20/utils/SafeERC20.sol\":4275:4296  returndata.length > 0 */\n      iszero\n        /* \"@openzeppelin/contracts/token/ERC20/utils/SafeERC20.sol\":4271:4447  if (returndata.length > 0) {... */\n      tag_262\n      jumpi\n        /* \"@openzeppelin/contracts/token/ERC20/utils/SafeERC20.sol\":4370:4380  returndata */\n      dup1\n        /* \"@openzeppelin/contracts/token/ERC20/utils/SafeERC20.sol\":4359:4389  abi.decode(returndata, (bool)) */\n      dup1\n      0x20\n      add\n      swap1\n      mload\n      dup2\n      add\n      swap1\n      tag_363\n      swap2\n      swap1\n      tag_364\n      jump\t// in\n    tag_363:\n        /* \"@openzeppelin/contracts/token/ERC20/utils/SafeERC20.sol\":4351:4436  require(abi.decode(returndata, (bool)), \"SafeERC20: ERC20 operation did not succeed\") */\n      tag_262\n      jumpi\n      mload(0x40)\n      shl(0xe5, 0x461bcd)\n      dup2\n      mstore\n        /* \"#utility.yul\":10287:10289   */\n      0x20\n        /* \"@openzeppelin/contracts/token/ERC20/utils/SafeERC20.sol\":4351:4436  require(abi.decode(returndata, (bool)), \"SafeERC20: ERC20 operation did not succeed\") */\n      0x04\n      dup3\n      add\n        /* \"#utility.yul\":10269:10290   */\n      mstore\n        /* \"#utility.yul\":10326:10328   */\n      0x2a\n        /* \"#utility.yul\":10306:10324   */\n      0x24\n      dup3\n      add\n        /* \"#utility.yul\":10299:10329   */\n      mstore\n        /* \"#utility.yul\":10365:10399   */\n      0x5361666545524332303a204552433230206f7065726174696f6e20646964206e\n        /* \"#utility.yul\":10345:10363   */\n      0x44\n      dup3\n      add\n        /* \"#utility.yul\":10338:10400   */\n      mstore\n      shl(0xb2, 0x1bdd081cdd58d8d95959)\n        /* \"#utility.yul\":10416:10434   */\n      0x64\n      dup3\n      add\n        /* \"#utility.yul\":10409:10449   */\n      mstore\n        /* \"#utility.yul\":10466:10485   */\n      0x84\n      add\n        /* \"@openzeppelin/contracts/token/ERC20/utils/SafeERC20.sol\":4351:4436  require(abi.decode(returndata, (bool)), \"SafeERC20: ERC20 operation did not succeed\") */\n      tag_116\n        /* \"#utility.yul\":10085:10491   */\n      jump\n        /* \"@openzeppelin/contracts/utils/Address.sol\":3861:4084  function functionCall(... */\n    tag_361:\n        /* \"@openzeppelin/contracts/utils/Address.sol\":3994:4006  bytes memory */\n      0x60\n        /* \"@openzeppelin/contracts/utils/Address.sol\":4025:4077  functionCallWithValue(target, data, 0, errorMessage) */\n      tag_369\n        /* \"@openzeppelin/contracts/utils/Address.sol\":4047:4053  target */\n      dup5\n        /* \"@openzeppelin/contracts/utils/Address.sol\":4055:4059  data */\n      dup5\n        /* \"@openzeppelin/contracts/utils/Address.sol\":4061:4062  0 */\n      0x00\n        /* \"@openzeppelin/contracts/utils/Address.sol\":4064:4076  errorMessage */\n      dup6\n        /* \"@openzeppelin/contracts/utils/Address.sol\":4025:4046  functionCallWithValue */\n      tag_370\n        /* \"@openzeppelin/contracts/utils/Address.sol\":4025:4077  functionCallWithValue(target, data, 0, errorMessage) */\n      jump\t// in\n    tag_369:\n        /* \"@openzeppelin/contracts/utils/Address.sol\":4018:4077  return functionCallWithValue(target, data, 0, errorMessage) */\n      swap5\n        /* \"@openzeppelin/contracts/utils/Address.sol\":3861:4084  function functionCall(... */\n      swap4\n      pop\n      pop\n      pop\n      pop\n      jump\t// out\n        /* \"@openzeppelin/contracts/utils/Address.sol\":4948:5447  function functionCallWithValue(... */\n    tag_370:\n        /* \"@openzeppelin/contracts/utils/Address.sol\":5113:5125  bytes memory */\n      0x60\n        /* \"@openzeppelin/contracts/utils/Address.sol\":5170:5175  value */\n      dup3\n        /* \"@openzeppelin/contracts/utils/Address.sol\":5145:5166  address(this).balance */\n      selfbalance\n        /* \"@openzeppelin/contracts/utils/Address.sol\":5145:5175  address(this).balance >= value */\n      lt\n      iszero\n        /* \"@openzeppelin/contracts/utils/Address.sol\":5137:5218  require(address(this).balance >= value, \"Address: insufficient balance for call\") */\n      tag_372\n      jumpi\n      mload(0x40)\n      shl(0xe5, 0x461bcd)\n      dup2\n      mstore\n        /* \"#utility.yul\":10698:10700   */\n      0x20\n        /* \"@openzeppelin/contracts/utils/Address.sol\":5137:5218  require(address(this).balance >= value, \"Address: insufficient balance for call\") */\n      0x04\n      dup3\n      add\n        /* \"#utility.yul\":10680:10701   */\n      mstore\n        /* \"#utility.yul\":10737:10739   */\n      0x26\n        /* \"#utility.yul\":10717:10735   */\n      0x24\n      dup3\n      add\n        /* \"#utility.yul\":10710:10740   */\n      mstore\n        /* \"#utility.yul\":10776:10810   */\n      0x416464726573733a20696e73756666696369656e742062616c616e636520666f\n        /* \"#utility.yul\":10756:10774   */\n      0x44\n      dup3\n      add\n        /* \"#utility.yul\":10749:10811   */\n      mstore\n      shl(0xd2, 0x1c8818d85b1b)\n        /* \"#utility.yul\":10827:10845   */\n      0x64\n      dup3\n      add\n        /* \"#utility.yul\":10820:10856   */\n      mstore\n        /* \"#utility.yul\":10873:10892   */\n      0x84\n      add\n        /* \"@openzeppelin/contracts/utils/Address.sol\":5137:5218  require(address(this).balance >= value, \"Address: insufficient balance for call\") */\n      tag_116\n        /* \"#utility.yul\":10496:10898   */\n      jump\n        /* \"@openzeppelin/contracts/utils/Address.sol\":5137:5218  require(address(this).balance >= value, \"Address: insufficient balance for call\") */\n    tag_372:\n      sub(shl(0xa0, 0x01), 0x01)\n        /* \"@openzeppelin/contracts/utils/Address.sol\":1465:1484  account.code.length */\n      dup6\n      and\n      extcodesize\n        /* \"@openzeppelin/contracts/utils/Address.sol\":5228:5288  require(isContract(target), \"Address: call to non-contract\") */\n      tag_377\n      jumpi\n      mload(0x40)\n      shl(0xe5, 0x461bcd)\n      dup2\n      mstore\n        /* \"#utility.yul\":11105:11107   */\n      0x20\n        /* \"@openzeppelin/contracts/utils/Address.sol\":5228:5288  require(isContract(target), \"Address: call to non-contract\") */\n      0x04\n      dup3\n      add\n        /* \"#utility.yul\":11087:11108   */\n      mstore\n        /* \"#utility.yul\":11144:11146   */\n      0x1d\n        /* \"#utility.yul\":11124:11142   */\n      0x24\n      dup3\n      add\n        /* \"#utility.yul\":11117:11147   */\n      mstore\n        /* \"#utility.yul\":11183:11214   */\n      0x416464726573733a2063616c6c20746f206e6f6e2d636f6e7472616374000000\n        /* \"#utility.yul\":11163:11181   */\n      0x44\n      dup3\n      add\n        /* \"#utility.yul\":11156:11215   */\n      mstore\n        /* \"#utility.yul\":11232:11250   */\n      0x64\n      add\n        /* \"@openzeppelin/contracts/utils/Address.sol\":5228:5288  require(isContract(target), \"Address: call to non-contract\") */\n      tag_116\n        /* \"#utility.yul\":10903:11256   */\n      jump\n        /* \"@openzeppelin/contracts/utils/Address.sol\":5228:5288  require(isContract(target), \"Address: call to non-contract\") */\n    tag_377:\n        /* \"@openzeppelin/contracts/utils/Address.sol\":5300:5312  bool success */\n      0x00\n        /* \"@openzeppelin/contracts/utils/Address.sol\":5314:5337  bytes memory returndata */\n      dup1\n        /* \"@openzeppelin/contracts/utils/Address.sol\":5341:5347  target */\n      dup7\n      sub(shl(0xa0, 0x01), 0x01)\n        /* \"@openzeppelin/contracts/utils/Address.sol\":5341:5352  target.call */\n      and\n        /* \"@openzeppelin/contracts/utils/Address.sol\":5360:5365  value */\n      dup6\n        /* \"@openzeppelin/contracts/utils/Address.sol\":5367:5371  data */\n      dup8\n        /* \"@openzeppelin/contracts/utils/Address.sol\":5341:5372  target.call{value: value}(data) */\n      mload(0x40)\n      tag_380\n      swap2\n      swap1\n      tag_381\n      jump\t// in\n    tag_380:\n      0x00\n      mload(0x40)\n      dup1\n      dup4\n      sub\n      dup2\n      dup6\n      dup8\n      gas\n      call\n      swap3\n      pop\n      pop\n      pop\n      returndatasize\n      dup1\n      0x00\n      dup2\n      eq\n      tag_384\n      jumpi\n      mload(0x40)\n      swap2\n      pop\n      and(add(returndatasize, 0x3f), not(0x1f))\n      dup3\n      add\n      0x40\n      mstore\n      returndatasize\n      dup3\n      mstore\n      returndatasize\n      0x00\n      0x20\n      dup5\n      add\n      returndatacopy\n      jump(tag_383)\n    tag_384:\n      0x60\n      swap2\n      pop\n    tag_383:\n      pop\n        /* \"@openzeppelin/contracts/utils/Address.sol\":5299:5372  (bool success, bytes memory returndata) = target.call{value: value}(data) */\n      swap2\n      pop\n      swap2\n      pop\n        /* \"@openzeppelin/contracts/utils/Address.sol\":5389:5440  verifyCallResult(success, returndata, errorMessage) */\n      tag_385\n        /* \"@openzeppelin/contracts/utils/Address.sol\":5406:5413  success */\n      dup3\n        /* \"@openzeppelin/contracts/utils/Address.sol\":5415:5425  returndata */\n      dup3\n        /* \"@openzeppelin/contracts/utils/Address.sol\":5427:5439  errorMessage */\n      dup7\n        /* \"@openzeppelin/contracts/utils/Address.sol\":5389:5405  verifyCallResult */\n      tag_386\n        /* \"@openzeppelin/contracts/utils/Address.sol\":5389:5440  verifyCallResult(success, returndata, errorMessage) */\n      jump\t// in\n    tag_385:\n        /* \"@openzeppelin/contracts/utils/Address.sol\":5382:5440  return verifyCallResult(success, returndata, errorMessage) */\n      swap8\n        /* \"@openzeppelin/contracts/utils/Address.sol\":4948:5447  function functionCallWithValue(... */\n      swap7\n      pop\n      pop\n      pop\n      pop\n      pop\n      pop\n      pop\n      jump\t// out\n        /* \"@openzeppelin/contracts/utils/Address.sol\":7561:8303  function verifyCallResult(... */\n    tag_386:\n        /* \"@openzeppelin/contracts/utils/Address.sol\":7707:7719  bytes memory */\n      0x60\n        /* \"@openzeppelin/contracts/utils/Address.sol\":7735:7742  success */\n      dup4\n        /* \"@openzeppelin/contracts/utils/Address.sol\":7731:8297  if (success) {... */\n      iszero\n      tag_389\n      jumpi\n      pop\n        /* \"@openzeppelin/contracts/utils/Address.sol\":7765:7775  returndata */\n      dup2\n        /* \"@openzeppelin/contracts/utils/Address.sol\":7758:7775  return returndata */\n      jump(tag_330)\n        /* \"@openzeppelin/contracts/utils/Address.sol\":7731:8297  if (success) {... */\n    tag_389:\n        /* \"@openzeppelin/contracts/utils/Address.sol\":7876:7893  returndata.length */\n      dup3\n      mload\n        /* \"@openzeppelin/contracts/utils/Address.sol\":7876:7897  returndata.length > 0 */\n      iszero\n        /* \"@openzeppelin/contracts/utils/Address.sol\":7872:8287  if (returndata.length > 0) {... */\n      tag_391\n      jumpi\n        /* \"@openzeppelin/contracts/utils/Address.sol\":8120:8130  returndata */\n      dup3\n        /* \"@openzeppelin/contracts/utils/Address.sol\":8114:8131  mload(returndata) */\n      mload\n        /* \"@openzeppelin/contracts/utils/Address.sol\":8180:8195  returndata_size */\n      dup1\n        /* \"@openzeppelin/contracts/utils/Address.sol\":8167:8177  returndata */\n      dup5\n        /* \"@openzeppelin/contracts/utils/Address.sol\":8163:8165  32 */\n      0x20\n        /* \"@openzeppelin/contracts/utils/Address.sol\":8159:8178  add(32, returndata) */\n      add\n        /* \"@openzeppelin/contracts/utils/Address.sol\":8152:8196  revert(add(32, returndata), returndata_size) */\n      revert\n        /* \"@openzeppelin/contracts/utils/Address.sol\":7872:8287  if (returndata.length > 0) {... */\n    tag_391:\n        /* \"@openzeppelin/contracts/utils/Address.sol\":8259:8271  errorMessage */\n      dup2\n        /* \"@openzeppelin/contracts/utils/Address.sol\":8252:8272  revert(errorMessage) */\n      mload(0x40)\n      shl(0xe5, 0x461bcd)\n      dup2\n      mstore\n      0x04\n      add\n      tag_116\n      swap2\n      swap1\n      tag_394\n      jump\t// in\n        /* \"#utility.yul\":14:153   */\n    tag_395:\n      sub(shl(0xa0, 0x01), 0x01)\n        /* \"#utility.yul\":97:128   */\n      dup2\n      and\n        /* \"#utility.yul\":87:129   */\n      dup2\n      eq\n        /* \"#utility.yul\":77:147   */\n      tag_402\n      jumpi\n        /* \"#utility.yul\":143:144   */\n      0x00\n        /* \"#utility.yul\":140:141   */\n      dup1\n        /* \"#utility.yul\":133:145   */\n      revert\n        /* \"#utility.yul\":77:147   */\n    tag_402:\n        /* \"#utility.yul\":14:153   */\n      pop\n      jump\t// out\n        /* \"#utility.yul\":158:276   */\n    tag_396:\n        /* \"#utility.yul\":244:249   */\n      dup1\n        /* \"#utility.yul\":237:250   */\n      iszero\n        /* \"#utility.yul\":230:251   */\n      iszero\n        /* \"#utility.yul\":223:228   */\n      dup2\n        /* \"#utility.yul\":220:252   */\n      eq\n        /* \"#utility.yul\":210:270   */\n      tag_402\n      jumpi\n        /* \"#utility.yul\":266:267   */\n      0x00\n        /* \"#utility.yul\":263:264   */\n      dup1\n        /* \"#utility.yul\":256:268   */\n      revert\n        /* \"#utility.yul\":281:440   */\n    tag_397:\n        /* \"#utility.yul\":348:368   */\n      dup1\n      calldataload\n        /* \"#utility.yul\":408:414   */\n      0xffff\n        /* \"#utility.yul\":397:415   */\n      dup2\n      and\n        /* \"#utility.yul\":387:416   */\n      dup2\n      eq\n        /* \"#utility.yul\":377:434   */\n      tag_406\n      jumpi\n        /* \"#utility.yul\":430:431   */\n      0x00\n        /* \"#utility.yul\":427:428   */\n      dup1\n        /* \"#utility.yul\":420:432   */\n      revert\n        /* \"#utility.yul\":377:434   */\n    tag_406:\n        /* \"#utility.yul\":281:440   */\n      swap2\n      swap1\n      pop\n      jump\t// out\n        /* \"#utility.yul\":445:1058   */\n    tag_31:\n        /* \"#utility.yul\":549:555   */\n      0x00\n        /* \"#utility.yul\":557:563   */\n      dup1\n        /* \"#utility.yul\":565:571   */\n      0x00\n        /* \"#utility.yul\":573:579   */\n      dup1\n        /* \"#utility.yul\":581:587   */\n      0x00\n        /* \"#utility.yul\":634:637   */\n      0xa0\n        /* \"#utility.yul\":622:631   */\n      dup7\n        /* \"#utility.yul\":613:620   */\n      dup9\n        /* \"#utility.yul\":609:632   */\n      sub\n        /* \"#utility.yul\":605:638   */\n      slt\n        /* \"#utility.yul\":602:655   */\n      iszero\n      tag_408\n      jumpi\n        /* \"#utility.yul\":651:652   */\n      0x00\n        /* \"#utility.yul\":648:649   */\n      dup1\n        /* \"#utility.yul\":641:653   */\n      revert\n        /* \"#utility.yul\":602:655   */\n    tag_408:\n        /* \"#utility.yul\":687:696   */\n      dup6\n        /* \"#utility.yul\":674:697   */\n      calldataload\n        /* \"#utility.yul\":664:697   */\n      swap5\n      pop\n        /* \"#utility.yul\":747:749   */\n      0x20\n        /* \"#utility.yul\":736:745   */\n      dup7\n        /* \"#utility.yul\":732:750   */\n      add\n        /* \"#utility.yul\":719:751   */\n      calldataload\n        /* \"#utility.yul\":760:799   */\n      tag_409\n        /* \"#utility.yul\":793:798   */\n      dup2\n        /* \"#utility.yul\":760:799   */\n      tag_395\n      jump\t// in\n    tag_409:\n        /* \"#utility.yul\":818:823   */\n      swap4\n      pop\n        /* \"#utility.yul\":875:877   */\n      0x40\n        /* \"#utility.yul\":860:878   */\n      dup7\n      add\n        /* \"#utility.yul\":847:879   */\n      calldataload\n        /* \"#utility.yul\":888:918   */\n      tag_410\n        /* \"#utility.yul\":847:879   */\n      dup2\n        /* \"#utility.yul\":888:918   */\n      tag_396\n      jump\t// in\n    tag_410:\n        /* \"#utility.yul\":937:944   */\n      swap3\n      pop\n        /* \"#utility.yul\":963:1000   */\n      tag_411\n        /* \"#utility.yul\":996:998   */\n      0x60\n        /* \"#utility.yul\":981:999   */\n      dup8\n      add\n        /* \"#utility.yul\":963:1000   */\n      tag_397\n      jump\t// in\n    tag_411:\n        /* \"#utility.yul\":445:1058   */\n      swap5\n      swap8\n      swap4\n      swap7\n      pop\n      swap2\n      swap5\n        /* \"#utility.yul\":1047:1050   */\n      0x80\n        /* \"#utility.yul\":1032:1051   */\n      add\n        /* \"#utility.yul\":1019:1052   */\n      calldataload\n      swap3\n        /* \"#utility.yul\":445:1058   */\n      swap2\n      pop\n      pop\n      jump\t// out\n        /* \"#utility.yul\":1245:1425   */\n    tag_39:\n        /* \"#utility.yul\":1304:1310   */\n      0x00\n        /* \"#utility.yul\":1357:1359   */\n      0x20\n        /* \"#utility.yul\":1345:1354   */\n      dup3\n        /* \"#utility.yul\":1336:1343   */\n      dup5\n        /* \"#utility.yul\":1332:1355   */\n      sub\n        /* \"#utility.yul\":1328:1360   */\n      slt\n        /* \"#utility.yul\":1325:1377   */\n      iszero\n      tag_414\n      jumpi\n        /* \"#utility.yul\":1373:1374   */\n      0x00\n        /* \"#utility.yul\":1370:1371   */\n      dup1\n        /* \"#utility.yul\":1363:1375   */\n      revert\n        /* \"#utility.yul\":1325:1377   */\n    tag_414:\n      pop\n        /* \"#utility.yul\":1396:1419   */\n      calldataload\n      swap2\n        /* \"#utility.yul\":1245:1425   */\n      swap1\n      pop\n      jump\t// out\n        /* \"#utility.yul\":2030:2353   */\n    tag_48:\n        /* \"#utility.yul\":2098:2104   */\n      0x00\n        /* \"#utility.yul\":2106:2112   */\n      dup1\n        /* \"#utility.yul\":2159:2161   */\n      0x40\n        /* \"#utility.yul\":2147:2156   */\n      dup4\n        /* \"#utility.yul\":2138:2145   */\n      dup6\n        /* \"#utility.yul\":2134:2157   */\n      sub\n        /* \"#utility.yul\":2130:2162   */\n      slt\n        /* \"#utility.yul\":2127:2179   */\n      iszero\n      tag_417\n      jumpi\n        /* \"#utility.yul\":2175:2176   */\n      0x00\n        /* \"#utility.yul\":2172:2173   */\n      dup1\n        /* \"#utility.yul\":2165:2177   */\n      revert\n        /* \"#utility.yul\":2127:2179   */\n    tag_417:\n        /* \"#utility.yul\":2211:2220   */\n      dup3\n        /* \"#utility.yul\":2198:2221   */\n      calldataload\n        /* \"#utility.yul\":2188:2221   */\n      swap2\n      pop\n        /* \"#utility.yul\":2271:2273   */\n      0x20\n        /* \"#utility.yul\":2260:2269   */\n      dup4\n        /* \"#utility.yul\":2256:2274   */\n      add\n        /* \"#utility.yul\":2243:2275   */\n      calldataload\n        /* \"#utility.yul\":2284:2323   */\n      tag_418\n        /* \"#utility.yul\":2317:2322   */\n      dup2\n        /* \"#utility.yul\":2284:2323   */\n      tag_395\n      jump\t// in\n    tag_418:\n        /* \"#utility.yul\":2342:2347   */\n      dup1\n        /* \"#utility.yul\":2332:2347   */\n      swap2\n      pop\n      pop\n        /* \"#utility.yul\":2030:2353   */\n      swap3\n      pop\n      swap3\n      swap1\n      pop\n      jump\t// out\n        /* \"#utility.yul\":2358:2606   */\n    tag_53:\n        /* \"#utility.yul\":2426:2432   */\n      0x00\n        /* \"#utility.yul\":2434:2440   */\n      dup1\n        /* \"#utility.yul\":2487:2489   */\n      0x40\n        /* \"#utility.yul\":2475:2484   */\n      dup4\n        /* \"#utility.yul\":2466:2473   */\n      dup6\n        /* \"#utility.yul\":2462:2485   */\n      sub\n        /* \"#utility.yul\":2458:2490   */\n      slt\n        /* \"#utility.yul\":2455:2507   */\n      iszero\n      tag_420\n      jumpi\n        /* \"#utility.yul\":2503:2504   */\n      0x00\n        /* \"#utility.yul\":2500:2501   */\n      dup1\n        /* \"#utility.yul\":2493:2505   */\n      revert\n        /* \"#utility.yul\":2455:2507   */\n    tag_420:\n      pop\n      pop\n        /* \"#utility.yul\":2526:2549   */\n      dup1\n      calldataload\n      swap3\n        /* \"#utility.yul\":2596:2598   */\n      0x20\n        /* \"#utility.yul\":2581:2599   */\n      swap1\n      swap2\n      add\n        /* \"#utility.yul\":2568:2600   */\n      calldataload\n      swap2\n      pop\n        /* \"#utility.yul\":2358:2606   */\n      jump\t// out\n        /* \"#utility.yul\":2611:2931   */\n    tag_58:\n        /* \"#utility.yul\":2687:2693   */\n      0x00\n        /* \"#utility.yul\":2695:2701   */\n      dup1\n        /* \"#utility.yul\":2703:2709   */\n      0x00\n        /* \"#utility.yul\":2756:2758   */\n      0x60\n        /* \"#utility.yul\":2744:2753   */\n      dup5\n        /* \"#utility.yul\":2735:2742   */\n      dup7\n        /* \"#utility.yul\":2731:2754   */\n      sub\n        /* \"#utility.yul\":2727:2759   */\n      slt\n        /* \"#utility.yul\":2724:2776   */\n      iszero\n      tag_422\n      jumpi\n        /* \"#utility.yul\":2772:2773   */\n      0x00\n        /* \"#utility.yul\":2769:2770   */\n      dup1\n        /* \"#utility.yul\":2762:2774   */\n      revert\n        /* \"#utility.yul\":2724:2776   */\n    tag_422:\n        /* \"#utility.yul\":2808:2817   */\n      dup4\n        /* \"#utility.yul\":2795:2818   */\n      calldataload\n        /* \"#utility.yul\":2785:2818   */\n      swap3\n      pop\n        /* \"#utility.yul\":2865:2867   */\n      0x20\n        /* \"#utility.yul\":2854:2863   */\n      dup5\n        /* \"#utility.yul\":2850:2868   */\n      add\n        /* \"#utility.yul\":2837:2869   */\n      calldataload\n        /* \"#utility.yul\":2827:2869   */\n      swap2\n      pop\n        /* \"#utility.yul\":2888:2925   */\n      tag_423\n        /* \"#utility.yul\":2921:2923   */\n      0x40\n        /* \"#utility.yul\":2910:2919   */\n      dup6\n        /* \"#utility.yul\":2906:2924   */\n      add\n        /* \"#utility.yul\":2888:2925   */\n      tag_397\n      jump\t// in\n    tag_423:\n        /* \"#utility.yul\":2878:2925   */\n      swap1\n      pop\n        /* \"#utility.yul\":2611:2931   */\n      swap3\n      pop\n      swap3\n      pop\n      swap3\n      jump\t// out\n        /* \"#utility.yul\":3144:3629   */\n    tag_75:\n        /* \"#utility.yul\":3234:3240   */\n      0x00\n        /* \"#utility.yul\":3242:3248   */\n      dup1\n        /* \"#utility.yul\":3250:3256   */\n      0x00\n        /* \"#utility.yul\":3303:3305   */\n      0x60\n        /* \"#utility.yul\":3291:3300   */\n      dup5\n        /* \"#utility.yul\":3282:3289   */\n      dup7\n        /* \"#utility.yul\":3278:3301   */\n      sub\n        /* \"#utility.yul\":3274:3306   */\n      slt\n        /* \"#utility.yul\":3271:3323   */\n      iszero\n      tag_426\n      jumpi\n        /* \"#utility.yul\":3319:3320   */\n      0x00\n        /* \"#utility.yul\":3316:3317   */\n      dup1\n        /* \"#utility.yul\":3309:3321   */\n      revert\n        /* \"#utility.yul\":3271:3323   */\n    tag_426:\n        /* \"#utility.yul\":3358:3367   */\n      dup4\n        /* \"#utility.yul\":3345:3368   */\n      calldataload\n        /* \"#utility.yul\":3377:3416   */\n      tag_427\n        /* \"#utility.yul\":3410:3415   */\n      dup2\n        /* \"#utility.yul\":3377:3416   */\n      tag_395\n      jump\t// in\n    tag_427:\n        /* \"#utility.yul\":3435:3440   */\n      swap3\n      pop\n        /* \"#utility.yul\":3487:3489   */\n      0x20\n        /* \"#utility.yul\":3472:3490   */\n      dup5\n      add\n        /* \"#utility.yul\":3459:3491   */\n      calldataload\n      swap2\n      pop\n        /* \"#utility.yul\":3543:3545   */\n      0x40\n        /* \"#utility.yul\":3528:3546   */\n      dup5\n      add\n        /* \"#utility.yul\":3515:3547   */\n      calldataload\n        /* \"#utility.yul\":3556:3597   */\n      tag_428\n        /* \"#utility.yul\":3515:3547   */\n      dup2\n        /* \"#utility.yul\":3556:3597   */\n      tag_395\n      jump\t// in\n    tag_428:\n        /* \"#utility.yul\":3616:3623   */\n      dup1\n        /* \"#utility.yul\":3606:3623   */\n      swap2\n      pop\n      pop\n        /* \"#utility.yul\":3144:3629   */\n      swap3\n      pop\n      swap3\n      pop\n      swap3\n      jump\t// out\n        /* \"#utility.yul\":3887:4142   */\n    tag_98:\n        /* \"#utility.yul\":3946:3952   */\n      0x00\n        /* \"#utility.yul\":3999:4001   */\n      0x20\n        /* \"#utility.yul\":3987:3996   */\n      dup3\n        /* \"#utility.yul\":3978:3985   */\n      dup5\n        /* \"#utility.yul\":3974:3997   */\n      sub\n        /* \"#utility.yul\":3970:4002   */\n      slt\n        /* \"#utility.yul\":3967:4019   */\n      iszero\n      tag_431\n      jumpi\n        /* \"#utility.yul\":4015:4016   */\n      0x00\n        /* \"#utility.yul\":4012:4013   */\n      dup1\n        /* \"#utility.yul\":4005:4017   */\n      revert\n        /* \"#utility.yul\":3967:4019   */\n    tag_431:\n        /* \"#utility.yul\":4054:4063   */\n      dup2\n        /* \"#utility.yul\":4041:4064   */\n      calldataload\n        /* \"#utility.yul\":4073:4112   */\n      tag_330\n        /* \"#utility.yul\":4106:4111   */\n      dup2\n        /* \"#utility.yul\":4073:4112   */\n      tag_395\n      jump\t// in\n        /* \"#utility.yul\":4368:4552   */\n    tag_112:\n        /* \"#utility.yul\":4426:4432   */\n      0x00\n        /* \"#utility.yul\":4479:4481   */\n      0x20\n        /* \"#utility.yul\":4467:4476   */\n      dup3\n        /* \"#utility.yul\":4458:4465   */\n      dup5\n        /* \"#utility.yul\":4454:4477   */\n      sub\n        /* \"#utility.yul\":4450:4482   */\n      slt\n        /* \"#utility.yul\":4447:4499   */\n      iszero\n      tag_435\n      jumpi\n        /* \"#utility.yul\":4495:4496   */\n      0x00\n        /* \"#utility.yul\":4492:4493   */\n      dup1\n        /* \"#utility.yul\":4485:4497   */\n      revert\n        /* \"#utility.yul\":4447:4499   */\n    tag_435:\n        /* \"#utility.yul\":4518:4546   */\n      tag_330\n        /* \"#utility.yul\":4536:4545   */\n      dup3\n        /* \"#utility.yul\":4518:4546   */\n      tag_397\n      jump\t// in\n        /* \"#utility.yul\":4557:4963   */\n    tag_117:\n        /* \"#utility.yul\":4759:4761   */\n      0x20\n        /* \"#utility.yul\":4741:4762   */\n      dup1\n      dup3\n      mstore\n        /* \"#utility.yul\":4798:4800   */\n      0x2a\n        /* \"#utility.yul\":4778:4796   */\n      swap1\n      dup3\n      add\n        /* \"#utility.yul\":4771:4801   */\n      mstore\n        /* \"#utility.yul\":4837:4871   */\n      0x64455448526577617264506f6f6c3a2063616c6c6572206973206e6f74207468\n        /* \"#utility.yul\":4832:4834   */\n      0x40\n        /* \"#utility.yul\":4817:4835   */\n      dup3\n      add\n        /* \"#utility.yul\":4810:4872   */\n      mstore\n      shl(0xb1, 0x329037b832b930ba37b9)\n        /* \"#utility.yul\":4903:4905   */\n      0x60\n        /* \"#utility.yul\":4888:4906   */\n      dup3\n      add\n        /* \"#utility.yul\":4881:4921   */\n      mstore\n        /* \"#utility.yul\":4953:4956   */\n      0x80\n        /* \"#utility.yul\":4938:4957   */\n      add\n      swap1\n        /* \"#utility.yul\":4557:4963   */\n      jump\t// out\n        /* \"#utility.yul\":5374:5501   */\n    tag_143:\n        /* \"#utility.yul\":5435:5445   */\n      0x4e487b71\n        /* \"#utility.yul\":5430:5433   */\n      0xe0\n        /* \"#utility.yul\":5426:5446   */\n      shl\n        /* \"#utility.yul\":5423:5424   */\n      0x00\n        /* \"#utility.yul\":5416:5447   */\n      mstore\n        /* \"#utility.yul\":5466:5470   */\n      0x32\n        /* \"#utility.yul\":5463:5464   */\n      0x04\n        /* \"#utility.yul\":5456:5471   */\n      mstore\n        /* \"#utility.yul\":5490:5494   */\n      0x24\n        /* \"#utility.yul\":5487:5488   */\n      0x00\n        /* \"#utility.yul\":5480:5495   */\n      revert\n        /* \"#utility.yul\":5506:5690   */\n    tag_149:\n        /* \"#utility.yul\":5576:5582   */\n      0x00\n        /* \"#utility.yul\":5629:5631   */\n      0x20\n        /* \"#utility.yul\":5617:5626   */\n      dup3\n        /* \"#utility.yul\":5608:5615   */\n      dup5\n        /* \"#utility.yul\":5604:5627   */\n      sub\n        /* \"#utility.yul\":5600:5632   */\n      slt\n        /* \"#utility.yul\":5597:5649   */\n      iszero\n      tag_441\n      jumpi\n        /* \"#utility.yul\":5645:5646   */\n      0x00\n        /* \"#utility.yul\":5642:5643   */\n      dup1\n        /* \"#utility.yul\":5635:5647   */\n      revert\n        /* \"#utility.yul\":5597:5649   */\n    tag_441:\n      pop\n        /* \"#utility.yul\":5668:5684   */\n      mload\n      swap2\n        /* \"#utility.yul\":5506:5690   */\n      swap1\n      pop\n      jump\t// out\n        /* \"#utility.yul\":6448:6575   */\n    tag_398:\n        /* \"#utility.yul\":6509:6519   */\n      0x4e487b71\n        /* \"#utility.yul\":6504:6507   */\n      0xe0\n        /* \"#utility.yul\":6500:6520   */\n      shl\n        /* \"#utility.yul\":6497:6498   */\n      0x00\n        /* \"#utility.yul\":6490:6521   */\n      mstore\n        /* \"#utility.yul\":6540:6544   */\n      0x11\n        /* \"#utility.yul\":6537:6538   */\n      0x04\n        /* \"#utility.yul\":6530:6545   */\n      mstore\n        /* \"#utility.yul\":6564:6568   */\n      0x24\n        /* \"#utility.yul\":6561:6562   */\n      0x00\n        /* \"#utility.yul\":6554:6569   */\n      revert\n        /* \"#utility.yul\":6580:6705   */\n    tag_246:\n        /* \"#utility.yul\":6645:6654   */\n      dup1\n      dup3\n      add\n        /* \"#utility.yul\":6666:6676   */\n      dup1\n      dup3\n      gt\n        /* \"#utility.yul\":6663:6699   */\n      iszero\n      tag_140\n      jumpi\n        /* \"#utility.yul\":6679:6697   */\n      tag_140\n      tag_398\n      jump\t// in\n        /* \"#utility.yul\":7381:7516   */\n    tag_261:\n        /* \"#utility.yul\":7420:7423   */\n      0x00\n        /* \"#utility.yul\":7441:7458   */\n      0x01\n      dup3\n      add\n        /* \"#utility.yul\":7438:7481   */\n      tag_452\n      jumpi\n        /* \"#utility.yul\":7461:7479   */\n      tag_452\n      tag_398\n      jump\t// in\n    tag_452:\n      pop\n        /* \"#utility.yul\":7508:7509   */\n      0x01\n        /* \"#utility.yul\":7497:7510   */\n      add\n      swap1\n        /* \"#utility.yul\":7381:7516   */\n      jump\t// out\n        /* \"#utility.yul\":8648:8816   */\n    tag_333:\n        /* \"#utility.yul\":8688:8695   */\n      0x00\n        /* \"#utility.yul\":8754:8755   */\n      dup2\n        /* \"#utility.yul\":8750:8751   */\n      0x00\n        /* \"#utility.yul\":8746:8752   */\n      not\n        /* \"#utility.yul\":8742:8756   */\n      div\n        /* \"#utility.yul\":8739:8740   */\n      dup4\n        /* \"#utility.yul\":8736:8757   */\n      gt\n        /* \"#utility.yul\":8731:8732   */\n      dup3\n        /* \"#utility.yul\":8724:8733   */\n      iszero\n        /* \"#utility.yul\":8717:8734   */\n      iszero\n        /* \"#utility.yul\":8713:8758   */\n      and\n        /* \"#utility.yul\":8710:8781   */\n      iszero\n      tag_458\n      jumpi\n        /* \"#utility.yul\":8761:8779   */\n      tag_458\n      tag_398\n      jump\t// in\n    tag_458:\n      pop\n        /* \"#utility.yul\":8801:8810   */\n      mul\n      swap1\n        /* \"#utility.yul\":8648:8816   */\n      jump\t// out\n        /* \"#utility.yul\":8821:9038   */\n    tag_336:\n        /* \"#utility.yul\":8861:8862   */\n      0x00\n        /* \"#utility.yul\":8887:8888   */\n      dup3\n        /* \"#utility.yul\":8877:9009   */\n      tag_460\n      jumpi\n        /* \"#utility.yul\":8931:8941   */\n      0x4e487b71\n        /* \"#utility.yul\":8926:8929   */\n      0xe0\n        /* \"#utility.yul\":8922:8942   */\n      shl\n        /* \"#utility.yul\":8919:8920   */\n      0x00\n        /* \"#utility.yul\":8912:8943   */\n      mstore\n        /* \"#utility.yul\":8966:8970   */\n      0x12\n        /* \"#utility.yul\":8963:8964   */\n      0x04\n        /* \"#utility.yul\":8956:8971   */\n      mstore\n        /* \"#utility.yul\":8994:8998   */\n      0x24\n        /* \"#utility.yul\":8991:8992   */\n      0x00\n        /* \"#utility.yul\":8984:8999   */\n      revert\n        /* \"#utility.yul\":8877:9009   */\n    tag_460:\n      pop\n        /* \"#utility.yul\":9023:9032   */\n      div\n      swap1\n        /* \"#utility.yul\":8821:9038   */\n      jump\t// out\n        /* \"#utility.yul\":9043:9171   */\n    tag_339:\n        /* \"#utility.yul\":9110:9119   */\n      dup2\n      dup2\n      sub\n        /* \"#utility.yul\":9131:9142   */\n      dup2\n      dup2\n      gt\n        /* \"#utility.yul\":9128:9165   */\n      iszero\n      tag_140\n      jumpi\n        /* \"#utility.yul\":9145:9163   */\n      tag_140\n      tag_398\n      jump\t// in\n        /* \"#utility.yul\":9835:10080   */\n    tag_364:\n        /* \"#utility.yul\":9902:9908   */\n      0x00\n        /* \"#utility.yul\":9955:9957   */\n      0x20\n        /* \"#utility.yul\":9943:9952   */\n      dup3\n        /* \"#utility.yul\":9934:9941   */\n      dup5\n        /* \"#utility.yul\":9930:9953   */\n      sub\n        /* \"#utility.yul\":9926:9958   */\n      slt\n        /* \"#utility.yul\":9923:9975   */\n      iszero\n      tag_467\n      jumpi\n        /* \"#utility.yul\":9971:9972   */\n      0x00\n        /* \"#utility.yul\":9968:9969   */\n      dup1\n        /* \"#utility.yul\":9961:9973   */\n      revert\n        /* \"#utility.yul\":9923:9975   */\n    tag_467:\n        /* \"#utility.yul\":10003:10012   */\n      dup2\n        /* \"#utility.yul\":9997:10013   */\n      mload\n        /* \"#utility.yul\":10022:10050   */\n      tag_330\n        /* \"#utility.yul\":10044:10049   */\n      dup2\n        /* \"#utility.yul\":10022:10050   */\n      tag_396\n      jump\t// in\n        /* \"#utility.yul\":11261:11511   */\n    tag_399:\n        /* \"#utility.yul\":11346:11347   */\n      0x00\n        /* \"#utility.yul\":11356:11469   */\n    tag_473:\n        /* \"#utility.yul\":11370:11376   */\n      dup4\n        /* \"#utility.yul\":11367:11368   */\n      dup2\n        /* \"#utility.yul\":11364:11377   */\n      lt\n        /* \"#utility.yul\":11356:11469   */\n      iszero\n      tag_475\n      jumpi\n        /* \"#utility.yul\":11446:11457   */\n      dup2\n      dup2\n      add\n        /* \"#utility.yul\":11440:11458   */\n      mload\n        /* \"#utility.yul\":11427:11438   */\n      dup4\n      dup3\n      add\n        /* \"#utility.yul\":11420:11459   */\n      mstore\n        /* \"#utility.yul\":11392:11394   */\n      0x20\n        /* \"#utility.yul\":11385:11395   */\n      add\n        /* \"#utility.yul\":11356:11469   */\n      jump(tag_473)\n    tag_475:\n      pop\n      pop\n        /* \"#utility.yul\":11503:11504   */\n      0x00\n        /* \"#utility.yul\":11485:11501   */\n      swap2\n      add\n        /* \"#utility.yul\":11478:11505   */\n      mstore\n        /* \"#utility.yul\":11261:11511   */\n      jump\t// out\n        /* \"#utility.yul\":11516:11803   */\n    tag_381:\n        /* \"#utility.yul\":11645:11648   */\n      0x00\n        /* \"#utility.yul\":11683:11689   */\n      dup3\n        /* \"#utility.yul\":11677:11690   */\n      mload\n        /* \"#utility.yul\":11699:11765   */\n      tag_477\n        /* \"#utility.yul\":11758:11764   */\n      dup2\n        /* \"#utility.yul\":11753:11756   */\n      dup5\n        /* \"#utility.yul\":11746:11750   */\n      0x20\n        /* \"#utility.yul\":11738:11744   */\n      dup8\n        /* \"#utility.yul\":11734:11751   */\n      add\n        /* \"#utility.yul\":11699:11765   */\n      tag_399\n      jump\t// in\n    tag_477:\n        /* \"#utility.yul\":11781:11797   */\n      swap2\n      swap1\n      swap2\n      add\n      swap3\n        /* \"#utility.yul\":11516:11803   */\n      swap2\n      pop\n      pop\n      jump\t// out\n        /* \"#utility.yul\":11808:12204   */\n    tag_394:\n        /* \"#utility.yul\":11957:11959   */\n      0x20\n        /* \"#utility.yul\":11946:11955   */\n      dup2\n        /* \"#utility.yul\":11939:11960   */\n      mstore\n        /* \"#utility.yul\":11920:11924   */\n      0x00\n        /* \"#utility.yul\":11989:11995   */\n      dup3\n        /* \"#utility.yul\":11983:11996   */\n      mload\n        /* \"#utility.yul\":12032:12038   */\n      dup1\n        /* \"#utility.yul\":12027:12029   */\n      0x20\n        /* \"#utility.yul\":12016:12025   */\n      dup5\n        /* \"#utility.yul\":12012:12030   */\n      add\n        /* \"#utility.yul\":12005:12039   */\n      mstore\n        /* \"#utility.yul\":12048:12127   */\n      tag_479\n        /* \"#utility.yul\":12120:12126   */\n      dup2\n        /* \"#utility.yul\":12115:12117   */\n      0x40\n        /* \"#utility.yul\":12104:12113   */\n      dup6\n        /* \"#utility.yul\":12100:12118   */\n      add\n        /* \"#utility.yul\":12095:12097   */\n      0x20\n        /* \"#utility.yul\":12087:12093   */\n      dup8\n        /* \"#utility.yul\":12083:12098   */\n      add\n        /* \"#utility.yul\":12048:12127   */\n      tag_399\n      jump\t// in\n    tag_479:\n        /* \"#utility.yul\":12188:12190   */\n      0x1f\n        /* \"#utility.yul\":12167:12182   */\n      add\n      not(0x1f)\n        /* \"#utility.yul\":12163:12192   */\n      and\n        /* \"#utility.yul\":12148:12193   */\n      swap2\n      swap1\n      swap2\n      add\n        /* \"#utility.yul\":12195:12197   */\n      0x40\n        /* \"#utility.yul\":12144:12198   */\n      add\n      swap3\n        /* \"#utility.yul\":11808:12204   */\n      swap2\n      pop\n      pop\n      jump\t// out\n\n    auxdata: 0xa2646970667358221220b3551e93fc2410d56fde2104b535338ae1a0c9087c905087b6adea94084db38d64736f6c63430008100033\n}\n",
				"bytecode": {
					"linkReferences": {},
					"object": "60806040526000600555670589e8cb75f81fc060085562979c806009553480156200002957600080fd5b5060405162001bd738038062001bd78339810160408190526200004c9162000139565b8242106200008f5760405162461bcd60e51b815260040162000086906020808252600490820152636c61746560e01b604082015260600190565b60405180910390fd5b6001600160a01b03841615620000bb57600180546001600160a01b0319166001600160a01b0386161790555b6006839055600954620000cf908462000195565b600755600a805461ffff90931661ffff1990931692909217909155600280546001600160a01b039092166001600160a01b0319928316179055600080549091163317905550620001bd9050565b80516001600160a01b03811681146200013457600080fd5b919050565b600080600080608085870312156200015057600080fd5b6200015b856200011c565b935060208501519250604085015161ffff811681146200017a57600080fd5b91506200018a606086016200011c565b905092959194509250565b80820180821115620001b757634e487b7160e01b600052601160045260246000fd5b92915050565b611a0a80620001cd6000396000f3fe608060405234801561001057600080fd5b506004361061014d5760003560e01c806354575af4116100c3578063943f013d1161007c578063943f013d14610309578063b3ab15fb14610312578063d18ccd8914610325578063dc9e5dea14610338578063e2bbb15814610341578063ecb1ab541461035457600080fd5b806354575af414610282578063570ca735146102955780635f96dc11146102a8578063630b5ba1146102b15780636e271dd5146102b957806393f1a40b146102c257600080fd5b8063231f0c6a11610115578063231f0c6a146101f857806324bcb38c1461020b578063412753581461021e578063441a3e701461024957806351eb05a61461025c5780635312ea8e1461026f57600080fd5b806308bee6421461015257806309cf6091146101675780631526fe271461018c57806317caf6f1146101dc5780631e8fa23a146101e5575b600080fd5b6101656101603660046116c2565b610367565b005b6101796a0422ca8b0a00a42500000081565b6040519081526020015b60405180910390f35b61019f61019a36600461171b565b6105d6565b604080516001600160a01b039097168752602087019590955293850192909252606084015261ffff166080830152151560a082015260c001610183565b61017960055481565b6101796101f3366004611734565b610630565b610179610206366004611764565b61079d565b610165610219366004611786565b61085c565b600254610231906001600160a01b031681565b6040516001600160a01b039091168152602001610183565b610165610257366004611764565b610974565b61016561026a36600461171b565b610b2a565b61016561027d36600461171b565b610c8b565b6101656102903660046117bb565b610d2d565b600054610231906001600160a01b031681565b61017960065481565b610165610e62565b61017960075481565b6102f46102d0366004611734565b60046020908152600092835260408084209091529082529020805460019091015482565b60408051928352602083019190915201610183565b61017960095481565b6101656103203660046117fd565b610e8d565b600154610231906001600160a01b031681565b61017960085481565b61016561034f366004611764565b610ed9565b61016561036236600461181a565b6110c6565b6000546001600160a01b0316331461039a5760405162461bcd60e51b815260040161039190611835565b60405180910390fd5b6103a384611211565b60648261ffff1611156104065760405162461bcd60e51b815260206004820152602560248201527f6164643a20696e76616c6964206465706f7369742066656520626173697320706044820152646f696e747360d81b6064820152608401610391565b821561041457610414610e62565b600654421015610443578060000361042f5750600654610457565b60065481101561043e57506006545b610457565b80158061044f57504281105b156104575750425b60006006548211158061046a5750428211155b6040805160c0810182526001600160a01b038881168252602082018a815292820186815260006060840181815261ffff8a8116608087019081528815801560a0890190815260038054600181018255965297517fc2575a0e9e593c00f959f8c92f12db2869c3395a3b0502d05e2516446f71f85b600590960295860180546001600160a01b031916919098161790965596517fc2575a0e9e593c00f959f8c92f12db2869c3395a3b0502d05e2516446f71f85c84015592517fc2575a0e9e593c00f959f8c92f12db2869c3395a3b0502d05e2516446f71f85d830155517fc2575a0e9e593c00f959f8c92f12db2869c3395a3b0502d05e2516446f71f85e82015593517fc2575a0e9e593c00f959f8c92f12db2869c3395a3b0502d05e2516446f71f85f909401805493519490911662ffffff199093169290921762010000931515939093029290921790559091506105ce576005546105ca90876112b3565b6005555b505050505050565b600381815481106105e657600080fd5b6000918252602090912060059091020180546001820154600283015460038401546004909401546001600160a01b0390931694509092909161ffff81169062010000900460ff1686565b600080600384815481106106465761064661187f565b60009182526020808320878452600480835260408086206001600160a01b038a8116885294528086206005959095029092016003810154815493516370a0823160e01b8152309381019390935290965093949291909116906370a0823190602401602060405180830381865afa1580156106c4573d6000803e3d6000fd5b505050506040513d601f19601f820116820180604052508101906106e89190611895565b90508360020154421180156106fc57508015155b1561075f57600061071185600201544261079d565b905060006107386005546107328860010154856112c690919063ffffffff16565b906112d2565b905061075a6107538461073284670de0b6b3a76400006112c6565b85906112b3565b935050505b610790836001015461078a670de0b6b3a76400006107328688600001546112c690919063ffffffff16565b906112de565b9450505050505b92915050565b60008183106107ae57506000610797565b60075482106108165760075483106107c857506000610797565b60065483116107fb576107f46008546107ee6006546007546112de90919063ffffffff16565b906112c6565b9050610797565b6107f46008546107ee856007546112de90919063ffffffff16565b600654821161082757506000610797565b600654831161084b576107f46008546107ee600654856112de90919063ffffffff16565b6008546107f4906107ee84866112de565b6000546001600160a01b031633146108865760405162461bcd60e51b815260040161039190611835565b61ffff8116156108e65760405162461bcd60e51b815260206004820152602560248201527f4465706f736974204665652043616e6e6f7420657175616c206d6f7265207468604482015264616e20302560d81b6064820152608401610391565b6108ee610e62565b6000600384815481106109035761090361187f565b906000526020600020906005020190508060040160029054906101000a900460ff16156109515761094d8361094783600101546005546112de90919063ffffffff16565b906112b3565b6005555b60018101929092556004909101805461ffff191661ffff90921691909117905550565b600033905060006003848154811061098e5761098e61187f565b600091825260208083208784526004825260408085206001600160a01b03881686529092529220805460059092029092019250841115610a055760405162461bcd60e51b81526020600482015260126024820152711dda5d1a191c985dce881b9bdd0819dbdbd960721b6044820152606401610391565b610a0e85610b2a565b6000610a3f826001015461078a670de0b6b3a7640000610732876003015487600001546112c690919063ffffffff16565b90508015610a9557610a5184826112ea565b836001600160a01b03167fe2403640ba68fed3a2f88b7557551d1993f84b99bb10ff833f0cf8db0c5e048682604051610a8c91815260200190565b60405180910390a25b8415610abf578154610aa790866112de565b82558254610abf906001600160a01b03168587611391565b60038301548254610add91670de0b6b3a764000091610732916112c6565b600183015560405185815286906001600160a01b038616907ff279e6a1f5e320cca91135676d9cb6e44ca8a08c0b88342bcdb1144f6511b5689060200160405180910390a3505050505050565b600060038281548110610b3f57610b3f61187f565b9060005260206000209060050201905080600201544211610b5e575050565b80546040516370a0823160e01b81523060048201526000916001600160a01b0316906370a0823190602401602060405180830381865afa158015610ba6573d6000803e3d6000fd5b505050506040513d601f19601f82011682018060405250810190610bca9190611895565b905080600003610bdf57504260029091015550565b600482015462010000900460ff16610c195760048201805462ff00001916620100001790556001820154600554610c15916112b3565b6005555b60055415610c80576000610c3183600201544261079d565b90506000610c526005546107328660010154856112c690919063ffffffff16565b9050610c78610c6d8461073284670de0b6b3a76400006112c6565b6003860154906112b3565b600385015550505b504260029091015550565b600060038281548110610ca057610ca061187f565b600091825260208083208584526004825260408085203380875293528420805485825560018201959095556005909302018054909450919291610cf0916001600160a01b03919091169083611391565b604051818152849033907fbb757047c2b5f3974fe26b7c10f732e7bce710b0952a71082702781e62ae05959060200160405180910390a350505050565b6000546001600160a01b03163314610d575760405162461bcd60e51b815260040161039190611835565b600754610d67906276a7006118c4565b421015610e49576001546001600160a01b0390811690841603610db55760405162461bcd60e51b8152600401610391906020808252600490820152630c8cae8d60e31b604082015260600190565b60035460005b81811015610e4657600060038281548110610dd857610dd861187f565b6000918252602090912060059091020180549091506001600160a01b0390811690871603610e355760405162461bcd60e51b815260206004820152600a6024820152693837b7b6173a37b5b2b760b11b6044820152606401610391565b50610e3f816118d7565b9050610dbb565b50505b610e5d6001600160a01b0384168284611391565b505050565b60035460005b81811015610e8957610e7981610b2a565b610e82816118d7565b9050610e68565b5050565b6000546001600160a01b03163314610eb75760405162461bcd60e51b815260040161039190611835565b600080546001600160a01b0319166001600160a01b0392909216919091179055565b6000339050600060038481548110610ef357610ef361187f565b600091825260208083208784526004825260408085206001600160a01b0388168652909252922060059091029091019150610f2d85610b2a565b805415610fc9576000610f65826001015461078a670de0b6b3a7640000610732876003015487600001546112c690919063ffffffff16565b90508015610fc7578254610f83906001600160a01b03168583611391565b836001600160a01b03167fe2403640ba68fed3a2f88b7557551d1993f84b99bb10ff833f0cf8db0c5e048682604051610fbe91815260200190565b60405180910390a25b505b83156110bf578154610fe6906001600160a01b03168430876113f4565b600482015461ffff161561104c576004820154600090611013906127109061073290889061ffff166112c6565b6002548454919250611032916001600160a01b03908116911683611391565b815461104490829061078a90886112b3565b82555061105b565b805461105890856112b3565b81555b6003820154815461107991670de0b6b3a764000091610732916112c6565b600182015560405184815285906001600160a01b038516907f90890809c654f11d6e72a28fa60149770a0d11ec6c92319d6ceb2bb0a4ea1a159060200160405180910390a35b5050505050565b6000546001600160a01b031633146110f05760405162461bcd60e51b815260040161039190611835565b61ffff8116156111505760405162461bcd60e51b815260206004820152602560248201527f7365743a20696e76616c6964206465706f7369742066656520626173697320706044820152646f696e747360d81b6064820152608401610391565b60005b600354811015610e8957807f39f0c3d078af018954b4fa56832a05a2b511afaa999b133ea3f1c487c21ed287600383815481106111925761119261187f565b6000918252602090912060059091020154600380546001600160a01b0390921691859081106111c3576111c361187f565b600091825260209182902060016005909202010154604080516001600160a01b0390941684529183015261ffff86169082015260600160405180910390a261120a816118d7565b9050611153565b60035460005b81811015610e5d57826001600160a01b03166003828154811061123c5761123c61187f565b60009182526020909120600590910201546001600160a01b0316036112a35760405162461bcd60e51b815260206004820152601e60248201527f64455448526577617264506f6f6c3a206578697374696e6720706f6f6c3f00006044820152606401610391565b6112ac816118d7565b9050611217565b60006112bf82846118c4565b9392505050565b60006112bf82846118f0565b60006112bf828461190f565b60006112bf8284611931565b6001546040516370a0823160e01b81523060048201526000916001600160a01b0316906370a0823190602401602060405180830381865afa158015611333573d6000803e3d6000fd5b505050506040513d601f19601f820116820180604052508101906113579190611895565b90508015610e5d578082111561137e57600154610e5d906001600160a01b03168483611391565b600154610e5d906001600160a01b031684845b6040516001600160a01b038316602482015260448101829052610e5d90849063a9059cbb60e01b906064015b60408051601f198184030181529190526020810180516001600160e01b03166001600160e01b031990931692909217909152611432565b6040516001600160a01b038085166024830152831660448201526064810182905261142c9085906323b872dd60e01b906084016113bd565b50505050565b6000611487826040518060400160405280602081526020017f5361666545524332303a206c6f772d6c6576656c2063616c6c206661696c6564815250856001600160a01b03166115049092919063ffffffff16565b805190915015610e5d57808060200190518101906114a59190611944565b610e5d5760405162461bcd60e51b815260206004820152602a60248201527f5361666545524332303a204552433230206f7065726174696f6e20646964206e6044820152691bdd081cdd58d8d9595960b21b6064820152608401610391565b6060611513848460008561151b565b949350505050565b60608247101561157c5760405162461bcd60e51b815260206004820152602660248201527f416464726573733a20696e73756666696369656e742062616c616e636520666f6044820152651c8818d85b1b60d21b6064820152608401610391565b6001600160a01b0385163b6115d35760405162461bcd60e51b815260206004820152601d60248201527f416464726573733a2063616c6c20746f206e6f6e2d636f6e74726163740000006044820152606401610391565b600080866001600160a01b031685876040516115ef9190611985565b60006040518083038185875af1925050503d806000811461162c576040519150601f19603f3d011682016040523d82523d6000602084013e611631565b606091505b509150915061164182828661164c565b979650505050505050565b6060831561165b5750816112bf565b82511561166b5782518084602001fd5b8160405162461bcd60e51b815260040161039191906119a1565b6001600160a01b038116811461169a57600080fd5b50565b801515811461169a57600080fd5b803561ffff811681146116bd57600080fd5b919050565b600080600080600060a086880312156116da57600080fd5b8535945060208601356116ec81611685565b935060408601356116fc8161169d565b925061170a606087016116ab565b949793965091946080013592915050565b60006020828403121561172d57600080fd5b5035919050565b6000806040838503121561174757600080fd5b82359150602083013561175981611685565b809150509250929050565b6000806040838503121561177757600080fd5b50508035926020909101359150565b60008060006060848603121561179b57600080fd5b83359250602084013591506117b2604085016116ab565b90509250925092565b6000806000606084860312156117d057600080fd5b83356117db81611685565b92506020840135915060408401356117f281611685565b809150509250925092565b60006020828403121561180f57600080fd5b81356112bf81611685565b60006020828403121561182c57600080fd5b6112bf826116ab565b6020808252602a908201527f64455448526577617264506f6f6c3a2063616c6c6572206973206e6f74207468604082015269329037b832b930ba37b960b11b606082015260800190565b634e487b7160e01b600052603260045260246000fd5b6000602082840312156118a757600080fd5b5051919050565b634e487b7160e01b600052601160045260246000fd5b80820180821115610797576107976118ae565b6000600182016118e9576118e96118ae565b5060010190565b600081600019048311821515161561190a5761190a6118ae565b500290565b60008261192c57634e487b7160e01b600052601260045260246000fd5b500490565b81810381811115610797576107976118ae565b60006020828403121561195657600080fd5b81516112bf8161169d565b60005b8381101561197c578181015183820152602001611964565b50506000910152565b60008251611997818460208701611961565b9190910192915050565b60208152600082518060208401526119c0816040850160208701611961565b601f01601f1916919091016040019291505056fea2646970667358221220b3551e93fc2410d56fde2104b535338ae1a0c9087c905087b6adea94084db38d64736f6c63430008100033",
					"opcodes": "PUSH1 0x80 PUSH1 0x40 MSTORE PUSH1 0x0 PUSH1 0x5 SSTORE PUSH8 0x589E8CB75F81FC0 PUSH1 0x8 SSTORE PUSH3 0x979C80 PUSH1 0x9 SSTORE CALLVALUE DUP1 ISZERO PUSH3 0x29 JUMPI PUSH1 0x0 DUP1 REVERT JUMPDEST POP PUSH1 0x40 MLOAD PUSH3 0x1BD7 CODESIZE SUB DUP1 PUSH3 0x1BD7 DUP4 CODECOPY DUP2 ADD PUSH1 0x40 DUP2 SWAP1 MSTORE PUSH3 0x4C SWAP2 PUSH3 0x139 JUMP JUMPDEST DUP3 TIMESTAMP LT PUSH3 0x8F JUMPI PUSH1 0x40 MLOAD PUSH3 0x461BCD PUSH1 0xE5 SHL DUP2 MSTORE PUSH1 0x4 ADD PUSH3 0x86 SWAP1 PUSH1 0x20 DUP1 DUP3 MSTORE PUSH1 0x4 SWAP1 DUP3 ADD MSTORE PUSH4 0x6C617465 PUSH1 0xE0 SHL PUSH1 0x40 DUP3 ADD MSTORE PUSH1 0x60 ADD SWAP1 JUMP JUMPDEST PUSH1 0x40 MLOAD DUP1 SWAP2 SUB SWAP1 REVERT JUMPDEST PUSH1 0x1 PUSH1 0x1 PUSH1 0xA0 SHL SUB DUP5 AND ISZERO PUSH3 0xBB JUMPI PUSH1 0x1 DUP1 SLOAD PUSH1 0x1 PUSH1 0x1 PUSH1 0xA0 SHL SUB NOT AND PUSH1 0x1 PUSH1 0x1 PUSH1 0xA0 SHL SUB DUP7 AND OR SWAP1 SSTORE JUMPDEST PUSH1 0x6 DUP4 SWAP1 SSTORE PUSH1 0x9 SLOAD PUSH3 0xCF SWAP1 DUP5 PUSH3 0x195 JUMP JUMPDEST PUSH1 0x7 SSTORE PUSH1 0xA DUP1 SLOAD PUSH2 0xFFFF SWAP1 SWAP4 AND PUSH2 0xFFFF NOT SWAP1 SWAP4 AND SWAP3 SWAP1 SWAP3 OR SWAP1 SWAP2 SSTORE PUSH1 0x2 DUP1 SLOAD PUSH1 0x1 PUSH1 0x1 PUSH1 0xA0 SHL SUB SWAP1 SWAP3 AND PUSH1 0x1 PUSH1 0x1 PUSH1 0xA0 SHL SUB NOT SWAP3 DUP4 AND OR SWAP1 SSTORE PUSH1 0x0 DUP1 SLOAD SWAP1 SWAP2 AND CALLER OR SWAP1 SSTORE POP PUSH3 0x1BD SWAP1 POP JUMP JUMPDEST DUP1 MLOAD PUSH1 0x1 PUSH1 0x1 PUSH1 0xA0 SHL SUB DUP2 AND DUP2 EQ PUSH3 0x134 JUMPI PUSH1 0x0 DUP1 REVERT JUMPDEST SWAP2 SWAP1 POP JUMP JUMPDEST PUSH1 0x0 DUP1 PUSH1 0x0 DUP1 PUSH1 0x80 DUP6 DUP8 SUB SLT ISZERO PUSH3 0x150 JUMPI PUSH1 0x0 DUP1 REVERT JUMPDEST PUSH3 0x15B DUP6 PUSH3 0x11C JUMP JUMPDEST SWAP4 POP PUSH1 0x20 DUP6 ADD MLOAD SWAP3 POP PUSH1 0x40 DUP6 ADD MLOAD PUSH2 0xFFFF DUP2 AND DUP2 EQ PUSH3 0x17A JUMPI PUSH1 0x0 DUP1 REVERT JUMPDEST SWAP2 POP PUSH3 0x18A PUSH1 0x60 DUP7 ADD PUSH3 0x11C JUMP JUMPDEST SWAP1 POP SWAP3 SWAP6 SWAP2 SWAP5 POP SWAP3 POP JUMP JUMPDEST DUP1 DUP3 ADD DUP1 DUP3 GT ISZERO PUSH3 0x1B7 JUMPI PUSH4 0x4E487B71 PUSH1 0xE0 SHL PUSH1 0x0 MSTORE PUSH1 0x11 PUSH1 0x4 MSTORE PUSH1 0x24 PUSH1 0x0 REVERT JUMPDEST SWAP3 SWAP2 POP POP JUMP JUMPDEST PUSH2 0x1A0A DUP1 PUSH3 0x1CD PUSH1 0x0 CODECOPY PUSH1 0x0 RETURN INVALID PUSH1 0x80 PUSH1 0x40 MSTORE CALLVALUE DUP1 ISZERO PUSH2 0x10 JUMPI PUSH1 0x0 DUP1 REVERT JUMPDEST POP PUSH1 0x4 CALLDATASIZE LT PUSH2 0x14D JUMPI PUSH1 0x0 CALLDATALOAD PUSH1 0xE0 SHR DUP1 PUSH4 0x54575AF4 GT PUSH2 0xC3 JUMPI DUP1 PUSH4 0x943F013D GT PUSH2 0x7C JUMPI DUP1 PUSH4 0x943F013D EQ PUSH2 0x309 JUMPI DUP1 PUSH4 0xB3AB15FB EQ PUSH2 0x312 JUMPI DUP1 PUSH4 0xD18CCD89 EQ PUSH2 0x325 JUMPI DUP1 PUSH4 0xDC9E5DEA EQ PUSH2 0x338 JUMPI DUP1 PUSH4 0xE2BBB158 EQ PUSH2 0x341 JUMPI DUP1 PUSH4 0xECB1AB54 EQ PUSH2 0x354 JUMPI PUSH1 0x0 DUP1 REVERT JUMPDEST DUP1 PUSH4 0x54575AF4 EQ PUSH2 0x282 JUMPI DUP1 PUSH4 0x570CA735 EQ PUSH2 0x295 JUMPI DUP1 PUSH4 0x5F96DC11 EQ PUSH2 0x2A8 JUMPI DUP1 PUSH4 0x630B5BA1 EQ PUSH2 0x2B1 JUMPI DUP1 PUSH4 0x6E271DD5 EQ PUSH2 0x2B9 JUMPI DUP1 PUSH4 0x93F1A40B EQ PUSH2 0x2C2 JUMPI PUSH1 0x0 DUP1 REVERT JUMPDEST DUP1 PUSH4 0x231F0C6A GT PUSH2 0x115 JUMPI DUP1 PUSH4 0x231F0C6A EQ PUSH2 0x1F8 JUMPI DUP1 PUSH4 0x24BCB38C EQ PUSH2 0x20B JUMPI DUP1 PUSH4 0x41275358 EQ PUSH2 0x21E JUMPI DUP1 PUSH4 0x441A3E70 EQ PUSH2 0x249 JUMPI DUP1 PUSH4 0x51EB05A6 EQ PUSH2 0x25C JUMPI DUP1 PUSH4 0x5312EA8E EQ PUSH2 0x26F JUMPI PUSH1 0x0 DUP1 REVERT JUMPDEST DUP1 PUSH4 0x8BEE642 EQ PUSH2 0x152 JUMPI DUP1 PUSH4 0x9CF6091 EQ PUSH2 0x167 JUMPI DUP1 PUSH4 0x1526FE27 EQ PUSH2 0x18C JUMPI DUP1 PUSH4 0x17CAF6F1 EQ PUSH2 0x1DC JUMPI DUP1 PUSH4 0x1E8FA23A EQ PUSH2 0x1E5 JUMPI JUMPDEST PUSH1 0x0 DUP1 REVERT JUMPDEST PUSH2 0x165 PUSH2 0x160 CALLDATASIZE PUSH1 0x4 PUSH2 0x16C2 JUMP JUMPDEST PUSH2 0x367 JUMP JUMPDEST STOP JUMPDEST PUSH2 0x179 PUSH11 0x422CA8B0A00A425000000 DUP2 JUMP JUMPDEST PUSH1 0x40 MLOAD SWAP1 DUP2 MSTORE PUSH1 0x20 ADD JUMPDEST PUSH1 0x40 MLOAD DUP1 SWAP2 SUB SWAP1 RETURN JUMPDEST PUSH2 0x19F PUSH2 0x19A CALLDATASIZE PUSH1 0x4 PUSH2 0x171B JUMP JUMPDEST PUSH2 0x5D6 JUMP JUMPDEST PUSH1 0x40 DUP1 MLOAD PUSH1 0x1 PUSH1 0x1 PUSH1 0xA0 SHL SUB SWAP1 SWAP8 AND DUP8 MSTORE PUSH1 0x20 DUP8 ADD SWAP6 SWAP1 SWAP6 MSTORE SWAP4 DUP6 ADD SWAP3 SWAP1 SWAP3 MSTORE PUSH1 0x60 DUP5 ADD MSTORE PUSH2 0xFFFF AND PUSH1 0x80 DUP4 ADD MSTORE ISZERO ISZERO PUSH1 0xA0 DUP3 ADD MSTORE PUSH1 0xC0 ADD PUSH2 0x183 JUMP JUMPDEST PUSH2 0x179 PUSH1 0x5 SLOAD DUP2 JUMP JUMPDEST PUSH2 0x179 PUSH2 0x1F3 CALLDATASIZE PUSH1 0x4 PUSH2 0x1734 JUMP JUMPDEST PUSH2 0x630 JUMP JUMPDEST PUSH2 0x179 PUSH2 0x206 CALLDATASIZE PUSH1 0x4 PUSH2 0x1764 JUMP JUMPDEST PUSH2 0x79D JUMP JUMPDEST PUSH2 0x165 PUSH2 0x219 CALLDATASIZE PUSH1 0x4 PUSH2 0x1786 JUMP JUMPDEST PUSH2 0x85C JUMP JUMPDEST PUSH1 0x2 SLOAD PUSH2 0x231 SWAP1 PUSH1 0x1 PUSH1 0x1 PUSH1 0xA0 SHL SUB AND DUP2 JUMP JUMPDEST PUSH1 0x40 MLOAD PUSH1 0x1 PUSH1 0x1 PUSH1 0xA0 SHL SUB SWAP1 SWAP2 AND DUP2 MSTORE PUSH1 0x20 ADD PUSH2 0x183 JUMP JUMPDEST PUSH2 0x165 PUSH2 0x257 CALLDATASIZE PUSH1 0x4 PUSH2 0x1764 JUMP JUMPDEST PUSH2 0x974 JUMP JUMPDEST PUSH2 0x165 PUSH2 0x26A CALLDATASIZE PUSH1 0x4 PUSH2 0x171B JUMP JUMPDEST PUSH2 0xB2A JUMP JUMPDEST PUSH2 0x165 PUSH2 0x27D CALLDATASIZE PUSH1 0x4 PUSH2 0x171B JUMP JUMPDEST PUSH2 0xC8B JUMP JUMPDEST PUSH2 0x165 PUSH2 0x290 CALLDATASIZE PUSH1 0x4 PUSH2 0x17BB JUMP JUMPDEST PUSH2 0xD2D JUMP JUMPDEST PUSH1 0x0 SLOAD PUSH2 0x231 SWAP1 PUSH1 0x1 PUSH1 0x1 PUSH1 0xA0 SHL SUB AND DUP2 JUMP JUMPDEST PUSH2 0x179 PUSH1 0x6 SLOAD DUP2 JUMP JUMPDEST PUSH2 0x165 PUSH2 0xE62 JUMP JUMPDEST PUSH2 0x179 PUSH1 0x7 SLOAD DUP2 JUMP JUMPDEST PUSH2 0x2F4 PUSH2 0x2D0 CALLDATASIZE PUSH1 0x4 PUSH2 0x1734 JUMP JUMPDEST PUSH1 0x4 PUSH1 0x20 SWAP1 DUP2 MSTORE PUSH1 0x0 SWAP3 DUP4 MSTORE PUSH1 0x40 DUP1 DUP5 KECCAK256 SWAP1 SWAP2 MSTORE SWAP1 DUP3 MSTORE SWAP1 KECCAK256 DUP1 SLOAD PUSH1 0x1 SWAP1 SWAP2 ADD SLOAD DUP3 JUMP JUMPDEST PUSH1 0x40 DUP1 MLOAD SWAP3 DUP4 MSTORE PUSH1 0x20 DUP4 ADD SWAP2 SWAP1 SWAP2 MSTORE ADD PUSH2 0x183 JUMP JUMPDEST PUSH2 0x179 PUSH1 0x9 SLOAD DUP2 JUMP JUMPDEST PUSH2 0x165 PUSH2 0x320 CALLDATASIZE PUSH1 0x4 PUSH2 0x17FD JUMP JUMPDEST PUSH2 0xE8D JUMP JUMPDEST PUSH1 0x1 SLOAD PUSH2 0x231 SWAP1 PUSH1 0x1 PUSH1 0x1 PUSH1 0xA0 SHL SUB AND DUP2 JUMP JUMPDEST PUSH2 0x179 PUSH1 0x8 SLOAD DUP2 JUMP JUMPDEST PUSH2 0x165 PUSH2 0x34F CALLDATASIZE PUSH1 0x4 PUSH2 0x1764 JUMP JUMPDEST PUSH2 0xED9 JUMP JUMPDEST PUSH2 0x165 PUSH2 0x362 CALLDATASIZE PUSH1 0x4 PUSH2 0x181A JUMP JUMPDEST PUSH2 0x10C6 JUMP JUMPDEST PUSH1 0x0 SLOAD PUSH1 0x1 PUSH1 0x1 PUSH1 0xA0 SHL SUB AND CALLER EQ PUSH2 0x39A JUMPI PUSH1 0x40 MLOAD PUSH3 0x461BCD PUSH1 0xE5 SHL DUP2 MSTORE PUSH1 0x4 ADD PUSH2 0x391 SWAP1 PUSH2 0x1835 JUMP JUMPDEST PUSH1 0x40 MLOAD DUP1 SWAP2 SUB SWAP1 REVERT JUMPDEST PUSH2 0x3A3 DUP5 PUSH2 0x1211 JUMP JUMPDEST PUSH1 0x64 DUP3 PUSH2 0xFFFF AND GT ISZERO PUSH2 0x406 JUMPI PUSH1 0x40 MLOAD PUSH3 0x461BCD PUSH1 0xE5 SHL DUP2 MSTORE PUSH1 0x20 PUSH1 0x4 DUP3 ADD MSTORE PUSH1 0x25 PUSH1 0x24 DUP3 ADD MSTORE PUSH32 0x6164643A20696E76616C6964206465706F736974206665652062617369732070 PUSH1 0x44 DUP3 ADD MSTORE PUSH5 0x6F696E7473 PUSH1 0xD8 SHL PUSH1 0x64 DUP3 ADD MSTORE PUSH1 0x84 ADD PUSH2 0x391 JUMP JUMPDEST DUP3 ISZERO PUSH2 0x414 JUMPI PUSH2 0x414 PUSH2 0xE62 JUMP JUMPDEST PUSH1 0x6 SLOAD TIMESTAMP LT ISZERO PUSH2 0x443 JUMPI DUP1 PUSH1 0x0 SUB PUSH2 0x42F JUMPI POP PUSH1 0x6 SLOAD PUSH2 0x457 JUMP JUMPDEST PUSH1 0x6 SLOAD DUP2 LT ISZERO PUSH2 0x43E JUMPI POP PUSH1 0x6 SLOAD JUMPDEST PUSH2 0x457 JUMP JUMPDEST DUP1 ISZERO DUP1 PUSH2 0x44F JUMPI POP TIMESTAMP DUP2 LT JUMPDEST ISZERO PUSH2 0x457 JUMPI POP TIMESTAMP JUMPDEST PUSH1 0x0 PUSH1 0x6 SLOAD DUP3 GT ISZERO DUP1 PUSH2 0x46A JUMPI POP TIMESTAMP DUP3 GT ISZERO JUMPDEST PUSH1 0x40 DUP1 MLOAD PUSH1 0xC0 DUP2 ADD DUP3 MSTORE PUSH1 0x1 PUSH1 0x1 PUSH1 0xA0 SHL SUB DUP9 DUP2 AND DUP3 MSTORE PUSH1 0x20 DUP3 ADD DUP11 DUP2 MSTORE SWAP3 DUP3 ADD DUP7 DUP2 MSTORE PUSH1 0x0 PUSH1 0x60 DUP5 ADD DUP2 DUP2 MSTORE PUSH2 0xFFFF DUP11 DUP2 AND PUSH1 0x80 DUP8 ADD SWAP1 DUP2 MSTORE DUP9 ISZERO DUP1 ISZERO PUSH1 0xA0 DUP10 ADD SWAP1 DUP2 MSTORE PUSH1 0x3 DUP1 SLOAD PUSH1 0x1 DUP2 ADD DUP3 SSTORE SWAP7 MSTORE SWAP8 MLOAD PUSH32 0xC2575A0E9E593C00F959F8C92F12DB2869C3395A3B0502D05E2516446F71F85B PUSH1 0x5 SWAP1 SWAP7 MUL SWAP6 DUP7 ADD DUP1 SLOAD PUSH1 0x1 PUSH1 0x1 PUSH1 0xA0 SHL SUB NOT AND SWAP2 SWAP1 SWAP9 AND OR SWAP1 SWAP7 SSTORE SWAP7 MLOAD PUSH32 0xC2575A0E9E593C00F959F8C92F12DB2869C3395A3B0502D05E2516446F71F85C DUP5 ADD SSTORE SWAP3 MLOAD PUSH32 0xC2575A0E9E593C00F959F8C92F12DB2869C3395A3B0502D05E2516446F71F85D DUP4 ADD SSTORE MLOAD PUSH32 0xC2575A0E9E593C00F959F8C92F12DB2869C3395A3B0502D05E2516446F71F85E DUP3 ADD SSTORE SWAP4 MLOAD PUSH32 0xC2575A0E9E593C00F959F8C92F12DB2869C3395A3B0502D05E2516446F71F85F SWAP1 SWAP5 ADD DUP1 SLOAD SWAP4 MLOAD SWAP5 SWAP1 SWAP2 AND PUSH3 0xFFFFFF NOT SWAP1 SWAP4 AND SWAP3 SWAP1 SWAP3 OR PUSH3 0x10000 SWAP4 ISZERO ISZERO SWAP4 SWAP1 SWAP4 MUL SWAP3 SWAP1 SWAP3 OR SWAP1 SSTORE SWAP1 SWAP2 POP PUSH2 0x5CE JUMPI PUSH1 0x5 SLOAD PUSH2 0x5CA SWAP1 DUP8 PUSH2 0x12B3 JUMP JUMPDEST PUSH1 0x5 SSTORE JUMPDEST POP POP POP POP POP POP JUMP JUMPDEST PUSH1 0x3 DUP2 DUP2 SLOAD DUP2 LT PUSH2 0x5E6 JUMPI PUSH1 0x0 DUP1 REVERT JUMPDEST PUSH1 0x0 SWAP2 DUP3 MSTORE PUSH1 0x20 SWAP1 SWAP2 KECCAK256 PUSH1 0x5 SWAP1 SWAP2 MUL ADD DUP1 SLOAD PUSH1 0x1 DUP3 ADD SLOAD PUSH1 0x2 DUP4 ADD SLOAD PUSH1 0x3 DUP5 ADD SLOAD PUSH1 0x4 SWAP1 SWAP5 ADD SLOAD PUSH1 0x1 PUSH1 0x1 PUSH1 0xA0 SHL SUB SWAP1 SWAP4 AND SWAP5 POP SWAP1 SWAP3 SWAP1 SWAP2 PUSH2 0xFFFF DUP2 AND SWAP1 PUSH3 0x10000 SWAP1 DIV PUSH1 0xFF AND DUP7 JUMP JUMPDEST PUSH1 0x0 DUP1 PUSH1 0x3 DUP5 DUP2 SLOAD DUP2 LT PUSH2 0x646 JUMPI PUSH2 0x646 PUSH2 0x187F JUMP JUMPDEST PUSH1 0x0 SWAP2 DUP3 MSTORE PUSH1 0x20 DUP1 DUP4 KECCAK256 DUP8 DUP5 MSTORE PUSH1 0x4 DUP1 DUP4 MSTORE PUSH1 0x40 DUP1 DUP7 KECCAK256 PUSH1 0x1 PUSH1 0x1 PUSH1 0xA0 SHL SUB DUP11 DUP2 AND DUP9 MSTORE SWAP5 MSTORE DUP1 DUP7 KECCAK256 PUSH1 0x5 SWAP6 SWAP1 SWAP6 MUL SWAP1 SWAP3 ADD PUSH1 0x3 DUP2 ADD SLOAD DUP2 SLOAD SWAP4 MLOAD PUSH4 0x70A08231 PUSH1 0xE0 SHL DUP2 MSTORE ADDRESS SWAP4 DUP2 ADD SWAP4 SWAP1 SWAP4 MSTORE SWAP1 SWAP7 POP SWAP4 SWAP5 SWAP3 SWAP2 SWAP1 SWAP2 AND SWAP1 PUSH4 0x70A08231 SWAP1 PUSH1 0x24 ADD PUSH1 0x20 PUSH1 0x40 MLOAD DUP1 DUP4 SUB DUP2 DUP7 GAS STATICCALL ISZERO DUP1 ISZERO PUSH2 0x6C4 JUMPI RETURNDATASIZE PUSH1 0x0 DUP1 RETURNDATACOPY RETURNDATASIZE PUSH1 0x0 REVERT JUMPDEST POP POP POP POP PUSH1 0x40 MLOAD RETURNDATASIZE PUSH1 0x1F NOT PUSH1 0x1F DUP3 ADD AND DUP3 ADD DUP1 PUSH1 0x40 MSTORE POP DUP2 ADD SWAP1 PUSH2 0x6E8 SWAP2 SWAP1 PUSH2 0x1895 JUMP JUMPDEST SWAP1 POP DUP4 PUSH1 0x2 ADD SLOAD TIMESTAMP GT DUP1 ISZERO PUSH2 0x6FC JUMPI POP DUP1 ISZERO ISZERO JUMPDEST ISZERO PUSH2 0x75F JUMPI PUSH1 0x0 PUSH2 0x711 DUP6 PUSH1 0x2 ADD SLOAD TIMESTAMP PUSH2 0x79D JUMP JUMPDEST SWAP1 POP PUSH1 0x0 PUSH2 0x738 PUSH1 0x5 SLOAD PUSH2 0x732 DUP9 PUSH1 0x1 ADD SLOAD DUP6 PUSH2 0x12C6 SWAP1 SWAP2 SWAP1 PUSH4 0xFFFFFFFF AND JUMP JUMPDEST SWAP1 PUSH2 0x12D2 JUMP JUMPDEST SWAP1 POP PUSH2 0x75A PUSH2 0x753 DUP5 PUSH2 0x732 DUP5 PUSH8 0xDE0B6B3A7640000 PUSH2 0x12C6 JUMP JUMPDEST DUP6 SWAP1 PUSH2 0x12B3 JUMP JUMPDEST SWAP4 POP POP POP JUMPDEST PUSH2 0x790 DUP4 PUSH1 0x1 ADD SLOAD PUSH2 0x78A PUSH8 0xDE0B6B3A7640000 PUSH2 0x732 DUP7 DUP9 PUSH1 0x0 ADD SLOAD PUSH2 0x12C6 SWAP1 SWAP2 SWAP1 PUSH4 0xFFFFFFFF AND JUMP JUMPDEST SWAP1 PUSH2 0x12DE JUMP JUMPDEST SWAP5 POP POP POP POP POP JUMPDEST SWAP3 SWAP2 POP POP JUMP JUMPDEST PUSH1 0x0 DUP2 DUP4 LT PUSH2 0x7AE JUMPI POP PUSH1 0x0 PUSH2 0x797 JUMP JUMPDEST PUSH1 0x7 SLOAD DUP3 LT PUSH2 0x816 JUMPI PUSH1 0x7 SLOAD DUP4 LT PUSH2 0x7C8 JUMPI POP PUSH1 0x0 PUSH2 0x797 JUMP JUMPDEST PUSH1 0x6 SLOAD DUP4 GT PUSH2 0x7FB JUMPI PUSH2 0x7F4 PUSH1 0x8 SLOAD PUSH2 0x7EE PUSH1 0x6 SLOAD PUSH1 0x7 SLOAD PUSH2 0x12DE SWAP1 SWAP2 SWAP1 PUSH4 0xFFFFFFFF AND JUMP JUMPDEST SWAP1 PUSH2 0x12C6 JUMP JUMPDEST SWAP1 POP PUSH2 0x797 JUMP JUMPDEST PUSH2 0x7F4 PUSH1 0x8 SLOAD PUSH2 0x7EE DUP6 PUSH1 0x7 SLOAD PUSH2 0x12DE SWAP1 SWAP2 SWAP1 PUSH4 0xFFFFFFFF AND JUMP JUMPDEST PUSH1 0x6 SLOAD DUP3 GT PUSH2 0x827 JUMPI POP PUSH1 0x0 PUSH2 0x797 JUMP JUMPDEST PUSH1 0x6 SLOAD DUP4 GT PUSH2 0x84B JUMPI PUSH2 0x7F4 PUSH1 0x8 SLOAD PUSH2 0x7EE PUSH1 0x6 SLOAD DUP6 PUSH2 0x12DE SWAP1 SWAP2 SWAP1 PUSH4 0xFFFFFFFF AND JUMP JUMPDEST PUSH1 0x8 SLOAD PUSH2 0x7F4 SWAP1 PUSH2 0x7EE DUP5 DUP7 PUSH2 0x12DE JUMP JUMPDEST PUSH1 0x0 SLOAD PUSH1 0x1 PUSH1 0x1 PUSH1 0xA0 SHL SUB AND CALLER EQ PUSH2 0x886 JUMPI PUSH1 0x40 MLOAD PUSH3 0x461BCD PUSH1 0xE5 SHL DUP2 MSTORE PUSH1 0x4 ADD PUSH2 0x391 SWAP1 PUSH2 0x1835 JUMP JUMPDEST PUSH2 0xFFFF DUP2 AND ISZERO PUSH2 0x8E6 JUMPI PUSH1 0x40 MLOAD PUSH3 0x461BCD PUSH1 0xE5 SHL DUP2 MSTORE PUSH1 0x20 PUSH1 0x4 DUP3 ADD MSTORE PUSH1 0x25 PUSH1 0x24 DUP3 ADD MSTORE PUSH32 0x4465706F736974204665652043616E6E6F7420657175616C206D6F7265207468 PUSH1 0x44 DUP3 ADD MSTORE PUSH5 0x616E203025 PUSH1 0xD8 SHL PUSH1 0x64 DUP3 ADD MSTORE PUSH1 0x84 ADD PUSH2 0x391 JUMP JUMPDEST PUSH2 0x8EE PUSH2 0xE62 JUMP JUMPDEST PUSH1 0x0 PUSH1 0x3 DUP5 DUP2 SLOAD DUP2 LT PUSH2 0x903 JUMPI PUSH2 0x903 PUSH2 0x187F JUMP JUMPDEST SWAP1 PUSH1 0x0 MSTORE PUSH1 0x20 PUSH1 0x0 KECCAK256 SWAP1 PUSH1 0x5 MUL ADD SWAP1 POP DUP1 PUSH1 0x4 ADD PUSH1 0x2 SWAP1 SLOAD SWAP1 PUSH2 0x100 EXP SWAP1 DIV PUSH1 0xFF AND ISZERO PUSH2 0x951 JUMPI PUSH2 0x94D DUP4 PUSH2 0x947 DUP4 PUSH1 0x1 ADD SLOAD PUSH1 0x5 SLOAD PUSH2 0x12DE SWAP1 SWAP2 SWAP1 PUSH4 0xFFFFFFFF AND JUMP JUMPDEST SWAP1 PUSH2 0x12B3 JUMP JUMPDEST PUSH1 0x5 SSTORE JUMPDEST PUSH1 0x1 DUP2 ADD SWAP3 SWAP1 SWAP3 SSTORE PUSH1 0x4 SWAP1 SWAP2 ADD DUP1 SLOAD PUSH2 0xFFFF NOT AND PUSH2 0xFFFF SWAP1 SWAP3 AND SWAP2 SWAP1 SWAP2 OR SWAP1 SSTORE POP JUMP JUMPDEST PUSH1 0x0 CALLER SWAP1 POP PUSH1 0x0 PUSH1 0x3 DUP5 DUP2 SLOAD DUP2 LT PUSH2 0x98E JUMPI PUSH2 0x98E PUSH2 0x187F JUMP JUMPDEST PUSH1 0x0 SWAP2 DUP3 MSTORE PUSH1 0x20 DUP1 DUP4 KECCAK256 DUP8 DUP5 MSTORE PUSH1 0x4 DUP3 MSTORE PUSH1 0x40 DUP1 DUP6 KECCAK256 PUSH1 0x1 PUSH1 0x1 PUSH1 0xA0 SHL SUB DUP9 AND DUP7 MSTORE SWAP1 SWAP3 MSTORE SWAP3 KECCAK256 DUP1 SLOAD PUSH1 0x5 SWAP1 SWAP3 MUL SWAP1 SWAP3 ADD SWAP3 POP DUP5 GT ISZERO PUSH2 0xA05 JUMPI PUSH1 0x40 MLOAD PUSH3 0x461BCD PUSH1 0xE5 SHL DUP2 MSTORE PUSH1 0x20 PUSH1 0x4 DUP3 ADD MSTORE PUSH1 0x12 PUSH1 0x24 DUP3 ADD MSTORE PUSH18 0x1DDA5D1A191C985DCE881B9BDD0819DBDBD9 PUSH1 0x72 SHL PUSH1 0x44 DUP3 ADD MSTORE PUSH1 0x64 ADD PUSH2 0x391 JUMP JUMPDEST PUSH2 0xA0E DUP6 PUSH2 0xB2A JUMP JUMPDEST PUSH1 0x0 PUSH2 0xA3F DUP3 PUSH1 0x1 ADD SLOAD PUSH2 0x78A PUSH8 0xDE0B6B3A7640000 PUSH2 0x732 DUP8 PUSH1 0x3 ADD SLOAD DUP8 PUSH1 0x0 ADD SLOAD PUSH2 0x12C6 SWAP1 SWAP2 SWAP1 PUSH4 0xFFFFFFFF AND JUMP JUMPDEST SWAP1 POP DUP1 ISZERO PUSH2 0xA95 JUMPI PUSH2 0xA51 DUP5 DUP3 PUSH2 0x12EA JUMP JUMPDEST DUP4 PUSH1 0x1 PUSH1 0x1 PUSH1 0xA0 SHL SUB AND PUSH32 0xE2403640BA68FED3A2F88B7557551D1993F84B99BB10FF833F0CF8DB0C5E0486 DUP3 PUSH1 0x40 MLOAD PUSH2 0xA8C SWAP2 DUP2 MSTORE PUSH1 0x20 ADD SWAP1 JUMP JUMPDEST PUSH1 0x40 MLOAD DUP1 SWAP2 SUB SWAP1 LOG2 JUMPDEST DUP5 ISZERO PUSH2 0xABF JUMPI DUP2 SLOAD PUSH2 0xAA7 SWAP1 DUP7 PUSH2 0x12DE JUMP JUMPDEST DUP3 SSTORE DUP3 SLOAD PUSH2 0xABF SWAP1 PUSH1 0x1 PUSH1 0x1 PUSH1 0xA0 SHL SUB AND DUP6 DUP8 PUSH2 0x1391 JUMP JUMPDEST PUSH1 0x3 DUP4 ADD SLOAD DUP3 SLOAD PUSH2 0xADD SWAP2 PUSH8 0xDE0B6B3A7640000 SWAP2 PUSH2 0x732 SWAP2 PUSH2 0x12C6 JUMP JUMPDEST PUSH1 0x1 DUP4 ADD SSTORE PUSH1 0x40 MLOAD DUP6 DUP2 MSTORE DUP7 SWAP1 PUSH1 0x1 PUSH1 0x1 PUSH1 0xA0 SHL SUB DUP7 AND SWAP1 PUSH32 0xF279E6A1F5E320CCA91135676D9CB6E44CA8A08C0B88342BCDB1144F6511B568 SWAP1 PUSH1 0x20 ADD PUSH1 0x40 MLOAD DUP1 SWAP2 SUB SWAP1 LOG3 POP POP POP POP POP POP JUMP JUMPDEST PUSH1 0x0 PUSH1 0x3 DUP3 DUP2 SLOAD DUP2 LT PUSH2 0xB3F JUMPI PUSH2 0xB3F PUSH2 0x187F JUMP JUMPDEST SWAP1 PUSH1 0x0 MSTORE PUSH1 0x20 PUSH1 0x0 KECCAK256 SWAP1 PUSH1 0x5 MUL ADD SWAP1 POP DUP1 PUSH1 0x2 ADD SLOAD TIMESTAMP GT PUSH2 0xB5E JUMPI POP POP JUMP JUMPDEST DUP1 SLOAD PUSH1 0x40 MLOAD PUSH4 0x70A08231 PUSH1 0xE0 SHL DUP2 MSTORE ADDRESS PUSH1 0x4 DUP3 ADD MSTORE PUSH1 0x0 SWAP2 PUSH1 0x1 PUSH1 0x1 PUSH1 0xA0 SHL SUB AND SWAP1 PUSH4 0x70A08231 SWAP1 PUSH1 0x24 ADD PUSH1 0x20 PUSH1 0x40 MLOAD DUP1 DUP4 SUB DUP2 DUP7 GAS STATICCALL ISZERO DUP1 ISZERO PUSH2 0xBA6 JUMPI RETURNDATASIZE PUSH1 0x0 DUP1 RETURNDATACOPY RETURNDATASIZE PUSH1 0x0 REVERT JUMPDEST POP POP POP POP PUSH1 0x40 MLOAD RETURNDATASIZE PUSH1 0x1F NOT PUSH1 0x1F DUP3 ADD AND DUP3 ADD DUP1 PUSH1 0x40 MSTORE POP DUP2 ADD SWAP1 PUSH2 0xBCA SWAP2 SWAP1 PUSH2 0x1895 JUMP JUMPDEST SWAP1 POP DUP1 PUSH1 0x0 SUB PUSH2 0xBDF JUMPI POP TIMESTAMP PUSH1 0x2 SWAP1 SWAP2 ADD SSTORE POP JUMP JUMPDEST PUSH1 0x4 DUP3 ADD SLOAD PUSH3 0x10000 SWAP1 DIV PUSH1 0xFF AND PUSH2 0xC19 JUMPI PUSH1 0x4 DUP3 ADD DUP1 SLOAD PUSH3 0xFF0000 NOT AND PUSH3 0x10000 OR SWAP1 SSTORE PUSH1 0x1 DUP3 ADD SLOAD PUSH1 0x5 SLOAD PUSH2 0xC15 SWAP2 PUSH2 0x12B3 JUMP JUMPDEST PUSH1 0x5 SSTORE JUMPDEST PUSH1 0x5 SLOAD ISZERO PUSH2 0xC80 JUMPI PUSH1 0x0 PUSH2 0xC31 DUP4 PUSH1 0x2 ADD SLOAD TIMESTAMP PUSH2 0x79D JUMP JUMPDEST SWAP1 POP PUSH1 0x0 PUSH2 0xC52 PUSH1 0x5 SLOAD PUSH2 0x732 DUP7 PUSH1 0x1 ADD SLOAD DUP6 PUSH2 0x12C6 SWAP1 SWAP2 SWAP1 PUSH4 0xFFFFFFFF AND JUMP JUMPDEST SWAP1 POP PUSH2 0xC78 PUSH2 0xC6D DUP5 PUSH2 0x732 DUP5 PUSH8 0xDE0B6B3A7640000 PUSH2 0x12C6 JUMP JUMPDEST PUSH1 0x3 DUP7 ADD SLOAD SWAP1 PUSH2 0x12B3 JUMP JUMPDEST PUSH1 0x3 DUP6 ADD SSTORE POP POP JUMPDEST POP TIMESTAMP PUSH1 0x2 SWAP1 SWAP2 ADD SSTORE POP JUMP JUMPDEST PUSH1 0x0 PUSH1 0x3 DUP3 DUP2 SLOAD DUP2 LT PUSH2 0xCA0 JUMPI PUSH2 0xCA0 PUSH2 0x187F JUMP JUMPDEST PUSH1 0x0 SWAP2 DUP3 MSTORE PUSH1 0x20 DUP1 DUP4 KECCAK256 DUP6 DUP5 MSTORE PUSH1 0x4 DUP3 MSTORE PUSH1 0x40 DUP1 DUP6 KECCAK256 CALLER DUP1 DUP8 MSTORE SWAP4 MSTORE DUP5 KECCAK256 DUP1 SLOAD DUP6 DUP3 SSTORE PUSH1 0x1 DUP3 ADD SWAP6 SWAP1 SWAP6 SSTORE PUSH1 0x5 SWAP1 SWAP4 MUL ADD DUP1 SLOAD SWAP1 SWAP5 POP SWAP2 SWAP3 SWAP2 PUSH2 0xCF0 SWAP2 PUSH1 0x1 PUSH1 0x1 PUSH1 0xA0 SHL SUB SWAP2 SWAP1 SWAP2 AND SWAP1 DUP4 PUSH2 0x1391 JUMP JUMPDEST PUSH1 0x40 MLOAD DUP2 DUP2 MSTORE DUP5 SWAP1 CALLER SWAP1 PUSH32 0xBB757047C2B5F3974FE26B7C10F732E7BCE710B0952A71082702781E62AE0595 SWAP1 PUSH1 0x20 ADD PUSH1 0x40 MLOAD DUP1 SWAP2 SUB SWAP1 LOG3 POP POP POP POP JUMP JUMPDEST PUSH1 0x0 SLOAD PUSH1 0x1 PUSH1 0x1 PUSH1 0xA0 SHL SUB AND CALLER EQ PUSH2 0xD57 JUMPI PUSH1 0x40 MLOAD PUSH3 0x461BCD PUSH1 0xE5 SHL DUP2 MSTORE PUSH1 0x4 ADD PUSH2 0x391 SWAP1 PUSH2 0x1835 JUMP JUMPDEST PUSH1 0x7 SLOAD PUSH2 0xD67 SWAP1 PUSH3 0x76A700 PUSH2 0x18C4 JUMP JUMPDEST TIMESTAMP LT ISZERO PUSH2 0xE49 JUMPI PUSH1 0x1 SLOAD PUSH1 0x1 PUSH1 0x1 PUSH1 0xA0 SHL SUB SWAP1 DUP2 AND SWAP1 DUP5 AND SUB PUSH2 0xDB5 JUMPI PUSH1 0x40 MLOAD PUSH3 0x461BCD PUSH1 0xE5 SHL DUP2 MSTORE PUSH1 0x4 ADD PUSH2 0x391 SWAP1 PUSH1 0x20 DUP1 DUP3 MSTORE PUSH1 0x4 SWAP1 DUP3 ADD MSTORE PUSH4 0xC8CAE8D PUSH1 0xE3 SHL PUSH1 0x40 DUP3 ADD MSTORE PUSH1 0x60 ADD SWAP1 JUMP JUMPDEST PUSH1 0x3 SLOAD PUSH1 0x0 JUMPDEST DUP2 DUP2 LT ISZERO PUSH2 0xE46 JUMPI PUSH1 0x0 PUSH1 0x3 DUP3 DUP2 SLOAD DUP2 LT PUSH2 0xDD8 JUMPI PUSH2 0xDD8 PUSH2 0x187F JUMP JUMPDEST PUSH1 0x0 SWAP2 DUP3 MSTORE PUSH1 0x20 SWAP1 SWAP2 KECCAK256 PUSH1 0x5 SWAP1 SWAP2 MUL ADD DUP1 SLOAD SWAP1 SWAP2 POP PUSH1 0x1 PUSH1 0x1 PUSH1 0xA0 SHL SUB SWAP1 DUP2 AND SWAP1 DUP8 AND SUB PUSH2 0xE35 JUMPI PUSH1 0x40 MLOAD PUSH3 0x461BCD PUSH1 0xE5 SHL DUP2 MSTORE PUSH1 0x20 PUSH1 0x4 DUP3 ADD MSTORE PUSH1 0xA PUSH1 0x24 DUP3 ADD MSTORE PUSH10 0x3837B7B6173A37B5B2B7 PUSH1 0xB1 SHL PUSH1 0x44 DUP3 ADD MSTORE PUSH1 0x64 ADD PUSH2 0x391 JUMP JUMPDEST POP PUSH2 0xE3F DUP2 PUSH2 0x18D7 JUMP JUMPDEST SWAP1 POP PUSH2 0xDBB JUMP JUMPDEST POP POP JUMPDEST PUSH2 0xE5D PUSH1 0x1 PUSH1 0x1 PUSH1 0xA0 SHL SUB DUP5 AND DUP3 DUP5 PUSH2 0x1391 JUMP JUMPDEST POP POP POP JUMP JUMPDEST PUSH1 0x3 SLOAD PUSH1 0x0 JUMPDEST DUP2 DUP2 LT ISZERO PUSH2 0xE89 JUMPI PUSH2 0xE79 DUP2 PUSH2 0xB2A JUMP JUMPDEST PUSH2 0xE82 DUP2 PUSH2 0x18D7 JUMP JUMPDEST SWAP1 POP PUSH2 0xE68 JUMP JUMPDEST POP POP JUMP JUMPDEST PUSH1 0x0 SLOAD PUSH1 0x1 PUSH1 0x1 PUSH1 0xA0 SHL SUB AND CALLER EQ PUSH2 0xEB7 JUMPI PUSH1 0x40 MLOAD PUSH3 0x461BCD PUSH1 0xE5 SHL DUP2 MSTORE PUSH1 0x4 ADD PUSH2 0x391 SWAP1 PUSH2 0x1835 JUMP JUMPDEST PUSH1 0x0 DUP1 SLOAD PUSH1 0x1 PUSH1 0x1 PUSH1 0xA0 SHL SUB NOT AND PUSH1 0x1 PUSH1 0x1 PUSH1 0xA0 SHL SUB SWAP3 SWAP1 SWAP3 AND SWAP2 SWAP1 SWAP2 OR SWAP1 SSTORE JUMP JUMPDEST PUSH1 0x0 CALLER SWAP1 POP PUSH1 0x0 PUSH1 0x3 DUP5 DUP2 SLOAD DUP2 LT PUSH2 0xEF3 JUMPI PUSH2 0xEF3 PUSH2 0x187F JUMP JUMPDEST PUSH1 0x0 SWAP2 DUP3 MSTORE PUSH1 0x20 DUP1 DUP4 KECCAK256 DUP8 DUP5 MSTORE PUSH1 0x4 DUP3 MSTORE PUSH1 0x40 DUP1 DUP6 KECCAK256 PUSH1 0x1 PUSH1 0x1 PUSH1 0xA0 SHL SUB DUP9 AND DUP7 MSTORE SWAP1 SWAP3 MSTORE SWAP3 KECCAK256 PUSH1 0x5 SWAP1 SWAP2 MUL SWAP1 SWAP2 ADD SWAP2 POP PUSH2 0xF2D DUP6 PUSH2 0xB2A JUMP JUMPDEST DUP1 SLOAD ISZERO PUSH2 0xFC9 JUMPI PUSH1 0x0 PUSH2 0xF65 DUP3 PUSH1 0x1 ADD SLOAD PUSH2 0x78A PUSH8 0xDE0B6B3A7640000 PUSH2 0x732 DUP8 PUSH1 0x3 ADD SLOAD DUP8 PUSH1 0x0 ADD SLOAD PUSH2 0x12C6 SWAP1 SWAP2 SWAP1 PUSH4 0xFFFFFFFF AND JUMP JUMPDEST SWAP1 POP DUP1 ISZERO PUSH2 0xFC7 JUMPI DUP3 SLOAD PUSH2 0xF83 SWAP1 PUSH1 0x1 PUSH1 0x1 PUSH1 0xA0 SHL SUB AND DUP6 DUP4 PUSH2 0x1391 JUMP JUMPDEST DUP4 PUSH1 0x1 PUSH1 0x1 PUSH1 0xA0 SHL SUB AND PUSH32 0xE2403640BA68FED3A2F88B7557551D1993F84B99BB10FF833F0CF8DB0C5E0486 DUP3 PUSH1 0x40 MLOAD PUSH2 0xFBE SWAP2 DUP2 MSTORE PUSH1 0x20 ADD SWAP1 JUMP JUMPDEST PUSH1 0x40 MLOAD DUP1 SWAP2 SUB SWAP1 LOG2 JUMPDEST POP JUMPDEST DUP4 ISZERO PUSH2 0x10BF JUMPI DUP2 SLOAD PUSH2 0xFE6 SWAP1 PUSH1 0x1 PUSH1 0x1 PUSH1 0xA0 SHL SUB AND DUP5 ADDRESS DUP8 PUSH2 0x13F4 JUMP JUMPDEST PUSH1 0x4 DUP3 ADD SLOAD PUSH2 0xFFFF AND ISZERO PUSH2 0x104C JUMPI PUSH1 0x4 DUP3 ADD SLOAD PUSH1 0x0 SWAP1 PUSH2 0x1013 SWAP1 PUSH2 0x2710 SWAP1 PUSH2 0x732 SWAP1 DUP9 SWAP1 PUSH2 0xFFFF AND PUSH2 0x12C6 JUMP JUMPDEST PUSH1 0x2 SLOAD DUP5 SLOAD SWAP2 SWAP3 POP PUSH2 0x1032 SWAP2 PUSH1 0x1 PUSH1 0x1 PUSH1 0xA0 SHL SUB SWAP1 DUP2 AND SWAP2 AND DUP4 PUSH2 0x1391 JUMP JUMPDEST DUP2 SLOAD PUSH2 0x1044 SWAP1 DUP3 SWAP1 PUSH2 0x78A SWAP1 DUP9 PUSH2 0x12B3 JUMP JUMPDEST DUP3 SSTORE POP PUSH2 0x105B JUMP JUMPDEST DUP1 SLOAD PUSH2 0x1058 SWAP1 DUP6 PUSH2 0x12B3 JUMP JUMPDEST DUP2 SSTORE JUMPDEST PUSH1 0x3 DUP3 ADD SLOAD DUP2 SLOAD PUSH2 0x1079 SWAP2 PUSH8 0xDE0B6B3A7640000 SWAP2 PUSH2 0x732 SWAP2 PUSH2 0x12C6 JUMP JUMPDEST PUSH1 0x1 DUP3 ADD SSTORE PUSH1 0x40 MLOAD DUP5 DUP2 MSTORE DUP6 SWAP1 PUSH1 0x1 PUSH1 0x1 PUSH1 0xA0 SHL SUB DUP6 AND SWAP1 PUSH32 0x90890809C654F11D6E72A28FA60149770A0D11EC6C92319D6CEB2BB0A4EA1A15 SWAP1 PUSH1 0x20 ADD PUSH1 0x40 MLOAD DUP1 SWAP2 SUB SWAP1 LOG3 JUMPDEST POP POP POP POP POP JUMP JUMPDEST PUSH1 0x0 SLOAD PUSH1 0x1 PUSH1 0x1 PUSH1 0xA0 SHL SUB AND CALLER EQ PUSH2 0x10F0 JUMPI PUSH1 0x40 MLOAD PUSH3 0x461BCD PUSH1 0xE5 SHL DUP2 MSTORE PUSH1 0x4 ADD PUSH2 0x391 SWAP1 PUSH2 0x1835 JUMP JUMPDEST PUSH2 0xFFFF DUP2 AND ISZERO PUSH2 0x1150 JUMPI PUSH1 0x40 MLOAD PUSH3 0x461BCD PUSH1 0xE5 SHL DUP2 MSTORE PUSH1 0x20 PUSH1 0x4 DUP3 ADD MSTORE PUSH1 0x25 PUSH1 0x24 DUP3 ADD MSTORE PUSH32 0x7365743A20696E76616C6964206465706F736974206665652062617369732070 PUSH1 0x44 DUP3 ADD MSTORE PUSH5 0x6F696E7473 PUSH1 0xD8 SHL PUSH1 0x64 DUP3 ADD MSTORE PUSH1 0x84 ADD PUSH2 0x391 JUMP JUMPDEST PUSH1 0x0 JUMPDEST PUSH1 0x3 SLOAD DUP2 LT ISZERO PUSH2 0xE89 JUMPI DUP1 PUSH32 0x39F0C3D078AF018954B4FA56832A05A2B511AFAA999B133EA3F1C487C21ED287 PUSH1 0x3 DUP4 DUP2 SLOAD DUP2 LT PUSH2 0x1192 JUMPI PUSH2 0x1192 PUSH2 0x187F JUMP JUMPDEST PUSH1 0x0 SWAP2 DUP3 MSTORE PUSH1 0x20 SWAP1 SWAP2 KECCAK256 PUSH1 0x5 SWAP1 SWAP2 MUL ADD SLOAD PUSH1 0x3 DUP1 SLOAD PUSH1 0x1 PUSH1 0x1 PUSH1 0xA0 SHL SUB SWAP1 SWAP3 AND SWAP2 DUP6 SWAP1 DUP2 LT PUSH2 0x11C3 JUMPI PUSH2 0x11C3 PUSH2 0x187F JUMP JUMPDEST PUSH1 0x0 SWAP2 DUP3 MSTORE PUSH1 0x20 SWAP2 DUP3 SWAP1 KECCAK256 PUSH1 0x1 PUSH1 0x5 SWAP1 SWAP3 MUL ADD ADD SLOAD PUSH1 0x40 DUP1 MLOAD PUSH1 0x1 PUSH1 0x1 PUSH1 0xA0 SHL SUB SWAP1 SWAP5 AND DUP5 MSTORE SWAP2 DUP4 ADD MSTORE PUSH2 0xFFFF DUP7 AND SWAP1 DUP3 ADD MSTORE PUSH1 0x60 ADD PUSH1 0x40 MLOAD DUP1 SWAP2 SUB SWAP1 LOG2 PUSH2 0x120A DUP2 PUSH2 0x18D7 JUMP JUMPDEST SWAP1 POP PUSH2 0x1153 JUMP JUMPDEST PUSH1 0x3 SLOAD PUSH1 0x0 JUMPDEST DUP2 DUP2 LT ISZERO PUSH2 0xE5D JUMPI DUP3 PUSH1 0x1 PUSH1 0x1 PUSH1 0xA0 SHL SUB AND PUSH1 0x3 DUP3 DUP2 SLOAD DUP2 LT PUSH2 0x123C JUMPI PUSH2 0x123C PUSH2 0x187F JUMP JUMPDEST PUSH1 0x0 SWAP2 DUP3 MSTORE PUSH1 0x20 SWAP1 SWAP2 KECCAK256 PUSH1 0x5 SWAP1 SWAP2 MUL ADD SLOAD PUSH1 0x1 PUSH1 0x1 PUSH1 0xA0 SHL SUB AND SUB PUSH2 0x12A3 JUMPI PUSH1 0x40 MLOAD PUSH3 0x461BCD PUSH1 0xE5 SHL DUP2 MSTORE PUSH1 0x20 PUSH1 0x4 DUP3 ADD MSTORE PUSH1 0x1E PUSH1 0x24 DUP3 ADD MSTORE PUSH32 0x64455448526577617264506F6F6C3A206578697374696E6720706F6F6C3F0000 PUSH1 0x44 DUP3 ADD MSTORE PUSH1 0x64 ADD PUSH2 0x391 JUMP JUMPDEST PUSH2 0x12AC DUP2 PUSH2 0x18D7 JUMP JUMPDEST SWAP1 POP PUSH2 0x1217 JUMP JUMPDEST PUSH1 0x0 PUSH2 0x12BF DUP3 DUP5 PUSH2 0x18C4 JUMP JUMPDEST SWAP4 SWAP3 POP POP POP JUMP JUMPDEST PUSH1 0x0 PUSH2 0x12BF DUP3 DUP5 PUSH2 0x18F0 JUMP JUMPDEST PUSH1 0x0 PUSH2 0x12BF DUP3 DUP5 PUSH2 0x190F JUMP JUMPDEST PUSH1 0x0 PUSH2 0x12BF DUP3 DUP5 PUSH2 0x1931 JUMP JUMPDEST PUSH1 0x1 SLOAD PUSH1 0x40 MLOAD PUSH4 0x70A08231 PUSH1 0xE0 SHL DUP2 MSTORE ADDRESS PUSH1 0x4 DUP3 ADD MSTORE PUSH1 0x0 SWAP2 PUSH1 0x1 PUSH1 0x1 PUSH1 0xA0 SHL SUB AND SWAP1 PUSH4 0x70A08231 SWAP1 PUSH1 0x24 ADD PUSH1 0x20 PUSH1 0x40 MLOAD DUP1 DUP4 SUB DUP2 DUP7 GAS STATICCALL ISZERO DUP1 ISZERO PUSH2 0x1333 JUMPI RETURNDATASIZE PUSH1 0x0 DUP1 RETURNDATACOPY RETURNDATASIZE PUSH1 0x0 REVERT JUMPDEST POP POP POP POP PUSH1 0x40 MLOAD RETURNDATASIZE PUSH1 0x1F NOT PUSH1 0x1F DUP3 ADD AND DUP3 ADD DUP1 PUSH1 0x40 MSTORE POP DUP2 ADD SWAP1 PUSH2 0x1357 SWAP2 SWAP1 PUSH2 0x1895 JUMP JUMPDEST SWAP1 POP DUP1 ISZERO PUSH2 0xE5D JUMPI DUP1 DUP3 GT ISZERO PUSH2 0x137E JUMPI PUSH1 0x1 SLOAD PUSH2 0xE5D SWAP1 PUSH1 0x1 PUSH1 0x1 PUSH1 0xA0 SHL SUB AND DUP5 DUP4 PUSH2 0x1391 JUMP JUMPDEST PUSH1 0x1 SLOAD PUSH2 0xE5D SWAP1 PUSH1 0x1 PUSH1 0x1 PUSH1 0xA0 SHL SUB AND DUP5 DUP5 JUMPDEST PUSH1 0x40 MLOAD PUSH1 0x1 PUSH1 0x1 PUSH1 0xA0 SHL SUB DUP4 AND PUSH1 0x24 DUP3 ADD MSTORE PUSH1 0x44 DUP2 ADD DUP3 SWAP1 MSTORE PUSH2 0xE5D SWAP1 DUP5 SWAP1 PUSH4 0xA9059CBB PUSH1 0xE0 SHL SWAP1 PUSH1 0x64 ADD JUMPDEST PUSH1 0x40 DUP1 MLOAD PUSH1 0x1F NOT DUP2 DUP5 SUB ADD DUP2 MSTORE SWAP2 SWAP1 MSTORE PUSH1 0x20 DUP2 ADD DUP1 MLOAD PUSH1 0x1 PUSH1 0x1 PUSH1 0xE0 SHL SUB AND PUSH1 0x1 PUSH1 0x1 PUSH1 0xE0 SHL SUB NOT SWAP1 SWAP4 AND SWAP3 SWAP1 SWAP3 OR SWAP1 SWAP2 MSTORE PUSH2 0x1432 JUMP JUMPDEST PUSH1 0x40 MLOAD PUSH1 0x1 PUSH1 0x1 PUSH1 0xA0 SHL SUB DUP1 DUP6 AND PUSH1 0x24 DUP4 ADD MSTORE DUP4 AND PUSH1 0x44 DUP3 ADD MSTORE PUSH1 0x64 DUP2 ADD DUP3 SWAP1 MSTORE PUSH2 0x142C SWAP1 DUP6 SWAP1 PUSH4 0x23B872DD PUSH1 0xE0 SHL SWAP1 PUSH1 0x84 ADD PUSH2 0x13BD JUMP JUMPDEST POP POP POP POP JUMP JUMPDEST PUSH1 0x0 PUSH2 0x1487 DUP3 PUSH1 0x40 MLOAD DUP1 PUSH1 0x40 ADD PUSH1 0x40 MSTORE DUP1 PUSH1 0x20 DUP2 MSTORE PUSH1 0x20 ADD PUSH32 0x5361666545524332303A206C6F772D6C6576656C2063616C6C206661696C6564 DUP2 MSTORE POP DUP6 PUSH1 0x1 PUSH1 0x1 PUSH1 0xA0 SHL SUB AND PUSH2 0x1504 SWAP1 SWAP3 SWAP2 SWAP1 PUSH4 0xFFFFFFFF AND JUMP JUMPDEST DUP1 MLOAD SWAP1 SWAP2 POP ISZERO PUSH2 0xE5D JUMPI DUP1 DUP1 PUSH1 0x20 ADD SWAP1 MLOAD DUP2 ADD SWAP1 PUSH2 0x14A5 SWAP2 SWAP1 PUSH2 0x1944 JUMP JUMPDEST PUSH2 0xE5D JUMPI PUSH1 0x40 MLOAD PUSH3 0x461BCD PUSH1 0xE5 SHL DUP2 MSTORE PUSH1 0x20 PUSH1 0x4 DUP3 ADD MSTORE PUSH1 0x2A PUSH1 0x24 DUP3 ADD MSTORE PUSH32 0x5361666545524332303A204552433230206F7065726174696F6E20646964206E PUSH1 0x44 DUP3 ADD MSTORE PUSH10 0x1BDD081CDD58D8D95959 PUSH1 0xB2 SHL PUSH1 0x64 DUP3 ADD MSTORE PUSH1 0x84 ADD PUSH2 0x391 JUMP JUMPDEST PUSH1 0x60 PUSH2 0x1513 DUP5 DUP5 PUSH1 0x0 DUP6 PUSH2 0x151B JUMP JUMPDEST SWAP5 SWAP4 POP POP POP POP JUMP JUMPDEST PUSH1 0x60 DUP3 SELFBALANCE LT ISZERO PUSH2 0x157C JUMPI PUSH1 0x40 MLOAD PUSH3 0x461BCD PUSH1 0xE5 SHL DUP2 MSTORE PUSH1 0x20 PUSH1 0x4 DUP3 ADD MSTORE PUSH1 0x26 PUSH1 0x24 DUP3 ADD MSTORE PUSH32 0x416464726573733A20696E73756666696369656E742062616C616E636520666F PUSH1 0x44 DUP3 ADD MSTORE PUSH6 0x1C8818D85B1B PUSH1 0xD2 SHL PUSH1 0x64 DUP3 ADD MSTORE PUSH1 0x84 ADD PUSH2 0x391 JUMP JUMPDEST PUSH1 0x1 PUSH1 0x1 PUSH1 0xA0 SHL SUB DUP6 AND EXTCODESIZE PUSH2 0x15D3 JUMPI PUSH1 0x40 MLOAD PUSH3 0x461BCD PUSH1 0xE5 SHL DUP2 MSTORE PUSH1 0x20 PUSH1 0x4 DUP3 ADD MSTORE PUSH1 0x1D PUSH1 0x24 DUP3 ADD MSTORE PUSH32 0x416464726573733A2063616C6C20746F206E6F6E2D636F6E7472616374000000 PUSH1 0x44 DUP3 ADD MSTORE PUSH1 0x64 ADD PUSH2 0x391 JUMP JUMPDEST PUSH1 0x0 DUP1 DUP7 PUSH1 0x1 PUSH1 0x1 PUSH1 0xA0 SHL SUB AND DUP6 DUP8 PUSH1 0x40 MLOAD PUSH2 0x15EF SWAP2 SWAP1 PUSH2 0x1985 JUMP JUMPDEST PUSH1 0x0 PUSH1 0x40 MLOAD DUP1 DUP4 SUB DUP2 DUP6 DUP8 GAS CALL SWAP3 POP POP POP RETURNDATASIZE DUP1 PUSH1 0x0 DUP2 EQ PUSH2 0x162C JUMPI PUSH1 0x40 MLOAD SWAP2 POP PUSH1 0x1F NOT PUSH1 0x3F RETURNDATASIZE ADD AND DUP3 ADD PUSH1 0x40 MSTORE RETURNDATASIZE DUP3 MSTORE RETURNDATASIZE PUSH1 0x0 PUSH1 0x20 DUP5 ADD RETURNDATACOPY PUSH2 0x1631 JUMP JUMPDEST PUSH1 0x60 SWAP2 POP JUMPDEST POP SWAP2 POP SWAP2 POP PUSH2 0x1641 DUP3 DUP3 DUP7 PUSH2 0x164C JUMP JUMPDEST SWAP8 SWAP7 POP POP POP POP POP POP POP JUMP JUMPDEST PUSH1 0x60 DUP4 ISZERO PUSH2 0x165B JUMPI POP DUP2 PUSH2 0x12BF JUMP JUMPDEST DUP3 MLOAD ISZERO PUSH2 0x166B JUMPI DUP3 MLOAD DUP1 DUP5 PUSH1 0x20 ADD REVERT JUMPDEST DUP2 PUSH1 0x40 MLOAD PUSH3 0x461BCD PUSH1 0xE5 SHL DUP2 MSTORE PUSH1 0x4 ADD PUSH2 0x391 SWAP2 SWAP1 PUSH2 0x19A1 JUMP JUMPDEST PUSH1 0x1 PUSH1 0x1 PUSH1 0xA0 SHL SUB DUP2 AND DUP2 EQ PUSH2 0x169A JUMPI PUSH1 0x0 DUP1 REVERT JUMPDEST POP JUMP JUMPDEST DUP1 ISZERO ISZERO DUP2 EQ PUSH2 0x169A JUMPI PUSH1 0x0 DUP1 REVERT JUMPDEST DUP1 CALLDATALOAD PUSH2 0xFFFF DUP2 AND DUP2 EQ PUSH2 0x16BD JUMPI PUSH1 0x0 DUP1 REVERT JUMPDEST SWAP2 SWAP1 POP JUMP JUMPDEST PUSH1 0x0 DUP1 PUSH1 0x0 DUP1 PUSH1 0x0 PUSH1 0xA0 DUP7 DUP9 SUB SLT ISZERO PUSH2 0x16DA JUMPI PUSH1 0x0 DUP1 REVERT JUMPDEST DUP6 CALLDATALOAD SWAP5 POP PUSH1 0x20 DUP7 ADD CALLDATALOAD PUSH2 0x16EC DUP2 PUSH2 0x1685 JUMP JUMPDEST SWAP4 POP PUSH1 0x40 DUP7 ADD CALLDATALOAD PUSH2 0x16FC DUP2 PUSH2 0x169D JUMP JUMPDEST SWAP3 POP PUSH2 0x170A PUSH1 0x60 DUP8 ADD PUSH2 0x16AB JUMP JUMPDEST SWAP5 SWAP8 SWAP4 SWAP7 POP SWAP2 SWAP5 PUSH1 0x80 ADD CALLDATALOAD SWAP3 SWAP2 POP POP JUMP JUMPDEST PUSH1 0x0 PUSH1 0x20 DUP3 DUP5 SUB SLT ISZERO PUSH2 0x172D JUMPI PUSH1 0x0 DUP1 REVERT JUMPDEST POP CALLDATALOAD SWAP2 SWAP1 POP JUMP JUMPDEST PUSH1 0x0 DUP1 PUSH1 0x40 DUP4 DUP6 SUB SLT ISZERO PUSH2 0x1747 JUMPI PUSH1 0x0 DUP1 REVERT JUMPDEST DUP3 CALLDATALOAD SWAP2 POP PUSH1 0x20 DUP4 ADD CALLDATALOAD PUSH2 0x1759 DUP2 PUSH2 0x1685 JUMP JUMPDEST DUP1 SWAP2 POP POP SWAP3 POP SWAP3 SWAP1 POP JUMP JUMPDEST PUSH1 0x0 DUP1 PUSH1 0x40 DUP4 DUP6 SUB SLT ISZERO PUSH2 0x1777 JUMPI PUSH1 0x0 DUP1 REVERT JUMPDEST POP POP DUP1 CALLDATALOAD SWAP3 PUSH1 0x20 SWAP1 SWAP2 ADD CALLDATALOAD SWAP2 POP JUMP JUMPDEST PUSH1 0x0 DUP1 PUSH1 0x0 PUSH1 0x60 DUP5 DUP7 SUB SLT ISZERO PUSH2 0x179B JUMPI PUSH1 0x0 DUP1 REVERT JUMPDEST DUP4 CALLDATALOAD SWAP3 POP PUSH1 0x20 DUP5 ADD CALLDATALOAD SWAP2 POP PUSH2 0x17B2 PUSH1 0x40 DUP6 ADD PUSH2 0x16AB JUMP JUMPDEST SWAP1 POP SWAP3 POP SWAP3 POP SWAP3 JUMP JUMPDEST PUSH1 0x0 DUP1 PUSH1 0x0 PUSH1 0x60 DUP5 DUP7 SUB SLT ISZERO PUSH2 0x17D0 JUMPI PUSH1 0x0 DUP1 REVERT JUMPDEST DUP4 CALLDATALOAD PUSH2 0x17DB DUP2 PUSH2 0x1685 JUMP JUMPDEST SWAP3 POP PUSH1 0x20 DUP5 ADD CALLDATALOAD SWAP2 POP PUSH1 0x40 DUP5 ADD CALLDATALOAD PUSH2 0x17F2 DUP2 PUSH2 0x1685 JUMP JUMPDEST DUP1 SWAP2 POP POP SWAP3 POP SWAP3 POP SWAP3 JUMP JUMPDEST PUSH1 0x0 PUSH1 0x20 DUP3 DUP5 SUB SLT ISZERO PUSH2 0x180F JUMPI PUSH1 0x0 DUP1 REVERT JUMPDEST DUP2 CALLDATALOAD PUSH2 0x12BF DUP2 PUSH2 0x1685 JUMP JUMPDEST PUSH1 0x0 PUSH1 0x20 DUP3 DUP5 SUB SLT ISZERO PUSH2 0x182C JUMPI PUSH1 0x0 DUP1 REVERT JUMPDEST PUSH2 0x12BF DUP3 PUSH2 0x16AB JUMP JUMPDEST PUSH1 0x20 DUP1 DUP3 MSTORE PUSH1 0x2A SWAP1 DUP3 ADD MSTORE PUSH32 0x64455448526577617264506F6F6C3A2063616C6C6572206973206E6F74207468 PUSH1 0x40 DUP3 ADD MSTORE PUSH10 0x329037B832B930BA37B9 PUSH1 0xB1 SHL PUSH1 0x60 DUP3 ADD MSTORE PUSH1 0x80 ADD SWAP1 JUMP JUMPDEST PUSH4 0x4E487B71 PUSH1 0xE0 SHL PUSH1 0x0 MSTORE PUSH1 0x32 PUSH1 0x4 MSTORE PUSH1 0x24 PUSH1 0x0 REVERT JUMPDEST PUSH1 0x0 PUSH1 0x20 DUP3 DUP5 SUB SLT ISZERO PUSH2 0x18A7 JUMPI PUSH1 0x0 DUP1 REVERT JUMPDEST POP MLOAD SWAP2 SWAP1 POP JUMP JUMPDEST PUSH4 0x4E487B71 PUSH1 0xE0 SHL PUSH1 0x0 MSTORE PUSH1 0x11 PUSH1 0x4 MSTORE PUSH1 0x24 PUSH1 0x0 REVERT JUMPDEST DUP1 DUP3 ADD DUP1 DUP3 GT ISZERO PUSH2 0x797 JUMPI PUSH2 0x797 PUSH2 0x18AE JUMP JUMPDEST PUSH1 0x0 PUSH1 0x1 DUP3 ADD PUSH2 0x18E9 JUMPI PUSH2 0x18E9 PUSH2 0x18AE JUMP JUMPDEST POP PUSH1 0x1 ADD SWAP1 JUMP JUMPDEST PUSH1 0x0 DUP2 PUSH1 0x0 NOT DIV DUP4 GT DUP3 ISZERO ISZERO AND ISZERO PUSH2 0x190A JUMPI PUSH2 0x190A PUSH2 0x18AE JUMP JUMPDEST POP MUL SWAP1 JUMP JUMPDEST PUSH1 0x0 DUP3 PUSH2 0x192C JUMPI PUSH4 0x4E487B71 PUSH1 0xE0 SHL PUSH1 0x0 MSTORE PUSH1 0x12 PUSH1 0x4 MSTORE PUSH1 0x24 PUSH1 0x0 REVERT JUMPDEST POP DIV SWAP1 JUMP JUMPDEST DUP2 DUP2 SUB DUP2 DUP2 GT ISZERO PUSH2 0x797 JUMPI PUSH2 0x797 PUSH2 0x18AE JUMP JUMPDEST PUSH1 0x0 PUSH1 0x20 DUP3 DUP5 SUB SLT ISZERO PUSH2 0x1956 JUMPI PUSH1 0x0 DUP1 REVERT JUMPDEST DUP2 MLOAD PUSH2 0x12BF DUP2 PUSH2 0x169D JUMP JUMPDEST PUSH1 0x0 JUMPDEST DUP4 DUP2 LT ISZERO PUSH2 0x197C JUMPI DUP2 DUP2 ADD MLOAD DUP4 DUP3 ADD MSTORE PUSH1 0x20 ADD PUSH2 0x1964 JUMP JUMPDEST POP POP PUSH1 0x0 SWAP2 ADD MSTORE JUMP JUMPDEST PUSH1 0x0 DUP3 MLOAD PUSH2 0x1997 DUP2 DUP5 PUSH1 0x20 DUP8 ADD PUSH2 0x1961 JUMP JUMPDEST SWAP2 SWAP1 SWAP2 ADD SWAP3 SWAP2 POP POP JUMP JUMPDEST PUSH1 0x20 DUP2 MSTORE PUSH1 0x0 DUP3 MLOAD DUP1 PUSH1 0x20 DUP5 ADD MSTORE PUSH2 0x19C0 DUP2 PUSH1 0x40 DUP6 ADD PUSH1 0x20 DUP8 ADD PUSH2 0x1961 JUMP JUMPDEST PUSH1 0x1F ADD PUSH1 0x1F NOT AND SWAP2 SWAP1 SWAP2 ADD PUSH1 0x40 ADD SWAP3 SWAP2 POP POP JUMP INVALID LOG2 PUSH5 0x6970667358 0x22 SLT KECCAK256 0xB3 SSTORE 0x1E SWAP4 0xFC 0x24 LT 0xD5 PUSH16 0xDE2104B535338AE1A0C9087C905087B6 0xAD 0xEA SWAP5 ADDMOD 0x4D 0xB3 DUP14 PUSH5 0x736F6C6343 STOP ADDMOD LT STOP CALLER "
				},
				"gasEstimates": {
					"creation": {
						"codeDepositCost": "1333200",
						"executionCost": "infinite",
						"totalCost": "infinite"
					},
					"external": {
						"TOTAL_REWARDS()": "230",
						"add(uint256,address,bool,uint16,uint256)": "infinite",
						"deposit(uint256,uint256)": "infinite",
						"deth()": "2403",
						"dethPerSecond()": "2372",
						"emergencyWithdraw(uint256)": "infinite",
						"feeAddress()": "2404",
						"getGeneratedReward(uint256,uint256)": "infinite",
						"governanceRecoverUnsupported(address,uint256,address)": "infinite",
						"massUpdatePools()": "infinite",
						"operator()": "2382",
						"pendingdETH(uint256,address)": "infinite",
						"poolEndTime()": "2395",
						"poolInfo(uint256)": "13293",
						"poolStartTime()": "2351",
						"runningTime()": "2306",
						"set(uint256,uint256,uint16)": "infinite",
						"setGlobalDepositFee(uint16)": "infinite",
						"setOperator(address)": "26749",
						"totalAllocPoint()": "2374",
						"updatePool(uint256)": "infinite",
						"userInfo(uint256,address)": "4888",
						"withdraw(uint256,uint256)": "infinite"
					},
					"internal": {
						"checkPoolDuplicate(contract IERC20)": "infinite",
						"safedETHTransfer(address,uint256)": "infinite"
					}
				},
				"methodIdentifiers": {
					"TOTAL_REWARDS()": "09cf6091",
					"add(uint256,address,bool,uint16,uint256)": "08bee642",
					"deposit(uint256,uint256)": "e2bbb158",
					"deth()": "d18ccd89",
					"dethPerSecond()": "dc9e5dea",
					"emergencyWithdraw(uint256)": "5312ea8e",
					"feeAddress()": "41275358",
					"getGeneratedReward(uint256,uint256)": "231f0c6a",
					"governanceRecoverUnsupported(address,uint256,address)": "54575af4",
					"massUpdatePools()": "630b5ba1",
					"operator()": "570ca735",
					"pendingdETH(uint256,address)": "1e8fa23a",
					"poolEndTime()": "6e271dd5",
					"poolInfo(uint256)": "1526fe27",
					"poolStartTime()": "5f96dc11",
					"runningTime()": "943f013d",
					"set(uint256,uint256,uint16)": "24bcb38c",
					"setGlobalDepositFee(uint16)": "ecb1ab54",
					"setOperator(address)": "b3ab15fb",
					"totalAllocPoint()": "17caf6f1",
					"updatePool(uint256)": "51eb05a6",
					"userInfo(uint256,address)": "93f1a40b",
					"withdraw(uint256,uint256)": "441a3e70"
				}
			},
			"storageLayout": {
				"storage": [
					{
						"astId": 1018,
						"contract": "contracts/dETHRewardsPools.sol:dETHRewardPools",
						"label": "operator",
						"offset": 0,
						"slot": "0",
						"type": "t_address"
					},
					{
						"astId": 1040,
						"contract": "contracts/dETHRewardsPools.sol:dETHRewardPools",
						"label": "deth",
						"offset": 0,
						"slot": "1",
						"type": "t_contract(IERC20)80"
					},
					{
						"astId": 1042,
						"contract": "contracts/dETHRewardsPools.sol:dETHRewardPools",
						"label": "feeAddress",
						"offset": 0,
						"slot": "2",
						"type": "t_address"
					},
					{
						"astId": 1046,
						"contract": "contracts/dETHRewardsPools.sol:dETHRewardPools",
						"label": "poolInfo",
						"offset": 0,
						"slot": "3",
						"type": "t_array(t_struct(PoolInfo)1037_storage)dyn_storage"
					},
					{
						"astId": 1053,
						"contract": "contracts/dETHRewardsPools.sol:dETHRewardPools",
						"label": "userInfo",
						"offset": 0,
						"slot": "4",
						"type": "t_mapping(t_uint256,t_mapping(t_address,t_struct(UserInfo)1023_storage))"
					},
					{
						"astId": 1056,
						"contract": "contracts/dETHRewardsPools.sol:dETHRewardPools",
						"label": "totalAllocPoint",
						"offset": 0,
						"slot": "5",
						"type": "t_uint256"
					},
					{
						"astId": 1058,
						"contract": "contracts/dETHRewardsPools.sol:dETHRewardPools",
						"label": "poolStartTime",
						"offset": 0,
						"slot": "6",
						"type": "t_uint256"
					},
					{
						"astId": 1060,
						"contract": "contracts/dETHRewardsPools.sol:dETHRewardPools",
						"label": "poolEndTime",
						"offset": 0,
						"slot": "7",
						"type": "t_uint256"
					},
					{
						"astId": 1063,
						"contract": "contracts/dETHRewardsPools.sol:dETHRewardPools",
						"label": "dethPerSecond",
						"offset": 0,
						"slot": "8",
						"type": "t_uint256"
					},
					{
						"astId": 1066,
						"contract": "contracts/dETHRewardsPools.sol:dETHRewardPools",
						"label": "runningTime",
						"offset": 0,
						"slot": "9",
						"type": "t_uint256"
					},
					{
						"astId": 1071,
						"contract": "contracts/dETHRewardsPools.sol:dETHRewardPools",
						"label": "depositFeeBP",
						"offset": 0,
						"slot": "10",
						"type": "t_uint16"
					}
				],
				"types": {
					"t_address": {
						"encoding": "inplace",
						"label": "address",
						"numberOfBytes": "20"
					},
					"t_array(t_struct(PoolInfo)1037_storage)dyn_storage": {
						"base": "t_struct(PoolInfo)1037_storage",
						"encoding": "dynamic_array",
						"label": "struct dETHRewardPools.PoolInfo[]",
						"numberOfBytes": "32"
					},
					"t_bool": {
						"encoding": "inplace",
						"label": "bool",
						"numberOfBytes": "1"
					},
					"t_contract(IERC20)80": {
						"encoding": "inplace",
						"label": "contract IERC20",
						"numberOfBytes": "20"
					},
					"t_mapping(t_address,t_struct(UserInfo)1023_storage)": {
						"encoding": "mapping",
						"key": "t_address",
						"label": "mapping(address => struct dETHRewardPools.UserInfo)",
						"numberOfBytes": "32",
						"value": "t_struct(UserInfo)1023_storage"
					},
					"t_mapping(t_uint256,t_mapping(t_address,t_struct(UserInfo)1023_storage))": {
						"encoding": "mapping",
						"key": "t_uint256",
						"label": "mapping(uint256 => mapping(address => struct dETHRewardPools.UserInfo))",
						"numberOfBytes": "32",
						"value": "t_mapping(t_address,t_struct(UserInfo)1023_storage)"
					},
					"t_struct(PoolInfo)1037_storage": {
						"encoding": "inplace",
						"label": "struct dETHRewardPools.PoolInfo",
						"members": [
							{
								"astId": 1026,
								"contract": "contracts/dETHRewardsPools.sol:dETHRewardPools",
								"label": "token",
								"offset": 0,
								"slot": "0",
								"type": "t_contract(IERC20)80"
							},
							{
								"astId": 1028,
								"contract": "contracts/dETHRewardsPools.sol:dETHRewardPools",
								"label": "allocPoint",
								"offset": 0,
								"slot": "1",
								"type": "t_uint256"
							},
							{
								"astId": 1030,
								"contract": "contracts/dETHRewardsPools.sol:dETHRewardPools",
								"label": "lastRewardTime",
								"offset": 0,
								"slot": "2",
								"type": "t_uint256"
							},
							{
								"astId": 1032,
								"contract": "contracts/dETHRewardsPools.sol:dETHRewardPools",
								"label": "accDETHPerShare",
								"offset": 0,
								"slot": "3",
								"type": "t_uint256"
							},
							{
								"astId": 1034,
								"contract": "contracts/dETHRewardsPools.sol:dETHRewardPools",
								"label": "depositFeeBP",
								"offset": 0,
								"slot": "4",
								"type": "t_uint16"
							},
							{
								"astId": 1036,
								"contract": "contracts/dETHRewardsPools.sol:dETHRewardPools",
								"label": "isStarted",
								"offset": 2,
								"slot": "4",
								"type": "t_bool"
							}
						],
						"numberOfBytes": "160"
					},
					"t_struct(UserInfo)1023_storage": {
						"encoding": "inplace",
						"label": "struct dETHRewardPools.UserInfo",
						"members": [
							{
								"astId": 1020,
								"contract": "contracts/dETHRewardsPools.sol:dETHRewardPools",
								"label": "amount",
								"offset": 0,
								"slot": "0",
								"type": "t_uint256"
							},
							{
								"astId": 1022,
								"contract": "contracts/dETHRewardsPools.sol:dETHRewardPools",
								"label": "rewardDebt",
								"offset": 0,
								"slot": "1",
								"type": "t_uint256"
							}
						],
						"numberOfBytes": "64"
					},
					"t_uint16": {
						"encoding": "inplace",
						"label": "uint16",
						"numberOfBytes": "2"
					},
					"t_uint256": {
						"encoding": "inplace",
						"label": "uint256",
						"numberOfBytes": "32"
					}
				}
			},
			"userdoc": {
				"kind": "user",
				"methods": {},
				"version": 1
			}
		}
	}
}