{
	"contracts/Burna.sol": {
		"Burna": {
			"abi": [
				{
					"inputs": [
						{
							"internalType": "address",
							"name": "_deth",
							"type": "address"
						},
						{
							"internalType": "uint256",
							"name": "_startTime",
							"type": "uint256"
						}
					],
					"stateMutability": "nonpayable",
					"type": "constructor"
				},
				{
					"anonymous": false,
					"inputs": [
						{
							"indexed": false,
							"internalType": "uint256",
							"name": "_amount",
							"type": "uint256"
						},
						{
							"indexed": false,
							"internalType": "uint256",
							"name": "_time",
							"type": "uint256"
						}
					],
					"name": "BurnerFunded",
					"type": "event"
				},
				{
					"anonymous": false,
					"inputs": [
						{
							"indexed": true,
							"internalType": "address",
							"name": "previousOwner",
							"type": "address"
						},
						{
							"indexed": true,
							"internalType": "address",
							"name": "newOwner",
							"type": "address"
						}
					],
					"name": "OwnershipTransferred",
					"type": "event"
				},
				{
					"anonymous": false,
					"inputs": [
						{
							"indexed": false,
							"internalType": "uint256",
							"name": "_amount",
							"type": "uint256"
						},
						{
							"indexed": false,
							"internalType": "uint256",
							"name": "_time",
							"type": "uint256"
						}
					],
					"name": "dethBurned",
					"type": "event"
				},
				{
					"inputs": [],
					"name": "burn",
					"outputs": [],
					"stateMutability": "nonpayable",
					"type": "function"
				},
				{
					"inputs": [],
					"name": "deadAddress",
					"outputs": [
						{
							"internalType": "address",
							"name": "",
							"type": "address"
						}
					],
					"stateMutability": "view",
					"type": "function"
				},
				{
					"inputs": [],
					"name": "dethAddress",
					"outputs": [
						{
							"internalType": "address",
							"name": "",
							"type": "address"
						}
					],
					"stateMutability": "view",
					"type": "function"
				},
				{
					"inputs": [
						{
							"internalType": "uint256",
							"name": "_amount",
							"type": "uint256"
						}
					],
					"name": "fund",
					"outputs": [],
					"stateMutability": "payable",
					"type": "function"
				},
				{
					"inputs": [],
					"name": "fundingAmount",
					"outputs": [
						{
							"internalType": "uint256",
							"name": "",
							"type": "uint256"
						}
					],
					"stateMutability": "view",
					"type": "function"
				},
				{
					"inputs": [],
					"name": "getDeadAddress",
					"outputs": [
						{
							"internalType": "address",
							"name": "",
							"type": "address"
						}
					],
					"stateMutability": "view",
					"type": "function"
				},
				{
					"inputs": [],
					"name": "getDethAddress",
					"outputs": [
						{
							"internalType": "address",
							"name": "",
							"type": "address"
						}
					],
					"stateMutability": "view",
					"type": "function"
				},
				{
					"inputs": [],
					"name": "getIsFunded",
					"outputs": [
						{
							"internalType": "bool",
							"name": "",
							"type": "bool"
						}
					],
					"stateMutability": "view",
					"type": "function"
				},
				{
					"inputs": [],
					"name": "getStartTime",
					"outputs": [
						{
							"internalType": "uint256",
							"name": "",
							"type": "uint256"
						}
					],
					"stateMutability": "view",
					"type": "function"
				},
				{
					"inputs": [],
					"name": "getSupply",
					"outputs": [
						{
							"internalType": "uint256",
							"name": "",
							"type": "uint256"
						}
					],
					"stateMutability": "view",
					"type": "function"
				},
				{
					"inputs": [],
					"name": "getTotalBurned",
					"outputs": [
						{
							"internalType": "uint256",
							"name": "",
							"type": "uint256"
						}
					],
					"stateMutability": "view",
					"type": "function"
				},
				{
					"inputs": [],
					"name": "isFunded",
					"outputs": [
						{
							"internalType": "bool",
							"name": "",
							"type": "bool"
						}
					],
					"stateMutability": "view",
					"type": "function"
				},
				{
					"inputs": [],
					"name": "lastTimeBurned",
					"outputs": [
						{
							"internalType": "uint256",
							"name": "",
							"type": "uint256"
						}
					],
					"stateMutability": "view",
					"type": "function"
				},
				{
					"inputs": [],
					"name": "owner",
					"outputs": [
						{
							"internalType": "address",
							"name": "",
							"type": "address"
						}
					],
					"stateMutability": "view",
					"type": "function"
				},
				{
					"inputs": [],
					"name": "renounceOwnership",
					"outputs": [],
					"stateMutability": "nonpayable",
					"type": "function"
				},
				{
					"inputs": [],
					"name": "startTime",
					"outputs": [
						{
							"internalType": "uint256",
							"name": "",
							"type": "uint256"
						}
					],
					"stateMutability": "view",
					"type": "function"
				},
				{
					"inputs": [],
					"name": "supply",
					"outputs": [
						{
							"internalType": "uint256",
							"name": "",
							"type": "uint256"
						}
					],
					"stateMutability": "view",
					"type": "function"
				},
				{
					"inputs": [],
					"name": "totalBurned",
					"outputs": [
						{
							"internalType": "uint256",
							"name": "",
							"type": "uint256"
						}
					],
					"stateMutability": "view",
					"type": "function"
				},
				{
					"inputs": [
						{
							"internalType": "address",
							"name": "newOwner",
							"type": "address"
						}
					],
					"name": "transferOwnership",
					"outputs": [],
					"stateMutability": "nonpayable",
					"type": "function"
				}
			],
			"devdoc": {
				"kind": "dev",
				"methods": {
					"owner()": {
						"details": "Returns the address of the current owner."
					},
					"renounceOwnership()": {
						"details": "Leaves the contract without owner. It will not be possible to call `onlyOwner` functions anymore. Can only be called by the current owner. NOTE: Renouncing ownership will leave the contract without an owner, thereby removing any functionality that is only available to the owner."
					},
					"transferOwnership(address)": {
						"details": "Transfers ownership of the contract to a new account (`newOwner`). Can only be called by the current owner."
					}
				},
				"version": 1
			},
			"evm": {
				"assembly": "    /* \"contracts/Burna.sol\":364:2748  contract Burna is Ownable {\r... */\n  mstore(0x40, 0xa0)\n    /* \"contracts/Burna.sol\":503:545  0x000000000000000000000000000000000000dEaD */\n  0xdead\n    /* \"contracts/Burna.sol\":464:545  address public immutable deadAddress = 0x000000000000000000000000000000000000dEaD */\n  0xffffffffffffffffffffffffffffffffffffffff\n  and\n  0x80\n  swap1\n  0xffffffffffffffffffffffffffffffffffffffff\n  and\n  0x60\n  shl\n  dup2\n  mstore\n  pop\n    /* \"contracts/Burna.sol\":610:615  false */\n  0x00\n    /* \"contracts/Burna.sol\":587:615  bool public isFunded = false */\n  0x01\n  exp(0x0100, 0x14)\n  dup2\n  sload\n  dup2\n  0xff\n  mul\n  not\n  and\n  swap1\n  dup4\n  iszero\n  iszero\n  mul\n  or\n  swap1\n  sstore\n  pop\n    /* \"contracts/Burna.sol\":658:659  0 */\n  0x00\n    /* \"contracts/Burna.sol\":627:659  uint256 public fundingAmount = 0 */\n  0x02\n  sstore\n    /* \"contracts/Burna.sol\":757:758  0 */\n  0x00\n    /* \"contracts/Burna.sol\":725:758  uint256 public lastTimeBurned = 0 */\n  0x05\n  sstore\n    /* \"contracts/Burna.sol\":794:795  0 */\n  0x00\n    /* \"contracts/Burna.sol\":765:795  uint256 public totalBurned = 0 */\n  0x06\n  sstore\n    /* \"contracts/Burna.sol\":918:1043  constructor(address _deth, uint256 _startTime) public {\r... */\n  callvalue\n  dup1\n  iszero\n  tag_1\n  jumpi\n  0x00\n  dup1\n  revert\ntag_1:\n  pop\n  mload(0x40)\n  sub(codesize, bytecodeSize)\n  dup1\n  bytecodeSize\n  dup4\n  codecopy\n  dup2\n  dup2\n  add\n  0x40\n  mstore\n  0x40\n  dup2\n  lt\n  iszero\n  tag_2\n  jumpi\n  0x00\n  dup1\n  revert\ntag_2:\n  dup2\n  add\n  swap1\n  dup1\n  dup1\n  mload\n  swap1\n  0x20\n  add\n  swap1\n  swap3\n  swap2\n  swap1\n  dup1\n  mload\n  swap1\n  0x20\n  add\n  swap1\n  swap3\n  swap2\n  swap1\n  pop\n  pop\n  pop\n    /* \"contracts/libs/Ownable.sol\":888:905  address msgSender */\n  0x00\n    /* \"contracts/libs/Ownable.sol\":908:920  _msgSender() */\n  tag_6\n    /* \"contracts/libs/Ownable.sol\":908:918  _msgSender */\n  shl(0x20, tag_7)\n    /* \"contracts/libs/Ownable.sol\":908:920  _msgSender() */\n  0x20\n  shr\n  jump\t// in\ntag_6:\n    /* \"contracts/libs/Ownable.sol\":888:920  address msgSender = _msgSender() */\n  swap1\n  pop\n    /* \"contracts/libs/Ownable.sol\":940:949  msgSender */\n  dup1\n    /* \"contracts/libs/Ownable.sol\":931:937  _owner */\n  0x00\n  dup1\n    /* \"contracts/libs/Ownable.sol\":931:949  _owner = msgSender */\n  0x0100\n  exp\n  dup2\n  sload\n  dup2\n  0xffffffffffffffffffffffffffffffffffffffff\n  mul\n  not\n  and\n  swap1\n  dup4\n  0xffffffffffffffffffffffffffffffffffffffff\n  and\n  mul\n  or\n  swap1\n  sstore\n  pop\n    /* \"contracts/libs/Ownable.sol\":998:1007  msgSender */\n  dup1\n    /* \"contracts/libs/Ownable.sol\":965:1008  OwnershipTransferred(address(0), msgSender) */\n  0xffffffffffffffffffffffffffffffffffffffff\n  and\n    /* \"contracts/libs/Ownable.sol\":994:995  0 */\n  0x00\n    /* \"contracts/libs/Ownable.sol\":965:1008  OwnershipTransferred(address(0), msgSender) */\n  0xffffffffffffffffffffffffffffffffffffffff\n  and\n  0x8be0079c531659141344cd1fd0a4f28419497f9722a3daafe3b4186f6b6457e0\n  mload(0x40)\n  mload(0x40)\n  dup1\n  swap2\n  sub\n  swap1\n  log3\n    /* \"contracts/libs/Ownable.sol\":853:1016  constructor () internal {\r... */\n  pop\n    /* \"contracts/Burna.sol\":997:1002  _deth */\n  dup2\n    /* \"contracts/Burna.sol\":983:994  dethAddress */\n  0x01\n  0x00\n    /* \"contracts/Burna.sol\":983:1002  dethAddress = _deth */\n  0x0100\n  exp\n  dup2\n  sload\n  dup2\n  0xffffffffffffffffffffffffffffffffffffffff\n  mul\n  not\n  and\n  swap1\n  dup4\n  0xffffffffffffffffffffffffffffffffffffffff\n  and\n  mul\n  or\n  swap1\n  sstore\n  pop\n    /* \"contracts/Burna.sol\":1025:1035  _startTime */\n  dup1\n    /* \"contracts/Burna.sol\":1013:1022  startTime */\n  0x04\n    /* \"contracts/Burna.sol\":1013:1035  startTime = _startTime */\n  dup2\n  swap1\n  sstore\n  pop\n    /* \"contracts/Burna.sol\":918:1043  constructor(address _deth, uint256 _startTime) public {\r... */\n  pop\n  pop\n    /* \"contracts/Burna.sol\":364:2748  contract Burna is Ownable {\r... */\n  jump(tag_9)\n    /* \"contracts/libs/Context.sol\":607:713  function _msgSender() internal view virtual returns (address payable) {\r... */\ntag_7:\n    /* \"contracts/libs/Context.sol\":660:675  address payable */\n  0x00\n    /* \"contracts/libs/Context.sol\":695:705  msg.sender */\n  caller\n    /* \"contracts/libs/Context.sol\":688:705  return msg.sender */\n  swap1\n  pop\n    /* \"contracts/libs/Context.sol\":607:713  function _msgSender() internal view virtual returns (address payable) {\r... */\n  swap1\n  jump\t// out\n    /* \"contracts/Burna.sol\":364:2748  contract Burna is Ownable {\r... */\ntag_9:\n  shr(0x60, mload(0x80))\n  codecopy(0x00, dataOffset(sub_0), dataSize(sub_0))\n  assignImmutable(\"0x277ab82e5a4641341820a4a2933a62c1de997e42e92548657ae21b3728d580fe\")\n  return(0x00, dataSize(sub_0))\nstop\n\nsub_0: assembly {\n        /* \"contracts/Burna.sol\":364:2748  contract Burna is Ownable {\r... */\n      mstore(0x40, 0x80)\n      jumpi(tag_1, lt(calldatasize, 0x04))\n      shr(0xe0, calldataload(0x00))\n      dup1\n      0x8da5cb5b\n      gt\n      tag_21\n      jumpi\n      dup1\n      0xca1d209d\n      gt\n      tag_22\n      jumpi\n      dup1\n      0xca1d209d\n      eq\n      tag_16\n      jumpi\n      dup1\n      0xcd066e45\n      eq\n      tag_17\n      jumpi\n      dup1\n      0xd89135cd\n      eq\n      tag_18\n      jumpi\n      dup1\n      0xf0f2d413\n      eq\n      tag_19\n      jumpi\n      dup1\n      0xf2fde38b\n      eq\n      tag_20\n      jumpi\n      jump(tag_1)\n    tag_22:\n      dup1\n      0x8da5cb5b\n      eq\n      tag_11\n      jumpi\n      dup1\n      0x9020e645\n      eq\n      tag_12\n      jumpi\n      dup1\n      0xb0feb130\n      eq\n      tag_13\n      jumpi\n      dup1\n      0xb55cd04b\n      eq\n      tag_14\n      jumpi\n      dup1\n      0xc828371e\n      eq\n      tag_15\n      jumpi\n      jump(tag_1)\n    tag_21:\n      dup1\n      0x44df8e70\n      gt\n      tag_23\n      jumpi\n      dup1\n      0x44df8e70\n      eq\n      tag_6\n      jumpi\n      dup1\n      0x6c9c2faf\n      eq\n      tag_7\n      jumpi\n      dup1\n      0x715018a6\n      eq\n      tag_8\n      jumpi\n      dup1\n      0x78e97925\n      eq\n      tag_9\n      jumpi\n      dup1\n      0x7c654303\n      eq\n      tag_10\n      jumpi\n      jump(tag_1)\n    tag_23:\n      dup1\n      0x047fc9aa\n      eq\n      tag_2\n      jumpi\n      dup1\n      0x04a79c97\n      eq\n      tag_3\n      jumpi\n      dup1\n      0x27c8f835\n      eq\n      tag_4\n      jumpi\n      dup1\n      0x3d4b5cc6\n      eq\n      tag_5\n      jumpi\n    tag_1:\n      0x00\n      dup1\n      revert\n        /* \"contracts/Burna.sol\":666:687  uint256 public supply */\n    tag_2:\n      callvalue\n      dup1\n      iszero\n      tag_24\n      jumpi\n      0x00\n      dup1\n      revert\n    tag_24:\n      pop\n      tag_25\n      tag_26\n      jump\t// in\n    tag_25:\n      mload(0x40)\n      dup1\n      dup3\n      dup2\n      mstore\n      0x20\n      add\n      swap2\n      pop\n      pop\n      mload(0x40)\n      dup1\n      swap2\n      sub\n      swap1\n      return\n        /* \"contracts/Burna.sol\":627:659  uint256 public fundingAmount = 0 */\n    tag_3:\n      callvalue\n      dup1\n      iszero\n      tag_27\n      jumpi\n      0x00\n      dup1\n      revert\n    tag_27:\n      pop\n      tag_28\n      tag_29\n      jump\t// in\n    tag_28:\n      mload(0x40)\n      dup1\n      dup3\n      dup2\n      mstore\n      0x20\n      add\n      swap2\n      pop\n      pop\n      mload(0x40)\n      dup1\n      swap2\n      sub\n      swap1\n      return\n        /* \"contracts/Burna.sol\":464:545  address public immutable deadAddress = 0x000000000000000000000000000000000000dEaD */\n    tag_4:\n      callvalue\n      dup1\n      iszero\n      tag_30\n      jumpi\n      0x00\n      dup1\n      revert\n    tag_30:\n      pop\n      tag_31\n      tag_32\n      jump\t// in\n    tag_31:\n      mload(0x40)\n      dup1\n      dup3\n      0xffffffffffffffffffffffffffffffffffffffff\n      and\n      dup2\n      mstore\n      0x20\n      add\n      swap2\n      pop\n      pop\n      mload(0x40)\n      dup1\n      swap2\n      sub\n      swap1\n      return\n        /* \"contracts/Burna.sol\":725:758  uint256 public lastTimeBurned = 0 */\n    tag_5:\n      callvalue\n      dup1\n      iszero\n      tag_33\n      jumpi\n      0x00\n      dup1\n      revert\n    tag_33:\n      pop\n      tag_34\n      tag_35\n      jump\t// in\n    tag_34:\n      mload(0x40)\n      dup1\n      dup3\n      dup2\n      mstore\n      0x20\n      add\n      swap2\n      pop\n      pop\n      mload(0x40)\n      dup1\n      swap2\n      sub\n      swap1\n      return\n        /* \"contracts/Burna.sol\":2235:2743  function burn() public {\r... */\n    tag_6:\n      callvalue\n      dup1\n      iszero\n      tag_36\n      jumpi\n      0x00\n      dup1\n      revert\n    tag_36:\n      pop\n      tag_37\n      tag_38\n      jump\t// in\n    tag_37:\n      stop\n        /* \"contracts/Burna.sol\":1208:1347  function getSupply() public view returns (uint256) {\r... */\n    tag_7:\n      callvalue\n      dup1\n      iszero\n      tag_39\n      jumpi\n      0x00\n      dup1\n      revert\n    tag_39:\n      pop\n      tag_40\n      tag_41\n      jump\t// in\n    tag_40:\n      mload(0x40)\n      dup1\n      dup3\n      dup2\n      mstore\n      0x20\n      add\n      swap2\n      pop\n      pop\n      mload(0x40)\n      dup1\n      swap2\n      sub\n      swap1\n      return\n        /* \"contracts/libs/Ownable.sol\":1739:1887  function renounceOwnership() public virtual onlyOwner {\r... */\n    tag_8:\n      callvalue\n      dup1\n      iszero\n      tag_42\n      jumpi\n      0x00\n      dup1\n      revert\n    tag_42:\n      pop\n      tag_43\n      tag_44\n      jump\t// in\n    tag_43:\n      stop\n        /* \"contracts/Burna.sol\":694:718  uint256 public startTime */\n    tag_9:\n      callvalue\n      dup1\n      iszero\n      tag_45\n      jumpi\n      0x00\n      dup1\n      revert\n    tag_45:\n      pop\n      tag_46\n      tag_47\n      jump\t// in\n    tag_46:\n      mload(0x40)\n      dup1\n      dup3\n      dup2\n      mstore\n      0x20\n      add\n      swap2\n      pop\n      pop\n      mload(0x40)\n      dup1\n      swap2\n      sub\n      swap1\n      return\n        /* \"contracts/Burna.sol\":587:615  bool public isFunded = false */\n    tag_10:\n      callvalue\n      dup1\n      iszero\n      tag_48\n      jumpi\n      0x00\n      dup1\n      revert\n    tag_48:\n      pop\n      tag_49\n      tag_50\n      jump\t// in\n    tag_49:\n      mload(0x40)\n      dup1\n      dup3\n      iszero\n      iszero\n      dup2\n      mstore\n      0x20\n      add\n      swap2\n      pop\n      pop\n      mload(0x40)\n      dup1\n      swap2\n      sub\n      swap1\n      return\n        /* \"contracts/libs/Ownable.sol\":1097:1176  function owner() public view returns (address) {\r... */\n    tag_11:\n      callvalue\n      dup1\n      iszero\n      tag_51\n      jumpi\n      0x00\n      dup1\n      revert\n    tag_51:\n      pop\n      tag_52\n      tag_53\n      jump\t// in\n    tag_52:\n      mload(0x40)\n      dup1\n      dup3\n      0xffffffffffffffffffffffffffffffffffffffff\n      and\n      dup2\n      mstore\n      0x20\n      add\n      swap2\n      pop\n      pop\n      mload(0x40)\n      dup1\n      swap2\n      sub\n      swap1\n      return\n        /* \"contracts/Burna.sol\":552:578  address public dethAddress */\n    tag_12:\n      callvalue\n      dup1\n      iszero\n      tag_54\n      jumpi\n      0x00\n      dup1\n      revert\n    tag_54:\n      pop\n      tag_55\n      tag_56\n      jump\t// in\n    tag_55:\n      mload(0x40)\n      dup1\n      dup3\n      0xffffffffffffffffffffffffffffffffffffffff\n      and\n      dup2\n      mstore\n      0x20\n      add\n      swap2\n      pop\n      pop\n      mload(0x40)\n      dup1\n      swap2\n      sub\n      swap1\n      return\n        /* \"contracts/Burna.sol\":1658:1751  function getDeadAddress() public view returns (address) {\r... */\n    tag_13:\n      callvalue\n      dup1\n      iszero\n      tag_57\n      jumpi\n      0x00\n      dup1\n      revert\n    tag_57:\n      pop\n      tag_58\n      tag_59\n      jump\t// in\n    tag_58:\n      mload(0x40)\n      dup1\n      dup3\n      0xffffffffffffffffffffffffffffffffffffffff\n      and\n      dup2\n      mstore\n      0x20\n      add\n      swap2\n      pop\n      pop\n      mload(0x40)\n      dup1\n      swap2\n      sub\n      swap1\n      return\n        /* \"contracts/Burna.sol\":1051:1200  function getTotalBurned() public view returns (uint256) {\r... */\n    tag_14:\n      callvalue\n      dup1\n      iszero\n      tag_60\n      jumpi\n      0x00\n      dup1\n      revert\n    tag_60:\n      pop\n      tag_61\n      tag_62\n      jump\t// in\n    tag_61:\n      mload(0x40)\n      dup1\n      dup3\n      dup2\n      mstore\n      0x20\n      add\n      swap2\n      pop\n      pop\n      mload(0x40)\n      dup1\n      swap2\n      sub\n      swap1\n      return\n        /* \"contracts/Burna.sol\":1355:1444  function getStartTime() public view returns (uint256) {\r... */\n    tag_15:\n      callvalue\n      dup1\n      iszero\n      tag_63\n      jumpi\n      0x00\n      dup1\n      revert\n    tag_63:\n      pop\n      tag_64\n      tag_65\n      jump\t// in\n    tag_64:\n      mload(0x40)\n      dup1\n      dup3\n      dup2\n      mstore\n      0x20\n      add\n      swap2\n      pop\n      pop\n      mload(0x40)\n      dup1\n      swap2\n      sub\n      swap1\n      return\n        /* \"contracts/Burna.sol\":1851:2227  function fund(uint256 _amount) external onlyOwner payable {\r... */\n    tag_16:\n      tag_66\n      0x04\n      dup1\n      calldatasize\n      sub\n      0x20\n      dup2\n      lt\n      iszero\n      tag_67\n      jumpi\n      0x00\n      dup1\n      revert\n    tag_67:\n      dup2\n      add\n      swap1\n      dup1\n      dup1\n      calldataload\n      swap1\n      0x20\n      add\n      swap1\n      swap3\n      swap2\n      swap1\n      pop\n      pop\n      pop\n      tag_68\n      jump\t// in\n    tag_66:\n      stop\n        /* \"contracts/Burna.sol\":1452:1650  function getDethAddress() public view returns (address) {\r... */\n    tag_17:\n      callvalue\n      dup1\n      iszero\n      tag_69\n      jumpi\n      0x00\n      dup1\n      revert\n    tag_69:\n      pop\n      tag_70\n      tag_71\n      jump\t// in\n    tag_70:\n      mload(0x40)\n      dup1\n      dup3\n      0xffffffffffffffffffffffffffffffffffffffff\n      and\n      dup2\n      mstore\n      0x20\n      add\n      swap2\n      pop\n      pop\n      mload(0x40)\n      dup1\n      swap2\n      sub\n      swap1\n      return\n        /* \"contracts/Burna.sol\":765:795  uint256 public totalBurned = 0 */\n    tag_18:\n      callvalue\n      dup1\n      iszero\n      tag_72\n      jumpi\n      0x00\n      dup1\n      revert\n    tag_72:\n      pop\n      tag_73\n      tag_74\n      jump\t// in\n    tag_73:\n      mload(0x40)\n      dup1\n      dup3\n      dup2\n      mstore\n      0x20\n      add\n      swap2\n      pop\n      pop\n      mload(0x40)\n      dup1\n      swap2\n      sub\n      swap1\n      return\n        /* \"contracts/Burna.sol\":1759:1843  function getIsFunded() public view returns (bool) {\r... */\n    tag_19:\n      callvalue\n      dup1\n      iszero\n      tag_75\n      jumpi\n      0x00\n      dup1\n      revert\n    tag_75:\n      pop\n      tag_76\n      tag_77\n      jump\t// in\n    tag_76:\n      mload(0x40)\n      dup1\n      dup3\n      iszero\n      iszero\n      dup2\n      mstore\n      0x20\n      add\n      swap2\n      pop\n      pop\n      mload(0x40)\n      dup1\n      swap2\n      sub\n      swap1\n      return\n        /* \"contracts/libs/Ownable.sol\":2042:2286  function transferOwnership(address newOwner) public virtual onlyOwner {\r... */\n    tag_20:\n      callvalue\n      dup1\n      iszero\n      tag_78\n      jumpi\n      0x00\n      dup1\n      revert\n    tag_78:\n      pop\n      tag_79\n      0x04\n      dup1\n      calldatasize\n      sub\n      0x20\n      dup2\n      lt\n      iszero\n      tag_80\n      jumpi\n      0x00\n      dup1\n      revert\n    tag_80:\n      dup2\n      add\n      swap1\n      dup1\n      dup1\n      calldataload\n      0xffffffffffffffffffffffffffffffffffffffff\n      and\n      swap1\n      0x20\n      add\n      swap1\n      swap3\n      swap2\n      swap1\n      pop\n      pop\n      pop\n      tag_81\n      jump\t// in\n    tag_79:\n      stop\n        /* \"contracts/Burna.sol\":666:687  uint256 public supply */\n    tag_26:\n      sload(0x03)\n      dup2\n      jump\t// out\n        /* \"contracts/Burna.sol\":627:659  uint256 public fundingAmount = 0 */\n    tag_29:\n      sload(0x02)\n      dup2\n      jump\t// out\n        /* \"contracts/Burna.sol\":464:545  address public immutable deadAddress = 0x000000000000000000000000000000000000dEaD */\n    tag_32:\n      immutable(\"0x277ab82e5a4641341820a4a2933a62c1de997e42e92548657ae21b3728d580fe\")\n      dup2\n      jump\t// out\n        /* \"contracts/Burna.sol\":725:758  uint256 public lastTimeBurned = 0 */\n    tag_35:\n      sload(0x05)\n      dup2\n      jump\t// out\n        /* \"contracts/Burna.sol\":2235:2743  function burn() public {\r... */\n    tag_38:\n        /* \"contracts/Burna.sol\":2277:2285  isFunded */\n      0x01\n      0x14\n      swap1\n      sload\n      swap1\n      0x0100\n      exp\n      swap1\n      div\n      0xff\n      and\n        /* \"contracts/Burna.sol\":2269:2314  require(isFunded, \"Burner is not funded yet\") */\n      tag_83\n      jumpi\n      mload(0x40)\n      0x08c379a000000000000000000000000000000000000000000000000000000000\n      dup2\n      mstore\n      0x04\n      add\n      dup1\n      dup1\n      0x20\n      add\n      dup3\n      dup2\n      sub\n      dup3\n      mstore\n      0x18\n      dup2\n      mstore\n      0x20\n      add\n      dup1\n      0x4275726e6572206973206e6f742066756e646564207965740000000000000000\n      dup2\n      mstore\n      pop\n      0x20\n      add\n      swap2\n      pop\n      pop\n      mload(0x40)\n      dup1\n      swap2\n      sub\n      swap1\n      revert\n    tag_83:\n        /* \"contracts/Burna.sol\":2339:2348  startTime */\n      sload(0x04)\n        /* \"contracts/Burna.sol\":2333:2336  now */\n      timestamp\n        /* \"contracts/Burna.sol\":2333:2348  now > startTime */\n      gt\n        /* \"contracts/Burna.sol\":2325:2378  require(now > startTime, \"Burner is not yet started\") */\n      tag_84\n      jumpi\n      mload(0x40)\n      0x08c379a000000000000000000000000000000000000000000000000000000000\n      dup2\n      mstore\n      0x04\n      add\n      dup1\n      dup1\n      0x20\n      add\n      dup3\n      dup2\n      sub\n      dup3\n      mstore\n      0x19\n      dup2\n      mstore\n      0x20\n      add\n      dup1\n      0x4275726e6572206973206e6f7420796574207374617274656400000000000000\n      dup2\n      mstore\n      pop\n      0x20\n      add\n      swap2\n      pop\n      pop\n      mload(0x40)\n      dup1\n      swap2\n      sub\n      swap1\n      revert\n    tag_84:\n        /* \"contracts/Burna.sol\":2420:2424  3600 */\n      0x0e10\n        /* \"contracts/Burna.sol\":2403:2417  lastTimeBurned */\n      sload(0x05)\n        /* \"contracts/Burna.sol\":2397:2400  now */\n      timestamp\n        /* \"contracts/Burna.sol\":2397:2417  now - lastTimeBurned */\n      sub\n        /* \"contracts/Burna.sol\":2397:2424  now - lastTimeBurned > 3600 */\n      gt\n        /* \"contracts/Burna.sol\":2389:2465  require(now - lastTimeBurned > 3600, \"dETH can only be burned once an hour\") */\n      tag_85\n      jumpi\n      mload(0x40)\n      0x08c379a000000000000000000000000000000000000000000000000000000000\n      dup2\n      mstore\n      0x04\n      add\n      dup1\n      dup1\n      0x20\n      add\n      dup3\n      dup2\n      sub\n      dup3\n      mstore\n      0x24\n      dup2\n      mstore\n      0x20\n      add\n      dup1\n      data_a67d95f2293c637cd38d40b5cce5f7b6bf2fc1953650a6994d31e9ed06ca1ce0\n      0x24\n      swap2\n      codecopy\n      0x40\n      add\n      swap2\n      pop\n      pop\n      mload(0x40)\n      dup1\n      swap2\n      sub\n      swap1\n      revert\n    tag_85:\n        /* \"contracts/Burna.sol\":2476:2494  uint256 burnAmount */\n      0x00\n        /* \"contracts/Burna.sol\":2513:2517  8760 */\n      0x2238\n        /* \"contracts/Burna.sol\":2497:2510  fundingAmount */\n      sload(0x02)\n        /* \"contracts/Burna.sol\":2497:2517  fundingAmount / 8760 */\n      dup2\n      tag_86\n      jumpi\n      invalid\n    tag_86:\n      div\n        /* \"contracts/Burna.sol\":2476:2517  uint256 burnAmount = fundingAmount / 8760 */\n      swap1\n      pop\n        /* \"contracts/Burna.sol\":2535:2546  dethAddress */\n      0x01\n      0x00\n      swap1\n      sload\n      swap1\n      0x0100\n      exp\n      swap1\n      div\n      0xffffffffffffffffffffffffffffffffffffffff\n      and\n        /* \"contracts/Burna.sol\":2528:2556  IERC20(dethAddress).transfer */\n      0xffffffffffffffffffffffffffffffffffffffff\n      and\n      0xa9059cbb\n        /* \"contracts/Burna.sol\":2557:2568  deadAddress */\n      immutable(\"0x277ab82e5a4641341820a4a2933a62c1de997e42e92548657ae21b3728d580fe\")\n        /* \"contracts/Burna.sol\":2570:2580  burnAmount */\n      dup4\n        /* \"contracts/Burna.sol\":2528:2581  IERC20(dethAddress).transfer(deadAddress, burnAmount) */\n      mload(0x40)\n      dup4\n      0xffffffff\n      and\n      0xe0\n      shl\n      dup2\n      mstore\n      0x04\n      add\n      dup1\n      dup4\n      0xffffffffffffffffffffffffffffffffffffffff\n      and\n      dup2\n      mstore\n      0x20\n      add\n      dup3\n      dup2\n      mstore\n      0x20\n      add\n      swap3\n      pop\n      pop\n      pop\n      0x20\n      mload(0x40)\n      dup1\n      dup4\n      sub\n      dup2\n      0x00\n      dup8\n      dup1\n      extcodesize\n      iszero\n      dup1\n      iszero\n      tag_87\n      jumpi\n      0x00\n      dup1\n      revert\n    tag_87:\n      pop\n      gas\n      call\n      iszero\n      dup1\n      iszero\n      tag_89\n      jumpi\n      returndatasize\n      0x00\n      dup1\n      returndatacopy\n      revert(0x00, returndatasize)\n    tag_89:\n      pop\n      pop\n      pop\n      pop\n      mload(0x40)\n      returndatasize\n      0x20\n      dup2\n      lt\n      iszero\n      tag_90\n      jumpi\n      0x00\n      dup1\n      revert\n    tag_90:\n      dup2\n      add\n      swap1\n      dup1\n      dup1\n      mload\n      swap1\n      0x20\n      add\n      swap1\n      swap3\n      swap2\n      swap1\n      pop\n      pop\n      pop\n      pop\n        /* \"contracts/Burna.sol\":2609:2612  now */\n      timestamp\n        /* \"contracts/Burna.sol\":2592:2606  lastTimeBurned */\n      0x05\n        /* \"contracts/Burna.sol\":2592:2612  lastTimeBurned = now */\n      dup2\n      swap1\n      sstore\n      pop\n        /* \"contracts/Burna.sol\":2638:2648  burnAmount */\n      dup1\n        /* \"contracts/Burna.sol\":2623:2634  totalBurned */\n      0x06\n      0x00\n        /* \"contracts/Burna.sol\":2623:2648  totalBurned += burnAmount */\n      dup3\n      dup3\n      sload\n      add\n      swap3\n      pop\n      pop\n      dup2\n      swap1\n      sstore\n      pop\n        /* \"contracts/Burna.sol\":2669:2679  burnAmount */\n      dup1\n        /* \"contracts/Burna.sol\":2659:2665  supply */\n      0x03\n      0x00\n        /* \"contracts/Burna.sol\":2659:2679  supply -= burnAmount */\n      dup3\n      dup3\n      sload\n      sub\n      swap3\n      pop\n      pop\n      dup2\n      swap1\n      sstore\n      pop\n        /* \"contracts/Burna.sol\":2697:2735  dethBurned(burnAmount, lastTimeBurned) */\n      0x9d7b6228054d3633be8cd708771f400e539e62d2df76aca71f3d8b0eb287eb24\n        /* \"contracts/Burna.sol\":2708:2718  burnAmount */\n      dup2\n        /* \"contracts/Burna.sol\":2720:2734  lastTimeBurned */\n      sload(0x05)\n        /* \"contracts/Burna.sol\":2697:2735  dethBurned(burnAmount, lastTimeBurned) */\n      mload(0x40)\n      dup1\n      dup4\n      dup2\n      mstore\n      0x20\n      add\n      dup3\n      dup2\n      mstore\n      0x20\n      add\n      swap3\n      pop\n      pop\n      pop\n      mload(0x40)\n      dup1\n      swap2\n      sub\n      swap1\n      log1\n        /* \"contracts/Burna.sol\":2235:2743  function burn() public {\r... */\n      pop\n      jump\t// out\n        /* \"contracts/Burna.sol\":1208:1347  function getSupply() public view returns (uint256) {\r... */\n    tag_41:\n        /* \"contracts/Burna.sol\":1250:1257  uint256 */\n      0x00\n        /* \"contracts/Burna.sol\":1278:1286  isFunded */\n      0x01\n      0x14\n      swap1\n      sload\n      swap1\n      0x0100\n      exp\n      swap1\n      div\n      0xff\n      and\n        /* \"contracts/Burna.sol\":1270:1315  require(isFunded, \"Burner is not funded yet\") */\n      tag_92\n      jumpi\n      mload(0x40)\n      0x08c379a000000000000000000000000000000000000000000000000000000000\n      dup2\n      mstore\n      0x04\n      add\n      dup1\n      dup1\n      0x20\n      add\n      dup3\n      dup2\n      sub\n      dup3\n      mstore\n      0x18\n      dup2\n      mstore\n      0x20\n      add\n      dup1\n      0x4275726e6572206973206e6f742066756e646564207965740000000000000000\n      dup2\n      mstore\n      pop\n      0x20\n      add\n      swap2\n      pop\n      pop\n      mload(0x40)\n      dup1\n      swap2\n      sub\n      swap1\n      revert\n    tag_92:\n        /* \"contracts/Burna.sol\":1333:1339  supply */\n      sload(0x03)\n        /* \"contracts/Burna.sol\":1326:1339  return supply */\n      swap1\n      pop\n        /* \"contracts/Burna.sol\":1208:1347  function getSupply() public view returns (uint256) {\r... */\n      swap1\n      jump\t// out\n        /* \"contracts/libs/Ownable.sol\":1739:1887  function renounceOwnership() public virtual onlyOwner {\r... */\n    tag_44:\n        /* \"contracts/libs/Ownable.sol\":1319:1331  _msgSender() */\n      tag_94\n        /* \"contracts/libs/Ownable.sol\":1319:1329  _msgSender */\n      tag_95\n        /* \"contracts/libs/Ownable.sol\":1319:1331  _msgSender() */\n      jump\t// in\n    tag_94:\n        /* \"contracts/libs/Ownable.sol\":1309:1331  _owner == _msgSender() */\n      0xffffffffffffffffffffffffffffffffffffffff\n      and\n        /* \"contracts/libs/Ownable.sol\":1309:1315  _owner */\n      0x00\n      dup1\n      sload\n      swap1\n      0x0100\n      exp\n      swap1\n      div\n      0xffffffffffffffffffffffffffffffffffffffff\n      and\n        /* \"contracts/libs/Ownable.sol\":1309:1331  _owner == _msgSender() */\n      0xffffffffffffffffffffffffffffffffffffffff\n      and\n      eq\n        /* \"contracts/libs/Ownable.sol\":1301:1368  require(_owner == _msgSender(), \"Ownable: caller is not the owner\") */\n      tag_96\n      jumpi\n      mload(0x40)\n      0x08c379a000000000000000000000000000000000000000000000000000000000\n      dup2\n      mstore\n      0x04\n      add\n      dup1\n      dup1\n      0x20\n      add\n      dup3\n      dup2\n      sub\n      dup3\n      mstore\n      0x20\n      dup2\n      mstore\n      0x20\n      add\n      dup1\n      0x4f776e61626c653a2063616c6c6572206973206e6f7420746865206f776e6572\n      dup2\n      mstore\n      pop\n      0x20\n      add\n      swap2\n      pop\n      pop\n      mload(0x40)\n      dup1\n      swap2\n      sub\n      swap1\n      revert\n    tag_96:\n        /* \"contracts/libs/Ownable.sol\":1846:1847  0 */\n      0x00\n        /* \"contracts/libs/Ownable.sol\":1809:1849  OwnershipTransferred(_owner, address(0)) */\n      0xffffffffffffffffffffffffffffffffffffffff\n      and\n        /* \"contracts/libs/Ownable.sol\":1830:1836  _owner */\n      0x00\n      dup1\n      sload\n      swap1\n      0x0100\n      exp\n      swap1\n      div\n      0xffffffffffffffffffffffffffffffffffffffff\n      and\n        /* \"contracts/libs/Ownable.sol\":1809:1849  OwnershipTransferred(_owner, address(0)) */\n      0xffffffffffffffffffffffffffffffffffffffff\n      and\n      0x8be0079c531659141344cd1fd0a4f28419497f9722a3daafe3b4186f6b6457e0\n      mload(0x40)\n      mload(0x40)\n      dup1\n      swap2\n      sub\n      swap1\n      log3\n        /* \"contracts/libs/Ownable.sol\":1877:1878  0 */\n      0x00\n        /* \"contracts/libs/Ownable.sol\":1860:1866  _owner */\n      dup1\n      0x00\n        /* \"contracts/libs/Ownable.sol\":1860:1879  _owner = address(0) */\n      0x0100\n      exp\n      dup2\n      sload\n      dup2\n      0xffffffffffffffffffffffffffffffffffffffff\n      mul\n      not\n      and\n      swap1\n      dup4\n      0xffffffffffffffffffffffffffffffffffffffff\n      and\n      mul\n      or\n      swap1\n      sstore\n      pop\n        /* \"contracts/libs/Ownable.sol\":1739:1887  function renounceOwnership() public virtual onlyOwner {\r... */\n      jump\t// out\n        /* \"contracts/Burna.sol\":694:718  uint256 public startTime */\n    tag_47:\n      sload(0x04)\n      dup2\n      jump\t// out\n        /* \"contracts/Burna.sol\":587:615  bool public isFunded = false */\n    tag_50:\n      0x01\n      0x14\n      swap1\n      sload\n      swap1\n      0x0100\n      exp\n      swap1\n      div\n      0xff\n      and\n      dup2\n      jump\t// out\n        /* \"contracts/libs/Ownable.sol\":1097:1176  function owner() public view returns (address) {\r... */\n    tag_53:\n        /* \"contracts/libs/Ownable.sol\":1135:1142  address */\n      0x00\n        /* \"contracts/libs/Ownable.sol\":1162:1168  _owner */\n      dup1\n      0x00\n      swap1\n      sload\n      swap1\n      0x0100\n      exp\n      swap1\n      div\n      0xffffffffffffffffffffffffffffffffffffffff\n      and\n        /* \"contracts/libs/Ownable.sol\":1155:1168  return _owner */\n      swap1\n      pop\n        /* \"contracts/libs/Ownable.sol\":1097:1176  function owner() public view returns (address) {\r... */\n      swap1\n      jump\t// out\n        /* \"contracts/Burna.sol\":552:578  address public dethAddress */\n    tag_56:\n      0x01\n      0x00\n      swap1\n      sload\n      swap1\n      0x0100\n      exp\n      swap1\n      div\n      0xffffffffffffffffffffffffffffffffffffffff\n      and\n      dup2\n      jump\t// out\n        /* \"contracts/Burna.sol\":1658:1751  function getDeadAddress() public view returns (address) {\r... */\n    tag_59:\n        /* \"contracts/Burna.sol\":1705:1712  address */\n      0x00\n        /* \"contracts/Burna.sol\":1732:1743  deadAddress */\n      immutable(\"0x277ab82e5a4641341820a4a2933a62c1de997e42e92548657ae21b3728d580fe\")\n        /* \"contracts/Burna.sol\":1725:1743  return deadAddress */\n      swap1\n      pop\n        /* \"contracts/Burna.sol\":1658:1751  function getDeadAddress() public view returns (address) {\r... */\n      swap1\n      jump\t// out\n        /* \"contracts/Burna.sol\":1051:1200  function getTotalBurned() public view returns (uint256) {\r... */\n    tag_62:\n        /* \"contracts/Burna.sol\":1098:1105  uint256 */\n      0x00\n        /* \"contracts/Burna.sol\":1126:1134  isFunded */\n      0x01\n      0x14\n      swap1\n      sload\n      swap1\n      0x0100\n      exp\n      swap1\n      div\n      0xff\n      and\n        /* \"contracts/Burna.sol\":1118:1163  require(isFunded, \"Burner is not funded yet\") */\n      tag_101\n      jumpi\n      mload(0x40)\n      0x08c379a000000000000000000000000000000000000000000000000000000000\n      dup2\n      mstore\n      0x04\n      add\n      dup1\n      dup1\n      0x20\n      add\n      dup3\n      dup2\n      sub\n      dup3\n      mstore\n      0x18\n      dup2\n      mstore\n      0x20\n      add\n      dup1\n      0x4275726e6572206973206e6f742066756e646564207965740000000000000000\n      dup2\n      mstore\n      pop\n      0x20\n      add\n      swap2\n      pop\n      pop\n      mload(0x40)\n      dup1\n      swap2\n      sub\n      swap1\n      revert\n    tag_101:\n        /* \"contracts/Burna.sol\":1181:1192  totalBurned */\n      sload(0x06)\n        /* \"contracts/Burna.sol\":1174:1192  return totalBurned */\n      swap1\n      pop\n        /* \"contracts/Burna.sol\":1051:1200  function getTotalBurned() public view returns (uint256) {\r... */\n      swap1\n      jump\t// out\n        /* \"contracts/Burna.sol\":1355:1444  function getStartTime() public view returns (uint256) {\r... */\n    tag_65:\n        /* \"contracts/Burna.sol\":1400:1407  uint256 */\n      0x00\n        /* \"contracts/Burna.sol\":1427:1436  startTime */\n      sload(0x04)\n        /* \"contracts/Burna.sol\":1420:1436  return startTime */\n      swap1\n      pop\n        /* \"contracts/Burna.sol\":1355:1444  function getStartTime() public view returns (uint256) {\r... */\n      swap1\n      jump\t// out\n        /* \"contracts/Burna.sol\":1851:2227  function fund(uint256 _amount) external onlyOwner payable {\r... */\n    tag_68:\n        /* \"contracts/libs/Ownable.sol\":1319:1331  _msgSender() */\n      tag_104\n        /* \"contracts/libs/Ownable.sol\":1319:1329  _msgSender */\n      tag_95\n        /* \"contracts/libs/Ownable.sol\":1319:1331  _msgSender() */\n      jump\t// in\n    tag_104:\n        /* \"contracts/libs/Ownable.sol\":1309:1331  _owner == _msgSender() */\n      0xffffffffffffffffffffffffffffffffffffffff\n      and\n        /* \"contracts/libs/Ownable.sol\":1309:1315  _owner */\n      0x00\n      dup1\n      sload\n      swap1\n      0x0100\n      exp\n      swap1\n      div\n      0xffffffffffffffffffffffffffffffffffffffff\n      and\n        /* \"contracts/libs/Ownable.sol\":1309:1331  _owner == _msgSender() */\n      0xffffffffffffffffffffffffffffffffffffffff\n      and\n      eq\n        /* \"contracts/libs/Ownable.sol\":1301:1368  require(_owner == _msgSender(), \"Ownable: caller is not the owner\") */\n      tag_105\n      jumpi\n      mload(0x40)\n      0x08c379a000000000000000000000000000000000000000000000000000000000\n      dup2\n      mstore\n      0x04\n      add\n      dup1\n      dup1\n      0x20\n      add\n      dup3\n      dup2\n      sub\n      dup3\n      mstore\n      0x20\n      dup2\n      mstore\n      0x20\n      add\n      dup1\n      0x4f776e61626c653a2063616c6c6572206973206e6f7420746865206f776e6572\n      dup2\n      mstore\n      pop\n      0x20\n      add\n      swap2\n      pop\n      pop\n      mload(0x40)\n      dup1\n      swap2\n      sub\n      swap1\n      revert\n    tag_105:\n        /* \"contracts/Burna.sol\":1940:1945  false */\n      0x00\n        /* \"contracts/Burna.sol\":1928:1945  isFunded == false */\n      iszero\n      iszero\n        /* \"contracts/Burna.sol\":1928:1936  isFunded */\n      0x01\n      0x14\n      swap1\n      sload\n      swap1\n      0x0100\n      exp\n      swap1\n      div\n      0xff\n      and\n        /* \"contracts/Burna.sol\":1928:1945  isFunded == false */\n      iszero\n      iszero\n      eq\n        /* \"contracts/Burna.sol\":1920:1946  require(isFunded == false) */\n      tag_107\n      jumpi\n      0x00\n      dup1\n      revert\n    tag_107:\n        /* \"contracts/Burna.sol\":1971:1980  startTime */\n      sload(0x04)\n        /* \"contracts/Burna.sol\":1965:1968  now */\n      timestamp\n        /* \"contracts/Burna.sol\":1965:1980  now < startTime */\n      lt\n        /* \"contracts/Burna.sol\":1957:1981  require(now < startTime) */\n      tag_108\n      jumpi\n      0x00\n      dup1\n      revert\n    tag_108:\n        /* \"contracts/Burna.sol\":2011:2023  500000 ether */\n      0x69e10de76676d0800000\n        /* \"contracts/Burna.sol\":2000:2007  _amount */\n      dup2\n        /* \"contracts/Burna.sol\":2000:2023  _amount == 500000 ether */\n      eq\n        /* \"contracts/Burna.sol\":1992:2024  require(_amount == 500000 ether) */\n      tag_109\n      jumpi\n      0x00\n      dup1\n      revert\n    tag_109:\n        /* \"contracts/Burna.sol\":2042:2053  dethAddress */\n      0x01\n      0x00\n      swap1\n      sload\n      swap1\n      0x0100\n      exp\n      swap1\n      div\n      0xffffffffffffffffffffffffffffffffffffffff\n      and\n        /* \"contracts/Burna.sol\":2035:2063  IERC20(dethAddress).transfer */\n      0xffffffffffffffffffffffffffffffffffffffff\n      and\n      0xa9059cbb\n        /* \"contracts/Burna.sol\":2072:2076  this */\n      address\n        /* \"contracts/Burna.sol\":2079:2086  _amount */\n      dup4\n        /* \"contracts/Burna.sol\":2035:2087  IERC20(dethAddress).transfer(address(this), _amount) */\n      mload(0x40)\n      dup4\n      0xffffffff\n      and\n      0xe0\n      shl\n      dup2\n      mstore\n      0x04\n      add\n      dup1\n      dup4\n      0xffffffffffffffffffffffffffffffffffffffff\n      and\n      dup2\n      mstore\n      0x20\n      add\n      dup3\n      dup2\n      mstore\n      0x20\n      add\n      swap3\n      pop\n      pop\n      pop\n      0x20\n      mload(0x40)\n      dup1\n      dup4\n      sub\n      dup2\n      0x00\n      dup8\n      dup1\n      extcodesize\n      iszero\n      dup1\n      iszero\n      tag_110\n      jumpi\n      0x00\n      dup1\n      revert\n    tag_110:\n      pop\n      gas\n      call\n      iszero\n      dup1\n      iszero\n      tag_112\n      jumpi\n      returndatasize\n      0x00\n      dup1\n      returndatacopy\n      revert(0x00, returndatasize)\n    tag_112:\n      pop\n      pop\n      pop\n      pop\n      mload(0x40)\n      returndatasize\n      0x20\n      dup2\n      lt\n      iszero\n      tag_113\n      jumpi\n      0x00\n      dup1\n      revert\n    tag_113:\n      dup2\n      add\n      swap1\n      dup1\n      dup1\n      mload\n      swap1\n      0x20\n      add\n      swap1\n      swap3\n      swap2\n      swap1\n      pop\n      pop\n      pop\n      pop\n        /* \"contracts/Burna.sol\":2109:2113  true */\n      0x01\n        /* \"contracts/Burna.sol\":2098:2106  isFunded */\n      dup1\n      0x14\n        /* \"contracts/Burna.sol\":2098:2113  isFunded = true */\n      0x0100\n      exp\n      dup2\n      sload\n      dup2\n      0xff\n      mul\n      not\n      and\n      swap1\n      dup4\n      iszero\n      iszero\n      mul\n      or\n      swap1\n      sstore\n      pop\n        /* \"contracts/Burna.sol\":2140:2147  _amount */\n      dup1\n        /* \"contracts/Burna.sol\":2124:2137  fundingAmount */\n      0x02\n        /* \"contracts/Burna.sol\":2124:2147  fundingAmount = _amount */\n      dup2\n      swap1\n      sstore\n      pop\n        /* \"contracts/Burna.sol\":2168:2175  _amount */\n      dup1\n        /* \"contracts/Burna.sol\":2158:2164  supply */\n      0x03\n      0x00\n        /* \"contracts/Burna.sol\":2158:2175  supply += _amount */\n      dup3\n      dup3\n      sload\n      add\n      swap3\n      pop\n      pop\n      dup2\n      swap1\n      sstore\n      pop\n        /* \"contracts/Burna.sol\":2193:2219  BurnerFunded(_amount, now) */\n      0x73d856f5acf4bb0dfcc775791dbf5aa882b81951d141781124f00428c3075eb7\n        /* \"contracts/Burna.sol\":2206:2213  _amount */\n      dup2\n        /* \"contracts/Burna.sol\":2215:2218  now */\n      timestamp\n        /* \"contracts/Burna.sol\":2193:2219  BurnerFunded(_amount, now) */\n      mload(0x40)\n      dup1\n      dup4\n      dup2\n      mstore\n      0x20\n      add\n      dup3\n      dup2\n      mstore\n      0x20\n      add\n      swap3\n      pop\n      pop\n      pop\n      mload(0x40)\n      dup1\n      swap2\n      sub\n      swap1\n      log1\n        /* \"contracts/Burna.sol\":1851:2227  function fund(uint256 _amount) external onlyOwner payable {\r... */\n      pop\n      jump\t// out\n        /* \"contracts/Burna.sol\":1452:1650  function getDethAddress() public view returns (address) {\r... */\n    tag_71:\n        /* \"contracts/Burna.sol\":1499:1506  address */\n      0x00\n        /* \"contracts/Burna.sol\":1550:1551  0 */\n      dup1\n        /* \"contracts/Burna.sol\":1527:1552  dethAddress != address(0) */\n      0xffffffffffffffffffffffffffffffffffffffff\n      and\n        /* \"contracts/Burna.sol\":1527:1538  dethAddress */\n      0x01\n      0x00\n      swap1\n      sload\n      swap1\n      0x0100\n      exp\n      swap1\n      div\n      0xffffffffffffffffffffffffffffffffffffffff\n      and\n        /* \"contracts/Burna.sol\":1527:1552  dethAddress != address(0) */\n      0xffffffffffffffffffffffffffffffffffffffff\n      and\n      eq\n      iszero\n        /* \"contracts/Burna.sol\":1519:1613  require(dethAddress != address(0), \"...How did you deploy without setting the d.ETH address?\") */\n      tag_115\n      jumpi\n      mload(0x40)\n      0x08c379a000000000000000000000000000000000000000000000000000000000\n      dup2\n      mstore\n      0x04\n      add\n      dup1\n      dup1\n      0x20\n      add\n      dup3\n      dup2\n      sub\n      dup3\n      mstore\n      0x38\n      dup2\n      mstore\n      0x20\n      add\n      dup1\n      data_106b4b52d9d512b08ac83511c3715aa863b17b2d5146340d08510536d0e73a20\n      0x38\n      swap2\n      codecopy\n      0x40\n      add\n      swap2\n      pop\n      pop\n      mload(0x40)\n      dup1\n      swap2\n      sub\n      swap1\n      revert\n    tag_115:\n        /* \"contracts/Burna.sol\":1631:1642  dethAddress */\n      0x01\n      0x00\n      swap1\n      sload\n      swap1\n      0x0100\n      exp\n      swap1\n      div\n      0xffffffffffffffffffffffffffffffffffffffff\n      and\n        /* \"contracts/Burna.sol\":1624:1642  return dethAddress */\n      swap1\n      pop\n        /* \"contracts/Burna.sol\":1452:1650  function getDethAddress() public view returns (address) {\r... */\n      swap1\n      jump\t// out\n        /* \"contracts/Burna.sol\":765:795  uint256 public totalBurned = 0 */\n    tag_74:\n      sload(0x06)\n      dup2\n      jump\t// out\n        /* \"contracts/Burna.sol\":1759:1843  function getIsFunded() public view returns (bool) {\r... */\n    tag_77:\n        /* \"contracts/Burna.sol\":1803:1807  bool */\n      0x00\n        /* \"contracts/Burna.sol\":1827:1835  isFunded */\n      0x01\n      0x14\n      swap1\n      sload\n      swap1\n      0x0100\n      exp\n      swap1\n      div\n      0xff\n      and\n        /* \"contracts/Burna.sol\":1820:1835  return isFunded */\n      swap1\n      pop\n        /* \"contracts/Burna.sol\":1759:1843  function getIsFunded() public view returns (bool) {\r... */\n      swap1\n      jump\t// out\n        /* \"contracts/libs/Ownable.sol\":2042:2286  function transferOwnership(address newOwner) public virtual onlyOwner {\r... */\n    tag_81:\n        /* \"contracts/libs/Ownable.sol\":1319:1331  _msgSender() */\n      tag_118\n        /* \"contracts/libs/Ownable.sol\":1319:1329  _msgSender */\n      tag_95\n        /* \"contracts/libs/Ownable.sol\":1319:1331  _msgSender() */\n      jump\t// in\n    tag_118:\n        /* \"contracts/libs/Ownable.sol\":1309:1331  _owner == _msgSender() */\n      0xffffffffffffffffffffffffffffffffffffffff\n      and\n        /* \"contracts/libs/Ownable.sol\":1309:1315  _owner */\n      0x00\n      dup1\n      sload\n      swap1\n      0x0100\n      exp\n      swap1\n      div\n      0xffffffffffffffffffffffffffffffffffffffff\n      and\n        /* \"contracts/libs/Ownable.sol\":1309:1331  _owner == _msgSender() */\n      0xffffffffffffffffffffffffffffffffffffffff\n      and\n      eq\n        /* \"contracts/libs/Ownable.sol\":1301:1368  require(_owner == _msgSender(), \"Ownable: caller is not the owner\") */\n      tag_119\n      jumpi\n      mload(0x40)\n      0x08c379a000000000000000000000000000000000000000000000000000000000\n      dup2\n      mstore\n      0x04\n      add\n      dup1\n      dup1\n      0x20\n      add\n      dup3\n      dup2\n      sub\n      dup3\n      mstore\n      0x20\n      dup2\n      mstore\n      0x20\n      add\n      dup1\n      0x4f776e61626c653a2063616c6c6572206973206e6f7420746865206f776e6572\n      dup2\n      mstore\n      pop\n      0x20\n      add\n      swap2\n      pop\n      pop\n      mload(0x40)\n      dup1\n      swap2\n      sub\n      swap1\n      revert\n    tag_119:\n        /* \"contracts/libs/Ownable.sol\":2151:2152  0 */\n      0x00\n        /* \"contracts/libs/Ownable.sol\":2131:2153  newOwner != address(0) */\n      0xffffffffffffffffffffffffffffffffffffffff\n      and\n        /* \"contracts/libs/Ownable.sol\":2131:2139  newOwner */\n      dup2\n        /* \"contracts/libs/Ownable.sol\":2131:2153  newOwner != address(0) */\n      0xffffffffffffffffffffffffffffffffffffffff\n      and\n      eq\n      iszero\n        /* \"contracts/libs/Ownable.sol\":2123:2196  require(newOwner != address(0), \"Ownable: new owner is the zero address\") */\n      tag_121\n      jumpi\n      mload(0x40)\n      0x08c379a000000000000000000000000000000000000000000000000000000000\n      dup2\n      mstore\n      0x04\n      add\n      dup1\n      dup1\n      0x20\n      add\n      dup3\n      dup2\n      sub\n      dup3\n      mstore\n      0x26\n      dup2\n      mstore\n      0x20\n      add\n      dup1\n      data_245f15ff17f551913a7a18385165551503906a406f905ac1c2437281a7cd0cfe\n      0x26\n      swap2\n      codecopy\n      0x40\n      add\n      swap2\n      pop\n      pop\n      mload(0x40)\n      dup1\n      swap2\n      sub\n      swap1\n      revert\n    tag_121:\n        /* \"contracts/libs/Ownable.sol\":2241:2249  newOwner */\n      dup1\n        /* \"contracts/libs/Ownable.sol\":2212:2250  OwnershipTransferred(_owner, newOwner) */\n      0xffffffffffffffffffffffffffffffffffffffff\n      and\n        /* \"contracts/libs/Ownable.sol\":2233:2239  _owner */\n      0x00\n      dup1\n      sload\n      swap1\n      0x0100\n      exp\n      swap1\n      div\n      0xffffffffffffffffffffffffffffffffffffffff\n      and\n        /* \"contracts/libs/Ownable.sol\":2212:2250  OwnershipTransferred(_owner, newOwner) */\n      0xffffffffffffffffffffffffffffffffffffffff\n      and\n      0x8be0079c531659141344cd1fd0a4f28419497f9722a3daafe3b4186f6b6457e0\n      mload(0x40)\n      mload(0x40)\n      dup1\n      swap2\n      sub\n      swap1\n      log3\n        /* \"contracts/libs/Ownable.sol\":2270:2278  newOwner */\n      dup1\n        /* \"contracts/libs/Ownable.sol\":2261:2267  _owner */\n      0x00\n      dup1\n        /* \"contracts/libs/Ownable.sol\":2261:2278  _owner = newOwner */\n      0x0100\n      exp\n      dup2\n      sload\n      dup2\n      0xffffffffffffffffffffffffffffffffffffffff\n      mul\n      not\n      and\n      swap1\n      dup4\n      0xffffffffffffffffffffffffffffffffffffffff\n      and\n      mul\n      or\n      swap1\n      sstore\n      pop\n        /* \"contracts/libs/Ownable.sol\":2042:2286  function transferOwnership(address newOwner) public virtual onlyOwner {\r... */\n      pop\n      jump\t// out\n        /* \"contracts/libs/Context.sol\":607:713  function _msgSender() internal view virtual returns (address payable) {\r... */\n    tag_95:\n        /* \"contracts/libs/Context.sol\":660:675  address payable */\n      0x00\n        /* \"contracts/libs/Context.sol\":695:705  msg.sender */\n      caller\n        /* \"contracts/libs/Context.sol\":688:705  return msg.sender */\n      swap1\n      pop\n        /* \"contracts/libs/Context.sol\":607:713  function _msgSender() internal view virtual returns (address payable) {\r... */\n      swap1\n      jump\t// out\n    stop\n    data_106b4b52d9d512b08ac83511c3715aa863b17b2d5146340d08510536d0e73a20 2e2e2e486f772064696420796f75206465706c6f7920776974686f75742073657474696e672074686520642e45544820616464726573733f\n    data_245f15ff17f551913a7a18385165551503906a406f905ac1c2437281a7cd0cfe 4f776e61626c653a206e6577206f776e657220697320746865207a65726f2061646472657373\n    data_a67d95f2293c637cd38d40b5cce5f7b6bf2fc1953650a6994d31e9ed06ca1ce0 644554482063616e206f6e6c79206265206275726e6564206f6e636520616e20686f7572\n\n    auxdata: 0xa26469706673582212201d1846b5f4fdecd98d712195152c5f4cf7c9f55da6f138ebf8388e3c5dcd187d64736f6c634300060c0033\n}\n",
				"bytecode": {
					"linkReferences": {},
					"object": "60a060405261dead73ffffffffffffffffffffffffffffffffffffffff1660809073ffffffffffffffffffffffffffffffffffffffff1660601b8152506000600160146101000a81548160ff02191690831515021790555060006002556000600555600060065534801561007257600080fd5b506040516112d13803806112d18339818101604052604081101561009557600080fd5b81019080805190602001909291908051906020019092919050505060006100c06101ad60201b60201c565b9050806000806101000a81548173ffffffffffffffffffffffffffffffffffffffff021916908373ffffffffffffffffffffffffffffffffffffffff1602179055508073ffffffffffffffffffffffffffffffffffffffff16600073ffffffffffffffffffffffffffffffffffffffff167f8be0079c531659141344cd1fd0a4f28419497f9722a3daafe3b4186f6b6457e060405160405180910390a35081600160006101000a81548173ffffffffffffffffffffffffffffffffffffffff021916908373ffffffffffffffffffffffffffffffffffffffff1602179055508060048190555050506101b5565b600033905090565b60805160601c6110f56101dc600039806104cb528061069c5280610a3452506110f56000f3fe6080604052600436106101145760003560e01c80638da5cb5b116100a0578063ca1d209d11610064578063ca1d209d146103a5578063cd066e45146103d3578063d89135cd14610414578063f0f2d4131461043f578063f2fde38b1461046c57610114565b80638da5cb5b1461028c5780639020e645146102cd578063b0feb1301461030e578063b55cd04b1461034f578063c828371e1461037a57610114565b806344df8e70116100e757806344df8e70146101db5780636c9c2faf146101f2578063715018a61461021d57806378e97925146102345780637c6543031461025f57610114565b8063047fc9aa1461011957806304a79c971461014457806327c8f8351461016f5780633d4b5cc6146101b0575b600080fd5b34801561012557600080fd5b5061012e6104bd565b6040518082815260200191505060405180910390f35b34801561015057600080fd5b506101596104c3565b6040518082815260200191505060405180910390f35b34801561017b57600080fd5b506101846104c9565b604051808273ffffffffffffffffffffffffffffffffffffffff16815260200191505060405180910390f35b3480156101bc57600080fd5b506101c56104ed565b6040518082815260200191505060405180910390f35b3480156101e757600080fd5b506101f06104f3565b005b3480156101fe57600080fd5b506102076107b6565b6040518082815260200191505060405180910390f35b34801561022957600080fd5b50610232610842565b005b34801561024057600080fd5b506102496109c8565b6040518082815260200191505060405180910390f35b34801561026b57600080fd5b506102746109ce565b60405180821515815260200191505060405180910390f35b34801561029857600080fd5b506102a16109e1565b604051808273ffffffffffffffffffffffffffffffffffffffff16815260200191505060405180910390f35b3480156102d957600080fd5b506102e2610a0a565b604051808273ffffffffffffffffffffffffffffffffffffffff16815260200191505060405180910390f35b34801561031a57600080fd5b50610323610a30565b604051808273ffffffffffffffffffffffffffffffffffffffff16815260200191505060405180910390f35b34801561035b57600080fd5b50610364610a58565b6040518082815260200191505060405180910390f35b34801561038657600080fd5b5061038f610ae4565b6040518082815260200191505060405180910390f35b6103d1600480360360208110156103bb57600080fd5b8101908080359060200190929190505050610aee565b005b3480156103df57600080fd5b506103e8610d3c565b604051808273ffffffffffffffffffffffffffffffffffffffff16815260200191505060405180910390f35b34801561042057600080fd5b50610429610e0d565b6040518082815260200191505060405180910390f35b34801561044b57600080fd5b50610454610e13565b60405180821515815260200191505060405180910390f35b34801561047857600080fd5b506104bb6004803603602081101561048f57600080fd5b81019080803573ffffffffffffffffffffffffffffffffffffffff169060200190929190505050610e2a565b005b60035481565b60025481565b7f000000000000000000000000000000000000000000000000000000000000000081565b60055481565b600160149054906101000a900460ff16610575576040517f08c379a00000000000000000000000000000000000000000000000000000000081526004018080602001828103825260188152602001807f4275726e6572206973206e6f742066756e64656420796574000000000000000081525060200191505060405180910390fd5b60045442116105ec576040517f08c379a00000000000000000000000000000000000000000000000000000000081526004018080602001828103825260198152602001807f4275726e6572206973206e6f742079657420737461727465640000000000000081525060200191505060405180910390fd5b610e1060055442031161064a576040517f08c379a000000000000000000000000000000000000000000000000000000000815260040180806020018281038252602481526020018061109c6024913960400191505060405180910390fd5b60006122386002548161065957fe5b049050600160009054906101000a900473ffffffffffffffffffffffffffffffffffffffff1673ffffffffffffffffffffffffffffffffffffffff1663a9059cbb7f0000000000000000000000000000000000000000000000000000000000000000836040518363ffffffff1660e01b8152600401808373ffffffffffffffffffffffffffffffffffffffff16815260200182815260200192505050602060405180830381600087803b15801561070f57600080fd5b505af1158015610723573d6000803e3d6000fd5b505050506040513d602081101561073957600080fd5b8101908080519060200190929190505050504260058190555080600660008282540192505081905550806003600082825403925050819055507f9d7b6228054d3633be8cd708771f400e539e62d2df76aca71f3d8b0eb287eb2481600554604051808381526020018281526020019250505060405180910390a150565b6000600160149054906101000a900460ff1661083a576040517f08c379a00000000000000000000000000000000000000000000000000000000081526004018080602001828103825260188152602001807f4275726e6572206973206e6f742066756e64656420796574000000000000000081525060200191505060405180910390fd5b600354905090565b61084a611035565b73ffffffffffffffffffffffffffffffffffffffff1660008054906101000a900473ffffffffffffffffffffffffffffffffffffffff1673ffffffffffffffffffffffffffffffffffffffff161461090a576040517f08c379a00000000000000000000000000000000000000000000000000000000081526004018080602001828103825260208152602001807f4f776e61626c653a2063616c6c6572206973206e6f7420746865206f776e657281525060200191505060405180910390fd5b600073ffffffffffffffffffffffffffffffffffffffff1660008054906101000a900473ffffffffffffffffffffffffffffffffffffffff1673ffffffffffffffffffffffffffffffffffffffff167f8be0079c531659141344cd1fd0a4f28419497f9722a3daafe3b4186f6b6457e060405160405180910390a360008060006101000a81548173ffffffffffffffffffffffffffffffffffffffff021916908373ffffffffffffffffffffffffffffffffffffffff160217905550565b60045481565b600160149054906101000a900460ff1681565b60008060009054906101000a900473ffffffffffffffffffffffffffffffffffffffff16905090565b600160009054906101000a900473ffffffffffffffffffffffffffffffffffffffff1681565b60007f0000000000000000000000000000000000000000000000000000000000000000905090565b6000600160149054906101000a900460ff16610adc576040517f08c379a00000000000000000000000000000000000000000000000000000000081526004018080602001828103825260188152602001807f4275726e6572206973206e6f742066756e64656420796574000000000000000081525060200191505060405180910390fd5b600654905090565b6000600454905090565b610af6611035565b73ffffffffffffffffffffffffffffffffffffffff1660008054906101000a900473ffffffffffffffffffffffffffffffffffffffff1673ffffffffffffffffffffffffffffffffffffffff1614610bb6576040517f08c379a00000000000000000000000000000000000000000000000000000000081526004018080602001828103825260208152602001807f4f776e61626c653a2063616c6c6572206973206e6f7420746865206f776e657281525060200191505060405180910390fd5b60001515600160149054906101000a900460ff16151514610bd657600080fd5b6004544210610be457600080fd5b6969e10de76676d08000008114610bfa57600080fd5b600160009054906101000a900473ffffffffffffffffffffffffffffffffffffffff1673ffffffffffffffffffffffffffffffffffffffff1663a9059cbb30836040518363ffffffff1660e01b8152600401808373ffffffffffffffffffffffffffffffffffffffff16815260200182815260200192505050602060405180830381600087803b158015610c8d57600080fd5b505af1158015610ca1573d6000803e3d6000fd5b505050506040513d6020811015610cb757600080fd5b81019080805190602001909291905050505060018060146101000a81548160ff02191690831515021790555080600281905550806003600082825401925050819055507f73d856f5acf4bb0dfcc775791dbf5aa882b81951d141781124f00428c3075eb78142604051808381526020018281526020019250505060405180910390a150565b60008073ffffffffffffffffffffffffffffffffffffffff16600160009054906101000a900473ffffffffffffffffffffffffffffffffffffffff1673ffffffffffffffffffffffffffffffffffffffff161415610de5576040517f08c379a000000000000000000000000000000000000000000000000000000000815260040180806020018281038252603881526020018061103e6038913960400191505060405180910390fd5b600160009054906101000a900473ffffffffffffffffffffffffffffffffffffffff16905090565b60065481565b6000600160149054906101000a900460ff16905090565b610e32611035565b73ffffffffffffffffffffffffffffffffffffffff1660008054906101000a900473ffffffffffffffffffffffffffffffffffffffff1673ffffffffffffffffffffffffffffffffffffffff1614610ef2576040517f08c379a00000000000000000000000000000000000000000000000000000000081526004018080602001828103825260208152602001807f4f776e61626c653a2063616c6c6572206973206e6f7420746865206f776e657281525060200191505060405180910390fd5b600073ffffffffffffffffffffffffffffffffffffffff168173ffffffffffffffffffffffffffffffffffffffff161415610f78576040517f08c379a00000000000000000000000000000000000000000000000000000000081526004018080602001828103825260268152602001806110766026913960400191505060405180910390fd5b8073ffffffffffffffffffffffffffffffffffffffff1660008054906101000a900473ffffffffffffffffffffffffffffffffffffffff1673ffffffffffffffffffffffffffffffffffffffff167f8be0079c531659141344cd1fd0a4f28419497f9722a3daafe3b4186f6b6457e060405160405180910390a3806000806101000a81548173ffffffffffffffffffffffffffffffffffffffff021916908373ffffffffffffffffffffffffffffffffffffffff16021790555050565b60003390509056fe2e2e2e486f772064696420796f75206465706c6f7920776974686f75742073657474696e672074686520642e45544820616464726573733f4f776e61626c653a206e6577206f776e657220697320746865207a65726f2061646472657373644554482063616e206f6e6c79206265206275726e6564206f6e636520616e20686f7572a26469706673582212201d1846b5f4fdecd98d712195152c5f4cf7c9f55da6f138ebf8388e3c5dcd187d64736f6c634300060c0033",
					"opcodes": "PUSH1 0xA0 PUSH1 0x40 MSTORE PUSH2 0xDEAD PUSH20 0xFFFFFFFFFFFFFFFFFFFFFFFFFFFFFFFFFFFFFFFF AND PUSH1 0x80 SWAP1 PUSH20 0xFFFFFFFFFFFFFFFFFFFFFFFFFFFFFFFFFFFFFFFF AND PUSH1 0x60 SHL DUP2 MSTORE POP PUSH1 0x0 PUSH1 0x1 PUSH1 0x14 PUSH2 0x100 EXP DUP2 SLOAD DUP2 PUSH1 0xFF MUL NOT AND SWAP1 DUP4 ISZERO ISZERO MUL OR SWAP1 SSTORE POP PUSH1 0x0 PUSH1 0x2 SSTORE PUSH1 0x0 PUSH1 0x5 SSTORE PUSH1 0x0 PUSH1 0x6 SSTORE CALLVALUE DUP1 ISZERO PUSH2 0x72 JUMPI PUSH1 0x0 DUP1 REVERT JUMPDEST POP PUSH1 0x40 MLOAD PUSH2 0x12D1 CODESIZE SUB DUP1 PUSH2 0x12D1 DUP4 CODECOPY DUP2 DUP2 ADD PUSH1 0x40 MSTORE PUSH1 0x40 DUP2 LT ISZERO PUSH2 0x95 JUMPI PUSH1 0x0 DUP1 REVERT JUMPDEST DUP2 ADD SWAP1 DUP1 DUP1 MLOAD SWAP1 PUSH1 0x20 ADD SWAP1 SWAP3 SWAP2 SWAP1 DUP1 MLOAD SWAP1 PUSH1 0x20 ADD SWAP1 SWAP3 SWAP2 SWAP1 POP POP POP PUSH1 0x0 PUSH2 0xC0 PUSH2 0x1AD PUSH1 0x20 SHL PUSH1 0x20 SHR JUMP JUMPDEST SWAP1 POP DUP1 PUSH1 0x0 DUP1 PUSH2 0x100 EXP DUP2 SLOAD DUP2 PUSH20 0xFFFFFFFFFFFFFFFFFFFFFFFFFFFFFFFFFFFFFFFF MUL NOT AND SWAP1 DUP4 PUSH20 0xFFFFFFFFFFFFFFFFFFFFFFFFFFFFFFFFFFFFFFFF AND MUL OR SWAP1 SSTORE POP DUP1 PUSH20 0xFFFFFFFFFFFFFFFFFFFFFFFFFFFFFFFFFFFFFFFF AND PUSH1 0x0 PUSH20 0xFFFFFFFFFFFFFFFFFFFFFFFFFFFFFFFFFFFFFFFF AND PUSH32 0x8BE0079C531659141344CD1FD0A4F28419497F9722A3DAAFE3B4186F6B6457E0 PUSH1 0x40 MLOAD PUSH1 0x40 MLOAD DUP1 SWAP2 SUB SWAP1 LOG3 POP DUP2 PUSH1 0x1 PUSH1 0x0 PUSH2 0x100 EXP DUP2 SLOAD DUP2 PUSH20 0xFFFFFFFFFFFFFFFFFFFFFFFFFFFFFFFFFFFFFFFF MUL NOT AND SWAP1 DUP4 PUSH20 0xFFFFFFFFFFFFFFFFFFFFFFFFFFFFFFFFFFFFFFFF AND MUL OR SWAP1 SSTORE POP DUP1 PUSH1 0x4 DUP2 SWAP1 SSTORE POP POP POP PUSH2 0x1B5 JUMP JUMPDEST PUSH1 0x0 CALLER SWAP1 POP SWAP1 JUMP JUMPDEST PUSH1 0x80 MLOAD PUSH1 0x60 SHR PUSH2 0x10F5 PUSH2 0x1DC PUSH1 0x0 CODECOPY DUP1 PUSH2 0x4CB MSTORE DUP1 PUSH2 0x69C MSTORE DUP1 PUSH2 0xA34 MSTORE POP PUSH2 0x10F5 PUSH1 0x0 RETURN INVALID PUSH1 0x80 PUSH1 0x40 MSTORE PUSH1 0x4 CALLDATASIZE LT PUSH2 0x114 JUMPI PUSH1 0x0 CALLDATALOAD PUSH1 0xE0 SHR DUP1 PUSH4 0x8DA5CB5B GT PUSH2 0xA0 JUMPI DUP1 PUSH4 0xCA1D209D GT PUSH2 0x64 JUMPI DUP1 PUSH4 0xCA1D209D EQ PUSH2 0x3A5 JUMPI DUP1 PUSH4 0xCD066E45 EQ PUSH2 0x3D3 JUMPI DUP1 PUSH4 0xD89135CD EQ PUSH2 0x414 JUMPI DUP1 PUSH4 0xF0F2D413 EQ PUSH2 0x43F JUMPI DUP1 PUSH4 0xF2FDE38B EQ PUSH2 0x46C JUMPI PUSH2 0x114 JUMP JUMPDEST DUP1 PUSH4 0x8DA5CB5B EQ PUSH2 0x28C JUMPI DUP1 PUSH4 0x9020E645 EQ PUSH2 0x2CD JUMPI DUP1 PUSH4 0xB0FEB130 EQ PUSH2 0x30E JUMPI DUP1 PUSH4 0xB55CD04B EQ PUSH2 0x34F JUMPI DUP1 PUSH4 0xC828371E EQ PUSH2 0x37A JUMPI PUSH2 0x114 JUMP JUMPDEST DUP1 PUSH4 0x44DF8E70 GT PUSH2 0xE7 JUMPI DUP1 PUSH4 0x44DF8E70 EQ PUSH2 0x1DB JUMPI DUP1 PUSH4 0x6C9C2FAF EQ PUSH2 0x1F2 JUMPI DUP1 PUSH4 0x715018A6 EQ PUSH2 0x21D JUMPI DUP1 PUSH4 0x78E97925 EQ PUSH2 0x234 JUMPI DUP1 PUSH4 0x7C654303 EQ PUSH2 0x25F JUMPI PUSH2 0x114 JUMP JUMPDEST DUP1 PUSH4 0x47FC9AA EQ PUSH2 0x119 JUMPI DUP1 PUSH4 0x4A79C97 EQ PUSH2 0x144 JUMPI DUP1 PUSH4 0x27C8F835 EQ PUSH2 0x16F JUMPI DUP1 PUSH4 0x3D4B5CC6 EQ PUSH2 0x1B0 JUMPI JUMPDEST PUSH1 0x0 DUP1 REVERT JUMPDEST CALLVALUE DUP1 ISZERO PUSH2 0x125 JUMPI PUSH1 0x0 DUP1 REVERT JUMPDEST POP PUSH2 0x12E PUSH2 0x4BD JUMP JUMPDEST PUSH1 0x40 MLOAD DUP1 DUP3 DUP2 MSTORE PUSH1 0x20 ADD SWAP2 POP POP PUSH1 0x40 MLOAD DUP1 SWAP2 SUB SWAP1 RETURN JUMPDEST CALLVALUE DUP1 ISZERO PUSH2 0x150 JUMPI PUSH1 0x0 DUP1 REVERT JUMPDEST POP PUSH2 0x159 PUSH2 0x4C3 JUMP JUMPDEST PUSH1 0x40 MLOAD DUP1 DUP3 DUP2 MSTORE PUSH1 0x20 ADD SWAP2 POP POP PUSH1 0x40 MLOAD DUP1 SWAP2 SUB SWAP1 RETURN JUMPDEST CALLVALUE DUP1 ISZERO PUSH2 0x17B JUMPI PUSH1 0x0 DUP1 REVERT JUMPDEST POP PUSH2 0x184 PUSH2 0x4C9 JUMP JUMPDEST PUSH1 0x40 MLOAD DUP1 DUP3 PUSH20 0xFFFFFFFFFFFFFFFFFFFFFFFFFFFFFFFFFFFFFFFF AND DUP2 MSTORE PUSH1 0x20 ADD SWAP2 POP POP PUSH1 0x40 MLOAD DUP1 SWAP2 SUB SWAP1 RETURN JUMPDEST CALLVALUE DUP1 ISZERO PUSH2 0x1BC JUMPI PUSH1 0x0 DUP1 REVERT JUMPDEST POP PUSH2 0x1C5 PUSH2 0x4ED JUMP JUMPDEST PUSH1 0x40 MLOAD DUP1 DUP3 DUP2 MSTORE PUSH1 0x20 ADD SWAP2 POP POP PUSH1 0x40 MLOAD DUP1 SWAP2 SUB SWAP1 RETURN JUMPDEST CALLVALUE DUP1 ISZERO PUSH2 0x1E7 JUMPI PUSH1 0x0 DUP1 REVERT JUMPDEST POP PUSH2 0x1F0 PUSH2 0x4F3 JUMP JUMPDEST STOP JUMPDEST CALLVALUE DUP1 ISZERO PUSH2 0x1FE JUMPI PUSH1 0x0 DUP1 REVERT JUMPDEST POP PUSH2 0x207 PUSH2 0x7B6 JUMP JUMPDEST PUSH1 0x40 MLOAD DUP1 DUP3 DUP2 MSTORE PUSH1 0x20 ADD SWAP2 POP POP PUSH1 0x40 MLOAD DUP1 SWAP2 SUB SWAP1 RETURN JUMPDEST CALLVALUE DUP1 ISZERO PUSH2 0x229 JUMPI PUSH1 0x0 DUP1 REVERT JUMPDEST POP PUSH2 0x232 PUSH2 0x842 JUMP JUMPDEST STOP JUMPDEST CALLVALUE DUP1 ISZERO PUSH2 0x240 JUMPI PUSH1 0x0 DUP1 REVERT JUMPDEST POP PUSH2 0x249 PUSH2 0x9C8 JUMP JUMPDEST PUSH1 0x40 MLOAD DUP1 DUP3 DUP2 MSTORE PUSH1 0x20 ADD SWAP2 POP POP PUSH1 0x40 MLOAD DUP1 SWAP2 SUB SWAP1 RETURN JUMPDEST CALLVALUE DUP1 ISZERO PUSH2 0x26B JUMPI PUSH1 0x0 DUP1 REVERT JUMPDEST POP PUSH2 0x274 PUSH2 0x9CE JUMP JUMPDEST PUSH1 0x40 MLOAD DUP1 DUP3 ISZERO ISZERO DUP2 MSTORE PUSH1 0x20 ADD SWAP2 POP POP PUSH1 0x40 MLOAD DUP1 SWAP2 SUB SWAP1 RETURN JUMPDEST CALLVALUE DUP1 ISZERO PUSH2 0x298 JUMPI PUSH1 0x0 DUP1 REVERT JUMPDEST POP PUSH2 0x2A1 PUSH2 0x9E1 JUMP JUMPDEST PUSH1 0x40 MLOAD DUP1 DUP3 PUSH20 0xFFFFFFFFFFFFFFFFFFFFFFFFFFFFFFFFFFFFFFFF AND DUP2 MSTORE PUSH1 0x20 ADD SWAP2 POP POP PUSH1 0x40 MLOAD DUP1 SWAP2 SUB SWAP1 RETURN JUMPDEST CALLVALUE DUP1 ISZERO PUSH2 0x2D9 JUMPI PUSH1 0x0 DUP1 REVERT JUMPDEST POP PUSH2 0x2E2 PUSH2 0xA0A JUMP JUMPDEST PUSH1 0x40 MLOAD DUP1 DUP3 PUSH20 0xFFFFFFFFFFFFFFFFFFFFFFFFFFFFFFFFFFFFFFFF AND DUP2 MSTORE PUSH1 0x20 ADD SWAP2 POP POP PUSH1 0x40 MLOAD DUP1 SWAP2 SUB SWAP1 RETURN JUMPDEST CALLVALUE DUP1 ISZERO PUSH2 0x31A JUMPI PUSH1 0x0 DUP1 REVERT JUMPDEST POP PUSH2 0x323 PUSH2 0xA30 JUMP JUMPDEST PUSH1 0x40 MLOAD DUP1 DUP3 PUSH20 0xFFFFFFFFFFFFFFFFFFFFFFFFFFFFFFFFFFFFFFFF AND DUP2 MSTORE PUSH1 0x20 ADD SWAP2 POP POP PUSH1 0x40 MLOAD DUP1 SWAP2 SUB SWAP1 RETURN JUMPDEST CALLVALUE DUP1 ISZERO PUSH2 0x35B JUMPI PUSH1 0x0 DUP1 REVERT JUMPDEST POP PUSH2 0x364 PUSH2 0xA58 JUMP JUMPDEST PUSH1 0x40 MLOAD DUP1 DUP3 DUP2 MSTORE PUSH1 0x20 ADD SWAP2 POP POP PUSH1 0x40 MLOAD DUP1 SWAP2 SUB SWAP1 RETURN JUMPDEST CALLVALUE DUP1 ISZERO PUSH2 0x386 JUMPI PUSH1 0x0 DUP1 REVERT JUMPDEST POP PUSH2 0x38F PUSH2 0xAE4 JUMP JUMPDEST PUSH1 0x40 MLOAD DUP1 DUP3 DUP2 MSTORE PUSH1 0x20 ADD SWAP2 POP POP PUSH1 0x40 MLOAD DUP1 SWAP2 SUB SWAP1 RETURN JUMPDEST PUSH2 0x3D1 PUSH1 0x4 DUP1 CALLDATASIZE SUB PUSH1 0x20 DUP2 LT ISZERO PUSH2 0x3BB JUMPI PUSH1 0x0 DUP1 REVERT JUMPDEST DUP2 ADD SWAP1 DUP1 DUP1 CALLDATALOAD SWAP1 PUSH1 0x20 ADD SWAP1 SWAP3 SWAP2 SWAP1 POP POP POP PUSH2 0xAEE JUMP JUMPDEST STOP JUMPDEST CALLVALUE DUP1 ISZERO PUSH2 0x3DF JUMPI PUSH1 0x0 DUP1 REVERT JUMPDEST POP PUSH2 0x3E8 PUSH2 0xD3C JUMP JUMPDEST PUSH1 0x40 MLOAD DUP1 DUP3 PUSH20 0xFFFFFFFFFFFFFFFFFFFFFFFFFFFFFFFFFFFFFFFF AND DUP2 MSTORE PUSH1 0x20 ADD SWAP2 POP POP PUSH1 0x40 MLOAD DUP1 SWAP2 SUB SWAP1 RETURN JUMPDEST CALLVALUE DUP1 ISZERO PUSH2 0x420 JUMPI PUSH1 0x0 DUP1 REVERT JUMPDEST POP PUSH2 0x429 PUSH2 0xE0D JUMP JUMPDEST PUSH1 0x40 MLOAD DUP1 DUP3 DUP2 MSTORE PUSH1 0x20 ADD SWAP2 POP POP PUSH1 0x40 MLOAD DUP1 SWAP2 SUB SWAP1 RETURN JUMPDEST CALLVALUE DUP1 ISZERO PUSH2 0x44B JUMPI PUSH1 0x0 DUP1 REVERT JUMPDEST POP PUSH2 0x454 PUSH2 0xE13 JUMP JUMPDEST PUSH1 0x40 MLOAD DUP1 DUP3 ISZERO ISZERO DUP2 MSTORE PUSH1 0x20 ADD SWAP2 POP POP PUSH1 0x40 MLOAD DUP1 SWAP2 SUB SWAP1 RETURN JUMPDEST CALLVALUE DUP1 ISZERO PUSH2 0x478 JUMPI PUSH1 0x0 DUP1 REVERT JUMPDEST POP PUSH2 0x4BB PUSH1 0x4 DUP1 CALLDATASIZE SUB PUSH1 0x20 DUP2 LT ISZERO PUSH2 0x48F JUMPI PUSH1 0x0 DUP1 REVERT JUMPDEST DUP2 ADD SWAP1 DUP1 DUP1 CALLDATALOAD PUSH20 0xFFFFFFFFFFFFFFFFFFFFFFFFFFFFFFFFFFFFFFFF AND SWAP1 PUSH1 0x20 ADD SWAP1 SWAP3 SWAP2 SWAP1 POP POP POP PUSH2 0xE2A JUMP JUMPDEST STOP JUMPDEST PUSH1 0x3 SLOAD DUP2 JUMP JUMPDEST PUSH1 0x2 SLOAD DUP2 JUMP JUMPDEST PUSH32 0x0 DUP2 JUMP JUMPDEST PUSH1 0x5 SLOAD DUP2 JUMP JUMPDEST PUSH1 0x1 PUSH1 0x14 SWAP1 SLOAD SWAP1 PUSH2 0x100 EXP SWAP1 DIV PUSH1 0xFF AND PUSH2 0x575 JUMPI PUSH1 0x40 MLOAD PUSH32 0x8C379A000000000000000000000000000000000000000000000000000000000 DUP2 MSTORE PUSH1 0x4 ADD DUP1 DUP1 PUSH1 0x20 ADD DUP3 DUP2 SUB DUP3 MSTORE PUSH1 0x18 DUP2 MSTORE PUSH1 0x20 ADD DUP1 PUSH32 0x4275726E6572206973206E6F742066756E646564207965740000000000000000 DUP2 MSTORE POP PUSH1 0x20 ADD SWAP2 POP POP PUSH1 0x40 MLOAD DUP1 SWAP2 SUB SWAP1 REVERT JUMPDEST PUSH1 0x4 SLOAD TIMESTAMP GT PUSH2 0x5EC JUMPI PUSH1 0x40 MLOAD PUSH32 0x8C379A000000000000000000000000000000000000000000000000000000000 DUP2 MSTORE PUSH1 0x4 ADD DUP1 DUP1 PUSH1 0x20 ADD DUP3 DUP2 SUB DUP3 MSTORE PUSH1 0x19 DUP2 MSTORE PUSH1 0x20 ADD DUP1 PUSH32 0x4275726E6572206973206E6F7420796574207374617274656400000000000000 DUP2 MSTORE POP PUSH1 0x20 ADD SWAP2 POP POP PUSH1 0x40 MLOAD DUP1 SWAP2 SUB SWAP1 REVERT JUMPDEST PUSH2 0xE10 PUSH1 0x5 SLOAD TIMESTAMP SUB GT PUSH2 0x64A JUMPI PUSH1 0x40 MLOAD PUSH32 0x8C379A000000000000000000000000000000000000000000000000000000000 DUP2 MSTORE PUSH1 0x4 ADD DUP1 DUP1 PUSH1 0x20 ADD DUP3 DUP2 SUB DUP3 MSTORE PUSH1 0x24 DUP2 MSTORE PUSH1 0x20 ADD DUP1 PUSH2 0x109C PUSH1 0x24 SWAP2 CODECOPY PUSH1 0x40 ADD SWAP2 POP POP PUSH1 0x40 MLOAD DUP1 SWAP2 SUB SWAP1 REVERT JUMPDEST PUSH1 0x0 PUSH2 0x2238 PUSH1 0x2 SLOAD DUP2 PUSH2 0x659 JUMPI INVALID JUMPDEST DIV SWAP1 POP PUSH1 0x1 PUSH1 0x0 SWAP1 SLOAD SWAP1 PUSH2 0x100 EXP SWAP1 DIV PUSH20 0xFFFFFFFFFFFFFFFFFFFFFFFFFFFFFFFFFFFFFFFF AND PUSH20 0xFFFFFFFFFFFFFFFFFFFFFFFFFFFFFFFFFFFFFFFF AND PUSH4 0xA9059CBB PUSH32 0x0 DUP4 PUSH1 0x40 MLOAD DUP4 PUSH4 0xFFFFFFFF AND PUSH1 0xE0 SHL DUP2 MSTORE PUSH1 0x4 ADD DUP1 DUP4 PUSH20 0xFFFFFFFFFFFFFFFFFFFFFFFFFFFFFFFFFFFFFFFF AND DUP2 MSTORE PUSH1 0x20 ADD DUP3 DUP2 MSTORE PUSH1 0x20 ADD SWAP3 POP POP POP PUSH1 0x20 PUSH1 0x40 MLOAD DUP1 DUP4 SUB DUP2 PUSH1 0x0 DUP8 DUP1 EXTCODESIZE ISZERO DUP1 ISZERO PUSH2 0x70F JUMPI PUSH1 0x0 DUP1 REVERT JUMPDEST POP GAS CALL ISZERO DUP1 ISZERO PUSH2 0x723 JUMPI RETURNDATASIZE PUSH1 0x0 DUP1 RETURNDATACOPY RETURNDATASIZE PUSH1 0x0 REVERT JUMPDEST POP POP POP POP PUSH1 0x40 MLOAD RETURNDATASIZE PUSH1 0x20 DUP2 LT ISZERO PUSH2 0x739 JUMPI PUSH1 0x0 DUP1 REVERT JUMPDEST DUP2 ADD SWAP1 DUP1 DUP1 MLOAD SWAP1 PUSH1 0x20 ADD SWAP1 SWAP3 SWAP2 SWAP1 POP POP POP POP TIMESTAMP PUSH1 0x5 DUP2 SWAP1 SSTORE POP DUP1 PUSH1 0x6 PUSH1 0x0 DUP3 DUP3 SLOAD ADD SWAP3 POP POP DUP2 SWAP1 SSTORE POP DUP1 PUSH1 0x3 PUSH1 0x0 DUP3 DUP3 SLOAD SUB SWAP3 POP POP DUP2 SWAP1 SSTORE POP PUSH32 0x9D7B6228054D3633BE8CD708771F400E539E62D2DF76ACA71F3D8B0EB287EB24 DUP2 PUSH1 0x5 SLOAD PUSH1 0x40 MLOAD DUP1 DUP4 DUP2 MSTORE PUSH1 0x20 ADD DUP3 DUP2 MSTORE PUSH1 0x20 ADD SWAP3 POP POP POP PUSH1 0x40 MLOAD DUP1 SWAP2 SUB SWAP1 LOG1 POP JUMP JUMPDEST PUSH1 0x0 PUSH1 0x1 PUSH1 0x14 SWAP1 SLOAD SWAP1 PUSH2 0x100 EXP SWAP1 DIV PUSH1 0xFF AND PUSH2 0x83A JUMPI PUSH1 0x40 MLOAD PUSH32 0x8C379A000000000000000000000000000000000000000000000000000000000 DUP2 MSTORE PUSH1 0x4 ADD DUP1 DUP1 PUSH1 0x20 ADD DUP3 DUP2 SUB DUP3 MSTORE PUSH1 0x18 DUP2 MSTORE PUSH1 0x20 ADD DUP1 PUSH32 0x4275726E6572206973206E6F742066756E646564207965740000000000000000 DUP2 MSTORE POP PUSH1 0x20 ADD SWAP2 POP POP PUSH1 0x40 MLOAD DUP1 SWAP2 SUB SWAP1 REVERT JUMPDEST PUSH1 0x3 SLOAD SWAP1 POP SWAP1 JUMP JUMPDEST PUSH2 0x84A PUSH2 0x1035 JUMP JUMPDEST PUSH20 0xFFFFFFFFFFFFFFFFFFFFFFFFFFFFFFFFFFFFFFFF AND PUSH1 0x0 DUP1 SLOAD SWAP1 PUSH2 0x100 EXP SWAP1 DIV PUSH20 0xFFFFFFFFFFFFFFFFFFFFFFFFFFFFFFFFFFFFFFFF AND PUSH20 0xFFFFFFFFFFFFFFFFFFFFFFFFFFFFFFFFFFFFFFFF AND EQ PUSH2 0x90A JUMPI PUSH1 0x40 MLOAD PUSH32 0x8C379A000000000000000000000000000000000000000000000000000000000 DUP2 MSTORE PUSH1 0x4 ADD DUP1 DUP1 PUSH1 0x20 ADD DUP3 DUP2 SUB DUP3 MSTORE PUSH1 0x20 DUP2 MSTORE PUSH1 0x20 ADD DUP1 PUSH32 0x4F776E61626C653A2063616C6C6572206973206E6F7420746865206F776E6572 DUP2 MSTORE POP PUSH1 0x20 ADD SWAP2 POP POP PUSH1 0x40 MLOAD DUP1 SWAP2 SUB SWAP1 REVERT JUMPDEST PUSH1 0x0 PUSH20 0xFFFFFFFFFFFFFFFFFFFFFFFFFFFFFFFFFFFFFFFF AND PUSH1 0x0 DUP1 SLOAD SWAP1 PUSH2 0x100 EXP SWAP1 DIV PUSH20 0xFFFFFFFFFFFFFFFFFFFFFFFFFFFFFFFFFFFFFFFF AND PUSH20 0xFFFFFFFFFFFFFFFFFFFFFFFFFFFFFFFFFFFFFFFF AND PUSH32 0x8BE0079C531659141344CD1FD0A4F28419497F9722A3DAAFE3B4186F6B6457E0 PUSH1 0x40 MLOAD PUSH1 0x40 MLOAD DUP1 SWAP2 SUB SWAP1 LOG3 PUSH1 0x0 DUP1 PUSH1 0x0 PUSH2 0x100 EXP DUP2 SLOAD DUP2 PUSH20 0xFFFFFFFFFFFFFFFFFFFFFFFFFFFFFFFFFFFFFFFF MUL NOT AND SWAP1 DUP4 PUSH20 0xFFFFFFFFFFFFFFFFFFFFFFFFFFFFFFFFFFFFFFFF AND MUL OR SWAP1 SSTORE POP JUMP JUMPDEST PUSH1 0x4 SLOAD DUP2 JUMP JUMPDEST PUSH1 0x1 PUSH1 0x14 SWAP1 SLOAD SWAP1 PUSH2 0x100 EXP SWAP1 DIV PUSH1 0xFF AND DUP2 JUMP JUMPDEST PUSH1 0x0 DUP1 PUSH1 0x0 SWAP1 SLOAD SWAP1 PUSH2 0x100 EXP SWAP1 DIV PUSH20 0xFFFFFFFFFFFFFFFFFFFFFFFFFFFFFFFFFFFFFFFF AND SWAP1 POP SWAP1 JUMP JUMPDEST PUSH1 0x1 PUSH1 0x0 SWAP1 SLOAD SWAP1 PUSH2 0x100 EXP SWAP1 DIV PUSH20 0xFFFFFFFFFFFFFFFFFFFFFFFFFFFFFFFFFFFFFFFF AND DUP2 JUMP JUMPDEST PUSH1 0x0 PUSH32 0x0 SWAP1 POP SWAP1 JUMP JUMPDEST PUSH1 0x0 PUSH1 0x1 PUSH1 0x14 SWAP1 SLOAD SWAP1 PUSH2 0x100 EXP SWAP1 DIV PUSH1 0xFF AND PUSH2 0xADC JUMPI PUSH1 0x40 MLOAD PUSH32 0x8C379A000000000000000000000000000000000000000000000000000000000 DUP2 MSTORE PUSH1 0x4 ADD DUP1 DUP1 PUSH1 0x20 ADD DUP3 DUP2 SUB DUP3 MSTORE PUSH1 0x18 DUP2 MSTORE PUSH1 0x20 ADD DUP1 PUSH32 0x4275726E6572206973206E6F742066756E646564207965740000000000000000 DUP2 MSTORE POP PUSH1 0x20 ADD SWAP2 POP POP PUSH1 0x40 MLOAD DUP1 SWAP2 SUB SWAP1 REVERT JUMPDEST PUSH1 0x6 SLOAD SWAP1 POP SWAP1 JUMP JUMPDEST PUSH1 0x0 PUSH1 0x4 SLOAD SWAP1 POP SWAP1 JUMP JUMPDEST PUSH2 0xAF6 PUSH2 0x1035 JUMP JUMPDEST PUSH20 0xFFFFFFFFFFFFFFFFFFFFFFFFFFFFFFFFFFFFFFFF AND PUSH1 0x0 DUP1 SLOAD SWAP1 PUSH2 0x100 EXP SWAP1 DIV PUSH20 0xFFFFFFFFFFFFFFFFFFFFFFFFFFFFFFFFFFFFFFFF AND PUSH20 0xFFFFFFFFFFFFFFFFFFFFFFFFFFFFFFFFFFFFFFFF AND EQ PUSH2 0xBB6 JUMPI PUSH1 0x40 MLOAD PUSH32 0x8C379A000000000000000000000000000000000000000000000000000000000 DUP2 MSTORE PUSH1 0x4 ADD DUP1 DUP1 PUSH1 0x20 ADD DUP3 DUP2 SUB DUP3 MSTORE PUSH1 0x20 DUP2 MSTORE PUSH1 0x20 ADD DUP1 PUSH32 0x4F776E61626C653A2063616C6C6572206973206E6F7420746865206F776E6572 DUP2 MSTORE POP PUSH1 0x20 ADD SWAP2 POP POP PUSH1 0x40 MLOAD DUP1 SWAP2 SUB SWAP1 REVERT JUMPDEST PUSH1 0x0 ISZERO ISZERO PUSH1 0x1 PUSH1 0x14 SWAP1 SLOAD SWAP1 PUSH2 0x100 EXP SWAP1 DIV PUSH1 0xFF AND ISZERO ISZERO EQ PUSH2 0xBD6 JUMPI PUSH1 0x0 DUP1 REVERT JUMPDEST PUSH1 0x4 SLOAD TIMESTAMP LT PUSH2 0xBE4 JUMPI PUSH1 0x0 DUP1 REVERT JUMPDEST PUSH10 0x69E10DE76676D0800000 DUP2 EQ PUSH2 0xBFA JUMPI PUSH1 0x0 DUP1 REVERT JUMPDEST PUSH1 0x1 PUSH1 0x0 SWAP1 SLOAD SWAP1 PUSH2 0x100 EXP SWAP1 DIV PUSH20 0xFFFFFFFFFFFFFFFFFFFFFFFFFFFFFFFFFFFFFFFF AND PUSH20 0xFFFFFFFFFFFFFFFFFFFFFFFFFFFFFFFFFFFFFFFF AND PUSH4 0xA9059CBB ADDRESS DUP4 PUSH1 0x40 MLOAD DUP4 PUSH4 0xFFFFFFFF AND PUSH1 0xE0 SHL DUP2 MSTORE PUSH1 0x4 ADD DUP1 DUP4 PUSH20 0xFFFFFFFFFFFFFFFFFFFFFFFFFFFFFFFFFFFFFFFF AND DUP2 MSTORE PUSH1 0x20 ADD DUP3 DUP2 MSTORE PUSH1 0x20 ADD SWAP3 POP POP POP PUSH1 0x20 PUSH1 0x40 MLOAD DUP1 DUP4 SUB DUP2 PUSH1 0x0 DUP8 DUP1 EXTCODESIZE ISZERO DUP1 ISZERO PUSH2 0xC8D JUMPI PUSH1 0x0 DUP1 REVERT JUMPDEST POP GAS CALL ISZERO DUP1 ISZERO PUSH2 0xCA1 JUMPI RETURNDATASIZE PUSH1 0x0 DUP1 RETURNDATACOPY RETURNDATASIZE PUSH1 0x0 REVERT JUMPDEST POP POP POP POP PUSH1 0x40 MLOAD RETURNDATASIZE PUSH1 0x20 DUP2 LT ISZERO PUSH2 0xCB7 JUMPI PUSH1 0x0 DUP1 REVERT JUMPDEST DUP2 ADD SWAP1 DUP1 DUP1 MLOAD SWAP1 PUSH1 0x20 ADD SWAP1 SWAP3 SWAP2 SWAP1 POP POP POP POP PUSH1 0x1 DUP1 PUSH1 0x14 PUSH2 0x100 EXP DUP2 SLOAD DUP2 PUSH1 0xFF MUL NOT AND SWAP1 DUP4 ISZERO ISZERO MUL OR SWAP1 SSTORE POP DUP1 PUSH1 0x2 DUP2 SWAP1 SSTORE POP DUP1 PUSH1 0x3 PUSH1 0x0 DUP3 DUP3 SLOAD ADD SWAP3 POP POP DUP2 SWAP1 SSTORE POP PUSH32 0x73D856F5ACF4BB0DFCC775791DBF5AA882B81951D141781124F00428C3075EB7 DUP2 TIMESTAMP PUSH1 0x40 MLOAD DUP1 DUP4 DUP2 MSTORE PUSH1 0x20 ADD DUP3 DUP2 MSTORE PUSH1 0x20 ADD SWAP3 POP POP POP PUSH1 0x40 MLOAD DUP1 SWAP2 SUB SWAP1 LOG1 POP JUMP JUMPDEST PUSH1 0x0 DUP1 PUSH20 0xFFFFFFFFFFFFFFFFFFFFFFFFFFFFFFFFFFFFFFFF AND PUSH1 0x1 PUSH1 0x0 SWAP1 SLOAD SWAP1 PUSH2 0x100 EXP SWAP1 DIV PUSH20 0xFFFFFFFFFFFFFFFFFFFFFFFFFFFFFFFFFFFFFFFF AND PUSH20 0xFFFFFFFFFFFFFFFFFFFFFFFFFFFFFFFFFFFFFFFF AND EQ ISZERO PUSH2 0xDE5 JUMPI PUSH1 0x40 MLOAD PUSH32 0x8C379A000000000000000000000000000000000000000000000000000000000 DUP2 MSTORE PUSH1 0x4 ADD DUP1 DUP1 PUSH1 0x20 ADD DUP3 DUP2 SUB DUP3 MSTORE PUSH1 0x38 DUP2 MSTORE PUSH1 0x20 ADD DUP1 PUSH2 0x103E PUSH1 0x38 SWAP2 CODECOPY PUSH1 0x40 ADD SWAP2 POP POP PUSH1 0x40 MLOAD DUP1 SWAP2 SUB SWAP1 REVERT JUMPDEST PUSH1 0x1 PUSH1 0x0 SWAP1 SLOAD SWAP1 PUSH2 0x100 EXP SWAP1 DIV PUSH20 0xFFFFFFFFFFFFFFFFFFFFFFFFFFFFFFFFFFFFFFFF AND SWAP1 POP SWAP1 JUMP JUMPDEST PUSH1 0x6 SLOAD DUP2 JUMP JUMPDEST PUSH1 0x0 PUSH1 0x1 PUSH1 0x14 SWAP1 SLOAD SWAP1 PUSH2 0x100 EXP SWAP1 DIV PUSH1 0xFF AND SWAP1 POP SWAP1 JUMP JUMPDEST PUSH2 0xE32 PUSH2 0x1035 JUMP JUMPDEST PUSH20 0xFFFFFFFFFFFFFFFFFFFFFFFFFFFFFFFFFFFFFFFF AND PUSH1 0x0 DUP1 SLOAD SWAP1 PUSH2 0x100 EXP SWAP1 DIV PUSH20 0xFFFFFFFFFFFFFFFFFFFFFFFFFFFFFFFFFFFFFFFF AND PUSH20 0xFFFFFFFFFFFFFFFFFFFFFFFFFFFFFFFFFFFFFFFF AND EQ PUSH2 0xEF2 JUMPI PUSH1 0x40 MLOAD PUSH32 0x8C379A000000000000000000000000000000000000000000000000000000000 DUP2 MSTORE PUSH1 0x4 ADD DUP1 DUP1 PUSH1 0x20 ADD DUP3 DUP2 SUB DUP3 MSTORE PUSH1 0x20 DUP2 MSTORE PUSH1 0x20 ADD DUP1 PUSH32 0x4F776E61626C653A2063616C6C6572206973206E6F7420746865206F776E6572 DUP2 MSTORE POP PUSH1 0x20 ADD SWAP2 POP POP PUSH1 0x40 MLOAD DUP1 SWAP2 SUB SWAP1 REVERT JUMPDEST PUSH1 0x0 PUSH20 0xFFFFFFFFFFFFFFFFFFFFFFFFFFFFFFFFFFFFFFFF AND DUP2 PUSH20 0xFFFFFFFFFFFFFFFFFFFFFFFFFFFFFFFFFFFFFFFF AND EQ ISZERO PUSH2 0xF78 JUMPI PUSH1 0x40 MLOAD PUSH32 0x8C379A000000000000000000000000000000000000000000000000000000000 DUP2 MSTORE PUSH1 0x4 ADD DUP1 DUP1 PUSH1 0x20 ADD DUP3 DUP2 SUB DUP3 MSTORE PUSH1 0x26 DUP2 MSTORE PUSH1 0x20 ADD DUP1 PUSH2 0x1076 PUSH1 0x26 SWAP2 CODECOPY PUSH1 0x40 ADD SWAP2 POP POP PUSH1 0x40 MLOAD DUP1 SWAP2 SUB SWAP1 REVERT JUMPDEST DUP1 PUSH20 0xFFFFFFFFFFFFFFFFFFFFFFFFFFFFFFFFFFFFFFFF AND PUSH1 0x0 DUP1 SLOAD SWAP1 PUSH2 0x100 EXP SWAP1 DIV PUSH20 0xFFFFFFFFFFFFFFFFFFFFFFFFFFFFFFFFFFFFFFFF AND PUSH20 0xFFFFFFFFFFFFFFFFFFFFFFFFFFFFFFFFFFFFFFFF AND PUSH32 0x8BE0079C531659141344CD1FD0A4F28419497F9722A3DAAFE3B4186F6B6457E0 PUSH1 0x40 MLOAD PUSH1 0x40 MLOAD DUP1 SWAP2 SUB SWAP1 LOG3 DUP1 PUSH1 0x0 DUP1 PUSH2 0x100 EXP DUP2 SLOAD DUP2 PUSH20 0xFFFFFFFFFFFFFFFFFFFFFFFFFFFFFFFFFFFFFFFF MUL NOT AND SWAP1 DUP4 PUSH20 0xFFFFFFFFFFFFFFFFFFFFFFFFFFFFFFFFFFFFFFFF AND MUL OR SWAP1 SSTORE POP POP JUMP JUMPDEST PUSH1 0x0 CALLER SWAP1 POP SWAP1 JUMP INVALID 0x2E 0x2E 0x2E 0x48 PUSH16 0x772064696420796F75206465706C6F79 KECCAK256 PUSH24 0x6974686F75742073657474696E672074686520642E455448 KECCAK256 PUSH2 0x6464 PUSH19 0x6573733F4F776E61626C653A206E6577206F77 PUSH15 0x657220697320746865207A65726F20 PUSH2 0x6464 PUSH19 0x657373644554482063616E206F6E6C79206265 KECCAK256 PUSH3 0x75726E PUSH6 0x64206F6E6365 KECCAK256 PUSH2 0x6E20 PUSH9 0x6F7572A26469706673 PC 0x22 SLT KECCAK256 SAR XOR CHAINID 0xB5 DELEGATECALL REVERT 0xEC 0xD9 DUP14 PUSH18 0x2195152C5F4CF7C9F55DA6F138EBF8388E3C 0x5D 0xCD XOR PUSH30 0x64736F6C634300060C003300000000000000000000000000000000000000 "
				},
				"gasEstimates": {
					"creation": {
						"codeDepositCost": "868200",
						"executionCost": "infinite",
						"totalCost": "infinite"
					},
					"external": {
						"burn()": "infinite",
						"deadAddress()": "infinite",
						"dethAddress()": "1092",
						"fund(uint256)": "infinite",
						"fundingAmount()": "1051",
						"getDeadAddress()": "infinite",
						"getDethAddress()": "infinite",
						"getIsFunded()": "1193",
						"getStartTime()": "1124",
						"getSupply()": "1961",
						"getTotalBurned()": "2005",
						"isFunded()": "1208",
						"lastTimeBurned()": "1095",
						"owner()": "1078",
						"renounceOwnership()": "24358",
						"startTime()": "1094",
						"supply()": "1029",
						"totalBurned()": "1071",
						"transferOwnership(address)": "infinite"
					}
				},
				"methodIdentifiers": {
					"burn()": "44df8e70",
					"deadAddress()": "27c8f835",
					"dethAddress()": "9020e645",
					"fund(uint256)": "ca1d209d",
					"fundingAmount()": "04a79c97",
					"getDeadAddress()": "b0feb130",
					"getDethAddress()": "cd066e45",
					"getIsFunded()": "f0f2d413",
					"getStartTime()": "c828371e",
					"getSupply()": "6c9c2faf",
					"getTotalBurned()": "b55cd04b",
					"isFunded()": "7c654303",
					"lastTimeBurned()": "3d4b5cc6",
					"owner()": "8da5cb5b",
					"renounceOwnership()": "715018a6",
					"startTime()": "78e97925",
					"supply()": "047fc9aa",
					"totalBurned()": "d89135cd",
					"transferOwnership(address)": "f2fde38b"
				}
			},
			"storageLayout": {
				"storage": [
					{
						"astId": 544,
						"contract": "contracts/Burna.sol:Burna",
						"label": "_owner",
						"offset": 0,
						"slot": "0",
						"type": "t_address"
					},
					{
						"astId": 18,
						"contract": "contracts/Burna.sol:Burna",
						"label": "dethAddress",
						"offset": 0,
						"slot": "1",
						"type": "t_address"
					},
					{
						"astId": 21,
						"contract": "contracts/Burna.sol:Burna",
						"label": "isFunded",
						"offset": 20,
						"slot": "1",
						"type": "t_bool"
					},
					{
						"astId": 24,
						"contract": "contracts/Burna.sol:Burna",
						"label": "fundingAmount",
						"offset": 0,
						"slot": "2",
						"type": "t_uint256"
					},
					{
						"astId": 26,
						"contract": "contracts/Burna.sol:Burna",
						"label": "supply",
						"offset": 0,
						"slot": "3",
						"type": "t_uint256"
					},
					{
						"astId": 28,
						"contract": "contracts/Burna.sol:Burna",
						"label": "startTime",
						"offset": 0,
						"slot": "4",
						"type": "t_uint256"
					},
					{
						"astId": 31,
						"contract": "contracts/Burna.sol:Burna",
						"label": "lastTimeBurned",
						"offset": 0,
						"slot": "5",
						"type": "t_uint256"
					},
					{
						"astId": 34,
						"contract": "contracts/Burna.sol:Burna",
						"label": "totalBurned",
						"offset": 0,
						"slot": "6",
						"type": "t_uint256"
					}
				],
				"types": {
					"t_address": {
						"encoding": "inplace",
						"label": "address",
						"numberOfBytes": "20"
					},
					"t_bool": {
						"encoding": "inplace",
						"label": "bool",
						"numberOfBytes": "1"
					},
					"t_uint256": {
						"encoding": "inplace",
						"label": "uint256",
						"numberOfBytes": "32"
					}
				}
			},
			"userdoc": {
				"kind": "user",
				"methods": {},
				"version": 1
			}
		}
	}
}