{
	"contracts/Token.sol": {
		"dETH": {
			"abi": [
				{
					"inputs": [
						{
							"internalType": "address",
							"name": "treasure",
							"type": "address"
						},
						{
							"internalType": "address",
							"name": "router",
							"type": "address"
						}
					],
					"stateMutability": "nonpayable",
					"type": "constructor"
				},
				{
					"anonymous": false,
					"inputs": [
						{
							"indexed": true,
							"internalType": "address",
							"name": "owner",
							"type": "address"
						},
						{
							"indexed": true,
							"internalType": "address",
							"name": "spender",
							"type": "address"
						},
						{
							"indexed": false,
							"internalType": "uint256",
							"name": "value",
							"type": "uint256"
						}
					],
					"name": "Approval",
					"type": "event"
				},
				{
					"anonymous": false,
					"inputs": [
						{
							"indexed": true,
							"internalType": "address",
							"name": "previousOwner",
							"type": "address"
						},
						{
							"indexed": true,
							"internalType": "address",
							"name": "newOwner",
							"type": "address"
						}
					],
					"name": "OwnershipTransferred",
					"type": "event"
				},
				{
					"anonymous": false,
					"inputs": [
						{
							"indexed": false,
							"internalType": "uint256",
							"name": "amount",
							"type": "uint256"
						}
					],
					"name": "SendETHToFee",
					"type": "event"
				},
				{
					"anonymous": false,
					"inputs": [
						{
							"indexed": false,
							"internalType": "uint256",
							"name": "amountIn",
							"type": "uint256"
						},
						{
							"indexed": false,
							"internalType": "address[]",
							"name": "path",
							"type": "address[]"
						}
					],
					"name": "SwapETHForTokens",
					"type": "event"
				},
				{
					"anonymous": false,
					"inputs": [
						{
							"indexed": false,
							"internalType": "uint256",
							"name": "contractTokenBalance",
							"type": "uint256"
						},
						{
							"indexed": false,
							"internalType": "uint256",
							"name": "contractETHBalance",
							"type": "uint256"
						}
					],
					"name": "SwapTokens",
					"type": "event"
				},
				{
					"anonymous": false,
					"inputs": [
						{
							"indexed": false,
							"internalType": "uint256",
							"name": "amountIn",
							"type": "uint256"
						},
						{
							"indexed": false,
							"internalType": "address[]",
							"name": "path",
							"type": "address[]"
						}
					],
					"name": "SwapTokensForETH",
					"type": "event"
				},
				{
					"anonymous": false,
					"inputs": [
						{
							"indexed": true,
							"internalType": "address",
							"name": "from",
							"type": "address"
						},
						{
							"indexed": true,
							"internalType": "address",
							"name": "to",
							"type": "address"
						},
						{
							"indexed": false,
							"internalType": "uint256",
							"name": "value",
							"type": "uint256"
						}
					],
					"name": "Transfer",
					"type": "event"
				},
				{
					"inputs": [
						{
							"internalType": "address",
							"name": "account",
							"type": "address"
						}
					],
					"name": "_amnestySniper",
					"outputs": [],
					"stateMutability": "nonpayable",
					"type": "function"
				},
				{
					"inputs": [],
					"name": "_liquidityFee",
					"outputs": [
						{
							"internalType": "uint256",
							"name": "",
							"type": "uint256"
						}
					],
					"stateMutability": "view",
					"type": "function"
				},
				{
					"inputs": [
						{
							"internalType": "address",
							"name": "account",
							"type": "address"
						}
					],
					"name": "_removeSniper",
					"outputs": [],
					"stateMutability": "nonpayable",
					"type": "function"
				},
				{
					"inputs": [],
					"name": "_taxFee",
					"outputs": [
						{
							"internalType": "uint256",
							"name": "",
							"type": "uint256"
						}
					],
					"stateMutability": "view",
					"type": "function"
				},
				{
					"inputs": [
						{
							"internalType": "address",
							"name": "owner",
							"type": "address"
						},
						{
							"internalType": "address",
							"name": "spender",
							"type": "address"
						}
					],
					"name": "allowance",
					"outputs": [
						{
							"internalType": "uint256",
							"name": "",
							"type": "uint256"
						}
					],
					"stateMutability": "view",
					"type": "function"
				},
				{
					"inputs": [
						{
							"internalType": "address",
							"name": "spender",
							"type": "address"
						},
						{
							"internalType": "uint256",
							"name": "amount",
							"type": "uint256"
						}
					],
					"name": "approve",
					"outputs": [
						{
							"internalType": "bool",
							"name": "",
							"type": "bool"
						}
					],
					"stateMutability": "nonpayable",
					"type": "function"
				},
				{
					"inputs": [
						{
							"internalType": "address",
							"name": "account",
							"type": "address"
						}
					],
					"name": "balanceOf",
					"outputs": [
						{
							"internalType": "uint256",
							"name": "",
							"type": "uint256"
						}
					],
					"stateMutability": "view",
					"type": "function"
				},
				{
					"inputs": [],
					"name": "deadAddress",
					"outputs": [
						{
							"internalType": "address",
							"name": "",
							"type": "address"
						}
					],
					"stateMutability": "view",
					"type": "function"
				},
				{
					"inputs": [],
					"name": "decimals",
					"outputs": [
						{
							"internalType": "uint8",
							"name": "",
							"type": "uint8"
						}
					],
					"stateMutability": "view",
					"type": "function"
				},
				{
					"inputs": [
						{
							"internalType": "address",
							"name": "spender",
							"type": "address"
						},
						{
							"internalType": "uint256",
							"name": "subtractedValue",
							"type": "uint256"
						}
					],
					"name": "decreaseAllowance",
					"outputs": [
						{
							"internalType": "bool",
							"name": "",
							"type": "bool"
						}
					],
					"stateMutability": "nonpayable",
					"type": "function"
				},
				{
					"inputs": [
						{
							"internalType": "uint256",
							"name": "tAmount",
							"type": "uint256"
						}
					],
					"name": "deliver",
					"outputs": [],
					"stateMutability": "nonpayable",
					"type": "function"
				},
				{
					"inputs": [],
					"name": "emergencyWithdraw",
					"outputs": [],
					"stateMutability": "nonpayable",
					"type": "function"
				},
				{
					"inputs": [
						{
							"internalType": "address",
							"name": "account",
							"type": "address"
						}
					],
					"name": "excludeFromFee",
					"outputs": [],
					"stateMutability": "nonpayable",
					"type": "function"
				},
				{
					"inputs": [
						{
							"internalType": "address",
							"name": "account",
							"type": "address"
						}
					],
					"name": "excludeFromReward",
					"outputs": [],
					"stateMutability": "nonpayable",
					"type": "function"
				},
				{
					"inputs": [],
					"name": "getBlockTime",
					"outputs": [
						{
							"internalType": "uint256",
							"name": "",
							"type": "uint256"
						}
					],
					"stateMutability": "view",
					"type": "function"
				},
				{
					"inputs": [
						{
							"internalType": "address",
							"name": "account",
							"type": "address"
						}
					],
					"name": "includeInFee",
					"outputs": [],
					"stateMutability": "nonpayable",
					"type": "function"
				},
				{
					"inputs": [
						{
							"internalType": "address",
							"name": "account",
							"type": "address"
						}
					],
					"name": "includeInReward",
					"outputs": [],
					"stateMutability": "nonpayable",
					"type": "function"
				},
				{
					"inputs": [
						{
							"internalType": "address",
							"name": "spender",
							"type": "address"
						},
						{
							"internalType": "uint256",
							"name": "addedValue",
							"type": "uint256"
						}
					],
					"name": "increaseAllowance",
					"outputs": [
						{
							"internalType": "bool",
							"name": "",
							"type": "bool"
						}
					],
					"stateMutability": "nonpayable",
					"type": "function"
				},
				{
					"inputs": [
						{
							"internalType": "address",
							"name": "account",
							"type": "address"
						}
					],
					"name": "isExcludedFromFee",
					"outputs": [
						{
							"internalType": "bool",
							"name": "",
							"type": "bool"
						}
					],
					"stateMutability": "view",
					"type": "function"
				},
				{
					"inputs": [
						{
							"internalType": "address",
							"name": "account",
							"type": "address"
						}
					],
					"name": "isExcludedFromReward",
					"outputs": [
						{
							"internalType": "bool",
							"name": "",
							"type": "bool"
						}
					],
					"stateMutability": "view",
					"type": "function"
				},
				{
					"inputs": [
						{
							"internalType": "address",
							"name": "account",
							"type": "address"
						}
					],
					"name": "isRemovedSniper",
					"outputs": [
						{
							"internalType": "bool",
							"name": "",
							"type": "bool"
						}
					],
					"stateMutability": "view",
					"type": "function"
				},
				{
					"inputs": [],
					"name": "marketingAddress",
					"outputs": [
						{
							"internalType": "address payable",
							"name": "",
							"type": "address"
						}
					],
					"stateMutability": "view",
					"type": "function"
				},
				{
					"inputs": [],
					"name": "name",
					"outputs": [
						{
							"internalType": "string",
							"name": "",
							"type": "string"
						}
					],
					"stateMutability": "view",
					"type": "function"
				},
				{
					"inputs": [],
					"name": "openTrading",
					"outputs": [],
					"stateMutability": "nonpayable",
					"type": "function"
				},
				{
					"inputs": [],
					"name": "owner",
					"outputs": [
						{
							"internalType": "address",
							"name": "",
							"type": "address"
						}
					],
					"stateMutability": "view",
					"type": "function"
				},
				{
					"inputs": [
						{
							"internalType": "uint256",
							"name": "tAmount",
							"type": "uint256"
						},
						{
							"internalType": "bool",
							"name": "deductTransferFee",
							"type": "bool"
						}
					],
					"name": "reflectionFromToken",
					"outputs": [
						{
							"internalType": "uint256",
							"name": "",
							"type": "uint256"
						}
					],
					"stateMutability": "view",
					"type": "function"
				},
				{
					"inputs": [],
					"name": "renounceOwnership",
					"outputs": [],
					"stateMutability": "nonpayable",
					"type": "function"
				},
				{
					"inputs": [
						{
							"internalType": "uint256",
							"name": "rate",
							"type": "uint256"
						}
					],
					"name": "setFeeRate",
					"outputs": [],
					"stateMutability": "nonpayable",
					"type": "function"
				},
				{
					"inputs": [
						{
							"internalType": "uint256",
							"name": "liquidityFee",
							"type": "uint256"
						}
					],
					"name": "setLiquidityFeePercent",
					"outputs": [],
					"stateMutability": "nonpayable",
					"type": "function"
				},
				{
					"inputs": [
						{
							"internalType": "address",
							"name": "_marketingAddress",
							"type": "address"
						}
					],
					"name": "setMarketingAddress",
					"outputs": [],
					"stateMutability": "nonpayable",
					"type": "function"
				},
				{
					"inputs": [
						{
							"internalType": "uint256",
							"name": "taxFee",
							"type": "uint256"
						}
					],
					"name": "setTaxFeePercent",
					"outputs": [],
					"stateMutability": "nonpayable",
					"type": "function"
				},
				{
					"inputs": [],
					"name": "symbol",
					"outputs": [
						{
							"internalType": "string",
							"name": "",
							"type": "string"
						}
					],
					"stateMutability": "view",
					"type": "function"
				},
				{
					"inputs": [
						{
							"internalType": "uint256",
							"name": "rAmount",
							"type": "uint256"
						}
					],
					"name": "tokenFromReflection",
					"outputs": [
						{
							"internalType": "uint256",
							"name": "",
							"type": "uint256"
						}
					],
					"stateMutability": "view",
					"type": "function"
				},
				{
					"inputs": [],
					"name": "totalFees",
					"outputs": [
						{
							"internalType": "uint256",
							"name": "",
							"type": "uint256"
						}
					],
					"stateMutability": "view",
					"type": "function"
				},
				{
					"inputs": [],
					"name": "totalSupply",
					"outputs": [
						{
							"internalType": "uint256",
							"name": "",
							"type": "uint256"
						}
					],
					"stateMutability": "view",
					"type": "function"
				},
				{
					"inputs": [
						{
							"internalType": "address",
							"name": "recipient",
							"type": "address"
						},
						{
							"internalType": "uint256",
							"name": "amount",
							"type": "uint256"
						}
					],
					"name": "transfer",
					"outputs": [
						{
							"internalType": "bool",
							"name": "",
							"type": "bool"
						}
					],
					"stateMutability": "nonpayable",
					"type": "function"
				},
				{
					"inputs": [
						{
							"internalType": "address",
							"name": "sender",
							"type": "address"
						},
						{
							"internalType": "address",
							"name": "recipient",
							"type": "address"
						},
						{
							"internalType": "uint256",
							"name": "amount",
							"type": "uint256"
						}
					],
					"name": "transferFrom",
					"outputs": [
						{
							"internalType": "bool",
							"name": "",
							"type": "bool"
						}
					],
					"stateMutability": "nonpayable",
					"type": "function"
				},
				{
					"inputs": [
						{
							"internalType": "address",
							"name": "newOwner",
							"type": "address"
						}
					],
					"name": "transferOwnership",
					"outputs": [],
					"stateMutability": "nonpayable",
					"type": "function"
				},
				{
					"inputs": [],
					"name": "uniswapV2Pair",
					"outputs": [
						{
							"internalType": "address",
							"name": "",
							"type": "address"
						}
					],
					"stateMutability": "view",
					"type": "function"
				},
				{
					"inputs": [],
					"name": "uniswapV2Router",
					"outputs": [
						{
							"internalType": "contract IUniswapV2Router02",
							"name": "",
							"type": "address"
						}
					],
					"stateMutability": "view",
					"type": "function"
				},
				{
					"stateMutability": "payable",
					"type": "receive"
				}
			],
			"devdoc": {
				"kind": "dev",
				"methods": {},
				"version": 1
			},
			"evm": {
				"assembly": "    /* \"contracts/Token.sol\":208:301  address payable public marketingAddress = payable(0x40da1dd681eC6175C3BCFe1641CD2826A99EBdD8) */\n  0x03\n  dup1\n  sload\n  not(sub(shl(0xa0, 0x01), 0x01))\n  and\n    /* \"contracts/Token.sol\":258:300  0x40da1dd681eC6175C3BCFe1641CD2826A99EBdD8 */\n  0x40da1dd681ec6175c3bcfe1641cd2826a99ebdd8\n    /* \"contracts/Token.sol\":208:301  address payable public marketingAddress = payable(0x40da1dd681eC6175C3BCFe1641CD2826A99EBdD8) */\n  or\n  swap1\n  sstore\n    /* \"contracts/Token.sol\":329:410  address public immutable deadAddress = 0x000000000000000000000000000000000000dEaD */\n  mstore(0x80, 0xdead000000000000000000000000)\n    /* \"contracts/Token.sol\":904:928  10000000000000 * 10 ** 9 */\n  0x021e19e0c9bab2400000\n    /* \"contracts/Token.sol\":878:928  uint256 private _tTotal = 10000000000000 * 10 ** 9 */\n  0x0c\n  sstore\n  not(0x0200b25812c4f53fffff)\n    /* \"contracts/Token.sol\":935:984  uint256 private _rTotal = (MAX - (MAX % _tTotal)) */\n  0x0d\n  sstore\n    /* \"contracts/Token.sol\":1026:1060  string private _name = \"Degen ETH\" */\n  0xe0\n    /* \"contracts/Token.sol\":92:19042  contract dETH is Context, IERC20, Ownable {\r... */\n  0x40\n    /* \"contracts/Token.sol\":1026:1060  string private _name = \"Degen ETH\" */\n  mstore\n  0x09\n    /* \"contracts/Token.sol\":92:19042  contract dETH is Context, IERC20, Ownable {\r... */\n  0xa0\n    /* \"contracts/Token.sol\":1026:1060  string private _name = \"Degen ETH\" */\n  dup2\n  swap1\n  mstore\n  shl(0xbb, 0x088cacecadc408aa89)\n  0xc0\n  swap1\n  dup2\n  mstore\n  tag_2\n  swap2\n  0x0f\n  swap2\n  swap1\n  tag_3\n  jump\t// in\ntag_2:\n  pop\n    /* \"contracts/Token.sol\":1067:1099  string private _symbol = \"d.ETH\" */\n  0x40\n  dup1\n  mload\n  dup1\n  dup3\n  add\n  swap1\n  swap2\n  mstore\n  0x05\n  dup1\n  dup3\n  mstore\n  shl(0xdb, 0x0c85c8aa89)\n  0x20\n  swap1\n  swap3\n  add\n  swap2\n  dup3\n  mstore\n  tag_4\n  swap2\n  0x10\n  swap2\n  tag_3\n  jump\t// in\ntag_4:\n  pop\n    /* \"contracts/Token.sol\":1106:1133  uint8 private _decimals = 9 */\n  0x11\n  dup1\n  sload\n  not(0xff)\n  and\n    /* \"contracts/Token.sol\":1132:1133  9 */\n  0x09\n    /* \"contracts/Token.sol\":1106:1133  uint8 private _decimals = 9 */\n  or\n  swap1\n  sstore\n    /* \"contracts/Token.sol\":1169:1171  10 */\n  0x0a\n    /* \"contracts/Token.sol\":1144:1171  uint256 public _taxFee = 10 */\n  0x12\n  dup2\n  swap1\n  sstore\n    /* \"contracts/Token.sol\":1184:1225  uint256 private _previousTaxFee = _taxFee */\n  0x13\n  dup2\n  swap1\n  sstore\n    /* \"contracts/Token.sol\":1234:1267  uint256 public _liquidityFee = 10 */\n  0x14\n  dup2\n  swap1\n  sstore\n    /* \"contracts/Token.sol\":1280:1333  uint256 private _previousLiquidityFee = _liquidityFee */\n  0x15\n  sstore\n    /* \"contracts/Token.sol\":1369:1370  2 */\n  0x02\n    /* \"contracts/Token.sol\":1342:1370  uint256 private _feeRate = 2 */\n  0x16\n  sstore\n    /* \"contracts/Token.sol\":1519:1543  bool tradingOpen = false */\n  0x19\n  dup1\n  sload\n  not(shl(0xa8, 0xff))\n  and\n  swap1\n  sstore\n    /* \"contracts/Token.sol\":1852:2401  constructor (address treasure, address router) public {\r... */\n  callvalue\n  dup1\n  iszero\n  tag_5\n  jumpi\n  0x00\n  dup1\n  revert\ntag_5:\n  pop\n  mload(0x40)\n  sub(codesize, bytecodeSize)\n  dup1\n  bytecodeSize\n  dup4\n  codecopy\n  dup2\n  dup2\n  add\n  0x40\n  mstore\n  0x40\n  dup2\n  lt\n  iszero\n  tag_6\n  jumpi\n  0x00\n  dup1\n  revert\ntag_6:\n  pop\n  dup1\n  mload\n  0x20\n  swap1\n  swap2\n  add\n  mload\n    /* \"contracts/includes.sol\":5616:5633  address msgSender */\n  0x00\n    /* \"contracts/includes.sol\":5636:5648  _msgSender() */\n  tag_10\n    /* \"contracts/includes.sol\":5636:5646  _msgSender */\n  tag_11\n    /* \"contracts/includes.sol\":5636:5648  _msgSender() */\n  jump\t// in\ntag_10:\n    /* \"contracts/includes.sol\":5659:5665  _owner */\n  0x00\n    /* \"contracts/includes.sol\":5659:5677  _owner = msgSender */\n  dup1\n  sload\n  not(sub(shl(0xa0, 0x01), 0x01))\n  and\n  sub(shl(0xa0, 0x01), 0x01)\n  dup4\n  and\n  swap1\n  dup2\n  or\n  dup3\n  sstore\n    /* \"contracts/includes.sol\":5693:5736  OwnershipTransferred(address(0), msgSender) */\n  mload(0x40)\n    /* \"contracts/includes.sol\":5659:5677  _owner = msgSender */\n  swap3\n  swap4\n  pop\n  swap2\n    /* \"contracts/includes.sol\":5693:5736  OwnershipTransferred(address(0), msgSender) */\n  0x8be0079c531659141344cd1fd0a4f28419497f9722a3daafe3b4186f6b6457e0\n  swap1\n    /* \"contracts/includes.sol\":5659:5665  _owner */\n  dup3\n  swap1\n    /* \"contracts/includes.sol\":5693:5736  OwnershipTransferred(address(0), msgSender) */\n  log3\n  pop\n    /* \"contracts/Token.sol\":1939:1946  _rTotal */\n  sload(0x0d)\n    /* \"contracts/Token.sol\":1925:1935  msg.sender */\n  caller\n    /* \"contracts/Token.sol\":1917:1936  _rOwned[msg.sender] */\n  0x00\n  swap1\n  dup2\n  mstore\n    /* \"contracts/Token.sol\":1917:1924  _rOwned */\n  0x04\n    /* \"contracts/Token.sol\":1917:1936  _rOwned[msg.sender] */\n  0x20\n  mstore\n  0x40\n  swap1\n  keccak256\n    /* \"contracts/Token.sol\":1917:1946  _rOwned[msg.sender] = _rTotal */\n  sstore\n    /* \"contracts/Token.sol\":1983:1995  _msgSender() */\n  tag_13\n    /* \"contracts/Token.sol\":1983:1993  _msgSender */\n  tag_11\n    /* \"contracts/Token.sol\":1983:1995  _msgSender() */\n  jump\t// in\ntag_13:\n  sub(shl(0xa0, 0x01), 0x01)\n    /* \"contracts/Token.sol\":1962:2005  Transfer(address(0), _msgSender(), _tTotal) */\n  and\n    /* \"contracts/Token.sol\":1979:1980  0 */\n  0x00\n  sub(shl(0xa0, 0x01), 0x01)\n    /* \"contracts/Token.sol\":1962:2005  Transfer(address(0), _msgSender(), _tTotal) */\n  and\n  0xddf252ad1be2c89b69c2b068fc378daa952ba7f163c4a11628f55a4df523b3ef\n    /* \"contracts/Token.sol\":1997:2004  _tTotal */\n  sload(0x0c)\n    /* \"contracts/Token.sol\":1962:2005  Transfer(address(0), _msgSender(), _tTotal) */\n  mload(0x40)\n  dup1\n  dup3\n  dup2\n  mstore\n  0x20\n  add\n  swap2\n  pop\n  pop\n  mload(0x40)\n  dup1\n  swap2\n  sub\n  swap1\n  log3\n    /* \"contracts/Token.sol\":2016:2051  IUniswapV2Router02 _uniswapV2Router */\n  0x00\n    /* \"contracts/Token.sol\":2073:2079  router */\n  dup2\n    /* \"contracts/Token.sol\":2016:2080  IUniswapV2Router02 _uniswapV2Router = IUniswapV2Router02(router) */\n  swap1\n  pop\n    /* \"contracts/Token.sol\":2125:2141  _uniswapV2Router */\n  dup1\n  sub(shl(0xa0, 0x01), 0x01)\n    /* \"contracts/Token.sol\":2125:2149  _uniswapV2Router.factory */\n  and\n  0xc45a0155\n    /* \"contracts/Token.sol\":2125:2151  _uniswapV2Router.factory() */\n  mload(0x40)\n  dup2\n  0xffffffff\n  and\n  0xe0\n  shl\n  dup2\n  mstore\n  0x04\n  add\n  0x20\n  mload(0x40)\n  dup1\n  dup4\n  sub\n  dup2\n  dup7\n  dup1\n  extcodesize\n  iszero\n  dup1\n  iszero\n  tag_14\n  jumpi\n  0x00\n  dup1\n  revert\ntag_14:\n  pop\n  gas\n  staticcall\n  iszero\n  dup1\n  iszero\n  tag_16\n  jumpi\n  returndatasize\n  0x00\n  dup1\n  returndatacopy\n  revert(0x00, returndatasize)\ntag_16:\n  pop\n  pop\n  pop\n  pop\n  mload(0x40)\n  returndatasize\n  0x20\n  dup2\n  lt\n  iszero\n  tag_17\n  jumpi\n  0x00\n  dup1\n  revert\ntag_17:\n  pop\n  mload\n    /* \"contracts/Token.sol\":2179:2202  _uniswapV2Router.WETH() */\n  0x40\n  dup1\n  mload\n  shl(0xe3, 0x15ab88c9)\n  dup2\n  mstore\n  swap1\n  mload\n  sub(shl(0xa0, 0x01), 0x01)\n    /* \"contracts/Token.sol\":2107:2163  IUniswapV2Factory(_uniswapV2Router.factory()).createPair */\n  swap3\n  dup4\n  and\n  swap3\n  0xc9c65396\n  swap3\n    /* \"contracts/Token.sol\":2172:2176  this */\n  address\n  swap3\n    /* \"contracts/Token.sol\":2179:2200  _uniswapV2Router.WETH */\n  swap2\n  dup7\n  and\n  swap2\n  0xad5c4648\n  swap2\n    /* \"contracts/Token.sol\":2179:2202  _uniswapV2Router.WETH() */\n  0x04\n  dup1\n  dup3\n  add\n  swap3\n    /* \"contracts/Token.sol\":2125:2151  _uniswapV2Router.factory() */\n  0x20\n  swap3\n    /* \"contracts/Token.sol\":2179:2202  _uniswapV2Router.WETH() */\n  swap1\n  swap2\n  swap1\n  dup3\n  swap1\n  sub\n  add\n  dup2\n    /* \"contracts/Token.sol\":2179:2200  _uniswapV2Router.WETH */\n  dup7\n    /* \"contracts/Token.sol\":2179:2202  _uniswapV2Router.WETH() */\n  dup1\n  extcodesize\n  iszero\n  dup1\n  iszero\n  tag_18\n  jumpi\n  0x00\n  dup1\n  revert\ntag_18:\n  pop\n  gas\n  staticcall\n  iszero\n  dup1\n  iszero\n  tag_20\n  jumpi\n  returndatasize\n  0x00\n  dup1\n  returndatacopy\n  revert(0x00, returndatasize)\ntag_20:\n  pop\n  pop\n  pop\n  pop\n  mload(0x40)\n  returndatasize\n  0x20\n  dup2\n  lt\n  iszero\n  tag_21\n  jumpi\n  0x00\n  dup1\n  revert\ntag_21:\n  pop\n  mload\n    /* \"contracts/Token.sol\":2107:2203  IUniswapV2Factory(_uniswapV2Router.factory()).createPair(address(this), _uniswapV2Router.WETH()) */\n  0x40\n  dup1\n  mload\n  not(sub(shl(0xe0, 0x01), 0x01))\n  0xe0\n  dup7\n  swap1\n  shl\n  and\n  dup2\n  mstore\n  sub(shl(0xa0, 0x01), 0x01)\n  swap4\n  dup5\n  and\n  0x04\n  dup3\n  add\n  mstore\n  swap3\n  swap1\n  swap2\n  and\n  0x24\n  dup4\n  add\n  mstore\n  mload\n  0x44\n  dup1\n  dup4\n  add\n  swap3\n    /* \"contracts/Token.sol\":2179:2202  _uniswapV2Router.WETH() */\n  0x20\n  swap3\n    /* \"contracts/Token.sol\":2107:2203  IUniswapV2Factory(_uniswapV2Router.factory()).createPair(address(this), _uniswapV2Router.WETH()) */\n  swap2\n  swap1\n  dup3\n  swap1\n  sub\n  add\n  dup2\n  0x00\n  dup8\n  dup1\n  extcodesize\n  iszero\n  dup1\n  iszero\n  tag_22\n  jumpi\n  0x00\n  dup1\n  revert\ntag_22:\n  pop\n  gas\n  call\n  iszero\n  dup1\n  iszero\n  tag_24\n  jumpi\n  returndatasize\n  0x00\n  dup1\n  returndatacopy\n  revert(0x00, returndatasize)\ntag_24:\n  pop\n  pop\n  pop\n  pop\n  mload(0x40)\n  returndatasize\n  0x20\n  dup2\n  lt\n  iszero\n  tag_25\n  jumpi\n  0x00\n  dup1\n  revert\ntag_25:\n  pop\n  mload\n    /* \"contracts/Token.sol\":2091:2104  uniswapV2Pair */\n  0x19\n    /* \"contracts/Token.sol\":2091:2203  uniswapV2Pair = IUniswapV2Factory(_uniswapV2Router.factory()).createPair(address(this), _uniswapV2Router.WETH()) */\n  dup1\n  sload\n  not(sub(shl(0xa0, 0x01), 0x01))\n  swap1\n  dup2\n  and\n  sub(shl(0xa0, 0x01), 0x01)\n  swap4\n  dup5\n  and\n  or\n  swap1\n  swap2\n  sstore\n    /* \"contracts/Token.sol\":2214:2229  uniswapV2Router */\n  0x18\n    /* \"contracts/Token.sol\":2214:2248  uniswapV2Router = _uniswapV2Router */\n  dup1\n  sload\n  swap1\n  swap2\n  and\n  swap3\n  dup3\n  and\n  swap3\n  swap1\n  swap3\n  or\n  swap1\n  swap2\n  sstore\n    /* \"contracts/Token.sol\":2278:2288  msg.sender */\n  caller\n  0x00\n    /* \"contracts/Token.sol\":2259:2289  _isExcludedFromFee[msg.sender] */\n  swap1\n  dup2\n  mstore\n    /* \"contracts/Token.sol\":2259:2277  _isExcludedFromFee */\n  0x09\n    /* \"contracts/Token.sol\":2107:2203  IUniswapV2Factory(_uniswapV2Router.factory()).createPair(address(this), _uniswapV2Router.WETH()) */\n  0x20\n    /* \"contracts/Token.sol\":2259:2289  _isExcludedFromFee[msg.sender] */\n  mstore\n  0x40\n  dup1\n  dup3\n  keccak256\n    /* \"contracts/Token.sol\":2259:2296  _isExcludedFromFee[msg.sender] = true */\n  dup1\n  sload\n  not(0xff)\n  swap1\n  dup2\n  and\n  0x01\n  swap1\n  dup2\n  or\n  swap1\n  swap3\n  sstore\n    /* \"contracts/Token.sol\":2307:2335  _isExcludedFromFee[treasure] */\n  swap6\n  swap1\n  swap4\n  and\n  dup3\n  mstore\n  dup1\n  dup3\n  keccak256\n    /* \"contracts/Token.sol\":2307:2342  _isExcludedFromFee[treasure] = true */\n  dup1\n  sload\n  dup7\n  and\n  dup5\n  or\n  swap1\n  sstore\n    /* \"contracts/Token.sol\":2380:2384  this */\n  address\n    /* \"contracts/Token.sol\":2353:2386  _isExcludedFromFee[address(this)] */\n  dup3\n  mstore\n  swap1\n  keccak256\n    /* \"contracts/Token.sol\":2353:2393  _isExcludedFromFee[address(this)] = true */\n  dup1\n  sload\n  swap1\n  swap4\n  and\n  or\n  swap1\n  swap2\n  sstore\n  pop\n    /* \"contracts/Token.sol\":92:19042  contract dETH is Context, IERC20, Ownable {\r... */\n  jump(tag_26)\n    /* \"contracts/includes.sol\":33:148  function _msgSender() internal view virtual returns (address payable) {\r... */\ntag_11:\n    /* \"contracts/includes.sol\":129:139  msg.sender */\n  caller\n    /* \"contracts/includes.sol\":33:148  function _msgSender() internal view virtual returns (address payable) {\r... */\n  swap1\n  jump\t// out\n    /* \"contracts/Token.sol\":92:19042  contract dETH is Context, IERC20, Ownable {\r... */\ntag_3:\n  dup3\n  dup1\n  sload\n  0x01\n  dup2\n  0x01\n  and\n  iszero\n  0x0100\n  mul\n  sub\n  and\n  0x02\n  swap1\n  div\n  swap1\n  0x00\n  mstore\n  keccak256(0x00, 0x20)\n  swap1\n  0x1f\n  add\n  0x20\n  swap1\n  div\n  dup2\n  add\n  swap3\n  dup3\n  0x1f\n  lt\n  tag_29\n  jumpi\n  dup1\n  mload\n  not(0xff)\n  and\n  dup4\n  dup1\n  add\n  or\n  dup6\n  sstore\n  jump(tag_31)\ntag_29:\n  dup3\n  dup1\n  add\n  0x01\n  add\n  dup6\n  sstore\n  dup3\n  iszero\n  tag_31\n  jumpi\n  swap2\n  dup3\n  add\ntag_30:\n  dup3\n  dup2\n  gt\n  iszero\n  tag_31\n  jumpi\n  dup3\n  mload\n  dup3\n  sstore\n  swap2\n  0x20\n  add\n  swap2\n  swap1\n  0x01\n  add\n  swap1\n  jump(tag_30)\ntag_31:\n  pop\n  tag_32\n  swap3\n  swap2\n  pop\n  tag_33\n  jump\t// in\ntag_32:\n  pop\n  swap1\n  jump\t// out\ntag_33:\ntag_34:\n  dup1\n  dup3\n  gt\n  iszero\n  tag_32\n  jumpi\n  0x00\n  dup2\n  sstore\n  0x01\n  add\n  jump(tag_34)\ntag_26:\n  shr(0x60, mload(0x80))\n  codecopy(0x00, dataOffset(sub_0), dataSize(sub_0))\n  assignImmutable(\"0x1572b593c53d839d80004aa4b8c51211864104f06ace9e22be9c4365b50655ea\")\n  return(0x00, dataSize(sub_0))\nstop\n\nsub_0: assembly {\n        /* \"contracts/Token.sol\":92:19042  contract dETH is Context, IERC20, Ownable {\r... */\n      mstore(0x40, 0x80)\n      jumpi(tag_1, lt(calldatasize, 0x04))\n      shr(0xe0, calldataload(0x00))\n      dup1\n      0x5342acb4\n      gt\n      tag_43\n      jumpi\n      dup1\n      0x95d89b41\n      gt\n      tag_44\n      jumpi\n      dup1\n      0xdb2e21bc\n      gt\n      tag_45\n      jumpi\n      dup1\n      0xdb2e21bc\n      eq\n      tag_38\n      jumpi\n      dup1\n      0xdd62ed3e\n      eq\n      tag_39\n      jumpi\n      dup1\n      0xea2f0b37\n      eq\n      tag_40\n      jumpi\n      dup1\n      0xf2fde38b\n      eq\n      tag_41\n      jumpi\n      dup1\n      0xf375b253\n      eq\n      tag_42\n      jumpi\n      jump(tag_2)\n    tag_45:\n      dup1\n      0x95d89b41\n      eq\n      tag_33\n      jumpi\n      dup1\n      0xa457c2d7\n      eq\n      tag_34\n      jumpi\n      dup1\n      0xa5ece941\n      eq\n      tag_35\n      jumpi\n      dup1\n      0xa9059cbb\n      eq\n      tag_36\n      jumpi\n      dup1\n      0xc9567bf9\n      eq\n      tag_37\n      jumpi\n      jump(tag_2)\n    tag_44:\n      dup1\n      0x87ceff09\n      gt\n      tag_46\n      jumpi\n      dup1\n      0x87ceff09\n      eq\n      tag_28\n      jumpi\n      dup1\n      0x88f82020\n      eq\n      tag_29\n      jumpi\n      dup1\n      0x8da5cb5b\n      eq\n      tag_30\n      jumpi\n      dup1\n      0x8ee88c53\n      eq\n      tag_31\n      jumpi\n      dup1\n      0x906e9dd0\n      eq\n      tag_32\n      jumpi\n      jump(tag_2)\n    tag_46:\n      dup1\n      0x5342acb4\n      eq\n      tag_23\n      jumpi\n      dup1\n      0x610d5b19\n      eq\n      tag_24\n      jumpi\n      dup1\n      0x6bc87c3a\n      eq\n      tag_25\n      jumpi\n      dup1\n      0x70a08231\n      eq\n      tag_26\n      jumpi\n      dup1\n      0x715018a6\n      eq\n      tag_27\n      jumpi\n      jump(tag_2)\n    tag_43:\n      dup1\n      0x362a3c5d\n      gt\n      tag_47\n      jumpi\n      dup1\n      0x437823ec\n      gt\n      tag_48\n      jumpi\n      dup1\n      0x437823ec\n      eq\n      tag_18\n      jumpi\n      dup1\n      0x4549b039\n      eq\n      tag_19\n      jumpi\n      dup1\n      0x45596e2e\n      eq\n      tag_20\n      jumpi\n      dup1\n      0x49bd5a5e\n      eq\n      tag_21\n      jumpi\n      dup1\n      0x52390c02\n      eq\n      tag_22\n      jumpi\n      jump(tag_2)\n    tag_48:\n      dup1\n      0x362a3c5d\n      eq\n      tag_13\n      jumpi\n      dup1\n      0x3685d419\n      eq\n      tag_14\n      jumpi\n      dup1\n      0x39509351\n      eq\n      tag_15\n      jumpi\n      dup1\n      0x3b124fe7\n      eq\n      tag_16\n      jumpi\n      dup1\n      0x3bd5d173\n      eq\n      tag_17\n      jumpi\n      jump(tag_2)\n    tag_47:\n      dup1\n      0x18160ddd\n      gt\n      tag_49\n      jumpi\n      dup1\n      0x18160ddd\n      eq\n      tag_8\n      jumpi\n      dup1\n      0x23b872dd\n      eq\n      tag_9\n      jumpi\n      dup1\n      0x27c8f835\n      eq\n      tag_10\n      jumpi\n      dup1\n      0x2d838119\n      eq\n      tag_11\n      jumpi\n      dup1\n      0x313ce567\n      eq\n      tag_12\n      jumpi\n      jump(tag_2)\n    tag_49:\n      dup1\n      0x061c82d0\n      eq\n      tag_3\n      jumpi\n      dup1\n      0x06fdde03\n      eq\n      tag_4\n      jumpi\n      dup1\n      0x095ea7b3\n      eq\n      tag_5\n      jumpi\n      dup1\n      0x13114a9d\n      eq\n      tag_6\n      jumpi\n      dup1\n      0x1694505e\n      eq\n      tag_7\n      jumpi\n      jump(tag_2)\n    tag_1:\n      jumpi(tag_2, calldatasize)\n      stop\n    tag_2:\n      0x00\n      dup1\n      revert\n        /* \"contracts/Token.sol\":17163:17261  function setTaxFeePercent(uint256 taxFee) external onlyOwner() {\r... */\n    tag_3:\n      callvalue\n      dup1\n      iszero\n      tag_52\n      jumpi\n      0x00\n      dup1\n      revert\n    tag_52:\n      pop\n      tag_53\n      0x04\n      dup1\n      calldatasize\n      sub\n      0x20\n      dup2\n      lt\n      iszero\n      tag_54\n      jumpi\n      0x00\n      dup1\n      revert\n    tag_54:\n      pop\n      calldataload\n      tag_55\n      jump\t// in\n    tag_53:\n      stop\n        /* \"contracts/Token.sol\":2537:2620  function name() public view returns (string memory) {\r... */\n    tag_4:\n      callvalue\n      dup1\n      iszero\n      tag_56\n      jumpi\n      0x00\n      dup1\n      revert\n    tag_56:\n      pop\n      tag_57\n      tag_58\n      jump\t// in\n    tag_57:\n      0x40\n      dup1\n      mload\n      0x20\n      dup1\n      dup3\n      mstore\n      dup4\n      mload\n      dup2\n      dup4\n      add\n      mstore\n      dup4\n      mload\n      swap2\n      swap3\n      dup4\n      swap3\n      swap1\n      dup4\n      add\n      swap2\n      dup6\n      add\n      swap1\n      dup1\n      dup4\n      dup4\n      0x00\n    tag_59:\n      dup4\n      dup2\n      lt\n      iszero\n      tag_61\n      jumpi\n      dup2\n      dup2\n      add\n      mload\n      dup4\n      dup3\n      add\n      mstore\n      0x20\n      add\n      jump(tag_59)\n    tag_61:\n      pop\n      pop\n      pop\n      pop\n      swap1\n      pop\n      swap1\n      dup2\n      add\n      swap1\n      0x1f\n      and\n      dup1\n      iszero\n      tag_62\n      jumpi\n      dup1\n      dup3\n      sub\n      dup1\n      mload\n      0x01\n      dup4\n      0x20\n      sub\n      0x0100\n      exp\n      sub\n      not\n      and\n      dup2\n      mstore\n      0x20\n      add\n      swap2\n      pop\n    tag_62:\n      pop\n      swap3\n      pop\n      pop\n      pop\n      mload(0x40)\n      dup1\n      swap2\n      sub\n      swap1\n      return\n        /* \"contracts/Token.sol\":3449:3610  function approve(address spender, uint256 amount) public override returns (bool) {\r... */\n    tag_5:\n      callvalue\n      dup1\n      iszero\n      tag_63\n      jumpi\n      0x00\n      dup1\n      revert\n    tag_63:\n      pop\n      tag_64\n      0x04\n      dup1\n      calldatasize\n      sub\n      0x40\n      dup2\n      lt\n      iszero\n      tag_65\n      jumpi\n      0x00\n      dup1\n      revert\n    tag_65:\n      pop\n      sub(shl(0xa0, 0x01), 0x01)\n      dup2\n      calldataload\n      and\n      swap1\n      0x20\n      add\n      calldataload\n      tag_66\n      jump\t// in\n    tag_64:\n      0x40\n      dup1\n      mload\n      swap2\n      iszero\n      iszero\n      dup3\n      mstore\n      mload\n      swap1\n      dup2\n      swap1\n      sub\n      0x20\n      add\n      swap1\n      return\n        /* \"contracts/Token.sol\":4570:4657  function totalFees() public view returns (uint256) {\r... */\n    tag_6:\n      callvalue\n      dup1\n      iszero\n      tag_67\n      jumpi\n      0x00\n      dup1\n      revert\n    tag_67:\n      pop\n      tag_68\n      tag_69\n      jump\t// in\n    tag_68:\n      0x40\n      dup1\n      mload\n      swap2\n      dup3\n      mstore\n      mload\n      swap1\n      dup2\n      swap1\n      sub\n      0x20\n      add\n      swap1\n      return\n        /* \"contracts/Token.sol\":1404:1445  IUniswapV2Router02 public uniswapV2Router */\n    tag_7:\n      callvalue\n      dup1\n      iszero\n      tag_70\n      jumpi\n      0x00\n      dup1\n      revert\n    tag_70:\n      pop\n      tag_71\n      tag_72\n      jump\t// in\n    tag_71:\n      0x40\n      dup1\n      mload\n      sub(shl(0xa0, 0x01), 0x01)\n      swap1\n      swap3\n      and\n      dup3\n      mstore\n      mload\n      swap1\n      dup2\n      swap1\n      sub\n      0x20\n      add\n      swap1\n      return\n        /* \"contracts/Token.sol\":2814:2909  function totalSupply() public view override returns (uint256) {\r... */\n    tag_8:\n      callvalue\n      dup1\n      iszero\n      tag_73\n      jumpi\n      0x00\n      dup1\n      revert\n    tag_73:\n      pop\n      tag_68\n      tag_75\n      jump\t// in\n        /* \"contracts/Token.sol\":3618:3931  function transferFrom(address sender, address recipient, uint256 amount) public override returns (bool) {\r... */\n    tag_9:\n      callvalue\n      dup1\n      iszero\n      tag_76\n      jumpi\n      0x00\n      dup1\n      revert\n    tag_76:\n      pop\n      tag_64\n      0x04\n      dup1\n      calldatasize\n      sub\n      0x60\n      dup2\n      lt\n      iszero\n      tag_78\n      jumpi\n      0x00\n      dup1\n      revert\n    tag_78:\n      pop\n      sub(shl(0xa0, 0x01), 0x01)\n      dup2\n      calldataload\n      dup2\n      and\n      swap2\n      0x20\n      dup2\n      add\n      calldataload\n      swap1\n      swap2\n      and\n      swap1\n      0x40\n      add\n      calldataload\n      tag_79\n      jump\t// in\n        /* \"contracts/Token.sol\":329:410  address public immutable deadAddress = 0x000000000000000000000000000000000000dEaD */\n    tag_10:\n      callvalue\n      dup1\n      iszero\n      tag_80\n      jumpi\n      0x00\n      dup1\n      revert\n    tag_80:\n      pop\n      tag_71\n      tag_82\n      jump\t// in\n        /* \"contracts/Token.sol\":5499:5752  function tokenFromReflection(uint256 rAmount) public view returns (uint256) {\r... */\n    tag_11:\n      callvalue\n      dup1\n      iszero\n      tag_83\n      jumpi\n      0x00\n      dup1\n      revert\n    tag_83:\n      pop\n      tag_68\n      0x04\n      dup1\n      calldatasize\n      sub\n      0x20\n      dup2\n      lt\n      iszero\n      tag_85\n      jumpi\n      0x00\n      dup1\n      revert\n    tag_85:\n      pop\n      calldataload\n      tag_86\n      jump\t// in\n        /* \"contracts/Token.sol\":2723:2806  function decimals() public view returns (uint8) {\r... */\n    tag_12:\n      callvalue\n      dup1\n      iszero\n      tag_87\n      jumpi\n      0x00\n      dup1\n      revert\n    tag_87:\n      pop\n      tag_88\n      tag_89\n      jump\t// in\n    tag_88:\n      0x40\n      dup1\n      mload\n      0xff\n      swap1\n      swap3\n      and\n      dup3\n      mstore\n      mload\n      swap1\n      dup2\n      swap1\n      sub\n      0x20\n      add\n      swap1\n      return\n        /* \"contracts/Token.sol\":18139:18621  function _amnestySniper(address account) external onlyOwner() {\r... */\n    tag_13:\n      callvalue\n      dup1\n      iszero\n      tag_90\n      jumpi\n      0x00\n      dup1\n      revert\n    tag_90:\n      pop\n      tag_53\n      0x04\n      dup1\n      calldatasize\n      sub\n      0x20\n      dup2\n      lt\n      iszero\n      tag_92\n      jumpi\n      0x00\n      dup1\n      revert\n    tag_92:\n      pop\n      calldataload\n      sub(shl(0xa0, 0x01), 0x01)\n      and\n      tag_93\n      jump\t// in\n        /* \"contracts/Token.sol\":6104:6583  function includeInReward(address account) external onlyOwner() {\r... */\n    tag_14:\n      callvalue\n      dup1\n      iszero\n      tag_94\n      jumpi\n      0x00\n      dup1\n      revert\n    tag_94:\n      pop\n      tag_53\n      0x04\n      dup1\n      calldatasize\n      sub\n      0x20\n      dup2\n      lt\n      iszero\n      tag_96\n      jumpi\n      0x00\n      dup1\n      revert\n    tag_96:\n      pop\n      calldataload\n      sub(shl(0xa0, 0x01), 0x01)\n      and\n      tag_97\n      jump\t// in\n        /* \"contracts/Token.sol\":3939:4157  function increaseAllowance(address spender, uint256 addedValue) public virtual returns (bool) {\r... */\n    tag_15:\n      callvalue\n      dup1\n      iszero\n      tag_98\n      jumpi\n      0x00\n      dup1\n      revert\n    tag_98:\n      pop\n      tag_64\n      0x04\n      dup1\n      calldatasize\n      sub\n      0x40\n      dup2\n      lt\n      iszero\n      tag_100\n      jumpi\n      0x00\n      dup1\n      revert\n    tag_100:\n      pop\n      sub(shl(0xa0, 0x01), 0x01)\n      dup2\n      calldataload\n      and\n      swap1\n      0x20\n      add\n      calldataload\n      tag_101\n      jump\t// in\n        /* \"contracts/Token.sol\":1144:1171  uint256 public _taxFee = 10 */\n    tag_16:\n      callvalue\n      dup1\n      iszero\n      tag_102\n      jumpi\n      0x00\n      dup1\n      revert\n    tag_102:\n      pop\n      tag_68\n      tag_104\n      jump\t// in\n        /* \"contracts/Token.sol\":4667:5044  function deliver(uint256 tAmount) public {\r... */\n    tag_17:\n      callvalue\n      dup1\n      iszero\n      tag_105\n      jumpi\n      0x00\n      dup1\n      revert\n    tag_105:\n      pop\n      tag_53\n      0x04\n      dup1\n      calldatasize\n      sub\n      0x20\n      dup2\n      lt\n      iszero\n      tag_107\n      jumpi\n      0x00\n      dup1\n      revert\n    tag_107:\n      pop\n      calldataload\n      tag_108\n      jump\t// in\n        /* \"contracts/Token.sol\":16926:17037  function excludeFromFee(address account) public onlyOwner {\r... */\n    tag_18:\n      callvalue\n      dup1\n      iszero\n      tag_109\n      jumpi\n      0x00\n      dup1\n      revert\n    tag_109:\n      pop\n      tag_53\n      0x04\n      dup1\n      calldatasize\n      sub\n      0x20\n      dup2\n      lt\n      iszero\n      tag_111\n      jumpi\n      0x00\n      dup1\n      revert\n    tag_111:\n      pop\n      calldataload\n      sub(shl(0xa0, 0x01), 0x01)\n      and\n      tag_112\n      jump\t// in\n        /* \"contracts/Token.sol\":5054:5491  function reflectionFromToken(uint256 tAmount, bool deductTransferFee) public view returns (uint256) {\r... */\n    tag_19:\n      callvalue\n      dup1\n      iszero\n      tag_113\n      jumpi\n      0x00\n      dup1\n      revert\n    tag_113:\n      pop\n      tag_68\n      0x04\n      dup1\n      calldatasize\n      sub\n      0x40\n      dup2\n      lt\n      iszero\n      tag_115\n      jumpi\n      0x00\n      dup1\n      revert\n    tag_115:\n      pop\n      dup1\n      calldataload\n      swap1\n      0x20\n      add\n      calldataload\n      iszero\n      iszero\n      tag_116\n      jump\t// in\n        /* \"contracts/Token.sol\":18631:18720  function setFeeRate(uint256 rate) external onlyOwner() {\r... */\n    tag_20:\n      callvalue\n      dup1\n      iszero\n      tag_117\n      jumpi\n      0x00\n      dup1\n      revert\n    tag_117:\n      pop\n      tag_53\n      0x04\n      dup1\n      calldatasize\n      sub\n      0x20\n      dup2\n      lt\n      iszero\n      tag_119\n      jumpi\n      0x00\n      dup1\n      revert\n    tag_119:\n      pop\n      calldataload\n      tag_120\n      jump\t// in\n        /* \"contracts/Token.sol\":1452:1480  address public uniswapV2Pair */\n    tag_21:\n      callvalue\n      dup1\n      iszero\n      tag_121\n      jumpi\n      0x00\n      dup1\n      revert\n    tag_121:\n      pop\n      tag_71\n      tag_123\n      jump\t// in\n        /* \"contracts/Token.sol\":5760:6096  function excludeFromReward(address account) public onlyOwner() {\r... */\n    tag_22:\n      callvalue\n      dup1\n      iszero\n      tag_124\n      jumpi\n      0x00\n      dup1\n      revert\n    tag_124:\n      pop\n      tag_53\n      0x04\n      dup1\n      calldatasize\n      sub\n      0x20\n      dup2\n      lt\n      iszero\n      tag_126\n      jumpi\n      0x00\n      dup1\n      revert\n    tag_126:\n      pop\n      calldataload\n      sub(shl(0xa0, 0x01), 0x01)\n      and\n      tag_127\n      jump\t// in\n        /* \"contracts/Token.sol\":16794:16918  function isExcludedFromFee(address account) public view returns (bool) {\r... */\n    tag_23:\n      callvalue\n      dup1\n      iszero\n      tag_128\n      jumpi\n      0x00\n      dup1\n      revert\n    tag_128:\n      pop\n      tag_64\n      0x04\n      dup1\n      calldatasize\n      sub\n      0x20\n      dup2\n      lt\n      iszero\n      tag_130\n      jumpi\n      0x00\n      dup1\n      revert\n    tag_130:\n      pop\n      calldataload\n      sub(shl(0xa0, 0x01), 0x01)\n      and\n      tag_131\n      jump\t// in\n        /* \"contracts/Token.sol\":17686:17799  function isRemovedSniper(address account) public view returns (bool) {\r... */\n    tag_24:\n      callvalue\n      dup1\n      iszero\n      tag_132\n      jumpi\n      0x00\n      dup1\n      revert\n    tag_132:\n      pop\n      tag_64\n      0x04\n      dup1\n      calldatasize\n      sub\n      0x20\n      dup2\n      lt\n      iszero\n      tag_134\n      jumpi\n      0x00\n      dup1\n      revert\n    tag_134:\n      pop\n      calldataload\n      sub(shl(0xa0, 0x01), 0x01)\n      and\n      tag_135\n      jump\t// in\n        /* \"contracts/Token.sol\":1234:1267  uint256 public _liquidityFee = 10 */\n    tag_25:\n      callvalue\n      dup1\n      iszero\n      tag_136\n      jumpi\n      0x00\n      dup1\n      revert\n    tag_136:\n      pop\n      tag_68\n      tag_138\n      jump\t// in\n        /* \"contracts/Token.sol\":2917:3115  function balanceOf(address account) public view override returns (uint256) {\r... */\n    tag_26:\n      callvalue\n      dup1\n      iszero\n      tag_139\n      jumpi\n      0x00\n      dup1\n      revert\n    tag_139:\n      pop\n      tag_68\n      0x04\n      dup1\n      calldatasize\n      sub\n      0x20\n      dup2\n      lt\n      iszero\n      tag_141\n      jumpi\n      0x00\n      dup1\n      revert\n    tag_141:\n      pop\n      calldataload\n      sub(shl(0xa0, 0x01), 0x01)\n      and\n      tag_142\n      jump\t// in\n        /* \"contracts/includes.sol\":5966:6114  function renounceOwnership() public virtual onlyOwner {\r... */\n    tag_27:\n      callvalue\n      dup1\n      iszero\n      tag_143\n      jumpi\n      0x00\n      dup1\n      revert\n    tag_143:\n      pop\n      tag_53\n      tag_145\n      jump\t// in\n        /* \"contracts/Token.sol\":18728:18823  function getBlockTime() public view returns (uint256) {\r... */\n    tag_28:\n      callvalue\n      dup1\n      iszero\n      tag_146\n      jumpi\n      0x00\n      dup1\n      revert\n    tag_146:\n      pop\n      tag_68\n      tag_148\n      jump\t// in\n        /* \"contracts/Token.sol\":4442:4562  function isExcludedFromReward(address account) public view returns (bool) {\r... */\n    tag_29:\n      callvalue\n      dup1\n      iszero\n      tag_149\n      jumpi\n      0x00\n      dup1\n      revert\n    tag_149:\n      pop\n      tag_64\n      0x04\n      dup1\n      calldatasize\n      sub\n      0x20\n      dup2\n      lt\n      iszero\n      tag_151\n      jumpi\n      0x00\n      dup1\n      revert\n    tag_151:\n      pop\n      calldataload\n      sub(shl(0xa0, 0x01), 0x01)\n      and\n      tag_152\n      jump\t// in\n        /* \"contracts/includes.sol\":5752:5831  function owner() public view returns (address) {\r... */\n    tag_30:\n      callvalue\n      dup1\n      iszero\n      tag_153\n      jumpi\n      0x00\n      dup1\n      revert\n    tag_153:\n      pop\n      tag_71\n      tag_155\n      jump\t// in\n        /* \"contracts/Token.sol\":17269:17391  function setLiquidityFeePercent(uint256 liquidityFee) external onlyOwner() {\r... */\n    tag_31:\n      callvalue\n      dup1\n      iszero\n      tag_156\n      jumpi\n      0x00\n      dup1\n      revert\n    tag_156:\n      pop\n      tag_53\n      0x04\n      dup1\n      calldatasize\n      sub\n      0x20\n      dup2\n      lt\n      iszero\n      tag_158\n      jumpi\n      0x00\n      dup1\n      revert\n    tag_158:\n      pop\n      calldataload\n      tag_159\n      jump\t// in\n        /* \"contracts/Token.sol\":17401:17542  function setMarketingAddress(address _marketingAddress) external onlyOwner() {\r... */\n    tag_32:\n      callvalue\n      dup1\n      iszero\n      tag_160\n      jumpi\n      0x00\n      dup1\n      revert\n    tag_160:\n      pop\n      tag_53\n      0x04\n      dup1\n      calldatasize\n      sub\n      0x20\n      dup2\n      lt\n      iszero\n      tag_162\n      jumpi\n      0x00\n      dup1\n      revert\n    tag_162:\n      pop\n      calldataload\n      sub(shl(0xa0, 0x01), 0x01)\n      and\n      tag_163\n      jump\t// in\n        /* \"contracts/Token.sol\":2628:2715  function symbol() public view returns (string memory) {\r... */\n    tag_33:\n      callvalue\n      dup1\n      iszero\n      tag_164\n      jumpi\n      0x00\n      dup1\n      revert\n    tag_164:\n      pop\n      tag_57\n      tag_166\n      jump\t// in\n        /* \"contracts/Token.sol\":4165:4434  function decreaseAllowance(address spender, uint256 subtractedValue) public virtual returns (bool) {\r... */\n    tag_34:\n      callvalue\n      dup1\n      iszero\n      tag_171\n      jumpi\n      0x00\n      dup1\n      revert\n    tag_171:\n      pop\n      tag_64\n      0x04\n      dup1\n      calldatasize\n      sub\n      0x40\n      dup2\n      lt\n      iszero\n      tag_173\n      jumpi\n      0x00\n      dup1\n      revert\n    tag_173:\n      pop\n      sub(shl(0xa0, 0x01), 0x01)\n      dup2\n      calldataload\n      and\n      swap1\n      0x20\n      add\n      calldataload\n      tag_174\n      jump\t// in\n        /* \"contracts/Token.sol\":208:301  address payable public marketingAddress = payable(0x40da1dd681eC6175C3BCFe1641CD2826A99EBdD8) */\n    tag_35:\n      callvalue\n      dup1\n      iszero\n      tag_175\n      jumpi\n      0x00\n      dup1\n      revert\n    tag_175:\n      pop\n      tag_71\n      tag_177\n      jump\t// in\n        /* \"contracts/Token.sol\":3123:3290  function transfer(address recipient, uint256 amount) public override returns (bool) {\r... */\n    tag_36:\n      callvalue\n      dup1\n      iszero\n      tag_178\n      jumpi\n      0x00\n      dup1\n      revert\n    tag_178:\n      pop\n      tag_64\n      0x04\n      dup1\n      calldatasize\n      sub\n      0x40\n      dup2\n      lt\n      iszero\n      tag_180\n      jumpi\n      0x00\n      dup1\n      revert\n    tag_180:\n      pop\n      sub(shl(0xa0, 0x01), 0x01)\n      dup2\n      calldataload\n      and\n      swap1\n      0x20\n      add\n      calldataload\n      tag_181\n      jump\t// in\n        /* \"contracts/Token.sol\":2409:2529  function openTrading() external onlyOwner() {\r... */\n    tag_37:\n      callvalue\n      dup1\n      iszero\n      tag_182\n      jumpi\n      0x00\n      dup1\n      revert\n    tag_182:\n      pop\n      tag_53\n      tag_184\n      jump\t// in\n        /* \"contracts/Token.sol\":18831:18946  function emergencyWithdraw() external onlyOwner {\r... */\n    tag_38:\n      callvalue\n      dup1\n      iszero\n      tag_185\n      jumpi\n      0x00\n      dup1\n      revert\n    tag_185:\n      pop\n      tag_53\n      tag_187\n      jump\t// in\n        /* \"contracts/Token.sol\":3298:3441  function allowance(address owner, address spender) public view override returns (uint256) {\r... */\n    tag_39:\n      callvalue\n      dup1\n      iszero\n      tag_188\n      jumpi\n      0x00\n      dup1\n      revert\n    tag_188:\n      pop\n      tag_68\n      0x04\n      dup1\n      calldatasize\n      sub\n      0x40\n      dup2\n      lt\n      iszero\n      tag_190\n      jumpi\n      0x00\n      dup1\n      revert\n    tag_190:\n      pop\n      sub(shl(0xa0, 0x01), 0x01)\n      dup2\n      calldataload\n      dup2\n      and\n      swap2\n      0x20\n      add\n      calldataload\n      and\n      tag_191\n      jump\t// in\n        /* \"contracts/Token.sol\":17045:17155  function includeInFee(address account) public onlyOwner {\r... */\n    tag_40:\n      callvalue\n      dup1\n      iszero\n      tag_192\n      jumpi\n      0x00\n      dup1\n      revert\n    tag_192:\n      pop\n      tag_53\n      0x04\n      dup1\n      calldatasize\n      sub\n      0x20\n      dup2\n      lt\n      iszero\n      tag_194\n      jumpi\n      0x00\n      dup1\n      revert\n    tag_194:\n      pop\n      calldataload\n      sub(shl(0xa0, 0x01), 0x01)\n      and\n      tag_195\n      jump\t// in\n        /* \"contracts/includes.sol\":6122:6366  function transferOwnership(address newOwner) public virtual onlyOwner {\r... */\n    tag_41:\n      callvalue\n      dup1\n      iszero\n      tag_196\n      jumpi\n      0x00\n      dup1\n      revert\n    tag_196:\n      pop\n      tag_53\n      0x04\n      dup1\n      calldatasize\n      sub\n      0x20\n      dup2\n      lt\n      iszero\n      tag_198\n      jumpi\n      0x00\n      dup1\n      revert\n    tag_198:\n      pop\n      calldataload\n      sub(shl(0xa0, 0x01), 0x01)\n      and\n      tag_199\n      jump\t// in\n        /* \"contracts/Token.sol\":17807:18131  function _removeSniper(address account) external onlyOwner() {\r... */\n    tag_42:\n      callvalue\n      dup1\n      iszero\n      tag_200\n      jumpi\n      0x00\n      dup1\n      revert\n    tag_200:\n      pop\n      tag_53\n      0x04\n      dup1\n      calldatasize\n      sub\n      0x20\n      dup2\n      lt\n      iszero\n      tag_202\n      jumpi\n      0x00\n      dup1\n      revert\n    tag_202:\n      pop\n      calldataload\n      sub(shl(0xa0, 0x01), 0x01)\n      and\n      tag_203\n      jump\t// in\n        /* \"contracts/Token.sol\":17163:17261  function setTaxFeePercent(uint256 taxFee) external onlyOwner() {\r... */\n    tag_55:\n        /* \"contracts/includes.sol\":5889:5901  _msgSender() */\n      tag_205\n        /* \"contracts/includes.sol\":5889:5899  _msgSender */\n      tag_206\n        /* \"contracts/includes.sol\":5889:5901  _msgSender() */\n      jump\t// in\n    tag_205:\n        /* \"contracts/includes.sol\":5879:5885  _owner */\n      sload(0x00)\n      sub(shl(0xa0, 0x01), 0x01)\n      swap1\n      dup2\n      and\n        /* \"contracts/includes.sol\":5879:5901  _owner == _msgSender() */\n      swap2\n      and\n      eq\n        /* \"contracts/includes.sol\":5871:5938  require(_owner == _msgSender(), \"Ownable: caller is not the owner\") */\n      tag_207\n      jumpi\n      0x40\n      dup1\n      mload\n      shl(0xe5, 0x461bcd)\n      dup2\n      mstore\n      0x20\n      0x04\n      dup3\n      add\n      dup2\n      swap1\n      mstore\n      0x24\n      dup3\n      add\n      mstore\n      0x00\n      dup1\n      mload\n      0x20\n      data_9924ebdf1add33d25d4ef888e16131f0a5687b0580a36c21b5c301a6c462effe\n      dup4\n      codecopy\n      dup2\n      mload\n      swap2\n      mstore\n      0x44\n      dup3\n      add\n      mstore\n      swap1\n      mload\n      swap1\n      dup2\n      swap1\n      sub\n      0x64\n      add\n      swap1\n      revert\n    tag_207:\n        /* \"contracts/Token.sol\":17237:17244  _taxFee */\n      0x12\n        /* \"contracts/Token.sol\":17237:17253  _taxFee = taxFee */\n      sstore\n        /* \"contracts/Token.sol\":17163:17261  function setTaxFeePercent(uint256 taxFee) external onlyOwner() {\r... */\n      jump\t// out\n        /* \"contracts/Token.sol\":2537:2620  function name() public view returns (string memory) {\r... */\n    tag_58:\n        /* \"contracts/Token.sol\":2607:2612  _name */\n      0x0f\n        /* \"contracts/Token.sol\":2600:2612  return _name */\n      dup1\n      sload\n      0x40\n      dup1\n      mload\n      0x20\n      0x1f\n      0x02\n      not(0x00)\n      0x0100\n      0x01\n      dup9\n      and\n      iszero\n      mul\n      add\n      swap1\n      swap6\n      and\n      swap5\n      swap1\n      swap5\n      div\n      swap4\n      dup5\n      add\n      dup2\n      swap1\n      div\n      dup2\n      mul\n      dup3\n      add\n      dup2\n      add\n      swap1\n      swap3\n      mstore\n      dup3\n      dup2\n      mstore\n        /* \"contracts/Token.sol\":2574:2587  string memory */\n      0x60\n      swap4\n        /* \"contracts/Token.sol\":2600:2612  return _name */\n      swap1\n      swap3\n        /* \"contracts/Token.sol\":2607:2612  _name */\n      swap1\n      swap2\n        /* \"contracts/Token.sol\":2600:2612  return _name */\n      dup4\n      add\n        /* \"contracts/Token.sol\":2607:2612  _name */\n      dup3\n        /* \"contracts/Token.sol\":2600:2612  return _name */\n      dup3\n      dup1\n      iszero\n      tag_210\n      jumpi\n      dup1\n      0x1f\n      lt\n      tag_211\n      jumpi\n      0x0100\n      dup1\n      dup4\n      sload\n      div\n      mul\n      dup4\n      mstore\n      swap2\n      0x20\n      add\n      swap2\n      jump(tag_210)\n    tag_211:\n      dup3\n      add\n      swap2\n      swap1\n      0x00\n      mstore\n      keccak256(0x00, 0x20)\n      swap1\n    tag_212:\n      dup2\n      sload\n      dup2\n      mstore\n      swap1\n      0x01\n      add\n      swap1\n      0x20\n      add\n      dup1\n      dup4\n      gt\n      tag_212\n      jumpi\n      dup3\n      swap1\n      sub\n      0x1f\n      and\n      dup3\n      add\n      swap2\n    tag_210:\n      pop\n      pop\n      pop\n      pop\n      pop\n      swap1\n      pop\n        /* \"contracts/Token.sol\":2537:2620  function name() public view returns (string memory) {\r... */\n      swap1\n      jump\t// out\n        /* \"contracts/Token.sol\":3449:3610  function approve(address spender, uint256 amount) public override returns (bool) {\r... */\n    tag_66:\n        /* \"contracts/Token.sol\":3524:3528  bool */\n      0x00\n        /* \"contracts/Token.sol\":3541:3580  _approve(_msgSender(), spender, amount) */\n      tag_214\n        /* \"contracts/Token.sol\":3550:3562  _msgSender() */\n      tag_215\n        /* \"contracts/Token.sol\":3550:3560  _msgSender */\n      tag_206\n        /* \"contracts/Token.sol\":3550:3562  _msgSender() */\n      jump\t// in\n    tag_215:\n        /* \"contracts/Token.sol\":3564:3571  spender */\n      dup5\n        /* \"contracts/Token.sol\":3573:3579  amount */\n      dup5\n        /* \"contracts/Token.sol\":3541:3549  _approve */\n      tag_216\n        /* \"contracts/Token.sol\":3541:3580  _approve(_msgSender(), spender, amount) */\n      jump\t// in\n    tag_214:\n      pop\n        /* \"contracts/Token.sol\":3598:3602  true */\n      0x01\n        /* \"contracts/Token.sol\":3449:3610  function approve(address spender, uint256 amount) public override returns (bool) {\r... */\n    tag_213:\n      swap3\n      swap2\n      pop\n      pop\n      jump\t// out\n        /* \"contracts/Token.sol\":4570:4657  function totalFees() public view returns (uint256) {\r... */\n    tag_69:\n        /* \"contracts/Token.sol\":4639:4649  _tFeeTotal */\n      sload(0x0e)\n        /* \"contracts/Token.sol\":4570:4657  function totalFees() public view returns (uint256) {\r... */\n      swap1\n      jump\t// out\n        /* \"contracts/Token.sol\":1404:1445  IUniswapV2Router02 public uniswapV2Router */\n    tag_72:\n      and(sub(shl(0xa0, 0x01), 0x01), sload(0x18))\n      dup2\n      jump\t// out\n        /* \"contracts/Token.sol\":2814:2909  function totalSupply() public view override returns (uint256) {\r... */\n    tag_75:\n        /* \"contracts/Token.sol\":2894:2901  _tTotal */\n      sload(0x0c)\n        /* \"contracts/Token.sol\":2814:2909  function totalSupply() public view override returns (uint256) {\r... */\n      swap1\n      jump\t// out\n        /* \"contracts/Token.sol\":3618:3931  function transferFrom(address sender, address recipient, uint256 amount) public override returns (bool) {\r... */\n    tag_79:\n        /* \"contracts/Token.sol\":3716:3720  bool */\n      0x00\n        /* \"contracts/Token.sol\":3733:3769  _transfer(sender, recipient, amount) */\n      tag_220\n        /* \"contracts/Token.sol\":3743:3749  sender */\n      dup5\n        /* \"contracts/Token.sol\":3751:3760  recipient */\n      dup5\n        /* \"contracts/Token.sol\":3762:3768  amount */\n      dup5\n        /* \"contracts/Token.sol\":3733:3742  _transfer */\n      tag_221\n        /* \"contracts/Token.sol\":3733:3769  _transfer(sender, recipient, amount) */\n      jump\t// in\n    tag_220:\n        /* \"contracts/Token.sol\":3780:3901  _approve(sender, _msgSender(), _allowances[sender][_msgSender()].sub(amount, \"ERC20: transfer amount exceeds allowance\")) */\n      tag_222\n        /* \"contracts/Token.sol\":3789:3795  sender */\n      dup5\n        /* \"contracts/Token.sol\":3797:3809  _msgSender() */\n      tag_223\n        /* \"contracts/Token.sol\":3797:3807  _msgSender */\n      tag_206\n        /* \"contracts/Token.sol\":3797:3809  _msgSender() */\n      jump\t// in\n    tag_223:\n        /* \"contracts/Token.sol\":3811:3900  _allowances[sender][_msgSender()].sub(amount, \"ERC20: transfer amount exceeds allowance\") */\n      tag_224\n        /* \"contracts/Token.sol\":3849:3855  amount */\n      dup6\n        /* \"contracts/Token.sol\":3811:3900  _allowances[sender][_msgSender()].sub(amount, \"ERC20: transfer amount exceeds allowance\") */\n      mload(0x40)\n      dup1\n      0x60\n      add\n      0x40\n      mstore\n      dup1\n      0x28\n      dup2\n      mstore\n      0x20\n      add\n      data_974d1b4421da69cc60b481194f0dad36a5bb4e23da810da7a7fb30cdba178330\n      0x28\n      swap2\n      codecopy\n      sub(shl(0xa0, 0x01), 0x01)\n        /* \"contracts/Token.sol\":3811:3830  _allowances[sender] */\n      dup11\n      and\n      0x00\n      swap1\n      dup2\n      mstore\n        /* \"contracts/Token.sol\":3811:3822  _allowances */\n      0x06\n        /* \"contracts/Token.sol\":3811:3830  _allowances[sender] */\n      0x20\n      mstore\n      0x40\n      dup2\n      keccak256\n      swap1\n        /* \"contracts/Token.sol\":3831:3843  _msgSender() */\n      tag_225\n        /* \"contracts/Token.sol\":3831:3841  _msgSender */\n      tag_206\n        /* \"contracts/Token.sol\":3831:3843  _msgSender() */\n      jump\t// in\n    tag_225:\n      sub(shl(0xa0, 0x01), 0x01)\n        /* \"contracts/Token.sol\":3811:3844  _allowances[sender][_msgSender()] */\n      and\n      dup2\n      mstore\n      0x20\n      dup2\n      add\n      swap2\n      swap1\n      swap2\n      mstore\n      0x40\n      add\n      0x00\n      keccak256\n      sload\n      swap2\n        /* \"contracts/Token.sol\":3811:3900  _allowances[sender][_msgSender()].sub(amount, \"ERC20: transfer amount exceeds allowance\") */\n      swap1\n        /* \"contracts/Token.sol\":3811:3848  _allowances[sender][_msgSender()].sub */\n      tag_226\n        /* \"contracts/Token.sol\":3811:3900  _allowances[sender][_msgSender()].sub(amount, \"ERC20: transfer amount exceeds allowance\") */\n      jump\t// in\n    tag_224:\n        /* \"contracts/Token.sol\":3780:3788  _approve */\n      tag_216\n        /* \"contracts/Token.sol\":3780:3901  _approve(sender, _msgSender(), _allowances[sender][_msgSender()].sub(amount, \"ERC20: transfer amount exceeds allowance\")) */\n      jump\t// in\n    tag_222:\n      pop\n        /* \"contracts/Token.sol\":3919:3923  true */\n      0x01\n        /* \"contracts/Token.sol\":3618:3931  function transferFrom(address sender, address recipient, uint256 amount) public override returns (bool) {\r... */\n      swap4\n      swap3\n      pop\n      pop\n      pop\n      jump\t// out\n        /* \"contracts/Token.sol\":329:410  address public immutable deadAddress = 0x000000000000000000000000000000000000dEaD */\n    tag_82:\n      immutable(\"0x1572b593c53d839d80004aa4b8c51211864104f06ace9e22be9c4365b50655ea\")\n      dup2\n      jump\t// out\n        /* \"contracts/Token.sol\":5499:5752  function tokenFromReflection(uint256 rAmount) public view returns (uint256) {\r... */\n    tag_86:\n        /* \"contracts/Token.sol\":5566:5573  uint256 */\n      0x00\n        /* \"contracts/Token.sol\":5605:5612  _rTotal */\n      sload(0x0d)\n        /* \"contracts/Token.sol\":5594:5601  rAmount */\n      dup3\n        /* \"contracts/Token.sol\":5594:5612  rAmount <= _rTotal */\n      gt\n      iszero\n        /* \"contracts/Token.sol\":5586:5659  require(rAmount <= _rTotal, \"Amount must be less than total reflections\") */\n      tag_228\n      jumpi\n      mload(0x40)\n      shl(0xe5, 0x461bcd)\n      dup2\n      mstore\n      0x04\n      add\n      dup1\n      dup1\n      0x20\n      add\n      dup3\n      dup2\n      sub\n      dup3\n      mstore\n      0x2a\n      dup2\n      mstore\n      0x20\n      add\n      dup1\n      data_22f7af55a509c3b14f0d528f087748dec8a8bf425135e3f5dc28c6a31ec6d812\n      0x2a\n      swap2\n      codecopy\n      0x40\n      add\n      swap2\n      pop\n      pop\n      mload(0x40)\n      dup1\n      swap2\n      sub\n      swap1\n      revert\n    tag_228:\n        /* \"contracts/Token.sol\":5670:5689  uint256 currentRate */\n      0x00\n        /* \"contracts/Token.sol\":5692:5702  _getRate() */\n      tag_229\n        /* \"contracts/Token.sol\":5692:5700  _getRate */\n      tag_230\n        /* \"contracts/Token.sol\":5692:5702  _getRate() */\n      jump\t// in\n    tag_229:\n        /* \"contracts/Token.sol\":5670:5702  uint256 currentRate = _getRate() */\n      swap1\n      pop\n        /* \"contracts/Token.sol\":5720:5744  rAmount.div(currentRate) */\n      tag_231\n        /* \"contracts/Token.sol\":5720:5727  rAmount */\n      dup4\n        /* \"contracts/Token.sol\":5670:5702  uint256 currentRate = _getRate() */\n      dup3\n        /* \"contracts/Token.sol\":5720:5731  rAmount.div */\n      tag_232\n        /* \"contracts/Token.sol\":5720:5744  rAmount.div(currentRate) */\n      jump\t// in\n    tag_231:\n        /* \"contracts/Token.sol\":5713:5744  return rAmount.div(currentRate) */\n      swap2\n      pop\n      pop\n        /* \"contracts/Token.sol\":5499:5752  function tokenFromReflection(uint256 rAmount) public view returns (uint256) {\r... */\n    tag_227:\n      swap2\n      swap1\n      pop\n      jump\t// out\n        /* \"contracts/Token.sol\":2723:2806  function decimals() public view returns (uint8) {\r... */\n    tag_89:\n        /* \"contracts/Token.sol\":2789:2798  _decimals */\n      and(0xff, sload(0x11))\n        /* \"contracts/Token.sol\":2723:2806  function decimals() public view returns (uint8) {\r... */\n      swap1\n      jump\t// out\n        /* \"contracts/Token.sol\":18139:18621  function _amnestySniper(address account) external onlyOwner() {\r... */\n    tag_93:\n        /* \"contracts/includes.sol\":5889:5901  _msgSender() */\n      tag_235\n        /* \"contracts/includes.sol\":5889:5899  _msgSender */\n      tag_206\n        /* \"contracts/includes.sol\":5889:5901  _msgSender() */\n      jump\t// in\n    tag_235:\n        /* \"contracts/includes.sol\":5879:5885  _owner */\n      sload(0x00)\n      sub(shl(0xa0, 0x01), 0x01)\n      swap1\n      dup2\n      and\n        /* \"contracts/includes.sol\":5879:5901  _owner == _msgSender() */\n      swap2\n      and\n      eq\n        /* \"contracts/includes.sol\":5871:5938  require(_owner == _msgSender(), \"Ownable: caller is not the owner\") */\n      tag_236\n      jumpi\n      0x40\n      dup1\n      mload\n      shl(0xe5, 0x461bcd)\n      dup2\n      mstore\n      0x20\n      0x04\n      dup3\n      add\n      dup2\n      swap1\n      mstore\n      0x24\n      dup3\n      add\n      mstore\n      0x00\n      dup1\n      mload\n      0x20\n      data_9924ebdf1add33d25d4ef888e16131f0a5687b0580a36c21b5c301a6c462effe\n      dup4\n      codecopy\n      dup2\n      mload\n      swap2\n      mstore\n      0x44\n      dup3\n      add\n      mstore\n      swap1\n      mload\n      swap1\n      dup2\n      swap1\n      sub\n      0x64\n      add\n      swap1\n      revert\n    tag_236:\n      sub(shl(0xa0, 0x01), 0x01)\n        /* \"contracts/Token.sol\":18220:18238  _isSniper[account] */\n      dup2\n      and\n      0x00\n      swap1\n      dup2\n      mstore\n        /* \"contracts/Token.sol\":18220:18229  _isSniper */\n      0x07\n        /* \"contracts/Token.sol\":18220:18238  _isSniper[account] */\n      0x20\n      mstore\n      0x40\n      swap1\n      keccak256\n      sload\n      0xff\n      and\n        /* \"contracts/Token.sol\":18212:18269  require(_isSniper[account], \"Account is not blacklisted\") */\n      tag_238\n      jumpi\n      0x40\n      dup1\n      mload\n      shl(0xe5, 0x461bcd)\n      dup2\n      mstore\n      0x20\n      0x04\n      dup3\n      add\n      mstore\n      0x1a\n      0x24\n      dup3\n      add\n      mstore\n      0x4163636f756e74206973206e6f7420626c61636b6c6973746564000000000000\n      0x44\n      dup3\n      add\n      mstore\n      swap1\n      mload\n      swap1\n      dup2\n      swap1\n      sub\n      0x64\n      add\n      swap1\n      revert\n    tag_238:\n        /* \"contracts/Token.sol\":18285:18294  uint256 i */\n      0x00\n        /* \"contracts/Token.sol\":18280:18614  for (uint256 i = 0; i < _confirmedSnipers.length; i++) {\r... */\n    tag_239:\n        /* \"contracts/Token.sol\":18304:18321  _confirmedSnipers */\n      0x08\n        /* \"contracts/Token.sol\":18304:18328  _confirmedSnipers.length */\n      sload\n        /* \"contracts/Token.sol\":18300:18328  i < _confirmedSnipers.length */\n      dup2\n      lt\n        /* \"contracts/Token.sol\":18280:18614  for (uint256 i = 0; i < _confirmedSnipers.length; i++) {\r... */\n      iszero\n      tag_240\n      jumpi\n        /* \"contracts/Token.sol\":18378:18385  account */\n      dup2\n      sub(shl(0xa0, 0x01), 0x01)\n        /* \"contracts/Token.sol\":18354:18385  _confirmedSnipers[i] == account */\n      and\n        /* \"contracts/Token.sol\":18354:18371  _confirmedSnipers */\n      0x08\n        /* \"contracts/Token.sol\":18372:18373  i */\n      dup3\n        /* \"contracts/Token.sol\":18354:18374  _confirmedSnipers[i] */\n      dup2\n      sload\n      dup2\n      lt\n      tag_242\n      jumpi\n      invalid\n    tag_242:\n      0x00\n      swap2\n      dup3\n      mstore\n      0x20\n      swap1\n      swap2\n      keccak256\n      add\n      sload\n      sub(shl(0xa0, 0x01), 0x01)\n      and\n        /* \"contracts/Token.sol\":18354:18385  _confirmedSnipers[i] == account */\n      eq\n        /* \"contracts/Token.sol\":18350:18603  if (_confirmedSnipers[i] == account) {\r... */\n      iszero\n      tag_244\n      jumpi\n        /* \"contracts/Token.sol\":18429:18446  _confirmedSnipers */\n      0x08\n        /* \"contracts/Token.sol\":18447:18471  _confirmedSnipers.length */\n      dup1\n      sload\n      not(0x00)\n        /* \"contracts/Token.sol\":18447:18475  _confirmedSnipers.length - 1 */\n      dup2\n      add\n      swap1\n        /* \"contracts/Token.sol\":18429:18476  _confirmedSnipers[_confirmedSnipers.length - 1] */\n      dup2\n      lt\n      tag_245\n      jumpi\n      invalid\n    tag_245:\n      0x00\n      swap2\n      dup3\n      mstore\n      0x20\n      swap1\n      swap2\n      keccak256\n      add\n      sload\n        /* \"contracts/Token.sol\":18406:18423  _confirmedSnipers */\n      0x08\n        /* \"contracts/Token.sol\":18406:18426  _confirmedSnipers[i] */\n      dup1\n      sload\n      sub(shl(0xa0, 0x01), 0x01)\n        /* \"contracts/Token.sol\":18429:18476  _confirmedSnipers[_confirmedSnipers.length - 1] */\n      swap1\n      swap3\n      and\n      swap2\n        /* \"contracts/Token.sol\":18424:18425  i */\n      dup4\n      swap1\n        /* \"contracts/Token.sol\":18406:18426  _confirmedSnipers[i] */\n      dup2\n      lt\n      tag_247\n      jumpi\n      invalid\n    tag_247:\n      0x00\n      swap2\n      dup3\n      mstore\n      0x20\n      dup1\n      dup4\n      keccak256\n      swap2\n      swap1\n      swap2\n      add\n        /* \"contracts/Token.sol\":18406:18476  _confirmedSnipers[i] = _confirmedSnipers[_confirmedSnipers.length - 1] */\n      dup1\n      sload\n      not(sub(shl(0xa0, 0x01), 0x01))\n      and\n      sub(shl(0xa0, 0x01), 0x01)\n      swap5\n      dup6\n      and\n      or\n      swap1\n      sstore\n        /* \"contracts/Token.sol\":18495:18513  _isSniper[account] */\n      swap2\n      dup5\n      and\n      dup2\n      mstore\n        /* \"contracts/Token.sol\":18495:18504  _isSniper */\n      0x07\n        /* \"contracts/Token.sol\":18495:18513  _isSniper[account] */\n      swap1\n      swap2\n      mstore\n      0x40\n      swap1\n      keccak256\n        /* \"contracts/Token.sol\":18495:18521  _isSniper[account] = false */\n      dup1\n      sload\n      not(0xff)\n      and\n      swap1\n      sstore\n        /* \"contracts/Token.sol\":18540:18557  _confirmedSnipers */\n      0x08\n        /* \"contracts/Token.sol\":18540:18563  _confirmedSnipers.pop() */\n      dup1\n      sload\n      dup1\n      tag_249\n      jumpi\n      invalid\n    tag_249:\n      0x00\n      dup3\n      dup2\n      mstore\n      0x20\n      swap1\n      keccak256\n      dup2\n      add\n      not(0x00)\n      swap1\n      dup2\n      add\n      dup1\n      sload\n      not(sub(shl(0xa0, 0x01), 0x01))\n      and\n      swap1\n      sstore\n      add\n      swap1\n      sstore\n        /* \"contracts/Token.sol\":18582:18587  break */\n      jump(tag_240)\n        /* \"contracts/Token.sol\":18350:18603  if (_confirmedSnipers[i] == account) {\r... */\n    tag_244:\n        /* \"contracts/Token.sol\":18330:18333  i++ */\n      0x01\n      add\n        /* \"contracts/Token.sol\":18280:18614  for (uint256 i = 0; i < _confirmedSnipers.length; i++) {\r... */\n      jump(tag_239)\n    tag_240:\n      pop\n        /* \"contracts/Token.sol\":18139:18621  function _amnestySniper(address account) external onlyOwner() {\r... */\n      pop\n      jump\t// out\n        /* \"contracts/Token.sol\":6104:6583  function includeInReward(address account) external onlyOwner() {\r... */\n    tag_97:\n        /* \"contracts/includes.sol\":5889:5901  _msgSender() */\n      tag_252\n        /* \"contracts/includes.sol\":5889:5899  _msgSender */\n      tag_206\n        /* \"contracts/includes.sol\":5889:5901  _msgSender() */\n      jump\t// in\n    tag_252:\n        /* \"contracts/includes.sol\":5879:5885  _owner */\n      sload(0x00)\n      sub(shl(0xa0, 0x01), 0x01)\n      swap1\n      dup2\n      and\n        /* \"contracts/includes.sol\":5879:5901  _owner == _msgSender() */\n      swap2\n      and\n      eq\n        /* \"contracts/includes.sol\":5871:5938  require(_owner == _msgSender(), \"Ownable: caller is not the owner\") */\n      tag_253\n      jumpi\n      0x40\n      dup1\n      mload\n      shl(0xe5, 0x461bcd)\n      dup2\n      mstore\n      0x20\n      0x04\n      dup3\n      add\n      dup2\n      swap1\n      mstore\n      0x24\n      dup3\n      add\n      mstore\n      0x00\n      dup1\n      mload\n      0x20\n      data_9924ebdf1add33d25d4ef888e16131f0a5687b0580a36c21b5c301a6c462effe\n      dup4\n      codecopy\n      dup2\n      mload\n      swap2\n      mstore\n      0x44\n      dup3\n      add\n      mstore\n      swap1\n      mload\n      swap1\n      dup2\n      swap1\n      sub\n      0x64\n      add\n      swap1\n      revert\n    tag_253:\n      sub(shl(0xa0, 0x01), 0x01)\n        /* \"contracts/Token.sol\":6186:6206  _isExcluded[account] */\n      dup2\n      and\n      0x00\n      swap1\n      dup2\n      mstore\n        /* \"contracts/Token.sol\":6186:6197  _isExcluded */\n      0x0a\n        /* \"contracts/Token.sol\":6186:6206  _isExcluded[account] */\n      0x20\n      mstore\n      0x40\n      swap1\n      keccak256\n      sload\n      0xff\n      and\n        /* \"contracts/Token.sol\":6178:6238  require(_isExcluded[account], \"Account is already excluded\") */\n      tag_255\n      jumpi\n      0x40\n      dup1\n      mload\n      shl(0xe5, 0x461bcd)\n      dup2\n      mstore\n      0x20\n      0x04\n      dup3\n      add\n      mstore\n      0x1b\n      0x24\n      dup3\n      add\n      mstore\n      0x4163636f756e7420697320616c7265616479206578636c756465640000000000\n      0x44\n      dup3\n      add\n      mstore\n      swap1\n      mload\n      swap1\n      dup2\n      swap1\n      sub\n      0x64\n      add\n      swap1\n      revert\n    tag_255:\n        /* \"contracts/Token.sol\":6254:6263  uint256 i */\n      0x00\n        /* \"contracts/Token.sol\":6249:6576  for (uint256 i = 0; i < _excluded.length; i++) {\r... */\n    tag_256:\n        /* \"contracts/Token.sol\":6273:6282  _excluded */\n      0x0b\n        /* \"contracts/Token.sol\":6273:6289  _excluded.length */\n      sload\n        /* \"contracts/Token.sol\":6269:6289  i < _excluded.length */\n      dup2\n      lt\n        /* \"contracts/Token.sol\":6249:6576  for (uint256 i = 0; i < _excluded.length; i++) {\r... */\n      iszero\n      tag_240\n      jumpi\n        /* \"contracts/Token.sol\":6331:6338  account */\n      dup2\n      sub(shl(0xa0, 0x01), 0x01)\n        /* \"contracts/Token.sol\":6315:6338  _excluded[i] == account */\n      and\n        /* \"contracts/Token.sol\":6315:6324  _excluded */\n      0x0b\n        /* \"contracts/Token.sol\":6325:6326  i */\n      dup3\n        /* \"contracts/Token.sol\":6315:6327  _excluded[i] */\n      dup2\n      sload\n      dup2\n      lt\n      tag_259\n      jumpi\n      invalid\n    tag_259:\n      0x00\n      swap2\n      dup3\n      mstore\n      0x20\n      swap1\n      swap2\n      keccak256\n      add\n      sload\n      sub(shl(0xa0, 0x01), 0x01)\n      and\n        /* \"contracts/Token.sol\":6315:6338  _excluded[i] == account */\n      eq\n        /* \"contracts/Token.sol\":6311:6565  if (_excluded[i] == account) {\r... */\n      iszero\n      tag_261\n      jumpi\n        /* \"contracts/Token.sol\":6374:6383  _excluded */\n      0x0b\n        /* \"contracts/Token.sol\":6384:6400  _excluded.length */\n      dup1\n      sload\n      not(0x00)\n        /* \"contracts/Token.sol\":6384:6404  _excluded.length - 1 */\n      dup2\n      add\n      swap1\n        /* \"contracts/Token.sol\":6374:6405  _excluded[_excluded.length - 1] */\n      dup2\n      lt\n      tag_262\n      jumpi\n      invalid\n    tag_262:\n      0x00\n      swap2\n      dup3\n      mstore\n      0x20\n      swap1\n      swap2\n      keccak256\n      add\n      sload\n        /* \"contracts/Token.sol\":6359:6368  _excluded */\n      0x0b\n        /* \"contracts/Token.sol\":6359:6371  _excluded[i] */\n      dup1\n      sload\n      sub(shl(0xa0, 0x01), 0x01)\n        /* \"contracts/Token.sol\":6374:6405  _excluded[_excluded.length - 1] */\n      swap1\n      swap3\n      and\n      swap2\n        /* \"contracts/Token.sol\":6369:6370  i */\n      dup4\n      swap1\n        /* \"contracts/Token.sol\":6359:6371  _excluded[i] */\n      dup2\n      lt\n      tag_264\n      jumpi\n      invalid\n    tag_264:\n      0x00\n      swap2\n      dup3\n      mstore\n      0x20\n      dup1\n      dup4\n      keccak256\n      swap2\n      swap1\n      swap2\n      add\n        /* \"contracts/Token.sol\":6359:6405  _excluded[i] = _excluded[_excluded.length - 1] */\n      dup1\n      sload\n      not(sub(shl(0xa0, 0x01), 0x01))\n      and\n      sub(shl(0xa0, 0x01), 0x01)\n      swap5\n      dup6\n      and\n      or\n      swap1\n      sstore\n        /* \"contracts/Token.sol\":6424:6440  _tOwned[account] */\n      swap2\n      dup5\n      and\n      dup2\n      mstore\n        /* \"contracts/Token.sol\":6424:6431  _tOwned */\n      0x05\n        /* \"contracts/Token.sol\":6424:6440  _tOwned[account] */\n      dup3\n      mstore\n      0x40\n      dup1\n      dup3\n      keccak256\n        /* \"contracts/Token.sol\":6424:6444  _tOwned[account] = 0 */\n      dup3\n      swap1\n      sstore\n        /* \"contracts/Token.sol\":6463:6474  _isExcluded */\n      0x0a\n        /* \"contracts/Token.sol\":6463:6483  _isExcluded[account] */\n      swap1\n      swap3\n      mstore\n      keccak256\n        /* \"contracts/Token.sol\":6463:6491  _isExcluded[account] = false */\n      dup1\n      sload\n      not(0xff)\n      and\n      swap1\n      sstore\n        /* \"contracts/Token.sol\":6510:6519  _excluded */\n      0x0b\n        /* \"contracts/Token.sol\":6510:6525  _excluded.pop() */\n      dup1\n      sload\n      dup1\n      tag_249\n      jumpi\n      invalid\n        /* \"contracts/Token.sol\":6311:6565  if (_excluded[i] == account) {\r... */\n    tag_261:\n        /* \"contracts/Token.sol\":6291:6294  i++ */\n      0x01\n      add\n        /* \"contracts/Token.sol\":6249:6576  for (uint256 i = 0; i < _excluded.length; i++) {\r... */\n      jump(tag_256)\n        /* \"contracts/Token.sol\":3939:4157  function increaseAllowance(address spender, uint256 addedValue) public virtual returns (bool) {\r... */\n    tag_101:\n        /* \"contracts/Token.sol\":4027:4031  bool */\n      0x00\n        /* \"contracts/Token.sol\":4044:4127  _approve(_msgSender(), spender, _allowances[_msgSender()][spender].add(addedValue)) */\n      tag_214\n        /* \"contracts/Token.sol\":4053:4065  _msgSender() */\n      tag_270\n        /* \"contracts/Token.sol\":4053:4063  _msgSender */\n      tag_206\n        /* \"contracts/Token.sol\":4053:4065  _msgSender() */\n      jump\t// in\n    tag_270:\n        /* \"contracts/Token.sol\":4067:4074  spender */\n      dup5\n        /* \"contracts/Token.sol\":4076:4126  _allowances[_msgSender()][spender].add(addedValue) */\n      tag_224\n        /* \"contracts/Token.sol\":4115:4125  addedValue */\n      dup6\n        /* \"contracts/Token.sol\":4076:4087  _allowances */\n      0x06\n        /* \"contracts/Token.sol\":4076:4101  _allowances[_msgSender()] */\n      0x00\n        /* \"contracts/Token.sol\":4088:4100  _msgSender() */\n      tag_272\n        /* \"contracts/Token.sol\":4088:4098  _msgSender */\n      tag_206\n        /* \"contracts/Token.sol\":4088:4100  _msgSender() */\n      jump\t// in\n    tag_272:\n      sub(shl(0xa0, 0x01), 0x01)\n        /* \"contracts/Token.sol\":4076:4101  _allowances[_msgSender()] */\n      swap1\n      dup2\n      and\n      dup3\n      mstore\n      0x20\n      dup1\n      dup4\n      add\n      swap4\n      swap1\n      swap4\n      mstore\n      0x40\n      swap2\n      dup3\n      add\n      0x00\n      swap1\n      dup2\n      keccak256\n        /* \"contracts/Token.sol\":4076:4110  _allowances[_msgSender()][spender] */\n      swap2\n      dup13\n      and\n      dup2\n      mstore\n      swap3\n      mstore\n      swap1\n      keccak256\n      sload\n      swap1\n        /* \"contracts/Token.sol\":4076:4114  _allowances[_msgSender()][spender].add */\n      tag_273\n        /* \"contracts/Token.sol\":4076:4126  _allowances[_msgSender()][spender].add(addedValue) */\n      jump\t// in\n        /* \"contracts/Token.sol\":1144:1171  uint256 public _taxFee = 10 */\n    tag_104:\n      sload(0x12)\n      dup2\n      jump\t// out\n        /* \"contracts/Token.sol\":4667:5044  function deliver(uint256 tAmount) public {\r... */\n    tag_108:\n        /* \"contracts/Token.sol\":4719:4733  address sender */\n      0x00\n        /* \"contracts/Token.sol\":4736:4748  _msgSender() */\n      tag_275\n        /* \"contracts/Token.sol\":4736:4746  _msgSender */\n      tag_206\n        /* \"contracts/Token.sol\":4736:4748  _msgSender() */\n      jump\t// in\n    tag_275:\n      sub(shl(0xa0, 0x01), 0x01)\n        /* \"contracts/Token.sol\":4768:4787  _isExcluded[sender] */\n      dup2\n      and\n      0x00\n      swap1\n      dup2\n      mstore\n        /* \"contracts/Token.sol\":4768:4779  _isExcluded */\n      0x0a\n        /* \"contracts/Token.sol\":4768:4787  _isExcluded[sender] */\n      0x20\n      mstore\n      0x40\n      swap1\n      keccak256\n      sload\n        /* \"contracts/Token.sol\":4719:4748  address sender = _msgSender() */\n      swap1\n      swap2\n      pop\n        /* \"contracts/Token.sol\":4768:4787  _isExcluded[sender] */\n      0xff\n      and\n        /* \"contracts/Token.sol\":4767:4787  !_isExcluded[sender] */\n      iszero\n        /* \"contracts/Token.sol\":4759:4836  require(!_isExcluded[sender], \"Excluded addresses cannot call this function\") */\n      tag_276\n      jumpi\n      mload(0x40)\n      shl(0xe5, 0x461bcd)\n      dup2\n      mstore\n      0x04\n      add\n      dup1\n      dup1\n      0x20\n      add\n      dup3\n      dup2\n      sub\n      dup3\n      mstore\n      0x2c\n      dup2\n      mstore\n      0x20\n      add\n      dup1\n      data_ecefcaf5fbcf9ca6dcdb02298ba1da96f4ead317b0a4779917ecb2e5e7dc3ac4\n      0x2c\n      swap2\n      codecopy\n      0x40\n      add\n      swap2\n      pop\n      pop\n      mload(0x40)\n      dup1\n      swap2\n      sub\n      swap1\n      revert\n    tag_276:\n        /* \"contracts/Token.sol\":4848:4863  uint256 rAmount */\n      0x00\n        /* \"contracts/Token.sol\":4872:4891  _getValues(tAmount) */\n      tag_277\n        /* \"contracts/Token.sol\":4883:4890  tAmount */\n      dup4\n        /* \"contracts/Token.sol\":4872:4882  _getValues */\n      tag_278\n        /* \"contracts/Token.sol\":4872:4891  _getValues(tAmount) */\n      jump\t// in\n    tag_277:\n      pop\n      pop\n      pop\n      pop\n      sub(shl(0xa0, 0x01), 0x01)\n        /* \"contracts/Token.sol\":4920:4935  _rOwned[sender] */\n      dup5\n      and\n      0x00\n      swap1\n      dup2\n      mstore\n        /* \"contracts/Token.sol\":4920:4927  _rOwned */\n      0x04\n        /* \"contracts/Token.sol\":4920:4935  _rOwned[sender] */\n      0x20\n      mstore\n      0x40\n      swap1\n      keccak256\n      sload\n        /* \"contracts/Token.sol\":4847:4891  (uint256 rAmount,,,,,) = _getValues(tAmount) */\n      swap2\n      swap3\n      pop\n        /* \"contracts/Token.sol\":4920:4948  _rOwned[sender].sub(rAmount) */\n      tag_279\n      swap2\n        /* \"contracts/Token.sol\":4920:4935  _rOwned[sender] */\n      swap1\n      pop\n        /* \"contracts/Token.sol\":4847:4891  (uint256 rAmount,,,,,) = _getValues(tAmount) */\n      dup3\n        /* \"contracts/Token.sol\":4920:4939  _rOwned[sender].sub */\n      tag_280\n        /* \"contracts/Token.sol\":4920:4948  _rOwned[sender].sub(rAmount) */\n      jump\t// in\n    tag_279:\n      sub(shl(0xa0, 0x01), 0x01)\n        /* \"contracts/Token.sol\":4902:4917  _rOwned[sender] */\n      dup4\n      and\n      0x00\n      swap1\n      dup2\n      mstore\n        /* \"contracts/Token.sol\":4902:4909  _rOwned */\n      0x04\n        /* \"contracts/Token.sol\":4902:4917  _rOwned[sender] */\n      0x20\n      mstore\n      0x40\n      swap1\n      keccak256\n        /* \"contracts/Token.sol\":4902:4948  _rOwned[sender] = _rOwned[sender].sub(rAmount) */\n      sstore\n        /* \"contracts/Token.sol\":4969:4976  _rTotal */\n      sload(0x0d)\n        /* \"contracts/Token.sol\":4969:4989  _rTotal.sub(rAmount) */\n      tag_281\n      swap1\n        /* \"contracts/Token.sol\":4981:4988  rAmount */\n      dup3\n        /* \"contracts/Token.sol\":4969:4980  _rTotal.sub */\n      tag_280\n        /* \"contracts/Token.sol\":4969:4989  _rTotal.sub(rAmount) */\n      jump\t// in\n    tag_281:\n        /* \"contracts/Token.sol\":4959:4966  _rTotal */\n      0x0d\n        /* \"contracts/Token.sol\":4959:4989  _rTotal = _rTotal.sub(rAmount) */\n      sstore\n        /* \"contracts/Token.sol\":5013:5023  _tFeeTotal */\n      sload(0x0e)\n        /* \"contracts/Token.sol\":5013:5036  _tFeeTotal.add(tAmount) */\n      tag_282\n      swap1\n        /* \"contracts/Token.sol\":5028:5035  tAmount */\n      dup5\n        /* \"contracts/Token.sol\":5013:5027  _tFeeTotal.add */\n      tag_273\n        /* \"contracts/Token.sol\":5013:5036  _tFeeTotal.add(tAmount) */\n      jump\t// in\n    tag_282:\n        /* \"contracts/Token.sol\":5000:5010  _tFeeTotal */\n      0x0e\n        /* \"contracts/Token.sol\":5000:5036  _tFeeTotal = _tFeeTotal.add(tAmount) */\n      sstore\n      pop\n      pop\n      pop\n        /* \"contracts/Token.sol\":4667:5044  function deliver(uint256 tAmount) public {\r... */\n      jump\t// out\n        /* \"contracts/Token.sol\":16926:17037  function excludeFromFee(address account) public onlyOwner {\r... */\n    tag_112:\n        /* \"contracts/includes.sol\":5889:5901  _msgSender() */\n      tag_284\n        /* \"contracts/includes.sol\":5889:5899  _msgSender */\n      tag_206\n        /* \"contracts/includes.sol\":5889:5901  _msgSender() */\n      jump\t// in\n    tag_284:\n        /* \"contracts/includes.sol\":5879:5885  _owner */\n      sload(0x00)\n      sub(shl(0xa0, 0x01), 0x01)\n      swap1\n      dup2\n      and\n        /* \"contracts/includes.sol\":5879:5901  _owner == _msgSender() */\n      swap2\n      and\n      eq\n        /* \"contracts/includes.sol\":5871:5938  require(_owner == _msgSender(), \"Ownable: caller is not the owner\") */\n      tag_285\n      jumpi\n      0x40\n      dup1\n      mload\n      shl(0xe5, 0x461bcd)\n      dup2\n      mstore\n      0x20\n      0x04\n      dup3\n      add\n      dup2\n      swap1\n      mstore\n      0x24\n      dup3\n      add\n      mstore\n      0x00\n      dup1\n      mload\n      0x20\n      data_9924ebdf1add33d25d4ef888e16131f0a5687b0580a36c21b5c301a6c462effe\n      dup4\n      codecopy\n      dup2\n      mload\n      swap2\n      mstore\n      0x44\n      dup3\n      add\n      mstore\n      swap1\n      mload\n      swap1\n      dup2\n      swap1\n      sub\n      0x64\n      add\n      swap1\n      revert\n    tag_285:\n      sub(shl(0xa0, 0x01), 0x01)\n        /* \"contracts/Token.sol\":16995:17022  _isExcludedFromFee[account] */\n      and\n      0x00\n      swap1\n      dup2\n      mstore\n        /* \"contracts/Token.sol\":16995:17013  _isExcludedFromFee */\n      0x09\n        /* \"contracts/Token.sol\":16995:17022  _isExcludedFromFee[account] */\n      0x20\n      mstore\n      0x40\n      swap1\n      keccak256\n        /* \"contracts/Token.sol\":16995:17029  _isExcludedFromFee[account] = true */\n      dup1\n      sload\n      not(0xff)\n      and\n        /* \"contracts/Token.sol\":17025:17029  true */\n      0x01\n        /* \"contracts/Token.sol\":16995:17029  _isExcludedFromFee[account] = true */\n      or\n      swap1\n      sstore\n        /* \"contracts/Token.sol\":16926:17037  function excludeFromFee(address account) public onlyOwner {\r... */\n      jump\t// out\n        /* \"contracts/Token.sol\":5054:5491  function reflectionFromToken(uint256 tAmount, bool deductTransferFee) public view returns (uint256) {\r... */\n    tag_116:\n        /* \"contracts/Token.sol\":5145:5152  uint256 */\n      0x00\n        /* \"contracts/Token.sol\":5184:5191  _tTotal */\n      sload(0x0c)\n        /* \"contracts/Token.sol\":5173:5180  tAmount */\n      dup4\n        /* \"contracts/Token.sol\":5173:5191  tAmount <= _tTotal */\n      gt\n      iszero\n        /* \"contracts/Token.sol\":5165:5227  require(tAmount <= _tTotal, \"Amount must be less than supply\") */\n      tag_288\n      jumpi\n      0x40\n      dup1\n      mload\n      shl(0xe5, 0x461bcd)\n      dup2\n      mstore\n      0x20\n      0x04\n      dup3\n      add\n      mstore\n      0x1f\n      0x24\n      dup3\n      add\n      mstore\n      0x416d6f756e74206d757374206265206c657373207468616e20737570706c7900\n      0x44\n      dup3\n      add\n      mstore\n      swap1\n      mload\n      swap1\n      dup2\n      swap1\n      sub\n      0x64\n      add\n      swap1\n      revert\n    tag_288:\n        /* \"contracts/Token.sol\":5243:5260  deductTransferFee */\n      dup2\n        /* \"contracts/Token.sol\":5238:5484  if (!deductTransferFee) {\r... */\n      tag_289\n      jumpi\n        /* \"contracts/Token.sol\":5278:5293  uint256 rAmount */\n      0x00\n        /* \"contracts/Token.sol\":5302:5321  _getValues(tAmount) */\n      tag_290\n        /* \"contracts/Token.sol\":5313:5320  tAmount */\n      dup5\n        /* \"contracts/Token.sol\":5302:5312  _getValues */\n      tag_278\n        /* \"contracts/Token.sol\":5302:5321  _getValues(tAmount) */\n      jump\t// in\n    tag_290:\n      pop\n        /* \"contracts/Token.sol\":5277:5321  (uint256 rAmount,,,,,) = _getValues(tAmount) */\n      swap4\n      swap6\n      pop\n        /* \"contracts/Token.sol\":5336:5350  return rAmount */\n      tag_213\n      swap5\n      pop\n      pop\n      pop\n      pop\n      pop\n      jump\n        /* \"contracts/Token.sol\":5238:5484  if (!deductTransferFee) {\r... */\n    tag_289:\n        /* \"contracts/Token.sol\":5385:5408  uint256 rTransferAmount */\n      0x00\n        /* \"contracts/Token.sol\":5416:5435  _getValues(tAmount) */\n      tag_292\n        /* \"contracts/Token.sol\":5427:5434  tAmount */\n      dup5\n        /* \"contracts/Token.sol\":5416:5426  _getValues */\n      tag_278\n        /* \"contracts/Token.sol\":5416:5435  _getValues(tAmount) */\n      jump\t// in\n    tag_292:\n      pop\n        /* \"contracts/Token.sol\":5383:5435  (,uint256 rTransferAmount,,,,) = _getValues(tAmount) */\n      swap3\n      swap6\n      pop\n        /* \"contracts/Token.sol\":5450:5472  return rTransferAmount */\n      tag_213\n      swap5\n      pop\n      pop\n      pop\n      pop\n      pop\n      jump\n        /* \"contracts/Token.sol\":18631:18720  function setFeeRate(uint256 rate) external onlyOwner() {\r... */\n    tag_120:\n        /* \"contracts/includes.sol\":5889:5901  _msgSender() */\n      tag_294\n        /* \"contracts/includes.sol\":5889:5899  _msgSender */\n      tag_206\n        /* \"contracts/includes.sol\":5889:5901  _msgSender() */\n      jump\t// in\n    tag_294:\n        /* \"contracts/includes.sol\":5879:5885  _owner */\n      sload(0x00)\n      sub(shl(0xa0, 0x01), 0x01)\n      swap1\n      dup2\n      and\n        /* \"contracts/includes.sol\":5879:5901  _owner == _msgSender() */\n      swap2\n      and\n      eq\n        /* \"contracts/includes.sol\":5871:5938  require(_owner == _msgSender(), \"Ownable: caller is not the owner\") */\n      tag_295\n      jumpi\n      0x40\n      dup1\n      mload\n      shl(0xe5, 0x461bcd)\n      dup2\n      mstore\n      0x20\n      0x04\n      dup3\n      add\n      dup2\n      swap1\n      mstore\n      0x24\n      dup3\n      add\n      mstore\n      0x00\n      dup1\n      mload\n      0x20\n      data_9924ebdf1add33d25d4ef888e16131f0a5687b0580a36c21b5c301a6c462effe\n      dup4\n      codecopy\n      dup2\n      mload\n      swap2\n      mstore\n      0x44\n      dup3\n      add\n      mstore\n      swap1\n      mload\n      swap1\n      dup2\n      swap1\n      sub\n      0x64\n      add\n      swap1\n      revert\n    tag_295:\n        /* \"contracts/Token.sol\":18697:18705  _feeRate */\n      0x16\n        /* \"contracts/Token.sol\":18697:18712  _feeRate = rate */\n      sstore\n        /* \"contracts/Token.sol\":18631:18720  function setFeeRate(uint256 rate) external onlyOwner() {\r... */\n      jump\t// out\n        /* \"contracts/Token.sol\":1452:1480  address public uniswapV2Pair */\n    tag_123:\n      and(sub(shl(0xa0, 0x01), 0x01), sload(0x19))\n      dup2\n      jump\t// out\n        /* \"contracts/Token.sol\":5760:6096  function excludeFromReward(address account) public onlyOwner() {\r... */\n    tag_127:\n        /* \"contracts/includes.sol\":5889:5901  _msgSender() */\n      tag_298\n        /* \"contracts/includes.sol\":5889:5899  _msgSender */\n      tag_206\n        /* \"contracts/includes.sol\":5889:5901  _msgSender() */\n      jump\t// in\n    tag_298:\n        /* \"contracts/includes.sol\":5879:5885  _owner */\n      sload(0x00)\n      sub(shl(0xa0, 0x01), 0x01)\n      swap1\n      dup2\n      and\n        /* \"contracts/includes.sol\":5879:5901  _owner == _msgSender() */\n      swap2\n      and\n      eq\n        /* \"contracts/includes.sol\":5871:5938  require(_owner == _msgSender(), \"Ownable: caller is not the owner\") */\n      tag_299\n      jumpi\n      0x40\n      dup1\n      mload\n      shl(0xe5, 0x461bcd)\n      dup2\n      mstore\n      0x20\n      0x04\n      dup3\n      add\n      dup2\n      swap1\n      mstore\n      0x24\n      dup3\n      add\n      mstore\n      0x00\n      dup1\n      mload\n      0x20\n      data_9924ebdf1add33d25d4ef888e16131f0a5687b0580a36c21b5c301a6c462effe\n      dup4\n      codecopy\n      dup2\n      mload\n      swap2\n      mstore\n      0x44\n      dup3\n      add\n      mstore\n      swap1\n      mload\n      swap1\n      dup2\n      swap1\n      sub\n      0x64\n      add\n      swap1\n      revert\n    tag_299:\n      sub(shl(0xa0, 0x01), 0x01)\n        /* \"contracts/Token.sol\":5845:5865  _isExcluded[account] */\n      dup2\n      and\n      0x00\n      swap1\n      dup2\n      mstore\n        /* \"contracts/Token.sol\":5845:5856  _isExcluded */\n      0x0a\n        /* \"contracts/Token.sol\":5845:5865  _isExcluded[account] */\n      0x20\n      mstore\n      0x40\n      swap1\n      keccak256\n      sload\n      0xff\n      and\n        /* \"contracts/Token.sol\":5844:5865  !_isExcluded[account] */\n      iszero\n        /* \"contracts/Token.sol\":5836:5897  require(!_isExcluded[account], \"Account is already excluded\") */\n      tag_301\n      jumpi\n      0x40\n      dup1\n      mload\n      shl(0xe5, 0x461bcd)\n      dup2\n      mstore\n      0x20\n      0x04\n      dup3\n      add\n      mstore\n      0x1b\n      0x24\n      dup3\n      add\n      mstore\n      0x4163636f756e7420697320616c7265616479206578636c756465640000000000\n      0x44\n      dup3\n      add\n      mstore\n      swap1\n      mload\n      swap1\n      dup2\n      swap1\n      sub\n      0x64\n      add\n      swap1\n      revert\n    tag_301:\n      sub(shl(0xa0, 0x01), 0x01)\n        /* \"contracts/Token.sol\":5912:5928  _rOwned[account] */\n      dup2\n      and\n        /* \"contracts/Token.sol\":5931:5932  0 */\n      0x00\n        /* \"contracts/Token.sol\":5912:5928  _rOwned[account] */\n      swap1\n      dup2\n      mstore\n        /* \"contracts/Token.sol\":5912:5919  _rOwned */\n      0x04\n        /* \"contracts/Token.sol\":5912:5928  _rOwned[account] */\n      0x20\n      mstore\n      0x40\n      swap1\n      keccak256\n      sload\n        /* \"contracts/Token.sol\":5912:5932  _rOwned[account] > 0 */\n      iszero\n        /* \"contracts/Token.sol\":5908:6017  if (_rOwned[account] > 0) {\r... */\n      tag_302\n      jumpi\n      sub(shl(0xa0, 0x01), 0x01)\n        /* \"contracts/Token.sol\":5988:6004  _rOwned[account] */\n      dup2\n      and\n      0x00\n      swap1\n      dup2\n      mstore\n        /* \"contracts/Token.sol\":5988:5995  _rOwned */\n      0x04\n        /* \"contracts/Token.sol\":5988:6004  _rOwned[account] */\n      0x20\n      mstore\n      0x40\n      swap1\n      keccak256\n      sload\n        /* \"contracts/Token.sol\":5968:6005  tokenFromReflection(_rOwned[account]) */\n      tag_303\n      swap1\n        /* \"contracts/Token.sol\":5968:5987  tokenFromReflection */\n      tag_86\n        /* \"contracts/Token.sol\":5968:6005  tokenFromReflection(_rOwned[account]) */\n      jump\t// in\n    tag_303:\n      sub(shl(0xa0, 0x01), 0x01)\n        /* \"contracts/Token.sol\":5949:5965  _tOwned[account] */\n      dup3\n      and\n      0x00\n      swap1\n      dup2\n      mstore\n        /* \"contracts/Token.sol\":5949:5956  _tOwned */\n      0x05\n        /* \"contracts/Token.sol\":5949:5965  _tOwned[account] */\n      0x20\n      mstore\n      0x40\n      swap1\n      keccak256\n        /* \"contracts/Token.sol\":5949:6005  _tOwned[account] = tokenFromReflection(_rOwned[account]) */\n      sstore\n        /* \"contracts/Token.sol\":5908:6017  if (_rOwned[account] > 0) {\r... */\n    tag_302:\n      sub(shl(0xa0, 0x01), 0x01)\n        /* \"contracts/Token.sol\":6027:6047  _isExcluded[account] */\n      and\n      0x00\n      dup2\n      dup2\n      mstore\n        /* \"contracts/Token.sol\":6027:6038  _isExcluded */\n      0x0a\n        /* \"contracts/Token.sol\":6027:6047  _isExcluded[account] */\n      0x20\n      mstore\n      0x40\n      dup2\n      keccak256\n        /* \"contracts/Token.sol\":6027:6054  _isExcluded[account] = true */\n      dup1\n      sload\n      not(0xff)\n      and\n        /* \"contracts/Token.sol\":6050:6054  true */\n      0x01\n        /* \"contracts/Token.sol\":6027:6054  _isExcluded[account] = true */\n      swap1\n      dup2\n      or\n      swap1\n      swap2\n      sstore\n        /* \"contracts/Token.sol\":6065:6074  _excluded */\n      0x0b\n        /* \"contracts/Token.sol\":6065:6088  _excluded.push(account) */\n      dup1\n      sload\n      swap2\n      dup3\n      add\n      dup2\n      sstore\n      swap1\n      swap2\n      mstore\n      0x0175b7a638427703f0dbe7bb9bbf987a2551717b34e79f33b5b1008d1fa01db9\n      add\n      dup1\n      sload\n      not(sub(shl(0xa0, 0x01), 0x01))\n      and\n      swap1\n      swap2\n      or\n      swap1\n      sstore\n        /* \"contracts/Token.sol\":5760:6096  function excludeFromReward(address account) public onlyOwner() {\r... */\n      jump\t// out\n        /* \"contracts/Token.sol\":16794:16918  function isExcludedFromFee(address account) public view returns (bool) {\r... */\n    tag_131:\n      sub(shl(0xa0, 0x01), 0x01)\n        /* \"contracts/Token.sol\":16883:16910  _isExcludedFromFee[account] */\n      and\n        /* \"contracts/Token.sol\":16859:16863  bool */\n      0x00\n        /* \"contracts/Token.sol\":16883:16910  _isExcludedFromFee[account] */\n      swap1\n      dup2\n      mstore\n        /* \"contracts/Token.sol\":16883:16901  _isExcludedFromFee */\n      0x09\n        /* \"contracts/Token.sol\":16883:16910  _isExcludedFromFee[account] */\n      0x20\n      mstore\n      0x40\n      swap1\n      keccak256\n      sload\n      0xff\n      and\n      swap1\n        /* \"contracts/Token.sol\":16794:16918  function isExcludedFromFee(address account) public view returns (bool) {\r... */\n      jump\t// out\n        /* \"contracts/Token.sol\":17686:17799  function isRemovedSniper(address account) public view returns (bool) {\r... */\n    tag_135:\n      sub(shl(0xa0, 0x01), 0x01)\n        /* \"contracts/Token.sol\":17773:17791  _isSniper[account] */\n      and\n        /* \"contracts/Token.sol\":17749:17753  bool */\n      0x00\n        /* \"contracts/Token.sol\":17773:17791  _isSniper[account] */\n      swap1\n      dup2\n      mstore\n        /* \"contracts/Token.sol\":17773:17782  _isSniper */\n      0x07\n        /* \"contracts/Token.sol\":17773:17791  _isSniper[account] */\n      0x20\n      mstore\n      0x40\n      swap1\n      keccak256\n      sload\n      0xff\n      and\n      swap1\n        /* \"contracts/Token.sol\":17686:17799  function isRemovedSniper(address account) public view returns (bool) {\r... */\n      jump\t// out\n        /* \"contracts/Token.sol\":1234:1267  uint256 public _liquidityFee = 10 */\n    tag_138:\n      sload(0x14)\n      dup2\n      jump\t// out\n        /* \"contracts/Token.sol\":2917:3115  function balanceOf(address account) public view override returns (uint256) {\r... */\n    tag_142:\n      sub(shl(0xa0, 0x01), 0x01)\n        /* \"contracts/Token.sol\":3007:3027  _isExcluded[account] */\n      dup2\n      and\n        /* \"contracts/Token.sol\":2983:2990  uint256 */\n      0x00\n        /* \"contracts/Token.sol\":3007:3027  _isExcluded[account] */\n      swap1\n      dup2\n      mstore\n        /* \"contracts/Token.sol\":3007:3018  _isExcluded */\n      0x0a\n        /* \"contracts/Token.sol\":3007:3027  _isExcluded[account] */\n      0x20\n      mstore\n      0x40\n      dup2\n      keccak256\n      sload\n      0xff\n      and\n        /* \"contracts/Token.sol\":3003:3052  if (_isExcluded[account]) return _tOwned[account] */\n      iszero\n      tag_308\n      jumpi\n      pop\n      sub(shl(0xa0, 0x01), 0x01)\n        /* \"contracts/Token.sol\":3036:3052  _tOwned[account] */\n      dup2\n      and\n      0x00\n      swap1\n      dup2\n      mstore\n        /* \"contracts/Token.sol\":3036:3043  _tOwned */\n      0x05\n        /* \"contracts/Token.sol\":3036:3052  _tOwned[account] */\n      0x20\n      mstore\n      0x40\n      swap1\n      keccak256\n      sload\n        /* \"contracts/Token.sol\":3029:3052  return _tOwned[account] */\n      jump(tag_227)\n        /* \"contracts/Token.sol\":3003:3052  if (_isExcluded[account]) return _tOwned[account] */\n    tag_308:\n      sub(shl(0xa0, 0x01), 0x01)\n        /* \"contracts/Token.sol\":3090:3106  _rOwned[account] */\n      dup3\n      and\n      0x00\n      swap1\n      dup2\n      mstore\n        /* \"contracts/Token.sol\":3090:3097  _rOwned */\n      0x04\n        /* \"contracts/Token.sol\":3090:3106  _rOwned[account] */\n      0x20\n      mstore\n      0x40\n      swap1\n      keccak256\n      sload\n        /* \"contracts/Token.sol\":3070:3107  tokenFromReflection(_rOwned[account]) */\n      tag_213\n      swap1\n        /* \"contracts/Token.sol\":3070:3089  tokenFromReflection */\n      tag_86\n        /* \"contracts/Token.sol\":3070:3107  tokenFromReflection(_rOwned[account]) */\n      jump\t// in\n        /* \"contracts/includes.sol\":5966:6114  function renounceOwnership() public virtual onlyOwner {\r... */\n    tag_145:\n        /* \"contracts/includes.sol\":5889:5901  _msgSender() */\n      tag_311\n        /* \"contracts/includes.sol\":5889:5899  _msgSender */\n      tag_206\n        /* \"contracts/includes.sol\":5889:5901  _msgSender() */\n      jump\t// in\n    tag_311:\n        /* \"contracts/includes.sol\":5879:5885  _owner */\n      sload(0x00)\n      sub(shl(0xa0, 0x01), 0x01)\n      swap1\n      dup2\n      and\n        /* \"contracts/includes.sol\":5879:5901  _owner == _msgSender() */\n      swap2\n      and\n      eq\n        /* \"contracts/includes.sol\":5871:5938  require(_owner == _msgSender(), \"Ownable: caller is not the owner\") */\n      tag_312\n      jumpi\n      0x40\n      dup1\n      mload\n      shl(0xe5, 0x461bcd)\n      dup2\n      mstore\n      0x20\n      0x04\n      dup3\n      add\n      dup2\n      swap1\n      mstore\n      0x24\n      dup3\n      add\n      mstore\n      0x00\n      dup1\n      mload\n      0x20\n      data_9924ebdf1add33d25d4ef888e16131f0a5687b0580a36c21b5c301a6c462effe\n      dup4\n      codecopy\n      dup2\n      mload\n      swap2\n      mstore\n      0x44\n      dup3\n      add\n      mstore\n      swap1\n      mload\n      swap1\n      dup2\n      swap1\n      sub\n      0x64\n      add\n      swap1\n      revert\n    tag_312:\n        /* \"contracts/includes.sol\":6073:6074  0 */\n      0x00\n        /* \"contracts/includes.sol\":6057:6063  _owner */\n      dup1\n      sload\n        /* \"contracts/includes.sol\":6036:6076  OwnershipTransferred(_owner, address(0)) */\n      mload(0x40)\n      sub(shl(0xa0, 0x01), 0x01)\n        /* \"contracts/includes.sol\":6057:6063  _owner */\n      swap1\n      swap2\n      and\n      swap1\n        /* \"contracts/includes.sol\":6036:6076  OwnershipTransferred(_owner, address(0)) */\n      0x8be0079c531659141344cd1fd0a4f28419497f9722a3daafe3b4186f6b6457e0\n      swap1\n        /* \"contracts/includes.sol\":6073:6074  0 */\n      dup4\n      swap1\n        /* \"contracts/includes.sol\":6036:6076  OwnershipTransferred(_owner, address(0)) */\n      log3\n        /* \"contracts/includes.sol\":6104:6105  0 */\n      0x00\n        /* \"contracts/includes.sol\":6087:6106  _owner = address(0) */\n      dup1\n      sload\n      not(sub(shl(0xa0, 0x01), 0x01))\n      and\n      swap1\n      sstore\n        /* \"contracts/includes.sol\":5966:6114  function renounceOwnership() public virtual onlyOwner {\r... */\n      jump\t// out\n        /* \"contracts/Token.sol\":18728:18823  function getBlockTime() public view returns (uint256) {\r... */\n    tag_148:\n        /* \"contracts/Token.sol\":18800:18815  block.timestamp */\n      timestamp\n        /* \"contracts/Token.sol\":18728:18823  function getBlockTime() public view returns (uint256) {\r... */\n      swap1\n      jump\t// out\n        /* \"contracts/Token.sol\":4442:4562  function isExcludedFromReward(address account) public view returns (bool) {\r... */\n    tag_152:\n      sub(shl(0xa0, 0x01), 0x01)\n        /* \"contracts/Token.sol\":4534:4554  _isExcluded[account] */\n      and\n        /* \"contracts/Token.sol\":4510:4514  bool */\n      0x00\n        /* \"contracts/Token.sol\":4534:4554  _isExcluded[account] */\n      swap1\n      dup2\n      mstore\n        /* \"contracts/Token.sol\":4534:4545  _isExcluded */\n      0x0a\n        /* \"contracts/Token.sol\":4534:4554  _isExcluded[account] */\n      0x20\n      mstore\n      0x40\n      swap1\n      keccak256\n      sload\n      0xff\n      and\n      swap1\n        /* \"contracts/Token.sol\":4442:4562  function isExcludedFromReward(address account) public view returns (bool) {\r... */\n      jump\t// out\n        /* \"contracts/includes.sol\":5752:5831  function owner() public view returns (address) {\r... */\n    tag_155:\n        /* \"contracts/includes.sol\":5790:5797  address */\n      0x00\n        /* \"contracts/includes.sol\":5817:5823  _owner */\n      sload\n      sub(shl(0xa0, 0x01), 0x01)\n      and\n        /* \"contracts/includes.sol\":5752:5831  function owner() public view returns (address) {\r... */\n      swap1\n      jump\t// out\n        /* \"contracts/Token.sol\":17269:17391  function setLiquidityFeePercent(uint256 liquidityFee) external onlyOwner() {\r... */\n    tag_159:\n        /* \"contracts/includes.sol\":5889:5901  _msgSender() */\n      tag_318\n        /* \"contracts/includes.sol\":5889:5899  _msgSender */\n      tag_206\n        /* \"contracts/includes.sol\":5889:5901  _msgSender() */\n      jump\t// in\n    tag_318:\n        /* \"contracts/includes.sol\":5879:5885  _owner */\n      sload(0x00)\n      sub(shl(0xa0, 0x01), 0x01)\n      swap1\n      dup2\n      and\n        /* \"contracts/includes.sol\":5879:5901  _owner == _msgSender() */\n      swap2\n      and\n      eq\n        /* \"contracts/includes.sol\":5871:5938  require(_owner == _msgSender(), \"Ownable: caller is not the owner\") */\n      tag_319\n      jumpi\n      0x40\n      dup1\n      mload\n      shl(0xe5, 0x461bcd)\n      dup2\n      mstore\n      0x20\n      0x04\n      dup3\n      add\n      dup2\n      swap1\n      mstore\n      0x24\n      dup3\n      add\n      mstore\n      0x00\n      dup1\n      mload\n      0x20\n      data_9924ebdf1add33d25d4ef888e16131f0a5687b0580a36c21b5c301a6c462effe\n      dup4\n      codecopy\n      dup2\n      mload\n      swap2\n      mstore\n      0x44\n      dup3\n      add\n      mstore\n      swap1\n      mload\n      swap1\n      dup2\n      swap1\n      sub\n      0x64\n      add\n      swap1\n      revert\n    tag_319:\n        /* \"contracts/Token.sol\":17355:17368  _liquidityFee */\n      0x14\n        /* \"contracts/Token.sol\":17355:17383  _liquidityFee = liquidityFee */\n      sstore\n        /* \"contracts/Token.sol\":17269:17391  function setLiquidityFeePercent(uint256 liquidityFee) external onlyOwner() {\r... */\n      jump\t// out\n        /* \"contracts/Token.sol\":17401:17542  function setMarketingAddress(address _marketingAddress) external onlyOwner() {\r... */\n    tag_163:\n        /* \"contracts/includes.sol\":5889:5901  _msgSender() */\n      tag_322\n        /* \"contracts/includes.sol\":5889:5899  _msgSender */\n      tag_206\n        /* \"contracts/includes.sol\":5889:5901  _msgSender() */\n      jump\t// in\n    tag_322:\n        /* \"contracts/includes.sol\":5879:5885  _owner */\n      sload(0x00)\n      sub(shl(0xa0, 0x01), 0x01)\n      swap1\n      dup2\n      and\n        /* \"contracts/includes.sol\":5879:5901  _owner == _msgSender() */\n      swap2\n      and\n      eq\n        /* \"contracts/includes.sol\":5871:5938  require(_owner == _msgSender(), \"Ownable: caller is not the owner\") */\n      tag_323\n      jumpi\n      0x40\n      dup1\n      mload\n      shl(0xe5, 0x461bcd)\n      dup2\n      mstore\n      0x20\n      0x04\n      dup3\n      add\n      dup2\n      swap1\n      mstore\n      0x24\n      dup3\n      add\n      mstore\n      0x00\n      dup1\n      mload\n      0x20\n      data_9924ebdf1add33d25d4ef888e16131f0a5687b0580a36c21b5c301a6c462effe\n      dup4\n      codecopy\n      dup2\n      mload\n      swap2\n      mstore\n      0x44\n      dup3\n      add\n      mstore\n      swap1\n      mload\n      swap1\n      dup2\n      swap1\n      sub\n      0x64\n      add\n      swap1\n      revert\n    tag_323:\n        /* \"contracts/Token.sol\":17489:17505  marketingAddress */\n      0x03\n        /* \"contracts/Token.sol\":17489:17534  marketingAddress = payable(_marketingAddress) */\n      dup1\n      sload\n      not(sub(shl(0xa0, 0x01), 0x01))\n      and\n      sub(shl(0xa0, 0x01), 0x01)\n      swap3\n      swap1\n      swap3\n      and\n      swap2\n      swap1\n      swap2\n      or\n      swap1\n      sstore\n        /* \"contracts/Token.sol\":17401:17542  function setMarketingAddress(address _marketingAddress) external onlyOwner() {\r... */\n      jump\t// out\n        /* \"contracts/Token.sol\":2628:2715  function symbol() public view returns (string memory) {\r... */\n    tag_166:\n        /* \"contracts/Token.sol\":2700:2707  _symbol */\n      0x10\n        /* \"contracts/Token.sol\":2693:2707  return _symbol */\n      dup1\n      sload\n      0x40\n      dup1\n      mload\n      0x20\n      0x1f\n      0x02\n      not(0x00)\n      0x0100\n      0x01\n      dup9\n      and\n      iszero\n      mul\n      add\n      swap1\n      swap6\n      and\n      swap5\n      swap1\n      swap5\n      div\n      swap4\n      dup5\n      add\n      dup2\n      swap1\n      div\n      dup2\n      mul\n      dup3\n      add\n      dup2\n      add\n      swap1\n      swap3\n      mstore\n      dup3\n      dup2\n      mstore\n        /* \"contracts/Token.sol\":2667:2680  string memory */\n      0x60\n      swap4\n        /* \"contracts/Token.sol\":2693:2707  return _symbol */\n      swap1\n      swap3\n        /* \"contracts/Token.sol\":2700:2707  _symbol */\n      swap1\n      swap2\n        /* \"contracts/Token.sol\":2693:2707  return _symbol */\n      dup4\n      add\n        /* \"contracts/Token.sol\":2700:2707  _symbol */\n      dup3\n        /* \"contracts/Token.sol\":2693:2707  return _symbol */\n      dup3\n      dup1\n      iszero\n      tag_210\n      jumpi\n      dup1\n      0x1f\n      lt\n      tag_211\n      jumpi\n      0x0100\n      dup1\n      dup4\n      sload\n      div\n      mul\n      dup4\n      mstore\n      swap2\n      0x20\n      add\n      swap2\n      jump(tag_210)\n        /* \"contracts/Token.sol\":4165:4434  function decreaseAllowance(address spender, uint256 subtractedValue) public virtual returns (bool) {\r... */\n    tag_174:\n        /* \"contracts/Token.sol\":4258:4262  bool */\n      0x00\n        /* \"contracts/Token.sol\":4275:4404  _approve(_msgSender(), spender, _allowances[_msgSender()][spender].sub(subtractedValue, \"ERC20: decreased allowance below zero\")) */\n      tag_214\n        /* \"contracts/Token.sol\":4284:4296  _msgSender() */\n      tag_331\n        /* \"contracts/Token.sol\":4284:4294  _msgSender */\n      tag_206\n        /* \"contracts/Token.sol\":4284:4296  _msgSender() */\n      jump\t// in\n    tag_331:\n        /* \"contracts/Token.sol\":4298:4305  spender */\n      dup5\n        /* \"contracts/Token.sol\":4307:4403  _allowances[_msgSender()][spender].sub(subtractedValue, \"ERC20: decreased allowance below zero\") */\n      tag_224\n        /* \"contracts/Token.sol\":4346:4361  subtractedValue */\n      dup6\n        /* \"contracts/Token.sol\":4307:4403  _allowances[_msgSender()][spender].sub(subtractedValue, \"ERC20: decreased allowance below zero\") */\n      mload(0x40)\n      dup1\n      0x60\n      add\n      0x40\n      mstore\n      dup1\n      0x25\n      dup2\n      mstore\n      0x20\n      add\n      data_f8b476f7d28209d77d4a4ac1fe36b9f8259aa1bb6bddfa6e89de7e51615cf8a8\n      0x25\n      swap2\n      codecopy\n        /* \"contracts/Token.sol\":4307:4318  _allowances */\n      0x06\n        /* \"contracts/Token.sol\":4307:4332  _allowances[_msgSender()] */\n      0x00\n        /* \"contracts/Token.sol\":4319:4331  _msgSender() */\n      tag_333\n        /* \"contracts/Token.sol\":4319:4329  _msgSender */\n      tag_206\n        /* \"contracts/Token.sol\":4319:4331  _msgSender() */\n      jump\t// in\n    tag_333:\n      sub(shl(0xa0, 0x01), 0x01)\n        /* \"contracts/Token.sol\":4307:4332  _allowances[_msgSender()] */\n      swap1\n      dup2\n      and\n      dup3\n      mstore\n      0x20\n      dup1\n      dup4\n      add\n      swap4\n      swap1\n      swap4\n      mstore\n      0x40\n      swap2\n      dup3\n      add\n      0x00\n      swap1\n      dup2\n      keccak256\n        /* \"contracts/Token.sol\":4307:4341  _allowances[_msgSender()][spender] */\n      swap2\n      dup14\n      and\n      dup2\n      mstore\n      swap3\n      mstore\n      swap1\n      keccak256\n      sload\n      swap2\n        /* \"contracts/Token.sol\":4307:4403  _allowances[_msgSender()][spender].sub(subtractedValue, \"ERC20: decreased allowance below zero\") */\n      swap1\n        /* \"contracts/Token.sol\":4307:4345  _allowances[_msgSender()][spender].sub */\n      tag_226\n        /* \"contracts/Token.sol\":4307:4403  _allowances[_msgSender()][spender].sub(subtractedValue, \"ERC20: decreased allowance below zero\") */\n      jump\t// in\n        /* \"contracts/Token.sol\":208:301  address payable public marketingAddress = payable(0x40da1dd681eC6175C3BCFe1641CD2826A99EBdD8) */\n    tag_177:\n      and(sub(shl(0xa0, 0x01), 0x01), sload(0x03))\n      dup2\n      jump\t// out\n        /* \"contracts/Token.sol\":3123:3290  function transfer(address recipient, uint256 amount) public override returns (bool) {\r... */\n    tag_181:\n        /* \"contracts/Token.sol\":3201:3205  bool */\n      0x00\n        /* \"contracts/Token.sol\":3218:3260  _transfer(_msgSender(), recipient, amount) */\n      tag_214\n        /* \"contracts/Token.sol\":3228:3240  _msgSender() */\n      tag_336\n        /* \"contracts/Token.sol\":3228:3238  _msgSender */\n      tag_206\n        /* \"contracts/Token.sol\":3228:3240  _msgSender() */\n      jump\t// in\n    tag_336:\n        /* \"contracts/Token.sol\":3242:3251  recipient */\n      dup5\n        /* \"contracts/Token.sol\":3253:3259  amount */\n      dup5\n        /* \"contracts/Token.sol\":3218:3227  _transfer */\n      tag_221\n        /* \"contracts/Token.sol\":3218:3260  _transfer(_msgSender(), recipient, amount) */\n      jump\t// in\n        /* \"contracts/Token.sol\":2409:2529  function openTrading() external onlyOwner() {\r... */\n    tag_184:\n        /* \"contracts/includes.sol\":5889:5901  _msgSender() */\n      tag_338\n        /* \"contracts/includes.sol\":5889:5899  _msgSender */\n      tag_206\n        /* \"contracts/includes.sol\":5889:5901  _msgSender() */\n      jump\t// in\n    tag_338:\n        /* \"contracts/includes.sol\":5879:5885  _owner */\n      sload(0x00)\n      sub(shl(0xa0, 0x01), 0x01)\n      swap1\n      dup2\n      and\n        /* \"contracts/includes.sol\":5879:5901  _owner == _msgSender() */\n      swap2\n      and\n      eq\n        /* \"contracts/includes.sol\":5871:5938  require(_owner == _msgSender(), \"Ownable: caller is not the owner\") */\n      tag_339\n      jumpi\n      0x40\n      dup1\n      mload\n      shl(0xe5, 0x461bcd)\n      dup2\n      mstore\n      0x20\n      0x04\n      dup3\n      add\n      dup2\n      swap1\n      mstore\n      0x24\n      dup3\n      add\n      mstore\n      0x00\n      dup1\n      mload\n      0x20\n      data_9924ebdf1add33d25d4ef888e16131f0a5687b0580a36c21b5c301a6c462effe\n      dup4\n      codecopy\n      dup2\n      mload\n      swap2\n      mstore\n      0x44\n      dup3\n      add\n      mstore\n      swap1\n      mload\n      swap1\n      dup2\n      swap1\n      sub\n      0x64\n      add\n      swap1\n      revert\n    tag_339:\n        /* \"contracts/Token.sol\":2464:2475  tradingOpen */\n      0x19\n        /* \"contracts/Token.sol\":2464:2482  tradingOpen = true */\n      dup1\n      sload\n      not(shl(0xa8, 0xff))\n      and\n      shl(0xa8, 0x01)\n      or\n      swap1\n      sstore\n        /* \"contracts/Token.sol\":2506:2521  block.timestamp */\n      timestamp\n        /* \"contracts/Token.sol\":2493:2503  launchTime */\n      0x17\n        /* \"contracts/Token.sol\":2493:2521  launchTime = block.timestamp */\n      sstore\n        /* \"contracts/Token.sol\":2409:2529  function openTrading() external onlyOwner() {\r... */\n      jump\t// out\n        /* \"contracts/Token.sol\":18831:18946  function emergencyWithdraw() external onlyOwner {\r... */\n    tag_187:\n        /* \"contracts/includes.sol\":5889:5901  _msgSender() */\n      tag_342\n        /* \"contracts/includes.sol\":5889:5899  _msgSender */\n      tag_206\n        /* \"contracts/includes.sol\":5889:5901  _msgSender() */\n      jump\t// in\n    tag_342:\n        /* \"contracts/includes.sol\":5879:5885  _owner */\n      sload(0x00)\n      sub(shl(0xa0, 0x01), 0x01)\n      swap1\n      dup2\n      and\n        /* \"contracts/includes.sol\":5879:5901  _owner == _msgSender() */\n      swap2\n      and\n      eq\n        /* \"contracts/includes.sol\":5871:5938  require(_owner == _msgSender(), \"Ownable: caller is not the owner\") */\n      tag_343\n      jumpi\n      0x40\n      dup1\n      mload\n      shl(0xe5, 0x461bcd)\n      dup2\n      mstore\n      0x20\n      0x04\n      dup3\n      add\n      dup2\n      swap1\n      mstore\n      0x24\n      dup3\n      add\n      mstore\n      0x00\n      dup1\n      mload\n      0x20\n      data_9924ebdf1add33d25d4ef888e16131f0a5687b0580a36c21b5c301a6c462effe\n      dup4\n      codecopy\n      dup2\n      mload\n      swap2\n      mstore\n      0x44\n      dup3\n      add\n      mstore\n      swap1\n      mload\n      swap1\n      dup2\n      swap1\n      sub\n      0x64\n      add\n      swap1\n      revert\n    tag_343:\n        /* \"contracts/Token.sol\":18898:18905  owner() */\n      tag_345\n        /* \"contracts/Token.sol\":18898:18903  owner */\n      tag_155\n        /* \"contracts/Token.sol\":18898:18905  owner() */\n      jump\t// in\n    tag_345:\n      sub(shl(0xa0, 0x01), 0x01)\n        /* \"contracts/Token.sol\":18890:18915  payable(owner()).transfer */\n      and\n        /* \"contracts/Token.sol\":18890:18938  payable(owner()).transfer(address(this).balance) */\n      0x08fc\n        /* \"contracts/Token.sol\":18916:18937  address(this).balance */\n      selfbalance\n        /* \"contracts/Token.sol\":18890:18938  payable(owner()).transfer(address(this).balance) */\n      swap1\n      dup2\n      iszero\n      mul\n      swap1\n      mload(0x40)\n      0x00\n      mload(0x40)\n      dup1\n      dup4\n      sub\n      dup2\n      dup6\n      dup9\n      dup9\n      call\n      swap4\n      pop\n      pop\n      pop\n      pop\n      iszero\n      dup1\n      iszero\n      tag_347\n      jumpi\n      returndatasize\n      0x00\n      dup1\n      returndatacopy\n      revert(0x00, returndatasize)\n    tag_347:\n      pop\n        /* \"contracts/Token.sol\":18831:18946  function emergencyWithdraw() external onlyOwner {\r... */\n      jump\t// out\n        /* \"contracts/Token.sol\":3298:3441  function allowance(address owner, address spender) public view override returns (uint256) {\r... */\n    tag_191:\n      sub(shl(0xa0, 0x01), 0x01)\n        /* \"contracts/Token.sol\":3406:3424  _allowances[owner] */\n      swap2\n      dup3\n      and\n        /* \"contracts/Token.sol\":3379:3386  uint256 */\n      0x00\n        /* \"contracts/Token.sol\":3406:3424  _allowances[owner] */\n      swap1\n      dup2\n      mstore\n        /* \"contracts/Token.sol\":3406:3417  _allowances */\n      0x06\n        /* \"contracts/Token.sol\":3406:3424  _allowances[owner] */\n      0x20\n      swap1\n      dup2\n      mstore\n      0x40\n      dup1\n      dup4\n      keccak256\n        /* \"contracts/Token.sol\":3406:3433  _allowances[owner][spender] */\n      swap4\n      swap1\n      swap5\n      and\n      dup3\n      mstore\n      swap2\n      swap1\n      swap2\n      mstore\n      keccak256\n      sload\n      swap1\n        /* \"contracts/Token.sol\":3298:3441  function allowance(address owner, address spender) public view override returns (uint256) {\r... */\n      jump\t// out\n        /* \"contracts/Token.sol\":17045:17155  function includeInFee(address account) public onlyOwner {\r... */\n    tag_195:\n        /* \"contracts/includes.sol\":5889:5901  _msgSender() */\n      tag_350\n        /* \"contracts/includes.sol\":5889:5899  _msgSender */\n      tag_206\n        /* \"contracts/includes.sol\":5889:5901  _msgSender() */\n      jump\t// in\n    tag_350:\n        /* \"contracts/includes.sol\":5879:5885  _owner */\n      sload(0x00)\n      sub(shl(0xa0, 0x01), 0x01)\n      swap1\n      dup2\n      and\n        /* \"contracts/includes.sol\":5879:5901  _owner == _msgSender() */\n      swap2\n      and\n      eq\n        /* \"contracts/includes.sol\":5871:5938  require(_owner == _msgSender(), \"Ownable: caller is not the owner\") */\n      tag_351\n      jumpi\n      0x40\n      dup1\n      mload\n      shl(0xe5, 0x461bcd)\n      dup2\n      mstore\n      0x20\n      0x04\n      dup3\n      add\n      dup2\n      swap1\n      mstore\n      0x24\n      dup3\n      add\n      mstore\n      0x00\n      dup1\n      mload\n      0x20\n      data_9924ebdf1add33d25d4ef888e16131f0a5687b0580a36c21b5c301a6c462effe\n      dup4\n      codecopy\n      dup2\n      mload\n      swap2\n      mstore\n      0x44\n      dup3\n      add\n      mstore\n      swap1\n      mload\n      swap1\n      dup2\n      swap1\n      sub\n      0x64\n      add\n      swap1\n      revert\n    tag_351:\n      sub(shl(0xa0, 0x01), 0x01)\n        /* \"contracts/Token.sol\":17112:17139  _isExcludedFromFee[account] */\n      and\n        /* \"contracts/Token.sol\":17142:17147  false */\n      0x00\n        /* \"contracts/Token.sol\":17112:17139  _isExcludedFromFee[account] */\n      swap1\n      dup2\n      mstore\n        /* \"contracts/Token.sol\":17112:17130  _isExcludedFromFee */\n      0x09\n        /* \"contracts/Token.sol\":17112:17139  _isExcludedFromFee[account] */\n      0x20\n      mstore\n      0x40\n      swap1\n      keccak256\n        /* \"contracts/Token.sol\":17112:17147  _isExcludedFromFee[account] = false */\n      dup1\n      sload\n      not(0xff)\n      and\n      swap1\n      sstore\n        /* \"contracts/Token.sol\":17045:17155  function includeInFee(address account) public onlyOwner {\r... */\n      jump\t// out\n        /* \"contracts/includes.sol\":6122:6366  function transferOwnership(address newOwner) public virtual onlyOwner {\r... */\n    tag_199:\n        /* \"contracts/includes.sol\":5889:5901  _msgSender() */\n      tag_354\n        /* \"contracts/includes.sol\":5889:5899  _msgSender */\n      tag_206\n        /* \"contracts/includes.sol\":5889:5901  _msgSender() */\n      jump\t// in\n    tag_354:\n        /* \"contracts/includes.sol\":5879:5885  _owner */\n      sload(0x00)\n      sub(shl(0xa0, 0x01), 0x01)\n      swap1\n      dup2\n      and\n        /* \"contracts/includes.sol\":5879:5901  _owner == _msgSender() */\n      swap2\n      and\n      eq\n        /* \"contracts/includes.sol\":5871:5938  require(_owner == _msgSender(), \"Ownable: caller is not the owner\") */\n      tag_355\n      jumpi\n      0x40\n      dup1\n      mload\n      shl(0xe5, 0x461bcd)\n      dup2\n      mstore\n      0x20\n      0x04\n      dup3\n      add\n      dup2\n      swap1\n      mstore\n      0x24\n      dup3\n      add\n      mstore\n      0x00\n      dup1\n      mload\n      0x20\n      data_9924ebdf1add33d25d4ef888e16131f0a5687b0580a36c21b5c301a6c462effe\n      dup4\n      codecopy\n      dup2\n      mload\n      swap2\n      mstore\n      0x44\n      dup3\n      add\n      mstore\n      swap1\n      mload\n      swap1\n      dup2\n      swap1\n      sub\n      0x64\n      add\n      swap1\n      revert\n    tag_355:\n      sub(shl(0xa0, 0x01), 0x01)\n        /* \"contracts/includes.sol\":6211:6233  newOwner != address(0) */\n      dup2\n      and\n        /* \"contracts/includes.sol\":6203:6276  require(newOwner != address(0), \"Ownable: new owner is the zero address\") */\n      tag_357\n      jumpi\n      mload(0x40)\n      shl(0xe5, 0x461bcd)\n      dup2\n      mstore\n      0x04\n      add\n      dup1\n      dup1\n      0x20\n      add\n      dup3\n      dup2\n      sub\n      dup3\n      mstore\n      0x26\n      dup2\n      mstore\n      0x20\n      add\n      dup1\n      data_245f15ff17f551913a7a18385165551503906a406f905ac1c2437281a7cd0cfe\n      0x26\n      swap2\n      codecopy\n      0x40\n      add\n      swap2\n      pop\n      pop\n      mload(0x40)\n      dup1\n      swap2\n      sub\n      swap1\n      revert\n    tag_357:\n        /* \"contracts/includes.sol\":6313:6319  _owner */\n      0x00\n      dup1\n      sload\n        /* \"contracts/includes.sol\":6292:6330  OwnershipTransferred(_owner, newOwner) */\n      mload(0x40)\n      sub(shl(0xa0, 0x01), 0x01)\n      dup1\n      dup6\n      and\n      swap4\n        /* \"contracts/includes.sol\":6313:6319  _owner */\n      swap3\n      and\n      swap2\n        /* \"contracts/includes.sol\":6292:6330  OwnershipTransferred(_owner, newOwner) */\n      0x8be0079c531659141344cd1fd0a4f28419497f9722a3daafe3b4186f6b6457e0\n      swap2\n      log3\n        /* \"contracts/includes.sol\":6341:6347  _owner */\n      0x00\n        /* \"contracts/includes.sol\":6341:6358  _owner = newOwner */\n      dup1\n      sload\n      not(sub(shl(0xa0, 0x01), 0x01))\n      and\n      sub(shl(0xa0, 0x01), 0x01)\n      swap3\n      swap1\n      swap3\n      and\n      swap2\n      swap1\n      swap2\n      or\n      swap1\n      sstore\n        /* \"contracts/includes.sol\":6122:6366  function transferOwnership(address newOwner) public virtual onlyOwner {\r... */\n      jump\t// out\n        /* \"contracts/Token.sol\":17807:18131  function _removeSniper(address account) external onlyOwner() {\r... */\n    tag_203:\n        /* \"contracts/includes.sol\":5889:5901  _msgSender() */\n      tag_359\n        /* \"contracts/includes.sol\":5889:5899  _msgSender */\n      tag_206\n        /* \"contracts/includes.sol\":5889:5901  _msgSender() */\n      jump\t// in\n    tag_359:\n        /* \"contracts/includes.sol\":5879:5885  _owner */\n      sload(0x00)\n      sub(shl(0xa0, 0x01), 0x01)\n      swap1\n      dup2\n      and\n        /* \"contracts/includes.sol\":5879:5901  _owner == _msgSender() */\n      swap2\n      and\n      eq\n        /* \"contracts/includes.sol\":5871:5938  require(_owner == _msgSender(), \"Ownable: caller is not the owner\") */\n      tag_360\n      jumpi\n      0x40\n      dup1\n      mload\n      shl(0xe5, 0x461bcd)\n      dup2\n      mstore\n      0x20\n      0x04\n      dup3\n      add\n      dup2\n      swap1\n      mstore\n      0x24\n      dup3\n      add\n      mstore\n      0x00\n      dup1\n      mload\n      0x20\n      data_9924ebdf1add33d25d4ef888e16131f0a5687b0580a36c21b5c301a6c462effe\n      dup4\n      codecopy\n      dup2\n      mload\n      swap2\n      mstore\n      0x44\n      dup3\n      add\n      mstore\n      swap1\n      mload\n      swap1\n      dup2\n      swap1\n      sub\n      0x64\n      add\n      swap1\n      revert\n    tag_360:\n        /* \"contracts/Token.sol\":17898:17940  0xeC0A7a0C2439E8Cb67b992b12ecd020Ea943c7Be */\n      0xec0a7a0c2439e8cb67b992b12ecd020ea943c7be\n      sub(shl(0xa0, 0x01), 0x01)\n        /* \"contracts/Token.sol\":17887:17940  account != 0xeC0A7a0C2439E8Cb67b992b12ecd020Ea943c7Be */\n      dup3\n      and\n      eq\n      iszero\n        /* \"contracts/Token.sol\":17879:17972  require(account != 0xeC0A7a0C2439E8Cb67b992b12ecd020Ea943c7Be, 'We can not blacklist Router') */\n      tag_362\n      jumpi\n      0x40\n      dup1\n      mload\n      shl(0xe5, 0x461bcd)\n      dup2\n      mstore\n      0x20\n      0x04\n      dup3\n      add\n      mstore\n      0x1b\n      0x24\n      dup3\n      add\n      mstore\n      0x57652063616e206e6f7420626c61636b6c69737420526f757465720000000000\n      0x44\n      dup3\n      add\n      mstore\n      swap1\n      mload\n      swap1\n      dup2\n      swap1\n      sub\n      0x64\n      add\n      swap1\n      revert\n    tag_362:\n      sub(shl(0xa0, 0x01), 0x01)\n        /* \"contracts/Token.sol\":17992:18010  _isSniper[account] */\n      dup2\n      and\n      0x00\n      swap1\n      dup2\n      mstore\n        /* \"contracts/Token.sol\":17992:18001  _isSniper */\n      0x07\n        /* \"contracts/Token.sol\":17992:18010  _isSniper[account] */\n      0x20\n      mstore\n      0x40\n      swap1\n      keccak256\n      sload\n      0xff\n      and\n        /* \"contracts/Token.sol\":17991:18010  !_isSniper[account] */\n      iszero\n        /* \"contracts/Token.sol\":17983:18045  require(!_isSniper[account], \"Account is already blacklisted\") */\n      tag_363\n      jumpi\n      0x40\n      dup1\n      mload\n      shl(0xe5, 0x461bcd)\n      dup2\n      mstore\n      0x20\n      0x04\n      dup3\n      add\n      mstore\n      0x1e\n      0x24\n      dup3\n      add\n      mstore\n      0x4163636f756e7420697320616c726561647920626c61636b6c69737465640000\n      0x44\n      dup3\n      add\n      mstore\n      swap1\n      mload\n      swap1\n      dup2\n      swap1\n      sub\n      0x64\n      add\n      swap1\n      revert\n    tag_363:\n      sub(shl(0xa0, 0x01), 0x01)\n        /* \"contracts/Token.sol\":18056:18074  _isSniper[account] */\n      and\n      0x00\n      dup2\n      dup2\n      mstore\n        /* \"contracts/Token.sol\":18056:18065  _isSniper */\n      0x07\n        /* \"contracts/Token.sol\":18056:18074  _isSniper[account] */\n      0x20\n      mstore\n      0x40\n      dup2\n      keccak256\n        /* \"contracts/Token.sol\":18056:18081  _isSniper[account] = true */\n      dup1\n      sload\n      not(0xff)\n      and\n        /* \"contracts/Token.sol\":18077:18081  true */\n      0x01\n        /* \"contracts/Token.sol\":18056:18081  _isSniper[account] = true */\n      swap1\n      dup2\n      or\n      swap1\n      swap2\n      sstore\n        /* \"contracts/Token.sol\":18092:18109  _confirmedSnipers */\n      0x08\n        /* \"contracts/Token.sol\":18092:18123  _confirmedSnipers.push(account) */\n      dup1\n      sload\n      swap2\n      dup3\n      add\n      dup2\n      sstore\n      swap1\n      swap2\n      mstore\n      0xf3f7a9fe364faab93b216da50a3214154f22a0a2b415b23a84c8169e8b636ee3\n      add\n      dup1\n      sload\n      not(sub(shl(0xa0, 0x01), 0x01))\n      and\n      swap1\n      swap2\n      or\n      swap1\n      sstore\n        /* \"contracts/Token.sol\":17807:18131  function _removeSniper(address account) external onlyOwner() {\r... */\n      jump\t// out\n        /* \"contracts/includes.sol\":33:148  function _msgSender() internal view virtual returns (address payable) {\r... */\n    tag_206:\n        /* \"contracts/includes.sol\":129:139  msg.sender */\n      caller\n        /* \"contracts/includes.sol\":33:148  function _msgSender() internal view virtual returns (address payable) {\r... */\n      swap1\n      jump\t// out\n        /* \"contracts/Token.sol\":6591:6928  function _approve(address owner, address spender, uint256 amount) private {\r... */\n    tag_216:\n      sub(shl(0xa0, 0x01), 0x01)\n        /* \"contracts/Token.sol\":6684:6703  owner != address(0) */\n      dup4\n      and\n        /* \"contracts/Token.sol\":6676:6744  require(owner != address(0), \"ERC20: approve from the zero address\") */\n      tag_367\n      jumpi\n      mload(0x40)\n      shl(0xe5, 0x461bcd)\n      dup2\n      mstore\n      0x04\n      add\n      dup1\n      dup1\n      0x20\n      add\n      dup3\n      dup2\n      sub\n      dup3\n      mstore\n      0x24\n      dup2\n      mstore\n      0x20\n      add\n      dup1\n      data_c953f4879035ed60e766b34720f656aab5c697b141d924c283124ecedb91c208\n      0x24\n      swap2\n      codecopy\n      0x40\n      add\n      swap2\n      pop\n      pop\n      mload(0x40)\n      dup1\n      swap2\n      sub\n      swap1\n      revert\n    tag_367:\n      sub(shl(0xa0, 0x01), 0x01)\n        /* \"contracts/Token.sol\":6763:6784  spender != address(0) */\n      dup3\n      and\n        /* \"contracts/Token.sol\":6755:6823  require(spender != address(0), \"ERC20: approve to the zero address\") */\n      tag_368\n      jumpi\n      mload(0x40)\n      shl(0xe5, 0x461bcd)\n      dup2\n      mstore\n      0x04\n      add\n      dup1\n      dup1\n      0x20\n      add\n      dup3\n      dup2\n      sub\n      dup3\n      mstore\n      0x22\n      dup2\n      mstore\n      0x20\n      add\n      dup1\n      data_24883cc5fe64ace9d0df1893501ecb93c77180f0ff69cca79affb3c316dc8029\n      0x22\n      swap2\n      codecopy\n      0x40\n      add\n      swap2\n      pop\n      pop\n      mload(0x40)\n      dup1\n      swap2\n      sub\n      swap1\n      revert\n    tag_368:\n      sub(shl(0xa0, 0x01), 0x01)\n        /* \"contracts/Token.sol\":6836:6854  _allowances[owner] */\n      dup1\n      dup5\n      and\n      0x00\n      dup2\n      dup2\n      mstore\n        /* \"contracts/Token.sol\":6836:6847  _allowances */\n      0x06\n        /* \"contracts/Token.sol\":6836:6854  _allowances[owner] */\n      0x20\n      swap1\n      dup2\n      mstore\n      0x40\n      dup1\n      dup4\n      keccak256\n        /* \"contracts/Token.sol\":6836:6863  _allowances[owner][spender] */\n      swap5\n      dup8\n      and\n      dup1\n      dup5\n      mstore\n      swap5\n      dup3\n      mstore\n      swap2\n      dup3\n      swap1\n      keccak256\n        /* \"contracts/Token.sol\":6836:6872  _allowances[owner][spender] = amount */\n      dup6\n      swap1\n      sstore\n        /* \"contracts/Token.sol\":6888:6920  Approval(owner, spender, amount) */\n      dup2\n      mload\n      dup6\n      dup2\n      mstore\n      swap2\n      mload\n      0x8c5be1e5ebec7d5bd14f71427d1e84f3dd0314c0f7b2291e5b200ac8c7c3b925\n      swap3\n      dup2\n      swap1\n      sub\n      swap1\n      swap2\n      add\n      swap1\n      log3\n        /* \"contracts/Token.sol\":6591:6928  function _approve(address owner, address spender, uint256 amount) private {\r... */\n      pop\n      pop\n      pop\n      jump\t// out\n        /* \"contracts/Token.sol\":6936:8547  function _transfer(\r... */\n    tag_221:\n      sub(shl(0xa0, 0x01), 0x01)\n        /* \"contracts/Token.sol\":7058:7076  from != address(0) */\n      dup4\n      and\n        /* \"contracts/Token.sol\":7050:7118  require(from != address(0), \"ERC20: transfer from the zero address\") */\n      tag_370\n      jumpi\n      mload(0x40)\n      shl(0xe5, 0x461bcd)\n      dup2\n      mstore\n      0x04\n      add\n      dup1\n      dup1\n      0x20\n      add\n      dup3\n      dup2\n      sub\n      dup3\n      mstore\n      0x25\n      dup2\n      mstore\n      0x20\n      add\n      dup1\n      data_baecc556b46f4ed0f2b4cb599d60785ac8563dd2dc0a5bf12edea1c39e5e1fea\n      0x25\n      swap2\n      codecopy\n      0x40\n      add\n      swap2\n      pop\n      pop\n      mload(0x40)\n      dup1\n      swap2\n      sub\n      swap1\n      revert\n    tag_370:\n      sub(shl(0xa0, 0x01), 0x01)\n        /* \"contracts/Token.sol\":7137:7153  to != address(0) */\n      dup3\n      and\n        /* \"contracts/Token.sol\":7129:7193  require(to != address(0), \"ERC20: transfer to the zero address\") */\n      tag_371\n      jumpi\n      mload(0x40)\n      shl(0xe5, 0x461bcd)\n      dup2\n      mstore\n      0x04\n      add\n      dup1\n      dup1\n      0x20\n      add\n      dup3\n      dup2\n      sub\n      dup3\n      mstore\n      0x23\n      dup2\n      mstore\n      0x20\n      add\n      dup1\n      data_0557e210f7a69a685100a7e4e3d0a7024c546085cee28910fd17d0b081d9516f\n      0x23\n      swap2\n      codecopy\n      0x40\n      add\n      swap2\n      pop\n      pop\n      mload(0x40)\n      dup1\n      swap2\n      sub\n      swap1\n      revert\n    tag_371:\n        /* \"contracts/Token.sol\":7221:7222  0 */\n      0x00\n        /* \"contracts/Token.sol\":7212:7218  amount */\n      dup2\n        /* \"contracts/Token.sol\":7212:7222  amount > 0 */\n      gt\n        /* \"contracts/Token.sol\":7204:7268  require(amount > 0, \"Transfer amount must be greater than zero\") */\n      tag_372\n      jumpi\n      mload(0x40)\n      shl(0xe5, 0x461bcd)\n      dup2\n      mstore\n      0x04\n      add\n      dup1\n      dup1\n      0x20\n      add\n      dup3\n      dup2\n      sub\n      dup3\n      mstore\n      0x29\n      dup2\n      mstore\n      0x20\n      add\n      dup1\n      data_9edb5ab58321f35d2386ea65721c9b107daa2c273610fc16d394af2a320ba785\n      0x29\n      swap2\n      codecopy\n      0x40\n      add\n      swap2\n      pop\n      pop\n      mload(0x40)\n      dup1\n      swap2\n      sub\n      swap1\n      revert\n    tag_372:\n      sub(shl(0xa0, 0x01), 0x01)\n        /* \"contracts/Token.sol\":7288:7301  _isSniper[to] */\n      dup3\n      and\n      0x00\n      swap1\n      dup2\n      mstore\n        /* \"contracts/Token.sol\":7288:7297  _isSniper */\n      0x07\n        /* \"contracts/Token.sol\":7288:7301  _isSniper[to] */\n      0x20\n      mstore\n      0x40\n      swap1\n      keccak256\n      sload\n      0xff\n      and\n        /* \"contracts/Token.sol\":7287:7301  !_isSniper[to] */\n      iszero\n        /* \"contracts/Token.sol\":7279:7329  require(!_isSniper[to], \"You have no power here!\") */\n      tag_373\n      jumpi\n      0x40\n      dup1\n      mload\n      shl(0xe5, 0x461bcd)\n      dup2\n      mstore\n      0x20\n      0x04\n      dup3\n      add\n      mstore\n      0x17\n      0x24\n      dup3\n      add\n      mstore\n      shl(0x48, 0x596f752068617665206e6f20706f776572206865726521)\n      0x44\n      dup3\n      add\n      mstore\n      swap1\n      mload\n      swap1\n      dup2\n      swap1\n      sub\n      0x64\n      add\n      swap1\n      revert\n    tag_373:\n        /* \"contracts/Token.sol\":7359:7369  msg.sender */\n      caller\n        /* \"contracts/Token.sol\":7349:7370  _isSniper[msg.sender] */\n      0x00\n      swap1\n      dup2\n      mstore\n        /* \"contracts/Token.sol\":7349:7358  _isSniper */\n      0x07\n        /* \"contracts/Token.sol\":7349:7370  _isSniper[msg.sender] */\n      0x20\n      mstore\n      0x40\n      swap1\n      keccak256\n      sload\n      0xff\n      and\n        /* \"contracts/Token.sol\":7348:7370  !_isSniper[msg.sender] */\n      iszero\n        /* \"contracts/Token.sol\":7340:7398  require(!_isSniper[msg.sender], \"You have no power here!\") */\n      tag_374\n      jumpi\n      0x40\n      dup1\n      mload\n      shl(0xe5, 0x461bcd)\n      dup2\n      mstore\n      0x20\n      0x04\n      dup3\n      add\n      mstore\n      0x17\n      0x24\n      dup3\n      add\n      mstore\n      shl(0x48, 0x596f752068617665206e6f20706f776572206865726521)\n      0x44\n      dup3\n      add\n      mstore\n      swap1\n      mload\n      swap1\n      dup2\n      swap1\n      sub\n      0x64\n      add\n      swap1\n      revert\n    tag_374:\n        /* \"contracts/Token.sol\":7443:7456  uniswapV2Pair */\n      sload(0x19)\n      sub(shl(0xa0, 0x01), 0x01)\n        /* \"contracts/Token.sol\":7435:7456  from == uniswapV2Pair */\n      dup5\n      dup2\n      and\n        /* \"contracts/Token.sol\":7443:7456  uniswapV2Pair */\n      swap2\n      and\n        /* \"contracts/Token.sol\":7435:7456  from == uniswapV2Pair */\n      eq\n        /* \"contracts/Token.sol\":7435:7490  from == uniswapV2Pair && to != address(uniswapV2Router) */\n      dup1\n      iszero\n      tag_375\n      jumpi\n      pop\n        /* \"contracts/Token.sol\":7474:7489  uniswapV2Router */\n      sload(0x18)\n      sub(shl(0xa0, 0x01), 0x01)\n        /* \"contracts/Token.sol\":7460:7490  to != address(uniswapV2Router) */\n      dup4\n      dup2\n      and\n        /* \"contracts/Token.sol\":7474:7489  uniswapV2Router */\n      swap2\n      and\n        /* \"contracts/Token.sol\":7460:7490  to != address(uniswapV2Router) */\n      eq\n      iszero\n        /* \"contracts/Token.sol\":7435:7490  from == uniswapV2Pair && to != address(uniswapV2Router) */\n    tag_375:\n        /* \"contracts/Token.sol\":7435:7517  from == uniswapV2Pair && to != address(uniswapV2Router) && !_isExcludedFromFee[to] */\n      dup1\n      iszero\n      tag_376\n      jumpi\n      pop\n      sub(shl(0xa0, 0x01), 0x01)\n        /* \"contracts/Token.sol\":7495:7517  _isExcludedFromFee[to] */\n      dup3\n      and\n      0x00\n      swap1\n      dup2\n      mstore\n        /* \"contracts/Token.sol\":7495:7513  _isExcludedFromFee */\n      0x09\n        /* \"contracts/Token.sol\":7495:7517  _isExcludedFromFee[to] */\n      0x20\n      mstore\n      0x40\n      swap1\n      keccak256\n      sload\n      0xff\n      and\n        /* \"contracts/Token.sol\":7494:7517  !_isExcludedFromFee[to] */\n      iszero\n        /* \"contracts/Token.sol\":7435:7517  from == uniswapV2Pair && to != address(uniswapV2Router) && !_isExcludedFromFee[to] */\n    tag_376:\n        /* \"contracts/Token.sol\":7431:7768  if (from == uniswapV2Pair && to != address(uniswapV2Router) && !_isExcludedFromFee[to]) {\r... */\n      iszero\n      tag_379\n      jumpi\n        /* \"contracts/Token.sol\":7542:7553  tradingOpen */\n      sload(0x19)\n      shl(0xa8, 0x01)\n      swap1\n      div\n      0xff\n      and\n        /* \"contracts/Token.sol\":7534:7582  require(tradingOpen, \"Trading not yet enabled.\") */\n      tag_378\n      jumpi\n      0x40\n      dup1\n      mload\n      shl(0xe5, 0x461bcd)\n      dup2\n      mstore\n      0x20\n      0x04\n      dup3\n      add\n      mstore\n      0x18\n      0x24\n      dup3\n      add\n      mstore\n      0x54726164696e67206e6f742079657420656e61626c65642e0000000000000000\n      0x44\n      dup3\n      add\n      mstore\n      swap1\n      mload\n      swap1\n      dup2\n      swap1\n      sub\n      0x64\n      add\n      swap1\n      revert\n    tag_378:\n        /* \"contracts/Token.sol\":7645:7655  launchTime */\n      sload(0x17)\n        /* \"contracts/Token.sol\":7626:7641  block.timestamp */\n      timestamp\n        /* \"contracts/Token.sol\":7626:7655  block.timestamp == launchTime */\n      eq\n        /* \"contracts/Token.sol\":7622:7757  if (block.timestamp == launchTime) {\r... */\n      iszero\n      tag_379\n      jumpi\n      sub(shl(0xa0, 0x01), 0x01)\n        /* \"contracts/Token.sol\":7676:7689  _isSniper[to] */\n      dup3\n      and\n      0x00\n      dup2\n      dup2\n      mstore\n        /* \"contracts/Token.sol\":7676:7685  _isSniper */\n      0x07\n        /* \"contracts/Token.sol\":7676:7689  _isSniper[to] */\n      0x20\n      mstore\n      0x40\n      dup2\n      keccak256\n        /* \"contracts/Token.sol\":7676:7696  _isSniper[to] = true */\n      dup1\n      sload\n      not(0xff)\n      and\n        /* \"contracts/Token.sol\":7692:7696  true */\n      0x01\n        /* \"contracts/Token.sol\":7676:7696  _isSniper[to] = true */\n      swap1\n      dup2\n      or\n      swap1\n      swap2\n      sstore\n        /* \"contracts/Token.sol\":7715:7732  _confirmedSnipers */\n      0x08\n        /* \"contracts/Token.sol\":7715:7741  _confirmedSnipers.push(to) */\n      dup1\n      sload\n      swap2\n      dup3\n      add\n      dup2\n      sstore\n      swap1\n      swap2\n      mstore\n      0xf3f7a9fe364faab93b216da50a3214154f22a0a2b415b23a84c8169e8b636ee3\n      add\n      dup1\n      sload\n      not(sub(shl(0xa0, 0x01), 0x01))\n      and\n      swap1\n      swap2\n      or\n      swap1\n      sstore\n        /* \"contracts/Token.sol\":7622:7757  if (block.timestamp == launchTime) {\r... */\n    tag_379:\n        /* \"contracts/Token.sol\":7782:7810  uint256 contractTokenBalance */\n      0x00\n        /* \"contracts/Token.sol\":7813:7837  balanceOf(address(this)) */\n      tag_381\n        /* \"contracts/Token.sol\":7831:7835  this */\n      address\n        /* \"contracts/Token.sol\":7813:7822  balanceOf */\n      tag_142\n        /* \"contracts/Token.sol\":7813:7837  balanceOf(address(this)) */\n      jump\t// in\n    tag_381:\n        /* \"contracts/Token.sol\":7869:7885  inSwapAndLiquify */\n      sload(0x19)\n        /* \"contracts/Token.sol\":7782:7837  uint256 contractTokenBalance = balanceOf(address(this)) */\n      swap1\n      swap2\n      pop\n      shl(0xa0, 0x01)\n        /* \"contracts/Token.sol\":7869:7885  inSwapAndLiquify */\n      swap1\n      div\n      0xff\n      and\n        /* \"contracts/Token.sol\":7868:7885  !inSwapAndLiquify */\n      iszero\n        /* \"contracts/Token.sol\":7868:7900  !inSwapAndLiquify && tradingOpen */\n      dup1\n      iszero\n      tag_382\n      jumpi\n      pop\n        /* \"contracts/Token.sol\":7889:7900  tradingOpen */\n      sload(0x19)\n      shl(0xa8, 0x01)\n      swap1\n      div\n      0xff\n      and\n        /* \"contracts/Token.sol\":7868:7900  !inSwapAndLiquify && tradingOpen */\n    tag_382:\n        /* \"contracts/Token.sol\":7868:7923  !inSwapAndLiquify && tradingOpen && to == uniswapV2Pair */\n      dup1\n      iszero\n      tag_383\n      jumpi\n      pop\n        /* \"contracts/Token.sol\":7910:7923  uniswapV2Pair */\n      sload(0x19)\n      sub(shl(0xa0, 0x01), 0x01)\n        /* \"contracts/Token.sol\":7904:7923  to == uniswapV2Pair */\n      dup5\n      dup2\n      and\n        /* \"contracts/Token.sol\":7910:7923  uniswapV2Pair */\n      swap2\n      and\n        /* \"contracts/Token.sol\":7904:7923  to == uniswapV2Pair */\n      eq\n        /* \"contracts/Token.sol\":7868:7923  !inSwapAndLiquify && tradingOpen && to == uniswapV2Pair */\n    tag_383:\n        /* \"contracts/Token.sol\":7864:8257  if (!inSwapAndLiquify && tradingOpen && to == uniswapV2Pair) {\r... */\n      iszero\n      tag_394\n      jumpi\n        /* \"contracts/Token.sol\":7944:7968  contractTokenBalance > 0 */\n      dup1\n      iszero\n        /* \"contracts/Token.sol\":7940:8244  if (contractTokenBalance > 0) {\r... */\n      tag_394\n      jumpi\n        /* \"contracts/Token.sol\":8045:8053  _feeRate */\n      sload(0x16)\n        /* \"contracts/Token.sol\":8026:8039  uniswapV2Pair */\n      sload(0x19)\n        /* \"contracts/Token.sol\":8016:8063  balanceOf(uniswapV2Pair).mul(_feeRate).div(100) */\n      tag_386\n      swap2\n        /* \"contracts/Token.sol\":8059:8062  100 */\n      0x64\n      swap2\n        /* \"contracts/Token.sol\":8016:8054  balanceOf(uniswapV2Pair).mul(_feeRate) */\n      tag_387\n      swap2\n        /* \"contracts/Token.sol\":8045:8053  _feeRate */\n      swap1\n        /* \"contracts/Token.sol\":8016:8040  balanceOf(uniswapV2Pair) */\n      tag_388\n      swap1\n      sub(shl(0xa0, 0x01), 0x01)\n        /* \"contracts/Token.sol\":8026:8039  uniswapV2Pair */\n      and\n        /* \"contracts/Token.sol\":8016:8025  balanceOf */\n      tag_142\n        /* \"contracts/Token.sol\":8016:8040  balanceOf(uniswapV2Pair) */\n      jump\t// in\n    tag_388:\n        /* \"contracts/Token.sol\":8016:8044  balanceOf(uniswapV2Pair).mul */\n      swap1\n      tag_389\n        /* \"contracts/Token.sol\":8016:8054  balanceOf(uniswapV2Pair).mul(_feeRate) */\n      jump\t// in\n    tag_387:\n        /* \"contracts/Token.sol\":8016:8058  balanceOf(uniswapV2Pair).mul(_feeRate).div */\n      swap1\n      tag_232\n        /* \"contracts/Token.sol\":8016:8063  balanceOf(uniswapV2Pair).mul(_feeRate).div(100) */\n      jump\t// in\n    tag_386:\n        /* \"contracts/Token.sol\":7993:8013  contractTokenBalance */\n      dup2\n        /* \"contracts/Token.sol\":7993:8063  contractTokenBalance > balanceOf(uniswapV2Pair).mul(_feeRate).div(100) */\n      gt\n        /* \"contracts/Token.sol\":7989:8178  if (contractTokenBalance > balanceOf(uniswapV2Pair).mul(_feeRate).div(100)) {\r... */\n      iszero\n      tag_390\n      jumpi\n        /* \"contracts/Token.sol\":8140:8148  _feeRate */\n      sload(0x16)\n        /* \"contracts/Token.sol\":8121:8134  uniswapV2Pair */\n      sload(0x19)\n        /* \"contracts/Token.sol\":8111:8158  balanceOf(uniswapV2Pair).mul(_feeRate).div(100) */\n      tag_391\n      swap2\n        /* \"contracts/Token.sol\":8154:8157  100 */\n      0x64\n      swap2\n        /* \"contracts/Token.sol\":8111:8149  balanceOf(uniswapV2Pair).mul(_feeRate) */\n      tag_387\n      swap2\n        /* \"contracts/Token.sol\":8140:8148  _feeRate */\n      swap1\n        /* \"contracts/Token.sol\":8111:8135  balanceOf(uniswapV2Pair) */\n      tag_388\n      swap1\n      sub(shl(0xa0, 0x01), 0x01)\n        /* \"contracts/Token.sol\":8121:8134  uniswapV2Pair */\n      and\n        /* \"contracts/Token.sol\":8111:8120  balanceOf */\n      tag_142\n        /* \"contracts/Token.sol\":8111:8135  balanceOf(uniswapV2Pair) */\n      jump\t// in\n        /* \"contracts/Token.sol\":8111:8158  balanceOf(uniswapV2Pair).mul(_feeRate).div(100) */\n    tag_391:\n        /* \"contracts/Token.sol\":8088:8158  contractTokenBalance = balanceOf(uniswapV2Pair).mul(_feeRate).div(100) */\n      swap1\n      pop\n        /* \"contracts/Token.sol\":7989:8178  if (contractTokenBalance > balanceOf(uniswapV2Pair).mul(_feeRate).div(100)) {\r... */\n    tag_390:\n        /* \"contracts/Token.sol\":8196:8228  swapTokens(contractTokenBalance) */\n      tag_394\n        /* \"contracts/Token.sol\":8207:8227  contractTokenBalance */\n      dup2\n        /* \"contracts/Token.sol\":8196:8206  swapTokens */\n      tag_395\n        /* \"contracts/Token.sol\":8196:8228  swapTokens(contractTokenBalance) */\n      jump\t// in\n    tag_394:\n        /* \"contracts/Token.sol\":8349:8362  uniswapV2Pair */\n      sload(0x19)\n        /* \"contracts/Token.sol\":8269:8281  bool takeFee */\n      0x00\n      swap1\n      sub(shl(0xa0, 0x01), 0x01)\n        /* \"contracts/Token.sol\":8341:8362  from == uniswapV2Pair */\n      dup7\n      dup2\n      and\n        /* \"contracts/Token.sol\":8349:8362  uniswapV2Pair */\n      swap2\n      and\n        /* \"contracts/Token.sol\":8341:8362  from == uniswapV2Pair */\n      eq\n      dup1\n        /* \"contracts/Token.sol\":8341:8385  from == uniswapV2Pair || to == uniswapV2Pair */\n      tag_396\n      jumpi\n      pop\n        /* \"contracts/Token.sol\":8372:8385  uniswapV2Pair */\n      sload(0x19)\n      sub(shl(0xa0, 0x01), 0x01)\n        /* \"contracts/Token.sol\":8366:8385  to == uniswapV2Pair */\n      dup6\n      dup2\n      and\n        /* \"contracts/Token.sol\":8372:8385  uniswapV2Pair */\n      swap2\n      and\n        /* \"contracts/Token.sol\":8366:8385  to == uniswapV2Pair */\n      eq\n        /* \"contracts/Token.sol\":8341:8385  from == uniswapV2Pair || to == uniswapV2Pair */\n    tag_396:\n        /* \"contracts/Token.sol\":8340:8443  (from == uniswapV2Pair || to == uniswapV2Pair) && !(_isExcludedFromFee[from] || _isExcludedFromFee[to]) */\n      dup1\n      iszero\n      tag_397\n      jumpi\n      pop\n      sub(shl(0xa0, 0x01), 0x01)\n        /* \"contracts/Token.sol\":8392:8416  _isExcludedFromFee[from] */\n      dup6\n      and\n      0x00\n      swap1\n      dup2\n      mstore\n        /* \"contracts/Token.sol\":8392:8410  _isExcludedFromFee */\n      0x09\n        /* \"contracts/Token.sol\":8392:8416  _isExcludedFromFee[from] */\n      0x20\n      mstore\n      0x40\n      swap1\n      keccak256\n      sload\n      0xff\n      and\n      dup1\n        /* \"contracts/Token.sol\":8392:8442  _isExcludedFromFee[from] || _isExcludedFromFee[to] */\n      tag_398\n      jumpi\n      pop\n      sub(shl(0xa0, 0x01), 0x01)\n        /* \"contracts/Token.sol\":8420:8442  _isExcludedFromFee[to] */\n      dup5\n      and\n      0x00\n      swap1\n      dup2\n      mstore\n        /* \"contracts/Token.sol\":8420:8438  _isExcludedFromFee */\n      0x09\n        /* \"contracts/Token.sol\":8420:8442  _isExcludedFromFee[to] */\n      0x20\n      mstore\n      0x40\n      swap1\n      keccak256\n      sload\n      0xff\n      and\n        /* \"contracts/Token.sol\":8392:8442  _isExcludedFromFee[from] || _isExcludedFromFee[to] */\n    tag_398:\n        /* \"contracts/Token.sol\":8390:8443  !(_isExcludedFromFee[from] || _isExcludedFromFee[to]) */\n      iszero\n        /* \"contracts/Token.sol\":8340:8443  (from == uniswapV2Pair || to == uniswapV2Pair) && !(_isExcludedFromFee[from] || _isExcludedFromFee[to]) */\n    tag_397:\n        /* \"contracts/Token.sol\":8336:8486  if ((from == uniswapV2Pair || to == uniswapV2Pair) && !(_isExcludedFromFee[from] || _isExcludedFromFee[to])) {\r... */\n      iszero\n      tag_399\n      jumpi\n      pop\n        /* \"contracts/Token.sol\":8470:8474  true */\n      0x01\n        /* \"contracts/Token.sol\":8336:8486  if ((from == uniswapV2Pair || to == uniswapV2Pair) && !(_isExcludedFromFee[from] || _isExcludedFromFee[to])) {\r... */\n    tag_399:\n        /* \"contracts/Token.sol\":8496:8537  _tokenTransfer(from, to, amount, takeFee) */\n      tag_400\n        /* \"contracts/Token.sol\":8511:8515  from */\n      dup6\n        /* \"contracts/Token.sol\":8517:8519  to */\n      dup6\n        /* \"contracts/Token.sol\":8521:8527  amount */\n      dup6\n        /* \"contracts/Token.sol\":8529:8536  takeFee */\n      dup5\n        /* \"contracts/Token.sol\":8496:8510  _tokenTransfer */\n      tag_401\n        /* \"contracts/Token.sol\":8496:8537  _tokenTransfer(from, to, amount, takeFee) */\n      jump\t// in\n    tag_400:\n        /* \"contracts/Token.sol\":6936:8547  function _transfer(\r... */\n      pop\n      pop\n      pop\n      pop\n      pop\n      jump\t// out\n        /* \"contracts/includes.sol\":1459:1651  function sub(uint256 a, uint256 b, string memory errorMessage) internal pure returns (uint256) {\r... */\n    tag_226:\n        /* \"contracts/includes.sol\":1545:1552  uint256 */\n      0x00\n        /* \"contracts/includes.sol\":1581:1593  errorMessage */\n      dup2\n        /* \"contracts/includes.sol\":1573:1579  b <= a */\n      dup5\n      dup5\n      gt\n      iszero\n        /* \"contracts/includes.sol\":1565:1594  require(b <= a, errorMessage) */\n      tag_403\n      jumpi\n      mload(0x40)\n      shl(0xe5, 0x461bcd)\n      dup2\n      mstore\n      0x04\n      add\n      dup1\n      dup1\n      0x20\n      add\n      dup3\n      dup2\n      sub\n      dup3\n      mstore\n      dup4\n      dup2\n      dup2\n      mload\n      dup2\n      mstore\n      0x20\n      add\n      swap2\n      pop\n      dup1\n      mload\n      swap1\n      0x20\n      add\n      swap1\n      dup1\n      dup4\n      dup4\n      0x00\n    tag_404:\n      dup4\n      dup2\n      lt\n      iszero\n      tag_406\n      jumpi\n      dup2\n      dup2\n      add\n      mload\n      dup4\n      dup3\n      add\n      mstore\n      0x20\n      add\n      jump(tag_404)\n    tag_406:\n      pop\n      pop\n      pop\n      pop\n      swap1\n      pop\n      swap1\n      dup2\n      add\n      swap1\n      0x1f\n      and\n      dup1\n      iszero\n      tag_407\n      jumpi\n      dup1\n      dup3\n      sub\n      dup1\n      mload\n      0x01\n      dup4\n      0x20\n      sub\n      0x0100\n      exp\n      sub\n      not\n      and\n      dup2\n      mstore\n      0x20\n      add\n      swap2\n      pop\n    tag_407:\n      pop\n      swap3\n      pop\n      pop\n      pop\n      mload(0x40)\n      dup1\n      swap2\n      sub\n      swap1\n      revert\n    tag_403:\n      pop\n      pop\n      pop\n        /* \"contracts/includes.sol\":1617:1622  a - b */\n      swap1\n      sub\n      swap1\n        /* \"contracts/includes.sol\":1459:1651  function sub(uint256 a, uint256 b, string memory errorMessage) internal pure returns (uint256) {\r... */\n      jump\t// out\n        /* \"contracts/Token.sol\":14979:15143  function _getRate() private view returns (uint256) {\r... */\n    tag_230:\n        /* \"contracts/Token.sol\":15021:15028  uint256 */\n      0x00\n        /* \"contracts/Token.sol\":15042:15057  uint256 rSupply */\n      dup1\n        /* \"contracts/Token.sol\":15059:15074  uint256 tSupply */\n      0x00\n        /* \"contracts/Token.sol\":15078:15097  _getCurrentSupply() */\n      tag_409\n        /* \"contracts/Token.sol\":15078:15095  _getCurrentSupply */\n      tag_410\n        /* \"contracts/Token.sol\":15078:15097  _getCurrentSupply() */\n      jump\t// in\n    tag_409:\n        /* \"contracts/Token.sol\":15041:15097  (uint256 rSupply, uint256 tSupply) = _getCurrentSupply() */\n      swap1\n      swap3\n      pop\n      swap1\n      pop\n        /* \"contracts/Token.sol\":15115:15135  rSupply.div(tSupply) */\n      tag_411\n        /* \"contracts/Token.sol\":15041:15097  (uint256 rSupply, uint256 tSupply) = _getCurrentSupply() */\n      dup3\n      dup3\n        /* \"contracts/Token.sol\":15115:15126  rSupply.div */\n      tag_232\n        /* \"contracts/Token.sol\":15115:15135  rSupply.div(tSupply) */\n      jump\t// in\n    tag_411:\n        /* \"contracts/Token.sol\":15108:15135  return rSupply.div(tSupply) */\n      swap3\n      pop\n      pop\n      pop\n        /* \"contracts/Token.sol\":14979:15143  function _getRate() private view returns (uint256) {\r... */\n      swap1\n      jump\t// out\n        /* \"contracts/includes.sol\":1919:2051  function div(uint256 a, uint256 b) internal pure returns (uint256) {\r... */\n    tag_232:\n        /* \"contracts/includes.sol\":1977:1984  uint256 */\n      0x00\n        /* \"contracts/includes.sol\":2004:2043  div(a, b, \"SafeMath: division by zero\") */\n      tag_413\n        /* \"contracts/includes.sol\":2008:2009  a */\n      dup4\n        /* \"contracts/includes.sol\":2011:2012  b */\n      dup4\n        /* \"contracts/includes.sol\":2004:2043  div(a, b, \"SafeMath: division by zero\") */\n      mload(0x40)\n      dup1\n      0x40\n      add\n      0x40\n      mstore\n      dup1\n      0x1a\n      dup2\n      mstore\n      0x20\n      add\n      0x536166654d6174683a206469766973696f6e206279207a65726f000000000000\n      dup2\n      mstore\n      pop\n        /* \"contracts/includes.sol\":2004:2007  div */\n      tag_414\n        /* \"contracts/includes.sol\":2004:2043  div(a, b, \"SafeMath: division by zero\") */\n      jump\t// in\n    tag_413:\n        /* \"contracts/includes.sol\":1997:2043  return div(a, b, \"SafeMath: division by zero\") */\n      swap4\n        /* \"contracts/includes.sol\":1919:2051  function div(uint256 a, uint256 b) internal pure returns (uint256) {\r... */\n      swap3\n      pop\n      pop\n      pop\n      jump\t// out\n        /* \"contracts/includes.sol\":1126:1307  function add(uint256 a, uint256 b) internal pure returns (uint256) {\r... */\n    tag_273:\n        /* \"contracts/includes.sol\":1184:1191  uint256 */\n      0x00\n        /* \"contracts/includes.sol\":1216:1221  a + b */\n      dup3\n      dup3\n      add\n        /* \"contracts/includes.sol\":1240:1246  c >= a */\n      dup4\n      dup2\n      lt\n      iszero\n        /* \"contracts/includes.sol\":1232:1278  require(c >= a, \"SafeMath: addition overflow\") */\n      tag_413\n      jumpi\n      0x40\n      dup1\n      mload\n      shl(0xe5, 0x461bcd)\n      dup2\n      mstore\n      0x20\n      0x04\n      dup3\n      add\n      mstore\n      0x1b\n      0x24\n      dup3\n      add\n      mstore\n      0x536166654d6174683a206164646974696f6e206f766572666c6f770000000000\n      0x44\n      dup3\n      add\n      mstore\n      swap1\n      mload\n      swap1\n      dup2\n      swap1\n      sub\n      0x64\n      add\n      swap1\n      revert\n        /* \"contracts/Token.sol\":13777:14196  function _getValues(uint256 tAmount) private view returns (uint256, uint256, uint256, uint256, uint256, uint256) {\r... */\n    tag_278:\n        /* \"contracts/Token.sol\":13836:13843  uint256 */\n      0x00\n        /* \"contracts/Token.sol\":13845:13852  uint256 */\n      dup1\n        /* \"contracts/Token.sol\":13854:13861  uint256 */\n      0x00\n        /* \"contracts/Token.sol\":13863:13870  uint256 */\n      dup1\n        /* \"contracts/Token.sol\":13872:13879  uint256 */\n      0x00\n        /* \"contracts/Token.sol\":13881:13888  uint256 */\n      dup1\n        /* \"contracts/Token.sol\":13902:13925  uint256 tTransferAmount */\n      0x00\n        /* \"contracts/Token.sol\":13927:13939  uint256 tFee */\n      dup1\n        /* \"contracts/Token.sol\":13941:13959  uint256 tLiquidity */\n      0x00\n        /* \"contracts/Token.sol\":13963:13983  _getTValues(tAmount) */\n      tag_418\n        /* \"contracts/Token.sol\":13975:13982  tAmount */\n      dup11\n        /* \"contracts/Token.sol\":13963:13974  _getTValues */\n      tag_419\n        /* \"contracts/Token.sol\":13963:13983  _getTValues(tAmount) */\n      jump\t// in\n    tag_418:\n        /* \"contracts/Token.sol\":13901:13983  (uint256 tTransferAmount, uint256 tFee, uint256 tLiquidity) = _getTValues(tAmount) */\n      swap3\n      pop\n      swap3\n      pop\n      swap3\n      pop\n        /* \"contracts/Token.sol\":13995:14010  uint256 rAmount */\n      0x00\n        /* \"contracts/Token.sol\":14012:14035  uint256 rTransferAmount */\n      dup1\n        /* \"contracts/Token.sol\":14037:14049  uint256 rFee */\n      0x00\n        /* \"contracts/Token.sol\":14053:14103  _getRValues(tAmount, tFee, tLiquidity, _getRate()) */\n      tag_420\n        /* \"contracts/Token.sol\":14065:14072  tAmount */\n      dup14\n        /* \"contracts/Token.sol\":14074:14078  tFee */\n      dup7\n        /* \"contracts/Token.sol\":14080:14090  tLiquidity */\n      dup7\n        /* \"contracts/Token.sol\":14092:14102  _getRate() */\n      tag_421\n        /* \"contracts/Token.sol\":14092:14100  _getRate */\n      tag_230\n        /* \"contracts/Token.sol\":14092:14102  _getRate() */\n      jump\t// in\n    tag_421:\n        /* \"contracts/Token.sol\":14053:14064  _getRValues */\n      tag_422\n        /* \"contracts/Token.sol\":14053:14103  _getRValues(tAmount, tFee, tLiquidity, _getRate()) */\n      jump\t// in\n    tag_420:\n        /* \"contracts/Token.sol\":13994:14103  (uint256 rAmount, uint256 rTransferAmount, uint256 rFee) = _getRValues(tAmount, tFee, tLiquidity, _getRate()) */\n      swap2\n      swap16\n      swap1\n      swap15\n      pop\n      swap1\n      swap13\n      pop\n        /* \"contracts/Token.sol\":14154:14169  tTransferAmount */\n      swap6\n      swap11\n      pop\n        /* \"contracts/Token.sol\":14171:14175  tFee */\n      swap4\n      swap9\n      pop\n        /* \"contracts/Token.sol\":14177:14187  tLiquidity */\n      swap2\n      swap7\n      pop\n        /* \"contracts/Token.sol\":13777:14196  function _getValues(uint256 tAmount) private view returns (uint256, uint256, uint256, uint256, uint256, uint256) {\r... */\n      swap3\n      swap5\n      pop\n      pop\n      pop\n      pop\n      pop\n      jump\t// out\n        /* \"contracts/includes.sol\":1315:1451  function sub(uint256 a, uint256 b) internal pure returns (uint256) {\r... */\n    tag_280:\n        /* \"contracts/includes.sol\":1373:1380  uint256 */\n      0x00\n        /* \"contracts/includes.sol\":1400:1443  sub(a, b, \"SafeMath: subtraction overflow\") */\n      tag_413\n        /* \"contracts/includes.sol\":1404:1405  a */\n      dup4\n        /* \"contracts/includes.sol\":1407:1408  b */\n      dup4\n        /* \"contracts/includes.sol\":1400:1443  sub(a, b, \"SafeMath: subtraction overflow\") */\n      mload(0x40)\n      dup1\n      0x40\n      add\n      0x40\n      mstore\n      dup1\n      0x1e\n      dup2\n      mstore\n      0x20\n      add\n      0x536166654d6174683a207375627472616374696f6e206f766572666c6f770000\n      dup2\n      mstore\n      pop\n        /* \"contracts/includes.sol\":1400:1403  sub */\n      tag_226\n        /* \"contracts/includes.sol\":1400:1443  sub(a, b, \"SafeMath: subtraction overflow\") */\n      jump\t// in\n        /* \"contracts/includes.sol\":1659:1909  function mul(uint256 a, uint256 b) internal pure returns (uint256) {\r... */\n    tag_389:\n        /* \"contracts/includes.sol\":1717:1724  uint256 */\n      0x00\n        /* \"contracts/includes.sol\":1741:1747  a == 0 */\n      dup3\n        /* \"contracts/includes.sol\":1737:1784  if (a == 0) {\r... */\n      tag_426\n      jumpi\n      pop\n        /* \"contracts/includes.sol\":1771:1772  0 */\n      0x00\n        /* \"contracts/includes.sol\":1764:1772  return 0 */\n      jump(tag_213)\n        /* \"contracts/includes.sol\":1737:1784  if (a == 0) {\r... */\n    tag_426:\n        /* \"contracts/includes.sol\":1808:1813  a * b */\n      dup3\n      dup3\n      mul\n        /* \"contracts/includes.sol\":1812:1813  b */\n      dup3\n        /* \"contracts/includes.sol\":1808:1809  a */\n      dup5\n        /* \"contracts/includes.sol\":1808:1813  a * b */\n      dup3\n        /* \"contracts/includes.sol\":1808:1809  a */\n      dup2\n        /* \"contracts/includes.sol\":1832:1837  c / a */\n      tag_427\n      jumpi\n      invalid\n    tag_427:\n      div\n        /* \"contracts/includes.sol\":1832:1842  c / a == b */\n      eq\n        /* \"contracts/includes.sol\":1824:1880  require(c / a == b, \"SafeMath: multiplication overflow\") */\n      tag_413\n      jumpi\n      mload(0x40)\n      shl(0xe5, 0x461bcd)\n      dup2\n      mstore\n      0x04\n      add\n      dup1\n      dup1\n      0x20\n      add\n      dup3\n      dup2\n      sub\n      dup3\n      mstore\n      0x21\n      dup2\n      mstore\n      0x20\n      add\n      dup1\n      data_9113bb53c2876a3805b2c9242029423fc540a728243ce887ab24c82cf119fba3\n      0x21\n      swap2\n      codecopy\n      0x40\n      add\n      swap2\n      pop\n      pop\n      mload(0x40)\n      dup1\n      swap2\n      sub\n      swap1\n      revert\n        /* \"contracts/Token.sol\":8837:9232  function swapTokens(uint256 contractTokenBalance) private lockTheSwap {\r... */\n    tag_395:\n        /* \"contracts/Token.sol\":1764:1780  inSwapAndLiquify */\n      0x19\n        /* \"contracts/Token.sol\":1764:1787  inSwapAndLiquify = true */\n      dup1\n      sload\n      not(shl(0xa0, 0xff))\n      and\n      shl(0xa0, 0x01)\n      or\n      swap1\n      sstore\n        /* \"contracts/Token.sol\":8918:8956  swapTokensForEth(contractTokenBalance) */\n      tag_431\n        /* \"contracts/Token.sol\":8935:8955  contractTokenBalance */\n      dup2\n        /* \"contracts/Token.sol\":8918:8934  swapTokensForEth */\n      tag_432\n        /* \"contracts/Token.sol\":8918:8956  swapTokensForEth(contractTokenBalance) */\n      jump\t// in\n    tag_431:\n        /* \"contracts/Token.sol\":9072:9124  SwapTokens(contractTokenBalance, contractETHBalance) */\n      0x40\n      dup1\n      mload\n      dup3\n      dup2\n      mstore\n        /* \"contracts/Token.sol\":9035:9056  address(this).balance */\n      selfbalance\n        /* \"contracts/Token.sol\":9072:9124  SwapTokens(contractTokenBalance, contractETHBalance) */\n      0x20\n      dup3\n      add\n      dup2\n      swap1\n      mstore\n      dup3\n      mload\n        /* \"contracts/Token.sol\":9035:9056  address(this).balance */\n      swap1\n      swap3\n        /* \"contracts/Token.sol\":9072:9124  SwapTokens(contractTokenBalance, contractETHBalance) */\n      0x738b737502df4c5f230bbb98a45ea9c2821bad262e880f883357ad3695f8dae4\n      swap3\n      dup3\n      swap1\n      sub\n      add\n      swap1\n      log1\n        /* \"contracts/Token.sol\":9139:9161  contractETHBalance > 0 */\n      dup1\n      iszero\n        /* \"contracts/Token.sol\":9135:9225  if (contractETHBalance > 0) {\r... */\n      tag_434\n      jumpi\n        /* \"contracts/Token.sol\":9178:9213  sendETHToFee(address(this).balance) */\n      tag_434\n        /* \"contracts/Token.sol\":9191:9212  address(this).balance */\n      selfbalance\n        /* \"contracts/Token.sol\":9178:9190  sendETHToFee */\n      tag_435\n        /* \"contracts/Token.sol\":9178:9213  sendETHToFee(address(this).balance) */\n      jump\t// in\n    tag_434:\n      pop\n      pop\n        /* \"contracts/Token.sol\":1810:1826  inSwapAndLiquify */\n      0x19\n        /* \"contracts/Token.sol\":1810:1834  inSwapAndLiquify = false */\n      dup1\n      sload\n      not(shl(0xa0, 0xff))\n      and\n      swap1\n      sstore\n        /* \"contracts/Token.sol\":8837:9232  function swapTokens(uint256 contractTokenBalance) private lockTheSwap {\r... */\n      jump\t// out\n        /* \"contracts/Token.sol\":10617:11308  function _tokenTransfer(address sender, address recipient, uint256 amount, bool takeFee) private {\r... */\n    tag_401:\n        /* \"contracts/Token.sol\":10730:10737  takeFee */\n      dup1\n        /* \"contracts/Token.sol\":10725:10766  if (!takeFee)\r... */\n      tag_438\n      jumpi\n        /* \"contracts/Token.sol\":10752:10766  removeAllFee() */\n      tag_438\n        /* \"contracts/Token.sol\":10752:10764  removeAllFee */\n      tag_439\n        /* \"contracts/Token.sol\":10752:10766  removeAllFee() */\n      jump\t// in\n    tag_438:\n      sub(shl(0xa0, 0x01), 0x01)\n        /* \"contracts/Token.sol\":10783:10802  _isExcluded[sender] */\n      dup5\n      and\n      0x00\n      swap1\n      dup2\n      mstore\n        /* \"contracts/Token.sol\":10783:10794  _isExcluded */\n      0x0a\n        /* \"contracts/Token.sol\":10783:10802  _isExcluded[sender] */\n      0x20\n      mstore\n      0x40\n      swap1\n      keccak256\n      sload\n      0xff\n      and\n        /* \"contracts/Token.sol\":10783:10829  _isExcluded[sender] && !_isExcluded[recipient] */\n      dup1\n      iszero\n      tag_440\n      jumpi\n      pop\n      sub(shl(0xa0, 0x01), 0x01)\n        /* \"contracts/Token.sol\":10807:10829  _isExcluded[recipient] */\n      dup4\n      and\n      0x00\n      swap1\n      dup2\n      mstore\n        /* \"contracts/Token.sol\":10807:10818  _isExcluded */\n      0x0a\n        /* \"contracts/Token.sol\":10807:10829  _isExcluded[recipient] */\n      0x20\n      mstore\n      0x40\n      swap1\n      keccak256\n      sload\n      0xff\n      and\n        /* \"contracts/Token.sol\":10806:10829  !_isExcluded[recipient] */\n      iszero\n        /* \"contracts/Token.sol\":10783:10829  _isExcluded[sender] && !_isExcluded[recipient] */\n    tag_440:\n        /* \"contracts/Token.sol\":10779:11246  if (_isExcluded[sender] && !_isExcluded[recipient]) {\r... */\n      iszero\n      tag_441\n      jumpi\n        /* \"contracts/Token.sol\":10846:10894  _transferFromExcluded(sender, recipient, amount) */\n      tag_442\n        /* \"contracts/Token.sol\":10868:10874  sender */\n      dup5\n        /* \"contracts/Token.sol\":10876:10885  recipient */\n      dup5\n        /* \"contracts/Token.sol\":10887:10893  amount */\n      dup5\n        /* \"contracts/Token.sol\":10846:10867  _transferFromExcluded */\n      tag_443\n        /* \"contracts/Token.sol\":10846:10894  _transferFromExcluded(sender, recipient, amount) */\n      jump\t// in\n    tag_442:\n        /* \"contracts/Token.sol\":10779:11246  if (_isExcluded[sender] && !_isExcluded[recipient]) {\r... */\n      jump(tag_455)\n    tag_441:\n      sub(shl(0xa0, 0x01), 0x01)\n        /* \"contracts/Token.sol\":10917:10936  _isExcluded[sender] */\n      dup5\n      and\n      0x00\n      swap1\n      dup2\n      mstore\n        /* \"contracts/Token.sol\":10917:10928  _isExcluded */\n      0x0a\n        /* \"contracts/Token.sol\":10917:10936  _isExcluded[sender] */\n      0x20\n      mstore\n      0x40\n      swap1\n      keccak256\n      sload\n      0xff\n      and\n        /* \"contracts/Token.sol\":10916:10936  !_isExcluded[sender] */\n      iszero\n        /* \"contracts/Token.sol\":10916:10962  !_isExcluded[sender] && _isExcluded[recipient] */\n      dup1\n      iszero\n      tag_445\n      jumpi\n      pop\n      sub(shl(0xa0, 0x01), 0x01)\n        /* \"contracts/Token.sol\":10940:10962  _isExcluded[recipient] */\n      dup4\n      and\n      0x00\n      swap1\n      dup2\n      mstore\n        /* \"contracts/Token.sol\":10940:10951  _isExcluded */\n      0x0a\n        /* \"contracts/Token.sol\":10940:10962  _isExcluded[recipient] */\n      0x20\n      mstore\n      0x40\n      swap1\n      keccak256\n      sload\n      0xff\n      and\n        /* \"contracts/Token.sol\":10916:10962  !_isExcluded[sender] && _isExcluded[recipient] */\n    tag_445:\n        /* \"contracts/Token.sol\":10912:11246  if (!_isExcluded[sender] && _isExcluded[recipient]) {\r... */\n      iszero\n      tag_446\n      jumpi\n        /* \"contracts/Token.sol\":10979:11025  _transferToExcluded(sender, recipient, amount) */\n      tag_442\n        /* \"contracts/Token.sol\":10999:11005  sender */\n      dup5\n        /* \"contracts/Token.sol\":11007:11016  recipient */\n      dup5\n        /* \"contracts/Token.sol\":11018:11024  amount */\n      dup5\n        /* \"contracts/Token.sol\":10979:10998  _transferToExcluded */\n      tag_448\n        /* \"contracts/Token.sol\":10979:11025  _transferToExcluded(sender, recipient, amount) */\n      jump\t// in\n        /* \"contracts/Token.sol\":10912:11246  if (!_isExcluded[sender] && _isExcluded[recipient]) {\r... */\n    tag_446:\n      sub(shl(0xa0, 0x01), 0x01)\n        /* \"contracts/Token.sol\":11047:11066  _isExcluded[sender] */\n      dup5\n      and\n      0x00\n      swap1\n      dup2\n      mstore\n        /* \"contracts/Token.sol\":11047:11058  _isExcluded */\n      0x0a\n        /* \"contracts/Token.sol\":11047:11066  _isExcluded[sender] */\n      0x20\n      mstore\n      0x40\n      swap1\n      keccak256\n      sload\n      0xff\n      and\n        /* \"contracts/Token.sol\":11047:11092  _isExcluded[sender] && _isExcluded[recipient] */\n      dup1\n      iszero\n      tag_450\n      jumpi\n      pop\n      sub(shl(0xa0, 0x01), 0x01)\n        /* \"contracts/Token.sol\":11070:11092  _isExcluded[recipient] */\n      dup4\n      and\n      0x00\n      swap1\n      dup2\n      mstore\n        /* \"contracts/Token.sol\":11070:11081  _isExcluded */\n      0x0a\n        /* \"contracts/Token.sol\":11070:11092  _isExcluded[recipient] */\n      0x20\n      mstore\n      0x40\n      swap1\n      keccak256\n      sload\n      0xff\n      and\n        /* \"contracts/Token.sol\":11047:11092  _isExcluded[sender] && _isExcluded[recipient] */\n    tag_450:\n        /* \"contracts/Token.sol\":11043:11246  if (_isExcluded[sender] && _isExcluded[recipient]) {\r... */\n      iszero\n      tag_451\n      jumpi\n        /* \"contracts/Token.sol\":11109:11157  _transferBothExcluded(sender, recipient, amount) */\n      tag_442\n        /* \"contracts/Token.sol\":11131:11137  sender */\n      dup5\n        /* \"contracts/Token.sol\":11139:11148  recipient */\n      dup5\n        /* \"contracts/Token.sol\":11150:11156  amount */\n      dup5\n        /* \"contracts/Token.sol\":11109:11130  _transferBothExcluded */\n      tag_453\n        /* \"contracts/Token.sol\":11109:11157  _transferBothExcluded(sender, recipient, amount) */\n      jump\t// in\n        /* \"contracts/Token.sol\":11043:11246  if (_isExcluded[sender] && _isExcluded[recipient]) {\r... */\n    tag_451:\n        /* \"contracts/Token.sol\":11190:11234  _transferStandard(sender, recipient, amount) */\n      tag_455\n        /* \"contracts/Token.sol\":11208:11214  sender */\n      dup5\n        /* \"contracts/Token.sol\":11216:11225  recipient */\n      dup5\n        /* \"contracts/Token.sol\":11227:11233  amount */\n      dup5\n        /* \"contracts/Token.sol\":11190:11207  _transferStandard */\n      tag_456\n        /* \"contracts/Token.sol\":11190:11234  _transferStandard(sender, recipient, amount) */\n      jump\t// in\n    tag_455:\n        /* \"contracts/Token.sol\":11263:11270  takeFee */\n      dup1\n        /* \"contracts/Token.sol\":11258:11300  if (!takeFee)\r... */\n      tag_458\n      jumpi\n        /* \"contracts/Token.sol\":11285:11300  restoreAllFee() */\n      tag_458\n        /* \"contracts/Token.sol\":11285:11298  restoreAllFee */\n      tag_459\n        /* \"contracts/Token.sol\":11285:11300  restoreAllFee() */\n      jump\t// in\n    tag_458:\n        /* \"contracts/Token.sol\":10617:11308  function _tokenTransfer(address sender, address recipient, uint256 amount, bool takeFee) private {\r... */\n      pop\n      pop\n      pop\n      pop\n      jump\t// out\n        /* \"contracts/Token.sol\":15151:15707  function _getCurrentSupply() private view returns (uint256, uint256) {\r... */\n    tag_410:\n        /* \"contracts/Token.sol\":15249:15256  _rTotal */\n      sload(0x0d)\n        /* \"contracts/Token.sol\":15285:15292  _tTotal */\n      sload(0x0c)\n        /* \"contracts/Token.sol\":15202:15209  uint256 */\n      0x00\n      swap2\n      dup3\n      swap2\n      dup3\n        /* \"contracts/Token.sol\":15303:15592  for (uint256 i = 0; i < _excluded.length; i++) {\r... */\n    tag_461:\n        /* \"contracts/Token.sol\":15327:15336  _excluded */\n      0x0b\n        /* \"contracts/Token.sol\":15327:15343  _excluded.length */\n      sload\n        /* \"contracts/Token.sol\":15323:15343  i < _excluded.length */\n      dup2\n      lt\n        /* \"contracts/Token.sol\":15303:15592  for (uint256 i = 0; i < _excluded.length; i++) {\r... */\n      iszero\n      tag_462\n      jumpi\n        /* \"contracts/Token.sol\":15393:15400  rSupply */\n      dup3\n        /* \"contracts/Token.sol\":15369:15376  _rOwned */\n      0x04\n        /* \"contracts/Token.sol\":15369:15390  _rOwned[_excluded[i]] */\n      0x00\n        /* \"contracts/Token.sol\":15377:15386  _excluded */\n      0x0b\n        /* \"contracts/Token.sol\":15387:15388  i */\n      dup5\n        /* \"contracts/Token.sol\":15377:15389  _excluded[i] */\n      dup2\n      sload\n      dup2\n      lt\n      tag_464\n      jumpi\n      invalid\n    tag_464:\n      0x00\n      swap2\n      dup3\n      mstore\n      0x20\n      dup1\n      dup4\n      keccak256\n      swap1\n      swap2\n      add\n      sload\n      sub(shl(0xa0, 0x01), 0x01)\n      and\n        /* \"contracts/Token.sol\":15369:15390  _rOwned[_excluded[i]] */\n      dup4\n      mstore\n      dup3\n      add\n      swap3\n      swap1\n      swap3\n      mstore\n      0x40\n      add\n      swap1\n      keccak256\n      sload\n        /* \"contracts/Token.sol\":15369:15400  _rOwned[_excluded[i]] > rSupply */\n      gt\n      dup1\n        /* \"contracts/Token.sol\":15369:15435  _rOwned[_excluded[i]] > rSupply || _tOwned[_excluded[i]] > tSupply */\n      tag_466\n      jumpi\n      pop\n        /* \"contracts/Token.sol\":15428:15435  tSupply */\n      dup2\n        /* \"contracts/Token.sol\":15404:15411  _tOwned */\n      0x05\n        /* \"contracts/Token.sol\":15404:15425  _tOwned[_excluded[i]] */\n      0x00\n        /* \"contracts/Token.sol\":15412:15421  _excluded */\n      0x0b\n        /* \"contracts/Token.sol\":15422:15423  i */\n      dup5\n        /* \"contracts/Token.sol\":15412:15424  _excluded[i] */\n      dup2\n      sload\n      dup2\n      lt\n      tag_467\n      jumpi\n      invalid\n    tag_467:\n      0x00\n      swap2\n      dup3\n      mstore\n      0x20\n      dup1\n      dup4\n      keccak256\n      swap1\n      swap2\n      add\n      sload\n      sub(shl(0xa0, 0x01), 0x01)\n      and\n        /* \"contracts/Token.sol\":15404:15425  _tOwned[_excluded[i]] */\n      dup4\n      mstore\n      dup3\n      add\n      swap3\n      swap1\n      swap3\n      mstore\n      0x40\n      add\n      swap1\n      keccak256\n      sload\n        /* \"contracts/Token.sol\":15404:15435  _tOwned[_excluded[i]] > tSupply */\n      gt\n        /* \"contracts/Token.sol\":15369:15435  _rOwned[_excluded[i]] > rSupply || _tOwned[_excluded[i]] > tSupply */\n    tag_466:\n        /* \"contracts/Token.sol\":15365:15462  if (_rOwned[_excluded[i]] > rSupply || _tOwned[_excluded[i]] > tSupply) return (_rTotal, _tTotal) */\n      iszero\n      tag_469\n      jumpi\n        /* \"contracts/Token.sol\":15445:15452  _rTotal */\n      sload(0x0d)\n        /* \"contracts/Token.sol\":15454:15461  _tTotal */\n      sload(0x0c)\n        /* \"contracts/Token.sol\":15437:15462  return (_rTotal, _tTotal) */\n      swap5\n      pop\n      swap5\n      pop\n      pop\n      pop\n      pop\n      jump(tag_460)\n        /* \"contracts/Token.sol\":15365:15462  if (_rOwned[_excluded[i]] > rSupply || _tOwned[_excluded[i]] > tSupply) return (_rTotal, _tTotal) */\n    tag_469:\n        /* \"contracts/Token.sol\":15487:15521  rSupply.sub(_rOwned[_excluded[i]]) */\n      tag_470\n        /* \"contracts/Token.sol\":15499:15506  _rOwned */\n      0x04\n        /* \"contracts/Token.sol\":15499:15520  _rOwned[_excluded[i]] */\n      0x00\n        /* \"contracts/Token.sol\":15507:15516  _excluded */\n      0x0b\n        /* \"contracts/Token.sol\":15517:15518  i */\n      dup5\n        /* \"contracts/Token.sol\":15507:15519  _excluded[i] */\n      dup2\n      sload\n      dup2\n      lt\n      tag_471\n      jumpi\n      invalid\n    tag_471:\n      0x00\n      swap2\n      dup3\n      mstore\n      0x20\n      dup1\n      dup4\n      keccak256\n      swap1\n      swap2\n      add\n      sload\n      sub(shl(0xa0, 0x01), 0x01)\n      and\n        /* \"contracts/Token.sol\":15499:15520  _rOwned[_excluded[i]] */\n      dup4\n      mstore\n      dup3\n      add\n      swap3\n      swap1\n      swap3\n      mstore\n      0x40\n      add\n      swap1\n      keccak256\n      sload\n        /* \"contracts/Token.sol\":15487:15494  rSupply */\n      dup5\n      swap1\n        /* \"contracts/Token.sol\":15487:15498  rSupply.sub */\n      tag_280\n        /* \"contracts/Token.sol\":15487:15521  rSupply.sub(_rOwned[_excluded[i]]) */\n      jump\t// in\n    tag_470:\n        /* \"contracts/Token.sol\":15477:15521  rSupply = rSupply.sub(_rOwned[_excluded[i]]) */\n      swap3\n      pop\n        /* \"contracts/Token.sol\":15546:15580  tSupply.sub(_tOwned[_excluded[i]]) */\n      tag_473\n        /* \"contracts/Token.sol\":15558:15565  _tOwned */\n      0x05\n        /* \"contracts/Token.sol\":15558:15579  _tOwned[_excluded[i]] */\n      0x00\n        /* \"contracts/Token.sol\":15566:15575  _excluded */\n      0x0b\n        /* \"contracts/Token.sol\":15576:15577  i */\n      dup5\n        /* \"contracts/Token.sol\":15566:15578  _excluded[i] */\n      dup2\n      sload\n      dup2\n      lt\n      tag_474\n      jumpi\n      invalid\n    tag_474:\n      0x00\n      swap2\n      dup3\n      mstore\n      0x20\n      dup1\n      dup4\n      keccak256\n      swap1\n      swap2\n      add\n      sload\n      sub(shl(0xa0, 0x01), 0x01)\n      and\n        /* \"contracts/Token.sol\":15558:15579  _tOwned[_excluded[i]] */\n      dup4\n      mstore\n      dup3\n      add\n      swap3\n      swap1\n      swap3\n      mstore\n      0x40\n      add\n      swap1\n      keccak256\n      sload\n        /* \"contracts/Token.sol\":15546:15553  tSupply */\n      dup4\n      swap1\n        /* \"contracts/Token.sol\":15546:15557  tSupply.sub */\n      tag_280\n        /* \"contracts/Token.sol\":15546:15580  tSupply.sub(_tOwned[_excluded[i]]) */\n      jump\t// in\n    tag_473:\n        /* \"contracts/Token.sol\":15536:15580  tSupply = tSupply.sub(_tOwned[_excluded[i]]) */\n      swap2\n      pop\n        /* \"contracts/Token.sol\":15345:15348  i++ */\n      0x01\n      add\n        /* \"contracts/Token.sol\":15303:15592  for (uint256 i = 0; i < _excluded.length; i++) {\r... */\n      jump(tag_461)\n    tag_462:\n      pop\n        /* \"contracts/Token.sol\":15628:15635  _tTotal */\n      sload(0x0c)\n        /* \"contracts/Token.sol\":15616:15623  _rTotal */\n      sload(0x0d)\n        /* \"contracts/Token.sol\":15616:15636  _rTotal.div(_tTotal) */\n      tag_476\n      swap2\n        /* \"contracts/Token.sol\":15616:15627  _rTotal.div */\n      tag_232\n        /* \"contracts/Token.sol\":15616:15636  _rTotal.div(_tTotal) */\n      jump\t// in\n    tag_476:\n        /* \"contracts/Token.sol\":15606:15613  rSupply */\n      dup3\n        /* \"contracts/Token.sol\":15606:15636  rSupply < _rTotal.div(_tTotal) */\n      lt\n        /* \"contracts/Token.sol\":15602:15663  if (rSupply < _rTotal.div(_tTotal)) return (_rTotal, _tTotal) */\n      iszero\n      tag_477\n      jumpi\n        /* \"contracts/Token.sol\":15646:15653  _rTotal */\n      sload(0x0d)\n        /* \"contracts/Token.sol\":15655:15662  _tTotal */\n      sload(0x0c)\n        /* \"contracts/Token.sol\":15638:15663  return (_rTotal, _tTotal) */\n      swap4\n      pop\n      swap4\n      pop\n      pop\n      pop\n      jump(tag_460)\n        /* \"contracts/Token.sol\":15602:15663  if (rSupply < _rTotal.div(_tTotal)) return (_rTotal, _tTotal) */\n    tag_477:\n        /* \"contracts/Token.sol\":15682:15689  rSupply */\n      swap1\n      swap3\n      pop\n        /* \"contracts/Token.sol\":15691:15698  tSupply */\n      swap1\n      pop\n        /* \"contracts/Token.sol\":15151:15707  function _getCurrentSupply() private view returns (uint256, uint256) {\r... */\n    tag_460:\n      swap1\n      swap2\n      jump\t// out\n        /* \"contracts/includes.sol\":2059:2337  function div(uint256 a, uint256 b, string memory errorMessage) internal pure returns (uint256) {\r... */\n    tag_414:\n        /* \"contracts/includes.sol\":2145:2152  uint256 */\n      0x00\n        /* \"contracts/includes.sol\":2180:2192  errorMessage */\n      dup2\n        /* \"contracts/includes.sol\":2173:2178  b > 0 */\n      dup4\n        /* \"contracts/includes.sol\":2165:2193  require(b > 0, errorMessage) */\n      tag_479\n      jumpi\n      mload(0x40)\n      shl(0xe5, 0x461bcd)\n      dup2\n      mstore\n      0x20\n      0x04\n      dup3\n      add\n      dup2\n      dup2\n      mstore\n      dup4\n      mload\n      0x24\n      dup5\n      add\n      mstore\n      dup4\n      mload\n      swap1\n      swap3\n      dup4\n      swap3\n      0x44\n      swap1\n      swap2\n      add\n      swap2\n      swap1\n      dup6\n      add\n      swap1\n      dup1\n      dup4\n      dup4\n      0x00\n      dup4\n      iszero\n      tag_406\n      jumpi\n      dup2\n      dup2\n      add\n      mload\n      dup4\n      dup3\n      add\n      mstore\n      0x20\n      add\n      jump(tag_404)\n    tag_479:\n      pop\n        /* \"contracts/includes.sol\":2204:2213  uint256 c */\n      0x00\n        /* \"contracts/includes.sol\":2220:2221  b */\n      dup4\n        /* \"contracts/includes.sol\":2216:2217  a */\n      dup6\n        /* \"contracts/includes.sol\":2216:2221  a / b */\n      dup2\n      tag_484\n      jumpi\n      invalid\n    tag_484:\n      div\n      swap6\n        /* \"contracts/includes.sol\":2059:2337  function div(uint256 a, uint256 b, string memory errorMessage) internal pure returns (uint256) {\r... */\n      swap5\n      pop\n      pop\n      pop\n      pop\n      pop\n      jump\t// out\n        /* \"contracts/Token.sol\":14204:14534  function _getTValues(uint256 tAmount) private view returns (uint256, uint256, uint256) {\r... */\n    tag_419:\n        /* \"contracts/Token.sol\":14264:14271  uint256 */\n      0x00\n        /* \"contracts/Token.sol\":14273:14280  uint256 */\n      dup1\n        /* \"contracts/Token.sol\":14282:14289  uint256 */\n      0x00\n        /* \"contracts/Token.sol\":14302:14314  uint256 tFee */\n      dup1\n        /* \"contracts/Token.sol\":14317:14341  calculateTaxFee(tAmount) */\n      tag_486\n        /* \"contracts/Token.sol\":14333:14340  tAmount */\n      dup6\n        /* \"contracts/Token.sol\":14317:14332  calculateTaxFee */\n      tag_487\n        /* \"contracts/Token.sol\":14317:14341  calculateTaxFee(tAmount) */\n      jump\t// in\n    tag_486:\n        /* \"contracts/Token.sol\":14302:14341  uint256 tFee = calculateTaxFee(tAmount) */\n      swap1\n      pop\n        /* \"contracts/Token.sol\":14352:14370  uint256 tLiquidity */\n      0x00\n        /* \"contracts/Token.sol\":14373:14403  calculateLiquidityFee(tAmount) */\n      tag_488\n        /* \"contracts/Token.sol\":14395:14402  tAmount */\n      dup7\n        /* \"contracts/Token.sol\":14373:14394  calculateLiquidityFee */\n      tag_489\n        /* \"contracts/Token.sol\":14373:14403  calculateLiquidityFee(tAmount) */\n      jump\t// in\n    tag_488:\n        /* \"contracts/Token.sol\":14352:14403  uint256 tLiquidity = calculateLiquidityFee(tAmount) */\n      swap1\n      pop\n        /* \"contracts/Token.sol\":14414:14437  uint256 tTransferAmount */\n      0x00\n        /* \"contracts/Token.sol\":14440:14473  tAmount.sub(tFee).sub(tLiquidity) */\n      tag_490\n        /* \"contracts/Token.sol\":14352:14403  uint256 tLiquidity = calculateLiquidityFee(tAmount) */\n      dup3\n        /* \"contracts/Token.sol\":14440:14457  tAmount.sub(tFee) */\n      tag_491\n        /* \"contracts/Token.sol\":14440:14447  tAmount */\n      dup10\n        /* \"contracts/Token.sol\":14452:14456  tFee */\n      dup7\n        /* \"contracts/Token.sol\":14440:14451  tAmount.sub */\n      tag_280\n        /* \"contracts/Token.sol\":14440:14457  tAmount.sub(tFee) */\n      jump\t// in\n    tag_491:\n        /* \"contracts/Token.sol\":14440:14461  tAmount.sub(tFee).sub */\n      swap1\n      tag_280\n        /* \"contracts/Token.sol\":14440:14473  tAmount.sub(tFee).sub(tLiquidity) */\n      jump\t// in\n    tag_490:\n        /* \"contracts/Token.sol\":14414:14473  uint256 tTransferAmount = tAmount.sub(tFee).sub(tLiquidity) */\n      swap8\n        /* \"contracts/Token.sol\":14509:14513  tFee */\n      swap3\n      swap7\n      pop\n        /* \"contracts/Token.sol\":14515:14525  tLiquidity */\n      swap1\n      swap5\n      pop\n        /* \"contracts/Token.sol\":14204:14534  function _getTValues(uint256 tAmount) private view returns (uint256, uint256, uint256) {\r... */\n      swap1\n      swap3\n      pop\n      pop\n      pop\n      jump\t// out\n        /* \"contracts/Token.sol\":14542:14971  function _getRValues(uint256 tAmount, uint256 tFee, uint256 tLiquidity, uint256 currentRate) private pure returns (uint256, uint256, uint256) {\r... */\n    tag_422:\n        /* \"contracts/Token.sol\":14657:14664  uint256 */\n      0x00\n      dup1\n      dup1\n      dup1\n        /* \"contracts/Token.sol\":14713:14737  tAmount.mul(currentRate) */\n      tag_493\n        /* \"contracts/Token.sol\":14713:14720  tAmount */\n      dup9\n        /* \"contracts/Token.sol\":14725:14736  currentRate */\n      dup7\n        /* \"contracts/Token.sol\":14713:14724  tAmount.mul */\n      tag_389\n        /* \"contracts/Token.sol\":14713:14737  tAmount.mul(currentRate) */\n      jump\t// in\n    tag_493:\n        /* \"contracts/Token.sol\":14695:14737  uint256 rAmount = tAmount.mul(currentRate) */\n      swap1\n      pop\n        /* \"contracts/Token.sol\":14748:14760  uint256 rFee */\n      0x00\n        /* \"contracts/Token.sol\":14763:14784  tFee.mul(currentRate) */\n      tag_494\n        /* \"contracts/Token.sol\":14763:14767  tFee */\n      dup9\n        /* \"contracts/Token.sol\":14772:14783  currentRate */\n      dup8\n        /* \"contracts/Token.sol\":14763:14771  tFee.mul */\n      tag_389\n        /* \"contracts/Token.sol\":14763:14784  tFee.mul(currentRate) */\n      jump\t// in\n    tag_494:\n        /* \"contracts/Token.sol\":14748:14784  uint256 rFee = tFee.mul(currentRate) */\n      swap1\n      pop\n        /* \"contracts/Token.sol\":14795:14813  uint256 rLiquidity */\n      0x00\n        /* \"contracts/Token.sol\":14816:14843  tLiquidity.mul(currentRate) */\n      tag_495\n        /* \"contracts/Token.sol\":14816:14826  tLiquidity */\n      dup9\n        /* \"contracts/Token.sol\":14831:14842  currentRate */\n      dup9\n        /* \"contracts/Token.sol\":14816:14830  tLiquidity.mul */\n      tag_389\n        /* \"contracts/Token.sol\":14816:14843  tLiquidity.mul(currentRate) */\n      jump\t// in\n    tag_495:\n        /* \"contracts/Token.sol\":14795:14843  uint256 rLiquidity = tLiquidity.mul(currentRate) */\n      swap1\n      pop\n        /* \"contracts/Token.sol\":14854:14877  uint256 rTransferAmount */\n      0x00\n        /* \"contracts/Token.sol\":14880:14913  rAmount.sub(rFee).sub(rLiquidity) */\n      tag_496\n        /* \"contracts/Token.sol\":14795:14843  uint256 rLiquidity = tLiquidity.mul(currentRate) */\n      dup3\n        /* \"contracts/Token.sol\":14880:14897  rAmount.sub(rFee) */\n      tag_491\n        /* \"contracts/Token.sol\":14880:14887  rAmount */\n      dup7\n        /* \"contracts/Token.sol\":14892:14896  rFee */\n      dup7\n        /* \"contracts/Token.sol\":14880:14891  rAmount.sub */\n      tag_280\n        /* \"contracts/Token.sol\":14880:14897  rAmount.sub(rFee) */\n      jump\t// in\n        /* \"contracts/Token.sol\":14880:14913  rAmount.sub(rFee).sub(rLiquidity) */\n    tag_496:\n        /* \"contracts/Token.sol\":14932:14939  rAmount */\n      swap4\n      swap12\n      swap4\n      swap11\n      pop\n        /* \"contracts/Token.sol\":14958:14962  rFee */\n      swap2\n      swap9\n      pop\n        /* \"contracts/Token.sol\":14542:14971  function _getRValues(uint256 tAmount, uint256 tFee, uint256 tLiquidity, uint256 currentRate) private pure returns (uint256, uint256, uint256) {\r... */\n      swap2\n      swap7\n      pop\n      pop\n      pop\n      pop\n      pop\n      pop\n      pop\n      jump\t// out\n        /* \"contracts/Token.sol\":9427:10085  function swapTokensForEth(uint256 tokenAmount) private {\r... */\n    tag_432:\n        /* \"contracts/Token.sol\":9577:9593  new address[](2) */\n      0x40\n      dup1\n      mload\n        /* \"contracts/Token.sol\":9591:9592  2 */\n      0x02\n        /* \"contracts/Token.sol\":9577:9593  new address[](2) */\n      dup1\n      dup3\n      mstore\n        /* \"contracts/Token.sol\":9553:9574  address[] memory path */\n      0x60\n        /* \"contracts/Token.sol\":9577:9593  new address[](2) */\n      dup1\n      dup4\n      add\n      dup5\n      mstore\n        /* \"contracts/Token.sol\":9553:9574  address[] memory path */\n      swap3\n        /* \"contracts/Token.sol\":9577:9593  new address[](2) */\n      0x20\n      dup4\n      add\n      swap1\n      dup1\n      calldatasize\n      dup4\n      calldatacopy\n      add\n      swap1\n      pop\n      pop\n        /* \"contracts/Token.sol\":9553:9593  address[] memory path = new address[](2) */\n      swap1\n      pop\n        /* \"contracts/Token.sol\":9622:9626  this */\n      address\n        /* \"contracts/Token.sol\":9604:9608  path */\n      dup2\n        /* \"contracts/Token.sol\":9609:9610  0 */\n      0x00\n        /* \"contracts/Token.sol\":9604:9611  path[0] */\n      dup2\n      mload\n      dup2\n      lt\n      tag_501\n      jumpi\n      invalid\n    tag_501:\n      sub(shl(0xa0, 0x01), 0x01)\n        /* \"contracts/Token.sol\":9604:9627  path[0] = address(this) */\n      swap3\n      dup4\n      and\n        /* \"contracts/Token.sol\":9604:9611  path[0] */\n      0x20\n      swap2\n      dup3\n      mul\n      swap3\n      swap1\n      swap3\n      add\n      dup2\n      add\n        /* \"contracts/Token.sol\":9604:9627  path[0] = address(this) */\n      swap2\n      swap1\n      swap2\n      mstore\n        /* \"contracts/Token.sol\":9648:9663  uniswapV2Router */\n      sload(0x18)\n        /* \"contracts/Token.sol\":9648:9670  uniswapV2Router.WETH() */\n      0x40\n      dup1\n      mload\n      shl(0xe3, 0x15ab88c9)\n      dup2\n      mstore\n      swap1\n      mload\n        /* \"contracts/Token.sol\":9648:9663  uniswapV2Router */\n      swap2\n      swap1\n      swap4\n      and\n      swap3\n        /* \"contracts/Token.sol\":9648:9668  uniswapV2Router.WETH */\n      0xad5c4648\n      swap3\n        /* \"contracts/Token.sol\":9648:9670  uniswapV2Router.WETH() */\n      0x04\n      dup1\n      dup4\n      add\n      swap4\n        /* \"contracts/Token.sol\":9604:9611  path[0] */\n      swap2\n      swap3\n        /* \"contracts/Token.sol\":9648:9670  uniswapV2Router.WETH() */\n      dup3\n      swap1\n      sub\n      add\n      dup2\n        /* \"contracts/Token.sol\":9648:9663  uniswapV2Router */\n      dup7\n        /* \"contracts/Token.sol\":9648:9670  uniswapV2Router.WETH() */\n      dup1\n      extcodesize\n      iszero\n      dup1\n      iszero\n      tag_502\n      jumpi\n      0x00\n      dup1\n      revert\n    tag_502:\n      pop\n      gas\n      staticcall\n      iszero\n      dup1\n      iszero\n      tag_504\n      jumpi\n      returndatasize\n      0x00\n      dup1\n      returndatacopy\n      revert(0x00, returndatasize)\n    tag_504:\n      pop\n      pop\n      pop\n      pop\n      mload(0x40)\n      returndatasize\n      0x20\n      dup2\n      lt\n      iszero\n      tag_505\n      jumpi\n      0x00\n      dup1\n      revert\n    tag_505:\n      pop\n      mload\n        /* \"contracts/Token.sol\":9638:9645  path[1] */\n      dup2\n      mload\n        /* \"contracts/Token.sol\":9638:9642  path */\n      dup3\n      swap1\n        /* \"contracts/Token.sol\":9643:9644  1 */\n      0x01\n      swap1\n        /* \"contracts/Token.sol\":9638:9645  path[1] */\n      dup2\n      lt\n      tag_506\n      jumpi\n      invalid\n    tag_506:\n      sub(shl(0xa0, 0x01), 0x01)\n        /* \"contracts/Token.sol\":9638:9670  path[1] = uniswapV2Router.WETH() */\n      swap3\n      dup4\n      and\n        /* \"contracts/Token.sol\":9638:9645  path[1] */\n      0x20\n      swap2\n      dup3\n      mul\n      swap3\n      swap1\n      swap3\n      add\n      add\n        /* \"contracts/Token.sol\":9638:9670  path[1] = uniswapV2Router.WETH() */\n      mstore\n        /* \"contracts/Token.sol\":9715:9730  uniswapV2Router */\n      sload(0x18)\n        /* \"contracts/Token.sol\":9683:9745  _approve(address(this), address(uniswapV2Router), tokenAmount) */\n      tag_507\n      swap2\n        /* \"contracts/Token.sol\":9700:9704  this */\n      address\n      swap2\n        /* \"contracts/Token.sol\":9715:9730  uniswapV2Router */\n      and\n        /* \"contracts/Token.sol\":9733:9744  tokenAmount */\n      dup5\n        /* \"contracts/Token.sol\":9683:9691  _approve */\n      tag_216\n        /* \"contracts/Token.sol\":9683:9745  _approve(address(this), address(uniswapV2Router), tokenAmount) */\n      jump\t// in\n    tag_507:\n        /* \"contracts/Token.sol\":9784:9799  uniswapV2Router */\n      sload(0x18)\n        /* \"contracts/Token.sol\":9784:10024  uniswapV2Router.swapExactTokensForETHSupportingFeeOnTransferTokens(\r... */\n      mload(0x40)\n      shl(0xe0, 0x791ac947)\n      dup2\n      mstore\n      0x04\n      dup2\n      add\n      dup5\n      dup2\n      mstore\n        /* \"contracts/Token.sol\":9784:9799  uniswapV2Router */\n      0x00\n        /* \"contracts/Token.sol\":9784:10024  uniswapV2Router.swapExactTokensForETHSupportingFeeOnTransferTokens(\r... */\n      0x24\n      dup4\n      add\n      dup2\n      swap1\n      mstore\n        /* \"contracts/Token.sol\":9962:9966  this */\n      address\n        /* \"contracts/Token.sol\":9784:10024  uniswapV2Router.swapExactTokensForETHSupportingFeeOnTransferTokens(\r... */\n      0x64\n      dup5\n      add\n      dup2\n      swap1\n      mstore\n        /* \"contracts/Token.sol\":9998:10013  block.timestamp */\n      timestamp\n        /* \"contracts/Token.sol\":9784:10024  uniswapV2Router.swapExactTokensForETHSupportingFeeOnTransferTokens(\r... */\n      0x84\n      dup6\n      add\n      dup2\n      swap1\n      mstore\n      0xa0\n      0x44\n      dup7\n      add\n      swap1\n      dup2\n      mstore\n      dup8\n      mload\n      0xa4\n      dup8\n      add\n      mstore\n      dup8\n      mload\n      sub(shl(0xa0, 0x01), 0x01)\n        /* \"contracts/Token.sol\":9784:9799  uniswapV2Router */\n      swap1\n      swap8\n      and\n      swap7\n        /* \"contracts/Token.sol\":9784:9850  uniswapV2Router.swapExactTokensForETHSupportingFeeOnTransferTokens */\n      0x791ac947\n      swap7\n        /* \"contracts/Token.sol\":9865:9876  tokenAmount */\n      dup11\n      swap7\n        /* \"contracts/Token.sol\":9935:9939  path */\n      dup11\n      swap6\n        /* \"contracts/Token.sol\":9962:9966  this */\n      swap5\n        /* \"contracts/Token.sol\":9998:10013  block.timestamp */\n      swap4\n        /* \"contracts/Token.sol\":9784:10024  uniswapV2Router.swapExactTokensForETHSupportingFeeOnTransferTokens(\r... */\n      swap1\n      swap3\n      swap1\n      swap2\n      0xc4\n      add\n      swap1\n      0x20\n      dup1\n      dup9\n      add\n      swap2\n      mul\n      dup1\n      dup4\n      dup4\n        /* \"contracts/Token.sol\":9784:9799  uniswapV2Router */\n      dup12\n        /* \"contracts/Token.sol\":9784:10024  uniswapV2Router.swapExactTokensForETHSupportingFeeOnTransferTokens(\r... */\n    tag_508:\n      dup4\n      dup2\n      lt\n      iszero\n      tag_510\n      jumpi\n      dup2\n      dup2\n      add\n      mload\n      dup4\n      dup3\n      add\n      mstore\n      0x20\n      add\n      jump(tag_508)\n    tag_510:\n      pop\n      pop\n      pop\n      pop\n      swap1\n      pop\n      add\n      swap7\n      pop\n      pop\n      pop\n      pop\n      pop\n      pop\n      pop\n      0x00\n      mload(0x40)\n      dup1\n      dup4\n      sub\n      dup2\n      0x00\n      dup8\n      dup1\n      extcodesize\n      iszero\n      dup1\n      iszero\n      tag_511\n      jumpi\n      0x00\n      dup1\n      revert\n    tag_511:\n      pop\n      gas\n      call\n      iszero\n      dup1\n      iszero\n      tag_513\n      jumpi\n      returndatasize\n      0x00\n      dup1\n      returndatacopy\n      revert(0x00, returndatasize)\n    tag_513:\n      pop\n      pop\n      pop\n      pop\n        /* \"contracts/Token.sol\":10042:10077  SwapTokensForETH(tokenAmount, path) */\n      0x32cde87eb454f3a0b875ab23547023107cfad454363ec88ba5695e2c24aa52a7\n        /* \"contracts/Token.sol\":10059:10070  tokenAmount */\n      dup3\n        /* \"contracts/Token.sol\":10072:10076  path */\n      dup3\n        /* \"contracts/Token.sol\":10042:10077  SwapTokensForETH(tokenAmount, path) */\n      mload(0x40)\n      dup1\n      dup4\n      dup2\n      mstore\n      0x20\n      add\n      dup1\n      0x20\n      add\n      dup3\n      dup2\n      sub\n      dup3\n      mstore\n      dup4\n      dup2\n      dup2\n      mload\n      dup2\n      mstore\n      0x20\n      add\n      swap2\n      pop\n      dup1\n      mload\n      swap1\n      0x20\n      add\n      swap1\n      0x20\n      mul\n      dup1\n      dup4\n      dup4\n      0x00\n    tag_514:\n      dup4\n      dup2\n      lt\n      iszero\n      tag_516\n      jumpi\n      dup2\n      dup2\n      add\n      mload\n      dup4\n      dup3\n      add\n      mstore\n      0x20\n      add\n      jump(tag_514)\n    tag_516:\n      pop\n      pop\n      pop\n      pop\n      swap1\n      pop\n      add\n      swap4\n      pop\n      pop\n      pop\n      pop\n      mload(0x40)\n      dup1\n      swap2\n      sub\n      swap1\n      log1\n        /* \"contracts/Token.sol\":9427:10085  function swapTokensForEth(uint256 tokenAmount) private {\r... */\n      pop\n      pop\n      jump\t// out\n        /* \"contracts/Token.sol\":9283:9417  function sendETHToFee(uint256 amount) private {\r... */\n    tag_435:\n        /* \"contracts/Token.sol\":9340:9356  marketingAddress */\n      sload(0x03)\n        /* \"contracts/Token.sol\":9340:9373  marketingAddress.transfer(amount) */\n      mload(0x40)\n      sub(shl(0xa0, 0x01), 0x01)\n        /* \"contracts/Token.sol\":9340:9356  marketingAddress */\n      swap1\n      swap2\n      and\n      swap1\n        /* \"contracts/Token.sol\":9340:9373  marketingAddress.transfer(amount) */\n      dup3\n      iszero\n      0x08fc\n      mul\n      swap1\n        /* \"contracts/Token.sol\":9366:9372  amount */\n      dup4\n      swap1\n        /* \"contracts/Token.sol\":9340:9356  marketingAddress */\n      0x00\n        /* \"contracts/Token.sol\":9340:9373  marketingAddress.transfer(amount) */\n      dup2\n        /* \"contracts/Token.sol\":9340:9356  marketingAddress */\n      dup2\n        /* \"contracts/Token.sol\":9340:9373  marketingAddress.transfer(amount) */\n      dup2\n        /* \"contracts/Token.sol\":9366:9372  amount */\n      dup6\n        /* \"contracts/Token.sol\":9340:9356  marketingAddress */\n      dup9\n        /* \"contracts/Token.sol\":9340:9373  marketingAddress.transfer(amount) */\n      dup9\n      call\n      swap4\n      pop\n      pop\n      pop\n      pop\n      iszero\n      dup1\n      iszero\n      tag_519\n      jumpi\n      returndatasize\n      0x00\n      dup1\n      returndatacopy\n      revert(0x00, returndatasize)\n    tag_519:\n      pop\n        /* \"contracts/Token.sol\":9389:9409  SendETHToFee(amount) */\n      0x40\n      dup1\n      mload\n      dup3\n      dup2\n      mstore\n      swap1\n      mload\n      0xb6b34f3cfef2b0bb0e47223ab355ff7c3615a62fe5f469444611e679411246c6\n      swap2\n      dup2\n      swap1\n      sub\n      0x20\n      add\n      swap1\n      log1\n        /* \"contracts/Token.sol\":9283:9417  function sendETHToFee(uint256 amount) private {\r... */\n      pop\n      jump\t// out\n        /* \"contracts/Token.sol\":16418:16653  function removeAllFee() private {\r... */\n    tag_439:\n        /* \"contracts/Token.sol\":16465:16472  _taxFee */\n      sload(0x12)\n        /* \"contracts/Token.sol\":16465:16477  _taxFee == 0 */\n      iszero\n        /* \"contracts/Token.sol\":16465:16499  _taxFee == 0 && _liquidityFee == 0 */\n      dup1\n      iszero\n      tag_521\n      jumpi\n      pop\n        /* \"contracts/Token.sol\":16481:16494  _liquidityFee */\n      sload(0x14)\n        /* \"contracts/Token.sol\":16481:16499  _liquidityFee == 0 */\n      iszero\n        /* \"contracts/Token.sol\":16465:16499  _taxFee == 0 && _liquidityFee == 0 */\n    tag_521:\n        /* \"contracts/Token.sol\":16461:16508  if (_taxFee == 0 && _liquidityFee == 0) return; */\n      iszero\n      tag_522\n      jumpi\n        /* \"contracts/Token.sol\":16501:16508  return; */\n      jump(tag_520)\n        /* \"contracts/Token.sol\":16461:16508  if (_taxFee == 0 && _liquidityFee == 0) return; */\n    tag_522:\n        /* \"contracts/Token.sol\":16538:16545  _taxFee */\n      0x12\n      dup1\n      sload\n        /* \"contracts/Token.sol\":16520:16535  _previousTaxFee */\n      0x13\n        /* \"contracts/Token.sol\":16520:16545  _previousTaxFee = _taxFee */\n      sstore\n        /* \"contracts/Token.sol\":16580:16593  _liquidityFee */\n      0x14\n      dup1\n      sload\n        /* \"contracts/Token.sol\":16556:16577  _previousLiquidityFee */\n      0x15\n        /* \"contracts/Token.sol\":16556:16593  _previousLiquidityFee = _liquidityFee */\n      sstore\n      0x00\n        /* \"contracts/Token.sol\":16606:16617  _taxFee = 0 */\n      swap2\n      dup3\n      swap1\n      sstore\n        /* \"contracts/Token.sol\":16628:16645  _liquidityFee = 0 */\n      sstore\n        /* \"contracts/Token.sol\":16418:16653  function removeAllFee() private {\r... */\n    tag_520:\n      jump\t// out\n        /* \"contracts/Token.sol\":12409:12972  function _transferFromExcluded(address sender, address recipient, uint256 tAmount) private {\r... */\n    tag_443:\n        /* \"contracts/Token.sol\":12512:12527  uint256 rAmount */\n      0x00\n        /* \"contracts/Token.sol\":12529:12552  uint256 rTransferAmount */\n      dup1\n        /* \"contracts/Token.sol\":12554:12566  uint256 rFee */\n      0x00\n        /* \"contracts/Token.sol\":12568:12591  uint256 tTransferAmount */\n      dup1\n        /* \"contracts/Token.sol\":12593:12605  uint256 tFee */\n      0x00\n        /* \"contracts/Token.sol\":12607:12625  uint256 tLiquidity */\n      dup1\n        /* \"contracts/Token.sol\":12629:12648  _getValues(tAmount) */\n      tag_524\n        /* \"contracts/Token.sol\":12640:12647  tAmount */\n      dup8\n        /* \"contracts/Token.sol\":12629:12639  _getValues */\n      tag_278\n        /* \"contracts/Token.sol\":12629:12648  _getValues(tAmount) */\n      jump\t// in\n    tag_524:\n      sub(shl(0xa0, 0x01), 0x01)\n        /* \"contracts/Token.sol\":12677:12692  _tOwned[sender] */\n      dup16\n      and\n      0x00\n      swap1\n      dup2\n      mstore\n        /* \"contracts/Token.sol\":12677:12684  _tOwned */\n      0x05\n        /* \"contracts/Token.sol\":12677:12692  _tOwned[sender] */\n      0x20\n      mstore\n      0x40\n      swap1\n      keccak256\n      sload\n        /* \"contracts/Token.sol\":12511:12648  (uint256 rAmount, uint256 rTransferAmount, uint256 rFee, uint256 tTransferAmount, uint256 tFee, uint256 tLiquidity) = _getValues(tAmount) */\n      swap6\n      swap12\n      pop\n      swap4\n      swap10\n      pop\n      swap2\n      swap8\n      pop\n      swap6\n      pop\n      swap4\n      pop\n      swap2\n      pop\n        /* \"contracts/Token.sol\":12677:12705  _tOwned[sender].sub(tAmount) */\n      tag_525\n      swap1\n        /* \"contracts/Token.sol\":12697:12704  tAmount */\n      dup9\n        /* \"contracts/Token.sol\":12677:12696  _tOwned[sender].sub */\n      tag_280\n        /* \"contracts/Token.sol\":12677:12705  _tOwned[sender].sub(tAmount) */\n      jump\t// in\n    tag_525:\n      sub(shl(0xa0, 0x01), 0x01)\n        /* \"contracts/Token.sol\":12659:12674  _tOwned[sender] */\n      dup11\n      and\n      0x00\n      swap1\n      dup2\n      mstore\n        /* \"contracts/Token.sol\":12659:12666  _tOwned */\n      0x05\n        /* \"contracts/Token.sol\":12659:12674  _tOwned[sender] */\n      0x20\n      swap1\n      dup2\n      mstore\n      0x40\n      dup1\n      dup4\n      keccak256\n        /* \"contracts/Token.sol\":12659:12705  _tOwned[sender] = _tOwned[sender].sub(tAmount) */\n      swap4\n      swap1\n      swap4\n      sstore\n        /* \"contracts/Token.sol\":12734:12741  _rOwned */\n      0x04\n        /* \"contracts/Token.sol\":12734:12749  _rOwned[sender] */\n      swap1\n      mstore\n      keccak256\n      sload\n        /* \"contracts/Token.sol\":12734:12762  _rOwned[sender].sub(rAmount) */\n      tag_526\n      swap1\n        /* \"contracts/Token.sol\":12754:12761  rAmount */\n      dup8\n        /* \"contracts/Token.sol\":12734:12753  _rOwned[sender].sub */\n      tag_280\n        /* \"contracts/Token.sol\":12734:12762  _rOwned[sender].sub(rAmount) */\n      jump\t// in\n    tag_526:\n      sub(shl(0xa0, 0x01), 0x01)\n        /* \"contracts/Token.sol\":12716:12731  _rOwned[sender] */\n      dup1\n      dup12\n      and\n      0x00\n      swap1\n      dup2\n      mstore\n        /* \"contracts/Token.sol\":12716:12723  _rOwned */\n      0x04\n        /* \"contracts/Token.sol\":12716:12731  _rOwned[sender] */\n      0x20\n      mstore\n      0x40\n      dup1\n      dup3\n      keccak256\n        /* \"contracts/Token.sol\":12716:12762  _rOwned[sender] = _rOwned[sender].sub(rAmount) */\n      swap4\n      swap1\n      swap4\n      sstore\n        /* \"contracts/Token.sol\":12794:12812  _rOwned[recipient] */\n      swap1\n      dup11\n      and\n      dup2\n      mstore\n      keccak256\n      sload\n        /* \"contracts/Token.sol\":12794:12833  _rOwned[recipient].add(rTransferAmount) */\n      tag_527\n      swap1\n        /* \"contracts/Token.sol\":12817:12832  rTransferAmount */\n      dup7\n        /* \"contracts/Token.sol\":12794:12816  _rOwned[recipient].add */\n      tag_273\n        /* \"contracts/Token.sol\":12794:12833  _rOwned[recipient].add(rTransferAmount) */\n      jump\t// in\n    tag_527:\n      sub(shl(0xa0, 0x01), 0x01)\n        /* \"contracts/Token.sol\":12773:12791  _rOwned[recipient] */\n      dup10\n      and\n      0x00\n      swap1\n      dup2\n      mstore\n        /* \"contracts/Token.sol\":12773:12780  _rOwned */\n      0x04\n        /* \"contracts/Token.sol\":12773:12791  _rOwned[recipient] */\n      0x20\n      mstore\n      0x40\n      swap1\n      keccak256\n        /* \"contracts/Token.sol\":12773:12833  _rOwned[recipient] = _rOwned[recipient].add(rTransferAmount) */\n      sstore\n        /* \"contracts/Token.sol\":12844:12870  _takeLiquidity(tLiquidity) */\n      tag_528\n        /* \"contracts/Token.sol\":12859:12869  tLiquidity */\n      dup2\n        /* \"contracts/Token.sol\":12844:12858  _takeLiquidity */\n      tag_529\n        /* \"contracts/Token.sol\":12844:12870  _takeLiquidity(tLiquidity) */\n      jump\t// in\n    tag_528:\n        /* \"contracts/Token.sol\":12881:12904  _reflectFee(rFee, tFee) */\n      tag_530\n        /* \"contracts/Token.sol\":12893:12897  rFee */\n      dup5\n        /* \"contracts/Token.sol\":12899:12903  tFee */\n      dup4\n        /* \"contracts/Token.sol\":12881:12892  _reflectFee */\n      tag_531\n        /* \"contracts/Token.sol\":12881:12904  _reflectFee(rFee, tFee) */\n      jump\t// in\n    tag_530:\n        /* \"contracts/Token.sol\":12937:12946  recipient */\n      dup8\n      sub(shl(0xa0, 0x01), 0x01)\n        /* \"contracts/Token.sol\":12920:12964  Transfer(sender, recipient, tTransferAmount) */\n      and\n        /* \"contracts/Token.sol\":12929:12935  sender */\n      dup10\n      sub(shl(0xa0, 0x01), 0x01)\n        /* \"contracts/Token.sol\":12920:12964  Transfer(sender, recipient, tTransferAmount) */\n      and\n      0xddf252ad1be2c89b69c2b068fc378daa952ba7f163c4a11628f55a4df523b3ef\n        /* \"contracts/Token.sol\":12948:12963  tTransferAmount */\n      dup6\n        /* \"contracts/Token.sol\":12920:12964  Transfer(sender, recipient, tTransferAmount) */\n      mload(0x40)\n      dup1\n      dup3\n      dup2\n      mstore\n      0x20\n      add\n      swap2\n      pop\n      pop\n      mload(0x40)\n      dup1\n      swap2\n      sub\n      swap1\n      log3\n        /* \"contracts/Token.sol\":12409:12972  function _transferFromExcluded(address sender, address recipient, uint256 tAmount) private {\r... */\n      pop\n      pop\n      pop\n      pop\n      pop\n      pop\n      pop\n      pop\n      pop\n      jump\t// out\n        /* \"contracts/Token.sol\":11826:12401  function _transferToExcluded(address sender, address recipient, uint256 tAmount) private {\r... */\n    tag_448:\n        /* \"contracts/Token.sol\":11927:11942  uint256 rAmount */\n      0x00\n        /* \"contracts/Token.sol\":11944:11967  uint256 rTransferAmount */\n      dup1\n        /* \"contracts/Token.sol\":11969:11981  uint256 rFee */\n      0x00\n        /* \"contracts/Token.sol\":11983:12006  uint256 tTransferAmount */\n      dup1\n        /* \"contracts/Token.sol\":12008:12020  uint256 tFee */\n      0x00\n        /* \"contracts/Token.sol\":12022:12040  uint256 tLiquidity */\n      dup1\n        /* \"contracts/Token.sol\":12044:12063  _getValues(tAmount) */\n      tag_533\n        /* \"contracts/Token.sol\":12055:12062  tAmount */\n      dup8\n        /* \"contracts/Token.sol\":12044:12054  _getValues */\n      tag_278\n        /* \"contracts/Token.sol\":12044:12063  _getValues(tAmount) */\n      jump\t// in\n    tag_533:\n      sub(shl(0xa0, 0x01), 0x01)\n        /* \"contracts/Token.sol\":12092:12107  _rOwned[sender] */\n      dup16\n      and\n      0x00\n      swap1\n      dup2\n      mstore\n        /* \"contracts/Token.sol\":12092:12099  _rOwned */\n      0x04\n        /* \"contracts/Token.sol\":12092:12107  _rOwned[sender] */\n      0x20\n      mstore\n      0x40\n      swap1\n      keccak256\n      sload\n        /* \"contracts/Token.sol\":11926:12063  (uint256 rAmount, uint256 rTransferAmount, uint256 rFee, uint256 tTransferAmount, uint256 tFee, uint256 tLiquidity) = _getValues(tAmount) */\n      swap6\n      swap12\n      pop\n      swap4\n      swap10\n      pop\n      swap2\n      swap8\n      pop\n      swap6\n      pop\n      swap4\n      pop\n      swap2\n      pop\n        /* \"contracts/Token.sol\":12092:12120  _rOwned[sender].sub(rAmount) */\n      tag_534\n      swap1\n        /* \"contracts/Token.sol\":11926:12063  (uint256 rAmount, uint256 rTransferAmount, uint256 rFee, uint256 tTransferAmount, uint256 tFee, uint256 tLiquidity) = _getValues(tAmount) */\n      dup8\n        /* \"contracts/Token.sol\":12092:12111  _rOwned[sender].sub */\n      tag_280\n        /* \"contracts/Token.sol\":12092:12120  _rOwned[sender].sub(rAmount) */\n      jump\t// in\n    tag_534:\n      sub(shl(0xa0, 0x01), 0x01)\n        /* \"contracts/Token.sol\":12074:12089  _rOwned[sender] */\n      dup1\n      dup12\n      and\n      0x00\n      swap1\n      dup2\n      mstore\n        /* \"contracts/Token.sol\":12074:12081  _rOwned */\n      0x04\n        /* \"contracts/Token.sol\":12074:12089  _rOwned[sender] */\n      0x20\n      swap1\n      dup2\n      mstore\n      0x40\n      dup1\n      dup4\n      keccak256\n        /* \"contracts/Token.sol\":12074:12120  _rOwned[sender] = _rOwned[sender].sub(rAmount) */\n      swap5\n      swap1\n      swap5\n      sstore\n        /* \"contracts/Token.sol\":12152:12170  _tOwned[recipient] */\n      swap2\n      dup12\n      and\n      dup2\n      mstore\n        /* \"contracts/Token.sol\":12152:12159  _tOwned */\n      0x05\n        /* \"contracts/Token.sol\":12152:12170  _tOwned[recipient] */\n      swap1\n      swap2\n      mstore\n      keccak256\n      sload\n        /* \"contracts/Token.sol\":12152:12191  _tOwned[recipient].add(tTransferAmount) */\n      tag_535\n      swap1\n        /* \"contracts/Token.sol\":12175:12190  tTransferAmount */\n      dup5\n        /* \"contracts/Token.sol\":12152:12174  _tOwned[recipient].add */\n      tag_273\n        /* \"contracts/Token.sol\":12152:12191  _tOwned[recipient].add(tTransferAmount) */\n      jump\t// in\n    tag_535:\n      sub(shl(0xa0, 0x01), 0x01)\n        /* \"contracts/Token.sol\":12131:12149  _tOwned[recipient] */\n      dup10\n      and\n      0x00\n      swap1\n      dup2\n      mstore\n        /* \"contracts/Token.sol\":12131:12138  _tOwned */\n      0x05\n        /* \"contracts/Token.sol\":12131:12149  _tOwned[recipient] */\n      0x20\n      swap1\n      dup2\n      mstore\n      0x40\n      dup1\n      dup4\n      keccak256\n        /* \"contracts/Token.sol\":12131:12191  _tOwned[recipient] = _tOwned[recipient].add(tTransferAmount) */\n      swap4\n      swap1\n      swap4\n      sstore\n        /* \"contracts/Token.sol\":12223:12230  _rOwned */\n      0x04\n        /* \"contracts/Token.sol\":12223:12241  _rOwned[recipient] */\n      swap1\n      mstore\n      keccak256\n      sload\n        /* \"contracts/Token.sol\":12223:12262  _rOwned[recipient].add(rTransferAmount) */\n      tag_527\n      swap1\n        /* \"contracts/Token.sol\":12246:12261  rTransferAmount */\n      dup7\n        /* \"contracts/Token.sol\":12223:12245  _rOwned[recipient].add */\n      tag_273\n        /* \"contracts/Token.sol\":12223:12262  _rOwned[recipient].add(rTransferAmount) */\n      jump\t// in\n        /* \"contracts/Token.sol\":12980:13614  function _transferBothExcluded(address sender, address recipient, uint256 tAmount) private {\r... */\n    tag_453:\n        /* \"contracts/Token.sol\":13083:13098  uint256 rAmount */\n      0x00\n        /* \"contracts/Token.sol\":13100:13123  uint256 rTransferAmount */\n      dup1\n        /* \"contracts/Token.sol\":13125:13137  uint256 rFee */\n      0x00\n        /* \"contracts/Token.sol\":13139:13162  uint256 tTransferAmount */\n      dup1\n        /* \"contracts/Token.sol\":13164:13176  uint256 tFee */\n      0x00\n        /* \"contracts/Token.sol\":13178:13196  uint256 tLiquidity */\n      dup1\n        /* \"contracts/Token.sol\":13200:13219  _getValues(tAmount) */\n      tag_540\n        /* \"contracts/Token.sol\":13211:13218  tAmount */\n      dup8\n        /* \"contracts/Token.sol\":13200:13210  _getValues */\n      tag_278\n        /* \"contracts/Token.sol\":13200:13219  _getValues(tAmount) */\n      jump\t// in\n    tag_540:\n      sub(shl(0xa0, 0x01), 0x01)\n        /* \"contracts/Token.sol\":13248:13263  _tOwned[sender] */\n      dup16\n      and\n      0x00\n      swap1\n      dup2\n      mstore\n        /* \"contracts/Token.sol\":13248:13255  _tOwned */\n      0x05\n        /* \"contracts/Token.sol\":13248:13263  _tOwned[sender] */\n      0x20\n      mstore\n      0x40\n      swap1\n      keccak256\n      sload\n        /* \"contracts/Token.sol\":13082:13219  (uint256 rAmount, uint256 rTransferAmount, uint256 rFee, uint256 tTransferAmount, uint256 tFee, uint256 tLiquidity) = _getValues(tAmount) */\n      swap6\n      swap12\n      pop\n      swap4\n      swap10\n      pop\n      swap2\n      swap8\n      pop\n      swap6\n      pop\n      swap4\n      pop\n      swap2\n      pop\n        /* \"contracts/Token.sol\":13248:13276  _tOwned[sender].sub(tAmount) */\n      tag_541\n      swap1\n        /* \"contracts/Token.sol\":13268:13275  tAmount */\n      dup9\n        /* \"contracts/Token.sol\":13248:13267  _tOwned[sender].sub */\n      tag_280\n        /* \"contracts/Token.sol\":13248:13276  _tOwned[sender].sub(tAmount) */\n      jump\t// in\n    tag_541:\n      sub(shl(0xa0, 0x01), 0x01)\n        /* \"contracts/Token.sol\":13230:13245  _tOwned[sender] */\n      dup11\n      and\n      0x00\n      swap1\n      dup2\n      mstore\n        /* \"contracts/Token.sol\":13230:13237  _tOwned */\n      0x05\n        /* \"contracts/Token.sol\":13230:13245  _tOwned[sender] */\n      0x20\n      swap1\n      dup2\n      mstore\n      0x40\n      dup1\n      dup4\n      keccak256\n        /* \"contracts/Token.sol\":13230:13276  _tOwned[sender] = _tOwned[sender].sub(tAmount) */\n      swap4\n      swap1\n      swap4\n      sstore\n        /* \"contracts/Token.sol\":13305:13312  _rOwned */\n      0x04\n        /* \"contracts/Token.sol\":13305:13320  _rOwned[sender] */\n      swap1\n      mstore\n      keccak256\n      sload\n        /* \"contracts/Token.sol\":13305:13333  _rOwned[sender].sub(rAmount) */\n      tag_534\n      swap1\n        /* \"contracts/Token.sol\":13325:13332  rAmount */\n      dup8\n        /* \"contracts/Token.sol\":13305:13324  _rOwned[sender].sub */\n      tag_280\n        /* \"contracts/Token.sol\":13305:13333  _rOwned[sender].sub(rAmount) */\n      jump\t// in\n        /* \"contracts/Token.sol\":11316:11818  function _transferStandard(address sender, address recipient, uint256 tAmount) private {\r... */\n    tag_456:\n        /* \"contracts/Token.sol\":11415:11430  uint256 rAmount */\n      0x00\n        /* \"contracts/Token.sol\":11432:11455  uint256 rTransferAmount */\n      dup1\n        /* \"contracts/Token.sol\":11457:11469  uint256 rFee */\n      0x00\n        /* \"contracts/Token.sol\":11471:11494  uint256 tTransferAmount */\n      dup1\n        /* \"contracts/Token.sol\":11496:11508  uint256 tFee */\n      0x00\n        /* \"contracts/Token.sol\":11510:11528  uint256 tLiquidity */\n      dup1\n        /* \"contracts/Token.sol\":11532:11551  _getValues(tAmount) */\n      tag_548\n        /* \"contracts/Token.sol\":11543:11550  tAmount */\n      dup8\n        /* \"contracts/Token.sol\":11532:11542  _getValues */\n      tag_278\n        /* \"contracts/Token.sol\":11532:11551  _getValues(tAmount) */\n      jump\t// in\n    tag_548:\n      sub(shl(0xa0, 0x01), 0x01)\n        /* \"contracts/Token.sol\":11580:11595  _rOwned[sender] */\n      dup16\n      and\n      0x00\n      swap1\n      dup2\n      mstore\n        /* \"contracts/Token.sol\":11580:11587  _rOwned */\n      0x04\n        /* \"contracts/Token.sol\":11580:11595  _rOwned[sender] */\n      0x20\n      mstore\n      0x40\n      swap1\n      keccak256\n      sload\n        /* \"contracts/Token.sol\":11414:11551  (uint256 rAmount, uint256 rTransferAmount, uint256 rFee, uint256 tTransferAmount, uint256 tFee, uint256 tLiquidity) = _getValues(tAmount) */\n      swap6\n      swap12\n      pop\n      swap4\n      swap10\n      pop\n      swap2\n      swap8\n      pop\n      swap6\n      pop\n      swap4\n      pop\n      swap2\n      pop\n        /* \"contracts/Token.sol\":11580:11608  _rOwned[sender].sub(rAmount) */\n      tag_526\n      swap1\n        /* \"contracts/Token.sol\":11414:11551  (uint256 rAmount, uint256 rTransferAmount, uint256 rFee, uint256 tTransferAmount, uint256 tFee, uint256 tLiquidity) = _getValues(tAmount) */\n      dup8\n        /* \"contracts/Token.sol\":11580:11599  _rOwned[sender].sub */\n      tag_280\n        /* \"contracts/Token.sol\":11580:11608  _rOwned[sender].sub(rAmount) */\n      jump\t// in\n        /* \"contracts/Token.sol\":16661:16786  function restoreAllFee() private {\r... */\n    tag_459:\n        /* \"contracts/Token.sol\":16715:16730  _previousTaxFee */\n      sload(0x13)\n        /* \"contracts/Token.sol\":16705:16712  _taxFee */\n      0x12\n        /* \"contracts/Token.sol\":16705:16730  _taxFee = _previousTaxFee */\n      sstore\n        /* \"contracts/Token.sol\":16757:16778  _previousLiquidityFee */\n      sload(0x15)\n        /* \"contracts/Token.sol\":16741:16754  _liquidityFee */\n      0x14\n        /* \"contracts/Token.sol\":16741:16778  _liquidityFee = _previousLiquidityFee */\n      sstore\n        /* \"contracts/Token.sol\":16661:16786  function restoreAllFee() private {\r... */\n      jump\t// out\n        /* \"contracts/Token.sol\":16078:16234  function calculateTaxFee(uint256 _amount) private view returns (uint256) {\r... */\n    tag_487:\n        /* \"contracts/Token.sol\":16142:16149  uint256 */\n      0x00\n        /* \"contracts/Token.sol\":16169:16226  _amount.mul(_taxFee).div(\r... */\n      tag_213\n        /* \"contracts/Token.sol\":16208:16215  10 ** 2 */\n      0x64\n        /* \"contracts/Token.sol\":16169:16189  _amount.mul(_taxFee) */\n      tag_387\n        /* \"contracts/Token.sol\":16181:16188  _taxFee */\n      sload(0x12)\n        /* \"contracts/Token.sol\":16169:16176  _amount */\n      dup6\n        /* \"contracts/Token.sol\":16169:16180  _amount.mul */\n      tag_389\n      swap1\n        /* \"contracts/Token.sol\":16169:16189  _amount.mul(_taxFee) */\n      swap2\n      swap1\n      0xffffffff\n      and\n      jump\t// in\n        /* \"contracts/Token.sol\":16242:16410  function calculateLiquidityFee(uint256 _amount) private view returns (uint256) {\r... */\n    tag_489:\n        /* \"contracts/Token.sol\":16312:16319  uint256 */\n      0x00\n        /* \"contracts/Token.sol\":16339:16402  _amount.mul(_liquidityFee).div(\r... */\n      tag_213\n        /* \"contracts/Token.sol\":16384:16391  10 ** 2 */\n      0x64\n        /* \"contracts/Token.sol\":16339:16365  _amount.mul(_liquidityFee) */\n      tag_387\n        /* \"contracts/Token.sol\":16351:16364  _liquidityFee */\n      sload(0x14)\n        /* \"contracts/Token.sol\":16339:16346  _amount */\n      dup6\n        /* \"contracts/Token.sol\":16339:16350  _amount.mul */\n      tag_389\n      swap1\n        /* \"contracts/Token.sol\":16339:16365  _amount.mul(_liquidityFee) */\n      swap2\n      swap1\n      0xffffffff\n      and\n      jump\t// in\n        /* \"contracts/Token.sol\":15715:16070  function _takeLiquidity(uint256 tLiquidity) private {\r... */\n    tag_529:\n        /* \"contracts/Token.sol\":15778:15797  uint256 currentRate */\n      0x00\n        /* \"contracts/Token.sol\":15800:15810  _getRate() */\n      tag_561\n        /* \"contracts/Token.sol\":15800:15808  _getRate */\n      tag_230\n        /* \"contracts/Token.sol\":15800:15810  _getRate() */\n      jump\t// in\n    tag_561:\n        /* \"contracts/Token.sol\":15778:15810  uint256 currentRate = _getRate() */\n      swap1\n      pop\n        /* \"contracts/Token.sol\":15821:15839  uint256 rLiquidity */\n      0x00\n        /* \"contracts/Token.sol\":15842:15869  tLiquidity.mul(currentRate) */\n      tag_562\n        /* \"contracts/Token.sol\":15842:15852  tLiquidity */\n      dup4\n        /* \"contracts/Token.sol\":15778:15810  uint256 currentRate = _getRate() */\n      dup4\n        /* \"contracts/Token.sol\":15842:15856  tLiquidity.mul */\n      tag_389\n        /* \"contracts/Token.sol\":15842:15869  tLiquidity.mul(currentRate) */\n      jump\t// in\n    tag_562:\n        /* \"contracts/Token.sol\":15921:15925  this */\n      address\n        /* \"contracts/Token.sol\":15905:15927  _rOwned[address(this)] */\n      0x00\n      swap1\n      dup2\n      mstore\n        /* \"contracts/Token.sol\":15905:15912  _rOwned */\n      0x04\n        /* \"contracts/Token.sol\":15905:15927  _rOwned[address(this)] */\n      0x20\n      mstore\n      0x40\n      swap1\n      keccak256\n      sload\n        /* \"contracts/Token.sol\":15821:15869  uint256 rLiquidity = tLiquidity.mul(currentRate) */\n      swap1\n      swap2\n      pop\n        /* \"contracts/Token.sol\":15905:15943  _rOwned[address(this)].add(rLiquidity) */\n      tag_563\n      swap1\n        /* \"contracts/Token.sol\":15821:15869  uint256 rLiquidity = tLiquidity.mul(currentRate) */\n      dup3\n        /* \"contracts/Token.sol\":15905:15931  _rOwned[address(this)].add */\n      tag_273\n        /* \"contracts/Token.sol\":15905:15943  _rOwned[address(this)].add(rLiquidity) */\n      jump\t// in\n    tag_563:\n        /* \"contracts/Token.sol\":15896:15900  this */\n      address\n        /* \"contracts/Token.sol\":15880:15902  _rOwned[address(this)] */\n      0x00\n      swap1\n      dup2\n      mstore\n        /* \"contracts/Token.sol\":15880:15887  _rOwned */\n      0x04\n        /* \"contracts/Token.sol\":15880:15902  _rOwned[address(this)] */\n      0x20\n      swap1\n      dup2\n      mstore\n      0x40\n      dup1\n      dup4\n      keccak256\n        /* \"contracts/Token.sol\":15880:15943  _rOwned[address(this)] = _rOwned[address(this)].add(rLiquidity) */\n      swap4\n      swap1\n      swap4\n      sstore\n        /* \"contracts/Token.sol\":15958:15969  _isExcluded */\n      0x0a\n        /* \"contracts/Token.sol\":15958:15984  _isExcluded[address(this)] */\n      swap1\n      mstore\n      keccak256\n      sload\n      0xff\n      and\n        /* \"contracts/Token.sol\":15954:16062  if (_isExcluded[address(this)])\r... */\n      iszero\n      tag_564\n      jumpi\n        /* \"contracts/Token.sol\":16040:16044  this */\n      address\n        /* \"contracts/Token.sol\":16024:16046  _tOwned[address(this)] */\n      0x00\n      swap1\n      dup2\n      mstore\n        /* \"contracts/Token.sol\":16024:16031  _tOwned */\n      0x05\n        /* \"contracts/Token.sol\":16024:16046  _tOwned[address(this)] */\n      0x20\n      mstore\n      0x40\n      swap1\n      keccak256\n      sload\n        /* \"contracts/Token.sol\":16024:16062  _tOwned[address(this)].add(tLiquidity) */\n      tag_565\n      swap1\n        /* \"contracts/Token.sol\":16051:16061  tLiquidity */\n      dup5\n        /* \"contracts/Token.sol\":16024:16050  _tOwned[address(this)].add */\n      tag_273\n        /* \"contracts/Token.sol\":16024:16062  _tOwned[address(this)].add(tLiquidity) */\n      jump\t// in\n    tag_565:\n        /* \"contracts/Token.sol\":16015:16019  this */\n      address\n        /* \"contracts/Token.sol\":15999:16021  _tOwned[address(this)] */\n      0x00\n      swap1\n      dup2\n      mstore\n        /* \"contracts/Token.sol\":15999:16006  _tOwned */\n      0x05\n        /* \"contracts/Token.sol\":15999:16021  _tOwned[address(this)] */\n      0x20\n      mstore\n      0x40\n      swap1\n      keccak256\n        /* \"contracts/Token.sol\":15999:16062  _tOwned[address(this)] = _tOwned[address(this)].add(tLiquidity) */\n      sstore\n        /* \"contracts/Token.sol\":15954:16062  if (_isExcluded[address(this)])\r... */\n    tag_564:\n        /* \"contracts/Token.sol\":15715:16070  function _takeLiquidity(uint256 tLiquidity) private {\r... */\n      pop\n      pop\n      pop\n      jump\t// out\n        /* \"contracts/Token.sol\":13622:13769  function _reflectFee(uint256 rFee, uint256 tFee) private {\r... */\n    tag_531:\n        /* \"contracts/Token.sol\":13700:13707  _rTotal */\n      sload(0x0d)\n        /* \"contracts/Token.sol\":13700:13717  _rTotal.sub(rFee) */\n      tag_567\n      swap1\n        /* \"contracts/Token.sol\":13712:13716  rFee */\n      dup4\n        /* \"contracts/Token.sol\":13700:13711  _rTotal.sub */\n      tag_280\n        /* \"contracts/Token.sol\":13700:13717  _rTotal.sub(rFee) */\n      jump\t// in\n    tag_567:\n        /* \"contracts/Token.sol\":13690:13697  _rTotal */\n      0x0d\n        /* \"contracts/Token.sol\":13690:13717  _rTotal = _rTotal.sub(rFee) */\n      sstore\n        /* \"contracts/Token.sol\":13741:13751  _tFeeTotal */\n      sload(0x0e)\n        /* \"contracts/Token.sol\":13741:13761  _tFeeTotal.add(tFee) */\n      tag_568\n      swap1\n        /* \"contracts/Token.sol\":13756:13760  tFee */\n      dup3\n        /* \"contracts/Token.sol\":13741:13755  _tFeeTotal.add */\n      tag_273\n        /* \"contracts/Token.sol\":13741:13761  _tFeeTotal.add(tFee) */\n      jump\t// in\n    tag_568:\n        /* \"contracts/Token.sol\":13728:13738  _tFeeTotal */\n      0x0e\n        /* \"contracts/Token.sol\":13728:13761  _tFeeTotal = _tFeeTotal.add(tFee) */\n      sstore\n      pop\n      pop\n        /* \"contracts/Token.sol\":13622:13769  function _reflectFee(uint256 rFee, uint256 tFee) private {\r... */\n      jump\t// out\n    stop\n    data_0557e210f7a69a685100a7e4e3d0a7024c546085cee28910fd17d0b081d9516f 45524332303a207472616e7366657220746f20746865207a65726f2061646472657373\n    data_22f7af55a509c3b14f0d528f087748dec8a8bf425135e3f5dc28c6a31ec6d812 416d6f756e74206d757374206265206c657373207468616e20746f74616c207265666c656374696f6e73\n    data_245f15ff17f551913a7a18385165551503906a406f905ac1c2437281a7cd0cfe 4f776e61626c653a206e6577206f776e657220697320746865207a65726f2061646472657373\n    data_24883cc5fe64ace9d0df1893501ecb93c77180f0ff69cca79affb3c316dc8029 45524332303a20617070726f766520746f20746865207a65726f2061646472657373\n    data_9113bb53c2876a3805b2c9242029423fc540a728243ce887ab24c82cf119fba3 536166654d6174683a206d756c7469706c69636174696f6e206f766572666c6f77\n    data_974d1b4421da69cc60b481194f0dad36a5bb4e23da810da7a7fb30cdba178330 45524332303a207472616e7366657220616d6f756e74206578636565647320616c6c6f77616e6365\n    data_9924ebdf1add33d25d4ef888e16131f0a5687b0580a36c21b5c301a6c462effe 4f776e61626c653a2063616c6c6572206973206e6f7420746865206f776e6572\n    data_9edb5ab58321f35d2386ea65721c9b107daa2c273610fc16d394af2a320ba785 5472616e7366657220616d6f756e74206d7573742062652067726561746572207468616e207a65726f\n    data_baecc556b46f4ed0f2b4cb599d60785ac8563dd2dc0a5bf12edea1c39e5e1fea 45524332303a207472616e736665722066726f6d20746865207a65726f2061646472657373\n    data_c953f4879035ed60e766b34720f656aab5c697b141d924c283124ecedb91c208 45524332303a20617070726f76652066726f6d20746865207a65726f2061646472657373\n    data_ecefcaf5fbcf9ca6dcdb02298ba1da96f4ead317b0a4779917ecb2e5e7dc3ac4 4578636c75646564206164647265737365732063616e6e6f742063616c6c20746869732066756e6374696f6e\n    data_f8b476f7d28209d77d4a4ac1fe36b9f8259aa1bb6bddfa6e89de7e51615cf8a8 45524332303a2064656372656173656420616c6c6f77616e63652062656c6f77207a65726f\n\n    auxdata: 0xa264697066735822122018bacc20c1869d9be3fc7a349f96a8f4239b07790893842f0c321c509a603f7c64736f6c634300060c0033\n}\n",
				"bytecode": {
					"linkReferences": {},
					"object": "600380546001600160a01b0319167340da1dd681ec6175c3bcfe1641cd2826a99ebdd81790556ddead00000000000000000000000060805269021e19e0c9bab2400000600c55690200b25812c4f53fffff19600d5560e0604052600960a081905268088cacecadc408aa8960bb1b60c09081526200008191600f9190620003c3565b50604080518082019091526005808252640c85c8aa8960db1b6020909201918252620000b091601091620003c3565b506011805460ff19166009179055600a60128190556013819055601481905560155560026016556019805460ff60a81b19169055348015620000f157600080fd5b506040516200325438038062003254833981810160405260408110156200011757600080fd5b50805160209091015160006200012c620003bf565b600080546001600160a01b0319166001600160a01b0383169081178255604051929350917f8be0079c531659141344cd1fd0a4f28419497f9722a3daafe3b4186f6b6457e0908290a350600d543360009081526004602052604090205562000193620003bf565b6001600160a01b031660006001600160a01b03167fddf252ad1be2c89b69c2b068fc378daa952ba7f163c4a11628f55a4df523b3ef600c546040518082815260200191505060405180910390a36000819050806001600160a01b031663c45a01556040518163ffffffff1660e01b815260040160206040518083038186803b1580156200021f57600080fd5b505afa15801562000234573d6000803e3d6000fd5b505050506040513d60208110156200024b57600080fd5b5051604080516315ab88c960e31b815290516001600160a01b039283169263c9c653969230929186169163ad5c464891600480820192602092909190829003018186803b1580156200029c57600080fd5b505afa158015620002b1573d6000803e3d6000fd5b505050506040513d6020811015620002c857600080fd5b5051604080516001600160e01b031960e086901b1681526001600160a01b0393841660048201529290911660248301525160448083019260209291908290030181600087803b1580156200031b57600080fd5b505af115801562000330573d6000803e3d6000fd5b505050506040513d60208110156200034757600080fd5b5051601980546001600160a01b03199081166001600160a01b0393841617909155601880549091169282169290921790915533600090815260096020526040808220805460ff19908116600190811790925595909316825280822080548616841790553082529020805490931617909155506200045f565b3390565b828054600181600116156101000203166002900490600052602060002090601f016020900481019282601f106200040657805160ff191683800117855562000436565b8280016001018555821562000436579182015b828111156200043657825182559160200191906001019062000419565b506200044492915062000448565b5090565b5b8082111562000444576000815560010162000449565b60805160601c612dd76200047d60003980610ae95250612dd76000f3fe60806040526004361061023f5760003560e01c80635342acb41161012e57806395d89b41116100ab578063db2e21bc1161006f578063db2e21bc1461084b578063dd62ed3e14610860578063ea2f0b371461089b578063f2fde38b146108ce578063f375b2531461090157610246565b806395d89b411461079a578063a457c2d7146107af578063a5ece941146107e8578063a9059cbb146107fd578063c9567bf91461083657610246565b806387ceff09116100f257806387ceff09146106e057806388f82020146106f55780638da5cb5b146107285780638ee88c531461073d578063906e9dd01461076757610246565b80635342acb41461061d578063610d5b19146106505780636bc87c3a1461068357806370a0823114610698578063715018a6146106cb57610246565b8063362a3c5d116101bc578063437823ec11610180578063437823ec146105465780634549b0391461057957806345596e2e146105ab57806349bd5a5e146105d557806352390c02146105ea57610246565b8063362a3c5d146104685780633685d4191461049b57806339509351146104ce5780633b124fe7146105075780633bd5d1731461051c57610246565b806318160ddd1161020357806318160ddd146103a657806323b872dd146103bb57806327c8f835146103fe5780632d83811914610413578063313ce5671461043d57610246565b8063061c82d01461024b57806306fdde0314610277578063095ea7b31461030157806313114a9d1461034e5780631694505e1461037557610246565b3661024657005b600080fd5b34801561025757600080fd5b506102756004803603602081101561026e57600080fd5b5035610934565b005b34801561028357600080fd5b5061028c610991565b6040805160208082528351818301528351919283929083019185019080838360005b838110156102c65781810151838201526020016102ae565b50505050905090810190601f1680156102f35780820380516001836020036101000a031916815260200191505b509250505060405180910390f35b34801561030d57600080fd5b5061033a6004803603604081101561032457600080fd5b506001600160a01b038135169060200135610a27565b604080519115158252519081900360200190f35b34801561035a57600080fd5b50610363610a45565b60408051918252519081900360200190f35b34801561038157600080fd5b5061038a610a4b565b604080516001600160a01b039092168252519081900360200190f35b3480156103b257600080fd5b50610363610a5a565b3480156103c757600080fd5b5061033a600480360360608110156103de57600080fd5b506001600160a01b03813581169160208101359091169060400135610a60565b34801561040a57600080fd5b5061038a610ae7565b34801561041f57600080fd5b506103636004803603602081101561043657600080fd5b5035610b0b565b34801561044957600080fd5b50610452610b6d565b6040805160ff9092168252519081900360200190f35b34801561047457600080fd5b506102756004803603602081101561048b57600080fd5b50356001600160a01b0316610b76565b3480156104a757600080fd5b50610275600480360360208110156104be57600080fd5b50356001600160a01b0316610d2e565b3480156104da57600080fd5b5061033a600480360360408110156104f157600080fd5b506001600160a01b038135169060200135610ec4565b34801561051357600080fd5b50610363610f12565b34801561052857600080fd5b506102756004803603602081101561053f57600080fd5b5035610f18565b34801561055257600080fd5b506102756004803603602081101561056957600080fd5b50356001600160a01b0316610ff2565b34801561058557600080fd5b506103636004803603604081101561059c57600080fd5b5080359060200135151561106e565b3480156105b757600080fd5b50610275600480360360208110156105ce57600080fd5b5035611100565b3480156105e157600080fd5b5061038a61115d565b3480156105f657600080fd5b506102756004803603602081101561060d57600080fd5b50356001600160a01b031661116c565b34801561062957600080fd5b5061033a6004803603602081101561064057600080fd5b50356001600160a01b03166112f2565b34801561065c57600080fd5b5061033a6004803603602081101561067357600080fd5b50356001600160a01b0316611310565b34801561068f57600080fd5b5061036361132e565b3480156106a457600080fd5b50610363600480360360208110156106bb57600080fd5b50356001600160a01b0316611334565b3480156106d757600080fd5b50610275611396565b3480156106ec57600080fd5b50610363611438565b34801561070157600080fd5b5061033a6004803603602081101561071857600080fd5b50356001600160a01b031661143c565b34801561073457600080fd5b5061038a61145a565b34801561074957600080fd5b506102756004803603602081101561076057600080fd5b5035611469565b34801561077357600080fd5b506102756004803603602081101561078a57600080fd5b50356001600160a01b03166114c6565b3480156107a657600080fd5b5061028c611540565b3480156107bb57600080fd5b5061033a600480360360408110156107d257600080fd5b506001600160a01b0381351690602001356115a1565b3480156107f457600080fd5b5061038a611609565b34801561080957600080fd5b5061033a6004803603604081101561082057600080fd5b506001600160a01b038135169060200135611618565b34801561084257600080fd5b5061027561162c565b34801561085757600080fd5b5061027561169d565b34801561086c57600080fd5b506103636004803603604081101561088357600080fd5b506001600160a01b0381358116916020013516611738565b3480156108a757600080fd5b50610275600480360360208110156108be57600080fd5b50356001600160a01b0316611763565b3480156108da57600080fd5b50610275600480360360208110156108f157600080fd5b50356001600160a01b03166117dc565b34801561090d57600080fd5b506102756004803603602081101561092457600080fd5b50356001600160a01b03166118d4565b61093c611a72565b6000546001600160a01b0390811691161461098c576040805162461bcd60e51b81526020600482018190526024820152600080516020612cbf833981519152604482015290519081900360640190fd5b601255565b600f8054604080516020601f6002600019610100600188161502019095169490940493840181900481028201810190925282815260609390929091830182828015610a1d5780601f106109f257610100808354040283529160200191610a1d565b820191906000526020600020905b815481529060010190602001808311610a0057829003601f168201915b5050505050905090565b6000610a3b610a34611a72565b8484611a76565b5060015b92915050565b600e5490565b6018546001600160a01b031681565b600c5490565b6000610a6d848484611b62565b610add84610a79611a72565b610ad885604051806060016040528060288152602001612c97602891396001600160a01b038a16600090815260066020526040812090610ab7611a72565b6001600160a01b031681526020810191909152604001600020549190611f61565b611a76565b5060019392505050565b7f000000000000000000000000000000000000000000000000000000000000000081565b6000600d54821115610b4e5760405162461bcd60e51b815260040180806020018281038252602a815260200180612c04602a913960400191505060405180910390fd5b6000610b58611ff8565b9050610b64838261201b565b9150505b919050565b60115460ff1690565b610b7e611a72565b6000546001600160a01b03908116911614610bce576040805162461bcd60e51b81526020600482018190526024820152600080516020612cbf833981519152604482015290519081900360640190fd5b6001600160a01b03811660009081526007602052604090205460ff16610c3b576040805162461bcd60e51b815260206004820152601a60248201527f4163636f756e74206973206e6f7420626c61636b6c6973746564000000000000604482015290519081900360640190fd5b60005b600854811015610d2a57816001600160a01b031660088281548110610c5f57fe5b6000918252602090912001546001600160a01b03161415610d2257600880546000198101908110610c8c57fe5b600091825260209091200154600880546001600160a01b039092169183908110610cb257fe5b600091825260208083209190910180546001600160a01b0319166001600160a01b039485161790559184168152600790915260409020805460ff191690556008805480610cfb57fe5b600082815260209020810160001990810180546001600160a01b0319169055019055610d2a565b600101610c3e565b5050565b610d36611a72565b6000546001600160a01b03908116911614610d86576040805162461bcd60e51b81526020600482018190526024820152600080516020612cbf833981519152604482015290519081900360640190fd5b6001600160a01b0381166000908152600a602052604090205460ff16610df3576040805162461bcd60e51b815260206004820152601b60248201527f4163636f756e7420697320616c7265616479206578636c756465640000000000604482015290519081900360640190fd5b60005b600b54811015610d2a57816001600160a01b0316600b8281548110610e1757fe5b6000918252602090912001546001600160a01b03161415610ebc57600b80546000198101908110610e4457fe5b600091825260209091200154600b80546001600160a01b039092169183908110610e6a57fe5b600091825260208083209190910180546001600160a01b0319166001600160a01b039485161790559184168152600582526040808220829055600a90925220805460ff19169055600b805480610cfb57fe5b600101610df6565b6000610a3b610ed1611a72565b84610ad88560066000610ee2611a72565b6001600160a01b03908116825260208083019390935260409182016000908120918c168152925290205490612064565b60125481565b6000610f22611a72565b6001600160a01b0381166000908152600a602052604090205490915060ff1615610f7d5760405162461bcd60e51b815260040180806020018281038252602c815260200180612d51602c913960400191505060405180910390fd5b6000610f88836120be565b505050506001600160a01b038416600090815260046020526040902054919250610fb49190508261210d565b6001600160a01b038316600090815260046020526040902055600d54610fda908261210d565b600d55600e54610fea9084612064565b600e55505050565b610ffa611a72565b6000546001600160a01b0390811691161461104a576040805162461bcd60e51b81526020600482018190526024820152600080516020612cbf833981519152604482015290519081900360640190fd5b6001600160a01b03166000908152600960205260409020805460ff19166001179055565b6000600c548311156110c7576040805162461bcd60e51b815260206004820152601f60248201527f416d6f756e74206d757374206265206c657373207468616e20737570706c7900604482015290519081900360640190fd5b816110e65760006110d7846120be565b50939550610a3f945050505050565b60006110f1846120be565b50929550610a3f945050505050565b611108611a72565b6000546001600160a01b03908116911614611158576040805162461bcd60e51b81526020600482018190526024820152600080516020612cbf833981519152604482015290519081900360640190fd5b601655565b6019546001600160a01b031681565b611174611a72565b6000546001600160a01b039081169116146111c4576040805162461bcd60e51b81526020600482018190526024820152600080516020612cbf833981519152604482015290519081900360640190fd5b6001600160a01b0381166000908152600a602052604090205460ff1615611232576040805162461bcd60e51b815260206004820152601b60248201527f4163636f756e7420697320616c7265616479206578636c756465640000000000604482015290519081900360640190fd5b6001600160a01b0381166000908152600460205260409020541561128c576001600160a01b03811660009081526004602052604090205461127290610b0b565b6001600160a01b0382166000908152600560205260409020555b6001600160a01b03166000818152600a60205260408120805460ff19166001908117909155600b805491820181559091527f0175b7a638427703f0dbe7bb9bbf987a2551717b34e79f33b5b1008d1fa01db90180546001600160a01b0319169091179055565b6001600160a01b031660009081526009602052604090205460ff1690565b6001600160a01b031660009081526007602052604090205460ff1690565b60145481565b6001600160a01b0381166000908152600a602052604081205460ff161561137457506001600160a01b038116600090815260056020526040902054610b68565b6001600160a01b038216600090815260046020526040902054610a3f90610b0b565b61139e611a72565b6000546001600160a01b039081169116146113ee576040805162461bcd60e51b81526020600482018190526024820152600080516020612cbf833981519152604482015290519081900360640190fd5b600080546040516001600160a01b03909116907f8be0079c531659141344cd1fd0a4f28419497f9722a3daafe3b4186f6b6457e0908390a3600080546001600160a01b0319169055565b4290565b6001600160a01b03166000908152600a602052604090205460ff1690565b6000546001600160a01b031690565b611471611a72565b6000546001600160a01b039081169116146114c1576040805162461bcd60e51b81526020600482018190526024820152600080516020612cbf833981519152604482015290519081900360640190fd5b601455565b6114ce611a72565b6000546001600160a01b0390811691161461151e576040805162461bcd60e51b81526020600482018190526024820152600080516020612cbf833981519152604482015290519081900360640190fd5b600380546001600160a01b0319166001600160a01b0392909216919091179055565b60108054604080516020601f6002600019610100600188161502019095169490940493840181900481028201810190925282815260609390929091830182828015610a1d5780601f106109f257610100808354040283529160200191610a1d565b6000610a3b6115ae611a72565b84610ad885604051806060016040528060258152602001612d7d60259139600660006115d8611a72565b6001600160a01b03908116825260208083019390935260409182016000908120918d16815292529020549190611f61565b6003546001600160a01b031681565b6000610a3b611625611a72565b8484611b62565b611634611a72565b6000546001600160a01b03908116911614611684576040805162461bcd60e51b81526020600482018190526024820152600080516020612cbf833981519152604482015290519081900360640190fd5b6019805460ff60a81b1916600160a81b17905542601755565b6116a5611a72565b6000546001600160a01b039081169116146116f5576040805162461bcd60e51b81526020600482018190526024820152600080516020612cbf833981519152604482015290519081900360640190fd5b6116fd61145a565b6001600160a01b03166108fc479081150290604051600060405180830381858888f19350505050158015611735573d6000803e3d6000fd5b50565b6001600160a01b03918216600090815260066020908152604080832093909416825291909152205490565b61176b611a72565b6000546001600160a01b039081169116146117bb576040805162461bcd60e51b81526020600482018190526024820152600080516020612cbf833981519152604482015290519081900360640190fd5b6001600160a01b03166000908152600960205260409020805460ff19169055565b6117e4611a72565b6000546001600160a01b03908116911614611834576040805162461bcd60e51b81526020600482018190526024820152600080516020612cbf833981519152604482015290519081900360640190fd5b6001600160a01b0381166118795760405162461bcd60e51b8152600401808060200182810382526026815260200180612c2e6026913960400191505060405180910390fd5b600080546040516001600160a01b03808516939216917f8be0079c531659141344cd1fd0a4f28419497f9722a3daafe3b4186f6b6457e091a3600080546001600160a01b0319166001600160a01b0392909216919091179055565b6118dc611a72565b6000546001600160a01b0390811691161461192c576040805162461bcd60e51b81526020600482018190526024820152600080516020612cbf833981519152604482015290519081900360640190fd5b73ec0a7a0c2439e8cb67b992b12ecd020ea943c7be6001600160a01b038216141561199e576040805162461bcd60e51b815260206004820152601b60248201527f57652063616e206e6f7420626c61636b6c69737420526f757465720000000000604482015290519081900360640190fd5b6001600160a01b03811660009081526007602052604090205460ff1615611a0c576040805162461bcd60e51b815260206004820152601e60248201527f4163636f756e7420697320616c726561647920626c61636b6c69737465640000604482015290519081900360640190fd5b6001600160a01b03166000818152600760205260408120805460ff191660019081179091556008805491820181559091527ff3f7a9fe364faab93b216da50a3214154f22a0a2b415b23a84c8169e8b636ee30180546001600160a01b0319169091179055565b3390565b6001600160a01b038316611abb5760405162461bcd60e51b8152600401808060200182810382526024815260200180612d2d6024913960400191505060405180910390fd5b6001600160a01b038216611b005760405162461bcd60e51b8152600401808060200182810382526022815260200180612c546022913960400191505060405180910390fd5b6001600160a01b03808416600081815260066020908152604080832094871680845294825291829020859055815185815291517f8c5be1e5ebec7d5bd14f71427d1e84f3dd0314c0f7b2291e5b200ac8c7c3b9259281900390910190a3505050565b6001600160a01b038316611ba75760405162461bcd60e51b8152600401808060200182810382526025815260200180612d086025913960400191505060405180910390fd5b6001600160a01b038216611bec5760405162461bcd60e51b8152600401808060200182810382526023815260200180612be16023913960400191505060405180910390fd5b60008111611c2b5760405162461bcd60e51b8152600401808060200182810382526029815260200180612cdf6029913960400191505060405180910390fd5b6001600160a01b03821660009081526007602052604090205460ff1615611c93576040805162461bcd60e51b8152602060048201526017602482015276596f752068617665206e6f20706f77657220686572652160481b604482015290519081900360640190fd5b3360009081526007602052604090205460ff1615611cf2576040805162461bcd60e51b8152602060048201526017602482015276596f752068617665206e6f20706f77657220686572652160481b604482015290519081900360640190fd5b6019546001600160a01b038481169116148015611d1d57506018546001600160a01b03838116911614155b8015611d4257506001600160a01b03821660009081526009602052604090205460ff16155b15611e1557601954600160a81b900460ff16611da5576040805162461bcd60e51b815260206004820152601860248201527f54726164696e67206e6f742079657420656e61626c65642e0000000000000000604482015290519081900360640190fd5b601754421415611e15576001600160a01b0382166000818152600760205260408120805460ff191660019081179091556008805491820181559091527ff3f7a9fe364faab93b216da50a3214154f22a0a2b415b23a84c8169e8b636ee30180546001600160a01b03191690911790555b6000611e2030611334565b601954909150600160a01b900460ff16158015611e465750601954600160a81b900460ff165b8015611e5f57506019546001600160a01b038481169116145b15611ed1578015611ed157601654601954611e9a91606491611e949190611e8e906001600160a01b0316611334565b9061214f565b9061201b565b811115611ec857601654601954611ec591606491611e949190611e8e906001600160a01b0316611334565b90505b611ed1816121a8565b6019546000906001600160a01b0386811691161480611efd57506019546001600160a01b038581169116145b8015611f4557506001600160a01b03851660009081526009602052604090205460ff1680611f4357506001600160a01b03841660009081526009602052604090205460ff165b155b15611f4e575060015b611f5a8585858461221f565b5050505050565b60008184841115611ff05760405162461bcd60e51b81526004018080602001828103825283818151815260200191508051906020019080838360005b83811015611fb5578181015183820152602001611f9d565b50505050905090810190601f168015611fe25780820380516001836020036101000a031916815260200191505b509250505060405180910390fd5b505050900390565b6000806000612005612341565b9092509050612014828261201b565b9250505090565b600061205d83836040518060400160405280601a81526020017f536166654d6174683a206469766973696f6e206279207a65726f0000000000008152506124a4565b9392505050565b60008282018381101561205d576040805162461bcd60e51b815260206004820152601b60248201527f536166654d6174683a206164646974696f6e206f766572666c6f770000000000604482015290519081900360640190fd5b60008060008060008060008060006120d58a612509565b92509250925060008060006120f38d86866120ee611ff8565b61254b565b919f909e50909c50959a5093985091965092945050505050565b600061205d83836040518060400160405280601e81526020017f536166654d6174683a207375627472616374696f6e206f766572666c6f770000815250611f61565b60008261215e57506000610a3f565b8282028284828161216b57fe5b041461205d5760405162461bcd60e51b8152600401808060200182810382526021815260200180612c766021913960400191505060405180910390fd5b6019805460ff60a01b1916600160a01b1790556121c48161259b565b604080518281524760208201819052825190927f738b737502df4c5f230bbb98a45ea9c2821bad262e880f883357ad3695f8dae4928290030190a1801561220e5761220e476127c6565b50506019805460ff60a01b19169055565b8061222c5761222c612837565b6001600160a01b0384166000908152600a602052604090205460ff16801561226d57506001600160a01b0383166000908152600a602052604090205460ff16155b156122825761227d848484612869565b61232e565b6001600160a01b0384166000908152600a602052604090205460ff161580156122c357506001600160a01b0383166000908152600a602052604090205460ff165b156122d35761227d84848461298d565b6001600160a01b0384166000908152600a602052604090205460ff16801561231357506001600160a01b0383166000908152600a602052604090205460ff165b156123235761227d848484612a36565b61232e848484612aa9565b8061233b5761233b612aed565b50505050565b600d54600c546000918291825b600b54811015612472578260046000600b848154811061236a57fe5b60009182526020808320909101546001600160a01b0316835282019290925260400190205411806123cf57508160056000600b84815481106123a857fe5b60009182526020808320909101546001600160a01b03168352820192909252604001902054115b156123e657600d54600c54945094505050506124a0565b61242660046000600b84815481106123fa57fe5b60009182526020808320909101546001600160a01b03168352820192909252604001902054849061210d565b925061246860056000600b848154811061243c57fe5b60009182526020808320909101546001600160a01b03168352820192909252604001902054839061210d565b915060010161234e565b50600c54600d546124829161201b565b82101561249a57600d54600c549350935050506124a0565b90925090505b9091565b600081836124f35760405162461bcd60e51b8152602060048201818152835160248401528351909283926044909101919085019080838360008315611fb5578181015183820152602001611f9d565b5060008385816124ff57fe5b0495945050505050565b60008060008061251885612afb565b9050600061252586612b17565b9050600061253d82612537898661210d565b9061210d565b979296509094509092505050565b600080808061255a888661214f565b90506000612568888761214f565b90506000612576888861214f565b9050600061258882612537868661210d565b939b939a50919850919650505050505050565b604080516002808252606080830184529260208301908036833701905050905030816000815181106125c957fe5b6001600160a01b03928316602091820292909201810191909152601854604080516315ab88c960e31b81529051919093169263ad5c4648926004808301939192829003018186803b15801561261d57600080fd5b505afa158015612631573d6000803e3d6000fd5b505050506040513d602081101561264757600080fd5b505181518290600190811061265857fe5b6001600160a01b03928316602091820292909201015260185461267e9130911684611a76565b60185460405163791ac94760e01b8152600481018481526000602483018190523060648401819052426084850181905260a060448601908152875160a487015287516001600160a01b039097169663791ac947968a968a9594939092909160c40190602080880191028083838b5b838110156127045781810151838201526020016126ec565b505050509050019650505050505050600060405180830381600087803b15801561272d57600080fd5b505af1158015612741573d6000803e3d6000fd5b505050507f32cde87eb454f3a0b875ab23547023107cfad454363ec88ba5695e2c24aa52a782826040518083815260200180602001828103825283818151815260200191508051906020019060200280838360005b838110156127ae578181015183820152602001612796565b50505050905001935050505060405180910390a15050565b6003546040516001600160a01b039091169082156108fc029083906000818181858888f19350505050158015612800573d6000803e3d6000fd5b506040805182815290517fb6b34f3cfef2b0bb0e47223ab355ff7c3615a62fe5f469444611e679411246c69181900360200190a150565b6012541580156128475750601454155b1561285157612867565b6012805460135560148054601555600091829055555b565b60008060008060008061287b876120be565b6001600160a01b038f16600090815260056020526040902054959b509399509197509550935091506128ad908861210d565b6001600160a01b038a166000908152600560209081526040808320939093556004905220546128dc908761210d565b6001600160a01b03808b1660009081526004602052604080822093909355908a168152205461290b9086612064565b6001600160a01b03891660009081526004602052604090205561292d81612b33565b6129378483612bbc565b876001600160a01b0316896001600160a01b03167fddf252ad1be2c89b69c2b068fc378daa952ba7f163c4a11628f55a4df523b3ef856040518082815260200191505060405180910390a3505050505050505050565b60008060008060008061299f876120be565b6001600160a01b038f16600090815260046020526040902054959b509399509197509550935091506129d1908761210d565b6001600160a01b03808b16600090815260046020908152604080832094909455918b16815260059091522054612a079084612064565b6001600160a01b03891660009081526005602090815260408083209390935560049052205461290b9086612064565b600080600080600080612a48876120be565b6001600160a01b038f16600090815260056020526040902054959b50939950919750955093509150612a7a908861210d565b6001600160a01b038a166000908152600560209081526040808320939093556004905220546129d1908761210d565b600080600080600080612abb876120be565b6001600160a01b038f16600090815260046020526040902054959b509399509197509550935091506128dc908761210d565b601354601255601554601455565b6000610a3f6064611e946012548561214f90919063ffffffff16565b6000610a3f6064611e946014548561214f90919063ffffffff16565b6000612b3d611ff8565b90506000612b4b838361214f565b30600090815260046020526040902054909150612b689082612064565b30600090815260046020908152604080832093909355600a9052205460ff1615612bb75730600090815260056020526040902054612ba69084612064565b306000908152600560205260409020555b505050565b600d54612bc9908361210d565b600d55600e54612bd99082612064565b600e55505056fe45524332303a207472616e7366657220746f20746865207a65726f2061646472657373416d6f756e74206d757374206265206c657373207468616e20746f74616c207265666c656374696f6e734f776e61626c653a206e6577206f776e657220697320746865207a65726f206164647265737345524332303a20617070726f766520746f20746865207a65726f2061646472657373536166654d6174683a206d756c7469706c69636174696f6e206f766572666c6f7745524332303a207472616e7366657220616d6f756e74206578636565647320616c6c6f77616e63654f776e61626c653a2063616c6c6572206973206e6f7420746865206f776e65725472616e7366657220616d6f756e74206d7573742062652067726561746572207468616e207a65726f45524332303a207472616e736665722066726f6d20746865207a65726f206164647265737345524332303a20617070726f76652066726f6d20746865207a65726f20616464726573734578636c75646564206164647265737365732063616e6e6f742063616c6c20746869732066756e6374696f6e45524332303a2064656372656173656420616c6c6f77616e63652062656c6f77207a65726fa264697066735822122018bacc20c1869d9be3fc7a349f96a8f4239b07790893842f0c321c509a603f7c64736f6c634300060c0033",
					"opcodes": "PUSH1 0x3 DUP1 SLOAD PUSH1 0x1 PUSH1 0x1 PUSH1 0xA0 SHL SUB NOT AND PUSH20 0x40DA1DD681EC6175C3BCFE1641CD2826A99EBDD8 OR SWAP1 SSTORE PUSH14 0xDEAD000000000000000000000000 PUSH1 0x80 MSTORE PUSH10 0x21E19E0C9BAB2400000 PUSH1 0xC SSTORE PUSH10 0x200B25812C4F53FFFFF NOT PUSH1 0xD SSTORE PUSH1 0xE0 PUSH1 0x40 MSTORE PUSH1 0x9 PUSH1 0xA0 DUP2 SWAP1 MSTORE PUSH9 0x88CACECADC408AA89 PUSH1 0xBB SHL PUSH1 0xC0 SWAP1 DUP2 MSTORE PUSH3 0x81 SWAP2 PUSH1 0xF SWAP2 SWAP1 PUSH3 0x3C3 JUMP JUMPDEST POP PUSH1 0x40 DUP1 MLOAD DUP1 DUP3 ADD SWAP1 SWAP2 MSTORE PUSH1 0x5 DUP1 DUP3 MSTORE PUSH5 0xC85C8AA89 PUSH1 0xDB SHL PUSH1 0x20 SWAP1 SWAP3 ADD SWAP2 DUP3 MSTORE PUSH3 0xB0 SWAP2 PUSH1 0x10 SWAP2 PUSH3 0x3C3 JUMP JUMPDEST POP PUSH1 0x11 DUP1 SLOAD PUSH1 0xFF NOT AND PUSH1 0x9 OR SWAP1 SSTORE PUSH1 0xA PUSH1 0x12 DUP2 SWAP1 SSTORE PUSH1 0x13 DUP2 SWAP1 SSTORE PUSH1 0x14 DUP2 SWAP1 SSTORE PUSH1 0x15 SSTORE PUSH1 0x2 PUSH1 0x16 SSTORE PUSH1 0x19 DUP1 SLOAD PUSH1 0xFF PUSH1 0xA8 SHL NOT AND SWAP1 SSTORE CALLVALUE DUP1 ISZERO PUSH3 0xF1 JUMPI PUSH1 0x0 DUP1 REVERT JUMPDEST POP PUSH1 0x40 MLOAD PUSH3 0x3254 CODESIZE SUB DUP1 PUSH3 0x3254 DUP4 CODECOPY DUP2 DUP2 ADD PUSH1 0x40 MSTORE PUSH1 0x40 DUP2 LT ISZERO PUSH3 0x117 JUMPI PUSH1 0x0 DUP1 REVERT JUMPDEST POP DUP1 MLOAD PUSH1 0x20 SWAP1 SWAP2 ADD MLOAD PUSH1 0x0 PUSH3 0x12C PUSH3 0x3BF JUMP JUMPDEST PUSH1 0x0 DUP1 SLOAD PUSH1 0x1 PUSH1 0x1 PUSH1 0xA0 SHL SUB NOT AND PUSH1 0x1 PUSH1 0x1 PUSH1 0xA0 SHL SUB DUP4 AND SWAP1 DUP2 OR DUP3 SSTORE PUSH1 0x40 MLOAD SWAP3 SWAP4 POP SWAP2 PUSH32 0x8BE0079C531659141344CD1FD0A4F28419497F9722A3DAAFE3B4186F6B6457E0 SWAP1 DUP3 SWAP1 LOG3 POP PUSH1 0xD SLOAD CALLER PUSH1 0x0 SWAP1 DUP2 MSTORE PUSH1 0x4 PUSH1 0x20 MSTORE PUSH1 0x40 SWAP1 KECCAK256 SSTORE PUSH3 0x193 PUSH3 0x3BF JUMP JUMPDEST PUSH1 0x1 PUSH1 0x1 PUSH1 0xA0 SHL SUB AND PUSH1 0x0 PUSH1 0x1 PUSH1 0x1 PUSH1 0xA0 SHL SUB AND PUSH32 0xDDF252AD1BE2C89B69C2B068FC378DAA952BA7F163C4A11628F55A4DF523B3EF PUSH1 0xC SLOAD PUSH1 0x40 MLOAD DUP1 DUP3 DUP2 MSTORE PUSH1 0x20 ADD SWAP2 POP POP PUSH1 0x40 MLOAD DUP1 SWAP2 SUB SWAP1 LOG3 PUSH1 0x0 DUP2 SWAP1 POP DUP1 PUSH1 0x1 PUSH1 0x1 PUSH1 0xA0 SHL SUB AND PUSH4 0xC45A0155 PUSH1 0x40 MLOAD DUP2 PUSH4 0xFFFFFFFF AND PUSH1 0xE0 SHL DUP2 MSTORE PUSH1 0x4 ADD PUSH1 0x20 PUSH1 0x40 MLOAD DUP1 DUP4 SUB DUP2 DUP7 DUP1 EXTCODESIZE ISZERO DUP1 ISZERO PUSH3 0x21F JUMPI PUSH1 0x0 DUP1 REVERT JUMPDEST POP GAS STATICCALL ISZERO DUP1 ISZERO PUSH3 0x234 JUMPI RETURNDATASIZE PUSH1 0x0 DUP1 RETURNDATACOPY RETURNDATASIZE PUSH1 0x0 REVERT JUMPDEST POP POP POP POP PUSH1 0x40 MLOAD RETURNDATASIZE PUSH1 0x20 DUP2 LT ISZERO PUSH3 0x24B JUMPI PUSH1 0x0 DUP1 REVERT JUMPDEST POP MLOAD PUSH1 0x40 DUP1 MLOAD PUSH4 0x15AB88C9 PUSH1 0xE3 SHL DUP2 MSTORE SWAP1 MLOAD PUSH1 0x1 PUSH1 0x1 PUSH1 0xA0 SHL SUB SWAP3 DUP4 AND SWAP3 PUSH4 0xC9C65396 SWAP3 ADDRESS SWAP3 SWAP2 DUP7 AND SWAP2 PUSH4 0xAD5C4648 SWAP2 PUSH1 0x4 DUP1 DUP3 ADD SWAP3 PUSH1 0x20 SWAP3 SWAP1 SWAP2 SWAP1 DUP3 SWAP1 SUB ADD DUP2 DUP7 DUP1 EXTCODESIZE ISZERO DUP1 ISZERO PUSH3 0x29C JUMPI PUSH1 0x0 DUP1 REVERT JUMPDEST POP GAS STATICCALL ISZERO DUP1 ISZERO PUSH3 0x2B1 JUMPI RETURNDATASIZE PUSH1 0x0 DUP1 RETURNDATACOPY RETURNDATASIZE PUSH1 0x0 REVERT JUMPDEST POP POP POP POP PUSH1 0x40 MLOAD RETURNDATASIZE PUSH1 0x20 DUP2 LT ISZERO PUSH3 0x2C8 JUMPI PUSH1 0x0 DUP1 REVERT JUMPDEST POP MLOAD PUSH1 0x40 DUP1 MLOAD PUSH1 0x1 PUSH1 0x1 PUSH1 0xE0 SHL SUB NOT PUSH1 0xE0 DUP7 SWAP1 SHL AND DUP2 MSTORE PUSH1 0x1 PUSH1 0x1 PUSH1 0xA0 SHL SUB SWAP4 DUP5 AND PUSH1 0x4 DUP3 ADD MSTORE SWAP3 SWAP1 SWAP2 AND PUSH1 0x24 DUP4 ADD MSTORE MLOAD PUSH1 0x44 DUP1 DUP4 ADD SWAP3 PUSH1 0x20 SWAP3 SWAP2 SWAP1 DUP3 SWAP1 SUB ADD DUP2 PUSH1 0x0 DUP8 DUP1 EXTCODESIZE ISZERO DUP1 ISZERO PUSH3 0x31B JUMPI PUSH1 0x0 DUP1 REVERT JUMPDEST POP GAS CALL ISZERO DUP1 ISZERO PUSH3 0x330 JUMPI RETURNDATASIZE PUSH1 0x0 DUP1 RETURNDATACOPY RETURNDATASIZE PUSH1 0x0 REVERT JUMPDEST POP POP POP POP PUSH1 0x40 MLOAD RETURNDATASIZE PUSH1 0x20 DUP2 LT ISZERO PUSH3 0x347 JUMPI PUSH1 0x0 DUP1 REVERT JUMPDEST POP MLOAD PUSH1 0x19 DUP1 SLOAD PUSH1 0x1 PUSH1 0x1 PUSH1 0xA0 SHL SUB NOT SWAP1 DUP2 AND PUSH1 0x1 PUSH1 0x1 PUSH1 0xA0 SHL SUB SWAP4 DUP5 AND OR SWAP1 SWAP2 SSTORE PUSH1 0x18 DUP1 SLOAD SWAP1 SWAP2 AND SWAP3 DUP3 AND SWAP3 SWAP1 SWAP3 OR SWAP1 SWAP2 SSTORE CALLER PUSH1 0x0 SWAP1 DUP2 MSTORE PUSH1 0x9 PUSH1 0x20 MSTORE PUSH1 0x40 DUP1 DUP3 KECCAK256 DUP1 SLOAD PUSH1 0xFF NOT SWAP1 DUP2 AND PUSH1 0x1 SWAP1 DUP2 OR SWAP1 SWAP3 SSTORE SWAP6 SWAP1 SWAP4 AND DUP3 MSTORE DUP1 DUP3 KECCAK256 DUP1 SLOAD DUP7 AND DUP5 OR SWAP1 SSTORE ADDRESS DUP3 MSTORE SWAP1 KECCAK256 DUP1 SLOAD SWAP1 SWAP4 AND OR SWAP1 SWAP2 SSTORE POP PUSH3 0x45F JUMP JUMPDEST CALLER SWAP1 JUMP JUMPDEST DUP3 DUP1 SLOAD PUSH1 0x1 DUP2 PUSH1 0x1 AND ISZERO PUSH2 0x100 MUL SUB AND PUSH1 0x2 SWAP1 DIV SWAP1 PUSH1 0x0 MSTORE PUSH1 0x20 PUSH1 0x0 KECCAK256 SWAP1 PUSH1 0x1F ADD PUSH1 0x20 SWAP1 DIV DUP2 ADD SWAP3 DUP3 PUSH1 0x1F LT PUSH3 0x406 JUMPI DUP1 MLOAD PUSH1 0xFF NOT AND DUP4 DUP1 ADD OR DUP6 SSTORE PUSH3 0x436 JUMP JUMPDEST DUP3 DUP1 ADD PUSH1 0x1 ADD DUP6 SSTORE DUP3 ISZERO PUSH3 0x436 JUMPI SWAP2 DUP3 ADD JUMPDEST DUP3 DUP2 GT ISZERO PUSH3 0x436 JUMPI DUP3 MLOAD DUP3 SSTORE SWAP2 PUSH1 0x20 ADD SWAP2 SWAP1 PUSH1 0x1 ADD SWAP1 PUSH3 0x419 JUMP JUMPDEST POP PUSH3 0x444 SWAP3 SWAP2 POP PUSH3 0x448 JUMP JUMPDEST POP SWAP1 JUMP JUMPDEST JUMPDEST DUP1 DUP3 GT ISZERO PUSH3 0x444 JUMPI PUSH1 0x0 DUP2 SSTORE PUSH1 0x1 ADD PUSH3 0x449 JUMP JUMPDEST PUSH1 0x80 MLOAD PUSH1 0x60 SHR PUSH2 0x2DD7 PUSH3 0x47D PUSH1 0x0 CODECOPY DUP1 PUSH2 0xAE9 MSTORE POP PUSH2 0x2DD7 PUSH1 0x0 RETURN INVALID PUSH1 0x80 PUSH1 0x40 MSTORE PUSH1 0x4 CALLDATASIZE LT PUSH2 0x23F JUMPI PUSH1 0x0 CALLDATALOAD PUSH1 0xE0 SHR DUP1 PUSH4 0x5342ACB4 GT PUSH2 0x12E JUMPI DUP1 PUSH4 0x95D89B41 GT PUSH2 0xAB JUMPI DUP1 PUSH4 0xDB2E21BC GT PUSH2 0x6F JUMPI DUP1 PUSH4 0xDB2E21BC EQ PUSH2 0x84B JUMPI DUP1 PUSH4 0xDD62ED3E EQ PUSH2 0x860 JUMPI DUP1 PUSH4 0xEA2F0B37 EQ PUSH2 0x89B JUMPI DUP1 PUSH4 0xF2FDE38B EQ PUSH2 0x8CE JUMPI DUP1 PUSH4 0xF375B253 EQ PUSH2 0x901 JUMPI PUSH2 0x246 JUMP JUMPDEST DUP1 PUSH4 0x95D89B41 EQ PUSH2 0x79A JUMPI DUP1 PUSH4 0xA457C2D7 EQ PUSH2 0x7AF JUMPI DUP1 PUSH4 0xA5ECE941 EQ PUSH2 0x7E8 JUMPI DUP1 PUSH4 0xA9059CBB EQ PUSH2 0x7FD JUMPI DUP1 PUSH4 0xC9567BF9 EQ PUSH2 0x836 JUMPI PUSH2 0x246 JUMP JUMPDEST DUP1 PUSH4 0x87CEFF09 GT PUSH2 0xF2 JUMPI DUP1 PUSH4 0x87CEFF09 EQ PUSH2 0x6E0 JUMPI DUP1 PUSH4 0x88F82020 EQ PUSH2 0x6F5 JUMPI DUP1 PUSH4 0x8DA5CB5B EQ PUSH2 0x728 JUMPI DUP1 PUSH4 0x8EE88C53 EQ PUSH2 0x73D JUMPI DUP1 PUSH4 0x906E9DD0 EQ PUSH2 0x767 JUMPI PUSH2 0x246 JUMP JUMPDEST DUP1 PUSH4 0x5342ACB4 EQ PUSH2 0x61D JUMPI DUP1 PUSH4 0x610D5B19 EQ PUSH2 0x650 JUMPI DUP1 PUSH4 0x6BC87C3A EQ PUSH2 0x683 JUMPI DUP1 PUSH4 0x70A08231 EQ PUSH2 0x698 JUMPI DUP1 PUSH4 0x715018A6 EQ PUSH2 0x6CB JUMPI PUSH2 0x246 JUMP JUMPDEST DUP1 PUSH4 0x362A3C5D GT PUSH2 0x1BC JUMPI DUP1 PUSH4 0x437823EC GT PUSH2 0x180 JUMPI DUP1 PUSH4 0x437823EC EQ PUSH2 0x546 JUMPI DUP1 PUSH4 0x4549B039 EQ PUSH2 0x579 JUMPI DUP1 PUSH4 0x45596E2E EQ PUSH2 0x5AB JUMPI DUP1 PUSH4 0x49BD5A5E EQ PUSH2 0x5D5 JUMPI DUP1 PUSH4 0x52390C02 EQ PUSH2 0x5EA JUMPI PUSH2 0x246 JUMP JUMPDEST DUP1 PUSH4 0x362A3C5D EQ PUSH2 0x468 JUMPI DUP1 PUSH4 0x3685D419 EQ PUSH2 0x49B JUMPI DUP1 PUSH4 0x39509351 EQ PUSH2 0x4CE JUMPI DUP1 PUSH4 0x3B124FE7 EQ PUSH2 0x507 JUMPI DUP1 PUSH4 0x3BD5D173 EQ PUSH2 0x51C JUMPI PUSH2 0x246 JUMP JUMPDEST DUP1 PUSH4 0x18160DDD GT PUSH2 0x203 JUMPI DUP1 PUSH4 0x18160DDD EQ PUSH2 0x3A6 JUMPI DUP1 PUSH4 0x23B872DD EQ PUSH2 0x3BB JUMPI DUP1 PUSH4 0x27C8F835 EQ PUSH2 0x3FE JUMPI DUP1 PUSH4 0x2D838119 EQ PUSH2 0x413 JUMPI DUP1 PUSH4 0x313CE567 EQ PUSH2 0x43D JUMPI PUSH2 0x246 JUMP JUMPDEST DUP1 PUSH4 0x61C82D0 EQ PUSH2 0x24B JUMPI DUP1 PUSH4 0x6FDDE03 EQ PUSH2 0x277 JUMPI DUP1 PUSH4 0x95EA7B3 EQ PUSH2 0x301 JUMPI DUP1 PUSH4 0x13114A9D EQ PUSH2 0x34E JUMPI DUP1 PUSH4 0x1694505E EQ PUSH2 0x375 JUMPI PUSH2 0x246 JUMP JUMPDEST CALLDATASIZE PUSH2 0x246 JUMPI STOP JUMPDEST PUSH1 0x0 DUP1 REVERT JUMPDEST CALLVALUE DUP1 ISZERO PUSH2 0x257 JUMPI PUSH1 0x0 DUP1 REVERT JUMPDEST POP PUSH2 0x275 PUSH1 0x4 DUP1 CALLDATASIZE SUB PUSH1 0x20 DUP2 LT ISZERO PUSH2 0x26E JUMPI PUSH1 0x0 DUP1 REVERT JUMPDEST POP CALLDATALOAD PUSH2 0x934 JUMP JUMPDEST STOP JUMPDEST CALLVALUE DUP1 ISZERO PUSH2 0x283 JUMPI PUSH1 0x0 DUP1 REVERT JUMPDEST POP PUSH2 0x28C PUSH2 0x991 JUMP JUMPDEST PUSH1 0x40 DUP1 MLOAD PUSH1 0x20 DUP1 DUP3 MSTORE DUP4 MLOAD DUP2 DUP4 ADD MSTORE DUP4 MLOAD SWAP2 SWAP3 DUP4 SWAP3 SWAP1 DUP4 ADD SWAP2 DUP6 ADD SWAP1 DUP1 DUP4 DUP4 PUSH1 0x0 JUMPDEST DUP4 DUP2 LT ISZERO PUSH2 0x2C6 JUMPI DUP2 DUP2 ADD MLOAD DUP4 DUP3 ADD MSTORE PUSH1 0x20 ADD PUSH2 0x2AE JUMP JUMPDEST POP POP POP POP SWAP1 POP SWAP1 DUP2 ADD SWAP1 PUSH1 0x1F AND DUP1 ISZERO PUSH2 0x2F3 JUMPI DUP1 DUP3 SUB DUP1 MLOAD PUSH1 0x1 DUP4 PUSH1 0x20 SUB PUSH2 0x100 EXP SUB NOT AND DUP2 MSTORE PUSH1 0x20 ADD SWAP2 POP JUMPDEST POP SWAP3 POP POP POP PUSH1 0x40 MLOAD DUP1 SWAP2 SUB SWAP1 RETURN JUMPDEST CALLVALUE DUP1 ISZERO PUSH2 0x30D JUMPI PUSH1 0x0 DUP1 REVERT JUMPDEST POP PUSH2 0x33A PUSH1 0x4 DUP1 CALLDATASIZE SUB PUSH1 0x40 DUP2 LT ISZERO PUSH2 0x324 JUMPI PUSH1 0x0 DUP1 REVERT JUMPDEST POP PUSH1 0x1 PUSH1 0x1 PUSH1 0xA0 SHL SUB DUP2 CALLDATALOAD AND SWAP1 PUSH1 0x20 ADD CALLDATALOAD PUSH2 0xA27 JUMP JUMPDEST PUSH1 0x40 DUP1 MLOAD SWAP2 ISZERO ISZERO DUP3 MSTORE MLOAD SWAP1 DUP2 SWAP1 SUB PUSH1 0x20 ADD SWAP1 RETURN JUMPDEST CALLVALUE DUP1 ISZERO PUSH2 0x35A JUMPI PUSH1 0x0 DUP1 REVERT JUMPDEST POP PUSH2 0x363 PUSH2 0xA45 JUMP JUMPDEST PUSH1 0x40 DUP1 MLOAD SWAP2 DUP3 MSTORE MLOAD SWAP1 DUP2 SWAP1 SUB PUSH1 0x20 ADD SWAP1 RETURN JUMPDEST CALLVALUE DUP1 ISZERO PUSH2 0x381 JUMPI PUSH1 0x0 DUP1 REVERT JUMPDEST POP PUSH2 0x38A PUSH2 0xA4B JUMP JUMPDEST PUSH1 0x40 DUP1 MLOAD PUSH1 0x1 PUSH1 0x1 PUSH1 0xA0 SHL SUB SWAP1 SWAP3 AND DUP3 MSTORE MLOAD SWAP1 DUP2 SWAP1 SUB PUSH1 0x20 ADD SWAP1 RETURN JUMPDEST CALLVALUE DUP1 ISZERO PUSH2 0x3B2 JUMPI PUSH1 0x0 DUP1 REVERT JUMPDEST POP PUSH2 0x363 PUSH2 0xA5A JUMP JUMPDEST CALLVALUE DUP1 ISZERO PUSH2 0x3C7 JUMPI PUSH1 0x0 DUP1 REVERT JUMPDEST POP PUSH2 0x33A PUSH1 0x4 DUP1 CALLDATASIZE SUB PUSH1 0x60 DUP2 LT ISZERO PUSH2 0x3DE JUMPI PUSH1 0x0 DUP1 REVERT JUMPDEST POP PUSH1 0x1 PUSH1 0x1 PUSH1 0xA0 SHL SUB DUP2 CALLDATALOAD DUP2 AND SWAP2 PUSH1 0x20 DUP2 ADD CALLDATALOAD SWAP1 SWAP2 AND SWAP1 PUSH1 0x40 ADD CALLDATALOAD PUSH2 0xA60 JUMP JUMPDEST CALLVALUE DUP1 ISZERO PUSH2 0x40A JUMPI PUSH1 0x0 DUP1 REVERT JUMPDEST POP PUSH2 0x38A PUSH2 0xAE7 JUMP JUMPDEST CALLVALUE DUP1 ISZERO PUSH2 0x41F JUMPI PUSH1 0x0 DUP1 REVERT JUMPDEST POP PUSH2 0x363 PUSH1 0x4 DUP1 CALLDATASIZE SUB PUSH1 0x20 DUP2 LT ISZERO PUSH2 0x436 JUMPI PUSH1 0x0 DUP1 REVERT JUMPDEST POP CALLDATALOAD PUSH2 0xB0B JUMP JUMPDEST CALLVALUE DUP1 ISZERO PUSH2 0x449 JUMPI PUSH1 0x0 DUP1 REVERT JUMPDEST POP PUSH2 0x452 PUSH2 0xB6D JUMP JUMPDEST PUSH1 0x40 DUP1 MLOAD PUSH1 0xFF SWAP1 SWAP3 AND DUP3 MSTORE MLOAD SWAP1 DUP2 SWAP1 SUB PUSH1 0x20 ADD SWAP1 RETURN JUMPDEST CALLVALUE DUP1 ISZERO PUSH2 0x474 JUMPI PUSH1 0x0 DUP1 REVERT JUMPDEST POP PUSH2 0x275 PUSH1 0x4 DUP1 CALLDATASIZE SUB PUSH1 0x20 DUP2 LT ISZERO PUSH2 0x48B JUMPI PUSH1 0x0 DUP1 REVERT JUMPDEST POP CALLDATALOAD PUSH1 0x1 PUSH1 0x1 PUSH1 0xA0 SHL SUB AND PUSH2 0xB76 JUMP JUMPDEST CALLVALUE DUP1 ISZERO PUSH2 0x4A7 JUMPI PUSH1 0x0 DUP1 REVERT JUMPDEST POP PUSH2 0x275 PUSH1 0x4 DUP1 CALLDATASIZE SUB PUSH1 0x20 DUP2 LT ISZERO PUSH2 0x4BE JUMPI PUSH1 0x0 DUP1 REVERT JUMPDEST POP CALLDATALOAD PUSH1 0x1 PUSH1 0x1 PUSH1 0xA0 SHL SUB AND PUSH2 0xD2E JUMP JUMPDEST CALLVALUE DUP1 ISZERO PUSH2 0x4DA JUMPI PUSH1 0x0 DUP1 REVERT JUMPDEST POP PUSH2 0x33A PUSH1 0x4 DUP1 CALLDATASIZE SUB PUSH1 0x40 DUP2 LT ISZERO PUSH2 0x4F1 JUMPI PUSH1 0x0 DUP1 REVERT JUMPDEST POP PUSH1 0x1 PUSH1 0x1 PUSH1 0xA0 SHL SUB DUP2 CALLDATALOAD AND SWAP1 PUSH1 0x20 ADD CALLDATALOAD PUSH2 0xEC4 JUMP JUMPDEST CALLVALUE DUP1 ISZERO PUSH2 0x513 JUMPI PUSH1 0x0 DUP1 REVERT JUMPDEST POP PUSH2 0x363 PUSH2 0xF12 JUMP JUMPDEST CALLVALUE DUP1 ISZERO PUSH2 0x528 JUMPI PUSH1 0x0 DUP1 REVERT JUMPDEST POP PUSH2 0x275 PUSH1 0x4 DUP1 CALLDATASIZE SUB PUSH1 0x20 DUP2 LT ISZERO PUSH2 0x53F JUMPI PUSH1 0x0 DUP1 REVERT JUMPDEST POP CALLDATALOAD PUSH2 0xF18 JUMP JUMPDEST CALLVALUE DUP1 ISZERO PUSH2 0x552 JUMPI PUSH1 0x0 DUP1 REVERT JUMPDEST POP PUSH2 0x275 PUSH1 0x4 DUP1 CALLDATASIZE SUB PUSH1 0x20 DUP2 LT ISZERO PUSH2 0x569 JUMPI PUSH1 0x0 DUP1 REVERT JUMPDEST POP CALLDATALOAD PUSH1 0x1 PUSH1 0x1 PUSH1 0xA0 SHL SUB AND PUSH2 0xFF2 JUMP JUMPDEST CALLVALUE DUP1 ISZERO PUSH2 0x585 JUMPI PUSH1 0x0 DUP1 REVERT JUMPDEST POP PUSH2 0x363 PUSH1 0x4 DUP1 CALLDATASIZE SUB PUSH1 0x40 DUP2 LT ISZERO PUSH2 0x59C JUMPI PUSH1 0x0 DUP1 REVERT JUMPDEST POP DUP1 CALLDATALOAD SWAP1 PUSH1 0x20 ADD CALLDATALOAD ISZERO ISZERO PUSH2 0x106E JUMP JUMPDEST CALLVALUE DUP1 ISZERO PUSH2 0x5B7 JUMPI PUSH1 0x0 DUP1 REVERT JUMPDEST POP PUSH2 0x275 PUSH1 0x4 DUP1 CALLDATASIZE SUB PUSH1 0x20 DUP2 LT ISZERO PUSH2 0x5CE JUMPI PUSH1 0x0 DUP1 REVERT JUMPDEST POP CALLDATALOAD PUSH2 0x1100 JUMP JUMPDEST CALLVALUE DUP1 ISZERO PUSH2 0x5E1 JUMPI PUSH1 0x0 DUP1 REVERT JUMPDEST POP PUSH2 0x38A PUSH2 0x115D JUMP JUMPDEST CALLVALUE DUP1 ISZERO PUSH2 0x5F6 JUMPI PUSH1 0x0 DUP1 REVERT JUMPDEST POP PUSH2 0x275 PUSH1 0x4 DUP1 CALLDATASIZE SUB PUSH1 0x20 DUP2 LT ISZERO PUSH2 0x60D JUMPI PUSH1 0x0 DUP1 REVERT JUMPDEST POP CALLDATALOAD PUSH1 0x1 PUSH1 0x1 PUSH1 0xA0 SHL SUB AND PUSH2 0x116C JUMP JUMPDEST CALLVALUE DUP1 ISZERO PUSH2 0x629 JUMPI PUSH1 0x0 DUP1 REVERT JUMPDEST POP PUSH2 0x33A PUSH1 0x4 DUP1 CALLDATASIZE SUB PUSH1 0x20 DUP2 LT ISZERO PUSH2 0x640 JUMPI PUSH1 0x0 DUP1 REVERT JUMPDEST POP CALLDATALOAD PUSH1 0x1 PUSH1 0x1 PUSH1 0xA0 SHL SUB AND PUSH2 0x12F2 JUMP JUMPDEST CALLVALUE DUP1 ISZERO PUSH2 0x65C JUMPI PUSH1 0x0 DUP1 REVERT JUMPDEST POP PUSH2 0x33A PUSH1 0x4 DUP1 CALLDATASIZE SUB PUSH1 0x20 DUP2 LT ISZERO PUSH2 0x673 JUMPI PUSH1 0x0 DUP1 REVERT JUMPDEST POP CALLDATALOAD PUSH1 0x1 PUSH1 0x1 PUSH1 0xA0 SHL SUB AND PUSH2 0x1310 JUMP JUMPDEST CALLVALUE DUP1 ISZERO PUSH2 0x68F JUMPI PUSH1 0x0 DUP1 REVERT JUMPDEST POP PUSH2 0x363 PUSH2 0x132E JUMP JUMPDEST CALLVALUE DUP1 ISZERO PUSH2 0x6A4 JUMPI PUSH1 0x0 DUP1 REVERT JUMPDEST POP PUSH2 0x363 PUSH1 0x4 DUP1 CALLDATASIZE SUB PUSH1 0x20 DUP2 LT ISZERO PUSH2 0x6BB JUMPI PUSH1 0x0 DUP1 REVERT JUMPDEST POP CALLDATALOAD PUSH1 0x1 PUSH1 0x1 PUSH1 0xA0 SHL SUB AND PUSH2 0x1334 JUMP JUMPDEST CALLVALUE DUP1 ISZERO PUSH2 0x6D7 JUMPI PUSH1 0x0 DUP1 REVERT JUMPDEST POP PUSH2 0x275 PUSH2 0x1396 JUMP JUMPDEST CALLVALUE DUP1 ISZERO PUSH2 0x6EC JUMPI PUSH1 0x0 DUP1 REVERT JUMPDEST POP PUSH2 0x363 PUSH2 0x1438 JUMP JUMPDEST CALLVALUE DUP1 ISZERO PUSH2 0x701 JUMPI PUSH1 0x0 DUP1 REVERT JUMPDEST POP PUSH2 0x33A PUSH1 0x4 DUP1 CALLDATASIZE SUB PUSH1 0x20 DUP2 LT ISZERO PUSH2 0x718 JUMPI PUSH1 0x0 DUP1 REVERT JUMPDEST POP CALLDATALOAD PUSH1 0x1 PUSH1 0x1 PUSH1 0xA0 SHL SUB AND PUSH2 0x143C JUMP JUMPDEST CALLVALUE DUP1 ISZERO PUSH2 0x734 JUMPI PUSH1 0x0 DUP1 REVERT JUMPDEST POP PUSH2 0x38A PUSH2 0x145A JUMP JUMPDEST CALLVALUE DUP1 ISZERO PUSH2 0x749 JUMPI PUSH1 0x0 DUP1 REVERT JUMPDEST POP PUSH2 0x275 PUSH1 0x4 DUP1 CALLDATASIZE SUB PUSH1 0x20 DUP2 LT ISZERO PUSH2 0x760 JUMPI PUSH1 0x0 DUP1 REVERT JUMPDEST POP CALLDATALOAD PUSH2 0x1469 JUMP JUMPDEST CALLVALUE DUP1 ISZERO PUSH2 0x773 JUMPI PUSH1 0x0 DUP1 REVERT JUMPDEST POP PUSH2 0x275 PUSH1 0x4 DUP1 CALLDATASIZE SUB PUSH1 0x20 DUP2 LT ISZERO PUSH2 0x78A JUMPI PUSH1 0x0 DUP1 REVERT JUMPDEST POP CALLDATALOAD PUSH1 0x1 PUSH1 0x1 PUSH1 0xA0 SHL SUB AND PUSH2 0x14C6 JUMP JUMPDEST CALLVALUE DUP1 ISZERO PUSH2 0x7A6 JUMPI PUSH1 0x0 DUP1 REVERT JUMPDEST POP PUSH2 0x28C PUSH2 0x1540 JUMP JUMPDEST CALLVALUE DUP1 ISZERO PUSH2 0x7BB JUMPI PUSH1 0x0 DUP1 REVERT JUMPDEST POP PUSH2 0x33A PUSH1 0x4 DUP1 CALLDATASIZE SUB PUSH1 0x40 DUP2 LT ISZERO PUSH2 0x7D2 JUMPI PUSH1 0x0 DUP1 REVERT JUMPDEST POP PUSH1 0x1 PUSH1 0x1 PUSH1 0xA0 SHL SUB DUP2 CALLDATALOAD AND SWAP1 PUSH1 0x20 ADD CALLDATALOAD PUSH2 0x15A1 JUMP JUMPDEST CALLVALUE DUP1 ISZERO PUSH2 0x7F4 JUMPI PUSH1 0x0 DUP1 REVERT JUMPDEST POP PUSH2 0x38A PUSH2 0x1609 JUMP JUMPDEST CALLVALUE DUP1 ISZERO PUSH2 0x809 JUMPI PUSH1 0x0 DUP1 REVERT JUMPDEST POP PUSH2 0x33A PUSH1 0x4 DUP1 CALLDATASIZE SUB PUSH1 0x40 DUP2 LT ISZERO PUSH2 0x820 JUMPI PUSH1 0x0 DUP1 REVERT JUMPDEST POP PUSH1 0x1 PUSH1 0x1 PUSH1 0xA0 SHL SUB DUP2 CALLDATALOAD AND SWAP1 PUSH1 0x20 ADD CALLDATALOAD PUSH2 0x1618 JUMP JUMPDEST CALLVALUE DUP1 ISZERO PUSH2 0x842 JUMPI PUSH1 0x0 DUP1 REVERT JUMPDEST POP PUSH2 0x275 PUSH2 0x162C JUMP JUMPDEST CALLVALUE DUP1 ISZERO PUSH2 0x857 JUMPI PUSH1 0x0 DUP1 REVERT JUMPDEST POP PUSH2 0x275 PUSH2 0x169D JUMP JUMPDEST CALLVALUE DUP1 ISZERO PUSH2 0x86C JUMPI PUSH1 0x0 DUP1 REVERT JUMPDEST POP PUSH2 0x363 PUSH1 0x4 DUP1 CALLDATASIZE SUB PUSH1 0x40 DUP2 LT ISZERO PUSH2 0x883 JUMPI PUSH1 0x0 DUP1 REVERT JUMPDEST POP PUSH1 0x1 PUSH1 0x1 PUSH1 0xA0 SHL SUB DUP2 CALLDATALOAD DUP2 AND SWAP2 PUSH1 0x20 ADD CALLDATALOAD AND PUSH2 0x1738 JUMP JUMPDEST CALLVALUE DUP1 ISZERO PUSH2 0x8A7 JUMPI PUSH1 0x0 DUP1 REVERT JUMPDEST POP PUSH2 0x275 PUSH1 0x4 DUP1 CALLDATASIZE SUB PUSH1 0x20 DUP2 LT ISZERO PUSH2 0x8BE JUMPI PUSH1 0x0 DUP1 REVERT JUMPDEST POP CALLDATALOAD PUSH1 0x1 PUSH1 0x1 PUSH1 0xA0 SHL SUB AND PUSH2 0x1763 JUMP JUMPDEST CALLVALUE DUP1 ISZERO PUSH2 0x8DA JUMPI PUSH1 0x0 DUP1 REVERT JUMPDEST POP PUSH2 0x275 PUSH1 0x4 DUP1 CALLDATASIZE SUB PUSH1 0x20 DUP2 LT ISZERO PUSH2 0x8F1 JUMPI PUSH1 0x0 DUP1 REVERT JUMPDEST POP CALLDATALOAD PUSH1 0x1 PUSH1 0x1 PUSH1 0xA0 SHL SUB AND PUSH2 0x17DC JUMP JUMPDEST CALLVALUE DUP1 ISZERO PUSH2 0x90D JUMPI PUSH1 0x0 DUP1 REVERT JUMPDEST POP PUSH2 0x275 PUSH1 0x4 DUP1 CALLDATASIZE SUB PUSH1 0x20 DUP2 LT ISZERO PUSH2 0x924 JUMPI PUSH1 0x0 DUP1 REVERT JUMPDEST POP CALLDATALOAD PUSH1 0x1 PUSH1 0x1 PUSH1 0xA0 SHL SUB AND PUSH2 0x18D4 JUMP JUMPDEST PUSH2 0x93C PUSH2 0x1A72 JUMP JUMPDEST PUSH1 0x0 SLOAD PUSH1 0x1 PUSH1 0x1 PUSH1 0xA0 SHL SUB SWAP1 DUP2 AND SWAP2 AND EQ PUSH2 0x98C JUMPI PUSH1 0x40 DUP1 MLOAD PUSH3 0x461BCD PUSH1 0xE5 SHL DUP2 MSTORE PUSH1 0x20 PUSH1 0x4 DUP3 ADD DUP2 SWAP1 MSTORE PUSH1 0x24 DUP3 ADD MSTORE PUSH1 0x0 DUP1 MLOAD PUSH1 0x20 PUSH2 0x2CBF DUP4 CODECOPY DUP2 MLOAD SWAP2 MSTORE PUSH1 0x44 DUP3 ADD MSTORE SWAP1 MLOAD SWAP1 DUP2 SWAP1 SUB PUSH1 0x64 ADD SWAP1 REVERT JUMPDEST PUSH1 0x12 SSTORE JUMP JUMPDEST PUSH1 0xF DUP1 SLOAD PUSH1 0x40 DUP1 MLOAD PUSH1 0x20 PUSH1 0x1F PUSH1 0x2 PUSH1 0x0 NOT PUSH2 0x100 PUSH1 0x1 DUP9 AND ISZERO MUL ADD SWAP1 SWAP6 AND SWAP5 SWAP1 SWAP5 DIV SWAP4 DUP5 ADD DUP2 SWAP1 DIV DUP2 MUL DUP3 ADD DUP2 ADD SWAP1 SWAP3 MSTORE DUP3 DUP2 MSTORE PUSH1 0x60 SWAP4 SWAP1 SWAP3 SWAP1 SWAP2 DUP4 ADD DUP3 DUP3 DUP1 ISZERO PUSH2 0xA1D JUMPI DUP1 PUSH1 0x1F LT PUSH2 0x9F2 JUMPI PUSH2 0x100 DUP1 DUP4 SLOAD DIV MUL DUP4 MSTORE SWAP2 PUSH1 0x20 ADD SWAP2 PUSH2 0xA1D JUMP JUMPDEST DUP3 ADD SWAP2 SWAP1 PUSH1 0x0 MSTORE PUSH1 0x20 PUSH1 0x0 KECCAK256 SWAP1 JUMPDEST DUP2 SLOAD DUP2 MSTORE SWAP1 PUSH1 0x1 ADD SWAP1 PUSH1 0x20 ADD DUP1 DUP4 GT PUSH2 0xA00 JUMPI DUP3 SWAP1 SUB PUSH1 0x1F AND DUP3 ADD SWAP2 JUMPDEST POP POP POP POP POP SWAP1 POP SWAP1 JUMP JUMPDEST PUSH1 0x0 PUSH2 0xA3B PUSH2 0xA34 PUSH2 0x1A72 JUMP JUMPDEST DUP5 DUP5 PUSH2 0x1A76 JUMP JUMPDEST POP PUSH1 0x1 JUMPDEST SWAP3 SWAP2 POP POP JUMP JUMPDEST PUSH1 0xE SLOAD SWAP1 JUMP JUMPDEST PUSH1 0x18 SLOAD PUSH1 0x1 PUSH1 0x1 PUSH1 0xA0 SHL SUB AND DUP2 JUMP JUMPDEST PUSH1 0xC SLOAD SWAP1 JUMP JUMPDEST PUSH1 0x0 PUSH2 0xA6D DUP5 DUP5 DUP5 PUSH2 0x1B62 JUMP JUMPDEST PUSH2 0xADD DUP5 PUSH2 0xA79 PUSH2 0x1A72 JUMP JUMPDEST PUSH2 0xAD8 DUP6 PUSH1 0x40 MLOAD DUP1 PUSH1 0x60 ADD PUSH1 0x40 MSTORE DUP1 PUSH1 0x28 DUP2 MSTORE PUSH1 0x20 ADD PUSH2 0x2C97 PUSH1 0x28 SWAP2 CODECOPY PUSH1 0x1 PUSH1 0x1 PUSH1 0xA0 SHL SUB DUP11 AND PUSH1 0x0 SWAP1 DUP2 MSTORE PUSH1 0x6 PUSH1 0x20 MSTORE PUSH1 0x40 DUP2 KECCAK256 SWAP1 PUSH2 0xAB7 PUSH2 0x1A72 JUMP JUMPDEST PUSH1 0x1 PUSH1 0x1 PUSH1 0xA0 SHL SUB AND DUP2 MSTORE PUSH1 0x20 DUP2 ADD SWAP2 SWAP1 SWAP2 MSTORE PUSH1 0x40 ADD PUSH1 0x0 KECCAK256 SLOAD SWAP2 SWAP1 PUSH2 0x1F61 JUMP JUMPDEST PUSH2 0x1A76 JUMP JUMPDEST POP PUSH1 0x1 SWAP4 SWAP3 POP POP POP JUMP JUMPDEST PUSH32 0x0 DUP2 JUMP JUMPDEST PUSH1 0x0 PUSH1 0xD SLOAD DUP3 GT ISZERO PUSH2 0xB4E JUMPI PUSH1 0x40 MLOAD PUSH3 0x461BCD PUSH1 0xE5 SHL DUP2 MSTORE PUSH1 0x4 ADD DUP1 DUP1 PUSH1 0x20 ADD DUP3 DUP2 SUB DUP3 MSTORE PUSH1 0x2A DUP2 MSTORE PUSH1 0x20 ADD DUP1 PUSH2 0x2C04 PUSH1 0x2A SWAP2 CODECOPY PUSH1 0x40 ADD SWAP2 POP POP PUSH1 0x40 MLOAD DUP1 SWAP2 SUB SWAP1 REVERT JUMPDEST PUSH1 0x0 PUSH2 0xB58 PUSH2 0x1FF8 JUMP JUMPDEST SWAP1 POP PUSH2 0xB64 DUP4 DUP3 PUSH2 0x201B JUMP JUMPDEST SWAP2 POP POP JUMPDEST SWAP2 SWAP1 POP JUMP JUMPDEST PUSH1 0x11 SLOAD PUSH1 0xFF AND SWAP1 JUMP JUMPDEST PUSH2 0xB7E PUSH2 0x1A72 JUMP JUMPDEST PUSH1 0x0 SLOAD PUSH1 0x1 PUSH1 0x1 PUSH1 0xA0 SHL SUB SWAP1 DUP2 AND SWAP2 AND EQ PUSH2 0xBCE JUMPI PUSH1 0x40 DUP1 MLOAD PUSH3 0x461BCD PUSH1 0xE5 SHL DUP2 MSTORE PUSH1 0x20 PUSH1 0x4 DUP3 ADD DUP2 SWAP1 MSTORE PUSH1 0x24 DUP3 ADD MSTORE PUSH1 0x0 DUP1 MLOAD PUSH1 0x20 PUSH2 0x2CBF DUP4 CODECOPY DUP2 MLOAD SWAP2 MSTORE PUSH1 0x44 DUP3 ADD MSTORE SWAP1 MLOAD SWAP1 DUP2 SWAP1 SUB PUSH1 0x64 ADD SWAP1 REVERT JUMPDEST PUSH1 0x1 PUSH1 0x1 PUSH1 0xA0 SHL SUB DUP2 AND PUSH1 0x0 SWAP1 DUP2 MSTORE PUSH1 0x7 PUSH1 0x20 MSTORE PUSH1 0x40 SWAP1 KECCAK256 SLOAD PUSH1 0xFF AND PUSH2 0xC3B JUMPI PUSH1 0x40 DUP1 MLOAD PUSH3 0x461BCD PUSH1 0xE5 SHL DUP2 MSTORE PUSH1 0x20 PUSH1 0x4 DUP3 ADD MSTORE PUSH1 0x1A PUSH1 0x24 DUP3 ADD MSTORE PUSH32 0x4163636F756E74206973206E6F7420626C61636B6C6973746564000000000000 PUSH1 0x44 DUP3 ADD MSTORE SWAP1 MLOAD SWAP1 DUP2 SWAP1 SUB PUSH1 0x64 ADD SWAP1 REVERT JUMPDEST PUSH1 0x0 JUMPDEST PUSH1 0x8 SLOAD DUP2 LT ISZERO PUSH2 0xD2A JUMPI DUP2 PUSH1 0x1 PUSH1 0x1 PUSH1 0xA0 SHL SUB AND PUSH1 0x8 DUP3 DUP2 SLOAD DUP2 LT PUSH2 0xC5F JUMPI INVALID JUMPDEST PUSH1 0x0 SWAP2 DUP3 MSTORE PUSH1 0x20 SWAP1 SWAP2 KECCAK256 ADD SLOAD PUSH1 0x1 PUSH1 0x1 PUSH1 0xA0 SHL SUB AND EQ ISZERO PUSH2 0xD22 JUMPI PUSH1 0x8 DUP1 SLOAD PUSH1 0x0 NOT DUP2 ADD SWAP1 DUP2 LT PUSH2 0xC8C JUMPI INVALID JUMPDEST PUSH1 0x0 SWAP2 DUP3 MSTORE PUSH1 0x20 SWAP1 SWAP2 KECCAK256 ADD SLOAD PUSH1 0x8 DUP1 SLOAD PUSH1 0x1 PUSH1 0x1 PUSH1 0xA0 SHL SUB SWAP1 SWAP3 AND SWAP2 DUP4 SWAP1 DUP2 LT PUSH2 0xCB2 JUMPI INVALID JUMPDEST PUSH1 0x0 SWAP2 DUP3 MSTORE PUSH1 0x20 DUP1 DUP4 KECCAK256 SWAP2 SWAP1 SWAP2 ADD DUP1 SLOAD PUSH1 0x1 PUSH1 0x1 PUSH1 0xA0 SHL SUB NOT AND PUSH1 0x1 PUSH1 0x1 PUSH1 0xA0 SHL SUB SWAP5 DUP6 AND OR SWAP1 SSTORE SWAP2 DUP5 AND DUP2 MSTORE PUSH1 0x7 SWAP1 SWAP2 MSTORE PUSH1 0x40 SWAP1 KECCAK256 DUP1 SLOAD PUSH1 0xFF NOT AND SWAP1 SSTORE PUSH1 0x8 DUP1 SLOAD DUP1 PUSH2 0xCFB JUMPI INVALID JUMPDEST PUSH1 0x0 DUP3 DUP2 MSTORE PUSH1 0x20 SWAP1 KECCAK256 DUP2 ADD PUSH1 0x0 NOT SWAP1 DUP2 ADD DUP1 SLOAD PUSH1 0x1 PUSH1 0x1 PUSH1 0xA0 SHL SUB NOT AND SWAP1 SSTORE ADD SWAP1 SSTORE PUSH2 0xD2A JUMP JUMPDEST PUSH1 0x1 ADD PUSH2 0xC3E JUMP JUMPDEST POP POP JUMP JUMPDEST PUSH2 0xD36 PUSH2 0x1A72 JUMP JUMPDEST PUSH1 0x0 SLOAD PUSH1 0x1 PUSH1 0x1 PUSH1 0xA0 SHL SUB SWAP1 DUP2 AND SWAP2 AND EQ PUSH2 0xD86 JUMPI PUSH1 0x40 DUP1 MLOAD PUSH3 0x461BCD PUSH1 0xE5 SHL DUP2 MSTORE PUSH1 0x20 PUSH1 0x4 DUP3 ADD DUP2 SWAP1 MSTORE PUSH1 0x24 DUP3 ADD MSTORE PUSH1 0x0 DUP1 MLOAD PUSH1 0x20 PUSH2 0x2CBF DUP4 CODECOPY DUP2 MLOAD SWAP2 MSTORE PUSH1 0x44 DUP3 ADD MSTORE SWAP1 MLOAD SWAP1 DUP2 SWAP1 SUB PUSH1 0x64 ADD SWAP1 REVERT JUMPDEST PUSH1 0x1 PUSH1 0x1 PUSH1 0xA0 SHL SUB DUP2 AND PUSH1 0x0 SWAP1 DUP2 MSTORE PUSH1 0xA PUSH1 0x20 MSTORE PUSH1 0x40 SWAP1 KECCAK256 SLOAD PUSH1 0xFF AND PUSH2 0xDF3 JUMPI PUSH1 0x40 DUP1 MLOAD PUSH3 0x461BCD PUSH1 0xE5 SHL DUP2 MSTORE PUSH1 0x20 PUSH1 0x4 DUP3 ADD MSTORE PUSH1 0x1B PUSH1 0x24 DUP3 ADD MSTORE PUSH32 0x4163636F756E7420697320616C7265616479206578636C756465640000000000 PUSH1 0x44 DUP3 ADD MSTORE SWAP1 MLOAD SWAP1 DUP2 SWAP1 SUB PUSH1 0x64 ADD SWAP1 REVERT JUMPDEST PUSH1 0x0 JUMPDEST PUSH1 0xB SLOAD DUP2 LT ISZERO PUSH2 0xD2A JUMPI DUP2 PUSH1 0x1 PUSH1 0x1 PUSH1 0xA0 SHL SUB AND PUSH1 0xB DUP3 DUP2 SLOAD DUP2 LT PUSH2 0xE17 JUMPI INVALID JUMPDEST PUSH1 0x0 SWAP2 DUP3 MSTORE PUSH1 0x20 SWAP1 SWAP2 KECCAK256 ADD SLOAD PUSH1 0x1 PUSH1 0x1 PUSH1 0xA0 SHL SUB AND EQ ISZERO PUSH2 0xEBC JUMPI PUSH1 0xB DUP1 SLOAD PUSH1 0x0 NOT DUP2 ADD SWAP1 DUP2 LT PUSH2 0xE44 JUMPI INVALID JUMPDEST PUSH1 0x0 SWAP2 DUP3 MSTORE PUSH1 0x20 SWAP1 SWAP2 KECCAK256 ADD SLOAD PUSH1 0xB DUP1 SLOAD PUSH1 0x1 PUSH1 0x1 PUSH1 0xA0 SHL SUB SWAP1 SWAP3 AND SWAP2 DUP4 SWAP1 DUP2 LT PUSH2 0xE6A JUMPI INVALID JUMPDEST PUSH1 0x0 SWAP2 DUP3 MSTORE PUSH1 0x20 DUP1 DUP4 KECCAK256 SWAP2 SWAP1 SWAP2 ADD DUP1 SLOAD PUSH1 0x1 PUSH1 0x1 PUSH1 0xA0 SHL SUB NOT AND PUSH1 0x1 PUSH1 0x1 PUSH1 0xA0 SHL SUB SWAP5 DUP6 AND OR SWAP1 SSTORE SWAP2 DUP5 AND DUP2 MSTORE PUSH1 0x5 DUP3 MSTORE PUSH1 0x40 DUP1 DUP3 KECCAK256 DUP3 SWAP1 SSTORE PUSH1 0xA SWAP1 SWAP3 MSTORE KECCAK256 DUP1 SLOAD PUSH1 0xFF NOT AND SWAP1 SSTORE PUSH1 0xB DUP1 SLOAD DUP1 PUSH2 0xCFB JUMPI INVALID JUMPDEST PUSH1 0x1 ADD PUSH2 0xDF6 JUMP JUMPDEST PUSH1 0x0 PUSH2 0xA3B PUSH2 0xED1 PUSH2 0x1A72 JUMP JUMPDEST DUP5 PUSH2 0xAD8 DUP6 PUSH1 0x6 PUSH1 0x0 PUSH2 0xEE2 PUSH2 0x1A72 JUMP JUMPDEST PUSH1 0x1 PUSH1 0x1 PUSH1 0xA0 SHL SUB SWAP1 DUP2 AND DUP3 MSTORE PUSH1 0x20 DUP1 DUP4 ADD SWAP4 SWAP1 SWAP4 MSTORE PUSH1 0x40 SWAP2 DUP3 ADD PUSH1 0x0 SWAP1 DUP2 KECCAK256 SWAP2 DUP13 AND DUP2 MSTORE SWAP3 MSTORE SWAP1 KECCAK256 SLOAD SWAP1 PUSH2 0x2064 JUMP JUMPDEST PUSH1 0x12 SLOAD DUP2 JUMP JUMPDEST PUSH1 0x0 PUSH2 0xF22 PUSH2 0x1A72 JUMP JUMPDEST PUSH1 0x1 PUSH1 0x1 PUSH1 0xA0 SHL SUB DUP2 AND PUSH1 0x0 SWAP1 DUP2 MSTORE PUSH1 0xA PUSH1 0x20 MSTORE PUSH1 0x40 SWAP1 KECCAK256 SLOAD SWAP1 SWAP2 POP PUSH1 0xFF AND ISZERO PUSH2 0xF7D JUMPI PUSH1 0x40 MLOAD PUSH3 0x461BCD PUSH1 0xE5 SHL DUP2 MSTORE PUSH1 0x4 ADD DUP1 DUP1 PUSH1 0x20 ADD DUP3 DUP2 SUB DUP3 MSTORE PUSH1 0x2C DUP2 MSTORE PUSH1 0x20 ADD DUP1 PUSH2 0x2D51 PUSH1 0x2C SWAP2 CODECOPY PUSH1 0x40 ADD SWAP2 POP POP PUSH1 0x40 MLOAD DUP1 SWAP2 SUB SWAP1 REVERT JUMPDEST PUSH1 0x0 PUSH2 0xF88 DUP4 PUSH2 0x20BE JUMP JUMPDEST POP POP POP POP PUSH1 0x1 PUSH1 0x1 PUSH1 0xA0 SHL SUB DUP5 AND PUSH1 0x0 SWAP1 DUP2 MSTORE PUSH1 0x4 PUSH1 0x20 MSTORE PUSH1 0x40 SWAP1 KECCAK256 SLOAD SWAP2 SWAP3 POP PUSH2 0xFB4 SWAP2 SWAP1 POP DUP3 PUSH2 0x210D JUMP JUMPDEST PUSH1 0x1 PUSH1 0x1 PUSH1 0xA0 SHL SUB DUP4 AND PUSH1 0x0 SWAP1 DUP2 MSTORE PUSH1 0x4 PUSH1 0x20 MSTORE PUSH1 0x40 SWAP1 KECCAK256 SSTORE PUSH1 0xD SLOAD PUSH2 0xFDA SWAP1 DUP3 PUSH2 0x210D JUMP JUMPDEST PUSH1 0xD SSTORE PUSH1 0xE SLOAD PUSH2 0xFEA SWAP1 DUP5 PUSH2 0x2064 JUMP JUMPDEST PUSH1 0xE SSTORE POP POP POP JUMP JUMPDEST PUSH2 0xFFA PUSH2 0x1A72 JUMP JUMPDEST PUSH1 0x0 SLOAD PUSH1 0x1 PUSH1 0x1 PUSH1 0xA0 SHL SUB SWAP1 DUP2 AND SWAP2 AND EQ PUSH2 0x104A JUMPI PUSH1 0x40 DUP1 MLOAD PUSH3 0x461BCD PUSH1 0xE5 SHL DUP2 MSTORE PUSH1 0x20 PUSH1 0x4 DUP3 ADD DUP2 SWAP1 MSTORE PUSH1 0x24 DUP3 ADD MSTORE PUSH1 0x0 DUP1 MLOAD PUSH1 0x20 PUSH2 0x2CBF DUP4 CODECOPY DUP2 MLOAD SWAP2 MSTORE PUSH1 0x44 DUP3 ADD MSTORE SWAP1 MLOAD SWAP1 DUP2 SWAP1 SUB PUSH1 0x64 ADD SWAP1 REVERT JUMPDEST PUSH1 0x1 PUSH1 0x1 PUSH1 0xA0 SHL SUB AND PUSH1 0x0 SWAP1 DUP2 MSTORE PUSH1 0x9 PUSH1 0x20 MSTORE PUSH1 0x40 SWAP1 KECCAK256 DUP1 SLOAD PUSH1 0xFF NOT AND PUSH1 0x1 OR SWAP1 SSTORE JUMP JUMPDEST PUSH1 0x0 PUSH1 0xC SLOAD DUP4 GT ISZERO PUSH2 0x10C7 JUMPI PUSH1 0x40 DUP1 MLOAD PUSH3 0x461BCD PUSH1 0xE5 SHL DUP2 MSTORE PUSH1 0x20 PUSH1 0x4 DUP3 ADD MSTORE PUSH1 0x1F PUSH1 0x24 DUP3 ADD MSTORE PUSH32 0x416D6F756E74206D757374206265206C657373207468616E20737570706C7900 PUSH1 0x44 DUP3 ADD MSTORE SWAP1 MLOAD SWAP1 DUP2 SWAP1 SUB PUSH1 0x64 ADD SWAP1 REVERT JUMPDEST DUP2 PUSH2 0x10E6 JUMPI PUSH1 0x0 PUSH2 0x10D7 DUP5 PUSH2 0x20BE JUMP JUMPDEST POP SWAP4 SWAP6 POP PUSH2 0xA3F SWAP5 POP POP POP POP POP JUMP JUMPDEST PUSH1 0x0 PUSH2 0x10F1 DUP5 PUSH2 0x20BE JUMP JUMPDEST POP SWAP3 SWAP6 POP PUSH2 0xA3F SWAP5 POP POP POP POP POP JUMP JUMPDEST PUSH2 0x1108 PUSH2 0x1A72 JUMP JUMPDEST PUSH1 0x0 SLOAD PUSH1 0x1 PUSH1 0x1 PUSH1 0xA0 SHL SUB SWAP1 DUP2 AND SWAP2 AND EQ PUSH2 0x1158 JUMPI PUSH1 0x40 DUP1 MLOAD PUSH3 0x461BCD PUSH1 0xE5 SHL DUP2 MSTORE PUSH1 0x20 PUSH1 0x4 DUP3 ADD DUP2 SWAP1 MSTORE PUSH1 0x24 DUP3 ADD MSTORE PUSH1 0x0 DUP1 MLOAD PUSH1 0x20 PUSH2 0x2CBF DUP4 CODECOPY DUP2 MLOAD SWAP2 MSTORE PUSH1 0x44 DUP3 ADD MSTORE SWAP1 MLOAD SWAP1 DUP2 SWAP1 SUB PUSH1 0x64 ADD SWAP1 REVERT JUMPDEST PUSH1 0x16 SSTORE JUMP JUMPDEST PUSH1 0x19 SLOAD PUSH1 0x1 PUSH1 0x1 PUSH1 0xA0 SHL SUB AND DUP2 JUMP JUMPDEST PUSH2 0x1174 PUSH2 0x1A72 JUMP JUMPDEST PUSH1 0x0 SLOAD PUSH1 0x1 PUSH1 0x1 PUSH1 0xA0 SHL SUB SWAP1 DUP2 AND SWAP2 AND EQ PUSH2 0x11C4 JUMPI PUSH1 0x40 DUP1 MLOAD PUSH3 0x461BCD PUSH1 0xE5 SHL DUP2 MSTORE PUSH1 0x20 PUSH1 0x4 DUP3 ADD DUP2 SWAP1 MSTORE PUSH1 0x24 DUP3 ADD MSTORE PUSH1 0x0 DUP1 MLOAD PUSH1 0x20 PUSH2 0x2CBF DUP4 CODECOPY DUP2 MLOAD SWAP2 MSTORE PUSH1 0x44 DUP3 ADD MSTORE SWAP1 MLOAD SWAP1 DUP2 SWAP1 SUB PUSH1 0x64 ADD SWAP1 REVERT JUMPDEST PUSH1 0x1 PUSH1 0x1 PUSH1 0xA0 SHL SUB DUP2 AND PUSH1 0x0 SWAP1 DUP2 MSTORE PUSH1 0xA PUSH1 0x20 MSTORE PUSH1 0x40 SWAP1 KECCAK256 SLOAD PUSH1 0xFF AND ISZERO PUSH2 0x1232 JUMPI PUSH1 0x40 DUP1 MLOAD PUSH3 0x461BCD PUSH1 0xE5 SHL DUP2 MSTORE PUSH1 0x20 PUSH1 0x4 DUP3 ADD MSTORE PUSH1 0x1B PUSH1 0x24 DUP3 ADD MSTORE PUSH32 0x4163636F756E7420697320616C7265616479206578636C756465640000000000 PUSH1 0x44 DUP3 ADD MSTORE SWAP1 MLOAD SWAP1 DUP2 SWAP1 SUB PUSH1 0x64 ADD SWAP1 REVERT JUMPDEST PUSH1 0x1 PUSH1 0x1 PUSH1 0xA0 SHL SUB DUP2 AND PUSH1 0x0 SWAP1 DUP2 MSTORE PUSH1 0x4 PUSH1 0x20 MSTORE PUSH1 0x40 SWAP1 KECCAK256 SLOAD ISZERO PUSH2 0x128C JUMPI PUSH1 0x1 PUSH1 0x1 PUSH1 0xA0 SHL SUB DUP2 AND PUSH1 0x0 SWAP1 DUP2 MSTORE PUSH1 0x4 PUSH1 0x20 MSTORE PUSH1 0x40 SWAP1 KECCAK256 SLOAD PUSH2 0x1272 SWAP1 PUSH2 0xB0B JUMP JUMPDEST PUSH1 0x1 PUSH1 0x1 PUSH1 0xA0 SHL SUB DUP3 AND PUSH1 0x0 SWAP1 DUP2 MSTORE PUSH1 0x5 PUSH1 0x20 MSTORE PUSH1 0x40 SWAP1 KECCAK256 SSTORE JUMPDEST PUSH1 0x1 PUSH1 0x1 PUSH1 0xA0 SHL SUB AND PUSH1 0x0 DUP2 DUP2 MSTORE PUSH1 0xA PUSH1 0x20 MSTORE PUSH1 0x40 DUP2 KECCAK256 DUP1 SLOAD PUSH1 0xFF NOT AND PUSH1 0x1 SWAP1 DUP2 OR SWAP1 SWAP2 SSTORE PUSH1 0xB DUP1 SLOAD SWAP2 DUP3 ADD DUP2 SSTORE SWAP1 SWAP2 MSTORE PUSH32 0x175B7A638427703F0DBE7BB9BBF987A2551717B34E79F33B5B1008D1FA01DB9 ADD DUP1 SLOAD PUSH1 0x1 PUSH1 0x1 PUSH1 0xA0 SHL SUB NOT AND SWAP1 SWAP2 OR SWAP1 SSTORE JUMP JUMPDEST PUSH1 0x1 PUSH1 0x1 PUSH1 0xA0 SHL SUB AND PUSH1 0x0 SWAP1 DUP2 MSTORE PUSH1 0x9 PUSH1 0x20 MSTORE PUSH1 0x40 SWAP1 KECCAK256 SLOAD PUSH1 0xFF AND SWAP1 JUMP JUMPDEST PUSH1 0x1 PUSH1 0x1 PUSH1 0xA0 SHL SUB AND PUSH1 0x0 SWAP1 DUP2 MSTORE PUSH1 0x7 PUSH1 0x20 MSTORE PUSH1 0x40 SWAP1 KECCAK256 SLOAD PUSH1 0xFF AND SWAP1 JUMP JUMPDEST PUSH1 0x14 SLOAD DUP2 JUMP JUMPDEST PUSH1 0x1 PUSH1 0x1 PUSH1 0xA0 SHL SUB DUP2 AND PUSH1 0x0 SWAP1 DUP2 MSTORE PUSH1 0xA PUSH1 0x20 MSTORE PUSH1 0x40 DUP2 KECCAK256 SLOAD PUSH1 0xFF AND ISZERO PUSH2 0x1374 JUMPI POP PUSH1 0x1 PUSH1 0x1 PUSH1 0xA0 SHL SUB DUP2 AND PUSH1 0x0 SWAP1 DUP2 MSTORE PUSH1 0x5 PUSH1 0x20 MSTORE PUSH1 0x40 SWAP1 KECCAK256 SLOAD PUSH2 0xB68 JUMP JUMPDEST PUSH1 0x1 PUSH1 0x1 PUSH1 0xA0 SHL SUB DUP3 AND PUSH1 0x0 SWAP1 DUP2 MSTORE PUSH1 0x4 PUSH1 0x20 MSTORE PUSH1 0x40 SWAP1 KECCAK256 SLOAD PUSH2 0xA3F SWAP1 PUSH2 0xB0B JUMP JUMPDEST PUSH2 0x139E PUSH2 0x1A72 JUMP JUMPDEST PUSH1 0x0 SLOAD PUSH1 0x1 PUSH1 0x1 PUSH1 0xA0 SHL SUB SWAP1 DUP2 AND SWAP2 AND EQ PUSH2 0x13EE JUMPI PUSH1 0x40 DUP1 MLOAD PUSH3 0x461BCD PUSH1 0xE5 SHL DUP2 MSTORE PUSH1 0x20 PUSH1 0x4 DUP3 ADD DUP2 SWAP1 MSTORE PUSH1 0x24 DUP3 ADD MSTORE PUSH1 0x0 DUP1 MLOAD PUSH1 0x20 PUSH2 0x2CBF DUP4 CODECOPY DUP2 MLOAD SWAP2 MSTORE PUSH1 0x44 DUP3 ADD MSTORE SWAP1 MLOAD SWAP1 DUP2 SWAP1 SUB PUSH1 0x64 ADD SWAP1 REVERT JUMPDEST PUSH1 0x0 DUP1 SLOAD PUSH1 0x40 MLOAD PUSH1 0x1 PUSH1 0x1 PUSH1 0xA0 SHL SUB SWAP1 SWAP2 AND SWAP1 PUSH32 0x8BE0079C531659141344CD1FD0A4F28419497F9722A3DAAFE3B4186F6B6457E0 SWAP1 DUP4 SWAP1 LOG3 PUSH1 0x0 DUP1 SLOAD PUSH1 0x1 PUSH1 0x1 PUSH1 0xA0 SHL SUB NOT AND SWAP1 SSTORE JUMP JUMPDEST TIMESTAMP SWAP1 JUMP JUMPDEST PUSH1 0x1 PUSH1 0x1 PUSH1 0xA0 SHL SUB AND PUSH1 0x0 SWAP1 DUP2 MSTORE PUSH1 0xA PUSH1 0x20 MSTORE PUSH1 0x40 SWAP1 KECCAK256 SLOAD PUSH1 0xFF AND SWAP1 JUMP JUMPDEST PUSH1 0x0 SLOAD PUSH1 0x1 PUSH1 0x1 PUSH1 0xA0 SHL SUB AND SWAP1 JUMP JUMPDEST PUSH2 0x1471 PUSH2 0x1A72 JUMP JUMPDEST PUSH1 0x0 SLOAD PUSH1 0x1 PUSH1 0x1 PUSH1 0xA0 SHL SUB SWAP1 DUP2 AND SWAP2 AND EQ PUSH2 0x14C1 JUMPI PUSH1 0x40 DUP1 MLOAD PUSH3 0x461BCD PUSH1 0xE5 SHL DUP2 MSTORE PUSH1 0x20 PUSH1 0x4 DUP3 ADD DUP2 SWAP1 MSTORE PUSH1 0x24 DUP3 ADD MSTORE PUSH1 0x0 DUP1 MLOAD PUSH1 0x20 PUSH2 0x2CBF DUP4 CODECOPY DUP2 MLOAD SWAP2 MSTORE PUSH1 0x44 DUP3 ADD MSTORE SWAP1 MLOAD SWAP1 DUP2 SWAP1 SUB PUSH1 0x64 ADD SWAP1 REVERT JUMPDEST PUSH1 0x14 SSTORE JUMP JUMPDEST PUSH2 0x14CE PUSH2 0x1A72 JUMP JUMPDEST PUSH1 0x0 SLOAD PUSH1 0x1 PUSH1 0x1 PUSH1 0xA0 SHL SUB SWAP1 DUP2 AND SWAP2 AND EQ PUSH2 0x151E JUMPI PUSH1 0x40 DUP1 MLOAD PUSH3 0x461BCD PUSH1 0xE5 SHL DUP2 MSTORE PUSH1 0x20 PUSH1 0x4 DUP3 ADD DUP2 SWAP1 MSTORE PUSH1 0x24 DUP3 ADD MSTORE PUSH1 0x0 DUP1 MLOAD PUSH1 0x20 PUSH2 0x2CBF DUP4 CODECOPY DUP2 MLOAD SWAP2 MSTORE PUSH1 0x44 DUP3 ADD MSTORE SWAP1 MLOAD SWAP1 DUP2 SWAP1 SUB PUSH1 0x64 ADD SWAP1 REVERT JUMPDEST PUSH1 0x3 DUP1 SLOAD PUSH1 0x1 PUSH1 0x1 PUSH1 0xA0 SHL SUB NOT AND PUSH1 0x1 PUSH1 0x1 PUSH1 0xA0 SHL SUB SWAP3 SWAP1 SWAP3 AND SWAP2 SWAP1 SWAP2 OR SWAP1 SSTORE JUMP JUMPDEST PUSH1 0x10 DUP1 SLOAD PUSH1 0x40 DUP1 MLOAD PUSH1 0x20 PUSH1 0x1F PUSH1 0x2 PUSH1 0x0 NOT PUSH2 0x100 PUSH1 0x1 DUP9 AND ISZERO MUL ADD SWAP1 SWAP6 AND SWAP5 SWAP1 SWAP5 DIV SWAP4 DUP5 ADD DUP2 SWAP1 DIV DUP2 MUL DUP3 ADD DUP2 ADD SWAP1 SWAP3 MSTORE DUP3 DUP2 MSTORE PUSH1 0x60 SWAP4 SWAP1 SWAP3 SWAP1 SWAP2 DUP4 ADD DUP3 DUP3 DUP1 ISZERO PUSH2 0xA1D JUMPI DUP1 PUSH1 0x1F LT PUSH2 0x9F2 JUMPI PUSH2 0x100 DUP1 DUP4 SLOAD DIV MUL DUP4 MSTORE SWAP2 PUSH1 0x20 ADD SWAP2 PUSH2 0xA1D JUMP JUMPDEST PUSH1 0x0 PUSH2 0xA3B PUSH2 0x15AE PUSH2 0x1A72 JUMP JUMPDEST DUP5 PUSH2 0xAD8 DUP6 PUSH1 0x40 MLOAD DUP1 PUSH1 0x60 ADD PUSH1 0x40 MSTORE DUP1 PUSH1 0x25 DUP2 MSTORE PUSH1 0x20 ADD PUSH2 0x2D7D PUSH1 0x25 SWAP2 CODECOPY PUSH1 0x6 PUSH1 0x0 PUSH2 0x15D8 PUSH2 0x1A72 JUMP JUMPDEST PUSH1 0x1 PUSH1 0x1 PUSH1 0xA0 SHL SUB SWAP1 DUP2 AND DUP3 MSTORE PUSH1 0x20 DUP1 DUP4 ADD SWAP4 SWAP1 SWAP4 MSTORE PUSH1 0x40 SWAP2 DUP3 ADD PUSH1 0x0 SWAP1 DUP2 KECCAK256 SWAP2 DUP14 AND DUP2 MSTORE SWAP3 MSTORE SWAP1 KECCAK256 SLOAD SWAP2 SWAP1 PUSH2 0x1F61 JUMP JUMPDEST PUSH1 0x3 SLOAD PUSH1 0x1 PUSH1 0x1 PUSH1 0xA0 SHL SUB AND DUP2 JUMP JUMPDEST PUSH1 0x0 PUSH2 0xA3B PUSH2 0x1625 PUSH2 0x1A72 JUMP JUMPDEST DUP5 DUP5 PUSH2 0x1B62 JUMP JUMPDEST PUSH2 0x1634 PUSH2 0x1A72 JUMP JUMPDEST PUSH1 0x0 SLOAD PUSH1 0x1 PUSH1 0x1 PUSH1 0xA0 SHL SUB SWAP1 DUP2 AND SWAP2 AND EQ PUSH2 0x1684 JUMPI PUSH1 0x40 DUP1 MLOAD PUSH3 0x461BCD PUSH1 0xE5 SHL DUP2 MSTORE PUSH1 0x20 PUSH1 0x4 DUP3 ADD DUP2 SWAP1 MSTORE PUSH1 0x24 DUP3 ADD MSTORE PUSH1 0x0 DUP1 MLOAD PUSH1 0x20 PUSH2 0x2CBF DUP4 CODECOPY DUP2 MLOAD SWAP2 MSTORE PUSH1 0x44 DUP3 ADD MSTORE SWAP1 MLOAD SWAP1 DUP2 SWAP1 SUB PUSH1 0x64 ADD SWAP1 REVERT JUMPDEST PUSH1 0x19 DUP1 SLOAD PUSH1 0xFF PUSH1 0xA8 SHL NOT AND PUSH1 0x1 PUSH1 0xA8 SHL OR SWAP1 SSTORE TIMESTAMP PUSH1 0x17 SSTORE JUMP JUMPDEST PUSH2 0x16A5 PUSH2 0x1A72 JUMP JUMPDEST PUSH1 0x0 SLOAD PUSH1 0x1 PUSH1 0x1 PUSH1 0xA0 SHL SUB SWAP1 DUP2 AND SWAP2 AND EQ PUSH2 0x16F5 JUMPI PUSH1 0x40 DUP1 MLOAD PUSH3 0x461BCD PUSH1 0xE5 SHL DUP2 MSTORE PUSH1 0x20 PUSH1 0x4 DUP3 ADD DUP2 SWAP1 MSTORE PUSH1 0x24 DUP3 ADD MSTORE PUSH1 0x0 DUP1 MLOAD PUSH1 0x20 PUSH2 0x2CBF DUP4 CODECOPY DUP2 MLOAD SWAP2 MSTORE PUSH1 0x44 DUP3 ADD MSTORE SWAP1 MLOAD SWAP1 DUP2 SWAP1 SUB PUSH1 0x64 ADD SWAP1 REVERT JUMPDEST PUSH2 0x16FD PUSH2 0x145A JUMP JUMPDEST PUSH1 0x1 PUSH1 0x1 PUSH1 0xA0 SHL SUB AND PUSH2 0x8FC SELFBALANCE SWAP1 DUP2 ISZERO MUL SWAP1 PUSH1 0x40 MLOAD PUSH1 0x0 PUSH1 0x40 MLOAD DUP1 DUP4 SUB DUP2 DUP6 DUP9 DUP9 CALL SWAP4 POP POP POP POP ISZERO DUP1 ISZERO PUSH2 0x1735 JUMPI RETURNDATASIZE PUSH1 0x0 DUP1 RETURNDATACOPY RETURNDATASIZE PUSH1 0x0 REVERT JUMPDEST POP JUMP JUMPDEST PUSH1 0x1 PUSH1 0x1 PUSH1 0xA0 SHL SUB SWAP2 DUP3 AND PUSH1 0x0 SWAP1 DUP2 MSTORE PUSH1 0x6 PUSH1 0x20 SWAP1 DUP2 MSTORE PUSH1 0x40 DUP1 DUP4 KECCAK256 SWAP4 SWAP1 SWAP5 AND DUP3 MSTORE SWAP2 SWAP1 SWAP2 MSTORE KECCAK256 SLOAD SWAP1 JUMP JUMPDEST PUSH2 0x176B PUSH2 0x1A72 JUMP JUMPDEST PUSH1 0x0 SLOAD PUSH1 0x1 PUSH1 0x1 PUSH1 0xA0 SHL SUB SWAP1 DUP2 AND SWAP2 AND EQ PUSH2 0x17BB JUMPI PUSH1 0x40 DUP1 MLOAD PUSH3 0x461BCD PUSH1 0xE5 SHL DUP2 MSTORE PUSH1 0x20 PUSH1 0x4 DUP3 ADD DUP2 SWAP1 MSTORE PUSH1 0x24 DUP3 ADD MSTORE PUSH1 0x0 DUP1 MLOAD PUSH1 0x20 PUSH2 0x2CBF DUP4 CODECOPY DUP2 MLOAD SWAP2 MSTORE PUSH1 0x44 DUP3 ADD MSTORE SWAP1 MLOAD SWAP1 DUP2 SWAP1 SUB PUSH1 0x64 ADD SWAP1 REVERT JUMPDEST PUSH1 0x1 PUSH1 0x1 PUSH1 0xA0 SHL SUB AND PUSH1 0x0 SWAP1 DUP2 MSTORE PUSH1 0x9 PUSH1 0x20 MSTORE PUSH1 0x40 SWAP1 KECCAK256 DUP1 SLOAD PUSH1 0xFF NOT AND SWAP1 SSTORE JUMP JUMPDEST PUSH2 0x17E4 PUSH2 0x1A72 JUMP JUMPDEST PUSH1 0x0 SLOAD PUSH1 0x1 PUSH1 0x1 PUSH1 0xA0 SHL SUB SWAP1 DUP2 AND SWAP2 AND EQ PUSH2 0x1834 JUMPI PUSH1 0x40 DUP1 MLOAD PUSH3 0x461BCD PUSH1 0xE5 SHL DUP2 MSTORE PUSH1 0x20 PUSH1 0x4 DUP3 ADD DUP2 SWAP1 MSTORE PUSH1 0x24 DUP3 ADD MSTORE PUSH1 0x0 DUP1 MLOAD PUSH1 0x20 PUSH2 0x2CBF DUP4 CODECOPY DUP2 MLOAD SWAP2 MSTORE PUSH1 0x44 DUP3 ADD MSTORE SWAP1 MLOAD SWAP1 DUP2 SWAP1 SUB PUSH1 0x64 ADD SWAP1 REVERT JUMPDEST PUSH1 0x1 PUSH1 0x1 PUSH1 0xA0 SHL SUB DUP2 AND PUSH2 0x1879 JUMPI PUSH1 0x40 MLOAD PUSH3 0x461BCD PUSH1 0xE5 SHL DUP2 MSTORE PUSH1 0x4 ADD DUP1 DUP1 PUSH1 0x20 ADD DUP3 DUP2 SUB DUP3 MSTORE PUSH1 0x26 DUP2 MSTORE PUSH1 0x20 ADD DUP1 PUSH2 0x2C2E PUSH1 0x26 SWAP2 CODECOPY PUSH1 0x40 ADD SWAP2 POP POP PUSH1 0x40 MLOAD DUP1 SWAP2 SUB SWAP1 REVERT JUMPDEST PUSH1 0x0 DUP1 SLOAD PUSH1 0x40 MLOAD PUSH1 0x1 PUSH1 0x1 PUSH1 0xA0 SHL SUB DUP1 DUP6 AND SWAP4 SWAP3 AND SWAP2 PUSH32 0x8BE0079C531659141344CD1FD0A4F28419497F9722A3DAAFE3B4186F6B6457E0 SWAP2 LOG3 PUSH1 0x0 DUP1 SLOAD PUSH1 0x1 PUSH1 0x1 PUSH1 0xA0 SHL SUB NOT AND PUSH1 0x1 PUSH1 0x1 PUSH1 0xA0 SHL SUB SWAP3 SWAP1 SWAP3 AND SWAP2 SWAP1 SWAP2 OR SWAP1 SSTORE JUMP JUMPDEST PUSH2 0x18DC PUSH2 0x1A72 JUMP JUMPDEST PUSH1 0x0 SLOAD PUSH1 0x1 PUSH1 0x1 PUSH1 0xA0 SHL SUB SWAP1 DUP2 AND SWAP2 AND EQ PUSH2 0x192C JUMPI PUSH1 0x40 DUP1 MLOAD PUSH3 0x461BCD PUSH1 0xE5 SHL DUP2 MSTORE PUSH1 0x20 PUSH1 0x4 DUP3 ADD DUP2 SWAP1 MSTORE PUSH1 0x24 DUP3 ADD MSTORE PUSH1 0x0 DUP1 MLOAD PUSH1 0x20 PUSH2 0x2CBF DUP4 CODECOPY DUP2 MLOAD SWAP2 MSTORE PUSH1 0x44 DUP3 ADD MSTORE SWAP1 MLOAD SWAP1 DUP2 SWAP1 SUB PUSH1 0x64 ADD SWAP1 REVERT JUMPDEST PUSH20 0xEC0A7A0C2439E8CB67B992B12ECD020EA943C7BE PUSH1 0x1 PUSH1 0x1 PUSH1 0xA0 SHL SUB DUP3 AND EQ ISZERO PUSH2 0x199E JUMPI PUSH1 0x40 DUP1 MLOAD PUSH3 0x461BCD PUSH1 0xE5 SHL DUP2 MSTORE PUSH1 0x20 PUSH1 0x4 DUP3 ADD MSTORE PUSH1 0x1B PUSH1 0x24 DUP3 ADD MSTORE PUSH32 0x57652063616E206E6F7420626C61636B6C69737420526F757465720000000000 PUSH1 0x44 DUP3 ADD MSTORE SWAP1 MLOAD SWAP1 DUP2 SWAP1 SUB PUSH1 0x64 ADD SWAP1 REVERT JUMPDEST PUSH1 0x1 PUSH1 0x1 PUSH1 0xA0 SHL SUB DUP2 AND PUSH1 0x0 SWAP1 DUP2 MSTORE PUSH1 0x7 PUSH1 0x20 MSTORE PUSH1 0x40 SWAP1 KECCAK256 SLOAD PUSH1 0xFF AND ISZERO PUSH2 0x1A0C JUMPI PUSH1 0x40 DUP1 MLOAD PUSH3 0x461BCD PUSH1 0xE5 SHL DUP2 MSTORE PUSH1 0x20 PUSH1 0x4 DUP3 ADD MSTORE PUSH1 0x1E PUSH1 0x24 DUP3 ADD MSTORE PUSH32 0x4163636F756E7420697320616C726561647920626C61636B6C69737465640000 PUSH1 0x44 DUP3 ADD MSTORE SWAP1 MLOAD SWAP1 DUP2 SWAP1 SUB PUSH1 0x64 ADD SWAP1 REVERT JUMPDEST PUSH1 0x1 PUSH1 0x1 PUSH1 0xA0 SHL SUB AND PUSH1 0x0 DUP2 DUP2 MSTORE PUSH1 0x7 PUSH1 0x20 MSTORE PUSH1 0x40 DUP2 KECCAK256 DUP1 SLOAD PUSH1 0xFF NOT AND PUSH1 0x1 SWAP1 DUP2 OR SWAP1 SWAP2 SSTORE PUSH1 0x8 DUP1 SLOAD SWAP2 DUP3 ADD DUP2 SSTORE SWAP1 SWAP2 MSTORE PUSH32 0xF3F7A9FE364FAAB93B216DA50A3214154F22A0A2B415B23A84C8169E8B636EE3 ADD DUP1 SLOAD PUSH1 0x1 PUSH1 0x1 PUSH1 0xA0 SHL SUB NOT AND SWAP1 SWAP2 OR SWAP1 SSTORE JUMP JUMPDEST CALLER SWAP1 JUMP JUMPDEST PUSH1 0x1 PUSH1 0x1 PUSH1 0xA0 SHL SUB DUP4 AND PUSH2 0x1ABB JUMPI PUSH1 0x40 MLOAD PUSH3 0x461BCD PUSH1 0xE5 SHL DUP2 MSTORE PUSH1 0x4 ADD DUP1 DUP1 PUSH1 0x20 ADD DUP3 DUP2 SUB DUP3 MSTORE PUSH1 0x24 DUP2 MSTORE PUSH1 0x20 ADD DUP1 PUSH2 0x2D2D PUSH1 0x24 SWAP2 CODECOPY PUSH1 0x40 ADD SWAP2 POP POP PUSH1 0x40 MLOAD DUP1 SWAP2 SUB SWAP1 REVERT JUMPDEST PUSH1 0x1 PUSH1 0x1 PUSH1 0xA0 SHL SUB DUP3 AND PUSH2 0x1B00 JUMPI PUSH1 0x40 MLOAD PUSH3 0x461BCD PUSH1 0xE5 SHL DUP2 MSTORE PUSH1 0x4 ADD DUP1 DUP1 PUSH1 0x20 ADD DUP3 DUP2 SUB DUP3 MSTORE PUSH1 0x22 DUP2 MSTORE PUSH1 0x20 ADD DUP1 PUSH2 0x2C54 PUSH1 0x22 SWAP2 CODECOPY PUSH1 0x40 ADD SWAP2 POP POP PUSH1 0x40 MLOAD DUP1 SWAP2 SUB SWAP1 REVERT JUMPDEST PUSH1 0x1 PUSH1 0x1 PUSH1 0xA0 SHL SUB DUP1 DUP5 AND PUSH1 0x0 DUP2 DUP2 MSTORE PUSH1 0x6 PUSH1 0x20 SWAP1 DUP2 MSTORE PUSH1 0x40 DUP1 DUP4 KECCAK256 SWAP5 DUP8 AND DUP1 DUP5 MSTORE SWAP5 DUP3 MSTORE SWAP2 DUP3 SWAP1 KECCAK256 DUP6 SWAP1 SSTORE DUP2 MLOAD DUP6 DUP2 MSTORE SWAP2 MLOAD PUSH32 0x8C5BE1E5EBEC7D5BD14F71427D1E84F3DD0314C0F7B2291E5B200AC8C7C3B925 SWAP3 DUP2 SWAP1 SUB SWAP1 SWAP2 ADD SWAP1 LOG3 POP POP POP JUMP JUMPDEST PUSH1 0x1 PUSH1 0x1 PUSH1 0xA0 SHL SUB DUP4 AND PUSH2 0x1BA7 JUMPI PUSH1 0x40 MLOAD PUSH3 0x461BCD PUSH1 0xE5 SHL DUP2 MSTORE PUSH1 0x4 ADD DUP1 DUP1 PUSH1 0x20 ADD DUP3 DUP2 SUB DUP3 MSTORE PUSH1 0x25 DUP2 MSTORE PUSH1 0x20 ADD DUP1 PUSH2 0x2D08 PUSH1 0x25 SWAP2 CODECOPY PUSH1 0x40 ADD SWAP2 POP POP PUSH1 0x40 MLOAD DUP1 SWAP2 SUB SWAP1 REVERT JUMPDEST PUSH1 0x1 PUSH1 0x1 PUSH1 0xA0 SHL SUB DUP3 AND PUSH2 0x1BEC JUMPI PUSH1 0x40 MLOAD PUSH3 0x461BCD PUSH1 0xE5 SHL DUP2 MSTORE PUSH1 0x4 ADD DUP1 DUP1 PUSH1 0x20 ADD DUP3 DUP2 SUB DUP3 MSTORE PUSH1 0x23 DUP2 MSTORE PUSH1 0x20 ADD DUP1 PUSH2 0x2BE1 PUSH1 0x23 SWAP2 CODECOPY PUSH1 0x40 ADD SWAP2 POP POP PUSH1 0x40 MLOAD DUP1 SWAP2 SUB SWAP1 REVERT JUMPDEST PUSH1 0x0 DUP2 GT PUSH2 0x1C2B JUMPI PUSH1 0x40 MLOAD PUSH3 0x461BCD PUSH1 0xE5 SHL DUP2 MSTORE PUSH1 0x4 ADD DUP1 DUP1 PUSH1 0x20 ADD DUP3 DUP2 SUB DUP3 MSTORE PUSH1 0x29 DUP2 MSTORE PUSH1 0x20 ADD DUP1 PUSH2 0x2CDF PUSH1 0x29 SWAP2 CODECOPY PUSH1 0x40 ADD SWAP2 POP POP PUSH1 0x40 MLOAD DUP1 SWAP2 SUB SWAP1 REVERT JUMPDEST PUSH1 0x1 PUSH1 0x1 PUSH1 0xA0 SHL SUB DUP3 AND PUSH1 0x0 SWAP1 DUP2 MSTORE PUSH1 0x7 PUSH1 0x20 MSTORE PUSH1 0x40 SWAP1 KECCAK256 SLOAD PUSH1 0xFF AND ISZERO PUSH2 0x1C93 JUMPI PUSH1 0x40 DUP1 MLOAD PUSH3 0x461BCD PUSH1 0xE5 SHL DUP2 MSTORE PUSH1 0x20 PUSH1 0x4 DUP3 ADD MSTORE PUSH1 0x17 PUSH1 0x24 DUP3 ADD MSTORE PUSH23 0x596F752068617665206E6F20706F776572206865726521 PUSH1 0x48 SHL PUSH1 0x44 DUP3 ADD MSTORE SWAP1 MLOAD SWAP1 DUP2 SWAP1 SUB PUSH1 0x64 ADD SWAP1 REVERT JUMPDEST CALLER PUSH1 0x0 SWAP1 DUP2 MSTORE PUSH1 0x7 PUSH1 0x20 MSTORE PUSH1 0x40 SWAP1 KECCAK256 SLOAD PUSH1 0xFF AND ISZERO PUSH2 0x1CF2 JUMPI PUSH1 0x40 DUP1 MLOAD PUSH3 0x461BCD PUSH1 0xE5 SHL DUP2 MSTORE PUSH1 0x20 PUSH1 0x4 DUP3 ADD MSTORE PUSH1 0x17 PUSH1 0x24 DUP3 ADD MSTORE PUSH23 0x596F752068617665206E6F20706F776572206865726521 PUSH1 0x48 SHL PUSH1 0x44 DUP3 ADD MSTORE SWAP1 MLOAD SWAP1 DUP2 SWAP1 SUB PUSH1 0x64 ADD SWAP1 REVERT JUMPDEST PUSH1 0x19 SLOAD PUSH1 0x1 PUSH1 0x1 PUSH1 0xA0 SHL SUB DUP5 DUP2 AND SWAP2 AND EQ DUP1 ISZERO PUSH2 0x1D1D JUMPI POP PUSH1 0x18 SLOAD PUSH1 0x1 PUSH1 0x1 PUSH1 0xA0 SHL SUB DUP4 DUP2 AND SWAP2 AND EQ ISZERO JUMPDEST DUP1 ISZERO PUSH2 0x1D42 JUMPI POP PUSH1 0x1 PUSH1 0x1 PUSH1 0xA0 SHL SUB DUP3 AND PUSH1 0x0 SWAP1 DUP2 MSTORE PUSH1 0x9 PUSH1 0x20 MSTORE PUSH1 0x40 SWAP1 KECCAK256 SLOAD PUSH1 0xFF AND ISZERO JUMPDEST ISZERO PUSH2 0x1E15 JUMPI PUSH1 0x19 SLOAD PUSH1 0x1 PUSH1 0xA8 SHL SWAP1 DIV PUSH1 0xFF AND PUSH2 0x1DA5 JUMPI PUSH1 0x40 DUP1 MLOAD PUSH3 0x461BCD PUSH1 0xE5 SHL DUP2 MSTORE PUSH1 0x20 PUSH1 0x4 DUP3 ADD MSTORE PUSH1 0x18 PUSH1 0x24 DUP3 ADD MSTORE PUSH32 0x54726164696E67206E6F742079657420656E61626C65642E0000000000000000 PUSH1 0x44 DUP3 ADD MSTORE SWAP1 MLOAD SWAP1 DUP2 SWAP1 SUB PUSH1 0x64 ADD SWAP1 REVERT JUMPDEST PUSH1 0x17 SLOAD TIMESTAMP EQ ISZERO PUSH2 0x1E15 JUMPI PUSH1 0x1 PUSH1 0x1 PUSH1 0xA0 SHL SUB DUP3 AND PUSH1 0x0 DUP2 DUP2 MSTORE PUSH1 0x7 PUSH1 0x20 MSTORE PUSH1 0x40 DUP2 KECCAK256 DUP1 SLOAD PUSH1 0xFF NOT AND PUSH1 0x1 SWAP1 DUP2 OR SWAP1 SWAP2 SSTORE PUSH1 0x8 DUP1 SLOAD SWAP2 DUP3 ADD DUP2 SSTORE SWAP1 SWAP2 MSTORE PUSH32 0xF3F7A9FE364FAAB93B216DA50A3214154F22A0A2B415B23A84C8169E8B636EE3 ADD DUP1 SLOAD PUSH1 0x1 PUSH1 0x1 PUSH1 0xA0 SHL SUB NOT AND SWAP1 SWAP2 OR SWAP1 SSTORE JUMPDEST PUSH1 0x0 PUSH2 0x1E20 ADDRESS PUSH2 0x1334 JUMP JUMPDEST PUSH1 0x19 SLOAD SWAP1 SWAP2 POP PUSH1 0x1 PUSH1 0xA0 SHL SWAP1 DIV PUSH1 0xFF AND ISZERO DUP1 ISZERO PUSH2 0x1E46 JUMPI POP PUSH1 0x19 SLOAD PUSH1 0x1 PUSH1 0xA8 SHL SWAP1 DIV PUSH1 0xFF AND JUMPDEST DUP1 ISZERO PUSH2 0x1E5F JUMPI POP PUSH1 0x19 SLOAD PUSH1 0x1 PUSH1 0x1 PUSH1 0xA0 SHL SUB DUP5 DUP2 AND SWAP2 AND EQ JUMPDEST ISZERO PUSH2 0x1ED1 JUMPI DUP1 ISZERO PUSH2 0x1ED1 JUMPI PUSH1 0x16 SLOAD PUSH1 0x19 SLOAD PUSH2 0x1E9A SWAP2 PUSH1 0x64 SWAP2 PUSH2 0x1E94 SWAP2 SWAP1 PUSH2 0x1E8E SWAP1 PUSH1 0x1 PUSH1 0x1 PUSH1 0xA0 SHL SUB AND PUSH2 0x1334 JUMP JUMPDEST SWAP1 PUSH2 0x214F JUMP JUMPDEST SWAP1 PUSH2 0x201B JUMP JUMPDEST DUP2 GT ISZERO PUSH2 0x1EC8 JUMPI PUSH1 0x16 SLOAD PUSH1 0x19 SLOAD PUSH2 0x1EC5 SWAP2 PUSH1 0x64 SWAP2 PUSH2 0x1E94 SWAP2 SWAP1 PUSH2 0x1E8E SWAP1 PUSH1 0x1 PUSH1 0x1 PUSH1 0xA0 SHL SUB AND PUSH2 0x1334 JUMP JUMPDEST SWAP1 POP JUMPDEST PUSH2 0x1ED1 DUP2 PUSH2 0x21A8 JUMP JUMPDEST PUSH1 0x19 SLOAD PUSH1 0x0 SWAP1 PUSH1 0x1 PUSH1 0x1 PUSH1 0xA0 SHL SUB DUP7 DUP2 AND SWAP2 AND EQ DUP1 PUSH2 0x1EFD JUMPI POP PUSH1 0x19 SLOAD PUSH1 0x1 PUSH1 0x1 PUSH1 0xA0 SHL SUB DUP6 DUP2 AND SWAP2 AND EQ JUMPDEST DUP1 ISZERO PUSH2 0x1F45 JUMPI POP PUSH1 0x1 PUSH1 0x1 PUSH1 0xA0 SHL SUB DUP6 AND PUSH1 0x0 SWAP1 DUP2 MSTORE PUSH1 0x9 PUSH1 0x20 MSTORE PUSH1 0x40 SWAP1 KECCAK256 SLOAD PUSH1 0xFF AND DUP1 PUSH2 0x1F43 JUMPI POP PUSH1 0x1 PUSH1 0x1 PUSH1 0xA0 SHL SUB DUP5 AND PUSH1 0x0 SWAP1 DUP2 MSTORE PUSH1 0x9 PUSH1 0x20 MSTORE PUSH1 0x40 SWAP1 KECCAK256 SLOAD PUSH1 0xFF AND JUMPDEST ISZERO JUMPDEST ISZERO PUSH2 0x1F4E JUMPI POP PUSH1 0x1 JUMPDEST PUSH2 0x1F5A DUP6 DUP6 DUP6 DUP5 PUSH2 0x221F JUMP JUMPDEST POP POP POP POP POP JUMP JUMPDEST PUSH1 0x0 DUP2 DUP5 DUP5 GT ISZERO PUSH2 0x1FF0 JUMPI PUSH1 0x40 MLOAD PUSH3 0x461BCD PUSH1 0xE5 SHL DUP2 MSTORE PUSH1 0x4 ADD DUP1 DUP1 PUSH1 0x20 ADD DUP3 DUP2 SUB DUP3 MSTORE DUP4 DUP2 DUP2 MLOAD DUP2 MSTORE PUSH1 0x20 ADD SWAP2 POP DUP1 MLOAD SWAP1 PUSH1 0x20 ADD SWAP1 DUP1 DUP4 DUP4 PUSH1 0x0 JUMPDEST DUP4 DUP2 LT ISZERO PUSH2 0x1FB5 JUMPI DUP2 DUP2 ADD MLOAD DUP4 DUP3 ADD MSTORE PUSH1 0x20 ADD PUSH2 0x1F9D JUMP JUMPDEST POP POP POP POP SWAP1 POP SWAP1 DUP2 ADD SWAP1 PUSH1 0x1F AND DUP1 ISZERO PUSH2 0x1FE2 JUMPI DUP1 DUP3 SUB DUP1 MLOAD PUSH1 0x1 DUP4 PUSH1 0x20 SUB PUSH2 0x100 EXP SUB NOT AND DUP2 MSTORE PUSH1 0x20 ADD SWAP2 POP JUMPDEST POP SWAP3 POP POP POP PUSH1 0x40 MLOAD DUP1 SWAP2 SUB SWAP1 REVERT JUMPDEST POP POP POP SWAP1 SUB SWAP1 JUMP JUMPDEST PUSH1 0x0 DUP1 PUSH1 0x0 PUSH2 0x2005 PUSH2 0x2341 JUMP JUMPDEST SWAP1 SWAP3 POP SWAP1 POP PUSH2 0x2014 DUP3 DUP3 PUSH2 0x201B JUMP JUMPDEST SWAP3 POP POP POP SWAP1 JUMP JUMPDEST PUSH1 0x0 PUSH2 0x205D DUP4 DUP4 PUSH1 0x40 MLOAD DUP1 PUSH1 0x40 ADD PUSH1 0x40 MSTORE DUP1 PUSH1 0x1A DUP2 MSTORE PUSH1 0x20 ADD PUSH32 0x536166654D6174683A206469766973696F6E206279207A65726F000000000000 DUP2 MSTORE POP PUSH2 0x24A4 JUMP JUMPDEST SWAP4 SWAP3 POP POP POP JUMP JUMPDEST PUSH1 0x0 DUP3 DUP3 ADD DUP4 DUP2 LT ISZERO PUSH2 0x205D JUMPI PUSH1 0x40 DUP1 MLOAD PUSH3 0x461BCD PUSH1 0xE5 SHL DUP2 MSTORE PUSH1 0x20 PUSH1 0x4 DUP3 ADD MSTORE PUSH1 0x1B PUSH1 0x24 DUP3 ADD MSTORE PUSH32 0x536166654D6174683A206164646974696F6E206F766572666C6F770000000000 PUSH1 0x44 DUP3 ADD MSTORE SWAP1 MLOAD SWAP1 DUP2 SWAP1 SUB PUSH1 0x64 ADD SWAP1 REVERT JUMPDEST PUSH1 0x0 DUP1 PUSH1 0x0 DUP1 PUSH1 0x0 DUP1 PUSH1 0x0 DUP1 PUSH1 0x0 PUSH2 0x20D5 DUP11 PUSH2 0x2509 JUMP JUMPDEST SWAP3 POP SWAP3 POP SWAP3 POP PUSH1 0x0 DUP1 PUSH1 0x0 PUSH2 0x20F3 DUP14 DUP7 DUP7 PUSH2 0x20EE PUSH2 0x1FF8 JUMP JUMPDEST PUSH2 0x254B JUMP JUMPDEST SWAP2 SWAP16 SWAP1 SWAP15 POP SWAP1 SWAP13 POP SWAP6 SWAP11 POP SWAP4 SWAP9 POP SWAP2 SWAP7 POP SWAP3 SWAP5 POP POP POP POP POP JUMP JUMPDEST PUSH1 0x0 PUSH2 0x205D DUP4 DUP4 PUSH1 0x40 MLOAD DUP1 PUSH1 0x40 ADD PUSH1 0x40 MSTORE DUP1 PUSH1 0x1E DUP2 MSTORE PUSH1 0x20 ADD PUSH32 0x536166654D6174683A207375627472616374696F6E206F766572666C6F770000 DUP2 MSTORE POP PUSH2 0x1F61 JUMP JUMPDEST PUSH1 0x0 DUP3 PUSH2 0x215E JUMPI POP PUSH1 0x0 PUSH2 0xA3F JUMP JUMPDEST DUP3 DUP3 MUL DUP3 DUP5 DUP3 DUP2 PUSH2 0x216B JUMPI INVALID JUMPDEST DIV EQ PUSH2 0x205D JUMPI PUSH1 0x40 MLOAD PUSH3 0x461BCD PUSH1 0xE5 SHL DUP2 MSTORE PUSH1 0x4 ADD DUP1 DUP1 PUSH1 0x20 ADD DUP3 DUP2 SUB DUP3 MSTORE PUSH1 0x21 DUP2 MSTORE PUSH1 0x20 ADD DUP1 PUSH2 0x2C76 PUSH1 0x21 SWAP2 CODECOPY PUSH1 0x40 ADD SWAP2 POP POP PUSH1 0x40 MLOAD DUP1 SWAP2 SUB SWAP1 REVERT JUMPDEST PUSH1 0x19 DUP1 SLOAD PUSH1 0xFF PUSH1 0xA0 SHL NOT AND PUSH1 0x1 PUSH1 0xA0 SHL OR SWAP1 SSTORE PUSH2 0x21C4 DUP2 PUSH2 0x259B JUMP JUMPDEST PUSH1 0x40 DUP1 MLOAD DUP3 DUP2 MSTORE SELFBALANCE PUSH1 0x20 DUP3 ADD DUP2 SWAP1 MSTORE DUP3 MLOAD SWAP1 SWAP3 PUSH32 0x738B737502DF4C5F230BBB98A45EA9C2821BAD262E880F883357AD3695F8DAE4 SWAP3 DUP3 SWAP1 SUB ADD SWAP1 LOG1 DUP1 ISZERO PUSH2 0x220E JUMPI PUSH2 0x220E SELFBALANCE PUSH2 0x27C6 JUMP JUMPDEST POP POP PUSH1 0x19 DUP1 SLOAD PUSH1 0xFF PUSH1 0xA0 SHL NOT AND SWAP1 SSTORE JUMP JUMPDEST DUP1 PUSH2 0x222C JUMPI PUSH2 0x222C PUSH2 0x2837 JUMP JUMPDEST PUSH1 0x1 PUSH1 0x1 PUSH1 0xA0 SHL SUB DUP5 AND PUSH1 0x0 SWAP1 DUP2 MSTORE PUSH1 0xA PUSH1 0x20 MSTORE PUSH1 0x40 SWAP1 KECCAK256 SLOAD PUSH1 0xFF AND DUP1 ISZERO PUSH2 0x226D JUMPI POP PUSH1 0x1 PUSH1 0x1 PUSH1 0xA0 SHL SUB DUP4 AND PUSH1 0x0 SWAP1 DUP2 MSTORE PUSH1 0xA PUSH1 0x20 MSTORE PUSH1 0x40 SWAP1 KECCAK256 SLOAD PUSH1 0xFF AND ISZERO JUMPDEST ISZERO PUSH2 0x2282 JUMPI PUSH2 0x227D DUP5 DUP5 DUP5 PUSH2 0x2869 JUMP JUMPDEST PUSH2 0x232E JUMP JUMPDEST PUSH1 0x1 PUSH1 0x1 PUSH1 0xA0 SHL SUB DUP5 AND PUSH1 0x0 SWAP1 DUP2 MSTORE PUSH1 0xA PUSH1 0x20 MSTORE PUSH1 0x40 SWAP1 KECCAK256 SLOAD PUSH1 0xFF AND ISZERO DUP1 ISZERO PUSH2 0x22C3 JUMPI POP PUSH1 0x1 PUSH1 0x1 PUSH1 0xA0 SHL SUB DUP4 AND PUSH1 0x0 SWAP1 DUP2 MSTORE PUSH1 0xA PUSH1 0x20 MSTORE PUSH1 0x40 SWAP1 KECCAK256 SLOAD PUSH1 0xFF AND JUMPDEST ISZERO PUSH2 0x22D3 JUMPI PUSH2 0x227D DUP5 DUP5 DUP5 PUSH2 0x298D JUMP JUMPDEST PUSH1 0x1 PUSH1 0x1 PUSH1 0xA0 SHL SUB DUP5 AND PUSH1 0x0 SWAP1 DUP2 MSTORE PUSH1 0xA PUSH1 0x20 MSTORE PUSH1 0x40 SWAP1 KECCAK256 SLOAD PUSH1 0xFF AND DUP1 ISZERO PUSH2 0x2313 JUMPI POP PUSH1 0x1 PUSH1 0x1 PUSH1 0xA0 SHL SUB DUP4 AND PUSH1 0x0 SWAP1 DUP2 MSTORE PUSH1 0xA PUSH1 0x20 MSTORE PUSH1 0x40 SWAP1 KECCAK256 SLOAD PUSH1 0xFF AND JUMPDEST ISZERO PUSH2 0x2323 JUMPI PUSH2 0x227D DUP5 DUP5 DUP5 PUSH2 0x2A36 JUMP JUMPDEST PUSH2 0x232E DUP5 DUP5 DUP5 PUSH2 0x2AA9 JUMP JUMPDEST DUP1 PUSH2 0x233B JUMPI PUSH2 0x233B PUSH2 0x2AED JUMP JUMPDEST POP POP POP POP JUMP JUMPDEST PUSH1 0xD SLOAD PUSH1 0xC SLOAD PUSH1 0x0 SWAP2 DUP3 SWAP2 DUP3 JUMPDEST PUSH1 0xB SLOAD DUP2 LT ISZERO PUSH2 0x2472 JUMPI DUP3 PUSH1 0x4 PUSH1 0x0 PUSH1 0xB DUP5 DUP2 SLOAD DUP2 LT PUSH2 0x236A JUMPI INVALID JUMPDEST PUSH1 0x0 SWAP2 DUP3 MSTORE PUSH1 0x20 DUP1 DUP4 KECCAK256 SWAP1 SWAP2 ADD SLOAD PUSH1 0x1 PUSH1 0x1 PUSH1 0xA0 SHL SUB AND DUP4 MSTORE DUP3 ADD SWAP3 SWAP1 SWAP3 MSTORE PUSH1 0x40 ADD SWAP1 KECCAK256 SLOAD GT DUP1 PUSH2 0x23CF JUMPI POP DUP2 PUSH1 0x5 PUSH1 0x0 PUSH1 0xB DUP5 DUP2 SLOAD DUP2 LT PUSH2 0x23A8 JUMPI INVALID JUMPDEST PUSH1 0x0 SWAP2 DUP3 MSTORE PUSH1 0x20 DUP1 DUP4 KECCAK256 SWAP1 SWAP2 ADD SLOAD PUSH1 0x1 PUSH1 0x1 PUSH1 0xA0 SHL SUB AND DUP4 MSTORE DUP3 ADD SWAP3 SWAP1 SWAP3 MSTORE PUSH1 0x40 ADD SWAP1 KECCAK256 SLOAD GT JUMPDEST ISZERO PUSH2 0x23E6 JUMPI PUSH1 0xD SLOAD PUSH1 0xC SLOAD SWAP5 POP SWAP5 POP POP POP POP PUSH2 0x24A0 JUMP JUMPDEST PUSH2 0x2426 PUSH1 0x4 PUSH1 0x0 PUSH1 0xB DUP5 DUP2 SLOAD DUP2 LT PUSH2 0x23FA JUMPI INVALID JUMPDEST PUSH1 0x0 SWAP2 DUP3 MSTORE PUSH1 0x20 DUP1 DUP4 KECCAK256 SWAP1 SWAP2 ADD SLOAD PUSH1 0x1 PUSH1 0x1 PUSH1 0xA0 SHL SUB AND DUP4 MSTORE DUP3 ADD SWAP3 SWAP1 SWAP3 MSTORE PUSH1 0x40 ADD SWAP1 KECCAK256 SLOAD DUP5 SWAP1 PUSH2 0x210D JUMP JUMPDEST SWAP3 POP PUSH2 0x2468 PUSH1 0x5 PUSH1 0x0 PUSH1 0xB DUP5 DUP2 SLOAD DUP2 LT PUSH2 0x243C JUMPI INVALID JUMPDEST PUSH1 0x0 SWAP2 DUP3 MSTORE PUSH1 0x20 DUP1 DUP4 KECCAK256 SWAP1 SWAP2 ADD SLOAD PUSH1 0x1 PUSH1 0x1 PUSH1 0xA0 SHL SUB AND DUP4 MSTORE DUP3 ADD SWAP3 SWAP1 SWAP3 MSTORE PUSH1 0x40 ADD SWAP1 KECCAK256 SLOAD DUP4 SWAP1 PUSH2 0x210D JUMP JUMPDEST SWAP2 POP PUSH1 0x1 ADD PUSH2 0x234E JUMP JUMPDEST POP PUSH1 0xC SLOAD PUSH1 0xD SLOAD PUSH2 0x2482 SWAP2 PUSH2 0x201B JUMP JUMPDEST DUP3 LT ISZERO PUSH2 0x249A JUMPI PUSH1 0xD SLOAD PUSH1 0xC SLOAD SWAP4 POP SWAP4 POP POP POP PUSH2 0x24A0 JUMP JUMPDEST SWAP1 SWAP3 POP SWAP1 POP JUMPDEST SWAP1 SWAP2 JUMP JUMPDEST PUSH1 0x0 DUP2 DUP4 PUSH2 0x24F3 JUMPI PUSH1 0x40 MLOAD PUSH3 0x461BCD PUSH1 0xE5 SHL DUP2 MSTORE PUSH1 0x20 PUSH1 0x4 DUP3 ADD DUP2 DUP2 MSTORE DUP4 MLOAD PUSH1 0x24 DUP5 ADD MSTORE DUP4 MLOAD SWAP1 SWAP3 DUP4 SWAP3 PUSH1 0x44 SWAP1 SWAP2 ADD SWAP2 SWAP1 DUP6 ADD SWAP1 DUP1 DUP4 DUP4 PUSH1 0x0 DUP4 ISZERO PUSH2 0x1FB5 JUMPI DUP2 DUP2 ADD MLOAD DUP4 DUP3 ADD MSTORE PUSH1 0x20 ADD PUSH2 0x1F9D JUMP JUMPDEST POP PUSH1 0x0 DUP4 DUP6 DUP2 PUSH2 0x24FF JUMPI INVALID JUMPDEST DIV SWAP6 SWAP5 POP POP POP POP POP JUMP JUMPDEST PUSH1 0x0 DUP1 PUSH1 0x0 DUP1 PUSH2 0x2518 DUP6 PUSH2 0x2AFB JUMP JUMPDEST SWAP1 POP PUSH1 0x0 PUSH2 0x2525 DUP7 PUSH2 0x2B17 JUMP JUMPDEST SWAP1 POP PUSH1 0x0 PUSH2 0x253D DUP3 PUSH2 0x2537 DUP10 DUP7 PUSH2 0x210D JUMP JUMPDEST SWAP1 PUSH2 0x210D JUMP JUMPDEST SWAP8 SWAP3 SWAP7 POP SWAP1 SWAP5 POP SWAP1 SWAP3 POP POP POP JUMP JUMPDEST PUSH1 0x0 DUP1 DUP1 DUP1 PUSH2 0x255A DUP9 DUP7 PUSH2 0x214F JUMP JUMPDEST SWAP1 POP PUSH1 0x0 PUSH2 0x2568 DUP9 DUP8 PUSH2 0x214F JUMP JUMPDEST SWAP1 POP PUSH1 0x0 PUSH2 0x2576 DUP9 DUP9 PUSH2 0x214F JUMP JUMPDEST SWAP1 POP PUSH1 0x0 PUSH2 0x2588 DUP3 PUSH2 0x2537 DUP7 DUP7 PUSH2 0x210D JUMP JUMPDEST SWAP4 SWAP12 SWAP4 SWAP11 POP SWAP2 SWAP9 POP SWAP2 SWAP7 POP POP POP POP POP POP POP JUMP JUMPDEST PUSH1 0x40 DUP1 MLOAD PUSH1 0x2 DUP1 DUP3 MSTORE PUSH1 0x60 DUP1 DUP4 ADD DUP5 MSTORE SWAP3 PUSH1 0x20 DUP4 ADD SWAP1 DUP1 CALLDATASIZE DUP4 CALLDATACOPY ADD SWAP1 POP POP SWAP1 POP ADDRESS DUP2 PUSH1 0x0 DUP2 MLOAD DUP2 LT PUSH2 0x25C9 JUMPI INVALID JUMPDEST PUSH1 0x1 PUSH1 0x1 PUSH1 0xA0 SHL SUB SWAP3 DUP4 AND PUSH1 0x20 SWAP2 DUP3 MUL SWAP3 SWAP1 SWAP3 ADD DUP2 ADD SWAP2 SWAP1 SWAP2 MSTORE PUSH1 0x18 SLOAD PUSH1 0x40 DUP1 MLOAD PUSH4 0x15AB88C9 PUSH1 0xE3 SHL DUP2 MSTORE SWAP1 MLOAD SWAP2 SWAP1 SWAP4 AND SWAP3 PUSH4 0xAD5C4648 SWAP3 PUSH1 0x4 DUP1 DUP4 ADD SWAP4 SWAP2 SWAP3 DUP3 SWAP1 SUB ADD DUP2 DUP7 DUP1 EXTCODESIZE ISZERO DUP1 ISZERO PUSH2 0x261D JUMPI PUSH1 0x0 DUP1 REVERT JUMPDEST POP GAS STATICCALL ISZERO DUP1 ISZERO PUSH2 0x2631 JUMPI RETURNDATASIZE PUSH1 0x0 DUP1 RETURNDATACOPY RETURNDATASIZE PUSH1 0x0 REVERT JUMPDEST POP POP POP POP PUSH1 0x40 MLOAD RETURNDATASIZE PUSH1 0x20 DUP2 LT ISZERO PUSH2 0x2647 JUMPI PUSH1 0x0 DUP1 REVERT JUMPDEST POP MLOAD DUP2 MLOAD DUP3 SWAP1 PUSH1 0x1 SWAP1 DUP2 LT PUSH2 0x2658 JUMPI INVALID JUMPDEST PUSH1 0x1 PUSH1 0x1 PUSH1 0xA0 SHL SUB SWAP3 DUP4 AND PUSH1 0x20 SWAP2 DUP3 MUL SWAP3 SWAP1 SWAP3 ADD ADD MSTORE PUSH1 0x18 SLOAD PUSH2 0x267E SWAP2 ADDRESS SWAP2 AND DUP5 PUSH2 0x1A76 JUMP JUMPDEST PUSH1 0x18 SLOAD PUSH1 0x40 MLOAD PUSH4 0x791AC947 PUSH1 0xE0 SHL DUP2 MSTORE PUSH1 0x4 DUP2 ADD DUP5 DUP2 MSTORE PUSH1 0x0 PUSH1 0x24 DUP4 ADD DUP2 SWAP1 MSTORE ADDRESS PUSH1 0x64 DUP5 ADD DUP2 SWAP1 MSTORE TIMESTAMP PUSH1 0x84 DUP6 ADD DUP2 SWAP1 MSTORE PUSH1 0xA0 PUSH1 0x44 DUP7 ADD SWAP1 DUP2 MSTORE DUP8 MLOAD PUSH1 0xA4 DUP8 ADD MSTORE DUP8 MLOAD PUSH1 0x1 PUSH1 0x1 PUSH1 0xA0 SHL SUB SWAP1 SWAP8 AND SWAP7 PUSH4 0x791AC947 SWAP7 DUP11 SWAP7 DUP11 SWAP6 SWAP5 SWAP4 SWAP1 SWAP3 SWAP1 SWAP2 PUSH1 0xC4 ADD SWAP1 PUSH1 0x20 DUP1 DUP9 ADD SWAP2 MUL DUP1 DUP4 DUP4 DUP12 JUMPDEST DUP4 DUP2 LT ISZERO PUSH2 0x2704 JUMPI DUP2 DUP2 ADD MLOAD DUP4 DUP3 ADD MSTORE PUSH1 0x20 ADD PUSH2 0x26EC JUMP JUMPDEST POP POP POP POP SWAP1 POP ADD SWAP7 POP POP POP POP POP POP POP PUSH1 0x0 PUSH1 0x40 MLOAD DUP1 DUP4 SUB DUP2 PUSH1 0x0 DUP8 DUP1 EXTCODESIZE ISZERO DUP1 ISZERO PUSH2 0x272D JUMPI PUSH1 0x0 DUP1 REVERT JUMPDEST POP GAS CALL ISZERO DUP1 ISZERO PUSH2 0x2741 JUMPI RETURNDATASIZE PUSH1 0x0 DUP1 RETURNDATACOPY RETURNDATASIZE PUSH1 0x0 REVERT JUMPDEST POP POP POP POP PUSH32 0x32CDE87EB454F3A0B875AB23547023107CFAD454363EC88BA5695E2C24AA52A7 DUP3 DUP3 PUSH1 0x40 MLOAD DUP1 DUP4 DUP2 MSTORE PUSH1 0x20 ADD DUP1 PUSH1 0x20 ADD DUP3 DUP2 SUB DUP3 MSTORE DUP4 DUP2 DUP2 MLOAD DUP2 MSTORE PUSH1 0x20 ADD SWAP2 POP DUP1 MLOAD SWAP1 PUSH1 0x20 ADD SWAP1 PUSH1 0x20 MUL DUP1 DUP4 DUP4 PUSH1 0x0 JUMPDEST DUP4 DUP2 LT ISZERO PUSH2 0x27AE JUMPI DUP2 DUP2 ADD MLOAD DUP4 DUP3 ADD MSTORE PUSH1 0x20 ADD PUSH2 0x2796 JUMP JUMPDEST POP POP POP POP SWAP1 POP ADD SWAP4 POP POP POP POP PUSH1 0x40 MLOAD DUP1 SWAP2 SUB SWAP1 LOG1 POP POP JUMP JUMPDEST PUSH1 0x3 SLOAD PUSH1 0x40 MLOAD PUSH1 0x1 PUSH1 0x1 PUSH1 0xA0 SHL SUB SWAP1 SWAP2 AND SWAP1 DUP3 ISZERO PUSH2 0x8FC MUL SWAP1 DUP4 SWAP1 PUSH1 0x0 DUP2 DUP2 DUP2 DUP6 DUP9 DUP9 CALL SWAP4 POP POP POP POP ISZERO DUP1 ISZERO PUSH2 0x2800 JUMPI RETURNDATASIZE PUSH1 0x0 DUP1 RETURNDATACOPY RETURNDATASIZE PUSH1 0x0 REVERT JUMPDEST POP PUSH1 0x40 DUP1 MLOAD DUP3 DUP2 MSTORE SWAP1 MLOAD PUSH32 0xB6B34F3CFEF2B0BB0E47223AB355FF7C3615A62FE5F469444611E679411246C6 SWAP2 DUP2 SWAP1 SUB PUSH1 0x20 ADD SWAP1 LOG1 POP JUMP JUMPDEST PUSH1 0x12 SLOAD ISZERO DUP1 ISZERO PUSH2 0x2847 JUMPI POP PUSH1 0x14 SLOAD ISZERO JUMPDEST ISZERO PUSH2 0x2851 JUMPI PUSH2 0x2867 JUMP JUMPDEST PUSH1 0x12 DUP1 SLOAD PUSH1 0x13 SSTORE PUSH1 0x14 DUP1 SLOAD PUSH1 0x15 SSTORE PUSH1 0x0 SWAP2 DUP3 SWAP1 SSTORE SSTORE JUMPDEST JUMP JUMPDEST PUSH1 0x0 DUP1 PUSH1 0x0 DUP1 PUSH1 0x0 DUP1 PUSH2 0x287B DUP8 PUSH2 0x20BE JUMP JUMPDEST PUSH1 0x1 PUSH1 0x1 PUSH1 0xA0 SHL SUB DUP16 AND PUSH1 0x0 SWAP1 DUP2 MSTORE PUSH1 0x5 PUSH1 0x20 MSTORE PUSH1 0x40 SWAP1 KECCAK256 SLOAD SWAP6 SWAP12 POP SWAP4 SWAP10 POP SWAP2 SWAP8 POP SWAP6 POP SWAP4 POP SWAP2 POP PUSH2 0x28AD SWAP1 DUP9 PUSH2 0x210D JUMP JUMPDEST PUSH1 0x1 PUSH1 0x1 PUSH1 0xA0 SHL SUB DUP11 AND PUSH1 0x0 SWAP1 DUP2 MSTORE PUSH1 0x5 PUSH1 0x20 SWAP1 DUP2 MSTORE PUSH1 0x40 DUP1 DUP4 KECCAK256 SWAP4 SWAP1 SWAP4 SSTORE PUSH1 0x4 SWAP1 MSTORE KECCAK256 SLOAD PUSH2 0x28DC SWAP1 DUP8 PUSH2 0x210D JUMP JUMPDEST PUSH1 0x1 PUSH1 0x1 PUSH1 0xA0 SHL SUB DUP1 DUP12 AND PUSH1 0x0 SWAP1 DUP2 MSTORE PUSH1 0x4 PUSH1 0x20 MSTORE PUSH1 0x40 DUP1 DUP3 KECCAK256 SWAP4 SWAP1 SWAP4 SSTORE SWAP1 DUP11 AND DUP2 MSTORE KECCAK256 SLOAD PUSH2 0x290B SWAP1 DUP7 PUSH2 0x2064 JUMP JUMPDEST PUSH1 0x1 PUSH1 0x1 PUSH1 0xA0 SHL SUB DUP10 AND PUSH1 0x0 SWAP1 DUP2 MSTORE PUSH1 0x4 PUSH1 0x20 MSTORE PUSH1 0x40 SWAP1 KECCAK256 SSTORE PUSH2 0x292D DUP2 PUSH2 0x2B33 JUMP JUMPDEST PUSH2 0x2937 DUP5 DUP4 PUSH2 0x2BBC JUMP JUMPDEST DUP8 PUSH1 0x1 PUSH1 0x1 PUSH1 0xA0 SHL SUB AND DUP10 PUSH1 0x1 PUSH1 0x1 PUSH1 0xA0 SHL SUB AND PUSH32 0xDDF252AD1BE2C89B69C2B068FC378DAA952BA7F163C4A11628F55A4DF523B3EF DUP6 PUSH1 0x40 MLOAD DUP1 DUP3 DUP2 MSTORE PUSH1 0x20 ADD SWAP2 POP POP PUSH1 0x40 MLOAD DUP1 SWAP2 SUB SWAP1 LOG3 POP POP POP POP POP POP POP POP POP JUMP JUMPDEST PUSH1 0x0 DUP1 PUSH1 0x0 DUP1 PUSH1 0x0 DUP1 PUSH2 0x299F DUP8 PUSH2 0x20BE JUMP JUMPDEST PUSH1 0x1 PUSH1 0x1 PUSH1 0xA0 SHL SUB DUP16 AND PUSH1 0x0 SWAP1 DUP2 MSTORE PUSH1 0x4 PUSH1 0x20 MSTORE PUSH1 0x40 SWAP1 KECCAK256 SLOAD SWAP6 SWAP12 POP SWAP4 SWAP10 POP SWAP2 SWAP8 POP SWAP6 POP SWAP4 POP SWAP2 POP PUSH2 0x29D1 SWAP1 DUP8 PUSH2 0x210D JUMP JUMPDEST PUSH1 0x1 PUSH1 0x1 PUSH1 0xA0 SHL SUB DUP1 DUP12 AND PUSH1 0x0 SWAP1 DUP2 MSTORE PUSH1 0x4 PUSH1 0x20 SWAP1 DUP2 MSTORE PUSH1 0x40 DUP1 DUP4 KECCAK256 SWAP5 SWAP1 SWAP5 SSTORE SWAP2 DUP12 AND DUP2 MSTORE PUSH1 0x5 SWAP1 SWAP2 MSTORE KECCAK256 SLOAD PUSH2 0x2A07 SWAP1 DUP5 PUSH2 0x2064 JUMP JUMPDEST PUSH1 0x1 PUSH1 0x1 PUSH1 0xA0 SHL SUB DUP10 AND PUSH1 0x0 SWAP1 DUP2 MSTORE PUSH1 0x5 PUSH1 0x20 SWAP1 DUP2 MSTORE PUSH1 0x40 DUP1 DUP4 KECCAK256 SWAP4 SWAP1 SWAP4 SSTORE PUSH1 0x4 SWAP1 MSTORE KECCAK256 SLOAD PUSH2 0x290B SWAP1 DUP7 PUSH2 0x2064 JUMP JUMPDEST PUSH1 0x0 DUP1 PUSH1 0x0 DUP1 PUSH1 0x0 DUP1 PUSH2 0x2A48 DUP8 PUSH2 0x20BE JUMP JUMPDEST PUSH1 0x1 PUSH1 0x1 PUSH1 0xA0 SHL SUB DUP16 AND PUSH1 0x0 SWAP1 DUP2 MSTORE PUSH1 0x5 PUSH1 0x20 MSTORE PUSH1 0x40 SWAP1 KECCAK256 SLOAD SWAP6 SWAP12 POP SWAP4 SWAP10 POP SWAP2 SWAP8 POP SWAP6 POP SWAP4 POP SWAP2 POP PUSH2 0x2A7A SWAP1 DUP9 PUSH2 0x210D JUMP JUMPDEST PUSH1 0x1 PUSH1 0x1 PUSH1 0xA0 SHL SUB DUP11 AND PUSH1 0x0 SWAP1 DUP2 MSTORE PUSH1 0x5 PUSH1 0x20 SWAP1 DUP2 MSTORE PUSH1 0x40 DUP1 DUP4 KECCAK256 SWAP4 SWAP1 SWAP4 SSTORE PUSH1 0x4 SWAP1 MSTORE KECCAK256 SLOAD PUSH2 0x29D1 SWAP1 DUP8 PUSH2 0x210D JUMP JUMPDEST PUSH1 0x0 DUP1 PUSH1 0x0 DUP1 PUSH1 0x0 DUP1 PUSH2 0x2ABB DUP8 PUSH2 0x20BE JUMP JUMPDEST PUSH1 0x1 PUSH1 0x1 PUSH1 0xA0 SHL SUB DUP16 AND PUSH1 0x0 SWAP1 DUP2 MSTORE PUSH1 0x4 PUSH1 0x20 MSTORE PUSH1 0x40 SWAP1 KECCAK256 SLOAD SWAP6 SWAP12 POP SWAP4 SWAP10 POP SWAP2 SWAP8 POP SWAP6 POP SWAP4 POP SWAP2 POP PUSH2 0x28DC SWAP1 DUP8 PUSH2 0x210D JUMP JUMPDEST PUSH1 0x13 SLOAD PUSH1 0x12 SSTORE PUSH1 0x15 SLOAD PUSH1 0x14 SSTORE JUMP JUMPDEST PUSH1 0x0 PUSH2 0xA3F PUSH1 0x64 PUSH2 0x1E94 PUSH1 0x12 SLOAD DUP6 PUSH2 0x214F SWAP1 SWAP2 SWAP1 PUSH4 0xFFFFFFFF AND JUMP JUMPDEST PUSH1 0x0 PUSH2 0xA3F PUSH1 0x64 PUSH2 0x1E94 PUSH1 0x14 SLOAD DUP6 PUSH2 0x214F SWAP1 SWAP2 SWAP1 PUSH4 0xFFFFFFFF AND JUMP JUMPDEST PUSH1 0x0 PUSH2 0x2B3D PUSH2 0x1FF8 JUMP JUMPDEST SWAP1 POP PUSH1 0x0 PUSH2 0x2B4B DUP4 DUP4 PUSH2 0x214F JUMP JUMPDEST ADDRESS PUSH1 0x0 SWAP1 DUP2 MSTORE PUSH1 0x4 PUSH1 0x20 MSTORE PUSH1 0x40 SWAP1 KECCAK256 SLOAD SWAP1 SWAP2 POP PUSH2 0x2B68 SWAP1 DUP3 PUSH2 0x2064 JUMP JUMPDEST ADDRESS PUSH1 0x0 SWAP1 DUP2 MSTORE PUSH1 0x4 PUSH1 0x20 SWAP1 DUP2 MSTORE PUSH1 0x40 DUP1 DUP4 KECCAK256 SWAP4 SWAP1 SWAP4 SSTORE PUSH1 0xA SWAP1 MSTORE KECCAK256 SLOAD PUSH1 0xFF AND ISZERO PUSH2 0x2BB7 JUMPI ADDRESS PUSH1 0x0 SWAP1 DUP2 MSTORE PUSH1 0x5 PUSH1 0x20 MSTORE PUSH1 0x40 SWAP1 KECCAK256 SLOAD PUSH2 0x2BA6 SWAP1 DUP5 PUSH2 0x2064 JUMP JUMPDEST ADDRESS PUSH1 0x0 SWAP1 DUP2 MSTORE PUSH1 0x5 PUSH1 0x20 MSTORE PUSH1 0x40 SWAP1 KECCAK256 SSTORE JUMPDEST POP POP POP JUMP JUMPDEST PUSH1 0xD SLOAD PUSH2 0x2BC9 SWAP1 DUP4 PUSH2 0x210D JUMP JUMPDEST PUSH1 0xD SSTORE PUSH1 0xE SLOAD PUSH2 0x2BD9 SWAP1 DUP3 PUSH2 0x2064 JUMP JUMPDEST PUSH1 0xE SSTORE POP POP JUMP INVALID GASLIMIT MSTORE NUMBER ORIGIN ADDRESS GASPRICE KECCAK256 PUSH21 0x72616E7366657220746F20746865207A65726F2061 PUSH5 0x6472657373 COINBASE PUSH14 0x6F756E74206D757374206265206C PUSH6 0x737320746861 PUSH15 0x20746F74616C207265666C65637469 PUSH16 0x6E734F776E61626C653A206E6577206F PUSH24 0x6E657220697320746865207A65726F206164647265737345 MSTORE NUMBER ORIGIN ADDRESS GASPRICE KECCAK256 PUSH2 0x7070 PUSH19 0x6F766520746F20746865207A65726F20616464 PUSH19 0x657373536166654D6174683A206D756C746970 PUSH13 0x69636174696F6E206F76657266 PUSH13 0x6F7745524332303A207472616E PUSH20 0x66657220616D6F756E7420657863656564732061 PUSH13 0x6C6F77616E63654F776E61626C PUSH6 0x3A2063616C6C PUSH6 0x72206973206E PUSH16 0x7420746865206F776E65725472616E73 PUSH7 0x657220616D6F75 PUSH15 0x74206D757374206265206772656174 PUSH6 0x72207468616E KECCAK256 PUSH27 0x65726F45524332303A207472616E736665722066726F6D20746865 KECCAK256 PUSH27 0x65726F206164647265737345524332303A20617070726F76652066 PUSH19 0x6F6D20746865207A65726F2061646472657373 GASLIMIT PUSH25 0x636C75646564206164647265737365732063616E6E6F742063 PUSH2 0x6C6C KECCAK256 PUSH21 0x6869732066756E6374696F6E45524332303A206465 PUSH4 0x72656173 PUSH6 0x6420616C6C6F PUSH24 0x616E63652062656C6F77207A65726FA26469706673582212 KECCAK256 XOR 0xBA 0xCC KECCAK256 0xC1 DUP7 SWAP14 SWAP12 0xE3 0xFC PUSH27 0x349F96A8F4239B07790893842F0C321C509A603F7C64736F6C6343 STOP MOD 0xC STOP CALLER "
				},
				"gasEstimates": {
					"creation": {
						"codeDepositCost": "2347000",
						"executionCost": "infinite",
						"totalCost": "infinite"
					},
					"external": {
						"_amnestySniper(address)": "infinite",
						"_liquidityFee()": "1088",
						"_removeSniper(address)": "infinite",
						"_taxFee()": "1110",
						"allowance(address,address)": "1316",
						"approve(address,uint256)": "infinite",
						"balanceOf(address)": "infinite",
						"deadAddress()": "infinite",
						"decimals()": "1147",
						"decreaseAllowance(address,uint256)": "infinite",
						"deliver(uint256)": "infinite",
						"emergencyWithdraw()": "infinite",
						"excludeFromFee(address)": "infinite",
						"excludeFromReward(address)": "infinite",
						"getBlockTime()": "242",
						"includeInFee(address)": "infinite",
						"includeInReward(address)": "infinite",
						"increaseAllowance(address,uint256)": "infinite",
						"isExcludedFromFee(address)": "1200",
						"isExcludedFromReward(address)": "1221",
						"isRemovedSniper(address)": "1222",
						"marketingAddress()": "1126",
						"name()": "infinite",
						"openTrading()": "infinite",
						"owner()": "1126",
						"reflectionFromToken(uint256,bool)": "infinite",
						"renounceOwnership()": "infinite",
						"setFeeRate(uint256)": "infinite",
						"setLiquidityFeePercent(uint256)": "infinite",
						"setMarketingAddress(address)": "infinite",
						"setTaxFeePercent(uint256)": "infinite",
						"symbol()": "infinite",
						"tokenFromReflection(uint256)": "infinite",
						"totalFees()": "1111",
						"totalSupply()": "1044",
						"transfer(address,uint256)": "infinite",
						"transferFrom(address,address,uint256)": "infinite",
						"transferOwnership(address)": "infinite",
						"uniswapV2Pair()": "1148",
						"uniswapV2Router()": "1172"
					},
					"internal": {
						"_approve(address,address,uint256)": "infinite",
						"_getCurrentSupply()": "infinite",
						"_getRValues(uint256,uint256,uint256,uint256)": "infinite",
						"_getRate()": "infinite",
						"_getTValues(uint256)": "infinite",
						"_getValues(uint256)": "infinite",
						"_isContract(address)": "infinite",
						"_reflectFee(uint256,uint256)": "infinite",
						"_takeLiquidity(uint256)": "infinite",
						"_tokenTransfer(address,address,uint256,bool)": "infinite",
						"_transfer(address,address,uint256)": "infinite",
						"_transferBothExcluded(address,address,uint256)": "infinite",
						"_transferFromExcluded(address,address,uint256)": "infinite",
						"_transferStandard(address,address,uint256)": "infinite",
						"_transferToExcluded(address,address,uint256)": "infinite",
						"addLiquidity(uint256,uint256)": "infinite",
						"calculateLiquidityFee(uint256)": "infinite",
						"calculateTaxFee(uint256)": "infinite",
						"removeAllFee()": "53291",
						"restoreAllFee()": "41621",
						"sendETHToFee(uint256)": "infinite",
						"swapTokens(uint256)": "infinite",
						"swapTokensForEth(uint256)": "infinite",
						"transferToAddressETH(address payable,uint256)": "infinite"
					}
				},
				"methodIdentifiers": {
					"_amnestySniper(address)": "362a3c5d",
					"_liquidityFee()": "6bc87c3a",
					"_removeSniper(address)": "f375b253",
					"_taxFee()": "3b124fe7",
					"allowance(address,address)": "dd62ed3e",
					"approve(address,uint256)": "095ea7b3",
					"balanceOf(address)": "70a08231",
					"deadAddress()": "27c8f835",
					"decimals()": "313ce567",
					"decreaseAllowance(address,uint256)": "a457c2d7",
					"deliver(uint256)": "3bd5d173",
					"emergencyWithdraw()": "db2e21bc",
					"excludeFromFee(address)": "437823ec",
					"excludeFromReward(address)": "52390c02",
					"getBlockTime()": "87ceff09",
					"includeInFee(address)": "ea2f0b37",
					"includeInReward(address)": "3685d419",
					"increaseAllowance(address,uint256)": "39509351",
					"isExcludedFromFee(address)": "5342acb4",
					"isExcludedFromReward(address)": "88f82020",
					"isRemovedSniper(address)": "610d5b19",
					"marketingAddress()": "a5ece941",
					"name()": "06fdde03",
					"openTrading()": "c9567bf9",
					"owner()": "8da5cb5b",
					"reflectionFromToken(uint256,bool)": "4549b039",
					"renounceOwnership()": "715018a6",
					"setFeeRate(uint256)": "45596e2e",
					"setLiquidityFeePercent(uint256)": "8ee88c53",
					"setMarketingAddress(address)": "906e9dd0",
					"setTaxFeePercent(uint256)": "061c82d0",
					"symbol()": "95d89b41",
					"tokenFromReflection(uint256)": "2d838119",
					"totalFees()": "13114a9d",
					"totalSupply()": "18160ddd",
					"transfer(address,uint256)": "a9059cbb",
					"transferFrom(address,address,uint256)": "23b872dd",
					"transferOwnership(address)": "f2fde38b",
					"uniswapV2Pair()": "49bd5a5e",
					"uniswapV2Router()": "1694505e"
				}
			},
			"storageLayout": {
				"storage": [
					{
						"astId": 2584,
						"contract": "contracts/Token.sol:dETH",
						"label": "_owner",
						"offset": 0,
						"slot": "0",
						"type": "t_address"
					},
					{
						"astId": 2586,
						"contract": "contracts/Token.sol:dETH",
						"label": "_previousOwner",
						"offset": 0,
						"slot": "1",
						"type": "t_address"
					},
					{
						"astId": 2588,
						"contract": "contracts/Token.sol:dETH",
						"label": "_lockTime",
						"offset": 0,
						"slot": "2",
						"type": "t_uint256"
					},
					{
						"astId": 20,
						"contract": "contracts/Token.sol:dETH",
						"label": "marketingAddress",
						"offset": 0,
						"slot": "3",
						"type": "t_address_payable"
					},
					{
						"astId": 27,
						"contract": "contracts/Token.sol:dETH",
						"label": "_rOwned",
						"offset": 0,
						"slot": "4",
						"type": "t_mapping(t_address,t_uint256)"
					},
					{
						"astId": 31,
						"contract": "contracts/Token.sol:dETH",
						"label": "_tOwned",
						"offset": 0,
						"slot": "5",
						"type": "t_mapping(t_address,t_uint256)"
					},
					{
						"astId": 37,
						"contract": "contracts/Token.sol:dETH",
						"label": "_allowances",
						"offset": 0,
						"slot": "6",
						"type": "t_mapping(t_address,t_mapping(t_address,t_uint256))"
					},
					{
						"astId": 41,
						"contract": "contracts/Token.sol:dETH",
						"label": "_isSniper",
						"offset": 0,
						"slot": "7",
						"type": "t_mapping(t_address,t_bool)"
					},
					{
						"astId": 44,
						"contract": "contracts/Token.sol:dETH",
						"label": "_confirmedSnipers",
						"offset": 0,
						"slot": "8",
						"type": "t_array(t_address)dyn_storage"
					},
					{
						"astId": 48,
						"contract": "contracts/Token.sol:dETH",
						"label": "_isExcludedFromFee",
						"offset": 0,
						"slot": "9",
						"type": "t_mapping(t_address,t_bool)"
					},
					{
						"astId": 52,
						"contract": "contracts/Token.sol:dETH",
						"label": "_isExcluded",
						"offset": 0,
						"slot": "10",
						"type": "t_mapping(t_address,t_bool)"
					},
					{
						"astId": 55,
						"contract": "contracts/Token.sol:dETH",
						"label": "_excluded",
						"offset": 0,
						"slot": "11",
						"type": "t_array(t_address)dyn_storage"
					},
					{
						"astId": 69,
						"contract": "contracts/Token.sol:dETH",
						"label": "_tTotal",
						"offset": 0,
						"slot": "12",
						"type": "t_uint256"
					},
					{
						"astId": 78,
						"contract": "contracts/Token.sol:dETH",
						"label": "_rTotal",
						"offset": 0,
						"slot": "13",
						"type": "t_uint256"
					},
					{
						"astId": 80,
						"contract": "contracts/Token.sol:dETH",
						"label": "_tFeeTotal",
						"offset": 0,
						"slot": "14",
						"type": "t_uint256"
					},
					{
						"astId": 83,
						"contract": "contracts/Token.sol:dETH",
						"label": "_name",
						"offset": 0,
						"slot": "15",
						"type": "t_string_storage"
					},
					{
						"astId": 86,
						"contract": "contracts/Token.sol:dETH",
						"label": "_symbol",
						"offset": 0,
						"slot": "16",
						"type": "t_string_storage"
					},
					{
						"astId": 89,
						"contract": "contracts/Token.sol:dETH",
						"label": "_decimals",
						"offset": 0,
						"slot": "17",
						"type": "t_uint8"
					},
					{
						"astId": 92,
						"contract": "contracts/Token.sol:dETH",
						"label": "_taxFee",
						"offset": 0,
						"slot": "18",
						"type": "t_uint256"
					},
					{
						"astId": 95,
						"contract": "contracts/Token.sol:dETH",
						"label": "_previousTaxFee",
						"offset": 0,
						"slot": "19",
						"type": "t_uint256"
					},
					{
						"astId": 98,
						"contract": "contracts/Token.sol:dETH",
						"label": "_liquidityFee",
						"offset": 0,
						"slot": "20",
						"type": "t_uint256"
					},
					{
						"astId": 101,
						"contract": "contracts/Token.sol:dETH",
						"label": "_previousLiquidityFee",
						"offset": 0,
						"slot": "21",
						"type": "t_uint256"
					},
					{
						"astId": 104,
						"contract": "contracts/Token.sol:dETH",
						"label": "_feeRate",
						"offset": 0,
						"slot": "22",
						"type": "t_uint256"
					},
					{
						"astId": 106,
						"contract": "contracts/Token.sol:dETH",
						"label": "launchTime",
						"offset": 0,
						"slot": "23",
						"type": "t_uint256"
					},
					{
						"astId": 108,
						"contract": "contracts/Token.sol:dETH",
						"label": "uniswapV2Router",
						"offset": 0,
						"slot": "24",
						"type": "t_contract(IUniswapV2Router02)3361"
					},
					{
						"astId": 110,
						"contract": "contracts/Token.sol:dETH",
						"label": "uniswapV2Pair",
						"offset": 0,
						"slot": "25",
						"type": "t_address"
					},
					{
						"astId": 112,
						"contract": "contracts/Token.sol:dETH",
						"label": "inSwapAndLiquify",
						"offset": 20,
						"slot": "25",
						"type": "t_bool"
					},
					{
						"astId": 115,
						"contract": "contracts/Token.sol:dETH",
						"label": "tradingOpen",
						"offset": 21,
						"slot": "25",
						"type": "t_bool"
					}
				],
				"types": {
					"t_address": {
						"encoding": "inplace",
						"label": "address",
						"numberOfBytes": "20"
					},
					"t_address_payable": {
						"encoding": "inplace",
						"label": "address payable",
						"numberOfBytes": "20"
					},
					"t_array(t_address)dyn_storage": {
						"base": "t_address",
						"encoding": "dynamic_array",
						"label": "address[]",
						"numberOfBytes": "32"
					},
					"t_bool": {
						"encoding": "inplace",
						"label": "bool",
						"numberOfBytes": "1"
					},
					"t_contract(IUniswapV2Router02)3361": {
						"encoding": "inplace",
						"label": "contract IUniswapV2Router02",
						"numberOfBytes": "20"
					},
					"t_mapping(t_address,t_bool)": {
						"encoding": "mapping",
						"key": "t_address",
						"label": "mapping(address => bool)",
						"numberOfBytes": "32",
						"value": "t_bool"
					},
					"t_mapping(t_address,t_mapping(t_address,t_uint256))": {
						"encoding": "mapping",
						"key": "t_address",
						"label": "mapping(address => mapping(address => uint256))",
						"numberOfBytes": "32",
						"value": "t_mapping(t_address,t_uint256)"
					},
					"t_mapping(t_address,t_uint256)": {
						"encoding": "mapping",
						"key": "t_address",
						"label": "mapping(address => uint256)",
						"numberOfBytes": "32",
						"value": "t_uint256"
					},
					"t_string_storage": {
						"encoding": "bytes",
						"label": "string",
						"numberOfBytes": "32"
					},
					"t_uint256": {
						"encoding": "inplace",
						"label": "uint256",
						"numberOfBytes": "32"
					},
					"t_uint8": {
						"encoding": "inplace",
						"label": "uint8",
						"numberOfBytes": "1"
					}
				}
			},
			"userdoc": {
				"kind": "user",
				"methods": {},
				"version": 1
			}
		}
	}
}