{
	"contracts/Burna.sol": {
		"Burna": {
			"abi": [
				{
					"inputs": [
						{
							"internalType": "address",
							"name": "_deth",
							"type": "address"
						},
						{
							"internalType": "uint256",
							"name": "_startTime",
							"type": "uint256"
						}
					],
					"stateMutability": "nonpayable",
					"type": "constructor"
				},
				{
					"anonymous": false,
					"inputs": [
						{
							"indexed": false,
							"internalType": "uint256",
							"name": "_amount",
							"type": "uint256"
						},
						{
							"indexed": false,
							"internalType": "uint256",
							"name": "_time",
							"type": "uint256"
						}
					],
					"name": "BurnerFunded",
					"type": "event"
				},
				{
					"anonymous": false,
					"inputs": [
						{
							"indexed": true,
							"internalType": "address",
							"name": "previousOwner",
							"type": "address"
						},
						{
							"indexed": true,
							"internalType": "address",
							"name": "newOwner",
							"type": "address"
						}
					],
					"name": "OwnershipTransferred",
					"type": "event"
				},
				{
					"anonymous": false,
					"inputs": [
						{
							"indexed": false,
							"internalType": "uint256",
							"name": "_amount",
							"type": "uint256"
						},
						{
							"indexed": false,
							"internalType": "uint256",
							"name": "_time",
							"type": "uint256"
						}
					],
					"name": "dethBurned",
					"type": "event"
				},
				{
					"inputs": [],
					"name": "burn",
					"outputs": [],
					"stateMutability": "nonpayable",
					"type": "function"
				},
				{
					"inputs": [],
					"name": "deadAddress",
					"outputs": [
						{
							"internalType": "address",
							"name": "",
							"type": "address"
						}
					],
					"stateMutability": "view",
					"type": "function"
				},
				{
					"inputs": [],
					"name": "dethAddress",
					"outputs": [
						{
							"internalType": "address",
							"name": "",
							"type": "address"
						}
					],
					"stateMutability": "view",
					"type": "function"
				},
				{
					"inputs": [
						{
							"internalType": "uint256",
							"name": "_amount",
							"type": "uint256"
						}
					],
					"name": "fund",
					"outputs": [],
					"stateMutability": "nonpayable",
					"type": "function"
				},
				{
					"inputs": [],
					"name": "getDeadAddress",
					"outputs": [
						{
							"internalType": "address",
							"name": "",
							"type": "address"
						}
					],
					"stateMutability": "view",
					"type": "function"
				},
				{
					"inputs": [],
					"name": "getDethAddress",
					"outputs": [
						{
							"internalType": "address",
							"name": "",
							"type": "address"
						}
					],
					"stateMutability": "view",
					"type": "function"
				},
				{
					"inputs": [],
					"name": "getIsFunded",
					"outputs": [
						{
							"internalType": "bool",
							"name": "",
							"type": "bool"
						}
					],
					"stateMutability": "view",
					"type": "function"
				},
				{
					"inputs": [],
					"name": "getStartTime",
					"outputs": [
						{
							"internalType": "uint256",
							"name": "",
							"type": "uint256"
						}
					],
					"stateMutability": "view",
					"type": "function"
				},
				{
					"inputs": [],
					"name": "getSupply",
					"outputs": [
						{
							"internalType": "uint256",
							"name": "",
							"type": "uint256"
						}
					],
					"stateMutability": "view",
					"type": "function"
				},
				{
					"inputs": [],
					"name": "getTotalBurned",
					"outputs": [
						{
							"internalType": "uint256",
							"name": "",
							"type": "uint256"
						}
					],
					"stateMutability": "view",
					"type": "function"
				},
				{
					"inputs": [],
					"name": "isFunded",
					"outputs": [
						{
							"internalType": "bool",
							"name": "",
							"type": "bool"
						}
					],
					"stateMutability": "view",
					"type": "function"
				},
				{
					"inputs": [],
					"name": "lastTimeBurned",
					"outputs": [
						{
							"internalType": "uint256",
							"name": "",
							"type": "uint256"
						}
					],
					"stateMutability": "view",
					"type": "function"
				},
				{
					"inputs": [],
					"name": "owner",
					"outputs": [
						{
							"internalType": "address",
							"name": "",
							"type": "address"
						}
					],
					"stateMutability": "view",
					"type": "function"
				},
				{
					"inputs": [],
					"name": "renounceOwnership",
					"outputs": [],
					"stateMutability": "nonpayable",
					"type": "function"
				},
				{
					"inputs": [],
					"name": "startTime",
					"outputs": [
						{
							"internalType": "uint256",
							"name": "",
							"type": "uint256"
						}
					],
					"stateMutability": "view",
					"type": "function"
				},
				{
					"inputs": [],
					"name": "supply",
					"outputs": [
						{
							"internalType": "uint256",
							"name": "",
							"type": "uint256"
						}
					],
					"stateMutability": "view",
					"type": "function"
				},
				{
					"inputs": [],
					"name": "totalBurned",
					"outputs": [
						{
							"internalType": "uint256",
							"name": "",
							"type": "uint256"
						}
					],
					"stateMutability": "view",
					"type": "function"
				},
				{
					"inputs": [
						{
							"internalType": "address",
							"name": "newOwner",
							"type": "address"
						}
					],
					"name": "transferOwnership",
					"outputs": [],
					"stateMutability": "nonpayable",
					"type": "function"
				}
			],
			"devdoc": {
				"kind": "dev",
				"methods": {
					"owner()": {
						"details": "Returns the address of the current owner."
					},
					"renounceOwnership()": {
						"details": "Leaves the contract without owner. It will not be possible to call `onlyOwner` functions anymore. Can only be called by the current owner. NOTE: Renouncing ownership will leave the contract without an owner, thereby removing any functionality that is only available to the owner."
					},
					"transferOwnership(address)": {
						"details": "Transfers ownership of the contract to a new account (`newOwner`). Can only be called by the current owner."
					}
				},
				"version": 1
			},
			"evm": {
				"assembly": "    /* \"contracts/Burna.sol\":362:2583  contract Burna is Ownable {\r... */\n  mstore(0x40, 0xa0)\n    /* \"contracts/Burna.sol\":501:543  0x000000000000000000000000000000000000dEaD */\n  0xdead\n    /* \"contracts/Burna.sol\":462:543  address public immutable deadAddress = 0x000000000000000000000000000000000000dEaD */\n  0xffffffffffffffffffffffffffffffffffffffff\n  and\n  0x80\n  swap1\n  0xffffffffffffffffffffffffffffffffffffffff\n  and\n  0x60\n  shl\n  dup2\n  mstore\n  pop\n    /* \"contracts/Burna.sol\":608:613  false */\n  0x00\n    /* \"contracts/Burna.sol\":585:613  bool public isFunded = false */\n  0x01\n  exp(0x0100, 0x14)\n  dup2\n  sload\n  dup2\n  0xff\n  mul\n  not\n  and\n  swap1\n  dup4\n  iszero\n  iszero\n  mul\n  or\n  swap1\n  sstore\n  pop\n    /* \"contracts/Burna.sol\":748:749  0 */\n  0x00\n    /* \"contracts/Burna.sol\":716:749  uint256 public lastTimeBurned = 0 */\n  0x05\n  sstore\n    /* \"contracts/Burna.sol\":872:1023  constructor(address _deth, uint256 _startTime) public {\r... */\n  callvalue\n  dup1\n  iszero\n  tag_1\n  jumpi\n  0x00\n  dup1\n  revert\ntag_1:\n  pop\n  mload(0x40)\n  sub(codesize, bytecodeSize)\n  dup1\n  bytecodeSize\n  dup4\n  codecopy\n  dup2\n  dup2\n  add\n  0x40\n  mstore\n  0x40\n  dup2\n  lt\n  iszero\n  tag_2\n  jumpi\n  0x00\n  dup1\n  revert\ntag_2:\n  dup2\n  add\n  swap1\n  dup1\n  dup1\n  mload\n  swap1\n  0x20\n  add\n  swap1\n  swap3\n  swap2\n  swap1\n  dup1\n  mload\n  swap1\n  0x20\n  add\n  swap1\n  swap3\n  swap2\n  swap1\n  pop\n  pop\n  pop\n    /* \"contracts/libs/Ownable.sol\":888:905  address msgSender */\n  0x00\n    /* \"contracts/libs/Ownable.sol\":908:920  _msgSender() */\n  tag_6\n    /* \"contracts/libs/Ownable.sol\":908:918  _msgSender */\n  shl(0x20, tag_7)\n    /* \"contracts/libs/Ownable.sol\":908:920  _msgSender() */\n  0x20\n  shr\n  jump\t// in\ntag_6:\n    /* \"contracts/libs/Ownable.sol\":888:920  address msgSender = _msgSender() */\n  swap1\n  pop\n    /* \"contracts/libs/Ownable.sol\":940:949  msgSender */\n  dup1\n    /* \"contracts/libs/Ownable.sol\":931:937  _owner */\n  0x00\n  dup1\n    /* \"contracts/libs/Ownable.sol\":931:949  _owner = msgSender */\n  0x0100\n  exp\n  dup2\n  sload\n  dup2\n  0xffffffffffffffffffffffffffffffffffffffff\n  mul\n  not\n  and\n  swap1\n  dup4\n  0xffffffffffffffffffffffffffffffffffffffff\n  and\n  mul\n  or\n  swap1\n  sstore\n  pop\n    /* \"contracts/libs/Ownable.sol\":998:1007  msgSender */\n  dup1\n    /* \"contracts/libs/Ownable.sol\":965:1008  OwnershipTransferred(address(0), msgSender) */\n  0xffffffffffffffffffffffffffffffffffffffff\n  and\n    /* \"contracts/libs/Ownable.sol\":994:995  0 */\n  0x00\n    /* \"contracts/libs/Ownable.sol\":965:1008  OwnershipTransferred(address(0), msgSender) */\n  0xffffffffffffffffffffffffffffffffffffffff\n  and\n  0x8be0079c531659141344cd1fd0a4f28419497f9722a3daafe3b4186f6b6457e0\n  mload(0x40)\n  mload(0x40)\n  dup1\n  swap2\n  sub\n  swap1\n  log3\n    /* \"contracts/libs/Ownable.sol\":853:1016  constructor () internal {\r... */\n  pop\n    /* \"contracts/Burna.sol\":951:956  _deth */\n  dup2\n    /* \"contracts/Burna.sol\":937:948  dethAddress */\n  0x01\n  0x00\n    /* \"contracts/Burna.sol\":937:956  dethAddress = _deth */\n  0x0100\n  exp\n  dup2\n  sload\n  dup2\n  0xffffffffffffffffffffffffffffffffffffffff\n  mul\n  not\n  and\n  swap1\n  dup4\n  0xffffffffffffffffffffffffffffffffffffffff\n  and\n  mul\n  or\n  swap1\n  sstore\n  pop\n    /* \"contracts/Burna.sol\":979:989  _startTime */\n  dup1\n    /* \"contracts/Burna.sol\":967:976  startTime */\n  0x04\n    /* \"contracts/Burna.sol\":967:989  startTime = _startTime */\n  dup2\n  swap1\n  sstore\n  pop\n    /* \"contracts/Burna.sol\":1014:1015  0 */\n  0x00\n    /* \"contracts/Burna.sol\":1000:1011  totalBurned */\n  0x03\n    /* \"contracts/Burna.sol\":1000:1015  totalBurned = 0 */\n  dup2\n  swap1\n  sstore\n  pop\n    /* \"contracts/Burna.sol\":872:1023  constructor(address _deth, uint256 _startTime) public {\r... */\n  pop\n  pop\n    /* \"contracts/Burna.sol\":362:2583  contract Burna is Ownable {\r... */\n  jump(tag_9)\n    /* \"contracts/libs/Context.sol\":607:713  function _msgSender() internal view virtual returns (address payable) {\r... */\ntag_7:\n    /* \"contracts/libs/Context.sol\":660:675  address payable */\n  0x00\n    /* \"contracts/libs/Context.sol\":695:705  msg.sender */\n  caller\n    /* \"contracts/libs/Context.sol\":688:705  return msg.sender */\n  swap1\n  pop\n    /* \"contracts/libs/Context.sol\":607:713  function _msgSender() internal view virtual returns (address payable) {\r... */\n  swap1\n  jump\t// out\n    /* \"contracts/Burna.sol\":362:2583  contract Burna is Ownable {\r... */\ntag_9:\n  shr(0x60, mload(0x80))\n  codecopy(0x00, dataOffset(sub_0), dataSize(sub_0))\n  assignImmutable(\"0x277ab82e5a4641341820a4a2933a62c1de997e42e92548657ae21b3728d580fe\")\n  return(0x00, dataSize(sub_0))\nstop\n\nsub_0: assembly {\n        /* \"contracts/Burna.sol\":362:2583  contract Burna is Ownable {\r... */\n      mstore(0x40, 0x80)\n      callvalue\n      dup1\n      iszero\n      tag_1\n      jumpi\n      0x00\n      dup1\n      revert\n    tag_1:\n      pop\n      jumpi(tag_2, lt(calldatasize, 0x04))\n      shr(0xe0, calldataload(0x00))\n      dup1\n      0x9020e645\n      gt\n      tag_21\n      jumpi\n      dup1\n      0xca1d209d\n      gt\n      tag_22\n      jumpi\n      dup1\n      0xca1d209d\n      eq\n      tag_16\n      jumpi\n      dup1\n      0xcd066e45\n      eq\n      tag_17\n      jumpi\n      dup1\n      0xd89135cd\n      eq\n      tag_18\n      jumpi\n      dup1\n      0xf0f2d413\n      eq\n      tag_19\n      jumpi\n      dup1\n      0xf2fde38b\n      eq\n      tag_20\n      jumpi\n      jump(tag_2)\n    tag_22:\n      dup1\n      0x9020e645\n      eq\n      tag_12\n      jumpi\n      dup1\n      0xb0feb130\n      eq\n      tag_13\n      jumpi\n      dup1\n      0xb55cd04b\n      eq\n      tag_14\n      jumpi\n      dup1\n      0xc828371e\n      eq\n      tag_15\n      jumpi\n      jump(tag_2)\n    tag_21:\n      dup1\n      0x6c9c2faf\n      gt\n      tag_23\n      jumpi\n      dup1\n      0x6c9c2faf\n      eq\n      tag_7\n      jumpi\n      dup1\n      0x715018a6\n      eq\n      tag_8\n      jumpi\n      dup1\n      0x78e97925\n      eq\n      tag_9\n      jumpi\n      dup1\n      0x7c654303\n      eq\n      tag_10\n      jumpi\n      dup1\n      0x8da5cb5b\n      eq\n      tag_11\n      jumpi\n      jump(tag_2)\n    tag_23:\n      dup1\n      0x047fc9aa\n      eq\n      tag_3\n      jumpi\n      dup1\n      0x27c8f835\n      eq\n      tag_4\n      jumpi\n      dup1\n      0x3d4b5cc6\n      eq\n      tag_5\n      jumpi\n      dup1\n      0x44df8e70\n      eq\n      tag_6\n      jumpi\n    tag_2:\n      0x00\n      dup1\n      revert\n        /* \"contracts/Burna.sol\":624:645  uint256 public supply */\n    tag_3:\n      tag_24\n      tag_25\n      jump\t// in\n    tag_24:\n      mload(0x40)\n      dup1\n      dup3\n      dup2\n      mstore\n      0x20\n      add\n      swap2\n      pop\n      pop\n      mload(0x40)\n      dup1\n      swap2\n      sub\n      swap1\n      return\n        /* \"contracts/Burna.sol\":462:543  address public immutable deadAddress = 0x000000000000000000000000000000000000dEaD */\n    tag_4:\n      tag_26\n      tag_27\n      jump\t// in\n    tag_26:\n      mload(0x40)\n      dup1\n      dup3\n      0xffffffffffffffffffffffffffffffffffffffff\n      and\n      dup2\n      mstore\n      0x20\n      add\n      swap2\n      pop\n      pop\n      mload(0x40)\n      dup1\n      swap2\n      sub\n      swap1\n      return\n        /* \"contracts/Burna.sol\":716:749  uint256 public lastTimeBurned = 0 */\n    tag_5:\n      tag_28\n      tag_29\n      jump\t// in\n    tag_28:\n      mload(0x40)\n      dup1\n      dup3\n      dup2\n      mstore\n      0x20\n      add\n      swap2\n      pop\n      pop\n      mload(0x40)\n      dup1\n      swap2\n      sub\n      swap1\n      return\n        /* \"contracts/Burna.sol\":2171:2578  function burn() public {\r... */\n    tag_6:\n      tag_30\n      tag_31\n      jump\t// in\n    tag_30:\n      stop\n        /* \"contracts/Burna.sol\":1188:1327  function getSupply() public view returns (uint256) {\r... */\n    tag_7:\n      tag_32\n      tag_33\n      jump\t// in\n    tag_32:\n      mload(0x40)\n      dup1\n      dup3\n      dup2\n      mstore\n      0x20\n      add\n      swap2\n      pop\n      pop\n      mload(0x40)\n      dup1\n      swap2\n      sub\n      swap1\n      return\n        /* \"contracts/libs/Ownable.sol\":1739:1887  function renounceOwnership() public virtual onlyOwner {\r... */\n    tag_8:\n      tag_34\n      tag_35\n      jump\t// in\n    tag_34:\n      stop\n        /* \"contracts/Burna.sol\":685:709  uint256 public startTime */\n    tag_9:\n      tag_36\n      tag_37\n      jump\t// in\n    tag_36:\n      mload(0x40)\n      dup1\n      dup3\n      dup2\n      mstore\n      0x20\n      add\n      swap2\n      pop\n      pop\n      mload(0x40)\n      dup1\n      swap2\n      sub\n      swap1\n      return\n        /* \"contracts/Burna.sol\":585:613  bool public isFunded = false */\n    tag_10:\n      tag_38\n      tag_39\n      jump\t// in\n    tag_38:\n      mload(0x40)\n      dup1\n      dup3\n      iszero\n      iszero\n      dup2\n      mstore\n      0x20\n      add\n      swap2\n      pop\n      pop\n      mload(0x40)\n      dup1\n      swap2\n      sub\n      swap1\n      return\n        /* \"contracts/libs/Ownable.sol\":1097:1176  function owner() public view returns (address) {\r... */\n    tag_11:\n      tag_40\n      tag_41\n      jump\t// in\n    tag_40:\n      mload(0x40)\n      dup1\n      dup3\n      0xffffffffffffffffffffffffffffffffffffffff\n      and\n      dup2\n      mstore\n      0x20\n      add\n      swap2\n      pop\n      pop\n      mload(0x40)\n      dup1\n      swap2\n      sub\n      swap1\n      return\n        /* \"contracts/Burna.sol\":550:576  address public dethAddress */\n    tag_12:\n      tag_42\n      tag_43\n      jump\t// in\n    tag_42:\n      mload(0x40)\n      dup1\n      dup3\n      0xffffffffffffffffffffffffffffffffffffffff\n      and\n      dup2\n      mstore\n      0x20\n      add\n      swap2\n      pop\n      pop\n      mload(0x40)\n      dup1\n      swap2\n      sub\n      swap1\n      return\n        /* \"contracts/Burna.sol\":1637:1730  function getDeadAddress() public view returns (address) {\r... */\n    tag_13:\n      tag_44\n      tag_45\n      jump\t// in\n    tag_44:\n      mload(0x40)\n      dup1\n      dup3\n      0xffffffffffffffffffffffffffffffffffffffff\n      and\n      dup2\n      mstore\n      0x20\n      add\n      swap2\n      pop\n      pop\n      mload(0x40)\n      dup1\n      swap2\n      sub\n      swap1\n      return\n        /* \"contracts/Burna.sol\":1031:1180  function getTotalBurned() public view returns (uint256) {\r... */\n    tag_14:\n      tag_46\n      tag_47\n      jump\t// in\n    tag_46:\n      mload(0x40)\n      dup1\n      dup3\n      dup2\n      mstore\n      0x20\n      add\n      swap2\n      pop\n      pop\n      mload(0x40)\n      dup1\n      swap2\n      sub\n      swap1\n      return\n        /* \"contracts/Burna.sol\":1335:1424  function getStartTime() public view returns (uint256) {\r... */\n    tag_15:\n      tag_48\n      tag_49\n      jump\t// in\n    tag_48:\n      mload(0x40)\n      dup1\n      dup3\n      dup2\n      mstore\n      0x20\n      add\n      swap2\n      pop\n      pop\n      mload(0x40)\n      dup1\n      swap2\n      sub\n      swap1\n      return\n        /* \"contracts/Burna.sol\":1830:2163  function fund(uint256 _amount) external onlyOwner {\r... */\n    tag_16:\n      tag_50\n      0x04\n      dup1\n      calldatasize\n      sub\n      0x20\n      dup2\n      lt\n      iszero\n      tag_51\n      jumpi\n      0x00\n      dup1\n      revert\n    tag_51:\n      dup2\n      add\n      swap1\n      dup1\n      dup1\n      calldataload\n      swap1\n      0x20\n      add\n      swap1\n      swap3\n      swap2\n      swap1\n      pop\n      pop\n      pop\n      tag_52\n      jump\t// in\n    tag_50:\n      stop\n        /* \"contracts/Burna.sol\":1432:1629  function getDethAddress() public view returns (address) {\r... */\n    tag_17:\n      tag_53\n      tag_54\n      jump\t// in\n    tag_53:\n      mload(0x40)\n      dup1\n      dup3\n      0xffffffffffffffffffffffffffffffffffffffff\n      and\n      dup2\n      mstore\n      0x20\n      add\n      swap2\n      pop\n      pop\n      mload(0x40)\n      dup1\n      swap2\n      sub\n      swap1\n      return\n        /* \"contracts/Burna.sol\":652:678  uint256 public totalBurned */\n    tag_18:\n      tag_55\n      tag_56\n      jump\t// in\n    tag_55:\n      mload(0x40)\n      dup1\n      dup3\n      dup2\n      mstore\n      0x20\n      add\n      swap2\n      pop\n      pop\n      mload(0x40)\n      dup1\n      swap2\n      sub\n      swap1\n      return\n        /* \"contracts/Burna.sol\":1738:1822  function getIsFunded() public view returns (bool) {\r... */\n    tag_19:\n      tag_57\n      tag_58\n      jump\t// in\n    tag_57:\n      mload(0x40)\n      dup1\n      dup3\n      iszero\n      iszero\n      dup2\n      mstore\n      0x20\n      add\n      swap2\n      pop\n      pop\n      mload(0x40)\n      dup1\n      swap2\n      sub\n      swap1\n      return\n        /* \"contracts/libs/Ownable.sol\":2042:2286  function transferOwnership(address newOwner) public virtual onlyOwner {\r... */\n    tag_20:\n      tag_59\n      0x04\n      dup1\n      calldatasize\n      sub\n      0x20\n      dup2\n      lt\n      iszero\n      tag_60\n      jumpi\n      0x00\n      dup1\n      revert\n    tag_60:\n      dup2\n      add\n      swap1\n      dup1\n      dup1\n      calldataload\n      0xffffffffffffffffffffffffffffffffffffffff\n      and\n      swap1\n      0x20\n      add\n      swap1\n      swap3\n      swap2\n      swap1\n      pop\n      pop\n      pop\n      tag_61\n      jump\t// in\n    tag_59:\n      stop\n        /* \"contracts/Burna.sol\":624:645  uint256 public supply */\n    tag_25:\n      sload(0x02)\n      dup2\n      jump\t// out\n        /* \"contracts/Burna.sol\":462:543  address public immutable deadAddress = 0x000000000000000000000000000000000000dEaD */\n    tag_27:\n      immutable(\"0x277ab82e5a4641341820a4a2933a62c1de997e42e92548657ae21b3728d580fe\")\n      dup2\n      jump\t// out\n        /* \"contracts/Burna.sol\":716:749  uint256 public lastTimeBurned = 0 */\n    tag_29:\n      sload(0x05)\n      dup2\n      jump\t// out\n        /* \"contracts/Burna.sol\":2171:2578  function burn() public {\r... */\n    tag_31:\n        /* \"contracts/Burna.sol\":2213:2221  isFunded */\n      0x01\n      0x14\n      swap1\n      sload\n      swap1\n      0x0100\n      exp\n      swap1\n      div\n      0xff\n      and\n        /* \"contracts/Burna.sol\":2205:2250  require(isFunded, \"Burner is not funded yet\") */\n      tag_63\n      jumpi\n      mload(0x40)\n      0x08c379a000000000000000000000000000000000000000000000000000000000\n      dup2\n      mstore\n      0x04\n      add\n      dup1\n      dup1\n      0x20\n      add\n      dup3\n      dup2\n      sub\n      dup3\n      mstore\n      0x18\n      dup2\n      mstore\n      0x20\n      add\n      dup1\n      0x4275726e6572206973206e6f742066756e646564207965740000000000000000\n      dup2\n      mstore\n      pop\n      0x20\n      add\n      swap2\n      pop\n      pop\n      mload(0x40)\n      dup1\n      swap2\n      sub\n      swap1\n      revert\n    tag_63:\n        /* \"contracts/Burna.sol\":2275:2284  startTime */\n      sload(0x04)\n        /* \"contracts/Burna.sol\":2269:2272  now */\n      timestamp\n        /* \"contracts/Burna.sol\":2269:2284  now > startTime */\n      gt\n        /* \"contracts/Burna.sol\":2261:2314  require(now > startTime, \"Burner is not yet started\") */\n      tag_64\n      jumpi\n      mload(0x40)\n      0x08c379a000000000000000000000000000000000000000000000000000000000\n      dup2\n      mstore\n      0x04\n      add\n      dup1\n      dup1\n      0x20\n      add\n      dup3\n      dup2\n      sub\n      dup3\n      mstore\n      0x19\n      dup2\n      mstore\n      0x20\n      add\n      dup1\n      0x4275726e6572206973206e6f7420796574207374617274656400000000000000\n      dup2\n      mstore\n      pop\n      0x20\n      add\n      swap2\n      pop\n      pop\n      mload(0x40)\n      dup1\n      swap2\n      sub\n      swap1\n      revert\n    tag_64:\n        /* \"contracts/Burna.sol\":2356:2360  3600 */\n      0x0e10\n        /* \"contracts/Burna.sol\":2339:2353  lastTimeBurned */\n      sload(0x05)\n        /* \"contracts/Burna.sol\":2333:2336  now */\n      timestamp\n        /* \"contracts/Burna.sol\":2333:2353  now - lastTimeBurned */\n      sub\n        /* \"contracts/Burna.sol\":2333:2360  now - lastTimeBurned > 3600 */\n      gt\n        /* \"contracts/Burna.sol\":2325:2401  require(now - lastTimeBurned > 3600, \"dETH can only be burned once an hour\") */\n      tag_65\n      jumpi\n      mload(0x40)\n      0x08c379a000000000000000000000000000000000000000000000000000000000\n      dup2\n      mstore\n      0x04\n      add\n      dup1\n      dup1\n      0x20\n      add\n      dup3\n      dup2\n      sub\n      dup3\n      mstore\n      0x24\n      dup2\n      mstore\n      0x20\n      add\n      dup1\n      data_a67d95f2293c637cd38d40b5cce5f7b6bf2fc1953650a6994d31e9ed06ca1ce0\n      0x24\n      swap2\n      codecopy\n      0x40\n      add\n      swap2\n      pop\n      pop\n      mload(0x40)\n      dup1\n      swap2\n      sub\n      swap1\n      revert\n    tag_65:\n        /* \"contracts/Burna.sol\":2412:2430  uint256 burnAmount */\n      0x00\n        /* \"contracts/Burna.sol\":2482:2483  2 */\n      0x02\n        /* \"contracts/Burna.sol\":2441:2452  dethAddress */\n      0x01\n      0x00\n      swap1\n      sload\n      swap1\n      0x0100\n      exp\n      swap1\n      div\n      0xffffffffffffffffffffffffffffffffffffffff\n      and\n        /* \"contracts/Burna.sol\":2434:2463  IERC20(dethAddress).balanceOf */\n      0xffffffffffffffffffffffffffffffffffffffff\n      and\n      0x70a08231\n        /* \"contracts/Burna.sol\":2472:2476  this */\n      address\n        /* \"contracts/Burna.sol\":2434:2478  IERC20(dethAddress).balanceOf(address(this)) */\n      mload(0x40)\n      dup3\n      0xffffffff\n      and\n      0xe0\n      shl\n      dup2\n      mstore\n      0x04\n      add\n      dup1\n      dup3\n      0xffffffffffffffffffffffffffffffffffffffff\n      and\n      dup2\n      mstore\n      0x20\n      add\n      swap2\n      pop\n      pop\n      0x20\n      mload(0x40)\n      dup1\n      dup4\n      sub\n      dup2\n      dup7\n      dup1\n      extcodesize\n      iszero\n      dup1\n      iszero\n      tag_66\n      jumpi\n      0x00\n      dup1\n      revert\n    tag_66:\n      pop\n      gas\n      staticcall\n      iszero\n      dup1\n      iszero\n      tag_68\n      jumpi\n      returndatasize\n      0x00\n      dup1\n      returndatacopy\n      revert(0x00, returndatasize)\n    tag_68:\n      pop\n      pop\n      pop\n      pop\n      mload(0x40)\n      returndatasize\n      0x20\n      dup2\n      lt\n      iszero\n      tag_69\n      jumpi\n      0x00\n      dup1\n      revert\n    tag_69:\n      dup2\n      add\n      swap1\n      dup1\n      dup1\n      mload\n      swap1\n      0x20\n      add\n      swap1\n      swap3\n      swap2\n      swap1\n      pop\n      pop\n      pop\n        /* \"contracts/Burna.sol\":2433:2483  (IERC20(dethAddress).balanceOf(address(this))) / 2 */\n      dup2\n      tag_70\n      jumpi\n      invalid\n    tag_70:\n      div\n        /* \"contracts/Burna.sol\":2412:2483  uint256 burnAmount = (IERC20(dethAddress).balanceOf(address(this))) / 2 */\n      swap1\n      pop\n        /* \"contracts/Burna.sol\":2511:2514  now */\n      timestamp\n        /* \"contracts/Burna.sol\":2494:2508  lastTimeBurned */\n      0x05\n        /* \"contracts/Burna.sol\":2494:2514  lastTimeBurned = now */\n      dup2\n      swap1\n      sstore\n      pop\n        /* \"contracts/Burna.sol\":2532:2570  dethBurned(burnAmount, lastTimeBurned) */\n      0x9d7b6228054d3633be8cd708771f400e539e62d2df76aca71f3d8b0eb287eb24\n        /* \"contracts/Burna.sol\":2543:2553  burnAmount */\n      dup2\n        /* \"contracts/Burna.sol\":2555:2569  lastTimeBurned */\n      sload(0x05)\n        /* \"contracts/Burna.sol\":2532:2570  dethBurned(burnAmount, lastTimeBurned) */\n      mload(0x40)\n      dup1\n      dup4\n      dup2\n      mstore\n      0x20\n      add\n      dup3\n      dup2\n      mstore\n      0x20\n      add\n      swap3\n      pop\n      pop\n      pop\n      mload(0x40)\n      dup1\n      swap2\n      sub\n      swap1\n      log1\n        /* \"contracts/Burna.sol\":2171:2578  function burn() public {\r... */\n      pop\n      jump\t// out\n        /* \"contracts/Burna.sol\":1188:1327  function getSupply() public view returns (uint256) {\r... */\n    tag_33:\n        /* \"contracts/Burna.sol\":1230:1237  uint256 */\n      0x00\n        /* \"contracts/Burna.sol\":1258:1266  isFunded */\n      0x01\n      0x14\n      swap1\n      sload\n      swap1\n      0x0100\n      exp\n      swap1\n      div\n      0xff\n      and\n        /* \"contracts/Burna.sol\":1250:1295  require(isFunded, \"Burner is not funded yet\") */\n      tag_72\n      jumpi\n      mload(0x40)\n      0x08c379a000000000000000000000000000000000000000000000000000000000\n      dup2\n      mstore\n      0x04\n      add\n      dup1\n      dup1\n      0x20\n      add\n      dup3\n      dup2\n      sub\n      dup3\n      mstore\n      0x18\n      dup2\n      mstore\n      0x20\n      add\n      dup1\n      0x4275726e6572206973206e6f742066756e646564207965740000000000000000\n      dup2\n      mstore\n      pop\n      0x20\n      add\n      swap2\n      pop\n      pop\n      mload(0x40)\n      dup1\n      swap2\n      sub\n      swap1\n      revert\n    tag_72:\n        /* \"contracts/Burna.sol\":1313:1319  supply */\n      sload(0x02)\n        /* \"contracts/Burna.sol\":1306:1319  return supply */\n      swap1\n      pop\n        /* \"contracts/Burna.sol\":1188:1327  function getSupply() public view returns (uint256) {\r... */\n      swap1\n      jump\t// out\n        /* \"contracts/libs/Ownable.sol\":1739:1887  function renounceOwnership() public virtual onlyOwner {\r... */\n    tag_35:\n        /* \"contracts/libs/Ownable.sol\":1319:1331  _msgSender() */\n      tag_74\n        /* \"contracts/libs/Ownable.sol\":1319:1329  _msgSender */\n      tag_75\n        /* \"contracts/libs/Ownable.sol\":1319:1331  _msgSender() */\n      jump\t// in\n    tag_74:\n        /* \"contracts/libs/Ownable.sol\":1309:1331  _owner == _msgSender() */\n      0xffffffffffffffffffffffffffffffffffffffff\n      and\n        /* \"contracts/libs/Ownable.sol\":1309:1315  _owner */\n      0x00\n      dup1\n      sload\n      swap1\n      0x0100\n      exp\n      swap1\n      div\n      0xffffffffffffffffffffffffffffffffffffffff\n      and\n        /* \"contracts/libs/Ownable.sol\":1309:1331  _owner == _msgSender() */\n      0xffffffffffffffffffffffffffffffffffffffff\n      and\n      eq\n        /* \"contracts/libs/Ownable.sol\":1301:1368  require(_owner == _msgSender(), \"Ownable: caller is not the owner\") */\n      tag_76\n      jumpi\n      mload(0x40)\n      0x08c379a000000000000000000000000000000000000000000000000000000000\n      dup2\n      mstore\n      0x04\n      add\n      dup1\n      dup1\n      0x20\n      add\n      dup3\n      dup2\n      sub\n      dup3\n      mstore\n      0x20\n      dup2\n      mstore\n      0x20\n      add\n      dup1\n      0x4f776e61626c653a2063616c6c6572206973206e6f7420746865206f776e6572\n      dup2\n      mstore\n      pop\n      0x20\n      add\n      swap2\n      pop\n      pop\n      mload(0x40)\n      dup1\n      swap2\n      sub\n      swap1\n      revert\n    tag_76:\n        /* \"contracts/libs/Ownable.sol\":1846:1847  0 */\n      0x00\n        /* \"contracts/libs/Ownable.sol\":1809:1849  OwnershipTransferred(_owner, address(0)) */\n      0xffffffffffffffffffffffffffffffffffffffff\n      and\n        /* \"contracts/libs/Ownable.sol\":1830:1836  _owner */\n      0x00\n      dup1\n      sload\n      swap1\n      0x0100\n      exp\n      swap1\n      div\n      0xffffffffffffffffffffffffffffffffffffffff\n      and\n        /* \"contracts/libs/Ownable.sol\":1809:1849  OwnershipTransferred(_owner, address(0)) */\n      0xffffffffffffffffffffffffffffffffffffffff\n      and\n      0x8be0079c531659141344cd1fd0a4f28419497f9722a3daafe3b4186f6b6457e0\n      mload(0x40)\n      mload(0x40)\n      dup1\n      swap2\n      sub\n      swap1\n      log3\n        /* \"contracts/libs/Ownable.sol\":1877:1878  0 */\n      0x00\n        /* \"contracts/libs/Ownable.sol\":1860:1866  _owner */\n      dup1\n      0x00\n        /* \"contracts/libs/Ownable.sol\":1860:1879  _owner = address(0) */\n      0x0100\n      exp\n      dup2\n      sload\n      dup2\n      0xffffffffffffffffffffffffffffffffffffffff\n      mul\n      not\n      and\n      swap1\n      dup4\n      0xffffffffffffffffffffffffffffffffffffffff\n      and\n      mul\n      or\n      swap1\n      sstore\n      pop\n        /* \"contracts/libs/Ownable.sol\":1739:1887  function renounceOwnership() public virtual onlyOwner {\r... */\n      jump\t// out\n        /* \"contracts/Burna.sol\":685:709  uint256 public startTime */\n    tag_37:\n      sload(0x04)\n      dup2\n      jump\t// out\n        /* \"contracts/Burna.sol\":585:613  bool public isFunded = false */\n    tag_39:\n      0x01\n      0x14\n      swap1\n      sload\n      swap1\n      0x0100\n      exp\n      swap1\n      div\n      0xff\n      and\n      dup2\n      jump\t// out\n        /* \"contracts/libs/Ownable.sol\":1097:1176  function owner() public view returns (address) {\r... */\n    tag_41:\n        /* \"contracts/libs/Ownable.sol\":1135:1142  address */\n      0x00\n        /* \"contracts/libs/Ownable.sol\":1162:1168  _owner */\n      dup1\n      0x00\n      swap1\n      sload\n      swap1\n      0x0100\n      exp\n      swap1\n      div\n      0xffffffffffffffffffffffffffffffffffffffff\n      and\n        /* \"contracts/libs/Ownable.sol\":1155:1168  return _owner */\n      swap1\n      pop\n        /* \"contracts/libs/Ownable.sol\":1097:1176  function owner() public view returns (address) {\r... */\n      swap1\n      jump\t// out\n        /* \"contracts/Burna.sol\":550:576  address public dethAddress */\n    tag_43:\n      0x01\n      0x00\n      swap1\n      sload\n      swap1\n      0x0100\n      exp\n      swap1\n      div\n      0xffffffffffffffffffffffffffffffffffffffff\n      and\n      dup2\n      jump\t// out\n        /* \"contracts/Burna.sol\":1637:1730  function getDeadAddress() public view returns (address) {\r... */\n    tag_45:\n        /* \"contracts/Burna.sol\":1684:1691  address */\n      0x00\n        /* \"contracts/Burna.sol\":1711:1722  deadAddress */\n      immutable(\"0x277ab82e5a4641341820a4a2933a62c1de997e42e92548657ae21b3728d580fe\")\n        /* \"contracts/Burna.sol\":1704:1722  return deadAddress */\n      swap1\n      pop\n        /* \"contracts/Burna.sol\":1637:1730  function getDeadAddress() public view returns (address) {\r... */\n      swap1\n      jump\t// out\n        /* \"contracts/Burna.sol\":1031:1180  function getTotalBurned() public view returns (uint256) {\r... */\n    tag_47:\n        /* \"contracts/Burna.sol\":1078:1085  uint256 */\n      0x00\n        /* \"contracts/Burna.sol\":1106:1114  isFunded */\n      0x01\n      0x14\n      swap1\n      sload\n      swap1\n      0x0100\n      exp\n      swap1\n      div\n      0xff\n      and\n        /* \"contracts/Burna.sol\":1098:1143  require(isFunded, \"Burner is not funded yet\") */\n      tag_81\n      jumpi\n      mload(0x40)\n      0x08c379a000000000000000000000000000000000000000000000000000000000\n      dup2\n      mstore\n      0x04\n      add\n      dup1\n      dup1\n      0x20\n      add\n      dup3\n      dup2\n      sub\n      dup3\n      mstore\n      0x18\n      dup2\n      mstore\n      0x20\n      add\n      dup1\n      0x4275726e6572206973206e6f742066756e646564207965740000000000000000\n      dup2\n      mstore\n      pop\n      0x20\n      add\n      swap2\n      pop\n      pop\n      mload(0x40)\n      dup1\n      swap2\n      sub\n      swap1\n      revert\n    tag_81:\n        /* \"contracts/Burna.sol\":1161:1172  totalBurned */\n      sload(0x03)\n        /* \"contracts/Burna.sol\":1154:1172  return totalBurned */\n      swap1\n      pop\n        /* \"contracts/Burna.sol\":1031:1180  function getTotalBurned() public view returns (uint256) {\r... */\n      swap1\n      jump\t// out\n        /* \"contracts/Burna.sol\":1335:1424  function getStartTime() public view returns (uint256) {\r... */\n    tag_49:\n        /* \"contracts/Burna.sol\":1380:1387  uint256 */\n      0x00\n        /* \"contracts/Burna.sol\":1407:1416  startTime */\n      sload(0x04)\n        /* \"contracts/Burna.sol\":1400:1416  return startTime */\n      swap1\n      pop\n        /* \"contracts/Burna.sol\":1335:1424  function getStartTime() public view returns (uint256) {\r... */\n      swap1\n      jump\t// out\n        /* \"contracts/Burna.sol\":1830:2163  function fund(uint256 _amount) external onlyOwner {\r... */\n    tag_52:\n        /* \"contracts/libs/Ownable.sol\":1319:1331  _msgSender() */\n      tag_84\n        /* \"contracts/libs/Ownable.sol\":1319:1329  _msgSender */\n      tag_75\n        /* \"contracts/libs/Ownable.sol\":1319:1331  _msgSender() */\n      jump\t// in\n    tag_84:\n        /* \"contracts/libs/Ownable.sol\":1309:1331  _owner == _msgSender() */\n      0xffffffffffffffffffffffffffffffffffffffff\n      and\n        /* \"contracts/libs/Ownable.sol\":1309:1315  _owner */\n      0x00\n      dup1\n      sload\n      swap1\n      0x0100\n      exp\n      swap1\n      div\n      0xffffffffffffffffffffffffffffffffffffffff\n      and\n        /* \"contracts/libs/Ownable.sol\":1309:1331  _owner == _msgSender() */\n      0xffffffffffffffffffffffffffffffffffffffff\n      and\n      eq\n        /* \"contracts/libs/Ownable.sol\":1301:1368  require(_owner == _msgSender(), \"Ownable: caller is not the owner\") */\n      tag_85\n      jumpi\n      mload(0x40)\n      0x08c379a000000000000000000000000000000000000000000000000000000000\n      dup2\n      mstore\n      0x04\n      add\n      dup1\n      dup1\n      0x20\n      add\n      dup3\n      dup2\n      sub\n      dup3\n      mstore\n      0x20\n      dup2\n      mstore\n      0x20\n      add\n      dup1\n      0x4f776e61626c653a2063616c6c6572206973206e6f7420746865206f776e6572\n      dup2\n      mstore\n      pop\n      0x20\n      add\n      swap2\n      pop\n      pop\n      mload(0x40)\n      dup1\n      swap2\n      sub\n      swap1\n      revert\n    tag_85:\n        /* \"contracts/Burna.sol\":1911:1916  false */\n      0x00\n        /* \"contracts/Burna.sol\":1899:1916  isFunded == false */\n      iszero\n      iszero\n        /* \"contracts/Burna.sol\":1899:1907  isFunded */\n      0x01\n      0x14\n      swap1\n      sload\n      swap1\n      0x0100\n      exp\n      swap1\n      div\n      0xff\n      and\n        /* \"contracts/Burna.sol\":1899:1916  isFunded == false */\n      iszero\n      iszero\n      eq\n        /* \"contracts/Burna.sol\":1891:1917  require(isFunded == false) */\n      tag_87\n      jumpi\n      0x00\n      dup1\n      revert\n    tag_87:\n        /* \"contracts/Burna.sol\":1942:1951  startTime */\n      sload(0x04)\n        /* \"contracts/Burna.sol\":1936:1939  now */\n      timestamp\n        /* \"contracts/Burna.sol\":1936:1951  now < startTime */\n      lt\n        /* \"contracts/Burna.sol\":1928:1952  require(now < startTime) */\n      tag_88\n      jumpi\n      0x00\n      dup1\n      revert\n    tag_88:\n        /* \"contracts/Burna.sol\":1982:1994  500000 ether */\n      0x69e10de76676d0800000\n        /* \"contracts/Burna.sol\":1971:1978  _amount */\n      dup2\n        /* \"contracts/Burna.sol\":1971:1994  _amount == 500000 ether */\n      eq\n        /* \"contracts/Burna.sol\":1963:1995  require(_amount == 500000 ether) */\n      tag_89\n      jumpi\n      0x00\n      dup1\n      revert\n    tag_89:\n        /* \"contracts/Burna.sol\":2013:2024  dethAddress */\n      0x01\n      0x00\n      swap1\n      sload\n      swap1\n      0x0100\n      exp\n      swap1\n      div\n      0xffffffffffffffffffffffffffffffffffffffff\n      and\n        /* \"contracts/Burna.sol\":2006:2034  IERC20(dethAddress).transfer */\n      0xffffffffffffffffffffffffffffffffffffffff\n      and\n      0xa9059cbb\n        /* \"contracts/Burna.sol\":2043:2047  this */\n      address\n        /* \"contracts/Burna.sol\":2050:2057  _amount */\n      dup4\n        /* \"contracts/Burna.sol\":2006:2058  IERC20(dethAddress).transfer(address(this), _amount) */\n      mload(0x40)\n      dup4\n      0xffffffff\n      and\n      0xe0\n      shl\n      dup2\n      mstore\n      0x04\n      add\n      dup1\n      dup4\n      0xffffffffffffffffffffffffffffffffffffffff\n      and\n      dup2\n      mstore\n      0x20\n      add\n      dup3\n      dup2\n      mstore\n      0x20\n      add\n      swap3\n      pop\n      pop\n      pop\n      0x20\n      mload(0x40)\n      dup1\n      dup4\n      sub\n      dup2\n      0x00\n      dup8\n      dup1\n      extcodesize\n      iszero\n      dup1\n      iszero\n      tag_90\n      jumpi\n      0x00\n      dup1\n      revert\n    tag_90:\n      pop\n      gas\n      call\n      iszero\n      dup1\n      iszero\n      tag_92\n      jumpi\n      returndatasize\n      0x00\n      dup1\n      returndatacopy\n      revert(0x00, returndatasize)\n    tag_92:\n      pop\n      pop\n      pop\n      pop\n      mload(0x40)\n      returndatasize\n      0x20\n      dup2\n      lt\n      iszero\n      tag_93\n      jumpi\n      0x00\n      dup1\n      revert\n    tag_93:\n      dup2\n      add\n      swap1\n      dup1\n      dup1\n      mload\n      swap1\n      0x20\n      add\n      swap1\n      swap3\n      swap2\n      swap1\n      pop\n      pop\n      pop\n      pop\n        /* \"contracts/Burna.sol\":2080:2084  true */\n      0x01\n        /* \"contracts/Burna.sol\":2069:2077  isFunded */\n      dup1\n      0x14\n        /* \"contracts/Burna.sol\":2069:2084  isFunded = true */\n      0x0100\n      exp\n      dup2\n      sload\n      dup2\n      0xff\n      mul\n      not\n      and\n      swap1\n      dup4\n      iszero\n      iszero\n      mul\n      or\n      swap1\n      sstore\n      pop\n        /* \"contracts/Burna.sol\":2104:2111  _amount */\n      dup1\n        /* \"contracts/Burna.sol\":2095:2101  supply */\n      0x02\n        /* \"contracts/Burna.sol\":2095:2111  supply = _amount */\n      dup2\n      swap1\n      sstore\n      pop\n        /* \"contracts/Burna.sol\":2129:2155  BurnerFunded(_amount, now) */\n      0x73d856f5acf4bb0dfcc775791dbf5aa882b81951d141781124f00428c3075eb7\n        /* \"contracts/Burna.sol\":2142:2149  _amount */\n      dup2\n        /* \"contracts/Burna.sol\":2151:2154  now */\n      timestamp\n        /* \"contracts/Burna.sol\":2129:2155  BurnerFunded(_amount, now) */\n      mload(0x40)\n      dup1\n      dup4\n      dup2\n      mstore\n      0x20\n      add\n      dup3\n      dup2\n      mstore\n      0x20\n      add\n      swap3\n      pop\n      pop\n      pop\n      mload(0x40)\n      dup1\n      swap2\n      sub\n      swap1\n      log1\n        /* \"contracts/Burna.sol\":1830:2163  function fund(uint256 _amount) external onlyOwner {\r... */\n      pop\n      jump\t// out\n        /* \"contracts/Burna.sol\":1432:1629  function getDethAddress() public view returns (address) {\r... */\n    tag_54:\n        /* \"contracts/Burna.sol\":1479:1486  address */\n      0x00\n        /* \"contracts/Burna.sol\":1530:1531  0 */\n      dup1\n        /* \"contracts/Burna.sol\":1507:1532  dethAddress != address(0) */\n      0xffffffffffffffffffffffffffffffffffffffff\n      and\n        /* \"contracts/Burna.sol\":1507:1518  dethAddress */\n      0x01\n      0x00\n      swap1\n      sload\n      swap1\n      0x0100\n      exp\n      swap1\n      div\n      0xffffffffffffffffffffffffffffffffffffffff\n      and\n        /* \"contracts/Burna.sol\":1507:1532  dethAddress != address(0) */\n      0xffffffffffffffffffffffffffffffffffffffff\n      and\n      eq\n      iszero\n        /* \"contracts/Burna.sol\":1499:1592  require(dethAddress != address(0), \"...How did you deploy without setting the deth address?\") */\n      tag_95\n      jumpi\n      mload(0x40)\n      0x08c379a000000000000000000000000000000000000000000000000000000000\n      dup2\n      mstore\n      0x04\n      add\n      dup1\n      dup1\n      0x20\n      add\n      dup3\n      dup2\n      sub\n      dup3\n      mstore\n      0x37\n      dup2\n      mstore\n      0x20\n      add\n      dup1\n      data_ce8141a160353bd316ca4cc73e4787e267ba1cda802cb11cb760d98ab3af9fba\n      0x37\n      swap2\n      codecopy\n      0x40\n      add\n      swap2\n      pop\n      pop\n      mload(0x40)\n      dup1\n      swap2\n      sub\n      swap1\n      revert\n    tag_95:\n        /* \"contracts/Burna.sol\":1610:1621  dethAddress */\n      0x01\n      0x00\n      swap1\n      sload\n      swap1\n      0x0100\n      exp\n      swap1\n      div\n      0xffffffffffffffffffffffffffffffffffffffff\n      and\n        /* \"contracts/Burna.sol\":1603:1621  return dethAddress */\n      swap1\n      pop\n        /* \"contracts/Burna.sol\":1432:1629  function getDethAddress() public view returns (address) {\r... */\n      swap1\n      jump\t// out\n        /* \"contracts/Burna.sol\":652:678  uint256 public totalBurned */\n    tag_56:\n      sload(0x03)\n      dup2\n      jump\t// out\n        /* \"contracts/Burna.sol\":1738:1822  function getIsFunded() public view returns (bool) {\r... */\n    tag_58:\n        /* \"contracts/Burna.sol\":1782:1786  bool */\n      0x00\n        /* \"contracts/Burna.sol\":1806:1814  isFunded */\n      0x01\n      0x14\n      swap1\n      sload\n      swap1\n      0x0100\n      exp\n      swap1\n      div\n      0xff\n      and\n        /* \"contracts/Burna.sol\":1799:1814  return isFunded */\n      swap1\n      pop\n        /* \"contracts/Burna.sol\":1738:1822  function getIsFunded() public view returns (bool) {\r... */\n      swap1\n      jump\t// out\n        /* \"contracts/libs/Ownable.sol\":2042:2286  function transferOwnership(address newOwner) public virtual onlyOwner {\r... */\n    tag_61:\n        /* \"contracts/libs/Ownable.sol\":1319:1331  _msgSender() */\n      tag_98\n        /* \"contracts/libs/Ownable.sol\":1319:1329  _msgSender */\n      tag_75\n        /* \"contracts/libs/Ownable.sol\":1319:1331  _msgSender() */\n      jump\t// in\n    tag_98:\n        /* \"contracts/libs/Ownable.sol\":1309:1331  _owner == _msgSender() */\n      0xffffffffffffffffffffffffffffffffffffffff\n      and\n        /* \"contracts/libs/Ownable.sol\":1309:1315  _owner */\n      0x00\n      dup1\n      sload\n      swap1\n      0x0100\n      exp\n      swap1\n      div\n      0xffffffffffffffffffffffffffffffffffffffff\n      and\n        /* \"contracts/libs/Ownable.sol\":1309:1331  _owner == _msgSender() */\n      0xffffffffffffffffffffffffffffffffffffffff\n      and\n      eq\n        /* \"contracts/libs/Ownable.sol\":1301:1368  require(_owner == _msgSender(), \"Ownable: caller is not the owner\") */\n      tag_99\n      jumpi\n      mload(0x40)\n      0x08c379a000000000000000000000000000000000000000000000000000000000\n      dup2\n      mstore\n      0x04\n      add\n      dup1\n      dup1\n      0x20\n      add\n      dup3\n      dup2\n      sub\n      dup3\n      mstore\n      0x20\n      dup2\n      mstore\n      0x20\n      add\n      dup1\n      0x4f776e61626c653a2063616c6c6572206973206e6f7420746865206f776e6572\n      dup2\n      mstore\n      pop\n      0x20\n      add\n      swap2\n      pop\n      pop\n      mload(0x40)\n      dup1\n      swap2\n      sub\n      swap1\n      revert\n    tag_99:\n        /* \"contracts/libs/Ownable.sol\":2151:2152  0 */\n      0x00\n        /* \"contracts/libs/Ownable.sol\":2131:2153  newOwner != address(0) */\n      0xffffffffffffffffffffffffffffffffffffffff\n      and\n        /* \"contracts/libs/Ownable.sol\":2131:2139  newOwner */\n      dup2\n        /* \"contracts/libs/Ownable.sol\":2131:2153  newOwner != address(0) */\n      0xffffffffffffffffffffffffffffffffffffffff\n      and\n      eq\n      iszero\n        /* \"contracts/libs/Ownable.sol\":2123:2196  require(newOwner != address(0), \"Ownable: new owner is the zero address\") */\n      tag_101\n      jumpi\n      mload(0x40)\n      0x08c379a000000000000000000000000000000000000000000000000000000000\n      dup2\n      mstore\n      0x04\n      add\n      dup1\n      dup1\n      0x20\n      add\n      dup3\n      dup2\n      sub\n      dup3\n      mstore\n      0x26\n      dup2\n      mstore\n      0x20\n      add\n      dup1\n      data_245f15ff17f551913a7a18385165551503906a406f905ac1c2437281a7cd0cfe\n      0x26\n      swap2\n      codecopy\n      0x40\n      add\n      swap2\n      pop\n      pop\n      mload(0x40)\n      dup1\n      swap2\n      sub\n      swap1\n      revert\n    tag_101:\n        /* \"contracts/libs/Ownable.sol\":2241:2249  newOwner */\n      dup1\n        /* \"contracts/libs/Ownable.sol\":2212:2250  OwnershipTransferred(_owner, newOwner) */\n      0xffffffffffffffffffffffffffffffffffffffff\n      and\n        /* \"contracts/libs/Ownable.sol\":2233:2239  _owner */\n      0x00\n      dup1\n      sload\n      swap1\n      0x0100\n      exp\n      swap1\n      div\n      0xffffffffffffffffffffffffffffffffffffffff\n      and\n        /* \"contracts/libs/Ownable.sol\":2212:2250  OwnershipTransferred(_owner, newOwner) */\n      0xffffffffffffffffffffffffffffffffffffffff\n      and\n      0x8be0079c531659141344cd1fd0a4f28419497f9722a3daafe3b4186f6b6457e0\n      mload(0x40)\n      mload(0x40)\n      dup1\n      swap2\n      sub\n      swap1\n      log3\n        /* \"contracts/libs/Ownable.sol\":2270:2278  newOwner */\n      dup1\n        /* \"contracts/libs/Ownable.sol\":2261:2267  _owner */\n      0x00\n      dup1\n        /* \"contracts/libs/Ownable.sol\":2261:2278  _owner = newOwner */\n      0x0100\n      exp\n      dup2\n      sload\n      dup2\n      0xffffffffffffffffffffffffffffffffffffffff\n      mul\n      not\n      and\n      swap1\n      dup4\n      0xffffffffffffffffffffffffffffffffffffffff\n      and\n      mul\n      or\n      swap1\n      sstore\n      pop\n        /* \"contracts/libs/Ownable.sol\":2042:2286  function transferOwnership(address newOwner) public virtual onlyOwner {\r... */\n      pop\n      jump\t// out\n        /* \"contracts/libs/Context.sol\":607:713  function _msgSender() internal view virtual returns (address payable) {\r... */\n    tag_75:\n        /* \"contracts/libs/Context.sol\":660:675  address payable */\n      0x00\n        /* \"contracts/libs/Context.sol\":695:705  msg.sender */\n      caller\n        /* \"contracts/libs/Context.sol\":688:705  return msg.sender */\n      swap1\n      pop\n        /* \"contracts/libs/Context.sol\":607:713  function _msgSender() internal view virtual returns (address payable) {\r... */\n      swap1\n      jump\t// out\n    stop\n    data_245f15ff17f551913a7a18385165551503906a406f905ac1c2437281a7cd0cfe 4f776e61626c653a206e6577206f776e657220697320746865207a65726f2061646472657373\n    data_a67d95f2293c637cd38d40b5cce5f7b6bf2fc1953650a6994d31e9ed06ca1ce0 644554482063616e206f6e6c79206265206275726e6564206f6e636520616e20686f7572\n    data_ce8141a160353bd316ca4cc73e4787e267ba1cda802cb11cb760d98ab3af9fba 2e2e2e486f772064696420796f75206465706c6f7920776974686f75742073657474696e6720746865206465746820616464726573733f\n\n    auxdata: 0xa26469706673582212208ec3155fe5c0ad3ac6d138be8ec43fe482e6023c2c93d287ddafa7907d3ca19b64736f6c634300060c0033\n}\n",
				"bytecode": {
					"linkReferences": {},
					"object": "60a060405261dead73ffffffffffffffffffffffffffffffffffffffff1660809073ffffffffffffffffffffffffffffffffffffffff1660601b8152506000600160146101000a81548160ff021916908315150217905550600060055534801561006857600080fd5b5060405161115e38038061115e8339818101604052604081101561008b57600080fd5b81019080805190602001909291908051906020019092919050505060006100b66101ab60201b60201c565b9050806000806101000a81548173ffffffffffffffffffffffffffffffffffffffff021916908373ffffffffffffffffffffffffffffffffffffffff1602179055508073ffffffffffffffffffffffffffffffffffffffff16600073ffffffffffffffffffffffffffffffffffffffff167f8be0079c531659141344cd1fd0a4f28419497f9722a3daafe3b4186f6b6457e060405160405180910390a35081600160006101000a81548173ffffffffffffffffffffffffffffffffffffffff021916908373ffffffffffffffffffffffffffffffffffffffff16021790555080600481905550600060038190555050506101b3565b600033905090565b60805160601c610f896101d5600039806103bf52806108d95250610f896000f3fe608060405234801561001057600080fd5b50600436106101165760003560e01c80639020e645116100a2578063ca1d209d11610071578063ca1d209d146102d3578063cd066e4514610301578063d89135cd14610335578063f0f2d41314610353578063f2fde38b1461037357610116565b80639020e6451461022f578063b0feb13014610263578063b55cd04b14610297578063c828371e146102b557610116565b80636c9c2faf116100e95780636c9c2faf14610195578063715018a6146101b357806378e97925146101bd5780637c654303146101db5780638da5cb5b146101fb57610116565b8063047fc9aa1461011b57806327c8f835146101395780633d4b5cc61461016d57806344df8e701461018b575b600080fd5b6101236103b7565b6040518082815260200191505060405180910390f35b6101416103bd565b604051808273ffffffffffffffffffffffffffffffffffffffff16815260200191505060405180910390f35b6101756103e1565b6040518082815260200191505060405180910390f35b6101936103e7565b005b61019d61065b565b6040518082815260200191505060405180910390f35b6101bb6106e7565b005b6101c561086d565b6040518082815260200191505060405180910390f35b6101e3610873565b60405180821515815260200191505060405180910390f35b610203610886565b604051808273ffffffffffffffffffffffffffffffffffffffff16815260200191505060405180910390f35b6102376108af565b604051808273ffffffffffffffffffffffffffffffffffffffff16815260200191505060405180910390f35b61026b6108d5565b604051808273ffffffffffffffffffffffffffffffffffffffff16815260200191505060405180910390f35b61029f6108fd565b6040518082815260200191505060405180910390f35b6102bd610989565b6040518082815260200191505060405180910390f35b6102ff600480360360208110156102e957600080fd5b8101908080359060200190929190505050610993565b005b610309610bd1565b604051808273ffffffffffffffffffffffffffffffffffffffff16815260200191505060405180910390f35b61033d610ca2565b6040518082815260200191505060405180910390f35b61035b610ca8565b60405180821515815260200191505060405180910390f35b6103b56004803603602081101561038957600080fd5b81019080803573ffffffffffffffffffffffffffffffffffffffff169060200190929190505050610cbf565b005b60025481565b7f000000000000000000000000000000000000000000000000000000000000000081565b60055481565b600160149054906101000a900460ff16610469576040517f08c379a00000000000000000000000000000000000000000000000000000000081526004018080602001828103825260188152602001807f4275726e6572206973206e6f742066756e64656420796574000000000000000081525060200191505060405180910390fd5b60045442116104e0576040517f08c379a00000000000000000000000000000000000000000000000000000000081526004018080602001828103825260198152602001807f4275726e6572206973206e6f742079657420737461727465640000000000000081525060200191505060405180910390fd5b610e1060055442031161053e576040517f08c379a0000000000000000000000000000000000000000000000000000000008152600401808060200182810382526024815260200180610ef96024913960400191505060405180910390fd5b60006002600160009054906101000a900473ffffffffffffffffffffffffffffffffffffffff1673ffffffffffffffffffffffffffffffffffffffff166370a08231306040518263ffffffff1660e01b8152600401808273ffffffffffffffffffffffffffffffffffffffff16815260200191505060206040518083038186803b1580156105cb57600080fd5b505afa1580156105df573d6000803e3d6000fd5b505050506040513d60208110156105f557600080fd5b81019080805190602001909291905050508161060d57fe5b049050426005819055507f9d7b6228054d3633be8cd708771f400e539e62d2df76aca71f3d8b0eb287eb2481600554604051808381526020018281526020019250505060405180910390a150565b6000600160149054906101000a900460ff166106df576040517f08c379a00000000000000000000000000000000000000000000000000000000081526004018080602001828103825260188152602001807f4275726e6572206973206e6f742066756e64656420796574000000000000000081525060200191505060405180910390fd5b600254905090565b6106ef610eca565b73ffffffffffffffffffffffffffffffffffffffff1660008054906101000a900473ffffffffffffffffffffffffffffffffffffffff1673ffffffffffffffffffffffffffffffffffffffff16146107af576040517f08c379a00000000000000000000000000000000000000000000000000000000081526004018080602001828103825260208152602001807f4f776e61626c653a2063616c6c6572206973206e6f7420746865206f776e657281525060200191505060405180910390fd5b600073ffffffffffffffffffffffffffffffffffffffff1660008054906101000a900473ffffffffffffffffffffffffffffffffffffffff1673ffffffffffffffffffffffffffffffffffffffff167f8be0079c531659141344cd1fd0a4f28419497f9722a3daafe3b4186f6b6457e060405160405180910390a360008060006101000a81548173ffffffffffffffffffffffffffffffffffffffff021916908373ffffffffffffffffffffffffffffffffffffffff160217905550565b60045481565b600160149054906101000a900460ff1681565b60008060009054906101000a900473ffffffffffffffffffffffffffffffffffffffff16905090565b600160009054906101000a900473ffffffffffffffffffffffffffffffffffffffff1681565b60007f0000000000000000000000000000000000000000000000000000000000000000905090565b6000600160149054906101000a900460ff16610981576040517f08c379a00000000000000000000000000000000000000000000000000000000081526004018080602001828103825260188152602001807f4275726e6572206973206e6f742066756e64656420796574000000000000000081525060200191505060405180910390fd5b600354905090565b6000600454905090565b61099b610eca565b73ffffffffffffffffffffffffffffffffffffffff1660008054906101000a900473ffffffffffffffffffffffffffffffffffffffff1673ffffffffffffffffffffffffffffffffffffffff1614610a5b576040517f08c379a00000000000000000000000000000000000000000000000000000000081526004018080602001828103825260208152602001807f4f776e61626c653a2063616c6c6572206973206e6f7420746865206f776e657281525060200191505060405180910390fd5b60001515600160149054906101000a900460ff16151514610a7b57600080fd5b6004544210610a8957600080fd5b6969e10de76676d08000008114610a9f57600080fd5b600160009054906101000a900473ffffffffffffffffffffffffffffffffffffffff1673ffffffffffffffffffffffffffffffffffffffff1663a9059cbb30836040518363ffffffff1660e01b8152600401808373ffffffffffffffffffffffffffffffffffffffff16815260200182815260200192505050602060405180830381600087803b158015610b3257600080fd5b505af1158015610b46573d6000803e3d6000fd5b505050506040513d6020811015610b5c57600080fd5b81019080805190602001909291905050505060018060146101000a81548160ff021916908315150217905550806002819055507f73d856f5acf4bb0dfcc775791dbf5aa882b81951d141781124f00428c3075eb78142604051808381526020018281526020019250505060405180910390a150565b60008073ffffffffffffffffffffffffffffffffffffffff16600160009054906101000a900473ffffffffffffffffffffffffffffffffffffffff1673ffffffffffffffffffffffffffffffffffffffff161415610c7a576040517f08c379a0000000000000000000000000000000000000000000000000000000008152600401808060200182810382526037815260200180610f1d6037913960400191505060405180910390fd5b600160009054906101000a900473ffffffffffffffffffffffffffffffffffffffff16905090565b60035481565b6000600160149054906101000a900460ff16905090565b610cc7610eca565b73ffffffffffffffffffffffffffffffffffffffff1660008054906101000a900473ffffffffffffffffffffffffffffffffffffffff1673ffffffffffffffffffffffffffffffffffffffff1614610d87576040517f08c379a00000000000000000000000000000000000000000000000000000000081526004018080602001828103825260208152602001807f4f776e61626c653a2063616c6c6572206973206e6f7420746865206f776e657281525060200191505060405180910390fd5b600073ffffffffffffffffffffffffffffffffffffffff168173ffffffffffffffffffffffffffffffffffffffff161415610e0d576040517f08c379a0000000000000000000000000000000000000000000000000000000008152600401808060200182810382526026815260200180610ed36026913960400191505060405180910390fd5b8073ffffffffffffffffffffffffffffffffffffffff1660008054906101000a900473ffffffffffffffffffffffffffffffffffffffff1673ffffffffffffffffffffffffffffffffffffffff167f8be0079c531659141344cd1fd0a4f28419497f9722a3daafe3b4186f6b6457e060405160405180910390a3806000806101000a81548173ffffffffffffffffffffffffffffffffffffffff021916908373ffffffffffffffffffffffffffffffffffffffff16021790555050565b60003390509056fe4f776e61626c653a206e6577206f776e657220697320746865207a65726f2061646472657373644554482063616e206f6e6c79206265206275726e6564206f6e636520616e20686f75722e2e2e486f772064696420796f75206465706c6f7920776974686f75742073657474696e6720746865206465746820616464726573733fa26469706673582212208ec3155fe5c0ad3ac6d138be8ec43fe482e6023c2c93d287ddafa7907d3ca19b64736f6c634300060c0033",
					"opcodes": "PUSH1 0xA0 PUSH1 0x40 MSTORE PUSH2 0xDEAD PUSH20 0xFFFFFFFFFFFFFFFFFFFFFFFFFFFFFFFFFFFFFFFF AND PUSH1 0x80 SWAP1 PUSH20 0xFFFFFFFFFFFFFFFFFFFFFFFFFFFFFFFFFFFFFFFF AND PUSH1 0x60 SHL DUP2 MSTORE POP PUSH1 0x0 PUSH1 0x1 PUSH1 0x14 PUSH2 0x100 EXP DUP2 SLOAD DUP2 PUSH1 0xFF MUL NOT AND SWAP1 DUP4 ISZERO ISZERO MUL OR SWAP1 SSTORE POP PUSH1 0x0 PUSH1 0x5 SSTORE CALLVALUE DUP1 ISZERO PUSH2 0x68 JUMPI PUSH1 0x0 DUP1 REVERT JUMPDEST POP PUSH1 0x40 MLOAD PUSH2 0x115E CODESIZE SUB DUP1 PUSH2 0x115E DUP4 CODECOPY DUP2 DUP2 ADD PUSH1 0x40 MSTORE PUSH1 0x40 DUP2 LT ISZERO PUSH2 0x8B JUMPI PUSH1 0x0 DUP1 REVERT JUMPDEST DUP2 ADD SWAP1 DUP1 DUP1 MLOAD SWAP1 PUSH1 0x20 ADD SWAP1 SWAP3 SWAP2 SWAP1 DUP1 MLOAD SWAP1 PUSH1 0x20 ADD SWAP1 SWAP3 SWAP2 SWAP1 POP POP POP PUSH1 0x0 PUSH2 0xB6 PUSH2 0x1AB PUSH1 0x20 SHL PUSH1 0x20 SHR JUMP JUMPDEST SWAP1 POP DUP1 PUSH1 0x0 DUP1 PUSH2 0x100 EXP DUP2 SLOAD DUP2 PUSH20 0xFFFFFFFFFFFFFFFFFFFFFFFFFFFFFFFFFFFFFFFF MUL NOT AND SWAP1 DUP4 PUSH20 0xFFFFFFFFFFFFFFFFFFFFFFFFFFFFFFFFFFFFFFFF AND MUL OR SWAP1 SSTORE POP DUP1 PUSH20 0xFFFFFFFFFFFFFFFFFFFFFFFFFFFFFFFFFFFFFFFF AND PUSH1 0x0 PUSH20 0xFFFFFFFFFFFFFFFFFFFFFFFFFFFFFFFFFFFFFFFF AND PUSH32 0x8BE0079C531659141344CD1FD0A4F28419497F9722A3DAAFE3B4186F6B6457E0 PUSH1 0x40 MLOAD PUSH1 0x40 MLOAD DUP1 SWAP2 SUB SWAP1 LOG3 POP DUP2 PUSH1 0x1 PUSH1 0x0 PUSH2 0x100 EXP DUP2 SLOAD DUP2 PUSH20 0xFFFFFFFFFFFFFFFFFFFFFFFFFFFFFFFFFFFFFFFF MUL NOT AND SWAP1 DUP4 PUSH20 0xFFFFFFFFFFFFFFFFFFFFFFFFFFFFFFFFFFFFFFFF AND MUL OR SWAP1 SSTORE POP DUP1 PUSH1 0x4 DUP2 SWAP1 SSTORE POP PUSH1 0x0 PUSH1 0x3 DUP2 SWAP1 SSTORE POP POP POP PUSH2 0x1B3 JUMP JUMPDEST PUSH1 0x0 CALLER SWAP1 POP SWAP1 JUMP JUMPDEST PUSH1 0x80 MLOAD PUSH1 0x60 SHR PUSH2 0xF89 PUSH2 0x1D5 PUSH1 0x0 CODECOPY DUP1 PUSH2 0x3BF MSTORE DUP1 PUSH2 0x8D9 MSTORE POP PUSH2 0xF89 PUSH1 0x0 RETURN INVALID PUSH1 0x80 PUSH1 0x40 MSTORE CALLVALUE DUP1 ISZERO PUSH2 0x10 JUMPI PUSH1 0x0 DUP1 REVERT JUMPDEST POP PUSH1 0x4 CALLDATASIZE LT PUSH2 0x116 JUMPI PUSH1 0x0 CALLDATALOAD PUSH1 0xE0 SHR DUP1 PUSH4 0x9020E645 GT PUSH2 0xA2 JUMPI DUP1 PUSH4 0xCA1D209D GT PUSH2 0x71 JUMPI DUP1 PUSH4 0xCA1D209D EQ PUSH2 0x2D3 JUMPI DUP1 PUSH4 0xCD066E45 EQ PUSH2 0x301 JUMPI DUP1 PUSH4 0xD89135CD EQ PUSH2 0x335 JUMPI DUP1 PUSH4 0xF0F2D413 EQ PUSH2 0x353 JUMPI DUP1 PUSH4 0xF2FDE38B EQ PUSH2 0x373 JUMPI PUSH2 0x116 JUMP JUMPDEST DUP1 PUSH4 0x9020E645 EQ PUSH2 0x22F JUMPI DUP1 PUSH4 0xB0FEB130 EQ PUSH2 0x263 JUMPI DUP1 PUSH4 0xB55CD04B EQ PUSH2 0x297 JUMPI DUP1 PUSH4 0xC828371E EQ PUSH2 0x2B5 JUMPI PUSH2 0x116 JUMP JUMPDEST DUP1 PUSH4 0x6C9C2FAF GT PUSH2 0xE9 JUMPI DUP1 PUSH4 0x6C9C2FAF EQ PUSH2 0x195 JUMPI DUP1 PUSH4 0x715018A6 EQ PUSH2 0x1B3 JUMPI DUP1 PUSH4 0x78E97925 EQ PUSH2 0x1BD JUMPI DUP1 PUSH4 0x7C654303 EQ PUSH2 0x1DB JUMPI DUP1 PUSH4 0x8DA5CB5B EQ PUSH2 0x1FB JUMPI PUSH2 0x116 JUMP JUMPDEST DUP1 PUSH4 0x47FC9AA EQ PUSH2 0x11B JUMPI DUP1 PUSH4 0x27C8F835 EQ PUSH2 0x139 JUMPI DUP1 PUSH4 0x3D4B5CC6 EQ PUSH2 0x16D JUMPI DUP1 PUSH4 0x44DF8E70 EQ PUSH2 0x18B JUMPI JUMPDEST PUSH1 0x0 DUP1 REVERT JUMPDEST PUSH2 0x123 PUSH2 0x3B7 JUMP JUMPDEST PUSH1 0x40 MLOAD DUP1 DUP3 DUP2 MSTORE PUSH1 0x20 ADD SWAP2 POP POP PUSH1 0x40 MLOAD DUP1 SWAP2 SUB SWAP1 RETURN JUMPDEST PUSH2 0x141 PUSH2 0x3BD JUMP JUMPDEST PUSH1 0x40 MLOAD DUP1 DUP3 PUSH20 0xFFFFFFFFFFFFFFFFFFFFFFFFFFFFFFFFFFFFFFFF AND DUP2 MSTORE PUSH1 0x20 ADD SWAP2 POP POP PUSH1 0x40 MLOAD DUP1 SWAP2 SUB SWAP1 RETURN JUMPDEST PUSH2 0x175 PUSH2 0x3E1 JUMP JUMPDEST PUSH1 0x40 MLOAD DUP1 DUP3 DUP2 MSTORE PUSH1 0x20 ADD SWAP2 POP POP PUSH1 0x40 MLOAD DUP1 SWAP2 SUB SWAP1 RETURN JUMPDEST PUSH2 0x193 PUSH2 0x3E7 JUMP JUMPDEST STOP JUMPDEST PUSH2 0x19D PUSH2 0x65B JUMP JUMPDEST PUSH1 0x40 MLOAD DUP1 DUP3 DUP2 MSTORE PUSH1 0x20 ADD SWAP2 POP POP PUSH1 0x40 MLOAD DUP1 SWAP2 SUB SWAP1 RETURN JUMPDEST PUSH2 0x1BB PUSH2 0x6E7 JUMP JUMPDEST STOP JUMPDEST PUSH2 0x1C5 PUSH2 0x86D JUMP JUMPDEST PUSH1 0x40 MLOAD DUP1 DUP3 DUP2 MSTORE PUSH1 0x20 ADD SWAP2 POP POP PUSH1 0x40 MLOAD DUP1 SWAP2 SUB SWAP1 RETURN JUMPDEST PUSH2 0x1E3 PUSH2 0x873 JUMP JUMPDEST PUSH1 0x40 MLOAD DUP1 DUP3 ISZERO ISZERO DUP2 MSTORE PUSH1 0x20 ADD SWAP2 POP POP PUSH1 0x40 MLOAD DUP1 SWAP2 SUB SWAP1 RETURN JUMPDEST PUSH2 0x203 PUSH2 0x886 JUMP JUMPDEST PUSH1 0x40 MLOAD DUP1 DUP3 PUSH20 0xFFFFFFFFFFFFFFFFFFFFFFFFFFFFFFFFFFFFFFFF AND DUP2 MSTORE PUSH1 0x20 ADD SWAP2 POP POP PUSH1 0x40 MLOAD DUP1 SWAP2 SUB SWAP1 RETURN JUMPDEST PUSH2 0x237 PUSH2 0x8AF JUMP JUMPDEST PUSH1 0x40 MLOAD DUP1 DUP3 PUSH20 0xFFFFFFFFFFFFFFFFFFFFFFFFFFFFFFFFFFFFFFFF AND DUP2 MSTORE PUSH1 0x20 ADD SWAP2 POP POP PUSH1 0x40 MLOAD DUP1 SWAP2 SUB SWAP1 RETURN JUMPDEST PUSH2 0x26B PUSH2 0x8D5 JUMP JUMPDEST PUSH1 0x40 MLOAD DUP1 DUP3 PUSH20 0xFFFFFFFFFFFFFFFFFFFFFFFFFFFFFFFFFFFFFFFF AND DUP2 MSTORE PUSH1 0x20 ADD SWAP2 POP POP PUSH1 0x40 MLOAD DUP1 SWAP2 SUB SWAP1 RETURN JUMPDEST PUSH2 0x29F PUSH2 0x8FD JUMP JUMPDEST PUSH1 0x40 MLOAD DUP1 DUP3 DUP2 MSTORE PUSH1 0x20 ADD SWAP2 POP POP PUSH1 0x40 MLOAD DUP1 SWAP2 SUB SWAP1 RETURN JUMPDEST PUSH2 0x2BD PUSH2 0x989 JUMP JUMPDEST PUSH1 0x40 MLOAD DUP1 DUP3 DUP2 MSTORE PUSH1 0x20 ADD SWAP2 POP POP PUSH1 0x40 MLOAD DUP1 SWAP2 SUB SWAP1 RETURN JUMPDEST PUSH2 0x2FF PUSH1 0x4 DUP1 CALLDATASIZE SUB PUSH1 0x20 DUP2 LT ISZERO PUSH2 0x2E9 JUMPI PUSH1 0x0 DUP1 REVERT JUMPDEST DUP2 ADD SWAP1 DUP1 DUP1 CALLDATALOAD SWAP1 PUSH1 0x20 ADD SWAP1 SWAP3 SWAP2 SWAP1 POP POP POP PUSH2 0x993 JUMP JUMPDEST STOP JUMPDEST PUSH2 0x309 PUSH2 0xBD1 JUMP JUMPDEST PUSH1 0x40 MLOAD DUP1 DUP3 PUSH20 0xFFFFFFFFFFFFFFFFFFFFFFFFFFFFFFFFFFFFFFFF AND DUP2 MSTORE PUSH1 0x20 ADD SWAP2 POP POP PUSH1 0x40 MLOAD DUP1 SWAP2 SUB SWAP1 RETURN JUMPDEST PUSH2 0x33D PUSH2 0xCA2 JUMP JUMPDEST PUSH1 0x40 MLOAD DUP1 DUP3 DUP2 MSTORE PUSH1 0x20 ADD SWAP2 POP POP PUSH1 0x40 MLOAD DUP1 SWAP2 SUB SWAP1 RETURN JUMPDEST PUSH2 0x35B PUSH2 0xCA8 JUMP JUMPDEST PUSH1 0x40 MLOAD DUP1 DUP3 ISZERO ISZERO DUP2 MSTORE PUSH1 0x20 ADD SWAP2 POP POP PUSH1 0x40 MLOAD DUP1 SWAP2 SUB SWAP1 RETURN JUMPDEST PUSH2 0x3B5 PUSH1 0x4 DUP1 CALLDATASIZE SUB PUSH1 0x20 DUP2 LT ISZERO PUSH2 0x389 JUMPI PUSH1 0x0 DUP1 REVERT JUMPDEST DUP2 ADD SWAP1 DUP1 DUP1 CALLDATALOAD PUSH20 0xFFFFFFFFFFFFFFFFFFFFFFFFFFFFFFFFFFFFFFFF AND SWAP1 PUSH1 0x20 ADD SWAP1 SWAP3 SWAP2 SWAP1 POP POP POP PUSH2 0xCBF JUMP JUMPDEST STOP JUMPDEST PUSH1 0x2 SLOAD DUP2 JUMP JUMPDEST PUSH32 0x0 DUP2 JUMP JUMPDEST PUSH1 0x5 SLOAD DUP2 JUMP JUMPDEST PUSH1 0x1 PUSH1 0x14 SWAP1 SLOAD SWAP1 PUSH2 0x100 EXP SWAP1 DIV PUSH1 0xFF AND PUSH2 0x469 JUMPI PUSH1 0x40 MLOAD PUSH32 0x8C379A000000000000000000000000000000000000000000000000000000000 DUP2 MSTORE PUSH1 0x4 ADD DUP1 DUP1 PUSH1 0x20 ADD DUP3 DUP2 SUB DUP3 MSTORE PUSH1 0x18 DUP2 MSTORE PUSH1 0x20 ADD DUP1 PUSH32 0x4275726E6572206973206E6F742066756E646564207965740000000000000000 DUP2 MSTORE POP PUSH1 0x20 ADD SWAP2 POP POP PUSH1 0x40 MLOAD DUP1 SWAP2 SUB SWAP1 REVERT JUMPDEST PUSH1 0x4 SLOAD TIMESTAMP GT PUSH2 0x4E0 JUMPI PUSH1 0x40 MLOAD PUSH32 0x8C379A000000000000000000000000000000000000000000000000000000000 DUP2 MSTORE PUSH1 0x4 ADD DUP1 DUP1 PUSH1 0x20 ADD DUP3 DUP2 SUB DUP3 MSTORE PUSH1 0x19 DUP2 MSTORE PUSH1 0x20 ADD DUP1 PUSH32 0x4275726E6572206973206E6F7420796574207374617274656400000000000000 DUP2 MSTORE POP PUSH1 0x20 ADD SWAP2 POP POP PUSH1 0x40 MLOAD DUP1 SWAP2 SUB SWAP1 REVERT JUMPDEST PUSH2 0xE10 PUSH1 0x5 SLOAD TIMESTAMP SUB GT PUSH2 0x53E JUMPI PUSH1 0x40 MLOAD PUSH32 0x8C379A000000000000000000000000000000000000000000000000000000000 DUP2 MSTORE PUSH1 0x4 ADD DUP1 DUP1 PUSH1 0x20 ADD DUP3 DUP2 SUB DUP3 MSTORE PUSH1 0x24 DUP2 MSTORE PUSH1 0x20 ADD DUP1 PUSH2 0xEF9 PUSH1 0x24 SWAP2 CODECOPY PUSH1 0x40 ADD SWAP2 POP POP PUSH1 0x40 MLOAD DUP1 SWAP2 SUB SWAP1 REVERT JUMPDEST PUSH1 0x0 PUSH1 0x2 PUSH1 0x1 PUSH1 0x0 SWAP1 SLOAD SWAP1 PUSH2 0x100 EXP SWAP1 DIV PUSH20 0xFFFFFFFFFFFFFFFFFFFFFFFFFFFFFFFFFFFFFFFF AND PUSH20 0xFFFFFFFFFFFFFFFFFFFFFFFFFFFFFFFFFFFFFFFF AND PUSH4 0x70A08231 ADDRESS PUSH1 0x40 MLOAD DUP3 PUSH4 0xFFFFFFFF AND PUSH1 0xE0 SHL DUP2 MSTORE PUSH1 0x4 ADD DUP1 DUP3 PUSH20 0xFFFFFFFFFFFFFFFFFFFFFFFFFFFFFFFFFFFFFFFF AND DUP2 MSTORE PUSH1 0x20 ADD SWAP2 POP POP PUSH1 0x20 PUSH1 0x40 MLOAD DUP1 DUP4 SUB DUP2 DUP7 DUP1 EXTCODESIZE ISZERO DUP1 ISZERO PUSH2 0x5CB JUMPI PUSH1 0x0 DUP1 REVERT JUMPDEST POP GAS STATICCALL ISZERO DUP1 ISZERO PUSH2 0x5DF JUMPI RETURNDATASIZE PUSH1 0x0 DUP1 RETURNDATACOPY RETURNDATASIZE PUSH1 0x0 REVERT JUMPDEST POP POP POP POP PUSH1 0x40 MLOAD RETURNDATASIZE PUSH1 0x20 DUP2 LT ISZERO PUSH2 0x5F5 JUMPI PUSH1 0x0 DUP1 REVERT JUMPDEST DUP2 ADD SWAP1 DUP1 DUP1 MLOAD SWAP1 PUSH1 0x20 ADD SWAP1 SWAP3 SWAP2 SWAP1 POP POP POP DUP2 PUSH2 0x60D JUMPI INVALID JUMPDEST DIV SWAP1 POP TIMESTAMP PUSH1 0x5 DUP2 SWAP1 SSTORE POP PUSH32 0x9D7B6228054D3633BE8CD708771F400E539E62D2DF76ACA71F3D8B0EB287EB24 DUP2 PUSH1 0x5 SLOAD PUSH1 0x40 MLOAD DUP1 DUP4 DUP2 MSTORE PUSH1 0x20 ADD DUP3 DUP2 MSTORE PUSH1 0x20 ADD SWAP3 POP POP POP PUSH1 0x40 MLOAD DUP1 SWAP2 SUB SWAP1 LOG1 POP JUMP JUMPDEST PUSH1 0x0 PUSH1 0x1 PUSH1 0x14 SWAP1 SLOAD SWAP1 PUSH2 0x100 EXP SWAP1 DIV PUSH1 0xFF AND PUSH2 0x6DF JUMPI PUSH1 0x40 MLOAD PUSH32 0x8C379A000000000000000000000000000000000000000000000000000000000 DUP2 MSTORE PUSH1 0x4 ADD DUP1 DUP1 PUSH1 0x20 ADD DUP3 DUP2 SUB DUP3 MSTORE PUSH1 0x18 DUP2 MSTORE PUSH1 0x20 ADD DUP1 PUSH32 0x4275726E6572206973206E6F742066756E646564207965740000000000000000 DUP2 MSTORE POP PUSH1 0x20 ADD SWAP2 POP POP PUSH1 0x40 MLOAD DUP1 SWAP2 SUB SWAP1 REVERT JUMPDEST PUSH1 0x2 SLOAD SWAP1 POP SWAP1 JUMP JUMPDEST PUSH2 0x6EF PUSH2 0xECA JUMP JUMPDEST PUSH20 0xFFFFFFFFFFFFFFFFFFFFFFFFFFFFFFFFFFFFFFFF AND PUSH1 0x0 DUP1 SLOAD SWAP1 PUSH2 0x100 EXP SWAP1 DIV PUSH20 0xFFFFFFFFFFFFFFFFFFFFFFFFFFFFFFFFFFFFFFFF AND PUSH20 0xFFFFFFFFFFFFFFFFFFFFFFFFFFFFFFFFFFFFFFFF AND EQ PUSH2 0x7AF JUMPI PUSH1 0x40 MLOAD PUSH32 0x8C379A000000000000000000000000000000000000000000000000000000000 DUP2 MSTORE PUSH1 0x4 ADD DUP1 DUP1 PUSH1 0x20 ADD DUP3 DUP2 SUB DUP3 MSTORE PUSH1 0x20 DUP2 MSTORE PUSH1 0x20 ADD DUP1 PUSH32 0x4F776E61626C653A2063616C6C6572206973206E6F7420746865206F776E6572 DUP2 MSTORE POP PUSH1 0x20 ADD SWAP2 POP POP PUSH1 0x40 MLOAD DUP1 SWAP2 SUB SWAP1 REVERT JUMPDEST PUSH1 0x0 PUSH20 0xFFFFFFFFFFFFFFFFFFFFFFFFFFFFFFFFFFFFFFFF AND PUSH1 0x0 DUP1 SLOAD SWAP1 PUSH2 0x100 EXP SWAP1 DIV PUSH20 0xFFFFFFFFFFFFFFFFFFFFFFFFFFFFFFFFFFFFFFFF AND PUSH20 0xFFFFFFFFFFFFFFFFFFFFFFFFFFFFFFFFFFFFFFFF AND PUSH32 0x8BE0079C531659141344CD1FD0A4F28419497F9722A3DAAFE3B4186F6B6457E0 PUSH1 0x40 MLOAD PUSH1 0x40 MLOAD DUP1 SWAP2 SUB SWAP1 LOG3 PUSH1 0x0 DUP1 PUSH1 0x0 PUSH2 0x100 EXP DUP2 SLOAD DUP2 PUSH20 0xFFFFFFFFFFFFFFFFFFFFFFFFFFFFFFFFFFFFFFFF MUL NOT AND SWAP1 DUP4 PUSH20 0xFFFFFFFFFFFFFFFFFFFFFFFFFFFFFFFFFFFFFFFF AND MUL OR SWAP1 SSTORE POP JUMP JUMPDEST PUSH1 0x4 SLOAD DUP2 JUMP JUMPDEST PUSH1 0x1 PUSH1 0x14 SWAP1 SLOAD SWAP1 PUSH2 0x100 EXP SWAP1 DIV PUSH1 0xFF AND DUP2 JUMP JUMPDEST PUSH1 0x0 DUP1 PUSH1 0x0 SWAP1 SLOAD SWAP1 PUSH2 0x100 EXP SWAP1 DIV PUSH20 0xFFFFFFFFFFFFFFFFFFFFFFFFFFFFFFFFFFFFFFFF AND SWAP1 POP SWAP1 JUMP JUMPDEST PUSH1 0x1 PUSH1 0x0 SWAP1 SLOAD SWAP1 PUSH2 0x100 EXP SWAP1 DIV PUSH20 0xFFFFFFFFFFFFFFFFFFFFFFFFFFFFFFFFFFFFFFFF AND DUP2 JUMP JUMPDEST PUSH1 0x0 PUSH32 0x0 SWAP1 POP SWAP1 JUMP JUMPDEST PUSH1 0x0 PUSH1 0x1 PUSH1 0x14 SWAP1 SLOAD SWAP1 PUSH2 0x100 EXP SWAP1 DIV PUSH1 0xFF AND PUSH2 0x981 JUMPI PUSH1 0x40 MLOAD PUSH32 0x8C379A000000000000000000000000000000000000000000000000000000000 DUP2 MSTORE PUSH1 0x4 ADD DUP1 DUP1 PUSH1 0x20 ADD DUP3 DUP2 SUB DUP3 MSTORE PUSH1 0x18 DUP2 MSTORE PUSH1 0x20 ADD DUP1 PUSH32 0x4275726E6572206973206E6F742066756E646564207965740000000000000000 DUP2 MSTORE POP PUSH1 0x20 ADD SWAP2 POP POP PUSH1 0x40 MLOAD DUP1 SWAP2 SUB SWAP1 REVERT JUMPDEST PUSH1 0x3 SLOAD SWAP1 POP SWAP1 JUMP JUMPDEST PUSH1 0x0 PUSH1 0x4 SLOAD SWAP1 POP SWAP1 JUMP JUMPDEST PUSH2 0x99B PUSH2 0xECA JUMP JUMPDEST PUSH20 0xFFFFFFFFFFFFFFFFFFFFFFFFFFFFFFFFFFFFFFFF AND PUSH1 0x0 DUP1 SLOAD SWAP1 PUSH2 0x100 EXP SWAP1 DIV PUSH20 0xFFFFFFFFFFFFFFFFFFFFFFFFFFFFFFFFFFFFFFFF AND PUSH20 0xFFFFFFFFFFFFFFFFFFFFFFFFFFFFFFFFFFFFFFFF AND EQ PUSH2 0xA5B JUMPI PUSH1 0x40 MLOAD PUSH32 0x8C379A000000000000000000000000000000000000000000000000000000000 DUP2 MSTORE PUSH1 0x4 ADD DUP1 DUP1 PUSH1 0x20 ADD DUP3 DUP2 SUB DUP3 MSTORE PUSH1 0x20 DUP2 MSTORE PUSH1 0x20 ADD DUP1 PUSH32 0x4F776E61626C653A2063616C6C6572206973206E6F7420746865206F776E6572 DUP2 MSTORE POP PUSH1 0x20 ADD SWAP2 POP POP PUSH1 0x40 MLOAD DUP1 SWAP2 SUB SWAP1 REVERT JUMPDEST PUSH1 0x0 ISZERO ISZERO PUSH1 0x1 PUSH1 0x14 SWAP1 SLOAD SWAP1 PUSH2 0x100 EXP SWAP1 DIV PUSH1 0xFF AND ISZERO ISZERO EQ PUSH2 0xA7B JUMPI PUSH1 0x0 DUP1 REVERT JUMPDEST PUSH1 0x4 SLOAD TIMESTAMP LT PUSH2 0xA89 JUMPI PUSH1 0x0 DUP1 REVERT JUMPDEST PUSH10 0x69E10DE76676D0800000 DUP2 EQ PUSH2 0xA9F JUMPI PUSH1 0x0 DUP1 REVERT JUMPDEST PUSH1 0x1 PUSH1 0x0 SWAP1 SLOAD SWAP1 PUSH2 0x100 EXP SWAP1 DIV PUSH20 0xFFFFFFFFFFFFFFFFFFFFFFFFFFFFFFFFFFFFFFFF AND PUSH20 0xFFFFFFFFFFFFFFFFFFFFFFFFFFFFFFFFFFFFFFFF AND PUSH4 0xA9059CBB ADDRESS DUP4 PUSH1 0x40 MLOAD DUP4 PUSH4 0xFFFFFFFF AND PUSH1 0xE0 SHL DUP2 MSTORE PUSH1 0x4 ADD DUP1 DUP4 PUSH20 0xFFFFFFFFFFFFFFFFFFFFFFFFFFFFFFFFFFFFFFFF AND DUP2 MSTORE PUSH1 0x20 ADD DUP3 DUP2 MSTORE PUSH1 0x20 ADD SWAP3 POP POP POP PUSH1 0x20 PUSH1 0x40 MLOAD DUP1 DUP4 SUB DUP2 PUSH1 0x0 DUP8 DUP1 EXTCODESIZE ISZERO DUP1 ISZERO PUSH2 0xB32 JUMPI PUSH1 0x0 DUP1 REVERT JUMPDEST POP GAS CALL ISZERO DUP1 ISZERO PUSH2 0xB46 JUMPI RETURNDATASIZE PUSH1 0x0 DUP1 RETURNDATACOPY RETURNDATASIZE PUSH1 0x0 REVERT JUMPDEST POP POP POP POP PUSH1 0x40 MLOAD RETURNDATASIZE PUSH1 0x20 DUP2 LT ISZERO PUSH2 0xB5C JUMPI PUSH1 0x0 DUP1 REVERT JUMPDEST DUP2 ADD SWAP1 DUP1 DUP1 MLOAD SWAP1 PUSH1 0x20 ADD SWAP1 SWAP3 SWAP2 SWAP1 POP POP POP POP PUSH1 0x1 DUP1 PUSH1 0x14 PUSH2 0x100 EXP DUP2 SLOAD DUP2 PUSH1 0xFF MUL NOT AND SWAP1 DUP4 ISZERO ISZERO MUL OR SWAP1 SSTORE POP DUP1 PUSH1 0x2 DUP2 SWAP1 SSTORE POP PUSH32 0x73D856F5ACF4BB0DFCC775791DBF5AA882B81951D141781124F00428C3075EB7 DUP2 TIMESTAMP PUSH1 0x40 MLOAD DUP1 DUP4 DUP2 MSTORE PUSH1 0x20 ADD DUP3 DUP2 MSTORE PUSH1 0x20 ADD SWAP3 POP POP POP PUSH1 0x40 MLOAD DUP1 SWAP2 SUB SWAP1 LOG1 POP JUMP JUMPDEST PUSH1 0x0 DUP1 PUSH20 0xFFFFFFFFFFFFFFFFFFFFFFFFFFFFFFFFFFFFFFFF AND PUSH1 0x1 PUSH1 0x0 SWAP1 SLOAD SWAP1 PUSH2 0x100 EXP SWAP1 DIV PUSH20 0xFFFFFFFFFFFFFFFFFFFFFFFFFFFFFFFFFFFFFFFF AND PUSH20 0xFFFFFFFFFFFFFFFFFFFFFFFFFFFFFFFFFFFFFFFF AND EQ ISZERO PUSH2 0xC7A JUMPI PUSH1 0x40 MLOAD PUSH32 0x8C379A000000000000000000000000000000000000000000000000000000000 DUP2 MSTORE PUSH1 0x4 ADD DUP1 DUP1 PUSH1 0x20 ADD DUP3 DUP2 SUB DUP3 MSTORE PUSH1 0x37 DUP2 MSTORE PUSH1 0x20 ADD DUP1 PUSH2 0xF1D PUSH1 0x37 SWAP2 CODECOPY PUSH1 0x40 ADD SWAP2 POP POP PUSH1 0x40 MLOAD DUP1 SWAP2 SUB SWAP1 REVERT JUMPDEST PUSH1 0x1 PUSH1 0x0 SWAP1 SLOAD SWAP1 PUSH2 0x100 EXP SWAP1 DIV PUSH20 0xFFFFFFFFFFFFFFFFFFFFFFFFFFFFFFFFFFFFFFFF AND SWAP1 POP SWAP1 JUMP JUMPDEST PUSH1 0x3 SLOAD DUP2 JUMP JUMPDEST PUSH1 0x0 PUSH1 0x1 PUSH1 0x14 SWAP1 SLOAD SWAP1 PUSH2 0x100 EXP SWAP1 DIV PUSH1 0xFF AND SWAP1 POP SWAP1 JUMP JUMPDEST PUSH2 0xCC7 PUSH2 0xECA JUMP JUMPDEST PUSH20 0xFFFFFFFFFFFFFFFFFFFFFFFFFFFFFFFFFFFFFFFF AND PUSH1 0x0 DUP1 SLOAD SWAP1 PUSH2 0x100 EXP SWAP1 DIV PUSH20 0xFFFFFFFFFFFFFFFFFFFFFFFFFFFFFFFFFFFFFFFF AND PUSH20 0xFFFFFFFFFFFFFFFFFFFFFFFFFFFFFFFFFFFFFFFF AND EQ PUSH2 0xD87 JUMPI PUSH1 0x40 MLOAD PUSH32 0x8C379A000000000000000000000000000000000000000000000000000000000 DUP2 MSTORE PUSH1 0x4 ADD DUP1 DUP1 PUSH1 0x20 ADD DUP3 DUP2 SUB DUP3 MSTORE PUSH1 0x20 DUP2 MSTORE PUSH1 0x20 ADD DUP1 PUSH32 0x4F776E61626C653A2063616C6C6572206973206E6F7420746865206F776E6572 DUP2 MSTORE POP PUSH1 0x20 ADD SWAP2 POP POP PUSH1 0x40 MLOAD DUP1 SWAP2 SUB SWAP1 REVERT JUMPDEST PUSH1 0x0 PUSH20 0xFFFFFFFFFFFFFFFFFFFFFFFFFFFFFFFFFFFFFFFF AND DUP2 PUSH20 0xFFFFFFFFFFFFFFFFFFFFFFFFFFFFFFFFFFFFFFFF AND EQ ISZERO PUSH2 0xE0D JUMPI PUSH1 0x40 MLOAD PUSH32 0x8C379A000000000000000000000000000000000000000000000000000000000 DUP2 MSTORE PUSH1 0x4 ADD DUP1 DUP1 PUSH1 0x20 ADD DUP3 DUP2 SUB DUP3 MSTORE PUSH1 0x26 DUP2 MSTORE PUSH1 0x20 ADD DUP1 PUSH2 0xED3 PUSH1 0x26 SWAP2 CODECOPY PUSH1 0x40 ADD SWAP2 POP POP PUSH1 0x40 MLOAD DUP1 SWAP2 SUB SWAP1 REVERT JUMPDEST DUP1 PUSH20 0xFFFFFFFFFFFFFFFFFFFFFFFFFFFFFFFFFFFFFFFF AND PUSH1 0x0 DUP1 SLOAD SWAP1 PUSH2 0x100 EXP SWAP1 DIV PUSH20 0xFFFFFFFFFFFFFFFFFFFFFFFFFFFFFFFFFFFFFFFF AND PUSH20 0xFFFFFFFFFFFFFFFFFFFFFFFFFFFFFFFFFFFFFFFF AND PUSH32 0x8BE0079C531659141344CD1FD0A4F28419497F9722A3DAAFE3B4186F6B6457E0 PUSH1 0x40 MLOAD PUSH1 0x40 MLOAD DUP1 SWAP2 SUB SWAP1 LOG3 DUP1 PUSH1 0x0 DUP1 PUSH2 0x100 EXP DUP2 SLOAD DUP2 PUSH20 0xFFFFFFFFFFFFFFFFFFFFFFFFFFFFFFFFFFFFFFFF MUL NOT AND SWAP1 DUP4 PUSH20 0xFFFFFFFFFFFFFFFFFFFFFFFFFFFFFFFFFFFFFFFF AND MUL OR SWAP1 SSTORE POP POP JUMP JUMPDEST PUSH1 0x0 CALLER SWAP1 POP SWAP1 JUMP INVALID 0x4F PUSH24 0x6E61626C653A206E6577206F776E65722069732074686520 PUSH27 0x65726F2061646472657373644554482063616E206F6E6C79206265 KECCAK256 PUSH3 0x75726E PUSH6 0x64206F6E6365 KECCAK256 PUSH2 0x6E20 PUSH9 0x6F75722E2E2E486F77 KECCAK256 PUSH5 0x696420796F PUSH22 0x206465706C6F7920776974686F75742073657474696E PUSH8 0x2074686520646574 PUSH9 0x20616464726573733F LOG2 PUSH5 0x6970667358 0x22 SLT KECCAK256 DUP15 0xC3 ISZERO 0x5F 0xE5 0xC0 0xAD GASPRICE 0xC6 0xD1 CODESIZE 0xBE DUP15 0xC4 EXTCODEHASH 0xE4 DUP3 0xE6 MUL EXTCODECOPY 0x2C SWAP4 0xD2 DUP8 0xDD 0xAF 0xA7 SWAP1 PUSH30 0x3CA19B64736F6C634300060C003300000000000000000000000000000000 "
				},
				"gasEstimates": {
					"creation": {
						"codeDepositCost": "795400",
						"executionCost": "infinite",
						"totalCost": "infinite"
					},
					"external": {
						"burn()": "infinite",
						"deadAddress()": "infinite",
						"dethAddress()": "1070",
						"fund(uint256)": "infinite",
						"getDeadAddress()": "infinite",
						"getDethAddress()": "infinite",
						"getIsFunded()": "1193",
						"getStartTime()": "1102",
						"getSupply()": "1939",
						"getTotalBurned()": "1983",
						"isFunded()": "1186",
						"lastTimeBurned()": "1073",
						"owner()": "1166",
						"renounceOwnership()": "24336",
						"startTime()": "1072",
						"supply()": "1029",
						"totalBurned()": "1071",
						"transferOwnership(address)": "infinite"
					}
				},
				"methodIdentifiers": {
					"burn()": "44df8e70",
					"deadAddress()": "27c8f835",
					"dethAddress()": "9020e645",
					"fund(uint256)": "ca1d209d",
					"getDeadAddress()": "b0feb130",
					"getDethAddress()": "cd066e45",
					"getIsFunded()": "f0f2d413",
					"getStartTime()": "c828371e",
					"getSupply()": "6c9c2faf",
					"getTotalBurned()": "b55cd04b",
					"isFunded()": "7c654303",
					"lastTimeBurned()": "3d4b5cc6",
					"owner()": "8da5cb5b",
					"renounceOwnership()": "715018a6",
					"startTime()": "78e97925",
					"supply()": "047fc9aa",
					"totalBurned()": "d89135cd",
					"transferOwnership(address)": "f2fde38b"
				}
			},
			"storageLayout": {
				"storage": [
					{
						"astId": 533,
						"contract": "contracts/Burna.sol:Burna",
						"label": "_owner",
						"offset": 0,
						"slot": "0",
						"type": "t_address"
					},
					{
						"astId": 18,
						"contract": "contracts/Burna.sol:Burna",
						"label": "dethAddress",
						"offset": 0,
						"slot": "1",
						"type": "t_address"
					},
					{
						"astId": 21,
						"contract": "contracts/Burna.sol:Burna",
						"label": "isFunded",
						"offset": 20,
						"slot": "1",
						"type": "t_bool"
					},
					{
						"astId": 23,
						"contract": "contracts/Burna.sol:Burna",
						"label": "supply",
						"offset": 0,
						"slot": "2",
						"type": "t_uint256"
					},
					{
						"astId": 25,
						"contract": "contracts/Burna.sol:Burna",
						"label": "totalBurned",
						"offset": 0,
						"slot": "3",
						"type": "t_uint256"
					},
					{
						"astId": 27,
						"contract": "contracts/Burna.sol:Burna",
						"label": "startTime",
						"offset": 0,
						"slot": "4",
						"type": "t_uint256"
					},
					{
						"astId": 30,
						"contract": "contracts/Burna.sol:Burna",
						"label": "lastTimeBurned",
						"offset": 0,
						"slot": "5",
						"type": "t_uint256"
					}
				],
				"types": {
					"t_address": {
						"encoding": "inplace",
						"label": "address",
						"numberOfBytes": "20"
					},
					"t_bool": {
						"encoding": "inplace",
						"label": "bool",
						"numberOfBytes": "1"
					},
					"t_uint256": {
						"encoding": "inplace",
						"label": "uint256",
						"numberOfBytes": "32"
					}
				}
			},
			"userdoc": {
				"kind": "user",
				"methods": {},
				"version": 1
			}
		}
	}
}