{
	"contracts/dETH.sol": {
		"dETH": {
			"abi": [
				{
					"inputs": [
						{
							"internalType": "address",
							"name": "treasure",
							"type": "address"
						},
						{
							"internalType": "address",
							"name": "router",
							"type": "address"
						}
					],
					"stateMutability": "nonpayable",
					"type": "constructor"
				},
				{
					"anonymous": false,
					"inputs": [
						{
							"indexed": true,
							"internalType": "address",
							"name": "owner",
							"type": "address"
						},
						{
							"indexed": true,
							"internalType": "address",
							"name": "spender",
							"type": "address"
						},
						{
							"indexed": false,
							"internalType": "uint256",
							"name": "value",
							"type": "uint256"
						}
					],
					"name": "Approval",
					"type": "event"
				},
				{
					"anonymous": false,
					"inputs": [
						{
							"indexed": true,
							"internalType": "address",
							"name": "previousOwner",
							"type": "address"
						},
						{
							"indexed": true,
							"internalType": "address",
							"name": "newOwner",
							"type": "address"
						}
					],
					"name": "OwnershipTransferred",
					"type": "event"
				},
				{
					"anonymous": false,
					"inputs": [
						{
							"indexed": false,
							"internalType": "uint256",
							"name": "amount",
							"type": "uint256"
						}
					],
					"name": "SendETHToFee",
					"type": "event"
				},
				{
					"anonymous": false,
					"inputs": [
						{
							"indexed": false,
							"internalType": "uint256",
							"name": "amountIn",
							"type": "uint256"
						},
						{
							"indexed": false,
							"internalType": "address[]",
							"name": "path",
							"type": "address[]"
						}
					],
					"name": "SwapETHForTokens",
					"type": "event"
				},
				{
					"anonymous": false,
					"inputs": [
						{
							"indexed": false,
							"internalType": "uint256",
							"name": "contractTokenBalance",
							"type": "uint256"
						},
						{
							"indexed": false,
							"internalType": "uint256",
							"name": "contractETHBalance",
							"type": "uint256"
						}
					],
					"name": "SwapTokens",
					"type": "event"
				},
				{
					"anonymous": false,
					"inputs": [
						{
							"indexed": false,
							"internalType": "uint256",
							"name": "amountIn",
							"type": "uint256"
						},
						{
							"indexed": false,
							"internalType": "address[]",
							"name": "path",
							"type": "address[]"
						}
					],
					"name": "SwapTokensForETH",
					"type": "event"
				},
				{
					"anonymous": false,
					"inputs": [
						{
							"indexed": true,
							"internalType": "address",
							"name": "from",
							"type": "address"
						},
						{
							"indexed": true,
							"internalType": "address",
							"name": "to",
							"type": "address"
						},
						{
							"indexed": false,
							"internalType": "uint256",
							"name": "value",
							"type": "uint256"
						}
					],
					"name": "Transfer",
					"type": "event"
				},
				{
					"inputs": [
						{
							"internalType": "address",
							"name": "account",
							"type": "address"
						}
					],
					"name": "_amnestySniper",
					"outputs": [],
					"stateMutability": "nonpayable",
					"type": "function"
				},
				{
					"inputs": [],
					"name": "_liquidityFee",
					"outputs": [
						{
							"internalType": "uint256",
							"name": "",
							"type": "uint256"
						}
					],
					"stateMutability": "view",
					"type": "function"
				},
				{
					"inputs": [
						{
							"internalType": "address",
							"name": "account",
							"type": "address"
						}
					],
					"name": "_removeSniper",
					"outputs": [],
					"stateMutability": "nonpayable",
					"type": "function"
				},
				{
					"inputs": [],
					"name": "_taxFee",
					"outputs": [
						{
							"internalType": "uint256",
							"name": "",
							"type": "uint256"
						}
					],
					"stateMutability": "view",
					"type": "function"
				},
				{
					"inputs": [
						{
							"internalType": "address",
							"name": "owner",
							"type": "address"
						},
						{
							"internalType": "address",
							"name": "spender",
							"type": "address"
						}
					],
					"name": "allowance",
					"outputs": [
						{
							"internalType": "uint256",
							"name": "",
							"type": "uint256"
						}
					],
					"stateMutability": "view",
					"type": "function"
				},
				{
					"inputs": [
						{
							"internalType": "address",
							"name": "spender",
							"type": "address"
						},
						{
							"internalType": "uint256",
							"name": "amount",
							"type": "uint256"
						}
					],
					"name": "approve",
					"outputs": [
						{
							"internalType": "bool",
							"name": "",
							"type": "bool"
						}
					],
					"stateMutability": "nonpayable",
					"type": "function"
				},
				{
					"inputs": [
						{
							"internalType": "address",
							"name": "account",
							"type": "address"
						}
					],
					"name": "balanceOf",
					"outputs": [
						{
							"internalType": "uint256",
							"name": "",
							"type": "uint256"
						}
					],
					"stateMutability": "view",
					"type": "function"
				},
				{
					"inputs": [],
					"name": "decimals",
					"outputs": [
						{
							"internalType": "uint8",
							"name": "",
							"type": "uint8"
						}
					],
					"stateMutability": "view",
					"type": "function"
				},
				{
					"inputs": [
						{
							"internalType": "address",
							"name": "spender",
							"type": "address"
						},
						{
							"internalType": "uint256",
							"name": "subtractedValue",
							"type": "uint256"
						}
					],
					"name": "decreaseAllowance",
					"outputs": [
						{
							"internalType": "bool",
							"name": "",
							"type": "bool"
						}
					],
					"stateMutability": "nonpayable",
					"type": "function"
				},
				{
					"inputs": [
						{
							"internalType": "uint256",
							"name": "tAmount",
							"type": "uint256"
						}
					],
					"name": "deliver",
					"outputs": [],
					"stateMutability": "nonpayable",
					"type": "function"
				},
				{
					"inputs": [],
					"name": "emergencyWithdraw",
					"outputs": [],
					"stateMutability": "nonpayable",
					"type": "function"
				},
				{
					"inputs": [
						{
							"internalType": "address",
							"name": "account",
							"type": "address"
						}
					],
					"name": "excludeFromFee",
					"outputs": [],
					"stateMutability": "nonpayable",
					"type": "function"
				},
				{
					"inputs": [
						{
							"internalType": "address",
							"name": "account",
							"type": "address"
						}
					],
					"name": "excludeFromReward",
					"outputs": [],
					"stateMutability": "nonpayable",
					"type": "function"
				},
				{
					"inputs": [],
					"name": "getBlockTime",
					"outputs": [
						{
							"internalType": "uint256",
							"name": "",
							"type": "uint256"
						}
					],
					"stateMutability": "view",
					"type": "function"
				},
				{
					"inputs": [
						{
							"internalType": "address",
							"name": "account",
							"type": "address"
						}
					],
					"name": "includeInFee",
					"outputs": [],
					"stateMutability": "nonpayable",
					"type": "function"
				},
				{
					"inputs": [
						{
							"internalType": "address",
							"name": "account",
							"type": "address"
						}
					],
					"name": "includeInReward",
					"outputs": [],
					"stateMutability": "nonpayable",
					"type": "function"
				},
				{
					"inputs": [
						{
							"internalType": "address",
							"name": "spender",
							"type": "address"
						},
						{
							"internalType": "uint256",
							"name": "addedValue",
							"type": "uint256"
						}
					],
					"name": "increaseAllowance",
					"outputs": [
						{
							"internalType": "bool",
							"name": "",
							"type": "bool"
						}
					],
					"stateMutability": "nonpayable",
					"type": "function"
				},
				{
					"inputs": [
						{
							"internalType": "address",
							"name": "account",
							"type": "address"
						}
					],
					"name": "isExcludedFromFee",
					"outputs": [
						{
							"internalType": "bool",
							"name": "",
							"type": "bool"
						}
					],
					"stateMutability": "view",
					"type": "function"
				},
				{
					"inputs": [
						{
							"internalType": "address",
							"name": "account",
							"type": "address"
						}
					],
					"name": "isExcludedFromReward",
					"outputs": [
						{
							"internalType": "bool",
							"name": "",
							"type": "bool"
						}
					],
					"stateMutability": "view",
					"type": "function"
				},
				{
					"inputs": [
						{
							"internalType": "address",
							"name": "account",
							"type": "address"
						}
					],
					"name": "isRemovedSniper",
					"outputs": [
						{
							"internalType": "bool",
							"name": "",
							"type": "bool"
						}
					],
					"stateMutability": "view",
					"type": "function"
				},
				{
					"inputs": [],
					"name": "marketingAddress",
					"outputs": [
						{
							"internalType": "address payable",
							"name": "",
							"type": "address"
						}
					],
					"stateMutability": "view",
					"type": "function"
				},
				{
					"inputs": [],
					"name": "name",
					"outputs": [
						{
							"internalType": "string",
							"name": "",
							"type": "string"
						}
					],
					"stateMutability": "view",
					"type": "function"
				},
				{
					"inputs": [],
					"name": "openTrading",
					"outputs": [],
					"stateMutability": "nonpayable",
					"type": "function"
				},
				{
					"inputs": [],
					"name": "owner",
					"outputs": [
						{
							"internalType": "address",
							"name": "",
							"type": "address"
						}
					],
					"stateMutability": "view",
					"type": "function"
				},
				{
					"inputs": [
						{
							"internalType": "uint256",
							"name": "tAmount",
							"type": "uint256"
						},
						{
							"internalType": "bool",
							"name": "deductTransferFee",
							"type": "bool"
						}
					],
					"name": "reflectionFromToken",
					"outputs": [
						{
							"internalType": "uint256",
							"name": "",
							"type": "uint256"
						}
					],
					"stateMutability": "view",
					"type": "function"
				},
				{
					"inputs": [],
					"name": "renounceOwnership",
					"outputs": [],
					"stateMutability": "nonpayable",
					"type": "function"
				},
				{
					"inputs": [
						{
							"internalType": "uint256",
							"name": "rate",
							"type": "uint256"
						}
					],
					"name": "setFeeRate",
					"outputs": [],
					"stateMutability": "nonpayable",
					"type": "function"
				},
				{
					"inputs": [
						{
							"internalType": "uint256",
							"name": "liquidityFee",
							"type": "uint256"
						}
					],
					"name": "setLiquidityFeePercent",
					"outputs": [],
					"stateMutability": "nonpayable",
					"type": "function"
				},
				{
					"inputs": [
						{
							"internalType": "address",
							"name": "_marketingAddress",
							"type": "address"
						}
					],
					"name": "setMarketingAddress",
					"outputs": [],
					"stateMutability": "nonpayable",
					"type": "function"
				},
				{
					"inputs": [
						{
							"internalType": "uint256",
							"name": "taxFee",
							"type": "uint256"
						}
					],
					"name": "setTaxFeePercent",
					"outputs": [],
					"stateMutability": "nonpayable",
					"type": "function"
				},
				{
					"inputs": [],
					"name": "symbol",
					"outputs": [
						{
							"internalType": "string",
							"name": "",
							"type": "string"
						}
					],
					"stateMutability": "view",
					"type": "function"
				},
				{
					"inputs": [
						{
							"internalType": "uint256",
							"name": "rAmount",
							"type": "uint256"
						}
					],
					"name": "tokenFromReflection",
					"outputs": [
						{
							"internalType": "uint256",
							"name": "",
							"type": "uint256"
						}
					],
					"stateMutability": "view",
					"type": "function"
				},
				{
					"inputs": [],
					"name": "totalFees",
					"outputs": [
						{
							"internalType": "uint256",
							"name": "",
							"type": "uint256"
						}
					],
					"stateMutability": "view",
					"type": "function"
				},
				{
					"inputs": [],
					"name": "totalSupply",
					"outputs": [
						{
							"internalType": "uint256",
							"name": "",
							"type": "uint256"
						}
					],
					"stateMutability": "view",
					"type": "function"
				},
				{
					"inputs": [
						{
							"internalType": "address",
							"name": "recipient",
							"type": "address"
						},
						{
							"internalType": "uint256",
							"name": "amount",
							"type": "uint256"
						}
					],
					"name": "transfer",
					"outputs": [
						{
							"internalType": "bool",
							"name": "",
							"type": "bool"
						}
					],
					"stateMutability": "nonpayable",
					"type": "function"
				},
				{
					"inputs": [
						{
							"internalType": "address",
							"name": "sender",
							"type": "address"
						},
						{
							"internalType": "address",
							"name": "recipient",
							"type": "address"
						},
						{
							"internalType": "uint256",
							"name": "amount",
							"type": "uint256"
						}
					],
					"name": "transferFrom",
					"outputs": [
						{
							"internalType": "bool",
							"name": "",
							"type": "bool"
						}
					],
					"stateMutability": "nonpayable",
					"type": "function"
				},
				{
					"inputs": [
						{
							"internalType": "address",
							"name": "newOwner",
							"type": "address"
						}
					],
					"name": "transferOwnership",
					"outputs": [],
					"stateMutability": "nonpayable",
					"type": "function"
				},
				{
					"inputs": [],
					"name": "uniswapV2Pair",
					"outputs": [
						{
							"internalType": "address",
							"name": "",
							"type": "address"
						}
					],
					"stateMutability": "view",
					"type": "function"
				},
				{
					"inputs": [],
					"name": "uniswapV2Router",
					"outputs": [
						{
							"internalType": "contract IUniswapV2Router02",
							"name": "",
							"type": "address"
						}
					],
					"stateMutability": "view",
					"type": "function"
				},
				{
					"stateMutability": "payable",
					"type": "receive"
				}
			],
			"devdoc": {
				"kind": "dev",
				"methods": {},
				"version": 1
			},
			"evm": {
				"assembly": "    /* \"contracts/dETH.sol\":14445:33305  contract dETH is Context, IERC20, Ownable {\r... */\n  mstore(0x40, 0x80)\n    /* \"contracts/dETH.sol\":14611:14653  0x40da1dd681eC6175C3BCFe1641CD2826A99EBdD8 */\n  0x40da1dd681ec6175c3bcfe1641cd2826a99ebdd8\n    /* \"contracts/dETH.sol\":14561:14654  address payable public marketingAddress = payable(0x40da1dd681eC6175C3BCFe1641CD2826A99EBdD8) */\n  0x03\n  exp(0x0100, 0x00)\n  dup2\n  sload\n  dup2\n  0xffffffffffffffffffffffffffffffffffffffff\n  mul\n  not\n  and\n  swap1\n  dup4\n  0xffffffffffffffffffffffffffffffffffffffff\n  and\n  mul\n  or\n  swap1\n  sstore\n  pop\n    /* \"contracts/dETH.sol\":15169:15193  10000000000000 * 10 ** 9 */\n  0x021e19e0c9bab2400000\n    /* \"contracts/dETH.sol\":15143:15193  uint256 private _tTotal = 10000000000000 * 10 ** 9 */\n  0x0c\n  sstore\n    /* \"contracts/dETH.sol\":15240:15247  _tTotal */\n  sload(0x0c)\n    /* \"contracts/dETH.sol\":15134:15135  0 */\n  0x00\n    /* \"contracts/dETH.sol\":15125:15136  ~uint256(0) */\n  not\n    /* \"contracts/dETH.sol\":15234:15247  MAX % _tTotal */\n  dup2\n  tag_1\n  jumpi\n  invalid\ntag_1:\n  mod\n    /* \"contracts/dETH.sol\":15134:15135  0 */\n  0x00\n    /* \"contracts/dETH.sol\":15125:15136  ~uint256(0) */\n  not\n    /* \"contracts/dETH.sol\":15227:15248  MAX - (MAX % _tTotal) */\n  sub\n    /* \"contracts/dETH.sol\":15200:15249  uint256 private _rTotal = (MAX - (MAX % _tTotal)) */\n  0x0d\n  sstore\n    /* \"contracts/dETH.sol\":15291:15325  string private _name = \"Degen ETH\" */\n  mload(0x40)\n  dup1\n  0x40\n  add\n  0x40\n  mstore\n  dup1\n  0x09\n  dup2\n  mstore\n  0x20\n  add\n  0x446567656e204554480000000000000000000000000000000000000000000000\n  dup2\n  mstore\n  pop\n  0x0f\n  swap1\n  dup1\n  mload\n  swap1\n  0x20\n  add\n  swap1\n  tag_2\n  swap3\n  swap2\n  swap1\n  tag_3\n  jump\t// in\ntag_2:\n  pop\n    /* \"contracts/dETH.sol\":15332:15364  string private _symbol = \"d.ETH\" */\n  mload(0x40)\n  dup1\n  0x40\n  add\n  0x40\n  mstore\n  dup1\n  0x05\n  dup2\n  mstore\n  0x20\n  add\n  0x642e455448000000000000000000000000000000000000000000000000000000\n  dup2\n  mstore\n  pop\n  0x10\n  swap1\n  dup1\n  mload\n  swap1\n  0x20\n  add\n  swap1\n  tag_4\n  swap3\n  swap2\n  swap1\n  tag_3\n  jump\t// in\ntag_4:\n  pop\n    /* \"contracts/dETH.sol\":15397:15398  9 */\n  0x09\n    /* \"contracts/dETH.sol\":15371:15398  uint8 private _decimals = 9 */\n  0x11\n  exp(0x0100, 0x00)\n  dup2\n  sload\n  dup2\n  0xff\n  mul\n  not\n  and\n  swap1\n  dup4\n  0xff\n  and\n  mul\n  or\n  swap1\n  sstore\n  pop\n    /* \"contracts/dETH.sol\":15434:15435  3 */\n  0x03\n    /* \"contracts/dETH.sol\":15409:15435  uint256 public _taxFee = 3 */\n  0x12\n  sstore\n    /* \"contracts/dETH.sol\":15482:15489  _taxFee */\n  sload(0x12)\n    /* \"contracts/dETH.sol\":15448:15489  uint256 private _previousTaxFee = _taxFee */\n  0x13\n  sstore\n    /* \"contracts/dETH.sol\":15529:15530  6 */\n  0x06\n    /* \"contracts/dETH.sol\":15498:15530  uint256 public _liquidityFee = 6 */\n  0x14\n  sstore\n    /* \"contracts/dETH.sol\":15583:15596  _liquidityFee */\n  sload(0x14)\n    /* \"contracts/dETH.sol\":15543:15596  uint256 private _previousLiquidityFee = _liquidityFee */\n  0x15\n  sstore\n    /* \"contracts/dETH.sol\":15632:15633  2 */\n  0x02\n    /* \"contracts/dETH.sol\":15605:15633  uint256 private _feeRate = 2 */\n  0x16\n  sstore\n    /* \"contracts/dETH.sol\":15801:15806  false */\n  0x00\n    /* \"contracts/dETH.sol\":15782:15806  bool tradingOpen = false */\n  0x19\n  exp(0x0100, 0x15)\n  dup2\n  sload\n  dup2\n  0xff\n  mul\n  not\n  and\n  swap1\n  dup4\n  iszero\n  iszero\n  mul\n  or\n  swap1\n  sstore\n  pop\n    /* \"contracts/dETH.sol\":16115:16664  constructor (address treasure, address router) public {\r... */\n  callvalue\n  dup1\n  iszero\n  tag_5\n  jumpi\n  0x00\n  dup1\n  revert\ntag_5:\n  pop\n  mload(0x40)\n  sub(codesize, bytecodeSize)\n  dup1\n  bytecodeSize\n  dup4\n  codecopy\n  dup2\n  dup2\n  add\n  0x40\n  mstore\n  0x40\n  dup2\n  lt\n  iszero\n  tag_6\n  jumpi\n  0x00\n  dup1\n  revert\ntag_6:\n  dup2\n  add\n  swap1\n  dup1\n  dup1\n  mload\n  swap1\n  0x20\n  add\n  swap1\n  swap3\n  swap2\n  swap1\n  dup1\n  mload\n  swap1\n  0x20\n  add\n  swap1\n  swap3\n  swap2\n  swap1\n  pop\n  pop\n  pop\n    /* \"contracts/dETH.sol\":5686:5703  address msgSender */\n  0x00\n    /* \"contracts/dETH.sol\":5706:5718  _msgSender() */\n  tag_10\n    /* \"contracts/dETH.sol\":5706:5716  _msgSender */\n  shl(0x20, tag_11)\n    /* \"contracts/dETH.sol\":5706:5718  _msgSender() */\n  0x20\n  shr\n  jump\t// in\ntag_10:\n    /* \"contracts/dETH.sol\":5686:5718  address msgSender = _msgSender() */\n  swap1\n  pop\n    /* \"contracts/dETH.sol\":5738:5747  msgSender */\n  dup1\n    /* \"contracts/dETH.sol\":5729:5735  _owner */\n  0x00\n  dup1\n    /* \"contracts/dETH.sol\":5729:5747  _owner = msgSender */\n  0x0100\n  exp\n  dup2\n  sload\n  dup2\n  0xffffffffffffffffffffffffffffffffffffffff\n  mul\n  not\n  and\n  swap1\n  dup4\n  0xffffffffffffffffffffffffffffffffffffffff\n  and\n  mul\n  or\n  swap1\n  sstore\n  pop\n    /* \"contracts/dETH.sol\":5796:5805  msgSender */\n  dup1\n    /* \"contracts/dETH.sol\":5763:5806  OwnershipTransferred(address(0), msgSender) */\n  0xffffffffffffffffffffffffffffffffffffffff\n  and\n    /* \"contracts/dETH.sol\":5792:5793  0 */\n  0x00\n    /* \"contracts/dETH.sol\":5763:5806  OwnershipTransferred(address(0), msgSender) */\n  0xffffffffffffffffffffffffffffffffffffffff\n  and\n  0x8be0079c531659141344cd1fd0a4f28419497f9722a3daafe3b4186f6b6457e0\n  mload(0x40)\n  mload(0x40)\n  dup1\n  swap2\n  sub\n  swap1\n  log3\n    /* \"contracts/dETH.sol\":5653:5814  constructor () public {\r... */\n  pop\n    /* \"contracts/dETH.sol\":16202:16209  _rTotal */\n  sload(0x0d)\n    /* \"contracts/dETH.sol\":16180:16187  _rOwned */\n  0x04\n    /* \"contracts/dETH.sol\":16180:16199  _rOwned[msg.sender] */\n  0x00\n    /* \"contracts/dETH.sol\":16188:16198  msg.sender */\n  caller\n    /* \"contracts/dETH.sol\":16180:16199  _rOwned[msg.sender] */\n  0xffffffffffffffffffffffffffffffffffffffff\n  and\n  0xffffffffffffffffffffffffffffffffffffffff\n  and\n  dup2\n  mstore\n  0x20\n  add\n  swap1\n  dup2\n  mstore\n  0x20\n  add\n  0x00\n  keccak256\n    /* \"contracts/dETH.sol\":16180:16209  _rOwned[msg.sender] = _rTotal */\n  dup2\n  swap1\n  sstore\n  pop\n    /* \"contracts/dETH.sol\":16246:16258  _msgSender() */\n  tag_13\n    /* \"contracts/dETH.sol\":16246:16256  _msgSender */\n  shl(0x20, tag_11)\n    /* \"contracts/dETH.sol\":16246:16258  _msgSender() */\n  0x20\n  shr\n  jump\t// in\ntag_13:\n    /* \"contracts/dETH.sol\":16225:16268  Transfer(address(0), _msgSender(), _tTotal) */\n  0xffffffffffffffffffffffffffffffffffffffff\n  and\n    /* \"contracts/dETH.sol\":16242:16243  0 */\n  0x00\n    /* \"contracts/dETH.sol\":16225:16268  Transfer(address(0), _msgSender(), _tTotal) */\n  0xffffffffffffffffffffffffffffffffffffffff\n  and\n  0xddf252ad1be2c89b69c2b068fc378daa952ba7f163c4a11628f55a4df523b3ef\n    /* \"contracts/dETH.sol\":16260:16267  _tTotal */\n  sload(0x0c)\n    /* \"contracts/dETH.sol\":16225:16268  Transfer(address(0), _msgSender(), _tTotal) */\n  mload(0x40)\n  dup1\n  dup3\n  dup2\n  mstore\n  0x20\n  add\n  swap2\n  pop\n  pop\n  mload(0x40)\n  dup1\n  swap2\n  sub\n  swap1\n  log3\n    /* \"contracts/dETH.sol\":16279:16314  IUniswapV2Router02 _uniswapV2Router */\n  0x00\n    /* \"contracts/dETH.sol\":16336:16342  router */\n  dup2\n    /* \"contracts/dETH.sol\":16279:16343  IUniswapV2Router02 _uniswapV2Router = IUniswapV2Router02(router) */\n  swap1\n  pop\n    /* \"contracts/dETH.sol\":16388:16404  _uniswapV2Router */\n  dup1\n    /* \"contracts/dETH.sol\":16388:16412  _uniswapV2Router.factory */\n  0xffffffffffffffffffffffffffffffffffffffff\n  and\n  0xc45a0155\n    /* \"contracts/dETH.sol\":16388:16414  _uniswapV2Router.factory() */\n  mload(0x40)\n  dup2\n  0xffffffff\n  and\n  0xe0\n  shl\n  dup2\n  mstore\n  0x04\n  add\n  0x20\n  mload(0x40)\n  dup1\n  dup4\n  sub\n  dup2\n  dup7\n  dup1\n  extcodesize\n  iszero\n  dup1\n  iszero\n  tag_14\n  jumpi\n  0x00\n  dup1\n  revert\ntag_14:\n  pop\n  gas\n  staticcall\n  iszero\n  dup1\n  iszero\n  tag_16\n  jumpi\n  returndatasize\n  0x00\n  dup1\n  returndatacopy\n  revert(0x00, returndatasize)\ntag_16:\n  pop\n  pop\n  pop\n  pop\n  mload(0x40)\n  returndatasize\n  0x20\n  dup2\n  lt\n  iszero\n  tag_17\n  jumpi\n  0x00\n  dup1\n  revert\ntag_17:\n  dup2\n  add\n  swap1\n  dup1\n  dup1\n  mload\n  swap1\n  0x20\n  add\n  swap1\n  swap3\n  swap2\n  swap1\n  pop\n  pop\n  pop\n    /* \"contracts/dETH.sol\":16370:16426  IUniswapV2Factory(_uniswapV2Router.factory()).createPair */\n  0xffffffffffffffffffffffffffffffffffffffff\n  and\n  0xc9c65396\n    /* \"contracts/dETH.sol\":16435:16439  this */\n  address\n    /* \"contracts/dETH.sol\":16442:16458  _uniswapV2Router */\n  dup4\n    /* \"contracts/dETH.sol\":16442:16463  _uniswapV2Router.WETH */\n  0xffffffffffffffffffffffffffffffffffffffff\n  and\n  0xad5c4648\n    /* \"contracts/dETH.sol\":16442:16465  _uniswapV2Router.WETH() */\n  mload(0x40)\n  dup2\n  0xffffffff\n  and\n  0xe0\n  shl\n  dup2\n  mstore\n  0x04\n  add\n  0x20\n  mload(0x40)\n  dup1\n  dup4\n  sub\n  dup2\n  dup7\n  dup1\n  extcodesize\n  iszero\n  dup1\n  iszero\n  tag_18\n  jumpi\n  0x00\n  dup1\n  revert\ntag_18:\n  pop\n  gas\n  staticcall\n  iszero\n  dup1\n  iszero\n  tag_20\n  jumpi\n  returndatasize\n  0x00\n  dup1\n  returndatacopy\n  revert(0x00, returndatasize)\ntag_20:\n  pop\n  pop\n  pop\n  pop\n  mload(0x40)\n  returndatasize\n  0x20\n  dup2\n  lt\n  iszero\n  tag_21\n  jumpi\n  0x00\n  dup1\n  revert\ntag_21:\n  dup2\n  add\n  swap1\n  dup1\n  dup1\n  mload\n  swap1\n  0x20\n  add\n  swap1\n  swap3\n  swap2\n  swap1\n  pop\n  pop\n  pop\n    /* \"contracts/dETH.sol\":16370:16466  IUniswapV2Factory(_uniswapV2Router.factory()).createPair(address(this), _uniswapV2Router.WETH()) */\n  mload(0x40)\n  dup4\n  0xffffffff\n  and\n  0xe0\n  shl\n  dup2\n  mstore\n  0x04\n  add\n  dup1\n  dup4\n  0xffffffffffffffffffffffffffffffffffffffff\n  and\n  dup2\n  mstore\n  0x20\n  add\n  dup3\n  0xffffffffffffffffffffffffffffffffffffffff\n  and\n  dup2\n  mstore\n  0x20\n  add\n  swap3\n  pop\n  pop\n  pop\n  0x20\n  mload(0x40)\n  dup1\n  dup4\n  sub\n  dup2\n  0x00\n  dup8\n  dup1\n  extcodesize\n  iszero\n  dup1\n  iszero\n  tag_22\n  jumpi\n  0x00\n  dup1\n  revert\ntag_22:\n  pop\n  gas\n  call\n  iszero\n  dup1\n  iszero\n  tag_24\n  jumpi\n  returndatasize\n  0x00\n  dup1\n  returndatacopy\n  revert(0x00, returndatasize)\ntag_24:\n  pop\n  pop\n  pop\n  pop\n  mload(0x40)\n  returndatasize\n  0x20\n  dup2\n  lt\n  iszero\n  tag_25\n  jumpi\n  0x00\n  dup1\n  revert\ntag_25:\n  dup2\n  add\n  swap1\n  dup1\n  dup1\n  mload\n  swap1\n  0x20\n  add\n  swap1\n  swap3\n  swap2\n  swap1\n  pop\n  pop\n  pop\n    /* \"contracts/dETH.sol\":16354:16367  uniswapV2Pair */\n  0x19\n  0x00\n    /* \"contracts/dETH.sol\":16354:16466  uniswapV2Pair = IUniswapV2Factory(_uniswapV2Router.factory()).createPair(address(this), _uniswapV2Router.WETH()) */\n  0x0100\n  exp\n  dup2\n  sload\n  dup2\n  0xffffffffffffffffffffffffffffffffffffffff\n  mul\n  not\n  and\n  swap1\n  dup4\n  0xffffffffffffffffffffffffffffffffffffffff\n  and\n  mul\n  or\n  swap1\n  sstore\n  pop\n    /* \"contracts/dETH.sol\":16495:16511  _uniswapV2Router */\n  dup1\n    /* \"contracts/dETH.sol\":16477:16492  uniswapV2Router */\n  0x18\n  0x00\n    /* \"contracts/dETH.sol\":16477:16511  uniswapV2Router = _uniswapV2Router */\n  0x0100\n  exp\n  dup2\n  sload\n  dup2\n  0xffffffffffffffffffffffffffffffffffffffff\n  mul\n  not\n  and\n  swap1\n  dup4\n  0xffffffffffffffffffffffffffffffffffffffff\n  and\n  mul\n  or\n  swap1\n  sstore\n  pop\n    /* \"contracts/dETH.sol\":16555:16559  true */\n  0x01\n    /* \"contracts/dETH.sol\":16522:16540  _isExcludedFromFee */\n  0x09\n    /* \"contracts/dETH.sol\":16522:16552  _isExcludedFromFee[msg.sender] */\n  0x00\n    /* \"contracts/dETH.sol\":16541:16551  msg.sender */\n  caller\n    /* \"contracts/dETH.sol\":16522:16552  _isExcludedFromFee[msg.sender] */\n  0xffffffffffffffffffffffffffffffffffffffff\n  and\n  0xffffffffffffffffffffffffffffffffffffffff\n  and\n  dup2\n  mstore\n  0x20\n  add\n  swap1\n  dup2\n  mstore\n  0x20\n  add\n  0x00\n  keccak256\n  0x00\n    /* \"contracts/dETH.sol\":16522:16559  _isExcludedFromFee[msg.sender] = true */\n  0x0100\n  exp\n  dup2\n  sload\n  dup2\n  0xff\n  mul\n  not\n  and\n  swap1\n  dup4\n  iszero\n  iszero\n  mul\n  or\n  swap1\n  sstore\n  pop\n    /* \"contracts/dETH.sol\":16601:16605  true */\n  0x01\n    /* \"contracts/dETH.sol\":16570:16588  _isExcludedFromFee */\n  0x09\n    /* \"contracts/dETH.sol\":16570:16598  _isExcludedFromFee[treasure] */\n  0x00\n    /* \"contracts/dETH.sol\":16589:16597  treasure */\n  dup6\n    /* \"contracts/dETH.sol\":16570:16598  _isExcludedFromFee[treasure] */\n  0xffffffffffffffffffffffffffffffffffffffff\n  and\n  0xffffffffffffffffffffffffffffffffffffffff\n  and\n  dup2\n  mstore\n  0x20\n  add\n  swap1\n  dup2\n  mstore\n  0x20\n  add\n  0x00\n  keccak256\n  0x00\n    /* \"contracts/dETH.sol\":16570:16605  _isExcludedFromFee[treasure] = true */\n  0x0100\n  exp\n  dup2\n  sload\n  dup2\n  0xff\n  mul\n  not\n  and\n  swap1\n  dup4\n  iszero\n  iszero\n  mul\n  or\n  swap1\n  sstore\n  pop\n    /* \"contracts/dETH.sol\":16652:16656  true */\n  0x01\n    /* \"contracts/dETH.sol\":16616:16634  _isExcludedFromFee */\n  0x09\n    /* \"contracts/dETH.sol\":16616:16649  _isExcludedFromFee[address(this)] */\n  0x00\n    /* \"contracts/dETH.sol\":16643:16647  this */\n  address\n    /* \"contracts/dETH.sol\":16616:16649  _isExcludedFromFee[address(this)] */\n  0xffffffffffffffffffffffffffffffffffffffff\n  and\n  0xffffffffffffffffffffffffffffffffffffffff\n  and\n  dup2\n  mstore\n  0x20\n  add\n  swap1\n  dup2\n  mstore\n  0x20\n  add\n  0x00\n  keccak256\n  0x00\n    /* \"contracts/dETH.sol\":16616:16656  _isExcludedFromFee[address(this)] = true */\n  0x0100\n  exp\n  dup2\n  sload\n  dup2\n  0xff\n  mul\n  not\n  and\n  swap1\n  dup4\n  iszero\n  iszero\n  mul\n  or\n  swap1\n  sstore\n  pop\n    /* \"contracts/dETH.sol\":16115:16664  constructor (address treasure, address router) public {\r... */\n  pop\n  pop\n  pop\n    /* \"contracts/dETH.sol\":14445:33305  contract dETH is Context, IERC20, Ownable {\r... */\n  jump(tag_26)\n    /* \"contracts/dETH.sol\":103:218  function _msgSender() internal view virtual returns (address payable) {\r... */\ntag_11:\n    /* \"contracts/dETH.sol\":156:171  address payable */\n  0x00\n    /* \"contracts/dETH.sol\":199:209  msg.sender */\n  caller\n    /* \"contracts/dETH.sol\":184:210  return payable(msg.sender) */\n  swap1\n  pop\n    /* \"contracts/dETH.sol\":103:218  function _msgSender() internal view virtual returns (address payable) {\r... */\n  swap1\n  jump\t// out\n    /* \"contracts/dETH.sol\":14445:33305  contract dETH is Context, IERC20, Ownable {\r... */\ntag_3:\n  dup3\n  dup1\n  sload\n  0x01\n  dup2\n  0x01\n  and\n  iszero\n  0x0100\n  mul\n  sub\n  and\n  0x02\n  swap1\n  div\n  swap1\n  0x00\n  mstore\n  keccak256(0x00, 0x20)\n  swap1\n  0x1f\n  add\n  0x20\n  swap1\n  div\n  dup2\n  add\n  swap3\n  dup3\n  0x1f\n  lt\n  tag_29\n  jumpi\n  dup1\n  mload\n  not(0xff)\n  and\n  dup4\n  dup1\n  add\n  or\n  dup6\n  sstore\n  jump(tag_28)\ntag_29:\n  dup3\n  dup1\n  add\n  0x01\n  add\n  dup6\n  sstore\n  dup3\n  iszero\n  tag_28\n  jumpi\n  swap2\n  dup3\n  add\ntag_30:\n  dup3\n  dup2\n  gt\n  iszero\n  tag_31\n  jumpi\n  dup3\n  mload\n  dup3\n  sstore\n  swap2\n  0x20\n  add\n  swap2\n  swap1\n  0x01\n  add\n  swap1\n  jump(tag_30)\ntag_31:\ntag_28:\n  pop\n  swap1\n  pop\n  tag_32\n  swap2\n  swap1\n  tag_33\n  jump\t// in\ntag_32:\n  pop\n  swap1\n  jump\t// out\ntag_33:\ntag_34:\n  dup1\n  dup3\n  gt\n  iszero\n  tag_35\n  jumpi\n  0x00\n  dup2\n  0x00\n  swap1\n  sstore\n  pop\n  0x01\n  add\n  jump(tag_34)\ntag_35:\n  pop\n  swap1\n  jump\t// out\ntag_26:\n  dataSize(sub_0)\n  dup1\n  dataOffset(sub_0)\n  0x00\n  codecopy\n  0x00\n  return\nstop\n\nsub_0: assembly {\n        /* \"contracts/dETH.sol\":14445:33305  contract dETH is Context, IERC20, Ownable {\r... */\n      mstore(0x40, 0x80)\n      jumpi(tag_1, lt(calldatasize, 0x04))\n      shr(0xe0, calldataload(0x00))\n      dup1\n      0x5342acb4\n      gt\n      tag_42\n      jumpi\n      dup1\n      0x95d89b41\n      gt\n      tag_43\n      jumpi\n      dup1\n      0xdb2e21bc\n      gt\n      tag_44\n      jumpi\n      dup1\n      0xdb2e21bc\n      eq\n      tag_37\n      jumpi\n      dup1\n      0xdd62ed3e\n      eq\n      tag_38\n      jumpi\n      dup1\n      0xea2f0b37\n      eq\n      tag_39\n      jumpi\n      dup1\n      0xf2fde38b\n      eq\n      tag_40\n      jumpi\n      dup1\n      0xf375b253\n      eq\n      tag_41\n      jumpi\n      jump(tag_2)\n    tag_44:\n      dup1\n      0x95d89b41\n      eq\n      tag_32\n      jumpi\n      dup1\n      0xa457c2d7\n      eq\n      tag_33\n      jumpi\n      dup1\n      0xa5ece941\n      eq\n      tag_34\n      jumpi\n      dup1\n      0xa9059cbb\n      eq\n      tag_35\n      jumpi\n      dup1\n      0xc9567bf9\n      eq\n      tag_36\n      jumpi\n      jump(tag_2)\n    tag_43:\n      dup1\n      0x87ceff09\n      gt\n      tag_45\n      jumpi\n      dup1\n      0x87ceff09\n      eq\n      tag_27\n      jumpi\n      dup1\n      0x88f82020\n      eq\n      tag_28\n      jumpi\n      dup1\n      0x8da5cb5b\n      eq\n      tag_29\n      jumpi\n      dup1\n      0x8ee88c53\n      eq\n      tag_30\n      jumpi\n      dup1\n      0x906e9dd0\n      eq\n      tag_31\n      jumpi\n      jump(tag_2)\n    tag_45:\n      dup1\n      0x5342acb4\n      eq\n      tag_22\n      jumpi\n      dup1\n      0x610d5b19\n      eq\n      tag_23\n      jumpi\n      dup1\n      0x6bc87c3a\n      eq\n      tag_24\n      jumpi\n      dup1\n      0x70a08231\n      eq\n      tag_25\n      jumpi\n      dup1\n      0x715018a6\n      eq\n      tag_26\n      jumpi\n      jump(tag_2)\n    tag_42:\n      dup1\n      0x362a3c5d\n      gt\n      tag_46\n      jumpi\n      dup1\n      0x437823ec\n      gt\n      tag_47\n      jumpi\n      dup1\n      0x437823ec\n      eq\n      tag_17\n      jumpi\n      dup1\n      0x4549b039\n      eq\n      tag_18\n      jumpi\n      dup1\n      0x45596e2e\n      eq\n      tag_19\n      jumpi\n      dup1\n      0x49bd5a5e\n      eq\n      tag_20\n      jumpi\n      dup1\n      0x52390c02\n      eq\n      tag_21\n      jumpi\n      jump(tag_2)\n    tag_47:\n      dup1\n      0x362a3c5d\n      eq\n      tag_12\n      jumpi\n      dup1\n      0x3685d419\n      eq\n      tag_13\n      jumpi\n      dup1\n      0x39509351\n      eq\n      tag_14\n      jumpi\n      dup1\n      0x3b124fe7\n      eq\n      tag_15\n      jumpi\n      dup1\n      0x3bd5d173\n      eq\n      tag_16\n      jumpi\n      jump(tag_2)\n    tag_46:\n      dup1\n      0x1694505e\n      gt\n      tag_48\n      jumpi\n      dup1\n      0x1694505e\n      eq\n      tag_7\n      jumpi\n      dup1\n      0x18160ddd\n      eq\n      tag_8\n      jumpi\n      dup1\n      0x23b872dd\n      eq\n      tag_9\n      jumpi\n      dup1\n      0x2d838119\n      eq\n      tag_10\n      jumpi\n      dup1\n      0x313ce567\n      eq\n      tag_11\n      jumpi\n      jump(tag_2)\n    tag_48:\n      dup1\n      0x061c82d0\n      eq\n      tag_3\n      jumpi\n      dup1\n      0x06fdde03\n      eq\n      tag_4\n      jumpi\n      dup1\n      0x095ea7b3\n      eq\n      tag_5\n      jumpi\n      dup1\n      0x13114a9d\n      eq\n      tag_6\n      jumpi\n      jump(tag_2)\n    tag_1:\n      jumpi(tag_2, calldatasize)\n      stop\n    tag_2:\n      0x00\n      dup1\n      revert\n        /* \"contracts/dETH.sol\":31426:31524  function setTaxFeePercent(uint256 taxFee) external onlyOwner() {\r... */\n    tag_3:\n      callvalue\n      dup1\n      iszero\n      tag_51\n      jumpi\n      0x00\n      dup1\n      revert\n    tag_51:\n      pop\n      tag_52\n      0x04\n      dup1\n      calldatasize\n      sub\n      0x20\n      dup2\n      lt\n      iszero\n      tag_53\n      jumpi\n      0x00\n      dup1\n      revert\n    tag_53:\n      dup2\n      add\n      swap1\n      dup1\n      dup1\n      calldataload\n      swap1\n      0x20\n      add\n      swap1\n      swap3\n      swap2\n      swap1\n      pop\n      pop\n      pop\n      tag_54\n      jump\t// in\n    tag_52:\n      stop\n        /* \"contracts/dETH.sol\":16800:16883  function name() public view returns (string memory) {\r... */\n    tag_4:\n      callvalue\n      dup1\n      iszero\n      tag_55\n      jumpi\n      0x00\n      dup1\n      revert\n    tag_55:\n      pop\n      tag_56\n      tag_57\n      jump\t// in\n    tag_56:\n      mload(0x40)\n      dup1\n      dup1\n      0x20\n      add\n      dup3\n      dup2\n      sub\n      dup3\n      mstore\n      dup4\n      dup2\n      dup2\n      mload\n      dup2\n      mstore\n      0x20\n      add\n      swap2\n      pop\n      dup1\n      mload\n      swap1\n      0x20\n      add\n      swap1\n      dup1\n      dup4\n      dup4\n      0x00\n    tag_58:\n      dup4\n      dup2\n      lt\n      iszero\n      tag_60\n      jumpi\n      dup1\n      dup3\n      add\n      mload\n      dup2\n      dup5\n      add\n      mstore\n      0x20\n      dup2\n      add\n      swap1\n      pop\n      jump(tag_58)\n    tag_60:\n      pop\n      pop\n      pop\n      pop\n      swap1\n      pop\n      swap1\n      dup2\n      add\n      swap1\n      0x1f\n      and\n      dup1\n      iszero\n      tag_61\n      jumpi\n      dup1\n      dup3\n      sub\n      dup1\n      mload\n      0x01\n      dup4\n      0x20\n      sub\n      0x0100\n      exp\n      sub\n      not\n      and\n      dup2\n      mstore\n      0x20\n      add\n      swap2\n      pop\n    tag_61:\n      pop\n      swap3\n      pop\n      pop\n      pop\n      mload(0x40)\n      dup1\n      swap2\n      sub\n      swap1\n      return\n        /* \"contracts/dETH.sol\":17712:17873  function approve(address spender, uint256 amount) public override returns (bool) {\r... */\n    tag_5:\n      callvalue\n      dup1\n      iszero\n      tag_62\n      jumpi\n      0x00\n      dup1\n      revert\n    tag_62:\n      pop\n      tag_63\n      0x04\n      dup1\n      calldatasize\n      sub\n      0x40\n      dup2\n      lt\n      iszero\n      tag_64\n      jumpi\n      0x00\n      dup1\n      revert\n    tag_64:\n      dup2\n      add\n      swap1\n      dup1\n      dup1\n      calldataload\n      0xffffffffffffffffffffffffffffffffffffffff\n      and\n      swap1\n      0x20\n      add\n      swap1\n      swap3\n      swap2\n      swap1\n      dup1\n      calldataload\n      swap1\n      0x20\n      add\n      swap1\n      swap3\n      swap2\n      swap1\n      pop\n      pop\n      pop\n      tag_65\n      jump\t// in\n    tag_63:\n      mload(0x40)\n      dup1\n      dup3\n      iszero\n      iszero\n      dup2\n      mstore\n      0x20\n      add\n      swap2\n      pop\n      pop\n      mload(0x40)\n      dup1\n      swap2\n      sub\n      swap1\n      return\n        /* \"contracts/dETH.sol\":18833:18920  function totalFees() public view returns (uint256) {\r... */\n    tag_6:\n      callvalue\n      dup1\n      iszero\n      tag_66\n      jumpi\n      0x00\n      dup1\n      revert\n    tag_66:\n      pop\n      tag_67\n      tag_68\n      jump\t// in\n    tag_67:\n      mload(0x40)\n      dup1\n      dup3\n      dup2\n      mstore\n      0x20\n      add\n      swap2\n      pop\n      pop\n      mload(0x40)\n      dup1\n      swap2\n      sub\n      swap1\n      return\n        /* \"contracts/dETH.sol\":15667:15708  IUniswapV2Router02 public uniswapV2Router */\n    tag_7:\n      callvalue\n      dup1\n      iszero\n      tag_69\n      jumpi\n      0x00\n      dup1\n      revert\n    tag_69:\n      pop\n      tag_70\n      tag_71\n      jump\t// in\n    tag_70:\n      mload(0x40)\n      dup1\n      dup3\n      0xffffffffffffffffffffffffffffffffffffffff\n      and\n      dup2\n      mstore\n      0x20\n      add\n      swap2\n      pop\n      pop\n      mload(0x40)\n      dup1\n      swap2\n      sub\n      swap1\n      return\n        /* \"contracts/dETH.sol\":17077:17172  function totalSupply() public view override returns (uint256) {\r... */\n    tag_8:\n      callvalue\n      dup1\n      iszero\n      tag_72\n      jumpi\n      0x00\n      dup1\n      revert\n    tag_72:\n      pop\n      tag_73\n      tag_74\n      jump\t// in\n    tag_73:\n      mload(0x40)\n      dup1\n      dup3\n      dup2\n      mstore\n      0x20\n      add\n      swap2\n      pop\n      pop\n      mload(0x40)\n      dup1\n      swap2\n      sub\n      swap1\n      return\n        /* \"contracts/dETH.sol\":17881:18194  function transferFrom(address sender, address recipient, uint256 amount) public override returns (bool) {\r... */\n    tag_9:\n      callvalue\n      dup1\n      iszero\n      tag_75\n      jumpi\n      0x00\n      dup1\n      revert\n    tag_75:\n      pop\n      tag_76\n      0x04\n      dup1\n      calldatasize\n      sub\n      0x60\n      dup2\n      lt\n      iszero\n      tag_77\n      jumpi\n      0x00\n      dup1\n      revert\n    tag_77:\n      dup2\n      add\n      swap1\n      dup1\n      dup1\n      calldataload\n      0xffffffffffffffffffffffffffffffffffffffff\n      and\n      swap1\n      0x20\n      add\n      swap1\n      swap3\n      swap2\n      swap1\n      dup1\n      calldataload\n      0xffffffffffffffffffffffffffffffffffffffff\n      and\n      swap1\n      0x20\n      add\n      swap1\n      swap3\n      swap2\n      swap1\n      dup1\n      calldataload\n      swap1\n      0x20\n      add\n      swap1\n      swap3\n      swap2\n      swap1\n      pop\n      pop\n      pop\n      tag_78\n      jump\t// in\n    tag_76:\n      mload(0x40)\n      dup1\n      dup3\n      iszero\n      iszero\n      dup2\n      mstore\n      0x20\n      add\n      swap2\n      pop\n      pop\n      mload(0x40)\n      dup1\n      swap2\n      sub\n      swap1\n      return\n        /* \"contracts/dETH.sol\":19762:20015  function tokenFromReflection(uint256 rAmount) public view returns (uint256) {\r... */\n    tag_10:\n      callvalue\n      dup1\n      iszero\n      tag_79\n      jumpi\n      0x00\n      dup1\n      revert\n    tag_79:\n      pop\n      tag_80\n      0x04\n      dup1\n      calldatasize\n      sub\n      0x20\n      dup2\n      lt\n      iszero\n      tag_81\n      jumpi\n      0x00\n      dup1\n      revert\n    tag_81:\n      dup2\n      add\n      swap1\n      dup1\n      dup1\n      calldataload\n      swap1\n      0x20\n      add\n      swap1\n      swap3\n      swap2\n      swap1\n      pop\n      pop\n      pop\n      tag_82\n      jump\t// in\n    tag_80:\n      mload(0x40)\n      dup1\n      dup3\n      dup2\n      mstore\n      0x20\n      add\n      swap2\n      pop\n      pop\n      mload(0x40)\n      dup1\n      swap2\n      sub\n      swap1\n      return\n        /* \"contracts/dETH.sol\":16986:17069  function decimals() public view returns (uint8) {\r... */\n    tag_11:\n      callvalue\n      dup1\n      iszero\n      tag_83\n      jumpi\n      0x00\n      dup1\n      revert\n    tag_83:\n      pop\n      tag_84\n      tag_85\n      jump\t// in\n    tag_84:\n      mload(0x40)\n      dup1\n      dup3\n      0xff\n      and\n      dup2\n      mstore\n      0x20\n      add\n      swap2\n      pop\n      pop\n      mload(0x40)\n      dup1\n      swap2\n      sub\n      swap1\n      return\n        /* \"contracts/dETH.sol\":32402:32884  function _amnestySniper(address account) external onlyOwner() {\r... */\n    tag_12:\n      callvalue\n      dup1\n      iszero\n      tag_86\n      jumpi\n      0x00\n      dup1\n      revert\n    tag_86:\n      pop\n      tag_87\n      0x04\n      dup1\n      calldatasize\n      sub\n      0x20\n      dup2\n      lt\n      iszero\n      tag_88\n      jumpi\n      0x00\n      dup1\n      revert\n    tag_88:\n      dup2\n      add\n      swap1\n      dup1\n      dup1\n      calldataload\n      0xffffffffffffffffffffffffffffffffffffffff\n      and\n      swap1\n      0x20\n      add\n      swap1\n      swap3\n      swap2\n      swap1\n      pop\n      pop\n      pop\n      tag_89\n      jump\t// in\n    tag_87:\n      stop\n        /* \"contracts/dETH.sol\":20367:20846  function includeInReward(address account) external onlyOwner() {\r... */\n    tag_13:\n      callvalue\n      dup1\n      iszero\n      tag_90\n      jumpi\n      0x00\n      dup1\n      revert\n    tag_90:\n      pop\n      tag_91\n      0x04\n      dup1\n      calldatasize\n      sub\n      0x20\n      dup2\n      lt\n      iszero\n      tag_92\n      jumpi\n      0x00\n      dup1\n      revert\n    tag_92:\n      dup2\n      add\n      swap1\n      dup1\n      dup1\n      calldataload\n      0xffffffffffffffffffffffffffffffffffffffff\n      and\n      swap1\n      0x20\n      add\n      swap1\n      swap3\n      swap2\n      swap1\n      pop\n      pop\n      pop\n      tag_93\n      jump\t// in\n    tag_91:\n      stop\n        /* \"contracts/dETH.sol\":18202:18420  function increaseAllowance(address spender, uint256 addedValue) public virtual returns (bool) {\r... */\n    tag_14:\n      callvalue\n      dup1\n      iszero\n      tag_94\n      jumpi\n      0x00\n      dup1\n      revert\n    tag_94:\n      pop\n      tag_95\n      0x04\n      dup1\n      calldatasize\n      sub\n      0x40\n      dup2\n      lt\n      iszero\n      tag_96\n      jumpi\n      0x00\n      dup1\n      revert\n    tag_96:\n      dup2\n      add\n      swap1\n      dup1\n      dup1\n      calldataload\n      0xffffffffffffffffffffffffffffffffffffffff\n      and\n      swap1\n      0x20\n      add\n      swap1\n      swap3\n      swap2\n      swap1\n      dup1\n      calldataload\n      swap1\n      0x20\n      add\n      swap1\n      swap3\n      swap2\n      swap1\n      pop\n      pop\n      pop\n      tag_97\n      jump\t// in\n    tag_95:\n      mload(0x40)\n      dup1\n      dup3\n      iszero\n      iszero\n      dup2\n      mstore\n      0x20\n      add\n      swap2\n      pop\n      pop\n      mload(0x40)\n      dup1\n      swap2\n      sub\n      swap1\n      return\n        /* \"contracts/dETH.sol\":15409:15435  uint256 public _taxFee = 3 */\n    tag_15:\n      callvalue\n      dup1\n      iszero\n      tag_98\n      jumpi\n      0x00\n      dup1\n      revert\n    tag_98:\n      pop\n      tag_99\n      tag_100\n      jump\t// in\n    tag_99:\n      mload(0x40)\n      dup1\n      dup3\n      dup2\n      mstore\n      0x20\n      add\n      swap2\n      pop\n      pop\n      mload(0x40)\n      dup1\n      swap2\n      sub\n      swap1\n      return\n        /* \"contracts/dETH.sol\":18930:19307  function deliver(uint256 tAmount) public {\r... */\n    tag_16:\n      callvalue\n      dup1\n      iszero\n      tag_101\n      jumpi\n      0x00\n      dup1\n      revert\n    tag_101:\n      pop\n      tag_102\n      0x04\n      dup1\n      calldatasize\n      sub\n      0x20\n      dup2\n      lt\n      iszero\n      tag_103\n      jumpi\n      0x00\n      dup1\n      revert\n    tag_103:\n      dup2\n      add\n      swap1\n      dup1\n      dup1\n      calldataload\n      swap1\n      0x20\n      add\n      swap1\n      swap3\n      swap2\n      swap1\n      pop\n      pop\n      pop\n      tag_104\n      jump\t// in\n    tag_102:\n      stop\n        /* \"contracts/dETH.sol\":31189:31300  function excludeFromFee(address account) public onlyOwner {\r... */\n    tag_17:\n      callvalue\n      dup1\n      iszero\n      tag_105\n      jumpi\n      0x00\n      dup1\n      revert\n    tag_105:\n      pop\n      tag_106\n      0x04\n      dup1\n      calldatasize\n      sub\n      0x20\n      dup2\n      lt\n      iszero\n      tag_107\n      jumpi\n      0x00\n      dup1\n      revert\n    tag_107:\n      dup2\n      add\n      swap1\n      dup1\n      dup1\n      calldataload\n      0xffffffffffffffffffffffffffffffffffffffff\n      and\n      swap1\n      0x20\n      add\n      swap1\n      swap3\n      swap2\n      swap1\n      pop\n      pop\n      pop\n      tag_108\n      jump\t// in\n    tag_106:\n      stop\n        /* \"contracts/dETH.sol\":19317:19754  function reflectionFromToken(uint256 tAmount, bool deductTransferFee) public view returns (uint256) {\r... */\n    tag_18:\n      callvalue\n      dup1\n      iszero\n      tag_109\n      jumpi\n      0x00\n      dup1\n      revert\n    tag_109:\n      pop\n      tag_110\n      0x04\n      dup1\n      calldatasize\n      sub\n      0x40\n      dup2\n      lt\n      iszero\n      tag_111\n      jumpi\n      0x00\n      dup1\n      revert\n    tag_111:\n      dup2\n      add\n      swap1\n      dup1\n      dup1\n      calldataload\n      swap1\n      0x20\n      add\n      swap1\n      swap3\n      swap2\n      swap1\n      dup1\n      calldataload\n      iszero\n      iszero\n      swap1\n      0x20\n      add\n      swap1\n      swap3\n      swap2\n      swap1\n      pop\n      pop\n      pop\n      tag_112\n      jump\t// in\n    tag_110:\n      mload(0x40)\n      dup1\n      dup3\n      dup2\n      mstore\n      0x20\n      add\n      swap2\n      pop\n      pop\n      mload(0x40)\n      dup1\n      swap2\n      sub\n      swap1\n      return\n        /* \"contracts/dETH.sol\":32894:32983  function setFeeRate(uint256 rate) external onlyOwner() {\r... */\n    tag_19:\n      callvalue\n      dup1\n      iszero\n      tag_113\n      jumpi\n      0x00\n      dup1\n      revert\n    tag_113:\n      pop\n      tag_114\n      0x04\n      dup1\n      calldatasize\n      sub\n      0x20\n      dup2\n      lt\n      iszero\n      tag_115\n      jumpi\n      0x00\n      dup1\n      revert\n    tag_115:\n      dup2\n      add\n      swap1\n      dup1\n      dup1\n      calldataload\n      swap1\n      0x20\n      add\n      swap1\n      swap3\n      swap2\n      swap1\n      pop\n      pop\n      pop\n      tag_116\n      jump\t// in\n    tag_114:\n      stop\n        /* \"contracts/dETH.sol\":15715:15743  address public uniswapV2Pair */\n    tag_20:\n      callvalue\n      dup1\n      iszero\n      tag_117\n      jumpi\n      0x00\n      dup1\n      revert\n    tag_117:\n      pop\n      tag_118\n      tag_119\n      jump\t// in\n    tag_118:\n      mload(0x40)\n      dup1\n      dup3\n      0xffffffffffffffffffffffffffffffffffffffff\n      and\n      dup2\n      mstore\n      0x20\n      add\n      swap2\n      pop\n      pop\n      mload(0x40)\n      dup1\n      swap2\n      sub\n      swap1\n      return\n        /* \"contracts/dETH.sol\":20023:20359  function excludeFromReward(address account) public onlyOwner() {\r... */\n    tag_21:\n      callvalue\n      dup1\n      iszero\n      tag_120\n      jumpi\n      0x00\n      dup1\n      revert\n    tag_120:\n      pop\n      tag_121\n      0x04\n      dup1\n      calldatasize\n      sub\n      0x20\n      dup2\n      lt\n      iszero\n      tag_122\n      jumpi\n      0x00\n      dup1\n      revert\n    tag_122:\n      dup2\n      add\n      swap1\n      dup1\n      dup1\n      calldataload\n      0xffffffffffffffffffffffffffffffffffffffff\n      and\n      swap1\n      0x20\n      add\n      swap1\n      swap3\n      swap2\n      swap1\n      pop\n      pop\n      pop\n      tag_123\n      jump\t// in\n    tag_121:\n      stop\n        /* \"contracts/dETH.sol\":31057:31181  function isExcludedFromFee(address account) public view returns (bool) {\r... */\n    tag_22:\n      callvalue\n      dup1\n      iszero\n      tag_124\n      jumpi\n      0x00\n      dup1\n      revert\n    tag_124:\n      pop\n      tag_125\n      0x04\n      dup1\n      calldatasize\n      sub\n      0x20\n      dup2\n      lt\n      iszero\n      tag_126\n      jumpi\n      0x00\n      dup1\n      revert\n    tag_126:\n      dup2\n      add\n      swap1\n      dup1\n      dup1\n      calldataload\n      0xffffffffffffffffffffffffffffffffffffffff\n      and\n      swap1\n      0x20\n      add\n      swap1\n      swap3\n      swap2\n      swap1\n      pop\n      pop\n      pop\n      tag_127\n      jump\t// in\n    tag_125:\n      mload(0x40)\n      dup1\n      dup3\n      iszero\n      iszero\n      dup2\n      mstore\n      0x20\n      add\n      swap2\n      pop\n      pop\n      mload(0x40)\n      dup1\n      swap2\n      sub\n      swap1\n      return\n        /* \"contracts/dETH.sol\":31949:32062  function isRemovedSniper(address account) public view returns (bool) {\r... */\n    tag_23:\n      callvalue\n      dup1\n      iszero\n      tag_128\n      jumpi\n      0x00\n      dup1\n      revert\n    tag_128:\n      pop\n      tag_129\n      0x04\n      dup1\n      calldatasize\n      sub\n      0x20\n      dup2\n      lt\n      iszero\n      tag_130\n      jumpi\n      0x00\n      dup1\n      revert\n    tag_130:\n      dup2\n      add\n      swap1\n      dup1\n      dup1\n      calldataload\n      0xffffffffffffffffffffffffffffffffffffffff\n      and\n      swap1\n      0x20\n      add\n      swap1\n      swap3\n      swap2\n      swap1\n      pop\n      pop\n      pop\n      tag_131\n      jump\t// in\n    tag_129:\n      mload(0x40)\n      dup1\n      dup3\n      iszero\n      iszero\n      dup2\n      mstore\n      0x20\n      add\n      swap2\n      pop\n      pop\n      mload(0x40)\n      dup1\n      swap2\n      sub\n      swap1\n      return\n        /* \"contracts/dETH.sol\":15498:15530  uint256 public _liquidityFee = 6 */\n    tag_24:\n      callvalue\n      dup1\n      iszero\n      tag_132\n      jumpi\n      0x00\n      dup1\n      revert\n    tag_132:\n      pop\n      tag_133\n      tag_134\n      jump\t// in\n    tag_133:\n      mload(0x40)\n      dup1\n      dup3\n      dup2\n      mstore\n      0x20\n      add\n      swap2\n      pop\n      pop\n      mload(0x40)\n      dup1\n      swap2\n      sub\n      swap1\n      return\n        /* \"contracts/dETH.sol\":17180:17378  function balanceOf(address account) public view override returns (uint256) {\r... */\n    tag_25:\n      callvalue\n      dup1\n      iszero\n      tag_135\n      jumpi\n      0x00\n      dup1\n      revert\n    tag_135:\n      pop\n      tag_136\n      0x04\n      dup1\n      calldatasize\n      sub\n      0x20\n      dup2\n      lt\n      iszero\n      tag_137\n      jumpi\n      0x00\n      dup1\n      revert\n    tag_137:\n      dup2\n      add\n      swap1\n      dup1\n      dup1\n      calldataload\n      0xffffffffffffffffffffffffffffffffffffffff\n      and\n      swap1\n      0x20\n      add\n      swap1\n      swap3\n      swap2\n      swap1\n      pop\n      pop\n      pop\n      tag_138\n      jump\t// in\n    tag_136:\n      mload(0x40)\n      dup1\n      dup3\n      dup2\n      mstore\n      0x20\n      add\n      swap2\n      pop\n      pop\n      mload(0x40)\n      dup1\n      swap2\n      sub\n      swap1\n      return\n        /* \"contracts/dETH.sol\":6036:6184  function renounceOwnership() public virtual onlyOwner {\r... */\n    tag_26:\n      callvalue\n      dup1\n      iszero\n      tag_139\n      jumpi\n      0x00\n      dup1\n      revert\n    tag_139:\n      pop\n      tag_140\n      tag_141\n      jump\t// in\n    tag_140:\n      stop\n        /* \"contracts/dETH.sol\":32991:33086  function getBlockTime() public view returns (uint256) {\r... */\n    tag_27:\n      callvalue\n      dup1\n      iszero\n      tag_142\n      jumpi\n      0x00\n      dup1\n      revert\n    tag_142:\n      pop\n      tag_143\n      tag_144\n      jump\t// in\n    tag_143:\n      mload(0x40)\n      dup1\n      dup3\n      dup2\n      mstore\n      0x20\n      add\n      swap2\n      pop\n      pop\n      mload(0x40)\n      dup1\n      swap2\n      sub\n      swap1\n      return\n        /* \"contracts/dETH.sol\":18705:18825  function isExcludedFromReward(address account) public view returns (bool) {\r... */\n    tag_28:\n      callvalue\n      dup1\n      iszero\n      tag_145\n      jumpi\n      0x00\n      dup1\n      revert\n    tag_145:\n      pop\n      tag_146\n      0x04\n      dup1\n      calldatasize\n      sub\n      0x20\n      dup2\n      lt\n      iszero\n      tag_147\n      jumpi\n      0x00\n      dup1\n      revert\n    tag_147:\n      dup2\n      add\n      swap1\n      dup1\n      dup1\n      calldataload\n      0xffffffffffffffffffffffffffffffffffffffff\n      and\n      swap1\n      0x20\n      add\n      swap1\n      swap3\n      swap2\n      swap1\n      pop\n      pop\n      pop\n      tag_148\n      jump\t// in\n    tag_146:\n      mload(0x40)\n      dup1\n      dup3\n      iszero\n      iszero\n      dup2\n      mstore\n      0x20\n      add\n      swap2\n      pop\n      pop\n      mload(0x40)\n      dup1\n      swap2\n      sub\n      swap1\n      return\n        /* \"contracts/dETH.sol\":5822:5901  function owner() public view returns (address) {\r... */\n    tag_29:\n      callvalue\n      dup1\n      iszero\n      tag_149\n      jumpi\n      0x00\n      dup1\n      revert\n    tag_149:\n      pop\n      tag_150\n      tag_151\n      jump\t// in\n    tag_150:\n      mload(0x40)\n      dup1\n      dup3\n      0xffffffffffffffffffffffffffffffffffffffff\n      and\n      dup2\n      mstore\n      0x20\n      add\n      swap2\n      pop\n      pop\n      mload(0x40)\n      dup1\n      swap2\n      sub\n      swap1\n      return\n        /* \"contracts/dETH.sol\":31532:31654  function setLiquidityFeePercent(uint256 liquidityFee) external onlyOwner() {\r... */\n    tag_30:\n      callvalue\n      dup1\n      iszero\n      tag_152\n      jumpi\n      0x00\n      dup1\n      revert\n    tag_152:\n      pop\n      tag_153\n      0x04\n      dup1\n      calldatasize\n      sub\n      0x20\n      dup2\n      lt\n      iszero\n      tag_154\n      jumpi\n      0x00\n      dup1\n      revert\n    tag_154:\n      dup2\n      add\n      swap1\n      dup1\n      dup1\n      calldataload\n      swap1\n      0x20\n      add\n      swap1\n      swap3\n      swap2\n      swap1\n      pop\n      pop\n      pop\n      tag_155\n      jump\t// in\n    tag_153:\n      stop\n        /* \"contracts/dETH.sol\":31664:31805  function setMarketingAddress(address _marketingAddress) external onlyOwner() {\r... */\n    tag_31:\n      callvalue\n      dup1\n      iszero\n      tag_156\n      jumpi\n      0x00\n      dup1\n      revert\n    tag_156:\n      pop\n      tag_157\n      0x04\n      dup1\n      calldatasize\n      sub\n      0x20\n      dup2\n      lt\n      iszero\n      tag_158\n      jumpi\n      0x00\n      dup1\n      revert\n    tag_158:\n      dup2\n      add\n      swap1\n      dup1\n      dup1\n      calldataload\n      0xffffffffffffffffffffffffffffffffffffffff\n      and\n      swap1\n      0x20\n      add\n      swap1\n      swap3\n      swap2\n      swap1\n      pop\n      pop\n      pop\n      tag_159\n      jump\t// in\n    tag_157:\n      stop\n        /* \"contracts/dETH.sol\":16891:16978  function symbol() public view returns (string memory) {\r... */\n    tag_32:\n      callvalue\n      dup1\n      iszero\n      tag_160\n      jumpi\n      0x00\n      dup1\n      revert\n    tag_160:\n      pop\n      tag_161\n      tag_162\n      jump\t// in\n    tag_161:\n      mload(0x40)\n      dup1\n      dup1\n      0x20\n      add\n      dup3\n      dup2\n      sub\n      dup3\n      mstore\n      dup4\n      dup2\n      dup2\n      mload\n      dup2\n      mstore\n      0x20\n      add\n      swap2\n      pop\n      dup1\n      mload\n      swap1\n      0x20\n      add\n      swap1\n      dup1\n      dup4\n      dup4\n      0x00\n    tag_163:\n      dup4\n      dup2\n      lt\n      iszero\n      tag_165\n      jumpi\n      dup1\n      dup3\n      add\n      mload\n      dup2\n      dup5\n      add\n      mstore\n      0x20\n      dup2\n      add\n      swap1\n      pop\n      jump(tag_163)\n    tag_165:\n      pop\n      pop\n      pop\n      pop\n      swap1\n      pop\n      swap1\n      dup2\n      add\n      swap1\n      0x1f\n      and\n      dup1\n      iszero\n      tag_166\n      jumpi\n      dup1\n      dup3\n      sub\n      dup1\n      mload\n      0x01\n      dup4\n      0x20\n      sub\n      0x0100\n      exp\n      sub\n      not\n      and\n      dup2\n      mstore\n      0x20\n      add\n      swap2\n      pop\n    tag_166:\n      pop\n      swap3\n      pop\n      pop\n      pop\n      mload(0x40)\n      dup1\n      swap2\n      sub\n      swap1\n      return\n        /* \"contracts/dETH.sol\":18428:18697  function decreaseAllowance(address spender, uint256 subtractedValue) public virtual returns (bool) {\r... */\n    tag_33:\n      callvalue\n      dup1\n      iszero\n      tag_167\n      jumpi\n      0x00\n      dup1\n      revert\n    tag_167:\n      pop\n      tag_168\n      0x04\n      dup1\n      calldatasize\n      sub\n      0x40\n      dup2\n      lt\n      iszero\n      tag_169\n      jumpi\n      0x00\n      dup1\n      revert\n    tag_169:\n      dup2\n      add\n      swap1\n      dup1\n      dup1\n      calldataload\n      0xffffffffffffffffffffffffffffffffffffffff\n      and\n      swap1\n      0x20\n      add\n      swap1\n      swap3\n      swap2\n      swap1\n      dup1\n      calldataload\n      swap1\n      0x20\n      add\n      swap1\n      swap3\n      swap2\n      swap1\n      pop\n      pop\n      pop\n      tag_170\n      jump\t// in\n    tag_168:\n      mload(0x40)\n      dup1\n      dup3\n      iszero\n      iszero\n      dup2\n      mstore\n      0x20\n      add\n      swap2\n      pop\n      pop\n      mload(0x40)\n      dup1\n      swap2\n      sub\n      swap1\n      return\n        /* \"contracts/dETH.sol\":14561:14654  address payable public marketingAddress = payable(0x40da1dd681eC6175C3BCFe1641CD2826A99EBdD8) */\n    tag_34:\n      callvalue\n      dup1\n      iszero\n      tag_171\n      jumpi\n      0x00\n      dup1\n      revert\n    tag_171:\n      pop\n      tag_172\n      tag_173\n      jump\t// in\n    tag_172:\n      mload(0x40)\n      dup1\n      dup3\n      0xffffffffffffffffffffffffffffffffffffffff\n      and\n      dup2\n      mstore\n      0x20\n      add\n      swap2\n      pop\n      pop\n      mload(0x40)\n      dup1\n      swap2\n      sub\n      swap1\n      return\n        /* \"contracts/dETH.sol\":17386:17553  function transfer(address recipient, uint256 amount) public override returns (bool) {\r... */\n    tag_35:\n      callvalue\n      dup1\n      iszero\n      tag_174\n      jumpi\n      0x00\n      dup1\n      revert\n    tag_174:\n      pop\n      tag_175\n      0x04\n      dup1\n      calldatasize\n      sub\n      0x40\n      dup2\n      lt\n      iszero\n      tag_176\n      jumpi\n      0x00\n      dup1\n      revert\n    tag_176:\n      dup2\n      add\n      swap1\n      dup1\n      dup1\n      calldataload\n      0xffffffffffffffffffffffffffffffffffffffff\n      and\n      swap1\n      0x20\n      add\n      swap1\n      swap3\n      swap2\n      swap1\n      dup1\n      calldataload\n      swap1\n      0x20\n      add\n      swap1\n      swap3\n      swap2\n      swap1\n      pop\n      pop\n      pop\n      tag_177\n      jump\t// in\n    tag_175:\n      mload(0x40)\n      dup1\n      dup3\n      iszero\n      iszero\n      dup2\n      mstore\n      0x20\n      add\n      swap2\n      pop\n      pop\n      mload(0x40)\n      dup1\n      swap2\n      sub\n      swap1\n      return\n        /* \"contracts/dETH.sol\":16672:16792  function openTrading() external onlyOwner() {\r... */\n    tag_36:\n      callvalue\n      dup1\n      iszero\n      tag_178\n      jumpi\n      0x00\n      dup1\n      revert\n    tag_178:\n      pop\n      tag_179\n      tag_180\n      jump\t// in\n    tag_179:\n      stop\n        /* \"contracts/dETH.sol\":33094:33209  function emergencyWithdraw() external onlyOwner {\r... */\n    tag_37:\n      callvalue\n      dup1\n      iszero\n      tag_181\n      jumpi\n      0x00\n      dup1\n      revert\n    tag_181:\n      pop\n      tag_182\n      tag_183\n      jump\t// in\n    tag_182:\n      stop\n        /* \"contracts/dETH.sol\":17561:17704  function allowance(address owner, address spender) public view override returns (uint256) {\r... */\n    tag_38:\n      callvalue\n      dup1\n      iszero\n      tag_184\n      jumpi\n      0x00\n      dup1\n      revert\n    tag_184:\n      pop\n      tag_185\n      0x04\n      dup1\n      calldatasize\n      sub\n      0x40\n      dup2\n      lt\n      iszero\n      tag_186\n      jumpi\n      0x00\n      dup1\n      revert\n    tag_186:\n      dup2\n      add\n      swap1\n      dup1\n      dup1\n      calldataload\n      0xffffffffffffffffffffffffffffffffffffffff\n      and\n      swap1\n      0x20\n      add\n      swap1\n      swap3\n      swap2\n      swap1\n      dup1\n      calldataload\n      0xffffffffffffffffffffffffffffffffffffffff\n      and\n      swap1\n      0x20\n      add\n      swap1\n      swap3\n      swap2\n      swap1\n      pop\n      pop\n      pop\n      tag_187\n      jump\t// in\n    tag_185:\n      mload(0x40)\n      dup1\n      dup3\n      dup2\n      mstore\n      0x20\n      add\n      swap2\n      pop\n      pop\n      mload(0x40)\n      dup1\n      swap2\n      sub\n      swap1\n      return\n        /* \"contracts/dETH.sol\":31308:31418  function includeInFee(address account) public onlyOwner {\r... */\n    tag_39:\n      callvalue\n      dup1\n      iszero\n      tag_188\n      jumpi\n      0x00\n      dup1\n      revert\n    tag_188:\n      pop\n      tag_189\n      0x04\n      dup1\n      calldatasize\n      sub\n      0x20\n      dup2\n      lt\n      iszero\n      tag_190\n      jumpi\n      0x00\n      dup1\n      revert\n    tag_190:\n      dup2\n      add\n      swap1\n      dup1\n      dup1\n      calldataload\n      0xffffffffffffffffffffffffffffffffffffffff\n      and\n      swap1\n      0x20\n      add\n      swap1\n      swap3\n      swap2\n      swap1\n      pop\n      pop\n      pop\n      tag_191\n      jump\t// in\n    tag_189:\n      stop\n        /* \"contracts/dETH.sol\":6192:6436  function transferOwnership(address newOwner) public virtual onlyOwner {\r... */\n    tag_40:\n      callvalue\n      dup1\n      iszero\n      tag_192\n      jumpi\n      0x00\n      dup1\n      revert\n    tag_192:\n      pop\n      tag_193\n      0x04\n      dup1\n      calldatasize\n      sub\n      0x20\n      dup2\n      lt\n      iszero\n      tag_194\n      jumpi\n      0x00\n      dup1\n      revert\n    tag_194:\n      dup2\n      add\n      swap1\n      dup1\n      dup1\n      calldataload\n      0xffffffffffffffffffffffffffffffffffffffff\n      and\n      swap1\n      0x20\n      add\n      swap1\n      swap3\n      swap2\n      swap1\n      pop\n      pop\n      pop\n      tag_195\n      jump\t// in\n    tag_193:\n      stop\n        /* \"contracts/dETH.sol\":32070:32394  function _removeSniper(address account) external onlyOwner() {\r... */\n    tag_41:\n      callvalue\n      dup1\n      iszero\n      tag_196\n      jumpi\n      0x00\n      dup1\n      revert\n    tag_196:\n      pop\n      tag_197\n      0x04\n      dup1\n      calldatasize\n      sub\n      0x20\n      dup2\n      lt\n      iszero\n      tag_198\n      jumpi\n      0x00\n      dup1\n      revert\n    tag_198:\n      dup2\n      add\n      swap1\n      dup1\n      dup1\n      calldataload\n      0xffffffffffffffffffffffffffffffffffffffff\n      and\n      swap1\n      0x20\n      add\n      swap1\n      swap3\n      swap2\n      swap1\n      pop\n      pop\n      pop\n      tag_199\n      jump\t// in\n    tag_197:\n      stop\n        /* \"contracts/dETH.sol\":31426:31524  function setTaxFeePercent(uint256 taxFee) external onlyOwner() {\r... */\n    tag_54:\n        /* \"contracts/dETH.sol\":5959:5971  _msgSender() */\n      tag_201\n        /* \"contracts/dETH.sol\":5959:5969  _msgSender */\n      tag_202\n        /* \"contracts/dETH.sol\":5959:5971  _msgSender() */\n      jump\t// in\n    tag_201:\n        /* \"contracts/dETH.sol\":5949:5971  _owner == _msgSender() */\n      0xffffffffffffffffffffffffffffffffffffffff\n      and\n        /* \"contracts/dETH.sol\":5949:5955  _owner */\n      0x00\n      dup1\n      sload\n      swap1\n      0x0100\n      exp\n      swap1\n      div\n      0xffffffffffffffffffffffffffffffffffffffff\n      and\n        /* \"contracts/dETH.sol\":5949:5971  _owner == _msgSender() */\n      0xffffffffffffffffffffffffffffffffffffffff\n      and\n      eq\n        /* \"contracts/dETH.sol\":5941:6008  require(_owner == _msgSender(), \"Ownable: caller is not the owner\") */\n      tag_203\n      jumpi\n      mload(0x40)\n      0x08c379a000000000000000000000000000000000000000000000000000000000\n      dup2\n      mstore\n      0x04\n      add\n      dup1\n      dup1\n      0x20\n      add\n      dup3\n      dup2\n      sub\n      dup3\n      mstore\n      0x20\n      dup2\n      mstore\n      0x20\n      add\n      dup1\n      0x4f776e61626c653a2063616c6c6572206973206e6f7420746865206f776e6572\n      dup2\n      mstore\n      pop\n      0x20\n      add\n      swap2\n      pop\n      pop\n      mload(0x40)\n      dup1\n      swap2\n      sub\n      swap1\n      revert\n    tag_203:\n        /* \"contracts/dETH.sol\":31510:31516  taxFee */\n      dup1\n        /* \"contracts/dETH.sol\":31500:31507  _taxFee */\n      0x12\n        /* \"contracts/dETH.sol\":31500:31516  _taxFee = taxFee */\n      dup2\n      swap1\n      sstore\n      pop\n        /* \"contracts/dETH.sol\":31426:31524  function setTaxFeePercent(uint256 taxFee) external onlyOwner() {\r... */\n      pop\n      jump\t// out\n        /* \"contracts/dETH.sol\":16800:16883  function name() public view returns (string memory) {\r... */\n    tag_57:\n        /* \"contracts/dETH.sol\":16837:16850  string memory */\n      0x60\n        /* \"contracts/dETH.sol\":16870:16875  _name */\n      0x0f\n        /* \"contracts/dETH.sol\":16863:16875  return _name */\n      dup1\n      sload\n      0x01\n      dup2\n      0x01\n      and\n      iszero\n      0x0100\n      mul\n      sub\n      and\n      0x02\n      swap1\n      div\n      dup1\n      0x1f\n      add\n      0x20\n      dup1\n      swap2\n      div\n      mul\n      0x20\n      add\n      mload(0x40)\n      swap1\n      dup2\n      add\n      0x40\n      mstore\n      dup1\n      swap3\n      swap2\n      swap1\n      dup2\n      dup2\n      mstore\n      0x20\n      add\n      dup3\n      dup1\n      sload\n      0x01\n      dup2\n      0x01\n      and\n      iszero\n      0x0100\n      mul\n      sub\n      and\n      0x02\n      swap1\n      div\n      dup1\n      iszero\n      tag_206\n      jumpi\n      dup1\n      0x1f\n      lt\n      tag_207\n      jumpi\n      0x0100\n      dup1\n      dup4\n      sload\n      div\n      mul\n      dup4\n      mstore\n      swap2\n      0x20\n      add\n      swap2\n      jump(tag_206)\n    tag_207:\n      dup3\n      add\n      swap2\n      swap1\n      0x00\n      mstore\n      keccak256(0x00, 0x20)\n      swap1\n    tag_208:\n      dup2\n      sload\n      dup2\n      mstore\n      swap1\n      0x01\n      add\n      swap1\n      0x20\n      add\n      dup1\n      dup4\n      gt\n      tag_208\n      jumpi\n      dup3\n      swap1\n      sub\n      0x1f\n      and\n      dup3\n      add\n      swap2\n    tag_206:\n      pop\n      pop\n      pop\n      pop\n      pop\n      swap1\n      pop\n        /* \"contracts/dETH.sol\":16800:16883  function name() public view returns (string memory) {\r... */\n      swap1\n      jump\t// out\n        /* \"contracts/dETH.sol\":17712:17873  function approve(address spender, uint256 amount) public override returns (bool) {\r... */\n    tag_65:\n        /* \"contracts/dETH.sol\":17787:17791  bool */\n      0x00\n        /* \"contracts/dETH.sol\":17804:17843  _approve(_msgSender(), spender, amount) */\n      tag_210\n        /* \"contracts/dETH.sol\":17813:17825  _msgSender() */\n      tag_211\n        /* \"contracts/dETH.sol\":17813:17823  _msgSender */\n      tag_202\n        /* \"contracts/dETH.sol\":17813:17825  _msgSender() */\n      jump\t// in\n    tag_211:\n        /* \"contracts/dETH.sol\":17827:17834  spender */\n      dup5\n        /* \"contracts/dETH.sol\":17836:17842  amount */\n      dup5\n        /* \"contracts/dETH.sol\":17804:17812  _approve */\n      tag_212\n        /* \"contracts/dETH.sol\":17804:17843  _approve(_msgSender(), spender, amount) */\n      jump\t// in\n    tag_210:\n        /* \"contracts/dETH.sol\":17861:17865  true */\n      0x01\n        /* \"contracts/dETH.sol\":17854:17865  return true */\n      swap1\n      pop\n        /* \"contracts/dETH.sol\":17712:17873  function approve(address spender, uint256 amount) public override returns (bool) {\r... */\n      swap3\n      swap2\n      pop\n      pop\n      jump\t// out\n        /* \"contracts/dETH.sol\":18833:18920  function totalFees() public view returns (uint256) {\r... */\n    tag_68:\n        /* \"contracts/dETH.sol\":18875:18882  uint256 */\n      0x00\n        /* \"contracts/dETH.sol\":18902:18912  _tFeeTotal */\n      sload(0x0e)\n        /* \"contracts/dETH.sol\":18895:18912  return _tFeeTotal */\n      swap1\n      pop\n        /* \"contracts/dETH.sol\":18833:18920  function totalFees() public view returns (uint256) {\r... */\n      swap1\n      jump\t// out\n        /* \"contracts/dETH.sol\":15667:15708  IUniswapV2Router02 public uniswapV2Router */\n    tag_71:\n      0x18\n      0x00\n      swap1\n      sload\n      swap1\n      0x0100\n      exp\n      swap1\n      div\n      0xffffffffffffffffffffffffffffffffffffffff\n      and\n      dup2\n      jump\t// out\n        /* \"contracts/dETH.sol\":17077:17172  function totalSupply() public view override returns (uint256) {\r... */\n    tag_74:\n        /* \"contracts/dETH.sol\":17130:17137  uint256 */\n      0x00\n        /* \"contracts/dETH.sol\":17157:17164  _tTotal */\n      sload(0x0c)\n        /* \"contracts/dETH.sol\":17150:17164  return _tTotal */\n      swap1\n      pop\n        /* \"contracts/dETH.sol\":17077:17172  function totalSupply() public view override returns (uint256) {\r... */\n      swap1\n      jump\t// out\n        /* \"contracts/dETH.sol\":17881:18194  function transferFrom(address sender, address recipient, uint256 amount) public override returns (bool) {\r... */\n    tag_78:\n        /* \"contracts/dETH.sol\":17979:17983  bool */\n      0x00\n        /* \"contracts/dETH.sol\":17996:18032  _transfer(sender, recipient, amount) */\n      tag_216\n        /* \"contracts/dETH.sol\":18006:18012  sender */\n      dup5\n        /* \"contracts/dETH.sol\":18014:18023  recipient */\n      dup5\n        /* \"contracts/dETH.sol\":18025:18031  amount */\n      dup5\n        /* \"contracts/dETH.sol\":17996:18005  _transfer */\n      tag_217\n        /* \"contracts/dETH.sol\":17996:18032  _transfer(sender, recipient, amount) */\n      jump\t// in\n    tag_216:\n        /* \"contracts/dETH.sol\":18043:18164  _approve(sender, _msgSender(), _allowances[sender][_msgSender()].sub(amount, \"ERC20: transfer amount exceeds allowance\")) */\n      tag_218\n        /* \"contracts/dETH.sol\":18052:18058  sender */\n      dup5\n        /* \"contracts/dETH.sol\":18060:18072  _msgSender() */\n      tag_219\n        /* \"contracts/dETH.sol\":18060:18070  _msgSender */\n      tag_202\n        /* \"contracts/dETH.sol\":18060:18072  _msgSender() */\n      jump\t// in\n    tag_219:\n        /* \"contracts/dETH.sol\":18074:18163  _allowances[sender][_msgSender()].sub(amount, \"ERC20: transfer amount exceeds allowance\") */\n      tag_220\n        /* \"contracts/dETH.sol\":18112:18118  amount */\n      dup6\n        /* \"contracts/dETH.sol\":18074:18163  _allowances[sender][_msgSender()].sub(amount, \"ERC20: transfer amount exceeds allowance\") */\n      mload(0x40)\n      dup1\n      0x60\n      add\n      0x40\n      mstore\n      dup1\n      0x28\n      dup2\n      mstore\n      0x20\n      add\n      data_974d1b4421da69cc60b481194f0dad36a5bb4e23da810da7a7fb30cdba178330\n      0x28\n      swap2\n      codecopy\n        /* \"contracts/dETH.sol\":18074:18085  _allowances */\n      0x06\n        /* \"contracts/dETH.sol\":18074:18093  _allowances[sender] */\n      0x00\n        /* \"contracts/dETH.sol\":18086:18092  sender */\n      dup12\n        /* \"contracts/dETH.sol\":18074:18093  _allowances[sender] */\n      0xffffffffffffffffffffffffffffffffffffffff\n      and\n      0xffffffffffffffffffffffffffffffffffffffff\n      and\n      dup2\n      mstore\n      0x20\n      add\n      swap1\n      dup2\n      mstore\n      0x20\n      add\n      0x00\n      keccak256\n        /* \"contracts/dETH.sol\":18074:18107  _allowances[sender][_msgSender()] */\n      0x00\n        /* \"contracts/dETH.sol\":18094:18106  _msgSender() */\n      tag_221\n        /* \"contracts/dETH.sol\":18094:18104  _msgSender */\n      tag_202\n        /* \"contracts/dETH.sol\":18094:18106  _msgSender() */\n      jump\t// in\n    tag_221:\n        /* \"contracts/dETH.sol\":18074:18107  _allowances[sender][_msgSender()] */\n      0xffffffffffffffffffffffffffffffffffffffff\n      and\n      0xffffffffffffffffffffffffffffffffffffffff\n      and\n      dup2\n      mstore\n      0x20\n      add\n      swap1\n      dup2\n      mstore\n      0x20\n      add\n      0x00\n      keccak256\n      sload\n        /* \"contracts/dETH.sol\":18074:18111  _allowances[sender][_msgSender()].sub */\n      tag_222\n      swap1\n        /* \"contracts/dETH.sol\":18074:18163  _allowances[sender][_msgSender()].sub(amount, \"ERC20: transfer amount exceeds allowance\") */\n      swap3\n      swap2\n      swap1\n      0xffffffff\n      and\n      jump\t// in\n    tag_220:\n        /* \"contracts/dETH.sol\":18043:18051  _approve */\n      tag_212\n        /* \"contracts/dETH.sol\":18043:18164  _approve(sender, _msgSender(), _allowances[sender][_msgSender()].sub(amount, \"ERC20: transfer amount exceeds allowance\")) */\n      jump\t// in\n    tag_218:\n        /* \"contracts/dETH.sol\":18182:18186  true */\n      0x01\n        /* \"contracts/dETH.sol\":18175:18186  return true */\n      swap1\n      pop\n        /* \"contracts/dETH.sol\":17881:18194  function transferFrom(address sender, address recipient, uint256 amount) public override returns (bool) {\r... */\n      swap4\n      swap3\n      pop\n      pop\n      pop\n      jump\t// out\n        /* \"contracts/dETH.sol\":19762:20015  function tokenFromReflection(uint256 rAmount) public view returns (uint256) {\r... */\n    tag_82:\n        /* \"contracts/dETH.sol\":19829:19836  uint256 */\n      0x00\n        /* \"contracts/dETH.sol\":19868:19875  _rTotal */\n      sload(0x0d)\n        /* \"contracts/dETH.sol\":19857:19864  rAmount */\n      dup3\n        /* \"contracts/dETH.sol\":19857:19875  rAmount <= _rTotal */\n      gt\n      iszero\n        /* \"contracts/dETH.sol\":19849:19922  require(rAmount <= _rTotal, \"Amount must be less than total reflections\") */\n      tag_224\n      jumpi\n      mload(0x40)\n      0x08c379a000000000000000000000000000000000000000000000000000000000\n      dup2\n      mstore\n      0x04\n      add\n      dup1\n      dup1\n      0x20\n      add\n      dup3\n      dup2\n      sub\n      dup3\n      mstore\n      0x2a\n      dup2\n      mstore\n      0x20\n      add\n      dup1\n      data_22f7af55a509c3b14f0d528f087748dec8a8bf425135e3f5dc28c6a31ec6d812\n      0x2a\n      swap2\n      codecopy\n      0x40\n      add\n      swap2\n      pop\n      pop\n      mload(0x40)\n      dup1\n      swap2\n      sub\n      swap1\n      revert\n    tag_224:\n        /* \"contracts/dETH.sol\":19933:19952  uint256 currentRate */\n      0x00\n        /* \"contracts/dETH.sol\":19955:19965  _getRate() */\n      tag_225\n        /* \"contracts/dETH.sol\":19955:19963  _getRate */\n      tag_226\n        /* \"contracts/dETH.sol\":19955:19965  _getRate() */\n      jump\t// in\n    tag_225:\n        /* \"contracts/dETH.sol\":19933:19965  uint256 currentRate = _getRate() */\n      swap1\n      pop\n        /* \"contracts/dETH.sol\":19983:20007  rAmount.div(currentRate) */\n      tag_227\n        /* \"contracts/dETH.sol\":19995:20006  currentRate */\n      dup2\n        /* \"contracts/dETH.sol\":19983:19990  rAmount */\n      dup5\n        /* \"contracts/dETH.sol\":19983:19994  rAmount.div */\n      tag_228\n      swap1\n        /* \"contracts/dETH.sol\":19983:20007  rAmount.div(currentRate) */\n      swap2\n      swap1\n      0xffffffff\n      and\n      jump\t// in\n    tag_227:\n        /* \"contracts/dETH.sol\":19976:20007  return rAmount.div(currentRate) */\n      swap2\n      pop\n      pop\n        /* \"contracts/dETH.sol\":19762:20015  function tokenFromReflection(uint256 rAmount) public view returns (uint256) {\r... */\n      swap2\n      swap1\n      pop\n      jump\t// out\n        /* \"contracts/dETH.sol\":16986:17069  function decimals() public view returns (uint8) {\r... */\n    tag_85:\n        /* \"contracts/dETH.sol\":17027:17032  uint8 */\n      0x00\n        /* \"contracts/dETH.sol\":17052:17061  _decimals */\n      0x11\n      0x00\n      swap1\n      sload\n      swap1\n      0x0100\n      exp\n      swap1\n      div\n      0xff\n      and\n        /* \"contracts/dETH.sol\":17045:17061  return _decimals */\n      swap1\n      pop\n        /* \"contracts/dETH.sol\":16986:17069  function decimals() public view returns (uint8) {\r... */\n      swap1\n      jump\t// out\n        /* \"contracts/dETH.sol\":32402:32884  function _amnestySniper(address account) external onlyOwner() {\r... */\n    tag_89:\n        /* \"contracts/dETH.sol\":5959:5971  _msgSender() */\n      tag_231\n        /* \"contracts/dETH.sol\":5959:5969  _msgSender */\n      tag_202\n        /* \"contracts/dETH.sol\":5959:5971  _msgSender() */\n      jump\t// in\n    tag_231:\n        /* \"contracts/dETH.sol\":5949:5971  _owner == _msgSender() */\n      0xffffffffffffffffffffffffffffffffffffffff\n      and\n        /* \"contracts/dETH.sol\":5949:5955  _owner */\n      0x00\n      dup1\n      sload\n      swap1\n      0x0100\n      exp\n      swap1\n      div\n      0xffffffffffffffffffffffffffffffffffffffff\n      and\n        /* \"contracts/dETH.sol\":5949:5971  _owner == _msgSender() */\n      0xffffffffffffffffffffffffffffffffffffffff\n      and\n      eq\n        /* \"contracts/dETH.sol\":5941:6008  require(_owner == _msgSender(), \"Ownable: caller is not the owner\") */\n      tag_232\n      jumpi\n      mload(0x40)\n      0x08c379a000000000000000000000000000000000000000000000000000000000\n      dup2\n      mstore\n      0x04\n      add\n      dup1\n      dup1\n      0x20\n      add\n      dup3\n      dup2\n      sub\n      dup3\n      mstore\n      0x20\n      dup2\n      mstore\n      0x20\n      add\n      dup1\n      0x4f776e61626c653a2063616c6c6572206973206e6f7420746865206f776e6572\n      dup2\n      mstore\n      pop\n      0x20\n      add\n      swap2\n      pop\n      pop\n      mload(0x40)\n      dup1\n      swap2\n      sub\n      swap1\n      revert\n    tag_232:\n        /* \"contracts/dETH.sol\":32483:32492  _isSniper */\n      0x07\n        /* \"contracts/dETH.sol\":32483:32501  _isSniper[account] */\n      0x00\n        /* \"contracts/dETH.sol\":32493:32500  account */\n      dup3\n        /* \"contracts/dETH.sol\":32483:32501  _isSniper[account] */\n      0xffffffffffffffffffffffffffffffffffffffff\n      and\n      0xffffffffffffffffffffffffffffffffffffffff\n      and\n      dup2\n      mstore\n      0x20\n      add\n      swap1\n      dup2\n      mstore\n      0x20\n      add\n      0x00\n      keccak256\n      0x00\n      swap1\n      sload\n      swap1\n      0x0100\n      exp\n      swap1\n      div\n      0xff\n      and\n        /* \"contracts/dETH.sol\":32475:32532  require(_isSniper[account], \"Account is not blacklisted\") */\n      tag_234\n      jumpi\n      mload(0x40)\n      0x08c379a000000000000000000000000000000000000000000000000000000000\n      dup2\n      mstore\n      0x04\n      add\n      dup1\n      dup1\n      0x20\n      add\n      dup3\n      dup2\n      sub\n      dup3\n      mstore\n      0x1a\n      dup2\n      mstore\n      0x20\n      add\n      dup1\n      0x4163636f756e74206973206e6f7420626c61636b6c6973746564000000000000\n      dup2\n      mstore\n      pop\n      0x20\n      add\n      swap2\n      pop\n      pop\n      mload(0x40)\n      dup1\n      swap2\n      sub\n      swap1\n      revert\n    tag_234:\n        /* \"contracts/dETH.sol\":32548:32557  uint256 i */\n      0x00\n        /* \"contracts/dETH.sol\":32543:32877  for (uint256 i = 0; i < _confirmedSnipers.length; i++) {\r... */\n    tag_235:\n        /* \"contracts/dETH.sol\":32567:32584  _confirmedSnipers */\n      0x08\n        /* \"contracts/dETH.sol\":32567:32591  _confirmedSnipers.length */\n      dup1\n      sload\n      swap1\n      pop\n        /* \"contracts/dETH.sol\":32563:32564  i */\n      dup2\n        /* \"contracts/dETH.sol\":32563:32591  i < _confirmedSnipers.length */\n      lt\n        /* \"contracts/dETH.sol\":32543:32877  for (uint256 i = 0; i < _confirmedSnipers.length; i++) {\r... */\n      iszero\n      tag_236\n      jumpi\n        /* \"contracts/dETH.sol\":32641:32648  account */\n      dup2\n        /* \"contracts/dETH.sol\":32617:32648  _confirmedSnipers[i] == account */\n      0xffffffffffffffffffffffffffffffffffffffff\n      and\n        /* \"contracts/dETH.sol\":32617:32634  _confirmedSnipers */\n      0x08\n        /* \"contracts/dETH.sol\":32635:32636  i */\n      dup3\n        /* \"contracts/dETH.sol\":32617:32637  _confirmedSnipers[i] */\n      dup2\n      sload\n      dup2\n      lt\n      tag_238\n      jumpi\n      invalid\n    tag_238:\n      swap1\n      0x00\n      mstore\n      keccak256(0x00, 0x20)\n      add\n      0x00\n      swap1\n      sload\n      swap1\n      0x0100\n      exp\n      swap1\n      div\n      0xffffffffffffffffffffffffffffffffffffffff\n      and\n        /* \"contracts/dETH.sol\":32617:32648  _confirmedSnipers[i] == account */\n      0xffffffffffffffffffffffffffffffffffffffff\n      and\n      eq\n        /* \"contracts/dETH.sol\":32613:32866  if (_confirmedSnipers[i] == account) {\r... */\n      iszero\n      tag_240\n      jumpi\n        /* \"contracts/dETH.sol\":32692:32709  _confirmedSnipers */\n      0x08\n        /* \"contracts/dETH.sol\":32737:32738  1 */\n      0x01\n        /* \"contracts/dETH.sol\":32710:32727  _confirmedSnipers */\n      0x08\n        /* \"contracts/dETH.sol\":32710:32734  _confirmedSnipers.length */\n      dup1\n      sload\n      swap1\n      pop\n        /* \"contracts/dETH.sol\":32710:32738  _confirmedSnipers.length - 1 */\n      sub\n        /* \"contracts/dETH.sol\":32692:32739  _confirmedSnipers[_confirmedSnipers.length - 1] */\n      dup2\n      sload\n      dup2\n      lt\n      tag_241\n      jumpi\n      invalid\n    tag_241:\n      swap1\n      0x00\n      mstore\n      keccak256(0x00, 0x20)\n      add\n      0x00\n      swap1\n      sload\n      swap1\n      0x0100\n      exp\n      swap1\n      div\n      0xffffffffffffffffffffffffffffffffffffffff\n      and\n        /* \"contracts/dETH.sol\":32669:32686  _confirmedSnipers */\n      0x08\n        /* \"contracts/dETH.sol\":32687:32688  i */\n      dup3\n        /* \"contracts/dETH.sol\":32669:32689  _confirmedSnipers[i] */\n      dup2\n      sload\n      dup2\n      lt\n      tag_243\n      jumpi\n      invalid\n    tag_243:\n      swap1\n      0x00\n      mstore\n      keccak256(0x00, 0x20)\n      add\n      0x00\n        /* \"contracts/dETH.sol\":32669:32739  _confirmedSnipers[i] = _confirmedSnipers[_confirmedSnipers.length - 1] */\n      0x0100\n      exp\n      dup2\n      sload\n      dup2\n      0xffffffffffffffffffffffffffffffffffffffff\n      mul\n      not\n      and\n      swap1\n      dup4\n      0xffffffffffffffffffffffffffffffffffffffff\n      and\n      mul\n      or\n      swap1\n      sstore\n      pop\n        /* \"contracts/dETH.sol\":32779:32784  false */\n      0x00\n        /* \"contracts/dETH.sol\":32758:32767  _isSniper */\n      0x07\n        /* \"contracts/dETH.sol\":32758:32776  _isSniper[account] */\n      0x00\n        /* \"contracts/dETH.sol\":32768:32775  account */\n      dup5\n        /* \"contracts/dETH.sol\":32758:32776  _isSniper[account] */\n      0xffffffffffffffffffffffffffffffffffffffff\n      and\n      0xffffffffffffffffffffffffffffffffffffffff\n      and\n      dup2\n      mstore\n      0x20\n      add\n      swap1\n      dup2\n      mstore\n      0x20\n      add\n      0x00\n      keccak256\n      0x00\n        /* \"contracts/dETH.sol\":32758:32784  _isSniper[account] = false */\n      0x0100\n      exp\n      dup2\n      sload\n      dup2\n      0xff\n      mul\n      not\n      and\n      swap1\n      dup4\n      iszero\n      iszero\n      mul\n      or\n      swap1\n      sstore\n      pop\n        /* \"contracts/dETH.sol\":32803:32820  _confirmedSnipers */\n      0x08\n        /* \"contracts/dETH.sol\":32803:32826  _confirmedSnipers.pop() */\n      dup1\n      sload\n      dup1\n      tag_245\n      jumpi\n      invalid\n    tag_245:\n      0x01\n      swap1\n      sub\n      dup2\n      dup2\n      swap1\n      0x00\n      mstore\n      keccak256(0x00, 0x20)\n      add\n      exp(0x0100, 0x00)\n      dup2\n      sload\n      swap1\n      0xffffffffffffffffffffffffffffffffffffffff\n      mul\n      not\n      and\n      swap1\n      sstore\n      swap1\n      sstore\n        /* \"contracts/dETH.sol\":32845:32850  break */\n      jump(tag_236)\n        /* \"contracts/dETH.sol\":32613:32866  if (_confirmedSnipers[i] == account) {\r... */\n    tag_240:\n        /* \"contracts/dETH.sol\":32593:32596  i++ */\n      dup1\n      dup1\n      0x01\n      add\n      swap2\n      pop\n      pop\n        /* \"contracts/dETH.sol\":32543:32877  for (uint256 i = 0; i < _confirmedSnipers.length; i++) {\r... */\n      jump(tag_235)\n    tag_236:\n      pop\n        /* \"contracts/dETH.sol\":32402:32884  function _amnestySniper(address account) external onlyOwner() {\r... */\n      pop\n      jump\t// out\n        /* \"contracts/dETH.sol\":20367:20846  function includeInReward(address account) external onlyOwner() {\r... */\n    tag_93:\n        /* \"contracts/dETH.sol\":5959:5971  _msgSender() */\n      tag_248\n        /* \"contracts/dETH.sol\":5959:5969  _msgSender */\n      tag_202\n        /* \"contracts/dETH.sol\":5959:5971  _msgSender() */\n      jump\t// in\n    tag_248:\n        /* \"contracts/dETH.sol\":5949:5971  _owner == _msgSender() */\n      0xffffffffffffffffffffffffffffffffffffffff\n      and\n        /* \"contracts/dETH.sol\":5949:5955  _owner */\n      0x00\n      dup1\n      sload\n      swap1\n      0x0100\n      exp\n      swap1\n      div\n      0xffffffffffffffffffffffffffffffffffffffff\n      and\n        /* \"contracts/dETH.sol\":5949:5971  _owner == _msgSender() */\n      0xffffffffffffffffffffffffffffffffffffffff\n      and\n      eq\n        /* \"contracts/dETH.sol\":5941:6008  require(_owner == _msgSender(), \"Ownable: caller is not the owner\") */\n      tag_249\n      jumpi\n      mload(0x40)\n      0x08c379a000000000000000000000000000000000000000000000000000000000\n      dup2\n      mstore\n      0x04\n      add\n      dup1\n      dup1\n      0x20\n      add\n      dup3\n      dup2\n      sub\n      dup3\n      mstore\n      0x20\n      dup2\n      mstore\n      0x20\n      add\n      dup1\n      0x4f776e61626c653a2063616c6c6572206973206e6f7420746865206f776e6572\n      dup2\n      mstore\n      pop\n      0x20\n      add\n      swap2\n      pop\n      pop\n      mload(0x40)\n      dup1\n      swap2\n      sub\n      swap1\n      revert\n    tag_249:\n        /* \"contracts/dETH.sol\":20449:20460  _isExcluded */\n      0x0a\n        /* \"contracts/dETH.sol\":20449:20469  _isExcluded[account] */\n      0x00\n        /* \"contracts/dETH.sol\":20461:20468  account */\n      dup3\n        /* \"contracts/dETH.sol\":20449:20469  _isExcluded[account] */\n      0xffffffffffffffffffffffffffffffffffffffff\n      and\n      0xffffffffffffffffffffffffffffffffffffffff\n      and\n      dup2\n      mstore\n      0x20\n      add\n      swap1\n      dup2\n      mstore\n      0x20\n      add\n      0x00\n      keccak256\n      0x00\n      swap1\n      sload\n      swap1\n      0x0100\n      exp\n      swap1\n      div\n      0xff\n      and\n        /* \"contracts/dETH.sol\":20441:20501  require(_isExcluded[account], \"Account is already excluded\") */\n      tag_251\n      jumpi\n      mload(0x40)\n      0x08c379a000000000000000000000000000000000000000000000000000000000\n      dup2\n      mstore\n      0x04\n      add\n      dup1\n      dup1\n      0x20\n      add\n      dup3\n      dup2\n      sub\n      dup3\n      mstore\n      0x1b\n      dup2\n      mstore\n      0x20\n      add\n      dup1\n      0x4163636f756e7420697320616c7265616479206578636c756465640000000000\n      dup2\n      mstore\n      pop\n      0x20\n      add\n      swap2\n      pop\n      pop\n      mload(0x40)\n      dup1\n      swap2\n      sub\n      swap1\n      revert\n    tag_251:\n        /* \"contracts/dETH.sol\":20517:20526  uint256 i */\n      0x00\n        /* \"contracts/dETH.sol\":20512:20839  for (uint256 i = 0; i < _excluded.length; i++) {\r... */\n    tag_252:\n        /* \"contracts/dETH.sol\":20536:20545  _excluded */\n      0x0b\n        /* \"contracts/dETH.sol\":20536:20552  _excluded.length */\n      dup1\n      sload\n      swap1\n      pop\n        /* \"contracts/dETH.sol\":20532:20533  i */\n      dup2\n        /* \"contracts/dETH.sol\":20532:20552  i < _excluded.length */\n      lt\n        /* \"contracts/dETH.sol\":20512:20839  for (uint256 i = 0; i < _excluded.length; i++) {\r... */\n      iszero\n      tag_253\n      jumpi\n        /* \"contracts/dETH.sol\":20594:20601  account */\n      dup2\n        /* \"contracts/dETH.sol\":20578:20601  _excluded[i] == account */\n      0xffffffffffffffffffffffffffffffffffffffff\n      and\n        /* \"contracts/dETH.sol\":20578:20587  _excluded */\n      0x0b\n        /* \"contracts/dETH.sol\":20588:20589  i */\n      dup3\n        /* \"contracts/dETH.sol\":20578:20590  _excluded[i] */\n      dup2\n      sload\n      dup2\n      lt\n      tag_255\n      jumpi\n      invalid\n    tag_255:\n      swap1\n      0x00\n      mstore\n      keccak256(0x00, 0x20)\n      add\n      0x00\n      swap1\n      sload\n      swap1\n      0x0100\n      exp\n      swap1\n      div\n      0xffffffffffffffffffffffffffffffffffffffff\n      and\n        /* \"contracts/dETH.sol\":20578:20601  _excluded[i] == account */\n      0xffffffffffffffffffffffffffffffffffffffff\n      and\n      eq\n        /* \"contracts/dETH.sol\":20574:20828  if (_excluded[i] == account) {\r... */\n      iszero\n      tag_257\n      jumpi\n        /* \"contracts/dETH.sol\":20637:20646  _excluded */\n      0x0b\n        /* \"contracts/dETH.sol\":20666:20667  1 */\n      0x01\n        /* \"contracts/dETH.sol\":20647:20656  _excluded */\n      0x0b\n        /* \"contracts/dETH.sol\":20647:20663  _excluded.length */\n      dup1\n      sload\n      swap1\n      pop\n        /* \"contracts/dETH.sol\":20647:20667  _excluded.length - 1 */\n      sub\n        /* \"contracts/dETH.sol\":20637:20668  _excluded[_excluded.length - 1] */\n      dup2\n      sload\n      dup2\n      lt\n      tag_258\n      jumpi\n      invalid\n    tag_258:\n      swap1\n      0x00\n      mstore\n      keccak256(0x00, 0x20)\n      add\n      0x00\n      swap1\n      sload\n      swap1\n      0x0100\n      exp\n      swap1\n      div\n      0xffffffffffffffffffffffffffffffffffffffff\n      and\n        /* \"contracts/dETH.sol\":20622:20631  _excluded */\n      0x0b\n        /* \"contracts/dETH.sol\":20632:20633  i */\n      dup3\n        /* \"contracts/dETH.sol\":20622:20634  _excluded[i] */\n      dup2\n      sload\n      dup2\n      lt\n      tag_260\n      jumpi\n      invalid\n    tag_260:\n      swap1\n      0x00\n      mstore\n      keccak256(0x00, 0x20)\n      add\n      0x00\n        /* \"contracts/dETH.sol\":20622:20668  _excluded[i] = _excluded[_excluded.length - 1] */\n      0x0100\n      exp\n      dup2\n      sload\n      dup2\n      0xffffffffffffffffffffffffffffffffffffffff\n      mul\n      not\n      and\n      swap1\n      dup4\n      0xffffffffffffffffffffffffffffffffffffffff\n      and\n      mul\n      or\n      swap1\n      sstore\n      pop\n        /* \"contracts/dETH.sol\":20706:20707  0 */\n      0x00\n        /* \"contracts/dETH.sol\":20687:20694  _tOwned */\n      0x05\n        /* \"contracts/dETH.sol\":20687:20703  _tOwned[account] */\n      0x00\n        /* \"contracts/dETH.sol\":20695:20702  account */\n      dup5\n        /* \"contracts/dETH.sol\":20687:20703  _tOwned[account] */\n      0xffffffffffffffffffffffffffffffffffffffff\n      and\n      0xffffffffffffffffffffffffffffffffffffffff\n      and\n      dup2\n      mstore\n      0x20\n      add\n      swap1\n      dup2\n      mstore\n      0x20\n      add\n      0x00\n      keccak256\n        /* \"contracts/dETH.sol\":20687:20707  _tOwned[account] = 0 */\n      dup2\n      swap1\n      sstore\n      pop\n        /* \"contracts/dETH.sol\":20749:20754  false */\n      0x00\n        /* \"contracts/dETH.sol\":20726:20737  _isExcluded */\n      0x0a\n        /* \"contracts/dETH.sol\":20726:20746  _isExcluded[account] */\n      0x00\n        /* \"contracts/dETH.sol\":20738:20745  account */\n      dup5\n        /* \"contracts/dETH.sol\":20726:20746  _isExcluded[account] */\n      0xffffffffffffffffffffffffffffffffffffffff\n      and\n      0xffffffffffffffffffffffffffffffffffffffff\n      and\n      dup2\n      mstore\n      0x20\n      add\n      swap1\n      dup2\n      mstore\n      0x20\n      add\n      0x00\n      keccak256\n      0x00\n        /* \"contracts/dETH.sol\":20726:20754  _isExcluded[account] = false */\n      0x0100\n      exp\n      dup2\n      sload\n      dup2\n      0xff\n      mul\n      not\n      and\n      swap1\n      dup4\n      iszero\n      iszero\n      mul\n      or\n      swap1\n      sstore\n      pop\n        /* \"contracts/dETH.sol\":20773:20782  _excluded */\n      0x0b\n        /* \"contracts/dETH.sol\":20773:20788  _excluded.pop() */\n      dup1\n      sload\n      dup1\n      tag_262\n      jumpi\n      invalid\n    tag_262:\n      0x01\n      swap1\n      sub\n      dup2\n      dup2\n      swap1\n      0x00\n      mstore\n      keccak256(0x00, 0x20)\n      add\n      exp(0x0100, 0x00)\n      dup2\n      sload\n      swap1\n      0xffffffffffffffffffffffffffffffffffffffff\n      mul\n      not\n      and\n      swap1\n      sstore\n      swap1\n      sstore\n        /* \"contracts/dETH.sol\":20807:20812  break */\n      jump(tag_253)\n        /* \"contracts/dETH.sol\":20574:20828  if (_excluded[i] == account) {\r... */\n    tag_257:\n        /* \"contracts/dETH.sol\":20554:20557  i++ */\n      dup1\n      dup1\n      0x01\n      add\n      swap2\n      pop\n      pop\n        /* \"contracts/dETH.sol\":20512:20839  for (uint256 i = 0; i < _excluded.length; i++) {\r... */\n      jump(tag_252)\n    tag_253:\n      pop\n        /* \"contracts/dETH.sol\":20367:20846  function includeInReward(address account) external onlyOwner() {\r... */\n      pop\n      jump\t// out\n        /* \"contracts/dETH.sol\":18202:18420  function increaseAllowance(address spender, uint256 addedValue) public virtual returns (bool) {\r... */\n    tag_97:\n        /* \"contracts/dETH.sol\":18290:18294  bool */\n      0x00\n        /* \"contracts/dETH.sol\":18307:18390  _approve(_msgSender(), spender, _allowances[_msgSender()][spender].add(addedValue)) */\n      tag_265\n        /* \"contracts/dETH.sol\":18316:18328  _msgSender() */\n      tag_266\n        /* \"contracts/dETH.sol\":18316:18326  _msgSender */\n      tag_202\n        /* \"contracts/dETH.sol\":18316:18328  _msgSender() */\n      jump\t// in\n    tag_266:\n        /* \"contracts/dETH.sol\":18330:18337  spender */\n      dup5\n        /* \"contracts/dETH.sol\":18339:18389  _allowances[_msgSender()][spender].add(addedValue) */\n      tag_267\n        /* \"contracts/dETH.sol\":18378:18388  addedValue */\n      dup6\n        /* \"contracts/dETH.sol\":18339:18350  _allowances */\n      0x06\n        /* \"contracts/dETH.sol\":18339:18364  _allowances[_msgSender()] */\n      0x00\n        /* \"contracts/dETH.sol\":18351:18363  _msgSender() */\n      tag_268\n        /* \"contracts/dETH.sol\":18351:18361  _msgSender */\n      tag_202\n        /* \"contracts/dETH.sol\":18351:18363  _msgSender() */\n      jump\t// in\n    tag_268:\n        /* \"contracts/dETH.sol\":18339:18364  _allowances[_msgSender()] */\n      0xffffffffffffffffffffffffffffffffffffffff\n      and\n      0xffffffffffffffffffffffffffffffffffffffff\n      and\n      dup2\n      mstore\n      0x20\n      add\n      swap1\n      dup2\n      mstore\n      0x20\n      add\n      0x00\n      keccak256\n        /* \"contracts/dETH.sol\":18339:18373  _allowances[_msgSender()][spender] */\n      0x00\n        /* \"contracts/dETH.sol\":18365:18372  spender */\n      dup10\n        /* \"contracts/dETH.sol\":18339:18373  _allowances[_msgSender()][spender] */\n      0xffffffffffffffffffffffffffffffffffffffff\n      and\n      0xffffffffffffffffffffffffffffffffffffffff\n      and\n      dup2\n      mstore\n      0x20\n      add\n      swap1\n      dup2\n      mstore\n      0x20\n      add\n      0x00\n      keccak256\n      sload\n        /* \"contracts/dETH.sol\":18339:18377  _allowances[_msgSender()][spender].add */\n      tag_269\n      swap1\n        /* \"contracts/dETH.sol\":18339:18389  _allowances[_msgSender()][spender].add(addedValue) */\n      swap2\n      swap1\n      0xffffffff\n      and\n      jump\t// in\n    tag_267:\n        /* \"contracts/dETH.sol\":18307:18315  _approve */\n      tag_212\n        /* \"contracts/dETH.sol\":18307:18390  _approve(_msgSender(), spender, _allowances[_msgSender()][spender].add(addedValue)) */\n      jump\t// in\n    tag_265:\n        /* \"contracts/dETH.sol\":18408:18412  true */\n      0x01\n        /* \"contracts/dETH.sol\":18401:18412  return true */\n      swap1\n      pop\n        /* \"contracts/dETH.sol\":18202:18420  function increaseAllowance(address spender, uint256 addedValue) public virtual returns (bool) {\r... */\n      swap3\n      swap2\n      pop\n      pop\n      jump\t// out\n        /* \"contracts/dETH.sol\":15409:15435  uint256 public _taxFee = 3 */\n    tag_100:\n      sload(0x12)\n      dup2\n      jump\t// out\n        /* \"contracts/dETH.sol\":18930:19307  function deliver(uint256 tAmount) public {\r... */\n    tag_104:\n        /* \"contracts/dETH.sol\":18982:18996  address sender */\n      0x00\n        /* \"contracts/dETH.sol\":18999:19011  _msgSender() */\n      tag_271\n        /* \"contracts/dETH.sol\":18999:19009  _msgSender */\n      tag_202\n        /* \"contracts/dETH.sol\":18999:19011  _msgSender() */\n      jump\t// in\n    tag_271:\n        /* \"contracts/dETH.sol\":18982:19011  address sender = _msgSender() */\n      swap1\n      pop\n        /* \"contracts/dETH.sol\":19031:19042  _isExcluded */\n      0x0a\n        /* \"contracts/dETH.sol\":19031:19050  _isExcluded[sender] */\n      0x00\n        /* \"contracts/dETH.sol\":19043:19049  sender */\n      dup3\n        /* \"contracts/dETH.sol\":19031:19050  _isExcluded[sender] */\n      0xffffffffffffffffffffffffffffffffffffffff\n      and\n      0xffffffffffffffffffffffffffffffffffffffff\n      and\n      dup2\n      mstore\n      0x20\n      add\n      swap1\n      dup2\n      mstore\n      0x20\n      add\n      0x00\n      keccak256\n      0x00\n      swap1\n      sload\n      swap1\n      0x0100\n      exp\n      swap1\n      div\n      0xff\n      and\n        /* \"contracts/dETH.sol\":19030:19050  !_isExcluded[sender] */\n      iszero\n        /* \"contracts/dETH.sol\":19022:19099  require(!_isExcluded[sender], \"Excluded addresses cannot call this function\") */\n      tag_272\n      jumpi\n      mload(0x40)\n      0x08c379a000000000000000000000000000000000000000000000000000000000\n      dup2\n      mstore\n      0x04\n      add\n      dup1\n      dup1\n      0x20\n      add\n      dup3\n      dup2\n      sub\n      dup3\n      mstore\n      0x2c\n      dup2\n      mstore\n      0x20\n      add\n      dup1\n      data_ecefcaf5fbcf9ca6dcdb02298ba1da96f4ead317b0a4779917ecb2e5e7dc3ac4\n      0x2c\n      swap2\n      codecopy\n      0x40\n      add\n      swap2\n      pop\n      pop\n      mload(0x40)\n      dup1\n      swap2\n      sub\n      swap1\n      revert\n    tag_272:\n        /* \"contracts/dETH.sol\":19111:19126  uint256 rAmount */\n      0x00\n        /* \"contracts/dETH.sol\":19135:19154  _getValues(tAmount) */\n      tag_273\n        /* \"contracts/dETH.sol\":19146:19153  tAmount */\n      dup4\n        /* \"contracts/dETH.sol\":19135:19145  _getValues */\n      tag_274\n        /* \"contracts/dETH.sol\":19135:19154  _getValues(tAmount) */\n      jump\t// in\n    tag_273:\n        /* \"contracts/dETH.sol\":19110:19154  (uint256 rAmount,,,,,) = _getValues(tAmount) */\n      pop\n      pop\n      pop\n      pop\n      pop\n      swap1\n      pop\n        /* \"contracts/dETH.sol\":19183:19211  _rOwned[sender].sub(rAmount) */\n      tag_275\n        /* \"contracts/dETH.sol\":19203:19210  rAmount */\n      dup2\n        /* \"contracts/dETH.sol\":19183:19190  _rOwned */\n      0x04\n        /* \"contracts/dETH.sol\":19183:19198  _rOwned[sender] */\n      0x00\n        /* \"contracts/dETH.sol\":19191:19197  sender */\n      dup6\n        /* \"contracts/dETH.sol\":19183:19198  _rOwned[sender] */\n      0xffffffffffffffffffffffffffffffffffffffff\n      and\n      0xffffffffffffffffffffffffffffffffffffffff\n      and\n      dup2\n      mstore\n      0x20\n      add\n      swap1\n      dup2\n      mstore\n      0x20\n      add\n      0x00\n      keccak256\n      sload\n        /* \"contracts/dETH.sol\":19183:19202  _rOwned[sender].sub */\n      tag_276\n      swap1\n        /* \"contracts/dETH.sol\":19183:19211  _rOwned[sender].sub(rAmount) */\n      swap2\n      swap1\n      0xffffffff\n      and\n      jump\t// in\n    tag_275:\n        /* \"contracts/dETH.sol\":19165:19172  _rOwned */\n      0x04\n        /* \"contracts/dETH.sol\":19165:19180  _rOwned[sender] */\n      0x00\n        /* \"contracts/dETH.sol\":19173:19179  sender */\n      dup5\n        /* \"contracts/dETH.sol\":19165:19180  _rOwned[sender] */\n      0xffffffffffffffffffffffffffffffffffffffff\n      and\n      0xffffffffffffffffffffffffffffffffffffffff\n      and\n      dup2\n      mstore\n      0x20\n      add\n      swap1\n      dup2\n      mstore\n      0x20\n      add\n      0x00\n      keccak256\n        /* \"contracts/dETH.sol\":19165:19211  _rOwned[sender] = _rOwned[sender].sub(rAmount) */\n      dup2\n      swap1\n      sstore\n      pop\n        /* \"contracts/dETH.sol\":19232:19252  _rTotal.sub(rAmount) */\n      tag_277\n        /* \"contracts/dETH.sol\":19244:19251  rAmount */\n      dup2\n        /* \"contracts/dETH.sol\":19232:19239  _rTotal */\n      sload(0x0d)\n        /* \"contracts/dETH.sol\":19232:19243  _rTotal.sub */\n      tag_276\n      swap1\n        /* \"contracts/dETH.sol\":19232:19252  _rTotal.sub(rAmount) */\n      swap2\n      swap1\n      0xffffffff\n      and\n      jump\t// in\n    tag_277:\n        /* \"contracts/dETH.sol\":19222:19229  _rTotal */\n      0x0d\n        /* \"contracts/dETH.sol\":19222:19252  _rTotal = _rTotal.sub(rAmount) */\n      dup2\n      swap1\n      sstore\n      pop\n        /* \"contracts/dETH.sol\":19276:19299  _tFeeTotal.add(tAmount) */\n      tag_278\n        /* \"contracts/dETH.sol\":19291:19298  tAmount */\n      dup4\n        /* \"contracts/dETH.sol\":19276:19286  _tFeeTotal */\n      sload(0x0e)\n        /* \"contracts/dETH.sol\":19276:19290  _tFeeTotal.add */\n      tag_269\n      swap1\n        /* \"contracts/dETH.sol\":19276:19299  _tFeeTotal.add(tAmount) */\n      swap2\n      swap1\n      0xffffffff\n      and\n      jump\t// in\n    tag_278:\n        /* \"contracts/dETH.sol\":19263:19273  _tFeeTotal */\n      0x0e\n        /* \"contracts/dETH.sol\":19263:19299  _tFeeTotal = _tFeeTotal.add(tAmount) */\n      dup2\n      swap1\n      sstore\n      pop\n        /* \"contracts/dETH.sol\":18930:19307  function deliver(uint256 tAmount) public {\r... */\n      pop\n      pop\n      pop\n      jump\t// out\n        /* \"contracts/dETH.sol\":31189:31300  function excludeFromFee(address account) public onlyOwner {\r... */\n    tag_108:\n        /* \"contracts/dETH.sol\":5959:5971  _msgSender() */\n      tag_280\n        /* \"contracts/dETH.sol\":5959:5969  _msgSender */\n      tag_202\n        /* \"contracts/dETH.sol\":5959:5971  _msgSender() */\n      jump\t// in\n    tag_280:\n        /* \"contracts/dETH.sol\":5949:5971  _owner == _msgSender() */\n      0xffffffffffffffffffffffffffffffffffffffff\n      and\n        /* \"contracts/dETH.sol\":5949:5955  _owner */\n      0x00\n      dup1\n      sload\n      swap1\n      0x0100\n      exp\n      swap1\n      div\n      0xffffffffffffffffffffffffffffffffffffffff\n      and\n        /* \"contracts/dETH.sol\":5949:5971  _owner == _msgSender() */\n      0xffffffffffffffffffffffffffffffffffffffff\n      and\n      eq\n        /* \"contracts/dETH.sol\":5941:6008  require(_owner == _msgSender(), \"Ownable: caller is not the owner\") */\n      tag_281\n      jumpi\n      mload(0x40)\n      0x08c379a000000000000000000000000000000000000000000000000000000000\n      dup2\n      mstore\n      0x04\n      add\n      dup1\n      dup1\n      0x20\n      add\n      dup3\n      dup2\n      sub\n      dup3\n      mstore\n      0x20\n      dup2\n      mstore\n      0x20\n      add\n      dup1\n      0x4f776e61626c653a2063616c6c6572206973206e6f7420746865206f776e6572\n      dup2\n      mstore\n      pop\n      0x20\n      add\n      swap2\n      pop\n      pop\n      mload(0x40)\n      dup1\n      swap2\n      sub\n      swap1\n      revert\n    tag_281:\n        /* \"contracts/dETH.sol\":31288:31292  true */\n      0x01\n        /* \"contracts/dETH.sol\":31258:31276  _isExcludedFromFee */\n      0x09\n        /* \"contracts/dETH.sol\":31258:31285  _isExcludedFromFee[account] */\n      0x00\n        /* \"contracts/dETH.sol\":31277:31284  account */\n      dup4\n        /* \"contracts/dETH.sol\":31258:31285  _isExcludedFromFee[account] */\n      0xffffffffffffffffffffffffffffffffffffffff\n      and\n      0xffffffffffffffffffffffffffffffffffffffff\n      and\n      dup2\n      mstore\n      0x20\n      add\n      swap1\n      dup2\n      mstore\n      0x20\n      add\n      0x00\n      keccak256\n      0x00\n        /* \"contracts/dETH.sol\":31258:31292  _isExcludedFromFee[account] = true */\n      0x0100\n      exp\n      dup2\n      sload\n      dup2\n      0xff\n      mul\n      not\n      and\n      swap1\n      dup4\n      iszero\n      iszero\n      mul\n      or\n      swap1\n      sstore\n      pop\n        /* \"contracts/dETH.sol\":31189:31300  function excludeFromFee(address account) public onlyOwner {\r... */\n      pop\n      jump\t// out\n        /* \"contracts/dETH.sol\":19317:19754  function reflectionFromToken(uint256 tAmount, bool deductTransferFee) public view returns (uint256) {\r... */\n    tag_112:\n        /* \"contracts/dETH.sol\":19408:19415  uint256 */\n      0x00\n        /* \"contracts/dETH.sol\":19447:19454  _tTotal */\n      sload(0x0c)\n        /* \"contracts/dETH.sol\":19436:19443  tAmount */\n      dup4\n        /* \"contracts/dETH.sol\":19436:19454  tAmount <= _tTotal */\n      gt\n      iszero\n        /* \"contracts/dETH.sol\":19428:19490  require(tAmount <= _tTotal, \"Amount must be less than supply\") */\n      tag_284\n      jumpi\n      mload(0x40)\n      0x08c379a000000000000000000000000000000000000000000000000000000000\n      dup2\n      mstore\n      0x04\n      add\n      dup1\n      dup1\n      0x20\n      add\n      dup3\n      dup2\n      sub\n      dup3\n      mstore\n      0x1f\n      dup2\n      mstore\n      0x20\n      add\n      dup1\n      0x416d6f756e74206d757374206265206c657373207468616e20737570706c7900\n      dup2\n      mstore\n      pop\n      0x20\n      add\n      swap2\n      pop\n      pop\n      mload(0x40)\n      dup1\n      swap2\n      sub\n      swap1\n      revert\n    tag_284:\n        /* \"contracts/dETH.sol\":19506:19523  deductTransferFee */\n      dup2\n        /* \"contracts/dETH.sol\":19501:19747  if (!deductTransferFee) {\r... */\n      tag_285\n      jumpi\n        /* \"contracts/dETH.sol\":19541:19556  uint256 rAmount */\n      0x00\n        /* \"contracts/dETH.sol\":19565:19584  _getValues(tAmount) */\n      tag_286\n        /* \"contracts/dETH.sol\":19576:19583  tAmount */\n      dup5\n        /* \"contracts/dETH.sol\":19565:19575  _getValues */\n      tag_274\n        /* \"contracts/dETH.sol\":19565:19584  _getValues(tAmount) */\n      jump\t// in\n    tag_286:\n        /* \"contracts/dETH.sol\":19540:19584  (uint256 rAmount,,,,,) = _getValues(tAmount) */\n      pop\n      pop\n      pop\n      pop\n      pop\n      swap1\n      pop\n        /* \"contracts/dETH.sol\":19606:19613  rAmount */\n      dup1\n        /* \"contracts/dETH.sol\":19599:19613  return rAmount */\n      swap2\n      pop\n      pop\n      jump(tag_283)\n        /* \"contracts/dETH.sol\":19501:19747  if (!deductTransferFee) {\r... */\n    tag_285:\n        /* \"contracts/dETH.sol\":19648:19671  uint256 rTransferAmount */\n      0x00\n        /* \"contracts/dETH.sol\":19679:19698  _getValues(tAmount) */\n      tag_288\n        /* \"contracts/dETH.sol\":19690:19697  tAmount */\n      dup5\n        /* \"contracts/dETH.sol\":19679:19689  _getValues */\n      tag_274\n        /* \"contracts/dETH.sol\":19679:19698  _getValues(tAmount) */\n      jump\t// in\n    tag_288:\n        /* \"contracts/dETH.sol\":19646:19698  (,uint256 rTransferAmount,,,,) = _getValues(tAmount) */\n      pop\n      pop\n      pop\n      pop\n      swap2\n      pop\n      pop\n        /* \"contracts/dETH.sol\":19720:19735  rTransferAmount */\n      dup1\n        /* \"contracts/dETH.sol\":19713:19735  return rTransferAmount */\n      swap2\n      pop\n      pop\n        /* \"contracts/dETH.sol\":19317:19754  function reflectionFromToken(uint256 tAmount, bool deductTransferFee) public view returns (uint256) {\r... */\n    tag_283:\n      swap3\n      swap2\n      pop\n      pop\n      jump\t// out\n        /* \"contracts/dETH.sol\":32894:32983  function setFeeRate(uint256 rate) external onlyOwner() {\r... */\n    tag_116:\n        /* \"contracts/dETH.sol\":5959:5971  _msgSender() */\n      tag_290\n        /* \"contracts/dETH.sol\":5959:5969  _msgSender */\n      tag_202\n        /* \"contracts/dETH.sol\":5959:5971  _msgSender() */\n      jump\t// in\n    tag_290:\n        /* \"contracts/dETH.sol\":5949:5971  _owner == _msgSender() */\n      0xffffffffffffffffffffffffffffffffffffffff\n      and\n        /* \"contracts/dETH.sol\":5949:5955  _owner */\n      0x00\n      dup1\n      sload\n      swap1\n      0x0100\n      exp\n      swap1\n      div\n      0xffffffffffffffffffffffffffffffffffffffff\n      and\n        /* \"contracts/dETH.sol\":5949:5971  _owner == _msgSender() */\n      0xffffffffffffffffffffffffffffffffffffffff\n      and\n      eq\n        /* \"contracts/dETH.sol\":5941:6008  require(_owner == _msgSender(), \"Ownable: caller is not the owner\") */\n      tag_291\n      jumpi\n      mload(0x40)\n      0x08c379a000000000000000000000000000000000000000000000000000000000\n      dup2\n      mstore\n      0x04\n      add\n      dup1\n      dup1\n      0x20\n      add\n      dup3\n      dup2\n      sub\n      dup3\n      mstore\n      0x20\n      dup2\n      mstore\n      0x20\n      add\n      dup1\n      0x4f776e61626c653a2063616c6c6572206973206e6f7420746865206f776e6572\n      dup2\n      mstore\n      pop\n      0x20\n      add\n      swap2\n      pop\n      pop\n      mload(0x40)\n      dup1\n      swap2\n      sub\n      swap1\n      revert\n    tag_291:\n        /* \"contracts/dETH.sol\":32971:32975  rate */\n      dup1\n        /* \"contracts/dETH.sol\":32960:32968  _feeRate */\n      0x16\n        /* \"contracts/dETH.sol\":32960:32975  _feeRate = rate */\n      dup2\n      swap1\n      sstore\n      pop\n        /* \"contracts/dETH.sol\":32894:32983  function setFeeRate(uint256 rate) external onlyOwner() {\r... */\n      pop\n      jump\t// out\n        /* \"contracts/dETH.sol\":15715:15743  address public uniswapV2Pair */\n    tag_119:\n      0x19\n      0x00\n      swap1\n      sload\n      swap1\n      0x0100\n      exp\n      swap1\n      div\n      0xffffffffffffffffffffffffffffffffffffffff\n      and\n      dup2\n      jump\t// out\n        /* \"contracts/dETH.sol\":20023:20359  function excludeFromReward(address account) public onlyOwner() {\r... */\n    tag_123:\n        /* \"contracts/dETH.sol\":5959:5971  _msgSender() */\n      tag_294\n        /* \"contracts/dETH.sol\":5959:5969  _msgSender */\n      tag_202\n        /* \"contracts/dETH.sol\":5959:5971  _msgSender() */\n      jump\t// in\n    tag_294:\n        /* \"contracts/dETH.sol\":5949:5971  _owner == _msgSender() */\n      0xffffffffffffffffffffffffffffffffffffffff\n      and\n        /* \"contracts/dETH.sol\":5949:5955  _owner */\n      0x00\n      dup1\n      sload\n      swap1\n      0x0100\n      exp\n      swap1\n      div\n      0xffffffffffffffffffffffffffffffffffffffff\n      and\n        /* \"contracts/dETH.sol\":5949:5971  _owner == _msgSender() */\n      0xffffffffffffffffffffffffffffffffffffffff\n      and\n      eq\n        /* \"contracts/dETH.sol\":5941:6008  require(_owner == _msgSender(), \"Ownable: caller is not the owner\") */\n      tag_295\n      jumpi\n      mload(0x40)\n      0x08c379a000000000000000000000000000000000000000000000000000000000\n      dup2\n      mstore\n      0x04\n      add\n      dup1\n      dup1\n      0x20\n      add\n      dup3\n      dup2\n      sub\n      dup3\n      mstore\n      0x20\n      dup2\n      mstore\n      0x20\n      add\n      dup1\n      0x4f776e61626c653a2063616c6c6572206973206e6f7420746865206f776e6572\n      dup2\n      mstore\n      pop\n      0x20\n      add\n      swap2\n      pop\n      pop\n      mload(0x40)\n      dup1\n      swap2\n      sub\n      swap1\n      revert\n    tag_295:\n        /* \"contracts/dETH.sol\":20108:20119  _isExcluded */\n      0x0a\n        /* \"contracts/dETH.sol\":20108:20128  _isExcluded[account] */\n      0x00\n        /* \"contracts/dETH.sol\":20120:20127  account */\n      dup3\n        /* \"contracts/dETH.sol\":20108:20128  _isExcluded[account] */\n      0xffffffffffffffffffffffffffffffffffffffff\n      and\n      0xffffffffffffffffffffffffffffffffffffffff\n      and\n      dup2\n      mstore\n      0x20\n      add\n      swap1\n      dup2\n      mstore\n      0x20\n      add\n      0x00\n      keccak256\n      0x00\n      swap1\n      sload\n      swap1\n      0x0100\n      exp\n      swap1\n      div\n      0xff\n      and\n        /* \"contracts/dETH.sol\":20107:20128  !_isExcluded[account] */\n      iszero\n        /* \"contracts/dETH.sol\":20099:20160  require(!_isExcluded[account], \"Account is already excluded\") */\n      tag_297\n      jumpi\n      mload(0x40)\n      0x08c379a000000000000000000000000000000000000000000000000000000000\n      dup2\n      mstore\n      0x04\n      add\n      dup1\n      dup1\n      0x20\n      add\n      dup3\n      dup2\n      sub\n      dup3\n      mstore\n      0x1b\n      dup2\n      mstore\n      0x20\n      add\n      dup1\n      0x4163636f756e7420697320616c7265616479206578636c756465640000000000\n      dup2\n      mstore\n      pop\n      0x20\n      add\n      swap2\n      pop\n      pop\n      mload(0x40)\n      dup1\n      swap2\n      sub\n      swap1\n      revert\n    tag_297:\n        /* \"contracts/dETH.sol\":20194:20195  0 */\n      0x00\n        /* \"contracts/dETH.sol\":20175:20182  _rOwned */\n      0x04\n        /* \"contracts/dETH.sol\":20175:20191  _rOwned[account] */\n      0x00\n        /* \"contracts/dETH.sol\":20183:20190  account */\n      dup4\n        /* \"contracts/dETH.sol\":20175:20191  _rOwned[account] */\n      0xffffffffffffffffffffffffffffffffffffffff\n      and\n      0xffffffffffffffffffffffffffffffffffffffff\n      and\n      dup2\n      mstore\n      0x20\n      add\n      swap1\n      dup2\n      mstore\n      0x20\n      add\n      0x00\n      keccak256\n      sload\n        /* \"contracts/dETH.sol\":20175:20195  _rOwned[account] > 0 */\n      gt\n        /* \"contracts/dETH.sol\":20171:20280  if (_rOwned[account] > 0) {\r... */\n      iszero\n      tag_298\n      jumpi\n        /* \"contracts/dETH.sol\":20231:20268  tokenFromReflection(_rOwned[account]) */\n      tag_299\n        /* \"contracts/dETH.sol\":20251:20258  _rOwned */\n      0x04\n        /* \"contracts/dETH.sol\":20251:20267  _rOwned[account] */\n      0x00\n        /* \"contracts/dETH.sol\":20259:20266  account */\n      dup4\n        /* \"contracts/dETH.sol\":20251:20267  _rOwned[account] */\n      0xffffffffffffffffffffffffffffffffffffffff\n      and\n      0xffffffffffffffffffffffffffffffffffffffff\n      and\n      dup2\n      mstore\n      0x20\n      add\n      swap1\n      dup2\n      mstore\n      0x20\n      add\n      0x00\n      keccak256\n      sload\n        /* \"contracts/dETH.sol\":20231:20250  tokenFromReflection */\n      tag_82\n        /* \"contracts/dETH.sol\":20231:20268  tokenFromReflection(_rOwned[account]) */\n      jump\t// in\n    tag_299:\n        /* \"contracts/dETH.sol\":20212:20219  _tOwned */\n      0x05\n        /* \"contracts/dETH.sol\":20212:20228  _tOwned[account] */\n      0x00\n        /* \"contracts/dETH.sol\":20220:20227  account */\n      dup4\n        /* \"contracts/dETH.sol\":20212:20228  _tOwned[account] */\n      0xffffffffffffffffffffffffffffffffffffffff\n      and\n      0xffffffffffffffffffffffffffffffffffffffff\n      and\n      dup2\n      mstore\n      0x20\n      add\n      swap1\n      dup2\n      mstore\n      0x20\n      add\n      0x00\n      keccak256\n        /* \"contracts/dETH.sol\":20212:20268  _tOwned[account] = tokenFromReflection(_rOwned[account]) */\n      dup2\n      swap1\n      sstore\n      pop\n        /* \"contracts/dETH.sol\":20171:20280  if (_rOwned[account] > 0) {\r... */\n    tag_298:\n        /* \"contracts/dETH.sol\":20313:20317  true */\n      0x01\n        /* \"contracts/dETH.sol\":20290:20301  _isExcluded */\n      0x0a\n        /* \"contracts/dETH.sol\":20290:20310  _isExcluded[account] */\n      0x00\n        /* \"contracts/dETH.sol\":20302:20309  account */\n      dup4\n        /* \"contracts/dETH.sol\":20290:20310  _isExcluded[account] */\n      0xffffffffffffffffffffffffffffffffffffffff\n      and\n      0xffffffffffffffffffffffffffffffffffffffff\n      and\n      dup2\n      mstore\n      0x20\n      add\n      swap1\n      dup2\n      mstore\n      0x20\n      add\n      0x00\n      keccak256\n      0x00\n        /* \"contracts/dETH.sol\":20290:20317  _isExcluded[account] = true */\n      0x0100\n      exp\n      dup2\n      sload\n      dup2\n      0xff\n      mul\n      not\n      and\n      swap1\n      dup4\n      iszero\n      iszero\n      mul\n      or\n      swap1\n      sstore\n      pop\n        /* \"contracts/dETH.sol\":20328:20337  _excluded */\n      0x0b\n        /* \"contracts/dETH.sol\":20343:20350  account */\n      dup2\n        /* \"contracts/dETH.sol\":20328:20351  _excluded.push(account) */\n      swap1\n      dup1\n      0x01\n      dup2\n      sload\n      add\n      dup1\n      dup3\n      sstore\n      dup1\n      swap2\n      pop\n      pop\n      0x01\n      swap1\n      sub\n      swap1\n      0x00\n      mstore\n      keccak256(0x00, 0x20)\n      add\n      0x00\n      swap1\n      swap2\n      swap1\n      swap2\n      swap1\n      swap2\n      0x0100\n      exp\n      dup2\n      sload\n      dup2\n      0xffffffffffffffffffffffffffffffffffffffff\n      mul\n      not\n      and\n      swap1\n      dup4\n      0xffffffffffffffffffffffffffffffffffffffff\n      and\n      mul\n      or\n      swap1\n      sstore\n      pop\n        /* \"contracts/dETH.sol\":20023:20359  function excludeFromReward(address account) public onlyOwner() {\r... */\n      pop\n      jump\t// out\n        /* \"contracts/dETH.sol\":31057:31181  function isExcludedFromFee(address account) public view returns (bool) {\r... */\n    tag_127:\n        /* \"contracts/dETH.sol\":31122:31126  bool */\n      0x00\n        /* \"contracts/dETH.sol\":31146:31164  _isExcludedFromFee */\n      0x09\n        /* \"contracts/dETH.sol\":31146:31173  _isExcludedFromFee[account] */\n      0x00\n        /* \"contracts/dETH.sol\":31165:31172  account */\n      dup4\n        /* \"contracts/dETH.sol\":31146:31173  _isExcludedFromFee[account] */\n      0xffffffffffffffffffffffffffffffffffffffff\n      and\n      0xffffffffffffffffffffffffffffffffffffffff\n      and\n      dup2\n      mstore\n      0x20\n      add\n      swap1\n      dup2\n      mstore\n      0x20\n      add\n      0x00\n      keccak256\n      0x00\n      swap1\n      sload\n      swap1\n      0x0100\n      exp\n      swap1\n      div\n      0xff\n      and\n        /* \"contracts/dETH.sol\":31139:31173  return _isExcludedFromFee[account] */\n      swap1\n      pop\n        /* \"contracts/dETH.sol\":31057:31181  function isExcludedFromFee(address account) public view returns (bool) {\r... */\n      swap2\n      swap1\n      pop\n      jump\t// out\n        /* \"contracts/dETH.sol\":31949:32062  function isRemovedSniper(address account) public view returns (bool) {\r... */\n    tag_131:\n        /* \"contracts/dETH.sol\":32012:32016  bool */\n      0x00\n        /* \"contracts/dETH.sol\":32036:32045  _isSniper */\n      0x07\n        /* \"contracts/dETH.sol\":32036:32054  _isSniper[account] */\n      0x00\n        /* \"contracts/dETH.sol\":32046:32053  account */\n      dup4\n        /* \"contracts/dETH.sol\":32036:32054  _isSniper[account] */\n      0xffffffffffffffffffffffffffffffffffffffff\n      and\n      0xffffffffffffffffffffffffffffffffffffffff\n      and\n      dup2\n      mstore\n      0x20\n      add\n      swap1\n      dup2\n      mstore\n      0x20\n      add\n      0x00\n      keccak256\n      0x00\n      swap1\n      sload\n      swap1\n      0x0100\n      exp\n      swap1\n      div\n      0xff\n      and\n        /* \"contracts/dETH.sol\":32029:32054  return _isSniper[account] */\n      swap1\n      pop\n        /* \"contracts/dETH.sol\":31949:32062  function isRemovedSniper(address account) public view returns (bool) {\r... */\n      swap2\n      swap1\n      pop\n      jump\t// out\n        /* \"contracts/dETH.sol\":15498:15530  uint256 public _liquidityFee = 6 */\n    tag_134:\n      sload(0x14)\n      dup2\n      jump\t// out\n        /* \"contracts/dETH.sol\":17180:17378  function balanceOf(address account) public view override returns (uint256) {\r... */\n    tag_138:\n        /* \"contracts/dETH.sol\":17246:17253  uint256 */\n      0x00\n        /* \"contracts/dETH.sol\":17270:17281  _isExcluded */\n      0x0a\n        /* \"contracts/dETH.sol\":17270:17290  _isExcluded[account] */\n      0x00\n        /* \"contracts/dETH.sol\":17282:17289  account */\n      dup4\n        /* \"contracts/dETH.sol\":17270:17290  _isExcluded[account] */\n      0xffffffffffffffffffffffffffffffffffffffff\n      and\n      0xffffffffffffffffffffffffffffffffffffffff\n      and\n      dup2\n      mstore\n      0x20\n      add\n      swap1\n      dup2\n      mstore\n      0x20\n      add\n      0x00\n      keccak256\n      0x00\n      swap1\n      sload\n      swap1\n      0x0100\n      exp\n      swap1\n      div\n      0xff\n      and\n        /* \"contracts/dETH.sol\":17266:17315  if (_isExcluded[account]) return _tOwned[account] */\n      iszero\n      tag_304\n      jumpi\n        /* \"contracts/dETH.sol\":17299:17306  _tOwned */\n      0x05\n        /* \"contracts/dETH.sol\":17299:17315  _tOwned[account] */\n      0x00\n        /* \"contracts/dETH.sol\":17307:17314  account */\n      dup4\n        /* \"contracts/dETH.sol\":17299:17315  _tOwned[account] */\n      0xffffffffffffffffffffffffffffffffffffffff\n      and\n      0xffffffffffffffffffffffffffffffffffffffff\n      and\n      dup2\n      mstore\n      0x20\n      add\n      swap1\n      dup2\n      mstore\n      0x20\n      add\n      0x00\n      keccak256\n      sload\n        /* \"contracts/dETH.sol\":17292:17315  return _tOwned[account] */\n      swap1\n      pop\n      jump(tag_303)\n        /* \"contracts/dETH.sol\":17266:17315  if (_isExcluded[account]) return _tOwned[account] */\n    tag_304:\n        /* \"contracts/dETH.sol\":17333:17370  tokenFromReflection(_rOwned[account]) */\n      tag_305\n        /* \"contracts/dETH.sol\":17353:17360  _rOwned */\n      0x04\n        /* \"contracts/dETH.sol\":17353:17369  _rOwned[account] */\n      0x00\n        /* \"contracts/dETH.sol\":17361:17368  account */\n      dup5\n        /* \"contracts/dETH.sol\":17353:17369  _rOwned[account] */\n      0xffffffffffffffffffffffffffffffffffffffff\n      and\n      0xffffffffffffffffffffffffffffffffffffffff\n      and\n      dup2\n      mstore\n      0x20\n      add\n      swap1\n      dup2\n      mstore\n      0x20\n      add\n      0x00\n      keccak256\n      sload\n        /* \"contracts/dETH.sol\":17333:17352  tokenFromReflection */\n      tag_82\n        /* \"contracts/dETH.sol\":17333:17370  tokenFromReflection(_rOwned[account]) */\n      jump\t// in\n    tag_305:\n        /* \"contracts/dETH.sol\":17326:17370  return tokenFromReflection(_rOwned[account]) */\n      swap1\n      pop\n        /* \"contracts/dETH.sol\":17180:17378  function balanceOf(address account) public view override returns (uint256) {\r... */\n    tag_303:\n      swap2\n      swap1\n      pop\n      jump\t// out\n        /* \"contracts/dETH.sol\":6036:6184  function renounceOwnership() public virtual onlyOwner {\r... */\n    tag_141:\n        /* \"contracts/dETH.sol\":5959:5971  _msgSender() */\n      tag_307\n        /* \"contracts/dETH.sol\":5959:5969  _msgSender */\n      tag_202\n        /* \"contracts/dETH.sol\":5959:5971  _msgSender() */\n      jump\t// in\n    tag_307:\n        /* \"contracts/dETH.sol\":5949:5971  _owner == _msgSender() */\n      0xffffffffffffffffffffffffffffffffffffffff\n      and\n        /* \"contracts/dETH.sol\":5949:5955  _owner */\n      0x00\n      dup1\n      sload\n      swap1\n      0x0100\n      exp\n      swap1\n      div\n      0xffffffffffffffffffffffffffffffffffffffff\n      and\n        /* \"contracts/dETH.sol\":5949:5971  _owner == _msgSender() */\n      0xffffffffffffffffffffffffffffffffffffffff\n      and\n      eq\n        /* \"contracts/dETH.sol\":5941:6008  require(_owner == _msgSender(), \"Ownable: caller is not the owner\") */\n      tag_308\n      jumpi\n      mload(0x40)\n      0x08c379a000000000000000000000000000000000000000000000000000000000\n      dup2\n      mstore\n      0x04\n      add\n      dup1\n      dup1\n      0x20\n      add\n      dup3\n      dup2\n      sub\n      dup3\n      mstore\n      0x20\n      dup2\n      mstore\n      0x20\n      add\n      dup1\n      0x4f776e61626c653a2063616c6c6572206973206e6f7420746865206f776e6572\n      dup2\n      mstore\n      pop\n      0x20\n      add\n      swap2\n      pop\n      pop\n      mload(0x40)\n      dup1\n      swap2\n      sub\n      swap1\n      revert\n    tag_308:\n        /* \"contracts/dETH.sol\":6143:6144  0 */\n      0x00\n        /* \"contracts/dETH.sol\":6106:6146  OwnershipTransferred(_owner, address(0)) */\n      0xffffffffffffffffffffffffffffffffffffffff\n      and\n        /* \"contracts/dETH.sol\":6127:6133  _owner */\n      0x00\n      dup1\n      sload\n      swap1\n      0x0100\n      exp\n      swap1\n      div\n      0xffffffffffffffffffffffffffffffffffffffff\n      and\n        /* \"contracts/dETH.sol\":6106:6146  OwnershipTransferred(_owner, address(0)) */\n      0xffffffffffffffffffffffffffffffffffffffff\n      and\n      0x8be0079c531659141344cd1fd0a4f28419497f9722a3daafe3b4186f6b6457e0\n      mload(0x40)\n      mload(0x40)\n      dup1\n      swap2\n      sub\n      swap1\n      log3\n        /* \"contracts/dETH.sol\":6174:6175  0 */\n      0x00\n        /* \"contracts/dETH.sol\":6157:6163  _owner */\n      dup1\n      0x00\n        /* \"contracts/dETH.sol\":6157:6176  _owner = address(0) */\n      0x0100\n      exp\n      dup2\n      sload\n      dup2\n      0xffffffffffffffffffffffffffffffffffffffff\n      mul\n      not\n      and\n      swap1\n      dup4\n      0xffffffffffffffffffffffffffffffffffffffff\n      and\n      mul\n      or\n      swap1\n      sstore\n      pop\n        /* \"contracts/dETH.sol\":6036:6184  function renounceOwnership() public virtual onlyOwner {\r... */\n      jump\t// out\n        /* \"contracts/dETH.sol\":32991:33086  function getBlockTime() public view returns (uint256) {\r... */\n    tag_144:\n        /* \"contracts/dETH.sol\":33036:33043  uint256 */\n      0x00\n        /* \"contracts/dETH.sol\":33063:33078  block.timestamp */\n      timestamp\n        /* \"contracts/dETH.sol\":33056:33078  return block.timestamp */\n      swap1\n      pop\n        /* \"contracts/dETH.sol\":32991:33086  function getBlockTime() public view returns (uint256) {\r... */\n      swap1\n      jump\t// out\n        /* \"contracts/dETH.sol\":18705:18825  function isExcludedFromReward(address account) public view returns (bool) {\r... */\n    tag_148:\n        /* \"contracts/dETH.sol\":18773:18777  bool */\n      0x00\n        /* \"contracts/dETH.sol\":18797:18808  _isExcluded */\n      0x0a\n        /* \"contracts/dETH.sol\":18797:18817  _isExcluded[account] */\n      0x00\n        /* \"contracts/dETH.sol\":18809:18816  account */\n      dup4\n        /* \"contracts/dETH.sol\":18797:18817  _isExcluded[account] */\n      0xffffffffffffffffffffffffffffffffffffffff\n      and\n      0xffffffffffffffffffffffffffffffffffffffff\n      and\n      dup2\n      mstore\n      0x20\n      add\n      swap1\n      dup2\n      mstore\n      0x20\n      add\n      0x00\n      keccak256\n      0x00\n      swap1\n      sload\n      swap1\n      0x0100\n      exp\n      swap1\n      div\n      0xff\n      and\n        /* \"contracts/dETH.sol\":18790:18817  return _isExcluded[account] */\n      swap1\n      pop\n        /* \"contracts/dETH.sol\":18705:18825  function isExcludedFromReward(address account) public view returns (bool) {\r... */\n      swap2\n      swap1\n      pop\n      jump\t// out\n        /* \"contracts/dETH.sol\":5822:5901  function owner() public view returns (address) {\r... */\n    tag_151:\n        /* \"contracts/dETH.sol\":5860:5867  address */\n      0x00\n        /* \"contracts/dETH.sol\":5887:5893  _owner */\n      dup1\n      0x00\n      swap1\n      sload\n      swap1\n      0x0100\n      exp\n      swap1\n      div\n      0xffffffffffffffffffffffffffffffffffffffff\n      and\n        /* \"contracts/dETH.sol\":5880:5893  return _owner */\n      swap1\n      pop\n        /* \"contracts/dETH.sol\":5822:5901  function owner() public view returns (address) {\r... */\n      swap1\n      jump\t// out\n        /* \"contracts/dETH.sol\":31532:31654  function setLiquidityFeePercent(uint256 liquidityFee) external onlyOwner() {\r... */\n    tag_155:\n        /* \"contracts/dETH.sol\":5959:5971  _msgSender() */\n      tag_314\n        /* \"contracts/dETH.sol\":5959:5969  _msgSender */\n      tag_202\n        /* \"contracts/dETH.sol\":5959:5971  _msgSender() */\n      jump\t// in\n    tag_314:\n        /* \"contracts/dETH.sol\":5949:5971  _owner == _msgSender() */\n      0xffffffffffffffffffffffffffffffffffffffff\n      and\n        /* \"contracts/dETH.sol\":5949:5955  _owner */\n      0x00\n      dup1\n      sload\n      swap1\n      0x0100\n      exp\n      swap1\n      div\n      0xffffffffffffffffffffffffffffffffffffffff\n      and\n        /* \"contracts/dETH.sol\":5949:5971  _owner == _msgSender() */\n      0xffffffffffffffffffffffffffffffffffffffff\n      and\n      eq\n        /* \"contracts/dETH.sol\":5941:6008  require(_owner == _msgSender(), \"Ownable: caller is not the owner\") */\n      tag_315\n      jumpi\n      mload(0x40)\n      0x08c379a000000000000000000000000000000000000000000000000000000000\n      dup2\n      mstore\n      0x04\n      add\n      dup1\n      dup1\n      0x20\n      add\n      dup3\n      dup2\n      sub\n      dup3\n      mstore\n      0x20\n      dup2\n      mstore\n      0x20\n      add\n      dup1\n      0x4f776e61626c653a2063616c6c6572206973206e6f7420746865206f776e6572\n      dup2\n      mstore\n      pop\n      0x20\n      add\n      swap2\n      pop\n      pop\n      mload(0x40)\n      dup1\n      swap2\n      sub\n      swap1\n      revert\n    tag_315:\n        /* \"contracts/dETH.sol\":31634:31646  liquidityFee */\n      dup1\n        /* \"contracts/dETH.sol\":31618:31631  _liquidityFee */\n      0x14\n        /* \"contracts/dETH.sol\":31618:31646  _liquidityFee = liquidityFee */\n      dup2\n      swap1\n      sstore\n      pop\n        /* \"contracts/dETH.sol\":31532:31654  function setLiquidityFeePercent(uint256 liquidityFee) external onlyOwner() {\r... */\n      pop\n      jump\t// out\n        /* \"contracts/dETH.sol\":31664:31805  function setMarketingAddress(address _marketingAddress) external onlyOwner() {\r... */\n    tag_159:\n        /* \"contracts/dETH.sol\":5959:5971  _msgSender() */\n      tag_318\n        /* \"contracts/dETH.sol\":5959:5969  _msgSender */\n      tag_202\n        /* \"contracts/dETH.sol\":5959:5971  _msgSender() */\n      jump\t// in\n    tag_318:\n        /* \"contracts/dETH.sol\":5949:5971  _owner == _msgSender() */\n      0xffffffffffffffffffffffffffffffffffffffff\n      and\n        /* \"contracts/dETH.sol\":5949:5955  _owner */\n      0x00\n      dup1\n      sload\n      swap1\n      0x0100\n      exp\n      swap1\n      div\n      0xffffffffffffffffffffffffffffffffffffffff\n      and\n        /* \"contracts/dETH.sol\":5949:5971  _owner == _msgSender() */\n      0xffffffffffffffffffffffffffffffffffffffff\n      and\n      eq\n        /* \"contracts/dETH.sol\":5941:6008  require(_owner == _msgSender(), \"Ownable: caller is not the owner\") */\n      tag_319\n      jumpi\n      mload(0x40)\n      0x08c379a000000000000000000000000000000000000000000000000000000000\n      dup2\n      mstore\n      0x04\n      add\n      dup1\n      dup1\n      0x20\n      add\n      dup3\n      dup2\n      sub\n      dup3\n      mstore\n      0x20\n      dup2\n      mstore\n      0x20\n      add\n      dup1\n      0x4f776e61626c653a2063616c6c6572206973206e6f7420746865206f776e6572\n      dup2\n      mstore\n      pop\n      0x20\n      add\n      swap2\n      pop\n      pop\n      mload(0x40)\n      dup1\n      swap2\n      sub\n      swap1\n      revert\n    tag_319:\n        /* \"contracts/dETH.sol\":31779:31796  _marketingAddress */\n      dup1\n        /* \"contracts/dETH.sol\":31752:31768  marketingAddress */\n      0x03\n      0x00\n        /* \"contracts/dETH.sol\":31752:31797  marketingAddress = payable(_marketingAddress) */\n      0x0100\n      exp\n      dup2\n      sload\n      dup2\n      0xffffffffffffffffffffffffffffffffffffffff\n      mul\n      not\n      and\n      swap1\n      dup4\n      0xffffffffffffffffffffffffffffffffffffffff\n      and\n      mul\n      or\n      swap1\n      sstore\n      pop\n        /* \"contracts/dETH.sol\":31664:31805  function setMarketingAddress(address _marketingAddress) external onlyOwner() {\r... */\n      pop\n      jump\t// out\n        /* \"contracts/dETH.sol\":16891:16978  function symbol() public view returns (string memory) {\r... */\n    tag_162:\n        /* \"contracts/dETH.sol\":16930:16943  string memory */\n      0x60\n        /* \"contracts/dETH.sol\":16963:16970  _symbol */\n      0x10\n        /* \"contracts/dETH.sol\":16956:16970  return _symbol */\n      dup1\n      sload\n      0x01\n      dup2\n      0x01\n      and\n      iszero\n      0x0100\n      mul\n      sub\n      and\n      0x02\n      swap1\n      div\n      dup1\n      0x1f\n      add\n      0x20\n      dup1\n      swap2\n      div\n      mul\n      0x20\n      add\n      mload(0x40)\n      swap1\n      dup2\n      add\n      0x40\n      mstore\n      dup1\n      swap3\n      swap2\n      swap1\n      dup2\n      dup2\n      mstore\n      0x20\n      add\n      dup3\n      dup1\n      sload\n      0x01\n      dup2\n      0x01\n      and\n      iszero\n      0x0100\n      mul\n      sub\n      and\n      0x02\n      swap1\n      div\n      dup1\n      iszero\n      tag_322\n      jumpi\n      dup1\n      0x1f\n      lt\n      tag_323\n      jumpi\n      0x0100\n      dup1\n      dup4\n      sload\n      div\n      mul\n      dup4\n      mstore\n      swap2\n      0x20\n      add\n      swap2\n      jump(tag_322)\n    tag_323:\n      dup3\n      add\n      swap2\n      swap1\n      0x00\n      mstore\n      keccak256(0x00, 0x20)\n      swap1\n    tag_324:\n      dup2\n      sload\n      dup2\n      mstore\n      swap1\n      0x01\n      add\n      swap1\n      0x20\n      add\n      dup1\n      dup4\n      gt\n      tag_324\n      jumpi\n      dup3\n      swap1\n      sub\n      0x1f\n      and\n      dup3\n      add\n      swap2\n    tag_322:\n      pop\n      pop\n      pop\n      pop\n      pop\n      swap1\n      pop\n        /* \"contracts/dETH.sol\":16891:16978  function symbol() public view returns (string memory) {\r... */\n      swap1\n      jump\t// out\n        /* \"contracts/dETH.sol\":18428:18697  function decreaseAllowance(address spender, uint256 subtractedValue) public virtual returns (bool) {\r... */\n    tag_170:\n        /* \"contracts/dETH.sol\":18521:18525  bool */\n      0x00\n        /* \"contracts/dETH.sol\":18538:18667  _approve(_msgSender(), spender, _allowances[_msgSender()][spender].sub(subtractedValue, \"ERC20: decreased allowance below zero\")) */\n      tag_326\n        /* \"contracts/dETH.sol\":18547:18559  _msgSender() */\n      tag_327\n        /* \"contracts/dETH.sol\":18547:18557  _msgSender */\n      tag_202\n        /* \"contracts/dETH.sol\":18547:18559  _msgSender() */\n      jump\t// in\n    tag_327:\n        /* \"contracts/dETH.sol\":18561:18568  spender */\n      dup5\n        /* \"contracts/dETH.sol\":18570:18666  _allowances[_msgSender()][spender].sub(subtractedValue, \"ERC20: decreased allowance below zero\") */\n      tag_328\n        /* \"contracts/dETH.sol\":18609:18624  subtractedValue */\n      dup6\n        /* \"contracts/dETH.sol\":18570:18666  _allowances[_msgSender()][spender].sub(subtractedValue, \"ERC20: decreased allowance below zero\") */\n      mload(0x40)\n      dup1\n      0x60\n      add\n      0x40\n      mstore\n      dup1\n      0x25\n      dup2\n      mstore\n      0x20\n      add\n      data_f8b476f7d28209d77d4a4ac1fe36b9f8259aa1bb6bddfa6e89de7e51615cf8a8\n      0x25\n      swap2\n      codecopy\n        /* \"contracts/dETH.sol\":18570:18581  _allowances */\n      0x06\n        /* \"contracts/dETH.sol\":18570:18595  _allowances[_msgSender()] */\n      0x00\n        /* \"contracts/dETH.sol\":18582:18594  _msgSender() */\n      tag_329\n        /* \"contracts/dETH.sol\":18582:18592  _msgSender */\n      tag_202\n        /* \"contracts/dETH.sol\":18582:18594  _msgSender() */\n      jump\t// in\n    tag_329:\n        /* \"contracts/dETH.sol\":18570:18595  _allowances[_msgSender()] */\n      0xffffffffffffffffffffffffffffffffffffffff\n      and\n      0xffffffffffffffffffffffffffffffffffffffff\n      and\n      dup2\n      mstore\n      0x20\n      add\n      swap1\n      dup2\n      mstore\n      0x20\n      add\n      0x00\n      keccak256\n        /* \"contracts/dETH.sol\":18570:18604  _allowances[_msgSender()][spender] */\n      0x00\n        /* \"contracts/dETH.sol\":18596:18603  spender */\n      dup11\n        /* \"contracts/dETH.sol\":18570:18604  _allowances[_msgSender()][spender] */\n      0xffffffffffffffffffffffffffffffffffffffff\n      and\n      0xffffffffffffffffffffffffffffffffffffffff\n      and\n      dup2\n      mstore\n      0x20\n      add\n      swap1\n      dup2\n      mstore\n      0x20\n      add\n      0x00\n      keccak256\n      sload\n        /* \"contracts/dETH.sol\":18570:18608  _allowances[_msgSender()][spender].sub */\n      tag_222\n      swap1\n        /* \"contracts/dETH.sol\":18570:18666  _allowances[_msgSender()][spender].sub(subtractedValue, \"ERC20: decreased allowance below zero\") */\n      swap3\n      swap2\n      swap1\n      0xffffffff\n      and\n      jump\t// in\n    tag_328:\n        /* \"contracts/dETH.sol\":18538:18546  _approve */\n      tag_212\n        /* \"contracts/dETH.sol\":18538:18667  _approve(_msgSender(), spender, _allowances[_msgSender()][spender].sub(subtractedValue, \"ERC20: decreased allowance below zero\")) */\n      jump\t// in\n    tag_326:\n        /* \"contracts/dETH.sol\":18685:18689  true */\n      0x01\n        /* \"contracts/dETH.sol\":18678:18689  return true */\n      swap1\n      pop\n        /* \"contracts/dETH.sol\":18428:18697  function decreaseAllowance(address spender, uint256 subtractedValue) public virtual returns (bool) {\r... */\n      swap3\n      swap2\n      pop\n      pop\n      jump\t// out\n        /* \"contracts/dETH.sol\":14561:14654  address payable public marketingAddress = payable(0x40da1dd681eC6175C3BCFe1641CD2826A99EBdD8) */\n    tag_173:\n      0x03\n      0x00\n      swap1\n      sload\n      swap1\n      0x0100\n      exp\n      swap1\n      div\n      0xffffffffffffffffffffffffffffffffffffffff\n      and\n      dup2\n      jump\t// out\n        /* \"contracts/dETH.sol\":17386:17553  function transfer(address recipient, uint256 amount) public override returns (bool) {\r... */\n    tag_177:\n        /* \"contracts/dETH.sol\":17464:17468  bool */\n      0x00\n        /* \"contracts/dETH.sol\":17481:17523  _transfer(_msgSender(), recipient, amount) */\n      tag_331\n        /* \"contracts/dETH.sol\":17491:17503  _msgSender() */\n      tag_332\n        /* \"contracts/dETH.sol\":17491:17501  _msgSender */\n      tag_202\n        /* \"contracts/dETH.sol\":17491:17503  _msgSender() */\n      jump\t// in\n    tag_332:\n        /* \"contracts/dETH.sol\":17505:17514  recipient */\n      dup5\n        /* \"contracts/dETH.sol\":17516:17522  amount */\n      dup5\n        /* \"contracts/dETH.sol\":17481:17490  _transfer */\n      tag_217\n        /* \"contracts/dETH.sol\":17481:17523  _transfer(_msgSender(), recipient, amount) */\n      jump\t// in\n    tag_331:\n        /* \"contracts/dETH.sol\":17541:17545  true */\n      0x01\n        /* \"contracts/dETH.sol\":17534:17545  return true */\n      swap1\n      pop\n        /* \"contracts/dETH.sol\":17386:17553  function transfer(address recipient, uint256 amount) public override returns (bool) {\r... */\n      swap3\n      swap2\n      pop\n      pop\n      jump\t// out\n        /* \"contracts/dETH.sol\":16672:16792  function openTrading() external onlyOwner() {\r... */\n    tag_180:\n        /* \"contracts/dETH.sol\":5959:5971  _msgSender() */\n      tag_334\n        /* \"contracts/dETH.sol\":5959:5969  _msgSender */\n      tag_202\n        /* \"contracts/dETH.sol\":5959:5971  _msgSender() */\n      jump\t// in\n    tag_334:\n        /* \"contracts/dETH.sol\":5949:5971  _owner == _msgSender() */\n      0xffffffffffffffffffffffffffffffffffffffff\n      and\n        /* \"contracts/dETH.sol\":5949:5955  _owner */\n      0x00\n      dup1\n      sload\n      swap1\n      0x0100\n      exp\n      swap1\n      div\n      0xffffffffffffffffffffffffffffffffffffffff\n      and\n        /* \"contracts/dETH.sol\":5949:5971  _owner == _msgSender() */\n      0xffffffffffffffffffffffffffffffffffffffff\n      and\n      eq\n        /* \"contracts/dETH.sol\":5941:6008  require(_owner == _msgSender(), \"Ownable: caller is not the owner\") */\n      tag_335\n      jumpi\n      mload(0x40)\n      0x08c379a000000000000000000000000000000000000000000000000000000000\n      dup2\n      mstore\n      0x04\n      add\n      dup1\n      dup1\n      0x20\n      add\n      dup3\n      dup2\n      sub\n      dup3\n      mstore\n      0x20\n      dup2\n      mstore\n      0x20\n      add\n      dup1\n      0x4f776e61626c653a2063616c6c6572206973206e6f7420746865206f776e6572\n      dup2\n      mstore\n      pop\n      0x20\n      add\n      swap2\n      pop\n      pop\n      mload(0x40)\n      dup1\n      swap2\n      sub\n      swap1\n      revert\n    tag_335:\n        /* \"contracts/dETH.sol\":16741:16745  true */\n      0x01\n        /* \"contracts/dETH.sol\":16727:16738  tradingOpen */\n      0x19\n      0x15\n        /* \"contracts/dETH.sol\":16727:16745  tradingOpen = true */\n      0x0100\n      exp\n      dup2\n      sload\n      dup2\n      0xff\n      mul\n      not\n      and\n      swap1\n      dup4\n      iszero\n      iszero\n      mul\n      or\n      swap1\n      sstore\n      pop\n        /* \"contracts/dETH.sol\":16769:16784  block.timestamp */\n      timestamp\n        /* \"contracts/dETH.sol\":16756:16766  launchTime */\n      0x17\n        /* \"contracts/dETH.sol\":16756:16784  launchTime = block.timestamp */\n      dup2\n      swap1\n      sstore\n      pop\n        /* \"contracts/dETH.sol\":16672:16792  function openTrading() external onlyOwner() {\r... */\n      jump\t// out\n        /* \"contracts/dETH.sol\":33094:33209  function emergencyWithdraw() external onlyOwner {\r... */\n    tag_183:\n        /* \"contracts/dETH.sol\":5959:5971  _msgSender() */\n      tag_338\n        /* \"contracts/dETH.sol\":5959:5969  _msgSender */\n      tag_202\n        /* \"contracts/dETH.sol\":5959:5971  _msgSender() */\n      jump\t// in\n    tag_338:\n        /* \"contracts/dETH.sol\":5949:5971  _owner == _msgSender() */\n      0xffffffffffffffffffffffffffffffffffffffff\n      and\n        /* \"contracts/dETH.sol\":5949:5955  _owner */\n      0x00\n      dup1\n      sload\n      swap1\n      0x0100\n      exp\n      swap1\n      div\n      0xffffffffffffffffffffffffffffffffffffffff\n      and\n        /* \"contracts/dETH.sol\":5949:5971  _owner == _msgSender() */\n      0xffffffffffffffffffffffffffffffffffffffff\n      and\n      eq\n        /* \"contracts/dETH.sol\":5941:6008  require(_owner == _msgSender(), \"Ownable: caller is not the owner\") */\n      tag_339\n      jumpi\n      mload(0x40)\n      0x08c379a000000000000000000000000000000000000000000000000000000000\n      dup2\n      mstore\n      0x04\n      add\n      dup1\n      dup1\n      0x20\n      add\n      dup3\n      dup2\n      sub\n      dup3\n      mstore\n      0x20\n      dup2\n      mstore\n      0x20\n      add\n      dup1\n      0x4f776e61626c653a2063616c6c6572206973206e6f7420746865206f776e6572\n      dup2\n      mstore\n      pop\n      0x20\n      add\n      swap2\n      pop\n      pop\n      mload(0x40)\n      dup1\n      swap2\n      sub\n      swap1\n      revert\n    tag_339:\n        /* \"contracts/dETH.sol\":33161:33168  owner() */\n      tag_341\n        /* \"contracts/dETH.sol\":33161:33166  owner */\n      tag_151\n        /* \"contracts/dETH.sol\":33161:33168  owner() */\n      jump\t// in\n    tag_341:\n        /* \"contracts/dETH.sol\":33153:33178  payable(owner()).transfer */\n      0xffffffffffffffffffffffffffffffffffffffff\n      and\n        /* \"contracts/dETH.sol\":33153:33201  payable(owner()).transfer(address(this).balance) */\n      0x08fc\n        /* \"contracts/dETH.sol\":33179:33200  address(this).balance */\n      selfbalance\n        /* \"contracts/dETH.sol\":33153:33201  payable(owner()).transfer(address(this).balance) */\n      swap1\n      dup2\n      iszero\n      mul\n      swap1\n      mload(0x40)\n      0x00\n      mload(0x40)\n      dup1\n      dup4\n      sub\n      dup2\n      dup6\n      dup9\n      dup9\n      call\n      swap4\n      pop\n      pop\n      pop\n      pop\n      iszero\n      dup1\n      iszero\n      tag_343\n      jumpi\n      returndatasize\n      0x00\n      dup1\n      returndatacopy\n      revert(0x00, returndatasize)\n    tag_343:\n      pop\n        /* \"contracts/dETH.sol\":33094:33209  function emergencyWithdraw() external onlyOwner {\r... */\n      jump\t// out\n        /* \"contracts/dETH.sol\":17561:17704  function allowance(address owner, address spender) public view override returns (uint256) {\r... */\n    tag_187:\n        /* \"contracts/dETH.sol\":17642:17649  uint256 */\n      0x00\n        /* \"contracts/dETH.sol\":17669:17680  _allowances */\n      0x06\n        /* \"contracts/dETH.sol\":17669:17687  _allowances[owner] */\n      0x00\n        /* \"contracts/dETH.sol\":17681:17686  owner */\n      dup5\n        /* \"contracts/dETH.sol\":17669:17687  _allowances[owner] */\n      0xffffffffffffffffffffffffffffffffffffffff\n      and\n      0xffffffffffffffffffffffffffffffffffffffff\n      and\n      dup2\n      mstore\n      0x20\n      add\n      swap1\n      dup2\n      mstore\n      0x20\n      add\n      0x00\n      keccak256\n        /* \"contracts/dETH.sol\":17669:17696  _allowances[owner][spender] */\n      0x00\n        /* \"contracts/dETH.sol\":17688:17695  spender */\n      dup4\n        /* \"contracts/dETH.sol\":17669:17696  _allowances[owner][spender] */\n      0xffffffffffffffffffffffffffffffffffffffff\n      and\n      0xffffffffffffffffffffffffffffffffffffffff\n      and\n      dup2\n      mstore\n      0x20\n      add\n      swap1\n      dup2\n      mstore\n      0x20\n      add\n      0x00\n      keccak256\n      sload\n        /* \"contracts/dETH.sol\":17662:17696  return _allowances[owner][spender] */\n      swap1\n      pop\n        /* \"contracts/dETH.sol\":17561:17704  function allowance(address owner, address spender) public view override returns (uint256) {\r... */\n      swap3\n      swap2\n      pop\n      pop\n      jump\t// out\n        /* \"contracts/dETH.sol\":31308:31418  function includeInFee(address account) public onlyOwner {\r... */\n    tag_191:\n        /* \"contracts/dETH.sol\":5959:5971  _msgSender() */\n      tag_346\n        /* \"contracts/dETH.sol\":5959:5969  _msgSender */\n      tag_202\n        /* \"contracts/dETH.sol\":5959:5971  _msgSender() */\n      jump\t// in\n    tag_346:\n        /* \"contracts/dETH.sol\":5949:5971  _owner == _msgSender() */\n      0xffffffffffffffffffffffffffffffffffffffff\n      and\n        /* \"contracts/dETH.sol\":5949:5955  _owner */\n      0x00\n      dup1\n      sload\n      swap1\n      0x0100\n      exp\n      swap1\n      div\n      0xffffffffffffffffffffffffffffffffffffffff\n      and\n        /* \"contracts/dETH.sol\":5949:5971  _owner == _msgSender() */\n      0xffffffffffffffffffffffffffffffffffffffff\n      and\n      eq\n        /* \"contracts/dETH.sol\":5941:6008  require(_owner == _msgSender(), \"Ownable: caller is not the owner\") */\n      tag_347\n      jumpi\n      mload(0x40)\n      0x08c379a000000000000000000000000000000000000000000000000000000000\n      dup2\n      mstore\n      0x04\n      add\n      dup1\n      dup1\n      0x20\n      add\n      dup3\n      dup2\n      sub\n      dup3\n      mstore\n      0x20\n      dup2\n      mstore\n      0x20\n      add\n      dup1\n      0x4f776e61626c653a2063616c6c6572206973206e6f7420746865206f776e6572\n      dup2\n      mstore\n      pop\n      0x20\n      add\n      swap2\n      pop\n      pop\n      mload(0x40)\n      dup1\n      swap2\n      sub\n      swap1\n      revert\n    tag_347:\n        /* \"contracts/dETH.sol\":31405:31410  false */\n      0x00\n        /* \"contracts/dETH.sol\":31375:31393  _isExcludedFromFee */\n      0x09\n        /* \"contracts/dETH.sol\":31375:31402  _isExcludedFromFee[account] */\n      0x00\n        /* \"contracts/dETH.sol\":31394:31401  account */\n      dup4\n        /* \"contracts/dETH.sol\":31375:31402  _isExcludedFromFee[account] */\n      0xffffffffffffffffffffffffffffffffffffffff\n      and\n      0xffffffffffffffffffffffffffffffffffffffff\n      and\n      dup2\n      mstore\n      0x20\n      add\n      swap1\n      dup2\n      mstore\n      0x20\n      add\n      0x00\n      keccak256\n      0x00\n        /* \"contracts/dETH.sol\":31375:31410  _isExcludedFromFee[account] = false */\n      0x0100\n      exp\n      dup2\n      sload\n      dup2\n      0xff\n      mul\n      not\n      and\n      swap1\n      dup4\n      iszero\n      iszero\n      mul\n      or\n      swap1\n      sstore\n      pop\n        /* \"contracts/dETH.sol\":31308:31418  function includeInFee(address account) public onlyOwner {\r... */\n      pop\n      jump\t// out\n        /* \"contracts/dETH.sol\":6192:6436  function transferOwnership(address newOwner) public virtual onlyOwner {\r... */\n    tag_195:\n        /* \"contracts/dETH.sol\":5959:5971  _msgSender() */\n      tag_350\n        /* \"contracts/dETH.sol\":5959:5969  _msgSender */\n      tag_202\n        /* \"contracts/dETH.sol\":5959:5971  _msgSender() */\n      jump\t// in\n    tag_350:\n        /* \"contracts/dETH.sol\":5949:5971  _owner == _msgSender() */\n      0xffffffffffffffffffffffffffffffffffffffff\n      and\n        /* \"contracts/dETH.sol\":5949:5955  _owner */\n      0x00\n      dup1\n      sload\n      swap1\n      0x0100\n      exp\n      swap1\n      div\n      0xffffffffffffffffffffffffffffffffffffffff\n      and\n        /* \"contracts/dETH.sol\":5949:5971  _owner == _msgSender() */\n      0xffffffffffffffffffffffffffffffffffffffff\n      and\n      eq\n        /* \"contracts/dETH.sol\":5941:6008  require(_owner == _msgSender(), \"Ownable: caller is not the owner\") */\n      tag_351\n      jumpi\n      mload(0x40)\n      0x08c379a000000000000000000000000000000000000000000000000000000000\n      dup2\n      mstore\n      0x04\n      add\n      dup1\n      dup1\n      0x20\n      add\n      dup3\n      dup2\n      sub\n      dup3\n      mstore\n      0x20\n      dup2\n      mstore\n      0x20\n      add\n      dup1\n      0x4f776e61626c653a2063616c6c6572206973206e6f7420746865206f776e6572\n      dup2\n      mstore\n      pop\n      0x20\n      add\n      swap2\n      pop\n      pop\n      mload(0x40)\n      dup1\n      swap2\n      sub\n      swap1\n      revert\n    tag_351:\n        /* \"contracts/dETH.sol\":6301:6302  0 */\n      0x00\n        /* \"contracts/dETH.sol\":6281:6303  newOwner != address(0) */\n      0xffffffffffffffffffffffffffffffffffffffff\n      and\n        /* \"contracts/dETH.sol\":6281:6289  newOwner */\n      dup2\n        /* \"contracts/dETH.sol\":6281:6303  newOwner != address(0) */\n      0xffffffffffffffffffffffffffffffffffffffff\n      and\n      eq\n      iszero\n        /* \"contracts/dETH.sol\":6273:6346  require(newOwner != address(0), \"Ownable: new owner is the zero address\") */\n      tag_353\n      jumpi\n      mload(0x40)\n      0x08c379a000000000000000000000000000000000000000000000000000000000\n      dup2\n      mstore\n      0x04\n      add\n      dup1\n      dup1\n      0x20\n      add\n      dup3\n      dup2\n      sub\n      dup3\n      mstore\n      0x26\n      dup2\n      mstore\n      0x20\n      add\n      dup1\n      data_245f15ff17f551913a7a18385165551503906a406f905ac1c2437281a7cd0cfe\n      0x26\n      swap2\n      codecopy\n      0x40\n      add\n      swap2\n      pop\n      pop\n      mload(0x40)\n      dup1\n      swap2\n      sub\n      swap1\n      revert\n    tag_353:\n        /* \"contracts/dETH.sol\":6391:6399  newOwner */\n      dup1\n        /* \"contracts/dETH.sol\":6362:6400  OwnershipTransferred(_owner, newOwner) */\n      0xffffffffffffffffffffffffffffffffffffffff\n      and\n        /* \"contracts/dETH.sol\":6383:6389  _owner */\n      0x00\n      dup1\n      sload\n      swap1\n      0x0100\n      exp\n      swap1\n      div\n      0xffffffffffffffffffffffffffffffffffffffff\n      and\n        /* \"contracts/dETH.sol\":6362:6400  OwnershipTransferred(_owner, newOwner) */\n      0xffffffffffffffffffffffffffffffffffffffff\n      and\n      0x8be0079c531659141344cd1fd0a4f28419497f9722a3daafe3b4186f6b6457e0\n      mload(0x40)\n      mload(0x40)\n      dup1\n      swap2\n      sub\n      swap1\n      log3\n        /* \"contracts/dETH.sol\":6420:6428  newOwner */\n      dup1\n        /* \"contracts/dETH.sol\":6411:6417  _owner */\n      0x00\n      dup1\n        /* \"contracts/dETH.sol\":6411:6428  _owner = newOwner */\n      0x0100\n      exp\n      dup2\n      sload\n      dup2\n      0xffffffffffffffffffffffffffffffffffffffff\n      mul\n      not\n      and\n      swap1\n      dup4\n      0xffffffffffffffffffffffffffffffffffffffff\n      and\n      mul\n      or\n      swap1\n      sstore\n      pop\n        /* \"contracts/dETH.sol\":6192:6436  function transferOwnership(address newOwner) public virtual onlyOwner {\r... */\n      pop\n      jump\t// out\n        /* \"contracts/dETH.sol\":32070:32394  function _removeSniper(address account) external onlyOwner() {\r... */\n    tag_199:\n        /* \"contracts/dETH.sol\":5959:5971  _msgSender() */\n      tag_355\n        /* \"contracts/dETH.sol\":5959:5969  _msgSender */\n      tag_202\n        /* \"contracts/dETH.sol\":5959:5971  _msgSender() */\n      jump\t// in\n    tag_355:\n        /* \"contracts/dETH.sol\":5949:5971  _owner == _msgSender() */\n      0xffffffffffffffffffffffffffffffffffffffff\n      and\n        /* \"contracts/dETH.sol\":5949:5955  _owner */\n      0x00\n      dup1\n      sload\n      swap1\n      0x0100\n      exp\n      swap1\n      div\n      0xffffffffffffffffffffffffffffffffffffffff\n      and\n        /* \"contracts/dETH.sol\":5949:5971  _owner == _msgSender() */\n      0xffffffffffffffffffffffffffffffffffffffff\n      and\n      eq\n        /* \"contracts/dETH.sol\":5941:6008  require(_owner == _msgSender(), \"Ownable: caller is not the owner\") */\n      tag_356\n      jumpi\n      mload(0x40)\n      0x08c379a000000000000000000000000000000000000000000000000000000000\n      dup2\n      mstore\n      0x04\n      add\n      dup1\n      dup1\n      0x20\n      add\n      dup3\n      dup2\n      sub\n      dup3\n      mstore\n      0x20\n      dup2\n      mstore\n      0x20\n      add\n      dup1\n      0x4f776e61626c653a2063616c6c6572206973206e6f7420746865206f776e6572\n      dup2\n      mstore\n      pop\n      0x20\n      add\n      swap2\n      pop\n      pop\n      mload(0x40)\n      dup1\n      swap2\n      sub\n      swap1\n      revert\n    tag_356:\n        /* \"contracts/dETH.sol\":32161:32203  0xeC0A7a0C2439E8Cb67b992b12ecd020Ea943c7Be */\n      0xec0a7a0c2439e8cb67b992b12ecd020ea943c7be\n        /* \"contracts/dETH.sol\":32150:32203  account != 0xeC0A7a0C2439E8Cb67b992b12ecd020Ea943c7Be */\n      0xffffffffffffffffffffffffffffffffffffffff\n      and\n        /* \"contracts/dETH.sol\":32150:32157  account */\n      dup2\n        /* \"contracts/dETH.sol\":32150:32203  account != 0xeC0A7a0C2439E8Cb67b992b12ecd020Ea943c7Be */\n      0xffffffffffffffffffffffffffffffffffffffff\n      and\n      eq\n      iszero\n        /* \"contracts/dETH.sol\":32142:32235  require(account != 0xeC0A7a0C2439E8Cb67b992b12ecd020Ea943c7Be, 'We can not blacklist Router') */\n      tag_358\n      jumpi\n      mload(0x40)\n      0x08c379a000000000000000000000000000000000000000000000000000000000\n      dup2\n      mstore\n      0x04\n      add\n      dup1\n      dup1\n      0x20\n      add\n      dup3\n      dup2\n      sub\n      dup3\n      mstore\n      0x1b\n      dup2\n      mstore\n      0x20\n      add\n      dup1\n      0x57652063616e206e6f7420626c61636b6c69737420526f757465720000000000\n      dup2\n      mstore\n      pop\n      0x20\n      add\n      swap2\n      pop\n      pop\n      mload(0x40)\n      dup1\n      swap2\n      sub\n      swap1\n      revert\n    tag_358:\n        /* \"contracts/dETH.sol\":32255:32264  _isSniper */\n      0x07\n        /* \"contracts/dETH.sol\":32255:32273  _isSniper[account] */\n      0x00\n        /* \"contracts/dETH.sol\":32265:32272  account */\n      dup3\n        /* \"contracts/dETH.sol\":32255:32273  _isSniper[account] */\n      0xffffffffffffffffffffffffffffffffffffffff\n      and\n      0xffffffffffffffffffffffffffffffffffffffff\n      and\n      dup2\n      mstore\n      0x20\n      add\n      swap1\n      dup2\n      mstore\n      0x20\n      add\n      0x00\n      keccak256\n      0x00\n      swap1\n      sload\n      swap1\n      0x0100\n      exp\n      swap1\n      div\n      0xff\n      and\n        /* \"contracts/dETH.sol\":32254:32273  !_isSniper[account] */\n      iszero\n        /* \"contracts/dETH.sol\":32246:32308  require(!_isSniper[account], \"Account is already blacklisted\") */\n      tag_359\n      jumpi\n      mload(0x40)\n      0x08c379a000000000000000000000000000000000000000000000000000000000\n      dup2\n      mstore\n      0x04\n      add\n      dup1\n      dup1\n      0x20\n      add\n      dup3\n      dup2\n      sub\n      dup3\n      mstore\n      0x1e\n      dup2\n      mstore\n      0x20\n      add\n      dup1\n      0x4163636f756e7420697320616c726561647920626c61636b6c69737465640000\n      dup2\n      mstore\n      pop\n      0x20\n      add\n      swap2\n      pop\n      pop\n      mload(0x40)\n      dup1\n      swap2\n      sub\n      swap1\n      revert\n    tag_359:\n        /* \"contracts/dETH.sol\":32340:32344  true */\n      0x01\n        /* \"contracts/dETH.sol\":32319:32328  _isSniper */\n      0x07\n        /* \"contracts/dETH.sol\":32319:32337  _isSniper[account] */\n      0x00\n        /* \"contracts/dETH.sol\":32329:32336  account */\n      dup4\n        /* \"contracts/dETH.sol\":32319:32337  _isSniper[account] */\n      0xffffffffffffffffffffffffffffffffffffffff\n      and\n      0xffffffffffffffffffffffffffffffffffffffff\n      and\n      dup2\n      mstore\n      0x20\n      add\n      swap1\n      dup2\n      mstore\n      0x20\n      add\n      0x00\n      keccak256\n      0x00\n        /* \"contracts/dETH.sol\":32319:32344  _isSniper[account] = true */\n      0x0100\n      exp\n      dup2\n      sload\n      dup2\n      0xff\n      mul\n      not\n      and\n      swap1\n      dup4\n      iszero\n      iszero\n      mul\n      or\n      swap1\n      sstore\n      pop\n        /* \"contracts/dETH.sol\":32355:32372  _confirmedSnipers */\n      0x08\n        /* \"contracts/dETH.sol\":32378:32385  account */\n      dup2\n        /* \"contracts/dETH.sol\":32355:32386  _confirmedSnipers.push(account) */\n      swap1\n      dup1\n      0x01\n      dup2\n      sload\n      add\n      dup1\n      dup3\n      sstore\n      dup1\n      swap2\n      pop\n      pop\n      0x01\n      swap1\n      sub\n      swap1\n      0x00\n      mstore\n      keccak256(0x00, 0x20)\n      add\n      0x00\n      swap1\n      swap2\n      swap1\n      swap2\n      swap1\n      swap2\n      0x0100\n      exp\n      dup2\n      sload\n      dup2\n      0xffffffffffffffffffffffffffffffffffffffff\n      mul\n      not\n      and\n      swap1\n      dup4\n      0xffffffffffffffffffffffffffffffffffffffff\n      and\n      mul\n      or\n      swap1\n      sstore\n      pop\n        /* \"contracts/dETH.sol\":32070:32394  function _removeSniper(address account) external onlyOwner() {\r... */\n      pop\n      jump\t// out\n        /* \"contracts/dETH.sol\":103:218  function _msgSender() internal view virtual returns (address payable) {\r... */\n    tag_202:\n        /* \"contracts/dETH.sol\":156:171  address payable */\n      0x00\n        /* \"contracts/dETH.sol\":199:209  msg.sender */\n      caller\n        /* \"contracts/dETH.sol\":184:210  return payable(msg.sender) */\n      swap1\n      pop\n        /* \"contracts/dETH.sol\":103:218  function _msgSender() internal view virtual returns (address payable) {\r... */\n      swap1\n      jump\t// out\n        /* \"contracts/dETH.sol\":20854:21191  function _approve(address owner, address spender, uint256 amount) private {\r... */\n    tag_212:\n        /* \"contracts/dETH.sol\":20964:20965  0 */\n      0x00\n        /* \"contracts/dETH.sol\":20947:20966  owner != address(0) */\n      0xffffffffffffffffffffffffffffffffffffffff\n      and\n        /* \"contracts/dETH.sol\":20947:20952  owner */\n      dup4\n        /* \"contracts/dETH.sol\":20947:20966  owner != address(0) */\n      0xffffffffffffffffffffffffffffffffffffffff\n      and\n      eq\n      iszero\n        /* \"contracts/dETH.sol\":20939:21007  require(owner != address(0), \"ERC20: approve from the zero address\") */\n      tag_363\n      jumpi\n      mload(0x40)\n      0x08c379a000000000000000000000000000000000000000000000000000000000\n      dup2\n      mstore\n      0x04\n      add\n      dup1\n      dup1\n      0x20\n      add\n      dup3\n      dup2\n      sub\n      dup3\n      mstore\n      0x24\n      dup2\n      mstore\n      0x20\n      add\n      dup1\n      data_c953f4879035ed60e766b34720f656aab5c697b141d924c283124ecedb91c208\n      0x24\n      swap2\n      codecopy\n      0x40\n      add\n      swap2\n      pop\n      pop\n      mload(0x40)\n      dup1\n      swap2\n      sub\n      swap1\n      revert\n    tag_363:\n        /* \"contracts/dETH.sol\":21045:21046  0 */\n      0x00\n        /* \"contracts/dETH.sol\":21026:21047  spender != address(0) */\n      0xffffffffffffffffffffffffffffffffffffffff\n      and\n        /* \"contracts/dETH.sol\":21026:21033  spender */\n      dup3\n        /* \"contracts/dETH.sol\":21026:21047  spender != address(0) */\n      0xffffffffffffffffffffffffffffffffffffffff\n      and\n      eq\n      iszero\n        /* \"contracts/dETH.sol\":21018:21086  require(spender != address(0), \"ERC20: approve to the zero address\") */\n      tag_364\n      jumpi\n      mload(0x40)\n      0x08c379a000000000000000000000000000000000000000000000000000000000\n      dup2\n      mstore\n      0x04\n      add\n      dup1\n      dup1\n      0x20\n      add\n      dup3\n      dup2\n      sub\n      dup3\n      mstore\n      0x22\n      dup2\n      mstore\n      0x20\n      add\n      dup1\n      data_24883cc5fe64ace9d0df1893501ecb93c77180f0ff69cca79affb3c316dc8029\n      0x22\n      swap2\n      codecopy\n      0x40\n      add\n      swap2\n      pop\n      pop\n      mload(0x40)\n      dup1\n      swap2\n      sub\n      swap1\n      revert\n    tag_364:\n        /* \"contracts/dETH.sol\":21129:21135  amount */\n      dup1\n        /* \"contracts/dETH.sol\":21099:21110  _allowances */\n      0x06\n        /* \"contracts/dETH.sol\":21099:21117  _allowances[owner] */\n      0x00\n        /* \"contracts/dETH.sol\":21111:21116  owner */\n      dup6\n        /* \"contracts/dETH.sol\":21099:21117  _allowances[owner] */\n      0xffffffffffffffffffffffffffffffffffffffff\n      and\n      0xffffffffffffffffffffffffffffffffffffffff\n      and\n      dup2\n      mstore\n      0x20\n      add\n      swap1\n      dup2\n      mstore\n      0x20\n      add\n      0x00\n      keccak256\n        /* \"contracts/dETH.sol\":21099:21126  _allowances[owner][spender] */\n      0x00\n        /* \"contracts/dETH.sol\":21118:21125  spender */\n      dup5\n        /* \"contracts/dETH.sol\":21099:21126  _allowances[owner][spender] */\n      0xffffffffffffffffffffffffffffffffffffffff\n      and\n      0xffffffffffffffffffffffffffffffffffffffff\n      and\n      dup2\n      mstore\n      0x20\n      add\n      swap1\n      dup2\n      mstore\n      0x20\n      add\n      0x00\n      keccak256\n        /* \"contracts/dETH.sol\":21099:21135  _allowances[owner][spender] = amount */\n      dup2\n      swap1\n      sstore\n      pop\n        /* \"contracts/dETH.sol\":21167:21174  spender */\n      dup2\n        /* \"contracts/dETH.sol\":21151:21183  Approval(owner, spender, amount) */\n      0xffffffffffffffffffffffffffffffffffffffff\n      and\n        /* \"contracts/dETH.sol\":21160:21165  owner */\n      dup4\n        /* \"contracts/dETH.sol\":21151:21183  Approval(owner, spender, amount) */\n      0xffffffffffffffffffffffffffffffffffffffff\n      and\n      0x8c5be1e5ebec7d5bd14f71427d1e84f3dd0314c0f7b2291e5b200ac8c7c3b925\n        /* \"contracts/dETH.sol\":21176:21182  amount */\n      dup4\n        /* \"contracts/dETH.sol\":21151:21183  Approval(owner, spender, amount) */\n      mload(0x40)\n      dup1\n      dup3\n      dup2\n      mstore\n      0x20\n      add\n      swap2\n      pop\n      pop\n      mload(0x40)\n      dup1\n      swap2\n      sub\n      swap1\n      log3\n        /* \"contracts/dETH.sol\":20854:21191  function _approve(address owner, address spender, uint256 amount) private {\r... */\n      pop\n      pop\n      pop\n      jump\t// out\n        /* \"contracts/dETH.sol\":21199:22810  function _transfer(\r... */\n    tag_217:\n        /* \"contracts/dETH.sol\":21337:21338  0 */\n      0x00\n        /* \"contracts/dETH.sol\":21321:21339  from != address(0) */\n      0xffffffffffffffffffffffffffffffffffffffff\n      and\n        /* \"contracts/dETH.sol\":21321:21325  from */\n      dup4\n        /* \"contracts/dETH.sol\":21321:21339  from != address(0) */\n      0xffffffffffffffffffffffffffffffffffffffff\n      and\n      eq\n      iszero\n        /* \"contracts/dETH.sol\":21313:21381  require(from != address(0), \"ERC20: transfer from the zero address\") */\n      tag_366\n      jumpi\n      mload(0x40)\n      0x08c379a000000000000000000000000000000000000000000000000000000000\n      dup2\n      mstore\n      0x04\n      add\n      dup1\n      dup1\n      0x20\n      add\n      dup3\n      dup2\n      sub\n      dup3\n      mstore\n      0x25\n      dup2\n      mstore\n      0x20\n      add\n      dup1\n      data_baecc556b46f4ed0f2b4cb599d60785ac8563dd2dc0a5bf12edea1c39e5e1fea\n      0x25\n      swap2\n      codecopy\n      0x40\n      add\n      swap2\n      pop\n      pop\n      mload(0x40)\n      dup1\n      swap2\n      sub\n      swap1\n      revert\n    tag_366:\n        /* \"contracts/dETH.sol\":21414:21415  0 */\n      0x00\n        /* \"contracts/dETH.sol\":21400:21416  to != address(0) */\n      0xffffffffffffffffffffffffffffffffffffffff\n      and\n        /* \"contracts/dETH.sol\":21400:21402  to */\n      dup3\n        /* \"contracts/dETH.sol\":21400:21416  to != address(0) */\n      0xffffffffffffffffffffffffffffffffffffffff\n      and\n      eq\n      iszero\n        /* \"contracts/dETH.sol\":21392:21456  require(to != address(0), \"ERC20: transfer to the zero address\") */\n      tag_367\n      jumpi\n      mload(0x40)\n      0x08c379a000000000000000000000000000000000000000000000000000000000\n      dup2\n      mstore\n      0x04\n      add\n      dup1\n      dup1\n      0x20\n      add\n      dup3\n      dup2\n      sub\n      dup3\n      mstore\n      0x23\n      dup2\n      mstore\n      0x20\n      add\n      dup1\n      data_0557e210f7a69a685100a7e4e3d0a7024c546085cee28910fd17d0b081d9516f\n      0x23\n      swap2\n      codecopy\n      0x40\n      add\n      swap2\n      pop\n      pop\n      mload(0x40)\n      dup1\n      swap2\n      sub\n      swap1\n      revert\n    tag_367:\n        /* \"contracts/dETH.sol\":21484:21485  0 */\n      0x00\n        /* \"contracts/dETH.sol\":21475:21481  amount */\n      dup2\n        /* \"contracts/dETH.sol\":21475:21485  amount > 0 */\n      gt\n        /* \"contracts/dETH.sol\":21467:21531  require(amount > 0, \"Transfer amount must be greater than zero\") */\n      tag_368\n      jumpi\n      mload(0x40)\n      0x08c379a000000000000000000000000000000000000000000000000000000000\n      dup2\n      mstore\n      0x04\n      add\n      dup1\n      dup1\n      0x20\n      add\n      dup3\n      dup2\n      sub\n      dup3\n      mstore\n      0x29\n      dup2\n      mstore\n      0x20\n      add\n      dup1\n      data_9edb5ab58321f35d2386ea65721c9b107daa2c273610fc16d394af2a320ba785\n      0x29\n      swap2\n      codecopy\n      0x40\n      add\n      swap2\n      pop\n      pop\n      mload(0x40)\n      dup1\n      swap2\n      sub\n      swap1\n      revert\n    tag_368:\n        /* \"contracts/dETH.sol\":21551:21560  _isSniper */\n      0x07\n        /* \"contracts/dETH.sol\":21551:21564  _isSniper[to] */\n      0x00\n        /* \"contracts/dETH.sol\":21561:21563  to */\n      dup4\n        /* \"contracts/dETH.sol\":21551:21564  _isSniper[to] */\n      0xffffffffffffffffffffffffffffffffffffffff\n      and\n      0xffffffffffffffffffffffffffffffffffffffff\n      and\n      dup2\n      mstore\n      0x20\n      add\n      swap1\n      dup2\n      mstore\n      0x20\n      add\n      0x00\n      keccak256\n      0x00\n      swap1\n      sload\n      swap1\n      0x0100\n      exp\n      swap1\n      div\n      0xff\n      and\n        /* \"contracts/dETH.sol\":21550:21564  !_isSniper[to] */\n      iszero\n        /* \"contracts/dETH.sol\":21542:21592  require(!_isSniper[to], \"You have no power here!\") */\n      tag_369\n      jumpi\n      mload(0x40)\n      0x08c379a000000000000000000000000000000000000000000000000000000000\n      dup2\n      mstore\n      0x04\n      add\n      dup1\n      dup1\n      0x20\n      add\n      dup3\n      dup2\n      sub\n      dup3\n      mstore\n      0x17\n      dup2\n      mstore\n      0x20\n      add\n      dup1\n      0x596f752068617665206e6f20706f776572206865726521000000000000000000\n      dup2\n      mstore\n      pop\n      0x20\n      add\n      swap2\n      pop\n      pop\n      mload(0x40)\n      dup1\n      swap2\n      sub\n      swap1\n      revert\n    tag_369:\n        /* \"contracts/dETH.sol\":21612:21621  _isSniper */\n      0x07\n        /* \"contracts/dETH.sol\":21612:21633  _isSniper[msg.sender] */\n      0x00\n        /* \"contracts/dETH.sol\":21622:21632  msg.sender */\n      caller\n        /* \"contracts/dETH.sol\":21612:21633  _isSniper[msg.sender] */\n      0xffffffffffffffffffffffffffffffffffffffff\n      and\n      0xffffffffffffffffffffffffffffffffffffffff\n      and\n      dup2\n      mstore\n      0x20\n      add\n      swap1\n      dup2\n      mstore\n      0x20\n      add\n      0x00\n      keccak256\n      0x00\n      swap1\n      sload\n      swap1\n      0x0100\n      exp\n      swap1\n      div\n      0xff\n      and\n        /* \"contracts/dETH.sol\":21611:21633  !_isSniper[msg.sender] */\n      iszero\n        /* \"contracts/dETH.sol\":21603:21661  require(!_isSniper[msg.sender], \"You have no power here!\") */\n      tag_370\n      jumpi\n      mload(0x40)\n      0x08c379a000000000000000000000000000000000000000000000000000000000\n      dup2\n      mstore\n      0x04\n      add\n      dup1\n      dup1\n      0x20\n      add\n      dup3\n      dup2\n      sub\n      dup3\n      mstore\n      0x17\n      dup2\n      mstore\n      0x20\n      add\n      dup1\n      0x596f752068617665206e6f20706f776572206865726521000000000000000000\n      dup2\n      mstore\n      pop\n      0x20\n      add\n      swap2\n      pop\n      pop\n      mload(0x40)\n      dup1\n      swap2\n      sub\n      swap1\n      revert\n    tag_370:\n        /* \"contracts/dETH.sol\":21706:21719  uniswapV2Pair */\n      0x19\n      0x00\n      swap1\n      sload\n      swap1\n      0x0100\n      exp\n      swap1\n      div\n      0xffffffffffffffffffffffffffffffffffffffff\n      and\n        /* \"contracts/dETH.sol\":21698:21719  from == uniswapV2Pair */\n      0xffffffffffffffffffffffffffffffffffffffff\n      and\n        /* \"contracts/dETH.sol\":21698:21702  from */\n      dup4\n        /* \"contracts/dETH.sol\":21698:21719  from == uniswapV2Pair */\n      0xffffffffffffffffffffffffffffffffffffffff\n      and\n      eq\n        /* \"contracts/dETH.sol\":21698:21753  from == uniswapV2Pair && to != address(uniswapV2Router) */\n      dup1\n      iszero\n      tag_371\n      jumpi\n      pop\n        /* \"contracts/dETH.sol\":21737:21752  uniswapV2Router */\n      0x18\n      0x00\n      swap1\n      sload\n      swap1\n      0x0100\n      exp\n      swap1\n      div\n      0xffffffffffffffffffffffffffffffffffffffff\n      and\n        /* \"contracts/dETH.sol\":21723:21753  to != address(uniswapV2Router) */\n      0xffffffffffffffffffffffffffffffffffffffff\n      and\n        /* \"contracts/dETH.sol\":21723:21725  to */\n      dup3\n        /* \"contracts/dETH.sol\":21723:21753  to != address(uniswapV2Router) */\n      0xffffffffffffffffffffffffffffffffffffffff\n      and\n      eq\n      iszero\n        /* \"contracts/dETH.sol\":21698:21753  from == uniswapV2Pair && to != address(uniswapV2Router) */\n    tag_371:\n        /* \"contracts/dETH.sol\":21698:21780  from == uniswapV2Pair && to != address(uniswapV2Router) && !_isExcludedFromFee[to] */\n      dup1\n      iszero\n      tag_372\n      jumpi\n      pop\n        /* \"contracts/dETH.sol\":21758:21776  _isExcludedFromFee */\n      0x09\n        /* \"contracts/dETH.sol\":21758:21780  _isExcludedFromFee[to] */\n      0x00\n        /* \"contracts/dETH.sol\":21777:21779  to */\n      dup4\n        /* \"contracts/dETH.sol\":21758:21780  _isExcludedFromFee[to] */\n      0xffffffffffffffffffffffffffffffffffffffff\n      and\n      0xffffffffffffffffffffffffffffffffffffffff\n      and\n      dup2\n      mstore\n      0x20\n      add\n      swap1\n      dup2\n      mstore\n      0x20\n      add\n      0x00\n      keccak256\n      0x00\n      swap1\n      sload\n      swap1\n      0x0100\n      exp\n      swap1\n      div\n      0xff\n      and\n        /* \"contracts/dETH.sol\":21757:21780  !_isExcludedFromFee[to] */\n      iszero\n        /* \"contracts/dETH.sol\":21698:21780  from == uniswapV2Pair && to != address(uniswapV2Router) && !_isExcludedFromFee[to] */\n    tag_372:\n        /* \"contracts/dETH.sol\":21694:22031  if (from == uniswapV2Pair && to != address(uniswapV2Router) && !_isExcludedFromFee[to]) {\r... */\n      iszero\n      tag_373\n      jumpi\n        /* \"contracts/dETH.sol\":21805:21816  tradingOpen */\n      0x19\n      0x15\n      swap1\n      sload\n      swap1\n      0x0100\n      exp\n      swap1\n      div\n      0xff\n      and\n        /* \"contracts/dETH.sol\":21797:21845  require(tradingOpen, \"Trading not yet enabled.\") */\n      tag_374\n      jumpi\n      mload(0x40)\n      0x08c379a000000000000000000000000000000000000000000000000000000000\n      dup2\n      mstore\n      0x04\n      add\n      dup1\n      dup1\n      0x20\n      add\n      dup3\n      dup2\n      sub\n      dup3\n      mstore\n      0x18\n      dup2\n      mstore\n      0x20\n      add\n      dup1\n      0x54726164696e67206e6f742079657420656e61626c65642e0000000000000000\n      dup2\n      mstore\n      pop\n      0x20\n      add\n      swap2\n      pop\n      pop\n      mload(0x40)\n      dup1\n      swap2\n      sub\n      swap1\n      revert\n    tag_374:\n        /* \"contracts/dETH.sol\":21908:21918  launchTime */\n      sload(0x17)\n        /* \"contracts/dETH.sol\":21889:21904  block.timestamp */\n      timestamp\n        /* \"contracts/dETH.sol\":21889:21918  block.timestamp == launchTime */\n      eq\n        /* \"contracts/dETH.sol\":21885:22020  if (block.timestamp == launchTime) {\r... */\n      iszero\n      tag_375\n      jumpi\n        /* \"contracts/dETH.sol\":21955:21959  true */\n      0x01\n        /* \"contracts/dETH.sol\":21939:21948  _isSniper */\n      0x07\n        /* \"contracts/dETH.sol\":21939:21952  _isSniper[to] */\n      0x00\n        /* \"contracts/dETH.sol\":21949:21951  to */\n      dup5\n        /* \"contracts/dETH.sol\":21939:21952  _isSniper[to] */\n      0xffffffffffffffffffffffffffffffffffffffff\n      and\n      0xffffffffffffffffffffffffffffffffffffffff\n      and\n      dup2\n      mstore\n      0x20\n      add\n      swap1\n      dup2\n      mstore\n      0x20\n      add\n      0x00\n      keccak256\n      0x00\n        /* \"contracts/dETH.sol\":21939:21959  _isSniper[to] = true */\n      0x0100\n      exp\n      dup2\n      sload\n      dup2\n      0xff\n      mul\n      not\n      and\n      swap1\n      dup4\n      iszero\n      iszero\n      mul\n      or\n      swap1\n      sstore\n      pop\n        /* \"contracts/dETH.sol\":21978:21995  _confirmedSnipers */\n      0x08\n        /* \"contracts/dETH.sol\":22001:22003  to */\n      dup3\n        /* \"contracts/dETH.sol\":21978:22004  _confirmedSnipers.push(to) */\n      swap1\n      dup1\n      0x01\n      dup2\n      sload\n      add\n      dup1\n      dup3\n      sstore\n      dup1\n      swap2\n      pop\n      pop\n      0x01\n      swap1\n      sub\n      swap1\n      0x00\n      mstore\n      keccak256(0x00, 0x20)\n      add\n      0x00\n      swap1\n      swap2\n      swap1\n      swap2\n      swap1\n      swap2\n      0x0100\n      exp\n      dup2\n      sload\n      dup2\n      0xffffffffffffffffffffffffffffffffffffffff\n      mul\n      not\n      and\n      swap1\n      dup4\n      0xffffffffffffffffffffffffffffffffffffffff\n      and\n      mul\n      or\n      swap1\n      sstore\n      pop\n        /* \"contracts/dETH.sol\":21885:22020  if (block.timestamp == launchTime) {\r... */\n    tag_375:\n        /* \"contracts/dETH.sol\":21694:22031  if (from == uniswapV2Pair && to != address(uniswapV2Router) && !_isExcludedFromFee[to]) {\r... */\n    tag_373:\n        /* \"contracts/dETH.sol\":22045:22073  uint256 contractTokenBalance */\n      0x00\n        /* \"contracts/dETH.sol\":22076:22100  balanceOf(address(this)) */\n      tag_377\n        /* \"contracts/dETH.sol\":22094:22098  this */\n      address\n        /* \"contracts/dETH.sol\":22076:22085  balanceOf */\n      tag_138\n        /* \"contracts/dETH.sol\":22076:22100  balanceOf(address(this)) */\n      jump\t// in\n    tag_377:\n        /* \"contracts/dETH.sol\":22045:22100  uint256 contractTokenBalance = balanceOf(address(this)) */\n      swap1\n      pop\n        /* \"contracts/dETH.sol\":22132:22148  inSwapAndLiquify */\n      0x19\n      0x14\n      swap1\n      sload\n      swap1\n      0x0100\n      exp\n      swap1\n      div\n      0xff\n      and\n        /* \"contracts/dETH.sol\":22131:22148  !inSwapAndLiquify */\n      iszero\n        /* \"contracts/dETH.sol\":22131:22163  !inSwapAndLiquify && tradingOpen */\n      dup1\n      iszero\n      tag_378\n      jumpi\n      pop\n        /* \"contracts/dETH.sol\":22152:22163  tradingOpen */\n      0x19\n      0x15\n      swap1\n      sload\n      swap1\n      0x0100\n      exp\n      swap1\n      div\n      0xff\n      and\n        /* \"contracts/dETH.sol\":22131:22163  !inSwapAndLiquify && tradingOpen */\n    tag_378:\n        /* \"contracts/dETH.sol\":22131:22186  !inSwapAndLiquify && tradingOpen && to == uniswapV2Pair */\n      dup1\n      iszero\n      tag_379\n      jumpi\n      pop\n        /* \"contracts/dETH.sol\":22173:22186  uniswapV2Pair */\n      0x19\n      0x00\n      swap1\n      sload\n      swap1\n      0x0100\n      exp\n      swap1\n      div\n      0xffffffffffffffffffffffffffffffffffffffff\n      and\n        /* \"contracts/dETH.sol\":22167:22186  to == uniswapV2Pair */\n      0xffffffffffffffffffffffffffffffffffffffff\n      and\n        /* \"contracts/dETH.sol\":22167:22169  to */\n      dup4\n        /* \"contracts/dETH.sol\":22167:22186  to == uniswapV2Pair */\n      0xffffffffffffffffffffffffffffffffffffffff\n      and\n      eq\n        /* \"contracts/dETH.sol\":22131:22186  !inSwapAndLiquify && tradingOpen && to == uniswapV2Pair */\n    tag_379:\n        /* \"contracts/dETH.sol\":22127:22520  if (!inSwapAndLiquify && tradingOpen && to == uniswapV2Pair) {\r... */\n      iszero\n      tag_380\n      jumpi\n        /* \"contracts/dETH.sol\":22230:22231  0 */\n      0x00\n        /* \"contracts/dETH.sol\":22207:22227  contractTokenBalance */\n      dup2\n        /* \"contracts/dETH.sol\":22207:22231  contractTokenBalance > 0 */\n      gt\n        /* \"contracts/dETH.sol\":22203:22507  if (contractTokenBalance > 0) {\r... */\n      iszero\n      tag_381\n      jumpi\n        /* \"contracts/dETH.sol\":22279:22326  balanceOf(uniswapV2Pair).mul(_feeRate).div(100) */\n      tag_382\n        /* \"contracts/dETH.sol\":22322:22325  100 */\n      0x64\n        /* \"contracts/dETH.sol\":22279:22317  balanceOf(uniswapV2Pair).mul(_feeRate) */\n      tag_383\n        /* \"contracts/dETH.sol\":22308:22316  _feeRate */\n      sload(0x16)\n        /* \"contracts/dETH.sol\":22279:22303  balanceOf(uniswapV2Pair) */\n      tag_384\n        /* \"contracts/dETH.sol\":22289:22302  uniswapV2Pair */\n      0x19\n      0x00\n      swap1\n      sload\n      swap1\n      0x0100\n      exp\n      swap1\n      div\n      0xffffffffffffffffffffffffffffffffffffffff\n      and\n        /* \"contracts/dETH.sol\":22279:22288  balanceOf */\n      tag_138\n        /* \"contracts/dETH.sol\":22279:22303  balanceOf(uniswapV2Pair) */\n      jump\t// in\n    tag_384:\n        /* \"contracts/dETH.sol\":22279:22307  balanceOf(uniswapV2Pair).mul */\n      tag_385\n      swap1\n        /* \"contracts/dETH.sol\":22279:22317  balanceOf(uniswapV2Pair).mul(_feeRate) */\n      swap2\n      swap1\n      0xffffffff\n      and\n      jump\t// in\n    tag_383:\n        /* \"contracts/dETH.sol\":22279:22321  balanceOf(uniswapV2Pair).mul(_feeRate).div */\n      tag_228\n      swap1\n        /* \"contracts/dETH.sol\":22279:22326  balanceOf(uniswapV2Pair).mul(_feeRate).div(100) */\n      swap2\n      swap1\n      0xffffffff\n      and\n      jump\t// in\n    tag_382:\n        /* \"contracts/dETH.sol\":22256:22276  contractTokenBalance */\n      dup2\n        /* \"contracts/dETH.sol\":22256:22326  contractTokenBalance > balanceOf(uniswapV2Pair).mul(_feeRate).div(100) */\n      gt\n        /* \"contracts/dETH.sol\":22252:22441  if (contractTokenBalance > balanceOf(uniswapV2Pair).mul(_feeRate).div(100)) {\r... */\n      iszero\n      tag_386\n      jumpi\n        /* \"contracts/dETH.sol\":22374:22421  balanceOf(uniswapV2Pair).mul(_feeRate).div(100) */\n      tag_387\n        /* \"contracts/dETH.sol\":22417:22420  100 */\n      0x64\n        /* \"contracts/dETH.sol\":22374:22412  balanceOf(uniswapV2Pair).mul(_feeRate) */\n      tag_388\n        /* \"contracts/dETH.sol\":22403:22411  _feeRate */\n      sload(0x16)\n        /* \"contracts/dETH.sol\":22374:22398  balanceOf(uniswapV2Pair) */\n      tag_389\n        /* \"contracts/dETH.sol\":22384:22397  uniswapV2Pair */\n      0x19\n      0x00\n      swap1\n      sload\n      swap1\n      0x0100\n      exp\n      swap1\n      div\n      0xffffffffffffffffffffffffffffffffffffffff\n      and\n        /* \"contracts/dETH.sol\":22374:22383  balanceOf */\n      tag_138\n        /* \"contracts/dETH.sol\":22374:22398  balanceOf(uniswapV2Pair) */\n      jump\t// in\n    tag_389:\n        /* \"contracts/dETH.sol\":22374:22402  balanceOf(uniswapV2Pair).mul */\n      tag_385\n      swap1\n        /* \"contracts/dETH.sol\":22374:22412  balanceOf(uniswapV2Pair).mul(_feeRate) */\n      swap2\n      swap1\n      0xffffffff\n      and\n      jump\t// in\n    tag_388:\n        /* \"contracts/dETH.sol\":22374:22416  balanceOf(uniswapV2Pair).mul(_feeRate).div */\n      tag_228\n      swap1\n        /* \"contracts/dETH.sol\":22374:22421  balanceOf(uniswapV2Pair).mul(_feeRate).div(100) */\n      swap2\n      swap1\n      0xffffffff\n      and\n      jump\t// in\n    tag_387:\n        /* \"contracts/dETH.sol\":22351:22421  contractTokenBalance = balanceOf(uniswapV2Pair).mul(_feeRate).div(100) */\n      swap1\n      pop\n        /* \"contracts/dETH.sol\":22252:22441  if (contractTokenBalance > balanceOf(uniswapV2Pair).mul(_feeRate).div(100)) {\r... */\n    tag_386:\n        /* \"contracts/dETH.sol\":22459:22491  swapTokens(contractTokenBalance) */\n      tag_390\n        /* \"contracts/dETH.sol\":22470:22490  contractTokenBalance */\n      dup2\n        /* \"contracts/dETH.sol\":22459:22469  swapTokens */\n      tag_391\n        /* \"contracts/dETH.sol\":22459:22491  swapTokens(contractTokenBalance) */\n      jump\t// in\n    tag_390:\n        /* \"contracts/dETH.sol\":22203:22507  if (contractTokenBalance > 0) {\r... */\n    tag_381:\n        /* \"contracts/dETH.sol\":22127:22520  if (!inSwapAndLiquify && tradingOpen && to == uniswapV2Pair) {\r... */\n    tag_380:\n        /* \"contracts/dETH.sol\":22532:22544  bool takeFee */\n      0x00\n        /* \"contracts/dETH.sol\":22612:22625  uniswapV2Pair */\n      0x19\n      0x00\n      swap1\n      sload\n      swap1\n      0x0100\n      exp\n      swap1\n      div\n      0xffffffffffffffffffffffffffffffffffffffff\n      and\n        /* \"contracts/dETH.sol\":22604:22625  from == uniswapV2Pair */\n      0xffffffffffffffffffffffffffffffffffffffff\n      and\n        /* \"contracts/dETH.sol\":22604:22608  from */\n      dup6\n        /* \"contracts/dETH.sol\":22604:22625  from == uniswapV2Pair */\n      0xffffffffffffffffffffffffffffffffffffffff\n      and\n      eq\n        /* \"contracts/dETH.sol\":22604:22648  from == uniswapV2Pair || to == uniswapV2Pair */\n      dup1\n      tag_392\n      jumpi\n      pop\n        /* \"contracts/dETH.sol\":22635:22648  uniswapV2Pair */\n      0x19\n      0x00\n      swap1\n      sload\n      swap1\n      0x0100\n      exp\n      swap1\n      div\n      0xffffffffffffffffffffffffffffffffffffffff\n      and\n        /* \"contracts/dETH.sol\":22629:22648  to == uniswapV2Pair */\n      0xffffffffffffffffffffffffffffffffffffffff\n      and\n        /* \"contracts/dETH.sol\":22629:22631  to */\n      dup5\n        /* \"contracts/dETH.sol\":22629:22648  to == uniswapV2Pair */\n      0xffffffffffffffffffffffffffffffffffffffff\n      and\n      eq\n        /* \"contracts/dETH.sol\":22604:22648  from == uniswapV2Pair || to == uniswapV2Pair */\n    tag_392:\n        /* \"contracts/dETH.sol\":22603:22706  (from == uniswapV2Pair || to == uniswapV2Pair) && !(_isExcludedFromFee[from] || _isExcludedFromFee[to]) */\n      dup1\n      iszero\n      tag_393\n      jumpi\n      pop\n        /* \"contracts/dETH.sol\":22655:22673  _isExcludedFromFee */\n      0x09\n        /* \"contracts/dETH.sol\":22655:22679  _isExcludedFromFee[from] */\n      0x00\n        /* \"contracts/dETH.sol\":22674:22678  from */\n      dup7\n        /* \"contracts/dETH.sol\":22655:22679  _isExcludedFromFee[from] */\n      0xffffffffffffffffffffffffffffffffffffffff\n      and\n      0xffffffffffffffffffffffffffffffffffffffff\n      and\n      dup2\n      mstore\n      0x20\n      add\n      swap1\n      dup2\n      mstore\n      0x20\n      add\n      0x00\n      keccak256\n      0x00\n      swap1\n      sload\n      swap1\n      0x0100\n      exp\n      swap1\n      div\n      0xff\n      and\n        /* \"contracts/dETH.sol\":22655:22705  _isExcludedFromFee[from] || _isExcludedFromFee[to] */\n      dup1\n      tag_394\n      jumpi\n      pop\n        /* \"contracts/dETH.sol\":22683:22701  _isExcludedFromFee */\n      0x09\n        /* \"contracts/dETH.sol\":22683:22705  _isExcludedFromFee[to] */\n      0x00\n        /* \"contracts/dETH.sol\":22702:22704  to */\n      dup6\n        /* \"contracts/dETH.sol\":22683:22705  _isExcludedFromFee[to] */\n      0xffffffffffffffffffffffffffffffffffffffff\n      and\n      0xffffffffffffffffffffffffffffffffffffffff\n      and\n      dup2\n      mstore\n      0x20\n      add\n      swap1\n      dup2\n      mstore\n      0x20\n      add\n      0x00\n      keccak256\n      0x00\n      swap1\n      sload\n      swap1\n      0x0100\n      exp\n      swap1\n      div\n      0xff\n      and\n        /* \"contracts/dETH.sol\":22655:22705  _isExcludedFromFee[from] || _isExcludedFromFee[to] */\n    tag_394:\n        /* \"contracts/dETH.sol\":22653:22706  !(_isExcludedFromFee[from] || _isExcludedFromFee[to]) */\n      iszero\n        /* \"contracts/dETH.sol\":22603:22706  (from == uniswapV2Pair || to == uniswapV2Pair) && !(_isExcludedFromFee[from] || _isExcludedFromFee[to]) */\n    tag_393:\n        /* \"contracts/dETH.sol\":22599:22749  if ((from == uniswapV2Pair || to == uniswapV2Pair) && !(_isExcludedFromFee[from] || _isExcludedFromFee[to])) {\r... */\n      iszero\n      tag_395\n      jumpi\n        /* \"contracts/dETH.sol\":22733:22737  true */\n      0x01\n        /* \"contracts/dETH.sol\":22723:22737  takeFee = true */\n      swap1\n      pop\n        /* \"contracts/dETH.sol\":22599:22749  if ((from == uniswapV2Pair || to == uniswapV2Pair) && !(_isExcludedFromFee[from] || _isExcludedFromFee[to])) {\r... */\n    tag_395:\n        /* \"contracts/dETH.sol\":22759:22800  _tokenTransfer(from, to, amount, takeFee) */\n      tag_396\n        /* \"contracts/dETH.sol\":22774:22778  from */\n      dup6\n        /* \"contracts/dETH.sol\":22780:22782  to */\n      dup6\n        /* \"contracts/dETH.sol\":22784:22790  amount */\n      dup6\n        /* \"contracts/dETH.sol\":22792:22799  takeFee */\n      dup5\n        /* \"contracts/dETH.sol\":22759:22773  _tokenTransfer */\n      tag_397\n        /* \"contracts/dETH.sol\":22759:22800  _tokenTransfer(from, to, amount, takeFee) */\n      jump\t// in\n    tag_396:\n        /* \"contracts/dETH.sol\":21199:22810  function _transfer(\r... */\n      pop\n      pop\n      pop\n      pop\n      pop\n      jump\t// out\n        /* \"contracts/dETH.sol\":1529:1721  function sub(uint256 a, uint256 b, string memory errorMessage) internal pure returns (uint256) {\r... */\n    tag_222:\n        /* \"contracts/dETH.sol\":1615:1622  uint256 */\n      0x00\n        /* \"contracts/dETH.sol\":1648:1649  a */\n      dup4\n        /* \"contracts/dETH.sol\":1643:1644  b */\n      dup4\n        /* \"contracts/dETH.sol\":1643:1649  b <= a */\n      gt\n      iszero\n        /* \"contracts/dETH.sol\":1651:1663  errorMessage */\n      dup3\n        /* \"contracts/dETH.sol\":1635:1664  require(b <= a, errorMessage) */\n      swap1\n      tag_399\n      jumpi\n      mload(0x40)\n      0x08c379a000000000000000000000000000000000000000000000000000000000\n      dup2\n      mstore\n      0x04\n      add\n      dup1\n      dup1\n      0x20\n      add\n      dup3\n      dup2\n      sub\n      dup3\n      mstore\n      dup4\n      dup2\n      dup2\n      mload\n      dup2\n      mstore\n      0x20\n      add\n      swap2\n      pop\n      dup1\n      mload\n      swap1\n      0x20\n      add\n      swap1\n      dup1\n      dup4\n      dup4\n      0x00\n    tag_400:\n      dup4\n      dup2\n      lt\n      iszero\n      tag_402\n      jumpi\n      dup1\n      dup3\n      add\n      mload\n      dup2\n      dup5\n      add\n      mstore\n      0x20\n      dup2\n      add\n      swap1\n      pop\n      jump(tag_400)\n    tag_402:\n      pop\n      pop\n      pop\n      pop\n      swap1\n      pop\n      swap1\n      dup2\n      add\n      swap1\n      0x1f\n      and\n      dup1\n      iszero\n      tag_403\n      jumpi\n      dup1\n      dup3\n      sub\n      dup1\n      mload\n      0x01\n      dup4\n      0x20\n      sub\n      0x0100\n      exp\n      sub\n      not\n      and\n      dup2\n      mstore\n      0x20\n      add\n      swap2\n      pop\n    tag_403:\n      pop\n      swap3\n      pop\n      pop\n      pop\n      mload(0x40)\n      dup1\n      swap2\n      sub\n      swap1\n      revert\n    tag_399:\n      pop\n        /* \"contracts/dETH.sol\":1675:1684  uint256 c */\n      0x00\n        /* \"contracts/dETH.sol\":1691:1692  b */\n      dup4\n        /* \"contracts/dETH.sol\":1687:1688  a */\n      dup6\n        /* \"contracts/dETH.sol\":1687:1692  a - b */\n      sub\n        /* \"contracts/dETH.sol\":1675:1692  uint256 c = a - b */\n      swap1\n      pop\n        /* \"contracts/dETH.sol\":1712:1713  c */\n      dup1\n        /* \"contracts/dETH.sol\":1705:1713  return c */\n      swap2\n      pop\n      pop\n        /* \"contracts/dETH.sol\":1529:1721  function sub(uint256 a, uint256 b, string memory errorMessage) internal pure returns (uint256) {\r... */\n      swap4\n      swap3\n      pop\n      pop\n      pop\n      jump\t// out\n        /* \"contracts/dETH.sol\":29242:29406  function _getRate() private view returns (uint256) {\r... */\n    tag_226:\n        /* \"contracts/dETH.sol\":29284:29291  uint256 */\n      0x00\n        /* \"contracts/dETH.sol\":29305:29320  uint256 rSupply */\n      dup1\n        /* \"contracts/dETH.sol\":29322:29337  uint256 tSupply */\n      0x00\n        /* \"contracts/dETH.sol\":29341:29360  _getCurrentSupply() */\n      tag_405\n        /* \"contracts/dETH.sol\":29341:29358  _getCurrentSupply */\n      tag_406\n        /* \"contracts/dETH.sol\":29341:29360  _getCurrentSupply() */\n      jump\t// in\n    tag_405:\n        /* \"contracts/dETH.sol\":29304:29360  (uint256 rSupply, uint256 tSupply) = _getCurrentSupply() */\n      swap2\n      pop\n      swap2\n      pop\n        /* \"contracts/dETH.sol\":29378:29398  rSupply.div(tSupply) */\n      tag_407\n        /* \"contracts/dETH.sol\":29390:29397  tSupply */\n      dup2\n        /* \"contracts/dETH.sol\":29378:29385  rSupply */\n      dup4\n        /* \"contracts/dETH.sol\":29378:29389  rSupply.div */\n      tag_228\n      swap1\n        /* \"contracts/dETH.sol\":29378:29398  rSupply.div(tSupply) */\n      swap2\n      swap1\n      0xffffffff\n      and\n      jump\t// in\n    tag_407:\n        /* \"contracts/dETH.sol\":29371:29398  return rSupply.div(tSupply) */\n      swap3\n      pop\n      pop\n      pop\n        /* \"contracts/dETH.sol\":29242:29406  function _getRate() private view returns (uint256) {\r... */\n      swap1\n      jump\t// out\n        /* \"contracts/dETH.sol\":1989:2121  function div(uint256 a, uint256 b) internal pure returns (uint256) {\r... */\n    tag_228:\n        /* \"contracts/dETH.sol\":2047:2054  uint256 */\n      0x00\n        /* \"contracts/dETH.sol\":2074:2113  div(a, b, \"SafeMath: division by zero\") */\n      tag_409\n        /* \"contracts/dETH.sol\":2078:2079  a */\n      dup4\n        /* \"contracts/dETH.sol\":2081:2082  b */\n      dup4\n        /* \"contracts/dETH.sol\":2074:2113  div(a, b, \"SafeMath: division by zero\") */\n      mload(0x40)\n      dup1\n      0x40\n      add\n      0x40\n      mstore\n      dup1\n      0x1a\n      dup2\n      mstore\n      0x20\n      add\n      0x536166654d6174683a206469766973696f6e206279207a65726f000000000000\n      dup2\n      mstore\n      pop\n        /* \"contracts/dETH.sol\":2074:2077  div */\n      tag_410\n        /* \"contracts/dETH.sol\":2074:2113  div(a, b, \"SafeMath: division by zero\") */\n      jump\t// in\n    tag_409:\n        /* \"contracts/dETH.sol\":2067:2113  return div(a, b, \"SafeMath: division by zero\") */\n      swap1\n      pop\n        /* \"contracts/dETH.sol\":1989:2121  function div(uint256 a, uint256 b) internal pure returns (uint256) {\r... */\n      swap3\n      swap2\n      pop\n      pop\n      jump\t// out\n        /* \"contracts/dETH.sol\":1196:1377  function add(uint256 a, uint256 b) internal pure returns (uint256) {\r... */\n    tag_269:\n        /* \"contracts/dETH.sol\":1254:1261  uint256 */\n      0x00\n        /* \"contracts/dETH.sol\":1274:1283  uint256 c */\n      dup1\n        /* \"contracts/dETH.sol\":1290:1291  b */\n      dup3\n        /* \"contracts/dETH.sol\":1286:1287  a */\n      dup5\n        /* \"contracts/dETH.sol\":1286:1291  a + b */\n      add\n        /* \"contracts/dETH.sol\":1274:1291  uint256 c = a + b */\n      swap1\n      pop\n        /* \"contracts/dETH.sol\":1315:1316  a */\n      dup4\n        /* \"contracts/dETH.sol\":1310:1311  c */\n      dup2\n        /* \"contracts/dETH.sol\":1310:1316  c >= a */\n      lt\n      iszero\n        /* \"contracts/dETH.sol\":1302:1348  require(c >= a, \"SafeMath: addition overflow\") */\n      tag_412\n      jumpi\n      mload(0x40)\n      0x08c379a000000000000000000000000000000000000000000000000000000000\n      dup2\n      mstore\n      0x04\n      add\n      dup1\n      dup1\n      0x20\n      add\n      dup3\n      dup2\n      sub\n      dup3\n      mstore\n      0x1b\n      dup2\n      mstore\n      0x20\n      add\n      dup1\n      0x536166654d6174683a206164646974696f6e206f766572666c6f770000000000\n      dup2\n      mstore\n      pop\n      0x20\n      add\n      swap2\n      pop\n      pop\n      mload(0x40)\n      dup1\n      swap2\n      sub\n      swap1\n      revert\n    tag_412:\n        /* \"contracts/dETH.sol\":1368:1369  c */\n      dup1\n        /* \"contracts/dETH.sol\":1361:1369  return c */\n      swap2\n      pop\n      pop\n        /* \"contracts/dETH.sol\":1196:1377  function add(uint256 a, uint256 b) internal pure returns (uint256) {\r... */\n      swap3\n      swap2\n      pop\n      pop\n      jump\t// out\n        /* \"contracts/dETH.sol\":28040:28459  function _getValues(uint256 tAmount) private view returns (uint256, uint256, uint256, uint256, uint256, uint256) {\r... */\n    tag_274:\n        /* \"contracts/dETH.sol\":28099:28106  uint256 */\n      0x00\n        /* \"contracts/dETH.sol\":28108:28115  uint256 */\n      dup1\n        /* \"contracts/dETH.sol\":28117:28124  uint256 */\n      0x00\n        /* \"contracts/dETH.sol\":28126:28133  uint256 */\n      dup1\n        /* \"contracts/dETH.sol\":28135:28142  uint256 */\n      0x00\n        /* \"contracts/dETH.sol\":28144:28151  uint256 */\n      dup1\n        /* \"contracts/dETH.sol\":28165:28188  uint256 tTransferAmount */\n      0x00\n        /* \"contracts/dETH.sol\":28190:28202  uint256 tFee */\n      dup1\n        /* \"contracts/dETH.sol\":28204:28222  uint256 tLiquidity */\n      0x00\n        /* \"contracts/dETH.sol\":28226:28246  _getTValues(tAmount) */\n      tag_414\n        /* \"contracts/dETH.sol\":28238:28245  tAmount */\n      dup11\n        /* \"contracts/dETH.sol\":28226:28237  _getTValues */\n      tag_415\n        /* \"contracts/dETH.sol\":28226:28246  _getTValues(tAmount) */\n      jump\t// in\n    tag_414:\n        /* \"contracts/dETH.sol\":28164:28246  (uint256 tTransferAmount, uint256 tFee, uint256 tLiquidity) = _getTValues(tAmount) */\n      swap3\n      pop\n      swap3\n      pop\n      swap3\n      pop\n        /* \"contracts/dETH.sol\":28258:28273  uint256 rAmount */\n      0x00\n        /* \"contracts/dETH.sol\":28275:28298  uint256 rTransferAmount */\n      dup1\n        /* \"contracts/dETH.sol\":28300:28312  uint256 rFee */\n      0x00\n        /* \"contracts/dETH.sol\":28316:28366  _getRValues(tAmount, tFee, tLiquidity, _getRate()) */\n      tag_416\n        /* \"contracts/dETH.sol\":28328:28335  tAmount */\n      dup14\n        /* \"contracts/dETH.sol\":28337:28341  tFee */\n      dup7\n        /* \"contracts/dETH.sol\":28343:28353  tLiquidity */\n      dup7\n        /* \"contracts/dETH.sol\":28355:28365  _getRate() */\n      tag_417\n        /* \"contracts/dETH.sol\":28355:28363  _getRate */\n      tag_226\n        /* \"contracts/dETH.sol\":28355:28365  _getRate() */\n      jump\t// in\n    tag_417:\n        /* \"contracts/dETH.sol\":28316:28327  _getRValues */\n      tag_418\n        /* \"contracts/dETH.sol\":28316:28366  _getRValues(tAmount, tFee, tLiquidity, _getRate()) */\n      jump\t// in\n    tag_416:\n        /* \"contracts/dETH.sol\":28257:28366  (uint256 rAmount, uint256 rTransferAmount, uint256 rFee) = _getRValues(tAmount, tFee, tLiquidity, _getRate()) */\n      swap3\n      pop\n      swap3\n      pop\n      swap3\n      pop\n        /* \"contracts/dETH.sol\":28385:28392  rAmount */\n      dup3\n        /* \"contracts/dETH.sol\":28394:28409  rTransferAmount */\n      dup3\n        /* \"contracts/dETH.sol\":28411:28415  rFee */\n      dup3\n        /* \"contracts/dETH.sol\":28417:28432  tTransferAmount */\n      dup9\n        /* \"contracts/dETH.sol\":28434:28438  tFee */\n      dup9\n        /* \"contracts/dETH.sol\":28440:28450  tLiquidity */\n      dup9\n        /* \"contracts/dETH.sol\":28377:28451  return (rAmount, rTransferAmount, rFee, tTransferAmount, tFee, tLiquidity) */\n      swap12\n      pop\n      swap12\n      pop\n      swap12\n      pop\n      swap12\n      pop\n      swap12\n      pop\n      swap12\n      pop\n      pop\n      pop\n      pop\n      pop\n      pop\n      pop\n        /* \"contracts/dETH.sol\":28040:28459  function _getValues(uint256 tAmount) private view returns (uint256, uint256, uint256, uint256, uint256, uint256) {\r... */\n      swap2\n      swap4\n      swap6\n      pop\n      swap2\n      swap4\n      swap6\n      jump\t// out\n        /* \"contracts/dETH.sol\":1385:1521  function sub(uint256 a, uint256 b) internal pure returns (uint256) {\r... */\n    tag_276:\n        /* \"contracts/dETH.sol\":1443:1450  uint256 */\n      0x00\n        /* \"contracts/dETH.sol\":1470:1513  sub(a, b, \"SafeMath: subtraction overflow\") */\n      tag_420\n        /* \"contracts/dETH.sol\":1474:1475  a */\n      dup4\n        /* \"contracts/dETH.sol\":1477:1478  b */\n      dup4\n        /* \"contracts/dETH.sol\":1470:1513  sub(a, b, \"SafeMath: subtraction overflow\") */\n      mload(0x40)\n      dup1\n      0x40\n      add\n      0x40\n      mstore\n      dup1\n      0x1e\n      dup2\n      mstore\n      0x20\n      add\n      0x536166654d6174683a207375627472616374696f6e206f766572666c6f770000\n      dup2\n      mstore\n      pop\n        /* \"contracts/dETH.sol\":1470:1473  sub */\n      tag_222\n        /* \"contracts/dETH.sol\":1470:1513  sub(a, b, \"SafeMath: subtraction overflow\") */\n      jump\t// in\n    tag_420:\n        /* \"contracts/dETH.sol\":1463:1513  return sub(a, b, \"SafeMath: subtraction overflow\") */\n      swap1\n      pop\n        /* \"contracts/dETH.sol\":1385:1521  function sub(uint256 a, uint256 b) internal pure returns (uint256) {\r... */\n      swap3\n      swap2\n      pop\n      pop\n      jump\t// out\n        /* \"contracts/dETH.sol\":1729:1979  function mul(uint256 a, uint256 b) internal pure returns (uint256) {\r... */\n    tag_385:\n        /* \"contracts/dETH.sol\":1787:1794  uint256 */\n      0x00\n        /* \"contracts/dETH.sol\":1816:1817  0 */\n      dup1\n        /* \"contracts/dETH.sol\":1811:1812  a */\n      dup4\n        /* \"contracts/dETH.sol\":1811:1817  a == 0 */\n      eq\n        /* \"contracts/dETH.sol\":1807:1854  if (a == 0) {\r... */\n      iszero\n      tag_422\n      jumpi\n        /* \"contracts/dETH.sol\":1841:1842  0 */\n      0x00\n        /* \"contracts/dETH.sol\":1834:1842  return 0 */\n      swap1\n      pop\n      jump(tag_421)\n        /* \"contracts/dETH.sol\":1807:1854  if (a == 0) {\r... */\n    tag_422:\n        /* \"contracts/dETH.sol\":1866:1875  uint256 c */\n      0x00\n        /* \"contracts/dETH.sol\":1882:1883  b */\n      dup3\n        /* \"contracts/dETH.sol\":1878:1879  a */\n      dup5\n        /* \"contracts/dETH.sol\":1878:1883  a * b */\n      mul\n        /* \"contracts/dETH.sol\":1866:1883  uint256 c = a * b */\n      swap1\n      pop\n        /* \"contracts/dETH.sol\":1911:1912  b */\n      dup3\n        /* \"contracts/dETH.sol\":1906:1907  a */\n      dup5\n        /* \"contracts/dETH.sol\":1902:1903  c */\n      dup3\n        /* \"contracts/dETH.sol\":1902:1907  c / a */\n      dup2\n      tag_423\n      jumpi\n      invalid\n    tag_423:\n      div\n        /* \"contracts/dETH.sol\":1902:1912  c / a == b */\n      eq\n        /* \"contracts/dETH.sol\":1894:1950  require(c / a == b, \"SafeMath: multiplication overflow\") */\n      tag_424\n      jumpi\n      mload(0x40)\n      0x08c379a000000000000000000000000000000000000000000000000000000000\n      dup2\n      mstore\n      0x04\n      add\n      dup1\n      dup1\n      0x20\n      add\n      dup3\n      dup2\n      sub\n      dup3\n      mstore\n      0x21\n      dup2\n      mstore\n      0x20\n      add\n      dup1\n      data_9113bb53c2876a3805b2c9242029423fc540a728243ce887ab24c82cf119fba3\n      0x21\n      swap2\n      codecopy\n      0x40\n      add\n      swap2\n      pop\n      pop\n      mload(0x40)\n      dup1\n      swap2\n      sub\n      swap1\n      revert\n    tag_424:\n        /* \"contracts/dETH.sol\":1970:1971  c */\n      dup1\n        /* \"contracts/dETH.sol\":1963:1971  return c */\n      swap2\n      pop\n      pop\n        /* \"contracts/dETH.sol\":1729:1979  function mul(uint256 a, uint256 b) internal pure returns (uint256) {\r... */\n    tag_421:\n      swap3\n      swap2\n      pop\n      pop\n      jump\t// out\n        /* \"contracts/dETH.sol\":23100:23495  function swapTokens(uint256 contractTokenBalance) private lockTheSwap {\r... */\n    tag_391:\n        /* \"contracts/dETH.sol\":16046:16050  true */\n      0x01\n        /* \"contracts/dETH.sol\":16027:16043  inSwapAndLiquify */\n      0x19\n      0x14\n        /* \"contracts/dETH.sol\":16027:16050  inSwapAndLiquify = true */\n      0x0100\n      exp\n      dup2\n      sload\n      dup2\n      0xff\n      mul\n      not\n      and\n      swap1\n      dup4\n      iszero\n      iszero\n      mul\n      or\n      swap1\n      sstore\n      pop\n        /* \"contracts/dETH.sol\":23181:23219  swapTokensForEth(contractTokenBalance) */\n      tag_427\n        /* \"contracts/dETH.sol\":23198:23218  contractTokenBalance */\n      dup2\n        /* \"contracts/dETH.sol\":23181:23197  swapTokensForEth */\n      tag_428\n        /* \"contracts/dETH.sol\":23181:23219  swapTokensForEth(contractTokenBalance) */\n      jump\t// in\n    tag_427:\n        /* \"contracts/dETH.sol\":23269:23295  uint256 contractETHBalance */\n      0x00\n        /* \"contracts/dETH.sol\":23298:23319  address(this).balance */\n      selfbalance\n        /* \"contracts/dETH.sol\":23269:23319  uint256 contractETHBalance = address(this).balance */\n      swap1\n      pop\n        /* \"contracts/dETH.sol\":23335:23387  SwapTokens(contractTokenBalance, contractETHBalance) */\n      0x738b737502df4c5f230bbb98a45ea9c2821bad262e880f883357ad3695f8dae4\n        /* \"contracts/dETH.sol\":23346:23366  contractTokenBalance */\n      dup3\n        /* \"contracts/dETH.sol\":23368:23386  contractETHBalance */\n      dup3\n        /* \"contracts/dETH.sol\":23335:23387  SwapTokens(contractTokenBalance, contractETHBalance) */\n      mload(0x40)\n      dup1\n      dup4\n      dup2\n      mstore\n      0x20\n      add\n      dup3\n      dup2\n      mstore\n      0x20\n      add\n      swap3\n      pop\n      pop\n      pop\n      mload(0x40)\n      dup1\n      swap2\n      sub\n      swap1\n      log1\n        /* \"contracts/dETH.sol\":23423:23424  0 */\n      0x00\n        /* \"contracts/dETH.sol\":23402:23420  contractETHBalance */\n      dup2\n        /* \"contracts/dETH.sol\":23402:23424  contractETHBalance > 0 */\n      gt\n        /* \"contracts/dETH.sol\":23398:23488  if (contractETHBalance > 0) {\r... */\n      iszero\n      tag_429\n      jumpi\n        /* \"contracts/dETH.sol\":23441:23476  sendETHToFee(address(this).balance) */\n      tag_430\n        /* \"contracts/dETH.sol\":23454:23475  address(this).balance */\n      selfbalance\n        /* \"contracts/dETH.sol\":23441:23453  sendETHToFee */\n      tag_431\n        /* \"contracts/dETH.sol\":23441:23476  sendETHToFee(address(this).balance) */\n      jump\t// in\n    tag_430:\n        /* \"contracts/dETH.sol\":23398:23488  if (contractETHBalance > 0) {\r... */\n    tag_429:\n        /* \"contracts/dETH.sol\":16061:16062  _ */\n      pop\n        /* \"contracts/dETH.sol\":16092:16097  false */\n      0x00\n        /* \"contracts/dETH.sol\":16073:16089  inSwapAndLiquify */\n      0x19\n      0x14\n        /* \"contracts/dETH.sol\":16073:16097  inSwapAndLiquify = false */\n      0x0100\n      exp\n      dup2\n      sload\n      dup2\n      0xff\n      mul\n      not\n      and\n      swap1\n      dup4\n      iszero\n      iszero\n      mul\n      or\n      swap1\n      sstore\n      pop\n        /* \"contracts/dETH.sol\":23100:23495  function swapTokens(uint256 contractTokenBalance) private lockTheSwap {\r... */\n      pop\n      jump\t// out\n        /* \"contracts/dETH.sol\":24880:25571  function _tokenTransfer(address sender, address recipient, uint256 amount, bool takeFee) private {\r... */\n    tag_397:\n        /* \"contracts/dETH.sol\":24993:25000  takeFee */\n      dup1\n        /* \"contracts/dETH.sol\":24988:25029  if (!takeFee)\r... */\n      tag_433\n      jumpi\n        /* \"contracts/dETH.sol\":25015:25029  removeAllFee() */\n      tag_434\n        /* \"contracts/dETH.sol\":25015:25027  removeAllFee */\n      tag_435\n        /* \"contracts/dETH.sol\":25015:25029  removeAllFee() */\n      jump\t// in\n    tag_434:\n        /* \"contracts/dETH.sol\":24988:25029  if (!takeFee)\r... */\n    tag_433:\n        /* \"contracts/dETH.sol\":25046:25057  _isExcluded */\n      0x0a\n        /* \"contracts/dETH.sol\":25046:25065  _isExcluded[sender] */\n      0x00\n        /* \"contracts/dETH.sol\":25058:25064  sender */\n      dup6\n        /* \"contracts/dETH.sol\":25046:25065  _isExcluded[sender] */\n      0xffffffffffffffffffffffffffffffffffffffff\n      and\n      0xffffffffffffffffffffffffffffffffffffffff\n      and\n      dup2\n      mstore\n      0x20\n      add\n      swap1\n      dup2\n      mstore\n      0x20\n      add\n      0x00\n      keccak256\n      0x00\n      swap1\n      sload\n      swap1\n      0x0100\n      exp\n      swap1\n      div\n      0xff\n      and\n        /* \"contracts/dETH.sol\":25046:25092  _isExcluded[sender] && !_isExcluded[recipient] */\n      dup1\n      iszero\n      tag_436\n      jumpi\n      pop\n        /* \"contracts/dETH.sol\":25070:25081  _isExcluded */\n      0x0a\n        /* \"contracts/dETH.sol\":25070:25092  _isExcluded[recipient] */\n      0x00\n        /* \"contracts/dETH.sol\":25082:25091  recipient */\n      dup5\n        /* \"contracts/dETH.sol\":25070:25092  _isExcluded[recipient] */\n      0xffffffffffffffffffffffffffffffffffffffff\n      and\n      0xffffffffffffffffffffffffffffffffffffffff\n      and\n      dup2\n      mstore\n      0x20\n      add\n      swap1\n      dup2\n      mstore\n      0x20\n      add\n      0x00\n      keccak256\n      0x00\n      swap1\n      sload\n      swap1\n      0x0100\n      exp\n      swap1\n      div\n      0xff\n      and\n        /* \"contracts/dETH.sol\":25069:25092  !_isExcluded[recipient] */\n      iszero\n        /* \"contracts/dETH.sol\":25046:25092  _isExcluded[sender] && !_isExcluded[recipient] */\n    tag_436:\n        /* \"contracts/dETH.sol\":25042:25509  if (_isExcluded[sender] && !_isExcluded[recipient]) {\r... */\n      iszero\n      tag_437\n      jumpi\n        /* \"contracts/dETH.sol\":25109:25157  _transferFromExcluded(sender, recipient, amount) */\n      tag_438\n        /* \"contracts/dETH.sol\":25131:25137  sender */\n      dup5\n        /* \"contracts/dETH.sol\":25139:25148  recipient */\n      dup5\n        /* \"contracts/dETH.sol\":25150:25156  amount */\n      dup5\n        /* \"contracts/dETH.sol\":25109:25130  _transferFromExcluded */\n      tag_439\n        /* \"contracts/dETH.sol\":25109:25157  _transferFromExcluded(sender, recipient, amount) */\n      jump\t// in\n    tag_438:\n        /* \"contracts/dETH.sol\":25042:25509  if (_isExcluded[sender] && !_isExcluded[recipient]) {\r... */\n      jump(tag_440)\n    tag_437:\n        /* \"contracts/dETH.sol\":25180:25191  _isExcluded */\n      0x0a\n        /* \"contracts/dETH.sol\":25180:25199  _isExcluded[sender] */\n      0x00\n        /* \"contracts/dETH.sol\":25192:25198  sender */\n      dup6\n        /* \"contracts/dETH.sol\":25180:25199  _isExcluded[sender] */\n      0xffffffffffffffffffffffffffffffffffffffff\n      and\n      0xffffffffffffffffffffffffffffffffffffffff\n      and\n      dup2\n      mstore\n      0x20\n      add\n      swap1\n      dup2\n      mstore\n      0x20\n      add\n      0x00\n      keccak256\n      0x00\n      swap1\n      sload\n      swap1\n      0x0100\n      exp\n      swap1\n      div\n      0xff\n      and\n        /* \"contracts/dETH.sol\":25179:25199  !_isExcluded[sender] */\n      iszero\n        /* \"contracts/dETH.sol\":25179:25225  !_isExcluded[sender] && _isExcluded[recipient] */\n      dup1\n      iszero\n      tag_441\n      jumpi\n      pop\n        /* \"contracts/dETH.sol\":25203:25214  _isExcluded */\n      0x0a\n        /* \"contracts/dETH.sol\":25203:25225  _isExcluded[recipient] */\n      0x00\n        /* \"contracts/dETH.sol\":25215:25224  recipient */\n      dup5\n        /* \"contracts/dETH.sol\":25203:25225  _isExcluded[recipient] */\n      0xffffffffffffffffffffffffffffffffffffffff\n      and\n      0xffffffffffffffffffffffffffffffffffffffff\n      and\n      dup2\n      mstore\n      0x20\n      add\n      swap1\n      dup2\n      mstore\n      0x20\n      add\n      0x00\n      keccak256\n      0x00\n      swap1\n      sload\n      swap1\n      0x0100\n      exp\n      swap1\n      div\n      0xff\n      and\n        /* \"contracts/dETH.sol\":25179:25225  !_isExcluded[sender] && _isExcluded[recipient] */\n    tag_441:\n        /* \"contracts/dETH.sol\":25175:25509  if (!_isExcluded[sender] && _isExcluded[recipient]) {\r... */\n      iszero\n      tag_442\n      jumpi\n        /* \"contracts/dETH.sol\":25242:25288  _transferToExcluded(sender, recipient, amount) */\n      tag_443\n        /* \"contracts/dETH.sol\":25262:25268  sender */\n      dup5\n        /* \"contracts/dETH.sol\":25270:25279  recipient */\n      dup5\n        /* \"contracts/dETH.sol\":25281:25287  amount */\n      dup5\n        /* \"contracts/dETH.sol\":25242:25261  _transferToExcluded */\n      tag_444\n        /* \"contracts/dETH.sol\":25242:25288  _transferToExcluded(sender, recipient, amount) */\n      jump\t// in\n    tag_443:\n        /* \"contracts/dETH.sol\":25175:25509  if (!_isExcluded[sender] && _isExcluded[recipient]) {\r... */\n      jump(tag_445)\n    tag_442:\n        /* \"contracts/dETH.sol\":25310:25321  _isExcluded */\n      0x0a\n        /* \"contracts/dETH.sol\":25310:25329  _isExcluded[sender] */\n      0x00\n        /* \"contracts/dETH.sol\":25322:25328  sender */\n      dup6\n        /* \"contracts/dETH.sol\":25310:25329  _isExcluded[sender] */\n      0xffffffffffffffffffffffffffffffffffffffff\n      and\n      0xffffffffffffffffffffffffffffffffffffffff\n      and\n      dup2\n      mstore\n      0x20\n      add\n      swap1\n      dup2\n      mstore\n      0x20\n      add\n      0x00\n      keccak256\n      0x00\n      swap1\n      sload\n      swap1\n      0x0100\n      exp\n      swap1\n      div\n      0xff\n      and\n        /* \"contracts/dETH.sol\":25310:25355  _isExcluded[sender] && _isExcluded[recipient] */\n      dup1\n      iszero\n      tag_446\n      jumpi\n      pop\n        /* \"contracts/dETH.sol\":25333:25344  _isExcluded */\n      0x0a\n        /* \"contracts/dETH.sol\":25333:25355  _isExcluded[recipient] */\n      0x00\n        /* \"contracts/dETH.sol\":25345:25354  recipient */\n      dup5\n        /* \"contracts/dETH.sol\":25333:25355  _isExcluded[recipient] */\n      0xffffffffffffffffffffffffffffffffffffffff\n      and\n      0xffffffffffffffffffffffffffffffffffffffff\n      and\n      dup2\n      mstore\n      0x20\n      add\n      swap1\n      dup2\n      mstore\n      0x20\n      add\n      0x00\n      keccak256\n      0x00\n      swap1\n      sload\n      swap1\n      0x0100\n      exp\n      swap1\n      div\n      0xff\n      and\n        /* \"contracts/dETH.sol\":25310:25355  _isExcluded[sender] && _isExcluded[recipient] */\n    tag_446:\n        /* \"contracts/dETH.sol\":25306:25509  if (_isExcluded[sender] && _isExcluded[recipient]) {\r... */\n      iszero\n      tag_447\n      jumpi\n        /* \"contracts/dETH.sol\":25372:25420  _transferBothExcluded(sender, recipient, amount) */\n      tag_448\n        /* \"contracts/dETH.sol\":25394:25400  sender */\n      dup5\n        /* \"contracts/dETH.sol\":25402:25411  recipient */\n      dup5\n        /* \"contracts/dETH.sol\":25413:25419  amount */\n      dup5\n        /* \"contracts/dETH.sol\":25372:25393  _transferBothExcluded */\n      tag_449\n        /* \"contracts/dETH.sol\":25372:25420  _transferBothExcluded(sender, recipient, amount) */\n      jump\t// in\n    tag_448:\n        /* \"contracts/dETH.sol\":25306:25509  if (_isExcluded[sender] && _isExcluded[recipient]) {\r... */\n      jump(tag_450)\n    tag_447:\n        /* \"contracts/dETH.sol\":25453:25497  _transferStandard(sender, recipient, amount) */\n      tag_451\n        /* \"contracts/dETH.sol\":25471:25477  sender */\n      dup5\n        /* \"contracts/dETH.sol\":25479:25488  recipient */\n      dup5\n        /* \"contracts/dETH.sol\":25490:25496  amount */\n      dup5\n        /* \"contracts/dETH.sol\":25453:25470  _transferStandard */\n      tag_452\n        /* \"contracts/dETH.sol\":25453:25497  _transferStandard(sender, recipient, amount) */\n      jump\t// in\n    tag_451:\n        /* \"contracts/dETH.sol\":25306:25509  if (_isExcluded[sender] && _isExcluded[recipient]) {\r... */\n    tag_450:\n        /* \"contracts/dETH.sol\":25175:25509  if (!_isExcluded[sender] && _isExcluded[recipient]) {\r... */\n    tag_445:\n        /* \"contracts/dETH.sol\":25042:25509  if (_isExcluded[sender] && !_isExcluded[recipient]) {\r... */\n    tag_440:\n        /* \"contracts/dETH.sol\":25526:25533  takeFee */\n      dup1\n        /* \"contracts/dETH.sol\":25521:25563  if (!takeFee)\r... */\n      tag_453\n      jumpi\n        /* \"contracts/dETH.sol\":25548:25563  restoreAllFee() */\n      tag_454\n        /* \"contracts/dETH.sol\":25548:25561  restoreAllFee */\n      tag_455\n        /* \"contracts/dETH.sol\":25548:25563  restoreAllFee() */\n      jump\t// in\n    tag_454:\n        /* \"contracts/dETH.sol\":25521:25563  if (!takeFee)\r... */\n    tag_453:\n        /* \"contracts/dETH.sol\":24880:25571  function _tokenTransfer(address sender, address recipient, uint256 amount, bool takeFee) private {\r... */\n      pop\n      pop\n      pop\n      pop\n      jump\t// out\n        /* \"contracts/dETH.sol\":29414:29970  function _getCurrentSupply() private view returns (uint256, uint256) {\r... */\n    tag_406:\n        /* \"contracts/dETH.sol\":29465:29472  uint256 */\n      0x00\n        /* \"contracts/dETH.sol\":29474:29481  uint256 */\n      dup1\n        /* \"contracts/dETH.sol\":29494:29509  uint256 rSupply */\n      0x00\n        /* \"contracts/dETH.sol\":29512:29519  _rTotal */\n      sload(0x0d)\n        /* \"contracts/dETH.sol\":29494:29519  uint256 rSupply = _rTotal */\n      swap1\n      pop\n        /* \"contracts/dETH.sol\":29530:29545  uint256 tSupply */\n      0x00\n        /* \"contracts/dETH.sol\":29548:29555  _tTotal */\n      sload(0x0c)\n        /* \"contracts/dETH.sol\":29530:29555  uint256 tSupply = _tTotal */\n      swap1\n      pop\n        /* \"contracts/dETH.sol\":29571:29580  uint256 i */\n      0x00\n        /* \"contracts/dETH.sol\":29566:29855  for (uint256 i = 0; i < _excluded.length; i++) {\r... */\n    tag_457:\n        /* \"contracts/dETH.sol\":29590:29599  _excluded */\n      0x0b\n        /* \"contracts/dETH.sol\":29590:29606  _excluded.length */\n      dup1\n      sload\n      swap1\n      pop\n        /* \"contracts/dETH.sol\":29586:29587  i */\n      dup2\n        /* \"contracts/dETH.sol\":29586:29606  i < _excluded.length */\n      lt\n        /* \"contracts/dETH.sol\":29566:29855  for (uint256 i = 0; i < _excluded.length; i++) {\r... */\n      iszero\n      tag_458\n      jumpi\n        /* \"contracts/dETH.sol\":29656:29663  rSupply */\n      dup3\n        /* \"contracts/dETH.sol\":29632:29639  _rOwned */\n      0x04\n        /* \"contracts/dETH.sol\":29632:29653  _rOwned[_excluded[i]] */\n      0x00\n        /* \"contracts/dETH.sol\":29640:29649  _excluded */\n      0x0b\n        /* \"contracts/dETH.sol\":29650:29651  i */\n      dup5\n        /* \"contracts/dETH.sol\":29640:29652  _excluded[i] */\n      dup2\n      sload\n      dup2\n      lt\n      tag_460\n      jumpi\n      invalid\n    tag_460:\n      swap1\n      0x00\n      mstore\n      keccak256(0x00, 0x20)\n      add\n      0x00\n      swap1\n      sload\n      swap1\n      0x0100\n      exp\n      swap1\n      div\n      0xffffffffffffffffffffffffffffffffffffffff\n      and\n        /* \"contracts/dETH.sol\":29632:29653  _rOwned[_excluded[i]] */\n      0xffffffffffffffffffffffffffffffffffffffff\n      and\n      0xffffffffffffffffffffffffffffffffffffffff\n      and\n      dup2\n      mstore\n      0x20\n      add\n      swap1\n      dup2\n      mstore\n      0x20\n      add\n      0x00\n      keccak256\n      sload\n        /* \"contracts/dETH.sol\":29632:29663  _rOwned[_excluded[i]] > rSupply */\n      gt\n        /* \"contracts/dETH.sol\":29632:29698  _rOwned[_excluded[i]] > rSupply || _tOwned[_excluded[i]] > tSupply */\n      dup1\n      tag_462\n      jumpi\n      pop\n        /* \"contracts/dETH.sol\":29691:29698  tSupply */\n      dup2\n        /* \"contracts/dETH.sol\":29667:29674  _tOwned */\n      0x05\n        /* \"contracts/dETH.sol\":29667:29688  _tOwned[_excluded[i]] */\n      0x00\n        /* \"contracts/dETH.sol\":29675:29684  _excluded */\n      0x0b\n        /* \"contracts/dETH.sol\":29685:29686  i */\n      dup5\n        /* \"contracts/dETH.sol\":29675:29687  _excluded[i] */\n      dup2\n      sload\n      dup2\n      lt\n      tag_463\n      jumpi\n      invalid\n    tag_463:\n      swap1\n      0x00\n      mstore\n      keccak256(0x00, 0x20)\n      add\n      0x00\n      swap1\n      sload\n      swap1\n      0x0100\n      exp\n      swap1\n      div\n      0xffffffffffffffffffffffffffffffffffffffff\n      and\n        /* \"contracts/dETH.sol\":29667:29688  _tOwned[_excluded[i]] */\n      0xffffffffffffffffffffffffffffffffffffffff\n      and\n      0xffffffffffffffffffffffffffffffffffffffff\n      and\n      dup2\n      mstore\n      0x20\n      add\n      swap1\n      dup2\n      mstore\n      0x20\n      add\n      0x00\n      keccak256\n      sload\n        /* \"contracts/dETH.sol\":29667:29698  _tOwned[_excluded[i]] > tSupply */\n      gt\n        /* \"contracts/dETH.sol\":29632:29698  _rOwned[_excluded[i]] > rSupply || _tOwned[_excluded[i]] > tSupply */\n    tag_462:\n        /* \"contracts/dETH.sol\":29628:29725  if (_rOwned[_excluded[i]] > rSupply || _tOwned[_excluded[i]] > tSupply) return (_rTotal, _tTotal) */\n      iszero\n      tag_465\n      jumpi\n        /* \"contracts/dETH.sol\":29708:29715  _rTotal */\n      sload(0x0d)\n        /* \"contracts/dETH.sol\":29717:29724  _tTotal */\n      sload(0x0c)\n        /* \"contracts/dETH.sol\":29700:29725  return (_rTotal, _tTotal) */\n      swap5\n      pop\n      swap5\n      pop\n      pop\n      pop\n      pop\n      jump(tag_456)\n        /* \"contracts/dETH.sol\":29628:29725  if (_rOwned[_excluded[i]] > rSupply || _tOwned[_excluded[i]] > tSupply) return (_rTotal, _tTotal) */\n    tag_465:\n        /* \"contracts/dETH.sol\":29750:29784  rSupply.sub(_rOwned[_excluded[i]]) */\n      tag_466\n        /* \"contracts/dETH.sol\":29762:29769  _rOwned */\n      0x04\n        /* \"contracts/dETH.sol\":29762:29783  _rOwned[_excluded[i]] */\n      0x00\n        /* \"contracts/dETH.sol\":29770:29779  _excluded */\n      0x0b\n        /* \"contracts/dETH.sol\":29780:29781  i */\n      dup5\n        /* \"contracts/dETH.sol\":29770:29782  _excluded[i] */\n      dup2\n      sload\n      dup2\n      lt\n      tag_467\n      jumpi\n      invalid\n    tag_467:\n      swap1\n      0x00\n      mstore\n      keccak256(0x00, 0x20)\n      add\n      0x00\n      swap1\n      sload\n      swap1\n      0x0100\n      exp\n      swap1\n      div\n      0xffffffffffffffffffffffffffffffffffffffff\n      and\n        /* \"contracts/dETH.sol\":29762:29783  _rOwned[_excluded[i]] */\n      0xffffffffffffffffffffffffffffffffffffffff\n      and\n      0xffffffffffffffffffffffffffffffffffffffff\n      and\n      dup2\n      mstore\n      0x20\n      add\n      swap1\n      dup2\n      mstore\n      0x20\n      add\n      0x00\n      keccak256\n      sload\n        /* \"contracts/dETH.sol\":29750:29757  rSupply */\n      dup5\n        /* \"contracts/dETH.sol\":29750:29761  rSupply.sub */\n      tag_276\n      swap1\n        /* \"contracts/dETH.sol\":29750:29784  rSupply.sub(_rOwned[_excluded[i]]) */\n      swap2\n      swap1\n      0xffffffff\n      and\n      jump\t// in\n    tag_466:\n        /* \"contracts/dETH.sol\":29740:29784  rSupply = rSupply.sub(_rOwned[_excluded[i]]) */\n      swap3\n      pop\n        /* \"contracts/dETH.sol\":29809:29843  tSupply.sub(_tOwned[_excluded[i]]) */\n      tag_469\n        /* \"contracts/dETH.sol\":29821:29828  _tOwned */\n      0x05\n        /* \"contracts/dETH.sol\":29821:29842  _tOwned[_excluded[i]] */\n      0x00\n        /* \"contracts/dETH.sol\":29829:29838  _excluded */\n      0x0b\n        /* \"contracts/dETH.sol\":29839:29840  i */\n      dup5\n        /* \"contracts/dETH.sol\":29829:29841  _excluded[i] */\n      dup2\n      sload\n      dup2\n      lt\n      tag_470\n      jumpi\n      invalid\n    tag_470:\n      swap1\n      0x00\n      mstore\n      keccak256(0x00, 0x20)\n      add\n      0x00\n      swap1\n      sload\n      swap1\n      0x0100\n      exp\n      swap1\n      div\n      0xffffffffffffffffffffffffffffffffffffffff\n      and\n        /* \"contracts/dETH.sol\":29821:29842  _tOwned[_excluded[i]] */\n      0xffffffffffffffffffffffffffffffffffffffff\n      and\n      0xffffffffffffffffffffffffffffffffffffffff\n      and\n      dup2\n      mstore\n      0x20\n      add\n      swap1\n      dup2\n      mstore\n      0x20\n      add\n      0x00\n      keccak256\n      sload\n        /* \"contracts/dETH.sol\":29809:29816  tSupply */\n      dup4\n        /* \"contracts/dETH.sol\":29809:29820  tSupply.sub */\n      tag_276\n      swap1\n        /* \"contracts/dETH.sol\":29809:29843  tSupply.sub(_tOwned[_excluded[i]]) */\n      swap2\n      swap1\n      0xffffffff\n      and\n      jump\t// in\n    tag_469:\n        /* \"contracts/dETH.sol\":29799:29843  tSupply = tSupply.sub(_tOwned[_excluded[i]]) */\n      swap2\n      pop\n        /* \"contracts/dETH.sol\":29608:29611  i++ */\n      dup1\n      dup1\n      0x01\n      add\n      swap2\n      pop\n      pop\n        /* \"contracts/dETH.sol\":29566:29855  for (uint256 i = 0; i < _excluded.length; i++) {\r... */\n      jump(tag_457)\n    tag_458:\n      pop\n        /* \"contracts/dETH.sol\":29879:29899  _rTotal.div(_tTotal) */\n      tag_472\n        /* \"contracts/dETH.sol\":29891:29898  _tTotal */\n      sload(0x0c)\n        /* \"contracts/dETH.sol\":29879:29886  _rTotal */\n      sload(0x0d)\n        /* \"contracts/dETH.sol\":29879:29890  _rTotal.div */\n      tag_228\n      swap1\n        /* \"contracts/dETH.sol\":29879:29899  _rTotal.div(_tTotal) */\n      swap2\n      swap1\n      0xffffffff\n      and\n      jump\t// in\n    tag_472:\n        /* \"contracts/dETH.sol\":29869:29876  rSupply */\n      dup3\n        /* \"contracts/dETH.sol\":29869:29899  rSupply < _rTotal.div(_tTotal) */\n      lt\n        /* \"contracts/dETH.sol\":29865:29926  if (rSupply < _rTotal.div(_tTotal)) return (_rTotal, _tTotal) */\n      iszero\n      tag_473\n      jumpi\n        /* \"contracts/dETH.sol\":29909:29916  _rTotal */\n      sload(0x0d)\n        /* \"contracts/dETH.sol\":29918:29925  _tTotal */\n      sload(0x0c)\n        /* \"contracts/dETH.sol\":29901:29926  return (_rTotal, _tTotal) */\n      swap4\n      pop\n      swap4\n      pop\n      pop\n      pop\n      jump(tag_456)\n        /* \"contracts/dETH.sol\":29865:29926  if (rSupply < _rTotal.div(_tTotal)) return (_rTotal, _tTotal) */\n    tag_473:\n        /* \"contracts/dETH.sol\":29945:29952  rSupply */\n      dup2\n        /* \"contracts/dETH.sol\":29954:29961  tSupply */\n      dup2\n        /* \"contracts/dETH.sol\":29937:29962  return (rSupply, tSupply) */\n      swap4\n      pop\n      swap4\n      pop\n      pop\n      pop\n        /* \"contracts/dETH.sol\":29414:29970  function _getCurrentSupply() private view returns (uint256, uint256) {\r... */\n    tag_456:\n      swap1\n      swap2\n      jump\t// out\n        /* \"contracts/dETH.sol\":2129:2407  function div(uint256 a, uint256 b, string memory errorMessage) internal pure returns (uint256) {\r... */\n    tag_410:\n        /* \"contracts/dETH.sol\":2215:2222  uint256 */\n      0x00\n        /* \"contracts/dETH.sol\":2247:2248  0 */\n      dup1\n        /* \"contracts/dETH.sol\":2243:2244  b */\n      dup4\n        /* \"contracts/dETH.sol\":2243:2248  b > 0 */\n      gt\n        /* \"contracts/dETH.sol\":2250:2262  errorMessage */\n      dup3\n        /* \"contracts/dETH.sol\":2235:2263  require(b > 0, errorMessage) */\n      swap1\n      tag_475\n      jumpi\n      mload(0x40)\n      0x08c379a000000000000000000000000000000000000000000000000000000000\n      dup2\n      mstore\n      0x04\n      add\n      dup1\n      dup1\n      0x20\n      add\n      dup3\n      dup2\n      sub\n      dup3\n      mstore\n      dup4\n      dup2\n      dup2\n      mload\n      dup2\n      mstore\n      0x20\n      add\n      swap2\n      pop\n      dup1\n      mload\n      swap1\n      0x20\n      add\n      swap1\n      dup1\n      dup4\n      dup4\n      0x00\n    tag_476:\n      dup4\n      dup2\n      lt\n      iszero\n      tag_478\n      jumpi\n      dup1\n      dup3\n      add\n      mload\n      dup2\n      dup5\n      add\n      mstore\n      0x20\n      dup2\n      add\n      swap1\n      pop\n      jump(tag_476)\n    tag_478:\n      pop\n      pop\n      pop\n      pop\n      swap1\n      pop\n      swap1\n      dup2\n      add\n      swap1\n      0x1f\n      and\n      dup1\n      iszero\n      tag_479\n      jumpi\n      dup1\n      dup3\n      sub\n      dup1\n      mload\n      0x01\n      dup4\n      0x20\n      sub\n      0x0100\n      exp\n      sub\n      not\n      and\n      dup2\n      mstore\n      0x20\n      add\n      swap2\n      pop\n    tag_479:\n      pop\n      swap3\n      pop\n      pop\n      pop\n      mload(0x40)\n      dup1\n      swap2\n      sub\n      swap1\n      revert\n    tag_475:\n      pop\n        /* \"contracts/dETH.sol\":2274:2283  uint256 c */\n      0x00\n        /* \"contracts/dETH.sol\":2290:2291  b */\n      dup4\n        /* \"contracts/dETH.sol\":2286:2287  a */\n      dup6\n        /* \"contracts/dETH.sol\":2286:2291  a / b */\n      dup2\n      tag_480\n      jumpi\n      invalid\n    tag_480:\n      div\n        /* \"contracts/dETH.sol\":2274:2291  uint256 c = a / b */\n      swap1\n      pop\n        /* \"contracts/dETH.sol\":2398:2399  c */\n      dup1\n        /* \"contracts/dETH.sol\":2391:2399  return c */\n      swap2\n      pop\n      pop\n        /* \"contracts/dETH.sol\":2129:2407  function div(uint256 a, uint256 b, string memory errorMessage) internal pure returns (uint256) {\r... */\n      swap4\n      swap3\n      pop\n      pop\n      pop\n      jump\t// out\n        /* \"contracts/dETH.sol\":28467:28797  function _getTValues(uint256 tAmount) private view returns (uint256, uint256, uint256) {\r... */\n    tag_415:\n        /* \"contracts/dETH.sol\":28527:28534  uint256 */\n      0x00\n        /* \"contracts/dETH.sol\":28536:28543  uint256 */\n      dup1\n        /* \"contracts/dETH.sol\":28545:28552  uint256 */\n      0x00\n        /* \"contracts/dETH.sol\":28565:28577  uint256 tFee */\n      dup1\n        /* \"contracts/dETH.sol\":28580:28604  calculateTaxFee(tAmount) */\n      tag_482\n        /* \"contracts/dETH.sol\":28596:28603  tAmount */\n      dup6\n        /* \"contracts/dETH.sol\":28580:28595  calculateTaxFee */\n      tag_483\n        /* \"contracts/dETH.sol\":28580:28604  calculateTaxFee(tAmount) */\n      jump\t// in\n    tag_482:\n        /* \"contracts/dETH.sol\":28565:28604  uint256 tFee = calculateTaxFee(tAmount) */\n      swap1\n      pop\n        /* \"contracts/dETH.sol\":28615:28633  uint256 tLiquidity */\n      0x00\n        /* \"contracts/dETH.sol\":28636:28666  calculateLiquidityFee(tAmount) */\n      tag_484\n        /* \"contracts/dETH.sol\":28658:28665  tAmount */\n      dup7\n        /* \"contracts/dETH.sol\":28636:28657  calculateLiquidityFee */\n      tag_485\n        /* \"contracts/dETH.sol\":28636:28666  calculateLiquidityFee(tAmount) */\n      jump\t// in\n    tag_484:\n        /* \"contracts/dETH.sol\":28615:28666  uint256 tLiquidity = calculateLiquidityFee(tAmount) */\n      swap1\n      pop\n        /* \"contracts/dETH.sol\":28677:28700  uint256 tTransferAmount */\n      0x00\n        /* \"contracts/dETH.sol\":28703:28736  tAmount.sub(tFee).sub(tLiquidity) */\n      tag_486\n        /* \"contracts/dETH.sol\":28725:28735  tLiquidity */\n      dup3\n        /* \"contracts/dETH.sol\":28703:28720  tAmount.sub(tFee) */\n      tag_487\n        /* \"contracts/dETH.sol\":28715:28719  tFee */\n      dup6\n        /* \"contracts/dETH.sol\":28703:28710  tAmount */\n      dup11\n        /* \"contracts/dETH.sol\":28703:28714  tAmount.sub */\n      tag_276\n      swap1\n        /* \"contracts/dETH.sol\":28703:28720  tAmount.sub(tFee) */\n      swap2\n      swap1\n      0xffffffff\n      and\n      jump\t// in\n    tag_487:\n        /* \"contracts/dETH.sol\":28703:28724  tAmount.sub(tFee).sub */\n      tag_276\n      swap1\n        /* \"contracts/dETH.sol\":28703:28736  tAmount.sub(tFee).sub(tLiquidity) */\n      swap2\n      swap1\n      0xffffffff\n      and\n      jump\t// in\n    tag_486:\n        /* \"contracts/dETH.sol\":28677:28736  uint256 tTransferAmount = tAmount.sub(tFee).sub(tLiquidity) */\n      swap1\n      pop\n        /* \"contracts/dETH.sol\":28755:28770  tTransferAmount */\n      dup1\n        /* \"contracts/dETH.sol\":28772:28776  tFee */\n      dup4\n        /* \"contracts/dETH.sol\":28778:28788  tLiquidity */\n      dup4\n        /* \"contracts/dETH.sol\":28747:28789  return (tTransferAmount, tFee, tLiquidity) */\n      swap6\n      pop\n      swap6\n      pop\n      swap6\n      pop\n      pop\n      pop\n      pop\n        /* \"contracts/dETH.sol\":28467:28797  function _getTValues(uint256 tAmount) private view returns (uint256, uint256, uint256) {\r... */\n      swap2\n      swap4\n      swap1\n      swap3\n      pop\n      jump\t// out\n        /* \"contracts/dETH.sol\":28805:29234  function _getRValues(uint256 tAmount, uint256 tFee, uint256 tLiquidity, uint256 currentRate) private pure returns (uint256, uint256, uint256) {\r... */\n    tag_418:\n        /* \"contracts/dETH.sol\":28920:28927  uint256 */\n      0x00\n        /* \"contracts/dETH.sol\":28929:28936  uint256 */\n      dup1\n        /* \"contracts/dETH.sol\":28938:28945  uint256 */\n      0x00\n        /* \"contracts/dETH.sol\":28958:28973  uint256 rAmount */\n      dup1\n        /* \"contracts/dETH.sol\":28976:29000  tAmount.mul(currentRate) */\n      tag_489\n        /* \"contracts/dETH.sol\":28988:28999  currentRate */\n      dup6\n        /* \"contracts/dETH.sol\":28976:28983  tAmount */\n      dup10\n        /* \"contracts/dETH.sol\":28976:28987  tAmount.mul */\n      tag_385\n      swap1\n        /* \"contracts/dETH.sol\":28976:29000  tAmount.mul(currentRate) */\n      swap2\n      swap1\n      0xffffffff\n      and\n      jump\t// in\n    tag_489:\n        /* \"contracts/dETH.sol\":28958:29000  uint256 rAmount = tAmount.mul(currentRate) */\n      swap1\n      pop\n        /* \"contracts/dETH.sol\":29011:29023  uint256 rFee */\n      0x00\n        /* \"contracts/dETH.sol\":29026:29047  tFee.mul(currentRate) */\n      tag_490\n        /* \"contracts/dETH.sol\":29035:29046  currentRate */\n      dup7\n        /* \"contracts/dETH.sol\":29026:29030  tFee */\n      dup10\n        /* \"contracts/dETH.sol\":29026:29034  tFee.mul */\n      tag_385\n      swap1\n        /* \"contracts/dETH.sol\":29026:29047  tFee.mul(currentRate) */\n      swap2\n      swap1\n      0xffffffff\n      and\n      jump\t// in\n    tag_490:\n        /* \"contracts/dETH.sol\":29011:29047  uint256 rFee = tFee.mul(currentRate) */\n      swap1\n      pop\n        /* \"contracts/dETH.sol\":29058:29076  uint256 rLiquidity */\n      0x00\n        /* \"contracts/dETH.sol\":29079:29106  tLiquidity.mul(currentRate) */\n      tag_491\n        /* \"contracts/dETH.sol\":29094:29105  currentRate */\n      dup8\n        /* \"contracts/dETH.sol\":29079:29089  tLiquidity */\n      dup10\n        /* \"contracts/dETH.sol\":29079:29093  tLiquidity.mul */\n      tag_385\n      swap1\n        /* \"contracts/dETH.sol\":29079:29106  tLiquidity.mul(currentRate) */\n      swap2\n      swap1\n      0xffffffff\n      and\n      jump\t// in\n    tag_491:\n        /* \"contracts/dETH.sol\":29058:29106  uint256 rLiquidity = tLiquidity.mul(currentRate) */\n      swap1\n      pop\n        /* \"contracts/dETH.sol\":29117:29140  uint256 rTransferAmount */\n      0x00\n        /* \"contracts/dETH.sol\":29143:29176  rAmount.sub(rFee).sub(rLiquidity) */\n      tag_492\n        /* \"contracts/dETH.sol\":29165:29175  rLiquidity */\n      dup3\n        /* \"contracts/dETH.sol\":29143:29160  rAmount.sub(rFee) */\n      tag_493\n        /* \"contracts/dETH.sol\":29155:29159  rFee */\n      dup6\n        /* \"contracts/dETH.sol\":29143:29150  rAmount */\n      dup8\n        /* \"contracts/dETH.sol\":29143:29154  rAmount.sub */\n      tag_276\n      swap1\n        /* \"contracts/dETH.sol\":29143:29160  rAmount.sub(rFee) */\n      swap2\n      swap1\n      0xffffffff\n      and\n      jump\t// in\n    tag_493:\n        /* \"contracts/dETH.sol\":29143:29164  rAmount.sub(rFee).sub */\n      tag_276\n      swap1\n        /* \"contracts/dETH.sol\":29143:29176  rAmount.sub(rFee).sub(rLiquidity) */\n      swap2\n      swap1\n      0xffffffff\n      and\n      jump\t// in\n    tag_492:\n        /* \"contracts/dETH.sol\":29117:29176  uint256 rTransferAmount = rAmount.sub(rFee).sub(rLiquidity) */\n      swap1\n      pop\n        /* \"contracts/dETH.sol\":29195:29202  rAmount */\n      dup4\n        /* \"contracts/dETH.sol\":29204:29219  rTransferAmount */\n      dup2\n        /* \"contracts/dETH.sol\":29221:29225  rFee */\n      dup5\n        /* \"contracts/dETH.sol\":29187:29226  return (rAmount, rTransferAmount, rFee) */\n      swap7\n      pop\n      swap7\n      pop\n      swap7\n      pop\n      pop\n      pop\n      pop\n      pop\n        /* \"contracts/dETH.sol\":28805:29234  function _getRValues(uint256 tAmount, uint256 tFee, uint256 tLiquidity, uint256 currentRate) private pure returns (uint256, uint256, uint256) {\r... */\n      swap5\n      pop\n      swap5\n      pop\n      swap5\n      swap2\n      pop\n      pop\n      jump\t// out\n        /* \"contracts/dETH.sol\":23690:24348  function swapTokensForEth(uint256 tokenAmount) private {\r... */\n    tag_428:\n        /* \"contracts/dETH.sol\":23816:23837  address[] memory path */\n      0x60\n        /* \"contracts/dETH.sol\":23854:23855  2 */\n      0x02\n        /* \"contracts/dETH.sol\":23840:23856  new address[](2) */\n      0xffffffffffffffff\n      dup2\n      gt\n      dup1\n      iszero\n      tag_495\n      jumpi\n      0x00\n      dup1\n      revert\n    tag_495:\n      pop\n      mload(0x40)\n      swap1\n      dup1\n      dup3\n      mstore\n      dup1\n      0x20\n      mul\n      0x20\n      add\n      dup3\n      add\n      0x40\n      mstore\n      dup1\n      iszero\n      tag_496\n      jumpi\n      dup2\n      0x20\n      add\n      0x20\n      dup3\n      mul\n      dup1\n      calldatasize\n      dup4\n      calldatacopy\n      dup1\n      dup3\n      add\n      swap2\n      pop\n      pop\n      swap1\n      pop\n    tag_496:\n      pop\n        /* \"contracts/dETH.sol\":23816:23856  address[] memory path = new address[](2) */\n      swap1\n      pop\n        /* \"contracts/dETH.sol\":23885:23889  this */\n      address\n        /* \"contracts/dETH.sol\":23867:23871  path */\n      dup2\n        /* \"contracts/dETH.sol\":23872:23873  0 */\n      0x00\n        /* \"contracts/dETH.sol\":23867:23874  path[0] */\n      dup2\n      mload\n      dup2\n      lt\n      tag_497\n      jumpi\n      invalid\n    tag_497:\n      0x20\n      mul\n      0x20\n      add\n      add\n        /* \"contracts/dETH.sol\":23867:23890  path[0] = address(this) */\n      swap1\n      0xffffffffffffffffffffffffffffffffffffffff\n      and\n      swap1\n      dup2\n      0xffffffffffffffffffffffffffffffffffffffff\n      and\n      dup2\n      mstore\n      pop\n      pop\n        /* \"contracts/dETH.sol\":23911:23926  uniswapV2Router */\n      0x18\n      0x00\n      swap1\n      sload\n      swap1\n      0x0100\n      exp\n      swap1\n      div\n      0xffffffffffffffffffffffffffffffffffffffff\n      and\n        /* \"contracts/dETH.sol\":23911:23931  uniswapV2Router.WETH */\n      0xffffffffffffffffffffffffffffffffffffffff\n      and\n      0xad5c4648\n        /* \"contracts/dETH.sol\":23911:23933  uniswapV2Router.WETH() */\n      mload(0x40)\n      dup2\n      0xffffffff\n      and\n      0xe0\n      shl\n      dup2\n      mstore\n      0x04\n      add\n      0x20\n      mload(0x40)\n      dup1\n      dup4\n      sub\n      dup2\n      dup7\n      dup1\n      extcodesize\n      iszero\n      dup1\n      iszero\n      tag_498\n      jumpi\n      0x00\n      dup1\n      revert\n    tag_498:\n      pop\n      gas\n      staticcall\n      iszero\n      dup1\n      iszero\n      tag_500\n      jumpi\n      returndatasize\n      0x00\n      dup1\n      returndatacopy\n      revert(0x00, returndatasize)\n    tag_500:\n      pop\n      pop\n      pop\n      pop\n      mload(0x40)\n      returndatasize\n      0x20\n      dup2\n      lt\n      iszero\n      tag_501\n      jumpi\n      0x00\n      dup1\n      revert\n    tag_501:\n      dup2\n      add\n      swap1\n      dup1\n      dup1\n      mload\n      swap1\n      0x20\n      add\n      swap1\n      swap3\n      swap2\n      swap1\n      pop\n      pop\n      pop\n        /* \"contracts/dETH.sol\":23901:23905  path */\n      dup2\n        /* \"contracts/dETH.sol\":23906:23907  1 */\n      0x01\n        /* \"contracts/dETH.sol\":23901:23908  path[1] */\n      dup2\n      mload\n      dup2\n      lt\n      tag_502\n      jumpi\n      invalid\n    tag_502:\n      0x20\n      mul\n      0x20\n      add\n      add\n        /* \"contracts/dETH.sol\":23901:23933  path[1] = uniswapV2Router.WETH() */\n      swap1\n      0xffffffffffffffffffffffffffffffffffffffff\n      and\n      swap1\n      dup2\n      0xffffffffffffffffffffffffffffffffffffffff\n      and\n      dup2\n      mstore\n      pop\n      pop\n        /* \"contracts/dETH.sol\":23946:24008  _approve(address(this), address(uniswapV2Router), tokenAmount) */\n      tag_503\n        /* \"contracts/dETH.sol\":23963:23967  this */\n      address\n        /* \"contracts/dETH.sol\":23978:23993  uniswapV2Router */\n      0x18\n      0x00\n      swap1\n      sload\n      swap1\n      0x0100\n      exp\n      swap1\n      div\n      0xffffffffffffffffffffffffffffffffffffffff\n      and\n        /* \"contracts/dETH.sol\":23996:24007  tokenAmount */\n      dup5\n        /* \"contracts/dETH.sol\":23946:23954  _approve */\n      tag_212\n        /* \"contracts/dETH.sol\":23946:24008  _approve(address(this), address(uniswapV2Router), tokenAmount) */\n      jump\t// in\n    tag_503:\n        /* \"contracts/dETH.sol\":24047:24062  uniswapV2Router */\n      0x18\n      0x00\n      swap1\n      sload\n      swap1\n      0x0100\n      exp\n      swap1\n      div\n      0xffffffffffffffffffffffffffffffffffffffff\n      and\n        /* \"contracts/dETH.sol\":24047:24113  uniswapV2Router.swapExactTokensForETHSupportingFeeOnTransferTokens */\n      0xffffffffffffffffffffffffffffffffffffffff\n      and\n      0x791ac947\n        /* \"contracts/dETH.sol\":24128:24139  tokenAmount */\n      dup4\n        /* \"contracts/dETH.sol\":24154:24155  0 */\n      0x00\n        /* \"contracts/dETH.sol\":24198:24202  path */\n      dup5\n        /* \"contracts/dETH.sol\":24225:24229  this */\n      address\n        /* \"contracts/dETH.sol\":24261:24276  block.timestamp */\n      timestamp\n        /* \"contracts/dETH.sol\":24047:24287  uniswapV2Router.swapExactTokensForETHSupportingFeeOnTransferTokens(\r... */\n      mload(0x40)\n      dup7\n      0xffffffff\n      and\n      0xe0\n      shl\n      dup2\n      mstore\n      0x04\n      add\n      dup1\n      dup7\n      dup2\n      mstore\n      0x20\n      add\n      dup6\n      dup2\n      mstore\n      0x20\n      add\n      dup1\n      0x20\n      add\n      dup5\n      0xffffffffffffffffffffffffffffffffffffffff\n      and\n      dup2\n      mstore\n      0x20\n      add\n      dup4\n      dup2\n      mstore\n      0x20\n      add\n      dup3\n      dup2\n      sub\n      dup3\n      mstore\n      dup6\n      dup2\n      dup2\n      mload\n      dup2\n      mstore\n      0x20\n      add\n      swap2\n      pop\n      dup1\n      mload\n      swap1\n      0x20\n      add\n      swap1\n      0x20\n      mul\n      dup1\n      dup4\n      dup4\n      0x00\n    tag_504:\n      dup4\n      dup2\n      lt\n      iszero\n      tag_506\n      jumpi\n      dup1\n      dup3\n      add\n      mload\n      dup2\n      dup5\n      add\n      mstore\n      0x20\n      dup2\n      add\n      swap1\n      pop\n      jump(tag_504)\n    tag_506:\n      pop\n      pop\n      pop\n      pop\n      swap1\n      pop\n      add\n      swap7\n      pop\n      pop\n      pop\n      pop\n      pop\n      pop\n      pop\n      0x00\n      mload(0x40)\n      dup1\n      dup4\n      sub\n      dup2\n      0x00\n      dup8\n      dup1\n      extcodesize\n      iszero\n      dup1\n      iszero\n      tag_507\n      jumpi\n      0x00\n      dup1\n      revert\n    tag_507:\n      pop\n      gas\n      call\n      iszero\n      dup1\n      iszero\n      tag_509\n      jumpi\n      returndatasize\n      0x00\n      dup1\n      returndatacopy\n      revert(0x00, returndatasize)\n    tag_509:\n      pop\n      pop\n      pop\n      pop\n        /* \"contracts/dETH.sol\":24305:24340  SwapTokensForETH(tokenAmount, path) */\n      0x32cde87eb454f3a0b875ab23547023107cfad454363ec88ba5695e2c24aa52a7\n        /* \"contracts/dETH.sol\":24322:24333  tokenAmount */\n      dup3\n        /* \"contracts/dETH.sol\":24335:24339  path */\n      dup3\n        /* \"contracts/dETH.sol\":24305:24340  SwapTokensForETH(tokenAmount, path) */\n      mload(0x40)\n      dup1\n      dup4\n      dup2\n      mstore\n      0x20\n      add\n      dup1\n      0x20\n      add\n      dup3\n      dup2\n      sub\n      dup3\n      mstore\n      dup4\n      dup2\n      dup2\n      mload\n      dup2\n      mstore\n      0x20\n      add\n      swap2\n      pop\n      dup1\n      mload\n      swap1\n      0x20\n      add\n      swap1\n      0x20\n      mul\n      dup1\n      dup4\n      dup4\n      0x00\n    tag_510:\n      dup4\n      dup2\n      lt\n      iszero\n      tag_512\n      jumpi\n      dup1\n      dup3\n      add\n      mload\n      dup2\n      dup5\n      add\n      mstore\n      0x20\n      dup2\n      add\n      swap1\n      pop\n      jump(tag_510)\n    tag_512:\n      pop\n      pop\n      pop\n      pop\n      swap1\n      pop\n      add\n      swap4\n      pop\n      pop\n      pop\n      pop\n      mload(0x40)\n      dup1\n      swap2\n      sub\n      swap1\n      log1\n        /* \"contracts/dETH.sol\":23690:24348  function swapTokensForEth(uint256 tokenAmount) private {\r... */\n      pop\n      pop\n      jump\t// out\n        /* \"contracts/dETH.sol\":23546:23680  function sendETHToFee(uint256 amount) private {\r... */\n    tag_431:\n        /* \"contracts/dETH.sol\":23603:23619  marketingAddress */\n      0x03\n      0x00\n      swap1\n      sload\n      swap1\n      0x0100\n      exp\n      swap1\n      div\n      0xffffffffffffffffffffffffffffffffffffffff\n      and\n        /* \"contracts/dETH.sol\":23603:23628  marketingAddress.transfer */\n      0xffffffffffffffffffffffffffffffffffffffff\n      and\n        /* \"contracts/dETH.sol\":23603:23636  marketingAddress.transfer(amount) */\n      0x08fc\n        /* \"contracts/dETH.sol\":23629:23635  amount */\n      dup3\n        /* \"contracts/dETH.sol\":23603:23636  marketingAddress.transfer(amount) */\n      swap1\n      dup2\n      iszero\n      mul\n      swap1\n      mload(0x40)\n      0x00\n      mload(0x40)\n      dup1\n      dup4\n      sub\n      dup2\n      dup6\n      dup9\n      dup9\n      call\n      swap4\n      pop\n      pop\n      pop\n      pop\n      iszero\n      dup1\n      iszero\n      tag_515\n      jumpi\n      returndatasize\n      0x00\n      dup1\n      returndatacopy\n      revert(0x00, returndatasize)\n    tag_515:\n      pop\n        /* \"contracts/dETH.sol\":23652:23672  SendETHToFee(amount) */\n      0xb6b34f3cfef2b0bb0e47223ab355ff7c3615a62fe5f469444611e679411246c6\n        /* \"contracts/dETH.sol\":23665:23671  amount */\n      dup2\n        /* \"contracts/dETH.sol\":23652:23672  SendETHToFee(amount) */\n      mload(0x40)\n      dup1\n      dup3\n      dup2\n      mstore\n      0x20\n      add\n      swap2\n      pop\n      pop\n      mload(0x40)\n      dup1\n      swap2\n      sub\n      swap1\n      log1\n        /* \"contracts/dETH.sol\":23546:23680  function sendETHToFee(uint256 amount) private {\r... */\n      pop\n      jump\t// out\n        /* \"contracts/dETH.sol\":30681:30916  function removeAllFee() private {\r... */\n    tag_435:\n        /* \"contracts/dETH.sol\":30739:30740  0 */\n      0x00\n        /* \"contracts/dETH.sol\":30728:30735  _taxFee */\n      sload(0x12)\n        /* \"contracts/dETH.sol\":30728:30740  _taxFee == 0 */\n      eq\n        /* \"contracts/dETH.sol\":30728:30762  _taxFee == 0 && _liquidityFee == 0 */\n      dup1\n      iszero\n      tag_517\n      jumpi\n      pop\n        /* \"contracts/dETH.sol\":30761:30762  0 */\n      0x00\n        /* \"contracts/dETH.sol\":30744:30757  _liquidityFee */\n      sload(0x14)\n        /* \"contracts/dETH.sol\":30744:30762  _liquidityFee == 0 */\n      eq\n        /* \"contracts/dETH.sol\":30728:30762  _taxFee == 0 && _liquidityFee == 0 */\n    tag_517:\n        /* \"contracts/dETH.sol\":30724:30771  if (_taxFee == 0 && _liquidityFee == 0) return; */\n      iszero\n      tag_518\n      jumpi\n        /* \"contracts/dETH.sol\":30764:30771  return; */\n      jump(tag_516)\n        /* \"contracts/dETH.sol\":30724:30771  if (_taxFee == 0 && _liquidityFee == 0) return; */\n    tag_518:\n        /* \"contracts/dETH.sol\":30801:30808  _taxFee */\n      sload(0x12)\n        /* \"contracts/dETH.sol\":30783:30798  _previousTaxFee */\n      0x13\n        /* \"contracts/dETH.sol\":30783:30808  _previousTaxFee = _taxFee */\n      dup2\n      swap1\n      sstore\n      pop\n        /* \"contracts/dETH.sol\":30843:30856  _liquidityFee */\n      sload(0x14)\n        /* \"contracts/dETH.sol\":30819:30840  _previousLiquidityFee */\n      0x15\n        /* \"contracts/dETH.sol\":30819:30856  _previousLiquidityFee = _liquidityFee */\n      dup2\n      swap1\n      sstore\n      pop\n        /* \"contracts/dETH.sol\":30879:30880  0 */\n      0x00\n        /* \"contracts/dETH.sol\":30869:30876  _taxFee */\n      0x12\n        /* \"contracts/dETH.sol\":30869:30880  _taxFee = 0 */\n      dup2\n      swap1\n      sstore\n      pop\n        /* \"contracts/dETH.sol\":30907:30908  0 */\n      0x00\n        /* \"contracts/dETH.sol\":30891:30904  _liquidityFee */\n      0x14\n        /* \"contracts/dETH.sol\":30891:30908  _liquidityFee = 0 */\n      dup2\n      swap1\n      sstore\n      pop\n        /* \"contracts/dETH.sol\":30681:30916  function removeAllFee() private {\r... */\n    tag_516:\n      jump\t// out\n        /* \"contracts/dETH.sol\":26672:27235  function _transferFromExcluded(address sender, address recipient, uint256 tAmount) private {\r... */\n    tag_439:\n        /* \"contracts/dETH.sol\":26775:26790  uint256 rAmount */\n      0x00\n        /* \"contracts/dETH.sol\":26792:26815  uint256 rTransferAmount */\n      dup1\n        /* \"contracts/dETH.sol\":26817:26829  uint256 rFee */\n      0x00\n        /* \"contracts/dETH.sol\":26831:26854  uint256 tTransferAmount */\n      dup1\n        /* \"contracts/dETH.sol\":26856:26868  uint256 tFee */\n      0x00\n        /* \"contracts/dETH.sol\":26870:26888  uint256 tLiquidity */\n      dup1\n        /* \"contracts/dETH.sol\":26892:26911  _getValues(tAmount) */\n      tag_520\n        /* \"contracts/dETH.sol\":26903:26910  tAmount */\n      dup8\n        /* \"contracts/dETH.sol\":26892:26902  _getValues */\n      tag_274\n        /* \"contracts/dETH.sol\":26892:26911  _getValues(tAmount) */\n      jump\t// in\n    tag_520:\n        /* \"contracts/dETH.sol\":26774:26911  (uint256 rAmount, uint256 rTransferAmount, uint256 rFee, uint256 tTransferAmount, uint256 tFee, uint256 tLiquidity) = _getValues(tAmount) */\n      swap6\n      pop\n      swap6\n      pop\n      swap6\n      pop\n      swap6\n      pop\n      swap6\n      pop\n      swap6\n      pop\n        /* \"contracts/dETH.sol\":26940:26968  _tOwned[sender].sub(tAmount) */\n      tag_521\n        /* \"contracts/dETH.sol\":26960:26967  tAmount */\n      dup8\n        /* \"contracts/dETH.sol\":26940:26947  _tOwned */\n      0x05\n        /* \"contracts/dETH.sol\":26940:26955  _tOwned[sender] */\n      0x00\n        /* \"contracts/dETH.sol\":26948:26954  sender */\n      dup13\n        /* \"contracts/dETH.sol\":26940:26955  _tOwned[sender] */\n      0xffffffffffffffffffffffffffffffffffffffff\n      and\n      0xffffffffffffffffffffffffffffffffffffffff\n      and\n      dup2\n      mstore\n      0x20\n      add\n      swap1\n      dup2\n      mstore\n      0x20\n      add\n      0x00\n      keccak256\n      sload\n        /* \"contracts/dETH.sol\":26940:26959  _tOwned[sender].sub */\n      tag_276\n      swap1\n        /* \"contracts/dETH.sol\":26940:26968  _tOwned[sender].sub(tAmount) */\n      swap2\n      swap1\n      0xffffffff\n      and\n      jump\t// in\n    tag_521:\n        /* \"contracts/dETH.sol\":26922:26929  _tOwned */\n      0x05\n        /* \"contracts/dETH.sol\":26922:26937  _tOwned[sender] */\n      0x00\n        /* \"contracts/dETH.sol\":26930:26936  sender */\n      dup12\n        /* \"contracts/dETH.sol\":26922:26937  _tOwned[sender] */\n      0xffffffffffffffffffffffffffffffffffffffff\n      and\n      0xffffffffffffffffffffffffffffffffffffffff\n      and\n      dup2\n      mstore\n      0x20\n      add\n      swap1\n      dup2\n      mstore\n      0x20\n      add\n      0x00\n      keccak256\n        /* \"contracts/dETH.sol\":26922:26968  _tOwned[sender] = _tOwned[sender].sub(tAmount) */\n      dup2\n      swap1\n      sstore\n      pop\n        /* \"contracts/dETH.sol\":26997:27025  _rOwned[sender].sub(rAmount) */\n      tag_522\n        /* \"contracts/dETH.sol\":27017:27024  rAmount */\n      dup7\n        /* \"contracts/dETH.sol\":26997:27004  _rOwned */\n      0x04\n        /* \"contracts/dETH.sol\":26997:27012  _rOwned[sender] */\n      0x00\n        /* \"contracts/dETH.sol\":27005:27011  sender */\n      dup13\n        /* \"contracts/dETH.sol\":26997:27012  _rOwned[sender] */\n      0xffffffffffffffffffffffffffffffffffffffff\n      and\n      0xffffffffffffffffffffffffffffffffffffffff\n      and\n      dup2\n      mstore\n      0x20\n      add\n      swap1\n      dup2\n      mstore\n      0x20\n      add\n      0x00\n      keccak256\n      sload\n        /* \"contracts/dETH.sol\":26997:27016  _rOwned[sender].sub */\n      tag_276\n      swap1\n        /* \"contracts/dETH.sol\":26997:27025  _rOwned[sender].sub(rAmount) */\n      swap2\n      swap1\n      0xffffffff\n      and\n      jump\t// in\n    tag_522:\n        /* \"contracts/dETH.sol\":26979:26986  _rOwned */\n      0x04\n        /* \"contracts/dETH.sol\":26979:26994  _rOwned[sender] */\n      0x00\n        /* \"contracts/dETH.sol\":26987:26993  sender */\n      dup12\n        /* \"contracts/dETH.sol\":26979:26994  _rOwned[sender] */\n      0xffffffffffffffffffffffffffffffffffffffff\n      and\n      0xffffffffffffffffffffffffffffffffffffffff\n      and\n      dup2\n      mstore\n      0x20\n      add\n      swap1\n      dup2\n      mstore\n      0x20\n      add\n      0x00\n      keccak256\n        /* \"contracts/dETH.sol\":26979:27025  _rOwned[sender] = _rOwned[sender].sub(rAmount) */\n      dup2\n      swap1\n      sstore\n      pop\n        /* \"contracts/dETH.sol\":27057:27096  _rOwned[recipient].add(rTransferAmount) */\n      tag_523\n        /* \"contracts/dETH.sol\":27080:27095  rTransferAmount */\n      dup6\n        /* \"contracts/dETH.sol\":27057:27064  _rOwned */\n      0x04\n        /* \"contracts/dETH.sol\":27057:27075  _rOwned[recipient] */\n      0x00\n        /* \"contracts/dETH.sol\":27065:27074  recipient */\n      dup12\n        /* \"contracts/dETH.sol\":27057:27075  _rOwned[recipient] */\n      0xffffffffffffffffffffffffffffffffffffffff\n      and\n      0xffffffffffffffffffffffffffffffffffffffff\n      and\n      dup2\n      mstore\n      0x20\n      add\n      swap1\n      dup2\n      mstore\n      0x20\n      add\n      0x00\n      keccak256\n      sload\n        /* \"contracts/dETH.sol\":27057:27079  _rOwned[recipient].add */\n      tag_269\n      swap1\n        /* \"contracts/dETH.sol\":27057:27096  _rOwned[recipient].add(rTransferAmount) */\n      swap2\n      swap1\n      0xffffffff\n      and\n      jump\t// in\n    tag_523:\n        /* \"contracts/dETH.sol\":27036:27043  _rOwned */\n      0x04\n        /* \"contracts/dETH.sol\":27036:27054  _rOwned[recipient] */\n      0x00\n        /* \"contracts/dETH.sol\":27044:27053  recipient */\n      dup11\n        /* \"contracts/dETH.sol\":27036:27054  _rOwned[recipient] */\n      0xffffffffffffffffffffffffffffffffffffffff\n      and\n      0xffffffffffffffffffffffffffffffffffffffff\n      and\n      dup2\n      mstore\n      0x20\n      add\n      swap1\n      dup2\n      mstore\n      0x20\n      add\n      0x00\n      keccak256\n        /* \"contracts/dETH.sol\":27036:27096  _rOwned[recipient] = _rOwned[recipient].add(rTransferAmount) */\n      dup2\n      swap1\n      sstore\n      pop\n        /* \"contracts/dETH.sol\":27107:27133  _takeLiquidity(tLiquidity) */\n      tag_524\n        /* \"contracts/dETH.sol\":27122:27132  tLiquidity */\n      dup2\n        /* \"contracts/dETH.sol\":27107:27121  _takeLiquidity */\n      tag_525\n        /* \"contracts/dETH.sol\":27107:27133  _takeLiquidity(tLiquidity) */\n      jump\t// in\n    tag_524:\n        /* \"contracts/dETH.sol\":27144:27167  _reflectFee(rFee, tFee) */\n      tag_526\n        /* \"contracts/dETH.sol\":27156:27160  rFee */\n      dup5\n        /* \"contracts/dETH.sol\":27162:27166  tFee */\n      dup4\n        /* \"contracts/dETH.sol\":27144:27155  _reflectFee */\n      tag_527\n        /* \"contracts/dETH.sol\":27144:27167  _reflectFee(rFee, tFee) */\n      jump\t// in\n    tag_526:\n        /* \"contracts/dETH.sol\":27200:27209  recipient */\n      dup8\n        /* \"contracts/dETH.sol\":27183:27227  Transfer(sender, recipient, tTransferAmount) */\n      0xffffffffffffffffffffffffffffffffffffffff\n      and\n        /* \"contracts/dETH.sol\":27192:27198  sender */\n      dup10\n        /* \"contracts/dETH.sol\":27183:27227  Transfer(sender, recipient, tTransferAmount) */\n      0xffffffffffffffffffffffffffffffffffffffff\n      and\n      0xddf252ad1be2c89b69c2b068fc378daa952ba7f163c4a11628f55a4df523b3ef\n        /* \"contracts/dETH.sol\":27211:27226  tTransferAmount */\n      dup6\n        /* \"contracts/dETH.sol\":27183:27227  Transfer(sender, recipient, tTransferAmount) */\n      mload(0x40)\n      dup1\n      dup3\n      dup2\n      mstore\n      0x20\n      add\n      swap2\n      pop\n      pop\n      mload(0x40)\n      dup1\n      swap2\n      sub\n      swap1\n      log3\n        /* \"contracts/dETH.sol\":26672:27235  function _transferFromExcluded(address sender, address recipient, uint256 tAmount) private {\r... */\n      pop\n      pop\n      pop\n      pop\n      pop\n      pop\n      pop\n      pop\n      pop\n      jump\t// out\n        /* \"contracts/dETH.sol\":26089:26664  function _transferToExcluded(address sender, address recipient, uint256 tAmount) private {\r... */\n    tag_444:\n        /* \"contracts/dETH.sol\":26190:26205  uint256 rAmount */\n      0x00\n        /* \"contracts/dETH.sol\":26207:26230  uint256 rTransferAmount */\n      dup1\n        /* \"contracts/dETH.sol\":26232:26244  uint256 rFee */\n      0x00\n        /* \"contracts/dETH.sol\":26246:26269  uint256 tTransferAmount */\n      dup1\n        /* \"contracts/dETH.sol\":26271:26283  uint256 tFee */\n      0x00\n        /* \"contracts/dETH.sol\":26285:26303  uint256 tLiquidity */\n      dup1\n        /* \"contracts/dETH.sol\":26307:26326  _getValues(tAmount) */\n      tag_529\n        /* \"contracts/dETH.sol\":26318:26325  tAmount */\n      dup8\n        /* \"contracts/dETH.sol\":26307:26317  _getValues */\n      tag_274\n        /* \"contracts/dETH.sol\":26307:26326  _getValues(tAmount) */\n      jump\t// in\n    tag_529:\n        /* \"contracts/dETH.sol\":26189:26326  (uint256 rAmount, uint256 rTransferAmount, uint256 rFee, uint256 tTransferAmount, uint256 tFee, uint256 tLiquidity) = _getValues(tAmount) */\n      swap6\n      pop\n      swap6\n      pop\n      swap6\n      pop\n      swap6\n      pop\n      swap6\n      pop\n      swap6\n      pop\n        /* \"contracts/dETH.sol\":26355:26383  _rOwned[sender].sub(rAmount) */\n      tag_530\n        /* \"contracts/dETH.sol\":26375:26382  rAmount */\n      dup7\n        /* \"contracts/dETH.sol\":26355:26362  _rOwned */\n      0x04\n        /* \"contracts/dETH.sol\":26355:26370  _rOwned[sender] */\n      0x00\n        /* \"contracts/dETH.sol\":26363:26369  sender */\n      dup13\n        /* \"contracts/dETH.sol\":26355:26370  _rOwned[sender] */\n      0xffffffffffffffffffffffffffffffffffffffff\n      and\n      0xffffffffffffffffffffffffffffffffffffffff\n      and\n      dup2\n      mstore\n      0x20\n      add\n      swap1\n      dup2\n      mstore\n      0x20\n      add\n      0x00\n      keccak256\n      sload\n        /* \"contracts/dETH.sol\":26355:26374  _rOwned[sender].sub */\n      tag_276\n      swap1\n        /* \"contracts/dETH.sol\":26355:26383  _rOwned[sender].sub(rAmount) */\n      swap2\n      swap1\n      0xffffffff\n      and\n      jump\t// in\n    tag_530:\n        /* \"contracts/dETH.sol\":26337:26344  _rOwned */\n      0x04\n        /* \"contracts/dETH.sol\":26337:26352  _rOwned[sender] */\n      0x00\n        /* \"contracts/dETH.sol\":26345:26351  sender */\n      dup12\n        /* \"contracts/dETH.sol\":26337:26352  _rOwned[sender] */\n      0xffffffffffffffffffffffffffffffffffffffff\n      and\n      0xffffffffffffffffffffffffffffffffffffffff\n      and\n      dup2\n      mstore\n      0x20\n      add\n      swap1\n      dup2\n      mstore\n      0x20\n      add\n      0x00\n      keccak256\n        /* \"contracts/dETH.sol\":26337:26383  _rOwned[sender] = _rOwned[sender].sub(rAmount) */\n      dup2\n      swap1\n      sstore\n      pop\n        /* \"contracts/dETH.sol\":26415:26454  _tOwned[recipient].add(tTransferAmount) */\n      tag_531\n        /* \"contracts/dETH.sol\":26438:26453  tTransferAmount */\n      dup4\n        /* \"contracts/dETH.sol\":26415:26422  _tOwned */\n      0x05\n        /* \"contracts/dETH.sol\":26415:26433  _tOwned[recipient] */\n      0x00\n        /* \"contracts/dETH.sol\":26423:26432  recipient */\n      dup12\n        /* \"contracts/dETH.sol\":26415:26433  _tOwned[recipient] */\n      0xffffffffffffffffffffffffffffffffffffffff\n      and\n      0xffffffffffffffffffffffffffffffffffffffff\n      and\n      dup2\n      mstore\n      0x20\n      add\n      swap1\n      dup2\n      mstore\n      0x20\n      add\n      0x00\n      keccak256\n      sload\n        /* \"contracts/dETH.sol\":26415:26437  _tOwned[recipient].add */\n      tag_269\n      swap1\n        /* \"contracts/dETH.sol\":26415:26454  _tOwned[recipient].add(tTransferAmount) */\n      swap2\n      swap1\n      0xffffffff\n      and\n      jump\t// in\n    tag_531:\n        /* \"contracts/dETH.sol\":26394:26401  _tOwned */\n      0x05\n        /* \"contracts/dETH.sol\":26394:26412  _tOwned[recipient] */\n      0x00\n        /* \"contracts/dETH.sol\":26402:26411  recipient */\n      dup11\n        /* \"contracts/dETH.sol\":26394:26412  _tOwned[recipient] */\n      0xffffffffffffffffffffffffffffffffffffffff\n      and\n      0xffffffffffffffffffffffffffffffffffffffff\n      and\n      dup2\n      mstore\n      0x20\n      add\n      swap1\n      dup2\n      mstore\n      0x20\n      add\n      0x00\n      keccak256\n        /* \"contracts/dETH.sol\":26394:26454  _tOwned[recipient] = _tOwned[recipient].add(tTransferAmount) */\n      dup2\n      swap1\n      sstore\n      pop\n        /* \"contracts/dETH.sol\":26486:26525  _rOwned[recipient].add(rTransferAmount) */\n      tag_532\n        /* \"contracts/dETH.sol\":26509:26524  rTransferAmount */\n      dup6\n        /* \"contracts/dETH.sol\":26486:26493  _rOwned */\n      0x04\n        /* \"contracts/dETH.sol\":26486:26504  _rOwned[recipient] */\n      0x00\n        /* \"contracts/dETH.sol\":26494:26503  recipient */\n      dup12\n        /* \"contracts/dETH.sol\":26486:26504  _rOwned[recipient] */\n      0xffffffffffffffffffffffffffffffffffffffff\n      and\n      0xffffffffffffffffffffffffffffffffffffffff\n      and\n      dup2\n      mstore\n      0x20\n      add\n      swap1\n      dup2\n      mstore\n      0x20\n      add\n      0x00\n      keccak256\n      sload\n        /* \"contracts/dETH.sol\":26486:26508  _rOwned[recipient].add */\n      tag_269\n      swap1\n        /* \"contracts/dETH.sol\":26486:26525  _rOwned[recipient].add(rTransferAmount) */\n      swap2\n      swap1\n      0xffffffff\n      and\n      jump\t// in\n    tag_532:\n        /* \"contracts/dETH.sol\":26465:26472  _rOwned */\n      0x04\n        /* \"contracts/dETH.sol\":26465:26483  _rOwned[recipient] */\n      0x00\n        /* \"contracts/dETH.sol\":26473:26482  recipient */\n      dup11\n        /* \"contracts/dETH.sol\":26465:26483  _rOwned[recipient] */\n      0xffffffffffffffffffffffffffffffffffffffff\n      and\n      0xffffffffffffffffffffffffffffffffffffffff\n      and\n      dup2\n      mstore\n      0x20\n      add\n      swap1\n      dup2\n      mstore\n      0x20\n      add\n      0x00\n      keccak256\n        /* \"contracts/dETH.sol\":26465:26525  _rOwned[recipient] = _rOwned[recipient].add(rTransferAmount) */\n      dup2\n      swap1\n      sstore\n      pop\n        /* \"contracts/dETH.sol\":26536:26562  _takeLiquidity(tLiquidity) */\n      tag_533\n        /* \"contracts/dETH.sol\":26551:26561  tLiquidity */\n      dup2\n        /* \"contracts/dETH.sol\":26536:26550  _takeLiquidity */\n      tag_525\n        /* \"contracts/dETH.sol\":26536:26562  _takeLiquidity(tLiquidity) */\n      jump\t// in\n    tag_533:\n        /* \"contracts/dETH.sol\":26573:26596  _reflectFee(rFee, tFee) */\n      tag_534\n        /* \"contracts/dETH.sol\":26585:26589  rFee */\n      dup5\n        /* \"contracts/dETH.sol\":26591:26595  tFee */\n      dup4\n        /* \"contracts/dETH.sol\":26573:26584  _reflectFee */\n      tag_527\n        /* \"contracts/dETH.sol\":26573:26596  _reflectFee(rFee, tFee) */\n      jump\t// in\n    tag_534:\n        /* \"contracts/dETH.sol\":26629:26638  recipient */\n      dup8\n        /* \"contracts/dETH.sol\":26612:26656  Transfer(sender, recipient, tTransferAmount) */\n      0xffffffffffffffffffffffffffffffffffffffff\n      and\n        /* \"contracts/dETH.sol\":26621:26627  sender */\n      dup10\n        /* \"contracts/dETH.sol\":26612:26656  Transfer(sender, recipient, tTransferAmount) */\n      0xffffffffffffffffffffffffffffffffffffffff\n      and\n      0xddf252ad1be2c89b69c2b068fc378daa952ba7f163c4a11628f55a4df523b3ef\n        /* \"contracts/dETH.sol\":26640:26655  tTransferAmount */\n      dup6\n        /* \"contracts/dETH.sol\":26612:26656  Transfer(sender, recipient, tTransferAmount) */\n      mload(0x40)\n      dup1\n      dup3\n      dup2\n      mstore\n      0x20\n      add\n      swap2\n      pop\n      pop\n      mload(0x40)\n      dup1\n      swap2\n      sub\n      swap1\n      log3\n        /* \"contracts/dETH.sol\":26089:26664  function _transferToExcluded(address sender, address recipient, uint256 tAmount) private {\r... */\n      pop\n      pop\n      pop\n      pop\n      pop\n      pop\n      pop\n      pop\n      pop\n      jump\t// out\n        /* \"contracts/dETH.sol\":27243:27877  function _transferBothExcluded(address sender, address recipient, uint256 tAmount) private {\r... */\n    tag_449:\n        /* \"contracts/dETH.sol\":27346:27361  uint256 rAmount */\n      0x00\n        /* \"contracts/dETH.sol\":27363:27386  uint256 rTransferAmount */\n      dup1\n        /* \"contracts/dETH.sol\":27388:27400  uint256 rFee */\n      0x00\n        /* \"contracts/dETH.sol\":27402:27425  uint256 tTransferAmount */\n      dup1\n        /* \"contracts/dETH.sol\":27427:27439  uint256 tFee */\n      0x00\n        /* \"contracts/dETH.sol\":27441:27459  uint256 tLiquidity */\n      dup1\n        /* \"contracts/dETH.sol\":27463:27482  _getValues(tAmount) */\n      tag_536\n        /* \"contracts/dETH.sol\":27474:27481  tAmount */\n      dup8\n        /* \"contracts/dETH.sol\":27463:27473  _getValues */\n      tag_274\n        /* \"contracts/dETH.sol\":27463:27482  _getValues(tAmount) */\n      jump\t// in\n    tag_536:\n        /* \"contracts/dETH.sol\":27345:27482  (uint256 rAmount, uint256 rTransferAmount, uint256 rFee, uint256 tTransferAmount, uint256 tFee, uint256 tLiquidity) = _getValues(tAmount) */\n      swap6\n      pop\n      swap6\n      pop\n      swap6\n      pop\n      swap6\n      pop\n      swap6\n      pop\n      swap6\n      pop\n        /* \"contracts/dETH.sol\":27511:27539  _tOwned[sender].sub(tAmount) */\n      tag_537\n        /* \"contracts/dETH.sol\":27531:27538  tAmount */\n      dup8\n        /* \"contracts/dETH.sol\":27511:27518  _tOwned */\n      0x05\n        /* \"contracts/dETH.sol\":27511:27526  _tOwned[sender] */\n      0x00\n        /* \"contracts/dETH.sol\":27519:27525  sender */\n      dup13\n        /* \"contracts/dETH.sol\":27511:27526  _tOwned[sender] */\n      0xffffffffffffffffffffffffffffffffffffffff\n      and\n      0xffffffffffffffffffffffffffffffffffffffff\n      and\n      dup2\n      mstore\n      0x20\n      add\n      swap1\n      dup2\n      mstore\n      0x20\n      add\n      0x00\n      keccak256\n      sload\n        /* \"contracts/dETH.sol\":27511:27530  _tOwned[sender].sub */\n      tag_276\n      swap1\n        /* \"contracts/dETH.sol\":27511:27539  _tOwned[sender].sub(tAmount) */\n      swap2\n      swap1\n      0xffffffff\n      and\n      jump\t// in\n    tag_537:\n        /* \"contracts/dETH.sol\":27493:27500  _tOwned */\n      0x05\n        /* \"contracts/dETH.sol\":27493:27508  _tOwned[sender] */\n      0x00\n        /* \"contracts/dETH.sol\":27501:27507  sender */\n      dup12\n        /* \"contracts/dETH.sol\":27493:27508  _tOwned[sender] */\n      0xffffffffffffffffffffffffffffffffffffffff\n      and\n      0xffffffffffffffffffffffffffffffffffffffff\n      and\n      dup2\n      mstore\n      0x20\n      add\n      swap1\n      dup2\n      mstore\n      0x20\n      add\n      0x00\n      keccak256\n        /* \"contracts/dETH.sol\":27493:27539  _tOwned[sender] = _tOwned[sender].sub(tAmount) */\n      dup2\n      swap1\n      sstore\n      pop\n        /* \"contracts/dETH.sol\":27568:27596  _rOwned[sender].sub(rAmount) */\n      tag_538\n        /* \"contracts/dETH.sol\":27588:27595  rAmount */\n      dup7\n        /* \"contracts/dETH.sol\":27568:27575  _rOwned */\n      0x04\n        /* \"contracts/dETH.sol\":27568:27583  _rOwned[sender] */\n      0x00\n        /* \"contracts/dETH.sol\":27576:27582  sender */\n      dup13\n        /* \"contracts/dETH.sol\":27568:27583  _rOwned[sender] */\n      0xffffffffffffffffffffffffffffffffffffffff\n      and\n      0xffffffffffffffffffffffffffffffffffffffff\n      and\n      dup2\n      mstore\n      0x20\n      add\n      swap1\n      dup2\n      mstore\n      0x20\n      add\n      0x00\n      keccak256\n      sload\n        /* \"contracts/dETH.sol\":27568:27587  _rOwned[sender].sub */\n      tag_276\n      swap1\n        /* \"contracts/dETH.sol\":27568:27596  _rOwned[sender].sub(rAmount) */\n      swap2\n      swap1\n      0xffffffff\n      and\n      jump\t// in\n    tag_538:\n        /* \"contracts/dETH.sol\":27550:27557  _rOwned */\n      0x04\n        /* \"contracts/dETH.sol\":27550:27565  _rOwned[sender] */\n      0x00\n        /* \"contracts/dETH.sol\":27558:27564  sender */\n      dup12\n        /* \"contracts/dETH.sol\":27550:27565  _rOwned[sender] */\n      0xffffffffffffffffffffffffffffffffffffffff\n      and\n      0xffffffffffffffffffffffffffffffffffffffff\n      and\n      dup2\n      mstore\n      0x20\n      add\n      swap1\n      dup2\n      mstore\n      0x20\n      add\n      0x00\n      keccak256\n        /* \"contracts/dETH.sol\":27550:27596  _rOwned[sender] = _rOwned[sender].sub(rAmount) */\n      dup2\n      swap1\n      sstore\n      pop\n        /* \"contracts/dETH.sol\":27628:27667  _tOwned[recipient].add(tTransferAmount) */\n      tag_539\n        /* \"contracts/dETH.sol\":27651:27666  tTransferAmount */\n      dup4\n        /* \"contracts/dETH.sol\":27628:27635  _tOwned */\n      0x05\n        /* \"contracts/dETH.sol\":27628:27646  _tOwned[recipient] */\n      0x00\n        /* \"contracts/dETH.sol\":27636:27645  recipient */\n      dup12\n        /* \"contracts/dETH.sol\":27628:27646  _tOwned[recipient] */\n      0xffffffffffffffffffffffffffffffffffffffff\n      and\n      0xffffffffffffffffffffffffffffffffffffffff\n      and\n      dup2\n      mstore\n      0x20\n      add\n      swap1\n      dup2\n      mstore\n      0x20\n      add\n      0x00\n      keccak256\n      sload\n        /* \"contracts/dETH.sol\":27628:27650  _tOwned[recipient].add */\n      tag_269\n      swap1\n        /* \"contracts/dETH.sol\":27628:27667  _tOwned[recipient].add(tTransferAmount) */\n      swap2\n      swap1\n      0xffffffff\n      and\n      jump\t// in\n    tag_539:\n        /* \"contracts/dETH.sol\":27607:27614  _tOwned */\n      0x05\n        /* \"contracts/dETH.sol\":27607:27625  _tOwned[recipient] */\n      0x00\n        /* \"contracts/dETH.sol\":27615:27624  recipient */\n      dup11\n        /* \"contracts/dETH.sol\":27607:27625  _tOwned[recipient] */\n      0xffffffffffffffffffffffffffffffffffffffff\n      and\n      0xffffffffffffffffffffffffffffffffffffffff\n      and\n      dup2\n      mstore\n      0x20\n      add\n      swap1\n      dup2\n      mstore\n      0x20\n      add\n      0x00\n      keccak256\n        /* \"contracts/dETH.sol\":27607:27667  _tOwned[recipient] = _tOwned[recipient].add(tTransferAmount) */\n      dup2\n      swap1\n      sstore\n      pop\n        /* \"contracts/dETH.sol\":27699:27738  _rOwned[recipient].add(rTransferAmount) */\n      tag_540\n        /* \"contracts/dETH.sol\":27722:27737  rTransferAmount */\n      dup6\n        /* \"contracts/dETH.sol\":27699:27706  _rOwned */\n      0x04\n        /* \"contracts/dETH.sol\":27699:27717  _rOwned[recipient] */\n      0x00\n        /* \"contracts/dETH.sol\":27707:27716  recipient */\n      dup12\n        /* \"contracts/dETH.sol\":27699:27717  _rOwned[recipient] */\n      0xffffffffffffffffffffffffffffffffffffffff\n      and\n      0xffffffffffffffffffffffffffffffffffffffff\n      and\n      dup2\n      mstore\n      0x20\n      add\n      swap1\n      dup2\n      mstore\n      0x20\n      add\n      0x00\n      keccak256\n      sload\n        /* \"contracts/dETH.sol\":27699:27721  _rOwned[recipient].add */\n      tag_269\n      swap1\n        /* \"contracts/dETH.sol\":27699:27738  _rOwned[recipient].add(rTransferAmount) */\n      swap2\n      swap1\n      0xffffffff\n      and\n      jump\t// in\n    tag_540:\n        /* \"contracts/dETH.sol\":27678:27685  _rOwned */\n      0x04\n        /* \"contracts/dETH.sol\":27678:27696  _rOwned[recipient] */\n      0x00\n        /* \"contracts/dETH.sol\":27686:27695  recipient */\n      dup11\n        /* \"contracts/dETH.sol\":27678:27696  _rOwned[recipient] */\n      0xffffffffffffffffffffffffffffffffffffffff\n      and\n      0xffffffffffffffffffffffffffffffffffffffff\n      and\n      dup2\n      mstore\n      0x20\n      add\n      swap1\n      dup2\n      mstore\n      0x20\n      add\n      0x00\n      keccak256\n        /* \"contracts/dETH.sol\":27678:27738  _rOwned[recipient] = _rOwned[recipient].add(rTransferAmount) */\n      dup2\n      swap1\n      sstore\n      pop\n        /* \"contracts/dETH.sol\":27749:27775  _takeLiquidity(tLiquidity) */\n      tag_541\n        /* \"contracts/dETH.sol\":27764:27774  tLiquidity */\n      dup2\n        /* \"contracts/dETH.sol\":27749:27763  _takeLiquidity */\n      tag_525\n        /* \"contracts/dETH.sol\":27749:27775  _takeLiquidity(tLiquidity) */\n      jump\t// in\n    tag_541:\n        /* \"contracts/dETH.sol\":27786:27809  _reflectFee(rFee, tFee) */\n      tag_542\n        /* \"contracts/dETH.sol\":27798:27802  rFee */\n      dup5\n        /* \"contracts/dETH.sol\":27804:27808  tFee */\n      dup4\n        /* \"contracts/dETH.sol\":27786:27797  _reflectFee */\n      tag_527\n        /* \"contracts/dETH.sol\":27786:27809  _reflectFee(rFee, tFee) */\n      jump\t// in\n    tag_542:\n        /* \"contracts/dETH.sol\":27842:27851  recipient */\n      dup8\n        /* \"contracts/dETH.sol\":27825:27869  Transfer(sender, recipient, tTransferAmount) */\n      0xffffffffffffffffffffffffffffffffffffffff\n      and\n        /* \"contracts/dETH.sol\":27834:27840  sender */\n      dup10\n        /* \"contracts/dETH.sol\":27825:27869  Transfer(sender, recipient, tTransferAmount) */\n      0xffffffffffffffffffffffffffffffffffffffff\n      and\n      0xddf252ad1be2c89b69c2b068fc378daa952ba7f163c4a11628f55a4df523b3ef\n        /* \"contracts/dETH.sol\":27853:27868  tTransferAmount */\n      dup6\n        /* \"contracts/dETH.sol\":27825:27869  Transfer(sender, recipient, tTransferAmount) */\n      mload(0x40)\n      dup1\n      dup3\n      dup2\n      mstore\n      0x20\n      add\n      swap2\n      pop\n      pop\n      mload(0x40)\n      dup1\n      swap2\n      sub\n      swap1\n      log3\n        /* \"contracts/dETH.sol\":27243:27877  function _transferBothExcluded(address sender, address recipient, uint256 tAmount) private {\r... */\n      pop\n      pop\n      pop\n      pop\n      pop\n      pop\n      pop\n      pop\n      pop\n      jump\t// out\n        /* \"contracts/dETH.sol\":25579:26081  function _transferStandard(address sender, address recipient, uint256 tAmount) private {\r... */\n    tag_452:\n        /* \"contracts/dETH.sol\":25678:25693  uint256 rAmount */\n      0x00\n        /* \"contracts/dETH.sol\":25695:25718  uint256 rTransferAmount */\n      dup1\n        /* \"contracts/dETH.sol\":25720:25732  uint256 rFee */\n      0x00\n        /* \"contracts/dETH.sol\":25734:25757  uint256 tTransferAmount */\n      dup1\n        /* \"contracts/dETH.sol\":25759:25771  uint256 tFee */\n      0x00\n        /* \"contracts/dETH.sol\":25773:25791  uint256 tLiquidity */\n      dup1\n        /* \"contracts/dETH.sol\":25795:25814  _getValues(tAmount) */\n      tag_544\n        /* \"contracts/dETH.sol\":25806:25813  tAmount */\n      dup8\n        /* \"contracts/dETH.sol\":25795:25805  _getValues */\n      tag_274\n        /* \"contracts/dETH.sol\":25795:25814  _getValues(tAmount) */\n      jump\t// in\n    tag_544:\n        /* \"contracts/dETH.sol\":25677:25814  (uint256 rAmount, uint256 rTransferAmount, uint256 rFee, uint256 tTransferAmount, uint256 tFee, uint256 tLiquidity) = _getValues(tAmount) */\n      swap6\n      pop\n      swap6\n      pop\n      swap6\n      pop\n      swap6\n      pop\n      swap6\n      pop\n      swap6\n      pop\n        /* \"contracts/dETH.sol\":25843:25871  _rOwned[sender].sub(rAmount) */\n      tag_545\n        /* \"contracts/dETH.sol\":25863:25870  rAmount */\n      dup7\n        /* \"contracts/dETH.sol\":25843:25850  _rOwned */\n      0x04\n        /* \"contracts/dETH.sol\":25843:25858  _rOwned[sender] */\n      0x00\n        /* \"contracts/dETH.sol\":25851:25857  sender */\n      dup13\n        /* \"contracts/dETH.sol\":25843:25858  _rOwned[sender] */\n      0xffffffffffffffffffffffffffffffffffffffff\n      and\n      0xffffffffffffffffffffffffffffffffffffffff\n      and\n      dup2\n      mstore\n      0x20\n      add\n      swap1\n      dup2\n      mstore\n      0x20\n      add\n      0x00\n      keccak256\n      sload\n        /* \"contracts/dETH.sol\":25843:25862  _rOwned[sender].sub */\n      tag_276\n      swap1\n        /* \"contracts/dETH.sol\":25843:25871  _rOwned[sender].sub(rAmount) */\n      swap2\n      swap1\n      0xffffffff\n      and\n      jump\t// in\n    tag_545:\n        /* \"contracts/dETH.sol\":25825:25832  _rOwned */\n      0x04\n        /* \"contracts/dETH.sol\":25825:25840  _rOwned[sender] */\n      0x00\n        /* \"contracts/dETH.sol\":25833:25839  sender */\n      dup12\n        /* \"contracts/dETH.sol\":25825:25840  _rOwned[sender] */\n      0xffffffffffffffffffffffffffffffffffffffff\n      and\n      0xffffffffffffffffffffffffffffffffffffffff\n      and\n      dup2\n      mstore\n      0x20\n      add\n      swap1\n      dup2\n      mstore\n      0x20\n      add\n      0x00\n      keccak256\n        /* \"contracts/dETH.sol\":25825:25871  _rOwned[sender] = _rOwned[sender].sub(rAmount) */\n      dup2\n      swap1\n      sstore\n      pop\n        /* \"contracts/dETH.sol\":25903:25942  _rOwned[recipient].add(rTransferAmount) */\n      tag_546\n        /* \"contracts/dETH.sol\":25926:25941  rTransferAmount */\n      dup6\n        /* \"contracts/dETH.sol\":25903:25910  _rOwned */\n      0x04\n        /* \"contracts/dETH.sol\":25903:25921  _rOwned[recipient] */\n      0x00\n        /* \"contracts/dETH.sol\":25911:25920  recipient */\n      dup12\n        /* \"contracts/dETH.sol\":25903:25921  _rOwned[recipient] */\n      0xffffffffffffffffffffffffffffffffffffffff\n      and\n      0xffffffffffffffffffffffffffffffffffffffff\n      and\n      dup2\n      mstore\n      0x20\n      add\n      swap1\n      dup2\n      mstore\n      0x20\n      add\n      0x00\n      keccak256\n      sload\n        /* \"contracts/dETH.sol\":25903:25925  _rOwned[recipient].add */\n      tag_269\n      swap1\n        /* \"contracts/dETH.sol\":25903:25942  _rOwned[recipient].add(rTransferAmount) */\n      swap2\n      swap1\n      0xffffffff\n      and\n      jump\t// in\n    tag_546:\n        /* \"contracts/dETH.sol\":25882:25889  _rOwned */\n      0x04\n        /* \"contracts/dETH.sol\":25882:25900  _rOwned[recipient] */\n      0x00\n        /* \"contracts/dETH.sol\":25890:25899  recipient */\n      dup11\n        /* \"contracts/dETH.sol\":25882:25900  _rOwned[recipient] */\n      0xffffffffffffffffffffffffffffffffffffffff\n      and\n      0xffffffffffffffffffffffffffffffffffffffff\n      and\n      dup2\n      mstore\n      0x20\n      add\n      swap1\n      dup2\n      mstore\n      0x20\n      add\n      0x00\n      keccak256\n        /* \"contracts/dETH.sol\":25882:25942  _rOwned[recipient] = _rOwned[recipient].add(rTransferAmount) */\n      dup2\n      swap1\n      sstore\n      pop\n        /* \"contracts/dETH.sol\":25953:25979  _takeLiquidity(tLiquidity) */\n      tag_547\n        /* \"contracts/dETH.sol\":25968:25978  tLiquidity */\n      dup2\n        /* \"contracts/dETH.sol\":25953:25967  _takeLiquidity */\n      tag_525\n        /* \"contracts/dETH.sol\":25953:25979  _takeLiquidity(tLiquidity) */\n      jump\t// in\n    tag_547:\n        /* \"contracts/dETH.sol\":25990:26013  _reflectFee(rFee, tFee) */\n      tag_548\n        /* \"contracts/dETH.sol\":26002:26006  rFee */\n      dup5\n        /* \"contracts/dETH.sol\":26008:26012  tFee */\n      dup4\n        /* \"contracts/dETH.sol\":25990:26001  _reflectFee */\n      tag_527\n        /* \"contracts/dETH.sol\":25990:26013  _reflectFee(rFee, tFee) */\n      jump\t// in\n    tag_548:\n        /* \"contracts/dETH.sol\":26046:26055  recipient */\n      dup8\n        /* \"contracts/dETH.sol\":26029:26073  Transfer(sender, recipient, tTransferAmount) */\n      0xffffffffffffffffffffffffffffffffffffffff\n      and\n        /* \"contracts/dETH.sol\":26038:26044  sender */\n      dup10\n        /* \"contracts/dETH.sol\":26029:26073  Transfer(sender, recipient, tTransferAmount) */\n      0xffffffffffffffffffffffffffffffffffffffff\n      and\n      0xddf252ad1be2c89b69c2b068fc378daa952ba7f163c4a11628f55a4df523b3ef\n        /* \"contracts/dETH.sol\":26057:26072  tTransferAmount */\n      dup6\n        /* \"contracts/dETH.sol\":26029:26073  Transfer(sender, recipient, tTransferAmount) */\n      mload(0x40)\n      dup1\n      dup3\n      dup2\n      mstore\n      0x20\n      add\n      swap2\n      pop\n      pop\n      mload(0x40)\n      dup1\n      swap2\n      sub\n      swap1\n      log3\n        /* \"contracts/dETH.sol\":25579:26081  function _transferStandard(address sender, address recipient, uint256 tAmount) private {\r... */\n      pop\n      pop\n      pop\n      pop\n      pop\n      pop\n      pop\n      pop\n      pop\n      jump\t// out\n        /* \"contracts/dETH.sol\":30924:31049  function restoreAllFee() private {\r... */\n    tag_455:\n        /* \"contracts/dETH.sol\":30978:30993  _previousTaxFee */\n      sload(0x13)\n        /* \"contracts/dETH.sol\":30968:30975  _taxFee */\n      0x12\n        /* \"contracts/dETH.sol\":30968:30993  _taxFee = _previousTaxFee */\n      dup2\n      swap1\n      sstore\n      pop\n        /* \"contracts/dETH.sol\":31020:31041  _previousLiquidityFee */\n      sload(0x15)\n        /* \"contracts/dETH.sol\":31004:31017  _liquidityFee */\n      0x14\n        /* \"contracts/dETH.sol\":31004:31041  _liquidityFee = _previousLiquidityFee */\n      dup2\n      swap1\n      sstore\n      pop\n        /* \"contracts/dETH.sol\":30924:31049  function restoreAllFee() private {\r... */\n      jump\t// out\n        /* \"contracts/dETH.sol\":30341:30497  function calculateTaxFee(uint256 _amount) private view returns (uint256) {\r... */\n    tag_483:\n        /* \"contracts/dETH.sol\":30405:30412  uint256 */\n      0x00\n        /* \"contracts/dETH.sol\":30432:30489  _amount.mul(_taxFee).div(\r... */\n      tag_551\n        /* \"contracts/dETH.sol\":30471:30478  10 ** 2 */\n      0x64\n        /* \"contracts/dETH.sol\":30432:30452  _amount.mul(_taxFee) */\n      tag_552\n        /* \"contracts/dETH.sol\":30444:30451  _taxFee */\n      sload(0x12)\n        /* \"contracts/dETH.sol\":30432:30439  _amount */\n      dup6\n        /* \"contracts/dETH.sol\":30432:30443  _amount.mul */\n      tag_385\n      swap1\n        /* \"contracts/dETH.sol\":30432:30452  _amount.mul(_taxFee) */\n      swap2\n      swap1\n      0xffffffff\n      and\n      jump\t// in\n    tag_552:\n        /* \"contracts/dETH.sol\":30432:30456  _amount.mul(_taxFee).div */\n      tag_228\n      swap1\n        /* \"contracts/dETH.sol\":30432:30489  _amount.mul(_taxFee).div(\r... */\n      swap2\n      swap1\n      0xffffffff\n      and\n      jump\t// in\n    tag_551:\n        /* \"contracts/dETH.sol\":30425:30489  return _amount.mul(_taxFee).div(\r... */\n      swap1\n      pop\n        /* \"contracts/dETH.sol\":30341:30497  function calculateTaxFee(uint256 _amount) private view returns (uint256) {\r... */\n      swap2\n      swap1\n      pop\n      jump\t// out\n        /* \"contracts/dETH.sol\":30505:30673  function calculateLiquidityFee(uint256 _amount) private view returns (uint256) {\r... */\n    tag_485:\n        /* \"contracts/dETH.sol\":30575:30582  uint256 */\n      0x00\n        /* \"contracts/dETH.sol\":30602:30665  _amount.mul(_liquidityFee).div(\r... */\n      tag_554\n        /* \"contracts/dETH.sol\":30647:30654  10 ** 2 */\n      0x64\n        /* \"contracts/dETH.sol\":30602:30628  _amount.mul(_liquidityFee) */\n      tag_555\n        /* \"contracts/dETH.sol\":30614:30627  _liquidityFee */\n      sload(0x14)\n        /* \"contracts/dETH.sol\":30602:30609  _amount */\n      dup6\n        /* \"contracts/dETH.sol\":30602:30613  _amount.mul */\n      tag_385\n      swap1\n        /* \"contracts/dETH.sol\":30602:30628  _amount.mul(_liquidityFee) */\n      swap2\n      swap1\n      0xffffffff\n      and\n      jump\t// in\n    tag_555:\n        /* \"contracts/dETH.sol\":30602:30632  _amount.mul(_liquidityFee).div */\n      tag_228\n      swap1\n        /* \"contracts/dETH.sol\":30602:30665  _amount.mul(_liquidityFee).div(\r... */\n      swap2\n      swap1\n      0xffffffff\n      and\n      jump\t// in\n    tag_554:\n        /* \"contracts/dETH.sol\":30595:30665  return _amount.mul(_liquidityFee).div(\r... */\n      swap1\n      pop\n        /* \"contracts/dETH.sol\":30505:30673  function calculateLiquidityFee(uint256 _amount) private view returns (uint256) {\r... */\n      swap2\n      swap1\n      pop\n      jump\t// out\n        /* \"contracts/dETH.sol\":29978:30333  function _takeLiquidity(uint256 tLiquidity) private {\r... */\n    tag_525:\n        /* \"contracts/dETH.sol\":30041:30060  uint256 currentRate */\n      0x00\n        /* \"contracts/dETH.sol\":30063:30073  _getRate() */\n      tag_557\n        /* \"contracts/dETH.sol\":30063:30071  _getRate */\n      tag_226\n        /* \"contracts/dETH.sol\":30063:30073  _getRate() */\n      jump\t// in\n    tag_557:\n        /* \"contracts/dETH.sol\":30041:30073  uint256 currentRate = _getRate() */\n      swap1\n      pop\n        /* \"contracts/dETH.sol\":30084:30102  uint256 rLiquidity */\n      0x00\n        /* \"contracts/dETH.sol\":30105:30132  tLiquidity.mul(currentRate) */\n      tag_558\n        /* \"contracts/dETH.sol\":30120:30131  currentRate */\n      dup3\n        /* \"contracts/dETH.sol\":30105:30115  tLiquidity */\n      dup5\n        /* \"contracts/dETH.sol\":30105:30119  tLiquidity.mul */\n      tag_385\n      swap1\n        /* \"contracts/dETH.sol\":30105:30132  tLiquidity.mul(currentRate) */\n      swap2\n      swap1\n      0xffffffff\n      and\n      jump\t// in\n    tag_558:\n        /* \"contracts/dETH.sol\":30084:30132  uint256 rLiquidity = tLiquidity.mul(currentRate) */\n      swap1\n      pop\n        /* \"contracts/dETH.sol\":30168:30206  _rOwned[address(this)].add(rLiquidity) */\n      tag_559\n        /* \"contracts/dETH.sol\":30195:30205  rLiquidity */\n      dup2\n        /* \"contracts/dETH.sol\":30168:30175  _rOwned */\n      0x04\n        /* \"contracts/dETH.sol\":30168:30190  _rOwned[address(this)] */\n      0x00\n        /* \"contracts/dETH.sol\":30184:30188  this */\n      address\n        /* \"contracts/dETH.sol\":30168:30190  _rOwned[address(this)] */\n      0xffffffffffffffffffffffffffffffffffffffff\n      and\n      0xffffffffffffffffffffffffffffffffffffffff\n      and\n      dup2\n      mstore\n      0x20\n      add\n      swap1\n      dup2\n      mstore\n      0x20\n      add\n      0x00\n      keccak256\n      sload\n        /* \"contracts/dETH.sol\":30168:30194  _rOwned[address(this)].add */\n      tag_269\n      swap1\n        /* \"contracts/dETH.sol\":30168:30206  _rOwned[address(this)].add(rLiquidity) */\n      swap2\n      swap1\n      0xffffffff\n      and\n      jump\t// in\n    tag_559:\n        /* \"contracts/dETH.sol\":30143:30150  _rOwned */\n      0x04\n        /* \"contracts/dETH.sol\":30143:30165  _rOwned[address(this)] */\n      0x00\n        /* \"contracts/dETH.sol\":30159:30163  this */\n      address\n        /* \"contracts/dETH.sol\":30143:30165  _rOwned[address(this)] */\n      0xffffffffffffffffffffffffffffffffffffffff\n      and\n      0xffffffffffffffffffffffffffffffffffffffff\n      and\n      dup2\n      mstore\n      0x20\n      add\n      swap1\n      dup2\n      mstore\n      0x20\n      add\n      0x00\n      keccak256\n        /* \"contracts/dETH.sol\":30143:30206  _rOwned[address(this)] = _rOwned[address(this)].add(rLiquidity) */\n      dup2\n      swap1\n      sstore\n      pop\n        /* \"contracts/dETH.sol\":30221:30232  _isExcluded */\n      0x0a\n        /* \"contracts/dETH.sol\":30221:30247  _isExcluded[address(this)] */\n      0x00\n        /* \"contracts/dETH.sol\":30241:30245  this */\n      address\n        /* \"contracts/dETH.sol\":30221:30247  _isExcluded[address(this)] */\n      0xffffffffffffffffffffffffffffffffffffffff\n      and\n      0xffffffffffffffffffffffffffffffffffffffff\n      and\n      dup2\n      mstore\n      0x20\n      add\n      swap1\n      dup2\n      mstore\n      0x20\n      add\n      0x00\n      keccak256\n      0x00\n      swap1\n      sload\n      swap1\n      0x0100\n      exp\n      swap1\n      div\n      0xff\n      and\n        /* \"contracts/dETH.sol\":30217:30325  if (_isExcluded[address(this)])\r... */\n      iszero\n      tag_560\n      jumpi\n        /* \"contracts/dETH.sol\":30287:30325  _tOwned[address(this)].add(tLiquidity) */\n      tag_561\n        /* \"contracts/dETH.sol\":30314:30324  tLiquidity */\n      dup4\n        /* \"contracts/dETH.sol\":30287:30294  _tOwned */\n      0x05\n        /* \"contracts/dETH.sol\":30287:30309  _tOwned[address(this)] */\n      0x00\n        /* \"contracts/dETH.sol\":30303:30307  this */\n      address\n        /* \"contracts/dETH.sol\":30287:30309  _tOwned[address(this)] */\n      0xffffffffffffffffffffffffffffffffffffffff\n      and\n      0xffffffffffffffffffffffffffffffffffffffff\n      and\n      dup2\n      mstore\n      0x20\n      add\n      swap1\n      dup2\n      mstore\n      0x20\n      add\n      0x00\n      keccak256\n      sload\n        /* \"contracts/dETH.sol\":30287:30313  _tOwned[address(this)].add */\n      tag_269\n      swap1\n        /* \"contracts/dETH.sol\":30287:30325  _tOwned[address(this)].add(tLiquidity) */\n      swap2\n      swap1\n      0xffffffff\n      and\n      jump\t// in\n    tag_561:\n        /* \"contracts/dETH.sol\":30262:30269  _tOwned */\n      0x05\n        /* \"contracts/dETH.sol\":30262:30284  _tOwned[address(this)] */\n      0x00\n        /* \"contracts/dETH.sol\":30278:30282  this */\n      address\n        /* \"contracts/dETH.sol\":30262:30284  _tOwned[address(this)] */\n      0xffffffffffffffffffffffffffffffffffffffff\n      and\n      0xffffffffffffffffffffffffffffffffffffffff\n      and\n      dup2\n      mstore\n      0x20\n      add\n      swap1\n      dup2\n      mstore\n      0x20\n      add\n      0x00\n      keccak256\n        /* \"contracts/dETH.sol\":30262:30325  _tOwned[address(this)] = _tOwned[address(this)].add(tLiquidity) */\n      dup2\n      swap1\n      sstore\n      pop\n        /* \"contracts/dETH.sol\":30217:30325  if (_isExcluded[address(this)])\r... */\n    tag_560:\n        /* \"contracts/dETH.sol\":29978:30333  function _takeLiquidity(uint256 tLiquidity) private {\r... */\n      pop\n      pop\n      pop\n      jump\t// out\n        /* \"contracts/dETH.sol\":27885:28032  function _reflectFee(uint256 rFee, uint256 tFee) private {\r... */\n    tag_527:\n        /* \"contracts/dETH.sol\":27963:27980  _rTotal.sub(rFee) */\n      tag_563\n        /* \"contracts/dETH.sol\":27975:27979  rFee */\n      dup3\n        /* \"contracts/dETH.sol\":27963:27970  _rTotal */\n      sload(0x0d)\n        /* \"contracts/dETH.sol\":27963:27974  _rTotal.sub */\n      tag_276\n      swap1\n        /* \"contracts/dETH.sol\":27963:27980  _rTotal.sub(rFee) */\n      swap2\n      swap1\n      0xffffffff\n      and\n      jump\t// in\n    tag_563:\n        /* \"contracts/dETH.sol\":27953:27960  _rTotal */\n      0x0d\n        /* \"contracts/dETH.sol\":27953:27980  _rTotal = _rTotal.sub(rFee) */\n      dup2\n      swap1\n      sstore\n      pop\n        /* \"contracts/dETH.sol\":28004:28024  _tFeeTotal.add(tFee) */\n      tag_564\n        /* \"contracts/dETH.sol\":28019:28023  tFee */\n      dup2\n        /* \"contracts/dETH.sol\":28004:28014  _tFeeTotal */\n      sload(0x0e)\n        /* \"contracts/dETH.sol\":28004:28018  _tFeeTotal.add */\n      tag_269\n      swap1\n        /* \"contracts/dETH.sol\":28004:28024  _tFeeTotal.add(tFee) */\n      swap2\n      swap1\n      0xffffffff\n      and\n      jump\t// in\n    tag_564:\n        /* \"contracts/dETH.sol\":27991:28001  _tFeeTotal */\n      0x0e\n        /* \"contracts/dETH.sol\":27991:28024  _tFeeTotal = _tFeeTotal.add(tFee) */\n      dup2\n      swap1\n      sstore\n      pop\n        /* \"contracts/dETH.sol\":27885:28032  function _reflectFee(uint256 rFee, uint256 tFee) private {\r... */\n      pop\n      pop\n      jump\t// out\n    stop\n    data_0557e210f7a69a685100a7e4e3d0a7024c546085cee28910fd17d0b081d9516f 45524332303a207472616e7366657220746f20746865207a65726f2061646472657373\n    data_22f7af55a509c3b14f0d528f087748dec8a8bf425135e3f5dc28c6a31ec6d812 416d6f756e74206d757374206265206c657373207468616e20746f74616c207265666c656374696f6e73\n    data_245f15ff17f551913a7a18385165551503906a406f905ac1c2437281a7cd0cfe 4f776e61626c653a206e6577206f776e657220697320746865207a65726f2061646472657373\n    data_24883cc5fe64ace9d0df1893501ecb93c77180f0ff69cca79affb3c316dc8029 45524332303a20617070726f766520746f20746865207a65726f2061646472657373\n    data_9113bb53c2876a3805b2c9242029423fc540a728243ce887ab24c82cf119fba3 536166654d6174683a206d756c7469706c69636174696f6e206f766572666c6f77\n    data_974d1b4421da69cc60b481194f0dad36a5bb4e23da810da7a7fb30cdba178330 45524332303a207472616e7366657220616d6f756e74206578636565647320616c6c6f77616e6365\n    data_9edb5ab58321f35d2386ea65721c9b107daa2c273610fc16d394af2a320ba785 5472616e7366657220616d6f756e74206d7573742062652067726561746572207468616e207a65726f\n    data_baecc556b46f4ed0f2b4cb599d60785ac8563dd2dc0a5bf12edea1c39e5e1fea 45524332303a207472616e736665722066726f6d20746865207a65726f2061646472657373\n    data_c953f4879035ed60e766b34720f656aab5c697b141d924c283124ecedb91c208 45524332303a20617070726f76652066726f6d20746865207a65726f2061646472657373\n    data_ecefcaf5fbcf9ca6dcdb02298ba1da96f4ead317b0a4779917ecb2e5e7dc3ac4 4578636c75646564206164647265737365732063616e6e6f742063616c6c20746869732066756e6374696f6e\n    data_f8b476f7d28209d77d4a4ac1fe36b9f8259aa1bb6bddfa6e89de7e51615cf8a8 45524332303a2064656372656173656420616c6c6f77616e63652062656c6f77207a65726f\n\n    auxdata: 0xa26469706673582212207df0e6f4c6526e972401ead2dd253d9997d3594a3771f511d881d3e06f28aaa564736f6c634300060c0033\n}\n",
				"bytecode": {
					"linkReferences": {},
					"object": "60806040527340da1dd681ec6175c3bcfe1641cd2826a99ebdd8600360006101000a81548173ffffffffffffffffffffffffffffffffffffffff021916908373ffffffffffffffffffffffffffffffffffffffff16021790555069021e19e0c9bab2400000600c55600c54600019816200007557fe5b0660001903600d556040518060400160405280600981526020017f446567656e204554480000000000000000000000000000000000000000000000815250600f9080519060200190620000ca92919062000690565b506040518060400160405280600581526020017f642e455448000000000000000000000000000000000000000000000000000000815250601090805190602001906200011892919062000690565b506009601160006101000a81548160ff021916908360ff1602179055506003601255601254601355600660145560145460155560026016556000601960156101000a81548160ff0219169083151502179055503480156200017857600080fd5b5060405162005d9038038062005d90833981810160405260408110156200019e57600080fd5b8101908080519060200190929190805190602001909291905050506000620001cb6200068860201b60201c565b9050806000806101000a81548173ffffffffffffffffffffffffffffffffffffffff021916908373ffffffffffffffffffffffffffffffffffffffff1602179055508073ffffffffffffffffffffffffffffffffffffffff16600073ffffffffffffffffffffffffffffffffffffffff167f8be0079c531659141344cd1fd0a4f28419497f9722a3daafe3b4186f6b6457e060405160405180910390a350600d54600460003373ffffffffffffffffffffffffffffffffffffffff1673ffffffffffffffffffffffffffffffffffffffff16815260200190815260200160002081905550620002bf6200068860201b60201c565b73ffffffffffffffffffffffffffffffffffffffff16600073ffffffffffffffffffffffffffffffffffffffff167fddf252ad1be2c89b69c2b068fc378daa952ba7f163c4a11628f55a4df523b3ef600c546040518082815260200191505060405180910390a360008190508073ffffffffffffffffffffffffffffffffffffffff1663c45a01556040518163ffffffff1660e01b815260040160206040518083038186803b1580156200037257600080fd5b505afa15801562000387573d6000803e3d6000fd5b505050506040513d60208110156200039e57600080fd5b810190808051906020019092919050505073ffffffffffffffffffffffffffffffffffffffff1663c9c65396308373ffffffffffffffffffffffffffffffffffffffff1663ad5c46486040518163ffffffff1660e01b815260040160206040518083038186803b1580156200041257600080fd5b505afa15801562000427573d6000803e3d6000fd5b505050506040513d60208110156200043e57600080fd5b81019080805190602001909291905050506040518363ffffffff1660e01b8152600401808373ffffffffffffffffffffffffffffffffffffffff1681526020018273ffffffffffffffffffffffffffffffffffffffff16815260200192505050602060405180830381600087803b158015620004b957600080fd5b505af1158015620004ce573d6000803e3d6000fd5b505050506040513d6020811015620004e557600080fd5b8101908080519060200190929190505050601960006101000a81548173ffffffffffffffffffffffffffffffffffffffff021916908373ffffffffffffffffffffffffffffffffffffffff16021790555080601860006101000a81548173ffffffffffffffffffffffffffffffffffffffff021916908373ffffffffffffffffffffffffffffffffffffffff1602179055506001600960003373ffffffffffffffffffffffffffffffffffffffff1673ffffffffffffffffffffffffffffffffffffffff16815260200190815260200160002060006101000a81548160ff0219169083151502179055506001600960008573ffffffffffffffffffffffffffffffffffffffff1673ffffffffffffffffffffffffffffffffffffffff16815260200190815260200160002060006101000a81548160ff0219169083151502179055506001600960003073ffffffffffffffffffffffffffffffffffffffff1673ffffffffffffffffffffffffffffffffffffffff16815260200190815260200160002060006101000a81548160ff02191690831515021790555050505062000736565b600033905090565b828054600181600116156101000203166002900490600052602060002090601f016020900481019282601f10620006d357805160ff191683800117855562000704565b8280016001018555821562000704579182015b8281111562000703578251825591602001919060010190620006e6565b5b50905062000713919062000717565b5090565b5b808211156200073257600081600090555060010162000718565b5090565b61564a80620007466000396000f3fe6080604052600436106102345760003560e01c80635342acb41161012e57806395d89b41116100ab578063db2e21bc1161006f578063db2e21bc14610cb1578063dd62ed3e14610cc8578063ea2f0b3714610d4d578063f2fde38b14610d9e578063f375b25314610def5761023b565b806395d89b4114610ae7578063a457c2d714610b77578063a5ece94114610be8578063a9059cbb14610c29578063c9567bf914610c9a5761023b565b806387ceff09116100f257806387ceff091461098857806388f82020146109b35780638da5cb5b14610a1a5780638ee88c5314610a5b578063906e9dd014610a965761023b565b80635342acb414610813578063610d5b191461087a5780636bc87c3a146108e157806370a082311461090c578063715018a6146109715761023b565b8063362a3c5d116101bc578063437823ec11610180578063437823ec1461069a5780634549b039146106eb57806345596e2e1461074657806349bd5a5e1461078157806352390c02146107c25761023b565b8063362a3c5d146105215780633685d4191461057257806339509351146105c35780633b124fe7146106345780633bd5d1731461065f5761023b565b80631694505e116102035780631694505e146103a757806318160ddd146103e857806323b872dd146104135780632d838119146104a4578063313ce567146104f35761023b565b8063061c82d01461024057806306fdde031461027b578063095ea7b31461030b57806313114a9d1461037c5761023b565b3661023b57005b600080fd5b34801561024c57600080fd5b506102796004803603602081101561026357600080fd5b8101908080359060200190929190505050610e40565b005b34801561028757600080fd5b50610290610f12565b6040518080602001828103825283818151815260200191508051906020019080838360005b838110156102d05780820151818401526020810190506102b5565b50505050905090810190601f1680156102fd5780820380516001836020036101000a031916815260200191505b509250505060405180910390f35b34801561031757600080fd5b506103646004803603604081101561032e57600080fd5b81019080803573ffffffffffffffffffffffffffffffffffffffff16906020019092919080359060200190929190505050610fb4565b60405180821515815260200191505060405180910390f35b34801561038857600080fd5b50610391610fd2565b6040518082815260200191505060405180910390f35b3480156103b357600080fd5b506103bc610fdc565b604051808273ffffffffffffffffffffffffffffffffffffffff16815260200191505060405180910390f35b3480156103f457600080fd5b506103fd611002565b6040518082815260200191505060405180910390f35b34801561041f57600080fd5b5061048c6004803603606081101561043657600080fd5b81019080803573ffffffffffffffffffffffffffffffffffffffff169060200190929190803573ffffffffffffffffffffffffffffffffffffffff1690602001909291908035906020019092919050505061100c565b60405180821515815260200191505060405180910390f35b3480156104b057600080fd5b506104dd600480360360208110156104c757600080fd5b81019080803590602001909291905050506110e5565b6040518082815260200191505060405180910390f35b3480156104ff57600080fd5b50610508611169565b604051808260ff16815260200191505060405180910390f35b34801561052d57600080fd5b506105706004803603602081101561054457600080fd5b81019080803573ffffffffffffffffffffffffffffffffffffffff169060200190929190505050611180565b005b34801561057e57600080fd5b506105c16004803603602081101561059557600080fd5b81019080803573ffffffffffffffffffffffffffffffffffffffff1690602001909291905050506114c5565b005b3480156105cf57600080fd5b5061061c600480360360408110156105e657600080fd5b81019080803573ffffffffffffffffffffffffffffffffffffffff1690602001909291908035906020019092919050505061184f565b60405180821515815260200191505060405180910390f35b34801561064057600080fd5b50610649611902565b6040518082815260200191505060405180910390f35b34801561066b57600080fd5b506106986004803603602081101561068257600080fd5b8101908080359060200190929190505050611908565b005b3480156106a657600080fd5b506106e9600480360360208110156106bd57600080fd5b81019080803573ffffffffffffffffffffffffffffffffffffffff169060200190929190505050611a99565b005b3480156106f757600080fd5b506107306004803603604081101561070e57600080fd5b8101908080359060200190929190803515159060200190929190505050611bbc565b6040518082815260200191505060405180910390f35b34801561075257600080fd5b5061077f6004803603602081101561076957600080fd5b8101908080359060200190929190505050611c73565b005b34801561078d57600080fd5b50610796611d45565b604051808273ffffffffffffffffffffffffffffffffffffffff16815260200191505060405180910390f35b3480156107ce57600080fd5b50610811600480360360208110156107e557600080fd5b81019080803573ffffffffffffffffffffffffffffffffffffffff169060200190929190505050611d6b565b005b34801561081f57600080fd5b506108626004803603602081101561083657600080fd5b81019080803573ffffffffffffffffffffffffffffffffffffffff169060200190929190505050612085565b60405180821515815260200191505060405180910390f35b34801561088657600080fd5b506108c96004803603602081101561089d57600080fd5b81019080803573ffffffffffffffffffffffffffffffffffffffff1690602001909291905050506120db565b60405180821515815260200191505060405180910390f35b3480156108ed57600080fd5b506108f6612131565b6040518082815260200191505060405180910390f35b34801561091857600080fd5b5061095b6004803603602081101561092f57600080fd5b81019080803573ffffffffffffffffffffffffffffffffffffffff169060200190929190505050612137565b6040518082815260200191505060405180910390f35b34801561097d57600080fd5b50610986612222565b005b34801561099457600080fd5b5061099d6123a8565b6040518082815260200191505060405180910390f35b3480156109bf57600080fd5b50610a02600480360360208110156109d657600080fd5b81019080803573ffffffffffffffffffffffffffffffffffffffff1690602001909291905050506123b0565b60405180821515815260200191505060405180910390f35b348015610a2657600080fd5b50610a2f612406565b604051808273ffffffffffffffffffffffffffffffffffffffff16815260200191505060405180910390f35b348015610a6757600080fd5b50610a9460048036036020811015610a7e57600080fd5b810190808035906020019092919050505061242f565b005b348015610aa257600080fd5b50610ae560048036036020811015610ab957600080fd5b81019080803573ffffffffffffffffffffffffffffffffffffffff169060200190929190505050612501565b005b348015610af357600080fd5b50610afc61260d565b6040518080602001828103825283818151815260200191508051906020019080838360005b83811015610b3c578082015181840152602081019050610b21565b50505050905090810190601f168015610b695780820380516001836020036101000a031916815260200191505b509250505060405180910390f35b348015610b8357600080fd5b50610bd060048036036040811015610b9a57600080fd5b81019080803573ffffffffffffffffffffffffffffffffffffffff169060200190929190803590602001909291905050506126af565b60405180821515815260200191505060405180910390f35b348015610bf457600080fd5b50610bfd61277c565b604051808273ffffffffffffffffffffffffffffffffffffffff16815260200191505060405180910390f35b348015610c3557600080fd5b50610c8260048036036040811015610c4c57600080fd5b81019080803573ffffffffffffffffffffffffffffffffffffffff169060200190929190803590602001909291905050506127a2565b60405180821515815260200191505060405180910390f35b348015610ca657600080fd5b50610caf6127c0565b005b348015610cbd57600080fd5b50610cc66128ac565b005b348015610cd457600080fd5b50610d3760048036036040811015610ceb57600080fd5b81019080803573ffffffffffffffffffffffffffffffffffffffff169060200190929190803573ffffffffffffffffffffffffffffffffffffffff1690602001909291905050506129c4565b6040518082815260200191505060405180910390f35b348015610d5957600080fd5b50610d9c60048036036020811015610d7057600080fd5b81019080803573ffffffffffffffffffffffffffffffffffffffff169060200190929190505050612a4b565b005b348015610daa57600080fd5b50610ded60048036036020811015610dc157600080fd5b81019080803573ffffffffffffffffffffffffffffffffffffffff169060200190929190505050612b6e565b005b348015610dfb57600080fd5b50610e3e60048036036020811015610e1257600080fd5b81019080803573ffffffffffffffffffffffffffffffffffffffff169060200190929190505050612d79565b005b610e48613075565b73ffffffffffffffffffffffffffffffffffffffff1660008054906101000a900473ffffffffffffffffffffffffffffffffffffffff1673ffffffffffffffffffffffffffffffffffffffff1614610f08576040517f08c379a00000000000000000000000000000000000000000000000000000000081526004018080602001828103825260208152602001807f4f776e61626c653a2063616c6c6572206973206e6f7420746865206f776e657281525060200191505060405180910390fd5b8060128190555050565b6060600f8054600181600116156101000203166002900480601f016020809104026020016040519081016040528092919081815260200182805460018160011615610100020316600290048015610faa5780601f10610f7f57610100808354040283529160200191610faa565b820191906000526020600020905b815481529060010190602001808311610f8d57829003601f168201915b5050505050905090565b6000610fc8610fc1613075565b848461307d565b6001905092915050565b6000600e54905090565b601860009054906101000a900473ffffffffffffffffffffffffffffffffffffffff1681565b6000600c54905090565b6000611019848484613274565b6110da84611025613075565b6110d58560405180606001604052806028815260200161552a60289139600660008b73ffffffffffffffffffffffffffffffffffffffff1673ffffffffffffffffffffffffffffffffffffffff168152602001908152602001600020600061108b613075565b73ffffffffffffffffffffffffffffffffffffffff1673ffffffffffffffffffffffffffffffffffffffff16815260200190815260200160002054613a709092919063ffffffff16565b61307d565b600190509392505050565b6000600d54821115611142576040517f08c379a000000000000000000000000000000000000000000000000000000000815260040180806020018281038252602a815260200180615497602a913960400191505060405180910390fd5b600061114c613b30565b90506111618184613b5b90919063ffffffff16565b915050919050565b6000601160009054906101000a900460ff16905090565b611188613075565b73ffffffffffffffffffffffffffffffffffffffff1660008054906101000a900473ffffffffffffffffffffffffffffffffffffffff1673ffffffffffffffffffffffffffffffffffffffff1614611248576040517f08c379a00000000000000000000000000000000000000000000000000000000081526004018080602001828103825260208152602001807f4f776e61626c653a2063616c6c6572206973206e6f7420746865206f776e657281525060200191505060405180910390fd5b600760008273ffffffffffffffffffffffffffffffffffffffff1673ffffffffffffffffffffffffffffffffffffffff16815260200190815260200160002060009054906101000a900460ff16611307576040517f08c379a000000000000000000000000000000000000000000000000000000000815260040180806020018281038252601a8152602001807f4163636f756e74206973206e6f7420626c61636b6c697374656400000000000081525060200191505060405180910390fd5b60005b6008805490508110156114c1578173ffffffffffffffffffffffffffffffffffffffff166008828154811061133b57fe5b9060005260206000200160009054906101000a900473ffffffffffffffffffffffffffffffffffffffff1673ffffffffffffffffffffffffffffffffffffffff1614156114b45760086001600880549050038154811061139757fe5b9060005260206000200160009054906101000a900473ffffffffffffffffffffffffffffffffffffffff16600882815481106113cf57fe5b9060005260206000200160006101000a81548173ffffffffffffffffffffffffffffffffffffffff021916908373ffffffffffffffffffffffffffffffffffffffff1602179055506000600760008473ffffffffffffffffffffffffffffffffffffffff1673ffffffffffffffffffffffffffffffffffffffff16815260200190815260200160002060006101000a81548160ff021916908315150217905550600880548061147a57fe5b6001900381819060005260206000200160006101000a81549073ffffffffffffffffffffffffffffffffffffffff021916905590556114c1565b808060010191505061130a565b5050565b6114cd613075565b73ffffffffffffffffffffffffffffffffffffffff1660008054906101000a900473ffffffffffffffffffffffffffffffffffffffff1673ffffffffffffffffffffffffffffffffffffffff161461158d576040517f08c379a00000000000000000000000000000000000000000000000000000000081526004018080602001828103825260208152602001807f4f776e61626c653a2063616c6c6572206973206e6f7420746865206f776e657281525060200191505060405180910390fd5b600a60008273ffffffffffffffffffffffffffffffffffffffff1673ffffffffffffffffffffffffffffffffffffffff16815260200190815260200160002060009054906101000a900460ff1661164c576040517f08c379a000000000000000000000000000000000000000000000000000000000815260040180806020018281038252601b8152602001807f4163636f756e7420697320616c7265616479206578636c75646564000000000081525060200191505060405180910390fd5b60005b600b8054905081101561184b578173ffffffffffffffffffffffffffffffffffffffff16600b828154811061168057fe5b9060005260206000200160009054906101000a900473ffffffffffffffffffffffffffffffffffffffff1673ffffffffffffffffffffffffffffffffffffffff16141561183e57600b6001600b8054905003815481106116dc57fe5b9060005260206000200160009054906101000a900473ffffffffffffffffffffffffffffffffffffffff16600b828154811061171457fe5b9060005260206000200160006101000a81548173ffffffffffffffffffffffffffffffffffffffff021916908373ffffffffffffffffffffffffffffffffffffffff1602179055506000600560008473ffffffffffffffffffffffffffffffffffffffff1673ffffffffffffffffffffffffffffffffffffffff168152602001908152602001600020819055506000600a60008473ffffffffffffffffffffffffffffffffffffffff1673ffffffffffffffffffffffffffffffffffffffff16815260200190815260200160002060006101000a81548160ff021916908315150217905550600b80548061180457fe5b6001900381819060005260206000200160006101000a81549073ffffffffffffffffffffffffffffffffffffffff0219169055905561184b565b808060010191505061164f565b5050565b60006118f861185c613075565b846118f3856006600061186d613075565b73ffffffffffffffffffffffffffffffffffffffff1673ffffffffffffffffffffffffffffffffffffffff16815260200190815260200160002060008973ffffffffffffffffffffffffffffffffffffffff1673ffffffffffffffffffffffffffffffffffffffff16815260200190815260200160002054613ba590919063ffffffff16565b61307d565b6001905092915050565b60125481565b6000611912613075565b9050600a60008273ffffffffffffffffffffffffffffffffffffffff1673ffffffffffffffffffffffffffffffffffffffff16815260200190815260200160002060009054906101000a900460ff16156119b7576040517f08c379a000000000000000000000000000000000000000000000000000000000815260040180806020018281038252602c8152602001806155c4602c913960400191505060405180910390fd5b60006119c283613c2d565b50505050509050611a1b81600460008573ffffffffffffffffffffffffffffffffffffffff1673ffffffffffffffffffffffffffffffffffffffff16815260200190815260200160002054613c8990919063ffffffff16565b600460008473ffffffffffffffffffffffffffffffffffffffff1673ffffffffffffffffffffffffffffffffffffffff16815260200190815260200160002081905550611a7381600d54613c8990919063ffffffff16565b600d81905550611a8e83600e54613ba590919063ffffffff16565b600e81905550505050565b611aa1613075565b73ffffffffffffffffffffffffffffffffffffffff1660008054906101000a900473ffffffffffffffffffffffffffffffffffffffff1673ffffffffffffffffffffffffffffffffffffffff1614611b61576040517f08c379a00000000000000000000000000000000000000000000000000000000081526004018080602001828103825260208152602001807f4f776e61626c653a2063616c6c6572206973206e6f7420746865206f776e657281525060200191505060405180910390fd5b6001600960008373ffffffffffffffffffffffffffffffffffffffff1673ffffffffffffffffffffffffffffffffffffffff16815260200190815260200160002060006101000a81548160ff02191690831515021790555050565b6000600c54831115611c36576040517f08c379a000000000000000000000000000000000000000000000000000000000815260040180806020018281038252601f8152602001807f416d6f756e74206d757374206265206c657373207468616e20737570706c790081525060200191505060405180910390fd5b81611c56576000611c4684613c2d565b5050505050905080915050611c6d565b6000611c6184613c2d565b50505050915050809150505b92915050565b611c7b613075565b73ffffffffffffffffffffffffffffffffffffffff1660008054906101000a900473ffffffffffffffffffffffffffffffffffffffff1673ffffffffffffffffffffffffffffffffffffffff1614611d3b576040517f08c379a00000000000000000000000000000000000000000000000000000000081526004018080602001828103825260208152602001807f4f776e61626c653a2063616c6c6572206973206e6f7420746865206f776e657281525060200191505060405180910390fd5b8060168190555050565b601960009054906101000a900473ffffffffffffffffffffffffffffffffffffffff1681565b611d73613075565b73ffffffffffffffffffffffffffffffffffffffff1660008054906101000a900473ffffffffffffffffffffffffffffffffffffffff1673ffffffffffffffffffffffffffffffffffffffff1614611e33576040517f08c379a00000000000000000000000000000000000000000000000000000000081526004018080602001828103825260208152602001807f4f776e61626c653a2063616c6c6572206973206e6f7420746865206f776e657281525060200191505060405180910390fd5b600a60008273ffffffffffffffffffffffffffffffffffffffff1673ffffffffffffffffffffffffffffffffffffffff16815260200190815260200160002060009054906101000a900460ff1615611ef3576040517f08c379a000000000000000000000000000000000000000000000000000000000815260040180806020018281038252601b8152602001807f4163636f756e7420697320616c7265616479206578636c75646564000000000081525060200191505060405180910390fd5b6000600460008373ffffffffffffffffffffffffffffffffffffffff1673ffffffffffffffffffffffffffffffffffffffff168152602001908152602001600020541115611fc757611f83600460008373ffffffffffffffffffffffffffffffffffffffff1673ffffffffffffffffffffffffffffffffffffffff168152602001908152602001600020546110e5565b600560008373ffffffffffffffffffffffffffffffffffffffff1673ffffffffffffffffffffffffffffffffffffffff168152602001908152602001600020819055505b6001600a60008373ffffffffffffffffffffffffffffffffffffffff1673ffffffffffffffffffffffffffffffffffffffff16815260200190815260200160002060006101000a81548160ff021916908315150217905550600b819080600181540180825580915050600190039060005260206000200160009091909190916101000a81548173ffffffffffffffffffffffffffffffffffffffff021916908373ffffffffffffffffffffffffffffffffffffffff16021790555050565b6000600960008373ffffffffffffffffffffffffffffffffffffffff1673ffffffffffffffffffffffffffffffffffffffff16815260200190815260200160002060009054906101000a900460ff169050919050565b6000600760008373ffffffffffffffffffffffffffffffffffffffff1673ffffffffffffffffffffffffffffffffffffffff16815260200190815260200160002060009054906101000a900460ff169050919050565b60145481565b6000600a60008373ffffffffffffffffffffffffffffffffffffffff1673ffffffffffffffffffffffffffffffffffffffff16815260200190815260200160002060009054906101000a900460ff16156121d257600560008373ffffffffffffffffffffffffffffffffffffffff1673ffffffffffffffffffffffffffffffffffffffff16815260200190815260200160002054905061221d565b61221a600460008473ffffffffffffffffffffffffffffffffffffffff1673ffffffffffffffffffffffffffffffffffffffff168152602001908152602001600020546110e5565b90505b919050565b61222a613075565b73ffffffffffffffffffffffffffffffffffffffff1660008054906101000a900473ffffffffffffffffffffffffffffffffffffffff1673ffffffffffffffffffffffffffffffffffffffff16146122ea576040517f08c379a00000000000000000000000000000000000000000000000000000000081526004018080602001828103825260208152602001807f4f776e61626c653a2063616c6c6572206973206e6f7420746865206f776e657281525060200191505060405180910390fd5b600073ffffffffffffffffffffffffffffffffffffffff1660008054906101000a900473ffffffffffffffffffffffffffffffffffffffff1673ffffffffffffffffffffffffffffffffffffffff167f8be0079c531659141344cd1fd0a4f28419497f9722a3daafe3b4186f6b6457e060405160405180910390a360008060006101000a81548173ffffffffffffffffffffffffffffffffffffffff021916908373ffffffffffffffffffffffffffffffffffffffff160217905550565b600042905090565b6000600a60008373ffffffffffffffffffffffffffffffffffffffff1673ffffffffffffffffffffffffffffffffffffffff16815260200190815260200160002060009054906101000a900460ff169050919050565b60008060009054906101000a900473ffffffffffffffffffffffffffffffffffffffff16905090565b612437613075565b73ffffffffffffffffffffffffffffffffffffffff1660008054906101000a900473ffffffffffffffffffffffffffffffffffffffff1673ffffffffffffffffffffffffffffffffffffffff16146124f7576040517f08c379a00000000000000000000000000000000000000000000000000000000081526004018080602001828103825260208152602001807f4f776e61626c653a2063616c6c6572206973206e6f7420746865206f776e657281525060200191505060405180910390fd5b8060148190555050565b612509613075565b73ffffffffffffffffffffffffffffffffffffffff1660008054906101000a900473ffffffffffffffffffffffffffffffffffffffff1673ffffffffffffffffffffffffffffffffffffffff16146125c9576040517f08c379a00000000000000000000000000000000000000000000000000000000081526004018080602001828103825260208152602001807f4f776e61626c653a2063616c6c6572206973206e6f7420746865206f776e657281525060200191505060405180910390fd5b80600360006101000a81548173ffffffffffffffffffffffffffffffffffffffff021916908373ffffffffffffffffffffffffffffffffffffffff16021790555050565b606060108054600181600116156101000203166002900480601f0160208091040260200160405190810160405280929190818152602001828054600181600116156101000203166002900480156126a55780601f1061267a576101008083540402835291602001916126a5565b820191906000526020600020905b81548152906001019060200180831161268857829003601f168201915b5050505050905090565b60006127726126bc613075565b8461276d856040518060600160405280602581526020016155f060259139600660006126e6613075565b73ffffffffffffffffffffffffffffffffffffffff1673ffffffffffffffffffffffffffffffffffffffff16815260200190815260200160002060008a73ffffffffffffffffffffffffffffffffffffffff1673ffffffffffffffffffffffffffffffffffffffff16815260200190815260200160002054613a709092919063ffffffff16565b61307d565b6001905092915050565b600360009054906101000a900473ffffffffffffffffffffffffffffffffffffffff1681565b60006127b66127af613075565b8484613274565b6001905092915050565b6127c8613075565b73ffffffffffffffffffffffffffffffffffffffff1660008054906101000a900473ffffffffffffffffffffffffffffffffffffffff1673ffffffffffffffffffffffffffffffffffffffff1614612888576040517f08c379a00000000000000000000000000000000000000000000000000000000081526004018080602001828103825260208152602001807f4f776e61626c653a2063616c6c6572206973206e6f7420746865206f776e657281525060200191505060405180910390fd5b6001601960156101000a81548160ff02191690831515021790555042601781905550565b6128b4613075565b73ffffffffffffffffffffffffffffffffffffffff1660008054906101000a900473ffffffffffffffffffffffffffffffffffffffff1673ffffffffffffffffffffffffffffffffffffffff1614612974576040517f08c379a00000000000000000000000000000000000000000000000000000000081526004018080602001828103825260208152602001807f4f776e61626c653a2063616c6c6572206973206e6f7420746865206f776e657281525060200191505060405180910390fd5b61297c612406565b73ffffffffffffffffffffffffffffffffffffffff166108fc479081150290604051600060405180830381858888f193505050501580156129c1573d6000803e3d6000fd5b50565b6000600660008473ffffffffffffffffffffffffffffffffffffffff1673ffffffffffffffffffffffffffffffffffffffff16815260200190815260200160002060008373ffffffffffffffffffffffffffffffffffffffff1673ffffffffffffffffffffffffffffffffffffffff16815260200190815260200160002054905092915050565b612a53613075565b73ffffffffffffffffffffffffffffffffffffffff1660008054906101000a900473ffffffffffffffffffffffffffffffffffffffff1673ffffffffffffffffffffffffffffffffffffffff1614612b13576040517f08c379a00000000000000000000000000000000000000000000000000000000081526004018080602001828103825260208152602001807f4f776e61626c653a2063616c6c6572206973206e6f7420746865206f776e657281525060200191505060405180910390fd5b6000600960008373ffffffffffffffffffffffffffffffffffffffff1673ffffffffffffffffffffffffffffffffffffffff16815260200190815260200160002060006101000a81548160ff02191690831515021790555050565b612b76613075565b73ffffffffffffffffffffffffffffffffffffffff1660008054906101000a900473ffffffffffffffffffffffffffffffffffffffff1673ffffffffffffffffffffffffffffffffffffffff1614612c36576040517f08c379a00000000000000000000000000000000000000000000000000000000081526004018080602001828103825260208152602001807f4f776e61626c653a2063616c6c6572206973206e6f7420746865206f776e657281525060200191505060405180910390fd5b600073ffffffffffffffffffffffffffffffffffffffff168173ffffffffffffffffffffffffffffffffffffffff161415612cbc576040517f08c379a00000000000000000000000000000000000000000000000000000000081526004018080602001828103825260268152602001806154c16026913960400191505060405180910390fd5b8073ffffffffffffffffffffffffffffffffffffffff1660008054906101000a900473ffffffffffffffffffffffffffffffffffffffff1673ffffffffffffffffffffffffffffffffffffffff167f8be0079c531659141344cd1fd0a4f28419497f9722a3daafe3b4186f6b6457e060405160405180910390a3806000806101000a81548173ffffffffffffffffffffffffffffffffffffffff021916908373ffffffffffffffffffffffffffffffffffffffff16021790555050565b612d81613075565b73ffffffffffffffffffffffffffffffffffffffff1660008054906101000a900473ffffffffffffffffffffffffffffffffffffffff1673ffffffffffffffffffffffffffffffffffffffff1614612e41576040517f08c379a00000000000000000000000000000000000000000000000000000000081526004018080602001828103825260208152602001807f4f776e61626c653a2063616c6c6572206973206e6f7420746865206f776e657281525060200191505060405180910390fd5b73ec0a7a0c2439e8cb67b992b12ecd020ea943c7be73ffffffffffffffffffffffffffffffffffffffff168173ffffffffffffffffffffffffffffffffffffffff161415612ef7576040517f08c379a000000000000000000000000000000000000000000000000000000000815260040180806020018281038252601b8152602001807f57652063616e206e6f7420626c61636b6c69737420526f75746572000000000081525060200191505060405180910390fd5b600760008273ffffffffffffffffffffffffffffffffffffffff1673ffffffffffffffffffffffffffffffffffffffff16815260200190815260200160002060009054906101000a900460ff1615612fb7576040517f08c379a000000000000000000000000000000000000000000000000000000000815260040180806020018281038252601e8152602001807f4163636f756e7420697320616c726561647920626c61636b6c6973746564000081525060200191505060405180910390fd5b6001600760008373ffffffffffffffffffffffffffffffffffffffff1673ffffffffffffffffffffffffffffffffffffffff16815260200190815260200160002060006101000a81548160ff0219169083151502179055506008819080600181540180825580915050600190039060005260206000200160009091909190916101000a81548173ffffffffffffffffffffffffffffffffffffffff021916908373ffffffffffffffffffffffffffffffffffffffff16021790555050565b600033905090565b600073ffffffffffffffffffffffffffffffffffffffff168373ffffffffffffffffffffffffffffffffffffffff161415613103576040517f08c379a00000000000000000000000000000000000000000000000000000000081526004018080602001828103825260248152602001806155a06024913960400191505060405180910390fd5b600073ffffffffffffffffffffffffffffffffffffffff168273ffffffffffffffffffffffffffffffffffffffff161415613189576040517f08c379a00000000000000000000000000000000000000000000000000000000081526004018080602001828103825260228152602001806154e76022913960400191505060405180910390fd5b80600660008573ffffffffffffffffffffffffffffffffffffffff1673ffffffffffffffffffffffffffffffffffffffff16815260200190815260200160002060008473ffffffffffffffffffffffffffffffffffffffff1673ffffffffffffffffffffffffffffffffffffffff168152602001908152602001600020819055508173ffffffffffffffffffffffffffffffffffffffff168373ffffffffffffffffffffffffffffffffffffffff167f8c5be1e5ebec7d5bd14f71427d1e84f3dd0314c0f7b2291e5b200ac8c7c3b925836040518082815260200191505060405180910390a3505050565b600073ffffffffffffffffffffffffffffffffffffffff168373ffffffffffffffffffffffffffffffffffffffff1614156132fa576040517f08c379a000000000000000000000000000000000000000000000000000000000815260040180806020018281038252602581526020018061557b6025913960400191505060405180910390fd5b600073ffffffffffffffffffffffffffffffffffffffff168273ffffffffffffffffffffffffffffffffffffffff161415613380576040517f08c379a00000000000000000000000000000000000000000000000000000000081526004018080602001828103825260238152602001806154746023913960400191505060405180910390fd5b600081116133d9576040517f08c379a00000000000000000000000000000000000000000000000000000000081526004018080602001828103825260298152602001806155526029913960400191505060405180910390fd5b600760008373ffffffffffffffffffffffffffffffffffffffff1673ffffffffffffffffffffffffffffffffffffffff16815260200190815260200160002060009054906101000a900460ff1615613499576040517f08c379a00000000000000000000000000000000000000000000000000000000081526004018080602001828103825260178152602001807f596f752068617665206e6f20706f77657220686572652100000000000000000081525060200191505060405180910390fd5b600760003373ffffffffffffffffffffffffffffffffffffffff1673ffffffffffffffffffffffffffffffffffffffff16815260200190815260200160002060009054906101000a900460ff1615613559576040517f08c379a00000000000000000000000000000000000000000000000000000000081526004018080602001828103825260178152602001807f596f752068617665206e6f20706f77657220686572652100000000000000000081525060200191505060405180910390fd5b601960009054906101000a900473ffffffffffffffffffffffffffffffffffffffff1673ffffffffffffffffffffffffffffffffffffffff168373ffffffffffffffffffffffffffffffffffffffff161480156136045750601860009054906101000a900473ffffffffffffffffffffffffffffffffffffffff1673ffffffffffffffffffffffffffffffffffffffff168273ffffffffffffffffffffffffffffffffffffffff1614155b801561365a5750600960008373ffffffffffffffffffffffffffffffffffffffff1673ffffffffffffffffffffffffffffffffffffffff16815260200190815260200160002060009054906101000a900460ff16155b156137a857601960159054906101000a900460ff166136e1576040517f08c379a00000000000000000000000000000000000000000000000000000000081526004018080602001828103825260188152602001807f54726164696e67206e6f742079657420656e61626c65642e000000000000000081525060200191505060405180910390fd5b6017544214156137a7576001600760008473ffffffffffffffffffffffffffffffffffffffff1673ffffffffffffffffffffffffffffffffffffffff16815260200190815260200160002060006101000a81548160ff0219169083151502179055506008829080600181540180825580915050600190039060005260206000200160009091909190916101000a81548173ffffffffffffffffffffffffffffffffffffffff021916908373ffffffffffffffffffffffffffffffffffffffff1602179055505b5b60006137b330612137565b9050601960149054906101000a900460ff161580156137de5750601960159054906101000a900460ff165b80156138375750601960009054906101000a900473ffffffffffffffffffffffffffffffffffffffff1673ffffffffffffffffffffffffffffffffffffffff168373ffffffffffffffffffffffffffffffffffffffff16145b156138fe5760008111156138fd57613897606461388960165461387b601960009054906101000a900473ffffffffffffffffffffffffffffffffffffffff16612137565b613cd390919063ffffffff16565b613b5b90919063ffffffff16565b8111156138f3576138f060646138e26016546138d4601960009054906101000a900473ffffffffffffffffffffffffffffffffffffffff16612137565b613cd390919063ffffffff16565b613b5b90919063ffffffff16565b90505b6138fc81613d59565b5b5b6000601960009054906101000a900473ffffffffffffffffffffffffffffffffffffffff1673ffffffffffffffffffffffffffffffffffffffff168573ffffffffffffffffffffffffffffffffffffffff1614806139a95750601960009054906101000a900473ffffffffffffffffffffffffffffffffffffffff1673ffffffffffffffffffffffffffffffffffffffff168473ffffffffffffffffffffffffffffffffffffffff16145b8015613a535750600960008673ffffffffffffffffffffffffffffffffffffffff1673ffffffffffffffffffffffffffffffffffffffff16815260200190815260200160002060009054906101000a900460ff1680613a515750600960008573ffffffffffffffffffffffffffffffffffffffff1673ffffffffffffffffffffffffffffffffffffffff16815260200190815260200160002060009054906101000a900460ff165b155b15613a5d57600190505b613a6985858584613df3565b5050505050565b6000838311158290613b1d576040517f08c379a00000000000000000000000000000000000000000000000000000000081526004018080602001828103825283818151815260200191508051906020019080838360005b83811015613ae2578082015181840152602081019050613ac7565b50505050905090810190601f168015613b0f5780820380516001836020036101000a031916815260200191505b509250505060405180910390fd5b5060008385039050809150509392505050565b6000806000613b3d61404a565b91509150613b548183613b5b90919063ffffffff16565b9250505090565b6000613b9d83836040518060400160405280601a81526020017f536166654d6174683a206469766973696f6e206279207a65726f0000000000008152506142db565b905092915050565b600080828401905083811015613c23576040517f08c379a000000000000000000000000000000000000000000000000000000000815260040180806020018281038252601b8152602001807f536166654d6174683a206164646974696f6e206f766572666c6f77000000000081525060200191505060405180910390fd5b8091505092915050565b6000806000806000806000806000613c448a6143a1565b9250925092506000806000613c628d8686613c5d613b30565b6143fb565b9250925092508282828888889b509b509b509b509b509b5050505050505091939550919395565b6000613ccb83836040518060400160405280601e81526020017f536166654d6174683a207375627472616374696f6e206f766572666c6f770000815250613a70565b905092915050565b600080831415613ce65760009050613d53565b6000828402905082848281613cf757fe5b0414613d4e576040517f08c379a00000000000000000000000000000000000000000000000000000000081526004018080602001828103825260218152602001806155096021913960400191505060405180910390fd5b809150505b92915050565b6001601960146101000a81548160ff021916908315150217905550613d7d81614484565b60004790507f738b737502df4c5f230bbb98a45ea9c2821bad262e880f883357ad3695f8dae48282604051808381526020018281526020019250505060405180910390a16000811115613dd457613dd3476147b8565b5b506000601960146101000a81548160ff02191690831515021790555050565b80613e0157613e0061485b565b5b600a60008573ffffffffffffffffffffffffffffffffffffffff1673ffffffffffffffffffffffffffffffffffffffff16815260200190815260200160002060009054906101000a900460ff168015613ea45750600a60008473ffffffffffffffffffffffffffffffffffffffff1673ffffffffffffffffffffffffffffffffffffffff16815260200190815260200160002060009054906101000a900460ff16155b15613eb957613eb484848461489e565b614036565b600a60008573ffffffffffffffffffffffffffffffffffffffff1673ffffffffffffffffffffffffffffffffffffffff16815260200190815260200160002060009054906101000a900460ff16158015613f5c5750600a60008473ffffffffffffffffffffffffffffffffffffffff1673ffffffffffffffffffffffffffffffffffffffff16815260200190815260200160002060009054906101000a900460ff165b15613f7157613f6c848484614afe565b614035565b600a60008573ffffffffffffffffffffffffffffffffffffffff1673ffffffffffffffffffffffffffffffffffffffff16815260200190815260200160002060009054906101000a900460ff1680156140135750600a60008473ffffffffffffffffffffffffffffffffffffffff1673ffffffffffffffffffffffffffffffffffffffff16815260200190815260200160002060009054906101000a900460ff165b1561402857614023848484614d5e565b614034565b614033848484615053565b5b5b5b806140445761404361521e565b5b50505050565b6000806000600d5490506000600c54905060005b600b8054905081101561429e578260046000600b848154811061407d57fe5b9060005260206000200160009054906101000a900473ffffffffffffffffffffffffffffffffffffffff1673ffffffffffffffffffffffffffffffffffffffff1673ffffffffffffffffffffffffffffffffffffffff16815260200190815260200160002054118061416457508160056000600b84815481106140fc57fe5b9060005260206000200160009054906101000a900473ffffffffffffffffffffffffffffffffffffffff1673ffffffffffffffffffffffffffffffffffffffff1673ffffffffffffffffffffffffffffffffffffffff16815260200190815260200160002054115b1561417b57600d54600c54945094505050506142d7565b61420460046000600b848154811061418f57fe5b9060005260206000200160009054906101000a900473ffffffffffffffffffffffffffffffffffffffff1673ffffffffffffffffffffffffffffffffffffffff1673ffffffffffffffffffffffffffffffffffffffff1681526020019081526020016000205484613c8990919063ffffffff16565b925061428f60056000600b848154811061421a57fe5b9060005260206000200160009054906101000a900473ffffffffffffffffffffffffffffffffffffffff1673ffffffffffffffffffffffffffffffffffffffff1673ffffffffffffffffffffffffffffffffffffffff1681526020019081526020016000205483613c8990919063ffffffff16565b9150808060010191505061405e565b506142b6600c54600d54613b5b90919063ffffffff16565b8210156142ce57600d54600c549350935050506142d7565b81819350935050505b9091565b60008083118290614387576040517f08c379a00000000000000000000000000000000000000000000000000000000081526004018080602001828103825283818151815260200191508051906020019080838360005b8381101561434c578082015181840152602081019050614331565b50505050905090810190601f1680156143795780820380516001836020036101000a031916815260200191505b509250505060405180910390fd5b50600083858161439357fe5b049050809150509392505050565b6000806000806143b085615232565b905060006143bd86615263565b905060006143e6826143d8858a613c8990919063ffffffff16565b613c8990919063ffffffff16565b90508083839550955095505050509193909250565b6000806000806144148589613cd390919063ffffffff16565b9050600061442b8689613cd390919063ffffffff16565b905060006144428789613cd390919063ffffffff16565b9050600061446b8261445d8587613c8990919063ffffffff16565b613c8990919063ffffffff16565b9050838184965096509650505050509450945094915050565b6060600267ffffffffffffffff8111801561449e57600080fd5b506040519080825280602002602001820160405280156144cd5781602001602082028036833780820191505090505b50905030816000815181106144de57fe5b602002602001019073ffffffffffffffffffffffffffffffffffffffff16908173ffffffffffffffffffffffffffffffffffffffff1681525050601860009054906101000a900473ffffffffffffffffffffffffffffffffffffffff1673ffffffffffffffffffffffffffffffffffffffff1663ad5c46486040518163ffffffff1660e01b815260040160206040518083038186803b15801561458057600080fd5b505afa158015614594573d6000803e3d6000fd5b505050506040513d60208110156145aa57600080fd5b8101908080519060200190929190505050816001815181106145c857fe5b602002602001019073ffffffffffffffffffffffffffffffffffffffff16908173ffffffffffffffffffffffffffffffffffffffff168152505061462f30601860009054906101000a900473ffffffffffffffffffffffffffffffffffffffff168461307d565b601860009054906101000a900473ffffffffffffffffffffffffffffffffffffffff1673ffffffffffffffffffffffffffffffffffffffff1663791ac9478360008430426040518663ffffffff1660e01b815260040180868152602001858152602001806020018473ffffffffffffffffffffffffffffffffffffffff168152602001838152602001828103825285818151815260200191508051906020019060200280838360005b838110156146f35780820151818401526020810190506146d8565b505050509050019650505050505050600060405180830381600087803b15801561471c57600080fd5b505af1158015614730573d6000803e3d6000fd5b505050507f32cde87eb454f3a0b875ab23547023107cfad454363ec88ba5695e2c24aa52a782826040518083815260200180602001828103825283818151815260200191508051906020019060200280838360005b838110156147a0578082015181840152602081019050614785565b50505050905001935050505060405180910390a15050565b600360009054906101000a900473ffffffffffffffffffffffffffffffffffffffff1673ffffffffffffffffffffffffffffffffffffffff166108fc829081150290604051600060405180830381858888f19350505050158015614820573d6000803e3d6000fd5b507fb6b34f3cfef2b0bb0e47223ab355ff7c3615a62fe5f469444611e679411246c6816040518082815260200191505060405180910390a150565b600060125414801561486f57506000601454145b156148795761489c565b601254601381905550601454601581905550600060128190555060006014819055505b565b6000806000806000806148b087613c2d565b95509550955095509550955061490e87600560008c73ffffffffffffffffffffffffffffffffffffffff1673ffffffffffffffffffffffffffffffffffffffff16815260200190815260200160002054613c8990919063ffffffff16565b600560008b73ffffffffffffffffffffffffffffffffffffffff1673ffffffffffffffffffffffffffffffffffffffff168152602001908152602001600020819055506149a386600460008c73ffffffffffffffffffffffffffffffffffffffff1673ffffffffffffffffffffffffffffffffffffffff16815260200190815260200160002054613c8990919063ffffffff16565b600460008b73ffffffffffffffffffffffffffffffffffffffff1673ffffffffffffffffffffffffffffffffffffffff16815260200190815260200160002081905550614a3885600460008b73ffffffffffffffffffffffffffffffffffffffff1673ffffffffffffffffffffffffffffffffffffffff16815260200190815260200160002054613ba590919063ffffffff16565b600460008a73ffffffffffffffffffffffffffffffffffffffff1673ffffffffffffffffffffffffffffffffffffffff16815260200190815260200160002081905550614a8481615294565b614a8e8483615439565b8773ffffffffffffffffffffffffffffffffffffffff168973ffffffffffffffffffffffffffffffffffffffff167fddf252ad1be2c89b69c2b068fc378daa952ba7f163c4a11628f55a4df523b3ef856040518082815260200191505060405180910390a3505050505050505050565b600080600080600080614b1087613c2d565b955095509550955095509550614b6e86600460008c73ffffffffffffffffffffffffffffffffffffffff1673ffffffffffffffffffffffffffffffffffffffff16815260200190815260200160002054613c8990919063ffffffff16565b600460008b73ffffffffffffffffffffffffffffffffffffffff1673ffffffffffffffffffffffffffffffffffffffff16815260200190815260200160002081905550614c0383600560008b73ffffffffffffffffffffffffffffffffffffffff1673ffffffffffffffffffffffffffffffffffffffff16815260200190815260200160002054613ba590919063ffffffff16565b600560008a73ffffffffffffffffffffffffffffffffffffffff1673ffffffffffffffffffffffffffffffffffffffff16815260200190815260200160002081905550614c9885600460008b73ffffffffffffffffffffffffffffffffffffffff1673ffffffffffffffffffffffffffffffffffffffff16815260200190815260200160002054613ba590919063ffffffff16565b600460008a73ffffffffffffffffffffffffffffffffffffffff1673ffffffffffffffffffffffffffffffffffffffff16815260200190815260200160002081905550614ce481615294565b614cee8483615439565b8773ffffffffffffffffffffffffffffffffffffffff168973ffffffffffffffffffffffffffffffffffffffff167fddf252ad1be2c89b69c2b068fc378daa952ba7f163c4a11628f55a4df523b3ef856040518082815260200191505060405180910390a3505050505050505050565b600080600080600080614d7087613c2d565b955095509550955095509550614dce87600560008c73ffffffffffffffffffffffffffffffffffffffff1673ffffffffffffffffffffffffffffffffffffffff16815260200190815260200160002054613c8990919063ffffffff16565b600560008b73ffffffffffffffffffffffffffffffffffffffff1673ffffffffffffffffffffffffffffffffffffffff16815260200190815260200160002081905550614e6386600460008c73ffffffffffffffffffffffffffffffffffffffff1673ffffffffffffffffffffffffffffffffffffffff16815260200190815260200160002054613c8990919063ffffffff16565b600460008b73ffffffffffffffffffffffffffffffffffffffff1673ffffffffffffffffffffffffffffffffffffffff16815260200190815260200160002081905550614ef883600560008b73ffffffffffffffffffffffffffffffffffffffff1673ffffffffffffffffffffffffffffffffffffffff16815260200190815260200160002054613ba590919063ffffffff16565b600560008a73ffffffffffffffffffffffffffffffffffffffff1673ffffffffffffffffffffffffffffffffffffffff16815260200190815260200160002081905550614f8d85600460008b73ffffffffffffffffffffffffffffffffffffffff1673ffffffffffffffffffffffffffffffffffffffff16815260200190815260200160002054613ba590919063ffffffff16565b600460008a73ffffffffffffffffffffffffffffffffffffffff1673ffffffffffffffffffffffffffffffffffffffff16815260200190815260200160002081905550614fd981615294565b614fe38483615439565b8773ffffffffffffffffffffffffffffffffffffffff168973ffffffffffffffffffffffffffffffffffffffff167fddf252ad1be2c89b69c2b068fc378daa952ba7f163c4a11628f55a4df523b3ef856040518082815260200191505060405180910390a3505050505050505050565b60008060008060008061506587613c2d565b9550955095509550955095506150c386600460008c73ffffffffffffffffffffffffffffffffffffffff1673ffffffffffffffffffffffffffffffffffffffff16815260200190815260200160002054613c8990919063ffffffff16565b600460008b73ffffffffffffffffffffffffffffffffffffffff1673ffffffffffffffffffffffffffffffffffffffff1681526020019081526020016000208190555061515885600460008b73ffffffffffffffffffffffffffffffffffffffff1673ffffffffffffffffffffffffffffffffffffffff16815260200190815260200160002054613ba590919063ffffffff16565b600460008a73ffffffffffffffffffffffffffffffffffffffff1673ffffffffffffffffffffffffffffffffffffffff168152602001908152602001600020819055506151a481615294565b6151ae8483615439565b8773ffffffffffffffffffffffffffffffffffffffff168973ffffffffffffffffffffffffffffffffffffffff167fddf252ad1be2c89b69c2b068fc378daa952ba7f163c4a11628f55a4df523b3ef856040518082815260200191505060405180910390a3505050505050505050565b601354601281905550601554601481905550565b600061525c606461524e60125485613cd390919063ffffffff16565b613b5b90919063ffffffff16565b9050919050565b600061528d606461527f60145485613cd390919063ffffffff16565b613b5b90919063ffffffff16565b9050919050565b600061529e613b30565b905060006152b58284613cd390919063ffffffff16565b905061530981600460003073ffffffffffffffffffffffffffffffffffffffff1673ffffffffffffffffffffffffffffffffffffffff16815260200190815260200160002054613ba590919063ffffffff16565b600460003073ffffffffffffffffffffffffffffffffffffffff1673ffffffffffffffffffffffffffffffffffffffff16815260200190815260200160002081905550600a60003073ffffffffffffffffffffffffffffffffffffffff1673ffffffffffffffffffffffffffffffffffffffff16815260200190815260200160002060009054906101000a900460ff1615615434576153f083600560003073ffffffffffffffffffffffffffffffffffffffff1673ffffffffffffffffffffffffffffffffffffffff16815260200190815260200160002054613ba590919063ffffffff16565b600560003073ffffffffffffffffffffffffffffffffffffffff1673ffffffffffffffffffffffffffffffffffffffff168152602001908152602001600020819055505b505050565b61544e82600d54613c8990919063ffffffff16565b600d8190555061546981600e54613ba590919063ffffffff16565b600e81905550505056fe45524332303a207472616e7366657220746f20746865207a65726f2061646472657373416d6f756e74206d757374206265206c657373207468616e20746f74616c207265666c656374696f6e734f776e61626c653a206e6577206f776e657220697320746865207a65726f206164647265737345524332303a20617070726f766520746f20746865207a65726f2061646472657373536166654d6174683a206d756c7469706c69636174696f6e206f766572666c6f7745524332303a207472616e7366657220616d6f756e74206578636565647320616c6c6f77616e63655472616e7366657220616d6f756e74206d7573742062652067726561746572207468616e207a65726f45524332303a207472616e736665722066726f6d20746865207a65726f206164647265737345524332303a20617070726f76652066726f6d20746865207a65726f20616464726573734578636c75646564206164647265737365732063616e6e6f742063616c6c20746869732066756e6374696f6e45524332303a2064656372656173656420616c6c6f77616e63652062656c6f77207a65726fa26469706673582212207df0e6f4c6526e972401ead2dd253d9997d3594a3771f511d881d3e06f28aaa564736f6c634300060c0033",
					"opcodes": "PUSH1 0x80 PUSH1 0x40 MSTORE PUSH20 0x40DA1DD681EC6175C3BCFE1641CD2826A99EBDD8 PUSH1 0x3 PUSH1 0x0 PUSH2 0x100 EXP DUP2 SLOAD DUP2 PUSH20 0xFFFFFFFFFFFFFFFFFFFFFFFFFFFFFFFFFFFFFFFF MUL NOT AND SWAP1 DUP4 PUSH20 0xFFFFFFFFFFFFFFFFFFFFFFFFFFFFFFFFFFFFFFFF AND MUL OR SWAP1 SSTORE POP PUSH10 0x21E19E0C9BAB2400000 PUSH1 0xC SSTORE PUSH1 0xC SLOAD PUSH1 0x0 NOT DUP2 PUSH3 0x75 JUMPI INVALID JUMPDEST MOD PUSH1 0x0 NOT SUB PUSH1 0xD SSTORE PUSH1 0x40 MLOAD DUP1 PUSH1 0x40 ADD PUSH1 0x40 MSTORE DUP1 PUSH1 0x9 DUP2 MSTORE PUSH1 0x20 ADD PUSH32 0x446567656E204554480000000000000000000000000000000000000000000000 DUP2 MSTORE POP PUSH1 0xF SWAP1 DUP1 MLOAD SWAP1 PUSH1 0x20 ADD SWAP1 PUSH3 0xCA SWAP3 SWAP2 SWAP1 PUSH3 0x690 JUMP JUMPDEST POP PUSH1 0x40 MLOAD DUP1 PUSH1 0x40 ADD PUSH1 0x40 MSTORE DUP1 PUSH1 0x5 DUP2 MSTORE PUSH1 0x20 ADD PUSH32 0x642E455448000000000000000000000000000000000000000000000000000000 DUP2 MSTORE POP PUSH1 0x10 SWAP1 DUP1 MLOAD SWAP1 PUSH1 0x20 ADD SWAP1 PUSH3 0x118 SWAP3 SWAP2 SWAP1 PUSH3 0x690 JUMP JUMPDEST POP PUSH1 0x9 PUSH1 0x11 PUSH1 0x0 PUSH2 0x100 EXP DUP2 SLOAD DUP2 PUSH1 0xFF MUL NOT AND SWAP1 DUP4 PUSH1 0xFF AND MUL OR SWAP1 SSTORE POP PUSH1 0x3 PUSH1 0x12 SSTORE PUSH1 0x12 SLOAD PUSH1 0x13 SSTORE PUSH1 0x6 PUSH1 0x14 SSTORE PUSH1 0x14 SLOAD PUSH1 0x15 SSTORE PUSH1 0x2 PUSH1 0x16 SSTORE PUSH1 0x0 PUSH1 0x19 PUSH1 0x15 PUSH2 0x100 EXP DUP2 SLOAD DUP2 PUSH1 0xFF MUL NOT AND SWAP1 DUP4 ISZERO ISZERO MUL OR SWAP1 SSTORE POP CALLVALUE DUP1 ISZERO PUSH3 0x178 JUMPI PUSH1 0x0 DUP1 REVERT JUMPDEST POP PUSH1 0x40 MLOAD PUSH3 0x5D90 CODESIZE SUB DUP1 PUSH3 0x5D90 DUP4 CODECOPY DUP2 DUP2 ADD PUSH1 0x40 MSTORE PUSH1 0x40 DUP2 LT ISZERO PUSH3 0x19E JUMPI PUSH1 0x0 DUP1 REVERT JUMPDEST DUP2 ADD SWAP1 DUP1 DUP1 MLOAD SWAP1 PUSH1 0x20 ADD SWAP1 SWAP3 SWAP2 SWAP1 DUP1 MLOAD SWAP1 PUSH1 0x20 ADD SWAP1 SWAP3 SWAP2 SWAP1 POP POP POP PUSH1 0x0 PUSH3 0x1CB PUSH3 0x688 PUSH1 0x20 SHL PUSH1 0x20 SHR JUMP JUMPDEST SWAP1 POP DUP1 PUSH1 0x0 DUP1 PUSH2 0x100 EXP DUP2 SLOAD DUP2 PUSH20 0xFFFFFFFFFFFFFFFFFFFFFFFFFFFFFFFFFFFFFFFF MUL NOT AND SWAP1 DUP4 PUSH20 0xFFFFFFFFFFFFFFFFFFFFFFFFFFFFFFFFFFFFFFFF AND MUL OR SWAP1 SSTORE POP DUP1 PUSH20 0xFFFFFFFFFFFFFFFFFFFFFFFFFFFFFFFFFFFFFFFF AND PUSH1 0x0 PUSH20 0xFFFFFFFFFFFFFFFFFFFFFFFFFFFFFFFFFFFFFFFF AND PUSH32 0x8BE0079C531659141344CD1FD0A4F28419497F9722A3DAAFE3B4186F6B6457E0 PUSH1 0x40 MLOAD PUSH1 0x40 MLOAD DUP1 SWAP2 SUB SWAP1 LOG3 POP PUSH1 0xD SLOAD PUSH1 0x4 PUSH1 0x0 CALLER PUSH20 0xFFFFFFFFFFFFFFFFFFFFFFFFFFFFFFFFFFFFFFFF AND PUSH20 0xFFFFFFFFFFFFFFFFFFFFFFFFFFFFFFFFFFFFFFFF AND DUP2 MSTORE PUSH1 0x20 ADD SWAP1 DUP2 MSTORE PUSH1 0x20 ADD PUSH1 0x0 KECCAK256 DUP2 SWAP1 SSTORE POP PUSH3 0x2BF PUSH3 0x688 PUSH1 0x20 SHL PUSH1 0x20 SHR JUMP JUMPDEST PUSH20 0xFFFFFFFFFFFFFFFFFFFFFFFFFFFFFFFFFFFFFFFF AND PUSH1 0x0 PUSH20 0xFFFFFFFFFFFFFFFFFFFFFFFFFFFFFFFFFFFFFFFF AND PUSH32 0xDDF252AD1BE2C89B69C2B068FC378DAA952BA7F163C4A11628F55A4DF523B3EF PUSH1 0xC SLOAD PUSH1 0x40 MLOAD DUP1 DUP3 DUP2 MSTORE PUSH1 0x20 ADD SWAP2 POP POP PUSH1 0x40 MLOAD DUP1 SWAP2 SUB SWAP1 LOG3 PUSH1 0x0 DUP2 SWAP1 POP DUP1 PUSH20 0xFFFFFFFFFFFFFFFFFFFFFFFFFFFFFFFFFFFFFFFF AND PUSH4 0xC45A0155 PUSH1 0x40 MLOAD DUP2 PUSH4 0xFFFFFFFF AND PUSH1 0xE0 SHL DUP2 MSTORE PUSH1 0x4 ADD PUSH1 0x20 PUSH1 0x40 MLOAD DUP1 DUP4 SUB DUP2 DUP7 DUP1 EXTCODESIZE ISZERO DUP1 ISZERO PUSH3 0x372 JUMPI PUSH1 0x0 DUP1 REVERT JUMPDEST POP GAS STATICCALL ISZERO DUP1 ISZERO PUSH3 0x387 JUMPI RETURNDATASIZE PUSH1 0x0 DUP1 RETURNDATACOPY RETURNDATASIZE PUSH1 0x0 REVERT JUMPDEST POP POP POP POP PUSH1 0x40 MLOAD RETURNDATASIZE PUSH1 0x20 DUP2 LT ISZERO PUSH3 0x39E JUMPI PUSH1 0x0 DUP1 REVERT JUMPDEST DUP2 ADD SWAP1 DUP1 DUP1 MLOAD SWAP1 PUSH1 0x20 ADD SWAP1 SWAP3 SWAP2 SWAP1 POP POP POP PUSH20 0xFFFFFFFFFFFFFFFFFFFFFFFFFFFFFFFFFFFFFFFF AND PUSH4 0xC9C65396 ADDRESS DUP4 PUSH20 0xFFFFFFFFFFFFFFFFFFFFFFFFFFFFFFFFFFFFFFFF AND PUSH4 0xAD5C4648 PUSH1 0x40 MLOAD DUP2 PUSH4 0xFFFFFFFF AND PUSH1 0xE0 SHL DUP2 MSTORE PUSH1 0x4 ADD PUSH1 0x20 PUSH1 0x40 MLOAD DUP1 DUP4 SUB DUP2 DUP7 DUP1 EXTCODESIZE ISZERO DUP1 ISZERO PUSH3 0x412 JUMPI PUSH1 0x0 DUP1 REVERT JUMPDEST POP GAS STATICCALL ISZERO DUP1 ISZERO PUSH3 0x427 JUMPI RETURNDATASIZE PUSH1 0x0 DUP1 RETURNDATACOPY RETURNDATASIZE PUSH1 0x0 REVERT JUMPDEST POP POP POP POP PUSH1 0x40 MLOAD RETURNDATASIZE PUSH1 0x20 DUP2 LT ISZERO PUSH3 0x43E JUMPI PUSH1 0x0 DUP1 REVERT JUMPDEST DUP2 ADD SWAP1 DUP1 DUP1 MLOAD SWAP1 PUSH1 0x20 ADD SWAP1 SWAP3 SWAP2 SWAP1 POP POP POP PUSH1 0x40 MLOAD DUP4 PUSH4 0xFFFFFFFF AND PUSH1 0xE0 SHL DUP2 MSTORE PUSH1 0x4 ADD DUP1 DUP4 PUSH20 0xFFFFFFFFFFFFFFFFFFFFFFFFFFFFFFFFFFFFFFFF AND DUP2 MSTORE PUSH1 0x20 ADD DUP3 PUSH20 0xFFFFFFFFFFFFFFFFFFFFFFFFFFFFFFFFFFFFFFFF AND DUP2 MSTORE PUSH1 0x20 ADD SWAP3 POP POP POP PUSH1 0x20 PUSH1 0x40 MLOAD DUP1 DUP4 SUB DUP2 PUSH1 0x0 DUP8 DUP1 EXTCODESIZE ISZERO DUP1 ISZERO PUSH3 0x4B9 JUMPI PUSH1 0x0 DUP1 REVERT JUMPDEST POP GAS CALL ISZERO DUP1 ISZERO PUSH3 0x4CE JUMPI RETURNDATASIZE PUSH1 0x0 DUP1 RETURNDATACOPY RETURNDATASIZE PUSH1 0x0 REVERT JUMPDEST POP POP POP POP PUSH1 0x40 MLOAD RETURNDATASIZE PUSH1 0x20 DUP2 LT ISZERO PUSH3 0x4E5 JUMPI PUSH1 0x0 DUP1 REVERT JUMPDEST DUP2 ADD SWAP1 DUP1 DUP1 MLOAD SWAP1 PUSH1 0x20 ADD SWAP1 SWAP3 SWAP2 SWAP1 POP POP POP PUSH1 0x19 PUSH1 0x0 PUSH2 0x100 EXP DUP2 SLOAD DUP2 PUSH20 0xFFFFFFFFFFFFFFFFFFFFFFFFFFFFFFFFFFFFFFFF MUL NOT AND SWAP1 DUP4 PUSH20 0xFFFFFFFFFFFFFFFFFFFFFFFFFFFFFFFFFFFFFFFF AND MUL OR SWAP1 SSTORE POP DUP1 PUSH1 0x18 PUSH1 0x0 PUSH2 0x100 EXP DUP2 SLOAD DUP2 PUSH20 0xFFFFFFFFFFFFFFFFFFFFFFFFFFFFFFFFFFFFFFFF MUL NOT AND SWAP1 DUP4 PUSH20 0xFFFFFFFFFFFFFFFFFFFFFFFFFFFFFFFFFFFFFFFF AND MUL OR SWAP1 SSTORE POP PUSH1 0x1 PUSH1 0x9 PUSH1 0x0 CALLER PUSH20 0xFFFFFFFFFFFFFFFFFFFFFFFFFFFFFFFFFFFFFFFF AND PUSH20 0xFFFFFFFFFFFFFFFFFFFFFFFFFFFFFFFFFFFFFFFF AND DUP2 MSTORE PUSH1 0x20 ADD SWAP1 DUP2 MSTORE PUSH1 0x20 ADD PUSH1 0x0 KECCAK256 PUSH1 0x0 PUSH2 0x100 EXP DUP2 SLOAD DUP2 PUSH1 0xFF MUL NOT AND SWAP1 DUP4 ISZERO ISZERO MUL OR SWAP1 SSTORE POP PUSH1 0x1 PUSH1 0x9 PUSH1 0x0 DUP6 PUSH20 0xFFFFFFFFFFFFFFFFFFFFFFFFFFFFFFFFFFFFFFFF AND PUSH20 0xFFFFFFFFFFFFFFFFFFFFFFFFFFFFFFFFFFFFFFFF AND DUP2 MSTORE PUSH1 0x20 ADD SWAP1 DUP2 MSTORE PUSH1 0x20 ADD PUSH1 0x0 KECCAK256 PUSH1 0x0 PUSH2 0x100 EXP DUP2 SLOAD DUP2 PUSH1 0xFF MUL NOT AND SWAP1 DUP4 ISZERO ISZERO MUL OR SWAP1 SSTORE POP PUSH1 0x1 PUSH1 0x9 PUSH1 0x0 ADDRESS PUSH20 0xFFFFFFFFFFFFFFFFFFFFFFFFFFFFFFFFFFFFFFFF AND PUSH20 0xFFFFFFFFFFFFFFFFFFFFFFFFFFFFFFFFFFFFFFFF AND DUP2 MSTORE PUSH1 0x20 ADD SWAP1 DUP2 MSTORE PUSH1 0x20 ADD PUSH1 0x0 KECCAK256 PUSH1 0x0 PUSH2 0x100 EXP DUP2 SLOAD DUP2 PUSH1 0xFF MUL NOT AND SWAP1 DUP4 ISZERO ISZERO MUL OR SWAP1 SSTORE POP POP POP POP PUSH3 0x736 JUMP JUMPDEST PUSH1 0x0 CALLER SWAP1 POP SWAP1 JUMP JUMPDEST DUP3 DUP1 SLOAD PUSH1 0x1 DUP2 PUSH1 0x1 AND ISZERO PUSH2 0x100 MUL SUB AND PUSH1 0x2 SWAP1 DIV SWAP1 PUSH1 0x0 MSTORE PUSH1 0x20 PUSH1 0x0 KECCAK256 SWAP1 PUSH1 0x1F ADD PUSH1 0x20 SWAP1 DIV DUP2 ADD SWAP3 DUP3 PUSH1 0x1F LT PUSH3 0x6D3 JUMPI DUP1 MLOAD PUSH1 0xFF NOT AND DUP4 DUP1 ADD OR DUP6 SSTORE PUSH3 0x704 JUMP JUMPDEST DUP3 DUP1 ADD PUSH1 0x1 ADD DUP6 SSTORE DUP3 ISZERO PUSH3 0x704 JUMPI SWAP2 DUP3 ADD JUMPDEST DUP3 DUP2 GT ISZERO PUSH3 0x703 JUMPI DUP3 MLOAD DUP3 SSTORE SWAP2 PUSH1 0x20 ADD SWAP2 SWAP1 PUSH1 0x1 ADD SWAP1 PUSH3 0x6E6 JUMP JUMPDEST JUMPDEST POP SWAP1 POP PUSH3 0x713 SWAP2 SWAP1 PUSH3 0x717 JUMP JUMPDEST POP SWAP1 JUMP JUMPDEST JUMPDEST DUP1 DUP3 GT ISZERO PUSH3 0x732 JUMPI PUSH1 0x0 DUP2 PUSH1 0x0 SWAP1 SSTORE POP PUSH1 0x1 ADD PUSH3 0x718 JUMP JUMPDEST POP SWAP1 JUMP JUMPDEST PUSH2 0x564A DUP1 PUSH3 0x746 PUSH1 0x0 CODECOPY PUSH1 0x0 RETURN INVALID PUSH1 0x80 PUSH1 0x40 MSTORE PUSH1 0x4 CALLDATASIZE LT PUSH2 0x234 JUMPI PUSH1 0x0 CALLDATALOAD PUSH1 0xE0 SHR DUP1 PUSH4 0x5342ACB4 GT PUSH2 0x12E JUMPI DUP1 PUSH4 0x95D89B41 GT PUSH2 0xAB JUMPI DUP1 PUSH4 0xDB2E21BC GT PUSH2 0x6F JUMPI DUP1 PUSH4 0xDB2E21BC EQ PUSH2 0xCB1 JUMPI DUP1 PUSH4 0xDD62ED3E EQ PUSH2 0xCC8 JUMPI DUP1 PUSH4 0xEA2F0B37 EQ PUSH2 0xD4D JUMPI DUP1 PUSH4 0xF2FDE38B EQ PUSH2 0xD9E JUMPI DUP1 PUSH4 0xF375B253 EQ PUSH2 0xDEF JUMPI PUSH2 0x23B JUMP JUMPDEST DUP1 PUSH4 0x95D89B41 EQ PUSH2 0xAE7 JUMPI DUP1 PUSH4 0xA457C2D7 EQ PUSH2 0xB77 JUMPI DUP1 PUSH4 0xA5ECE941 EQ PUSH2 0xBE8 JUMPI DUP1 PUSH4 0xA9059CBB EQ PUSH2 0xC29 JUMPI DUP1 PUSH4 0xC9567BF9 EQ PUSH2 0xC9A JUMPI PUSH2 0x23B JUMP JUMPDEST DUP1 PUSH4 0x87CEFF09 GT PUSH2 0xF2 JUMPI DUP1 PUSH4 0x87CEFF09 EQ PUSH2 0x988 JUMPI DUP1 PUSH4 0x88F82020 EQ PUSH2 0x9B3 JUMPI DUP1 PUSH4 0x8DA5CB5B EQ PUSH2 0xA1A JUMPI DUP1 PUSH4 0x8EE88C53 EQ PUSH2 0xA5B JUMPI DUP1 PUSH4 0x906E9DD0 EQ PUSH2 0xA96 JUMPI PUSH2 0x23B JUMP JUMPDEST DUP1 PUSH4 0x5342ACB4 EQ PUSH2 0x813 JUMPI DUP1 PUSH4 0x610D5B19 EQ PUSH2 0x87A JUMPI DUP1 PUSH4 0x6BC87C3A EQ PUSH2 0x8E1 JUMPI DUP1 PUSH4 0x70A08231 EQ PUSH2 0x90C JUMPI DUP1 PUSH4 0x715018A6 EQ PUSH2 0x971 JUMPI PUSH2 0x23B JUMP JUMPDEST DUP1 PUSH4 0x362A3C5D GT PUSH2 0x1BC JUMPI DUP1 PUSH4 0x437823EC GT PUSH2 0x180 JUMPI DUP1 PUSH4 0x437823EC EQ PUSH2 0x69A JUMPI DUP1 PUSH4 0x4549B039 EQ PUSH2 0x6EB JUMPI DUP1 PUSH4 0x45596E2E EQ PUSH2 0x746 JUMPI DUP1 PUSH4 0x49BD5A5E EQ PUSH2 0x781 JUMPI DUP1 PUSH4 0x52390C02 EQ PUSH2 0x7C2 JUMPI PUSH2 0x23B JUMP JUMPDEST DUP1 PUSH4 0x362A3C5D EQ PUSH2 0x521 JUMPI DUP1 PUSH4 0x3685D419 EQ PUSH2 0x572 JUMPI DUP1 PUSH4 0x39509351 EQ PUSH2 0x5C3 JUMPI DUP1 PUSH4 0x3B124FE7 EQ PUSH2 0x634 JUMPI DUP1 PUSH4 0x3BD5D173 EQ PUSH2 0x65F JUMPI PUSH2 0x23B JUMP JUMPDEST DUP1 PUSH4 0x1694505E GT PUSH2 0x203 JUMPI DUP1 PUSH4 0x1694505E EQ PUSH2 0x3A7 JUMPI DUP1 PUSH4 0x18160DDD EQ PUSH2 0x3E8 JUMPI DUP1 PUSH4 0x23B872DD EQ PUSH2 0x413 JUMPI DUP1 PUSH4 0x2D838119 EQ PUSH2 0x4A4 JUMPI DUP1 PUSH4 0x313CE567 EQ PUSH2 0x4F3 JUMPI PUSH2 0x23B JUMP JUMPDEST DUP1 PUSH4 0x61C82D0 EQ PUSH2 0x240 JUMPI DUP1 PUSH4 0x6FDDE03 EQ PUSH2 0x27B JUMPI DUP1 PUSH4 0x95EA7B3 EQ PUSH2 0x30B JUMPI DUP1 PUSH4 0x13114A9D EQ PUSH2 0x37C JUMPI PUSH2 0x23B JUMP JUMPDEST CALLDATASIZE PUSH2 0x23B JUMPI STOP JUMPDEST PUSH1 0x0 DUP1 REVERT JUMPDEST CALLVALUE DUP1 ISZERO PUSH2 0x24C JUMPI PUSH1 0x0 DUP1 REVERT JUMPDEST POP PUSH2 0x279 PUSH1 0x4 DUP1 CALLDATASIZE SUB PUSH1 0x20 DUP2 LT ISZERO PUSH2 0x263 JUMPI PUSH1 0x0 DUP1 REVERT JUMPDEST DUP2 ADD SWAP1 DUP1 DUP1 CALLDATALOAD SWAP1 PUSH1 0x20 ADD SWAP1 SWAP3 SWAP2 SWAP1 POP POP POP PUSH2 0xE40 JUMP JUMPDEST STOP JUMPDEST CALLVALUE DUP1 ISZERO PUSH2 0x287 JUMPI PUSH1 0x0 DUP1 REVERT JUMPDEST POP PUSH2 0x290 PUSH2 0xF12 JUMP JUMPDEST PUSH1 0x40 MLOAD DUP1 DUP1 PUSH1 0x20 ADD DUP3 DUP2 SUB DUP3 MSTORE DUP4 DUP2 DUP2 MLOAD DUP2 MSTORE PUSH1 0x20 ADD SWAP2 POP DUP1 MLOAD SWAP1 PUSH1 0x20 ADD SWAP1 DUP1 DUP4 DUP4 PUSH1 0x0 JUMPDEST DUP4 DUP2 LT ISZERO PUSH2 0x2D0 JUMPI DUP1 DUP3 ADD MLOAD DUP2 DUP5 ADD MSTORE PUSH1 0x20 DUP2 ADD SWAP1 POP PUSH2 0x2B5 JUMP JUMPDEST POP POP POP POP SWAP1 POP SWAP1 DUP2 ADD SWAP1 PUSH1 0x1F AND DUP1 ISZERO PUSH2 0x2FD JUMPI DUP1 DUP3 SUB DUP1 MLOAD PUSH1 0x1 DUP4 PUSH1 0x20 SUB PUSH2 0x100 EXP SUB NOT AND DUP2 MSTORE PUSH1 0x20 ADD SWAP2 POP JUMPDEST POP SWAP3 POP POP POP PUSH1 0x40 MLOAD DUP1 SWAP2 SUB SWAP1 RETURN JUMPDEST CALLVALUE DUP1 ISZERO PUSH2 0x317 JUMPI PUSH1 0x0 DUP1 REVERT JUMPDEST POP PUSH2 0x364 PUSH1 0x4 DUP1 CALLDATASIZE SUB PUSH1 0x40 DUP2 LT ISZERO PUSH2 0x32E JUMPI PUSH1 0x0 DUP1 REVERT JUMPDEST DUP2 ADD SWAP1 DUP1 DUP1 CALLDATALOAD PUSH20 0xFFFFFFFFFFFFFFFFFFFFFFFFFFFFFFFFFFFFFFFF AND SWAP1 PUSH1 0x20 ADD SWAP1 SWAP3 SWAP2 SWAP1 DUP1 CALLDATALOAD SWAP1 PUSH1 0x20 ADD SWAP1 SWAP3 SWAP2 SWAP1 POP POP POP PUSH2 0xFB4 JUMP JUMPDEST PUSH1 0x40 MLOAD DUP1 DUP3 ISZERO ISZERO DUP2 MSTORE PUSH1 0x20 ADD SWAP2 POP POP PUSH1 0x40 MLOAD DUP1 SWAP2 SUB SWAP1 RETURN JUMPDEST CALLVALUE DUP1 ISZERO PUSH2 0x388 JUMPI PUSH1 0x0 DUP1 REVERT JUMPDEST POP PUSH2 0x391 PUSH2 0xFD2 JUMP JUMPDEST PUSH1 0x40 MLOAD DUP1 DUP3 DUP2 MSTORE PUSH1 0x20 ADD SWAP2 POP POP PUSH1 0x40 MLOAD DUP1 SWAP2 SUB SWAP1 RETURN JUMPDEST CALLVALUE DUP1 ISZERO PUSH2 0x3B3 JUMPI PUSH1 0x0 DUP1 REVERT JUMPDEST POP PUSH2 0x3BC PUSH2 0xFDC JUMP JUMPDEST PUSH1 0x40 MLOAD DUP1 DUP3 PUSH20 0xFFFFFFFFFFFFFFFFFFFFFFFFFFFFFFFFFFFFFFFF AND DUP2 MSTORE PUSH1 0x20 ADD SWAP2 POP POP PUSH1 0x40 MLOAD DUP1 SWAP2 SUB SWAP1 RETURN JUMPDEST CALLVALUE DUP1 ISZERO PUSH2 0x3F4 JUMPI PUSH1 0x0 DUP1 REVERT JUMPDEST POP PUSH2 0x3FD PUSH2 0x1002 JUMP JUMPDEST PUSH1 0x40 MLOAD DUP1 DUP3 DUP2 MSTORE PUSH1 0x20 ADD SWAP2 POP POP PUSH1 0x40 MLOAD DUP1 SWAP2 SUB SWAP1 RETURN JUMPDEST CALLVALUE DUP1 ISZERO PUSH2 0x41F JUMPI PUSH1 0x0 DUP1 REVERT JUMPDEST POP PUSH2 0x48C PUSH1 0x4 DUP1 CALLDATASIZE SUB PUSH1 0x60 DUP2 LT ISZERO PUSH2 0x436 JUMPI PUSH1 0x0 DUP1 REVERT JUMPDEST DUP2 ADD SWAP1 DUP1 DUP1 CALLDATALOAD PUSH20 0xFFFFFFFFFFFFFFFFFFFFFFFFFFFFFFFFFFFFFFFF AND SWAP1 PUSH1 0x20 ADD SWAP1 SWAP3 SWAP2 SWAP1 DUP1 CALLDATALOAD PUSH20 0xFFFFFFFFFFFFFFFFFFFFFFFFFFFFFFFFFFFFFFFF AND SWAP1 PUSH1 0x20 ADD SWAP1 SWAP3 SWAP2 SWAP1 DUP1 CALLDATALOAD SWAP1 PUSH1 0x20 ADD SWAP1 SWAP3 SWAP2 SWAP1 POP POP POP PUSH2 0x100C JUMP JUMPDEST PUSH1 0x40 MLOAD DUP1 DUP3 ISZERO ISZERO DUP2 MSTORE PUSH1 0x20 ADD SWAP2 POP POP PUSH1 0x40 MLOAD DUP1 SWAP2 SUB SWAP1 RETURN JUMPDEST CALLVALUE DUP1 ISZERO PUSH2 0x4B0 JUMPI PUSH1 0x0 DUP1 REVERT JUMPDEST POP PUSH2 0x4DD PUSH1 0x4 DUP1 CALLDATASIZE SUB PUSH1 0x20 DUP2 LT ISZERO PUSH2 0x4C7 JUMPI PUSH1 0x0 DUP1 REVERT JUMPDEST DUP2 ADD SWAP1 DUP1 DUP1 CALLDATALOAD SWAP1 PUSH1 0x20 ADD SWAP1 SWAP3 SWAP2 SWAP1 POP POP POP PUSH2 0x10E5 JUMP JUMPDEST PUSH1 0x40 MLOAD DUP1 DUP3 DUP2 MSTORE PUSH1 0x20 ADD SWAP2 POP POP PUSH1 0x40 MLOAD DUP1 SWAP2 SUB SWAP1 RETURN JUMPDEST CALLVALUE DUP1 ISZERO PUSH2 0x4FF JUMPI PUSH1 0x0 DUP1 REVERT JUMPDEST POP PUSH2 0x508 PUSH2 0x1169 JUMP JUMPDEST PUSH1 0x40 MLOAD DUP1 DUP3 PUSH1 0xFF AND DUP2 MSTORE PUSH1 0x20 ADD SWAP2 POP POP PUSH1 0x40 MLOAD DUP1 SWAP2 SUB SWAP1 RETURN JUMPDEST CALLVALUE DUP1 ISZERO PUSH2 0x52D JUMPI PUSH1 0x0 DUP1 REVERT JUMPDEST POP PUSH2 0x570 PUSH1 0x4 DUP1 CALLDATASIZE SUB PUSH1 0x20 DUP2 LT ISZERO PUSH2 0x544 JUMPI PUSH1 0x0 DUP1 REVERT JUMPDEST DUP2 ADD SWAP1 DUP1 DUP1 CALLDATALOAD PUSH20 0xFFFFFFFFFFFFFFFFFFFFFFFFFFFFFFFFFFFFFFFF AND SWAP1 PUSH1 0x20 ADD SWAP1 SWAP3 SWAP2 SWAP1 POP POP POP PUSH2 0x1180 JUMP JUMPDEST STOP JUMPDEST CALLVALUE DUP1 ISZERO PUSH2 0x57E JUMPI PUSH1 0x0 DUP1 REVERT JUMPDEST POP PUSH2 0x5C1 PUSH1 0x4 DUP1 CALLDATASIZE SUB PUSH1 0x20 DUP2 LT ISZERO PUSH2 0x595 JUMPI PUSH1 0x0 DUP1 REVERT JUMPDEST DUP2 ADD SWAP1 DUP1 DUP1 CALLDATALOAD PUSH20 0xFFFFFFFFFFFFFFFFFFFFFFFFFFFFFFFFFFFFFFFF AND SWAP1 PUSH1 0x20 ADD SWAP1 SWAP3 SWAP2 SWAP1 POP POP POP PUSH2 0x14C5 JUMP JUMPDEST STOP JUMPDEST CALLVALUE DUP1 ISZERO PUSH2 0x5CF JUMPI PUSH1 0x0 DUP1 REVERT JUMPDEST POP PUSH2 0x61C PUSH1 0x4 DUP1 CALLDATASIZE SUB PUSH1 0x40 DUP2 LT ISZERO PUSH2 0x5E6 JUMPI PUSH1 0x0 DUP1 REVERT JUMPDEST DUP2 ADD SWAP1 DUP1 DUP1 CALLDATALOAD PUSH20 0xFFFFFFFFFFFFFFFFFFFFFFFFFFFFFFFFFFFFFFFF AND SWAP1 PUSH1 0x20 ADD SWAP1 SWAP3 SWAP2 SWAP1 DUP1 CALLDATALOAD SWAP1 PUSH1 0x20 ADD SWAP1 SWAP3 SWAP2 SWAP1 POP POP POP PUSH2 0x184F JUMP JUMPDEST PUSH1 0x40 MLOAD DUP1 DUP3 ISZERO ISZERO DUP2 MSTORE PUSH1 0x20 ADD SWAP2 POP POP PUSH1 0x40 MLOAD DUP1 SWAP2 SUB SWAP1 RETURN JUMPDEST CALLVALUE DUP1 ISZERO PUSH2 0x640 JUMPI PUSH1 0x0 DUP1 REVERT JUMPDEST POP PUSH2 0x649 PUSH2 0x1902 JUMP JUMPDEST PUSH1 0x40 MLOAD DUP1 DUP3 DUP2 MSTORE PUSH1 0x20 ADD SWAP2 POP POP PUSH1 0x40 MLOAD DUP1 SWAP2 SUB SWAP1 RETURN JUMPDEST CALLVALUE DUP1 ISZERO PUSH2 0x66B JUMPI PUSH1 0x0 DUP1 REVERT JUMPDEST POP PUSH2 0x698 PUSH1 0x4 DUP1 CALLDATASIZE SUB PUSH1 0x20 DUP2 LT ISZERO PUSH2 0x682 JUMPI PUSH1 0x0 DUP1 REVERT JUMPDEST DUP2 ADD SWAP1 DUP1 DUP1 CALLDATALOAD SWAP1 PUSH1 0x20 ADD SWAP1 SWAP3 SWAP2 SWAP1 POP POP POP PUSH2 0x1908 JUMP JUMPDEST STOP JUMPDEST CALLVALUE DUP1 ISZERO PUSH2 0x6A6 JUMPI PUSH1 0x0 DUP1 REVERT JUMPDEST POP PUSH2 0x6E9 PUSH1 0x4 DUP1 CALLDATASIZE SUB PUSH1 0x20 DUP2 LT ISZERO PUSH2 0x6BD JUMPI PUSH1 0x0 DUP1 REVERT JUMPDEST DUP2 ADD SWAP1 DUP1 DUP1 CALLDATALOAD PUSH20 0xFFFFFFFFFFFFFFFFFFFFFFFFFFFFFFFFFFFFFFFF AND SWAP1 PUSH1 0x20 ADD SWAP1 SWAP3 SWAP2 SWAP1 POP POP POP PUSH2 0x1A99 JUMP JUMPDEST STOP JUMPDEST CALLVALUE DUP1 ISZERO PUSH2 0x6F7 JUMPI PUSH1 0x0 DUP1 REVERT JUMPDEST POP PUSH2 0x730 PUSH1 0x4 DUP1 CALLDATASIZE SUB PUSH1 0x40 DUP2 LT ISZERO PUSH2 0x70E JUMPI PUSH1 0x0 DUP1 REVERT JUMPDEST DUP2 ADD SWAP1 DUP1 DUP1 CALLDATALOAD SWAP1 PUSH1 0x20 ADD SWAP1 SWAP3 SWAP2 SWAP1 DUP1 CALLDATALOAD ISZERO ISZERO SWAP1 PUSH1 0x20 ADD SWAP1 SWAP3 SWAP2 SWAP1 POP POP POP PUSH2 0x1BBC JUMP JUMPDEST PUSH1 0x40 MLOAD DUP1 DUP3 DUP2 MSTORE PUSH1 0x20 ADD SWAP2 POP POP PUSH1 0x40 MLOAD DUP1 SWAP2 SUB SWAP1 RETURN JUMPDEST CALLVALUE DUP1 ISZERO PUSH2 0x752 JUMPI PUSH1 0x0 DUP1 REVERT JUMPDEST POP PUSH2 0x77F PUSH1 0x4 DUP1 CALLDATASIZE SUB PUSH1 0x20 DUP2 LT ISZERO PUSH2 0x769 JUMPI PUSH1 0x0 DUP1 REVERT JUMPDEST DUP2 ADD SWAP1 DUP1 DUP1 CALLDATALOAD SWAP1 PUSH1 0x20 ADD SWAP1 SWAP3 SWAP2 SWAP1 POP POP POP PUSH2 0x1C73 JUMP JUMPDEST STOP JUMPDEST CALLVALUE DUP1 ISZERO PUSH2 0x78D JUMPI PUSH1 0x0 DUP1 REVERT JUMPDEST POP PUSH2 0x796 PUSH2 0x1D45 JUMP JUMPDEST PUSH1 0x40 MLOAD DUP1 DUP3 PUSH20 0xFFFFFFFFFFFFFFFFFFFFFFFFFFFFFFFFFFFFFFFF AND DUP2 MSTORE PUSH1 0x20 ADD SWAP2 POP POP PUSH1 0x40 MLOAD DUP1 SWAP2 SUB SWAP1 RETURN JUMPDEST CALLVALUE DUP1 ISZERO PUSH2 0x7CE JUMPI PUSH1 0x0 DUP1 REVERT JUMPDEST POP PUSH2 0x811 PUSH1 0x4 DUP1 CALLDATASIZE SUB PUSH1 0x20 DUP2 LT ISZERO PUSH2 0x7E5 JUMPI PUSH1 0x0 DUP1 REVERT JUMPDEST DUP2 ADD SWAP1 DUP1 DUP1 CALLDATALOAD PUSH20 0xFFFFFFFFFFFFFFFFFFFFFFFFFFFFFFFFFFFFFFFF AND SWAP1 PUSH1 0x20 ADD SWAP1 SWAP3 SWAP2 SWAP1 POP POP POP PUSH2 0x1D6B JUMP JUMPDEST STOP JUMPDEST CALLVALUE DUP1 ISZERO PUSH2 0x81F JUMPI PUSH1 0x0 DUP1 REVERT JUMPDEST POP PUSH2 0x862 PUSH1 0x4 DUP1 CALLDATASIZE SUB PUSH1 0x20 DUP2 LT ISZERO PUSH2 0x836 JUMPI PUSH1 0x0 DUP1 REVERT JUMPDEST DUP2 ADD SWAP1 DUP1 DUP1 CALLDATALOAD PUSH20 0xFFFFFFFFFFFFFFFFFFFFFFFFFFFFFFFFFFFFFFFF AND SWAP1 PUSH1 0x20 ADD SWAP1 SWAP3 SWAP2 SWAP1 POP POP POP PUSH2 0x2085 JUMP JUMPDEST PUSH1 0x40 MLOAD DUP1 DUP3 ISZERO ISZERO DUP2 MSTORE PUSH1 0x20 ADD SWAP2 POP POP PUSH1 0x40 MLOAD DUP1 SWAP2 SUB SWAP1 RETURN JUMPDEST CALLVALUE DUP1 ISZERO PUSH2 0x886 JUMPI PUSH1 0x0 DUP1 REVERT JUMPDEST POP PUSH2 0x8C9 PUSH1 0x4 DUP1 CALLDATASIZE SUB PUSH1 0x20 DUP2 LT ISZERO PUSH2 0x89D JUMPI PUSH1 0x0 DUP1 REVERT JUMPDEST DUP2 ADD SWAP1 DUP1 DUP1 CALLDATALOAD PUSH20 0xFFFFFFFFFFFFFFFFFFFFFFFFFFFFFFFFFFFFFFFF AND SWAP1 PUSH1 0x20 ADD SWAP1 SWAP3 SWAP2 SWAP1 POP POP POP PUSH2 0x20DB JUMP JUMPDEST PUSH1 0x40 MLOAD DUP1 DUP3 ISZERO ISZERO DUP2 MSTORE PUSH1 0x20 ADD SWAP2 POP POP PUSH1 0x40 MLOAD DUP1 SWAP2 SUB SWAP1 RETURN JUMPDEST CALLVALUE DUP1 ISZERO PUSH2 0x8ED JUMPI PUSH1 0x0 DUP1 REVERT JUMPDEST POP PUSH2 0x8F6 PUSH2 0x2131 JUMP JUMPDEST PUSH1 0x40 MLOAD DUP1 DUP3 DUP2 MSTORE PUSH1 0x20 ADD SWAP2 POP POP PUSH1 0x40 MLOAD DUP1 SWAP2 SUB SWAP1 RETURN JUMPDEST CALLVALUE DUP1 ISZERO PUSH2 0x918 JUMPI PUSH1 0x0 DUP1 REVERT JUMPDEST POP PUSH2 0x95B PUSH1 0x4 DUP1 CALLDATASIZE SUB PUSH1 0x20 DUP2 LT ISZERO PUSH2 0x92F JUMPI PUSH1 0x0 DUP1 REVERT JUMPDEST DUP2 ADD SWAP1 DUP1 DUP1 CALLDATALOAD PUSH20 0xFFFFFFFFFFFFFFFFFFFFFFFFFFFFFFFFFFFFFFFF AND SWAP1 PUSH1 0x20 ADD SWAP1 SWAP3 SWAP2 SWAP1 POP POP POP PUSH2 0x2137 JUMP JUMPDEST PUSH1 0x40 MLOAD DUP1 DUP3 DUP2 MSTORE PUSH1 0x20 ADD SWAP2 POP POP PUSH1 0x40 MLOAD DUP1 SWAP2 SUB SWAP1 RETURN JUMPDEST CALLVALUE DUP1 ISZERO PUSH2 0x97D JUMPI PUSH1 0x0 DUP1 REVERT JUMPDEST POP PUSH2 0x986 PUSH2 0x2222 JUMP JUMPDEST STOP JUMPDEST CALLVALUE DUP1 ISZERO PUSH2 0x994 JUMPI PUSH1 0x0 DUP1 REVERT JUMPDEST POP PUSH2 0x99D PUSH2 0x23A8 JUMP JUMPDEST PUSH1 0x40 MLOAD DUP1 DUP3 DUP2 MSTORE PUSH1 0x20 ADD SWAP2 POP POP PUSH1 0x40 MLOAD DUP1 SWAP2 SUB SWAP1 RETURN JUMPDEST CALLVALUE DUP1 ISZERO PUSH2 0x9BF JUMPI PUSH1 0x0 DUP1 REVERT JUMPDEST POP PUSH2 0xA02 PUSH1 0x4 DUP1 CALLDATASIZE SUB PUSH1 0x20 DUP2 LT ISZERO PUSH2 0x9D6 JUMPI PUSH1 0x0 DUP1 REVERT JUMPDEST DUP2 ADD SWAP1 DUP1 DUP1 CALLDATALOAD PUSH20 0xFFFFFFFFFFFFFFFFFFFFFFFFFFFFFFFFFFFFFFFF AND SWAP1 PUSH1 0x20 ADD SWAP1 SWAP3 SWAP2 SWAP1 POP POP POP PUSH2 0x23B0 JUMP JUMPDEST PUSH1 0x40 MLOAD DUP1 DUP3 ISZERO ISZERO DUP2 MSTORE PUSH1 0x20 ADD SWAP2 POP POP PUSH1 0x40 MLOAD DUP1 SWAP2 SUB SWAP1 RETURN JUMPDEST CALLVALUE DUP1 ISZERO PUSH2 0xA26 JUMPI PUSH1 0x0 DUP1 REVERT JUMPDEST POP PUSH2 0xA2F PUSH2 0x2406 JUMP JUMPDEST PUSH1 0x40 MLOAD DUP1 DUP3 PUSH20 0xFFFFFFFFFFFFFFFFFFFFFFFFFFFFFFFFFFFFFFFF AND DUP2 MSTORE PUSH1 0x20 ADD SWAP2 POP POP PUSH1 0x40 MLOAD DUP1 SWAP2 SUB SWAP1 RETURN JUMPDEST CALLVALUE DUP1 ISZERO PUSH2 0xA67 JUMPI PUSH1 0x0 DUP1 REVERT JUMPDEST POP PUSH2 0xA94 PUSH1 0x4 DUP1 CALLDATASIZE SUB PUSH1 0x20 DUP2 LT ISZERO PUSH2 0xA7E JUMPI PUSH1 0x0 DUP1 REVERT JUMPDEST DUP2 ADD SWAP1 DUP1 DUP1 CALLDATALOAD SWAP1 PUSH1 0x20 ADD SWAP1 SWAP3 SWAP2 SWAP1 POP POP POP PUSH2 0x242F JUMP JUMPDEST STOP JUMPDEST CALLVALUE DUP1 ISZERO PUSH2 0xAA2 JUMPI PUSH1 0x0 DUP1 REVERT JUMPDEST POP PUSH2 0xAE5 PUSH1 0x4 DUP1 CALLDATASIZE SUB PUSH1 0x20 DUP2 LT ISZERO PUSH2 0xAB9 JUMPI PUSH1 0x0 DUP1 REVERT JUMPDEST DUP2 ADD SWAP1 DUP1 DUP1 CALLDATALOAD PUSH20 0xFFFFFFFFFFFFFFFFFFFFFFFFFFFFFFFFFFFFFFFF AND SWAP1 PUSH1 0x20 ADD SWAP1 SWAP3 SWAP2 SWAP1 POP POP POP PUSH2 0x2501 JUMP JUMPDEST STOP JUMPDEST CALLVALUE DUP1 ISZERO PUSH2 0xAF3 JUMPI PUSH1 0x0 DUP1 REVERT JUMPDEST POP PUSH2 0xAFC PUSH2 0x260D JUMP JUMPDEST PUSH1 0x40 MLOAD DUP1 DUP1 PUSH1 0x20 ADD DUP3 DUP2 SUB DUP3 MSTORE DUP4 DUP2 DUP2 MLOAD DUP2 MSTORE PUSH1 0x20 ADD SWAP2 POP DUP1 MLOAD SWAP1 PUSH1 0x20 ADD SWAP1 DUP1 DUP4 DUP4 PUSH1 0x0 JUMPDEST DUP4 DUP2 LT ISZERO PUSH2 0xB3C JUMPI DUP1 DUP3 ADD MLOAD DUP2 DUP5 ADD MSTORE PUSH1 0x20 DUP2 ADD SWAP1 POP PUSH2 0xB21 JUMP JUMPDEST POP POP POP POP SWAP1 POP SWAP1 DUP2 ADD SWAP1 PUSH1 0x1F AND DUP1 ISZERO PUSH2 0xB69 JUMPI DUP1 DUP3 SUB DUP1 MLOAD PUSH1 0x1 DUP4 PUSH1 0x20 SUB PUSH2 0x100 EXP SUB NOT AND DUP2 MSTORE PUSH1 0x20 ADD SWAP2 POP JUMPDEST POP SWAP3 POP POP POP PUSH1 0x40 MLOAD DUP1 SWAP2 SUB SWAP1 RETURN JUMPDEST CALLVALUE DUP1 ISZERO PUSH2 0xB83 JUMPI PUSH1 0x0 DUP1 REVERT JUMPDEST POP PUSH2 0xBD0 PUSH1 0x4 DUP1 CALLDATASIZE SUB PUSH1 0x40 DUP2 LT ISZERO PUSH2 0xB9A JUMPI PUSH1 0x0 DUP1 REVERT JUMPDEST DUP2 ADD SWAP1 DUP1 DUP1 CALLDATALOAD PUSH20 0xFFFFFFFFFFFFFFFFFFFFFFFFFFFFFFFFFFFFFFFF AND SWAP1 PUSH1 0x20 ADD SWAP1 SWAP3 SWAP2 SWAP1 DUP1 CALLDATALOAD SWAP1 PUSH1 0x20 ADD SWAP1 SWAP3 SWAP2 SWAP1 POP POP POP PUSH2 0x26AF JUMP JUMPDEST PUSH1 0x40 MLOAD DUP1 DUP3 ISZERO ISZERO DUP2 MSTORE PUSH1 0x20 ADD SWAP2 POP POP PUSH1 0x40 MLOAD DUP1 SWAP2 SUB SWAP1 RETURN JUMPDEST CALLVALUE DUP1 ISZERO PUSH2 0xBF4 JUMPI PUSH1 0x0 DUP1 REVERT JUMPDEST POP PUSH2 0xBFD PUSH2 0x277C JUMP JUMPDEST PUSH1 0x40 MLOAD DUP1 DUP3 PUSH20 0xFFFFFFFFFFFFFFFFFFFFFFFFFFFFFFFFFFFFFFFF AND DUP2 MSTORE PUSH1 0x20 ADD SWAP2 POP POP PUSH1 0x40 MLOAD DUP1 SWAP2 SUB SWAP1 RETURN JUMPDEST CALLVALUE DUP1 ISZERO PUSH2 0xC35 JUMPI PUSH1 0x0 DUP1 REVERT JUMPDEST POP PUSH2 0xC82 PUSH1 0x4 DUP1 CALLDATASIZE SUB PUSH1 0x40 DUP2 LT ISZERO PUSH2 0xC4C JUMPI PUSH1 0x0 DUP1 REVERT JUMPDEST DUP2 ADD SWAP1 DUP1 DUP1 CALLDATALOAD PUSH20 0xFFFFFFFFFFFFFFFFFFFFFFFFFFFFFFFFFFFFFFFF AND SWAP1 PUSH1 0x20 ADD SWAP1 SWAP3 SWAP2 SWAP1 DUP1 CALLDATALOAD SWAP1 PUSH1 0x20 ADD SWAP1 SWAP3 SWAP2 SWAP1 POP POP POP PUSH2 0x27A2 JUMP JUMPDEST PUSH1 0x40 MLOAD DUP1 DUP3 ISZERO ISZERO DUP2 MSTORE PUSH1 0x20 ADD SWAP2 POP POP PUSH1 0x40 MLOAD DUP1 SWAP2 SUB SWAP1 RETURN JUMPDEST CALLVALUE DUP1 ISZERO PUSH2 0xCA6 JUMPI PUSH1 0x0 DUP1 REVERT JUMPDEST POP PUSH2 0xCAF PUSH2 0x27C0 JUMP JUMPDEST STOP JUMPDEST CALLVALUE DUP1 ISZERO PUSH2 0xCBD JUMPI PUSH1 0x0 DUP1 REVERT JUMPDEST POP PUSH2 0xCC6 PUSH2 0x28AC JUMP JUMPDEST STOP JUMPDEST CALLVALUE DUP1 ISZERO PUSH2 0xCD4 JUMPI PUSH1 0x0 DUP1 REVERT JUMPDEST POP PUSH2 0xD37 PUSH1 0x4 DUP1 CALLDATASIZE SUB PUSH1 0x40 DUP2 LT ISZERO PUSH2 0xCEB JUMPI PUSH1 0x0 DUP1 REVERT JUMPDEST DUP2 ADD SWAP1 DUP1 DUP1 CALLDATALOAD PUSH20 0xFFFFFFFFFFFFFFFFFFFFFFFFFFFFFFFFFFFFFFFF AND SWAP1 PUSH1 0x20 ADD SWAP1 SWAP3 SWAP2 SWAP1 DUP1 CALLDATALOAD PUSH20 0xFFFFFFFFFFFFFFFFFFFFFFFFFFFFFFFFFFFFFFFF AND SWAP1 PUSH1 0x20 ADD SWAP1 SWAP3 SWAP2 SWAP1 POP POP POP PUSH2 0x29C4 JUMP JUMPDEST PUSH1 0x40 MLOAD DUP1 DUP3 DUP2 MSTORE PUSH1 0x20 ADD SWAP2 POP POP PUSH1 0x40 MLOAD DUP1 SWAP2 SUB SWAP1 RETURN JUMPDEST CALLVALUE DUP1 ISZERO PUSH2 0xD59 JUMPI PUSH1 0x0 DUP1 REVERT JUMPDEST POP PUSH2 0xD9C PUSH1 0x4 DUP1 CALLDATASIZE SUB PUSH1 0x20 DUP2 LT ISZERO PUSH2 0xD70 JUMPI PUSH1 0x0 DUP1 REVERT JUMPDEST DUP2 ADD SWAP1 DUP1 DUP1 CALLDATALOAD PUSH20 0xFFFFFFFFFFFFFFFFFFFFFFFFFFFFFFFFFFFFFFFF AND SWAP1 PUSH1 0x20 ADD SWAP1 SWAP3 SWAP2 SWAP1 POP POP POP PUSH2 0x2A4B JUMP JUMPDEST STOP JUMPDEST CALLVALUE DUP1 ISZERO PUSH2 0xDAA JUMPI PUSH1 0x0 DUP1 REVERT JUMPDEST POP PUSH2 0xDED PUSH1 0x4 DUP1 CALLDATASIZE SUB PUSH1 0x20 DUP2 LT ISZERO PUSH2 0xDC1 JUMPI PUSH1 0x0 DUP1 REVERT JUMPDEST DUP2 ADD SWAP1 DUP1 DUP1 CALLDATALOAD PUSH20 0xFFFFFFFFFFFFFFFFFFFFFFFFFFFFFFFFFFFFFFFF AND SWAP1 PUSH1 0x20 ADD SWAP1 SWAP3 SWAP2 SWAP1 POP POP POP PUSH2 0x2B6E JUMP JUMPDEST STOP JUMPDEST CALLVALUE DUP1 ISZERO PUSH2 0xDFB JUMPI PUSH1 0x0 DUP1 REVERT JUMPDEST POP PUSH2 0xE3E PUSH1 0x4 DUP1 CALLDATASIZE SUB PUSH1 0x20 DUP2 LT ISZERO PUSH2 0xE12 JUMPI PUSH1 0x0 DUP1 REVERT JUMPDEST DUP2 ADD SWAP1 DUP1 DUP1 CALLDATALOAD PUSH20 0xFFFFFFFFFFFFFFFFFFFFFFFFFFFFFFFFFFFFFFFF AND SWAP1 PUSH1 0x20 ADD SWAP1 SWAP3 SWAP2 SWAP1 POP POP POP PUSH2 0x2D79 JUMP JUMPDEST STOP JUMPDEST PUSH2 0xE48 PUSH2 0x3075 JUMP JUMPDEST PUSH20 0xFFFFFFFFFFFFFFFFFFFFFFFFFFFFFFFFFFFFFFFF AND PUSH1 0x0 DUP1 SLOAD SWAP1 PUSH2 0x100 EXP SWAP1 DIV PUSH20 0xFFFFFFFFFFFFFFFFFFFFFFFFFFFFFFFFFFFFFFFF AND PUSH20 0xFFFFFFFFFFFFFFFFFFFFFFFFFFFFFFFFFFFFFFFF AND EQ PUSH2 0xF08 JUMPI PUSH1 0x40 MLOAD PUSH32 0x8C379A000000000000000000000000000000000000000000000000000000000 DUP2 MSTORE PUSH1 0x4 ADD DUP1 DUP1 PUSH1 0x20 ADD DUP3 DUP2 SUB DUP3 MSTORE PUSH1 0x20 DUP2 MSTORE PUSH1 0x20 ADD DUP1 PUSH32 0x4F776E61626C653A2063616C6C6572206973206E6F7420746865206F776E6572 DUP2 MSTORE POP PUSH1 0x20 ADD SWAP2 POP POP PUSH1 0x40 MLOAD DUP1 SWAP2 SUB SWAP1 REVERT JUMPDEST DUP1 PUSH1 0x12 DUP2 SWAP1 SSTORE POP POP JUMP JUMPDEST PUSH1 0x60 PUSH1 0xF DUP1 SLOAD PUSH1 0x1 DUP2 PUSH1 0x1 AND ISZERO PUSH2 0x100 MUL SUB AND PUSH1 0x2 SWAP1 DIV DUP1 PUSH1 0x1F ADD PUSH1 0x20 DUP1 SWAP2 DIV MUL PUSH1 0x20 ADD PUSH1 0x40 MLOAD SWAP1 DUP2 ADD PUSH1 0x40 MSTORE DUP1 SWAP3 SWAP2 SWAP1 DUP2 DUP2 MSTORE PUSH1 0x20 ADD DUP3 DUP1 SLOAD PUSH1 0x1 DUP2 PUSH1 0x1 AND ISZERO PUSH2 0x100 MUL SUB AND PUSH1 0x2 SWAP1 DIV DUP1 ISZERO PUSH2 0xFAA JUMPI DUP1 PUSH1 0x1F LT PUSH2 0xF7F JUMPI PUSH2 0x100 DUP1 DUP4 SLOAD DIV MUL DUP4 MSTORE SWAP2 PUSH1 0x20 ADD SWAP2 PUSH2 0xFAA JUMP JUMPDEST DUP3 ADD SWAP2 SWAP1 PUSH1 0x0 MSTORE PUSH1 0x20 PUSH1 0x0 KECCAK256 SWAP1 JUMPDEST DUP2 SLOAD DUP2 MSTORE SWAP1 PUSH1 0x1 ADD SWAP1 PUSH1 0x20 ADD DUP1 DUP4 GT PUSH2 0xF8D JUMPI DUP3 SWAP1 SUB PUSH1 0x1F AND DUP3 ADD SWAP2 JUMPDEST POP POP POP POP POP SWAP1 POP SWAP1 JUMP JUMPDEST PUSH1 0x0 PUSH2 0xFC8 PUSH2 0xFC1 PUSH2 0x3075 JUMP JUMPDEST DUP5 DUP5 PUSH2 0x307D JUMP JUMPDEST PUSH1 0x1 SWAP1 POP SWAP3 SWAP2 POP POP JUMP JUMPDEST PUSH1 0x0 PUSH1 0xE SLOAD SWAP1 POP SWAP1 JUMP JUMPDEST PUSH1 0x18 PUSH1 0x0 SWAP1 SLOAD SWAP1 PUSH2 0x100 EXP SWAP1 DIV PUSH20 0xFFFFFFFFFFFFFFFFFFFFFFFFFFFFFFFFFFFFFFFF AND DUP2 JUMP JUMPDEST PUSH1 0x0 PUSH1 0xC SLOAD SWAP1 POP SWAP1 JUMP JUMPDEST PUSH1 0x0 PUSH2 0x1019 DUP5 DUP5 DUP5 PUSH2 0x3274 JUMP JUMPDEST PUSH2 0x10DA DUP5 PUSH2 0x1025 PUSH2 0x3075 JUMP JUMPDEST PUSH2 0x10D5 DUP6 PUSH1 0x40 MLOAD DUP1 PUSH1 0x60 ADD PUSH1 0x40 MSTORE DUP1 PUSH1 0x28 DUP2 MSTORE PUSH1 0x20 ADD PUSH2 0x552A PUSH1 0x28 SWAP2 CODECOPY PUSH1 0x6 PUSH1 0x0 DUP12 PUSH20 0xFFFFFFFFFFFFFFFFFFFFFFFFFFFFFFFFFFFFFFFF AND PUSH20 0xFFFFFFFFFFFFFFFFFFFFFFFFFFFFFFFFFFFFFFFF AND DUP2 MSTORE PUSH1 0x20 ADD SWAP1 DUP2 MSTORE PUSH1 0x20 ADD PUSH1 0x0 KECCAK256 PUSH1 0x0 PUSH2 0x108B PUSH2 0x3075 JUMP JUMPDEST PUSH20 0xFFFFFFFFFFFFFFFFFFFFFFFFFFFFFFFFFFFFFFFF AND PUSH20 0xFFFFFFFFFFFFFFFFFFFFFFFFFFFFFFFFFFFFFFFF AND DUP2 MSTORE PUSH1 0x20 ADD SWAP1 DUP2 MSTORE PUSH1 0x20 ADD PUSH1 0x0 KECCAK256 SLOAD PUSH2 0x3A70 SWAP1 SWAP3 SWAP2 SWAP1 PUSH4 0xFFFFFFFF AND JUMP JUMPDEST PUSH2 0x307D JUMP JUMPDEST PUSH1 0x1 SWAP1 POP SWAP4 SWAP3 POP POP POP JUMP JUMPDEST PUSH1 0x0 PUSH1 0xD SLOAD DUP3 GT ISZERO PUSH2 0x1142 JUMPI PUSH1 0x40 MLOAD PUSH32 0x8C379A000000000000000000000000000000000000000000000000000000000 DUP2 MSTORE PUSH1 0x4 ADD DUP1 DUP1 PUSH1 0x20 ADD DUP3 DUP2 SUB DUP3 MSTORE PUSH1 0x2A DUP2 MSTORE PUSH1 0x20 ADD DUP1 PUSH2 0x5497 PUSH1 0x2A SWAP2 CODECOPY PUSH1 0x40 ADD SWAP2 POP POP PUSH1 0x40 MLOAD DUP1 SWAP2 SUB SWAP1 REVERT JUMPDEST PUSH1 0x0 PUSH2 0x114C PUSH2 0x3B30 JUMP JUMPDEST SWAP1 POP PUSH2 0x1161 DUP2 DUP5 PUSH2 0x3B5B SWAP1 SWAP2 SWAP1 PUSH4 0xFFFFFFFF AND JUMP JUMPDEST SWAP2 POP POP SWAP2 SWAP1 POP JUMP JUMPDEST PUSH1 0x0 PUSH1 0x11 PUSH1 0x0 SWAP1 SLOAD SWAP1 PUSH2 0x100 EXP SWAP1 DIV PUSH1 0xFF AND SWAP1 POP SWAP1 JUMP JUMPDEST PUSH2 0x1188 PUSH2 0x3075 JUMP JUMPDEST PUSH20 0xFFFFFFFFFFFFFFFFFFFFFFFFFFFFFFFFFFFFFFFF AND PUSH1 0x0 DUP1 SLOAD SWAP1 PUSH2 0x100 EXP SWAP1 DIV PUSH20 0xFFFFFFFFFFFFFFFFFFFFFFFFFFFFFFFFFFFFFFFF AND PUSH20 0xFFFFFFFFFFFFFFFFFFFFFFFFFFFFFFFFFFFFFFFF AND EQ PUSH2 0x1248 JUMPI PUSH1 0x40 MLOAD PUSH32 0x8C379A000000000000000000000000000000000000000000000000000000000 DUP2 MSTORE PUSH1 0x4 ADD DUP1 DUP1 PUSH1 0x20 ADD DUP3 DUP2 SUB DUP3 MSTORE PUSH1 0x20 DUP2 MSTORE PUSH1 0x20 ADD DUP1 PUSH32 0x4F776E61626C653A2063616C6C6572206973206E6F7420746865206F776E6572 DUP2 MSTORE POP PUSH1 0x20 ADD SWAP2 POP POP PUSH1 0x40 MLOAD DUP1 SWAP2 SUB SWAP1 REVERT JUMPDEST PUSH1 0x7 PUSH1 0x0 DUP3 PUSH20 0xFFFFFFFFFFFFFFFFFFFFFFFFFFFFFFFFFFFFFFFF AND PUSH20 0xFFFFFFFFFFFFFFFFFFFFFFFFFFFFFFFFFFFFFFFF AND DUP2 MSTORE PUSH1 0x20 ADD SWAP1 DUP2 MSTORE PUSH1 0x20 ADD PUSH1 0x0 KECCAK256 PUSH1 0x0 SWAP1 SLOAD SWAP1 PUSH2 0x100 EXP SWAP1 DIV PUSH1 0xFF AND PUSH2 0x1307 JUMPI PUSH1 0x40 MLOAD PUSH32 0x8C379A000000000000000000000000000000000000000000000000000000000 DUP2 MSTORE PUSH1 0x4 ADD DUP1 DUP1 PUSH1 0x20 ADD DUP3 DUP2 SUB DUP3 MSTORE PUSH1 0x1A DUP2 MSTORE PUSH1 0x20 ADD DUP1 PUSH32 0x4163636F756E74206973206E6F7420626C61636B6C6973746564000000000000 DUP2 MSTORE POP PUSH1 0x20 ADD SWAP2 POP POP PUSH1 0x40 MLOAD DUP1 SWAP2 SUB SWAP1 REVERT JUMPDEST PUSH1 0x0 JUMPDEST PUSH1 0x8 DUP1 SLOAD SWAP1 POP DUP2 LT ISZERO PUSH2 0x14C1 JUMPI DUP2 PUSH20 0xFFFFFFFFFFFFFFFFFFFFFFFFFFFFFFFFFFFFFFFF AND PUSH1 0x8 DUP3 DUP2 SLOAD DUP2 LT PUSH2 0x133B JUMPI INVALID JUMPDEST SWAP1 PUSH1 0x0 MSTORE PUSH1 0x20 PUSH1 0x0 KECCAK256 ADD PUSH1 0x0 SWAP1 SLOAD SWAP1 PUSH2 0x100 EXP SWAP1 DIV PUSH20 0xFFFFFFFFFFFFFFFFFFFFFFFFFFFFFFFFFFFFFFFF AND PUSH20 0xFFFFFFFFFFFFFFFFFFFFFFFFFFFFFFFFFFFFFFFF AND EQ ISZERO PUSH2 0x14B4 JUMPI PUSH1 0x8 PUSH1 0x1 PUSH1 0x8 DUP1 SLOAD SWAP1 POP SUB DUP2 SLOAD DUP2 LT PUSH2 0x1397 JUMPI INVALID JUMPDEST SWAP1 PUSH1 0x0 MSTORE PUSH1 0x20 PUSH1 0x0 KECCAK256 ADD PUSH1 0x0 SWAP1 SLOAD SWAP1 PUSH2 0x100 EXP SWAP1 DIV PUSH20 0xFFFFFFFFFFFFFFFFFFFFFFFFFFFFFFFFFFFFFFFF AND PUSH1 0x8 DUP3 DUP2 SLOAD DUP2 LT PUSH2 0x13CF JUMPI INVALID JUMPDEST SWAP1 PUSH1 0x0 MSTORE PUSH1 0x20 PUSH1 0x0 KECCAK256 ADD PUSH1 0x0 PUSH2 0x100 EXP DUP2 SLOAD DUP2 PUSH20 0xFFFFFFFFFFFFFFFFFFFFFFFFFFFFFFFFFFFFFFFF MUL NOT AND SWAP1 DUP4 PUSH20 0xFFFFFFFFFFFFFFFFFFFFFFFFFFFFFFFFFFFFFFFF AND MUL OR SWAP1 SSTORE POP PUSH1 0x0 PUSH1 0x7 PUSH1 0x0 DUP5 PUSH20 0xFFFFFFFFFFFFFFFFFFFFFFFFFFFFFFFFFFFFFFFF AND PUSH20 0xFFFFFFFFFFFFFFFFFFFFFFFFFFFFFFFFFFFFFFFF AND DUP2 MSTORE PUSH1 0x20 ADD SWAP1 DUP2 MSTORE PUSH1 0x20 ADD PUSH1 0x0 KECCAK256 PUSH1 0x0 PUSH2 0x100 EXP DUP2 SLOAD DUP2 PUSH1 0xFF MUL NOT AND SWAP1 DUP4 ISZERO ISZERO MUL OR SWAP1 SSTORE POP PUSH1 0x8 DUP1 SLOAD DUP1 PUSH2 0x147A JUMPI INVALID JUMPDEST PUSH1 0x1 SWAP1 SUB DUP2 DUP2 SWAP1 PUSH1 0x0 MSTORE PUSH1 0x20 PUSH1 0x0 KECCAK256 ADD PUSH1 0x0 PUSH2 0x100 EXP DUP2 SLOAD SWAP1 PUSH20 0xFFFFFFFFFFFFFFFFFFFFFFFFFFFFFFFFFFFFFFFF MUL NOT AND SWAP1 SSTORE SWAP1 SSTORE PUSH2 0x14C1 JUMP JUMPDEST DUP1 DUP1 PUSH1 0x1 ADD SWAP2 POP POP PUSH2 0x130A JUMP JUMPDEST POP POP JUMP JUMPDEST PUSH2 0x14CD PUSH2 0x3075 JUMP JUMPDEST PUSH20 0xFFFFFFFFFFFFFFFFFFFFFFFFFFFFFFFFFFFFFFFF AND PUSH1 0x0 DUP1 SLOAD SWAP1 PUSH2 0x100 EXP SWAP1 DIV PUSH20 0xFFFFFFFFFFFFFFFFFFFFFFFFFFFFFFFFFFFFFFFF AND PUSH20 0xFFFFFFFFFFFFFFFFFFFFFFFFFFFFFFFFFFFFFFFF AND EQ PUSH2 0x158D JUMPI PUSH1 0x40 MLOAD PUSH32 0x8C379A000000000000000000000000000000000000000000000000000000000 DUP2 MSTORE PUSH1 0x4 ADD DUP1 DUP1 PUSH1 0x20 ADD DUP3 DUP2 SUB DUP3 MSTORE PUSH1 0x20 DUP2 MSTORE PUSH1 0x20 ADD DUP1 PUSH32 0x4F776E61626C653A2063616C6C6572206973206E6F7420746865206F776E6572 DUP2 MSTORE POP PUSH1 0x20 ADD SWAP2 POP POP PUSH1 0x40 MLOAD DUP1 SWAP2 SUB SWAP1 REVERT JUMPDEST PUSH1 0xA PUSH1 0x0 DUP3 PUSH20 0xFFFFFFFFFFFFFFFFFFFFFFFFFFFFFFFFFFFFFFFF AND PUSH20 0xFFFFFFFFFFFFFFFFFFFFFFFFFFFFFFFFFFFFFFFF AND DUP2 MSTORE PUSH1 0x20 ADD SWAP1 DUP2 MSTORE PUSH1 0x20 ADD PUSH1 0x0 KECCAK256 PUSH1 0x0 SWAP1 SLOAD SWAP1 PUSH2 0x100 EXP SWAP1 DIV PUSH1 0xFF AND PUSH2 0x164C JUMPI PUSH1 0x40 MLOAD PUSH32 0x8C379A000000000000000000000000000000000000000000000000000000000 DUP2 MSTORE PUSH1 0x4 ADD DUP1 DUP1 PUSH1 0x20 ADD DUP3 DUP2 SUB DUP3 MSTORE PUSH1 0x1B DUP2 MSTORE PUSH1 0x20 ADD DUP1 PUSH32 0x4163636F756E7420697320616C7265616479206578636C756465640000000000 DUP2 MSTORE POP PUSH1 0x20 ADD SWAP2 POP POP PUSH1 0x40 MLOAD DUP1 SWAP2 SUB SWAP1 REVERT JUMPDEST PUSH1 0x0 JUMPDEST PUSH1 0xB DUP1 SLOAD SWAP1 POP DUP2 LT ISZERO PUSH2 0x184B JUMPI DUP2 PUSH20 0xFFFFFFFFFFFFFFFFFFFFFFFFFFFFFFFFFFFFFFFF AND PUSH1 0xB DUP3 DUP2 SLOAD DUP2 LT PUSH2 0x1680 JUMPI INVALID JUMPDEST SWAP1 PUSH1 0x0 MSTORE PUSH1 0x20 PUSH1 0x0 KECCAK256 ADD PUSH1 0x0 SWAP1 SLOAD SWAP1 PUSH2 0x100 EXP SWAP1 DIV PUSH20 0xFFFFFFFFFFFFFFFFFFFFFFFFFFFFFFFFFFFFFFFF AND PUSH20 0xFFFFFFFFFFFFFFFFFFFFFFFFFFFFFFFFFFFFFFFF AND EQ ISZERO PUSH2 0x183E JUMPI PUSH1 0xB PUSH1 0x1 PUSH1 0xB DUP1 SLOAD SWAP1 POP SUB DUP2 SLOAD DUP2 LT PUSH2 0x16DC JUMPI INVALID JUMPDEST SWAP1 PUSH1 0x0 MSTORE PUSH1 0x20 PUSH1 0x0 KECCAK256 ADD PUSH1 0x0 SWAP1 SLOAD SWAP1 PUSH2 0x100 EXP SWAP1 DIV PUSH20 0xFFFFFFFFFFFFFFFFFFFFFFFFFFFFFFFFFFFFFFFF AND PUSH1 0xB DUP3 DUP2 SLOAD DUP2 LT PUSH2 0x1714 JUMPI INVALID JUMPDEST SWAP1 PUSH1 0x0 MSTORE PUSH1 0x20 PUSH1 0x0 KECCAK256 ADD PUSH1 0x0 PUSH2 0x100 EXP DUP2 SLOAD DUP2 PUSH20 0xFFFFFFFFFFFFFFFFFFFFFFFFFFFFFFFFFFFFFFFF MUL NOT AND SWAP1 DUP4 PUSH20 0xFFFFFFFFFFFFFFFFFFFFFFFFFFFFFFFFFFFFFFFF AND MUL OR SWAP1 SSTORE POP PUSH1 0x0 PUSH1 0x5 PUSH1 0x0 DUP5 PUSH20 0xFFFFFFFFFFFFFFFFFFFFFFFFFFFFFFFFFFFFFFFF AND PUSH20 0xFFFFFFFFFFFFFFFFFFFFFFFFFFFFFFFFFFFFFFFF AND DUP2 MSTORE PUSH1 0x20 ADD SWAP1 DUP2 MSTORE PUSH1 0x20 ADD PUSH1 0x0 KECCAK256 DUP2 SWAP1 SSTORE POP PUSH1 0x0 PUSH1 0xA PUSH1 0x0 DUP5 PUSH20 0xFFFFFFFFFFFFFFFFFFFFFFFFFFFFFFFFFFFFFFFF AND PUSH20 0xFFFFFFFFFFFFFFFFFFFFFFFFFFFFFFFFFFFFFFFF AND DUP2 MSTORE PUSH1 0x20 ADD SWAP1 DUP2 MSTORE PUSH1 0x20 ADD PUSH1 0x0 KECCAK256 PUSH1 0x0 PUSH2 0x100 EXP DUP2 SLOAD DUP2 PUSH1 0xFF MUL NOT AND SWAP1 DUP4 ISZERO ISZERO MUL OR SWAP1 SSTORE POP PUSH1 0xB DUP1 SLOAD DUP1 PUSH2 0x1804 JUMPI INVALID JUMPDEST PUSH1 0x1 SWAP1 SUB DUP2 DUP2 SWAP1 PUSH1 0x0 MSTORE PUSH1 0x20 PUSH1 0x0 KECCAK256 ADD PUSH1 0x0 PUSH2 0x100 EXP DUP2 SLOAD SWAP1 PUSH20 0xFFFFFFFFFFFFFFFFFFFFFFFFFFFFFFFFFFFFFFFF MUL NOT AND SWAP1 SSTORE SWAP1 SSTORE PUSH2 0x184B JUMP JUMPDEST DUP1 DUP1 PUSH1 0x1 ADD SWAP2 POP POP PUSH2 0x164F JUMP JUMPDEST POP POP JUMP JUMPDEST PUSH1 0x0 PUSH2 0x18F8 PUSH2 0x185C PUSH2 0x3075 JUMP JUMPDEST DUP5 PUSH2 0x18F3 DUP6 PUSH1 0x6 PUSH1 0x0 PUSH2 0x186D PUSH2 0x3075 JUMP JUMPDEST PUSH20 0xFFFFFFFFFFFFFFFFFFFFFFFFFFFFFFFFFFFFFFFF AND PUSH20 0xFFFFFFFFFFFFFFFFFFFFFFFFFFFFFFFFFFFFFFFF AND DUP2 MSTORE PUSH1 0x20 ADD SWAP1 DUP2 MSTORE PUSH1 0x20 ADD PUSH1 0x0 KECCAK256 PUSH1 0x0 DUP10 PUSH20 0xFFFFFFFFFFFFFFFFFFFFFFFFFFFFFFFFFFFFFFFF AND PUSH20 0xFFFFFFFFFFFFFFFFFFFFFFFFFFFFFFFFFFFFFFFF AND DUP2 MSTORE PUSH1 0x20 ADD SWAP1 DUP2 MSTORE PUSH1 0x20 ADD PUSH1 0x0 KECCAK256 SLOAD PUSH2 0x3BA5 SWAP1 SWAP2 SWAP1 PUSH4 0xFFFFFFFF AND JUMP JUMPDEST PUSH2 0x307D JUMP JUMPDEST PUSH1 0x1 SWAP1 POP SWAP3 SWAP2 POP POP JUMP JUMPDEST PUSH1 0x12 SLOAD DUP2 JUMP JUMPDEST PUSH1 0x0 PUSH2 0x1912 PUSH2 0x3075 JUMP JUMPDEST SWAP1 POP PUSH1 0xA PUSH1 0x0 DUP3 PUSH20 0xFFFFFFFFFFFFFFFFFFFFFFFFFFFFFFFFFFFFFFFF AND PUSH20 0xFFFFFFFFFFFFFFFFFFFFFFFFFFFFFFFFFFFFFFFF AND DUP2 MSTORE PUSH1 0x20 ADD SWAP1 DUP2 MSTORE PUSH1 0x20 ADD PUSH1 0x0 KECCAK256 PUSH1 0x0 SWAP1 SLOAD SWAP1 PUSH2 0x100 EXP SWAP1 DIV PUSH1 0xFF AND ISZERO PUSH2 0x19B7 JUMPI PUSH1 0x40 MLOAD PUSH32 0x8C379A000000000000000000000000000000000000000000000000000000000 DUP2 MSTORE PUSH1 0x4 ADD DUP1 DUP1 PUSH1 0x20 ADD DUP3 DUP2 SUB DUP3 MSTORE PUSH1 0x2C DUP2 MSTORE PUSH1 0x20 ADD DUP1 PUSH2 0x55C4 PUSH1 0x2C SWAP2 CODECOPY PUSH1 0x40 ADD SWAP2 POP POP PUSH1 0x40 MLOAD DUP1 SWAP2 SUB SWAP1 REVERT JUMPDEST PUSH1 0x0 PUSH2 0x19C2 DUP4 PUSH2 0x3C2D JUMP JUMPDEST POP POP POP POP POP SWAP1 POP PUSH2 0x1A1B DUP2 PUSH1 0x4 PUSH1 0x0 DUP6 PUSH20 0xFFFFFFFFFFFFFFFFFFFFFFFFFFFFFFFFFFFFFFFF AND PUSH20 0xFFFFFFFFFFFFFFFFFFFFFFFFFFFFFFFFFFFFFFFF AND DUP2 MSTORE PUSH1 0x20 ADD SWAP1 DUP2 MSTORE PUSH1 0x20 ADD PUSH1 0x0 KECCAK256 SLOAD PUSH2 0x3C89 SWAP1 SWAP2 SWAP1 PUSH4 0xFFFFFFFF AND JUMP JUMPDEST PUSH1 0x4 PUSH1 0x0 DUP5 PUSH20 0xFFFFFFFFFFFFFFFFFFFFFFFFFFFFFFFFFFFFFFFF AND PUSH20 0xFFFFFFFFFFFFFFFFFFFFFFFFFFFFFFFFFFFFFFFF AND DUP2 MSTORE PUSH1 0x20 ADD SWAP1 DUP2 MSTORE PUSH1 0x20 ADD PUSH1 0x0 KECCAK256 DUP2 SWAP1 SSTORE POP PUSH2 0x1A73 DUP2 PUSH1 0xD SLOAD PUSH2 0x3C89 SWAP1 SWAP2 SWAP1 PUSH4 0xFFFFFFFF AND JUMP JUMPDEST PUSH1 0xD DUP2 SWAP1 SSTORE POP PUSH2 0x1A8E DUP4 PUSH1 0xE SLOAD PUSH2 0x3BA5 SWAP1 SWAP2 SWAP1 PUSH4 0xFFFFFFFF AND JUMP JUMPDEST PUSH1 0xE DUP2 SWAP1 SSTORE POP POP POP POP JUMP JUMPDEST PUSH2 0x1AA1 PUSH2 0x3075 JUMP JUMPDEST PUSH20 0xFFFFFFFFFFFFFFFFFFFFFFFFFFFFFFFFFFFFFFFF AND PUSH1 0x0 DUP1 SLOAD SWAP1 PUSH2 0x100 EXP SWAP1 DIV PUSH20 0xFFFFFFFFFFFFFFFFFFFFFFFFFFFFFFFFFFFFFFFF AND PUSH20 0xFFFFFFFFFFFFFFFFFFFFFFFFFFFFFFFFFFFFFFFF AND EQ PUSH2 0x1B61 JUMPI PUSH1 0x40 MLOAD PUSH32 0x8C379A000000000000000000000000000000000000000000000000000000000 DUP2 MSTORE PUSH1 0x4 ADD DUP1 DUP1 PUSH1 0x20 ADD DUP3 DUP2 SUB DUP3 MSTORE PUSH1 0x20 DUP2 MSTORE PUSH1 0x20 ADD DUP1 PUSH32 0x4F776E61626C653A2063616C6C6572206973206E6F7420746865206F776E6572 DUP2 MSTORE POP PUSH1 0x20 ADD SWAP2 POP POP PUSH1 0x40 MLOAD DUP1 SWAP2 SUB SWAP1 REVERT JUMPDEST PUSH1 0x1 PUSH1 0x9 PUSH1 0x0 DUP4 PUSH20 0xFFFFFFFFFFFFFFFFFFFFFFFFFFFFFFFFFFFFFFFF AND PUSH20 0xFFFFFFFFFFFFFFFFFFFFFFFFFFFFFFFFFFFFFFFF AND DUP2 MSTORE PUSH1 0x20 ADD SWAP1 DUP2 MSTORE PUSH1 0x20 ADD PUSH1 0x0 KECCAK256 PUSH1 0x0 PUSH2 0x100 EXP DUP2 SLOAD DUP2 PUSH1 0xFF MUL NOT AND SWAP1 DUP4 ISZERO ISZERO MUL OR SWAP1 SSTORE POP POP JUMP JUMPDEST PUSH1 0x0 PUSH1 0xC SLOAD DUP4 GT ISZERO PUSH2 0x1C36 JUMPI PUSH1 0x40 MLOAD PUSH32 0x8C379A000000000000000000000000000000000000000000000000000000000 DUP2 MSTORE PUSH1 0x4 ADD DUP1 DUP1 PUSH1 0x20 ADD DUP3 DUP2 SUB DUP3 MSTORE PUSH1 0x1F DUP2 MSTORE PUSH1 0x20 ADD DUP1 PUSH32 0x416D6F756E74206D757374206265206C657373207468616E20737570706C7900 DUP2 MSTORE POP PUSH1 0x20 ADD SWAP2 POP POP PUSH1 0x40 MLOAD DUP1 SWAP2 SUB SWAP1 REVERT JUMPDEST DUP2 PUSH2 0x1C56 JUMPI PUSH1 0x0 PUSH2 0x1C46 DUP5 PUSH2 0x3C2D JUMP JUMPDEST POP POP POP POP POP SWAP1 POP DUP1 SWAP2 POP POP PUSH2 0x1C6D JUMP JUMPDEST PUSH1 0x0 PUSH2 0x1C61 DUP5 PUSH2 0x3C2D JUMP JUMPDEST POP POP POP POP SWAP2 POP POP DUP1 SWAP2 POP POP JUMPDEST SWAP3 SWAP2 POP POP JUMP JUMPDEST PUSH2 0x1C7B PUSH2 0x3075 JUMP JUMPDEST PUSH20 0xFFFFFFFFFFFFFFFFFFFFFFFFFFFFFFFFFFFFFFFF AND PUSH1 0x0 DUP1 SLOAD SWAP1 PUSH2 0x100 EXP SWAP1 DIV PUSH20 0xFFFFFFFFFFFFFFFFFFFFFFFFFFFFFFFFFFFFFFFF AND PUSH20 0xFFFFFFFFFFFFFFFFFFFFFFFFFFFFFFFFFFFFFFFF AND EQ PUSH2 0x1D3B JUMPI PUSH1 0x40 MLOAD PUSH32 0x8C379A000000000000000000000000000000000000000000000000000000000 DUP2 MSTORE PUSH1 0x4 ADD DUP1 DUP1 PUSH1 0x20 ADD DUP3 DUP2 SUB DUP3 MSTORE PUSH1 0x20 DUP2 MSTORE PUSH1 0x20 ADD DUP1 PUSH32 0x4F776E61626C653A2063616C6C6572206973206E6F7420746865206F776E6572 DUP2 MSTORE POP PUSH1 0x20 ADD SWAP2 POP POP PUSH1 0x40 MLOAD DUP1 SWAP2 SUB SWAP1 REVERT JUMPDEST DUP1 PUSH1 0x16 DUP2 SWAP1 SSTORE POP POP JUMP JUMPDEST PUSH1 0x19 PUSH1 0x0 SWAP1 SLOAD SWAP1 PUSH2 0x100 EXP SWAP1 DIV PUSH20 0xFFFFFFFFFFFFFFFFFFFFFFFFFFFFFFFFFFFFFFFF AND DUP2 JUMP JUMPDEST PUSH2 0x1D73 PUSH2 0x3075 JUMP JUMPDEST PUSH20 0xFFFFFFFFFFFFFFFFFFFFFFFFFFFFFFFFFFFFFFFF AND PUSH1 0x0 DUP1 SLOAD SWAP1 PUSH2 0x100 EXP SWAP1 DIV PUSH20 0xFFFFFFFFFFFFFFFFFFFFFFFFFFFFFFFFFFFFFFFF AND PUSH20 0xFFFFFFFFFFFFFFFFFFFFFFFFFFFFFFFFFFFFFFFF AND EQ PUSH2 0x1E33 JUMPI PUSH1 0x40 MLOAD PUSH32 0x8C379A000000000000000000000000000000000000000000000000000000000 DUP2 MSTORE PUSH1 0x4 ADD DUP1 DUP1 PUSH1 0x20 ADD DUP3 DUP2 SUB DUP3 MSTORE PUSH1 0x20 DUP2 MSTORE PUSH1 0x20 ADD DUP1 PUSH32 0x4F776E61626C653A2063616C6C6572206973206E6F7420746865206F776E6572 DUP2 MSTORE POP PUSH1 0x20 ADD SWAP2 POP POP PUSH1 0x40 MLOAD DUP1 SWAP2 SUB SWAP1 REVERT JUMPDEST PUSH1 0xA PUSH1 0x0 DUP3 PUSH20 0xFFFFFFFFFFFFFFFFFFFFFFFFFFFFFFFFFFFFFFFF AND PUSH20 0xFFFFFFFFFFFFFFFFFFFFFFFFFFFFFFFFFFFFFFFF AND DUP2 MSTORE PUSH1 0x20 ADD SWAP1 DUP2 MSTORE PUSH1 0x20 ADD PUSH1 0x0 KECCAK256 PUSH1 0x0 SWAP1 SLOAD SWAP1 PUSH2 0x100 EXP SWAP1 DIV PUSH1 0xFF AND ISZERO PUSH2 0x1EF3 JUMPI PUSH1 0x40 MLOAD PUSH32 0x8C379A000000000000000000000000000000000000000000000000000000000 DUP2 MSTORE PUSH1 0x4 ADD DUP1 DUP1 PUSH1 0x20 ADD DUP3 DUP2 SUB DUP3 MSTORE PUSH1 0x1B DUP2 MSTORE PUSH1 0x20 ADD DUP1 PUSH32 0x4163636F756E7420697320616C7265616479206578636C756465640000000000 DUP2 MSTORE POP PUSH1 0x20 ADD SWAP2 POP POP PUSH1 0x40 MLOAD DUP1 SWAP2 SUB SWAP1 REVERT JUMPDEST PUSH1 0x0 PUSH1 0x4 PUSH1 0x0 DUP4 PUSH20 0xFFFFFFFFFFFFFFFFFFFFFFFFFFFFFFFFFFFFFFFF AND PUSH20 0xFFFFFFFFFFFFFFFFFFFFFFFFFFFFFFFFFFFFFFFF AND DUP2 MSTORE PUSH1 0x20 ADD SWAP1 DUP2 MSTORE PUSH1 0x20 ADD PUSH1 0x0 KECCAK256 SLOAD GT ISZERO PUSH2 0x1FC7 JUMPI PUSH2 0x1F83 PUSH1 0x4 PUSH1 0x0 DUP4 PUSH20 0xFFFFFFFFFFFFFFFFFFFFFFFFFFFFFFFFFFFFFFFF AND PUSH20 0xFFFFFFFFFFFFFFFFFFFFFFFFFFFFFFFFFFFFFFFF AND DUP2 MSTORE PUSH1 0x20 ADD SWAP1 DUP2 MSTORE PUSH1 0x20 ADD PUSH1 0x0 KECCAK256 SLOAD PUSH2 0x10E5 JUMP JUMPDEST PUSH1 0x5 PUSH1 0x0 DUP4 PUSH20 0xFFFFFFFFFFFFFFFFFFFFFFFFFFFFFFFFFFFFFFFF AND PUSH20 0xFFFFFFFFFFFFFFFFFFFFFFFFFFFFFFFFFFFFFFFF AND DUP2 MSTORE PUSH1 0x20 ADD SWAP1 DUP2 MSTORE PUSH1 0x20 ADD PUSH1 0x0 KECCAK256 DUP2 SWAP1 SSTORE POP JUMPDEST PUSH1 0x1 PUSH1 0xA PUSH1 0x0 DUP4 PUSH20 0xFFFFFFFFFFFFFFFFFFFFFFFFFFFFFFFFFFFFFFFF AND PUSH20 0xFFFFFFFFFFFFFFFFFFFFFFFFFFFFFFFFFFFFFFFF AND DUP2 MSTORE PUSH1 0x20 ADD SWAP1 DUP2 MSTORE PUSH1 0x20 ADD PUSH1 0x0 KECCAK256 PUSH1 0x0 PUSH2 0x100 EXP DUP2 SLOAD DUP2 PUSH1 0xFF MUL NOT AND SWAP1 DUP4 ISZERO ISZERO MUL OR SWAP1 SSTORE POP PUSH1 0xB DUP2 SWAP1 DUP1 PUSH1 0x1 DUP2 SLOAD ADD DUP1 DUP3 SSTORE DUP1 SWAP2 POP POP PUSH1 0x1 SWAP1 SUB SWAP1 PUSH1 0x0 MSTORE PUSH1 0x20 PUSH1 0x0 KECCAK256 ADD PUSH1 0x0 SWAP1 SWAP2 SWAP1 SWAP2 SWAP1 SWAP2 PUSH2 0x100 EXP DUP2 SLOAD DUP2 PUSH20 0xFFFFFFFFFFFFFFFFFFFFFFFFFFFFFFFFFFFFFFFF MUL NOT AND SWAP1 DUP4 PUSH20 0xFFFFFFFFFFFFFFFFFFFFFFFFFFFFFFFFFFFFFFFF AND MUL OR SWAP1 SSTORE POP POP JUMP JUMPDEST PUSH1 0x0 PUSH1 0x9 PUSH1 0x0 DUP4 PUSH20 0xFFFFFFFFFFFFFFFFFFFFFFFFFFFFFFFFFFFFFFFF AND PUSH20 0xFFFFFFFFFFFFFFFFFFFFFFFFFFFFFFFFFFFFFFFF AND DUP2 MSTORE PUSH1 0x20 ADD SWAP1 DUP2 MSTORE PUSH1 0x20 ADD PUSH1 0x0 KECCAK256 PUSH1 0x0 SWAP1 SLOAD SWAP1 PUSH2 0x100 EXP SWAP1 DIV PUSH1 0xFF AND SWAP1 POP SWAP2 SWAP1 POP JUMP JUMPDEST PUSH1 0x0 PUSH1 0x7 PUSH1 0x0 DUP4 PUSH20 0xFFFFFFFFFFFFFFFFFFFFFFFFFFFFFFFFFFFFFFFF AND PUSH20 0xFFFFFFFFFFFFFFFFFFFFFFFFFFFFFFFFFFFFFFFF AND DUP2 MSTORE PUSH1 0x20 ADD SWAP1 DUP2 MSTORE PUSH1 0x20 ADD PUSH1 0x0 KECCAK256 PUSH1 0x0 SWAP1 SLOAD SWAP1 PUSH2 0x100 EXP SWAP1 DIV PUSH1 0xFF AND SWAP1 POP SWAP2 SWAP1 POP JUMP JUMPDEST PUSH1 0x14 SLOAD DUP2 JUMP JUMPDEST PUSH1 0x0 PUSH1 0xA PUSH1 0x0 DUP4 PUSH20 0xFFFFFFFFFFFFFFFFFFFFFFFFFFFFFFFFFFFFFFFF AND PUSH20 0xFFFFFFFFFFFFFFFFFFFFFFFFFFFFFFFFFFFFFFFF AND DUP2 MSTORE PUSH1 0x20 ADD SWAP1 DUP2 MSTORE PUSH1 0x20 ADD PUSH1 0x0 KECCAK256 PUSH1 0x0 SWAP1 SLOAD SWAP1 PUSH2 0x100 EXP SWAP1 DIV PUSH1 0xFF AND ISZERO PUSH2 0x21D2 JUMPI PUSH1 0x5 PUSH1 0x0 DUP4 PUSH20 0xFFFFFFFFFFFFFFFFFFFFFFFFFFFFFFFFFFFFFFFF AND PUSH20 0xFFFFFFFFFFFFFFFFFFFFFFFFFFFFFFFFFFFFFFFF AND DUP2 MSTORE PUSH1 0x20 ADD SWAP1 DUP2 MSTORE PUSH1 0x20 ADD PUSH1 0x0 KECCAK256 SLOAD SWAP1 POP PUSH2 0x221D JUMP JUMPDEST PUSH2 0x221A PUSH1 0x4 PUSH1 0x0 DUP5 PUSH20 0xFFFFFFFFFFFFFFFFFFFFFFFFFFFFFFFFFFFFFFFF AND PUSH20 0xFFFFFFFFFFFFFFFFFFFFFFFFFFFFFFFFFFFFFFFF AND DUP2 MSTORE PUSH1 0x20 ADD SWAP1 DUP2 MSTORE PUSH1 0x20 ADD PUSH1 0x0 KECCAK256 SLOAD PUSH2 0x10E5 JUMP JUMPDEST SWAP1 POP JUMPDEST SWAP2 SWAP1 POP JUMP JUMPDEST PUSH2 0x222A PUSH2 0x3075 JUMP JUMPDEST PUSH20 0xFFFFFFFFFFFFFFFFFFFFFFFFFFFFFFFFFFFFFFFF AND PUSH1 0x0 DUP1 SLOAD SWAP1 PUSH2 0x100 EXP SWAP1 DIV PUSH20 0xFFFFFFFFFFFFFFFFFFFFFFFFFFFFFFFFFFFFFFFF AND PUSH20 0xFFFFFFFFFFFFFFFFFFFFFFFFFFFFFFFFFFFFFFFF AND EQ PUSH2 0x22EA JUMPI PUSH1 0x40 MLOAD PUSH32 0x8C379A000000000000000000000000000000000000000000000000000000000 DUP2 MSTORE PUSH1 0x4 ADD DUP1 DUP1 PUSH1 0x20 ADD DUP3 DUP2 SUB DUP3 MSTORE PUSH1 0x20 DUP2 MSTORE PUSH1 0x20 ADD DUP1 PUSH32 0x4F776E61626C653A2063616C6C6572206973206E6F7420746865206F776E6572 DUP2 MSTORE POP PUSH1 0x20 ADD SWAP2 POP POP PUSH1 0x40 MLOAD DUP1 SWAP2 SUB SWAP1 REVERT JUMPDEST PUSH1 0x0 PUSH20 0xFFFFFFFFFFFFFFFFFFFFFFFFFFFFFFFFFFFFFFFF AND PUSH1 0x0 DUP1 SLOAD SWAP1 PUSH2 0x100 EXP SWAP1 DIV PUSH20 0xFFFFFFFFFFFFFFFFFFFFFFFFFFFFFFFFFFFFFFFF AND PUSH20 0xFFFFFFFFFFFFFFFFFFFFFFFFFFFFFFFFFFFFFFFF AND PUSH32 0x8BE0079C531659141344CD1FD0A4F28419497F9722A3DAAFE3B4186F6B6457E0 PUSH1 0x40 MLOAD PUSH1 0x40 MLOAD DUP1 SWAP2 SUB SWAP1 LOG3 PUSH1 0x0 DUP1 PUSH1 0x0 PUSH2 0x100 EXP DUP2 SLOAD DUP2 PUSH20 0xFFFFFFFFFFFFFFFFFFFFFFFFFFFFFFFFFFFFFFFF MUL NOT AND SWAP1 DUP4 PUSH20 0xFFFFFFFFFFFFFFFFFFFFFFFFFFFFFFFFFFFFFFFF AND MUL OR SWAP1 SSTORE POP JUMP JUMPDEST PUSH1 0x0 TIMESTAMP SWAP1 POP SWAP1 JUMP JUMPDEST PUSH1 0x0 PUSH1 0xA PUSH1 0x0 DUP4 PUSH20 0xFFFFFFFFFFFFFFFFFFFFFFFFFFFFFFFFFFFFFFFF AND PUSH20 0xFFFFFFFFFFFFFFFFFFFFFFFFFFFFFFFFFFFFFFFF AND DUP2 MSTORE PUSH1 0x20 ADD SWAP1 DUP2 MSTORE PUSH1 0x20 ADD PUSH1 0x0 KECCAK256 PUSH1 0x0 SWAP1 SLOAD SWAP1 PUSH2 0x100 EXP SWAP1 DIV PUSH1 0xFF AND SWAP1 POP SWAP2 SWAP1 POP JUMP JUMPDEST PUSH1 0x0 DUP1 PUSH1 0x0 SWAP1 SLOAD SWAP1 PUSH2 0x100 EXP SWAP1 DIV PUSH20 0xFFFFFFFFFFFFFFFFFFFFFFFFFFFFFFFFFFFFFFFF AND SWAP1 POP SWAP1 JUMP JUMPDEST PUSH2 0x2437 PUSH2 0x3075 JUMP JUMPDEST PUSH20 0xFFFFFFFFFFFFFFFFFFFFFFFFFFFFFFFFFFFFFFFF AND PUSH1 0x0 DUP1 SLOAD SWAP1 PUSH2 0x100 EXP SWAP1 DIV PUSH20 0xFFFFFFFFFFFFFFFFFFFFFFFFFFFFFFFFFFFFFFFF AND PUSH20 0xFFFFFFFFFFFFFFFFFFFFFFFFFFFFFFFFFFFFFFFF AND EQ PUSH2 0x24F7 JUMPI PUSH1 0x40 MLOAD PUSH32 0x8C379A000000000000000000000000000000000000000000000000000000000 DUP2 MSTORE PUSH1 0x4 ADD DUP1 DUP1 PUSH1 0x20 ADD DUP3 DUP2 SUB DUP3 MSTORE PUSH1 0x20 DUP2 MSTORE PUSH1 0x20 ADD DUP1 PUSH32 0x4F776E61626C653A2063616C6C6572206973206E6F7420746865206F776E6572 DUP2 MSTORE POP PUSH1 0x20 ADD SWAP2 POP POP PUSH1 0x40 MLOAD DUP1 SWAP2 SUB SWAP1 REVERT JUMPDEST DUP1 PUSH1 0x14 DUP2 SWAP1 SSTORE POP POP JUMP JUMPDEST PUSH2 0x2509 PUSH2 0x3075 JUMP JUMPDEST PUSH20 0xFFFFFFFFFFFFFFFFFFFFFFFFFFFFFFFFFFFFFFFF AND PUSH1 0x0 DUP1 SLOAD SWAP1 PUSH2 0x100 EXP SWAP1 DIV PUSH20 0xFFFFFFFFFFFFFFFFFFFFFFFFFFFFFFFFFFFFFFFF AND PUSH20 0xFFFFFFFFFFFFFFFFFFFFFFFFFFFFFFFFFFFFFFFF AND EQ PUSH2 0x25C9 JUMPI PUSH1 0x40 MLOAD PUSH32 0x8C379A000000000000000000000000000000000000000000000000000000000 DUP2 MSTORE PUSH1 0x4 ADD DUP1 DUP1 PUSH1 0x20 ADD DUP3 DUP2 SUB DUP3 MSTORE PUSH1 0x20 DUP2 MSTORE PUSH1 0x20 ADD DUP1 PUSH32 0x4F776E61626C653A2063616C6C6572206973206E6F7420746865206F776E6572 DUP2 MSTORE POP PUSH1 0x20 ADD SWAP2 POP POP PUSH1 0x40 MLOAD DUP1 SWAP2 SUB SWAP1 REVERT JUMPDEST DUP1 PUSH1 0x3 PUSH1 0x0 PUSH2 0x100 EXP DUP2 SLOAD DUP2 PUSH20 0xFFFFFFFFFFFFFFFFFFFFFFFFFFFFFFFFFFFFFFFF MUL NOT AND SWAP1 DUP4 PUSH20 0xFFFFFFFFFFFFFFFFFFFFFFFFFFFFFFFFFFFFFFFF AND MUL OR SWAP1 SSTORE POP POP JUMP JUMPDEST PUSH1 0x60 PUSH1 0x10 DUP1 SLOAD PUSH1 0x1 DUP2 PUSH1 0x1 AND ISZERO PUSH2 0x100 MUL SUB AND PUSH1 0x2 SWAP1 DIV DUP1 PUSH1 0x1F ADD PUSH1 0x20 DUP1 SWAP2 DIV MUL PUSH1 0x20 ADD PUSH1 0x40 MLOAD SWAP1 DUP2 ADD PUSH1 0x40 MSTORE DUP1 SWAP3 SWAP2 SWAP1 DUP2 DUP2 MSTORE PUSH1 0x20 ADD DUP3 DUP1 SLOAD PUSH1 0x1 DUP2 PUSH1 0x1 AND ISZERO PUSH2 0x100 MUL SUB AND PUSH1 0x2 SWAP1 DIV DUP1 ISZERO PUSH2 0x26A5 JUMPI DUP1 PUSH1 0x1F LT PUSH2 0x267A JUMPI PUSH2 0x100 DUP1 DUP4 SLOAD DIV MUL DUP4 MSTORE SWAP2 PUSH1 0x20 ADD SWAP2 PUSH2 0x26A5 JUMP JUMPDEST DUP3 ADD SWAP2 SWAP1 PUSH1 0x0 MSTORE PUSH1 0x20 PUSH1 0x0 KECCAK256 SWAP1 JUMPDEST DUP2 SLOAD DUP2 MSTORE SWAP1 PUSH1 0x1 ADD SWAP1 PUSH1 0x20 ADD DUP1 DUP4 GT PUSH2 0x2688 JUMPI DUP3 SWAP1 SUB PUSH1 0x1F AND DUP3 ADD SWAP2 JUMPDEST POP POP POP POP POP SWAP1 POP SWAP1 JUMP JUMPDEST PUSH1 0x0 PUSH2 0x2772 PUSH2 0x26BC PUSH2 0x3075 JUMP JUMPDEST DUP5 PUSH2 0x276D DUP6 PUSH1 0x40 MLOAD DUP1 PUSH1 0x60 ADD PUSH1 0x40 MSTORE DUP1 PUSH1 0x25 DUP2 MSTORE PUSH1 0x20 ADD PUSH2 0x55F0 PUSH1 0x25 SWAP2 CODECOPY PUSH1 0x6 PUSH1 0x0 PUSH2 0x26E6 PUSH2 0x3075 JUMP JUMPDEST PUSH20 0xFFFFFFFFFFFFFFFFFFFFFFFFFFFFFFFFFFFFFFFF AND PUSH20 0xFFFFFFFFFFFFFFFFFFFFFFFFFFFFFFFFFFFFFFFF AND DUP2 MSTORE PUSH1 0x20 ADD SWAP1 DUP2 MSTORE PUSH1 0x20 ADD PUSH1 0x0 KECCAK256 PUSH1 0x0 DUP11 PUSH20 0xFFFFFFFFFFFFFFFFFFFFFFFFFFFFFFFFFFFFFFFF AND PUSH20 0xFFFFFFFFFFFFFFFFFFFFFFFFFFFFFFFFFFFFFFFF AND DUP2 MSTORE PUSH1 0x20 ADD SWAP1 DUP2 MSTORE PUSH1 0x20 ADD PUSH1 0x0 KECCAK256 SLOAD PUSH2 0x3A70 SWAP1 SWAP3 SWAP2 SWAP1 PUSH4 0xFFFFFFFF AND JUMP JUMPDEST PUSH2 0x307D JUMP JUMPDEST PUSH1 0x1 SWAP1 POP SWAP3 SWAP2 POP POP JUMP JUMPDEST PUSH1 0x3 PUSH1 0x0 SWAP1 SLOAD SWAP1 PUSH2 0x100 EXP SWAP1 DIV PUSH20 0xFFFFFFFFFFFFFFFFFFFFFFFFFFFFFFFFFFFFFFFF AND DUP2 JUMP JUMPDEST PUSH1 0x0 PUSH2 0x27B6 PUSH2 0x27AF PUSH2 0x3075 JUMP JUMPDEST DUP5 DUP5 PUSH2 0x3274 JUMP JUMPDEST PUSH1 0x1 SWAP1 POP SWAP3 SWAP2 POP POP JUMP JUMPDEST PUSH2 0x27C8 PUSH2 0x3075 JUMP JUMPDEST PUSH20 0xFFFFFFFFFFFFFFFFFFFFFFFFFFFFFFFFFFFFFFFF AND PUSH1 0x0 DUP1 SLOAD SWAP1 PUSH2 0x100 EXP SWAP1 DIV PUSH20 0xFFFFFFFFFFFFFFFFFFFFFFFFFFFFFFFFFFFFFFFF AND PUSH20 0xFFFFFFFFFFFFFFFFFFFFFFFFFFFFFFFFFFFFFFFF AND EQ PUSH2 0x2888 JUMPI PUSH1 0x40 MLOAD PUSH32 0x8C379A000000000000000000000000000000000000000000000000000000000 DUP2 MSTORE PUSH1 0x4 ADD DUP1 DUP1 PUSH1 0x20 ADD DUP3 DUP2 SUB DUP3 MSTORE PUSH1 0x20 DUP2 MSTORE PUSH1 0x20 ADD DUP1 PUSH32 0x4F776E61626C653A2063616C6C6572206973206E6F7420746865206F776E6572 DUP2 MSTORE POP PUSH1 0x20 ADD SWAP2 POP POP PUSH1 0x40 MLOAD DUP1 SWAP2 SUB SWAP1 REVERT JUMPDEST PUSH1 0x1 PUSH1 0x19 PUSH1 0x15 PUSH2 0x100 EXP DUP2 SLOAD DUP2 PUSH1 0xFF MUL NOT AND SWAP1 DUP4 ISZERO ISZERO MUL OR SWAP1 SSTORE POP TIMESTAMP PUSH1 0x17 DUP2 SWAP1 SSTORE POP JUMP JUMPDEST PUSH2 0x28B4 PUSH2 0x3075 JUMP JUMPDEST PUSH20 0xFFFFFFFFFFFFFFFFFFFFFFFFFFFFFFFFFFFFFFFF AND PUSH1 0x0 DUP1 SLOAD SWAP1 PUSH2 0x100 EXP SWAP1 DIV PUSH20 0xFFFFFFFFFFFFFFFFFFFFFFFFFFFFFFFFFFFFFFFF AND PUSH20 0xFFFFFFFFFFFFFFFFFFFFFFFFFFFFFFFFFFFFFFFF AND EQ PUSH2 0x2974 JUMPI PUSH1 0x40 MLOAD PUSH32 0x8C379A000000000000000000000000000000000000000000000000000000000 DUP2 MSTORE PUSH1 0x4 ADD DUP1 DUP1 PUSH1 0x20 ADD DUP3 DUP2 SUB DUP3 MSTORE PUSH1 0x20 DUP2 MSTORE PUSH1 0x20 ADD DUP1 PUSH32 0x4F776E61626C653A2063616C6C6572206973206E6F7420746865206F776E6572 DUP2 MSTORE POP PUSH1 0x20 ADD SWAP2 POP POP PUSH1 0x40 MLOAD DUP1 SWAP2 SUB SWAP1 REVERT JUMPDEST PUSH2 0x297C PUSH2 0x2406 JUMP JUMPDEST PUSH20 0xFFFFFFFFFFFFFFFFFFFFFFFFFFFFFFFFFFFFFFFF AND PUSH2 0x8FC SELFBALANCE SWAP1 DUP2 ISZERO MUL SWAP1 PUSH1 0x40 MLOAD PUSH1 0x0 PUSH1 0x40 MLOAD DUP1 DUP4 SUB DUP2 DUP6 DUP9 DUP9 CALL SWAP4 POP POP POP POP ISZERO DUP1 ISZERO PUSH2 0x29C1 JUMPI RETURNDATASIZE PUSH1 0x0 DUP1 RETURNDATACOPY RETURNDATASIZE PUSH1 0x0 REVERT JUMPDEST POP JUMP JUMPDEST PUSH1 0x0 PUSH1 0x6 PUSH1 0x0 DUP5 PUSH20 0xFFFFFFFFFFFFFFFFFFFFFFFFFFFFFFFFFFFFFFFF AND PUSH20 0xFFFFFFFFFFFFFFFFFFFFFFFFFFFFFFFFFFFFFFFF AND DUP2 MSTORE PUSH1 0x20 ADD SWAP1 DUP2 MSTORE PUSH1 0x20 ADD PUSH1 0x0 KECCAK256 PUSH1 0x0 DUP4 PUSH20 0xFFFFFFFFFFFFFFFFFFFFFFFFFFFFFFFFFFFFFFFF AND PUSH20 0xFFFFFFFFFFFFFFFFFFFFFFFFFFFFFFFFFFFFFFFF AND DUP2 MSTORE PUSH1 0x20 ADD SWAP1 DUP2 MSTORE PUSH1 0x20 ADD PUSH1 0x0 KECCAK256 SLOAD SWAP1 POP SWAP3 SWAP2 POP POP JUMP JUMPDEST PUSH2 0x2A53 PUSH2 0x3075 JUMP JUMPDEST PUSH20 0xFFFFFFFFFFFFFFFFFFFFFFFFFFFFFFFFFFFFFFFF AND PUSH1 0x0 DUP1 SLOAD SWAP1 PUSH2 0x100 EXP SWAP1 DIV PUSH20 0xFFFFFFFFFFFFFFFFFFFFFFFFFFFFFFFFFFFFFFFF AND PUSH20 0xFFFFFFFFFFFFFFFFFFFFFFFFFFFFFFFFFFFFFFFF AND EQ PUSH2 0x2B13 JUMPI PUSH1 0x40 MLOAD PUSH32 0x8C379A000000000000000000000000000000000000000000000000000000000 DUP2 MSTORE PUSH1 0x4 ADD DUP1 DUP1 PUSH1 0x20 ADD DUP3 DUP2 SUB DUP3 MSTORE PUSH1 0x20 DUP2 MSTORE PUSH1 0x20 ADD DUP1 PUSH32 0x4F776E61626C653A2063616C6C6572206973206E6F7420746865206F776E6572 DUP2 MSTORE POP PUSH1 0x20 ADD SWAP2 POP POP PUSH1 0x40 MLOAD DUP1 SWAP2 SUB SWAP1 REVERT JUMPDEST PUSH1 0x0 PUSH1 0x9 PUSH1 0x0 DUP4 PUSH20 0xFFFFFFFFFFFFFFFFFFFFFFFFFFFFFFFFFFFFFFFF AND PUSH20 0xFFFFFFFFFFFFFFFFFFFFFFFFFFFFFFFFFFFFFFFF AND DUP2 MSTORE PUSH1 0x20 ADD SWAP1 DUP2 MSTORE PUSH1 0x20 ADD PUSH1 0x0 KECCAK256 PUSH1 0x0 PUSH2 0x100 EXP DUP2 SLOAD DUP2 PUSH1 0xFF MUL NOT AND SWAP1 DUP4 ISZERO ISZERO MUL OR SWAP1 SSTORE POP POP JUMP JUMPDEST PUSH2 0x2B76 PUSH2 0x3075 JUMP JUMPDEST PUSH20 0xFFFFFFFFFFFFFFFFFFFFFFFFFFFFFFFFFFFFFFFF AND PUSH1 0x0 DUP1 SLOAD SWAP1 PUSH2 0x100 EXP SWAP1 DIV PUSH20 0xFFFFFFFFFFFFFFFFFFFFFFFFFFFFFFFFFFFFFFFF AND PUSH20 0xFFFFFFFFFFFFFFFFFFFFFFFFFFFFFFFFFFFFFFFF AND EQ PUSH2 0x2C36 JUMPI PUSH1 0x40 MLOAD PUSH32 0x8C379A000000000000000000000000000000000000000000000000000000000 DUP2 MSTORE PUSH1 0x4 ADD DUP1 DUP1 PUSH1 0x20 ADD DUP3 DUP2 SUB DUP3 MSTORE PUSH1 0x20 DUP2 MSTORE PUSH1 0x20 ADD DUP1 PUSH32 0x4F776E61626C653A2063616C6C6572206973206E6F7420746865206F776E6572 DUP2 MSTORE POP PUSH1 0x20 ADD SWAP2 POP POP PUSH1 0x40 MLOAD DUP1 SWAP2 SUB SWAP1 REVERT JUMPDEST PUSH1 0x0 PUSH20 0xFFFFFFFFFFFFFFFFFFFFFFFFFFFFFFFFFFFFFFFF AND DUP2 PUSH20 0xFFFFFFFFFFFFFFFFFFFFFFFFFFFFFFFFFFFFFFFF AND EQ ISZERO PUSH2 0x2CBC JUMPI PUSH1 0x40 MLOAD PUSH32 0x8C379A000000000000000000000000000000000000000000000000000000000 DUP2 MSTORE PUSH1 0x4 ADD DUP1 DUP1 PUSH1 0x20 ADD DUP3 DUP2 SUB DUP3 MSTORE PUSH1 0x26 DUP2 MSTORE PUSH1 0x20 ADD DUP1 PUSH2 0x54C1 PUSH1 0x26 SWAP2 CODECOPY PUSH1 0x40 ADD SWAP2 POP POP PUSH1 0x40 MLOAD DUP1 SWAP2 SUB SWAP1 REVERT JUMPDEST DUP1 PUSH20 0xFFFFFFFFFFFFFFFFFFFFFFFFFFFFFFFFFFFFFFFF AND PUSH1 0x0 DUP1 SLOAD SWAP1 PUSH2 0x100 EXP SWAP1 DIV PUSH20 0xFFFFFFFFFFFFFFFFFFFFFFFFFFFFFFFFFFFFFFFF AND PUSH20 0xFFFFFFFFFFFFFFFFFFFFFFFFFFFFFFFFFFFFFFFF AND PUSH32 0x8BE0079C531659141344CD1FD0A4F28419497F9722A3DAAFE3B4186F6B6457E0 PUSH1 0x40 MLOAD PUSH1 0x40 MLOAD DUP1 SWAP2 SUB SWAP1 LOG3 DUP1 PUSH1 0x0 DUP1 PUSH2 0x100 EXP DUP2 SLOAD DUP2 PUSH20 0xFFFFFFFFFFFFFFFFFFFFFFFFFFFFFFFFFFFFFFFF MUL NOT AND SWAP1 DUP4 PUSH20 0xFFFFFFFFFFFFFFFFFFFFFFFFFFFFFFFFFFFFFFFF AND MUL OR SWAP1 SSTORE POP POP JUMP JUMPDEST PUSH2 0x2D81 PUSH2 0x3075 JUMP JUMPDEST PUSH20 0xFFFFFFFFFFFFFFFFFFFFFFFFFFFFFFFFFFFFFFFF AND PUSH1 0x0 DUP1 SLOAD SWAP1 PUSH2 0x100 EXP SWAP1 DIV PUSH20 0xFFFFFFFFFFFFFFFFFFFFFFFFFFFFFFFFFFFFFFFF AND PUSH20 0xFFFFFFFFFFFFFFFFFFFFFFFFFFFFFFFFFFFFFFFF AND EQ PUSH2 0x2E41 JUMPI PUSH1 0x40 MLOAD PUSH32 0x8C379A000000000000000000000000000000000000000000000000000000000 DUP2 MSTORE PUSH1 0x4 ADD DUP1 DUP1 PUSH1 0x20 ADD DUP3 DUP2 SUB DUP3 MSTORE PUSH1 0x20 DUP2 MSTORE PUSH1 0x20 ADD DUP1 PUSH32 0x4F776E61626C653A2063616C6C6572206973206E6F7420746865206F776E6572 DUP2 MSTORE POP PUSH1 0x20 ADD SWAP2 POP POP PUSH1 0x40 MLOAD DUP1 SWAP2 SUB SWAP1 REVERT JUMPDEST PUSH20 0xEC0A7A0C2439E8CB67B992B12ECD020EA943C7BE PUSH20 0xFFFFFFFFFFFFFFFFFFFFFFFFFFFFFFFFFFFFFFFF AND DUP2 PUSH20 0xFFFFFFFFFFFFFFFFFFFFFFFFFFFFFFFFFFFFFFFF AND EQ ISZERO PUSH2 0x2EF7 JUMPI PUSH1 0x40 MLOAD PUSH32 0x8C379A000000000000000000000000000000000000000000000000000000000 DUP2 MSTORE PUSH1 0x4 ADD DUP1 DUP1 PUSH1 0x20 ADD DUP3 DUP2 SUB DUP3 MSTORE PUSH1 0x1B DUP2 MSTORE PUSH1 0x20 ADD DUP1 PUSH32 0x57652063616E206E6F7420626C61636B6C69737420526F757465720000000000 DUP2 MSTORE POP PUSH1 0x20 ADD SWAP2 POP POP PUSH1 0x40 MLOAD DUP1 SWAP2 SUB SWAP1 REVERT JUMPDEST PUSH1 0x7 PUSH1 0x0 DUP3 PUSH20 0xFFFFFFFFFFFFFFFFFFFFFFFFFFFFFFFFFFFFFFFF AND PUSH20 0xFFFFFFFFFFFFFFFFFFFFFFFFFFFFFFFFFFFFFFFF AND DUP2 MSTORE PUSH1 0x20 ADD SWAP1 DUP2 MSTORE PUSH1 0x20 ADD PUSH1 0x0 KECCAK256 PUSH1 0x0 SWAP1 SLOAD SWAP1 PUSH2 0x100 EXP SWAP1 DIV PUSH1 0xFF AND ISZERO PUSH2 0x2FB7 JUMPI PUSH1 0x40 MLOAD PUSH32 0x8C379A000000000000000000000000000000000000000000000000000000000 DUP2 MSTORE PUSH1 0x4 ADD DUP1 DUP1 PUSH1 0x20 ADD DUP3 DUP2 SUB DUP3 MSTORE PUSH1 0x1E DUP2 MSTORE PUSH1 0x20 ADD DUP1 PUSH32 0x4163636F756E7420697320616C726561647920626C61636B6C69737465640000 DUP2 MSTORE POP PUSH1 0x20 ADD SWAP2 POP POP PUSH1 0x40 MLOAD DUP1 SWAP2 SUB SWAP1 REVERT JUMPDEST PUSH1 0x1 PUSH1 0x7 PUSH1 0x0 DUP4 PUSH20 0xFFFFFFFFFFFFFFFFFFFFFFFFFFFFFFFFFFFFFFFF AND PUSH20 0xFFFFFFFFFFFFFFFFFFFFFFFFFFFFFFFFFFFFFFFF AND DUP2 MSTORE PUSH1 0x20 ADD SWAP1 DUP2 MSTORE PUSH1 0x20 ADD PUSH1 0x0 KECCAK256 PUSH1 0x0 PUSH2 0x100 EXP DUP2 SLOAD DUP2 PUSH1 0xFF MUL NOT AND SWAP1 DUP4 ISZERO ISZERO MUL OR SWAP1 SSTORE POP PUSH1 0x8 DUP2 SWAP1 DUP1 PUSH1 0x1 DUP2 SLOAD ADD DUP1 DUP3 SSTORE DUP1 SWAP2 POP POP PUSH1 0x1 SWAP1 SUB SWAP1 PUSH1 0x0 MSTORE PUSH1 0x20 PUSH1 0x0 KECCAK256 ADD PUSH1 0x0 SWAP1 SWAP2 SWAP1 SWAP2 SWAP1 SWAP2 PUSH2 0x100 EXP DUP2 SLOAD DUP2 PUSH20 0xFFFFFFFFFFFFFFFFFFFFFFFFFFFFFFFFFFFFFFFF MUL NOT AND SWAP1 DUP4 PUSH20 0xFFFFFFFFFFFFFFFFFFFFFFFFFFFFFFFFFFFFFFFF AND MUL OR SWAP1 SSTORE POP POP JUMP JUMPDEST PUSH1 0x0 CALLER SWAP1 POP SWAP1 JUMP JUMPDEST PUSH1 0x0 PUSH20 0xFFFFFFFFFFFFFFFFFFFFFFFFFFFFFFFFFFFFFFFF AND DUP4 PUSH20 0xFFFFFFFFFFFFFFFFFFFFFFFFFFFFFFFFFFFFFFFF AND EQ ISZERO PUSH2 0x3103 JUMPI PUSH1 0x40 MLOAD PUSH32 0x8C379A000000000000000000000000000000000000000000000000000000000 DUP2 MSTORE PUSH1 0x4 ADD DUP1 DUP1 PUSH1 0x20 ADD DUP3 DUP2 SUB DUP3 MSTORE PUSH1 0x24 DUP2 MSTORE PUSH1 0x20 ADD DUP1 PUSH2 0x55A0 PUSH1 0x24 SWAP2 CODECOPY PUSH1 0x40 ADD SWAP2 POP POP PUSH1 0x40 MLOAD DUP1 SWAP2 SUB SWAP1 REVERT JUMPDEST PUSH1 0x0 PUSH20 0xFFFFFFFFFFFFFFFFFFFFFFFFFFFFFFFFFFFFFFFF AND DUP3 PUSH20 0xFFFFFFFFFFFFFFFFFFFFFFFFFFFFFFFFFFFFFFFF AND EQ ISZERO PUSH2 0x3189 JUMPI PUSH1 0x40 MLOAD PUSH32 0x8C379A000000000000000000000000000000000000000000000000000000000 DUP2 MSTORE PUSH1 0x4 ADD DUP1 DUP1 PUSH1 0x20 ADD DUP3 DUP2 SUB DUP3 MSTORE PUSH1 0x22 DUP2 MSTORE PUSH1 0x20 ADD DUP1 PUSH2 0x54E7 PUSH1 0x22 SWAP2 CODECOPY PUSH1 0x40 ADD SWAP2 POP POP PUSH1 0x40 MLOAD DUP1 SWAP2 SUB SWAP1 REVERT JUMPDEST DUP1 PUSH1 0x6 PUSH1 0x0 DUP6 PUSH20 0xFFFFFFFFFFFFFFFFFFFFFFFFFFFFFFFFFFFFFFFF AND PUSH20 0xFFFFFFFFFFFFFFFFFFFFFFFFFFFFFFFFFFFFFFFF AND DUP2 MSTORE PUSH1 0x20 ADD SWAP1 DUP2 MSTORE PUSH1 0x20 ADD PUSH1 0x0 KECCAK256 PUSH1 0x0 DUP5 PUSH20 0xFFFFFFFFFFFFFFFFFFFFFFFFFFFFFFFFFFFFFFFF AND PUSH20 0xFFFFFFFFFFFFFFFFFFFFFFFFFFFFFFFFFFFFFFFF AND DUP2 MSTORE PUSH1 0x20 ADD SWAP1 DUP2 MSTORE PUSH1 0x20 ADD PUSH1 0x0 KECCAK256 DUP2 SWAP1 SSTORE POP DUP2 PUSH20 0xFFFFFFFFFFFFFFFFFFFFFFFFFFFFFFFFFFFFFFFF AND DUP4 PUSH20 0xFFFFFFFFFFFFFFFFFFFFFFFFFFFFFFFFFFFFFFFF AND PUSH32 0x8C5BE1E5EBEC7D5BD14F71427D1E84F3DD0314C0F7B2291E5B200AC8C7C3B925 DUP4 PUSH1 0x40 MLOAD DUP1 DUP3 DUP2 MSTORE PUSH1 0x20 ADD SWAP2 POP POP PUSH1 0x40 MLOAD DUP1 SWAP2 SUB SWAP1 LOG3 POP POP POP JUMP JUMPDEST PUSH1 0x0 PUSH20 0xFFFFFFFFFFFFFFFFFFFFFFFFFFFFFFFFFFFFFFFF AND DUP4 PUSH20 0xFFFFFFFFFFFFFFFFFFFFFFFFFFFFFFFFFFFFFFFF AND EQ ISZERO PUSH2 0x32FA JUMPI PUSH1 0x40 MLOAD PUSH32 0x8C379A000000000000000000000000000000000000000000000000000000000 DUP2 MSTORE PUSH1 0x4 ADD DUP1 DUP1 PUSH1 0x20 ADD DUP3 DUP2 SUB DUP3 MSTORE PUSH1 0x25 DUP2 MSTORE PUSH1 0x20 ADD DUP1 PUSH2 0x557B PUSH1 0x25 SWAP2 CODECOPY PUSH1 0x40 ADD SWAP2 POP POP PUSH1 0x40 MLOAD DUP1 SWAP2 SUB SWAP1 REVERT JUMPDEST PUSH1 0x0 PUSH20 0xFFFFFFFFFFFFFFFFFFFFFFFFFFFFFFFFFFFFFFFF AND DUP3 PUSH20 0xFFFFFFFFFFFFFFFFFFFFFFFFFFFFFFFFFFFFFFFF AND EQ ISZERO PUSH2 0x3380 JUMPI PUSH1 0x40 MLOAD PUSH32 0x8C379A000000000000000000000000000000000000000000000000000000000 DUP2 MSTORE PUSH1 0x4 ADD DUP1 DUP1 PUSH1 0x20 ADD DUP3 DUP2 SUB DUP3 MSTORE PUSH1 0x23 DUP2 MSTORE PUSH1 0x20 ADD DUP1 PUSH2 0x5474 PUSH1 0x23 SWAP2 CODECOPY PUSH1 0x40 ADD SWAP2 POP POP PUSH1 0x40 MLOAD DUP1 SWAP2 SUB SWAP1 REVERT JUMPDEST PUSH1 0x0 DUP2 GT PUSH2 0x33D9 JUMPI PUSH1 0x40 MLOAD PUSH32 0x8C379A000000000000000000000000000000000000000000000000000000000 DUP2 MSTORE PUSH1 0x4 ADD DUP1 DUP1 PUSH1 0x20 ADD DUP3 DUP2 SUB DUP3 MSTORE PUSH1 0x29 DUP2 MSTORE PUSH1 0x20 ADD DUP1 PUSH2 0x5552 PUSH1 0x29 SWAP2 CODECOPY PUSH1 0x40 ADD SWAP2 POP POP PUSH1 0x40 MLOAD DUP1 SWAP2 SUB SWAP1 REVERT JUMPDEST PUSH1 0x7 PUSH1 0x0 DUP4 PUSH20 0xFFFFFFFFFFFFFFFFFFFFFFFFFFFFFFFFFFFFFFFF AND PUSH20 0xFFFFFFFFFFFFFFFFFFFFFFFFFFFFFFFFFFFFFFFF AND DUP2 MSTORE PUSH1 0x20 ADD SWAP1 DUP2 MSTORE PUSH1 0x20 ADD PUSH1 0x0 KECCAK256 PUSH1 0x0 SWAP1 SLOAD SWAP1 PUSH2 0x100 EXP SWAP1 DIV PUSH1 0xFF AND ISZERO PUSH2 0x3499 JUMPI PUSH1 0x40 MLOAD PUSH32 0x8C379A000000000000000000000000000000000000000000000000000000000 DUP2 MSTORE PUSH1 0x4 ADD DUP1 DUP1 PUSH1 0x20 ADD DUP3 DUP2 SUB DUP3 MSTORE PUSH1 0x17 DUP2 MSTORE PUSH1 0x20 ADD DUP1 PUSH32 0x596F752068617665206E6F20706F776572206865726521000000000000000000 DUP2 MSTORE POP PUSH1 0x20 ADD SWAP2 POP POP PUSH1 0x40 MLOAD DUP1 SWAP2 SUB SWAP1 REVERT JUMPDEST PUSH1 0x7 PUSH1 0x0 CALLER PUSH20 0xFFFFFFFFFFFFFFFFFFFFFFFFFFFFFFFFFFFFFFFF AND PUSH20 0xFFFFFFFFFFFFFFFFFFFFFFFFFFFFFFFFFFFFFFFF AND DUP2 MSTORE PUSH1 0x20 ADD SWAP1 DUP2 MSTORE PUSH1 0x20 ADD PUSH1 0x0 KECCAK256 PUSH1 0x0 SWAP1 SLOAD SWAP1 PUSH2 0x100 EXP SWAP1 DIV PUSH1 0xFF AND ISZERO PUSH2 0x3559 JUMPI PUSH1 0x40 MLOAD PUSH32 0x8C379A000000000000000000000000000000000000000000000000000000000 DUP2 MSTORE PUSH1 0x4 ADD DUP1 DUP1 PUSH1 0x20 ADD DUP3 DUP2 SUB DUP3 MSTORE PUSH1 0x17 DUP2 MSTORE PUSH1 0x20 ADD DUP1 PUSH32 0x596F752068617665206E6F20706F776572206865726521000000000000000000 DUP2 MSTORE POP PUSH1 0x20 ADD SWAP2 POP POP PUSH1 0x40 MLOAD DUP1 SWAP2 SUB SWAP1 REVERT JUMPDEST PUSH1 0x19 PUSH1 0x0 SWAP1 SLOAD SWAP1 PUSH2 0x100 EXP SWAP1 DIV PUSH20 0xFFFFFFFFFFFFFFFFFFFFFFFFFFFFFFFFFFFFFFFF AND PUSH20 0xFFFFFFFFFFFFFFFFFFFFFFFFFFFFFFFFFFFFFFFF AND DUP4 PUSH20 0xFFFFFFFFFFFFFFFFFFFFFFFFFFFFFFFFFFFFFFFF AND EQ DUP1 ISZERO PUSH2 0x3604 JUMPI POP PUSH1 0x18 PUSH1 0x0 SWAP1 SLOAD SWAP1 PUSH2 0x100 EXP SWAP1 DIV PUSH20 0xFFFFFFFFFFFFFFFFFFFFFFFFFFFFFFFFFFFFFFFF AND PUSH20 0xFFFFFFFFFFFFFFFFFFFFFFFFFFFFFFFFFFFFFFFF AND DUP3 PUSH20 0xFFFFFFFFFFFFFFFFFFFFFFFFFFFFFFFFFFFFFFFF AND EQ ISZERO JUMPDEST DUP1 ISZERO PUSH2 0x365A JUMPI POP PUSH1 0x9 PUSH1 0x0 DUP4 PUSH20 0xFFFFFFFFFFFFFFFFFFFFFFFFFFFFFFFFFFFFFFFF AND PUSH20 0xFFFFFFFFFFFFFFFFFFFFFFFFFFFFFFFFFFFFFFFF AND DUP2 MSTORE PUSH1 0x20 ADD SWAP1 DUP2 MSTORE PUSH1 0x20 ADD PUSH1 0x0 KECCAK256 PUSH1 0x0 SWAP1 SLOAD SWAP1 PUSH2 0x100 EXP SWAP1 DIV PUSH1 0xFF AND ISZERO JUMPDEST ISZERO PUSH2 0x37A8 JUMPI PUSH1 0x19 PUSH1 0x15 SWAP1 SLOAD SWAP1 PUSH2 0x100 EXP SWAP1 DIV PUSH1 0xFF AND PUSH2 0x36E1 JUMPI PUSH1 0x40 MLOAD PUSH32 0x8C379A000000000000000000000000000000000000000000000000000000000 DUP2 MSTORE PUSH1 0x4 ADD DUP1 DUP1 PUSH1 0x20 ADD DUP3 DUP2 SUB DUP3 MSTORE PUSH1 0x18 DUP2 MSTORE PUSH1 0x20 ADD DUP1 PUSH32 0x54726164696E67206E6F742079657420656E61626C65642E0000000000000000 DUP2 MSTORE POP PUSH1 0x20 ADD SWAP2 POP POP PUSH1 0x40 MLOAD DUP1 SWAP2 SUB SWAP1 REVERT JUMPDEST PUSH1 0x17 SLOAD TIMESTAMP EQ ISZERO PUSH2 0x37A7 JUMPI PUSH1 0x1 PUSH1 0x7 PUSH1 0x0 DUP5 PUSH20 0xFFFFFFFFFFFFFFFFFFFFFFFFFFFFFFFFFFFFFFFF AND PUSH20 0xFFFFFFFFFFFFFFFFFFFFFFFFFFFFFFFFFFFFFFFF AND DUP2 MSTORE PUSH1 0x20 ADD SWAP1 DUP2 MSTORE PUSH1 0x20 ADD PUSH1 0x0 KECCAK256 PUSH1 0x0 PUSH2 0x100 EXP DUP2 SLOAD DUP2 PUSH1 0xFF MUL NOT AND SWAP1 DUP4 ISZERO ISZERO MUL OR SWAP1 SSTORE POP PUSH1 0x8 DUP3 SWAP1 DUP1 PUSH1 0x1 DUP2 SLOAD ADD DUP1 DUP3 SSTORE DUP1 SWAP2 POP POP PUSH1 0x1 SWAP1 SUB SWAP1 PUSH1 0x0 MSTORE PUSH1 0x20 PUSH1 0x0 KECCAK256 ADD PUSH1 0x0 SWAP1 SWAP2 SWAP1 SWAP2 SWAP1 SWAP2 PUSH2 0x100 EXP DUP2 SLOAD DUP2 PUSH20 0xFFFFFFFFFFFFFFFFFFFFFFFFFFFFFFFFFFFFFFFF MUL NOT AND SWAP1 DUP4 PUSH20 0xFFFFFFFFFFFFFFFFFFFFFFFFFFFFFFFFFFFFFFFF AND MUL OR SWAP1 SSTORE POP JUMPDEST JUMPDEST PUSH1 0x0 PUSH2 0x37B3 ADDRESS PUSH2 0x2137 JUMP JUMPDEST SWAP1 POP PUSH1 0x19 PUSH1 0x14 SWAP1 SLOAD SWAP1 PUSH2 0x100 EXP SWAP1 DIV PUSH1 0xFF AND ISZERO DUP1 ISZERO PUSH2 0x37DE JUMPI POP PUSH1 0x19 PUSH1 0x15 SWAP1 SLOAD SWAP1 PUSH2 0x100 EXP SWAP1 DIV PUSH1 0xFF AND JUMPDEST DUP1 ISZERO PUSH2 0x3837 JUMPI POP PUSH1 0x19 PUSH1 0x0 SWAP1 SLOAD SWAP1 PUSH2 0x100 EXP SWAP1 DIV PUSH20 0xFFFFFFFFFFFFFFFFFFFFFFFFFFFFFFFFFFFFFFFF AND PUSH20 0xFFFFFFFFFFFFFFFFFFFFFFFFFFFFFFFFFFFFFFFF AND DUP4 PUSH20 0xFFFFFFFFFFFFFFFFFFFFFFFFFFFFFFFFFFFFFFFF AND EQ JUMPDEST ISZERO PUSH2 0x38FE JUMPI PUSH1 0x0 DUP2 GT ISZERO PUSH2 0x38FD JUMPI PUSH2 0x3897 PUSH1 0x64 PUSH2 0x3889 PUSH1 0x16 SLOAD PUSH2 0x387B PUSH1 0x19 PUSH1 0x0 SWAP1 SLOAD SWAP1 PUSH2 0x100 EXP SWAP1 DIV PUSH20 0xFFFFFFFFFFFFFFFFFFFFFFFFFFFFFFFFFFFFFFFF AND PUSH2 0x2137 JUMP JUMPDEST PUSH2 0x3CD3 SWAP1 SWAP2 SWAP1 PUSH4 0xFFFFFFFF AND JUMP JUMPDEST PUSH2 0x3B5B SWAP1 SWAP2 SWAP1 PUSH4 0xFFFFFFFF AND JUMP JUMPDEST DUP2 GT ISZERO PUSH2 0x38F3 JUMPI PUSH2 0x38F0 PUSH1 0x64 PUSH2 0x38E2 PUSH1 0x16 SLOAD PUSH2 0x38D4 PUSH1 0x19 PUSH1 0x0 SWAP1 SLOAD SWAP1 PUSH2 0x100 EXP SWAP1 DIV PUSH20 0xFFFFFFFFFFFFFFFFFFFFFFFFFFFFFFFFFFFFFFFF AND PUSH2 0x2137 JUMP JUMPDEST PUSH2 0x3CD3 SWAP1 SWAP2 SWAP1 PUSH4 0xFFFFFFFF AND JUMP JUMPDEST PUSH2 0x3B5B SWAP1 SWAP2 SWAP1 PUSH4 0xFFFFFFFF AND JUMP JUMPDEST SWAP1 POP JUMPDEST PUSH2 0x38FC DUP2 PUSH2 0x3D59 JUMP JUMPDEST JUMPDEST JUMPDEST PUSH1 0x0 PUSH1 0x19 PUSH1 0x0 SWAP1 SLOAD SWAP1 PUSH2 0x100 EXP SWAP1 DIV PUSH20 0xFFFFFFFFFFFFFFFFFFFFFFFFFFFFFFFFFFFFFFFF AND PUSH20 0xFFFFFFFFFFFFFFFFFFFFFFFFFFFFFFFFFFFFFFFF AND DUP6 PUSH20 0xFFFFFFFFFFFFFFFFFFFFFFFFFFFFFFFFFFFFFFFF AND EQ DUP1 PUSH2 0x39A9 JUMPI POP PUSH1 0x19 PUSH1 0x0 SWAP1 SLOAD SWAP1 PUSH2 0x100 EXP SWAP1 DIV PUSH20 0xFFFFFFFFFFFFFFFFFFFFFFFFFFFFFFFFFFFFFFFF AND PUSH20 0xFFFFFFFFFFFFFFFFFFFFFFFFFFFFFFFFFFFFFFFF AND DUP5 PUSH20 0xFFFFFFFFFFFFFFFFFFFFFFFFFFFFFFFFFFFFFFFF AND EQ JUMPDEST DUP1 ISZERO PUSH2 0x3A53 JUMPI POP PUSH1 0x9 PUSH1 0x0 DUP7 PUSH20 0xFFFFFFFFFFFFFFFFFFFFFFFFFFFFFFFFFFFFFFFF AND PUSH20 0xFFFFFFFFFFFFFFFFFFFFFFFFFFFFFFFFFFFFFFFF AND DUP2 MSTORE PUSH1 0x20 ADD SWAP1 DUP2 MSTORE PUSH1 0x20 ADD PUSH1 0x0 KECCAK256 PUSH1 0x0 SWAP1 SLOAD SWAP1 PUSH2 0x100 EXP SWAP1 DIV PUSH1 0xFF AND DUP1 PUSH2 0x3A51 JUMPI POP PUSH1 0x9 PUSH1 0x0 DUP6 PUSH20 0xFFFFFFFFFFFFFFFFFFFFFFFFFFFFFFFFFFFFFFFF AND PUSH20 0xFFFFFFFFFFFFFFFFFFFFFFFFFFFFFFFFFFFFFFFF AND DUP2 MSTORE PUSH1 0x20 ADD SWAP1 DUP2 MSTORE PUSH1 0x20 ADD PUSH1 0x0 KECCAK256 PUSH1 0x0 SWAP1 SLOAD SWAP1 PUSH2 0x100 EXP SWAP1 DIV PUSH1 0xFF AND JUMPDEST ISZERO JUMPDEST ISZERO PUSH2 0x3A5D JUMPI PUSH1 0x1 SWAP1 POP JUMPDEST PUSH2 0x3A69 DUP6 DUP6 DUP6 DUP5 PUSH2 0x3DF3 JUMP JUMPDEST POP POP POP POP POP JUMP JUMPDEST PUSH1 0x0 DUP4 DUP4 GT ISZERO DUP3 SWAP1 PUSH2 0x3B1D JUMPI PUSH1 0x40 MLOAD PUSH32 0x8C379A000000000000000000000000000000000000000000000000000000000 DUP2 MSTORE PUSH1 0x4 ADD DUP1 DUP1 PUSH1 0x20 ADD DUP3 DUP2 SUB DUP3 MSTORE DUP4 DUP2 DUP2 MLOAD DUP2 MSTORE PUSH1 0x20 ADD SWAP2 POP DUP1 MLOAD SWAP1 PUSH1 0x20 ADD SWAP1 DUP1 DUP4 DUP4 PUSH1 0x0 JUMPDEST DUP4 DUP2 LT ISZERO PUSH2 0x3AE2 JUMPI DUP1 DUP3 ADD MLOAD DUP2 DUP5 ADD MSTORE PUSH1 0x20 DUP2 ADD SWAP1 POP PUSH2 0x3AC7 JUMP JUMPDEST POP POP POP POP SWAP1 POP SWAP1 DUP2 ADD SWAP1 PUSH1 0x1F AND DUP1 ISZERO PUSH2 0x3B0F JUMPI DUP1 DUP3 SUB DUP1 MLOAD PUSH1 0x1 DUP4 PUSH1 0x20 SUB PUSH2 0x100 EXP SUB NOT AND DUP2 MSTORE PUSH1 0x20 ADD SWAP2 POP JUMPDEST POP SWAP3 POP POP POP PUSH1 0x40 MLOAD DUP1 SWAP2 SUB SWAP1 REVERT JUMPDEST POP PUSH1 0x0 DUP4 DUP6 SUB SWAP1 POP DUP1 SWAP2 POP POP SWAP4 SWAP3 POP POP POP JUMP JUMPDEST PUSH1 0x0 DUP1 PUSH1 0x0 PUSH2 0x3B3D PUSH2 0x404A JUMP JUMPDEST SWAP2 POP SWAP2 POP PUSH2 0x3B54 DUP2 DUP4 PUSH2 0x3B5B SWAP1 SWAP2 SWAP1 PUSH4 0xFFFFFFFF AND JUMP JUMPDEST SWAP3 POP POP POP SWAP1 JUMP JUMPDEST PUSH1 0x0 PUSH2 0x3B9D DUP4 DUP4 PUSH1 0x40 MLOAD DUP1 PUSH1 0x40 ADD PUSH1 0x40 MSTORE DUP1 PUSH1 0x1A DUP2 MSTORE PUSH1 0x20 ADD PUSH32 0x536166654D6174683A206469766973696F6E206279207A65726F000000000000 DUP2 MSTORE POP PUSH2 0x42DB JUMP JUMPDEST SWAP1 POP SWAP3 SWAP2 POP POP JUMP JUMPDEST PUSH1 0x0 DUP1 DUP3 DUP5 ADD SWAP1 POP DUP4 DUP2 LT ISZERO PUSH2 0x3C23 JUMPI PUSH1 0x40 MLOAD PUSH32 0x8C379A000000000000000000000000000000000000000000000000000000000 DUP2 MSTORE PUSH1 0x4 ADD DUP1 DUP1 PUSH1 0x20 ADD DUP3 DUP2 SUB DUP3 MSTORE PUSH1 0x1B DUP2 MSTORE PUSH1 0x20 ADD DUP1 PUSH32 0x536166654D6174683A206164646974696F6E206F766572666C6F770000000000 DUP2 MSTORE POP PUSH1 0x20 ADD SWAP2 POP POP PUSH1 0x40 MLOAD DUP1 SWAP2 SUB SWAP1 REVERT JUMPDEST DUP1 SWAP2 POP POP SWAP3 SWAP2 POP POP JUMP JUMPDEST PUSH1 0x0 DUP1 PUSH1 0x0 DUP1 PUSH1 0x0 DUP1 PUSH1 0x0 DUP1 PUSH1 0x0 PUSH2 0x3C44 DUP11 PUSH2 0x43A1 JUMP JUMPDEST SWAP3 POP SWAP3 POP SWAP3 POP PUSH1 0x0 DUP1 PUSH1 0x0 PUSH2 0x3C62 DUP14 DUP7 DUP7 PUSH2 0x3C5D PUSH2 0x3B30 JUMP JUMPDEST PUSH2 0x43FB JUMP JUMPDEST SWAP3 POP SWAP3 POP SWAP3 POP DUP3 DUP3 DUP3 DUP9 DUP9 DUP9 SWAP12 POP SWAP12 POP SWAP12 POP SWAP12 POP SWAP12 POP SWAP12 POP POP POP POP POP POP POP SWAP2 SWAP4 SWAP6 POP SWAP2 SWAP4 SWAP6 JUMP JUMPDEST PUSH1 0x0 PUSH2 0x3CCB DUP4 DUP4 PUSH1 0x40 MLOAD DUP1 PUSH1 0x40 ADD PUSH1 0x40 MSTORE DUP1 PUSH1 0x1E DUP2 MSTORE PUSH1 0x20 ADD PUSH32 0x536166654D6174683A207375627472616374696F6E206F766572666C6F770000 DUP2 MSTORE POP PUSH2 0x3A70 JUMP JUMPDEST SWAP1 POP SWAP3 SWAP2 POP POP JUMP JUMPDEST PUSH1 0x0 DUP1 DUP4 EQ ISZERO PUSH2 0x3CE6 JUMPI PUSH1 0x0 SWAP1 POP PUSH2 0x3D53 JUMP JUMPDEST PUSH1 0x0 DUP3 DUP5 MUL SWAP1 POP DUP3 DUP5 DUP3 DUP2 PUSH2 0x3CF7 JUMPI INVALID JUMPDEST DIV EQ PUSH2 0x3D4E JUMPI PUSH1 0x40 MLOAD PUSH32 0x8C379A000000000000000000000000000000000000000000000000000000000 DUP2 MSTORE PUSH1 0x4 ADD DUP1 DUP1 PUSH1 0x20 ADD DUP3 DUP2 SUB DUP3 MSTORE PUSH1 0x21 DUP2 MSTORE PUSH1 0x20 ADD DUP1 PUSH2 0x5509 PUSH1 0x21 SWAP2 CODECOPY PUSH1 0x40 ADD SWAP2 POP POP PUSH1 0x40 MLOAD DUP1 SWAP2 SUB SWAP1 REVERT JUMPDEST DUP1 SWAP2 POP POP JUMPDEST SWAP3 SWAP2 POP POP JUMP JUMPDEST PUSH1 0x1 PUSH1 0x19 PUSH1 0x14 PUSH2 0x100 EXP DUP2 SLOAD DUP2 PUSH1 0xFF MUL NOT AND SWAP1 DUP4 ISZERO ISZERO MUL OR SWAP1 SSTORE POP PUSH2 0x3D7D DUP2 PUSH2 0x4484 JUMP JUMPDEST PUSH1 0x0 SELFBALANCE SWAP1 POP PUSH32 0x738B737502DF4C5F230BBB98A45EA9C2821BAD262E880F883357AD3695F8DAE4 DUP3 DUP3 PUSH1 0x40 MLOAD DUP1 DUP4 DUP2 MSTORE PUSH1 0x20 ADD DUP3 DUP2 MSTORE PUSH1 0x20 ADD SWAP3 POP POP POP PUSH1 0x40 MLOAD DUP1 SWAP2 SUB SWAP1 LOG1 PUSH1 0x0 DUP2 GT ISZERO PUSH2 0x3DD4 JUMPI PUSH2 0x3DD3 SELFBALANCE PUSH2 0x47B8 JUMP JUMPDEST JUMPDEST POP PUSH1 0x0 PUSH1 0x19 PUSH1 0x14 PUSH2 0x100 EXP DUP2 SLOAD DUP2 PUSH1 0xFF MUL NOT AND SWAP1 DUP4 ISZERO ISZERO MUL OR SWAP1 SSTORE POP POP JUMP JUMPDEST DUP1 PUSH2 0x3E01 JUMPI PUSH2 0x3E00 PUSH2 0x485B JUMP JUMPDEST JUMPDEST PUSH1 0xA PUSH1 0x0 DUP6 PUSH20 0xFFFFFFFFFFFFFFFFFFFFFFFFFFFFFFFFFFFFFFFF AND PUSH20 0xFFFFFFFFFFFFFFFFFFFFFFFFFFFFFFFFFFFFFFFF AND DUP2 MSTORE PUSH1 0x20 ADD SWAP1 DUP2 MSTORE PUSH1 0x20 ADD PUSH1 0x0 KECCAK256 PUSH1 0x0 SWAP1 SLOAD SWAP1 PUSH2 0x100 EXP SWAP1 DIV PUSH1 0xFF AND DUP1 ISZERO PUSH2 0x3EA4 JUMPI POP PUSH1 0xA PUSH1 0x0 DUP5 PUSH20 0xFFFFFFFFFFFFFFFFFFFFFFFFFFFFFFFFFFFFFFFF AND PUSH20 0xFFFFFFFFFFFFFFFFFFFFFFFFFFFFFFFFFFFFFFFF AND DUP2 MSTORE PUSH1 0x20 ADD SWAP1 DUP2 MSTORE PUSH1 0x20 ADD PUSH1 0x0 KECCAK256 PUSH1 0x0 SWAP1 SLOAD SWAP1 PUSH2 0x100 EXP SWAP1 DIV PUSH1 0xFF AND ISZERO JUMPDEST ISZERO PUSH2 0x3EB9 JUMPI PUSH2 0x3EB4 DUP5 DUP5 DUP5 PUSH2 0x489E JUMP JUMPDEST PUSH2 0x4036 JUMP JUMPDEST PUSH1 0xA PUSH1 0x0 DUP6 PUSH20 0xFFFFFFFFFFFFFFFFFFFFFFFFFFFFFFFFFFFFFFFF AND PUSH20 0xFFFFFFFFFFFFFFFFFFFFFFFFFFFFFFFFFFFFFFFF AND DUP2 MSTORE PUSH1 0x20 ADD SWAP1 DUP2 MSTORE PUSH1 0x20 ADD PUSH1 0x0 KECCAK256 PUSH1 0x0 SWAP1 SLOAD SWAP1 PUSH2 0x100 EXP SWAP1 DIV PUSH1 0xFF AND ISZERO DUP1 ISZERO PUSH2 0x3F5C JUMPI POP PUSH1 0xA PUSH1 0x0 DUP5 PUSH20 0xFFFFFFFFFFFFFFFFFFFFFFFFFFFFFFFFFFFFFFFF AND PUSH20 0xFFFFFFFFFFFFFFFFFFFFFFFFFFFFFFFFFFFFFFFF AND DUP2 MSTORE PUSH1 0x20 ADD SWAP1 DUP2 MSTORE PUSH1 0x20 ADD PUSH1 0x0 KECCAK256 PUSH1 0x0 SWAP1 SLOAD SWAP1 PUSH2 0x100 EXP SWAP1 DIV PUSH1 0xFF AND JUMPDEST ISZERO PUSH2 0x3F71 JUMPI PUSH2 0x3F6C DUP5 DUP5 DUP5 PUSH2 0x4AFE JUMP JUMPDEST PUSH2 0x4035 JUMP JUMPDEST PUSH1 0xA PUSH1 0x0 DUP6 PUSH20 0xFFFFFFFFFFFFFFFFFFFFFFFFFFFFFFFFFFFFFFFF AND PUSH20 0xFFFFFFFFFFFFFFFFFFFFFFFFFFFFFFFFFFFFFFFF AND DUP2 MSTORE PUSH1 0x20 ADD SWAP1 DUP2 MSTORE PUSH1 0x20 ADD PUSH1 0x0 KECCAK256 PUSH1 0x0 SWAP1 SLOAD SWAP1 PUSH2 0x100 EXP SWAP1 DIV PUSH1 0xFF AND DUP1 ISZERO PUSH2 0x4013 JUMPI POP PUSH1 0xA PUSH1 0x0 DUP5 PUSH20 0xFFFFFFFFFFFFFFFFFFFFFFFFFFFFFFFFFFFFFFFF AND PUSH20 0xFFFFFFFFFFFFFFFFFFFFFFFFFFFFFFFFFFFFFFFF AND DUP2 MSTORE PUSH1 0x20 ADD SWAP1 DUP2 MSTORE PUSH1 0x20 ADD PUSH1 0x0 KECCAK256 PUSH1 0x0 SWAP1 SLOAD SWAP1 PUSH2 0x100 EXP SWAP1 DIV PUSH1 0xFF AND JUMPDEST ISZERO PUSH2 0x4028 JUMPI PUSH2 0x4023 DUP5 DUP5 DUP5 PUSH2 0x4D5E JUMP JUMPDEST PUSH2 0x4034 JUMP JUMPDEST PUSH2 0x4033 DUP5 DUP5 DUP5 PUSH2 0x5053 JUMP JUMPDEST JUMPDEST JUMPDEST JUMPDEST DUP1 PUSH2 0x4044 JUMPI PUSH2 0x4043 PUSH2 0x521E JUMP JUMPDEST JUMPDEST POP POP POP POP JUMP JUMPDEST PUSH1 0x0 DUP1 PUSH1 0x0 PUSH1 0xD SLOAD SWAP1 POP PUSH1 0x0 PUSH1 0xC SLOAD SWAP1 POP PUSH1 0x0 JUMPDEST PUSH1 0xB DUP1 SLOAD SWAP1 POP DUP2 LT ISZERO PUSH2 0x429E JUMPI DUP3 PUSH1 0x4 PUSH1 0x0 PUSH1 0xB DUP5 DUP2 SLOAD DUP2 LT PUSH2 0x407D JUMPI INVALID JUMPDEST SWAP1 PUSH1 0x0 MSTORE PUSH1 0x20 PUSH1 0x0 KECCAK256 ADD PUSH1 0x0 SWAP1 SLOAD SWAP1 PUSH2 0x100 EXP SWAP1 DIV PUSH20 0xFFFFFFFFFFFFFFFFFFFFFFFFFFFFFFFFFFFFFFFF AND PUSH20 0xFFFFFFFFFFFFFFFFFFFFFFFFFFFFFFFFFFFFFFFF AND PUSH20 0xFFFFFFFFFFFFFFFFFFFFFFFFFFFFFFFFFFFFFFFF AND DUP2 MSTORE PUSH1 0x20 ADD SWAP1 DUP2 MSTORE PUSH1 0x20 ADD PUSH1 0x0 KECCAK256 SLOAD GT DUP1 PUSH2 0x4164 JUMPI POP DUP2 PUSH1 0x5 PUSH1 0x0 PUSH1 0xB DUP5 DUP2 SLOAD DUP2 LT PUSH2 0x40FC JUMPI INVALID JUMPDEST SWAP1 PUSH1 0x0 MSTORE PUSH1 0x20 PUSH1 0x0 KECCAK256 ADD PUSH1 0x0 SWAP1 SLOAD SWAP1 PUSH2 0x100 EXP SWAP1 DIV PUSH20 0xFFFFFFFFFFFFFFFFFFFFFFFFFFFFFFFFFFFFFFFF AND PUSH20 0xFFFFFFFFFFFFFFFFFFFFFFFFFFFFFFFFFFFFFFFF AND PUSH20 0xFFFFFFFFFFFFFFFFFFFFFFFFFFFFFFFFFFFFFFFF AND DUP2 MSTORE PUSH1 0x20 ADD SWAP1 DUP2 MSTORE PUSH1 0x20 ADD PUSH1 0x0 KECCAK256 SLOAD GT JUMPDEST ISZERO PUSH2 0x417B JUMPI PUSH1 0xD SLOAD PUSH1 0xC SLOAD SWAP5 POP SWAP5 POP POP POP POP PUSH2 0x42D7 JUMP JUMPDEST PUSH2 0x4204 PUSH1 0x4 PUSH1 0x0 PUSH1 0xB DUP5 DUP2 SLOAD DUP2 LT PUSH2 0x418F JUMPI INVALID JUMPDEST SWAP1 PUSH1 0x0 MSTORE PUSH1 0x20 PUSH1 0x0 KECCAK256 ADD PUSH1 0x0 SWAP1 SLOAD SWAP1 PUSH2 0x100 EXP SWAP1 DIV PUSH20 0xFFFFFFFFFFFFFFFFFFFFFFFFFFFFFFFFFFFFFFFF AND PUSH20 0xFFFFFFFFFFFFFFFFFFFFFFFFFFFFFFFFFFFFFFFF AND PUSH20 0xFFFFFFFFFFFFFFFFFFFFFFFFFFFFFFFFFFFFFFFF AND DUP2 MSTORE PUSH1 0x20 ADD SWAP1 DUP2 MSTORE PUSH1 0x20 ADD PUSH1 0x0 KECCAK256 SLOAD DUP5 PUSH2 0x3C89 SWAP1 SWAP2 SWAP1 PUSH4 0xFFFFFFFF AND JUMP JUMPDEST SWAP3 POP PUSH2 0x428F PUSH1 0x5 PUSH1 0x0 PUSH1 0xB DUP5 DUP2 SLOAD DUP2 LT PUSH2 0x421A JUMPI INVALID JUMPDEST SWAP1 PUSH1 0x0 MSTORE PUSH1 0x20 PUSH1 0x0 KECCAK256 ADD PUSH1 0x0 SWAP1 SLOAD SWAP1 PUSH2 0x100 EXP SWAP1 DIV PUSH20 0xFFFFFFFFFFFFFFFFFFFFFFFFFFFFFFFFFFFFFFFF AND PUSH20 0xFFFFFFFFFFFFFFFFFFFFFFFFFFFFFFFFFFFFFFFF AND PUSH20 0xFFFFFFFFFFFFFFFFFFFFFFFFFFFFFFFFFFFFFFFF AND DUP2 MSTORE PUSH1 0x20 ADD SWAP1 DUP2 MSTORE PUSH1 0x20 ADD PUSH1 0x0 KECCAK256 SLOAD DUP4 PUSH2 0x3C89 SWAP1 SWAP2 SWAP1 PUSH4 0xFFFFFFFF AND JUMP JUMPDEST SWAP2 POP DUP1 DUP1 PUSH1 0x1 ADD SWAP2 POP POP PUSH2 0x405E JUMP JUMPDEST POP PUSH2 0x42B6 PUSH1 0xC SLOAD PUSH1 0xD SLOAD PUSH2 0x3B5B SWAP1 SWAP2 SWAP1 PUSH4 0xFFFFFFFF AND JUMP JUMPDEST DUP3 LT ISZERO PUSH2 0x42CE JUMPI PUSH1 0xD SLOAD PUSH1 0xC SLOAD SWAP4 POP SWAP4 POP POP POP PUSH2 0x42D7 JUMP JUMPDEST DUP2 DUP2 SWAP4 POP SWAP4 POP POP POP JUMPDEST SWAP1 SWAP2 JUMP JUMPDEST PUSH1 0x0 DUP1 DUP4 GT DUP3 SWAP1 PUSH2 0x4387 JUMPI PUSH1 0x40 MLOAD PUSH32 0x8C379A000000000000000000000000000000000000000000000000000000000 DUP2 MSTORE PUSH1 0x4 ADD DUP1 DUP1 PUSH1 0x20 ADD DUP3 DUP2 SUB DUP3 MSTORE DUP4 DUP2 DUP2 MLOAD DUP2 MSTORE PUSH1 0x20 ADD SWAP2 POP DUP1 MLOAD SWAP1 PUSH1 0x20 ADD SWAP1 DUP1 DUP4 DUP4 PUSH1 0x0 JUMPDEST DUP4 DUP2 LT ISZERO PUSH2 0x434C JUMPI DUP1 DUP3 ADD MLOAD DUP2 DUP5 ADD MSTORE PUSH1 0x20 DUP2 ADD SWAP1 POP PUSH2 0x4331 JUMP JUMPDEST POP POP POP POP SWAP1 POP SWAP1 DUP2 ADD SWAP1 PUSH1 0x1F AND DUP1 ISZERO PUSH2 0x4379 JUMPI DUP1 DUP3 SUB DUP1 MLOAD PUSH1 0x1 DUP4 PUSH1 0x20 SUB PUSH2 0x100 EXP SUB NOT AND DUP2 MSTORE PUSH1 0x20 ADD SWAP2 POP JUMPDEST POP SWAP3 POP POP POP PUSH1 0x40 MLOAD DUP1 SWAP2 SUB SWAP1 REVERT JUMPDEST POP PUSH1 0x0 DUP4 DUP6 DUP2 PUSH2 0x4393 JUMPI INVALID JUMPDEST DIV SWAP1 POP DUP1 SWAP2 POP POP SWAP4 SWAP3 POP POP POP JUMP JUMPDEST PUSH1 0x0 DUP1 PUSH1 0x0 DUP1 PUSH2 0x43B0 DUP6 PUSH2 0x5232 JUMP JUMPDEST SWAP1 POP PUSH1 0x0 PUSH2 0x43BD DUP7 PUSH2 0x5263 JUMP JUMPDEST SWAP1 POP PUSH1 0x0 PUSH2 0x43E6 DUP3 PUSH2 0x43D8 DUP6 DUP11 PUSH2 0x3C89 SWAP1 SWAP2 SWAP1 PUSH4 0xFFFFFFFF AND JUMP JUMPDEST PUSH2 0x3C89 SWAP1 SWAP2 SWAP1 PUSH4 0xFFFFFFFF AND JUMP JUMPDEST SWAP1 POP DUP1 DUP4 DUP4 SWAP6 POP SWAP6 POP SWAP6 POP POP POP POP SWAP2 SWAP4 SWAP1 SWAP3 POP JUMP JUMPDEST PUSH1 0x0 DUP1 PUSH1 0x0 DUP1 PUSH2 0x4414 DUP6 DUP10 PUSH2 0x3CD3 SWAP1 SWAP2 SWAP1 PUSH4 0xFFFFFFFF AND JUMP JUMPDEST SWAP1 POP PUSH1 0x0 PUSH2 0x442B DUP7 DUP10 PUSH2 0x3CD3 SWAP1 SWAP2 SWAP1 PUSH4 0xFFFFFFFF AND JUMP JUMPDEST SWAP1 POP PUSH1 0x0 PUSH2 0x4442 DUP8 DUP10 PUSH2 0x3CD3 SWAP1 SWAP2 SWAP1 PUSH4 0xFFFFFFFF AND JUMP JUMPDEST SWAP1 POP PUSH1 0x0 PUSH2 0x446B DUP3 PUSH2 0x445D DUP6 DUP8 PUSH2 0x3C89 SWAP1 SWAP2 SWAP1 PUSH4 0xFFFFFFFF AND JUMP JUMPDEST PUSH2 0x3C89 SWAP1 SWAP2 SWAP1 PUSH4 0xFFFFFFFF AND JUMP JUMPDEST SWAP1 POP DUP4 DUP2 DUP5 SWAP7 POP SWAP7 POP SWAP7 POP POP POP POP POP SWAP5 POP SWAP5 POP SWAP5 SWAP2 POP POP JUMP JUMPDEST PUSH1 0x60 PUSH1 0x2 PUSH8 0xFFFFFFFFFFFFFFFF DUP2 GT DUP1 ISZERO PUSH2 0x449E JUMPI PUSH1 0x0 DUP1 REVERT JUMPDEST POP PUSH1 0x40 MLOAD SWAP1 DUP1 DUP3 MSTORE DUP1 PUSH1 0x20 MUL PUSH1 0x20 ADD DUP3 ADD PUSH1 0x40 MSTORE DUP1 ISZERO PUSH2 0x44CD JUMPI DUP2 PUSH1 0x20 ADD PUSH1 0x20 DUP3 MUL DUP1 CALLDATASIZE DUP4 CALLDATACOPY DUP1 DUP3 ADD SWAP2 POP POP SWAP1 POP JUMPDEST POP SWAP1 POP ADDRESS DUP2 PUSH1 0x0 DUP2 MLOAD DUP2 LT PUSH2 0x44DE JUMPI INVALID JUMPDEST PUSH1 0x20 MUL PUSH1 0x20 ADD ADD SWAP1 PUSH20 0xFFFFFFFFFFFFFFFFFFFFFFFFFFFFFFFFFFFFFFFF AND SWAP1 DUP2 PUSH20 0xFFFFFFFFFFFFFFFFFFFFFFFFFFFFFFFFFFFFFFFF AND DUP2 MSTORE POP POP PUSH1 0x18 PUSH1 0x0 SWAP1 SLOAD SWAP1 PUSH2 0x100 EXP SWAP1 DIV PUSH20 0xFFFFFFFFFFFFFFFFFFFFFFFFFFFFFFFFFFFFFFFF AND PUSH20 0xFFFFFFFFFFFFFFFFFFFFFFFFFFFFFFFFFFFFFFFF AND PUSH4 0xAD5C4648 PUSH1 0x40 MLOAD DUP2 PUSH4 0xFFFFFFFF AND PUSH1 0xE0 SHL DUP2 MSTORE PUSH1 0x4 ADD PUSH1 0x20 PUSH1 0x40 MLOAD DUP1 DUP4 SUB DUP2 DUP7 DUP1 EXTCODESIZE ISZERO DUP1 ISZERO PUSH2 0x4580 JUMPI PUSH1 0x0 DUP1 REVERT JUMPDEST POP GAS STATICCALL ISZERO DUP1 ISZERO PUSH2 0x4594 JUMPI RETURNDATASIZE PUSH1 0x0 DUP1 RETURNDATACOPY RETURNDATASIZE PUSH1 0x0 REVERT JUMPDEST POP POP POP POP PUSH1 0x40 MLOAD RETURNDATASIZE PUSH1 0x20 DUP2 LT ISZERO PUSH2 0x45AA JUMPI PUSH1 0x0 DUP1 REVERT JUMPDEST DUP2 ADD SWAP1 DUP1 DUP1 MLOAD SWAP1 PUSH1 0x20 ADD SWAP1 SWAP3 SWAP2 SWAP1 POP POP POP DUP2 PUSH1 0x1 DUP2 MLOAD DUP2 LT PUSH2 0x45C8 JUMPI INVALID JUMPDEST PUSH1 0x20 MUL PUSH1 0x20 ADD ADD SWAP1 PUSH20 0xFFFFFFFFFFFFFFFFFFFFFFFFFFFFFFFFFFFFFFFF AND SWAP1 DUP2 PUSH20 0xFFFFFFFFFFFFFFFFFFFFFFFFFFFFFFFFFFFFFFFF AND DUP2 MSTORE POP POP PUSH2 0x462F ADDRESS PUSH1 0x18 PUSH1 0x0 SWAP1 SLOAD SWAP1 PUSH2 0x100 EXP SWAP1 DIV PUSH20 0xFFFFFFFFFFFFFFFFFFFFFFFFFFFFFFFFFFFFFFFF AND DUP5 PUSH2 0x307D JUMP JUMPDEST PUSH1 0x18 PUSH1 0x0 SWAP1 SLOAD SWAP1 PUSH2 0x100 EXP SWAP1 DIV PUSH20 0xFFFFFFFFFFFFFFFFFFFFFFFFFFFFFFFFFFFFFFFF AND PUSH20 0xFFFFFFFFFFFFFFFFFFFFFFFFFFFFFFFFFFFFFFFF AND PUSH4 0x791AC947 DUP4 PUSH1 0x0 DUP5 ADDRESS TIMESTAMP PUSH1 0x40 MLOAD DUP7 PUSH4 0xFFFFFFFF AND PUSH1 0xE0 SHL DUP2 MSTORE PUSH1 0x4 ADD DUP1 DUP7 DUP2 MSTORE PUSH1 0x20 ADD DUP6 DUP2 MSTORE PUSH1 0x20 ADD DUP1 PUSH1 0x20 ADD DUP5 PUSH20 0xFFFFFFFFFFFFFFFFFFFFFFFFFFFFFFFFFFFFFFFF AND DUP2 MSTORE PUSH1 0x20 ADD DUP4 DUP2 MSTORE PUSH1 0x20 ADD DUP3 DUP2 SUB DUP3 MSTORE DUP6 DUP2 DUP2 MLOAD DUP2 MSTORE PUSH1 0x20 ADD SWAP2 POP DUP1 MLOAD SWAP1 PUSH1 0x20 ADD SWAP1 PUSH1 0x20 MUL DUP1 DUP4 DUP4 PUSH1 0x0 JUMPDEST DUP4 DUP2 LT ISZERO PUSH2 0x46F3 JUMPI DUP1 DUP3 ADD MLOAD DUP2 DUP5 ADD MSTORE PUSH1 0x20 DUP2 ADD SWAP1 POP PUSH2 0x46D8 JUMP JUMPDEST POP POP POP POP SWAP1 POP ADD SWAP7 POP POP POP POP POP POP POP PUSH1 0x0 PUSH1 0x40 MLOAD DUP1 DUP4 SUB DUP2 PUSH1 0x0 DUP8 DUP1 EXTCODESIZE ISZERO DUP1 ISZERO PUSH2 0x471C JUMPI PUSH1 0x0 DUP1 REVERT JUMPDEST POP GAS CALL ISZERO DUP1 ISZERO PUSH2 0x4730 JUMPI RETURNDATASIZE PUSH1 0x0 DUP1 RETURNDATACOPY RETURNDATASIZE PUSH1 0x0 REVERT JUMPDEST POP POP POP POP PUSH32 0x32CDE87EB454F3A0B875AB23547023107CFAD454363EC88BA5695E2C24AA52A7 DUP3 DUP3 PUSH1 0x40 MLOAD DUP1 DUP4 DUP2 MSTORE PUSH1 0x20 ADD DUP1 PUSH1 0x20 ADD DUP3 DUP2 SUB DUP3 MSTORE DUP4 DUP2 DUP2 MLOAD DUP2 MSTORE PUSH1 0x20 ADD SWAP2 POP DUP1 MLOAD SWAP1 PUSH1 0x20 ADD SWAP1 PUSH1 0x20 MUL DUP1 DUP4 DUP4 PUSH1 0x0 JUMPDEST DUP4 DUP2 LT ISZERO PUSH2 0x47A0 JUMPI DUP1 DUP3 ADD MLOAD DUP2 DUP5 ADD MSTORE PUSH1 0x20 DUP2 ADD SWAP1 POP PUSH2 0x4785 JUMP JUMPDEST POP POP POP POP SWAP1 POP ADD SWAP4 POP POP POP POP PUSH1 0x40 MLOAD DUP1 SWAP2 SUB SWAP1 LOG1 POP POP JUMP JUMPDEST PUSH1 0x3 PUSH1 0x0 SWAP1 SLOAD SWAP1 PUSH2 0x100 EXP SWAP1 DIV PUSH20 0xFFFFFFFFFFFFFFFFFFFFFFFFFFFFFFFFFFFFFFFF AND PUSH20 0xFFFFFFFFFFFFFFFFFFFFFFFFFFFFFFFFFFFFFFFF AND PUSH2 0x8FC DUP3 SWAP1 DUP2 ISZERO MUL SWAP1 PUSH1 0x40 MLOAD PUSH1 0x0 PUSH1 0x40 MLOAD DUP1 DUP4 SUB DUP2 DUP6 DUP9 DUP9 CALL SWAP4 POP POP POP POP ISZERO DUP1 ISZERO PUSH2 0x4820 JUMPI RETURNDATASIZE PUSH1 0x0 DUP1 RETURNDATACOPY RETURNDATASIZE PUSH1 0x0 REVERT JUMPDEST POP PUSH32 0xB6B34F3CFEF2B0BB0E47223AB355FF7C3615A62FE5F469444611E679411246C6 DUP2 PUSH1 0x40 MLOAD DUP1 DUP3 DUP2 MSTORE PUSH1 0x20 ADD SWAP2 POP POP PUSH1 0x40 MLOAD DUP1 SWAP2 SUB SWAP1 LOG1 POP JUMP JUMPDEST PUSH1 0x0 PUSH1 0x12 SLOAD EQ DUP1 ISZERO PUSH2 0x486F JUMPI POP PUSH1 0x0 PUSH1 0x14 SLOAD EQ JUMPDEST ISZERO PUSH2 0x4879 JUMPI PUSH2 0x489C JUMP JUMPDEST PUSH1 0x12 SLOAD PUSH1 0x13 DUP2 SWAP1 SSTORE POP PUSH1 0x14 SLOAD PUSH1 0x15 DUP2 SWAP1 SSTORE POP PUSH1 0x0 PUSH1 0x12 DUP2 SWAP1 SSTORE POP PUSH1 0x0 PUSH1 0x14 DUP2 SWAP1 SSTORE POP JUMPDEST JUMP JUMPDEST PUSH1 0x0 DUP1 PUSH1 0x0 DUP1 PUSH1 0x0 DUP1 PUSH2 0x48B0 DUP8 PUSH2 0x3C2D JUMP JUMPDEST SWAP6 POP SWAP6 POP SWAP6 POP SWAP6 POP SWAP6 POP SWAP6 POP PUSH2 0x490E DUP8 PUSH1 0x5 PUSH1 0x0 DUP13 PUSH20 0xFFFFFFFFFFFFFFFFFFFFFFFFFFFFFFFFFFFFFFFF AND PUSH20 0xFFFFFFFFFFFFFFFFFFFFFFFFFFFFFFFFFFFFFFFF AND DUP2 MSTORE PUSH1 0x20 ADD SWAP1 DUP2 MSTORE PUSH1 0x20 ADD PUSH1 0x0 KECCAK256 SLOAD PUSH2 0x3C89 SWAP1 SWAP2 SWAP1 PUSH4 0xFFFFFFFF AND JUMP JUMPDEST PUSH1 0x5 PUSH1 0x0 DUP12 PUSH20 0xFFFFFFFFFFFFFFFFFFFFFFFFFFFFFFFFFFFFFFFF AND PUSH20 0xFFFFFFFFFFFFFFFFFFFFFFFFFFFFFFFFFFFFFFFF AND DUP2 MSTORE PUSH1 0x20 ADD SWAP1 DUP2 MSTORE PUSH1 0x20 ADD PUSH1 0x0 KECCAK256 DUP2 SWAP1 SSTORE POP PUSH2 0x49A3 DUP7 PUSH1 0x4 PUSH1 0x0 DUP13 PUSH20 0xFFFFFFFFFFFFFFFFFFFFFFFFFFFFFFFFFFFFFFFF AND PUSH20 0xFFFFFFFFFFFFFFFFFFFFFFFFFFFFFFFFFFFFFFFF AND DUP2 MSTORE PUSH1 0x20 ADD SWAP1 DUP2 MSTORE PUSH1 0x20 ADD PUSH1 0x0 KECCAK256 SLOAD PUSH2 0x3C89 SWAP1 SWAP2 SWAP1 PUSH4 0xFFFFFFFF AND JUMP JUMPDEST PUSH1 0x4 PUSH1 0x0 DUP12 PUSH20 0xFFFFFFFFFFFFFFFFFFFFFFFFFFFFFFFFFFFFFFFF AND PUSH20 0xFFFFFFFFFFFFFFFFFFFFFFFFFFFFFFFFFFFFFFFF AND DUP2 MSTORE PUSH1 0x20 ADD SWAP1 DUP2 MSTORE PUSH1 0x20 ADD PUSH1 0x0 KECCAK256 DUP2 SWAP1 SSTORE POP PUSH2 0x4A38 DUP6 PUSH1 0x4 PUSH1 0x0 DUP12 PUSH20 0xFFFFFFFFFFFFFFFFFFFFFFFFFFFFFFFFFFFFFFFF AND PUSH20 0xFFFFFFFFFFFFFFFFFFFFFFFFFFFFFFFFFFFFFFFF AND DUP2 MSTORE PUSH1 0x20 ADD SWAP1 DUP2 MSTORE PUSH1 0x20 ADD PUSH1 0x0 KECCAK256 SLOAD PUSH2 0x3BA5 SWAP1 SWAP2 SWAP1 PUSH4 0xFFFFFFFF AND JUMP JUMPDEST PUSH1 0x4 PUSH1 0x0 DUP11 PUSH20 0xFFFFFFFFFFFFFFFFFFFFFFFFFFFFFFFFFFFFFFFF AND PUSH20 0xFFFFFFFFFFFFFFFFFFFFFFFFFFFFFFFFFFFFFFFF AND DUP2 MSTORE PUSH1 0x20 ADD SWAP1 DUP2 MSTORE PUSH1 0x20 ADD PUSH1 0x0 KECCAK256 DUP2 SWAP1 SSTORE POP PUSH2 0x4A84 DUP2 PUSH2 0x5294 JUMP JUMPDEST PUSH2 0x4A8E DUP5 DUP4 PUSH2 0x5439 JUMP JUMPDEST DUP8 PUSH20 0xFFFFFFFFFFFFFFFFFFFFFFFFFFFFFFFFFFFFFFFF AND DUP10 PUSH20 0xFFFFFFFFFFFFFFFFFFFFFFFFFFFFFFFFFFFFFFFF AND PUSH32 0xDDF252AD1BE2C89B69C2B068FC378DAA952BA7F163C4A11628F55A4DF523B3EF DUP6 PUSH1 0x40 MLOAD DUP1 DUP3 DUP2 MSTORE PUSH1 0x20 ADD SWAP2 POP POP PUSH1 0x40 MLOAD DUP1 SWAP2 SUB SWAP1 LOG3 POP POP POP POP POP POP POP POP POP JUMP JUMPDEST PUSH1 0x0 DUP1 PUSH1 0x0 DUP1 PUSH1 0x0 DUP1 PUSH2 0x4B10 DUP8 PUSH2 0x3C2D JUMP JUMPDEST SWAP6 POP SWAP6 POP SWAP6 POP SWAP6 POP SWAP6 POP SWAP6 POP PUSH2 0x4B6E DUP7 PUSH1 0x4 PUSH1 0x0 DUP13 PUSH20 0xFFFFFFFFFFFFFFFFFFFFFFFFFFFFFFFFFFFFFFFF AND PUSH20 0xFFFFFFFFFFFFFFFFFFFFFFFFFFFFFFFFFFFFFFFF AND DUP2 MSTORE PUSH1 0x20 ADD SWAP1 DUP2 MSTORE PUSH1 0x20 ADD PUSH1 0x0 KECCAK256 SLOAD PUSH2 0x3C89 SWAP1 SWAP2 SWAP1 PUSH4 0xFFFFFFFF AND JUMP JUMPDEST PUSH1 0x4 PUSH1 0x0 DUP12 PUSH20 0xFFFFFFFFFFFFFFFFFFFFFFFFFFFFFFFFFFFFFFFF AND PUSH20 0xFFFFFFFFFFFFFFFFFFFFFFFFFFFFFFFFFFFFFFFF AND DUP2 MSTORE PUSH1 0x20 ADD SWAP1 DUP2 MSTORE PUSH1 0x20 ADD PUSH1 0x0 KECCAK256 DUP2 SWAP1 SSTORE POP PUSH2 0x4C03 DUP4 PUSH1 0x5 PUSH1 0x0 DUP12 PUSH20 0xFFFFFFFFFFFFFFFFFFFFFFFFFFFFFFFFFFFFFFFF AND PUSH20 0xFFFFFFFFFFFFFFFFFFFFFFFFFFFFFFFFFFFFFFFF AND DUP2 MSTORE PUSH1 0x20 ADD SWAP1 DUP2 MSTORE PUSH1 0x20 ADD PUSH1 0x0 KECCAK256 SLOAD PUSH2 0x3BA5 SWAP1 SWAP2 SWAP1 PUSH4 0xFFFFFFFF AND JUMP JUMPDEST PUSH1 0x5 PUSH1 0x0 DUP11 PUSH20 0xFFFFFFFFFFFFFFFFFFFFFFFFFFFFFFFFFFFFFFFF AND PUSH20 0xFFFFFFFFFFFFFFFFFFFFFFFFFFFFFFFFFFFFFFFF AND DUP2 MSTORE PUSH1 0x20 ADD SWAP1 DUP2 MSTORE PUSH1 0x20 ADD PUSH1 0x0 KECCAK256 DUP2 SWAP1 SSTORE POP PUSH2 0x4C98 DUP6 PUSH1 0x4 PUSH1 0x0 DUP12 PUSH20 0xFFFFFFFFFFFFFFFFFFFFFFFFFFFFFFFFFFFFFFFF AND PUSH20 0xFFFFFFFFFFFFFFFFFFFFFFFFFFFFFFFFFFFFFFFF AND DUP2 MSTORE PUSH1 0x20 ADD SWAP1 DUP2 MSTORE PUSH1 0x20 ADD PUSH1 0x0 KECCAK256 SLOAD PUSH2 0x3BA5 SWAP1 SWAP2 SWAP1 PUSH4 0xFFFFFFFF AND JUMP JUMPDEST PUSH1 0x4 PUSH1 0x0 DUP11 PUSH20 0xFFFFFFFFFFFFFFFFFFFFFFFFFFFFFFFFFFFFFFFF AND PUSH20 0xFFFFFFFFFFFFFFFFFFFFFFFFFFFFFFFFFFFFFFFF AND DUP2 MSTORE PUSH1 0x20 ADD SWAP1 DUP2 MSTORE PUSH1 0x20 ADD PUSH1 0x0 KECCAK256 DUP2 SWAP1 SSTORE POP PUSH2 0x4CE4 DUP2 PUSH2 0x5294 JUMP JUMPDEST PUSH2 0x4CEE DUP5 DUP4 PUSH2 0x5439 JUMP JUMPDEST DUP8 PUSH20 0xFFFFFFFFFFFFFFFFFFFFFFFFFFFFFFFFFFFFFFFF AND DUP10 PUSH20 0xFFFFFFFFFFFFFFFFFFFFFFFFFFFFFFFFFFFFFFFF AND PUSH32 0xDDF252AD1BE2C89B69C2B068FC378DAA952BA7F163C4A11628F55A4DF523B3EF DUP6 PUSH1 0x40 MLOAD DUP1 DUP3 DUP2 MSTORE PUSH1 0x20 ADD SWAP2 POP POP PUSH1 0x40 MLOAD DUP1 SWAP2 SUB SWAP1 LOG3 POP POP POP POP POP POP POP POP POP JUMP JUMPDEST PUSH1 0x0 DUP1 PUSH1 0x0 DUP1 PUSH1 0x0 DUP1 PUSH2 0x4D70 DUP8 PUSH2 0x3C2D JUMP JUMPDEST SWAP6 POP SWAP6 POP SWAP6 POP SWAP6 POP SWAP6 POP SWAP6 POP PUSH2 0x4DCE DUP8 PUSH1 0x5 PUSH1 0x0 DUP13 PUSH20 0xFFFFFFFFFFFFFFFFFFFFFFFFFFFFFFFFFFFFFFFF AND PUSH20 0xFFFFFFFFFFFFFFFFFFFFFFFFFFFFFFFFFFFFFFFF AND DUP2 MSTORE PUSH1 0x20 ADD SWAP1 DUP2 MSTORE PUSH1 0x20 ADD PUSH1 0x0 KECCAK256 SLOAD PUSH2 0x3C89 SWAP1 SWAP2 SWAP1 PUSH4 0xFFFFFFFF AND JUMP JUMPDEST PUSH1 0x5 PUSH1 0x0 DUP12 PUSH20 0xFFFFFFFFFFFFFFFFFFFFFFFFFFFFFFFFFFFFFFFF AND PUSH20 0xFFFFFFFFFFFFFFFFFFFFFFFFFFFFFFFFFFFFFFFF AND DUP2 MSTORE PUSH1 0x20 ADD SWAP1 DUP2 MSTORE PUSH1 0x20 ADD PUSH1 0x0 KECCAK256 DUP2 SWAP1 SSTORE POP PUSH2 0x4E63 DUP7 PUSH1 0x4 PUSH1 0x0 DUP13 PUSH20 0xFFFFFFFFFFFFFFFFFFFFFFFFFFFFFFFFFFFFFFFF AND PUSH20 0xFFFFFFFFFFFFFFFFFFFFFFFFFFFFFFFFFFFFFFFF AND DUP2 MSTORE PUSH1 0x20 ADD SWAP1 DUP2 MSTORE PUSH1 0x20 ADD PUSH1 0x0 KECCAK256 SLOAD PUSH2 0x3C89 SWAP1 SWAP2 SWAP1 PUSH4 0xFFFFFFFF AND JUMP JUMPDEST PUSH1 0x4 PUSH1 0x0 DUP12 PUSH20 0xFFFFFFFFFFFFFFFFFFFFFFFFFFFFFFFFFFFFFFFF AND PUSH20 0xFFFFFFFFFFFFFFFFFFFFFFFFFFFFFFFFFFFFFFFF AND DUP2 MSTORE PUSH1 0x20 ADD SWAP1 DUP2 MSTORE PUSH1 0x20 ADD PUSH1 0x0 KECCAK256 DUP2 SWAP1 SSTORE POP PUSH2 0x4EF8 DUP4 PUSH1 0x5 PUSH1 0x0 DUP12 PUSH20 0xFFFFFFFFFFFFFFFFFFFFFFFFFFFFFFFFFFFFFFFF AND PUSH20 0xFFFFFFFFFFFFFFFFFFFFFFFFFFFFFFFFFFFFFFFF AND DUP2 MSTORE PUSH1 0x20 ADD SWAP1 DUP2 MSTORE PUSH1 0x20 ADD PUSH1 0x0 KECCAK256 SLOAD PUSH2 0x3BA5 SWAP1 SWAP2 SWAP1 PUSH4 0xFFFFFFFF AND JUMP JUMPDEST PUSH1 0x5 PUSH1 0x0 DUP11 PUSH20 0xFFFFFFFFFFFFFFFFFFFFFFFFFFFFFFFFFFFFFFFF AND PUSH20 0xFFFFFFFFFFFFFFFFFFFFFFFFFFFFFFFFFFFFFFFF AND DUP2 MSTORE PUSH1 0x20 ADD SWAP1 DUP2 MSTORE PUSH1 0x20 ADD PUSH1 0x0 KECCAK256 DUP2 SWAP1 SSTORE POP PUSH2 0x4F8D DUP6 PUSH1 0x4 PUSH1 0x0 DUP12 PUSH20 0xFFFFFFFFFFFFFFFFFFFFFFFFFFFFFFFFFFFFFFFF AND PUSH20 0xFFFFFFFFFFFFFFFFFFFFFFFFFFFFFFFFFFFFFFFF AND DUP2 MSTORE PUSH1 0x20 ADD SWAP1 DUP2 MSTORE PUSH1 0x20 ADD PUSH1 0x0 KECCAK256 SLOAD PUSH2 0x3BA5 SWAP1 SWAP2 SWAP1 PUSH4 0xFFFFFFFF AND JUMP JUMPDEST PUSH1 0x4 PUSH1 0x0 DUP11 PUSH20 0xFFFFFFFFFFFFFFFFFFFFFFFFFFFFFFFFFFFFFFFF AND PUSH20 0xFFFFFFFFFFFFFFFFFFFFFFFFFFFFFFFFFFFFFFFF AND DUP2 MSTORE PUSH1 0x20 ADD SWAP1 DUP2 MSTORE PUSH1 0x20 ADD PUSH1 0x0 KECCAK256 DUP2 SWAP1 SSTORE POP PUSH2 0x4FD9 DUP2 PUSH2 0x5294 JUMP JUMPDEST PUSH2 0x4FE3 DUP5 DUP4 PUSH2 0x5439 JUMP JUMPDEST DUP8 PUSH20 0xFFFFFFFFFFFFFFFFFFFFFFFFFFFFFFFFFFFFFFFF AND DUP10 PUSH20 0xFFFFFFFFFFFFFFFFFFFFFFFFFFFFFFFFFFFFFFFF AND PUSH32 0xDDF252AD1BE2C89B69C2B068FC378DAA952BA7F163C4A11628F55A4DF523B3EF DUP6 PUSH1 0x40 MLOAD DUP1 DUP3 DUP2 MSTORE PUSH1 0x20 ADD SWAP2 POP POP PUSH1 0x40 MLOAD DUP1 SWAP2 SUB SWAP1 LOG3 POP POP POP POP POP POP POP POP POP JUMP JUMPDEST PUSH1 0x0 DUP1 PUSH1 0x0 DUP1 PUSH1 0x0 DUP1 PUSH2 0x5065 DUP8 PUSH2 0x3C2D JUMP JUMPDEST SWAP6 POP SWAP6 POP SWAP6 POP SWAP6 POP SWAP6 POP SWAP6 POP PUSH2 0x50C3 DUP7 PUSH1 0x4 PUSH1 0x0 DUP13 PUSH20 0xFFFFFFFFFFFFFFFFFFFFFFFFFFFFFFFFFFFFFFFF AND PUSH20 0xFFFFFFFFFFFFFFFFFFFFFFFFFFFFFFFFFFFFFFFF AND DUP2 MSTORE PUSH1 0x20 ADD SWAP1 DUP2 MSTORE PUSH1 0x20 ADD PUSH1 0x0 KECCAK256 SLOAD PUSH2 0x3C89 SWAP1 SWAP2 SWAP1 PUSH4 0xFFFFFFFF AND JUMP JUMPDEST PUSH1 0x4 PUSH1 0x0 DUP12 PUSH20 0xFFFFFFFFFFFFFFFFFFFFFFFFFFFFFFFFFFFFFFFF AND PUSH20 0xFFFFFFFFFFFFFFFFFFFFFFFFFFFFFFFFFFFFFFFF AND DUP2 MSTORE PUSH1 0x20 ADD SWAP1 DUP2 MSTORE PUSH1 0x20 ADD PUSH1 0x0 KECCAK256 DUP2 SWAP1 SSTORE POP PUSH2 0x5158 DUP6 PUSH1 0x4 PUSH1 0x0 DUP12 PUSH20 0xFFFFFFFFFFFFFFFFFFFFFFFFFFFFFFFFFFFFFFFF AND PUSH20 0xFFFFFFFFFFFFFFFFFFFFFFFFFFFFFFFFFFFFFFFF AND DUP2 MSTORE PUSH1 0x20 ADD SWAP1 DUP2 MSTORE PUSH1 0x20 ADD PUSH1 0x0 KECCAK256 SLOAD PUSH2 0x3BA5 SWAP1 SWAP2 SWAP1 PUSH4 0xFFFFFFFF AND JUMP JUMPDEST PUSH1 0x4 PUSH1 0x0 DUP11 PUSH20 0xFFFFFFFFFFFFFFFFFFFFFFFFFFFFFFFFFFFFFFFF AND PUSH20 0xFFFFFFFFFFFFFFFFFFFFFFFFFFFFFFFFFFFFFFFF AND DUP2 MSTORE PUSH1 0x20 ADD SWAP1 DUP2 MSTORE PUSH1 0x20 ADD PUSH1 0x0 KECCAK256 DUP2 SWAP1 SSTORE POP PUSH2 0x51A4 DUP2 PUSH2 0x5294 JUMP JUMPDEST PUSH2 0x51AE DUP5 DUP4 PUSH2 0x5439 JUMP JUMPDEST DUP8 PUSH20 0xFFFFFFFFFFFFFFFFFFFFFFFFFFFFFFFFFFFFFFFF AND DUP10 PUSH20 0xFFFFFFFFFFFFFFFFFFFFFFFFFFFFFFFFFFFFFFFF AND PUSH32 0xDDF252AD1BE2C89B69C2B068FC378DAA952BA7F163C4A11628F55A4DF523B3EF DUP6 PUSH1 0x40 MLOAD DUP1 DUP3 DUP2 MSTORE PUSH1 0x20 ADD SWAP2 POP POP PUSH1 0x40 MLOAD DUP1 SWAP2 SUB SWAP1 LOG3 POP POP POP POP POP POP POP POP POP JUMP JUMPDEST PUSH1 0x13 SLOAD PUSH1 0x12 DUP2 SWAP1 SSTORE POP PUSH1 0x15 SLOAD PUSH1 0x14 DUP2 SWAP1 SSTORE POP JUMP JUMPDEST PUSH1 0x0 PUSH2 0x525C PUSH1 0x64 PUSH2 0x524E PUSH1 0x12 SLOAD DUP6 PUSH2 0x3CD3 SWAP1 SWAP2 SWAP1 PUSH4 0xFFFFFFFF AND JUMP JUMPDEST PUSH2 0x3B5B SWAP1 SWAP2 SWAP1 PUSH4 0xFFFFFFFF AND JUMP JUMPDEST SWAP1 POP SWAP2 SWAP1 POP JUMP JUMPDEST PUSH1 0x0 PUSH2 0x528D PUSH1 0x64 PUSH2 0x527F PUSH1 0x14 SLOAD DUP6 PUSH2 0x3CD3 SWAP1 SWAP2 SWAP1 PUSH4 0xFFFFFFFF AND JUMP JUMPDEST PUSH2 0x3B5B SWAP1 SWAP2 SWAP1 PUSH4 0xFFFFFFFF AND JUMP JUMPDEST SWAP1 POP SWAP2 SWAP1 POP JUMP JUMPDEST PUSH1 0x0 PUSH2 0x529E PUSH2 0x3B30 JUMP JUMPDEST SWAP1 POP PUSH1 0x0 PUSH2 0x52B5 DUP3 DUP5 PUSH2 0x3CD3 SWAP1 SWAP2 SWAP1 PUSH4 0xFFFFFFFF AND JUMP JUMPDEST SWAP1 POP PUSH2 0x5309 DUP2 PUSH1 0x4 PUSH1 0x0 ADDRESS PUSH20 0xFFFFFFFFFFFFFFFFFFFFFFFFFFFFFFFFFFFFFFFF AND PUSH20 0xFFFFFFFFFFFFFFFFFFFFFFFFFFFFFFFFFFFFFFFF AND DUP2 MSTORE PUSH1 0x20 ADD SWAP1 DUP2 MSTORE PUSH1 0x20 ADD PUSH1 0x0 KECCAK256 SLOAD PUSH2 0x3BA5 SWAP1 SWAP2 SWAP1 PUSH4 0xFFFFFFFF AND JUMP JUMPDEST PUSH1 0x4 PUSH1 0x0 ADDRESS PUSH20 0xFFFFFFFFFFFFFFFFFFFFFFFFFFFFFFFFFFFFFFFF AND PUSH20 0xFFFFFFFFFFFFFFFFFFFFFFFFFFFFFFFFFFFFFFFF AND DUP2 MSTORE PUSH1 0x20 ADD SWAP1 DUP2 MSTORE PUSH1 0x20 ADD PUSH1 0x0 KECCAK256 DUP2 SWAP1 SSTORE POP PUSH1 0xA PUSH1 0x0 ADDRESS PUSH20 0xFFFFFFFFFFFFFFFFFFFFFFFFFFFFFFFFFFFFFFFF AND PUSH20 0xFFFFFFFFFFFFFFFFFFFFFFFFFFFFFFFFFFFFFFFF AND DUP2 MSTORE PUSH1 0x20 ADD SWAP1 DUP2 MSTORE PUSH1 0x20 ADD PUSH1 0x0 KECCAK256 PUSH1 0x0 SWAP1 SLOAD SWAP1 PUSH2 0x100 EXP SWAP1 DIV PUSH1 0xFF AND ISZERO PUSH2 0x5434 JUMPI PUSH2 0x53F0 DUP4 PUSH1 0x5 PUSH1 0x0 ADDRESS PUSH20 0xFFFFFFFFFFFFFFFFFFFFFFFFFFFFFFFFFFFFFFFF AND PUSH20 0xFFFFFFFFFFFFFFFFFFFFFFFFFFFFFFFFFFFFFFFF AND DUP2 MSTORE PUSH1 0x20 ADD SWAP1 DUP2 MSTORE PUSH1 0x20 ADD PUSH1 0x0 KECCAK256 SLOAD PUSH2 0x3BA5 SWAP1 SWAP2 SWAP1 PUSH4 0xFFFFFFFF AND JUMP JUMPDEST PUSH1 0x5 PUSH1 0x0 ADDRESS PUSH20 0xFFFFFFFFFFFFFFFFFFFFFFFFFFFFFFFFFFFFFFFF AND PUSH20 0xFFFFFFFFFFFFFFFFFFFFFFFFFFFFFFFFFFFFFFFF AND DUP2 MSTORE PUSH1 0x20 ADD SWAP1 DUP2 MSTORE PUSH1 0x20 ADD PUSH1 0x0 KECCAK256 DUP2 SWAP1 SSTORE POP JUMPDEST POP POP POP JUMP JUMPDEST PUSH2 0x544E DUP3 PUSH1 0xD SLOAD PUSH2 0x3C89 SWAP1 SWAP2 SWAP1 PUSH4 0xFFFFFFFF AND JUMP JUMPDEST PUSH1 0xD DUP2 SWAP1 SSTORE POP PUSH2 0x5469 DUP2 PUSH1 0xE SLOAD PUSH2 0x3BA5 SWAP1 SWAP2 SWAP1 PUSH4 0xFFFFFFFF AND JUMP JUMPDEST PUSH1 0xE DUP2 SWAP1 SSTORE POP POP POP JUMP INVALID GASLIMIT MSTORE NUMBER ORIGIN ADDRESS GASPRICE KECCAK256 PUSH21 0x72616E7366657220746F20746865207A65726F2061 PUSH5 0x6472657373 COINBASE PUSH14 0x6F756E74206D757374206265206C PUSH6 0x737320746861 PUSH15 0x20746F74616C207265666C65637469 PUSH16 0x6E734F776E61626C653A206E6577206F PUSH24 0x6E657220697320746865207A65726F206164647265737345 MSTORE NUMBER ORIGIN ADDRESS GASPRICE KECCAK256 PUSH2 0x7070 PUSH19 0x6F766520746F20746865207A65726F20616464 PUSH19 0x657373536166654D6174683A206D756C746970 PUSH13 0x69636174696F6E206F76657266 PUSH13 0x6F7745524332303A207472616E PUSH20 0x66657220616D6F756E7420657863656564732061 PUSH13 0x6C6F77616E63655472616E7366 PUSH6 0x7220616D6F75 PUSH15 0x74206D757374206265206772656174 PUSH6 0x72207468616E KECCAK256 PUSH27 0x65726F45524332303A207472616E736665722066726F6D20746865 KECCAK256 PUSH27 0x65726F206164647265737345524332303A20617070726F76652066 PUSH19 0x6F6D20746865207A65726F2061646472657373 GASLIMIT PUSH25 0x636C75646564206164647265737365732063616E6E6F742063 PUSH2 0x6C6C KECCAK256 PUSH21 0x6869732066756E6374696F6E45524332303A206465 PUSH4 0x72656173 PUSH6 0x6420616C6C6F PUSH24 0x616E63652062656C6F77207A65726FA26469706673582212 KECCAK256 PUSH30 0xF0E6F4C6526E972401EAD2DD253D9997D3594A3771F511D881D3E06F28AA 0xA5 PUSH5 0x736F6C6343 STOP MOD 0xC STOP CALLER "
				},
				"gasEstimates": {
					"creation": {
						"codeDepositCost": "4418000",
						"executionCost": "infinite",
						"totalCost": "infinite"
					},
					"external": {
						"_amnestySniper(address)": "infinite",
						"_liquidityFee()": "1095",
						"_removeSniper(address)": "64988",
						"_taxFee()": "1117",
						"allowance(address,address)": "1387",
						"approve(address,uint256)": "infinite",
						"balanceOf(address)": "infinite",
						"decimals()": "1189",
						"decreaseAllowance(address,uint256)": "infinite",
						"deliver(uint256)": "infinite",
						"emergencyWithdraw()": "infinite",
						"excludeFromFee(address)": "22138",
						"excludeFromReward(address)": "infinite",
						"getBlockTime()": "257",
						"includeInFee(address)": "22181",
						"includeInReward(address)": "infinite",
						"increaseAllowance(address,uint256)": "infinite",
						"isExcludedFromFee(address)": "1284",
						"isExcludedFromReward(address)": "1305",
						"isRemovedSniper(address)": "1306",
						"marketingAddress()": "1136",
						"name()": "infinite",
						"openTrading()": "42109",
						"owner()": "1144",
						"reflectionFromToken(uint256,bool)": "infinite",
						"renounceOwnership()": "24425",
						"setFeeRate(uint256)": "21233",
						"setLiquidityFeePercent(uint256)": "21255",
						"setMarketingAddress(address)": "22136",
						"setTaxFeePercent(uint256)": "21191",
						"symbol()": "infinite",
						"tokenFromReflection(uint256)": "infinite",
						"totalFees()": "1126",
						"totalSupply()": "1081",
						"transfer(address,uint256)": "infinite",
						"transferFrom(address,address,uint256)": "infinite",
						"transferOwnership(address)": "infinite",
						"uniswapV2Pair()": "1158",
						"uniswapV2Router()": "1093"
					},
					"internal": {
						"_approve(address,address,uint256)": "infinite",
						"_getCurrentSupply()": "infinite",
						"_getRValues(uint256,uint256,uint256,uint256)": "infinite",
						"_getRate()": "infinite",
						"_getTValues(uint256)": "infinite",
						"_getValues(uint256)": "infinite",
						"_isContract(address)": "infinite",
						"_reflectFee(uint256,uint256)": "infinite",
						"_takeLiquidity(uint256)": "infinite",
						"_tokenTransfer(address,address,uint256,bool)": "infinite",
						"_transfer(address,address,uint256)": "infinite",
						"_transferBothExcluded(address,address,uint256)": "infinite",
						"_transferFromExcluded(address,address,uint256)": "infinite",
						"_transferStandard(address,address,uint256)": "infinite",
						"_transferToExcluded(address,address,uint256)": "infinite",
						"addLiquidity(uint256,uint256)": "infinite",
						"calculateLiquidityFee(uint256)": "infinite",
						"calculateTaxFee(uint256)": "infinite",
						"removeAllFee()": "53323",
						"restoreAllFee()": "41637",
						"sendETHToFee(uint256)": "infinite",
						"swapTokens(uint256)": "infinite",
						"swapTokensForEth(uint256)": "infinite",
						"transferToAddressETH(address payable,uint256)": "infinite"
					}
				},
				"methodIdentifiers": {
					"_amnestySniper(address)": "362a3c5d",
					"_liquidityFee()": "6bc87c3a",
					"_removeSniper(address)": "f375b253",
					"_taxFee()": "3b124fe7",
					"allowance(address,address)": "dd62ed3e",
					"approve(address,uint256)": "095ea7b3",
					"balanceOf(address)": "70a08231",
					"decimals()": "313ce567",
					"decreaseAllowance(address,uint256)": "a457c2d7",
					"deliver(uint256)": "3bd5d173",
					"emergencyWithdraw()": "db2e21bc",
					"excludeFromFee(address)": "437823ec",
					"excludeFromReward(address)": "52390c02",
					"getBlockTime()": "87ceff09",
					"includeInFee(address)": "ea2f0b37",
					"includeInReward(address)": "3685d419",
					"increaseAllowance(address,uint256)": "39509351",
					"isExcludedFromFee(address)": "5342acb4",
					"isExcludedFromReward(address)": "88f82020",
					"isRemovedSniper(address)": "610d5b19",
					"marketingAddress()": "a5ece941",
					"name()": "06fdde03",
					"openTrading()": "c9567bf9",
					"owner()": "8da5cb5b",
					"reflectionFromToken(uint256,bool)": "4549b039",
					"renounceOwnership()": "715018a6",
					"setFeeRate(uint256)": "45596e2e",
					"setLiquidityFeePercent(uint256)": "8ee88c53",
					"setMarketingAddress(address)": "906e9dd0",
					"setTaxFeePercent(uint256)": "061c82d0",
					"symbol()": "95d89b41",
					"tokenFromReflection(uint256)": "2d838119",
					"totalFees()": "13114a9d",
					"totalSupply()": "18160ddd",
					"transfer(address,uint256)": "a9059cbb",
					"transferFrom(address,address,uint256)": "23b872dd",
					"transferOwnership(address)": "f2fde38b",
					"uniswapV2Pair()": "49bd5a5e",
					"uniswapV2Router()": "1694505e"
				}
			},
			"storageLayout": {
				"storage": [
					{
						"astId": 476,
						"contract": "contracts/dETH.sol:dETH",
						"label": "_owner",
						"offset": 0,
						"slot": "0",
						"type": "t_address"
					},
					{
						"astId": 478,
						"contract": "contracts/dETH.sol:dETH",
						"label": "_previousOwner",
						"offset": 0,
						"slot": "1",
						"type": "t_address"
					},
					{
						"astId": 480,
						"contract": "contracts/dETH.sol:dETH",
						"label": "_lockTime",
						"offset": 0,
						"slot": "2",
						"type": "t_uint256"
					},
					{
						"astId": 1271,
						"contract": "contracts/dETH.sol:dETH",
						"label": "marketingAddress",
						"offset": 0,
						"slot": "3",
						"type": "t_address_payable"
					},
					{
						"astId": 1275,
						"contract": "contracts/dETH.sol:dETH",
						"label": "_rOwned",
						"offset": 0,
						"slot": "4",
						"type": "t_mapping(t_address,t_uint256)"
					},
					{
						"astId": 1279,
						"contract": "contracts/dETH.sol:dETH",
						"label": "_tOwned",
						"offset": 0,
						"slot": "5",
						"type": "t_mapping(t_address,t_uint256)"
					},
					{
						"astId": 1285,
						"contract": "contracts/dETH.sol:dETH",
						"label": "_allowances",
						"offset": 0,
						"slot": "6",
						"type": "t_mapping(t_address,t_mapping(t_address,t_uint256))"
					},
					{
						"astId": 1289,
						"contract": "contracts/dETH.sol:dETH",
						"label": "_isSniper",
						"offset": 0,
						"slot": "7",
						"type": "t_mapping(t_address,t_bool)"
					},
					{
						"astId": 1292,
						"contract": "contracts/dETH.sol:dETH",
						"label": "_confirmedSnipers",
						"offset": 0,
						"slot": "8",
						"type": "t_array(t_address)dyn_storage"
					},
					{
						"astId": 1296,
						"contract": "contracts/dETH.sol:dETH",
						"label": "_isExcludedFromFee",
						"offset": 0,
						"slot": "9",
						"type": "t_mapping(t_address,t_bool)"
					},
					{
						"astId": 1300,
						"contract": "contracts/dETH.sol:dETH",
						"label": "_isExcluded",
						"offset": 0,
						"slot": "10",
						"type": "t_mapping(t_address,t_bool)"
					},
					{
						"astId": 1303,
						"contract": "contracts/dETH.sol:dETH",
						"label": "_excluded",
						"offset": 0,
						"slot": "11",
						"type": "t_array(t_address)dyn_storage"
					},
					{
						"astId": 1317,
						"contract": "contracts/dETH.sol:dETH",
						"label": "_tTotal",
						"offset": 0,
						"slot": "12",
						"type": "t_uint256"
					},
					{
						"astId": 1326,
						"contract": "contracts/dETH.sol:dETH",
						"label": "_rTotal",
						"offset": 0,
						"slot": "13",
						"type": "t_uint256"
					},
					{
						"astId": 1328,
						"contract": "contracts/dETH.sol:dETH",
						"label": "_tFeeTotal",
						"offset": 0,
						"slot": "14",
						"type": "t_uint256"
					},
					{
						"astId": 1331,
						"contract": "contracts/dETH.sol:dETH",
						"label": "_name",
						"offset": 0,
						"slot": "15",
						"type": "t_string_storage"
					},
					{
						"astId": 1334,
						"contract": "contracts/dETH.sol:dETH",
						"label": "_symbol",
						"offset": 0,
						"slot": "16",
						"type": "t_string_storage"
					},
					{
						"astId": 1337,
						"contract": "contracts/dETH.sol:dETH",
						"label": "_decimals",
						"offset": 0,
						"slot": "17",
						"type": "t_uint8"
					},
					{
						"astId": 1340,
						"contract": "contracts/dETH.sol:dETH",
						"label": "_taxFee",
						"offset": 0,
						"slot": "18",
						"type": "t_uint256"
					},
					{
						"astId": 1343,
						"contract": "contracts/dETH.sol:dETH",
						"label": "_previousTaxFee",
						"offset": 0,
						"slot": "19",
						"type": "t_uint256"
					},
					{
						"astId": 1346,
						"contract": "contracts/dETH.sol:dETH",
						"label": "_liquidityFee",
						"offset": 0,
						"slot": "20",
						"type": "t_uint256"
					},
					{
						"astId": 1349,
						"contract": "contracts/dETH.sol:dETH",
						"label": "_previousLiquidityFee",
						"offset": 0,
						"slot": "21",
						"type": "t_uint256"
					},
					{
						"astId": 1352,
						"contract": "contracts/dETH.sol:dETH",
						"label": "_feeRate",
						"offset": 0,
						"slot": "22",
						"type": "t_uint256"
					},
					{
						"astId": 1354,
						"contract": "contracts/dETH.sol:dETH",
						"label": "launchTime",
						"offset": 0,
						"slot": "23",
						"type": "t_uint256"
					},
					{
						"astId": 1356,
						"contract": "contracts/dETH.sol:dETH",
						"label": "uniswapV2Router",
						"offset": 0,
						"slot": "24",
						"type": "t_contract(IUniswapV2Router02)1253"
					},
					{
						"astId": 1358,
						"contract": "contracts/dETH.sol:dETH",
						"label": "uniswapV2Pair",
						"offset": 0,
						"slot": "25",
						"type": "t_address"
					},
					{
						"astId": 1360,
						"contract": "contracts/dETH.sol:dETH",
						"label": "inSwapAndLiquify",
						"offset": 20,
						"slot": "25",
						"type": "t_bool"
					},
					{
						"astId": 1363,
						"contract": "contracts/dETH.sol:dETH",
						"label": "tradingOpen",
						"offset": 21,
						"slot": "25",
						"type": "t_bool"
					}
				],
				"types": {
					"t_address": {
						"encoding": "inplace",
						"label": "address",
						"numberOfBytes": "20"
					},
					"t_address_payable": {
						"encoding": "inplace",
						"label": "address payable",
						"numberOfBytes": "20"
					},
					"t_array(t_address)dyn_storage": {
						"base": "t_address",
						"encoding": "dynamic_array",
						"label": "address[]",
						"numberOfBytes": "32"
					},
					"t_bool": {
						"encoding": "inplace",
						"label": "bool",
						"numberOfBytes": "1"
					},
					"t_contract(IUniswapV2Router02)1253": {
						"encoding": "inplace",
						"label": "contract IUniswapV2Router02",
						"numberOfBytes": "20"
					},
					"t_mapping(t_address,t_bool)": {
						"encoding": "mapping",
						"key": "t_address",
						"label": "mapping(address => bool)",
						"numberOfBytes": "32",
						"value": "t_bool"
					},
					"t_mapping(t_address,t_mapping(t_address,t_uint256))": {
						"encoding": "mapping",
						"key": "t_address",
						"label": "mapping(address => mapping(address => uint256))",
						"numberOfBytes": "32",
						"value": "t_mapping(t_address,t_uint256)"
					},
					"t_mapping(t_address,t_uint256)": {
						"encoding": "mapping",
						"key": "t_address",
						"label": "mapping(address => uint256)",
						"numberOfBytes": "32",
						"value": "t_uint256"
					},
					"t_string_storage": {
						"encoding": "bytes",
						"label": "string",
						"numberOfBytes": "32"
					},
					"t_uint256": {
						"encoding": "inplace",
						"label": "uint256",
						"numberOfBytes": "32"
					},
					"t_uint8": {
						"encoding": "inplace",
						"label": "uint8",
						"numberOfBytes": "1"
					}
				}
			},
			"userdoc": {
				"kind": "user",
				"methods": {},
				"version": 1
			}
		}
	}
}