{
	"contracts/dethDividendTracker.sol": {
		"dETHDividendTracker": {
			"abi": [
				{
					"inputs": [],
					"stateMutability": "nonpayable",
					"type": "constructor"
				},
				{
					"anonymous": false,
					"inputs": [
						{
							"indexed": true,
							"internalType": "address",
							"name": "owner",
							"type": "address"
						},
						{
							"indexed": true,
							"internalType": "address",
							"name": "spender",
							"type": "address"
						},
						{
							"indexed": false,
							"internalType": "uint256",
							"name": "value",
							"type": "uint256"
						}
					],
					"name": "Approval",
					"type": "event"
				},
				{
					"anonymous": false,
					"inputs": [
						{
							"indexed": true,
							"internalType": "address",
							"name": "account",
							"type": "address"
						},
						{
							"indexed": false,
							"internalType": "uint256",
							"name": "amount",
							"type": "uint256"
						},
						{
							"indexed": true,
							"internalType": "bool",
							"name": "automatic",
							"type": "bool"
						}
					],
					"name": "Claim",
					"type": "event"
				},
				{
					"anonymous": false,
					"inputs": [
						{
							"indexed": true,
							"internalType": "uint256",
							"name": "newValue",
							"type": "uint256"
						},
						{
							"indexed": true,
							"internalType": "uint256",
							"name": "oldValue",
							"type": "uint256"
						}
					],
					"name": "ClaimWaitUpdated",
					"type": "event"
				},
				{
					"anonymous": false,
					"inputs": [
						{
							"indexed": true,
							"internalType": "address",
							"name": "to",
							"type": "address"
						},
						{
							"indexed": false,
							"internalType": "uint256",
							"name": "weiAmount",
							"type": "uint256"
						}
					],
					"name": "DividendWithdrawn",
					"type": "event"
				},
				{
					"anonymous": false,
					"inputs": [
						{
							"indexed": true,
							"internalType": "address",
							"name": "from",
							"type": "address"
						},
						{
							"indexed": false,
							"internalType": "uint256",
							"name": "weiAmount",
							"type": "uint256"
						}
					],
					"name": "DividendsDistributed",
					"type": "event"
				},
				{
					"anonymous": false,
					"inputs": [
						{
							"indexed": true,
							"internalType": "address",
							"name": "account",
							"type": "address"
						}
					],
					"name": "ExcludeFromDividends",
					"type": "event"
				},
				{
					"anonymous": false,
					"inputs": [
						{
							"indexed": true,
							"internalType": "address",
							"name": "previousOwner",
							"type": "address"
						},
						{
							"indexed": true,
							"internalType": "address",
							"name": "newOwner",
							"type": "address"
						}
					],
					"name": "OwnershipTransferred",
					"type": "event"
				},
				{
					"anonymous": false,
					"inputs": [
						{
							"indexed": true,
							"internalType": "address",
							"name": "from",
							"type": "address"
						},
						{
							"indexed": true,
							"internalType": "address",
							"name": "to",
							"type": "address"
						},
						{
							"indexed": false,
							"internalType": "uint256",
							"name": "value",
							"type": "uint256"
						}
					],
					"name": "Transfer",
					"type": "event"
				},
				{
					"inputs": [
						{
							"internalType": "address",
							"name": "_owner",
							"type": "address"
						}
					],
					"name": "accumulativeDividendOf",
					"outputs": [
						{
							"internalType": "uint256",
							"name": "",
							"type": "uint256"
						}
					],
					"stateMutability": "view",
					"type": "function"
				},
				{
					"inputs": [
						{
							"internalType": "address",
							"name": "owner",
							"type": "address"
						},
						{
							"internalType": "address",
							"name": "spender",
							"type": "address"
						}
					],
					"name": "allowance",
					"outputs": [
						{
							"internalType": "uint256",
							"name": "",
							"type": "uint256"
						}
					],
					"stateMutability": "view",
					"type": "function"
				},
				{
					"inputs": [
						{
							"internalType": "address",
							"name": "spender",
							"type": "address"
						},
						{
							"internalType": "uint256",
							"name": "amount",
							"type": "uint256"
						}
					],
					"name": "approve",
					"outputs": [
						{
							"internalType": "bool",
							"name": "",
							"type": "bool"
						}
					],
					"stateMutability": "nonpayable",
					"type": "function"
				},
				{
					"inputs": [
						{
							"internalType": "address",
							"name": "account",
							"type": "address"
						}
					],
					"name": "balanceOf",
					"outputs": [
						{
							"internalType": "uint256",
							"name": "",
							"type": "uint256"
						}
					],
					"stateMutability": "view",
					"type": "function"
				},
				{
					"inputs": [],
					"name": "claimWait",
					"outputs": [
						{
							"internalType": "uint256",
							"name": "",
							"type": "uint256"
						}
					],
					"stateMutability": "view",
					"type": "function"
				},
				{
					"inputs": [],
					"name": "decimals",
					"outputs": [
						{
							"internalType": "uint8",
							"name": "",
							"type": "uint8"
						}
					],
					"stateMutability": "view",
					"type": "function"
				},
				{
					"inputs": [
						{
							"internalType": "address",
							"name": "spender",
							"type": "address"
						},
						{
							"internalType": "uint256",
							"name": "subtractedValue",
							"type": "uint256"
						}
					],
					"name": "decreaseAllowance",
					"outputs": [
						{
							"internalType": "bool",
							"name": "",
							"type": "bool"
						}
					],
					"stateMutability": "nonpayable",
					"type": "function"
				},
				{
					"inputs": [],
					"name": "distributeDividends",
					"outputs": [],
					"stateMutability": "payable",
					"type": "function"
				},
				{
					"inputs": [
						{
							"internalType": "address",
							"name": "_owner",
							"type": "address"
						}
					],
					"name": "dividendOf",
					"outputs": [
						{
							"internalType": "uint256",
							"name": "",
							"type": "uint256"
						}
					],
					"stateMutability": "view",
					"type": "function"
				},
				{
					"inputs": [
						{
							"internalType": "address",
							"name": "account",
							"type": "address"
						}
					],
					"name": "excludeFromDividends",
					"outputs": [],
					"stateMutability": "nonpayable",
					"type": "function"
				},
				{
					"inputs": [
						{
							"internalType": "address",
							"name": "",
							"type": "address"
						}
					],
					"name": "excludedFromDividends",
					"outputs": [
						{
							"internalType": "bool",
							"name": "",
							"type": "bool"
						}
					],
					"stateMutability": "view",
					"type": "function"
				},
				{
					"inputs": [
						{
							"internalType": "address",
							"name": "_account",
							"type": "address"
						}
					],
					"name": "getAccount",
					"outputs": [
						{
							"internalType": "address",
							"name": "account",
							"type": "address"
						},
						{
							"internalType": "int256",
							"name": "index",
							"type": "int256"
						},
						{
							"internalType": "int256",
							"name": "iterationsUntilProcessed",
							"type": "int256"
						},
						{
							"internalType": "uint256",
							"name": "withdrawableDividends",
							"type": "uint256"
						},
						{
							"internalType": "uint256",
							"name": "totalDividends",
							"type": "uint256"
						},
						{
							"internalType": "uint256",
							"name": "lastClaimTime",
							"type": "uint256"
						},
						{
							"internalType": "uint256",
							"name": "nextClaimTime",
							"type": "uint256"
						},
						{
							"internalType": "uint256",
							"name": "secondsUntilAutoClaimAvailable",
							"type": "uint256"
						}
					],
					"stateMutability": "view",
					"type": "function"
				},
				{
					"inputs": [
						{
							"internalType": "uint256",
							"name": "index",
							"type": "uint256"
						}
					],
					"name": "getAccountAtIndex",
					"outputs": [
						{
							"internalType": "address",
							"name": "",
							"type": "address"
						},
						{
							"internalType": "int256",
							"name": "",
							"type": "int256"
						},
						{
							"internalType": "int256",
							"name": "",
							"type": "int256"
						},
						{
							"internalType": "uint256",
							"name": "",
							"type": "uint256"
						},
						{
							"internalType": "uint256",
							"name": "",
							"type": "uint256"
						},
						{
							"internalType": "uint256",
							"name": "",
							"type": "uint256"
						},
						{
							"internalType": "uint256",
							"name": "",
							"type": "uint256"
						},
						{
							"internalType": "uint256",
							"name": "",
							"type": "uint256"
						}
					],
					"stateMutability": "view",
					"type": "function"
				},
				{
					"inputs": [],
					"name": "getLastProcessedIndex",
					"outputs": [
						{
							"internalType": "uint256",
							"name": "",
							"type": "uint256"
						}
					],
					"stateMutability": "view",
					"type": "function"
				},
				{
					"inputs": [],
					"name": "getNumberOfTokenHolders",
					"outputs": [
						{
							"internalType": "uint256",
							"name": "",
							"type": "uint256"
						}
					],
					"stateMutability": "view",
					"type": "function"
				},
				{
					"inputs": [
						{
							"internalType": "address",
							"name": "spender",
							"type": "address"
						},
						{
							"internalType": "uint256",
							"name": "addedValue",
							"type": "uint256"
						}
					],
					"name": "increaseAllowance",
					"outputs": [
						{
							"internalType": "bool",
							"name": "",
							"type": "bool"
						}
					],
					"stateMutability": "nonpayable",
					"type": "function"
				},
				{
					"inputs": [
						{
							"internalType": "address",
							"name": "",
							"type": "address"
						}
					],
					"name": "lastClaimTimes",
					"outputs": [
						{
							"internalType": "uint256",
							"name": "",
							"type": "uint256"
						}
					],
					"stateMutability": "view",
					"type": "function"
				},
				{
					"inputs": [],
					"name": "lastProcessedIndex",
					"outputs": [
						{
							"internalType": "uint256",
							"name": "",
							"type": "uint256"
						}
					],
					"stateMutability": "view",
					"type": "function"
				},
				{
					"inputs": [],
					"name": "minimumTokenBalanceForDividends",
					"outputs": [
						{
							"internalType": "uint256",
							"name": "",
							"type": "uint256"
						}
					],
					"stateMutability": "view",
					"type": "function"
				},
				{
					"inputs": [],
					"name": "name",
					"outputs": [
						{
							"internalType": "string",
							"name": "",
							"type": "string"
						}
					],
					"stateMutability": "view",
					"type": "function"
				},
				{
					"inputs": [],
					"name": "owner",
					"outputs": [
						{
							"internalType": "address",
							"name": "",
							"type": "address"
						}
					],
					"stateMutability": "view",
					"type": "function"
				},
				{
					"inputs": [
						{
							"internalType": "uint256",
							"name": "gas",
							"type": "uint256"
						}
					],
					"name": "process",
					"outputs": [
						{
							"internalType": "uint256",
							"name": "",
							"type": "uint256"
						},
						{
							"internalType": "uint256",
							"name": "",
							"type": "uint256"
						},
						{
							"internalType": "uint256",
							"name": "",
							"type": "uint256"
						}
					],
					"stateMutability": "nonpayable",
					"type": "function"
				},
				{
					"inputs": [
						{
							"internalType": "address payable",
							"name": "account",
							"type": "address"
						},
						{
							"internalType": "bool",
							"name": "automatic",
							"type": "bool"
						}
					],
					"name": "processAccount",
					"outputs": [
						{
							"internalType": "bool",
							"name": "",
							"type": "bool"
						}
					],
					"stateMutability": "nonpayable",
					"type": "function"
				},
				{
					"inputs": [],
					"name": "renounceOwnership",
					"outputs": [],
					"stateMutability": "nonpayable",
					"type": "function"
				},
				{
					"inputs": [
						{
							"internalType": "address payable",
							"name": "account",
							"type": "address"
						},
						{
							"internalType": "uint256",
							"name": "newBalance",
							"type": "uint256"
						}
					],
					"name": "setBalance",
					"outputs": [],
					"stateMutability": "nonpayable",
					"type": "function"
				},
				{
					"inputs": [],
					"name": "symbol",
					"outputs": [
						{
							"internalType": "string",
							"name": "",
							"type": "string"
						}
					],
					"stateMutability": "view",
					"type": "function"
				},
				{
					"inputs": [],
					"name": "totalDividendsDistributed",
					"outputs": [
						{
							"internalType": "uint256",
							"name": "",
							"type": "uint256"
						}
					],
					"stateMutability": "view",
					"type": "function"
				},
				{
					"inputs": [],
					"name": "totalSupply",
					"outputs": [
						{
							"internalType": "uint256",
							"name": "",
							"type": "uint256"
						}
					],
					"stateMutability": "view",
					"type": "function"
				},
				{
					"inputs": [
						{
							"internalType": "address",
							"name": "recipient",
							"type": "address"
						},
						{
							"internalType": "uint256",
							"name": "amount",
							"type": "uint256"
						}
					],
					"name": "transfer",
					"outputs": [
						{
							"internalType": "bool",
							"name": "",
							"type": "bool"
						}
					],
					"stateMutability": "nonpayable",
					"type": "function"
				},
				{
					"inputs": [
						{
							"internalType": "address",
							"name": "sender",
							"type": "address"
						},
						{
							"internalType": "address",
							"name": "recipient",
							"type": "address"
						},
						{
							"internalType": "uint256",
							"name": "amount",
							"type": "uint256"
						}
					],
					"name": "transferFrom",
					"outputs": [
						{
							"internalType": "bool",
							"name": "",
							"type": "bool"
						}
					],
					"stateMutability": "nonpayable",
					"type": "function"
				},
				{
					"inputs": [
						{
							"internalType": "address",
							"name": "newOwner",
							"type": "address"
						}
					],
					"name": "transferOwnership",
					"outputs": [],
					"stateMutability": "nonpayable",
					"type": "function"
				},
				{
					"inputs": [
						{
							"internalType": "uint256",
							"name": "newClaimWait",
							"type": "uint256"
						}
					],
					"name": "updateClaimWait",
					"outputs": [],
					"stateMutability": "nonpayable",
					"type": "function"
				},
				{
					"inputs": [
						{
							"internalType": "uint256",
							"name": "_newMinimumBalance",
							"type": "uint256"
						}
					],
					"name": "updateMinimumTokenBalanceForDividends",
					"outputs": [],
					"stateMutability": "nonpayable",
					"type": "function"
				},
				{
					"inputs": [],
					"name": "withdrawDividend",
					"outputs": [],
					"stateMutability": "nonpayable",
					"type": "function"
				},
				{
					"inputs": [
						{
							"internalType": "address",
							"name": "_owner",
							"type": "address"
						}
					],
					"name": "withdrawableDividendOf",
					"outputs": [
						{
							"internalType": "uint256",
							"name": "",
							"type": "uint256"
						}
					],
					"stateMutability": "view",
					"type": "function"
				},
				{
					"inputs": [
						{
							"internalType": "address",
							"name": "_owner",
							"type": "address"
						}
					],
					"name": "withdrawnDividendOf",
					"outputs": [
						{
							"internalType": "uint256",
							"name": "",
							"type": "uint256"
						}
					],
					"stateMutability": "view",
					"type": "function"
				},
				{
					"stateMutability": "payable",
					"type": "receive"
				}
			],
			"devdoc": {
				"kind": "dev",
				"methods": {},
				"version": 1
			},
			"evm": {
				"assembly": "    /* \"contracts/dethDividendTracker.sol\":4614:11433  contract dETHDividendTracker is DividendPayingToken, Ownable {\r... */\n  mstore(0x40, 0x80)\n    /* \"contracts/dethDividendTracker.sol\":5331:5546  constructor() public DividendPayingToken(\"dETH_Dividend_Tracker\", \"dETH_Dividend_Tracker\") {\r... */\n  callvalue\n  dup1\n  iszero\n  tag_1\n  jumpi\n  0x00\n  dup1\n  revert\ntag_1:\n  pop\n    /* \"contracts/dethDividendTracker.sol\":1279:1372  constructor(string memory _name, string memory _symbol) public ERC20(_name, _symbol) {\r... */\n  0x40\n  dup1\n  mload\n  dup1\n  dup3\n  add\n  dup3\n  mstore\n  0x15\n  dup1\n  dup3\n  mstore\n  0x644554485f4469766964656e645f547261636b65720000000000000000000000\n  0x20\n  dup1\n  dup5\n  add\n  dup3\n  dup2\n  mstore\n  dup6\n  mload\n  dup1\n  dup8\n  add\n  swap1\n  swap7\n  mstore\n  swap3\n  dup6\n  mstore\n  dup5\n  add\n  mstore\n    /* \"contracts/includes.sol\":3282:3295  _name = name_ */\n  dup2\n  mload\n    /* \"contracts/dethDividendTracker.sol\":1279:1372  constructor(string memory _name, string memory _symbol) public ERC20(_name, _symbol) {\r... */\n  swap2\n  swap3\n  swap2\n  dup4\n  swap2\n  dup4\n  swap2\n    /* \"contracts/includes.sol\":3282:3295  _name = name_ */\n  tag_7\n  swap2\n    /* \"contracts/includes.sol\":3282:3287  _name */\n  0x03\n  swap2\n    /* \"contracts/includes.sol\":3282:3295  _name = name_ */\n  tag_8\n  jump\t// in\ntag_7:\n  pop\n    /* \"contracts/includes.sol\":3306:3323  _symbol = symbol_ */\n  dup1\n  mload\n  tag_9\n  swap1\n    /* \"contracts/includes.sol\":3306:3313  _symbol */\n  0x04\n  swap1\n    /* \"contracts/includes.sol\":3306:3323  _symbol = symbol_ */\n  0x20\n  dup5\n  add\n  swap1\n  tag_8\n  jump\t// in\ntag_9:\n  pop\n    /* \"contracts/includes.sol\":3208:3331  constructor(string memory name_, string memory symbol_) public {\r... */\n  pop\n  pop\n    /* \"contracts/dethDividendTracker.sol\":1279:1372  constructor(string memory _name, string memory _symbol) public ERC20(_name, _symbol) {\r... */\n  pop\n  pop\n    /* \"contracts/includes.sol\":8936:8953  address msgSender */\n  0x00\n    /* \"contracts/includes.sol\":8956:8968  _msgSender() */\n  tag_12\n    /* \"contracts/includes.sol\":8956:8966  _msgSender */\n  shl(0x20, tag_13)\n    /* \"contracts/includes.sol\":8956:8968  _msgSender() */\n  0x20\n  shr\n  jump\t// in\ntag_12:\n    /* \"contracts/includes.sol\":8979:8985  _owner */\n  0x09\n    /* \"contracts/includes.sol\":8979:8997  _owner = msgSender */\n  dup1\n  sload\n  not(sub(shl(0xa0, 0x01), 0x01))\n  and\n  sub(shl(0xa0, 0x01), 0x01)\n  dup4\n  and\n  swap1\n  dup2\n  or\n  swap1\n  swap2\n  sstore\n    /* \"contracts/includes.sol\":9013:9056  OwnershipTransferred(address(0), msgSender) */\n  mload(0x40)\n    /* \"contracts/includes.sol\":8979:8997  _owner = msgSender */\n  swap2\n  swap3\n  pop\n  swap1\n  0x00\n  swap1\n    /* \"contracts/includes.sol\":9013:9056  OwnershipTransferred(address(0), msgSender) */\n  0x8be0079c531659141344cd1fd0a4f28419497f9722a3daafe3b4186f6b6457e0\n  swap1\n  dup3\n  swap1\n  log3\n  pop\n    /* \"contracts/dethDividendTracker.sol\":5442:5444  60 */\n  0x3c\n    /* \"contracts/dethDividendTracker.sol\":5430:5439  claimWait */\n  0x11\n    /* \"contracts/dethDividendTracker.sol\":5430:5444  claimWait = 60 */\n  sstore\n    /* \"contracts/dethDividendTracker.sol\":5500:5512  1 * (10**18) */\n  0x0de0b6b3a7640000\n    /* \"contracts/dethDividendTracker.sol\":5466:5497  minimumTokenBalanceForDividends */\n  0x12\n    /* \"contracts/dethDividendTracker.sol\":5466:5512  minimumTokenBalanceForDividends = 1 * (10**18) */\n  sstore\n    /* \"contracts/dethDividendTracker.sol\":4614:11433  contract dETHDividendTracker is DividendPayingToken, Ownable {\r... */\n  jump(tag_15)\n    /* \"contracts/includes.sol\":987:1085  function _msgSender() internal view virtual returns (address) {\r... */\ntag_13:\n    /* \"contracts/includes.sol\":1067:1077  msg.sender */\n  caller\n    /* \"contracts/includes.sol\":987:1085  function _msgSender() internal view virtual returns (address) {\r... */\n  swap1\n  jump\t// out\n    /* \"contracts/dethDividendTracker.sol\":4614:11433  contract dETHDividendTracker is DividendPayingToken, Ownable {\r... */\ntag_8:\n  dup3\n  dup1\n  sload\n  0x01\n  dup2\n  0x01\n  and\n  iszero\n  0x0100\n  mul\n  sub\n  and\n  0x02\n  swap1\n  div\n  swap1\n  0x00\n  mstore\n  keccak256(0x00, 0x20)\n  swap1\n  0x1f\n  add\n  0x20\n  swap1\n  div\n  dup2\n  add\n  swap3\n  dup3\n  0x1f\n  lt\n  tag_18\n  jumpi\n  dup1\n  mload\n  not(0xff)\n  and\n  dup4\n  dup1\n  add\n  or\n  dup6\n  sstore\n  jump(tag_20)\ntag_18:\n  dup3\n  dup1\n  add\n  0x01\n  add\n  dup6\n  sstore\n  dup3\n  iszero\n  tag_20\n  jumpi\n  swap2\n  dup3\n  add\ntag_19:\n  dup3\n  dup2\n  gt\n  iszero\n  tag_20\n  jumpi\n  dup3\n  mload\n  dup3\n  sstore\n  swap2\n  0x20\n  add\n  swap2\n  swap1\n  0x01\n  add\n  swap1\n  jump(tag_19)\ntag_20:\n  pop\n  tag_21\n  swap3\n  swap2\n  pop\n  tag_22\n  jump\t// in\ntag_21:\n  pop\n  swap1\n  jump\t// out\ntag_22:\ntag_23:\n  dup1\n  dup3\n  gt\n  iszero\n  tag_21\n  jumpi\n  0x00\n  dup2\n  sstore\n  0x01\n  add\n  jump(tag_23)\ntag_15:\n  dataSize(sub_0)\n  dup1\n  dataOffset(sub_0)\n  0x00\n  codecopy\n  0x00\n  return\nstop\n\nsub_0: assembly {\n        /* \"contracts/dethDividendTracker.sol\":4614:11433  contract dETHDividendTracker is DividendPayingToken, Ownable {\r... */\n      mstore(0x40, 0x80)\n      jumpi(tag_1, lt(calldatasize, 0x04))\n      shr(0xe0, calldataload(0x00))\n      dup1\n      0x715018a6\n      gt\n      tag_39\n      jumpi\n      dup1\n      0xbc4c4b37\n      gt\n      tag_40\n      jumpi\n      dup1\n      0xe7841ec0\n      gt\n      tag_41\n      jumpi\n      dup1\n      0xe7841ec0\n      eq\n      tag_34\n      jumpi\n      dup1\n      0xe98030c7\n      eq\n      tag_35\n      jumpi\n      dup1\n      0xf2fde38b\n      eq\n      tag_36\n      jumpi\n      dup1\n      0xfbcbc0f1\n      eq\n      tag_37\n      jumpi\n      dup1\n      0xffb2c479\n      eq\n      tag_38\n      jumpi\n      jump(tag_2)\n    tag_41:\n      dup1\n      0xbc4c4b37\n      eq\n      tag_30\n      jumpi\n      dup1\n      0xbe10b614\n      eq\n      tag_31\n      jumpi\n      dup1\n      0xdd62ed3e\n      eq\n      tag_32\n      jumpi\n      dup1\n      0xe30443bc\n      eq\n      tag_33\n      jumpi\n      jump(tag_2)\n    tag_40:\n      dup1\n      0x95d89b41\n      gt\n      tag_42\n      jumpi\n      dup1\n      0x95d89b41\n      eq\n      tag_25\n      jumpi\n      dup1\n      0xa457c2d7\n      eq\n      tag_26\n      jumpi\n      dup1\n      0xa8b9d240\n      eq\n      tag_27\n      jumpi\n      dup1\n      0xa9059cbb\n      eq\n      tag_28\n      jumpi\n      dup1\n      0xaafd847a\n      eq\n      tag_29\n      jumpi\n      jump(tag_2)\n    tag_42:\n      dup1\n      0x715018a6\n      eq\n      tag_21\n      jumpi\n      dup1\n      0x85a6b3ae\n      eq\n      tag_22\n      jumpi\n      dup1\n      0x8da5cb5b\n      eq\n      tag_23\n      jumpi\n      dup1\n      0x91b89fba\n      eq\n      tag_24\n      jumpi\n      jump(tag_2)\n    tag_39:\n      dup1\n      0x3009a609\n      gt\n      tag_43\n      jumpi\n      dup1\n      0x4e7b827f\n      gt\n      tag_44\n      jumpi\n      dup1\n      0x4e7b827f\n      eq\n      tag_16\n      jumpi\n      dup1\n      0x5183d6fd\n      eq\n      tag_17\n      jumpi\n      dup1\n      0x6a474002\n      eq\n      tag_18\n      jumpi\n      dup1\n      0x6f2789ec\n      eq\n      tag_19\n      jumpi\n      dup1\n      0x70a08231\n      eq\n      tag_20\n      jumpi\n      jump(tag_2)\n    tag_44:\n      dup1\n      0x3009a609\n      eq\n      tag_12\n      jumpi\n      dup1\n      0x313ce567\n      eq\n      tag_13\n      jumpi\n      dup1\n      0x31e79db0\n      eq\n      tag_14\n      jumpi\n      dup1\n      0x39509351\n      eq\n      tag_15\n      jumpi\n      jump(tag_2)\n    tag_43:\n      dup1\n      0x0dcb2e89\n      gt\n      tag_45\n      jumpi\n      dup1\n      0x0dcb2e89\n      eq\n      tag_7\n      jumpi\n      dup1\n      0x18160ddd\n      eq\n      tag_8\n      jumpi\n      dup1\n      0x226cfa3d\n      eq\n      tag_9\n      jumpi\n      dup1\n      0x23b872dd\n      eq\n      tag_10\n      jumpi\n      dup1\n      0x27ce0147\n      eq\n      tag_11\n      jumpi\n      jump(tag_2)\n    tag_45:\n      dup1\n      0x03c83302\n      eq\n      tag_3\n      jumpi\n      dup1\n      0x06fdde03\n      eq\n      tag_4\n      jumpi\n      dup1\n      0x095ea7b3\n      eq\n      tag_5\n      jumpi\n      dup1\n      0x09bbedde\n      eq\n      tag_6\n      jumpi\n      jump(tag_2)\n    tag_1:\n      jumpi(tag_2, calldatasize)\n        /* \"contracts/dethDividendTracker.sol\":1412:1433  distributeDividends() */\n      tag_48\n        /* \"contracts/dethDividendTracker.sol\":1412:1431  distributeDividends */\n      tag_49\n        /* \"contracts/dethDividendTracker.sol\":1412:1433  distributeDividends() */\n      jump\t// in\n    tag_48:\n        /* \"contracts/dethDividendTracker.sol\":4614:11433  contract dETHDividendTracker is DividendPayingToken, Ownable {\r... */\n      stop\n    tag_2:\n      0x00\n      dup1\n      revert\n        /* \"contracts/dethDividendTracker.sol\":1445:1838  function distributeDividends() public override payable {\r... */\n    tag_3:\n      tag_48\n      tag_49\n      jump\t// in\n        /* \"contracts/includes.sol\":3339:3439  function name() public view virtual override returns (string memory) {\r... */\n    tag_4:\n      callvalue\n      dup1\n      iszero\n      tag_51\n      jumpi\n      0x00\n      dup1\n      revert\n    tag_51:\n      pop\n      tag_52\n      tag_53\n      jump\t// in\n    tag_52:\n      0x40\n      dup1\n      mload\n      0x20\n      dup1\n      dup3\n      mstore\n      dup4\n      mload\n      dup2\n      dup4\n      add\n      mstore\n      dup4\n      mload\n      swap2\n      swap3\n      dup4\n      swap3\n      swap1\n      dup4\n      add\n      swap2\n      dup6\n      add\n      swap1\n      dup1\n      dup4\n      dup4\n      0x00\n    tag_54:\n      dup4\n      dup2\n      lt\n      iszero\n      tag_56\n      jumpi\n      dup2\n      dup2\n      add\n      mload\n      dup4\n      dup3\n      add\n      mstore\n      0x20\n      add\n      jump(tag_54)\n    tag_56:\n      pop\n      pop\n      pop\n      pop\n      swap1\n      pop\n      swap1\n      dup2\n      add\n      swap1\n      0x1f\n      and\n      dup1\n      iszero\n      tag_57\n      jumpi\n      dup1\n      dup3\n      sub\n      dup1\n      mload\n      0x01\n      dup4\n      0x20\n      sub\n      0x0100\n      exp\n      sub\n      not\n      and\n      dup2\n      mstore\n      0x20\n      add\n      swap2\n      pop\n    tag_57:\n      pop\n      swap3\n      pop\n      pop\n      pop\n      mload(0x40)\n      dup1\n      swap2\n      sub\n      swap1\n      return\n        /* \"contracts/includes.sol\":4253:4422  function approve(address spender, uint256 amount) public virtual override returns (bool) {\r... */\n    tag_5:\n      callvalue\n      dup1\n      iszero\n      tag_58\n      jumpi\n      0x00\n      dup1\n      revert\n    tag_58:\n      pop\n      tag_59\n      0x04\n      dup1\n      calldatasize\n      sub\n      0x40\n      dup2\n      lt\n      iszero\n      tag_60\n      jumpi\n      0x00\n      dup1\n      revert\n    tag_60:\n      pop\n      sub(shl(0xa0, 0x01), 0x01)\n      dup2\n      calldataload\n      and\n      swap1\n      0x20\n      add\n      calldataload\n      tag_61\n      jump\t// in\n    tag_59:\n      0x40\n      dup1\n      mload\n      swap2\n      iszero\n      iszero\n      dup3\n      mstore\n      mload\n      swap1\n      dup2\n      swap1\n      sub\n      0x20\n      add\n      swap1\n      return\n        /* \"contracts/dethDividendTracker.sol\":6912:7031  function getNumberOfTokenHolders() external view returns(uint256) {\r... */\n    tag_6:\n      callvalue\n      dup1\n      iszero\n      tag_62\n      jumpi\n      0x00\n      dup1\n      revert\n    tag_62:\n      pop\n      tag_63\n      tag_64\n      jump\t// in\n    tag_63:\n      0x40\n      dup1\n      mload\n      swap2\n      dup3\n      mstore\n      mload\n      swap1\n      dup2\n      swap1\n      sub\n      0x20\n      add\n      swap1\n      return\n        /* \"contracts/dethDividendTracker.sol\":5896:6072  function updateMinimumTokenBalanceForDividends(uint256 _newMinimumBalance) external onlyOwner {\r... */\n    tag_7:\n      callvalue\n      dup1\n      iszero\n      tag_65\n      jumpi\n      0x00\n      dup1\n      revert\n    tag_65:\n      pop\n      tag_48\n      0x04\n      dup1\n      calldatasize\n      sub\n      0x20\n      dup2\n      lt\n      iszero\n      tag_67\n      jumpi\n      0x00\n      dup1\n      revert\n    tag_67:\n      pop\n      calldataload\n      tag_68\n      jump\t// in\n        /* \"contracts/includes.sol\":3660:3768  function totalSupply() public view virtual override returns (uint256) {\r... */\n    tag_8:\n      callvalue\n      dup1\n      iszero\n      tag_69\n      jumpi\n      0x00\n      dup1\n      revert\n    tag_69:\n      pop\n      tag_63\n      tag_71\n      jump\t// in\n        /* \"contracts/dethDividendTracker.sol\":4959:5009  mapping (address => uint256) public lastClaimTimes */\n    tag_9:\n      callvalue\n      dup1\n      iszero\n      tag_72\n      jumpi\n      0x00\n      dup1\n      revert\n    tag_72:\n      pop\n      tag_63\n      0x04\n      dup1\n      calldatasize\n      sub\n      0x20\n      dup2\n      lt\n      iszero\n      tag_74\n      jumpi\n      0x00\n      dup1\n      revert\n    tag_74:\n      pop\n      calldataload\n      sub(shl(0xa0, 0x01), 0x01)\n      and\n      tag_75\n      jump\t// in\n        /* \"contracts/includes.sol\":4430:4785  function transferFrom(\r... */\n    tag_10:\n      callvalue\n      dup1\n      iszero\n      tag_76\n      jumpi\n      0x00\n      dup1\n      revert\n    tag_76:\n      pop\n      tag_59\n      0x04\n      dup1\n      calldatasize\n      sub\n      0x60\n      dup2\n      lt\n      iszero\n      tag_78\n      jumpi\n      0x00\n      dup1\n      revert\n    tag_78:\n      pop\n      sub(shl(0xa0, 0x01), 0x01)\n      dup2\n      calldataload\n      dup2\n      and\n      swap2\n      0x20\n      dup2\n      add\n      calldataload\n      swap1\n      swap2\n      and\n      swap1\n      0x40\n      add\n      calldataload\n      tag_79\n      jump\t// in\n        /* \"contracts/dethDividendTracker.sol\":3020:3267  function accumulativeDividendOf(address _owner) public view override returns(uint256) {\r... */\n    tag_11:\n      callvalue\n      dup1\n      iszero\n      tag_80\n      jumpi\n      0x00\n      dup1\n      revert\n    tag_80:\n      pop\n      tag_63\n      0x04\n      dup1\n      calldatasize\n      sub\n      0x20\n      dup2\n      lt\n      iszero\n      tag_82\n      jumpi\n      0x00\n      dup1\n      revert\n    tag_82:\n      pop\n      calldataload\n      sub(shl(0xa0, 0x01), 0x01)\n      and\n      tag_83\n      jump\t// in\n        /* \"contracts/dethDividendTracker.sol\":4854:4887  uint256 public lastProcessedIndex */\n    tag_12:\n      callvalue\n      dup1\n      iszero\n      tag_84\n      jumpi\n      0x00\n      dup1\n      revert\n    tag_84:\n      pop\n      tag_63\n      tag_86\n      jump\t// in\n        /* \"contracts/includes.sol\":3559:3652  function decimals() public view virtual override returns (uint8) {\r... */\n    tag_13:\n      callvalue\n      dup1\n      iszero\n      tag_87\n      jumpi\n      0x00\n      dup1\n      revert\n    tag_87:\n      pop\n      tag_88\n      tag_89\n      jump\t// in\n    tag_88:\n      0x40\n      dup1\n      mload\n      0xff\n      swap1\n      swap3\n      and\n      dup3\n      mstore\n      mload\n      swap1\n      dup2\n      swap1\n      sub\n      0x20\n      add\n      swap1\n      return\n        /* \"contracts/dethDividendTracker.sol\":6084:6367  function excludeFromDividends(address account) external onlyOwner {\r... */\n    tag_14:\n      callvalue\n      dup1\n      iszero\n      tag_90\n      jumpi\n      0x00\n      dup1\n      revert\n    tag_90:\n      pop\n      tag_48\n      0x04\n      dup1\n      calldatasize\n      sub\n      0x20\n      dup2\n      lt\n      iszero\n      tag_92\n      jumpi\n      0x00\n      dup1\n      revert\n    tag_92:\n      pop\n      calldataload\n      sub(shl(0xa0, 0x01), 0x01)\n      and\n      tag_93\n      jump\t// in\n        /* \"contracts/includes.sol\":4793:5011  function increaseAllowance(address spender, uint256 addedValue) public virtual returns (bool) {\r... */\n    tag_15:\n      callvalue\n      dup1\n      iszero\n      tag_94\n      jumpi\n      0x00\n      dup1\n      revert\n    tag_94:\n      pop\n      tag_59\n      0x04\n      dup1\n      calldatasize\n      sub\n      0x40\n      dup2\n      lt\n      iszero\n      tag_96\n      jumpi\n      0x00\n      dup1\n      revert\n    tag_96:\n      pop\n      sub(shl(0xa0, 0x01), 0x01)\n      dup2\n      calldataload\n      and\n      swap1\n      0x20\n      add\n      calldataload\n      tag_97\n      jump\t// in\n        /* \"contracts/dethDividendTracker.sol\":4896:4950  mapping (address => bool) public excludedFromDividends */\n    tag_16:\n      callvalue\n      dup1\n      iszero\n      tag_98\n      jumpi\n      0x00\n      dup1\n      revert\n    tag_98:\n      pop\n      tag_59\n      0x04\n      dup1\n      calldatasize\n      sub\n      0x20\n      dup2\n      lt\n      iszero\n      tag_100\n      jumpi\n      0x00\n      dup1\n      revert\n    tag_100:\n      pop\n      calldataload\n      sub(shl(0xa0, 0x01), 0x01)\n      and\n      tag_101\n      jump\t// in\n        /* \"contracts/dethDividendTracker.sol\":8721:9226  function getAccountAtIndex(uint256 index)\r... */\n    tag_17:\n      callvalue\n      dup1\n      iszero\n      tag_102\n      jumpi\n      0x00\n      dup1\n      revert\n    tag_102:\n      pop\n      tag_103\n      0x04\n      dup1\n      calldatasize\n      sub\n      0x20\n      dup2\n      lt\n      iszero\n      tag_104\n      jumpi\n      0x00\n      dup1\n      revert\n    tag_104:\n      pop\n      calldataload\n      tag_105\n      jump\t// in\n    tag_103:\n      0x40\n      dup1\n      mload\n      sub(shl(0xa0, 0x01), 0x01)\n      swap1\n      swap10\n      and\n      dup10\n      mstore\n      0x20\n      dup10\n      add\n      swap8\n      swap1\n      swap8\n      mstore\n      dup8\n      dup8\n      add\n      swap6\n      swap1\n      swap6\n      mstore\n      0x60\n      dup8\n      add\n      swap4\n      swap1\n      swap4\n      mstore\n      0x80\n      dup7\n      add\n      swap2\n      swap1\n      swap2\n      mstore\n      0xa0\n      dup6\n      add\n      mstore\n      0xc0\n      dup5\n      add\n      mstore\n      0xe0\n      dup4\n      add\n      mstore\n      mload\n      swap1\n      dup2\n      swap1\n      sub\n      0x0100\n      add\n      swap1\n      return\n        /* \"contracts/dethDividendTracker.sol\":5706:5888  function withdrawDividend() public override {\r... */\n    tag_18:\n      callvalue\n      dup1\n      iszero\n      tag_106\n      jumpi\n      0x00\n      dup1\n      revert\n    tag_106:\n      pop\n      tag_48\n      tag_108\n      jump\t// in\n        /* \"contracts/dethDividendTracker.sol\":5018:5042  uint256 public claimWait */\n    tag_19:\n      callvalue\n      dup1\n      iszero\n      tag_109\n      jumpi\n      0x00\n      dup1\n      revert\n    tag_109:\n      pop\n      tag_63\n      tag_111\n      jump\t// in\n        /* \"contracts/includes.sol\":3776:3903  function balanceOf(address account) public view virtual override returns (uint256) {\r... */\n    tag_20:\n      callvalue\n      dup1\n      iszero\n      tag_112\n      jumpi\n      0x00\n      dup1\n      revert\n    tag_112:\n      pop\n      tag_63\n      0x04\n      dup1\n      calldatasize\n      sub\n      0x20\n      dup2\n      lt\n      iszero\n      tag_114\n      jumpi\n      0x00\n      dup1\n      revert\n    tag_114:\n      pop\n      calldataload\n      sub(shl(0xa0, 0x01), 0x01)\n      and\n      tag_115\n      jump\t// in\n        /* \"contracts/includes.sol\":9286:9434  function renounceOwnership() public virtual onlyOwner {\r... */\n    tag_21:\n      callvalue\n      dup1\n      iszero\n      tag_116\n      jumpi\n      0x00\n      dup1\n      revert\n    tag_116:\n      pop\n      tag_48\n      tag_118\n      jump\t// in\n        /* \"contracts/dethDividendTracker.sol\":1232:1272  uint256 public totalDividendsDistributed */\n    tag_22:\n      callvalue\n      dup1\n      iszero\n      tag_119\n      jumpi\n      0x00\n      dup1\n      revert\n    tag_119:\n      pop\n      tag_63\n      tag_121\n      jump\t// in\n        /* \"contracts/includes.sol\":9072:9151  function owner() public view returns (address) {\r... */\n    tag_23:\n      callvalue\n      dup1\n      iszero\n      tag_122\n      jumpi\n      0x00\n      dup1\n      revert\n    tag_122:\n      pop\n      tag_123\n      tag_124\n      jump\t// in\n    tag_123:\n      0x40\n      dup1\n      mload\n      sub(shl(0xa0, 0x01), 0x01)\n      swap1\n      swap3\n      and\n      dup3\n      mstore\n      mload\n      swap1\n      dup2\n      swap1\n      sub\n      0x20\n      add\n      swap1\n      return\n        /* \"contracts/dethDividendTracker.sol\":2581:2705  function dividendOf(address _owner) public view override returns(uint256) {\r... */\n    tag_24:\n      callvalue\n      dup1\n      iszero\n      tag_125\n      jumpi\n      0x00\n      dup1\n      revert\n    tag_125:\n      pop\n      tag_63\n      0x04\n      dup1\n      calldatasize\n      sub\n      0x20\n      dup2\n      lt\n      iszero\n      tag_127\n      jumpi\n      0x00\n      dup1\n      revert\n    tag_127:\n      pop\n      calldataload\n      sub(shl(0xa0, 0x01), 0x01)\n      and\n      tag_128\n      jump\t// in\n        /* \"contracts/includes.sol\":3447:3551  function symbol() public view virtual override returns (string memory) {\r... */\n    tag_25:\n      callvalue\n      dup1\n      iszero\n      tag_129\n      jumpi\n      0x00\n      dup1\n      revert\n    tag_129:\n      pop\n      tag_52\n      tag_131\n      jump\t// in\n        /* \"contracts/includes.sol\":5019:5288  function decreaseAllowance(address spender, uint256 subtractedValue) public virtual returns (bool) {\r... */\n    tag_26:\n      callvalue\n      dup1\n      iszero\n      tag_136\n      jumpi\n      0x00\n      dup1\n      revert\n    tag_136:\n      pop\n      tag_59\n      0x04\n      dup1\n      calldatasize\n      sub\n      0x40\n      dup2\n      lt\n      iszero\n      tag_138\n      jumpi\n      0x00\n      dup1\n      revert\n    tag_138:\n      pop\n      sub(shl(0xa0, 0x01), 0x01)\n      dup2\n      calldataload\n      and\n      swap1\n      0x20\n      add\n      calldataload\n      tag_139\n      jump\t// in\n        /* \"contracts/dethDividendTracker.sol\":2711:2879  function withdrawableDividendOf(address _owner) public view override returns(uint256) {\r... */\n    tag_27:\n      callvalue\n      dup1\n      iszero\n      tag_140\n      jumpi\n      0x00\n      dup1\n      revert\n    tag_140:\n      pop\n      tag_63\n      0x04\n      dup1\n      calldatasize\n      sub\n      0x20\n      dup2\n      lt\n      iszero\n      tag_142\n      jumpi\n      0x00\n      dup1\n      revert\n    tag_142:\n      pop\n      calldataload\n      sub(shl(0xa0, 0x01), 0x01)\n      and\n      tag_143\n      jump\t// in\n        /* \"contracts/includes.sol\":3911:4086  function transfer(address recipient, uint256 amount) public virtual override returns (bool) {\r... */\n    tag_28:\n      callvalue\n      dup1\n      iszero\n      tag_144\n      jumpi\n      0x00\n      dup1\n      revert\n    tag_144:\n      pop\n      tag_59\n      0x04\n      dup1\n      calldatasize\n      sub\n      0x40\n      dup2\n      lt\n      iszero\n      tag_146\n      jumpi\n      0x00\n      dup1\n      revert\n    tag_146:\n      pop\n      sub(shl(0xa0, 0x01), 0x01)\n      dup2\n      calldataload\n      and\n      swap1\n      0x20\n      add\n      calldataload\n      tag_147\n      jump\t// in\n        /* \"contracts/dethDividendTracker.sol\":2885:3014  function withdrawnDividendOf(address _owner) public view override returns(uint256) {\r... */\n    tag_29:\n      callvalue\n      dup1\n      iszero\n      tag_148\n      jumpi\n      0x00\n      dup1\n      revert\n    tag_148:\n      pop\n      tag_63\n      0x04\n      dup1\n      calldatasize\n      sub\n      0x20\n      dup2\n      lt\n      iszero\n      tag_150\n      jumpi\n      0x00\n      dup1\n      revert\n    tag_150:\n      pop\n      calldataload\n      sub(shl(0xa0, 0x01), 0x01)\n      and\n      tag_151\n      jump\t// in\n        /* \"contracts/dethDividendTracker.sol\":11087:11430  function processAccount(address payable account, bool automatic) public onlyOwner returns (bool) {\r... */\n    tag_30:\n      callvalue\n      dup1\n      iszero\n      tag_152\n      jumpi\n      0x00\n      dup1\n      revert\n    tag_152:\n      pop\n      tag_59\n      0x04\n      dup1\n      calldatasize\n      sub\n      0x40\n      dup2\n      lt\n      iszero\n      tag_154\n      jumpi\n      0x00\n      dup1\n      revert\n    tag_154:\n      pop\n      sub(shl(0xa0, 0x01), 0x01)\n      dup2\n      calldataload\n      and\n      swap1\n      0x20\n      add\n      calldataload\n      iszero\n      iszero\n      tag_155\n      jump\t// in\n        /* \"contracts/dethDividendTracker.sol\":5049:5096  uint256 public  minimumTokenBalanceForDividends */\n    tag_31:\n      callvalue\n      dup1\n      iszero\n      tag_156\n      jumpi\n      0x00\n      dup1\n      revert\n    tag_156:\n      pop\n      tag_63\n      tag_158\n      jump\t// in\n        /* \"contracts/includes.sol\":4094:4245  function allowance(address owner, address spender) public view virtual override returns (uint256) {\r... */\n    tag_32:\n      callvalue\n      dup1\n      iszero\n      tag_159\n      jumpi\n      0x00\n      dup1\n      revert\n    tag_159:\n      pop\n      tag_63\n      0x04\n      dup1\n      calldatasize\n      sub\n      0x40\n      dup2\n      lt\n      iszero\n      tag_161\n      jumpi\n      0x00\n      dup1\n      revert\n    tag_161:\n      pop\n      sub(shl(0xa0, 0x01), 0x01)\n      dup2\n      calldataload\n      dup2\n      and\n      swap2\n      0x20\n      add\n      calldataload\n      and\n      tag_162\n      jump\t// in\n        /* \"contracts/dethDividendTracker.sol\":9461:9921  function setBalance(address payable account, uint256 newBalance) external onlyOwner {\r... */\n    tag_33:\n      callvalue\n      dup1\n      iszero\n      tag_163\n      jumpi\n      0x00\n      dup1\n      revert\n    tag_163:\n      pop\n      tag_48\n      0x04\n      dup1\n      calldatasize\n      sub\n      0x40\n      dup2\n      lt\n      iszero\n      tag_165\n      jumpi\n      0x00\n      dup1\n      revert\n    tag_165:\n      pop\n      sub(shl(0xa0, 0x01), 0x01)\n      dup2\n      calldataload\n      and\n      swap1\n      0x20\n      add\n      calldataload\n      tag_166\n      jump\t// in\n        /* \"contracts/dethDividendTracker.sol\":6799:6904  function getLastProcessedIndex() external view returns(uint256) {\r... */\n    tag_34:\n      callvalue\n      dup1\n      iszero\n      tag_167\n      jumpi\n      0x00\n      dup1\n      revert\n    tag_167:\n      pop\n      tag_63\n      tag_169\n      jump\t// in\n        /* \"contracts/dethDividendTracker.sol\":6375:6791  function updateClaimWait(uint256 newClaimWait) external onlyOwner {\r... */\n    tag_35:\n      callvalue\n      dup1\n      iszero\n      tag_170\n      jumpi\n      0x00\n      dup1\n      revert\n    tag_170:\n      pop\n      tag_48\n      0x04\n      dup1\n      calldatasize\n      sub\n      0x20\n      dup2\n      lt\n      iszero\n      tag_172\n      jumpi\n      0x00\n      dup1\n      revert\n    tag_172:\n      pop\n      calldataload\n      tag_173\n      jump\t// in\n        /* \"contracts/includes.sol\":9442:9686  function transferOwnership(address newOwner) public virtual onlyOwner {\r... */\n    tag_36:\n      callvalue\n      dup1\n      iszero\n      tag_174\n      jumpi\n      0x00\n      dup1\n      revert\n    tag_174:\n      pop\n      tag_48\n      0x04\n      dup1\n      calldatasize\n      sub\n      0x20\n      dup2\n      lt\n      iszero\n      tag_176\n      jumpi\n      0x00\n      dup1\n      revert\n    tag_176:\n      pop\n      calldataload\n      sub(shl(0xa0, 0x01), 0x01)\n      and\n      tag_177\n      jump\t// in\n        /* \"contracts/dethDividendTracker.sol\":7043:8713  function getAccount(address _account)\r... */\n    tag_37:\n      callvalue\n      dup1\n      iszero\n      tag_178\n      jumpi\n      0x00\n      dup1\n      revert\n    tag_178:\n      pop\n      tag_103\n      0x04\n      dup1\n      calldatasize\n      sub\n      0x20\n      dup2\n      lt\n      iszero\n      tag_180\n      jumpi\n      0x00\n      dup1\n      revert\n    tag_180:\n      pop\n      calldataload\n      sub(shl(0xa0, 0x01), 0x01)\n      and\n      tag_181\n      jump\t// in\n        /* \"contracts/dethDividendTracker.sol\":9929:11079  function process(uint256 gas) public returns (uint256, uint256, uint256) {\r... */\n    tag_38:\n      callvalue\n      dup1\n      iszero\n      tag_182\n      jumpi\n      0x00\n      dup1\n      revert\n    tag_182:\n      pop\n      tag_183\n      0x04\n      dup1\n      calldatasize\n      sub\n      0x20\n      dup2\n      lt\n      iszero\n      tag_184\n      jumpi\n      0x00\n      dup1\n      revert\n    tag_184:\n      pop\n      calldataload\n      tag_185\n      jump\t// in\n    tag_183:\n      0x40\n      dup1\n      mload\n      swap4\n      dup5\n      mstore\n      0x20\n      dup5\n      add\n      swap3\n      swap1\n      swap3\n      mstore\n      dup3\n      dup3\n      add\n      mstore\n      mload\n      swap1\n      dup2\n      swap1\n      sub\n      0x60\n      add\n      swap1\n      return\n        /* \"contracts/dethDividendTracker.sol\":1445:1838  function distributeDividends() public override payable {\r... */\n    tag_49:\n        /* \"contracts/dethDividendTracker.sol\":1531:1532  0 */\n      0x00\n        /* \"contracts/dethDividendTracker.sol\":1515:1528  totalSupply() */\n      tag_187\n        /* \"contracts/dethDividendTracker.sol\":1515:1526  totalSupply */\n      tag_71\n        /* \"contracts/dethDividendTracker.sol\":1515:1528  totalSupply() */\n      jump\t// in\n    tag_187:\n        /* \"contracts/dethDividendTracker.sol\":1515:1532  totalSupply() > 0 */\n      gt\n        /* \"contracts/dethDividendTracker.sol\":1507:1533  require(totalSupply() > 0) */\n      tag_188\n      jumpi\n      0x00\n      dup1\n      revert\n    tag_188:\n        /* \"contracts/dethDividendTracker.sol\":1546:1555  msg.value */\n      callvalue\n        /* \"contracts/dethDividendTracker.sol\":1546:1559  msg.value > 0 */\n      iszero\n        /* \"contracts/dethDividendTracker.sol\":1542:1833  if (msg.value > 0) {\r... */\n      tag_189\n      jumpi\n        /* \"contracts/dethDividendTracker.sol\":1598:1689  magnifiedDividendPerShare.add(\r... */\n      tag_190\n        /* \"contracts/dethDividendTracker.sol\":1667:1680  totalSupply() */\n      tag_191\n        /* \"contracts/dethDividendTracker.sol\":1667:1678  totalSupply */\n      tag_71\n        /* \"contracts/dethDividendTracker.sol\":1667:1680  totalSupply() */\n      jump\t// in\n    tag_191:\n        /* \"contracts/dethDividendTracker.sol\":1638:1664  (msg.value).mul(magnitude) */\n      tag_192\n        /* \"contracts/dethDividendTracker.sol\":1639:1648  msg.value */\n      callvalue\n      shl(0x80, 0x01)\n        /* \"contracts/dethDividendTracker.sol\":1638:1653  (msg.value).mul */\n      tag_193\n        /* \"contracts/dethDividendTracker.sol\":1638:1664  (msg.value).mul(magnitude) */\n      jump\t// in\n    tag_192:\n        /* \"contracts/dethDividendTracker.sol\":1638:1680  (msg.value).mul(magnitude) / totalSupply() */\n      dup2\n      tag_194\n      jumpi\n      invalid\n    tag_194:\n        /* \"contracts/dethDividendTracker.sol\":1598:1623  magnifiedDividendPerShare */\n      sload(0x05)\n      swap2\n        /* \"contracts/dethDividendTracker.sol\":1638:1680  (msg.value).mul(magnitude) / totalSupply() */\n      swap1\n      div\n        /* \"contracts/dethDividendTracker.sol\":1598:1627  magnifiedDividendPerShare.add */\n      tag_195\n        /* \"contracts/dethDividendTracker.sol\":1598:1689  magnifiedDividendPerShare.add(\r... */\n      jump\t// in\n    tag_190:\n        /* \"contracts/dethDividendTracker.sol\":1570:1595  magnifiedDividendPerShare */\n      0x05\n        /* \"contracts/dethDividendTracker.sol\":1570:1689  magnifiedDividendPerShare = magnifiedDividendPerShare.add(\r... */\n      sstore\n        /* \"contracts/dethDividendTracker.sol\":1703:1746  DividendsDistributed(msg.sender, msg.value) */\n      0x40\n      dup1\n      mload\n        /* \"contracts/dethDividendTracker.sol\":1736:1745  msg.value */\n      callvalue\n        /* \"contracts/dethDividendTracker.sol\":1703:1746  DividendsDistributed(msg.sender, msg.value) */\n      dup2\n      mstore\n      swap1\n      mload\n        /* \"contracts/dethDividendTracker.sol\":1724:1734  msg.sender */\n      caller\n      swap2\n        /* \"contracts/dethDividendTracker.sol\":1703:1746  DividendsDistributed(msg.sender, msg.value) */\n      0xa493a9229478c3fcd73f66d2cdeb7f94fd0f341da924d1054236d78454116511\n      swap2\n      swap1\n      dup2\n      swap1\n      sub\n      0x20\n      add\n      swap1\n      log2\n        /* \"contracts/dethDividendTracker.sol\":1785:1810  totalDividendsDistributed */\n      sload(0x08)\n        /* \"contracts/dethDividendTracker.sol\":1785:1825  totalDividendsDistributed.add(msg.value) */\n      tag_196\n      swap1\n        /* \"contracts/dethDividendTracker.sol\":1815:1824  msg.value */\n      callvalue\n        /* \"contracts/dethDividendTracker.sol\":1785:1814  totalDividendsDistributed.add */\n      tag_195\n        /* \"contracts/dethDividendTracker.sol\":1785:1825  totalDividendsDistributed.add(msg.value) */\n      jump\t// in\n    tag_196:\n        /* \"contracts/dethDividendTracker.sol\":1757:1782  totalDividendsDistributed */\n      0x08\n        /* \"contracts/dethDividendTracker.sol\":1757:1825  totalDividendsDistributed = totalDividendsDistributed.add(msg.value) */\n      sstore\n        /* \"contracts/dethDividendTracker.sol\":1542:1833  if (msg.value > 0) {\r... */\n    tag_189:\n        /* \"contracts/dethDividendTracker.sol\":1445:1838  function distributeDividends() public override payable {\r... */\n      jump\t// out\n        /* \"contracts/includes.sol\":3339:3439  function name() public view virtual override returns (string memory) {\r... */\n    tag_53:\n        /* \"contracts/includes.sol\":3426:3431  _name */\n      0x03\n        /* \"contracts/includes.sol\":3419:3431  return _name */\n      dup1\n      sload\n      0x40\n      dup1\n      mload\n      0x20\n      0x1f\n      0x02\n      not(0x00)\n      0x0100\n      0x01\n      dup9\n      and\n      iszero\n      mul\n      add\n      swap1\n      swap6\n      and\n      swap5\n      swap1\n      swap5\n      div\n      swap4\n      dup5\n      add\n      dup2\n      swap1\n      div\n      dup2\n      mul\n      dup3\n      add\n      dup2\n      add\n      swap1\n      swap3\n      mstore\n      dup3\n      dup2\n      mstore\n        /* \"contracts/includes.sol\":3393:3406  string memory */\n      0x60\n      swap4\n        /* \"contracts/includes.sol\":3419:3431  return _name */\n      swap1\n      swap3\n        /* \"contracts/includes.sol\":3426:3431  _name */\n      swap1\n      swap2\n        /* \"contracts/includes.sol\":3419:3431  return _name */\n      dup4\n      add\n        /* \"contracts/includes.sol\":3426:3431  _name */\n      dup3\n        /* \"contracts/includes.sol\":3419:3431  return _name */\n      dup3\n      dup1\n      iszero\n      tag_198\n      jumpi\n      dup1\n      0x1f\n      lt\n      tag_199\n      jumpi\n      0x0100\n      dup1\n      dup4\n      sload\n      div\n      mul\n      dup4\n      mstore\n      swap2\n      0x20\n      add\n      swap2\n      jump(tag_198)\n    tag_199:\n      dup3\n      add\n      swap2\n      swap1\n      0x00\n      mstore\n      keccak256(0x00, 0x20)\n      swap1\n    tag_200:\n      dup2\n      sload\n      dup2\n      mstore\n      swap1\n      0x01\n      add\n      swap1\n      0x20\n      add\n      dup1\n      dup4\n      gt\n      tag_200\n      jumpi\n      dup3\n      swap1\n      sub\n      0x1f\n      and\n      dup3\n      add\n      swap2\n    tag_198:\n      pop\n      pop\n      pop\n      pop\n      pop\n      swap1\n      pop\n        /* \"contracts/includes.sol\":3339:3439  function name() public view virtual override returns (string memory) {\r... */\n      swap1\n      jump\t// out\n        /* \"contracts/includes.sol\":4253:4422  function approve(address spender, uint256 amount) public virtual override returns (bool) {\r... */\n    tag_61:\n        /* \"contracts/includes.sol\":4336:4340  bool */\n      0x00\n        /* \"contracts/includes.sol\":4353:4392  _approve(_msgSender(), spender, amount) */\n      tag_202\n        /* \"contracts/includes.sol\":4362:4374  _msgSender() */\n      tag_203\n        /* \"contracts/includes.sol\":4362:4372  _msgSender */\n      tag_204\n        /* \"contracts/includes.sol\":4362:4374  _msgSender() */\n      jump\t// in\n    tag_203:\n        /* \"contracts/includes.sol\":4376:4383  spender */\n      dup5\n        /* \"contracts/includes.sol\":4385:4391  amount */\n      dup5\n        /* \"contracts/includes.sol\":4353:4361  _approve */\n      tag_205\n        /* \"contracts/includes.sol\":4353:4392  _approve(_msgSender(), spender, amount) */\n      jump\t// in\n    tag_202:\n      pop\n        /* \"contracts/includes.sol\":4410:4414  true */\n      0x01\n        /* \"contracts/includes.sol\":4253:4422  function approve(address spender, uint256 amount) public virtual override returns (bool) {\r... */\n    tag_201:\n      swap3\n      swap2\n      pop\n      pop\n      jump\t// out\n        /* \"contracts/dethDividendTracker.sol\":6912:7031  function getNumberOfTokenHolders() external view returns(uint256) {\r... */\n    tag_64:\n        /* \"contracts/dethDividendTracker.sol\":6996:7011  tokenHoldersMap */\n      0x0a\n        /* \"contracts/dethDividendTracker.sol\":6996:7023  tokenHoldersMap.keys.length */\n      sload\n        /* \"contracts/dethDividendTracker.sol\":6912:7031  function getNumberOfTokenHolders() external view returns(uint256) {\r... */\n      swap1\n      jump\t// out\n        /* \"contracts/dethDividendTracker.sol\":5896:6072  function updateMinimumTokenBalanceForDividends(uint256 _newMinimumBalance) external onlyOwner {\r... */\n    tag_68:\n        /* \"contracts/includes.sol\":9209:9221  _msgSender() */\n      tag_208\n        /* \"contracts/includes.sol\":9209:9219  _msgSender */\n      tag_204\n        /* \"contracts/includes.sol\":9209:9221  _msgSender() */\n      jump\t// in\n    tag_208:\n        /* \"contracts/includes.sol\":9199:9205  _owner */\n      sload(0x09)\n      sub(shl(0xa0, 0x01), 0x01)\n      swap1\n      dup2\n      and\n        /* \"contracts/includes.sol\":9199:9221  _owner == _msgSender() */\n      swap2\n      and\n      eq\n        /* \"contracts/includes.sol\":9191:9258  require(_owner == _msgSender(), \"Ownable: caller is not the owner\") */\n      tag_209\n      jumpi\n      0x40\n      dup1\n      mload\n      shl(0xe5, 0x461bcd)\n      dup2\n      mstore\n      0x20\n      0x04\n      dup3\n      add\n      dup2\n      swap1\n      mstore\n      0x24\n      dup3\n      add\n      mstore\n      0x00\n      dup1\n      mload\n      0x20\n      data_9924ebdf1add33d25d4ef888e16131f0a5687b0580a36c21b5c301a6c462effe\n      dup4\n      codecopy\n      dup2\n      mload\n      swap2\n      mstore\n      0x44\n      dup3\n      add\n      mstore\n      swap1\n      mload\n      swap1\n      dup2\n      swap1\n      sub\n      0x64\n      add\n      swap1\n      revert\n    tag_209:\n        /* \"contracts/dethDividendTracker.sol\":6057:6063  10**18 */\n      0x0de0b6b3a7640000\n        /* \"contracts/dethDividendTracker.sol\":6035:6064  _newMinimumBalance * (10**18) */\n      mul\n        /* \"contracts/dethDividendTracker.sol\":6001:6032  minimumTokenBalanceForDividends */\n      0x12\n        /* \"contracts/dethDividendTracker.sol\":6001:6064  minimumTokenBalanceForDividends = _newMinimumBalance * (10**18) */\n      sstore\n        /* \"contracts/dethDividendTracker.sol\":5896:6072  function updateMinimumTokenBalanceForDividends(uint256 _newMinimumBalance) external onlyOwner {\r... */\n      jump\t// out\n        /* \"contracts/includes.sol\":3660:3768  function totalSupply() public view virtual override returns (uint256) {\r... */\n    tag_71:\n        /* \"contracts/includes.sol\":3748:3760  _totalSupply */\n      sload(0x02)\n        /* \"contracts/includes.sol\":3660:3768  function totalSupply() public view virtual override returns (uint256) {\r... */\n      swap1\n      jump\t// out\n        /* \"contracts/dethDividendTracker.sol\":4959:5009  mapping (address => uint256) public lastClaimTimes */\n    tag_75:\n      mstore(0x20, 0x10)\n      0x00\n      swap1\n      dup2\n      mstore\n      0x40\n      swap1\n      keccak256\n      sload\n      dup2\n      jump\t// out\n        /* \"contracts/includes.sol\":4430:4785  function transferFrom(\r... */\n    tag_79:\n        /* \"contracts/includes.sol\":4570:4574  bool */\n      0x00\n        /* \"contracts/includes.sol\":4587:4623  _transfer(sender, recipient, amount) */\n      tag_213\n        /* \"contracts/includes.sol\":4597:4603  sender */\n      dup5\n        /* \"contracts/includes.sol\":4605:4614  recipient */\n      dup5\n        /* \"contracts/includes.sol\":4616:4622  amount */\n      dup5\n        /* \"contracts/includes.sol\":4587:4596  _transfer */\n      tag_214\n        /* \"contracts/includes.sol\":4587:4623  _transfer(sender, recipient, amount) */\n      jump\t// in\n    tag_213:\n        /* \"contracts/includes.sol\":4634:4755  _approve(sender, _msgSender(), _allowances[sender][_msgSender()].sub(amount, \"ERC20: transfer amount exceeds allowance\")) */\n      tag_215\n        /* \"contracts/includes.sol\":4643:4649  sender */\n      dup5\n        /* \"contracts/includes.sol\":4651:4663  _msgSender() */\n      tag_216\n        /* \"contracts/includes.sol\":4651:4661  _msgSender */\n      tag_204\n        /* \"contracts/includes.sol\":4651:4663  _msgSender() */\n      jump\t// in\n    tag_216:\n        /* \"contracts/includes.sol\":4665:4754  _allowances[sender][_msgSender()].sub(amount, \"ERC20: transfer amount exceeds allowance\") */\n      tag_217\n        /* \"contracts/includes.sol\":4703:4709  amount */\n      dup6\n        /* \"contracts/includes.sol\":4665:4754  _allowances[sender][_msgSender()].sub(amount, \"ERC20: transfer amount exceeds allowance\") */\n      mload(0x40)\n      dup1\n      0x60\n      add\n      0x40\n      mstore\n      dup1\n      0x28\n      dup2\n      mstore\n      0x20\n      add\n      data_974d1b4421da69cc60b481194f0dad36a5bb4e23da810da7a7fb30cdba178330\n      0x28\n      swap2\n      codecopy\n      sub(shl(0xa0, 0x01), 0x01)\n        /* \"contracts/includes.sol\":4665:4684  _allowances[sender] */\n      dup11\n      and\n      0x00\n      swap1\n      dup2\n      mstore\n        /* \"contracts/includes.sol\":4665:4676  _allowances */\n      0x01\n        /* \"contracts/includes.sol\":4665:4684  _allowances[sender] */\n      0x20\n      mstore\n      0x40\n      dup2\n      keccak256\n      swap1\n        /* \"contracts/includes.sol\":4685:4697  _msgSender() */\n      tag_218\n        /* \"contracts/includes.sol\":4685:4695  _msgSender */\n      tag_204\n        /* \"contracts/includes.sol\":4685:4697  _msgSender() */\n      jump\t// in\n    tag_218:\n      sub(shl(0xa0, 0x01), 0x01)\n        /* \"contracts/includes.sol\":4665:4698  _allowances[sender][_msgSender()] */\n      and\n      dup2\n      mstore\n      0x20\n      dup2\n      add\n      swap2\n      swap1\n      swap2\n      mstore\n      0x40\n      add\n      0x00\n      keccak256\n      sload\n      swap2\n        /* \"contracts/includes.sol\":4665:4754  _allowances[sender][_msgSender()].sub(amount, \"ERC20: transfer amount exceeds allowance\") */\n      swap1\n        /* \"contracts/includes.sol\":4665:4702  _allowances[sender][_msgSender()].sub */\n      tag_219\n        /* \"contracts/includes.sol\":4665:4754  _allowances[sender][_msgSender()].sub(amount, \"ERC20: transfer amount exceeds allowance\") */\n      jump\t// in\n    tag_217:\n        /* \"contracts/includes.sol\":4634:4642  _approve */\n      tag_205\n        /* \"contracts/includes.sol\":4634:4755  _approve(sender, _msgSender(), _allowances[sender][_msgSender()].sub(amount, \"ERC20: transfer amount exceeds allowance\")) */\n      jump\t// in\n    tag_215:\n      pop\n        /* \"contracts/includes.sol\":4773:4777  true */\n      0x01\n        /* \"contracts/includes.sol\":4430:4785  function transferFrom(\r... */\n      swap4\n      swap3\n      pop\n      pop\n      pop\n      jump\t// out\n        /* \"contracts/dethDividendTracker.sol\":3020:3267  function accumulativeDividendOf(address _owner) public view override returns(uint256) {\r... */\n    tag_83:\n      sub(shl(0xa0, 0x01), 0x01)\n        /* \"contracts/dethDividendTracker.sol\":3196:3232  magnifiedDividendCorrections[_owner] */\n      dup2\n      and\n        /* \"contracts/dethDividendTracker.sol\":3097:3104  uint256 */\n      0x00\n        /* \"contracts/dethDividendTracker.sol\":3196:3232  magnifiedDividendCorrections[_owner] */\n      swap1\n      dup2\n      mstore\n        /* \"contracts/dethDividendTracker.sol\":3196:3224  magnifiedDividendCorrections */\n      0x06\n        /* \"contracts/dethDividendTracker.sol\":3196:3232  magnifiedDividendCorrections[_owner] */\n      0x20\n      mstore\n      0x40\n      dup2\n      keccak256\n      sload\n      shl(0x80, 0x01)\n        /* \"contracts/dethDividendTracker.sol\":1039:1045  2**128 */\n      swap1\n        /* \"contracts/dethDividendTracker.sol\":3120:3249  magnifiedDividendPerShare.mul(balanceOf(_owner)).toInt256Safe()\r... */\n      tag_221\n      swap1\n        /* \"contracts/dethDividendTracker.sol\":3120:3233  magnifiedDividendPerShare.mul(balanceOf(_owner)).toInt256Safe()\r... */\n      tag_222\n      swap1\n        /* \"contracts/dethDividendTracker.sol\":3120:3183  magnifiedDividendPerShare.mul(balanceOf(_owner)).toInt256Safe() */\n      tag_223\n        /* \"contracts/dethDividendTracker.sol\":3120:3168  magnifiedDividendPerShare.mul(balanceOf(_owner)) */\n      tag_224\n        /* \"contracts/dethDividendTracker.sol\":3150:3167  balanceOf(_owner) */\n      tag_225\n        /* \"contracts/dethDividendTracker.sol\":3225:3231  _owner */\n      dup9\n        /* \"contracts/dethDividendTracker.sol\":3150:3159  balanceOf */\n      tag_115\n        /* \"contracts/dethDividendTracker.sol\":3150:3167  balanceOf(_owner) */\n      jump\t// in\n    tag_225:\n        /* \"contracts/dethDividendTracker.sol\":3120:3145  magnifiedDividendPerShare */\n      sload(0x05)\n      swap1\n        /* \"contracts/dethDividendTracker.sol\":3120:3149  magnifiedDividendPerShare.mul */\n      tag_193\n        /* \"contracts/dethDividendTracker.sol\":3120:3168  magnifiedDividendPerShare.mul(balanceOf(_owner)) */\n      jump\t// in\n    tag_224:\n        /* \"contracts/dethDividendTracker.sol\":3120:3181  magnifiedDividendPerShare.mul(balanceOf(_owner)).toInt256Safe */\n      tag_226\n        /* \"contracts/dethDividendTracker.sol\":3120:3183  magnifiedDividendPerShare.mul(balanceOf(_owner)).toInt256Safe() */\n      jump\t// in\n    tag_223:\n        /* \"contracts/dethDividendTracker.sol\":3120:3195  magnifiedDividendPerShare.mul(balanceOf(_owner)).toInt256Safe()\r... */\n      swap1\n      tag_227\n        /* \"contracts/dethDividendTracker.sol\":3120:3233  magnifiedDividendPerShare.mul(balanceOf(_owner)).toInt256Safe()\r... */\n      jump\t// in\n    tag_222:\n        /* \"contracts/dethDividendTracker.sol\":3120:3247  magnifiedDividendPerShare.mul(balanceOf(_owner)).toInt256Safe()\r... */\n      tag_228\n        /* \"contracts/dethDividendTracker.sol\":3120:3249  magnifiedDividendPerShare.mul(balanceOf(_owner)).toInt256Safe()\r... */\n      jump\t// in\n    tag_221:\n        /* \"contracts/dethDividendTracker.sol\":3120:3261  magnifiedDividendPerShare.mul(balanceOf(_owner)).toInt256Safe()\r... */\n      dup2\n      tag_229\n      jumpi\n      invalid\n    tag_229:\n      div\n        /* \"contracts/dethDividendTracker.sol\":3113:3261  return magnifiedDividendPerShare.mul(balanceOf(_owner)).toInt256Safe()\r... */\n      swap1\n      pop\n        /* \"contracts/dethDividendTracker.sol\":3020:3267  function accumulativeDividendOf(address _owner) public view override returns(uint256) {\r... */\n    tag_220:\n      swap2\n      swap1\n      pop\n      jump\t// out\n        /* \"contracts/dethDividendTracker.sol\":4854:4887  uint256 public lastProcessedIndex */\n    tag_86:\n      sload(0x0e)\n      dup2\n      jump\t// out\n        /* \"contracts/includes.sol\":3559:3652  function decimals() public view virtual override returns (uint8) {\r... */\n    tag_89:\n        /* \"contracts/includes.sol\":3642:3644  18 */\n      0x12\n        /* \"contracts/includes.sol\":3559:3652  function decimals() public view virtual override returns (uint8) {\r... */\n      swap1\n      jump\t// out\n        /* \"contracts/dethDividendTracker.sol\":6084:6367  function excludeFromDividends(address account) external onlyOwner {\r... */\n    tag_93:\n        /* \"contracts/includes.sol\":9209:9221  _msgSender() */\n      tag_232\n        /* \"contracts/includes.sol\":9209:9219  _msgSender */\n      tag_204\n        /* \"contracts/includes.sol\":9209:9221  _msgSender() */\n      jump\t// in\n    tag_232:\n        /* \"contracts/includes.sol\":9199:9205  _owner */\n      sload(0x09)\n      sub(shl(0xa0, 0x01), 0x01)\n      swap1\n      dup2\n      and\n        /* \"contracts/includes.sol\":9199:9221  _owner == _msgSender() */\n      swap2\n      and\n      eq\n        /* \"contracts/includes.sol\":9191:9258  require(_owner == _msgSender(), \"Ownable: caller is not the owner\") */\n      tag_233\n      jumpi\n      0x40\n      dup1\n      mload\n      shl(0xe5, 0x461bcd)\n      dup2\n      mstore\n      0x20\n      0x04\n      dup3\n      add\n      dup2\n      swap1\n      mstore\n      0x24\n      dup3\n      add\n      mstore\n      0x00\n      dup1\n      mload\n      0x20\n      data_9924ebdf1add33d25d4ef888e16131f0a5687b0580a36c21b5c301a6c462effe\n      dup4\n      codecopy\n      dup2\n      mload\n      swap2\n      mstore\n      0x44\n      dup3\n      add\n      mstore\n      swap1\n      mload\n      swap1\n      dup2\n      swap1\n      sub\n      0x64\n      add\n      swap1\n      revert\n    tag_233:\n      sub(shl(0xa0, 0x01), 0x01)\n        /* \"contracts/dethDividendTracker.sol\":6167:6197  excludedFromDividends[account] */\n      dup2\n      and\n      0x00\n      swap1\n      dup2\n      mstore\n        /* \"contracts/dethDividendTracker.sol\":6167:6188  excludedFromDividends */\n      0x0f\n        /* \"contracts/dethDividendTracker.sol\":6167:6197  excludedFromDividends[account] */\n      0x20\n      mstore\n      0x40\n      swap1\n      keccak256\n      sload\n      0xff\n      and\n        /* \"contracts/dethDividendTracker.sol\":6166:6197  !excludedFromDividends[account] */\n      iszero\n        /* \"contracts/dethDividendTracker.sol\":6158:6198  require(!excludedFromDividends[account]) */\n      tag_235\n      jumpi\n      0x00\n      dup1\n      revert\n    tag_235:\n      sub(shl(0xa0, 0x01), 0x01)\n        /* \"contracts/dethDividendTracker.sol\":6206:6236  excludedFromDividends[account] */\n      dup2\n      and\n      0x00\n      swap1\n      dup2\n      mstore\n        /* \"contracts/dethDividendTracker.sol\":6206:6227  excludedFromDividends */\n      0x0f\n        /* \"contracts/dethDividendTracker.sol\":6206:6236  excludedFromDividends[account] */\n      0x20\n      mstore\n      0x40\n      dup2\n      keccak256\n        /* \"contracts/dethDividendTracker.sol\":6206:6243  excludedFromDividends[account] = true */\n      dup1\n      sload\n      not(0xff)\n      and\n        /* \"contracts/dethDividendTracker.sol\":6239:6243  true */\n      0x01\n        /* \"contracts/dethDividendTracker.sol\":6206:6243  excludedFromDividends[account] = true */\n      or\n      swap1\n      sstore\n        /* \"contracts/dethDividendTracker.sol\":6253:6276  _setBalance(account, 0) */\n      tag_236\n      swap1\n        /* \"contracts/dethDividendTracker.sol\":6228:6235  account */\n      dup3\n      swap1\n        /* \"contracts/dethDividendTracker.sol\":6253:6264  _setBalance */\n      tag_237\n        /* \"contracts/dethDividendTracker.sol\":6253:6276  _setBalance(account, 0) */\n      jump\t// in\n    tag_236:\n        /* \"contracts/dethDividendTracker.sol\":6284:6315  tokenHoldersMap.remove(account) */\n      0x40\n      dup1\n      mload\n      shl(0xe2, 0x131836e7)\n      dup2\n      mstore\n        /* \"contracts/dethDividendTracker.sol\":6284:6299  tokenHoldersMap */\n      0x0a\n        /* \"contracts/dethDividendTracker.sol\":6284:6315  tokenHoldersMap.remove(account) */\n      0x04\n      dup3\n      add\n      mstore\n      sub(shl(0xa0, 0x01), 0x01)\n      dup4\n      and\n      0x24\n      dup3\n      add\n      mstore\n      swap1\n      mload\n        /* \"contracts/dethDividendTracker.sol\":6284:6306  tokenHoldersMap.remove */\n      linkerSymbol(\"eb87864847a12bc97278b3a3a75a5c0846be79d4b149471ba40e5b3af9901aca\")\n      swap2\n      0x4c60db9c\n      swap2\n        /* \"contracts/dethDividendTracker.sol\":6284:6315  tokenHoldersMap.remove(account) */\n      0x44\n      dup1\n      dup4\n      add\n      swap3\n      0x00\n      swap3\n      swap2\n      swap1\n      dup3\n      swap1\n      sub\n      add\n      dup2\n        /* \"contracts/dethDividendTracker.sol\":6284:6306  tokenHoldersMap.remove */\n      dup7\n        /* \"contracts/dethDividendTracker.sol\":6284:6315  tokenHoldersMap.remove(account) */\n      dup1\n      extcodesize\n      iszero\n      dup1\n      iszero\n      tag_238\n      jumpi\n      0x00\n      dup1\n      revert\n    tag_238:\n      pop\n      gas\n      delegatecall\n      iszero\n      dup1\n      iszero\n      tag_240\n      jumpi\n      returndatasize\n      0x00\n      dup1\n      returndatacopy\n      revert(0x00, returndatasize)\n    tag_240:\n      pop\n      pop\n        /* \"contracts/dethDividendTracker.sol\":6330:6359  ExcludeFromDividends(account) */\n      mload(0x40)\n      sub(shl(0xa0, 0x01), 0x01)\n      dup5\n      and\n      swap3\n      pop\n      0xa878b31040b2e6d0a9a3d3361209db3908ba62014b0dca52adbaee451d128b25\n      swap2\n      pop\n      0x00\n      swap1\n      log2\n        /* \"contracts/dethDividendTracker.sol\":6084:6367  function excludeFromDividends(address account) external onlyOwner {\r... */\n      pop\n      jump\t// out\n        /* \"contracts/includes.sol\":4793:5011  function increaseAllowance(address spender, uint256 addedValue) public virtual returns (bool) {\r... */\n    tag_97:\n        /* \"contracts/includes.sol\":4881:4885  bool */\n      0x00\n        /* \"contracts/includes.sol\":4898:4981  _approve(_msgSender(), spender, _allowances[_msgSender()][spender].add(addedValue)) */\n      tag_202\n        /* \"contracts/includes.sol\":4907:4919  _msgSender() */\n      tag_243\n        /* \"contracts/includes.sol\":4907:4917  _msgSender */\n      tag_204\n        /* \"contracts/includes.sol\":4907:4919  _msgSender() */\n      jump\t// in\n    tag_243:\n        /* \"contracts/includes.sol\":4921:4928  spender */\n      dup5\n        /* \"contracts/includes.sol\":4930:4980  _allowances[_msgSender()][spender].add(addedValue) */\n      tag_217\n        /* \"contracts/includes.sol\":4969:4979  addedValue */\n      dup6\n        /* \"contracts/includes.sol\":4930:4941  _allowances */\n      0x01\n        /* \"contracts/includes.sol\":4930:4955  _allowances[_msgSender()] */\n      0x00\n        /* \"contracts/includes.sol\":4942:4954  _msgSender() */\n      tag_245\n        /* \"contracts/includes.sol\":4942:4952  _msgSender */\n      tag_204\n        /* \"contracts/includes.sol\":4942:4954  _msgSender() */\n      jump\t// in\n    tag_245:\n      sub(shl(0xa0, 0x01), 0x01)\n        /* \"contracts/includes.sol\":4930:4955  _allowances[_msgSender()] */\n      swap1\n      dup2\n      and\n      dup3\n      mstore\n      0x20\n      dup1\n      dup4\n      add\n      swap4\n      swap1\n      swap4\n      mstore\n      0x40\n      swap2\n      dup3\n      add\n      0x00\n      swap1\n      dup2\n      keccak256\n        /* \"contracts/includes.sol\":4930:4964  _allowances[_msgSender()][spender] */\n      swap2\n      dup13\n      and\n      dup2\n      mstore\n      swap3\n      mstore\n      swap1\n      keccak256\n      sload\n      swap1\n        /* \"contracts/includes.sol\":4930:4968  _allowances[_msgSender()][spender].add */\n      tag_195\n        /* \"contracts/includes.sol\":4930:4980  _allowances[_msgSender()][spender].add(addedValue) */\n      jump\t// in\n        /* \"contracts/dethDividendTracker.sol\":4896:4950  mapping (address => bool) public excludedFromDividends */\n    tag_101:\n      mstore(0x20, 0x0f)\n      0x00\n      swap1\n      dup2\n      mstore\n      0x40\n      swap1\n      keccak256\n      sload\n      0xff\n      and\n      dup2\n      jump\t// out\n        /* \"contracts/dethDividendTracker.sol\":8721:9226  function getAccountAtIndex(uint256 index)\r... */\n    tag_105:\n        /* \"contracts/dethDividendTracker.sol\":8807:8814  address */\n      0x00\n        /* \"contracts/dethDividendTracker.sol\":8829:8835  int256 */\n      dup1\n        /* \"contracts/dethDividendTracker.sol\":8850:8856  int256 */\n      0x00\n        /* \"contracts/dethDividendTracker.sol\":8871:8878  uint256 */\n      dup1\n        /* \"contracts/dethDividendTracker.sol\":8893:8900  uint256 */\n      0x00\n        /* \"contracts/dethDividendTracker.sol\":8915:8922  uint256 */\n      dup1\n        /* \"contracts/dethDividendTracker.sol\":8937:8944  uint256 */\n      0x00\n        /* \"contracts/dethDividendTracker.sol\":8959:8966  uint256 */\n      dup1\n        /* \"contracts/dethDividendTracker.sol\":8988:9003  tokenHoldersMap */\n      0x0a\n        /* \"contracts/dethDividendTracker.sol\":8988:9008  tokenHoldersMap.size */\n      linkerSymbol(\"eb87864847a12bc97278b3a3a75a5c0846be79d4b149471ba40e5b3af9901aca\")\n      0xdeb3d896\n      swap1\n      swap2\n        /* \"contracts/dethDividendTracker.sol\":8988:9010  tokenHoldersMap.size() */\n      mload(0x40)\n      dup3\n      0xffffffff\n      and\n      0xe0\n      shl\n      dup2\n      mstore\n      0x04\n      add\n      dup1\n      dup3\n      dup2\n      mstore\n      0x20\n      add\n      swap2\n      pop\n      pop\n      0x20\n      mload(0x40)\n      dup1\n      dup4\n      sub\n      dup2\n      dup7\n      dup1\n      extcodesize\n      iszero\n      dup1\n      iszero\n      tag_247\n      jumpi\n      0x00\n      dup1\n      revert\n    tag_247:\n      pop\n      gas\n      delegatecall\n      iszero\n      dup1\n      iszero\n      tag_249\n      jumpi\n      returndatasize\n      0x00\n      dup1\n      returndatacopy\n      revert(0x00, returndatasize)\n    tag_249:\n      pop\n      pop\n      pop\n      pop\n      mload(0x40)\n      returndatasize\n      0x20\n      dup2\n      lt\n      iszero\n      tag_250\n      jumpi\n      0x00\n      dup1\n      revert\n    tag_250:\n      pop\n      mload\n        /* \"contracts/dethDividendTracker.sol\":8979:9010  index >= tokenHoldersMap.size() */\n      dup10\n      lt\n        /* \"contracts/dethDividendTracker.sol\":8976:9113  if(index >= tokenHoldersMap.size()) {\r... */\n      tag_251\n      jumpi\n      pop\n        /* \"contracts/dethDividendTracker.sol\":9035:9077  0x0000000000000000000000000000000000000000 */\n      0x00\n      swap7\n      pop\n      not(0x00)\n        /* \"contracts/dethDividendTracker.sol\":9079:9081  -1 */\n      swap6\n      pop\n      dup6\n      swap5\n      pop\n        /* \"contracts/dethDividendTracker.sol\":9035:9077  0x0000000000000000000000000000000000000000 */\n      dup7\n      swap4\n      pop\n      dup4\n      swap3\n      pop\n      dup3\n      swap2\n      pop\n      dup2\n      swap1\n      pop\n      dup1\n        /* \"contracts/dethDividendTracker.sol\":9027:9101  return (0x0000000000000000000000000000000000000000, -1, -1, 0, 0, 0, 0, 0) */\n      jump(tag_246)\n        /* \"contracts/dethDividendTracker.sol\":8976:9113  if(index >= tokenHoldersMap.size()) {\r... */\n    tag_251:\n        /* \"contracts/dethDividendTracker.sol\":9125:9140  address account */\n      0x00\n        /* \"contracts/dethDividendTracker.sol\":9143:9158  tokenHoldersMap */\n      0x0a\n        /* \"contracts/dethDividendTracker.sol\":9143:9172  tokenHoldersMap.getKeyAtIndex */\n      linkerSymbol(\"eb87864847a12bc97278b3a3a75a5c0846be79d4b149471ba40e5b3af9901aca\")\n      0xd1aa9e7e\n      swap1\n      swap2\n        /* \"contracts/dethDividendTracker.sol\":9173:9178  index */\n      dup13\n        /* \"contracts/dethDividendTracker.sol\":9143:9179  tokenHoldersMap.getKeyAtIndex(index) */\n      mload(0x40)\n      dup4\n      0xffffffff\n      and\n      0xe0\n      shl\n      dup2\n      mstore\n      0x04\n      add\n      dup1\n      dup4\n      dup2\n      mstore\n      0x20\n      add\n      dup3\n      dup2\n      mstore\n      0x20\n      add\n      swap3\n      pop\n      pop\n      pop\n      0x20\n      mload(0x40)\n      dup1\n      dup4\n      sub\n      dup2\n      dup7\n      dup1\n      extcodesize\n      iszero\n      dup1\n      iszero\n      tag_252\n      jumpi\n      0x00\n      dup1\n      revert\n    tag_252:\n      pop\n      gas\n      delegatecall\n      iszero\n      dup1\n      iszero\n      tag_254\n      jumpi\n      returndatasize\n      0x00\n      dup1\n      returndatacopy\n      revert(0x00, returndatasize)\n    tag_254:\n      pop\n      pop\n      pop\n      pop\n      mload(0x40)\n      returndatasize\n      0x20\n      dup2\n      lt\n      iszero\n      tag_255\n      jumpi\n      0x00\n      dup1\n      revert\n    tag_255:\n      pop\n      mload\n      swap1\n      pop\n        /* \"contracts/dethDividendTracker.sol\":9199:9218  getAccount(account) */\n      tag_256\n        /* \"contracts/dethDividendTracker.sol\":9143:9179  tokenHoldersMap.getKeyAtIndex(index) */\n      dup2\n        /* \"contracts/dethDividendTracker.sol\":9199:9209  getAccount */\n      tag_181\n        /* \"contracts/dethDividendTracker.sol\":9199:9218  getAccount(account) */\n      jump\t// in\n    tag_256:\n        /* \"contracts/dethDividendTracker.sol\":9192:9218  return getAccount(account) */\n      swap9\n      pop\n      swap9\n      pop\n      swap9\n      pop\n      swap9\n      pop\n      swap9\n      pop\n      swap9\n      pop\n      swap9\n      pop\n      swap9\n      pop\n      pop\n        /* \"contracts/dethDividendTracker.sol\":8721:9226  function getAccountAtIndex(uint256 index)\r... */\n    tag_246:\n      swap2\n      swap4\n      swap6\n      swap8\n      pop\n      swap2\n      swap4\n      swap6\n      swap8\n      jump\t// out\n        /* \"contracts/dethDividendTracker.sol\":5706:5888  function withdrawDividend() public override {\r... */\n    tag_108:\n        /* \"contracts/dethDividendTracker.sol\":5761:5880  require(false, \"dETH_Dividend_Tracker: withdrawDividend disabled. Use the 'claim' function on the main dETH contract.\") */\n      mload(0x40)\n      shl(0xe5, 0x461bcd)\n      dup2\n      mstore\n      0x04\n      add\n      dup1\n      dup1\n      0x20\n      add\n      dup3\n      dup2\n      sub\n      dup3\n      mstore\n      0x65\n      dup2\n      mstore\n      0x20\n      add\n      dup1\n      data_90e7fcfc7f3a8179054ac3edb41409736b6fa2024f3366c345aadbbd1a927994\n      0x65\n      swap2\n      codecopy\n      0x80\n      add\n      swap2\n      pop\n      pop\n      mload(0x40)\n      dup1\n      swap2\n      sub\n      swap1\n      revert\n        /* \"contracts/dethDividendTracker.sol\":5018:5042  uint256 public claimWait */\n    tag_111:\n      sload(0x11)\n      dup2\n      jump\t// out\n        /* \"contracts/includes.sol\":3776:3903  function balanceOf(address account) public view virtual override returns (uint256) {\r... */\n    tag_115:\n      sub(shl(0xa0, 0x01), 0x01)\n        /* \"contracts/includes.sol\":3877:3895  _balances[account] */\n      and\n        /* \"contracts/includes.sol\":3850:3857  uint256 */\n      0x00\n        /* \"contracts/includes.sol\":3877:3895  _balances[account] */\n      swap1\n      dup2\n      mstore\n      0x20\n      dup2\n      swap1\n      mstore\n      0x40\n      swap1\n      keccak256\n      sload\n      swap1\n        /* \"contracts/includes.sol\":3776:3903  function balanceOf(address account) public view virtual override returns (uint256) {\r... */\n      jump\t// out\n        /* \"contracts/includes.sol\":9286:9434  function renounceOwnership() public virtual onlyOwner {\r... */\n    tag_118:\n        /* \"contracts/includes.sol\":9209:9221  _msgSender() */\n      tag_261\n        /* \"contracts/includes.sol\":9209:9219  _msgSender */\n      tag_204\n        /* \"contracts/includes.sol\":9209:9221  _msgSender() */\n      jump\t// in\n    tag_261:\n        /* \"contracts/includes.sol\":9199:9205  _owner */\n      sload(0x09)\n      sub(shl(0xa0, 0x01), 0x01)\n      swap1\n      dup2\n      and\n        /* \"contracts/includes.sol\":9199:9221  _owner == _msgSender() */\n      swap2\n      and\n      eq\n        /* \"contracts/includes.sol\":9191:9258  require(_owner == _msgSender(), \"Ownable: caller is not the owner\") */\n      tag_262\n      jumpi\n      0x40\n      dup1\n      mload\n      shl(0xe5, 0x461bcd)\n      dup2\n      mstore\n      0x20\n      0x04\n      dup3\n      add\n      dup2\n      swap1\n      mstore\n      0x24\n      dup3\n      add\n      mstore\n      0x00\n      dup1\n      mload\n      0x20\n      data_9924ebdf1add33d25d4ef888e16131f0a5687b0580a36c21b5c301a6c462effe\n      dup4\n      codecopy\n      dup2\n      mload\n      swap2\n      mstore\n      0x44\n      dup3\n      add\n      mstore\n      swap1\n      mload\n      swap1\n      dup2\n      swap1\n      sub\n      0x64\n      add\n      swap1\n      revert\n    tag_262:\n        /* \"contracts/includes.sol\":9377:9383  _owner */\n      sload(0x09)\n        /* \"contracts/includes.sol\":9356:9396  OwnershipTransferred(_owner, address(0)) */\n      mload(0x40)\n        /* \"contracts/includes.sol\":9393:9394  0 */\n      0x00\n      swap2\n      sub(shl(0xa0, 0x01), 0x01)\n        /* \"contracts/includes.sol\":9377:9383  _owner */\n      and\n      swap1\n        /* \"contracts/includes.sol\":9356:9396  OwnershipTransferred(_owner, address(0)) */\n      0x8be0079c531659141344cd1fd0a4f28419497f9722a3daafe3b4186f6b6457e0\n      swap1\n        /* \"contracts/includes.sol\":9393:9394  0 */\n      dup4\n      swap1\n        /* \"contracts/includes.sol\":9356:9396  OwnershipTransferred(_owner, address(0)) */\n      log3\n        /* \"contracts/includes.sol\":9407:9413  _owner */\n      0x09\n        /* \"contracts/includes.sol\":9407:9426  _owner = address(0) */\n      dup1\n      sload\n      not(sub(shl(0xa0, 0x01), 0x01))\n      and\n      swap1\n      sstore\n        /* \"contracts/includes.sol\":9286:9434  function renounceOwnership() public virtual onlyOwner {\r... */\n      jump\t// out\n        /* \"contracts/dethDividendTracker.sol\":1232:1272  uint256 public totalDividendsDistributed */\n    tag_121:\n      sload(0x08)\n      dup2\n      jump\t// out\n        /* \"contracts/includes.sol\":9072:9151  function owner() public view returns (address) {\r... */\n    tag_124:\n        /* \"contracts/includes.sol\":9137:9143  _owner */\n      and(sub(shl(0xa0, 0x01), 0x01), sload(0x09))\n        /* \"contracts/includes.sol\":9072:9151  function owner() public view returns (address) {\r... */\n      swap1\n      jump\t// out\n        /* \"contracts/dethDividendTracker.sol\":2581:2705  function dividendOf(address _owner) public view override returns(uint256) {\r... */\n    tag_128:\n        /* \"contracts/dethDividendTracker.sol\":2646:2653  uint256 */\n      0x00\n        /* \"contracts/dethDividendTracker.sol\":2669:2699  withdrawableDividendOf(_owner) */\n      tag_201\n        /* \"contracts/dethDividendTracker.sol\":2692:2698  _owner */\n      dup3\n        /* \"contracts/dethDividendTracker.sol\":2669:2691  withdrawableDividendOf */\n      tag_143\n        /* \"contracts/dethDividendTracker.sol\":2669:2699  withdrawableDividendOf(_owner) */\n      jump\t// in\n        /* \"contracts/includes.sol\":3447:3551  function symbol() public view virtual override returns (string memory) {\r... */\n    tag_131:\n        /* \"contracts/includes.sol\":3536:3543  _symbol */\n      0x04\n        /* \"contracts/includes.sol\":3529:3543  return _symbol */\n      dup1\n      sload\n      0x40\n      dup1\n      mload\n      0x20\n      0x1f\n      0x02\n      not(0x00)\n      0x0100\n      0x01\n      dup9\n      and\n      iszero\n      mul\n      add\n      swap1\n      swap6\n      and\n      swap5\n      swap1\n      swap5\n      div\n      swap4\n      dup5\n      add\n      dup2\n      swap1\n      div\n      dup2\n      mul\n      dup3\n      add\n      dup2\n      add\n      swap1\n      swap3\n      mstore\n      dup3\n      dup2\n      mstore\n        /* \"contracts/includes.sol\":3503:3516  string memory */\n      0x60\n      swap4\n        /* \"contracts/includes.sol\":3529:3543  return _symbol */\n      swap1\n      swap3\n        /* \"contracts/includes.sol\":3536:3543  _symbol */\n      swap1\n      swap2\n        /* \"contracts/includes.sol\":3529:3543  return _symbol */\n      dup4\n      add\n        /* \"contracts/includes.sol\":3536:3543  _symbol */\n      dup3\n        /* \"contracts/includes.sol\":3529:3543  return _symbol */\n      dup3\n      dup1\n      iszero\n      tag_198\n      jumpi\n      dup1\n      0x1f\n      lt\n      tag_199\n      jumpi\n      0x0100\n      dup1\n      dup4\n      sload\n      div\n      mul\n      dup4\n      mstore\n      swap2\n      0x20\n      add\n      swap2\n      jump(tag_198)\n        /* \"contracts/includes.sol\":5019:5288  function decreaseAllowance(address spender, uint256 subtractedValue) public virtual returns (bool) {\r... */\n    tag_139:\n        /* \"contracts/includes.sol\":5112:5116  bool */\n      0x00\n        /* \"contracts/includes.sol\":5129:5258  _approve(_msgSender(), spender, _allowances[_msgSender()][spender].sub(subtractedValue, \"ERC20: decreased allowance below zero\")) */\n      tag_202\n        /* \"contracts/includes.sol\":5138:5150  _msgSender() */\n      tag_273\n        /* \"contracts/includes.sol\":5138:5148  _msgSender */\n      tag_204\n        /* \"contracts/includes.sol\":5138:5150  _msgSender() */\n      jump\t// in\n    tag_273:\n        /* \"contracts/includes.sol\":5152:5159  spender */\n      dup5\n        /* \"contracts/includes.sol\":5161:5257  _allowances[_msgSender()][spender].sub(subtractedValue, \"ERC20: decreased allowance below zero\") */\n      tag_217\n        /* \"contracts/includes.sol\":5200:5215  subtractedValue */\n      dup6\n        /* \"contracts/includes.sol\":5161:5257  _allowances[_msgSender()][spender].sub(subtractedValue, \"ERC20: decreased allowance below zero\") */\n      mload(0x40)\n      dup1\n      0x60\n      add\n      0x40\n      mstore\n      dup1\n      0x25\n      dup2\n      mstore\n      0x20\n      add\n      data_f8b476f7d28209d77d4a4ac1fe36b9f8259aa1bb6bddfa6e89de7e51615cf8a8\n      0x25\n      swap2\n      codecopy\n        /* \"contracts/includes.sol\":5161:5172  _allowances */\n      0x01\n        /* \"contracts/includes.sol\":5161:5186  _allowances[_msgSender()] */\n      0x00\n        /* \"contracts/includes.sol\":5173:5185  _msgSender() */\n      tag_275\n        /* \"contracts/includes.sol\":5173:5183  _msgSender */\n      tag_204\n        /* \"contracts/includes.sol\":5173:5185  _msgSender() */\n      jump\t// in\n    tag_275:\n      sub(shl(0xa0, 0x01), 0x01)\n        /* \"contracts/includes.sol\":5161:5186  _allowances[_msgSender()] */\n      swap1\n      dup2\n      and\n      dup3\n      mstore\n      0x20\n      dup1\n      dup4\n      add\n      swap4\n      swap1\n      swap4\n      mstore\n      0x40\n      swap2\n      dup3\n      add\n      0x00\n      swap1\n      dup2\n      keccak256\n        /* \"contracts/includes.sol\":5161:5195  _allowances[_msgSender()][spender] */\n      swap2\n      dup14\n      and\n      dup2\n      mstore\n      swap3\n      mstore\n      swap1\n      keccak256\n      sload\n      swap2\n        /* \"contracts/includes.sol\":5161:5257  _allowances[_msgSender()][spender].sub(subtractedValue, \"ERC20: decreased allowance below zero\") */\n      swap1\n        /* \"contracts/includes.sol\":5161:5199  _allowances[_msgSender()][spender].sub */\n      tag_219\n        /* \"contracts/includes.sol\":5161:5257  _allowances[_msgSender()][spender].sub(subtractedValue, \"ERC20: decreased allowance below zero\") */\n      jump\t// in\n        /* \"contracts/dethDividendTracker.sol\":2711:2879  function withdrawableDividendOf(address _owner) public view override returns(uint256) {\r... */\n    tag_143:\n      sub(shl(0xa0, 0x01), 0x01)\n        /* \"contracts/dethDividendTracker.sol\":2846:2872  withdrawnDividends[_owner] */\n      dup2\n      and\n        /* \"contracts/dethDividendTracker.sol\":2788:2795  uint256 */\n      0x00\n        /* \"contracts/dethDividendTracker.sol\":2846:2872  withdrawnDividends[_owner] */\n      swap1\n      dup2\n      mstore\n        /* \"contracts/dethDividendTracker.sol\":2846:2864  withdrawnDividends */\n      0x07\n        /* \"contracts/dethDividendTracker.sol\":2846:2872  withdrawnDividends[_owner] */\n      0x20\n      mstore\n      0x40\n      dup2\n      keccak256\n      sload\n        /* \"contracts/dethDividendTracker.sol\":2811:2873  accumulativeDividendOf(_owner).sub(withdrawnDividends[_owner]) */\n      tag_201\n      swap1\n        /* \"contracts/dethDividendTracker.sol\":2811:2841  accumulativeDividendOf(_owner) */\n      tag_278\n        /* \"contracts/dethDividendTracker.sol\":2865:2871  _owner */\n      dup5\n        /* \"contracts/dethDividendTracker.sol\":2811:2833  accumulativeDividendOf */\n      tag_83\n        /* \"contracts/dethDividendTracker.sol\":2811:2841  accumulativeDividendOf(_owner) */\n      jump\t// in\n    tag_278:\n        /* \"contracts/dethDividendTracker.sol\":2811:2845  accumulativeDividendOf(_owner).sub */\n      swap1\n      tag_279\n        /* \"contracts/dethDividendTracker.sol\":2811:2873  accumulativeDividendOf(_owner).sub(withdrawnDividends[_owner]) */\n      jump\t// in\n        /* \"contracts/includes.sol\":3911:4086  function transfer(address recipient, uint256 amount) public virtual override returns (bool) {\r... */\n    tag_147:\n        /* \"contracts/includes.sol\":3997:4001  bool */\n      0x00\n        /* \"contracts/includes.sol\":4014:4056  _transfer(_msgSender(), recipient, amount) */\n      tag_202\n        /* \"contracts/includes.sol\":4024:4036  _msgSender() */\n      tag_282\n        /* \"contracts/includes.sol\":4024:4034  _msgSender */\n      tag_204\n        /* \"contracts/includes.sol\":4024:4036  _msgSender() */\n      jump\t// in\n    tag_282:\n        /* \"contracts/includes.sol\":4038:4047  recipient */\n      dup5\n        /* \"contracts/includes.sol\":4049:4055  amount */\n      dup5\n        /* \"contracts/includes.sol\":4014:4023  _transfer */\n      tag_214\n        /* \"contracts/includes.sol\":4014:4056  _transfer(_msgSender(), recipient, amount) */\n      jump\t// in\n        /* \"contracts/dethDividendTracker.sol\":2885:3014  function withdrawnDividendOf(address _owner) public view override returns(uint256) {\r... */\n    tag_151:\n      sub(shl(0xa0, 0x01), 0x01)\n        /* \"contracts/dethDividendTracker.sol\":2982:3008  withdrawnDividends[_owner] */\n      and\n        /* \"contracts/dethDividendTracker.sol\":2959:2966  uint256 */\n      0x00\n        /* \"contracts/dethDividendTracker.sol\":2982:3008  withdrawnDividends[_owner] */\n      swap1\n      dup2\n      mstore\n        /* \"contracts/dethDividendTracker.sol\":2982:3000  withdrawnDividends */\n      0x07\n        /* \"contracts/dethDividendTracker.sol\":2982:3008  withdrawnDividends[_owner] */\n      0x20\n      mstore\n      0x40\n      swap1\n      keccak256\n      sload\n      swap1\n        /* \"contracts/dethDividendTracker.sol\":2885:3014  function withdrawnDividendOf(address _owner) public view override returns(uint256) {\r... */\n      jump\t// out\n        /* \"contracts/dethDividendTracker.sol\":11087:11430  function processAccount(address payable account, bool automatic) public onlyOwner returns (bool) {\r... */\n    tag_155:\n        /* \"contracts/dethDividendTracker.sol\":11178:11182  bool */\n      0x00\n        /* \"contracts/includes.sol\":9209:9221  _msgSender() */\n      tag_285\n        /* \"contracts/includes.sol\":9209:9219  _msgSender */\n      tag_204\n        /* \"contracts/includes.sol\":9209:9221  _msgSender() */\n      jump\t// in\n    tag_285:\n        /* \"contracts/includes.sol\":9199:9205  _owner */\n      sload(0x09)\n      sub(shl(0xa0, 0x01), 0x01)\n      swap1\n      dup2\n      and\n        /* \"contracts/includes.sol\":9199:9221  _owner == _msgSender() */\n      swap2\n      and\n      eq\n        /* \"contracts/includes.sol\":9191:9258  require(_owner == _msgSender(), \"Ownable: caller is not the owner\") */\n      tag_286\n      jumpi\n      0x40\n      dup1\n      mload\n      shl(0xe5, 0x461bcd)\n      dup2\n      mstore\n      0x20\n      0x04\n      dup3\n      add\n      dup2\n      swap1\n      mstore\n      0x24\n      dup3\n      add\n      mstore\n      0x00\n      dup1\n      mload\n      0x20\n      data_9924ebdf1add33d25d4ef888e16131f0a5687b0580a36c21b5c301a6c462effe\n      dup4\n      codecopy\n      dup2\n      mload\n      swap2\n      mstore\n      0x44\n      dup3\n      add\n      mstore\n      swap1\n      mload\n      swap1\n      dup2\n      swap1\n      sub\n      0x64\n      add\n      swap1\n      revert\n    tag_286:\n        /* \"contracts/dethDividendTracker.sol\":11195:11209  uint256 amount */\n      0x00\n        /* \"contracts/dethDividendTracker.sol\":11212:11244  _withdrawDividendOfUser(account) */\n      tag_288\n        /* \"contracts/dethDividendTracker.sol\":11236:11243  account */\n      dup5\n        /* \"contracts/dethDividendTracker.sol\":11212:11235  _withdrawDividendOfUser */\n      tag_289\n        /* \"contracts/dethDividendTracker.sol\":11212:11244  _withdrawDividendOfUser(account) */\n      jump\t// in\n    tag_288:\n        /* \"contracts/dethDividendTracker.sol\":11195:11244  uint256 amount = _withdrawDividendOfUser(account) */\n      swap1\n      pop\n        /* \"contracts/dethDividendTracker.sol\":11257:11267  amount > 0 */\n      dup1\n      iszero\n        /* \"contracts/dethDividendTracker.sol\":11254:11401  if(amount > 0) {\r... */\n      tag_290\n      jumpi\n      sub(shl(0xa0, 0x01), 0x01)\n        /* \"contracts/dethDividendTracker.sol\":11278:11301  lastClaimTimes[account] */\n      dup5\n      and\n      0x00\n      dup2\n      dup2\n      mstore\n        /* \"contracts/dethDividendTracker.sol\":11278:11292  lastClaimTimes */\n      0x10\n        /* \"contracts/dethDividendTracker.sol\":11278:11301  lastClaimTimes[account] */\n      0x20\n      swap1\n      dup2\n      mstore\n      0x40\n      swap2\n      dup3\n      swap1\n      keccak256\n        /* \"contracts/dethDividendTracker.sol\":11304:11319  block.timestamp */\n      timestamp\n        /* \"contracts/dethDividendTracker.sol\":11278:11319  lastClaimTimes[account] = block.timestamp */\n      swap1\n      sstore\n        /* \"contracts/dethDividendTracker.sol\":11339:11372  Claim(account, amount, automatic) */\n      dup2\n      mload\n      dup5\n      dup2\n      mstore\n      swap2\n      mload\n      dup7\n      iszero\n      iszero\n      swap4\n        /* \"contracts/dethDividendTracker.sol\":11278:11301  lastClaimTimes[account] */\n      swap3\n        /* \"contracts/dethDividendTracker.sol\":11339:11372  Claim(account, amount, automatic) */\n      0xa2c38e2d2fb7e3e1912d937fd1ca11ed6d51864dee4cfa7a7bf02becd7acf092\n      swap3\n      swap1\n      dup3\n      swap1\n      sub\n      add\n      swap1\n      log3\n        /* \"contracts/dethDividendTracker.sol\":11388:11392  true */\n      0x01\n        /* \"contracts/dethDividendTracker.sol\":11381:11392  return true */\n      swap2\n      pop\n      pop\n      jump(tag_201)\n        /* \"contracts/dethDividendTracker.sol\":11254:11401  if(amount > 0) {\r... */\n    tag_290:\n      pop\n        /* \"contracts/dethDividendTracker.sol\":11417:11422  false */\n      0x00\n      swap4\n        /* \"contracts/dethDividendTracker.sol\":11087:11430  function processAccount(address payable account, bool automatic) public onlyOwner returns (bool) {\r... */\n      swap3\n      pop\n      pop\n      pop\n      jump\t// out\n        /* \"contracts/dethDividendTracker.sol\":5049:5096  uint256 public  minimumTokenBalanceForDividends */\n    tag_158:\n      sload(0x12)\n      dup2\n      jump\t// out\n        /* \"contracts/includes.sol\":4094:4245  function allowance(address owner, address spender) public view virtual override returns (uint256) {\r... */\n    tag_162:\n      sub(shl(0xa0, 0x01), 0x01)\n        /* \"contracts/includes.sol\":4210:4228  _allowances[owner] */\n      swap2\n      dup3\n      and\n        /* \"contracts/includes.sol\":4183:4190  uint256 */\n      0x00\n        /* \"contracts/includes.sol\":4210:4228  _allowances[owner] */\n      swap1\n      dup2\n      mstore\n        /* \"contracts/includes.sol\":4210:4221  _allowances */\n      0x01\n        /* \"contracts/includes.sol\":4210:4228  _allowances[owner] */\n      0x20\n      swap1\n      dup2\n      mstore\n      0x40\n      dup1\n      dup4\n      keccak256\n        /* \"contracts/includes.sol\":4210:4237  _allowances[owner][spender] */\n      swap4\n      swap1\n      swap5\n      and\n      dup3\n      mstore\n      swap2\n      swap1\n      swap2\n      mstore\n      keccak256\n      sload\n      swap1\n        /* \"contracts/includes.sol\":4094:4245  function allowance(address owner, address spender) public view virtual override returns (uint256) {\r... */\n      jump\t// out\n        /* \"contracts/dethDividendTracker.sol\":9461:9921  function setBalance(address payable account, uint256 newBalance) external onlyOwner {\r... */\n    tag_166:\n        /* \"contracts/includes.sol\":9209:9221  _msgSender() */\n      tag_293\n        /* \"contracts/includes.sol\":9209:9219  _msgSender */\n      tag_204\n        /* \"contracts/includes.sol\":9209:9221  _msgSender() */\n      jump\t// in\n    tag_293:\n        /* \"contracts/includes.sol\":9199:9205  _owner */\n      sload(0x09)\n      sub(shl(0xa0, 0x01), 0x01)\n      swap1\n      dup2\n      and\n        /* \"contracts/includes.sol\":9199:9221  _owner == _msgSender() */\n      swap2\n      and\n      eq\n        /* \"contracts/includes.sol\":9191:9258  require(_owner == _msgSender(), \"Ownable: caller is not the owner\") */\n      tag_294\n      jumpi\n      0x40\n      dup1\n      mload\n      shl(0xe5, 0x461bcd)\n      dup2\n      mstore\n      0x20\n      0x04\n      dup3\n      add\n      dup2\n      swap1\n      mstore\n      0x24\n      dup3\n      add\n      mstore\n      0x00\n      dup1\n      mload\n      0x20\n      data_9924ebdf1add33d25d4ef888e16131f0a5687b0580a36c21b5c301a6c462effe\n      dup4\n      codecopy\n      dup2\n      mload\n      swap2\n      mstore\n      0x44\n      dup3\n      add\n      mstore\n      swap1\n      mload\n      swap1\n      dup2\n      swap1\n      sub\n      0x64\n      add\n      swap1\n      revert\n    tag_294:\n      sub(shl(0xa0, 0x01), 0x01)\n        /* \"contracts/dethDividendTracker.sol\":9556:9586  excludedFromDividends[account] */\n      dup3\n      and\n      0x00\n      swap1\n      dup2\n      mstore\n        /* \"contracts/dethDividendTracker.sol\":9556:9577  excludedFromDividends */\n      0x0f\n        /* \"contracts/dethDividendTracker.sol\":9556:9586  excludedFromDividends[account] */\n      0x20\n      mstore\n      0x40\n      swap1\n      keccak256\n      sload\n      0xff\n      and\n        /* \"contracts/dethDividendTracker.sol\":9553:9612  if(excludedFromDividends[account]) {\r... */\n      iszero\n      tag_296\n      jumpi\n        /* \"contracts/dethDividendTracker.sol\":9597:9604  return; */\n      jump(tag_295)\n        /* \"contracts/dethDividendTracker.sol\":9553:9612  if(excludedFromDividends[account]) {\r... */\n    tag_296:\n        /* \"contracts/dethDividendTracker.sol\":9638:9669  minimumTokenBalanceForDividends */\n      sload(0x12)\n        /* \"contracts/dethDividendTracker.sol\":9624:9634  newBalance */\n      dup2\n        /* \"contracts/dethDividendTracker.sol\":9624:9669  newBalance >= minimumTokenBalanceForDividends */\n      lt\n        /* \"contracts/dethDividendTracker.sol\":9621:9875  if(newBalance >= minimumTokenBalanceForDividends) {\r... */\n      tag_297\n      jumpi\n        /* \"contracts/dethDividendTracker.sol\":9686:9718  _setBalance(account, newBalance) */\n      tag_298\n        /* \"contracts/dethDividendTracker.sol\":9698:9705  account */\n      dup3\n        /* \"contracts/dethDividendTracker.sol\":9707:9717  newBalance */\n      dup3\n        /* \"contracts/dethDividendTracker.sol\":9686:9697  _setBalance */\n      tag_237\n        /* \"contracts/dethDividendTracker.sol\":9686:9718  _setBalance(account, newBalance) */\n      jump\t// in\n    tag_298:\n        /* \"contracts/dethDividendTracker.sol\":9727:9767  tokenHoldersMap.set(account, newBalance) */\n      0x40\n      dup1\n      mload\n      shl(0xe2, 0x2f0ad017)\n      dup2\n      mstore\n        /* \"contracts/dethDividendTracker.sol\":9727:9742  tokenHoldersMap */\n      0x0a\n        /* \"contracts/dethDividendTracker.sol\":9727:9767  tokenHoldersMap.set(account, newBalance) */\n      0x04\n      dup3\n      add\n      mstore\n      sub(shl(0xa0, 0x01), 0x01)\n      dup5\n      and\n      0x24\n      dup3\n      add\n      mstore\n      0x44\n      dup2\n      add\n      dup4\n      swap1\n      mstore\n      swap1\n      mload\n        /* \"contracts/dethDividendTracker.sol\":9727:9746  tokenHoldersMap.set */\n      linkerSymbol(\"eb87864847a12bc97278b3a3a75a5c0846be79d4b149471ba40e5b3af9901aca\")\n      swap2\n      0xbc2b405c\n      swap2\n        /* \"contracts/dethDividendTracker.sol\":9727:9767  tokenHoldersMap.set(account, newBalance) */\n      0x64\n      dup1\n      dup4\n      add\n      swap3\n      0x00\n      swap3\n      swap2\n      swap1\n      dup3\n      swap1\n      sub\n      add\n      dup2\n        /* \"contracts/dethDividendTracker.sol\":9727:9746  tokenHoldersMap.set */\n      dup7\n        /* \"contracts/dethDividendTracker.sol\":9727:9767  tokenHoldersMap.set(account, newBalance) */\n      dup1\n      extcodesize\n      iszero\n      dup1\n      iszero\n      tag_299\n      jumpi\n      0x00\n      dup1\n      revert\n    tag_299:\n      pop\n      gas\n      delegatecall\n      iszero\n      dup1\n      iszero\n      tag_301\n      jumpi\n      returndatasize\n      0x00\n      dup1\n      returndatacopy\n      revert(0x00, returndatasize)\n    tag_301:\n      pop\n      pop\n      pop\n      pop\n        /* \"contracts/dethDividendTracker.sol\":9621:9875  if(newBalance >= minimumTokenBalanceForDividends) {\r... */\n      jump(tag_302)\n    tag_297:\n        /* \"contracts/dethDividendTracker.sol\":9803:9826  _setBalance(account, 0) */\n      tag_303\n        /* \"contracts/dethDividendTracker.sol\":9815:9822  account */\n      dup3\n        /* \"contracts/dethDividendTracker.sol\":9824:9825  0 */\n      0x00\n        /* \"contracts/dethDividendTracker.sol\":9803:9814  _setBalance */\n      tag_237\n        /* \"contracts/dethDividendTracker.sol\":9803:9826  _setBalance(account, 0) */\n      jump\t// in\n    tag_303:\n        /* \"contracts/dethDividendTracker.sol\":9835:9866  tokenHoldersMap.remove(account) */\n      0x40\n      dup1\n      mload\n      shl(0xe2, 0x131836e7)\n      dup2\n      mstore\n        /* \"contracts/dethDividendTracker.sol\":9835:9850  tokenHoldersMap */\n      0x0a\n        /* \"contracts/dethDividendTracker.sol\":9835:9866  tokenHoldersMap.remove(account) */\n      0x04\n      dup3\n      add\n      mstore\n      sub(shl(0xa0, 0x01), 0x01)\n      dup5\n      and\n      0x24\n      dup3\n      add\n      mstore\n      swap1\n      mload\n        /* \"contracts/dethDividendTracker.sol\":9835:9857  tokenHoldersMap.remove */\n      linkerSymbol(\"eb87864847a12bc97278b3a3a75a5c0846be79d4b149471ba40e5b3af9901aca\")\n      swap2\n      0x4c60db9c\n      swap2\n        /* \"contracts/dethDividendTracker.sol\":9835:9866  tokenHoldersMap.remove(account) */\n      0x44\n      dup1\n      dup4\n      add\n      swap3\n      0x00\n      swap3\n      swap2\n      swap1\n      dup3\n      swap1\n      sub\n      add\n      dup2\n        /* \"contracts/dethDividendTracker.sol\":9835:9857  tokenHoldersMap.remove */\n      dup7\n        /* \"contracts/dethDividendTracker.sol\":9835:9866  tokenHoldersMap.remove(account) */\n      dup1\n      extcodesize\n      iszero\n      dup1\n      iszero\n      tag_304\n      jumpi\n      0x00\n      dup1\n      revert\n    tag_304:\n      pop\n      gas\n      delegatecall\n      iszero\n      dup1\n      iszero\n      tag_306\n      jumpi\n      returndatasize\n      0x00\n      dup1\n      returndatacopy\n      revert(0x00, returndatasize)\n    tag_306:\n      pop\n      pop\n      pop\n      pop\n        /* \"contracts/dethDividendTracker.sol\":9621:9875  if(newBalance >= minimumTokenBalanceForDividends) {\r... */\n    tag_302:\n        /* \"contracts/dethDividendTracker.sol\":9884:9913  processAccount(account, true) */\n      tag_307\n        /* \"contracts/dethDividendTracker.sol\":9899:9906  account */\n      dup3\n        /* \"contracts/dethDividendTracker.sol\":9908:9912  true */\n      0x01\n        /* \"contracts/dethDividendTracker.sol\":9884:9898  processAccount */\n      tag_155\n        /* \"contracts/dethDividendTracker.sol\":9884:9913  processAccount(account, true) */\n      jump\t// in\n    tag_307:\n      pop\n        /* \"contracts/includes.sol\":9269:9270  _ */\n    tag_295:\n        /* \"contracts/dethDividendTracker.sol\":9461:9921  function setBalance(address payable account, uint256 newBalance) external onlyOwner {\r... */\n      pop\n      pop\n      jump\t// out\n        /* \"contracts/dethDividendTracker.sol\":6799:6904  function getLastProcessedIndex() external view returns(uint256) {\r... */\n    tag_169:\n        /* \"contracts/dethDividendTracker.sol\":6878:6896  lastProcessedIndex */\n      sload(0x0e)\n        /* \"contracts/dethDividendTracker.sol\":6799:6904  function getLastProcessedIndex() external view returns(uint256) {\r... */\n      swap1\n      jump\t// out\n        /* \"contracts/dethDividendTracker.sol\":6375:6791  function updateClaimWait(uint256 newClaimWait) external onlyOwner {\r... */\n    tag_173:\n        /* \"contracts/includes.sol\":9209:9221  _msgSender() */\n      tag_310\n        /* \"contracts/includes.sol\":9209:9219  _msgSender */\n      tag_204\n        /* \"contracts/includes.sol\":9209:9221  _msgSender() */\n      jump\t// in\n    tag_310:\n        /* \"contracts/includes.sol\":9199:9205  _owner */\n      sload(0x09)\n      sub(shl(0xa0, 0x01), 0x01)\n      swap1\n      dup2\n      and\n        /* \"contracts/includes.sol\":9199:9221  _owner == _msgSender() */\n      swap2\n      and\n      eq\n        /* \"contracts/includes.sol\":9191:9258  require(_owner == _msgSender(), \"Ownable: caller is not the owner\") */\n      tag_311\n      jumpi\n      0x40\n      dup1\n      mload\n      shl(0xe5, 0x461bcd)\n      dup2\n      mstore\n      0x20\n      0x04\n      dup3\n      add\n      dup2\n      swap1\n      mstore\n      0x24\n      dup3\n      add\n      mstore\n      0x00\n      dup1\n      mload\n      0x20\n      data_9924ebdf1add33d25d4ef888e16131f0a5687b0580a36c21b5c301a6c462effe\n      dup4\n      codecopy\n      dup2\n      mload\n      swap2\n      mstore\n      0x44\n      dup3\n      add\n      mstore\n      swap1\n      mload\n      swap1\n      dup2\n      swap1\n      sub\n      0x64\n      add\n      swap1\n      revert\n    tag_311:\n        /* \"contracts/dethDividendTracker.sol\":6476:6478  60 */\n      0x3c\n        /* \"contracts/dethDividendTracker.sol\":6460:6472  newClaimWait */\n      dup2\n        /* \"contracts/dethDividendTracker.sol\":6460:6478  newClaimWait >= 60 */\n      lt\n      iszero\n        /* \"contracts/dethDividendTracker.sol\":6460:6501  newClaimWait >= 60 && newClaimWait <= 600 */\n      dup1\n      iszero\n      tag_313\n      jumpi\n      pop\n        /* \"contracts/dethDividendTracker.sol\":6498:6501  600 */\n      0x0258\n        /* \"contracts/dethDividendTracker.sol\":6482:6494  newClaimWait */\n      dup2\n        /* \"contracts/dethDividendTracker.sol\":6482:6501  newClaimWait <= 600 */\n      gt\n      iszero\n        /* \"contracts/dethDividendTracker.sol\":6460:6501  newClaimWait >= 60 && newClaimWait <= 600 */\n    tag_313:\n        /* \"contracts/dethDividendTracker.sol\":6452:6582  require(newClaimWait >= 60 && newClaimWait <= 600, \"dETH_Dividend_Tracker: claimWait must be updated to between 1 and 10 minutes\") */\n      tag_314\n      jumpi\n      mload(0x40)\n      shl(0xe5, 0x461bcd)\n      dup2\n      mstore\n      0x04\n      add\n      dup1\n      dup1\n      0x20\n      add\n      dup3\n      dup2\n      sub\n      dup3\n      mstore\n      0x4c\n      dup2\n      mstore\n      0x20\n      add\n      dup1\n      data_f97bd173f95b008375758082c91cfae1b14c2cf0bd3a4ed052bc360d9d1e2b9a\n      0x4c\n      swap2\n      codecopy\n      0x60\n      add\n      swap2\n      pop\n      pop\n      mload(0x40)\n      dup1\n      swap2\n      sub\n      swap1\n      revert\n    tag_314:\n        /* \"contracts/dethDividendTracker.sol\":6617:6626  claimWait */\n      sload(0x11)\n        /* \"contracts/dethDividendTracker.sol\":6601:6613  newClaimWait */\n      dup2\n        /* \"contracts/dethDividendTracker.sol\":6601:6626  newClaimWait != claimWait */\n      eq\n      iszero\n        /* \"contracts/dethDividendTracker.sol\":6593:6691  require(newClaimWait != claimWait, \"dETH_Dividend_Tracker: Cannot update claimWait to same value\") */\n      tag_315\n      jumpi\n      mload(0x40)\n      shl(0xe5, 0x461bcd)\n      dup2\n      mstore\n      0x04\n      add\n      dup1\n      dup1\n      0x20\n      add\n      dup3\n      dup2\n      sub\n      dup3\n      mstore\n      0x3c\n      dup2\n      mstore\n      0x20\n      add\n      dup1\n      data_bc7d85fd1114eeee87600771452948ecd416e2049ea8c3154c4afdfe9ae8f6c0\n      0x3c\n      swap2\n      codecopy\n      0x40\n      add\n      swap2\n      pop\n      pop\n      mload(0x40)\n      dup1\n      swap2\n      sub\n      swap1\n      revert\n    tag_315:\n        /* \"contracts/dethDividendTracker.sol\":6738:6747  claimWait */\n      sload(0x11)\n        /* \"contracts/dethDividendTracker.sol\":6707:6748  ClaimWaitUpdated(newClaimWait, claimWait) */\n      mload(0x40)\n        /* \"contracts/dethDividendTracker.sol\":6724:6736  newClaimWait */\n      dup3\n      swap1\n        /* \"contracts/dethDividendTracker.sol\":6707:6748  ClaimWaitUpdated(newClaimWait, claimWait) */\n      0x474ea64804364a1e29a4487ddb63c3342a2dd826ccd8acf48825e680a0e6f20f\n      swap1\n      0x00\n      swap1\n      log3\n        /* \"contracts/dethDividendTracker.sol\":6759:6768  claimWait */\n      0x11\n        /* \"contracts/dethDividendTracker.sol\":6759:6783  claimWait = newClaimWait */\n      sstore\n        /* \"contracts/dethDividendTracker.sol\":6375:6791  function updateClaimWait(uint256 newClaimWait) external onlyOwner {\r... */\n      jump\t// out\n        /* \"contracts/includes.sol\":9442:9686  function transferOwnership(address newOwner) public virtual onlyOwner {\r... */\n    tag_177:\n        /* \"contracts/includes.sol\":9209:9221  _msgSender() */\n      tag_317\n        /* \"contracts/includes.sol\":9209:9219  _msgSender */\n      tag_204\n        /* \"contracts/includes.sol\":9209:9221  _msgSender() */\n      jump\t// in\n    tag_317:\n        /* \"contracts/includes.sol\":9199:9205  _owner */\n      sload(0x09)\n      sub(shl(0xa0, 0x01), 0x01)\n      swap1\n      dup2\n      and\n        /* \"contracts/includes.sol\":9199:9221  _owner == _msgSender() */\n      swap2\n      and\n      eq\n        /* \"contracts/includes.sol\":9191:9258  require(_owner == _msgSender(), \"Ownable: caller is not the owner\") */\n      tag_318\n      jumpi\n      0x40\n      dup1\n      mload\n      shl(0xe5, 0x461bcd)\n      dup2\n      mstore\n      0x20\n      0x04\n      dup3\n      add\n      dup2\n      swap1\n      mstore\n      0x24\n      dup3\n      add\n      mstore\n      0x00\n      dup1\n      mload\n      0x20\n      data_9924ebdf1add33d25d4ef888e16131f0a5687b0580a36c21b5c301a6c462effe\n      dup4\n      codecopy\n      dup2\n      mload\n      swap2\n      mstore\n      0x44\n      dup3\n      add\n      mstore\n      swap1\n      mload\n      swap1\n      dup2\n      swap1\n      sub\n      0x64\n      add\n      swap1\n      revert\n    tag_318:\n      sub(shl(0xa0, 0x01), 0x01)\n        /* \"contracts/includes.sol\":9531:9553  newOwner != address(0) */\n      dup2\n      and\n        /* \"contracts/includes.sol\":9523:9596  require(newOwner != address(0), \"Ownable: new owner is the zero address\") */\n      tag_320\n      jumpi\n      mload(0x40)\n      shl(0xe5, 0x461bcd)\n      dup2\n      mstore\n      0x04\n      add\n      dup1\n      dup1\n      0x20\n      add\n      dup3\n      dup2\n      sub\n      dup3\n      mstore\n      0x26\n      dup2\n      mstore\n      0x20\n      add\n      dup1\n      data_245f15ff17f551913a7a18385165551503906a406f905ac1c2437281a7cd0cfe\n      0x26\n      swap2\n      codecopy\n      0x40\n      add\n      swap2\n      pop\n      pop\n      mload(0x40)\n      dup1\n      swap2\n      sub\n      swap1\n      revert\n    tag_320:\n        /* \"contracts/includes.sol\":9633:9639  _owner */\n      sload(0x09)\n        /* \"contracts/includes.sol\":9612:9650  OwnershipTransferred(_owner, newOwner) */\n      mload(0x40)\n      sub(shl(0xa0, 0x01), 0x01)\n      dup1\n      dup5\n      and\n      swap3\n        /* \"contracts/includes.sol\":9633:9639  _owner */\n      and\n      swap1\n        /* \"contracts/includes.sol\":9612:9650  OwnershipTransferred(_owner, newOwner) */\n      0x8be0079c531659141344cd1fd0a4f28419497f9722a3daafe3b4186f6b6457e0\n      swap1\n        /* \"contracts/includes.sol\":9633:9639  _owner */\n      0x00\n      swap1\n        /* \"contracts/includes.sol\":9612:9650  OwnershipTransferred(_owner, newOwner) */\n      log3\n        /* \"contracts/includes.sol\":9661:9667  _owner */\n      0x09\n        /* \"contracts/includes.sol\":9661:9678  _owner = newOwner */\n      dup1\n      sload\n      not(sub(shl(0xa0, 0x01), 0x01))\n      and\n      sub(shl(0xa0, 0x01), 0x01)\n      swap3\n      swap1\n      swap3\n      and\n      swap2\n      swap1\n      swap2\n      or\n      swap1\n      sstore\n        /* \"contracts/includes.sol\":9442:9686  function transferOwnership(address newOwner) public virtual onlyOwner {\r... */\n      jump\t// out\n        /* \"contracts/dethDividendTracker.sol\":7043:8713  function getAccount(address _account)\r... */\n    tag_181:\n        /* \"contracts/dethDividendTracker.sol\":7125:7140  address account */\n      0x00\n        /* \"contracts/dethDividendTracker.sol\":7155:7167  int256 index */\n      dup1\n        /* \"contracts/dethDividendTracker.sol\":7182:7213  int256 iterationsUntilProcessed */\n      0x00\n        /* \"contracts/dethDividendTracker.sol\":7228:7257  uint256 withdrawableDividends */\n      dup1\n        /* \"contracts/dethDividendTracker.sol\":7272:7294  uint256 totalDividends */\n      0x00\n        /* \"contracts/dethDividendTracker.sol\":7309:7330  uint256 lastClaimTime */\n      dup1\n        /* \"contracts/dethDividendTracker.sol\":7345:7366  uint256 nextClaimTime */\n      0x00\n        /* \"contracts/dethDividendTracker.sol\":7381:7419  uint256 secondsUntilAutoClaimAvailable */\n      dup1\n        /* \"contracts/dethDividendTracker.sol\":7442:7450  _account */\n      dup9\n        /* \"contracts/dethDividendTracker.sol\":7432:7450  account = _account */\n      swap8\n      pop\n        /* \"contracts/dethDividendTracker.sol\":7471:7486  tokenHoldersMap */\n      0x0a\n        /* \"contracts/dethDividendTracker.sol\":7471:7500  tokenHoldersMap.getIndexOfKey */\n      linkerSymbol(\"eb87864847a12bc97278b3a3a75a5c0846be79d4b149471ba40e5b3af9901aca\")\n      0x17e142d1\n      swap1\n      swap2\n        /* \"contracts/dethDividendTracker.sol\":7501:7508  account */\n      dup11\n        /* \"contracts/dethDividendTracker.sol\":7471:7509  tokenHoldersMap.getIndexOfKey(account) */\n      mload(0x40)\n      dup4\n      0xffffffff\n      and\n      0xe0\n      shl\n      dup2\n      mstore\n      0x04\n      add\n      dup1\n      dup4\n      dup2\n      mstore\n      0x20\n      add\n      dup3\n      sub(shl(0xa0, 0x01), 0x01)\n      and\n      dup2\n      mstore\n      0x20\n      add\n      swap3\n      pop\n      pop\n      pop\n      0x20\n      mload(0x40)\n      dup1\n      dup4\n      sub\n      dup2\n      dup7\n      dup1\n      extcodesize\n      iszero\n      dup1\n      iszero\n      tag_322\n      jumpi\n      0x00\n      dup1\n      revert\n    tag_322:\n      pop\n      gas\n      delegatecall\n      iszero\n      dup1\n      iszero\n      tag_324\n      jumpi\n      returndatasize\n      0x00\n      dup1\n      returndatacopy\n      revert(0x00, returndatasize)\n    tag_324:\n      pop\n      pop\n      pop\n      pop\n      mload(0x40)\n      returndatasize\n      0x20\n      dup2\n      lt\n      iszero\n      tag_325\n      jumpi\n      0x00\n      dup1\n      revert\n    tag_325:\n      pop\n      mload\n      swap7\n      pop\n      not(0x00)\n        /* \"contracts/dethDividendTracker.sol\":7549:7551  -1 */\n      swap6\n      pop\n        /* \"contracts/dethDividendTracker.sol\":7576:7577  0 */\n      0x00\n        /* \"contracts/dethDividendTracker.sol\":7567:7577  index >= 0 */\n      dup8\n      slt\n        /* \"contracts/dethDividendTracker.sol\":7564:8146  if(index >= 0) {\r... */\n      tag_330\n      jumpi\n        /* \"contracts/dethDividendTracker.sol\":7614:7632  lastProcessedIndex */\n      sload(0x0e)\n        /* \"contracts/dethDividendTracker.sol\":7605:7610  index */\n      dup8\n        /* \"contracts/dethDividendTracker.sol\":7597:7632  uint256(index) > lastProcessedIndex */\n      gt\n        /* \"contracts/dethDividendTracker.sol\":7594:8135  if(uint256(index) > lastProcessedIndex) {\r... */\n      iszero\n      tag_327\n      jumpi\n        /* \"contracts/dethDividendTracker.sol\":7697:7715  lastProcessedIndex */\n      sload(0x0e)\n        /* \"contracts/dethDividendTracker.sol\":7680:7717  index.sub(int256(lastProcessedIndex)) */\n      tag_328\n      swap1\n        /* \"contracts/dethDividendTracker.sol\":7680:7685  index */\n      dup9\n      swap1\n        /* \"contracts/dethDividendTracker.sol\":7680:7689  index.sub */\n      tag_329\n        /* \"contracts/dethDividendTracker.sol\":7680:7717  index.sub(int256(lastProcessedIndex)) */\n      jump\t// in\n    tag_328:\n        /* \"contracts/dethDividendTracker.sol\":7653:7717  iterationsUntilProcessed = index.sub(int256(lastProcessedIndex)) */\n      swap6\n      pop\n        /* \"contracts/dethDividendTracker.sol\":7594:8135  if(uint256(index) > lastProcessedIndex) {\r... */\n      jump(tag_330)\n    tag_327:\n        /* \"contracts/dethDividendTracker.sol\":7836:7854  lastProcessedIndex */\n      sload(0x0e)\n        /* \"contracts/dethDividendTracker.sol\":7806:7821  tokenHoldersMap */\n      0x0a\n        /* \"contracts/dethDividendTracker.sol\":7806:7833  tokenHoldersMap.keys.length */\n      sload\n        /* \"contracts/dethDividendTracker.sol\":7771:7803  uint256 processesUntilEndOfArray */\n      0x00\n      swap2\n      lt\n        /* \"contracts/dethDividendTracker.sol\":7806:8026  tokenHoldersMap.keys.length > lastProcessedIndex ?\r... */\n      tag_331\n      jumpi\n        /* \"contracts/dethDividendTracker.sol\":8025:8026  0 */\n      0x00\n        /* \"contracts/dethDividendTracker.sol\":7806:8026  tokenHoldersMap.keys.length > lastProcessedIndex ?\r... */\n      jump(tag_333)\n    tag_331:\n        /* \"contracts/dethDividendTracker.sol\":7946:7964  lastProcessedIndex */\n      sload(0x0e)\n        /* \"contracts/dethDividendTracker.sol\":7914:7929  tokenHoldersMap */\n      0x0a\n        /* \"contracts/dethDividendTracker.sol\":7914:7941  tokenHoldersMap.keys.length */\n      sload\n        /* \"contracts/dethDividendTracker.sol\":7914:7965  tokenHoldersMap.keys.length.sub(lastProcessedIndex) */\n      tag_333\n      swap2\n        /* \"contracts/dethDividendTracker.sol\":7914:7945  tokenHoldersMap.keys.length.sub */\n      tag_279\n        /* \"contracts/dethDividendTracker.sol\":7914:7965  tokenHoldersMap.keys.length.sub(lastProcessedIndex) */\n      jump\t// in\n    tag_333:\n        /* \"contracts/dethDividendTracker.sol\":7771:8026  uint256 processesUntilEndOfArray = tokenHoldersMap.keys.length > lastProcessedIndex ?\r... */\n      swap1\n      pop\n        /* \"contracts/dethDividendTracker.sol\":8076:8119  index.add(int256(processesUntilEndOfArray)) */\n      tag_334\n        /* \"contracts/dethDividendTracker.sol\":8076:8081  index */\n      dup9\n        /* \"contracts/dethDividendTracker.sol\":7771:8026  uint256 processesUntilEndOfArray = tokenHoldersMap.keys.length > lastProcessedIndex ?\r... */\n      dup3\n        /* \"contracts/dethDividendTracker.sol\":8076:8085  index.add */\n      tag_227\n        /* \"contracts/dethDividendTracker.sol\":8076:8119  index.add(int256(processesUntilEndOfArray)) */\n      jump\t// in\n    tag_334:\n        /* \"contracts/dethDividendTracker.sol\":8049:8119  iterationsUntilProcessed = index.add(int256(processesUntilEndOfArray)) */\n      swap7\n      pop\n        /* \"contracts/dethDividendTracker.sol\":7594:8135  if(uint256(index) > lastProcessedIndex) {\r... */\n      pop\n    tag_330:\n        /* \"contracts/dethDividendTracker.sol\":8184:8215  withdrawableDividendOf(account) */\n      tag_335\n        /* \"contracts/dethDividendTracker.sol\":8207:8214  account */\n      dup9\n        /* \"contracts/dethDividendTracker.sol\":8184:8206  withdrawableDividendOf */\n      tag_143\n        /* \"contracts/dethDividendTracker.sol\":8184:8215  withdrawableDividendOf(account) */\n      jump\t// in\n    tag_335:\n        /* \"contracts/dethDividendTracker.sol\":8160:8215  withdrawableDividends = withdrawableDividendOf(account) */\n      swap5\n      pop\n        /* \"contracts/dethDividendTracker.sol\":8243:8274  accumulativeDividendOf(account) */\n      tag_336\n        /* \"contracts/dethDividendTracker.sol\":8266:8273  account */\n      dup9\n        /* \"contracts/dethDividendTracker.sol\":8243:8265  accumulativeDividendOf */\n      tag_83\n        /* \"contracts/dethDividendTracker.sol\":8243:8274  accumulativeDividendOf(account) */\n      jump\t// in\n    tag_336:\n      sub(shl(0xa0, 0x01), 0x01)\n        /* \"contracts/dethDividendTracker.sol\":8303:8326  lastClaimTimes[account] */\n      dup10\n      and\n      0x00\n      swap1\n      dup2\n      mstore\n        /* \"contracts/dethDividendTracker.sol\":8303:8317  lastClaimTimes */\n      0x10\n        /* \"contracts/dethDividendTracker.sol\":8303:8326  lastClaimTimes[account] */\n      0x20\n      mstore\n      0x40\n      swap1\n      keccak256\n      sload\n        /* \"contracts/dethDividendTracker.sol\":8226:8274  totalDividends = accumulativeDividendOf(account) */\n      swap1\n      swap5\n      pop\n        /* \"contracts/dethDividendTracker.sol\":8303:8326  lastClaimTimes[account] */\n      swap3\n      pop\n        /* \"contracts/dethDividendTracker.sol\":8355:8372  lastClaimTime > 0 */\n      dup3\n        /* \"contracts/dethDividendTracker.sol\":8355:8481  lastClaimTime > 0 ?\r... */\n      tag_337\n      jumpi\n        /* \"contracts/dethDividendTracker.sol\":8480:8481  0 */\n      0x00\n        /* \"contracts/dethDividendTracker.sol\":8355:8481  lastClaimTime > 0 ?\r... */\n      jump(tag_339)\n    tag_337:\n        /* \"contracts/dethDividendTracker.sol\":8430:8439  claimWait */\n      sload(0x11)\n        /* \"contracts/dethDividendTracker.sol\":8412:8440  lastClaimTime.add(claimWait) */\n      tag_339\n      swap1\n        /* \"contracts/dethDividendTracker.sol\":8412:8425  lastClaimTime */\n      dup5\n      swap1\n        /* \"contracts/dethDividendTracker.sol\":8412:8429  lastClaimTime.add */\n      tag_195\n        /* \"contracts/dethDividendTracker.sol\":8412:8440  lastClaimTime.add(claimWait) */\n      jump\t// in\n    tag_339:\n        /* \"contracts/dethDividendTracker.sol\":8339:8481  nextClaimTime = lastClaimTime > 0 ?\r... */\n      swap2\n      pop\n        /* \"contracts/dethDividendTracker.sol\":8543:8558  block.timestamp */\n      timestamp\n        /* \"contracts/dethDividendTracker.sol\":8527:8540  nextClaimTime */\n      dup3\n        /* \"contracts/dethDividendTracker.sol\":8527:8558  nextClaimTime > block.timestamp */\n      gt\n        /* \"contracts/dethDividendTracker.sol\":8527:8705  nextClaimTime > block.timestamp ?\r... */\n      tag_340\n      jumpi\n        /* \"contracts/dethDividendTracker.sol\":8704:8705  0 */\n      0x00\n        /* \"contracts/dethDividendTracker.sol\":8527:8705  nextClaimTime > block.timestamp ?\r... */\n      jump(tag_342)\n    tag_340:\n        /* \"contracts/dethDividendTracker.sol\":8614:8648  nextClaimTime.sub(block.timestamp) */\n      tag_342\n        /* \"contracts/dethDividendTracker.sol\":8614:8627  nextClaimTime */\n      dup3\n        /* \"contracts/dethDividendTracker.sol\":8632:8647  block.timestamp */\n      timestamp\n        /* \"contracts/dethDividendTracker.sol\":8614:8631  nextClaimTime.sub */\n      tag_279\n        /* \"contracts/dethDividendTracker.sol\":8614:8648  nextClaimTime.sub(block.timestamp) */\n      jump\t// in\n    tag_342:\n        /* \"contracts/dethDividendTracker.sol\":8494:8705  secondsUntilAutoClaimAvailable = nextClaimTime > block.timestamp ?\r... */\n      swap1\n      pop\n        /* \"contracts/dethDividendTracker.sol\":7043:8713  function getAccount(address _account)\r... */\n      swap2\n      swap4\n      swap6\n      swap8\n      pop\n      swap2\n      swap4\n      swap6\n      swap8\n      jump\t// out\n        /* \"contracts/dethDividendTracker.sol\":9929:11079  function process(uint256 gas) public returns (uint256, uint256, uint256) {\r... */\n    tag_185:\n        /* \"contracts/dethDividendTracker.sol\":10041:10056  tokenHoldersMap */\n      0x0a\n        /* \"contracts/dethDividendTracker.sol\":10041:10068  tokenHoldersMap.keys.length */\n      sload\n        /* \"contracts/dethDividendTracker.sol\":9975:9982  uint256 */\n      0x00\n      swap1\n      dup2\n      swap1\n      dup2\n      swap1\n        /* \"contracts/dethDividendTracker.sol\":10081:10106  numberOfTokenHolders == 0 */\n      dup1\n        /* \"contracts/dethDividendTracker.sol\":10078:10159  if(numberOfTokenHolders == 0) {\r... */\n      tag_344\n      jumpi\n      pop\n      pop\n        /* \"contracts/dethDividendTracker.sol\":10131:10149  lastProcessedIndex */\n      sload(0x0e)\n        /* \"contracts/dethDividendTracker.sol\":10125:10126  0 */\n      0x00\n      swap3\n      pop\n      dup3\n      swap2\n      pop\n        /* \"contracts/dethDividendTracker.sol\":10117:10150  return (0, 0, lastProcessedIndex) */\n      jump(tag_343)\n        /* \"contracts/dethDividendTracker.sol\":10078:10159  if(numberOfTokenHolders == 0) {\r... */\n    tag_344:\n        /* \"contracts/dethDividendTracker.sol\":10198:10216  lastProcessedIndex */\n      sload(0x0e)\n        /* \"contracts/dethDividendTracker.sol\":10168:10195  uint256 _lastProcessedIndex */\n      0x00\n      dup1\n        /* \"contracts/dethDividendTracker.sol\":10273:10282  gasleft() */\n      gas\n        /* \"contracts/dethDividendTracker.sol\":10255:10282  uint256 gasLeft = gasleft() */\n      swap1\n      pop\n        /* \"contracts/dethDividendTracker.sol\":10292:10310  uint256 iterations */\n      0x00\n        /* \"contracts/dethDividendTracker.sol\":10322:10336  uint256 claims */\n      dup1\n        /* \"contracts/dethDividendTracker.sol\":10350:10965  while(gasUsed < gas && iterations < numberOfTokenHolders) {\r... */\n    tag_345:\n        /* \"contracts/dethDividendTracker.sol\":10366:10369  gas */\n      dup10\n        /* \"contracts/dethDividendTracker.sol\":10356:10363  gasUsed */\n      dup5\n        /* \"contracts/dethDividendTracker.sol\":10356:10369  gasUsed < gas */\n      lt\n        /* \"contracts/dethDividendTracker.sol\":10356:10406  gasUsed < gas && iterations < numberOfTokenHolders */\n      dup1\n      iszero\n      tag_347\n      jumpi\n      pop\n        /* \"contracts/dethDividendTracker.sol\":10386:10406  numberOfTokenHolders */\n      dup6\n        /* \"contracts/dethDividendTracker.sol\":10373:10383  iterations */\n      dup3\n        /* \"contracts/dethDividendTracker.sol\":10373:10406  iterations < numberOfTokenHolders */\n      lt\n        /* \"contracts/dethDividendTracker.sol\":10356:10406  gasUsed < gas && iterations < numberOfTokenHolders */\n    tag_347:\n        /* \"contracts/dethDividendTracker.sol\":10350:10965  while(gasUsed < gas && iterations < numberOfTokenHolders) {\r... */\n      iszero\n      tag_346\n      jumpi\n        /* \"contracts/dethDividendTracker.sol\":10475:10490  tokenHoldersMap */\n      0x0a\n        /* \"contracts/dethDividendTracker.sol\":10475:10502  tokenHoldersMap.keys.length */\n      sload\n        /* \"contracts/dethDividendTracker.sol\":10417:10438  _lastProcessedIndex++ */\n      0x01\n      swap1\n      swap6\n      add\n      swap5\n        /* \"contracts/dethDividendTracker.sol\":10452:10502  _lastProcessedIndex >= tokenHoldersMap.keys.length */\n      dup6\n      lt\n        /* \"contracts/dethDividendTracker.sol\":10449:10547  if(_lastProcessedIndex >= tokenHoldersMap.keys.length) {\r... */\n      tag_348\n      jumpi\n        /* \"contracts/dethDividendTracker.sol\":10536:10537  0 */\n      0x00\n        /* \"contracts/dethDividendTracker.sol\":10514:10537  _lastProcessedIndex = 0 */\n      swap5\n      pop\n        /* \"contracts/dethDividendTracker.sol\":10449:10547  if(_lastProcessedIndex >= tokenHoldersMap.keys.length) {\r... */\n    tag_348:\n        /* \"contracts/dethDividendTracker.sol\":10557:10572  address account */\n      0x00\n        /* \"contracts/dethDividendTracker.sol\":10575:10590  tokenHoldersMap */\n      0x0a\n        /* \"contracts/dethDividendTracker.sol\":10575:10595  tokenHoldersMap.keys */\n      0x00\n      add\n        /* \"contracts/dethDividendTracker.sol\":10596:10615  _lastProcessedIndex */\n      dup7\n        /* \"contracts/dethDividendTracker.sol\":10575:10616  tokenHoldersMap.keys[_lastProcessedIndex] */\n      dup2\n      sload\n      dup2\n      lt\n      tag_349\n      jumpi\n      invalid\n    tag_349:\n      0x00\n      swap2\n      dup3\n      mstore\n      0x20\n      dup1\n      dup4\n      keccak256\n      swap1\n      swap2\n      add\n      sload\n      sub(shl(0xa0, 0x01), 0x01)\n      and\n        /* \"contracts/dethDividendTracker.sol\":10643:10666  lastClaimTimes[account] */\n      dup1\n      dup4\n      mstore\n        /* \"contracts/dethDividendTracker.sol\":10643:10657  lastClaimTimes */\n      0x10\n        /* \"contracts/dethDividendTracker.sol\":10643:10666  lastClaimTimes[account] */\n      swap1\n      swap2\n      mstore\n      0x40\n      swap1\n      swap2\n      keccak256\n      sload\n        /* \"contracts/dethDividendTracker.sol\":10575:10616  tokenHoldersMap.keys[_lastProcessedIndex] */\n      swap1\n      swap2\n      pop\n        /* \"contracts/dethDividendTracker.sol\":10630:10667  canAutoClaim(lastClaimTimes[account]) */\n      tag_351\n      swap1\n        /* \"contracts/dethDividendTracker.sol\":10630:10642  canAutoClaim */\n      tag_352\n        /* \"contracts/dethDividendTracker.sol\":10630:10667  canAutoClaim(lastClaimTimes[account]) */\n      jump\t// in\n    tag_351:\n        /* \"contracts/dethDividendTracker.sol\":10627:10761  if(canAutoClaim(lastClaimTimes[account])) {\r... */\n      iszero\n      tag_355\n      jumpi\n        /* \"contracts/dethDividendTracker.sol\":10682:10720  processAccount(payable(account), true) */\n      tag_354\n        /* \"contracts/dethDividendTracker.sol\":10705:10712  account */\n      dup2\n        /* \"contracts/dethDividendTracker.sol\":10715:10719  true */\n      0x01\n        /* \"contracts/dethDividendTracker.sol\":10682:10696  processAccount */\n      tag_155\n        /* \"contracts/dethDividendTracker.sol\":10682:10720  processAccount(payable(account), true) */\n      jump\t// in\n    tag_354:\n        /* \"contracts/dethDividendTracker.sol\":10679:10752  if(processAccount(payable(account), true)) {\r... */\n      iszero\n      tag_355\n      jumpi\n        /* \"contracts/dethDividendTracker.sol\":10733:10741  claims++ */\n      0x01\n      swap1\n      swap2\n      add\n      swap1\n        /* \"contracts/dethDividendTracker.sol\":10679:10752  if(processAccount(payable(account), true)) {\r... */\n    tag_355:\n        /* \"contracts/dethDividendTracker.sol\":10771:10783  iterations++ */\n      0x01\n      swap1\n      swap3\n      add\n      swap2\n        /* \"contracts/dethDividendTracker.sol\":10794:10812  uint256 newGasLeft */\n      0x00\n        /* \"contracts/dethDividendTracker.sol\":10815:10824  gasleft() */\n      gas\n        /* \"contracts/dethDividendTracker.sol\":10794:10824  uint256 newGasLeft = gasleft() */\n      swap1\n      pop\n        /* \"contracts/dethDividendTracker.sol\":10848:10858  newGasLeft */\n      dup1\n        /* \"contracts/dethDividendTracker.sol\":10838:10845  gasLeft */\n      dup6\n        /* \"contracts/dethDividendTracker.sol\":10838:10858  gasLeft > newGasLeft */\n      gt\n        /* \"contracts/dethDividendTracker.sol\":10835:10926  if(gasLeft > newGasLeft) {\r... */\n      iszero\n      tag_356\n      jumpi\n        /* \"contracts/dethDividendTracker.sol\":10880:10916  gasUsed.add(gasLeft.sub(newGasLeft)) */\n      tag_357\n        /* \"contracts/dethDividendTracker.sol\":10892:10915  gasLeft.sub(newGasLeft) */\n      tag_358\n        /* \"contracts/dethDividendTracker.sol\":10892:10899  gasLeft */\n      dup7\n        /* \"contracts/dethDividendTracker.sol\":10904:10914  newGasLeft */\n      dup4\n        /* \"contracts/dethDividendTracker.sol\":10892:10903  gasLeft.sub */\n      tag_279\n        /* \"contracts/dethDividendTracker.sol\":10892:10915  gasLeft.sub(newGasLeft) */\n      jump\t// in\n    tag_358:\n        /* \"contracts/dethDividendTracker.sol\":10880:10887  gasUsed */\n      dup8\n      swap1\n        /* \"contracts/dethDividendTracker.sol\":10880:10891  gasUsed.add */\n      tag_195\n        /* \"contracts/dethDividendTracker.sol\":10880:10916  gasUsed.add(gasLeft.sub(newGasLeft)) */\n      jump\t// in\n    tag_357:\n        /* \"contracts/dethDividendTracker.sol\":10870:10916  gasUsed = gasUsed.add(gasLeft.sub(newGasLeft)) */\n      swap6\n      pop\n        /* \"contracts/dethDividendTracker.sol\":10835:10926  if(gasLeft > newGasLeft) {\r... */\n    tag_356:\n        /* \"contracts/dethDividendTracker.sol\":10946:10956  newGasLeft */\n      swap4\n      pop\n        /* \"contracts/dethDividendTracker.sol\":10350:10965  while(gasUsed < gas && iterations < numberOfTokenHolders) {\r... */\n      tag_345\n      swap1\n      pop\n      jump\n    tag_346:\n        /* \"contracts/dethDividendTracker.sol\":10974:10992  lastProcessedIndex */\n      0x0e\n        /* \"contracts/dethDividendTracker.sol\":10974:11014  lastProcessedIndex = _lastProcessedIndex */\n      dup6\n      swap1\n      sstore\n        /* \"contracts/dethDividendTracker.sol\":11032:11042  iterations */\n      swap1\n      swap8\n      pop\n        /* \"contracts/dethDividendTracker.sol\":11044:11050  claims */\n      swap6\n      pop\n        /* \"contracts/dethDividendTracker.sol\":10995:11014  _lastProcessedIndex */\n      swap2\n      swap4\n      pop\n      pop\n      pop\n      pop\n        /* \"contracts/dethDividendTracker.sol\":9929:11079  function process(uint256 gas) public returns (uint256, uint256, uint256) {\r... */\n    tag_343:\n      swap2\n      swap4\n      swap1\n      swap3\n      pop\n      jump\t// out\n        /* \"contracts/includes.sol\":1894:2146  function mul(uint256 a, uint256 b) internal pure returns (uint256) {\r... */\n    tag_193:\n        /* \"contracts/includes.sol\":1952:1959  uint256 */\n      0x00\n        /* \"contracts/includes.sol\":1978:1984  a == 0 */\n      dup3\n        /* \"contracts/includes.sol\":1974:2021  if (a == 0) {\r... */\n      tag_360\n      jumpi\n      pop\n        /* \"contracts/includes.sol\":2008:2009  0 */\n      0x00\n        /* \"contracts/includes.sol\":2001:2009  return 0 */\n      jump(tag_201)\n        /* \"contracts/includes.sol\":1974:2021  if (a == 0) {\r... */\n    tag_360:\n        /* \"contracts/includes.sol\":2045:2050  a * b */\n      dup3\n      dup3\n      mul\n        /* \"contracts/includes.sol\":2049:2050  b */\n      dup3\n        /* \"contracts/includes.sol\":2045:2046  a */\n      dup5\n        /* \"contracts/includes.sol\":2045:2050  a * b */\n      dup3\n        /* \"contracts/includes.sol\":2045:2046  a */\n      dup2\n        /* \"contracts/includes.sol\":2069:2074  c / a */\n      tag_361\n      jumpi\n      invalid\n    tag_361:\n      div\n        /* \"contracts/includes.sol\":2069:2079  c / a == b */\n      eq\n        /* \"contracts/includes.sol\":2061:2117  require(c / a == b, \"SafeMath: multiplication overflow\") */\n      tag_362\n      jumpi\n      mload(0x40)\n      shl(0xe5, 0x461bcd)\n      dup2\n      mstore\n      0x04\n      add\n      dup1\n      dup1\n      0x20\n      add\n      dup3\n      dup2\n      sub\n      dup3\n      mstore\n      0x21\n      dup2\n      mstore\n      0x20\n      add\n      dup1\n      data_9113bb53c2876a3805b2c9242029423fc540a728243ce887ab24c82cf119fba3\n      0x21\n      swap2\n      codecopy\n      0x40\n      add\n      swap2\n      pop\n      pop\n      mload(0x40)\n      dup1\n      swap2\n      sub\n      swap1\n      revert\n    tag_362:\n        /* \"contracts/includes.sol\":2137:2138  c */\n      swap4\n        /* \"contracts/includes.sol\":1894:2146  function mul(uint256 a, uint256 b) internal pure returns (uint256) {\r... */\n      swap3\n      pop\n      pop\n      pop\n      jump\t// out\n        /* \"contracts/includes.sol\":1361:1542  function add(uint256 a, uint256 b) internal pure returns (uint256) {\r... */\n    tag_195:\n        /* \"contracts/includes.sol\":1419:1426  uint256 */\n      0x00\n        /* \"contracts/includes.sol\":1451:1456  a + b */\n      dup3\n      dup3\n      add\n        /* \"contracts/includes.sol\":1475:1481  c >= a */\n      dup4\n      dup2\n      lt\n      iszero\n        /* \"contracts/includes.sol\":1467:1513  require(c >= a, \"SafeMath: addition overflow\") */\n      tag_362\n      jumpi\n      0x40\n      dup1\n      mload\n      shl(0xe5, 0x461bcd)\n      dup2\n      mstore\n      0x20\n      0x04\n      dup3\n      add\n      mstore\n      0x1b\n      0x24\n      dup3\n      add\n      mstore\n      0x536166654d6174683a206164646974696f6e206f766572666c6f770000000000\n      0x44\n      dup3\n      add\n      mstore\n      swap1\n      mload\n      swap1\n      dup2\n      swap1\n      sub\n      0x64\n      add\n      swap1\n      revert\n        /* \"contracts/includes.sol\":987:1085  function _msgSender() internal view virtual returns (address) {\r... */\n    tag_204:\n        /* \"contracts/includes.sol\":1067:1077  msg.sender */\n      caller\n        /* \"contracts/includes.sol\":987:1085  function _msgSender() internal view virtual returns (address) {\r... */\n      swap1\n      jump\t// out\n        /* \"contracts/includes.sol\":6689:7069  function _approve(\r... */\n    tag_205:\n      sub(shl(0xa0, 0x01), 0x01)\n        /* \"contracts/includes.sol\":6825:6844  owner != address(0) */\n      dup4\n      and\n        /* \"contracts/includes.sol\":6817:6885  require(owner != address(0), \"ERC20: approve from the zero address\") */\n      tag_367\n      jumpi\n      mload(0x40)\n      shl(0xe5, 0x461bcd)\n      dup2\n      mstore\n      0x04\n      add\n      dup1\n      dup1\n      0x20\n      add\n      dup3\n      dup2\n      sub\n      dup3\n      mstore\n      0x24\n      dup2\n      mstore\n      0x20\n      add\n      dup1\n      data_c953f4879035ed60e766b34720f656aab5c697b141d924c283124ecedb91c208\n      0x24\n      swap2\n      codecopy\n      0x40\n      add\n      swap2\n      pop\n      pop\n      mload(0x40)\n      dup1\n      swap2\n      sub\n      swap1\n      revert\n    tag_367:\n      sub(shl(0xa0, 0x01), 0x01)\n        /* \"contracts/includes.sol\":6904:6925  spender != address(0) */\n      dup3\n      and\n        /* \"contracts/includes.sol\":6896:6964  require(spender != address(0), \"ERC20: approve to the zero address\") */\n      tag_368\n      jumpi\n      mload(0x40)\n      shl(0xe5, 0x461bcd)\n      dup2\n      mstore\n      0x04\n      add\n      dup1\n      dup1\n      0x20\n      add\n      dup3\n      dup2\n      sub\n      dup3\n      mstore\n      0x22\n      dup2\n      mstore\n      0x20\n      add\n      dup1\n      data_24883cc5fe64ace9d0df1893501ecb93c77180f0ff69cca79affb3c316dc8029\n      0x22\n      swap2\n      codecopy\n      0x40\n      add\n      swap2\n      pop\n      pop\n      mload(0x40)\n      dup1\n      swap2\n      sub\n      swap1\n      revert\n    tag_368:\n      sub(shl(0xa0, 0x01), 0x01)\n        /* \"contracts/includes.sol\":6977:6995  _allowances[owner] */\n      dup1\n      dup5\n      and\n      0x00\n      dup2\n      dup2\n      mstore\n        /* \"contracts/includes.sol\":6977:6988  _allowances */\n      0x01\n        /* \"contracts/includes.sol\":6977:6995  _allowances[owner] */\n      0x20\n      swap1\n      dup2\n      mstore\n      0x40\n      dup1\n      dup4\n      keccak256\n        /* \"contracts/includes.sol\":6977:7004  _allowances[owner][spender] */\n      swap5\n      dup8\n      and\n      dup1\n      dup5\n      mstore\n      swap5\n      dup3\n      mstore\n      swap2\n      dup3\n      swap1\n      keccak256\n        /* \"contracts/includes.sol\":6977:7013  _allowances[owner][spender] = amount */\n      dup6\n      swap1\n      sstore\n        /* \"contracts/includes.sol\":7029:7061  Approval(owner, spender, amount) */\n      dup2\n      mload\n      dup6\n      dup2\n      mstore\n      swap2\n      mload\n      0x8c5be1e5ebec7d5bd14f71427d1e84f3dd0314c0f7b2291e5b200ac8c7c3b925\n      swap3\n      dup2\n      swap1\n      sub\n      swap1\n      swap2\n      add\n      swap1\n      log3\n        /* \"contracts/includes.sol\":6689:7069  function _approve(\r... */\n      pop\n      pop\n      pop\n      jump\t// out\n        /* \"contracts/dethDividendTracker.sol\":5554:5698  function _transfer(address, address, uint256) internal override {\r... */\n    tag_214:\n        /* \"contracts/dethDividendTracker.sol\":5629:5690  require(false, \"dETH_Dividend_Tracker: No transfers allowed\") */\n      mload(0x40)\n      shl(0xe5, 0x461bcd)\n      dup2\n      mstore\n      0x04\n      add\n      dup1\n      dup1\n      0x20\n      add\n      dup3\n      dup2\n      sub\n      dup3\n      mstore\n      0x2b\n      dup2\n      mstore\n      0x20\n      add\n      dup1\n      data_18c839a2c4e8ee35038bfe168b24498d2634382fb0ab4c94c6282dba6c5da688\n      0x2b\n      swap2\n      codecopy\n      0x40\n      add\n      swap2\n      pop\n      pop\n      mload(0x40)\n      dup1\n      swap2\n      sub\n      swap1\n      revert\n        /* \"contracts/includes.sol\":1694:1886  function sub(uint256 a, uint256 b, string memory errorMessage) internal pure returns (uint256) {\r... */\n    tag_219:\n        /* \"contracts/includes.sol\":1780:1787  uint256 */\n      0x00\n        /* \"contracts/includes.sol\":1816:1828  errorMessage */\n      dup2\n        /* \"contracts/includes.sol\":1808:1814  b <= a */\n      dup5\n      dup5\n      gt\n      iszero\n        /* \"contracts/includes.sol\":1800:1829  require(b <= a, errorMessage) */\n      tag_372\n      jumpi\n      mload(0x40)\n      shl(0xe5, 0x461bcd)\n      dup2\n      mstore\n      0x04\n      add\n      dup1\n      dup1\n      0x20\n      add\n      dup3\n      dup2\n      sub\n      dup3\n      mstore\n      dup4\n      dup2\n      dup2\n      mload\n      dup2\n      mstore\n      0x20\n      add\n      swap2\n      pop\n      dup1\n      mload\n      swap1\n      0x20\n      add\n      swap1\n      dup1\n      dup4\n      dup4\n      0x00\n    tag_373:\n      dup4\n      dup2\n      lt\n      iszero\n      tag_375\n      jumpi\n      dup2\n      dup2\n      add\n      mload\n      dup4\n      dup3\n      add\n      mstore\n      0x20\n      add\n      jump(tag_373)\n    tag_375:\n      pop\n      pop\n      pop\n      pop\n      swap1\n      pop\n      swap1\n      dup2\n      add\n      swap1\n      0x1f\n      and\n      dup1\n      iszero\n      tag_376\n      jumpi\n      dup1\n      dup3\n      sub\n      dup1\n      mload\n      0x01\n      dup4\n      0x20\n      sub\n      0x0100\n      exp\n      sub\n      not\n      and\n      dup2\n      mstore\n      0x20\n      add\n      swap2\n      pop\n    tag_376:\n      pop\n      swap3\n      pop\n      pop\n      pop\n      mload(0x40)\n      dup1\n      swap2\n      sub\n      swap1\n      revert\n    tag_372:\n      pop\n      pop\n      pop\n        /* \"contracts/includes.sol\":1852:1857  a - b */\n      swap1\n      sub\n      swap1\n        /* \"contracts/includes.sol\":1694:1886  function sub(uint256 a, uint256 b, string memory errorMessage) internal pure returns (uint256) {\r... */\n      jump\t// out\n        /* \"contracts/includes.sol\":7235:7369  function toInt256Safe(uint256 a) internal pure returns (int256) {\r... */\n    tag_226:\n        /* \"contracts/includes.sol\":7291:7297  int256 */\n      0x00\n        /* \"contracts/includes.sol\":7324:7325  a */\n      dup2\n        /* \"contracts/includes.sol\":7341:7347  b >= 0 */\n      dup2\n      dup2\n      slt\n      iszero\n        /* \"contracts/includes.sol\":7333:7348  require(b >= 0) */\n      tag_201\n      jumpi\n      0x00\n      dup1\n      revert\n        /* \"contracts/includes.sol\":8290:8466  function add(int256 a, int256 b) internal pure returns (int256) {\r... */\n    tag_227:\n        /* \"contracts/includes.sol\":8346:8352  int256 */\n      0x00\n        /* \"contracts/includes.sol\":8376:8381  a + b */\n      dup3\n      dup3\n      add\n        /* \"contracts/includes.sol\":8401:8407  b >= 0 */\n      dup2\n      dup4\n      slt\n      dup1\n      iszero\n      swap1\n        /* \"contracts/includes.sol\":8401:8417  b >= 0 && c >= a */\n      tag_380\n      jumpi\n      pop\n        /* \"contracts/includes.sol\":8416:8417  a */\n      dup4\n        /* \"contracts/includes.sol\":8411:8412  c */\n      dup2\n        /* \"contracts/includes.sol\":8411:8417  c >= a */\n      slt\n      iszero\n        /* \"contracts/includes.sol\":8401:8417  b >= 0 && c >= a */\n    tag_380:\n        /* \"contracts/includes.sol\":8400:8438  (b >= 0 && c >= a) || (b < 0 && c < a) */\n      dup1\n      tag_382\n      jumpi\n      pop\n        /* \"contracts/includes.sol\":8427:8428  0 */\n      0x00\n        /* \"contracts/includes.sol\":8423:8424  b */\n      dup4\n        /* \"contracts/includes.sol\":8423:8428  b < 0 */\n      slt\n        /* \"contracts/includes.sol\":8423:8437  b < 0 && c < a */\n      dup1\n      iszero\n      tag_382\n      jumpi\n      pop\n        /* \"contracts/includes.sol\":8436:8437  a */\n      dup4\n        /* \"contracts/includes.sol\":8432:8433  c */\n      dup2\n        /* \"contracts/includes.sol\":8432:8437  c < a */\n      slt\n        /* \"contracts/includes.sol\":8423:8437  b < 0 && c < a */\n    tag_382:\n        /* \"contracts/includes.sol\":8392:8439  require((b >= 0 && c >= a) || (b < 0 && c < a)) */\n      tag_362\n      jumpi\n      0x00\n      dup1\n      revert\n        /* \"contracts/includes.sol\":8611:8738  function toUint256Safe(int256 a) internal pure returns (uint256) {\r... */\n    tag_228:\n        /* \"contracts/includes.sol\":8667:8674  uint256 */\n      0x00\n        /* \"contracts/includes.sol\":8700:8701  0 */\n      dup1\n        /* \"contracts/includes.sol\":8695:8696  a */\n      dup3\n        /* \"contracts/includes.sol\":8695:8701  a >= 0 */\n      slt\n      iszero\n        /* \"contracts/includes.sol\":8687:8702  require(a >= 0) */\n      tag_385\n      jumpi\n      0x00\n      dup1\n      revert\n    tag_385:\n      pop\n        /* \"contracts/includes.sol\":8728:8729  a */\n      swap1\n        /* \"contracts/includes.sol\":8611:8738  function toUint256Safe(int256 a) internal pure returns (uint256) {\r... */\n      jump\t// out\n        /* \"contracts/dethDividendTracker.sol\":4200:4607  function _setBalance(address account, uint256 newBalance) internal {\r... */\n    tag_237:\n        /* \"contracts/dethDividendTracker.sol\":4274:4296  uint256 currentBalance */\n      0x00\n        /* \"contracts/dethDividendTracker.sol\":4299:4317  balanceOf(account) */\n      tag_387\n        /* \"contracts/dethDividendTracker.sol\":4309:4316  account */\n      dup4\n        /* \"contracts/dethDividendTracker.sol\":4299:4308  balanceOf */\n      tag_115\n        /* \"contracts/dethDividendTracker.sol\":4299:4317  balanceOf(account) */\n      jump\t// in\n    tag_387:\n        /* \"contracts/dethDividendTracker.sol\":4274:4317  uint256 currentBalance = balanceOf(account) */\n      swap1\n      pop\n        /* \"contracts/dethDividendTracker.sol\":4342:4356  currentBalance */\n      dup1\n        /* \"contracts/dethDividendTracker.sol\":4329:4339  newBalance */\n      dup3\n        /* \"contracts/dethDividendTracker.sol\":4329:4356  newBalance > currentBalance */\n      gt\n        /* \"contracts/dethDividendTracker.sol\":4326:4602  if(newBalance > currentBalance) {\r... */\n      iszero\n      tag_388\n      jumpi\n        /* \"contracts/dethDividendTracker.sol\":4367:4385  uint256 mintAmount */\n      0x00\n        /* \"contracts/dethDividendTracker.sol\":4388:4418  newBalance.sub(currentBalance) */\n      tag_389\n        /* \"contracts/dethDividendTracker.sol\":4388:4398  newBalance */\n      dup4\n        /* \"contracts/dethDividendTracker.sol\":4403:4417  currentBalance */\n      dup4\n        /* \"contracts/dethDividendTracker.sol\":4388:4402  newBalance.sub */\n      tag_279\n        /* \"contracts/dethDividendTracker.sol\":4388:4418  newBalance.sub(currentBalance) */\n      jump\t// in\n    tag_389:\n        /* \"contracts/dethDividendTracker.sol\":4367:4418  uint256 mintAmount = newBalance.sub(currentBalance) */\n      swap1\n      pop\n        /* \"contracts/dethDividendTracker.sol\":4427:4453  _mint(account, mintAmount) */\n      tag_390\n        /* \"contracts/dethDividendTracker.sol\":4433:4440  account */\n      dup5\n        /* \"contracts/dethDividendTracker.sol\":4442:4452  mintAmount */\n      dup3\n        /* \"contracts/dethDividendTracker.sol\":4427:4432  _mint */\n      tag_391\n        /* \"contracts/dethDividendTracker.sol\":4427:4453  _mint(account, mintAmount) */\n      jump\t// in\n    tag_390:\n        /* \"contracts/dethDividendTracker.sol\":4326:4602  if(newBalance > currentBalance) {\r... */\n      pop\n      jump(tag_307)\n    tag_388:\n        /* \"contracts/dethDividendTracker.sol\":4483:4497  currentBalance */\n      dup1\n        /* \"contracts/dethDividendTracker.sol\":4470:4480  newBalance */\n      dup3\n        /* \"contracts/dethDividendTracker.sol\":4470:4497  newBalance < currentBalance */\n      lt\n        /* \"contracts/dethDividendTracker.sol\":4467:4602  if(newBalance < currentBalance) {\r... */\n      iszero\n      tag_307\n      jumpi\n        /* \"contracts/dethDividendTracker.sol\":4508:4526  uint256 burnAmount */\n      0x00\n        /* \"contracts/dethDividendTracker.sol\":4529:4559  currentBalance.sub(newBalance) */\n      tag_394\n        /* \"contracts/dethDividendTracker.sol\":4529:4543  currentBalance */\n      dup3\n        /* \"contracts/dethDividendTracker.sol\":4548:4558  newBalance */\n      dup5\n        /* \"contracts/dethDividendTracker.sol\":4529:4547  currentBalance.sub */\n      tag_279\n        /* \"contracts/dethDividendTracker.sol\":4529:4559  currentBalance.sub(newBalance) */\n      jump\t// in\n    tag_394:\n        /* \"contracts/dethDividendTracker.sol\":4508:4559  uint256 burnAmount = currentBalance.sub(newBalance) */\n      swap1\n      pop\n        /* \"contracts/dethDividendTracker.sol\":4568:4594  _burn(account, burnAmount) */\n      tag_395\n        /* \"contracts/dethDividendTracker.sol\":4574:4581  account */\n      dup5\n        /* \"contracts/dethDividendTracker.sol\":4583:4593  burnAmount */\n      dup3\n        /* \"contracts/dethDividendTracker.sol\":4568:4573  _burn */\n      tag_396\n        /* \"contracts/dethDividendTracker.sol\":4568:4594  _burn(account, burnAmount) */\n      jump\t// in\n    tag_395:\n        /* \"contracts/dethDividendTracker.sol\":4467:4602  if(newBalance < currentBalance) {\r... */\n      pop\n        /* \"contracts/dethDividendTracker.sol\":4200:4607  function _setBalance(address account, uint256 newBalance) internal {\r... */\n      pop\n      pop\n      pop\n      jump\t// out\n        /* \"contracts/includes.sol\":1550:1686  function sub(uint256 a, uint256 b) internal pure returns (uint256) {\r... */\n    tag_279:\n        /* \"contracts/includes.sol\":1608:1615  uint256 */\n      0x00\n        /* \"contracts/includes.sol\":1635:1678  sub(a, b, \"SafeMath: subtraction overflow\") */\n      tag_362\n        /* \"contracts/includes.sol\":1639:1640  a */\n      dup4\n        /* \"contracts/includes.sol\":1642:1643  b */\n      dup4\n        /* \"contracts/includes.sol\":1635:1678  sub(a, b, \"SafeMath: subtraction overflow\") */\n      mload(0x40)\n      dup1\n      0x40\n      add\n      0x40\n      mstore\n      dup1\n      0x1e\n      dup2\n      mstore\n      0x20\n      add\n      0x536166654d6174683a207375627472616374696f6e206f766572666c6f770000\n      dup2\n      mstore\n      pop\n        /* \"contracts/includes.sol\":1635:1638  sub */\n      tag_219\n        /* \"contracts/includes.sol\":1635:1678  sub(a, b, \"SafeMath: subtraction overflow\") */\n      jump\t// in\n        /* \"contracts/dethDividendTracker.sol\":1950:2575  function _withdrawDividendOfUser(address payable user) internal returns (uint256) {\r... */\n    tag_289:\n        /* \"contracts/dethDividendTracker.sol\":2023:2030  uint256 */\n      0x00\n        /* \"contracts/dethDividendTracker.sol\":2039:2068  uint256 _withdrawableDividend */\n      dup1\n        /* \"contracts/dethDividendTracker.sol\":2071:2099  withdrawableDividendOf(user) */\n      tag_400\n        /* \"contracts/dethDividendTracker.sol\":2094:2098  user */\n      dup4\n        /* \"contracts/dethDividendTracker.sol\":2071:2093  withdrawableDividendOf */\n      tag_143\n        /* \"contracts/dethDividendTracker.sol\":2071:2099  withdrawableDividendOf(user) */\n      jump\t// in\n    tag_400:\n        /* \"contracts/dethDividendTracker.sol\":2039:2099  uint256 _withdrawableDividend = withdrawableDividendOf(user) */\n      swap1\n      pop\n        /* \"contracts/dethDividendTracker.sol\":2110:2135  _withdrawableDividend > 0 */\n      dup1\n      iszero\n        /* \"contracts/dethDividendTracker.sol\":2106:2553  if (_withdrawableDividend > 0) {\r... */\n      tag_401\n      jumpi\n      sub(shl(0xa0, 0x01), 0x01)\n        /* \"contracts/dethDividendTracker.sol\":2173:2197  withdrawnDividends[user] */\n      dup4\n      and\n      0x00\n      swap1\n      dup2\n      mstore\n        /* \"contracts/dethDividendTracker.sol\":2173:2191  withdrawnDividends */\n      0x07\n        /* \"contracts/dethDividendTracker.sol\":2173:2197  withdrawnDividends[user] */\n      0x20\n      mstore\n      0x40\n      swap1\n      keccak256\n      sload\n        /* \"contracts/dethDividendTracker.sol\":2173:2224  withdrawnDividends[user].add(_withdrawableDividend) */\n      tag_402\n      swap1\n        /* \"contracts/dethDividendTracker.sol\":2202:2223  _withdrawableDividend */\n      dup3\n        /* \"contracts/dethDividendTracker.sol\":2173:2201  withdrawnDividends[user].add */\n      tag_195\n        /* \"contracts/dethDividendTracker.sol\":2173:2224  withdrawnDividends[user].add(_withdrawableDividend) */\n      jump\t// in\n    tag_402:\n      sub(shl(0xa0, 0x01), 0x01)\n        /* \"contracts/dethDividendTracker.sol\":2146:2170  withdrawnDividends[user] */\n      dup5\n      and\n      0x00\n      dup2\n      dup2\n      mstore\n        /* \"contracts/dethDividendTracker.sol\":2146:2164  withdrawnDividends */\n      0x07\n        /* \"contracts/dethDividendTracker.sol\":2146:2170  withdrawnDividends[user] */\n      0x20\n      swap1\n      dup2\n      mstore\n      0x40\n      swap2\n      dup3\n      swap1\n      keccak256\n        /* \"contracts/dethDividendTracker.sol\":2146:2224  withdrawnDividends[user] = withdrawnDividends[user].add(_withdrawableDividend) */\n      swap4\n      swap1\n      swap4\n      sstore\n        /* \"contracts/dethDividendTracker.sol\":2238:2284  DividendWithdrawn(user, _withdrawableDividend) */\n      dup1\n      mload\n      dup5\n      dup2\n      mstore\n      swap1\n      mload\n        /* \"contracts/dethDividendTracker.sol\":2146:2170  withdrawnDividends[user] */\n      swap2\n      swap3\n        /* \"contracts/dethDividendTracker.sol\":2238:2284  DividendWithdrawn(user, _withdrawableDividend) */\n      0xee503bee2bb6a87e57bc57db795f98137327401a0e7b7ce42e37926cc1a9ca4d\n      swap3\n      swap2\n      dup3\n      swap1\n      sub\n      add\n      swap1\n      log2\n        /* \"contracts/dethDividendTracker.sol\":2311:2365  user.call{value: _withdrawableDividend, gas: 3000}(\"\") */\n      mload(0x40)\n        /* \"contracts/dethDividendTracker.sol\":2294:2306  bool success */\n      0x00\n      swap1\n      sub(shl(0xa0, 0x01), 0x01)\n        /* \"contracts/dethDividendTracker.sol\":2311:2320  user.call */\n      dup6\n      and\n      swap1\n        /* \"contracts/dethDividendTracker.sol\":2356:2360  3000 */\n      0x0bb8\n      swap1\n        /* \"contracts/dethDividendTracker.sol\":2328:2349  _withdrawableDividend */\n      dup5\n      swap1\n        /* \"contracts/dethDividendTracker.sol\":2294:2306  bool success */\n      dup5\n        /* \"contracts/dethDividendTracker.sol\":2311:2365  user.call{value: _withdrawableDividend, gas: 3000}(\"\") */\n      dup2\n        /* \"contracts/dethDividendTracker.sol\":2294:2306  bool success */\n      dup2\n        /* \"contracts/dethDividendTracker.sol\":2311:2365  user.call{value: _withdrawableDividend, gas: 3000}(\"\") */\n      dup2\n        /* \"contracts/dethDividendTracker.sol\":2328:2349  _withdrawableDividend */\n      dup6\n        /* \"contracts/dethDividendTracker.sol\":2311:2320  user.call */\n      dup9\n        /* \"contracts/dethDividendTracker.sol\":2356:2360  3000 */\n      dup9\n        /* \"contracts/dethDividendTracker.sol\":2311:2365  user.call{value: _withdrawableDividend, gas: 3000}(\"\") */\n      call\n      swap4\n      pop\n      pop\n      pop\n      pop\n      returndatasize\n      dup1\n      0x00\n      dup2\n      eq\n      tag_405\n      jumpi\n      mload(0x40)\n      swap2\n      pop\n      and(add(returndatasize, 0x3f), not(0x1f))\n      dup3\n      add\n      0x40\n      mstore\n      returndatasize\n      dup3\n      mstore\n      returndatasize\n      0x00\n      0x20\n      dup5\n      add\n      returndatacopy\n      jump(tag_404)\n    tag_405:\n      0x60\n      swap2\n      pop\n    tag_404:\n      pop\n        /* \"contracts/dethDividendTracker.sol\":2293:2365  (bool success,) = user.call{value: _withdrawableDividend, gas: 3000}(\"\") */\n      pop\n      swap1\n      pop\n        /* \"contracts/dethDividendTracker.sol\":2380:2387  success */\n      dup1\n        /* \"contracts/dethDividendTracker.sol\":2376:2507  if(!success) {\r... */\n      tag_406\n      jumpi\n      sub(shl(0xa0, 0x01), 0x01)\n        /* \"contracts/dethDividendTracker.sol\":2427:2451  withdrawnDividends[user] */\n      dup5\n      and\n      0x00\n      swap1\n      dup2\n      mstore\n        /* \"contracts/dethDividendTracker.sol\":2427:2445  withdrawnDividends */\n      0x07\n        /* \"contracts/dethDividendTracker.sol\":2427:2451  withdrawnDividends[user] */\n      0x20\n      mstore\n      0x40\n      swap1\n      keccak256\n      sload\n        /* \"contracts/dethDividendTracker.sol\":2427:2478  withdrawnDividends[user].sub(_withdrawableDividend) */\n      tag_407\n      swap1\n        /* \"contracts/dethDividendTracker.sol\":2456:2477  _withdrawableDividend */\n      dup4\n        /* \"contracts/dethDividendTracker.sol\":2427:2455  withdrawnDividends[user].sub */\n      tag_279\n        /* \"contracts/dethDividendTracker.sol\":2427:2478  withdrawnDividends[user].sub(_withdrawableDividend) */\n      jump\t// in\n    tag_407:\n      sub(shl(0xa0, 0x01), 0x01)\n        /* \"contracts/dethDividendTracker.sol\":2400:2424  withdrawnDividends[user] */\n      dup6\n      and\n      0x00\n      swap1\n      dup2\n      mstore\n        /* \"contracts/dethDividendTracker.sol\":2400:2418  withdrawnDividends */\n      0x07\n        /* \"contracts/dethDividendTracker.sol\":2400:2424  withdrawnDividends[user] */\n      0x20\n      mstore\n      0x40\n      dup2\n      keccak256\n        /* \"contracts/dethDividendTracker.sol\":2400:2478  withdrawnDividends[user] = withdrawnDividends[user].sub(_withdrawableDividend) */\n      swap2\n      swap1\n      swap2\n      sstore\n        /* \"contracts/dethDividendTracker.sol\":2400:2424  withdrawnDividends[user] */\n      swap3\n      pop\n        /* \"contracts/dethDividendTracker.sol\":2489:2497  return 0 */\n      tag_220\n      swap2\n      pop\n      pop\n      jump\n        /* \"contracts/dethDividendTracker.sol\":2376:2507  if(!success) {\r... */\n    tag_406:\n      pop\n        /* \"contracts/dethDividendTracker.sol\":2524:2545  _withdrawableDividend */\n      swap1\n      pop\n        /* \"contracts/dethDividendTracker.sol\":2517:2545  return _withdrawableDividend */\n      jump(tag_220)\n        /* \"contracts/dethDividendTracker.sol\":2106:2553  if (_withdrawableDividend > 0) {\r... */\n    tag_401:\n      pop\n        /* \"contracts/dethDividendTracker.sol\":2568:2569  0 */\n      0x00\n      swap3\n        /* \"contracts/dethDividendTracker.sol\":1950:2575  function _withdrawDividendOfUser(address payable user) internal returns (uint256) {\r... */\n      swap2\n      pop\n      pop\n      jump\t// out\n        /* \"contracts/includes.sol\":8106:8282  function sub(int256 a, int256 b) internal pure returns (int256) {\r... */\n    tag_329:\n        /* \"contracts/includes.sol\":8162:8168  int256 */\n      0x00\n        /* \"contracts/includes.sol\":8192:8197  a - b */\n      dup2\n      dup4\n      sub\n        /* \"contracts/includes.sol\":8217:8223  b >= 0 */\n      dup2\n      dup4\n      slt\n      dup1\n      iszero\n      swap1\n        /* \"contracts/includes.sol\":8217:8233  b >= 0 && c <= a */\n      tag_409\n      jumpi\n      pop\n        /* \"contracts/includes.sol\":8232:8233  a */\n      dup4\n        /* \"contracts/includes.sol\":8227:8228  c */\n      dup2\n        /* \"contracts/includes.sol\":8227:8233  c <= a */\n      sgt\n      iszero\n        /* \"contracts/includes.sol\":8217:8233  b >= 0 && c <= a */\n    tag_409:\n        /* \"contracts/includes.sol\":8216:8254  (b >= 0 && c <= a) || (b < 0 && c > a) */\n      dup1\n      tag_382\n      jumpi\n      pop\n        /* \"contracts/includes.sol\":8243:8244  0 */\n      0x00\n        /* \"contracts/includes.sol\":8239:8240  b */\n      dup4\n        /* \"contracts/includes.sol\":8239:8244  b < 0 */\n      slt\n        /* \"contracts/includes.sol\":8239:8253  b < 0 && c > a */\n      dup1\n      iszero\n      tag_382\n      jumpi\n      pop\n        /* \"contracts/includes.sol\":8252:8253  a */\n      dup4\n        /* \"contracts/includes.sol\":8248:8249  c */\n      dup2\n        /* \"contracts/includes.sol\":8248:8253  c > a */\n      sgt\n        /* \"contracts/includes.sol\":8208:8255  require((b >= 0 && c <= a) || (b < 0 && c > a)) */\n      tag_362\n      jumpi\n      0x00\n      dup1\n      revert\n        /* \"contracts/dethDividendTracker.sol\":9234:9453  function canAutoClaim(uint256 lastClaimTime) private view returns (bool) {\r... */\n    tag_352:\n        /* \"contracts/dethDividendTracker.sol\":9301:9305  bool */\n      0x00\n        /* \"contracts/dethDividendTracker.sol\":9334:9349  block.timestamp */\n      timestamp\n        /* \"contracts/dethDividendTracker.sol\":9318:9331  lastClaimTime */\n      dup3\n        /* \"contracts/dethDividendTracker.sol\":9318:9349  lastClaimTime > block.timestamp */\n      gt\n        /* \"contracts/dethDividendTracker.sol\":9315:9382  if(lastClaimTime > block.timestamp)  {\r... */\n      iszero\n      tag_414\n      jumpi\n      pop\n        /* \"contracts/dethDividendTracker.sol\":9368:9373  false */\n      0x00\n        /* \"contracts/dethDividendTracker.sol\":9361:9373  return false */\n      jump(tag_220)\n        /* \"contracts/dethDividendTracker.sol\":9315:9382  if(lastClaimTime > block.timestamp)  {\r... */\n    tag_414:\n        /* \"contracts/dethDividendTracker.sol\":9436:9445  claimWait */\n      sload(0x11)\n        /* \"contracts/dethDividendTracker.sol\":9398:9432  block.timestamp.sub(lastClaimTime) */\n      tag_415\n        /* \"contracts/dethDividendTracker.sol\":9398:9413  block.timestamp */\n      timestamp\n        /* \"contracts/dethDividendTracker.sol\":9418:9431  lastClaimTime */\n      dup5\n        /* \"contracts/dethDividendTracker.sol\":9398:9417  block.timestamp.sub */\n      tag_279\n        /* \"contracts/dethDividendTracker.sol\":9398:9432  block.timestamp.sub(lastClaimTime) */\n      jump\t// in\n    tag_415:\n        /* \"contracts/dethDividendTracker.sol\":9398:9445  block.timestamp.sub(lastClaimTime) >= claimWait */\n      lt\n      iszero\n      swap3\n        /* \"contracts/dethDividendTracker.sol\":9234:9453  function canAutoClaim(uint256 lastClaimTime) private view returns (bool) {\r... */\n      swap2\n      pop\n      pop\n      jump\t// out\n        /* \"contracts/dethDividendTracker.sol\":3668:3928  function _mint(address account, uint256 value) internal override {\r... */\n    tag_391:\n        /* \"contracts/dethDividendTracker.sol\":3740:3767  super._mint(account, value) */\n      tag_417\n        /* \"contracts/dethDividendTracker.sol\":3752:3759  account */\n      dup3\n        /* \"contracts/dethDividendTracker.sol\":3761:3766  value */\n      dup3\n        /* \"contracts/dethDividendTracker.sol\":3740:3751  super._mint */\n      tag_418\n        /* \"contracts/dethDividendTracker.sol\":3740:3767  super._mint(account, value) */\n      jump\t// in\n    tag_417:\n        /* \"contracts/dethDividendTracker.sol\":3816:3922  magnifiedDividendCorrections[account]\r... */\n      tag_419\n        /* \"contracts/dethDividendTracker.sol\":3867:3920  (magnifiedDividendPerShare.mul(value)).toInt256Safe() */\n      tag_420\n        /* \"contracts/dethDividendTracker.sol\":3868:3904  magnifiedDividendPerShare.mul(value) */\n      tag_224\n        /* \"contracts/dethDividendTracker.sol\":3898:3903  value */\n      dup4\n        /* \"contracts/dethDividendTracker.sol\":3868:3893  magnifiedDividendPerShare */\n      sload(0x05)\n        /* \"contracts/dethDividendTracker.sol\":3868:3897  magnifiedDividendPerShare.mul */\n      tag_193\n      swap1\n        /* \"contracts/dethDividendTracker.sol\":3868:3904  magnifiedDividendPerShare.mul(value) */\n      swap2\n      swap1\n      0xffffffff\n      and\n      jump\t// in\n        /* \"contracts/dethDividendTracker.sol\":3867:3920  (magnifiedDividendPerShare.mul(value)).toInt256Safe() */\n    tag_420:\n      sub(shl(0xa0, 0x01), 0x01)\n        /* \"contracts/dethDividendTracker.sol\":3816:3853  magnifiedDividendCorrections[account] */\n      dup5\n      and\n      0x00\n      swap1\n      dup2\n      mstore\n        /* \"contracts/dethDividendTracker.sol\":3816:3844  magnifiedDividendCorrections */\n      0x06\n        /* \"contracts/dethDividendTracker.sol\":3816:3853  magnifiedDividendCorrections[account] */\n      0x20\n      mstore\n      0x40\n      swap1\n      keccak256\n      sload\n      swap1\n        /* \"contracts/dethDividendTracker.sol\":3816:3865  magnifiedDividendCorrections[account]\r... */\n      tag_329\n        /* \"contracts/dethDividendTracker.sol\":3816:3922  magnifiedDividendCorrections[account]\r... */\n      jump\t// in\n    tag_419:\n      sub(shl(0xa0, 0x01), 0x01)\n        /* \"contracts/dethDividendTracker.sol\":3776:3813  magnifiedDividendCorrections[account] */\n      swap1\n      swap3\n      and\n      0x00\n      swap1\n      dup2\n      mstore\n        /* \"contracts/dethDividendTracker.sol\":3776:3804  magnifiedDividendCorrections */\n      0x06\n        /* \"contracts/dethDividendTracker.sol\":3776:3813  magnifiedDividendCorrections[account] */\n      0x20\n      mstore\n      0x40\n      swap1\n      keccak256\n        /* \"contracts/dethDividendTracker.sol\":3776:3922  magnifiedDividendCorrections[account] = magnifiedDividendCorrections[account]\r... */\n      swap2\n      swap1\n      swap2\n      sstore\n      pop\n        /* \"contracts/dethDividendTracker.sol\":3668:3928  function _mint(address account, uint256 value) internal override {\r... */\n      jump\t// out\n        /* \"contracts/dethDividendTracker.sol\":3934:4194  function _burn(address account, uint256 value) internal override {\r... */\n    tag_396:\n        /* \"contracts/dethDividendTracker.sol\":4006:4033  super._burn(account, value) */\n      tag_423\n        /* \"contracts/dethDividendTracker.sol\":4018:4025  account */\n      dup3\n        /* \"contracts/dethDividendTracker.sol\":4027:4032  value */\n      dup3\n        /* \"contracts/dethDividendTracker.sol\":4006:4017  super._burn */\n      tag_424\n        /* \"contracts/dethDividendTracker.sol\":4006:4033  super._burn(account, value) */\n      jump\t// in\n    tag_423:\n        /* \"contracts/dethDividendTracker.sol\":4082:4188  magnifiedDividendCorrections[account]\r... */\n      tag_419\n        /* \"contracts/dethDividendTracker.sol\":4133:4186  (magnifiedDividendPerShare.mul(value)).toInt256Safe() */\n      tag_426\n        /* \"contracts/dethDividendTracker.sol\":4134:4170  magnifiedDividendPerShare.mul(value) */\n      tag_224\n        /* \"contracts/dethDividendTracker.sol\":4164:4169  value */\n      dup4\n        /* \"contracts/dethDividendTracker.sol\":4134:4159  magnifiedDividendPerShare */\n      sload(0x05)\n        /* \"contracts/dethDividendTracker.sol\":4134:4163  magnifiedDividendPerShare.mul */\n      tag_193\n      swap1\n        /* \"contracts/dethDividendTracker.sol\":4134:4170  magnifiedDividendPerShare.mul(value) */\n      swap2\n      swap1\n      0xffffffff\n      and\n      jump\t// in\n        /* \"contracts/dethDividendTracker.sol\":4133:4186  (magnifiedDividendPerShare.mul(value)).toInt256Safe() */\n    tag_426:\n      sub(shl(0xa0, 0x01), 0x01)\n        /* \"contracts/dethDividendTracker.sol\":4082:4119  magnifiedDividendCorrections[account] */\n      dup5\n      and\n      0x00\n      swap1\n      dup2\n      mstore\n        /* \"contracts/dethDividendTracker.sol\":4082:4110  magnifiedDividendCorrections */\n      0x06\n        /* \"contracts/dethDividendTracker.sol\":4082:4119  magnifiedDividendCorrections[account] */\n      0x20\n      mstore\n      0x40\n      swap1\n      keccak256\n      sload\n      swap1\n        /* \"contracts/dethDividendTracker.sol\":4082:4131  magnifiedDividendCorrections[account]\r... */\n      tag_227\n        /* \"contracts/dethDividendTracker.sol\":4082:4188  magnifiedDividendCorrections[account]\r... */\n      jump\t// in\n        /* \"contracts/includes.sol\":5877:6255  function _mint(address account, uint256 amount) internal virtual {\r... */\n    tag_418:\n      sub(shl(0xa0, 0x01), 0x01)\n        /* \"contracts/includes.sol\":5961:5982  account != address(0) */\n      dup3\n      and\n        /* \"contracts/includes.sol\":5953:6018  require(account != address(0), \"ERC20: mint to the zero address\") */\n      tag_429\n      jumpi\n      0x40\n      dup1\n      mload\n      shl(0xe5, 0x461bcd)\n      dup2\n      mstore\n      0x20\n      0x04\n      dup3\n      add\n      mstore\n      0x1f\n      0x24\n      dup3\n      add\n      mstore\n      0x45524332303a206d696e7420746f20746865207a65726f206164647265737300\n      0x44\n      dup3\n      add\n      mstore\n      swap1\n      mload\n      swap1\n      dup2\n      swap1\n      sub\n      0x64\n      add\n      swap1\n      revert\n    tag_429:\n        /* \"contracts/includes.sol\":6031:6080  _beforeTokenTransfer(address(0), account, amount) */\n      tag_430\n        /* \"contracts/includes.sol\":6060:6061  0 */\n      0x00\n        /* \"contracts/includes.sol\":6064:6071  account */\n      dup4\n        /* \"contracts/includes.sol\":6073:6079  amount */\n      dup4\n        /* \"contracts/includes.sol\":6031:6051  _beforeTokenTransfer */\n      tag_307\n        /* \"contracts/includes.sol\":6031:6080  _beforeTokenTransfer(address(0), account, amount) */\n      jump\t// in\n    tag_430:\n        /* \"contracts/includes.sol\":6108:6120  _totalSupply */\n      sload(0x02)\n        /* \"contracts/includes.sol\":6108:6132  _totalSupply.add(amount) */\n      tag_432\n      swap1\n        /* \"contracts/includes.sol\":6125:6131  amount */\n      dup3\n        /* \"contracts/includes.sol\":6108:6124  _totalSupply.add */\n      tag_195\n        /* \"contracts/includes.sol\":6108:6132  _totalSupply.add(amount) */\n      jump\t// in\n    tag_432:\n        /* \"contracts/includes.sol\":6093:6105  _totalSupply */\n      0x02\n        /* \"contracts/includes.sol\":6093:6132  _totalSupply = _totalSupply.add(amount) */\n      sstore\n      sub(shl(0xa0, 0x01), 0x01)\n        /* \"contracts/includes.sol\":6164:6182  _balances[account] */\n      dup3\n      and\n        /* \"contracts/includes.sol\":6164:6173  _balances */\n      0x00\n        /* \"contracts/includes.sol\":6164:6182  _balances[account] */\n      swap1\n      dup2\n      mstore\n      0x20\n      dup2\n      swap1\n      mstore\n      0x40\n      swap1\n      keccak256\n      sload\n        /* \"contracts/includes.sol\":6164:6194  _balances[account].add(amount) */\n      tag_433\n      swap1\n        /* \"contracts/includes.sol\":6187:6193  amount */\n      dup3\n        /* \"contracts/includes.sol\":6164:6186  _balances[account].add */\n      tag_195\n        /* \"contracts/includes.sol\":6164:6194  _balances[account].add(amount) */\n      jump\t// in\n    tag_433:\n      sub(shl(0xa0, 0x01), 0x01)\n        /* \"contracts/includes.sol\":6143:6161  _balances[account] */\n      dup4\n      and\n        /* \"contracts/includes.sol\":6143:6152  _balances */\n      0x00\n        /* \"contracts/includes.sol\":6143:6161  _balances[account] */\n      dup2\n      dup2\n      mstore\n      0x20\n      dup2\n      dup2\n      mstore\n      0x40\n      dup1\n      dup4\n      keccak256\n        /* \"contracts/includes.sol\":6143:6194  _balances[account] = _balances[account].add(amount) */\n      swap5\n      swap1\n      swap5\n      sstore\n        /* \"contracts/includes.sol\":6210:6247  Transfer(address(0), account, amount) */\n      dup4\n      mload\n      dup6\n      dup2\n      mstore\n      swap4\n      mload\n        /* \"contracts/includes.sol\":6143:6161  _balances[account] */\n      swap3\n      swap4\n        /* \"contracts/includes.sol\":6143:6152  _balances */\n      swap2\n      swap3\n        /* \"contracts/includes.sol\":6210:6247  Transfer(address(0), account, amount) */\n      0xddf252ad1be2c89b69c2b068fc378daa952ba7f163c4a11628f55a4df523b3ef\n      swap3\n      dup2\n      swap1\n      sub\n      swap1\n      swap2\n      add\n      swap1\n      log3\n        /* \"contracts/includes.sol\":5877:6255  function _mint(address account, uint256 amount) internal virtual {\r... */\n      pop\n      pop\n      jump\t// out\n        /* \"contracts/includes.sol\":6263:6681  function _burn(address account, uint256 amount) internal virtual {\r... */\n    tag_424:\n      sub(shl(0xa0, 0x01), 0x01)\n        /* \"contracts/includes.sol\":6347:6368  account != address(0) */\n      dup3\n      and\n        /* \"contracts/includes.sol\":6339:6406  require(account != address(0), \"ERC20: burn from the zero address\") */\n      tag_435\n      jumpi\n      mload(0x40)\n      shl(0xe5, 0x461bcd)\n      dup2\n      mstore\n      0x04\n      add\n      dup1\n      dup1\n      0x20\n      add\n      dup3\n      dup2\n      sub\n      dup3\n      mstore\n      0x21\n      dup2\n      mstore\n      0x20\n      add\n      dup1\n      data_b16788493b576042bb52c50ed56189e0b250db113c7bfb1c3897d25cf9632d7f\n      0x21\n      swap2\n      codecopy\n      0x40\n      add\n      swap2\n      pop\n      pop\n      mload(0x40)\n      dup1\n      swap2\n      sub\n      swap1\n      revert\n    tag_435:\n        /* \"contracts/includes.sol\":6419:6468  _beforeTokenTransfer(account, address(0), amount) */\n      tag_436\n        /* \"contracts/includes.sol\":6440:6447  account */\n      dup3\n        /* \"contracts/includes.sol\":6457:6458  0 */\n      0x00\n        /* \"contracts/includes.sol\":6461:6467  amount */\n      dup4\n        /* \"contracts/includes.sol\":6419:6439  _beforeTokenTransfer */\n      tag_307\n        /* \"contracts/includes.sol\":6419:6468  _beforeTokenTransfer(account, address(0), amount) */\n      jump\t// in\n    tag_436:\n        /* \"contracts/includes.sol\":6502:6570  _balances[account].sub(amount, \"ERC20: burn amount exceeds balance\") */\n      tag_437\n        /* \"contracts/includes.sol\":6525:6531  amount */\n      dup2\n        /* \"contracts/includes.sol\":6502:6570  _balances[account].sub(amount, \"ERC20: burn amount exceeds balance\") */\n      mload(0x40)\n      dup1\n      0x60\n      add\n      0x40\n      mstore\n      dup1\n      0x22\n      dup2\n      mstore\n      0x20\n      add\n      data_149b126e7125232b4200af45303d04fba8b74653b1a295a6a561a528c33fefdd\n      0x22\n      swap2\n      codecopy\n      sub(shl(0xa0, 0x01), 0x01)\n        /* \"contracts/includes.sol\":6502:6520  _balances[account] */\n      dup6\n      and\n        /* \"contracts/includes.sol\":6502:6511  _balances */\n      0x00\n        /* \"contracts/includes.sol\":6502:6520  _balances[account] */\n      swap1\n      dup2\n      mstore\n      0x20\n      dup2\n      swap1\n      mstore\n      0x40\n      swap1\n      keccak256\n      sload\n      swap2\n        /* \"contracts/includes.sol\":6502:6570  _balances[account].sub(amount, \"ERC20: burn amount exceeds balance\") */\n      swap1\n        /* \"contracts/includes.sol\":6502:6524  _balances[account].sub */\n      tag_219\n        /* \"contracts/includes.sol\":6502:6570  _balances[account].sub(amount, \"ERC20: burn amount exceeds balance\") */\n      jump\t// in\n    tag_437:\n      sub(shl(0xa0, 0x01), 0x01)\n        /* \"contracts/includes.sol\":6481:6499  _balances[account] */\n      dup4\n      and\n        /* \"contracts/includes.sol\":6481:6490  _balances */\n      0x00\n        /* \"contracts/includes.sol\":6481:6499  _balances[account] */\n      swap1\n      dup2\n      mstore\n      0x20\n      dup2\n      swap1\n      mstore\n      0x40\n      swap1\n      keccak256\n        /* \"contracts/includes.sol\":6481:6570  _balances[account] = _balances[account].sub(amount, \"ERC20: burn amount exceeds balance\") */\n      sstore\n        /* \"contracts/includes.sol\":6596:6608  _totalSupply */\n      sload(0x02)\n        /* \"contracts/includes.sol\":6596:6620  _totalSupply.sub(amount) */\n      tag_438\n      swap1\n        /* \"contracts/includes.sol\":6613:6619  amount */\n      dup3\n        /* \"contracts/includes.sol\":6596:6612  _totalSupply.sub */\n      tag_279\n        /* \"contracts/includes.sol\":6596:6620  _totalSupply.sub(amount) */\n      jump\t// in\n    tag_438:\n        /* \"contracts/includes.sol\":6581:6593  _totalSupply */\n      0x02\n        /* \"contracts/includes.sol\":6581:6620  _totalSupply = _totalSupply.sub(amount) */\n      sstore\n        /* \"contracts/includes.sol\":6636:6673  Transfer(account, address(0), amount) */\n      0x40\n      dup1\n      mload\n      dup3\n      dup2\n      mstore\n      swap1\n      mload\n        /* \"contracts/includes.sol\":6662:6663  0 */\n      0x00\n      swap2\n      sub(shl(0xa0, 0x01), 0x01)\n        /* \"contracts/includes.sol\":6636:6673  Transfer(account, address(0), amount) */\n      dup6\n      and\n      swap2\n      0xddf252ad1be2c89b69c2b068fc378daa952ba7f163c4a11628f55a4df523b3ef\n      swap2\n      dup2\n      swap1\n      sub\n      0x20\n      add\n      swap1\n      log3\n        /* \"contracts/includes.sol\":6263:6681  function _burn(address account, uint256 amount) internal virtual {\r... */\n      pop\n      pop\n      jump\t// out\n    stop\n    data_149b126e7125232b4200af45303d04fba8b74653b1a295a6a561a528c33fefdd 45524332303a206275726e20616d6f756e7420657863656564732062616c616e6365\n    data_18c839a2c4e8ee35038bfe168b24498d2634382fb0ab4c94c6282dba6c5da688 644554485f4469766964656e645f547261636b65723a204e6f207472616e736665727320616c6c6f776564\n    data_245f15ff17f551913a7a18385165551503906a406f905ac1c2437281a7cd0cfe 4f776e61626c653a206e6577206f776e657220697320746865207a65726f2061646472657373\n    data_24883cc5fe64ace9d0df1893501ecb93c77180f0ff69cca79affb3c316dc8029 45524332303a20617070726f766520746f20746865207a65726f2061646472657373\n    data_90e7fcfc7f3a8179054ac3edb41409736b6fa2024f3366c345aadbbd1a927994 644554485f4469766964656e645f547261636b65723a2077697468647261774469766964656e642064697361626c65642e20557365207468652027636c61696d272066756e6374696f6e206f6e20746865206d61696e206445544820636f6e74726163742e\n    data_9113bb53c2876a3805b2c9242029423fc540a728243ce887ab24c82cf119fba3 536166654d6174683a206d756c7469706c69636174696f6e206f766572666c6f77\n    data_974d1b4421da69cc60b481194f0dad36a5bb4e23da810da7a7fb30cdba178330 45524332303a207472616e7366657220616d6f756e74206578636565647320616c6c6f77616e6365\n    data_9924ebdf1add33d25d4ef888e16131f0a5687b0580a36c21b5c301a6c462effe 4f776e61626c653a2063616c6c6572206973206e6f7420746865206f776e6572\n    data_b16788493b576042bb52c50ed56189e0b250db113c7bfb1c3897d25cf9632d7f 45524332303a206275726e2066726f6d20746865207a65726f2061646472657373\n    data_bc7d85fd1114eeee87600771452948ecd416e2049ea8c3154c4afdfe9ae8f6c0 644554485f4469766964656e645f547261636b65723a2043616e6e6f742075706461746520636c61696d5761697420746f2073616d652076616c7565\n    data_c953f4879035ed60e766b34720f656aab5c697b141d924c283124ecedb91c208 45524332303a20617070726f76652066726f6d20746865207a65726f2061646472657373\n    data_f8b476f7d28209d77d4a4ac1fe36b9f8259aa1bb6bddfa6e89de7e51615cf8a8 45524332303a2064656372656173656420616c6c6f77616e63652062656c6f77207a65726f\n    data_f97bd173f95b008375758082c91cfae1b14c2cf0bd3a4ed052bc360d9d1e2b9a 644554485f4469766964656e645f547261636b65723a20636c61696d57616974206d757374206265207570646174656420746f206265747765656e203120616e64203130206d696e75746573\n\n    auxdata: 0xa26469706673582212209a7e2e94fc7afda5a76aed5c8a8892b1633221f0e2e156e20a802ab0eebc8d9364736f6c634300060c0033\n}\n",
				"bytecode": {
					"linkReferences": {
						"contracts/includes.sol": {
							"IterableMapping": [
								{
									"length": 20,
									"start": 3633
								},
								{
									"length": 20,
									"start": 3884
								},
								{
									"length": 20,
									"start": 4049
								},
								{
									"length": 20,
									"start": 5247
								},
								{
									"length": 20,
									"start": 5384
								},
								{
									"length": 20,
									"start": 6039
								}
							]
						}
					},
					"object": "60806040523480156200001157600080fd5b5060408051808201825260158082527f644554485f4469766964656e645f547261636b65720000000000000000000000602080840182815285518087019096529285528401528151919291839183916200006e9160039162000104565b5080516200008490600490602084019062000104565b505050505060006200009b6200010060201b60201c565b600980546001600160a01b0319166001600160a01b038316908117909155604051919250906000907f8be0079c531659141344cd1fd0a4f28419497f9722a3daafe3b4186f6b6457e0908290a350603c601155670de0b6b3a7640000601255620001a0565b3390565b828054600181600116156101000203166002900490600052602060002090601f016020900481019282601f106200014757805160ff191683800117855562000177565b8280016001018555821562000177579182015b82811115620001775782518255916020019190600101906200015a565b506200018592915062000189565b5090565b5b808211156200018557600081556001016200018a565b61226780620001b06000396000f3fe6080604052600436106102135760003560e01c8063715018a611610118578063bc4c4b37116100a0578063e7841ec01161006f578063e7841ec014610805578063e98030c71461081a578063f2fde38b14610844578063fbcbc0f114610877578063ffb2c479146108aa57610222565b8063bc4c4b3714610741578063be10b6141461077c578063dd62ed3e14610791578063e30443bc146107cc57610222565b806395d89b41116100e757806395d89b4114610654578063a457c2d714610669578063a8b9d240146106a2578063a9059cbb146106d5578063aafd847a1461070e57610222565b8063715018a6146105c657806385a6b3ae146105db5780638da5cb5b146105f057806391b89fba1461062157610222565b80633009a6091161019b5780634e7b827f1161016a5780634e7b827f146104c15780635183d6fd146104f45780636a474002146105695780636f2789ec1461057e57806370a082311461059357610222565b80633009a60914610415578063313ce5671461042a57806331e79db014610455578063395093511461048857610222565b80630dcb2e89116101e25780630dcb2e891461032d57806318160ddd14610357578063226cfa3d1461036c57806323b872dd1461039f57806327ce0147146103e257610222565b806303c833021461022757806306fdde031461022f578063095ea7b3146102b957806309bbedde1461030657610222565b36610222576102206108f2565b005b600080fd5b6102206108f2565b34801561023b57600080fd5b50610244610983565b6040805160208082528351818301528351919283929083019185019080838360005b8381101561027e578181015183820152602001610266565b50505050905090810190601f1680156102ab5780820380516001836020036101000a031916815260200191505b509250505060405180910390f35b3480156102c557600080fd5b506102f2600480360360408110156102dc57600080fd5b506001600160a01b038135169060200135610a19565b604080519115158252519081900360200190f35b34801561031257600080fd5b5061031b610a37565b60408051918252519081900360200190f35b34801561033957600080fd5b506102206004803603602081101561035057600080fd5b5035610a3d565b34801561036357600080fd5b5061031b610aa4565b34801561037857600080fd5b5061031b6004803603602081101561038f57600080fd5b50356001600160a01b0316610aaa565b3480156103ab57600080fd5b506102f2600480360360608110156103c257600080fd5b506001600160a01b03813581169160208101359091169060400135610abc565b3480156103ee57600080fd5b5061031b6004803603602081101561040557600080fd5b50356001600160a01b0316610b43565b34801561042157600080fd5b5061031b610ba2565b34801561043657600080fd5b5061043f610ba8565b6040805160ff9092168252519081900360200190f35b34801561046157600080fd5b506102206004803603602081101561047857600080fd5b50356001600160a01b0316610bad565b34801561049457600080fd5b506102f2600480360360408110156104ab57600080fd5b506001600160a01b038135169060200135610d09565b3480156104cd57600080fd5b506102f2600480360360208110156104e457600080fd5b50356001600160a01b0316610d57565b34801561050057600080fd5b5061051e6004803603602081101561051757600080fd5b5035610d6c565b604080516001600160a01b0390991689526020890197909752878701959095526060870193909352608086019190915260a085015260c084015260e083015251908190036101000190f35b34801561057557600080fd5b50610220610ecb565b34801561058a57600080fd5b5061031b610f02565b34801561059f57600080fd5b5061031b600480360360208110156105b657600080fd5b50356001600160a01b0316610f08565b3480156105d257600080fd5b50610220610f23565b3480156105e757600080fd5b5061031b610fc5565b3480156105fc57600080fd5b50610605610fcb565b604080516001600160a01b039092168252519081900360200190f35b34801561062d57600080fd5b5061031b6004803603602081101561064457600080fd5b50356001600160a01b0316610fda565b34801561066057600080fd5b50610244610fe5565b34801561067557600080fd5b506102f26004803603604081101561068c57600080fd5b506001600160a01b038135169060200135611046565b3480156106ae57600080fd5b5061031b600480360360208110156106c557600080fd5b50356001600160a01b03166110ae565b3480156106e157600080fd5b506102f2600480360360408110156106f857600080fd5b506001600160a01b0381351690602001356110da565b34801561071a57600080fd5b5061031b6004803603602081101561073157600080fd5b50356001600160a01b03166110ee565b34801561074d57600080fd5b506102f26004803603604081101561076457600080fd5b506001600160a01b0381351690602001351515611109565b34801561078857600080fd5b5061031b6111de565b34801561079d57600080fd5b5061031b600480360360408110156107b457600080fd5b506001600160a01b03813581169160200135166111e4565b3480156107d857600080fd5b50610220600480360360408110156107ef57600080fd5b506001600160a01b03813516906020013561120f565b34801561081157600080fd5b5061031b6113bb565b34801561082657600080fd5b506102206004803603602081101561083d57600080fd5b50356113c1565b34801561085057600080fd5b506102206004803603602081101561086757600080fd5b50356001600160a01b03166114db565b34801561088357600080fd5b5061051e6004803603602081101561089a57600080fd5b50356001600160a01b03166115d4565b3480156108b657600080fd5b506108d4600480360360208110156108cd57600080fd5b5035611747565b60408051938452602084019290925282820152519081900360600190f35b60006108fc610aa4565b1161090657600080fd5b341561098157610937610917610aa4565b61092534600160801b611845565b8161092c57fe5b6005549190046118a5565b60055560408051348152905133917fa493a9229478c3fcd73f66d2cdeb7f94fd0f341da924d1054236d78454116511919081900360200190a260085461097d90346118a5565b6008555b565b60038054604080516020601f6002600019610100600188161502019095169490940493840181900481028201810190925282815260609390929091830182828015610a0f5780601f106109e457610100808354040283529160200191610a0f565b820191906000526020600020905b8154815290600101906020018083116109f257829003601f168201915b5050505050905090565b6000610a2d610a266118ff565b8484611903565b5060015b92915050565b600a5490565b610a456118ff565b6009546001600160a01b03908116911614610a95576040805162461bcd60e51b81526020600482018190526024820152600080516020612120833981519152604482015290519081900360640190fd5b670de0b6b3a764000002601255565b60025490565b60106020526000908152604090205481565b6000610ac98484846119ef565b610b3984610ad56118ff565b610b34856040518060600160405280602881526020016120f8602891396001600160a01b038a16600090815260016020526040812090610b136118ff565b6001600160a01b031681526020810191909152604001600020549190611a26565b611903565b5060019392505050565b6001600160a01b038116600090815260066020526040812054600160801b90610b9290610b8d90610b87610b82610b7988610f08565b60055490611845565b611abd565b90611acd565b611b00565b81610b9957fe5b0490505b919050565b600e5481565b601290565b610bb56118ff565b6009546001600160a01b03908116911614610c05576040805162461bcd60e51b81526020600482018190526024820152600080516020612120833981519152604482015290519081900360640190fd5b6001600160a01b0381166000908152600f602052604090205460ff1615610c2b57600080fd5b6001600160a01b0381166000908152600f60205260408120805460ff19166001179055610c59908290611b13565b6040805163131836e760e21b8152600a60048201526001600160a01b0383166024820152905173__$eb87864847a12bc97278b3a3a75a5c0846$__91634c60db9c916044808301926000929190829003018186803b158015610cba57600080fd5b505af4158015610cce573d6000803e3d6000fd5b50506040516001600160a01b03841692507fa878b31040b2e6d0a9a3d3361209db3908ba62014b0dca52adbaee451d128b259150600090a250565b6000610a2d610d166118ff565b84610b348560016000610d276118ff565b6001600160a01b03908116825260208083019390935260409182016000908120918c1681529252902054906118a5565b600f6020526000908152604090205460ff1681565b600080600080600080600080600a73__$eb87864847a12bc97278b3a3a75a5c0846$__63deb3d89690916040518263ffffffff1660e01b81526004018082815260200191505060206040518083038186803b158015610dca57600080fd5b505af4158015610dde573d6000803e3d6000fd5b505050506040513d6020811015610df457600080fd5b50518910610e1b575060009650600019955085945086935083925082915081905080610ec0565b6000600a73__$eb87864847a12bc97278b3a3a75a5c0846$__63d1aa9e7e90918c6040518363ffffffff1660e01b8152600401808381526020018281526020019250505060206040518083038186803b158015610e7757600080fd5b505af4158015610e8b573d6000803e3d6000fd5b505050506040513d6020811015610ea157600080fd5b50519050610eae816115d4565b98509850985098509850985098509850505b919395975091939597565b60405162461bcd60e51b81526004018080602001828103825260658152602001806120726065913960800191505060405180910390fd5b60115481565b6001600160a01b031660009081526020819052604090205490565b610f2b6118ff565b6009546001600160a01b03908116911614610f7b576040805162461bcd60e51b81526020600482018190526024820152600080516020612120833981519152604482015290519081900360640190fd5b6009546040516000916001600160a01b0316907f8be0079c531659141344cd1fd0a4f28419497f9722a3daafe3b4186f6b6457e0908390a3600980546001600160a01b0319169055565b60085481565b6009546001600160a01b031690565b6000610a31826110ae565b60048054604080516020601f6002600019610100600188161502019095169490940493840181900481028201810190925282815260609390929091830182828015610a0f5780601f106109e457610100808354040283529160200191610a0f565b6000610a2d6110536118ff565b84610b34856040518060600160405280602581526020016121c1602591396001600061107d6118ff565b6001600160a01b03908116825260208083019390935260409182016000908120918d16815292529020549190611a26565b6001600160a01b038116600090815260076020526040812054610a31906110d484610b43565b90611b6c565b6000610a2d6110e76118ff565b84846119ef565b6001600160a01b031660009081526007602052604090205490565b60006111136118ff565b6009546001600160a01b03908116911614611163576040805162461bcd60e51b81526020600482018190526024820152600080516020612120833981519152604482015290519081900360640190fd5b600061116e84611bae565b905080156111d4576001600160a01b0384166000818152601060209081526040918290204290558151848152915186151593927fa2c38e2d2fb7e3e1912d937fd1ca11ed6d51864dee4cfa7a7bf02becd7acf09292908290030190a36001915050610a31565b5060009392505050565b60125481565b6001600160a01b03918216600090815260016020908152604080832093909416825291909152205490565b6112176118ff565b6009546001600160a01b03908116911614611267576040805162461bcd60e51b81526020600482018190526024820152600080516020612120833981519152604482015290519081900360640190fd5b6001600160a01b0382166000908152600f602052604090205460ff161561128d576113b7565b6012548110611325576112a08282611b13565b60408051632f0ad01760e21b8152600a60048201526001600160a01b038416602482015260448101839052905173__$eb87864847a12bc97278b3a3a75a5c0846$__9163bc2b405c916064808301926000929190829003018186803b15801561130857600080fd5b505af415801561131c573d6000803e3d6000fd5b505050506113aa565b611330826000611b13565b6040805163131836e760e21b8152600a60048201526001600160a01b0384166024820152905173__$eb87864847a12bc97278b3a3a75a5c0846$__91634c60db9c916044808301926000929190829003018186803b15801561139157600080fd5b505af41580156113a5573d6000803e3d6000fd5b505050505b6113b5826001611109565b505b5050565b600e5490565b6113c96118ff565b6009546001600160a01b03908116911614611419576040805162461bcd60e51b81526020600482018190526024820152600080516020612120833981519152604482015290519081900360640190fd5b603c811015801561142c57506102588111155b6114675760405162461bcd60e51b815260040180806020018281038252604c8152602001806121e6604c913960600191505060405180910390fd5b6011548114156114a85760405162461bcd60e51b815260040180806020018281038252603c815260200180612161603c913960400191505060405180910390fd5b60115460405182907f474ea64804364a1e29a4487ddb63c3342a2dd826ccd8acf48825e680a0e6f20f90600090a3601155565b6114e36118ff565b6009546001600160a01b03908116911614611533576040805162461bcd60e51b81526020600482018190526024820152600080516020612120833981519152604482015290519081900360640190fd5b6001600160a01b0381166115785760405162461bcd60e51b815260040180806020018281038252602681526020018061202a6026913960400191505060405180910390fd5b6009546040516001600160a01b038084169216907f8be0079c531659141344cd1fd0a4f28419497f9722a3daafe3b4186f6b6457e090600090a3600980546001600160a01b0319166001600160a01b0392909216919091179055565b600080600080600080600080889750600a73__$eb87864847a12bc97278b3a3a75a5c0846$__6317e142d190918a6040518363ffffffff1660e01b815260040180838152602001826001600160a01b031681526020019250505060206040518083038186803b15801561164657600080fd5b505af415801561165a573d6000803e3d6000fd5b505050506040513d602081101561167057600080fd5b505196506000199550600087126116d457600e548711156116a057600e54611699908890611cef565b95506116d4565b600e54600a54600091106116b55760006116c4565b600e54600a546116c491611b6c565b90506116d08882611acd565b9650505b6116dd886110ae565b94506116e888610b43565b6001600160a01b038916600090815260106020526040902054909450925082611712576000611720565b6011546117209084906118a5565b915042821161173057600061173a565b61173a8242611b6c565b9050919395975091939597565b600a546000908190819080611767575050600e546000925082915061183e565b600e546000805a90506000805b898410801561178257508582105b1561182d57600a54600190950194851061179b57600094505b6000600a60000186815481106117ad57fe5b60009182526020808320909101546001600160a01b031680835260109091526040909120549091506117de90611d21565b156117fa576117ee816001611109565b156117fa576001909101905b60019092019160005a9050808511156118245761182161181a8683611b6c565b87906118a5565b95505b93506117749050565b600e85905590975095509193505050505b9193909250565b60008261185457506000610a31565b8282028284828161186157fe5b041461189e5760405162461bcd60e51b81526004018080602001828103825260218152602001806120d76021913960400191505060405180910390fd5b9392505050565b60008282018381101561189e576040805162461bcd60e51b815260206004820152601b60248201527f536166654d6174683a206164646974696f6e206f766572666c6f770000000000604482015290519081900360640190fd5b3390565b6001600160a01b0383166119485760405162461bcd60e51b815260040180806020018281038252602481526020018061219d6024913960400191505060405180910390fd5b6001600160a01b03821661198d5760405162461bcd60e51b81526004018080602001828103825260228152602001806120506022913960400191505060405180910390fd5b6001600160a01b03808416600081815260016020908152604080832094871680845294825291829020859055815185815291517f8c5be1e5ebec7d5bd14f71427d1e84f3dd0314c0f7b2291e5b200ac8c7c3b9259281900390910190a3505050565b60405162461bcd60e51b815260040180806020018281038252602b815260200180611fff602b913960400191505060405180910390fd5b60008184841115611ab55760405162461bcd60e51b81526004018080602001828103825283818151815260200191508051906020019080838360005b83811015611a7a578181015183820152602001611a62565b50505050905090810190601f168015611aa75780820380516001836020036101000a031916815260200191505b509250505060405180910390fd5b505050900390565b60008181811215610a3157600080fd5b6000828201818312801590611ae25750838112155b80611af75750600083128015611af757508381125b61189e57600080fd5b600080821215611b0f57600080fd5b5090565b6000611b1e83610f08565b905080821115611b46576000611b348383611b6c565b9050611b408482611d48565b506113b5565b808210156113b5576000611b5a8284611b6c565b9050611b668482611dac565b50505050565b600061189e83836040518060400160405280601e81526020017f536166654d6174683a207375627472616374696f6e206f766572666c6f770000815250611a26565b600080611bba836110ae565b90508015611ce6576001600160a01b038316600090815260076020526040902054611be590826118a5565b6001600160a01b038416600081815260076020908152604091829020939093558051848152905191927fee503bee2bb6a87e57bc57db795f98137327401a0e7b7ce42e37926cc1a9ca4d92918290030190a26040516000906001600160a01b03851690610bb890849084818181858888f193505050503d8060008114611c87576040519150601f19603f3d011682016040523d82523d6000602084013e611c8c565b606091505b5050905080611cde576001600160a01b038416600090815260076020526040902054611cb89083611b6c565b6001600160a01b0385166000908152600760205260408120919091559250610b9d915050565b509050610b9d565b50600092915050565b6000818303818312801590611d045750838113155b80611af75750600083128015611af7575083811361189e57600080fd5b600042821115611d3357506000610b9d565b601154611d404284611b6c565b101592915050565b611d528282611df0565b611d8c611d6d610b828360055461184590919063ffffffff16565b6001600160a01b03841660009081526006602052604090205490611cef565b6001600160a01b0390921660009081526006602052604090209190915550565b611db68282611ee0565b611d8c611dd1610b828360055461184590919063ffffffff16565b6001600160a01b03841660009081526006602052604090205490611acd565b6001600160a01b038216611e4b576040805162461bcd60e51b815260206004820152601f60248201527f45524332303a206d696e7420746f20746865207a65726f206164647265737300604482015290519081900360640190fd5b611e57600083836113b5565b600254611e6490826118a5565b6002556001600160a01b038216600090815260208190526040902054611e8a90826118a5565b6001600160a01b0383166000818152602081815260408083209490945583518581529351929391927fddf252ad1be2c89b69c2b068fc378daa952ba7f163c4a11628f55a4df523b3ef9281900390910190a35050565b6001600160a01b038216611f255760405162461bcd60e51b81526004018080602001828103825260218152602001806121406021913960400191505060405180910390fd5b611f31826000836113b5565b611f6e81604051806060016040528060228152602001611fdd602291396001600160a01b0385166000908152602081905260409020549190611a26565b6001600160a01b038316600090815260208190526040902055600254611f949082611b6c565b6002556040805182815290516000916001600160a01b038516917fddf252ad1be2c89b69c2b068fc378daa952ba7f163c4a11628f55a4df523b3ef9181900360200190a3505056fe45524332303a206275726e20616d6f756e7420657863656564732062616c616e6365644554485f4469766964656e645f547261636b65723a204e6f207472616e736665727320616c6c6f7765644f776e61626c653a206e6577206f776e657220697320746865207a65726f206164647265737345524332303a20617070726f766520746f20746865207a65726f2061646472657373644554485f4469766964656e645f547261636b65723a2077697468647261774469766964656e642064697361626c65642e20557365207468652027636c61696d272066756e6374696f6e206f6e20746865206d61696e206445544820636f6e74726163742e536166654d6174683a206d756c7469706c69636174696f6e206f766572666c6f7745524332303a207472616e7366657220616d6f756e74206578636565647320616c6c6f77616e63654f776e61626c653a2063616c6c6572206973206e6f7420746865206f776e657245524332303a206275726e2066726f6d20746865207a65726f2061646472657373644554485f4469766964656e645f547261636b65723a2043616e6e6f742075706461746520636c61696d5761697420746f2073616d652076616c756545524332303a20617070726f76652066726f6d20746865207a65726f206164647265737345524332303a2064656372656173656420616c6c6f77616e63652062656c6f77207a65726f644554485f4469766964656e645f547261636b65723a20636c61696d57616974206d757374206265207570646174656420746f206265747765656e203120616e64203130206d696e75746573a26469706673582212209a7e2e94fc7afda5a76aed5c8a8892b1633221f0e2e156e20a802ab0eebc8d9364736f6c634300060c0033",
					"opcodes": "PUSH1 0x80 PUSH1 0x40 MSTORE CALLVALUE DUP1 ISZERO PUSH3 0x11 JUMPI PUSH1 0x0 DUP1 REVERT JUMPDEST POP PUSH1 0x40 DUP1 MLOAD DUP1 DUP3 ADD DUP3 MSTORE PUSH1 0x15 DUP1 DUP3 MSTORE PUSH32 0x644554485F4469766964656E645F547261636B65720000000000000000000000 PUSH1 0x20 DUP1 DUP5 ADD DUP3 DUP2 MSTORE DUP6 MLOAD DUP1 DUP8 ADD SWAP1 SWAP7 MSTORE SWAP3 DUP6 MSTORE DUP5 ADD MSTORE DUP2 MLOAD SWAP2 SWAP3 SWAP2 DUP4 SWAP2 DUP4 SWAP2 PUSH3 0x6E SWAP2 PUSH1 0x3 SWAP2 PUSH3 0x104 JUMP JUMPDEST POP DUP1 MLOAD PUSH3 0x84 SWAP1 PUSH1 0x4 SWAP1 PUSH1 0x20 DUP5 ADD SWAP1 PUSH3 0x104 JUMP JUMPDEST POP POP POP POP POP PUSH1 0x0 PUSH3 0x9B PUSH3 0x100 PUSH1 0x20 SHL PUSH1 0x20 SHR JUMP JUMPDEST PUSH1 0x9 DUP1 SLOAD PUSH1 0x1 PUSH1 0x1 PUSH1 0xA0 SHL SUB NOT AND PUSH1 0x1 PUSH1 0x1 PUSH1 0xA0 SHL SUB DUP4 AND SWAP1 DUP2 OR SWAP1 SWAP2 SSTORE PUSH1 0x40 MLOAD SWAP2 SWAP3 POP SWAP1 PUSH1 0x0 SWAP1 PUSH32 0x8BE0079C531659141344CD1FD0A4F28419497F9722A3DAAFE3B4186F6B6457E0 SWAP1 DUP3 SWAP1 LOG3 POP PUSH1 0x3C PUSH1 0x11 SSTORE PUSH8 0xDE0B6B3A7640000 PUSH1 0x12 SSTORE PUSH3 0x1A0 JUMP JUMPDEST CALLER SWAP1 JUMP JUMPDEST DUP3 DUP1 SLOAD PUSH1 0x1 DUP2 PUSH1 0x1 AND ISZERO PUSH2 0x100 MUL SUB AND PUSH1 0x2 SWAP1 DIV SWAP1 PUSH1 0x0 MSTORE PUSH1 0x20 PUSH1 0x0 KECCAK256 SWAP1 PUSH1 0x1F ADD PUSH1 0x20 SWAP1 DIV DUP2 ADD SWAP3 DUP3 PUSH1 0x1F LT PUSH3 0x147 JUMPI DUP1 MLOAD PUSH1 0xFF NOT AND DUP4 DUP1 ADD OR DUP6 SSTORE PUSH3 0x177 JUMP JUMPDEST DUP3 DUP1 ADD PUSH1 0x1 ADD DUP6 SSTORE DUP3 ISZERO PUSH3 0x177 JUMPI SWAP2 DUP3 ADD JUMPDEST DUP3 DUP2 GT ISZERO PUSH3 0x177 JUMPI DUP3 MLOAD DUP3 SSTORE SWAP2 PUSH1 0x20 ADD SWAP2 SWAP1 PUSH1 0x1 ADD SWAP1 PUSH3 0x15A JUMP JUMPDEST POP PUSH3 0x185 SWAP3 SWAP2 POP PUSH3 0x189 JUMP JUMPDEST POP SWAP1 JUMP JUMPDEST JUMPDEST DUP1 DUP3 GT ISZERO PUSH3 0x185 JUMPI PUSH1 0x0 DUP2 SSTORE PUSH1 0x1 ADD PUSH3 0x18A JUMP JUMPDEST PUSH2 0x2267 DUP1 PUSH3 0x1B0 PUSH1 0x0 CODECOPY PUSH1 0x0 RETURN INVALID PUSH1 0x80 PUSH1 0x40 MSTORE PUSH1 0x4 CALLDATASIZE LT PUSH2 0x213 JUMPI PUSH1 0x0 CALLDATALOAD PUSH1 0xE0 SHR DUP1 PUSH4 0x715018A6 GT PUSH2 0x118 JUMPI DUP1 PUSH4 0xBC4C4B37 GT PUSH2 0xA0 JUMPI DUP1 PUSH4 0xE7841EC0 GT PUSH2 0x6F JUMPI DUP1 PUSH4 0xE7841EC0 EQ PUSH2 0x805 JUMPI DUP1 PUSH4 0xE98030C7 EQ PUSH2 0x81A JUMPI DUP1 PUSH4 0xF2FDE38B EQ PUSH2 0x844 JUMPI DUP1 PUSH4 0xFBCBC0F1 EQ PUSH2 0x877 JUMPI DUP1 PUSH4 0xFFB2C479 EQ PUSH2 0x8AA JUMPI PUSH2 0x222 JUMP JUMPDEST DUP1 PUSH4 0xBC4C4B37 EQ PUSH2 0x741 JUMPI DUP1 PUSH4 0xBE10B614 EQ PUSH2 0x77C JUMPI DUP1 PUSH4 0xDD62ED3E EQ PUSH2 0x791 JUMPI DUP1 PUSH4 0xE30443BC EQ PUSH2 0x7CC JUMPI PUSH2 0x222 JUMP JUMPDEST DUP1 PUSH4 0x95D89B41 GT PUSH2 0xE7 JUMPI DUP1 PUSH4 0x95D89B41 EQ PUSH2 0x654 JUMPI DUP1 PUSH4 0xA457C2D7 EQ PUSH2 0x669 JUMPI DUP1 PUSH4 0xA8B9D240 EQ PUSH2 0x6A2 JUMPI DUP1 PUSH4 0xA9059CBB EQ PUSH2 0x6D5 JUMPI DUP1 PUSH4 0xAAFD847A EQ PUSH2 0x70E JUMPI PUSH2 0x222 JUMP JUMPDEST DUP1 PUSH4 0x715018A6 EQ PUSH2 0x5C6 JUMPI DUP1 PUSH4 0x85A6B3AE EQ PUSH2 0x5DB JUMPI DUP1 PUSH4 0x8DA5CB5B EQ PUSH2 0x5F0 JUMPI DUP1 PUSH4 0x91B89FBA EQ PUSH2 0x621 JUMPI PUSH2 0x222 JUMP JUMPDEST DUP1 PUSH4 0x3009A609 GT PUSH2 0x19B JUMPI DUP1 PUSH4 0x4E7B827F GT PUSH2 0x16A JUMPI DUP1 PUSH4 0x4E7B827F EQ PUSH2 0x4C1 JUMPI DUP1 PUSH4 0x5183D6FD EQ PUSH2 0x4F4 JUMPI DUP1 PUSH4 0x6A474002 EQ PUSH2 0x569 JUMPI DUP1 PUSH4 0x6F2789EC EQ PUSH2 0x57E JUMPI DUP1 PUSH4 0x70A08231 EQ PUSH2 0x593 JUMPI PUSH2 0x222 JUMP JUMPDEST DUP1 PUSH4 0x3009A609 EQ PUSH2 0x415 JUMPI DUP1 PUSH4 0x313CE567 EQ PUSH2 0x42A JUMPI DUP1 PUSH4 0x31E79DB0 EQ PUSH2 0x455 JUMPI DUP1 PUSH4 0x39509351 EQ PUSH2 0x488 JUMPI PUSH2 0x222 JUMP JUMPDEST DUP1 PUSH4 0xDCB2E89 GT PUSH2 0x1E2 JUMPI DUP1 PUSH4 0xDCB2E89 EQ PUSH2 0x32D JUMPI DUP1 PUSH4 0x18160DDD EQ PUSH2 0x357 JUMPI DUP1 PUSH4 0x226CFA3D EQ PUSH2 0x36C JUMPI DUP1 PUSH4 0x23B872DD EQ PUSH2 0x39F JUMPI DUP1 PUSH4 0x27CE0147 EQ PUSH2 0x3E2 JUMPI PUSH2 0x222 JUMP JUMPDEST DUP1 PUSH4 0x3C83302 EQ PUSH2 0x227 JUMPI DUP1 PUSH4 0x6FDDE03 EQ PUSH2 0x22F JUMPI DUP1 PUSH4 0x95EA7B3 EQ PUSH2 0x2B9 JUMPI DUP1 PUSH4 0x9BBEDDE EQ PUSH2 0x306 JUMPI PUSH2 0x222 JUMP JUMPDEST CALLDATASIZE PUSH2 0x222 JUMPI PUSH2 0x220 PUSH2 0x8F2 JUMP JUMPDEST STOP JUMPDEST PUSH1 0x0 DUP1 REVERT JUMPDEST PUSH2 0x220 PUSH2 0x8F2 JUMP JUMPDEST CALLVALUE DUP1 ISZERO PUSH2 0x23B JUMPI PUSH1 0x0 DUP1 REVERT JUMPDEST POP PUSH2 0x244 PUSH2 0x983 JUMP JUMPDEST PUSH1 0x40 DUP1 MLOAD PUSH1 0x20 DUP1 DUP3 MSTORE DUP4 MLOAD DUP2 DUP4 ADD MSTORE DUP4 MLOAD SWAP2 SWAP3 DUP4 SWAP3 SWAP1 DUP4 ADD SWAP2 DUP6 ADD SWAP1 DUP1 DUP4 DUP4 PUSH1 0x0 JUMPDEST DUP4 DUP2 LT ISZERO PUSH2 0x27E JUMPI DUP2 DUP2 ADD MLOAD DUP4 DUP3 ADD MSTORE PUSH1 0x20 ADD PUSH2 0x266 JUMP JUMPDEST POP POP POP POP SWAP1 POP SWAP1 DUP2 ADD SWAP1 PUSH1 0x1F AND DUP1 ISZERO PUSH2 0x2AB JUMPI DUP1 DUP3 SUB DUP1 MLOAD PUSH1 0x1 DUP4 PUSH1 0x20 SUB PUSH2 0x100 EXP SUB NOT AND DUP2 MSTORE PUSH1 0x20 ADD SWAP2 POP JUMPDEST POP SWAP3 POP POP POP PUSH1 0x40 MLOAD DUP1 SWAP2 SUB SWAP1 RETURN JUMPDEST CALLVALUE DUP1 ISZERO PUSH2 0x2C5 JUMPI PUSH1 0x0 DUP1 REVERT JUMPDEST POP PUSH2 0x2F2 PUSH1 0x4 DUP1 CALLDATASIZE SUB PUSH1 0x40 DUP2 LT ISZERO PUSH2 0x2DC JUMPI PUSH1 0x0 DUP1 REVERT JUMPDEST POP PUSH1 0x1 PUSH1 0x1 PUSH1 0xA0 SHL SUB DUP2 CALLDATALOAD AND SWAP1 PUSH1 0x20 ADD CALLDATALOAD PUSH2 0xA19 JUMP JUMPDEST PUSH1 0x40 DUP1 MLOAD SWAP2 ISZERO ISZERO DUP3 MSTORE MLOAD SWAP1 DUP2 SWAP1 SUB PUSH1 0x20 ADD SWAP1 RETURN JUMPDEST CALLVALUE DUP1 ISZERO PUSH2 0x312 JUMPI PUSH1 0x0 DUP1 REVERT JUMPDEST POP PUSH2 0x31B PUSH2 0xA37 JUMP JUMPDEST PUSH1 0x40 DUP1 MLOAD SWAP2 DUP3 MSTORE MLOAD SWAP1 DUP2 SWAP1 SUB PUSH1 0x20 ADD SWAP1 RETURN JUMPDEST CALLVALUE DUP1 ISZERO PUSH2 0x339 JUMPI PUSH1 0x0 DUP1 REVERT JUMPDEST POP PUSH2 0x220 PUSH1 0x4 DUP1 CALLDATASIZE SUB PUSH1 0x20 DUP2 LT ISZERO PUSH2 0x350 JUMPI PUSH1 0x0 DUP1 REVERT JUMPDEST POP CALLDATALOAD PUSH2 0xA3D JUMP JUMPDEST CALLVALUE DUP1 ISZERO PUSH2 0x363 JUMPI PUSH1 0x0 DUP1 REVERT JUMPDEST POP PUSH2 0x31B PUSH2 0xAA4 JUMP JUMPDEST CALLVALUE DUP1 ISZERO PUSH2 0x378 JUMPI PUSH1 0x0 DUP1 REVERT JUMPDEST POP PUSH2 0x31B PUSH1 0x4 DUP1 CALLDATASIZE SUB PUSH1 0x20 DUP2 LT ISZERO PUSH2 0x38F JUMPI PUSH1 0x0 DUP1 REVERT JUMPDEST POP CALLDATALOAD PUSH1 0x1 PUSH1 0x1 PUSH1 0xA0 SHL SUB AND PUSH2 0xAAA JUMP JUMPDEST CALLVALUE DUP1 ISZERO PUSH2 0x3AB JUMPI PUSH1 0x0 DUP1 REVERT JUMPDEST POP PUSH2 0x2F2 PUSH1 0x4 DUP1 CALLDATASIZE SUB PUSH1 0x60 DUP2 LT ISZERO PUSH2 0x3C2 JUMPI PUSH1 0x0 DUP1 REVERT JUMPDEST POP PUSH1 0x1 PUSH1 0x1 PUSH1 0xA0 SHL SUB DUP2 CALLDATALOAD DUP2 AND SWAP2 PUSH1 0x20 DUP2 ADD CALLDATALOAD SWAP1 SWAP2 AND SWAP1 PUSH1 0x40 ADD CALLDATALOAD PUSH2 0xABC JUMP JUMPDEST CALLVALUE DUP1 ISZERO PUSH2 0x3EE JUMPI PUSH1 0x0 DUP1 REVERT JUMPDEST POP PUSH2 0x31B PUSH1 0x4 DUP1 CALLDATASIZE SUB PUSH1 0x20 DUP2 LT ISZERO PUSH2 0x405 JUMPI PUSH1 0x0 DUP1 REVERT JUMPDEST POP CALLDATALOAD PUSH1 0x1 PUSH1 0x1 PUSH1 0xA0 SHL SUB AND PUSH2 0xB43 JUMP JUMPDEST CALLVALUE DUP1 ISZERO PUSH2 0x421 JUMPI PUSH1 0x0 DUP1 REVERT JUMPDEST POP PUSH2 0x31B PUSH2 0xBA2 JUMP JUMPDEST CALLVALUE DUP1 ISZERO PUSH2 0x436 JUMPI PUSH1 0x0 DUP1 REVERT JUMPDEST POP PUSH2 0x43F PUSH2 0xBA8 JUMP JUMPDEST PUSH1 0x40 DUP1 MLOAD PUSH1 0xFF SWAP1 SWAP3 AND DUP3 MSTORE MLOAD SWAP1 DUP2 SWAP1 SUB PUSH1 0x20 ADD SWAP1 RETURN JUMPDEST CALLVALUE DUP1 ISZERO PUSH2 0x461 JUMPI PUSH1 0x0 DUP1 REVERT JUMPDEST POP PUSH2 0x220 PUSH1 0x4 DUP1 CALLDATASIZE SUB PUSH1 0x20 DUP2 LT ISZERO PUSH2 0x478 JUMPI PUSH1 0x0 DUP1 REVERT JUMPDEST POP CALLDATALOAD PUSH1 0x1 PUSH1 0x1 PUSH1 0xA0 SHL SUB AND PUSH2 0xBAD JUMP JUMPDEST CALLVALUE DUP1 ISZERO PUSH2 0x494 JUMPI PUSH1 0x0 DUP1 REVERT JUMPDEST POP PUSH2 0x2F2 PUSH1 0x4 DUP1 CALLDATASIZE SUB PUSH1 0x40 DUP2 LT ISZERO PUSH2 0x4AB JUMPI PUSH1 0x0 DUP1 REVERT JUMPDEST POP PUSH1 0x1 PUSH1 0x1 PUSH1 0xA0 SHL SUB DUP2 CALLDATALOAD AND SWAP1 PUSH1 0x20 ADD CALLDATALOAD PUSH2 0xD09 JUMP JUMPDEST CALLVALUE DUP1 ISZERO PUSH2 0x4CD JUMPI PUSH1 0x0 DUP1 REVERT JUMPDEST POP PUSH2 0x2F2 PUSH1 0x4 DUP1 CALLDATASIZE SUB PUSH1 0x20 DUP2 LT ISZERO PUSH2 0x4E4 JUMPI PUSH1 0x0 DUP1 REVERT JUMPDEST POP CALLDATALOAD PUSH1 0x1 PUSH1 0x1 PUSH1 0xA0 SHL SUB AND PUSH2 0xD57 JUMP JUMPDEST CALLVALUE DUP1 ISZERO PUSH2 0x500 JUMPI PUSH1 0x0 DUP1 REVERT JUMPDEST POP PUSH2 0x51E PUSH1 0x4 DUP1 CALLDATASIZE SUB PUSH1 0x20 DUP2 LT ISZERO PUSH2 0x517 JUMPI PUSH1 0x0 DUP1 REVERT JUMPDEST POP CALLDATALOAD PUSH2 0xD6C JUMP JUMPDEST PUSH1 0x40 DUP1 MLOAD PUSH1 0x1 PUSH1 0x1 PUSH1 0xA0 SHL SUB SWAP1 SWAP10 AND DUP10 MSTORE PUSH1 0x20 DUP10 ADD SWAP8 SWAP1 SWAP8 MSTORE DUP8 DUP8 ADD SWAP6 SWAP1 SWAP6 MSTORE PUSH1 0x60 DUP8 ADD SWAP4 SWAP1 SWAP4 MSTORE PUSH1 0x80 DUP7 ADD SWAP2 SWAP1 SWAP2 MSTORE PUSH1 0xA0 DUP6 ADD MSTORE PUSH1 0xC0 DUP5 ADD MSTORE PUSH1 0xE0 DUP4 ADD MSTORE MLOAD SWAP1 DUP2 SWAP1 SUB PUSH2 0x100 ADD SWAP1 RETURN JUMPDEST CALLVALUE DUP1 ISZERO PUSH2 0x575 JUMPI PUSH1 0x0 DUP1 REVERT JUMPDEST POP PUSH2 0x220 PUSH2 0xECB JUMP JUMPDEST CALLVALUE DUP1 ISZERO PUSH2 0x58A JUMPI PUSH1 0x0 DUP1 REVERT JUMPDEST POP PUSH2 0x31B PUSH2 0xF02 JUMP JUMPDEST CALLVALUE DUP1 ISZERO PUSH2 0x59F JUMPI PUSH1 0x0 DUP1 REVERT JUMPDEST POP PUSH2 0x31B PUSH1 0x4 DUP1 CALLDATASIZE SUB PUSH1 0x20 DUP2 LT ISZERO PUSH2 0x5B6 JUMPI PUSH1 0x0 DUP1 REVERT JUMPDEST POP CALLDATALOAD PUSH1 0x1 PUSH1 0x1 PUSH1 0xA0 SHL SUB AND PUSH2 0xF08 JUMP JUMPDEST CALLVALUE DUP1 ISZERO PUSH2 0x5D2 JUMPI PUSH1 0x0 DUP1 REVERT JUMPDEST POP PUSH2 0x220 PUSH2 0xF23 JUMP JUMPDEST CALLVALUE DUP1 ISZERO PUSH2 0x5E7 JUMPI PUSH1 0x0 DUP1 REVERT JUMPDEST POP PUSH2 0x31B PUSH2 0xFC5 JUMP JUMPDEST CALLVALUE DUP1 ISZERO PUSH2 0x5FC JUMPI PUSH1 0x0 DUP1 REVERT JUMPDEST POP PUSH2 0x605 PUSH2 0xFCB JUMP JUMPDEST PUSH1 0x40 DUP1 MLOAD PUSH1 0x1 PUSH1 0x1 PUSH1 0xA0 SHL SUB SWAP1 SWAP3 AND DUP3 MSTORE MLOAD SWAP1 DUP2 SWAP1 SUB PUSH1 0x20 ADD SWAP1 RETURN JUMPDEST CALLVALUE DUP1 ISZERO PUSH2 0x62D JUMPI PUSH1 0x0 DUP1 REVERT JUMPDEST POP PUSH2 0x31B PUSH1 0x4 DUP1 CALLDATASIZE SUB PUSH1 0x20 DUP2 LT ISZERO PUSH2 0x644 JUMPI PUSH1 0x0 DUP1 REVERT JUMPDEST POP CALLDATALOAD PUSH1 0x1 PUSH1 0x1 PUSH1 0xA0 SHL SUB AND PUSH2 0xFDA JUMP JUMPDEST CALLVALUE DUP1 ISZERO PUSH2 0x660 JUMPI PUSH1 0x0 DUP1 REVERT JUMPDEST POP PUSH2 0x244 PUSH2 0xFE5 JUMP JUMPDEST CALLVALUE DUP1 ISZERO PUSH2 0x675 JUMPI PUSH1 0x0 DUP1 REVERT JUMPDEST POP PUSH2 0x2F2 PUSH1 0x4 DUP1 CALLDATASIZE SUB PUSH1 0x40 DUP2 LT ISZERO PUSH2 0x68C JUMPI PUSH1 0x0 DUP1 REVERT JUMPDEST POP PUSH1 0x1 PUSH1 0x1 PUSH1 0xA0 SHL SUB DUP2 CALLDATALOAD AND SWAP1 PUSH1 0x20 ADD CALLDATALOAD PUSH2 0x1046 JUMP JUMPDEST CALLVALUE DUP1 ISZERO PUSH2 0x6AE JUMPI PUSH1 0x0 DUP1 REVERT JUMPDEST POP PUSH2 0x31B PUSH1 0x4 DUP1 CALLDATASIZE SUB PUSH1 0x20 DUP2 LT ISZERO PUSH2 0x6C5 JUMPI PUSH1 0x0 DUP1 REVERT JUMPDEST POP CALLDATALOAD PUSH1 0x1 PUSH1 0x1 PUSH1 0xA0 SHL SUB AND PUSH2 0x10AE JUMP JUMPDEST CALLVALUE DUP1 ISZERO PUSH2 0x6E1 JUMPI PUSH1 0x0 DUP1 REVERT JUMPDEST POP PUSH2 0x2F2 PUSH1 0x4 DUP1 CALLDATASIZE SUB PUSH1 0x40 DUP2 LT ISZERO PUSH2 0x6F8 JUMPI PUSH1 0x0 DUP1 REVERT JUMPDEST POP PUSH1 0x1 PUSH1 0x1 PUSH1 0xA0 SHL SUB DUP2 CALLDATALOAD AND SWAP1 PUSH1 0x20 ADD CALLDATALOAD PUSH2 0x10DA JUMP JUMPDEST CALLVALUE DUP1 ISZERO PUSH2 0x71A JUMPI PUSH1 0x0 DUP1 REVERT JUMPDEST POP PUSH2 0x31B PUSH1 0x4 DUP1 CALLDATASIZE SUB PUSH1 0x20 DUP2 LT ISZERO PUSH2 0x731 JUMPI PUSH1 0x0 DUP1 REVERT JUMPDEST POP CALLDATALOAD PUSH1 0x1 PUSH1 0x1 PUSH1 0xA0 SHL SUB AND PUSH2 0x10EE JUMP JUMPDEST CALLVALUE DUP1 ISZERO PUSH2 0x74D JUMPI PUSH1 0x0 DUP1 REVERT JUMPDEST POP PUSH2 0x2F2 PUSH1 0x4 DUP1 CALLDATASIZE SUB PUSH1 0x40 DUP2 LT ISZERO PUSH2 0x764 JUMPI PUSH1 0x0 DUP1 REVERT JUMPDEST POP PUSH1 0x1 PUSH1 0x1 PUSH1 0xA0 SHL SUB DUP2 CALLDATALOAD AND SWAP1 PUSH1 0x20 ADD CALLDATALOAD ISZERO ISZERO PUSH2 0x1109 JUMP JUMPDEST CALLVALUE DUP1 ISZERO PUSH2 0x788 JUMPI PUSH1 0x0 DUP1 REVERT JUMPDEST POP PUSH2 0x31B PUSH2 0x11DE JUMP JUMPDEST CALLVALUE DUP1 ISZERO PUSH2 0x79D JUMPI PUSH1 0x0 DUP1 REVERT JUMPDEST POP PUSH2 0x31B PUSH1 0x4 DUP1 CALLDATASIZE SUB PUSH1 0x40 DUP2 LT ISZERO PUSH2 0x7B4 JUMPI PUSH1 0x0 DUP1 REVERT JUMPDEST POP PUSH1 0x1 PUSH1 0x1 PUSH1 0xA0 SHL SUB DUP2 CALLDATALOAD DUP2 AND SWAP2 PUSH1 0x20 ADD CALLDATALOAD AND PUSH2 0x11E4 JUMP JUMPDEST CALLVALUE DUP1 ISZERO PUSH2 0x7D8 JUMPI PUSH1 0x0 DUP1 REVERT JUMPDEST POP PUSH2 0x220 PUSH1 0x4 DUP1 CALLDATASIZE SUB PUSH1 0x40 DUP2 LT ISZERO PUSH2 0x7EF JUMPI PUSH1 0x0 DUP1 REVERT JUMPDEST POP PUSH1 0x1 PUSH1 0x1 PUSH1 0xA0 SHL SUB DUP2 CALLDATALOAD AND SWAP1 PUSH1 0x20 ADD CALLDATALOAD PUSH2 0x120F JUMP JUMPDEST CALLVALUE DUP1 ISZERO PUSH2 0x811 JUMPI PUSH1 0x0 DUP1 REVERT JUMPDEST POP PUSH2 0x31B PUSH2 0x13BB JUMP JUMPDEST CALLVALUE DUP1 ISZERO PUSH2 0x826 JUMPI PUSH1 0x0 DUP1 REVERT JUMPDEST POP PUSH2 0x220 PUSH1 0x4 DUP1 CALLDATASIZE SUB PUSH1 0x20 DUP2 LT ISZERO PUSH2 0x83D JUMPI PUSH1 0x0 DUP1 REVERT JUMPDEST POP CALLDATALOAD PUSH2 0x13C1 JUMP JUMPDEST CALLVALUE DUP1 ISZERO PUSH2 0x850 JUMPI PUSH1 0x0 DUP1 REVERT JUMPDEST POP PUSH2 0x220 PUSH1 0x4 DUP1 CALLDATASIZE SUB PUSH1 0x20 DUP2 LT ISZERO PUSH2 0x867 JUMPI PUSH1 0x0 DUP1 REVERT JUMPDEST POP CALLDATALOAD PUSH1 0x1 PUSH1 0x1 PUSH1 0xA0 SHL SUB AND PUSH2 0x14DB JUMP JUMPDEST CALLVALUE DUP1 ISZERO PUSH2 0x883 JUMPI PUSH1 0x0 DUP1 REVERT JUMPDEST POP PUSH2 0x51E PUSH1 0x4 DUP1 CALLDATASIZE SUB PUSH1 0x20 DUP2 LT ISZERO PUSH2 0x89A JUMPI PUSH1 0x0 DUP1 REVERT JUMPDEST POP CALLDATALOAD PUSH1 0x1 PUSH1 0x1 PUSH1 0xA0 SHL SUB AND PUSH2 0x15D4 JUMP JUMPDEST CALLVALUE DUP1 ISZERO PUSH2 0x8B6 JUMPI PUSH1 0x0 DUP1 REVERT JUMPDEST POP PUSH2 0x8D4 PUSH1 0x4 DUP1 CALLDATASIZE SUB PUSH1 0x20 DUP2 LT ISZERO PUSH2 0x8CD JUMPI PUSH1 0x0 DUP1 REVERT JUMPDEST POP CALLDATALOAD PUSH2 0x1747 JUMP JUMPDEST PUSH1 0x40 DUP1 MLOAD SWAP4 DUP5 MSTORE PUSH1 0x20 DUP5 ADD SWAP3 SWAP1 SWAP3 MSTORE DUP3 DUP3 ADD MSTORE MLOAD SWAP1 DUP2 SWAP1 SUB PUSH1 0x60 ADD SWAP1 RETURN JUMPDEST PUSH1 0x0 PUSH2 0x8FC PUSH2 0xAA4 JUMP JUMPDEST GT PUSH2 0x906 JUMPI PUSH1 0x0 DUP1 REVERT JUMPDEST CALLVALUE ISZERO PUSH2 0x981 JUMPI PUSH2 0x937 PUSH2 0x917 PUSH2 0xAA4 JUMP JUMPDEST PUSH2 0x925 CALLVALUE PUSH1 0x1 PUSH1 0x80 SHL PUSH2 0x1845 JUMP JUMPDEST DUP2 PUSH2 0x92C JUMPI INVALID JUMPDEST PUSH1 0x5 SLOAD SWAP2 SWAP1 DIV PUSH2 0x18A5 JUMP JUMPDEST PUSH1 0x5 SSTORE PUSH1 0x40 DUP1 MLOAD CALLVALUE DUP2 MSTORE SWAP1 MLOAD CALLER SWAP2 PUSH32 0xA493A9229478C3FCD73F66D2CDEB7F94FD0F341DA924D1054236D78454116511 SWAP2 SWAP1 DUP2 SWAP1 SUB PUSH1 0x20 ADD SWAP1 LOG2 PUSH1 0x8 SLOAD PUSH2 0x97D SWAP1 CALLVALUE PUSH2 0x18A5 JUMP JUMPDEST PUSH1 0x8 SSTORE JUMPDEST JUMP JUMPDEST PUSH1 0x3 DUP1 SLOAD PUSH1 0x40 DUP1 MLOAD PUSH1 0x20 PUSH1 0x1F PUSH1 0x2 PUSH1 0x0 NOT PUSH2 0x100 PUSH1 0x1 DUP9 AND ISZERO MUL ADD SWAP1 SWAP6 AND SWAP5 SWAP1 SWAP5 DIV SWAP4 DUP5 ADD DUP2 SWAP1 DIV DUP2 MUL DUP3 ADD DUP2 ADD SWAP1 SWAP3 MSTORE DUP3 DUP2 MSTORE PUSH1 0x60 SWAP4 SWAP1 SWAP3 SWAP1 SWAP2 DUP4 ADD DUP3 DUP3 DUP1 ISZERO PUSH2 0xA0F JUMPI DUP1 PUSH1 0x1F LT PUSH2 0x9E4 JUMPI PUSH2 0x100 DUP1 DUP4 SLOAD DIV MUL DUP4 MSTORE SWAP2 PUSH1 0x20 ADD SWAP2 PUSH2 0xA0F JUMP JUMPDEST DUP3 ADD SWAP2 SWAP1 PUSH1 0x0 MSTORE PUSH1 0x20 PUSH1 0x0 KECCAK256 SWAP1 JUMPDEST DUP2 SLOAD DUP2 MSTORE SWAP1 PUSH1 0x1 ADD SWAP1 PUSH1 0x20 ADD DUP1 DUP4 GT PUSH2 0x9F2 JUMPI DUP3 SWAP1 SUB PUSH1 0x1F AND DUP3 ADD SWAP2 JUMPDEST POP POP POP POP POP SWAP1 POP SWAP1 JUMP JUMPDEST PUSH1 0x0 PUSH2 0xA2D PUSH2 0xA26 PUSH2 0x18FF JUMP JUMPDEST DUP5 DUP5 PUSH2 0x1903 JUMP JUMPDEST POP PUSH1 0x1 JUMPDEST SWAP3 SWAP2 POP POP JUMP JUMPDEST PUSH1 0xA SLOAD SWAP1 JUMP JUMPDEST PUSH2 0xA45 PUSH2 0x18FF JUMP JUMPDEST PUSH1 0x9 SLOAD PUSH1 0x1 PUSH1 0x1 PUSH1 0xA0 SHL SUB SWAP1 DUP2 AND SWAP2 AND EQ PUSH2 0xA95 JUMPI PUSH1 0x40 DUP1 MLOAD PUSH3 0x461BCD PUSH1 0xE5 SHL DUP2 MSTORE PUSH1 0x20 PUSH1 0x4 DUP3 ADD DUP2 SWAP1 MSTORE PUSH1 0x24 DUP3 ADD MSTORE PUSH1 0x0 DUP1 MLOAD PUSH1 0x20 PUSH2 0x2120 DUP4 CODECOPY DUP2 MLOAD SWAP2 MSTORE PUSH1 0x44 DUP3 ADD MSTORE SWAP1 MLOAD SWAP1 DUP2 SWAP1 SUB PUSH1 0x64 ADD SWAP1 REVERT JUMPDEST PUSH8 0xDE0B6B3A7640000 MUL PUSH1 0x12 SSTORE JUMP JUMPDEST PUSH1 0x2 SLOAD SWAP1 JUMP JUMPDEST PUSH1 0x10 PUSH1 0x20 MSTORE PUSH1 0x0 SWAP1 DUP2 MSTORE PUSH1 0x40 SWAP1 KECCAK256 SLOAD DUP2 JUMP JUMPDEST PUSH1 0x0 PUSH2 0xAC9 DUP5 DUP5 DUP5 PUSH2 0x19EF JUMP JUMPDEST PUSH2 0xB39 DUP5 PUSH2 0xAD5 PUSH2 0x18FF JUMP JUMPDEST PUSH2 0xB34 DUP6 PUSH1 0x40 MLOAD DUP1 PUSH1 0x60 ADD PUSH1 0x40 MSTORE DUP1 PUSH1 0x28 DUP2 MSTORE PUSH1 0x20 ADD PUSH2 0x20F8 PUSH1 0x28 SWAP2 CODECOPY PUSH1 0x1 PUSH1 0x1 PUSH1 0xA0 SHL SUB DUP11 AND PUSH1 0x0 SWAP1 DUP2 MSTORE PUSH1 0x1 PUSH1 0x20 MSTORE PUSH1 0x40 DUP2 KECCAK256 SWAP1 PUSH2 0xB13 PUSH2 0x18FF JUMP JUMPDEST PUSH1 0x1 PUSH1 0x1 PUSH1 0xA0 SHL SUB AND DUP2 MSTORE PUSH1 0x20 DUP2 ADD SWAP2 SWAP1 SWAP2 MSTORE PUSH1 0x40 ADD PUSH1 0x0 KECCAK256 SLOAD SWAP2 SWAP1 PUSH2 0x1A26 JUMP JUMPDEST PUSH2 0x1903 JUMP JUMPDEST POP PUSH1 0x1 SWAP4 SWAP3 POP POP POP JUMP JUMPDEST PUSH1 0x1 PUSH1 0x1 PUSH1 0xA0 SHL SUB DUP2 AND PUSH1 0x0 SWAP1 DUP2 MSTORE PUSH1 0x6 PUSH1 0x20 MSTORE PUSH1 0x40 DUP2 KECCAK256 SLOAD PUSH1 0x1 PUSH1 0x80 SHL SWAP1 PUSH2 0xB92 SWAP1 PUSH2 0xB8D SWAP1 PUSH2 0xB87 PUSH2 0xB82 PUSH2 0xB79 DUP9 PUSH2 0xF08 JUMP JUMPDEST PUSH1 0x5 SLOAD SWAP1 PUSH2 0x1845 JUMP JUMPDEST PUSH2 0x1ABD JUMP JUMPDEST SWAP1 PUSH2 0x1ACD JUMP JUMPDEST PUSH2 0x1B00 JUMP JUMPDEST DUP2 PUSH2 0xB99 JUMPI INVALID JUMPDEST DIV SWAP1 POP JUMPDEST SWAP2 SWAP1 POP JUMP JUMPDEST PUSH1 0xE SLOAD DUP2 JUMP JUMPDEST PUSH1 0x12 SWAP1 JUMP JUMPDEST PUSH2 0xBB5 PUSH2 0x18FF JUMP JUMPDEST PUSH1 0x9 SLOAD PUSH1 0x1 PUSH1 0x1 PUSH1 0xA0 SHL SUB SWAP1 DUP2 AND SWAP2 AND EQ PUSH2 0xC05 JUMPI PUSH1 0x40 DUP1 MLOAD PUSH3 0x461BCD PUSH1 0xE5 SHL DUP2 MSTORE PUSH1 0x20 PUSH1 0x4 DUP3 ADD DUP2 SWAP1 MSTORE PUSH1 0x24 DUP3 ADD MSTORE PUSH1 0x0 DUP1 MLOAD PUSH1 0x20 PUSH2 0x2120 DUP4 CODECOPY DUP2 MLOAD SWAP2 MSTORE PUSH1 0x44 DUP3 ADD MSTORE SWAP1 MLOAD SWAP1 DUP2 SWAP1 SUB PUSH1 0x64 ADD SWAP1 REVERT JUMPDEST PUSH1 0x1 PUSH1 0x1 PUSH1 0xA0 SHL SUB DUP2 AND PUSH1 0x0 SWAP1 DUP2 MSTORE PUSH1 0xF PUSH1 0x20 MSTORE PUSH1 0x40 SWAP1 KECCAK256 SLOAD PUSH1 0xFF AND ISZERO PUSH2 0xC2B JUMPI PUSH1 0x0 DUP1 REVERT JUMPDEST PUSH1 0x1 PUSH1 0x1 PUSH1 0xA0 SHL SUB DUP2 AND PUSH1 0x0 SWAP1 DUP2 MSTORE PUSH1 0xF PUSH1 0x20 MSTORE PUSH1 0x40 DUP2 KECCAK256 DUP1 SLOAD PUSH1 0xFF NOT AND PUSH1 0x1 OR SWAP1 SSTORE PUSH2 0xC59 SWAP1 DUP3 SWAP1 PUSH2 0x1B13 JUMP JUMPDEST PUSH1 0x40 DUP1 MLOAD PUSH4 0x131836E7 PUSH1 0xE2 SHL DUP2 MSTORE PUSH1 0xA PUSH1 0x4 DUP3 ADD MSTORE PUSH1 0x1 PUSH1 0x1 PUSH1 0xA0 SHL SUB DUP4 AND PUSH1 0x24 DUP3 ADD MSTORE SWAP1 MLOAD PUSH20 0x0 SWAP2 PUSH4 0x4C60DB9C SWAP2 PUSH1 0x44 DUP1 DUP4 ADD SWAP3 PUSH1 0x0 SWAP3 SWAP2 SWAP1 DUP3 SWAP1 SUB ADD DUP2 DUP7 DUP1 EXTCODESIZE ISZERO DUP1 ISZERO PUSH2 0xCBA JUMPI PUSH1 0x0 DUP1 REVERT JUMPDEST POP GAS DELEGATECALL ISZERO DUP1 ISZERO PUSH2 0xCCE JUMPI RETURNDATASIZE PUSH1 0x0 DUP1 RETURNDATACOPY RETURNDATASIZE PUSH1 0x0 REVERT JUMPDEST POP POP PUSH1 0x40 MLOAD PUSH1 0x1 PUSH1 0x1 PUSH1 0xA0 SHL SUB DUP5 AND SWAP3 POP PUSH32 0xA878B31040B2E6D0A9A3D3361209DB3908BA62014B0DCA52ADBAEE451D128B25 SWAP2 POP PUSH1 0x0 SWAP1 LOG2 POP JUMP JUMPDEST PUSH1 0x0 PUSH2 0xA2D PUSH2 0xD16 PUSH2 0x18FF JUMP JUMPDEST DUP5 PUSH2 0xB34 DUP6 PUSH1 0x1 PUSH1 0x0 PUSH2 0xD27 PUSH2 0x18FF JUMP JUMPDEST PUSH1 0x1 PUSH1 0x1 PUSH1 0xA0 SHL SUB SWAP1 DUP2 AND DUP3 MSTORE PUSH1 0x20 DUP1 DUP4 ADD SWAP4 SWAP1 SWAP4 MSTORE PUSH1 0x40 SWAP2 DUP3 ADD PUSH1 0x0 SWAP1 DUP2 KECCAK256 SWAP2 DUP13 AND DUP2 MSTORE SWAP3 MSTORE SWAP1 KECCAK256 SLOAD SWAP1 PUSH2 0x18A5 JUMP JUMPDEST PUSH1 0xF PUSH1 0x20 MSTORE PUSH1 0x0 SWAP1 DUP2 MSTORE PUSH1 0x40 SWAP1 KECCAK256 SLOAD PUSH1 0xFF AND DUP2 JUMP JUMPDEST PUSH1 0x0 DUP1 PUSH1 0x0 DUP1 PUSH1 0x0 DUP1 PUSH1 0x0 DUP1 PUSH1 0xA PUSH20 0x0 PUSH4 0xDEB3D896 SWAP1 SWAP2 PUSH1 0x40 MLOAD DUP3 PUSH4 0xFFFFFFFF AND PUSH1 0xE0 SHL DUP2 MSTORE PUSH1 0x4 ADD DUP1 DUP3 DUP2 MSTORE PUSH1 0x20 ADD SWAP2 POP POP PUSH1 0x20 PUSH1 0x40 MLOAD DUP1 DUP4 SUB DUP2 DUP7 DUP1 EXTCODESIZE ISZERO DUP1 ISZERO PUSH2 0xDCA JUMPI PUSH1 0x0 DUP1 REVERT JUMPDEST POP GAS DELEGATECALL ISZERO DUP1 ISZERO PUSH2 0xDDE JUMPI RETURNDATASIZE PUSH1 0x0 DUP1 RETURNDATACOPY RETURNDATASIZE PUSH1 0x0 REVERT JUMPDEST POP POP POP POP PUSH1 0x40 MLOAD RETURNDATASIZE PUSH1 0x20 DUP2 LT ISZERO PUSH2 0xDF4 JUMPI PUSH1 0x0 DUP1 REVERT JUMPDEST POP MLOAD DUP10 LT PUSH2 0xE1B JUMPI POP PUSH1 0x0 SWAP7 POP PUSH1 0x0 NOT SWAP6 POP DUP6 SWAP5 POP DUP7 SWAP4 POP DUP4 SWAP3 POP DUP3 SWAP2 POP DUP2 SWAP1 POP DUP1 PUSH2 0xEC0 JUMP JUMPDEST PUSH1 0x0 PUSH1 0xA PUSH20 0x0 PUSH4 0xD1AA9E7E SWAP1 SWAP2 DUP13 PUSH1 0x40 MLOAD DUP4 PUSH4 0xFFFFFFFF AND PUSH1 0xE0 SHL DUP2 MSTORE PUSH1 0x4 ADD DUP1 DUP4 DUP2 MSTORE PUSH1 0x20 ADD DUP3 DUP2 MSTORE PUSH1 0x20 ADD SWAP3 POP POP POP PUSH1 0x20 PUSH1 0x40 MLOAD DUP1 DUP4 SUB DUP2 DUP7 DUP1 EXTCODESIZE ISZERO DUP1 ISZERO PUSH2 0xE77 JUMPI PUSH1 0x0 DUP1 REVERT JUMPDEST POP GAS DELEGATECALL ISZERO DUP1 ISZERO PUSH2 0xE8B JUMPI RETURNDATASIZE PUSH1 0x0 DUP1 RETURNDATACOPY RETURNDATASIZE PUSH1 0x0 REVERT JUMPDEST POP POP POP POP PUSH1 0x40 MLOAD RETURNDATASIZE PUSH1 0x20 DUP2 LT ISZERO PUSH2 0xEA1 JUMPI PUSH1 0x0 DUP1 REVERT JUMPDEST POP MLOAD SWAP1 POP PUSH2 0xEAE DUP2 PUSH2 0x15D4 JUMP JUMPDEST SWAP9 POP SWAP9 POP SWAP9 POP SWAP9 POP SWAP9 POP SWAP9 POP SWAP9 POP SWAP9 POP POP JUMPDEST SWAP2 SWAP4 SWAP6 SWAP8 POP SWAP2 SWAP4 SWAP6 SWAP8 JUMP JUMPDEST PUSH1 0x40 MLOAD PUSH3 0x461BCD PUSH1 0xE5 SHL DUP2 MSTORE PUSH1 0x4 ADD DUP1 DUP1 PUSH1 0x20 ADD DUP3 DUP2 SUB DUP3 MSTORE PUSH1 0x65 DUP2 MSTORE PUSH1 0x20 ADD DUP1 PUSH2 0x2072 PUSH1 0x65 SWAP2 CODECOPY PUSH1 0x80 ADD SWAP2 POP POP PUSH1 0x40 MLOAD DUP1 SWAP2 SUB SWAP1 REVERT JUMPDEST PUSH1 0x11 SLOAD DUP2 JUMP JUMPDEST PUSH1 0x1 PUSH1 0x1 PUSH1 0xA0 SHL SUB AND PUSH1 0x0 SWAP1 DUP2 MSTORE PUSH1 0x20 DUP2 SWAP1 MSTORE PUSH1 0x40 SWAP1 KECCAK256 SLOAD SWAP1 JUMP JUMPDEST PUSH2 0xF2B PUSH2 0x18FF JUMP JUMPDEST PUSH1 0x9 SLOAD PUSH1 0x1 PUSH1 0x1 PUSH1 0xA0 SHL SUB SWAP1 DUP2 AND SWAP2 AND EQ PUSH2 0xF7B JUMPI PUSH1 0x40 DUP1 MLOAD PUSH3 0x461BCD PUSH1 0xE5 SHL DUP2 MSTORE PUSH1 0x20 PUSH1 0x4 DUP3 ADD DUP2 SWAP1 MSTORE PUSH1 0x24 DUP3 ADD MSTORE PUSH1 0x0 DUP1 MLOAD PUSH1 0x20 PUSH2 0x2120 DUP4 CODECOPY DUP2 MLOAD SWAP2 MSTORE PUSH1 0x44 DUP3 ADD MSTORE SWAP1 MLOAD SWAP1 DUP2 SWAP1 SUB PUSH1 0x64 ADD SWAP1 REVERT JUMPDEST PUSH1 0x9 SLOAD PUSH1 0x40 MLOAD PUSH1 0x0 SWAP2 PUSH1 0x1 PUSH1 0x1 PUSH1 0xA0 SHL SUB AND SWAP1 PUSH32 0x8BE0079C531659141344CD1FD0A4F28419497F9722A3DAAFE3B4186F6B6457E0 SWAP1 DUP4 SWAP1 LOG3 PUSH1 0x9 DUP1 SLOAD PUSH1 0x1 PUSH1 0x1 PUSH1 0xA0 SHL SUB NOT AND SWAP1 SSTORE JUMP JUMPDEST PUSH1 0x8 SLOAD DUP2 JUMP JUMPDEST PUSH1 0x9 SLOAD PUSH1 0x1 PUSH1 0x1 PUSH1 0xA0 SHL SUB AND SWAP1 JUMP JUMPDEST PUSH1 0x0 PUSH2 0xA31 DUP3 PUSH2 0x10AE JUMP JUMPDEST PUSH1 0x4 DUP1 SLOAD PUSH1 0x40 DUP1 MLOAD PUSH1 0x20 PUSH1 0x1F PUSH1 0x2 PUSH1 0x0 NOT PUSH2 0x100 PUSH1 0x1 DUP9 AND ISZERO MUL ADD SWAP1 SWAP6 AND SWAP5 SWAP1 SWAP5 DIV SWAP4 DUP5 ADD DUP2 SWAP1 DIV DUP2 MUL DUP3 ADD DUP2 ADD SWAP1 SWAP3 MSTORE DUP3 DUP2 MSTORE PUSH1 0x60 SWAP4 SWAP1 SWAP3 SWAP1 SWAP2 DUP4 ADD DUP3 DUP3 DUP1 ISZERO PUSH2 0xA0F JUMPI DUP1 PUSH1 0x1F LT PUSH2 0x9E4 JUMPI PUSH2 0x100 DUP1 DUP4 SLOAD DIV MUL DUP4 MSTORE SWAP2 PUSH1 0x20 ADD SWAP2 PUSH2 0xA0F JUMP JUMPDEST PUSH1 0x0 PUSH2 0xA2D PUSH2 0x1053 PUSH2 0x18FF JUMP JUMPDEST DUP5 PUSH2 0xB34 DUP6 PUSH1 0x40 MLOAD DUP1 PUSH1 0x60 ADD PUSH1 0x40 MSTORE DUP1 PUSH1 0x25 DUP2 MSTORE PUSH1 0x20 ADD PUSH2 0x21C1 PUSH1 0x25 SWAP2 CODECOPY PUSH1 0x1 PUSH1 0x0 PUSH2 0x107D PUSH2 0x18FF JUMP JUMPDEST PUSH1 0x1 PUSH1 0x1 PUSH1 0xA0 SHL SUB SWAP1 DUP2 AND DUP3 MSTORE PUSH1 0x20 DUP1 DUP4 ADD SWAP4 SWAP1 SWAP4 MSTORE PUSH1 0x40 SWAP2 DUP3 ADD PUSH1 0x0 SWAP1 DUP2 KECCAK256 SWAP2 DUP14 AND DUP2 MSTORE SWAP3 MSTORE SWAP1 KECCAK256 SLOAD SWAP2 SWAP1 PUSH2 0x1A26 JUMP JUMPDEST PUSH1 0x1 PUSH1 0x1 PUSH1 0xA0 SHL SUB DUP2 AND PUSH1 0x0 SWAP1 DUP2 MSTORE PUSH1 0x7 PUSH1 0x20 MSTORE PUSH1 0x40 DUP2 KECCAK256 SLOAD PUSH2 0xA31 SWAP1 PUSH2 0x10D4 DUP5 PUSH2 0xB43 JUMP JUMPDEST SWAP1 PUSH2 0x1B6C JUMP JUMPDEST PUSH1 0x0 PUSH2 0xA2D PUSH2 0x10E7 PUSH2 0x18FF JUMP JUMPDEST DUP5 DUP5 PUSH2 0x19EF JUMP JUMPDEST PUSH1 0x1 PUSH1 0x1 PUSH1 0xA0 SHL SUB AND PUSH1 0x0 SWAP1 DUP2 MSTORE PUSH1 0x7 PUSH1 0x20 MSTORE PUSH1 0x40 SWAP1 KECCAK256 SLOAD SWAP1 JUMP JUMPDEST PUSH1 0x0 PUSH2 0x1113 PUSH2 0x18FF JUMP JUMPDEST PUSH1 0x9 SLOAD PUSH1 0x1 PUSH1 0x1 PUSH1 0xA0 SHL SUB SWAP1 DUP2 AND SWAP2 AND EQ PUSH2 0x1163 JUMPI PUSH1 0x40 DUP1 MLOAD PUSH3 0x461BCD PUSH1 0xE5 SHL DUP2 MSTORE PUSH1 0x20 PUSH1 0x4 DUP3 ADD DUP2 SWAP1 MSTORE PUSH1 0x24 DUP3 ADD MSTORE PUSH1 0x0 DUP1 MLOAD PUSH1 0x20 PUSH2 0x2120 DUP4 CODECOPY DUP2 MLOAD SWAP2 MSTORE PUSH1 0x44 DUP3 ADD MSTORE SWAP1 MLOAD SWAP1 DUP2 SWAP1 SUB PUSH1 0x64 ADD SWAP1 REVERT JUMPDEST PUSH1 0x0 PUSH2 0x116E DUP5 PUSH2 0x1BAE JUMP JUMPDEST SWAP1 POP DUP1 ISZERO PUSH2 0x11D4 JUMPI PUSH1 0x1 PUSH1 0x1 PUSH1 0xA0 SHL SUB DUP5 AND PUSH1 0x0 DUP2 DUP2 MSTORE PUSH1 0x10 PUSH1 0x20 SWAP1 DUP2 MSTORE PUSH1 0x40 SWAP2 DUP3 SWAP1 KECCAK256 TIMESTAMP SWAP1 SSTORE DUP2 MLOAD DUP5 DUP2 MSTORE SWAP2 MLOAD DUP7 ISZERO ISZERO SWAP4 SWAP3 PUSH32 0xA2C38E2D2FB7E3E1912D937FD1CA11ED6D51864DEE4CFA7A7BF02BECD7ACF092 SWAP3 SWAP1 DUP3 SWAP1 SUB ADD SWAP1 LOG3 PUSH1 0x1 SWAP2 POP POP PUSH2 0xA31 JUMP JUMPDEST POP PUSH1 0x0 SWAP4 SWAP3 POP POP POP JUMP JUMPDEST PUSH1 0x12 SLOAD DUP2 JUMP JUMPDEST PUSH1 0x1 PUSH1 0x1 PUSH1 0xA0 SHL SUB SWAP2 DUP3 AND PUSH1 0x0 SWAP1 DUP2 MSTORE PUSH1 0x1 PUSH1 0x20 SWAP1 DUP2 MSTORE PUSH1 0x40 DUP1 DUP4 KECCAK256 SWAP4 SWAP1 SWAP5 AND DUP3 MSTORE SWAP2 SWAP1 SWAP2 MSTORE KECCAK256 SLOAD SWAP1 JUMP JUMPDEST PUSH2 0x1217 PUSH2 0x18FF JUMP JUMPDEST PUSH1 0x9 SLOAD PUSH1 0x1 PUSH1 0x1 PUSH1 0xA0 SHL SUB SWAP1 DUP2 AND SWAP2 AND EQ PUSH2 0x1267 JUMPI PUSH1 0x40 DUP1 MLOAD PUSH3 0x461BCD PUSH1 0xE5 SHL DUP2 MSTORE PUSH1 0x20 PUSH1 0x4 DUP3 ADD DUP2 SWAP1 MSTORE PUSH1 0x24 DUP3 ADD MSTORE PUSH1 0x0 DUP1 MLOAD PUSH1 0x20 PUSH2 0x2120 DUP4 CODECOPY DUP2 MLOAD SWAP2 MSTORE PUSH1 0x44 DUP3 ADD MSTORE SWAP1 MLOAD SWAP1 DUP2 SWAP1 SUB PUSH1 0x64 ADD SWAP1 REVERT JUMPDEST PUSH1 0x1 PUSH1 0x1 PUSH1 0xA0 SHL SUB DUP3 AND PUSH1 0x0 SWAP1 DUP2 MSTORE PUSH1 0xF PUSH1 0x20 MSTORE PUSH1 0x40 SWAP1 KECCAK256 SLOAD PUSH1 0xFF AND ISZERO PUSH2 0x128D JUMPI PUSH2 0x13B7 JUMP JUMPDEST PUSH1 0x12 SLOAD DUP2 LT PUSH2 0x1325 JUMPI PUSH2 0x12A0 DUP3 DUP3 PUSH2 0x1B13 JUMP JUMPDEST PUSH1 0x40 DUP1 MLOAD PUSH4 0x2F0AD017 PUSH1 0xE2 SHL DUP2 MSTORE PUSH1 0xA PUSH1 0x4 DUP3 ADD MSTORE PUSH1 0x1 PUSH1 0x1 PUSH1 0xA0 SHL SUB DUP5 AND PUSH1 0x24 DUP3 ADD MSTORE PUSH1 0x44 DUP2 ADD DUP4 SWAP1 MSTORE SWAP1 MLOAD PUSH20 0x0 SWAP2 PUSH4 0xBC2B405C SWAP2 PUSH1 0x64 DUP1 DUP4 ADD SWAP3 PUSH1 0x0 SWAP3 SWAP2 SWAP1 DUP3 SWAP1 SUB ADD DUP2 DUP7 DUP1 EXTCODESIZE ISZERO DUP1 ISZERO PUSH2 0x1308 JUMPI PUSH1 0x0 DUP1 REVERT JUMPDEST POP GAS DELEGATECALL ISZERO DUP1 ISZERO PUSH2 0x131C JUMPI RETURNDATASIZE PUSH1 0x0 DUP1 RETURNDATACOPY RETURNDATASIZE PUSH1 0x0 REVERT JUMPDEST POP POP POP POP PUSH2 0x13AA JUMP JUMPDEST PUSH2 0x1330 DUP3 PUSH1 0x0 PUSH2 0x1B13 JUMP JUMPDEST PUSH1 0x40 DUP1 MLOAD PUSH4 0x131836E7 PUSH1 0xE2 SHL DUP2 MSTORE PUSH1 0xA PUSH1 0x4 DUP3 ADD MSTORE PUSH1 0x1 PUSH1 0x1 PUSH1 0xA0 SHL SUB DUP5 AND PUSH1 0x24 DUP3 ADD MSTORE SWAP1 MLOAD PUSH20 0x0 SWAP2 PUSH4 0x4C60DB9C SWAP2 PUSH1 0x44 DUP1 DUP4 ADD SWAP3 PUSH1 0x0 SWAP3 SWAP2 SWAP1 DUP3 SWAP1 SUB ADD DUP2 DUP7 DUP1 EXTCODESIZE ISZERO DUP1 ISZERO PUSH2 0x1391 JUMPI PUSH1 0x0 DUP1 REVERT JUMPDEST POP GAS DELEGATECALL ISZERO DUP1 ISZERO PUSH2 0x13A5 JUMPI RETURNDATASIZE PUSH1 0x0 DUP1 RETURNDATACOPY RETURNDATASIZE PUSH1 0x0 REVERT JUMPDEST POP POP POP POP JUMPDEST PUSH2 0x13B5 DUP3 PUSH1 0x1 PUSH2 0x1109 JUMP JUMPDEST POP JUMPDEST POP POP JUMP JUMPDEST PUSH1 0xE SLOAD SWAP1 JUMP JUMPDEST PUSH2 0x13C9 PUSH2 0x18FF JUMP JUMPDEST PUSH1 0x9 SLOAD PUSH1 0x1 PUSH1 0x1 PUSH1 0xA0 SHL SUB SWAP1 DUP2 AND SWAP2 AND EQ PUSH2 0x1419 JUMPI PUSH1 0x40 DUP1 MLOAD PUSH3 0x461BCD PUSH1 0xE5 SHL DUP2 MSTORE PUSH1 0x20 PUSH1 0x4 DUP3 ADD DUP2 SWAP1 MSTORE PUSH1 0x24 DUP3 ADD MSTORE PUSH1 0x0 DUP1 MLOAD PUSH1 0x20 PUSH2 0x2120 DUP4 CODECOPY DUP2 MLOAD SWAP2 MSTORE PUSH1 0x44 DUP3 ADD MSTORE SWAP1 MLOAD SWAP1 DUP2 SWAP1 SUB PUSH1 0x64 ADD SWAP1 REVERT JUMPDEST PUSH1 0x3C DUP2 LT ISZERO DUP1 ISZERO PUSH2 0x142C JUMPI POP PUSH2 0x258 DUP2 GT ISZERO JUMPDEST PUSH2 0x1467 JUMPI PUSH1 0x40 MLOAD PUSH3 0x461BCD PUSH1 0xE5 SHL DUP2 MSTORE PUSH1 0x4 ADD DUP1 DUP1 PUSH1 0x20 ADD DUP3 DUP2 SUB DUP3 MSTORE PUSH1 0x4C DUP2 MSTORE PUSH1 0x20 ADD DUP1 PUSH2 0x21E6 PUSH1 0x4C SWAP2 CODECOPY PUSH1 0x60 ADD SWAP2 POP POP PUSH1 0x40 MLOAD DUP1 SWAP2 SUB SWAP1 REVERT JUMPDEST PUSH1 0x11 SLOAD DUP2 EQ ISZERO PUSH2 0x14A8 JUMPI PUSH1 0x40 MLOAD PUSH3 0x461BCD PUSH1 0xE5 SHL DUP2 MSTORE PUSH1 0x4 ADD DUP1 DUP1 PUSH1 0x20 ADD DUP3 DUP2 SUB DUP3 MSTORE PUSH1 0x3C DUP2 MSTORE PUSH1 0x20 ADD DUP1 PUSH2 0x2161 PUSH1 0x3C SWAP2 CODECOPY PUSH1 0x40 ADD SWAP2 POP POP PUSH1 0x40 MLOAD DUP1 SWAP2 SUB SWAP1 REVERT JUMPDEST PUSH1 0x11 SLOAD PUSH1 0x40 MLOAD DUP3 SWAP1 PUSH32 0x474EA64804364A1E29A4487DDB63C3342A2DD826CCD8ACF48825E680A0E6F20F SWAP1 PUSH1 0x0 SWAP1 LOG3 PUSH1 0x11 SSTORE JUMP JUMPDEST PUSH2 0x14E3 PUSH2 0x18FF JUMP JUMPDEST PUSH1 0x9 SLOAD PUSH1 0x1 PUSH1 0x1 PUSH1 0xA0 SHL SUB SWAP1 DUP2 AND SWAP2 AND EQ PUSH2 0x1533 JUMPI PUSH1 0x40 DUP1 MLOAD PUSH3 0x461BCD PUSH1 0xE5 SHL DUP2 MSTORE PUSH1 0x20 PUSH1 0x4 DUP3 ADD DUP2 SWAP1 MSTORE PUSH1 0x24 DUP3 ADD MSTORE PUSH1 0x0 DUP1 MLOAD PUSH1 0x20 PUSH2 0x2120 DUP4 CODECOPY DUP2 MLOAD SWAP2 MSTORE PUSH1 0x44 DUP3 ADD MSTORE SWAP1 MLOAD SWAP1 DUP2 SWAP1 SUB PUSH1 0x64 ADD SWAP1 REVERT JUMPDEST PUSH1 0x1 PUSH1 0x1 PUSH1 0xA0 SHL SUB DUP2 AND PUSH2 0x1578 JUMPI PUSH1 0x40 MLOAD PUSH3 0x461BCD PUSH1 0xE5 SHL DUP2 MSTORE PUSH1 0x4 ADD DUP1 DUP1 PUSH1 0x20 ADD DUP3 DUP2 SUB DUP3 MSTORE PUSH1 0x26 DUP2 MSTORE PUSH1 0x20 ADD DUP1 PUSH2 0x202A PUSH1 0x26 SWAP2 CODECOPY PUSH1 0x40 ADD SWAP2 POP POP PUSH1 0x40 MLOAD DUP1 SWAP2 SUB SWAP1 REVERT JUMPDEST PUSH1 0x9 SLOAD PUSH1 0x40 MLOAD PUSH1 0x1 PUSH1 0x1 PUSH1 0xA0 SHL SUB DUP1 DUP5 AND SWAP3 AND SWAP1 PUSH32 0x8BE0079C531659141344CD1FD0A4F28419497F9722A3DAAFE3B4186F6B6457E0 SWAP1 PUSH1 0x0 SWAP1 LOG3 PUSH1 0x9 DUP1 SLOAD PUSH1 0x1 PUSH1 0x1 PUSH1 0xA0 SHL SUB NOT AND PUSH1 0x1 PUSH1 0x1 PUSH1 0xA0 SHL SUB SWAP3 SWAP1 SWAP3 AND SWAP2 SWAP1 SWAP2 OR SWAP1 SSTORE JUMP JUMPDEST PUSH1 0x0 DUP1 PUSH1 0x0 DUP1 PUSH1 0x0 DUP1 PUSH1 0x0 DUP1 DUP9 SWAP8 POP PUSH1 0xA PUSH20 0x0 PUSH4 0x17E142D1 SWAP1 SWAP2 DUP11 PUSH1 0x40 MLOAD DUP4 PUSH4 0xFFFFFFFF AND PUSH1 0xE0 SHL DUP2 MSTORE PUSH1 0x4 ADD DUP1 DUP4 DUP2 MSTORE PUSH1 0x20 ADD DUP3 PUSH1 0x1 PUSH1 0x1 PUSH1 0xA0 SHL SUB AND DUP2 MSTORE PUSH1 0x20 ADD SWAP3 POP POP POP PUSH1 0x20 PUSH1 0x40 MLOAD DUP1 DUP4 SUB DUP2 DUP7 DUP1 EXTCODESIZE ISZERO DUP1 ISZERO PUSH2 0x1646 JUMPI PUSH1 0x0 DUP1 REVERT JUMPDEST POP GAS DELEGATECALL ISZERO DUP1 ISZERO PUSH2 0x165A JUMPI RETURNDATASIZE PUSH1 0x0 DUP1 RETURNDATACOPY RETURNDATASIZE PUSH1 0x0 REVERT JUMPDEST POP POP POP POP PUSH1 0x40 MLOAD RETURNDATASIZE PUSH1 0x20 DUP2 LT ISZERO PUSH2 0x1670 JUMPI PUSH1 0x0 DUP1 REVERT JUMPDEST POP MLOAD SWAP7 POP PUSH1 0x0 NOT SWAP6 POP PUSH1 0x0 DUP8 SLT PUSH2 0x16D4 JUMPI PUSH1 0xE SLOAD DUP8 GT ISZERO PUSH2 0x16A0 JUMPI PUSH1 0xE SLOAD PUSH2 0x1699 SWAP1 DUP9 SWAP1 PUSH2 0x1CEF JUMP JUMPDEST SWAP6 POP PUSH2 0x16D4 JUMP JUMPDEST PUSH1 0xE SLOAD PUSH1 0xA SLOAD PUSH1 0x0 SWAP2 LT PUSH2 0x16B5 JUMPI PUSH1 0x0 PUSH2 0x16C4 JUMP JUMPDEST PUSH1 0xE SLOAD PUSH1 0xA SLOAD PUSH2 0x16C4 SWAP2 PUSH2 0x1B6C JUMP JUMPDEST SWAP1 POP PUSH2 0x16D0 DUP9 DUP3 PUSH2 0x1ACD JUMP JUMPDEST SWAP7 POP POP JUMPDEST PUSH2 0x16DD DUP9 PUSH2 0x10AE JUMP JUMPDEST SWAP5 POP PUSH2 0x16E8 DUP9 PUSH2 0xB43 JUMP JUMPDEST PUSH1 0x1 PUSH1 0x1 PUSH1 0xA0 SHL SUB DUP10 AND PUSH1 0x0 SWAP1 DUP2 MSTORE PUSH1 0x10 PUSH1 0x20 MSTORE PUSH1 0x40 SWAP1 KECCAK256 SLOAD SWAP1 SWAP5 POP SWAP3 POP DUP3 PUSH2 0x1712 JUMPI PUSH1 0x0 PUSH2 0x1720 JUMP JUMPDEST PUSH1 0x11 SLOAD PUSH2 0x1720 SWAP1 DUP5 SWAP1 PUSH2 0x18A5 JUMP JUMPDEST SWAP2 POP TIMESTAMP DUP3 GT PUSH2 0x1730 JUMPI PUSH1 0x0 PUSH2 0x173A JUMP JUMPDEST PUSH2 0x173A DUP3 TIMESTAMP PUSH2 0x1B6C JUMP JUMPDEST SWAP1 POP SWAP2 SWAP4 SWAP6 SWAP8 POP SWAP2 SWAP4 SWAP6 SWAP8 JUMP JUMPDEST PUSH1 0xA SLOAD PUSH1 0x0 SWAP1 DUP2 SWAP1 DUP2 SWAP1 DUP1 PUSH2 0x1767 JUMPI POP POP PUSH1 0xE SLOAD PUSH1 0x0 SWAP3 POP DUP3 SWAP2 POP PUSH2 0x183E JUMP JUMPDEST PUSH1 0xE SLOAD PUSH1 0x0 DUP1 GAS SWAP1 POP PUSH1 0x0 DUP1 JUMPDEST DUP10 DUP5 LT DUP1 ISZERO PUSH2 0x1782 JUMPI POP DUP6 DUP3 LT JUMPDEST ISZERO PUSH2 0x182D JUMPI PUSH1 0xA SLOAD PUSH1 0x1 SWAP1 SWAP6 ADD SWAP5 DUP6 LT PUSH2 0x179B JUMPI PUSH1 0x0 SWAP5 POP JUMPDEST PUSH1 0x0 PUSH1 0xA PUSH1 0x0 ADD DUP7 DUP2 SLOAD DUP2 LT PUSH2 0x17AD JUMPI INVALID JUMPDEST PUSH1 0x0 SWAP2 DUP3 MSTORE PUSH1 0x20 DUP1 DUP4 KECCAK256 SWAP1 SWAP2 ADD SLOAD PUSH1 0x1 PUSH1 0x1 PUSH1 0xA0 SHL SUB AND DUP1 DUP4 MSTORE PUSH1 0x10 SWAP1 SWAP2 MSTORE PUSH1 0x40 SWAP1 SWAP2 KECCAK256 SLOAD SWAP1 SWAP2 POP PUSH2 0x17DE SWAP1 PUSH2 0x1D21 JUMP JUMPDEST ISZERO PUSH2 0x17FA JUMPI PUSH2 0x17EE DUP2 PUSH1 0x1 PUSH2 0x1109 JUMP JUMPDEST ISZERO PUSH2 0x17FA JUMPI PUSH1 0x1 SWAP1 SWAP2 ADD SWAP1 JUMPDEST PUSH1 0x1 SWAP1 SWAP3 ADD SWAP2 PUSH1 0x0 GAS SWAP1 POP DUP1 DUP6 GT ISZERO PUSH2 0x1824 JUMPI PUSH2 0x1821 PUSH2 0x181A DUP7 DUP4 PUSH2 0x1B6C JUMP JUMPDEST DUP8 SWAP1 PUSH2 0x18A5 JUMP JUMPDEST SWAP6 POP JUMPDEST SWAP4 POP PUSH2 0x1774 SWAP1 POP JUMP JUMPDEST PUSH1 0xE DUP6 SWAP1 SSTORE SWAP1 SWAP8 POP SWAP6 POP SWAP2 SWAP4 POP POP POP POP JUMPDEST SWAP2 SWAP4 SWAP1 SWAP3 POP JUMP JUMPDEST PUSH1 0x0 DUP3 PUSH2 0x1854 JUMPI POP PUSH1 0x0 PUSH2 0xA31 JUMP JUMPDEST DUP3 DUP3 MUL DUP3 DUP5 DUP3 DUP2 PUSH2 0x1861 JUMPI INVALID JUMPDEST DIV EQ PUSH2 0x189E JUMPI PUSH1 0x40 MLOAD PUSH3 0x461BCD PUSH1 0xE5 SHL DUP2 MSTORE PUSH1 0x4 ADD DUP1 DUP1 PUSH1 0x20 ADD DUP3 DUP2 SUB DUP3 MSTORE PUSH1 0x21 DUP2 MSTORE PUSH1 0x20 ADD DUP1 PUSH2 0x20D7 PUSH1 0x21 SWAP2 CODECOPY PUSH1 0x40 ADD SWAP2 POP POP PUSH1 0x40 MLOAD DUP1 SWAP2 SUB SWAP1 REVERT JUMPDEST SWAP4 SWAP3 POP POP POP JUMP JUMPDEST PUSH1 0x0 DUP3 DUP3 ADD DUP4 DUP2 LT ISZERO PUSH2 0x189E JUMPI PUSH1 0x40 DUP1 MLOAD PUSH3 0x461BCD PUSH1 0xE5 SHL DUP2 MSTORE PUSH1 0x20 PUSH1 0x4 DUP3 ADD MSTORE PUSH1 0x1B PUSH1 0x24 DUP3 ADD MSTORE PUSH32 0x536166654D6174683A206164646974696F6E206F766572666C6F770000000000 PUSH1 0x44 DUP3 ADD MSTORE SWAP1 MLOAD SWAP1 DUP2 SWAP1 SUB PUSH1 0x64 ADD SWAP1 REVERT JUMPDEST CALLER SWAP1 JUMP JUMPDEST PUSH1 0x1 PUSH1 0x1 PUSH1 0xA0 SHL SUB DUP4 AND PUSH2 0x1948 JUMPI PUSH1 0x40 MLOAD PUSH3 0x461BCD PUSH1 0xE5 SHL DUP2 MSTORE PUSH1 0x4 ADD DUP1 DUP1 PUSH1 0x20 ADD DUP3 DUP2 SUB DUP3 MSTORE PUSH1 0x24 DUP2 MSTORE PUSH1 0x20 ADD DUP1 PUSH2 0x219D PUSH1 0x24 SWAP2 CODECOPY PUSH1 0x40 ADD SWAP2 POP POP PUSH1 0x40 MLOAD DUP1 SWAP2 SUB SWAP1 REVERT JUMPDEST PUSH1 0x1 PUSH1 0x1 PUSH1 0xA0 SHL SUB DUP3 AND PUSH2 0x198D JUMPI PUSH1 0x40 MLOAD PUSH3 0x461BCD PUSH1 0xE5 SHL DUP2 MSTORE PUSH1 0x4 ADD DUP1 DUP1 PUSH1 0x20 ADD DUP3 DUP2 SUB DUP3 MSTORE PUSH1 0x22 DUP2 MSTORE PUSH1 0x20 ADD DUP1 PUSH2 0x2050 PUSH1 0x22 SWAP2 CODECOPY PUSH1 0x40 ADD SWAP2 POP POP PUSH1 0x40 MLOAD DUP1 SWAP2 SUB SWAP1 REVERT JUMPDEST PUSH1 0x1 PUSH1 0x1 PUSH1 0xA0 SHL SUB DUP1 DUP5 AND PUSH1 0x0 DUP2 DUP2 MSTORE PUSH1 0x1 PUSH1 0x20 SWAP1 DUP2 MSTORE PUSH1 0x40 DUP1 DUP4 KECCAK256 SWAP5 DUP8 AND DUP1 DUP5 MSTORE SWAP5 DUP3 MSTORE SWAP2 DUP3 SWAP1 KECCAK256 DUP6 SWAP1 SSTORE DUP2 MLOAD DUP6 DUP2 MSTORE SWAP2 MLOAD PUSH32 0x8C5BE1E5EBEC7D5BD14F71427D1E84F3DD0314C0F7B2291E5B200AC8C7C3B925 SWAP3 DUP2 SWAP1 SUB SWAP1 SWAP2 ADD SWAP1 LOG3 POP POP POP JUMP JUMPDEST PUSH1 0x40 MLOAD PUSH3 0x461BCD PUSH1 0xE5 SHL DUP2 MSTORE PUSH1 0x4 ADD DUP1 DUP1 PUSH1 0x20 ADD DUP3 DUP2 SUB DUP3 MSTORE PUSH1 0x2B DUP2 MSTORE PUSH1 0x20 ADD DUP1 PUSH2 0x1FFF PUSH1 0x2B SWAP2 CODECOPY PUSH1 0x40 ADD SWAP2 POP POP PUSH1 0x40 MLOAD DUP1 SWAP2 SUB SWAP1 REVERT JUMPDEST PUSH1 0x0 DUP2 DUP5 DUP5 GT ISZERO PUSH2 0x1AB5 JUMPI PUSH1 0x40 MLOAD PUSH3 0x461BCD PUSH1 0xE5 SHL DUP2 MSTORE PUSH1 0x4 ADD DUP1 DUP1 PUSH1 0x20 ADD DUP3 DUP2 SUB DUP3 MSTORE DUP4 DUP2 DUP2 MLOAD DUP2 MSTORE PUSH1 0x20 ADD SWAP2 POP DUP1 MLOAD SWAP1 PUSH1 0x20 ADD SWAP1 DUP1 DUP4 DUP4 PUSH1 0x0 JUMPDEST DUP4 DUP2 LT ISZERO PUSH2 0x1A7A JUMPI DUP2 DUP2 ADD MLOAD DUP4 DUP3 ADD MSTORE PUSH1 0x20 ADD PUSH2 0x1A62 JUMP JUMPDEST POP POP POP POP SWAP1 POP SWAP1 DUP2 ADD SWAP1 PUSH1 0x1F AND DUP1 ISZERO PUSH2 0x1AA7 JUMPI DUP1 DUP3 SUB DUP1 MLOAD PUSH1 0x1 DUP4 PUSH1 0x20 SUB PUSH2 0x100 EXP SUB NOT AND DUP2 MSTORE PUSH1 0x20 ADD SWAP2 POP JUMPDEST POP SWAP3 POP POP POP PUSH1 0x40 MLOAD DUP1 SWAP2 SUB SWAP1 REVERT JUMPDEST POP POP POP SWAP1 SUB SWAP1 JUMP JUMPDEST PUSH1 0x0 DUP2 DUP2 DUP2 SLT ISZERO PUSH2 0xA31 JUMPI PUSH1 0x0 DUP1 REVERT JUMPDEST PUSH1 0x0 DUP3 DUP3 ADD DUP2 DUP4 SLT DUP1 ISZERO SWAP1 PUSH2 0x1AE2 JUMPI POP DUP4 DUP2 SLT ISZERO JUMPDEST DUP1 PUSH2 0x1AF7 JUMPI POP PUSH1 0x0 DUP4 SLT DUP1 ISZERO PUSH2 0x1AF7 JUMPI POP DUP4 DUP2 SLT JUMPDEST PUSH2 0x189E JUMPI PUSH1 0x0 DUP1 REVERT JUMPDEST PUSH1 0x0 DUP1 DUP3 SLT ISZERO PUSH2 0x1B0F JUMPI PUSH1 0x0 DUP1 REVERT JUMPDEST POP SWAP1 JUMP JUMPDEST PUSH1 0x0 PUSH2 0x1B1E DUP4 PUSH2 0xF08 JUMP JUMPDEST SWAP1 POP DUP1 DUP3 GT ISZERO PUSH2 0x1B46 JUMPI PUSH1 0x0 PUSH2 0x1B34 DUP4 DUP4 PUSH2 0x1B6C JUMP JUMPDEST SWAP1 POP PUSH2 0x1B40 DUP5 DUP3 PUSH2 0x1D48 JUMP JUMPDEST POP PUSH2 0x13B5 JUMP JUMPDEST DUP1 DUP3 LT ISZERO PUSH2 0x13B5 JUMPI PUSH1 0x0 PUSH2 0x1B5A DUP3 DUP5 PUSH2 0x1B6C JUMP JUMPDEST SWAP1 POP PUSH2 0x1B66 DUP5 DUP3 PUSH2 0x1DAC JUMP JUMPDEST POP POP POP POP JUMP JUMPDEST PUSH1 0x0 PUSH2 0x189E DUP4 DUP4 PUSH1 0x40 MLOAD DUP1 PUSH1 0x40 ADD PUSH1 0x40 MSTORE DUP1 PUSH1 0x1E DUP2 MSTORE PUSH1 0x20 ADD PUSH32 0x536166654D6174683A207375627472616374696F6E206F766572666C6F770000 DUP2 MSTORE POP PUSH2 0x1A26 JUMP JUMPDEST PUSH1 0x0 DUP1 PUSH2 0x1BBA DUP4 PUSH2 0x10AE JUMP JUMPDEST SWAP1 POP DUP1 ISZERO PUSH2 0x1CE6 JUMPI PUSH1 0x1 PUSH1 0x1 PUSH1 0xA0 SHL SUB DUP4 AND PUSH1 0x0 SWAP1 DUP2 MSTORE PUSH1 0x7 PUSH1 0x20 MSTORE PUSH1 0x40 SWAP1 KECCAK256 SLOAD PUSH2 0x1BE5 SWAP1 DUP3 PUSH2 0x18A5 JUMP JUMPDEST PUSH1 0x1 PUSH1 0x1 PUSH1 0xA0 SHL SUB DUP5 AND PUSH1 0x0 DUP2 DUP2 MSTORE PUSH1 0x7 PUSH1 0x20 SWAP1 DUP2 MSTORE PUSH1 0x40 SWAP2 DUP3 SWAP1 KECCAK256 SWAP4 SWAP1 SWAP4 SSTORE DUP1 MLOAD DUP5 DUP2 MSTORE SWAP1 MLOAD SWAP2 SWAP3 PUSH32 0xEE503BEE2BB6A87E57BC57DB795F98137327401A0E7B7CE42E37926CC1A9CA4D SWAP3 SWAP2 DUP3 SWAP1 SUB ADD SWAP1 LOG2 PUSH1 0x40 MLOAD PUSH1 0x0 SWAP1 PUSH1 0x1 PUSH1 0x1 PUSH1 0xA0 SHL SUB DUP6 AND SWAP1 PUSH2 0xBB8 SWAP1 DUP5 SWAP1 DUP5 DUP2 DUP2 DUP2 DUP6 DUP9 DUP9 CALL SWAP4 POP POP POP POP RETURNDATASIZE DUP1 PUSH1 0x0 DUP2 EQ PUSH2 0x1C87 JUMPI PUSH1 0x40 MLOAD SWAP2 POP PUSH1 0x1F NOT PUSH1 0x3F RETURNDATASIZE ADD AND DUP3 ADD PUSH1 0x40 MSTORE RETURNDATASIZE DUP3 MSTORE RETURNDATASIZE PUSH1 0x0 PUSH1 0x20 DUP5 ADD RETURNDATACOPY PUSH2 0x1C8C JUMP JUMPDEST PUSH1 0x60 SWAP2 POP JUMPDEST POP POP SWAP1 POP DUP1 PUSH2 0x1CDE JUMPI PUSH1 0x1 PUSH1 0x1 PUSH1 0xA0 SHL SUB DUP5 AND PUSH1 0x0 SWAP1 DUP2 MSTORE PUSH1 0x7 PUSH1 0x20 MSTORE PUSH1 0x40 SWAP1 KECCAK256 SLOAD PUSH2 0x1CB8 SWAP1 DUP4 PUSH2 0x1B6C JUMP JUMPDEST PUSH1 0x1 PUSH1 0x1 PUSH1 0xA0 SHL SUB DUP6 AND PUSH1 0x0 SWAP1 DUP2 MSTORE PUSH1 0x7 PUSH1 0x20 MSTORE PUSH1 0x40 DUP2 KECCAK256 SWAP2 SWAP1 SWAP2 SSTORE SWAP3 POP PUSH2 0xB9D SWAP2 POP POP JUMP JUMPDEST POP SWAP1 POP PUSH2 0xB9D JUMP JUMPDEST POP PUSH1 0x0 SWAP3 SWAP2 POP POP JUMP JUMPDEST PUSH1 0x0 DUP2 DUP4 SUB DUP2 DUP4 SLT DUP1 ISZERO SWAP1 PUSH2 0x1D04 JUMPI POP DUP4 DUP2 SGT ISZERO JUMPDEST DUP1 PUSH2 0x1AF7 JUMPI POP PUSH1 0x0 DUP4 SLT DUP1 ISZERO PUSH2 0x1AF7 JUMPI POP DUP4 DUP2 SGT PUSH2 0x189E JUMPI PUSH1 0x0 DUP1 REVERT JUMPDEST PUSH1 0x0 TIMESTAMP DUP3 GT ISZERO PUSH2 0x1D33 JUMPI POP PUSH1 0x0 PUSH2 0xB9D JUMP JUMPDEST PUSH1 0x11 SLOAD PUSH2 0x1D40 TIMESTAMP DUP5 PUSH2 0x1B6C JUMP JUMPDEST LT ISZERO SWAP3 SWAP2 POP POP JUMP JUMPDEST PUSH2 0x1D52 DUP3 DUP3 PUSH2 0x1DF0 JUMP JUMPDEST PUSH2 0x1D8C PUSH2 0x1D6D PUSH2 0xB82 DUP4 PUSH1 0x5 SLOAD PUSH2 0x1845 SWAP1 SWAP2 SWAP1 PUSH4 0xFFFFFFFF AND JUMP JUMPDEST PUSH1 0x1 PUSH1 0x1 PUSH1 0xA0 SHL SUB DUP5 AND PUSH1 0x0 SWAP1 DUP2 MSTORE PUSH1 0x6 PUSH1 0x20 MSTORE PUSH1 0x40 SWAP1 KECCAK256 SLOAD SWAP1 PUSH2 0x1CEF JUMP JUMPDEST PUSH1 0x1 PUSH1 0x1 PUSH1 0xA0 SHL SUB SWAP1 SWAP3 AND PUSH1 0x0 SWAP1 DUP2 MSTORE PUSH1 0x6 PUSH1 0x20 MSTORE PUSH1 0x40 SWAP1 KECCAK256 SWAP2 SWAP1 SWAP2 SSTORE POP JUMP JUMPDEST PUSH2 0x1DB6 DUP3 DUP3 PUSH2 0x1EE0 JUMP JUMPDEST PUSH2 0x1D8C PUSH2 0x1DD1 PUSH2 0xB82 DUP4 PUSH1 0x5 SLOAD PUSH2 0x1845 SWAP1 SWAP2 SWAP1 PUSH4 0xFFFFFFFF AND JUMP JUMPDEST PUSH1 0x1 PUSH1 0x1 PUSH1 0xA0 SHL SUB DUP5 AND PUSH1 0x0 SWAP1 DUP2 MSTORE PUSH1 0x6 PUSH1 0x20 MSTORE PUSH1 0x40 SWAP1 KECCAK256 SLOAD SWAP1 PUSH2 0x1ACD JUMP JUMPDEST PUSH1 0x1 PUSH1 0x1 PUSH1 0xA0 SHL SUB DUP3 AND PUSH2 0x1E4B JUMPI PUSH1 0x40 DUP1 MLOAD PUSH3 0x461BCD PUSH1 0xE5 SHL DUP2 MSTORE PUSH1 0x20 PUSH1 0x4 DUP3 ADD MSTORE PUSH1 0x1F PUSH1 0x24 DUP3 ADD MSTORE PUSH32 0x45524332303A206D696E7420746F20746865207A65726F206164647265737300 PUSH1 0x44 DUP3 ADD MSTORE SWAP1 MLOAD SWAP1 DUP2 SWAP1 SUB PUSH1 0x64 ADD SWAP1 REVERT JUMPDEST PUSH2 0x1E57 PUSH1 0x0 DUP4 DUP4 PUSH2 0x13B5 JUMP JUMPDEST PUSH1 0x2 SLOAD PUSH2 0x1E64 SWAP1 DUP3 PUSH2 0x18A5 JUMP JUMPDEST PUSH1 0x2 SSTORE PUSH1 0x1 PUSH1 0x1 PUSH1 0xA0 SHL SUB DUP3 AND PUSH1 0x0 SWAP1 DUP2 MSTORE PUSH1 0x20 DUP2 SWAP1 MSTORE PUSH1 0x40 SWAP1 KECCAK256 SLOAD PUSH2 0x1E8A SWAP1 DUP3 PUSH2 0x18A5 JUMP JUMPDEST PUSH1 0x1 PUSH1 0x1 PUSH1 0xA0 SHL SUB DUP4 AND PUSH1 0x0 DUP2 DUP2 MSTORE PUSH1 0x20 DUP2 DUP2 MSTORE PUSH1 0x40 DUP1 DUP4 KECCAK256 SWAP5 SWAP1 SWAP5 SSTORE DUP4 MLOAD DUP6 DUP2 MSTORE SWAP4 MLOAD SWAP3 SWAP4 SWAP2 SWAP3 PUSH32 0xDDF252AD1BE2C89B69C2B068FC378DAA952BA7F163C4A11628F55A4DF523B3EF SWAP3 DUP2 SWAP1 SUB SWAP1 SWAP2 ADD SWAP1 LOG3 POP POP JUMP JUMPDEST PUSH1 0x1 PUSH1 0x1 PUSH1 0xA0 SHL SUB DUP3 AND PUSH2 0x1F25 JUMPI PUSH1 0x40 MLOAD PUSH3 0x461BCD PUSH1 0xE5 SHL DUP2 MSTORE PUSH1 0x4 ADD DUP1 DUP1 PUSH1 0x20 ADD DUP3 DUP2 SUB DUP3 MSTORE PUSH1 0x21 DUP2 MSTORE PUSH1 0x20 ADD DUP1 PUSH2 0x2140 PUSH1 0x21 SWAP2 CODECOPY PUSH1 0x40 ADD SWAP2 POP POP PUSH1 0x40 MLOAD DUP1 SWAP2 SUB SWAP1 REVERT JUMPDEST PUSH2 0x1F31 DUP3 PUSH1 0x0 DUP4 PUSH2 0x13B5 JUMP JUMPDEST PUSH2 0x1F6E DUP2 PUSH1 0x40 MLOAD DUP1 PUSH1 0x60 ADD PUSH1 0x40 MSTORE DUP1 PUSH1 0x22 DUP2 MSTORE PUSH1 0x20 ADD PUSH2 0x1FDD PUSH1 0x22 SWAP2 CODECOPY PUSH1 0x1 PUSH1 0x1 PUSH1 0xA0 SHL SUB DUP6 AND PUSH1 0x0 SWAP1 DUP2 MSTORE PUSH1 0x20 DUP2 SWAP1 MSTORE PUSH1 0x40 SWAP1 KECCAK256 SLOAD SWAP2 SWAP1 PUSH2 0x1A26 JUMP JUMPDEST PUSH1 0x1 PUSH1 0x1 PUSH1 0xA0 SHL SUB DUP4 AND PUSH1 0x0 SWAP1 DUP2 MSTORE PUSH1 0x20 DUP2 SWAP1 MSTORE PUSH1 0x40 SWAP1 KECCAK256 SSTORE PUSH1 0x2 SLOAD PUSH2 0x1F94 SWAP1 DUP3 PUSH2 0x1B6C JUMP JUMPDEST PUSH1 0x2 SSTORE PUSH1 0x40 DUP1 MLOAD DUP3 DUP2 MSTORE SWAP1 MLOAD PUSH1 0x0 SWAP2 PUSH1 0x1 PUSH1 0x1 PUSH1 0xA0 SHL SUB DUP6 AND SWAP2 PUSH32 0xDDF252AD1BE2C89B69C2B068FC378DAA952BA7F163C4A11628F55A4DF523B3EF SWAP2 DUP2 SWAP1 SUB PUSH1 0x20 ADD SWAP1 LOG3 POP POP JUMP INVALID GASLIMIT MSTORE NUMBER ORIGIN ADDRESS GASPRICE KECCAK256 PUSH3 0x75726E KECCAK256 PUSH2 0x6D6F PUSH22 0x6E7420657863656564732062616C616E636564455448 0x5F DIFFICULTY PUSH10 0x766964656E645F547261 PUSH4 0x6B65723A KECCAK256 0x4E PUSH16 0x207472616E736665727320616C6C6F77 PUSH6 0x644F776E6162 PUSH13 0x653A206E6577206F776E657220 PUSH10 0x7320746865207A65726F KECCAK256 PUSH2 0x6464 PUSH19 0x65737345524332303A20617070726F76652074 PUSH16 0x20746865207A65726F20616464726573 PUSH20 0x644554485F4469766964656E645F547261636B65 PUSH19 0x3A2077697468647261774469766964656E6420 PUSH5 0x697361626C PUSH6 0x642E20557365 KECCAK256 PUSH21 0x68652027636C61696D272066756E6374696F6E206F PUSH15 0x20746865206D61696E206445544820 PUSH4 0x6F6E7472 PUSH2 0x6374 0x2E MSTORE8 PUSH2 0x6665 0x4D PUSH2 0x7468 GASPRICE KECCAK256 PUSH14 0x756C7469706C69636174696F6E20 PUSH16 0x766572666C6F7745524332303A207472 PUSH2 0x6E73 PUSH7 0x657220616D6F75 PUSH15 0x74206578636565647320616C6C6F77 PUSH2 0x6E63 PUSH6 0x4F776E61626C PUSH6 0x3A2063616C6C PUSH6 0x72206973206E PUSH16 0x7420746865206F776E65724552433230 GASPRICE KECCAK256 PUSH3 0x75726E KECCAK256 PUSH7 0x726F6D20746865 KECCAK256 PUSH27 0x65726F2061646472657373644554485F4469766964656E645F5472 PUSH2 0x636B PUSH6 0x723A2043616E PUSH15 0x6F742075706461746520636C61696D JUMPI PUSH2 0x6974 KECCAK256 PUSH21 0x6F2073616D652076616C756545524332303A206170 PUSH17 0x726F76652066726F6D20746865207A6572 PUSH16 0x206164647265737345524332303A2064 PUSH6 0x637265617365 PUSH5 0x20616C6C6F PUSH24 0x616E63652062656C6F77207A65726F644554485F44697669 PUSH5 0x656E645F54 PUSH19 0x61636B65723A20636C61696D57616974206D75 PUSH20 0x74206265207570646174656420746F2062657477 PUSH6 0x656E20312061 PUSH15 0x64203130206D696E75746573A26469 PUSH17 0x6673582212209A7E2E94FC7AFDA5A76AED 0x5C DUP11 DUP9 SWAP3 0xB1 PUSH4 0x3221F0E2 0xE1 JUMP 0xE2 EXP DUP1 0x2A 0xB0 0xEE 0xBC DUP14 SWAP4 PUSH5 0x736F6C6343 STOP MOD 0xC STOP CALLER "
				},
				"gasEstimates": {
					"creation": {
						"codeDepositCost": "1761400",
						"executionCost": "infinite",
						"totalCost": "infinite"
					},
					"external": {
						"accumulativeDividendOf(address)": "infinite",
						"allowance(address,address)": "1339",
						"approve(address,uint256)": "infinite",
						"balanceOf(address)": "1278",
						"claimWait()": "1109",
						"decimals()": "275",
						"decreaseAllowance(address,uint256)": "infinite",
						"distributeDividends()": "infinite",
						"dividendOf(address)": "infinite",
						"excludeFromDividends(address)": "infinite",
						"excludedFromDividends(address)": "1181",
						"getAccount(address)": "infinite",
						"getAccountAtIndex(uint256)": "infinite",
						"getLastProcessedIndex()": "1042",
						"getNumberOfTokenHolders()": "1111",
						"increaseAllowance(address,uint256)": "infinite",
						"lastClaimTimes(address)": "1214",
						"lastProcessedIndex()": "1044",
						"minimumTokenBalanceForDividends()": "1065",
						"name()": "infinite",
						"owner()": "1127",
						"process(uint256)": "infinite",
						"processAccount(address,bool)": "infinite",
						"renounceOwnership()": "infinite",
						"setBalance(address,uint256)": "infinite",
						"symbol()": "infinite",
						"totalDividendsDistributed()": "1066",
						"totalSupply()": "1066",
						"transfer(address,uint256)": "infinite",
						"transferFrom(address,address,uint256)": "infinite",
						"transferOwnership(address)": "infinite",
						"updateClaimWait(uint256)": "infinite",
						"updateMinimumTokenBalanceForDividends(uint256)": "infinite",
						"withdrawDividend()": "infinite",
						"withdrawableDividendOf(address)": "infinite",
						"withdrawnDividendOf(address)": "1275"
					},
					"internal": {
						"_transfer(address,address,uint256)": "infinite",
						"canAutoClaim(uint256)": "infinite"
					}
				},
				"methodIdentifiers": {
					"accumulativeDividendOf(address)": "27ce0147",
					"allowance(address,address)": "dd62ed3e",
					"approve(address,uint256)": "095ea7b3",
					"balanceOf(address)": "70a08231",
					"claimWait()": "6f2789ec",
					"decimals()": "313ce567",
					"decreaseAllowance(address,uint256)": "a457c2d7",
					"distributeDividends()": "03c83302",
					"dividendOf(address)": "91b89fba",
					"excludeFromDividends(address)": "31e79db0",
					"excludedFromDividends(address)": "4e7b827f",
					"getAccount(address)": "fbcbc0f1",
					"getAccountAtIndex(uint256)": "5183d6fd",
					"getLastProcessedIndex()": "e7841ec0",
					"getNumberOfTokenHolders()": "09bbedde",
					"increaseAllowance(address,uint256)": "39509351",
					"lastClaimTimes(address)": "226cfa3d",
					"lastProcessedIndex()": "3009a609",
					"minimumTokenBalanceForDividends()": "be10b614",
					"name()": "06fdde03",
					"owner()": "8da5cb5b",
					"process(uint256)": "ffb2c479",
					"processAccount(address,bool)": "bc4c4b37",
					"renounceOwnership()": "715018a6",
					"setBalance(address,uint256)": "e30443bc",
					"symbol()": "95d89b41",
					"totalDividendsDistributed()": "85a6b3ae",
					"totalSupply()": "18160ddd",
					"transfer(address,uint256)": "a9059cbb",
					"transferFrom(address,address,uint256)": "23b872dd",
					"transferOwnership(address)": "f2fde38b",
					"updateClaimWait(uint256)": "e98030c7",
					"updateMinimumTokenBalanceForDividends(uint256)": "0dcb2e89",
					"withdrawDividend()": "6a474002",
					"withdrawableDividendOf(address)": "a8b9d240",
					"withdrawnDividendOf(address)": "aafd847a"
				}
			},
			"storageLayout": {
				"storage": [
					{
						"astId": 1395,
						"contract": "contracts/dethDividendTracker.sol:dETHDividendTracker",
						"label": "_balances",
						"offset": 0,
						"slot": "0",
						"type": "t_mapping(t_address,t_uint256)"
					},
					{
						"astId": 1401,
						"contract": "contracts/dethDividendTracker.sol:dETHDividendTracker",
						"label": "_allowances",
						"offset": 0,
						"slot": "1",
						"type": "t_mapping(t_address,t_mapping(t_address,t_uint256))"
					},
					{
						"astId": 1403,
						"contract": "contracts/dethDividendTracker.sol:dETHDividendTracker",
						"label": "_totalSupply",
						"offset": 0,
						"slot": "2",
						"type": "t_uint256"
					},
					{
						"astId": 1405,
						"contract": "contracts/dethDividendTracker.sol:dETHDividendTracker",
						"label": "_name",
						"offset": 0,
						"slot": "3",
						"type": "t_string_storage"
					},
					{
						"astId": 1407,
						"contract": "contracts/dethDividendTracker.sol:dETHDividendTracker",
						"label": "_symbol",
						"offset": 0,
						"slot": "4",
						"type": "t_string_storage"
					},
					{
						"astId": 72,
						"contract": "contracts/dethDividendTracker.sol:dETHDividendTracker",
						"label": "magnifiedDividendPerShare",
						"offset": 0,
						"slot": "5",
						"type": "t_uint256"
					},
					{
						"astId": 76,
						"contract": "contracts/dethDividendTracker.sol:dETHDividendTracker",
						"label": "magnifiedDividendCorrections",
						"offset": 0,
						"slot": "6",
						"type": "t_mapping(t_address,t_int256)"
					},
					{
						"astId": 80,
						"contract": "contracts/dethDividendTracker.sol:dETHDividendTracker",
						"label": "withdrawnDividends",
						"offset": 0,
						"slot": "7",
						"type": "t_mapping(t_address,t_uint256)"
					},
					{
						"astId": 82,
						"contract": "contracts/dethDividendTracker.sol:dETHDividendTracker",
						"label": "totalDividendsDistributed",
						"offset": 0,
						"slot": "8",
						"type": "t_uint256"
					},
					{
						"astId": 2087,
						"contract": "contracts/dethDividendTracker.sol:dETHDividendTracker",
						"label": "_owner",
						"offset": 0,
						"slot": "9",
						"type": "t_address"
					},
					{
						"astId": 472,
						"contract": "contracts/dethDividendTracker.sol:dETHDividendTracker",
						"label": "tokenHoldersMap",
						"offset": 0,
						"slot": "10",
						"type": "t_struct(Map)2199_storage"
					},
					{
						"astId": 474,
						"contract": "contracts/dethDividendTracker.sol:dETHDividendTracker",
						"label": "lastProcessedIndex",
						"offset": 0,
						"slot": "14",
						"type": "t_uint256"
					},
					{
						"astId": 478,
						"contract": "contracts/dethDividendTracker.sol:dETHDividendTracker",
						"label": "excludedFromDividends",
						"offset": 0,
						"slot": "15",
						"type": "t_mapping(t_address,t_bool)"
					},
					{
						"astId": 482,
						"contract": "contracts/dethDividendTracker.sol:dETHDividendTracker",
						"label": "lastClaimTimes",
						"offset": 0,
						"slot": "16",
						"type": "t_mapping(t_address,t_uint256)"
					},
					{
						"astId": 484,
						"contract": "contracts/dethDividendTracker.sol:dETHDividendTracker",
						"label": "claimWait",
						"offset": 0,
						"slot": "17",
						"type": "t_uint256"
					},
					{
						"astId": 486,
						"contract": "contracts/dethDividendTracker.sol:dETHDividendTracker",
						"label": "minimumTokenBalanceForDividends",
						"offset": 0,
						"slot": "18",
						"type": "t_uint256"
					}
				],
				"types": {
					"t_address": {
						"encoding": "inplace",
						"label": "address",
						"numberOfBytes": "20"
					},
					"t_array(t_address)dyn_storage": {
						"base": "t_address",
						"encoding": "dynamic_array",
						"label": "address[]",
						"numberOfBytes": "32"
					},
					"t_bool": {
						"encoding": "inplace",
						"label": "bool",
						"numberOfBytes": "1"
					},
					"t_int256": {
						"encoding": "inplace",
						"label": "int256",
						"numberOfBytes": "32"
					},
					"t_mapping(t_address,t_bool)": {
						"encoding": "mapping",
						"key": "t_address",
						"label": "mapping(address => bool)",
						"numberOfBytes": "32",
						"value": "t_bool"
					},
					"t_mapping(t_address,t_int256)": {
						"encoding": "mapping",
						"key": "t_address",
						"label": "mapping(address => int256)",
						"numberOfBytes": "32",
						"value": "t_int256"
					},
					"t_mapping(t_address,t_mapping(t_address,t_uint256))": {
						"encoding": "mapping",
						"key": "t_address",
						"label": "mapping(address => mapping(address => uint256))",
						"numberOfBytes": "32",
						"value": "t_mapping(t_address,t_uint256)"
					},
					"t_mapping(t_address,t_uint256)": {
						"encoding": "mapping",
						"key": "t_address",
						"label": "mapping(address => uint256)",
						"numberOfBytes": "32",
						"value": "t_uint256"
					},
					"t_string_storage": {
						"encoding": "bytes",
						"label": "string",
						"numberOfBytes": "32"
					},
					"t_struct(Map)2199_storage": {
						"encoding": "inplace",
						"label": "struct IterableMapping.Map",
						"members": [
							{
								"astId": 2186,
								"contract": "contracts/dethDividendTracker.sol:dETHDividendTracker",
								"label": "keys",
								"offset": 0,
								"slot": "0",
								"type": "t_array(t_address)dyn_storage"
							},
							{
								"astId": 2190,
								"contract": "contracts/dethDividendTracker.sol:dETHDividendTracker",
								"label": "values",
								"offset": 0,
								"slot": "1",
								"type": "t_mapping(t_address,t_uint256)"
							},
							{
								"astId": 2194,
								"contract": "contracts/dethDividendTracker.sol:dETHDividendTracker",
								"label": "indexOf",
								"offset": 0,
								"slot": "2",
								"type": "t_mapping(t_address,t_uint256)"
							},
							{
								"astId": 2198,
								"contract": "contracts/dethDividendTracker.sol:dETHDividendTracker",
								"label": "inserted",
								"offset": 0,
								"slot": "3",
								"type": "t_mapping(t_address,t_bool)"
							}
						],
						"numberOfBytes": "128"
					},
					"t_uint256": {
						"encoding": "inplace",
						"label": "uint256",
						"numberOfBytes": "32"
					}
				}
			},
			"userdoc": {
				"kind": "user",
				"methods": {},
				"version": 1
			}
		}
	}
}