{
	"contracts/dethDividendTracker.sol": {
		"DividendPayingToken": {
			"abi": [
				{
					"inputs": [
						{
							"internalType": "string",
							"name": "_name",
							"type": "string"
						},
						{
							"internalType": "string",
							"name": "_symbol",
							"type": "string"
						}
					],
					"stateMutability": "nonpayable",
					"type": "constructor"
				},
				{
					"anonymous": false,
					"inputs": [
						{
							"indexed": true,
							"internalType": "address",
							"name": "owner",
							"type": "address"
						},
						{
							"indexed": true,
							"internalType": "address",
							"name": "spender",
							"type": "address"
						},
						{
							"indexed": false,
							"internalType": "uint256",
							"name": "value",
							"type": "uint256"
						}
					],
					"name": "Approval",
					"type": "event"
				},
				{
					"anonymous": false,
					"inputs": [
						{
							"indexed": true,
							"internalType": "address",
							"name": "to",
							"type": "address"
						},
						{
							"indexed": false,
							"internalType": "uint256",
							"name": "weiAmount",
							"type": "uint256"
						}
					],
					"name": "DividendWithdrawn",
					"type": "event"
				},
				{
					"anonymous": false,
					"inputs": [
						{
							"indexed": true,
							"internalType": "address",
							"name": "from",
							"type": "address"
						},
						{
							"indexed": false,
							"internalType": "uint256",
							"name": "weiAmount",
							"type": "uint256"
						}
					],
					"name": "DividendsDistributed",
					"type": "event"
				},
				{
					"anonymous": false,
					"inputs": [
						{
							"indexed": true,
							"internalType": "address",
							"name": "from",
							"type": "address"
						},
						{
							"indexed": true,
							"internalType": "address",
							"name": "to",
							"type": "address"
						},
						{
							"indexed": false,
							"internalType": "uint256",
							"name": "value",
							"type": "uint256"
						}
					],
					"name": "Transfer",
					"type": "event"
				},
				{
					"inputs": [
						{
							"internalType": "address",
							"name": "_owner",
							"type": "address"
						}
					],
					"name": "accumulativeDividendOf",
					"outputs": [
						{
							"internalType": "uint256",
							"name": "",
							"type": "uint256"
						}
					],
					"stateMutability": "view",
					"type": "function"
				},
				{
					"inputs": [
						{
							"internalType": "address",
							"name": "owner",
							"type": "address"
						},
						{
							"internalType": "address",
							"name": "spender",
							"type": "address"
						}
					],
					"name": "allowance",
					"outputs": [
						{
							"internalType": "uint256",
							"name": "",
							"type": "uint256"
						}
					],
					"stateMutability": "view",
					"type": "function"
				},
				{
					"inputs": [
						{
							"internalType": "address",
							"name": "spender",
							"type": "address"
						},
						{
							"internalType": "uint256",
							"name": "amount",
							"type": "uint256"
						}
					],
					"name": "approve",
					"outputs": [
						{
							"internalType": "bool",
							"name": "",
							"type": "bool"
						}
					],
					"stateMutability": "nonpayable",
					"type": "function"
				},
				{
					"inputs": [
						{
							"internalType": "address",
							"name": "account",
							"type": "address"
						}
					],
					"name": "balanceOf",
					"outputs": [
						{
							"internalType": "uint256",
							"name": "",
							"type": "uint256"
						}
					],
					"stateMutability": "view",
					"type": "function"
				},
				{
					"inputs": [],
					"name": "decimals",
					"outputs": [
						{
							"internalType": "uint8",
							"name": "",
							"type": "uint8"
						}
					],
					"stateMutability": "view",
					"type": "function"
				},
				{
					"inputs": [
						{
							"internalType": "address",
							"name": "spender",
							"type": "address"
						},
						{
							"internalType": "uint256",
							"name": "subtractedValue",
							"type": "uint256"
						}
					],
					"name": "decreaseAllowance",
					"outputs": [
						{
							"internalType": "bool",
							"name": "",
							"type": "bool"
						}
					],
					"stateMutability": "nonpayable",
					"type": "function"
				},
				{
					"inputs": [],
					"name": "distributeDividends",
					"outputs": [],
					"stateMutability": "payable",
					"type": "function"
				},
				{
					"inputs": [
						{
							"internalType": "address",
							"name": "_owner",
							"type": "address"
						}
					],
					"name": "dividendOf",
					"outputs": [
						{
							"internalType": "uint256",
							"name": "",
							"type": "uint256"
						}
					],
					"stateMutability": "view",
					"type": "function"
				},
				{
					"inputs": [
						{
							"internalType": "address",
							"name": "spender",
							"type": "address"
						},
						{
							"internalType": "uint256",
							"name": "addedValue",
							"type": "uint256"
						}
					],
					"name": "increaseAllowance",
					"outputs": [
						{
							"internalType": "bool",
							"name": "",
							"type": "bool"
						}
					],
					"stateMutability": "nonpayable",
					"type": "function"
				},
				{
					"inputs": [],
					"name": "name",
					"outputs": [
						{
							"internalType": "string",
							"name": "",
							"type": "string"
						}
					],
					"stateMutability": "view",
					"type": "function"
				},
				{
					"inputs": [],
					"name": "symbol",
					"outputs": [
						{
							"internalType": "string",
							"name": "",
							"type": "string"
						}
					],
					"stateMutability": "view",
					"type": "function"
				},
				{
					"inputs": [],
					"name": "totalDividendsDistributed",
					"outputs": [
						{
							"internalType": "uint256",
							"name": "",
							"type": "uint256"
						}
					],
					"stateMutability": "view",
					"type": "function"
				},
				{
					"inputs": [],
					"name": "totalSupply",
					"outputs": [
						{
							"internalType": "uint256",
							"name": "",
							"type": "uint256"
						}
					],
					"stateMutability": "view",
					"type": "function"
				},
				{
					"inputs": [
						{
							"internalType": "address",
							"name": "recipient",
							"type": "address"
						},
						{
							"internalType": "uint256",
							"name": "amount",
							"type": "uint256"
						}
					],
					"name": "transfer",
					"outputs": [
						{
							"internalType": "bool",
							"name": "",
							"type": "bool"
						}
					],
					"stateMutability": "nonpayable",
					"type": "function"
				},
				{
					"inputs": [
						{
							"internalType": "address",
							"name": "sender",
							"type": "address"
						},
						{
							"internalType": "address",
							"name": "recipient",
							"type": "address"
						},
						{
							"internalType": "uint256",
							"name": "amount",
							"type": "uint256"
						}
					],
					"name": "transferFrom",
					"outputs": [
						{
							"internalType": "bool",
							"name": "",
							"type": "bool"
						}
					],
					"stateMutability": "nonpayable",
					"type": "function"
				},
				{
					"inputs": [],
					"name": "withdrawDividend",
					"outputs": [],
					"stateMutability": "nonpayable",
					"type": "function"
				},
				{
					"inputs": [
						{
							"internalType": "address",
							"name": "_owner",
							"type": "address"
						}
					],
					"name": "withdrawableDividendOf",
					"outputs": [
						{
							"internalType": "uint256",
							"name": "",
							"type": "uint256"
						}
					],
					"stateMutability": "view",
					"type": "function"
				},
				{
					"inputs": [
						{
							"internalType": "address",
							"name": "_owner",
							"type": "address"
						}
					],
					"name": "withdrawnDividendOf",
					"outputs": [
						{
							"internalType": "uint256",
							"name": "",
							"type": "uint256"
						}
					],
					"stateMutability": "view",
					"type": "function"
				},
				{
					"stateMutability": "payable",
					"type": "receive"
				}
			],
			"devdoc": {
				"kind": "dev",
				"methods": {},
				"version": 1
			},
			"evm": {
				"assembly": "    /* \"contracts/dethDividendTracker.sol\":789:4610  contract DividendPayingToken is ERC20, DividendPayingTokenInterface, DividendPayingTokenOptionalInterface {\r... */\n  mstore(0x40, 0x80)\n    /* \"contracts/dethDividendTracker.sol\":1279:1372  constructor(string memory _name, string memory _symbol) public ERC20(_name, _symbol) {\r... */\n  callvalue\n  dup1\n  iszero\n  tag_1\n  jumpi\n  0x00\n  dup1\n  revert\ntag_1:\n  pop\n  mload(0x40)\n  sub(codesize, bytecodeSize)\n  dup1\n  bytecodeSize\n  dup4\n  codecopy\n  dup2\n  dup2\n  add\n  0x40\n  mstore\n  0x40\n  dup2\n  lt\n  iszero\n  tag_2\n  jumpi\n  0x00\n  dup1\n  revert\ntag_2:\n  dup2\n  add\n  swap1\n  dup1\n  dup1\n  mload\n  mload(0x40)\n  swap4\n  swap3\n  swap2\n  swap1\n  dup5\n  0x0100000000\n  dup3\n  gt\n  iszero\n  tag_3\n  jumpi\n  0x00\n  dup1\n  revert\ntag_3:\n  swap1\n  dup4\n  add\n  swap1\n  0x20\n  dup3\n  add\n  dup6\n  dup2\n  gt\n  iszero\n  tag_4\n  jumpi\n  0x00\n  dup1\n  revert\ntag_4:\n  dup3\n  mload\n  0x0100000000\n  dup2\n  gt\n  dup3\n  dup3\n  add\n  dup9\n  lt\n  or\n  iszero\n  tag_5\n  jumpi\n  0x00\n  dup1\n  revert\ntag_5:\n  dup3\n  mstore\n  pop\n  dup2\n  mload\n  0x20\n  swap2\n  dup3\n  add\n  swap3\n  swap1\n  swap2\n  add\n  swap1\n  dup1\n  dup4\n  dup4\n  0x00\ntag_6:\n  dup4\n  dup2\n  lt\n  iszero\n  tag_8\n  jumpi\n  dup2\n  dup2\n  add\n  mload\n  dup4\n  dup3\n  add\n  mstore\n  0x20\n  add\n  jump(tag_6)\ntag_8:\n  pop\n  pop\n  pop\n  pop\n  swap1\n  pop\n  swap1\n  dup2\n  add\n  swap1\n  0x1f\n  and\n  dup1\n  iszero\n  tag_9\n  jumpi\n  dup1\n  dup3\n  sub\n  dup1\n  mload\n  0x01\n  dup4\n  0x20\n  sub\n  0x0100\n  exp\n  sub\n  not\n  and\n  dup2\n  mstore\n  0x20\n  add\n  swap2\n  pop\ntag_9:\n  pop\n  0x40\n  mstore\n  0x20\n  add\n  dup1\n  mload\n  mload(0x40)\n  swap4\n  swap3\n  swap2\n  swap1\n  dup5\n  0x0100000000\n  dup3\n  gt\n  iszero\n  tag_10\n  jumpi\n  0x00\n  dup1\n  revert\ntag_10:\n  swap1\n  dup4\n  add\n  swap1\n  0x20\n  dup3\n  add\n  dup6\n  dup2\n  gt\n  iszero\n  tag_11\n  jumpi\n  0x00\n  dup1\n  revert\ntag_11:\n  dup3\n  mload\n  0x0100000000\n  dup2\n  gt\n  dup3\n  dup3\n  add\n  dup9\n  lt\n  or\n  iszero\n  tag_12\n  jumpi\n  0x00\n  dup1\n  revert\ntag_12:\n  dup3\n  mstore\n  pop\n  dup2\n  mload\n  0x20\n  swap2\n  dup3\n  add\n  swap3\n  swap1\n  swap2\n  add\n  swap1\n  dup1\n  dup4\n  dup4\n  0x00\ntag_13:\n  dup4\n  dup2\n  lt\n  iszero\n  tag_15\n  jumpi\n  dup2\n  dup2\n  add\n  mload\n  dup4\n  dup3\n  add\n  mstore\n  0x20\n  add\n  jump(tag_13)\ntag_15:\n  pop\n  pop\n  pop\n  pop\n  swap1\n  pop\n  swap1\n  dup2\n  add\n  swap1\n  0x1f\n  and\n  dup1\n  iszero\n  tag_16\n  jumpi\n  dup1\n  dup3\n  sub\n  dup1\n  mload\n  0x01\n  dup4\n  0x20\n  sub\n  0x0100\n  exp\n  sub\n  not\n  and\n  dup2\n  mstore\n  0x20\n  add\n  swap2\n  pop\ntag_16:\n  pop\n  0x40\n  mstore\n  pop\n  pop\n    /* \"contracts/includes.sol\":3282:3295  _name = name_ */\n  dup3\n  mload\n    /* \"contracts/dethDividendTracker.sol\":1348:1353  _name */\n  dup4\n  swap2\n  pop\n    /* \"contracts/dethDividendTracker.sol\":1355:1362  _symbol */\n  dup3\n  swap1\n    /* \"contracts/includes.sol\":3282:3295  _name = name_ */\n  tag_20\n  swap1\n    /* \"contracts/includes.sol\":3282:3287  _name */\n  0x03\n  swap1\n    /* \"contracts/includes.sol\":3282:3295  _name = name_ */\n  0x20\n  dup6\n  add\n  swap1\n  tag_21\n  jump\t// in\ntag_20:\n  pop\n    /* \"contracts/includes.sol\":3306:3323  _symbol = symbol_ */\n  dup1\n  mload\n  tag_22\n  swap1\n    /* \"contracts/includes.sol\":3306:3313  _symbol */\n  0x04\n  swap1\n    /* \"contracts/includes.sol\":3306:3323  _symbol = symbol_ */\n  0x20\n  dup5\n  add\n  swap1\n  tag_21\n  jump\t// in\ntag_22:\n  pop\n    /* \"contracts/includes.sol\":3208:3331  constructor(string memory name_, string memory symbol_) public {\r... */\n  pop\n  pop\n    /* \"contracts/dethDividendTracker.sol\":1279:1372  constructor(string memory _name, string memory _symbol) public ERC20(_name, _symbol) {\r... */\n  pop\n  pop\n    /* \"contracts/dethDividendTracker.sol\":789:4610  contract DividendPayingToken is ERC20, DividendPayingTokenInterface, DividendPayingTokenOptionalInterface {\r... */\n  jump(tag_24)\ntag_21:\n  dup3\n  dup1\n  sload\n  0x01\n  dup2\n  0x01\n  and\n  iszero\n  0x0100\n  mul\n  sub\n  and\n  0x02\n  swap1\n  div\n  swap1\n  0x00\n  mstore\n  keccak256(0x00, 0x20)\n  swap1\n  0x1f\n  add\n  0x20\n  swap1\n  div\n  dup2\n  add\n  swap3\n  dup3\n  0x1f\n  lt\n  tag_26\n  jumpi\n  dup1\n  mload\n  not(0xff)\n  and\n  dup4\n  dup1\n  add\n  or\n  dup6\n  sstore\n  jump(tag_28)\ntag_26:\n  dup3\n  dup1\n  add\n  0x01\n  add\n  dup6\n  sstore\n  dup3\n  iszero\n  tag_28\n  jumpi\n  swap2\n  dup3\n  add\ntag_27:\n  dup3\n  dup2\n  gt\n  iszero\n  tag_28\n  jumpi\n  dup3\n  mload\n  dup3\n  sstore\n  swap2\n  0x20\n  add\n  swap2\n  swap1\n  0x01\n  add\n  swap1\n  jump(tag_27)\ntag_28:\n  pop\n  tag_29\n  swap3\n  swap2\n  pop\n  tag_30\n  jump\t// in\ntag_29:\n  pop\n  swap1\n  jump\t// out\ntag_30:\ntag_31:\n  dup1\n  dup3\n  gt\n  iszero\n  tag_29\n  jumpi\n  0x00\n  dup2\n  sstore\n  0x01\n  add\n  jump(tag_31)\ntag_24:\n  dataSize(sub_0)\n  dup1\n  dataOffset(sub_0)\n  0x00\n  codecopy\n  0x00\n  return\nstop\n\nsub_0: assembly {\n        /* \"contracts/dethDividendTracker.sol\":789:4610  contract DividendPayingToken is ERC20, DividendPayingTokenInterface, DividendPayingTokenOptionalInterface {\r... */\n      mstore(0x40, 0x80)\n      jumpi(tag_1, lt(calldatasize, 0x04))\n      shr(0xe0, calldataload(0x00))\n      dup1\n      0x70a08231\n      gt\n      tag_21\n      jumpi\n      dup1\n      0xa457c2d7\n      gt\n      tag_22\n      jumpi\n      dup1\n      0xa457c2d7\n      eq\n      tag_16\n      jumpi\n      dup1\n      0xa8b9d240\n      eq\n      tag_17\n      jumpi\n      dup1\n      0xa9059cbb\n      eq\n      tag_18\n      jumpi\n      dup1\n      0xaafd847a\n      eq\n      tag_19\n      jumpi\n      dup1\n      0xdd62ed3e\n      eq\n      tag_20\n      jumpi\n      jump(tag_2)\n    tag_22:\n      dup1\n      0x70a08231\n      eq\n      tag_12\n      jumpi\n      dup1\n      0x85a6b3ae\n      eq\n      tag_13\n      jumpi\n      dup1\n      0x91b89fba\n      eq\n      tag_14\n      jumpi\n      dup1\n      0x95d89b41\n      eq\n      tag_15\n      jumpi\n      jump(tag_2)\n    tag_21:\n      dup1\n      0x23b872dd\n      gt\n      tag_23\n      jumpi\n      dup1\n      0x23b872dd\n      eq\n      tag_7\n      jumpi\n      dup1\n      0x27ce0147\n      eq\n      tag_8\n      jumpi\n      dup1\n      0x313ce567\n      eq\n      tag_9\n      jumpi\n      dup1\n      0x39509351\n      eq\n      tag_10\n      jumpi\n      dup1\n      0x6a474002\n      eq\n      tag_11\n      jumpi\n      jump(tag_2)\n    tag_23:\n      dup1\n      0x03c83302\n      eq\n      tag_3\n      jumpi\n      dup1\n      0x06fdde03\n      eq\n      tag_4\n      jumpi\n      dup1\n      0x095ea7b3\n      eq\n      tag_5\n      jumpi\n      dup1\n      0x18160ddd\n      eq\n      tag_6\n      jumpi\n      jump(tag_2)\n    tag_1:\n      jumpi(tag_2, calldatasize)\n        /* \"contracts/dethDividendTracker.sol\":1412:1433  distributeDividends() */\n      tag_26\n        /* \"contracts/dethDividendTracker.sol\":1412:1431  distributeDividends */\n      tag_27\n        /* \"contracts/dethDividendTracker.sol\":1412:1433  distributeDividends() */\n      jump\t// in\n    tag_26:\n        /* \"contracts/dethDividendTracker.sol\":789:4610  contract DividendPayingToken is ERC20, DividendPayingTokenInterface, DividendPayingTokenOptionalInterface {\r... */\n      stop\n    tag_2:\n      0x00\n      dup1\n      revert\n        /* \"contracts/dethDividendTracker.sol\":1445:1838  function distributeDividends() public override payable {\r... */\n    tag_3:\n      tag_26\n      tag_27\n      jump\t// in\n        /* \"contracts/includes.sol\":3339:3439  function name() public view virtual override returns (string memory) {\r... */\n    tag_4:\n      callvalue\n      dup1\n      iszero\n      tag_29\n      jumpi\n      0x00\n      dup1\n      revert\n    tag_29:\n      pop\n      tag_30\n      tag_31\n      jump\t// in\n    tag_30:\n      0x40\n      dup1\n      mload\n      0x20\n      dup1\n      dup3\n      mstore\n      dup4\n      mload\n      dup2\n      dup4\n      add\n      mstore\n      dup4\n      mload\n      swap2\n      swap3\n      dup4\n      swap3\n      swap1\n      dup4\n      add\n      swap2\n      dup6\n      add\n      swap1\n      dup1\n      dup4\n      dup4\n      0x00\n    tag_32:\n      dup4\n      dup2\n      lt\n      iszero\n      tag_34\n      jumpi\n      dup2\n      dup2\n      add\n      mload\n      dup4\n      dup3\n      add\n      mstore\n      0x20\n      add\n      jump(tag_32)\n    tag_34:\n      pop\n      pop\n      pop\n      pop\n      swap1\n      pop\n      swap1\n      dup2\n      add\n      swap1\n      0x1f\n      and\n      dup1\n      iszero\n      tag_35\n      jumpi\n      dup1\n      dup3\n      sub\n      dup1\n      mload\n      0x01\n      dup4\n      0x20\n      sub\n      0x0100\n      exp\n      sub\n      not\n      and\n      dup2\n      mstore\n      0x20\n      add\n      swap2\n      pop\n    tag_35:\n      pop\n      swap3\n      pop\n      pop\n      pop\n      mload(0x40)\n      dup1\n      swap2\n      sub\n      swap1\n      return\n        /* \"contracts/includes.sol\":4253:4422  function approve(address spender, uint256 amount) public virtual override returns (bool) {\r... */\n    tag_5:\n      callvalue\n      dup1\n      iszero\n      tag_36\n      jumpi\n      0x00\n      dup1\n      revert\n    tag_36:\n      pop\n      tag_37\n      0x04\n      dup1\n      calldatasize\n      sub\n      0x40\n      dup2\n      lt\n      iszero\n      tag_38\n      jumpi\n      0x00\n      dup1\n      revert\n    tag_38:\n      pop\n      sub(shl(0xa0, 0x01), 0x01)\n      dup2\n      calldataload\n      and\n      swap1\n      0x20\n      add\n      calldataload\n      tag_39\n      jump\t// in\n    tag_37:\n      0x40\n      dup1\n      mload\n      swap2\n      iszero\n      iszero\n      dup3\n      mstore\n      mload\n      swap1\n      dup2\n      swap1\n      sub\n      0x20\n      add\n      swap1\n      return\n        /* \"contracts/includes.sol\":3660:3768  function totalSupply() public view virtual override returns (uint256) {\r... */\n    tag_6:\n      callvalue\n      dup1\n      iszero\n      tag_40\n      jumpi\n      0x00\n      dup1\n      revert\n    tag_40:\n      pop\n      tag_41\n      tag_42\n      jump\t// in\n    tag_41:\n      0x40\n      dup1\n      mload\n      swap2\n      dup3\n      mstore\n      mload\n      swap1\n      dup2\n      swap1\n      sub\n      0x20\n      add\n      swap1\n      return\n        /* \"contracts/includes.sol\":4430:4785  function transferFrom(\r... */\n    tag_7:\n      callvalue\n      dup1\n      iszero\n      tag_43\n      jumpi\n      0x00\n      dup1\n      revert\n    tag_43:\n      pop\n      tag_37\n      0x04\n      dup1\n      calldatasize\n      sub\n      0x60\n      dup2\n      lt\n      iszero\n      tag_45\n      jumpi\n      0x00\n      dup1\n      revert\n    tag_45:\n      pop\n      sub(shl(0xa0, 0x01), 0x01)\n      dup2\n      calldataload\n      dup2\n      and\n      swap2\n      0x20\n      dup2\n      add\n      calldataload\n      swap1\n      swap2\n      and\n      swap1\n      0x40\n      add\n      calldataload\n      tag_46\n      jump\t// in\n        /* \"contracts/dethDividendTracker.sol\":3020:3267  function accumulativeDividendOf(address _owner) public view override returns(uint256) {\r... */\n    tag_8:\n      callvalue\n      dup1\n      iszero\n      tag_47\n      jumpi\n      0x00\n      dup1\n      revert\n    tag_47:\n      pop\n      tag_41\n      0x04\n      dup1\n      calldatasize\n      sub\n      0x20\n      dup2\n      lt\n      iszero\n      tag_49\n      jumpi\n      0x00\n      dup1\n      revert\n    tag_49:\n      pop\n      calldataload\n      sub(shl(0xa0, 0x01), 0x01)\n      and\n      tag_50\n      jump\t// in\n        /* \"contracts/includes.sol\":3559:3652  function decimals() public view virtual override returns (uint8) {\r... */\n    tag_9:\n      callvalue\n      dup1\n      iszero\n      tag_51\n      jumpi\n      0x00\n      dup1\n      revert\n    tag_51:\n      pop\n      tag_52\n      tag_53\n      jump\t// in\n    tag_52:\n      0x40\n      dup1\n      mload\n      0xff\n      swap1\n      swap3\n      and\n      dup3\n      mstore\n      mload\n      swap1\n      dup2\n      swap1\n      sub\n      0x20\n      add\n      swap1\n      return\n        /* \"contracts/includes.sol\":4793:5011  function increaseAllowance(address spender, uint256 addedValue) public virtual returns (bool) {\r... */\n    tag_10:\n      callvalue\n      dup1\n      iszero\n      tag_54\n      jumpi\n      0x00\n      dup1\n      revert\n    tag_54:\n      pop\n      tag_37\n      0x04\n      dup1\n      calldatasize\n      sub\n      0x40\n      dup2\n      lt\n      iszero\n      tag_56\n      jumpi\n      0x00\n      dup1\n      revert\n    tag_56:\n      pop\n      sub(shl(0xa0, 0x01), 0x01)\n      dup2\n      calldataload\n      and\n      swap1\n      0x20\n      add\n      calldataload\n      tag_57\n      jump\t// in\n        /* \"contracts/dethDividendTracker.sol\":1844:1944  function withdrawDividend() public virtual override {\r... */\n    tag_11:\n      callvalue\n      dup1\n      iszero\n      tag_58\n      jumpi\n      0x00\n      dup1\n      revert\n    tag_58:\n      pop\n      tag_26\n      tag_60\n      jump\t// in\n        /* \"contracts/includes.sol\":3776:3903  function balanceOf(address account) public view virtual override returns (uint256) {\r... */\n    tag_12:\n      callvalue\n      dup1\n      iszero\n      tag_61\n      jumpi\n      0x00\n      dup1\n      revert\n    tag_61:\n      pop\n      tag_41\n      0x04\n      dup1\n      calldatasize\n      sub\n      0x20\n      dup2\n      lt\n      iszero\n      tag_63\n      jumpi\n      0x00\n      dup1\n      revert\n    tag_63:\n      pop\n      calldataload\n      sub(shl(0xa0, 0x01), 0x01)\n      and\n      tag_64\n      jump\t// in\n        /* \"contracts/dethDividendTracker.sol\":1232:1272  uint256 public totalDividendsDistributed */\n    tag_13:\n      callvalue\n      dup1\n      iszero\n      tag_65\n      jumpi\n      0x00\n      dup1\n      revert\n    tag_65:\n      pop\n      tag_41\n      tag_67\n      jump\t// in\n        /* \"contracts/dethDividendTracker.sol\":2581:2705  function dividendOf(address _owner) public view override returns(uint256) {\r... */\n    tag_14:\n      callvalue\n      dup1\n      iszero\n      tag_68\n      jumpi\n      0x00\n      dup1\n      revert\n    tag_68:\n      pop\n      tag_41\n      0x04\n      dup1\n      calldatasize\n      sub\n      0x20\n      dup2\n      lt\n      iszero\n      tag_70\n      jumpi\n      0x00\n      dup1\n      revert\n    tag_70:\n      pop\n      calldataload\n      sub(shl(0xa0, 0x01), 0x01)\n      and\n      tag_71\n      jump\t// in\n        /* \"contracts/includes.sol\":3447:3551  function symbol() public view virtual override returns (string memory) {\r... */\n    tag_15:\n      callvalue\n      dup1\n      iszero\n      tag_72\n      jumpi\n      0x00\n      dup1\n      revert\n    tag_72:\n      pop\n      tag_30\n      tag_74\n      jump\t// in\n        /* \"contracts/includes.sol\":5019:5288  function decreaseAllowance(address spender, uint256 subtractedValue) public virtual returns (bool) {\r... */\n    tag_16:\n      callvalue\n      dup1\n      iszero\n      tag_79\n      jumpi\n      0x00\n      dup1\n      revert\n    tag_79:\n      pop\n      tag_37\n      0x04\n      dup1\n      calldatasize\n      sub\n      0x40\n      dup2\n      lt\n      iszero\n      tag_81\n      jumpi\n      0x00\n      dup1\n      revert\n    tag_81:\n      pop\n      sub(shl(0xa0, 0x01), 0x01)\n      dup2\n      calldataload\n      and\n      swap1\n      0x20\n      add\n      calldataload\n      tag_82\n      jump\t// in\n        /* \"contracts/dethDividendTracker.sol\":2711:2879  function withdrawableDividendOf(address _owner) public view override returns(uint256) {\r... */\n    tag_17:\n      callvalue\n      dup1\n      iszero\n      tag_83\n      jumpi\n      0x00\n      dup1\n      revert\n    tag_83:\n      pop\n      tag_41\n      0x04\n      dup1\n      calldatasize\n      sub\n      0x20\n      dup2\n      lt\n      iszero\n      tag_85\n      jumpi\n      0x00\n      dup1\n      revert\n    tag_85:\n      pop\n      calldataload\n      sub(shl(0xa0, 0x01), 0x01)\n      and\n      tag_86\n      jump\t// in\n        /* \"contracts/includes.sol\":3911:4086  function transfer(address recipient, uint256 amount) public virtual override returns (bool) {\r... */\n    tag_18:\n      callvalue\n      dup1\n      iszero\n      tag_87\n      jumpi\n      0x00\n      dup1\n      revert\n    tag_87:\n      pop\n      tag_37\n      0x04\n      dup1\n      calldatasize\n      sub\n      0x40\n      dup2\n      lt\n      iszero\n      tag_89\n      jumpi\n      0x00\n      dup1\n      revert\n    tag_89:\n      pop\n      sub(shl(0xa0, 0x01), 0x01)\n      dup2\n      calldataload\n      and\n      swap1\n      0x20\n      add\n      calldataload\n      tag_90\n      jump\t// in\n        /* \"contracts/dethDividendTracker.sol\":2885:3014  function withdrawnDividendOf(address _owner) public view override returns(uint256) {\r... */\n    tag_19:\n      callvalue\n      dup1\n      iszero\n      tag_91\n      jumpi\n      0x00\n      dup1\n      revert\n    tag_91:\n      pop\n      tag_41\n      0x04\n      dup1\n      calldatasize\n      sub\n      0x20\n      dup2\n      lt\n      iszero\n      tag_93\n      jumpi\n      0x00\n      dup1\n      revert\n    tag_93:\n      pop\n      calldataload\n      sub(shl(0xa0, 0x01), 0x01)\n      and\n      tag_94\n      jump\t// in\n        /* \"contracts/includes.sol\":4094:4245  function allowance(address owner, address spender) public view virtual override returns (uint256) {\r... */\n    tag_20:\n      callvalue\n      dup1\n      iszero\n      tag_95\n      jumpi\n      0x00\n      dup1\n      revert\n    tag_95:\n      pop\n      tag_41\n      0x04\n      dup1\n      calldatasize\n      sub\n      0x40\n      dup2\n      lt\n      iszero\n      tag_97\n      jumpi\n      0x00\n      dup1\n      revert\n    tag_97:\n      pop\n      sub(shl(0xa0, 0x01), 0x01)\n      dup2\n      calldataload\n      dup2\n      and\n      swap2\n      0x20\n      add\n      calldataload\n      and\n      tag_98\n      jump\t// in\n        /* \"contracts/dethDividendTracker.sol\":1445:1838  function distributeDividends() public override payable {\r... */\n    tag_27:\n        /* \"contracts/dethDividendTracker.sol\":1531:1532  0 */\n      0x00\n        /* \"contracts/dethDividendTracker.sol\":1515:1528  totalSupply() */\n      tag_100\n        /* \"contracts/dethDividendTracker.sol\":1515:1526  totalSupply */\n      tag_42\n        /* \"contracts/dethDividendTracker.sol\":1515:1528  totalSupply() */\n      jump\t// in\n    tag_100:\n        /* \"contracts/dethDividendTracker.sol\":1515:1532  totalSupply() > 0 */\n      gt\n        /* \"contracts/dethDividendTracker.sol\":1507:1533  require(totalSupply() > 0) */\n      tag_101\n      jumpi\n      0x00\n      dup1\n      revert\n    tag_101:\n        /* \"contracts/dethDividendTracker.sol\":1546:1555  msg.value */\n      callvalue\n        /* \"contracts/dethDividendTracker.sol\":1546:1559  msg.value > 0 */\n      iszero\n        /* \"contracts/dethDividendTracker.sol\":1542:1833  if (msg.value > 0) {\r... */\n      tag_102\n      jumpi\n        /* \"contracts/dethDividendTracker.sol\":1598:1689  magnifiedDividendPerShare.add(\r... */\n      tag_103\n        /* \"contracts/dethDividendTracker.sol\":1667:1680  totalSupply() */\n      tag_104\n        /* \"contracts/dethDividendTracker.sol\":1667:1678  totalSupply */\n      tag_42\n        /* \"contracts/dethDividendTracker.sol\":1667:1680  totalSupply() */\n      jump\t// in\n    tag_104:\n        /* \"contracts/dethDividendTracker.sol\":1638:1664  (msg.value).mul(magnitude) */\n      tag_105\n        /* \"contracts/dethDividendTracker.sol\":1639:1648  msg.value */\n      callvalue\n      shl(0x80, 0x01)\n        /* \"contracts/dethDividendTracker.sol\":1638:1653  (msg.value).mul */\n      tag_106\n        /* \"contracts/dethDividendTracker.sol\":1638:1664  (msg.value).mul(magnitude) */\n      jump\t// in\n    tag_105:\n        /* \"contracts/dethDividendTracker.sol\":1638:1680  (msg.value).mul(magnitude) / totalSupply() */\n      dup2\n      tag_107\n      jumpi\n      invalid\n    tag_107:\n        /* \"contracts/dethDividendTracker.sol\":1598:1623  magnifiedDividendPerShare */\n      sload(0x05)\n      swap2\n        /* \"contracts/dethDividendTracker.sol\":1638:1680  (msg.value).mul(magnitude) / totalSupply() */\n      swap1\n      div\n        /* \"contracts/dethDividendTracker.sol\":1598:1627  magnifiedDividendPerShare.add */\n      tag_108\n        /* \"contracts/dethDividendTracker.sol\":1598:1689  magnifiedDividendPerShare.add(\r... */\n      jump\t// in\n    tag_103:\n        /* \"contracts/dethDividendTracker.sol\":1570:1595  magnifiedDividendPerShare */\n      0x05\n        /* \"contracts/dethDividendTracker.sol\":1570:1689  magnifiedDividendPerShare = magnifiedDividendPerShare.add(\r... */\n      sstore\n        /* \"contracts/dethDividendTracker.sol\":1703:1746  DividendsDistributed(msg.sender, msg.value) */\n      0x40\n      dup1\n      mload\n        /* \"contracts/dethDividendTracker.sol\":1736:1745  msg.value */\n      callvalue\n        /* \"contracts/dethDividendTracker.sol\":1703:1746  DividendsDistributed(msg.sender, msg.value) */\n      dup2\n      mstore\n      swap1\n      mload\n        /* \"contracts/dethDividendTracker.sol\":1724:1734  msg.sender */\n      caller\n      swap2\n        /* \"contracts/dethDividendTracker.sol\":1703:1746  DividendsDistributed(msg.sender, msg.value) */\n      0xa493a9229478c3fcd73f66d2cdeb7f94fd0f341da924d1054236d78454116511\n      swap2\n      swap1\n      dup2\n      swap1\n      sub\n      0x20\n      add\n      swap1\n      log2\n        /* \"contracts/dethDividendTracker.sol\":1785:1810  totalDividendsDistributed */\n      sload(0x08)\n        /* \"contracts/dethDividendTracker.sol\":1785:1825  totalDividendsDistributed.add(msg.value) */\n      tag_109\n      swap1\n        /* \"contracts/dethDividendTracker.sol\":1815:1824  msg.value */\n      callvalue\n        /* \"contracts/dethDividendTracker.sol\":1785:1814  totalDividendsDistributed.add */\n      tag_108\n        /* \"contracts/dethDividendTracker.sol\":1785:1825  totalDividendsDistributed.add(msg.value) */\n      jump\t// in\n    tag_109:\n        /* \"contracts/dethDividendTracker.sol\":1757:1782  totalDividendsDistributed */\n      0x08\n        /* \"contracts/dethDividendTracker.sol\":1757:1825  totalDividendsDistributed = totalDividendsDistributed.add(msg.value) */\n      sstore\n        /* \"contracts/dethDividendTracker.sol\":1542:1833  if (msg.value > 0) {\r... */\n    tag_102:\n        /* \"contracts/dethDividendTracker.sol\":1445:1838  function distributeDividends() public override payable {\r... */\n      jump\t// out\n        /* \"contracts/includes.sol\":3339:3439  function name() public view virtual override returns (string memory) {\r... */\n    tag_31:\n        /* \"contracts/includes.sol\":3426:3431  _name */\n      0x03\n        /* \"contracts/includes.sol\":3419:3431  return _name */\n      dup1\n      sload\n      0x40\n      dup1\n      mload\n      0x20\n      0x1f\n      0x02\n      not(0x00)\n      0x0100\n      0x01\n      dup9\n      and\n      iszero\n      mul\n      add\n      swap1\n      swap6\n      and\n      swap5\n      swap1\n      swap5\n      div\n      swap4\n      dup5\n      add\n      dup2\n      swap1\n      div\n      dup2\n      mul\n      dup3\n      add\n      dup2\n      add\n      swap1\n      swap3\n      mstore\n      dup3\n      dup2\n      mstore\n        /* \"contracts/includes.sol\":3393:3406  string memory */\n      0x60\n      swap4\n        /* \"contracts/includes.sol\":3419:3431  return _name */\n      swap1\n      swap3\n        /* \"contracts/includes.sol\":3426:3431  _name */\n      swap1\n      swap2\n        /* \"contracts/includes.sol\":3419:3431  return _name */\n      dup4\n      add\n        /* \"contracts/includes.sol\":3426:3431  _name */\n      dup3\n        /* \"contracts/includes.sol\":3419:3431  return _name */\n      dup3\n      dup1\n      iszero\n      tag_111\n      jumpi\n      dup1\n      0x1f\n      lt\n      tag_112\n      jumpi\n      0x0100\n      dup1\n      dup4\n      sload\n      div\n      mul\n      dup4\n      mstore\n      swap2\n      0x20\n      add\n      swap2\n      jump(tag_111)\n    tag_112:\n      dup3\n      add\n      swap2\n      swap1\n      0x00\n      mstore\n      keccak256(0x00, 0x20)\n      swap1\n    tag_113:\n      dup2\n      sload\n      dup2\n      mstore\n      swap1\n      0x01\n      add\n      swap1\n      0x20\n      add\n      dup1\n      dup4\n      gt\n      tag_113\n      jumpi\n      dup3\n      swap1\n      sub\n      0x1f\n      and\n      dup3\n      add\n      swap2\n    tag_111:\n      pop\n      pop\n      pop\n      pop\n      pop\n      swap1\n      pop\n        /* \"contracts/includes.sol\":3339:3439  function name() public view virtual override returns (string memory) {\r... */\n      swap1\n      jump\t// out\n        /* \"contracts/includes.sol\":4253:4422  function approve(address spender, uint256 amount) public virtual override returns (bool) {\r... */\n    tag_39:\n        /* \"contracts/includes.sol\":4336:4340  bool */\n      0x00\n        /* \"contracts/includes.sol\":4353:4392  _approve(_msgSender(), spender, amount) */\n      tag_115\n        /* \"contracts/includes.sol\":4362:4374  _msgSender() */\n      tag_116\n        /* \"contracts/includes.sol\":4362:4372  _msgSender */\n      tag_117\n        /* \"contracts/includes.sol\":4362:4374  _msgSender() */\n      jump\t// in\n    tag_116:\n        /* \"contracts/includes.sol\":4376:4383  spender */\n      dup5\n        /* \"contracts/includes.sol\":4385:4391  amount */\n      dup5\n        /* \"contracts/includes.sol\":4353:4361  _approve */\n      tag_118\n        /* \"contracts/includes.sol\":4353:4392  _approve(_msgSender(), spender, amount) */\n      jump\t// in\n    tag_115:\n      pop\n        /* \"contracts/includes.sol\":4410:4414  true */\n      0x01\n        /* \"contracts/includes.sol\":4253:4422  function approve(address spender, uint256 amount) public virtual override returns (bool) {\r... */\n    tag_114:\n      swap3\n      swap2\n      pop\n      pop\n      jump\t// out\n        /* \"contracts/includes.sol\":3660:3768  function totalSupply() public view virtual override returns (uint256) {\r... */\n    tag_42:\n        /* \"contracts/includes.sol\":3748:3760  _totalSupply */\n      sload(0x02)\n        /* \"contracts/includes.sol\":3660:3768  function totalSupply() public view virtual override returns (uint256) {\r... */\n      swap1\n      jump\t// out\n        /* \"contracts/includes.sol\":4430:4785  function transferFrom(\r... */\n    tag_46:\n        /* \"contracts/includes.sol\":4570:4574  bool */\n      0x00\n        /* \"contracts/includes.sol\":4587:4623  _transfer(sender, recipient, amount) */\n      tag_121\n        /* \"contracts/includes.sol\":4597:4603  sender */\n      dup5\n        /* \"contracts/includes.sol\":4605:4614  recipient */\n      dup5\n        /* \"contracts/includes.sol\":4616:4622  amount */\n      dup5\n        /* \"contracts/includes.sol\":4587:4596  _transfer */\n      tag_2\n        /* \"contracts/includes.sol\":4587:4623  _transfer(sender, recipient, amount) */\n      jump\t// in\n    tag_121:\n        /* \"contracts/includes.sol\":4634:4755  _approve(sender, _msgSender(), _allowances[sender][_msgSender()].sub(amount, \"ERC20: transfer amount exceeds allowance\")) */\n      tag_123\n        /* \"contracts/includes.sol\":4643:4649  sender */\n      dup5\n        /* \"contracts/includes.sol\":4651:4663  _msgSender() */\n      tag_124\n        /* \"contracts/includes.sol\":4651:4661  _msgSender */\n      tag_117\n        /* \"contracts/includes.sol\":4651:4663  _msgSender() */\n      jump\t// in\n    tag_124:\n        /* \"contracts/includes.sol\":4665:4754  _allowances[sender][_msgSender()].sub(amount, \"ERC20: transfer amount exceeds allowance\") */\n      tag_125\n        /* \"contracts/includes.sol\":4703:4709  amount */\n      dup6\n        /* \"contracts/includes.sol\":4665:4754  _allowances[sender][_msgSender()].sub(amount, \"ERC20: transfer amount exceeds allowance\") */\n      mload(0x40)\n      dup1\n      0x60\n      add\n      0x40\n      mstore\n      dup1\n      0x28\n      dup2\n      mstore\n      0x20\n      add\n      data_974d1b4421da69cc60b481194f0dad36a5bb4e23da810da7a7fb30cdba178330\n      0x28\n      swap2\n      codecopy\n      sub(shl(0xa0, 0x01), 0x01)\n        /* \"contracts/includes.sol\":4665:4684  _allowances[sender] */\n      dup11\n      and\n      0x00\n      swap1\n      dup2\n      mstore\n        /* \"contracts/includes.sol\":4665:4676  _allowances */\n      0x01\n        /* \"contracts/includes.sol\":4665:4684  _allowances[sender] */\n      0x20\n      mstore\n      0x40\n      dup2\n      keccak256\n      swap1\n        /* \"contracts/includes.sol\":4685:4697  _msgSender() */\n      tag_126\n        /* \"contracts/includes.sol\":4685:4695  _msgSender */\n      tag_117\n        /* \"contracts/includes.sol\":4685:4697  _msgSender() */\n      jump\t// in\n    tag_126:\n      sub(shl(0xa0, 0x01), 0x01)\n        /* \"contracts/includes.sol\":4665:4698  _allowances[sender][_msgSender()] */\n      and\n      dup2\n      mstore\n      0x20\n      dup2\n      add\n      swap2\n      swap1\n      swap2\n      mstore\n      0x40\n      add\n      0x00\n      keccak256\n      sload\n      swap2\n        /* \"contracts/includes.sol\":4665:4754  _allowances[sender][_msgSender()].sub(amount, \"ERC20: transfer amount exceeds allowance\") */\n      swap1\n        /* \"contracts/includes.sol\":4665:4702  _allowances[sender][_msgSender()].sub */\n      tag_127\n        /* \"contracts/includes.sol\":4665:4754  _allowances[sender][_msgSender()].sub(amount, \"ERC20: transfer amount exceeds allowance\") */\n      jump\t// in\n    tag_125:\n        /* \"contracts/includes.sol\":4634:4642  _approve */\n      tag_118\n        /* \"contracts/includes.sol\":4634:4755  _approve(sender, _msgSender(), _allowances[sender][_msgSender()].sub(amount, \"ERC20: transfer amount exceeds allowance\")) */\n      jump\t// in\n    tag_123:\n      pop\n        /* \"contracts/includes.sol\":4773:4777  true */\n      0x01\n        /* \"contracts/includes.sol\":4430:4785  function transferFrom(\r... */\n      swap4\n      swap3\n      pop\n      pop\n      pop\n      jump\t// out\n        /* \"contracts/dethDividendTracker.sol\":3020:3267  function accumulativeDividendOf(address _owner) public view override returns(uint256) {\r... */\n    tag_50:\n      sub(shl(0xa0, 0x01), 0x01)\n        /* \"contracts/dethDividendTracker.sol\":3196:3232  magnifiedDividendCorrections[_owner] */\n      dup2\n      and\n        /* \"contracts/dethDividendTracker.sol\":3097:3104  uint256 */\n      0x00\n        /* \"contracts/dethDividendTracker.sol\":3196:3232  magnifiedDividendCorrections[_owner] */\n      swap1\n      dup2\n      mstore\n        /* \"contracts/dethDividendTracker.sol\":3196:3224  magnifiedDividendCorrections */\n      0x06\n        /* \"contracts/dethDividendTracker.sol\":3196:3232  magnifiedDividendCorrections[_owner] */\n      0x20\n      mstore\n      0x40\n      dup2\n      keccak256\n      sload\n      shl(0x80, 0x01)\n        /* \"contracts/dethDividendTracker.sol\":1039:1045  2**128 */\n      swap1\n        /* \"contracts/dethDividendTracker.sol\":3120:3249  magnifiedDividendPerShare.mul(balanceOf(_owner)).toInt256Safe()\r... */\n      tag_129\n      swap1\n        /* \"contracts/dethDividendTracker.sol\":3120:3233  magnifiedDividendPerShare.mul(balanceOf(_owner)).toInt256Safe()\r... */\n      tag_130\n      swap1\n        /* \"contracts/dethDividendTracker.sol\":3120:3183  magnifiedDividendPerShare.mul(balanceOf(_owner)).toInt256Safe() */\n      tag_131\n        /* \"contracts/dethDividendTracker.sol\":3120:3168  magnifiedDividendPerShare.mul(balanceOf(_owner)) */\n      tag_132\n        /* \"contracts/dethDividendTracker.sol\":3150:3167  balanceOf(_owner) */\n      tag_133\n        /* \"contracts/dethDividendTracker.sol\":3225:3231  _owner */\n      dup9\n        /* \"contracts/dethDividendTracker.sol\":3150:3159  balanceOf */\n      tag_64\n        /* \"contracts/dethDividendTracker.sol\":3150:3167  balanceOf(_owner) */\n      jump\t// in\n    tag_133:\n        /* \"contracts/dethDividendTracker.sol\":3120:3145  magnifiedDividendPerShare */\n      sload(0x05)\n      swap1\n        /* \"contracts/dethDividendTracker.sol\":3120:3149  magnifiedDividendPerShare.mul */\n      tag_106\n        /* \"contracts/dethDividendTracker.sol\":3120:3168  magnifiedDividendPerShare.mul(balanceOf(_owner)) */\n      jump\t// in\n    tag_132:\n        /* \"contracts/dethDividendTracker.sol\":3120:3181  magnifiedDividendPerShare.mul(balanceOf(_owner)).toInt256Safe */\n      tag_134\n        /* \"contracts/dethDividendTracker.sol\":3120:3183  magnifiedDividendPerShare.mul(balanceOf(_owner)).toInt256Safe() */\n      jump\t// in\n    tag_131:\n        /* \"contracts/dethDividendTracker.sol\":3120:3195  magnifiedDividendPerShare.mul(balanceOf(_owner)).toInt256Safe()\r... */\n      swap1\n      tag_135\n        /* \"contracts/dethDividendTracker.sol\":3120:3233  magnifiedDividendPerShare.mul(balanceOf(_owner)).toInt256Safe()\r... */\n      jump\t// in\n    tag_130:\n        /* \"contracts/dethDividendTracker.sol\":3120:3247  magnifiedDividendPerShare.mul(balanceOf(_owner)).toInt256Safe()\r... */\n      tag_136\n        /* \"contracts/dethDividendTracker.sol\":3120:3249  magnifiedDividendPerShare.mul(balanceOf(_owner)).toInt256Safe()\r... */\n      jump\t// in\n    tag_129:\n        /* \"contracts/dethDividendTracker.sol\":3120:3261  magnifiedDividendPerShare.mul(balanceOf(_owner)).toInt256Safe()\r... */\n      dup2\n      tag_137\n      jumpi\n      invalid\n    tag_137:\n      div\n        /* \"contracts/dethDividendTracker.sol\":3113:3261  return magnifiedDividendPerShare.mul(balanceOf(_owner)).toInt256Safe()\r... */\n      swap1\n      pop\n        /* \"contracts/dethDividendTracker.sol\":3020:3267  function accumulativeDividendOf(address _owner) public view override returns(uint256) {\r... */\n    tag_128:\n      swap2\n      swap1\n      pop\n      jump\t// out\n        /* \"contracts/includes.sol\":3559:3652  function decimals() public view virtual override returns (uint8) {\r... */\n    tag_53:\n        /* \"contracts/includes.sol\":3642:3644  18 */\n      0x12\n        /* \"contracts/includes.sol\":3559:3652  function decimals() public view virtual override returns (uint8) {\r... */\n      swap1\n      jump\t// out\n        /* \"contracts/includes.sol\":4793:5011  function increaseAllowance(address spender, uint256 addedValue) public virtual returns (bool) {\r... */\n    tag_57:\n        /* \"contracts/includes.sol\":4881:4885  bool */\n      0x00\n        /* \"contracts/includes.sol\":4898:4981  _approve(_msgSender(), spender, _allowances[_msgSender()][spender].add(addedValue)) */\n      tag_115\n        /* \"contracts/includes.sol\":4907:4919  _msgSender() */\n      tag_141\n        /* \"contracts/includes.sol\":4907:4917  _msgSender */\n      tag_117\n        /* \"contracts/includes.sol\":4907:4919  _msgSender() */\n      jump\t// in\n    tag_141:\n        /* \"contracts/includes.sol\":4921:4928  spender */\n      dup5\n        /* \"contracts/includes.sol\":4930:4980  _allowances[_msgSender()][spender].add(addedValue) */\n      tag_125\n        /* \"contracts/includes.sol\":4969:4979  addedValue */\n      dup6\n        /* \"contracts/includes.sol\":4930:4941  _allowances */\n      0x01\n        /* \"contracts/includes.sol\":4930:4955  _allowances[_msgSender()] */\n      0x00\n        /* \"contracts/includes.sol\":4942:4954  _msgSender() */\n      tag_143\n        /* \"contracts/includes.sol\":4942:4952  _msgSender */\n      tag_117\n        /* \"contracts/includes.sol\":4942:4954  _msgSender() */\n      jump\t// in\n    tag_143:\n      sub(shl(0xa0, 0x01), 0x01)\n        /* \"contracts/includes.sol\":4930:4955  _allowances[_msgSender()] */\n      swap1\n      dup2\n      and\n      dup3\n      mstore\n      0x20\n      dup1\n      dup4\n      add\n      swap4\n      swap1\n      swap4\n      mstore\n      0x40\n      swap2\n      dup3\n      add\n      0x00\n      swap1\n      dup2\n      keccak256\n        /* \"contracts/includes.sol\":4930:4964  _allowances[_msgSender()][spender] */\n      swap2\n      dup13\n      and\n      dup2\n      mstore\n      swap3\n      mstore\n      swap1\n      keccak256\n      sload\n      swap1\n        /* \"contracts/includes.sol\":4930:4968  _allowances[_msgSender()][spender].add */\n      tag_108\n        /* \"contracts/includes.sol\":4930:4980  _allowances[_msgSender()][spender].add(addedValue) */\n      jump\t// in\n        /* \"contracts/dethDividendTracker.sol\":1844:1944  function withdrawDividend() public virtual override {\r... */\n    tag_60:\n        /* \"contracts/dethDividendTracker.sol\":1903:1938  _withdrawDividendOfUser(msg.sender) */\n      tag_145\n        /* \"contracts/dethDividendTracker.sol\":1927:1937  msg.sender */\n      caller\n        /* \"contracts/dethDividendTracker.sol\":1903:1926  _withdrawDividendOfUser */\n      tag_146\n        /* \"contracts/dethDividendTracker.sol\":1903:1938  _withdrawDividendOfUser(msg.sender) */\n      jump\t// in\n    tag_145:\n      pop\n        /* \"contracts/dethDividendTracker.sol\":1844:1944  function withdrawDividend() public virtual override {\r... */\n      jump\t// out\n        /* \"contracts/includes.sol\":3776:3903  function balanceOf(address account) public view virtual override returns (uint256) {\r... */\n    tag_64:\n      sub(shl(0xa0, 0x01), 0x01)\n        /* \"contracts/includes.sol\":3877:3895  _balances[account] */\n      and\n        /* \"contracts/includes.sol\":3850:3857  uint256 */\n      0x00\n        /* \"contracts/includes.sol\":3877:3895  _balances[account] */\n      swap1\n      dup2\n      mstore\n      0x20\n      dup2\n      swap1\n      mstore\n      0x40\n      swap1\n      keccak256\n      sload\n      swap1\n        /* \"contracts/includes.sol\":3776:3903  function balanceOf(address account) public view virtual override returns (uint256) {\r... */\n      jump\t// out\n        /* \"contracts/dethDividendTracker.sol\":1232:1272  uint256 public totalDividendsDistributed */\n    tag_67:\n      sload(0x08)\n      dup2\n      jump\t// out\n        /* \"contracts/dethDividendTracker.sol\":2581:2705  function dividendOf(address _owner) public view override returns(uint256) {\r... */\n    tag_71:\n        /* \"contracts/dethDividendTracker.sol\":2646:2653  uint256 */\n      0x00\n        /* \"contracts/dethDividendTracker.sol\":2669:2699  withdrawableDividendOf(_owner) */\n      tag_114\n        /* \"contracts/dethDividendTracker.sol\":2692:2698  _owner */\n      dup3\n        /* \"contracts/dethDividendTracker.sol\":2669:2691  withdrawableDividendOf */\n      tag_86\n        /* \"contracts/dethDividendTracker.sol\":2669:2699  withdrawableDividendOf(_owner) */\n      jump\t// in\n        /* \"contracts/includes.sol\":3447:3551  function symbol() public view virtual override returns (string memory) {\r... */\n    tag_74:\n        /* \"contracts/includes.sol\":3536:3543  _symbol */\n      0x04\n        /* \"contracts/includes.sol\":3529:3543  return _symbol */\n      dup1\n      sload\n      0x40\n      dup1\n      mload\n      0x20\n      0x1f\n      0x02\n      not(0x00)\n      0x0100\n      0x01\n      dup9\n      and\n      iszero\n      mul\n      add\n      swap1\n      swap6\n      and\n      swap5\n      swap1\n      swap5\n      div\n      swap4\n      dup5\n      add\n      dup2\n      swap1\n      div\n      dup2\n      mul\n      dup3\n      add\n      dup2\n      add\n      swap1\n      swap3\n      mstore\n      dup3\n      dup2\n      mstore\n        /* \"contracts/includes.sol\":3503:3516  string memory */\n      0x60\n      swap4\n        /* \"contracts/includes.sol\":3529:3543  return _symbol */\n      swap1\n      swap3\n        /* \"contracts/includes.sol\":3536:3543  _symbol */\n      swap1\n      swap2\n        /* \"contracts/includes.sol\":3529:3543  return _symbol */\n      dup4\n      add\n        /* \"contracts/includes.sol\":3536:3543  _symbol */\n      dup3\n        /* \"contracts/includes.sol\":3529:3543  return _symbol */\n      dup3\n      dup1\n      iszero\n      tag_111\n      jumpi\n      dup1\n      0x1f\n      lt\n      tag_112\n      jumpi\n      0x0100\n      dup1\n      dup4\n      sload\n      div\n      mul\n      dup4\n      mstore\n      swap2\n      0x20\n      add\n      swap2\n      jump(tag_111)\n        /* \"contracts/includes.sol\":5019:5288  function decreaseAllowance(address spender, uint256 subtractedValue) public virtual returns (bool) {\r... */\n    tag_82:\n        /* \"contracts/includes.sol\":5112:5116  bool */\n      0x00\n        /* \"contracts/includes.sol\":5129:5258  _approve(_msgSender(), spender, _allowances[_msgSender()][spender].sub(subtractedValue, \"ERC20: decreased allowance below zero\")) */\n      tag_115\n        /* \"contracts/includes.sol\":5138:5150  _msgSender() */\n      tag_156\n        /* \"contracts/includes.sol\":5138:5148  _msgSender */\n      tag_117\n        /* \"contracts/includes.sol\":5138:5150  _msgSender() */\n      jump\t// in\n    tag_156:\n        /* \"contracts/includes.sol\":5152:5159  spender */\n      dup5\n        /* \"contracts/includes.sol\":5161:5257  _allowances[_msgSender()][spender].sub(subtractedValue, \"ERC20: decreased allowance below zero\") */\n      tag_125\n        /* \"contracts/includes.sol\":5200:5215  subtractedValue */\n      dup6\n        /* \"contracts/includes.sol\":5161:5257  _allowances[_msgSender()][spender].sub(subtractedValue, \"ERC20: decreased allowance below zero\") */\n      mload(0x40)\n      dup1\n      0x60\n      add\n      0x40\n      mstore\n      dup1\n      0x25\n      dup2\n      mstore\n      0x20\n      add\n      data_f8b476f7d28209d77d4a4ac1fe36b9f8259aa1bb6bddfa6e89de7e51615cf8a8\n      0x25\n      swap2\n      codecopy\n        /* \"contracts/includes.sol\":5161:5172  _allowances */\n      0x01\n        /* \"contracts/includes.sol\":5161:5186  _allowances[_msgSender()] */\n      0x00\n        /* \"contracts/includes.sol\":5173:5185  _msgSender() */\n      tag_158\n        /* \"contracts/includes.sol\":5173:5183  _msgSender */\n      tag_117\n        /* \"contracts/includes.sol\":5173:5185  _msgSender() */\n      jump\t// in\n    tag_158:\n      sub(shl(0xa0, 0x01), 0x01)\n        /* \"contracts/includes.sol\":5161:5186  _allowances[_msgSender()] */\n      swap1\n      dup2\n      and\n      dup3\n      mstore\n      0x20\n      dup1\n      dup4\n      add\n      swap4\n      swap1\n      swap4\n      mstore\n      0x40\n      swap2\n      dup3\n      add\n      0x00\n      swap1\n      dup2\n      keccak256\n        /* \"contracts/includes.sol\":5161:5195  _allowances[_msgSender()][spender] */\n      swap2\n      dup14\n      and\n      dup2\n      mstore\n      swap3\n      mstore\n      swap1\n      keccak256\n      sload\n      swap2\n        /* \"contracts/includes.sol\":5161:5257  _allowances[_msgSender()][spender].sub(subtractedValue, \"ERC20: decreased allowance below zero\") */\n      swap1\n        /* \"contracts/includes.sol\":5161:5199  _allowances[_msgSender()][spender].sub */\n      tag_127\n        /* \"contracts/includes.sol\":5161:5257  _allowances[_msgSender()][spender].sub(subtractedValue, \"ERC20: decreased allowance below zero\") */\n      jump\t// in\n        /* \"contracts/dethDividendTracker.sol\":2711:2879  function withdrawableDividendOf(address _owner) public view override returns(uint256) {\r... */\n    tag_86:\n      sub(shl(0xa0, 0x01), 0x01)\n        /* \"contracts/dethDividendTracker.sol\":2846:2872  withdrawnDividends[_owner] */\n      dup2\n      and\n        /* \"contracts/dethDividendTracker.sol\":2788:2795  uint256 */\n      0x00\n        /* \"contracts/dethDividendTracker.sol\":2846:2872  withdrawnDividends[_owner] */\n      swap1\n      dup2\n      mstore\n        /* \"contracts/dethDividendTracker.sol\":2846:2864  withdrawnDividends */\n      0x07\n        /* \"contracts/dethDividendTracker.sol\":2846:2872  withdrawnDividends[_owner] */\n      0x20\n      mstore\n      0x40\n      dup2\n      keccak256\n      sload\n        /* \"contracts/dethDividendTracker.sol\":2811:2873  accumulativeDividendOf(_owner).sub(withdrawnDividends[_owner]) */\n      tag_114\n      swap1\n        /* \"contracts/dethDividendTracker.sol\":2811:2841  accumulativeDividendOf(_owner) */\n      tag_161\n        /* \"contracts/dethDividendTracker.sol\":2865:2871  _owner */\n      dup5\n        /* \"contracts/dethDividendTracker.sol\":2811:2833  accumulativeDividendOf */\n      tag_50\n        /* \"contracts/dethDividendTracker.sol\":2811:2841  accumulativeDividendOf(_owner) */\n      jump\t// in\n    tag_161:\n        /* \"contracts/dethDividendTracker.sol\":2811:2845  accumulativeDividendOf(_owner).sub */\n      swap1\n      tag_162\n        /* \"contracts/dethDividendTracker.sol\":2811:2873  accumulativeDividendOf(_owner).sub(withdrawnDividends[_owner]) */\n      jump\t// in\n        /* \"contracts/includes.sol\":3911:4086  function transfer(address recipient, uint256 amount) public virtual override returns (bool) {\r... */\n    tag_90:\n        /* \"contracts/includes.sol\":3997:4001  bool */\n      0x00\n        /* \"contracts/includes.sol\":4014:4056  _transfer(_msgSender(), recipient, amount) */\n      tag_115\n        /* \"contracts/includes.sol\":4024:4036  _msgSender() */\n      tag_165\n        /* \"contracts/includes.sol\":4024:4034  _msgSender */\n      tag_117\n        /* \"contracts/includes.sol\":4024:4036  _msgSender() */\n      jump\t// in\n    tag_165:\n        /* \"contracts/includes.sol\":4038:4047  recipient */\n      dup5\n        /* \"contracts/includes.sol\":4049:4055  amount */\n      dup5\n        /* \"contracts/includes.sol\":4014:4023  _transfer */\n      tag_2\n        /* \"contracts/includes.sol\":4014:4056  _transfer(_msgSender(), recipient, amount) */\n      jump\t// in\n        /* \"contracts/dethDividendTracker.sol\":2885:3014  function withdrawnDividendOf(address _owner) public view override returns(uint256) {\r... */\n    tag_94:\n      sub(shl(0xa0, 0x01), 0x01)\n        /* \"contracts/dethDividendTracker.sol\":2982:3008  withdrawnDividends[_owner] */\n      and\n        /* \"contracts/dethDividendTracker.sol\":2959:2966  uint256 */\n      0x00\n        /* \"contracts/dethDividendTracker.sol\":2982:3008  withdrawnDividends[_owner] */\n      swap1\n      dup2\n      mstore\n        /* \"contracts/dethDividendTracker.sol\":2982:3000  withdrawnDividends */\n      0x07\n        /* \"contracts/dethDividendTracker.sol\":2982:3008  withdrawnDividends[_owner] */\n      0x20\n      mstore\n      0x40\n      swap1\n      keccak256\n      sload\n      swap1\n        /* \"contracts/dethDividendTracker.sol\":2885:3014  function withdrawnDividendOf(address _owner) public view override returns(uint256) {\r... */\n      jump\t// out\n        /* \"contracts/includes.sol\":4094:4245  function allowance(address owner, address spender) public view virtual override returns (uint256) {\r... */\n    tag_98:\n      sub(shl(0xa0, 0x01), 0x01)\n        /* \"contracts/includes.sol\":4210:4228  _allowances[owner] */\n      swap2\n      dup3\n      and\n        /* \"contracts/includes.sol\":4183:4190  uint256 */\n      0x00\n        /* \"contracts/includes.sol\":4210:4228  _allowances[owner] */\n      swap1\n      dup2\n      mstore\n        /* \"contracts/includes.sol\":4210:4221  _allowances */\n      0x01\n        /* \"contracts/includes.sol\":4210:4228  _allowances[owner] */\n      0x20\n      swap1\n      dup2\n      mstore\n      0x40\n      dup1\n      dup4\n      keccak256\n        /* \"contracts/includes.sol\":4210:4237  _allowances[owner][spender] */\n      swap4\n      swap1\n      swap5\n      and\n      dup3\n      mstore\n      swap2\n      swap1\n      swap2\n      mstore\n      keccak256\n      sload\n      swap1\n        /* \"contracts/includes.sol\":4094:4245  function allowance(address owner, address spender) public view virtual override returns (uint256) {\r... */\n      jump\t// out\n        /* \"contracts/includes.sol\":1894:2146  function mul(uint256 a, uint256 b) internal pure returns (uint256) {\r... */\n    tag_106:\n        /* \"contracts/includes.sol\":1952:1959  uint256 */\n      0x00\n        /* \"contracts/includes.sol\":1978:1984  a == 0 */\n      dup3\n        /* \"contracts/includes.sol\":1974:2021  if (a == 0) {\r... */\n      tag_169\n      jumpi\n      pop\n        /* \"contracts/includes.sol\":2008:2009  0 */\n      0x00\n        /* \"contracts/includes.sol\":2001:2009  return 0 */\n      jump(tag_114)\n        /* \"contracts/includes.sol\":1974:2021  if (a == 0) {\r... */\n    tag_169:\n        /* \"contracts/includes.sol\":2045:2050  a * b */\n      dup3\n      dup3\n      mul\n        /* \"contracts/includes.sol\":2049:2050  b */\n      dup3\n        /* \"contracts/includes.sol\":2045:2046  a */\n      dup5\n        /* \"contracts/includes.sol\":2045:2050  a * b */\n      dup3\n        /* \"contracts/includes.sol\":2045:2046  a */\n      dup2\n        /* \"contracts/includes.sol\":2069:2074  c / a */\n      tag_170\n      jumpi\n      invalid\n    tag_170:\n      div\n        /* \"contracts/includes.sol\":2069:2079  c / a == b */\n      eq\n        /* \"contracts/includes.sol\":2061:2117  require(c / a == b, \"SafeMath: multiplication overflow\") */\n      tag_171\n      jumpi\n      mload(0x40)\n      shl(0xe5, 0x461bcd)\n      dup2\n      mstore\n      0x04\n      add\n      dup1\n      dup1\n      0x20\n      add\n      dup3\n      dup2\n      sub\n      dup3\n      mstore\n      0x21\n      dup2\n      mstore\n      0x20\n      add\n      dup1\n      data_9113bb53c2876a3805b2c9242029423fc540a728243ce887ab24c82cf119fba3\n      0x21\n      swap2\n      codecopy\n      0x40\n      add\n      swap2\n      pop\n      pop\n      mload(0x40)\n      dup1\n      swap2\n      sub\n      swap1\n      revert\n    tag_171:\n        /* \"contracts/includes.sol\":2137:2138  c */\n      swap4\n        /* \"contracts/includes.sol\":1894:2146  function mul(uint256 a, uint256 b) internal pure returns (uint256) {\r... */\n      swap3\n      pop\n      pop\n      pop\n      jump\t// out\n        /* \"contracts/includes.sol\":1361:1542  function add(uint256 a, uint256 b) internal pure returns (uint256) {\r... */\n    tag_108:\n        /* \"contracts/includes.sol\":1419:1426  uint256 */\n      0x00\n        /* \"contracts/includes.sol\":1451:1456  a + b */\n      dup3\n      dup3\n      add\n        /* \"contracts/includes.sol\":1475:1481  c >= a */\n      dup4\n      dup2\n      lt\n      iszero\n        /* \"contracts/includes.sol\":1467:1513  require(c >= a, \"SafeMath: addition overflow\") */\n      tag_171\n      jumpi\n      0x40\n      dup1\n      mload\n      shl(0xe5, 0x461bcd)\n      dup2\n      mstore\n      0x20\n      0x04\n      dup3\n      add\n      mstore\n      0x1b\n      0x24\n      dup3\n      add\n      mstore\n      0x536166654d6174683a206164646974696f6e206f766572666c6f770000000000\n      0x44\n      dup3\n      add\n      mstore\n      swap1\n      mload\n      swap1\n      dup2\n      swap1\n      sub\n      0x64\n      add\n      swap1\n      revert\n        /* \"contracts/includes.sol\":987:1085  function _msgSender() internal view virtual returns (address) {\r... */\n    tag_117:\n        /* \"contracts/includes.sol\":1067:1077  msg.sender */\n      caller\n        /* \"contracts/includes.sol\":987:1085  function _msgSender() internal view virtual returns (address) {\r... */\n      swap1\n      jump\t// out\n        /* \"contracts/includes.sol\":6689:7069  function _approve(\r... */\n    tag_118:\n      sub(shl(0xa0, 0x01), 0x01)\n        /* \"contracts/includes.sol\":6825:6844  owner != address(0) */\n      dup4\n      and\n        /* \"contracts/includes.sol\":6817:6885  require(owner != address(0), \"ERC20: approve from the zero address\") */\n      tag_176\n      jumpi\n      mload(0x40)\n      shl(0xe5, 0x461bcd)\n      dup2\n      mstore\n      0x04\n      add\n      dup1\n      dup1\n      0x20\n      add\n      dup3\n      dup2\n      sub\n      dup3\n      mstore\n      0x24\n      dup2\n      mstore\n      0x20\n      add\n      dup1\n      data_c953f4879035ed60e766b34720f656aab5c697b141d924c283124ecedb91c208\n      0x24\n      swap2\n      codecopy\n      0x40\n      add\n      swap2\n      pop\n      pop\n      mload(0x40)\n      dup1\n      swap2\n      sub\n      swap1\n      revert\n    tag_176:\n      sub(shl(0xa0, 0x01), 0x01)\n        /* \"contracts/includes.sol\":6904:6925  spender != address(0) */\n      dup3\n      and\n        /* \"contracts/includes.sol\":6896:6964  require(spender != address(0), \"ERC20: approve to the zero address\") */\n      tag_177\n      jumpi\n      mload(0x40)\n      shl(0xe5, 0x461bcd)\n      dup2\n      mstore\n      0x04\n      add\n      dup1\n      dup1\n      0x20\n      add\n      dup3\n      dup2\n      sub\n      dup3\n      mstore\n      0x22\n      dup2\n      mstore\n      0x20\n      add\n      dup1\n      data_24883cc5fe64ace9d0df1893501ecb93c77180f0ff69cca79affb3c316dc8029\n      0x22\n      swap2\n      codecopy\n      0x40\n      add\n      swap2\n      pop\n      pop\n      mload(0x40)\n      dup1\n      swap2\n      sub\n      swap1\n      revert\n    tag_177:\n      sub(shl(0xa0, 0x01), 0x01)\n        /* \"contracts/includes.sol\":6977:6995  _allowances[owner] */\n      dup1\n      dup5\n      and\n      0x00\n      dup2\n      dup2\n      mstore\n        /* \"contracts/includes.sol\":6977:6988  _allowances */\n      0x01\n        /* \"contracts/includes.sol\":6977:6995  _allowances[owner] */\n      0x20\n      swap1\n      dup2\n      mstore\n      0x40\n      dup1\n      dup4\n      keccak256\n        /* \"contracts/includes.sol\":6977:7004  _allowances[owner][spender] */\n      swap5\n      dup8\n      and\n      dup1\n      dup5\n      mstore\n      swap5\n      dup3\n      mstore\n      swap2\n      dup3\n      swap1\n      keccak256\n        /* \"contracts/includes.sol\":6977:7013  _allowances[owner][spender] = amount */\n      dup6\n      swap1\n      sstore\n        /* \"contracts/includes.sol\":7029:7061  Approval(owner, spender, amount) */\n      dup2\n      mload\n      dup6\n      dup2\n      mstore\n      swap2\n      mload\n      0x8c5be1e5ebec7d5bd14f71427d1e84f3dd0314c0f7b2291e5b200ac8c7c3b925\n      swap3\n      dup2\n      swap1\n      sub\n      swap1\n      swap2\n      add\n      swap1\n      log3\n        /* \"contracts/includes.sol\":6689:7069  function _approve(\r... */\n      pop\n      pop\n      pop\n      jump\t// out\n        /* \"contracts/includes.sol\":1694:1886  function sub(uint256 a, uint256 b, string memory errorMessage) internal pure returns (uint256) {\r... */\n    tag_127:\n        /* \"contracts/includes.sol\":1780:1787  uint256 */\n      0x00\n        /* \"contracts/includes.sol\":1816:1828  errorMessage */\n      dup2\n        /* \"contracts/includes.sol\":1808:1814  b <= a */\n      dup5\n      dup5\n      gt\n      iszero\n        /* \"contracts/includes.sol\":1800:1829  require(b <= a, errorMessage) */\n      tag_186\n      jumpi\n      mload(0x40)\n      shl(0xe5, 0x461bcd)\n      dup2\n      mstore\n      0x04\n      add\n      dup1\n      dup1\n      0x20\n      add\n      dup3\n      dup2\n      sub\n      dup3\n      mstore\n      dup4\n      dup2\n      dup2\n      mload\n      dup2\n      mstore\n      0x20\n      add\n      swap2\n      pop\n      dup1\n      mload\n      swap1\n      0x20\n      add\n      swap1\n      dup1\n      dup4\n      dup4\n      0x00\n    tag_187:\n      dup4\n      dup2\n      lt\n      iszero\n      tag_189\n      jumpi\n      dup2\n      dup2\n      add\n      mload\n      dup4\n      dup3\n      add\n      mstore\n      0x20\n      add\n      jump(tag_187)\n    tag_189:\n      pop\n      pop\n      pop\n      pop\n      swap1\n      pop\n      swap1\n      dup2\n      add\n      swap1\n      0x1f\n      and\n      dup1\n      iszero\n      tag_190\n      jumpi\n      dup1\n      dup3\n      sub\n      dup1\n      mload\n      0x01\n      dup4\n      0x20\n      sub\n      0x0100\n      exp\n      sub\n      not\n      and\n      dup2\n      mstore\n      0x20\n      add\n      swap2\n      pop\n    tag_190:\n      pop\n      swap3\n      pop\n      pop\n      pop\n      mload(0x40)\n      dup1\n      swap2\n      sub\n      swap1\n      revert\n    tag_186:\n      pop\n      pop\n      pop\n        /* \"contracts/includes.sol\":1852:1857  a - b */\n      swap1\n      sub\n      swap1\n        /* \"contracts/includes.sol\":1694:1886  function sub(uint256 a, uint256 b, string memory errorMessage) internal pure returns (uint256) {\r... */\n      jump\t// out\n        /* \"contracts/includes.sol\":7235:7369  function toInt256Safe(uint256 a) internal pure returns (int256) {\r... */\n    tag_134:\n        /* \"contracts/includes.sol\":7291:7297  int256 */\n      0x00\n        /* \"contracts/includes.sol\":7324:7325  a */\n      dup2\n        /* \"contracts/includes.sol\":7341:7347  b >= 0 */\n      dup2\n      dup2\n      slt\n      iszero\n        /* \"contracts/includes.sol\":7333:7348  require(b >= 0) */\n      tag_114\n      jumpi\n      0x00\n      dup1\n      revert\n        /* \"contracts/includes.sol\":8290:8466  function add(int256 a, int256 b) internal pure returns (int256) {\r... */\n    tag_135:\n        /* \"contracts/includes.sol\":8346:8352  int256 */\n      0x00\n        /* \"contracts/includes.sol\":8376:8381  a + b */\n      dup3\n      dup3\n      add\n        /* \"contracts/includes.sol\":8401:8407  b >= 0 */\n      dup2\n      dup4\n      slt\n      dup1\n      iszero\n      swap1\n        /* \"contracts/includes.sol\":8401:8417  b >= 0 && c >= a */\n      tag_194\n      jumpi\n      pop\n        /* \"contracts/includes.sol\":8416:8417  a */\n      dup4\n        /* \"contracts/includes.sol\":8411:8412  c */\n      dup2\n        /* \"contracts/includes.sol\":8411:8417  c >= a */\n      slt\n      iszero\n        /* \"contracts/includes.sol\":8401:8417  b >= 0 && c >= a */\n    tag_194:\n        /* \"contracts/includes.sol\":8400:8438  (b >= 0 && c >= a) || (b < 0 && c < a) */\n      dup1\n      tag_196\n      jumpi\n      pop\n        /* \"contracts/includes.sol\":8427:8428  0 */\n      0x00\n        /* \"contracts/includes.sol\":8423:8424  b */\n      dup4\n        /* \"contracts/includes.sol\":8423:8428  b < 0 */\n      slt\n        /* \"contracts/includes.sol\":8423:8437  b < 0 && c < a */\n      dup1\n      iszero\n      tag_196\n      jumpi\n      pop\n        /* \"contracts/includes.sol\":8436:8437  a */\n      dup4\n        /* \"contracts/includes.sol\":8432:8433  c */\n      dup2\n        /* \"contracts/includes.sol\":8432:8437  c < a */\n      slt\n        /* \"contracts/includes.sol\":8423:8437  b < 0 && c < a */\n    tag_196:\n        /* \"contracts/includes.sol\":8392:8439  require((b >= 0 && c >= a) || (b < 0 && c < a)) */\n      tag_171\n      jumpi\n      0x00\n      dup1\n      revert\n        /* \"contracts/includes.sol\":8611:8738  function toUint256Safe(int256 a) internal pure returns (uint256) {\r... */\n    tag_136:\n        /* \"contracts/includes.sol\":8667:8674  uint256 */\n      0x00\n        /* \"contracts/includes.sol\":8700:8701  0 */\n      dup1\n        /* \"contracts/includes.sol\":8695:8696  a */\n      dup3\n        /* \"contracts/includes.sol\":8695:8701  a >= 0 */\n      slt\n      iszero\n        /* \"contracts/includes.sol\":8687:8702  require(a >= 0) */\n      tag_199\n      jumpi\n      0x00\n      dup1\n      revert\n    tag_199:\n      pop\n        /* \"contracts/includes.sol\":8728:8729  a */\n      swap1\n        /* \"contracts/includes.sol\":8611:8738  function toUint256Safe(int256 a) internal pure returns (uint256) {\r... */\n      jump\t// out\n        /* \"contracts/dethDividendTracker.sol\":1950:2575  function _withdrawDividendOfUser(address payable user) internal returns (uint256) {\r... */\n    tag_146:\n        /* \"contracts/dethDividendTracker.sol\":2023:2030  uint256 */\n      0x00\n        /* \"contracts/dethDividendTracker.sol\":2039:2068  uint256 _withdrawableDividend */\n      dup1\n        /* \"contracts/dethDividendTracker.sol\":2071:2099  withdrawableDividendOf(user) */\n      tag_201\n        /* \"contracts/dethDividendTracker.sol\":2094:2098  user */\n      dup4\n        /* \"contracts/dethDividendTracker.sol\":2071:2093  withdrawableDividendOf */\n      tag_86\n        /* \"contracts/dethDividendTracker.sol\":2071:2099  withdrawableDividendOf(user) */\n      jump\t// in\n    tag_201:\n        /* \"contracts/dethDividendTracker.sol\":2039:2099  uint256 _withdrawableDividend = withdrawableDividendOf(user) */\n      swap1\n      pop\n        /* \"contracts/dethDividendTracker.sol\":2110:2135  _withdrawableDividend > 0 */\n      dup1\n      iszero\n        /* \"contracts/dethDividendTracker.sol\":2106:2553  if (_withdrawableDividend > 0) {\r... */\n      tag_202\n      jumpi\n      sub(shl(0xa0, 0x01), 0x01)\n        /* \"contracts/dethDividendTracker.sol\":2173:2197  withdrawnDividends[user] */\n      dup4\n      and\n      0x00\n      swap1\n      dup2\n      mstore\n        /* \"contracts/dethDividendTracker.sol\":2173:2191  withdrawnDividends */\n      0x07\n        /* \"contracts/dethDividendTracker.sol\":2173:2197  withdrawnDividends[user] */\n      0x20\n      mstore\n      0x40\n      swap1\n      keccak256\n      sload\n        /* \"contracts/dethDividendTracker.sol\":2173:2224  withdrawnDividends[user].add(_withdrawableDividend) */\n      tag_203\n      swap1\n        /* \"contracts/dethDividendTracker.sol\":2202:2223  _withdrawableDividend */\n      dup3\n        /* \"contracts/dethDividendTracker.sol\":2173:2201  withdrawnDividends[user].add */\n      tag_108\n        /* \"contracts/dethDividendTracker.sol\":2173:2224  withdrawnDividends[user].add(_withdrawableDividend) */\n      jump\t// in\n    tag_203:\n      sub(shl(0xa0, 0x01), 0x01)\n        /* \"contracts/dethDividendTracker.sol\":2146:2170  withdrawnDividends[user] */\n      dup5\n      and\n      0x00\n      dup2\n      dup2\n      mstore\n        /* \"contracts/dethDividendTracker.sol\":2146:2164  withdrawnDividends */\n      0x07\n        /* \"contracts/dethDividendTracker.sol\":2146:2170  withdrawnDividends[user] */\n      0x20\n      swap1\n      dup2\n      mstore\n      0x40\n      swap2\n      dup3\n      swap1\n      keccak256\n        /* \"contracts/dethDividendTracker.sol\":2146:2224  withdrawnDividends[user] = withdrawnDividends[user].add(_withdrawableDividend) */\n      swap4\n      swap1\n      swap4\n      sstore\n        /* \"contracts/dethDividendTracker.sol\":2238:2284  DividendWithdrawn(user, _withdrawableDividend) */\n      dup1\n      mload\n      dup5\n      dup2\n      mstore\n      swap1\n      mload\n        /* \"contracts/dethDividendTracker.sol\":2146:2170  withdrawnDividends[user] */\n      swap2\n      swap3\n        /* \"contracts/dethDividendTracker.sol\":2238:2284  DividendWithdrawn(user, _withdrawableDividend) */\n      0xee503bee2bb6a87e57bc57db795f98137327401a0e7b7ce42e37926cc1a9ca4d\n      swap3\n      swap2\n      dup3\n      swap1\n      sub\n      add\n      swap1\n      log2\n        /* \"contracts/dethDividendTracker.sol\":2311:2365  user.call{value: _withdrawableDividend, gas: 3000}(\"\") */\n      mload(0x40)\n        /* \"contracts/dethDividendTracker.sol\":2294:2306  bool success */\n      0x00\n      swap1\n      sub(shl(0xa0, 0x01), 0x01)\n        /* \"contracts/dethDividendTracker.sol\":2311:2320  user.call */\n      dup6\n      and\n      swap1\n        /* \"contracts/dethDividendTracker.sol\":2356:2360  3000 */\n      0x0bb8\n      swap1\n        /* \"contracts/dethDividendTracker.sol\":2328:2349  _withdrawableDividend */\n      dup5\n      swap1\n        /* \"contracts/dethDividendTracker.sol\":2294:2306  bool success */\n      dup5\n        /* \"contracts/dethDividendTracker.sol\":2311:2365  user.call{value: _withdrawableDividend, gas: 3000}(\"\") */\n      dup2\n        /* \"contracts/dethDividendTracker.sol\":2294:2306  bool success */\n      dup2\n        /* \"contracts/dethDividendTracker.sol\":2311:2365  user.call{value: _withdrawableDividend, gas: 3000}(\"\") */\n      dup2\n        /* \"contracts/dethDividendTracker.sol\":2328:2349  _withdrawableDividend */\n      dup6\n        /* \"contracts/dethDividendTracker.sol\":2311:2320  user.call */\n      dup9\n        /* \"contracts/dethDividendTracker.sol\":2356:2360  3000 */\n      dup9\n        /* \"contracts/dethDividendTracker.sol\":2311:2365  user.call{value: _withdrawableDividend, gas: 3000}(\"\") */\n      call\n      swap4\n      pop\n      pop\n      pop\n      pop\n      returndatasize\n      dup1\n      0x00\n      dup2\n      eq\n      tag_206\n      jumpi\n      mload(0x40)\n      swap2\n      pop\n      and(add(returndatasize, 0x3f), not(0x1f))\n      dup3\n      add\n      0x40\n      mstore\n      returndatasize\n      dup3\n      mstore\n      returndatasize\n      0x00\n      0x20\n      dup5\n      add\n      returndatacopy\n      jump(tag_205)\n    tag_206:\n      0x60\n      swap2\n      pop\n    tag_205:\n      pop\n        /* \"contracts/dethDividendTracker.sol\":2293:2365  (bool success,) = user.call{value: _withdrawableDividend, gas: 3000}(\"\") */\n      pop\n      swap1\n      pop\n        /* \"contracts/dethDividendTracker.sol\":2380:2387  success */\n      dup1\n        /* \"contracts/dethDividendTracker.sol\":2376:2507  if(!success) {\r... */\n      tag_207\n      jumpi\n      sub(shl(0xa0, 0x01), 0x01)\n        /* \"contracts/dethDividendTracker.sol\":2427:2451  withdrawnDividends[user] */\n      dup5\n      and\n      0x00\n      swap1\n      dup2\n      mstore\n        /* \"contracts/dethDividendTracker.sol\":2427:2445  withdrawnDividends */\n      0x07\n        /* \"contracts/dethDividendTracker.sol\":2427:2451  withdrawnDividends[user] */\n      0x20\n      mstore\n      0x40\n      swap1\n      keccak256\n      sload\n        /* \"contracts/dethDividendTracker.sol\":2427:2478  withdrawnDividends[user].sub(_withdrawableDividend) */\n      tag_208\n      swap1\n        /* \"contracts/dethDividendTracker.sol\":2456:2477  _withdrawableDividend */\n      dup4\n        /* \"contracts/dethDividendTracker.sol\":2427:2455  withdrawnDividends[user].sub */\n      tag_162\n        /* \"contracts/dethDividendTracker.sol\":2427:2478  withdrawnDividends[user].sub(_withdrawableDividend) */\n      jump\t// in\n    tag_208:\n      sub(shl(0xa0, 0x01), 0x01)\n        /* \"contracts/dethDividendTracker.sol\":2400:2424  withdrawnDividends[user] */\n      dup6\n      and\n      0x00\n      swap1\n      dup2\n      mstore\n        /* \"contracts/dethDividendTracker.sol\":2400:2418  withdrawnDividends */\n      0x07\n        /* \"contracts/dethDividendTracker.sol\":2400:2424  withdrawnDividends[user] */\n      0x20\n      mstore\n      0x40\n      dup2\n      keccak256\n        /* \"contracts/dethDividendTracker.sol\":2400:2478  withdrawnDividends[user] = withdrawnDividends[user].sub(_withdrawableDividend) */\n      swap2\n      swap1\n      swap2\n      sstore\n        /* \"contracts/dethDividendTracker.sol\":2400:2424  withdrawnDividends[user] */\n      swap3\n      pop\n        /* \"contracts/dethDividendTracker.sol\":2489:2497  return 0 */\n      tag_128\n      swap2\n      pop\n      pop\n      jump\n        /* \"contracts/dethDividendTracker.sol\":2376:2507  if(!success) {\r... */\n    tag_207:\n      pop\n        /* \"contracts/dethDividendTracker.sol\":2524:2545  _withdrawableDividend */\n      swap1\n      pop\n        /* \"contracts/dethDividendTracker.sol\":2517:2545  return _withdrawableDividend */\n      jump(tag_128)\n        /* \"contracts/dethDividendTracker.sol\":2106:2553  if (_withdrawableDividend > 0) {\r... */\n    tag_202:\n      pop\n        /* \"contracts/dethDividendTracker.sol\":2568:2569  0 */\n      0x00\n      swap3\n        /* \"contracts/dethDividendTracker.sol\":1950:2575  function _withdrawDividendOfUser(address payable user) internal returns (uint256) {\r... */\n      swap2\n      pop\n      pop\n      jump\t// out\n        /* \"contracts/includes.sol\":1550:1686  function sub(uint256 a, uint256 b) internal pure returns (uint256) {\r... */\n    tag_162:\n        /* \"contracts/includes.sol\":1608:1615  uint256 */\n      0x00\n        /* \"contracts/includes.sol\":1635:1678  sub(a, b, \"SafeMath: subtraction overflow\") */\n      tag_171\n        /* \"contracts/includes.sol\":1639:1640  a */\n      dup4\n        /* \"contracts/includes.sol\":1642:1643  b */\n      dup4\n        /* \"contracts/includes.sol\":1635:1678  sub(a, b, \"SafeMath: subtraction overflow\") */\n      mload(0x40)\n      dup1\n      0x40\n      add\n      0x40\n      mstore\n      dup1\n      0x1e\n      dup2\n      mstore\n      0x20\n      add\n      0x536166654d6174683a207375627472616374696f6e206f766572666c6f770000\n      dup2\n      mstore\n      pop\n        /* \"contracts/includes.sol\":1635:1638  sub */\n      tag_127\n        /* \"contracts/includes.sol\":1635:1678  sub(a, b, \"SafeMath: subtraction overflow\") */\n      jump\t// in\n    stop\n    data_24883cc5fe64ace9d0df1893501ecb93c77180f0ff69cca79affb3c316dc8029 45524332303a20617070726f766520746f20746865207a65726f2061646472657373\n    data_9113bb53c2876a3805b2c9242029423fc540a728243ce887ab24c82cf119fba3 536166654d6174683a206d756c7469706c69636174696f6e206f766572666c6f77\n    data_974d1b4421da69cc60b481194f0dad36a5bb4e23da810da7a7fb30cdba178330 45524332303a207472616e7366657220616d6f756e74206578636565647320616c6c6f77616e6365\n    data_c953f4879035ed60e766b34720f656aab5c697b141d924c283124ecedb91c208 45524332303a20617070726f76652066726f6d20746865207a65726f2061646472657373\n    data_f8b476f7d28209d77d4a4ac1fe36b9f8259aa1bb6bddfa6e89de7e51615cf8a8 45524332303a2064656372656173656420616c6c6f77616e63652062656c6f77207a65726f\n\n    auxdata: 0xa2646970667358221220eeaa52934e606f9a57ec5d379b920bb1d4164919b99aab26f5e7aa8c7b71ba3864736f6c634300060c0033\n}\n",
				"bytecode": {
					"linkReferences": {},
					"object": "60806040523480156200001157600080fd5b506040516200104d3803806200104d833981810160405260408110156200003757600080fd5b81019080805160405193929190846401000000008211156200005857600080fd5b9083019060208201858111156200006e57600080fd5b82516401000000008111828201881017156200008957600080fd5b82525081516020918201929091019080838360005b83811015620000b85781810151838201526020016200009e565b50505050905090810190601f168015620000e65780820380516001836020036101000a031916815260200191505b50604052602001805160405193929190846401000000008211156200010a57600080fd5b9083019060208201858111156200012057600080fd5b82516401000000008111828201881017156200013b57600080fd5b82525081516020918201929091019080838360005b838110156200016a57818101518382015260200162000150565b50505050905090810190601f168015620001985780820380516001836020036101000a031916815260200191505b50604052505082518391508290620001b8906003906020850190620001d9565b508051620001ce906004906020840190620001d9565b505050505062000275565b828054600181600116156101000203166002900490600052602060002090601f016020900481019282601f106200021c57805160ff19168380011785556200024c565b828001600101855582156200024c579182015b828111156200024c5782518255916020019190600101906200022f565b506200025a9291506200025e565b5090565b5b808211156200025a57600081556001016200025f565b610dc880620002856000396000f3fe60806040526004361061010d5760003560e01c806370a0823111610095578063a457c2d711610064578063a457c2d7146103a6578063a8b9d240146103df578063a9059cbb14610412578063aafd847a1461044b578063dd62ed3e1461047e5761011c565b806370a082311461031657806385a6b3ae1461034957806391b89fba1461035e57806395d89b41146103915761011c565b806323b872dd116100dc57806323b872dd1461022757806327ce01471461026a578063313ce5671461029d57806339509351146102c85780636a474002146103015761011c565b806303c833021461012157806306fdde0314610129578063095ea7b3146101b357806318160ddd146102005761011c565b3661011c5761011a6104b9565b005b600080fd5b61011a6104b9565b34801561013557600080fd5b5061013e61054a565b6040805160208082528351818301528351919283929083019185019080838360005b83811015610178578181015183820152602001610160565b50505050905090810190601f1680156101a55780820380516001836020036101000a031916815260200191505b509250505060405180910390f35b3480156101bf57600080fd5b506101ec600480360360408110156101d657600080fd5b506001600160a01b0381351690602001356105e0565b604080519115158252519081900360200190f35b34801561020c57600080fd5b506102156105fe565b60408051918252519081900360200190f35b34801561023357600080fd5b506101ec6004803603606081101561024a57600080fd5b506001600160a01b03813581169160208101359091169060400135610604565b34801561027657600080fd5b506102156004803603602081101561028d57600080fd5b50356001600160a01b031661068b565b3480156102a957600080fd5b506102b26106ea565b6040805160ff9092168252519081900360200190f35b3480156102d457600080fd5b506101ec600480360360408110156102eb57600080fd5b506001600160a01b0381351690602001356106ef565b34801561030d57600080fd5b5061011a61073d565b34801561032257600080fd5b506102156004803603602081101561033957600080fd5b50356001600160a01b0316610749565b34801561035557600080fd5b50610215610764565b34801561036a57600080fd5b506102156004803603602081101561038157600080fd5b50356001600160a01b031661076a565b34801561039d57600080fd5b5061013e610775565b3480156103b257600080fd5b506101ec600480360360408110156103c957600080fd5b506001600160a01b0381351690602001356107d6565b3480156103eb57600080fd5b506102156004803603602081101561040257600080fd5b50356001600160a01b031661083e565b34801561041e57600080fd5b506101ec6004803603604081101561043557600080fd5b506001600160a01b03813516906020013561086a565b34801561045757600080fd5b506102156004803603602081101561046e57600080fd5b50356001600160a01b031661087e565b34801561048a57600080fd5b50610215600480360360408110156104a157600080fd5b506001600160a01b0381358116916020013516610899565b60006104c36105fe565b116104cd57600080fd5b3415610548576104fe6104de6105fe565b6104ec34600160801b6108c4565b816104f357fe5b600554919004610924565b60055560408051348152905133917fa493a9229478c3fcd73f66d2cdeb7f94fd0f341da924d1054236d78454116511919081900360200190a26008546105449034610924565b6008555b565b60038054604080516020601f60026000196101006001881615020190951694909404938401819004810282018101909252828152606093909290918301828280156105d65780601f106105ab576101008083540402835291602001916105d6565b820191906000526020600020905b8154815290600101906020018083116105b957829003601f168201915b5050505050905090565b60006105f46105ed61097e565b8484610982565b5060015b92915050565b60025490565b600061061184848461011c565b6106818461061d61097e565b61067c85604051806060016040528060288152602001610d22602891396001600160a01b038a1660009081526001602052604081209061065b61097e565b6001600160a01b031681526020810191909152604001600020549190610a6e565b610982565b5060019392505050565b6001600160a01b038116600090815260066020526040812054600160801b906106da906106d5906106cf6106ca6106c188610749565b600554906108c4565b610b05565b90610b15565b610b48565b816106e157fe5b0490505b919050565b601290565b60006105f46106fc61097e565b8461067c856001600061070d61097e565b6001600160a01b03908116825260208083019390935260409182016000908120918c168152925290205490610924565b61074633610b5b565b50565b6001600160a01b031660009081526020819052604090205490565b60085481565b60006105f88261083e565b60048054604080516020601f60026000196101006001881615020190951694909404938401819004810282018101909252828152606093909290918301828280156105d65780601f106105ab576101008083540402835291602001916105d6565b60006105f46107e361097e565b8461067c85604051806060016040528060258152602001610d6e602591396001600061080d61097e565b6001600160a01b03908116825260208083019390935260409182016000908120918d16815292529020549190610a6e565b6001600160a01b0381166000908152600760205260408120546105f8906108648461068b565b90610c9c565b60006105f461087761097e565b848461011c565b6001600160a01b031660009081526007602052604090205490565b6001600160a01b03918216600090815260016020908152604080832093909416825291909152205490565b6000826108d3575060006105f8565b828202828482816108e057fe5b041461091d5760405162461bcd60e51b8152600401808060200182810382526021815260200180610d016021913960400191505060405180910390fd5b9392505050565b60008282018381101561091d576040805162461bcd60e51b815260206004820152601b60248201527f536166654d6174683a206164646974696f6e206f766572666c6f770000000000604482015290519081900360640190fd5b3390565b6001600160a01b0383166109c75760405162461bcd60e51b8152600401808060200182810382526024815260200180610d4a6024913960400191505060405180910390fd5b6001600160a01b038216610a0c5760405162461bcd60e51b8152600401808060200182810382526022815260200180610cdf6022913960400191505060405180910390fd5b6001600160a01b03808416600081815260016020908152604080832094871680845294825291829020859055815185815291517f8c5be1e5ebec7d5bd14f71427d1e84f3dd0314c0f7b2291e5b200ac8c7c3b9259281900390910190a3505050565b60008184841115610afd5760405162461bcd60e51b81526004018080602001828103825283818151815260200191508051906020019080838360005b83811015610ac2578181015183820152602001610aaa565b50505050905090810190601f168015610aef5780820380516001836020036101000a031916815260200191505b509250505060405180910390fd5b505050900390565b600081818112156105f857600080fd5b6000828201818312801590610b2a5750838112155b80610b3f5750600083128015610b3f57508381125b61091d57600080fd5b600080821215610b5757600080fd5b5090565b600080610b678361083e565b90508015610c93576001600160a01b038316600090815260076020526040902054610b929082610924565b6001600160a01b038416600081815260076020908152604091829020939093558051848152905191927fee503bee2bb6a87e57bc57db795f98137327401a0e7b7ce42e37926cc1a9ca4d92918290030190a26040516000906001600160a01b03851690610bb890849084818181858888f193505050503d8060008114610c34576040519150601f19603f3d011682016040523d82523d6000602084013e610c39565b606091505b5050905080610c8b576001600160a01b038416600090815260076020526040902054610c659083610c9c565b6001600160a01b03851660009081526007602052604081209190915592506106e5915050565b5090506106e5565b50600092915050565b600061091d83836040518060400160405280601e81526020017f536166654d6174683a207375627472616374696f6e206f766572666c6f770000815250610a6e56fe45524332303a20617070726f766520746f20746865207a65726f2061646472657373536166654d6174683a206d756c7469706c69636174696f6e206f766572666c6f7745524332303a207472616e7366657220616d6f756e74206578636565647320616c6c6f77616e636545524332303a20617070726f76652066726f6d20746865207a65726f206164647265737345524332303a2064656372656173656420616c6c6f77616e63652062656c6f77207a65726fa2646970667358221220eeaa52934e606f9a57ec5d379b920bb1d4164919b99aab26f5e7aa8c7b71ba3864736f6c634300060c0033",
					"opcodes": "PUSH1 0x80 PUSH1 0x40 MSTORE CALLVALUE DUP1 ISZERO PUSH3 0x11 JUMPI PUSH1 0x0 DUP1 REVERT JUMPDEST POP PUSH1 0x40 MLOAD PUSH3 0x104D CODESIZE SUB DUP1 PUSH3 0x104D DUP4 CODECOPY DUP2 DUP2 ADD PUSH1 0x40 MSTORE PUSH1 0x40 DUP2 LT ISZERO PUSH3 0x37 JUMPI PUSH1 0x0 DUP1 REVERT JUMPDEST DUP2 ADD SWAP1 DUP1 DUP1 MLOAD PUSH1 0x40 MLOAD SWAP4 SWAP3 SWAP2 SWAP1 DUP5 PUSH5 0x100000000 DUP3 GT ISZERO PUSH3 0x58 JUMPI PUSH1 0x0 DUP1 REVERT JUMPDEST SWAP1 DUP4 ADD SWAP1 PUSH1 0x20 DUP3 ADD DUP6 DUP2 GT ISZERO PUSH3 0x6E JUMPI PUSH1 0x0 DUP1 REVERT JUMPDEST DUP3 MLOAD PUSH5 0x100000000 DUP2 GT DUP3 DUP3 ADD DUP9 LT OR ISZERO PUSH3 0x89 JUMPI PUSH1 0x0 DUP1 REVERT JUMPDEST DUP3 MSTORE POP DUP2 MLOAD PUSH1 0x20 SWAP2 DUP3 ADD SWAP3 SWAP1 SWAP2 ADD SWAP1 DUP1 DUP4 DUP4 PUSH1 0x0 JUMPDEST DUP4 DUP2 LT ISZERO PUSH3 0xB8 JUMPI DUP2 DUP2 ADD MLOAD DUP4 DUP3 ADD MSTORE PUSH1 0x20 ADD PUSH3 0x9E JUMP JUMPDEST POP POP POP POP SWAP1 POP SWAP1 DUP2 ADD SWAP1 PUSH1 0x1F AND DUP1 ISZERO PUSH3 0xE6 JUMPI DUP1 DUP3 SUB DUP1 MLOAD PUSH1 0x1 DUP4 PUSH1 0x20 SUB PUSH2 0x100 EXP SUB NOT AND DUP2 MSTORE PUSH1 0x20 ADD SWAP2 POP JUMPDEST POP PUSH1 0x40 MSTORE PUSH1 0x20 ADD DUP1 MLOAD PUSH1 0x40 MLOAD SWAP4 SWAP3 SWAP2 SWAP1 DUP5 PUSH5 0x100000000 DUP3 GT ISZERO PUSH3 0x10A JUMPI PUSH1 0x0 DUP1 REVERT JUMPDEST SWAP1 DUP4 ADD SWAP1 PUSH1 0x20 DUP3 ADD DUP6 DUP2 GT ISZERO PUSH3 0x120 JUMPI PUSH1 0x0 DUP1 REVERT JUMPDEST DUP3 MLOAD PUSH5 0x100000000 DUP2 GT DUP3 DUP3 ADD DUP9 LT OR ISZERO PUSH3 0x13B JUMPI PUSH1 0x0 DUP1 REVERT JUMPDEST DUP3 MSTORE POP DUP2 MLOAD PUSH1 0x20 SWAP2 DUP3 ADD SWAP3 SWAP1 SWAP2 ADD SWAP1 DUP1 DUP4 DUP4 PUSH1 0x0 JUMPDEST DUP4 DUP2 LT ISZERO PUSH3 0x16A JUMPI DUP2 DUP2 ADD MLOAD DUP4 DUP3 ADD MSTORE PUSH1 0x20 ADD PUSH3 0x150 JUMP JUMPDEST POP POP POP POP SWAP1 POP SWAP1 DUP2 ADD SWAP1 PUSH1 0x1F AND DUP1 ISZERO PUSH3 0x198 JUMPI DUP1 DUP3 SUB DUP1 MLOAD PUSH1 0x1 DUP4 PUSH1 0x20 SUB PUSH2 0x100 EXP SUB NOT AND DUP2 MSTORE PUSH1 0x20 ADD SWAP2 POP JUMPDEST POP PUSH1 0x40 MSTORE POP POP DUP3 MLOAD DUP4 SWAP2 POP DUP3 SWAP1 PUSH3 0x1B8 SWAP1 PUSH1 0x3 SWAP1 PUSH1 0x20 DUP6 ADD SWAP1 PUSH3 0x1D9 JUMP JUMPDEST POP DUP1 MLOAD PUSH3 0x1CE SWAP1 PUSH1 0x4 SWAP1 PUSH1 0x20 DUP5 ADD SWAP1 PUSH3 0x1D9 JUMP JUMPDEST POP POP POP POP POP PUSH3 0x275 JUMP JUMPDEST DUP3 DUP1 SLOAD PUSH1 0x1 DUP2 PUSH1 0x1 AND ISZERO PUSH2 0x100 MUL SUB AND PUSH1 0x2 SWAP1 DIV SWAP1 PUSH1 0x0 MSTORE PUSH1 0x20 PUSH1 0x0 KECCAK256 SWAP1 PUSH1 0x1F ADD PUSH1 0x20 SWAP1 DIV DUP2 ADD SWAP3 DUP3 PUSH1 0x1F LT PUSH3 0x21C JUMPI DUP1 MLOAD PUSH1 0xFF NOT AND DUP4 DUP1 ADD OR DUP6 SSTORE PUSH3 0x24C JUMP JUMPDEST DUP3 DUP1 ADD PUSH1 0x1 ADD DUP6 SSTORE DUP3 ISZERO PUSH3 0x24C JUMPI SWAP2 DUP3 ADD JUMPDEST DUP3 DUP2 GT ISZERO PUSH3 0x24C JUMPI DUP3 MLOAD DUP3 SSTORE SWAP2 PUSH1 0x20 ADD SWAP2 SWAP1 PUSH1 0x1 ADD SWAP1 PUSH3 0x22F JUMP JUMPDEST POP PUSH3 0x25A SWAP3 SWAP2 POP PUSH3 0x25E JUMP JUMPDEST POP SWAP1 JUMP JUMPDEST JUMPDEST DUP1 DUP3 GT ISZERO PUSH3 0x25A JUMPI PUSH1 0x0 DUP2 SSTORE PUSH1 0x1 ADD PUSH3 0x25F JUMP JUMPDEST PUSH2 0xDC8 DUP1 PUSH3 0x285 PUSH1 0x0 CODECOPY PUSH1 0x0 RETURN INVALID PUSH1 0x80 PUSH1 0x40 MSTORE PUSH1 0x4 CALLDATASIZE LT PUSH2 0x10D JUMPI PUSH1 0x0 CALLDATALOAD PUSH1 0xE0 SHR DUP1 PUSH4 0x70A08231 GT PUSH2 0x95 JUMPI DUP1 PUSH4 0xA457C2D7 GT PUSH2 0x64 JUMPI DUP1 PUSH4 0xA457C2D7 EQ PUSH2 0x3A6 JUMPI DUP1 PUSH4 0xA8B9D240 EQ PUSH2 0x3DF JUMPI DUP1 PUSH4 0xA9059CBB EQ PUSH2 0x412 JUMPI DUP1 PUSH4 0xAAFD847A EQ PUSH2 0x44B JUMPI DUP1 PUSH4 0xDD62ED3E EQ PUSH2 0x47E JUMPI PUSH2 0x11C JUMP JUMPDEST DUP1 PUSH4 0x70A08231 EQ PUSH2 0x316 JUMPI DUP1 PUSH4 0x85A6B3AE EQ PUSH2 0x349 JUMPI DUP1 PUSH4 0x91B89FBA EQ PUSH2 0x35E JUMPI DUP1 PUSH4 0x95D89B41 EQ PUSH2 0x391 JUMPI PUSH2 0x11C JUMP JUMPDEST DUP1 PUSH4 0x23B872DD GT PUSH2 0xDC JUMPI DUP1 PUSH4 0x23B872DD EQ PUSH2 0x227 JUMPI DUP1 PUSH4 0x27CE0147 EQ PUSH2 0x26A JUMPI DUP1 PUSH4 0x313CE567 EQ PUSH2 0x29D JUMPI DUP1 PUSH4 0x39509351 EQ PUSH2 0x2C8 JUMPI DUP1 PUSH4 0x6A474002 EQ PUSH2 0x301 JUMPI PUSH2 0x11C JUMP JUMPDEST DUP1 PUSH4 0x3C83302 EQ PUSH2 0x121 JUMPI DUP1 PUSH4 0x6FDDE03 EQ PUSH2 0x129 JUMPI DUP1 PUSH4 0x95EA7B3 EQ PUSH2 0x1B3 JUMPI DUP1 PUSH4 0x18160DDD EQ PUSH2 0x200 JUMPI PUSH2 0x11C JUMP JUMPDEST CALLDATASIZE PUSH2 0x11C JUMPI PUSH2 0x11A PUSH2 0x4B9 JUMP JUMPDEST STOP JUMPDEST PUSH1 0x0 DUP1 REVERT JUMPDEST PUSH2 0x11A PUSH2 0x4B9 JUMP JUMPDEST CALLVALUE DUP1 ISZERO PUSH2 0x135 JUMPI PUSH1 0x0 DUP1 REVERT JUMPDEST POP PUSH2 0x13E PUSH2 0x54A JUMP JUMPDEST PUSH1 0x40 DUP1 MLOAD PUSH1 0x20 DUP1 DUP3 MSTORE DUP4 MLOAD DUP2 DUP4 ADD MSTORE DUP4 MLOAD SWAP2 SWAP3 DUP4 SWAP3 SWAP1 DUP4 ADD SWAP2 DUP6 ADD SWAP1 DUP1 DUP4 DUP4 PUSH1 0x0 JUMPDEST DUP4 DUP2 LT ISZERO PUSH2 0x178 JUMPI DUP2 DUP2 ADD MLOAD DUP4 DUP3 ADD MSTORE PUSH1 0x20 ADD PUSH2 0x160 JUMP JUMPDEST POP POP POP POP SWAP1 POP SWAP1 DUP2 ADD SWAP1 PUSH1 0x1F AND DUP1 ISZERO PUSH2 0x1A5 JUMPI DUP1 DUP3 SUB DUP1 MLOAD PUSH1 0x1 DUP4 PUSH1 0x20 SUB PUSH2 0x100 EXP SUB NOT AND DUP2 MSTORE PUSH1 0x20 ADD SWAP2 POP JUMPDEST POP SWAP3 POP POP POP PUSH1 0x40 MLOAD DUP1 SWAP2 SUB SWAP1 RETURN JUMPDEST CALLVALUE DUP1 ISZERO PUSH2 0x1BF JUMPI PUSH1 0x0 DUP1 REVERT JUMPDEST POP PUSH2 0x1EC PUSH1 0x4 DUP1 CALLDATASIZE SUB PUSH1 0x40 DUP2 LT ISZERO PUSH2 0x1D6 JUMPI PUSH1 0x0 DUP1 REVERT JUMPDEST POP PUSH1 0x1 PUSH1 0x1 PUSH1 0xA0 SHL SUB DUP2 CALLDATALOAD AND SWAP1 PUSH1 0x20 ADD CALLDATALOAD PUSH2 0x5E0 JUMP JUMPDEST PUSH1 0x40 DUP1 MLOAD SWAP2 ISZERO ISZERO DUP3 MSTORE MLOAD SWAP1 DUP2 SWAP1 SUB PUSH1 0x20 ADD SWAP1 RETURN JUMPDEST CALLVALUE DUP1 ISZERO PUSH2 0x20C JUMPI PUSH1 0x0 DUP1 REVERT JUMPDEST POP PUSH2 0x215 PUSH2 0x5FE JUMP JUMPDEST PUSH1 0x40 DUP1 MLOAD SWAP2 DUP3 MSTORE MLOAD SWAP1 DUP2 SWAP1 SUB PUSH1 0x20 ADD SWAP1 RETURN JUMPDEST CALLVALUE DUP1 ISZERO PUSH2 0x233 JUMPI PUSH1 0x0 DUP1 REVERT JUMPDEST POP PUSH2 0x1EC PUSH1 0x4 DUP1 CALLDATASIZE SUB PUSH1 0x60 DUP2 LT ISZERO PUSH2 0x24A JUMPI PUSH1 0x0 DUP1 REVERT JUMPDEST POP PUSH1 0x1 PUSH1 0x1 PUSH1 0xA0 SHL SUB DUP2 CALLDATALOAD DUP2 AND SWAP2 PUSH1 0x20 DUP2 ADD CALLDATALOAD SWAP1 SWAP2 AND SWAP1 PUSH1 0x40 ADD CALLDATALOAD PUSH2 0x604 JUMP JUMPDEST CALLVALUE DUP1 ISZERO PUSH2 0x276 JUMPI PUSH1 0x0 DUP1 REVERT JUMPDEST POP PUSH2 0x215 PUSH1 0x4 DUP1 CALLDATASIZE SUB PUSH1 0x20 DUP2 LT ISZERO PUSH2 0x28D JUMPI PUSH1 0x0 DUP1 REVERT JUMPDEST POP CALLDATALOAD PUSH1 0x1 PUSH1 0x1 PUSH1 0xA0 SHL SUB AND PUSH2 0x68B JUMP JUMPDEST CALLVALUE DUP1 ISZERO PUSH2 0x2A9 JUMPI PUSH1 0x0 DUP1 REVERT JUMPDEST POP PUSH2 0x2B2 PUSH2 0x6EA JUMP JUMPDEST PUSH1 0x40 DUP1 MLOAD PUSH1 0xFF SWAP1 SWAP3 AND DUP3 MSTORE MLOAD SWAP1 DUP2 SWAP1 SUB PUSH1 0x20 ADD SWAP1 RETURN JUMPDEST CALLVALUE DUP1 ISZERO PUSH2 0x2D4 JUMPI PUSH1 0x0 DUP1 REVERT JUMPDEST POP PUSH2 0x1EC PUSH1 0x4 DUP1 CALLDATASIZE SUB PUSH1 0x40 DUP2 LT ISZERO PUSH2 0x2EB JUMPI PUSH1 0x0 DUP1 REVERT JUMPDEST POP PUSH1 0x1 PUSH1 0x1 PUSH1 0xA0 SHL SUB DUP2 CALLDATALOAD AND SWAP1 PUSH1 0x20 ADD CALLDATALOAD PUSH2 0x6EF JUMP JUMPDEST CALLVALUE DUP1 ISZERO PUSH2 0x30D JUMPI PUSH1 0x0 DUP1 REVERT JUMPDEST POP PUSH2 0x11A PUSH2 0x73D JUMP JUMPDEST CALLVALUE DUP1 ISZERO PUSH2 0x322 JUMPI PUSH1 0x0 DUP1 REVERT JUMPDEST POP PUSH2 0x215 PUSH1 0x4 DUP1 CALLDATASIZE SUB PUSH1 0x20 DUP2 LT ISZERO PUSH2 0x339 JUMPI PUSH1 0x0 DUP1 REVERT JUMPDEST POP CALLDATALOAD PUSH1 0x1 PUSH1 0x1 PUSH1 0xA0 SHL SUB AND PUSH2 0x749 JUMP JUMPDEST CALLVALUE DUP1 ISZERO PUSH2 0x355 JUMPI PUSH1 0x0 DUP1 REVERT JUMPDEST POP PUSH2 0x215 PUSH2 0x764 JUMP JUMPDEST CALLVALUE DUP1 ISZERO PUSH2 0x36A JUMPI PUSH1 0x0 DUP1 REVERT JUMPDEST POP PUSH2 0x215 PUSH1 0x4 DUP1 CALLDATASIZE SUB PUSH1 0x20 DUP2 LT ISZERO PUSH2 0x381 JUMPI PUSH1 0x0 DUP1 REVERT JUMPDEST POP CALLDATALOAD PUSH1 0x1 PUSH1 0x1 PUSH1 0xA0 SHL SUB AND PUSH2 0x76A JUMP JUMPDEST CALLVALUE DUP1 ISZERO PUSH2 0x39D JUMPI PUSH1 0x0 DUP1 REVERT JUMPDEST POP PUSH2 0x13E PUSH2 0x775 JUMP JUMPDEST CALLVALUE DUP1 ISZERO PUSH2 0x3B2 JUMPI PUSH1 0x0 DUP1 REVERT JUMPDEST POP PUSH2 0x1EC PUSH1 0x4 DUP1 CALLDATASIZE SUB PUSH1 0x40 DUP2 LT ISZERO PUSH2 0x3C9 JUMPI PUSH1 0x0 DUP1 REVERT JUMPDEST POP PUSH1 0x1 PUSH1 0x1 PUSH1 0xA0 SHL SUB DUP2 CALLDATALOAD AND SWAP1 PUSH1 0x20 ADD CALLDATALOAD PUSH2 0x7D6 JUMP JUMPDEST CALLVALUE DUP1 ISZERO PUSH2 0x3EB JUMPI PUSH1 0x0 DUP1 REVERT JUMPDEST POP PUSH2 0x215 PUSH1 0x4 DUP1 CALLDATASIZE SUB PUSH1 0x20 DUP2 LT ISZERO PUSH2 0x402 JUMPI PUSH1 0x0 DUP1 REVERT JUMPDEST POP CALLDATALOAD PUSH1 0x1 PUSH1 0x1 PUSH1 0xA0 SHL SUB AND PUSH2 0x83E JUMP JUMPDEST CALLVALUE DUP1 ISZERO PUSH2 0x41E JUMPI PUSH1 0x0 DUP1 REVERT JUMPDEST POP PUSH2 0x1EC PUSH1 0x4 DUP1 CALLDATASIZE SUB PUSH1 0x40 DUP2 LT ISZERO PUSH2 0x435 JUMPI PUSH1 0x0 DUP1 REVERT JUMPDEST POP PUSH1 0x1 PUSH1 0x1 PUSH1 0xA0 SHL SUB DUP2 CALLDATALOAD AND SWAP1 PUSH1 0x20 ADD CALLDATALOAD PUSH2 0x86A JUMP JUMPDEST CALLVALUE DUP1 ISZERO PUSH2 0x457 JUMPI PUSH1 0x0 DUP1 REVERT JUMPDEST POP PUSH2 0x215 PUSH1 0x4 DUP1 CALLDATASIZE SUB PUSH1 0x20 DUP2 LT ISZERO PUSH2 0x46E JUMPI PUSH1 0x0 DUP1 REVERT JUMPDEST POP CALLDATALOAD PUSH1 0x1 PUSH1 0x1 PUSH1 0xA0 SHL SUB AND PUSH2 0x87E JUMP JUMPDEST CALLVALUE DUP1 ISZERO PUSH2 0x48A JUMPI PUSH1 0x0 DUP1 REVERT JUMPDEST POP PUSH2 0x215 PUSH1 0x4 DUP1 CALLDATASIZE SUB PUSH1 0x40 DUP2 LT ISZERO PUSH2 0x4A1 JUMPI PUSH1 0x0 DUP1 REVERT JUMPDEST POP PUSH1 0x1 PUSH1 0x1 PUSH1 0xA0 SHL SUB DUP2 CALLDATALOAD DUP2 AND SWAP2 PUSH1 0x20 ADD CALLDATALOAD AND PUSH2 0x899 JUMP JUMPDEST PUSH1 0x0 PUSH2 0x4C3 PUSH2 0x5FE JUMP JUMPDEST GT PUSH2 0x4CD JUMPI PUSH1 0x0 DUP1 REVERT JUMPDEST CALLVALUE ISZERO PUSH2 0x548 JUMPI PUSH2 0x4FE PUSH2 0x4DE PUSH2 0x5FE JUMP JUMPDEST PUSH2 0x4EC CALLVALUE PUSH1 0x1 PUSH1 0x80 SHL PUSH2 0x8C4 JUMP JUMPDEST DUP2 PUSH2 0x4F3 JUMPI INVALID JUMPDEST PUSH1 0x5 SLOAD SWAP2 SWAP1 DIV PUSH2 0x924 JUMP JUMPDEST PUSH1 0x5 SSTORE PUSH1 0x40 DUP1 MLOAD CALLVALUE DUP2 MSTORE SWAP1 MLOAD CALLER SWAP2 PUSH32 0xA493A9229478C3FCD73F66D2CDEB7F94FD0F341DA924D1054236D78454116511 SWAP2 SWAP1 DUP2 SWAP1 SUB PUSH1 0x20 ADD SWAP1 LOG2 PUSH1 0x8 SLOAD PUSH2 0x544 SWAP1 CALLVALUE PUSH2 0x924 JUMP JUMPDEST PUSH1 0x8 SSTORE JUMPDEST JUMP JUMPDEST PUSH1 0x3 DUP1 SLOAD PUSH1 0x40 DUP1 MLOAD PUSH1 0x20 PUSH1 0x1F PUSH1 0x2 PUSH1 0x0 NOT PUSH2 0x100 PUSH1 0x1 DUP9 AND ISZERO MUL ADD SWAP1 SWAP6 AND SWAP5 SWAP1 SWAP5 DIV SWAP4 DUP5 ADD DUP2 SWAP1 DIV DUP2 MUL DUP3 ADD DUP2 ADD SWAP1 SWAP3 MSTORE DUP3 DUP2 MSTORE PUSH1 0x60 SWAP4 SWAP1 SWAP3 SWAP1 SWAP2 DUP4 ADD DUP3 DUP3 DUP1 ISZERO PUSH2 0x5D6 JUMPI DUP1 PUSH1 0x1F LT PUSH2 0x5AB JUMPI PUSH2 0x100 DUP1 DUP4 SLOAD DIV MUL DUP4 MSTORE SWAP2 PUSH1 0x20 ADD SWAP2 PUSH2 0x5D6 JUMP JUMPDEST DUP3 ADD SWAP2 SWAP1 PUSH1 0x0 MSTORE PUSH1 0x20 PUSH1 0x0 KECCAK256 SWAP1 JUMPDEST DUP2 SLOAD DUP2 MSTORE SWAP1 PUSH1 0x1 ADD SWAP1 PUSH1 0x20 ADD DUP1 DUP4 GT PUSH2 0x5B9 JUMPI DUP3 SWAP1 SUB PUSH1 0x1F AND DUP3 ADD SWAP2 JUMPDEST POP POP POP POP POP SWAP1 POP SWAP1 JUMP JUMPDEST PUSH1 0x0 PUSH2 0x5F4 PUSH2 0x5ED PUSH2 0x97E JUMP JUMPDEST DUP5 DUP5 PUSH2 0x982 JUMP JUMPDEST POP PUSH1 0x1 JUMPDEST SWAP3 SWAP2 POP POP JUMP JUMPDEST PUSH1 0x2 SLOAD SWAP1 JUMP JUMPDEST PUSH1 0x0 PUSH2 0x611 DUP5 DUP5 DUP5 PUSH2 0x11C JUMP JUMPDEST PUSH2 0x681 DUP5 PUSH2 0x61D PUSH2 0x97E JUMP JUMPDEST PUSH2 0x67C DUP6 PUSH1 0x40 MLOAD DUP1 PUSH1 0x60 ADD PUSH1 0x40 MSTORE DUP1 PUSH1 0x28 DUP2 MSTORE PUSH1 0x20 ADD PUSH2 0xD22 PUSH1 0x28 SWAP2 CODECOPY PUSH1 0x1 PUSH1 0x1 PUSH1 0xA0 SHL SUB DUP11 AND PUSH1 0x0 SWAP1 DUP2 MSTORE PUSH1 0x1 PUSH1 0x20 MSTORE PUSH1 0x40 DUP2 KECCAK256 SWAP1 PUSH2 0x65B PUSH2 0x97E JUMP JUMPDEST PUSH1 0x1 PUSH1 0x1 PUSH1 0xA0 SHL SUB AND DUP2 MSTORE PUSH1 0x20 DUP2 ADD SWAP2 SWAP1 SWAP2 MSTORE PUSH1 0x40 ADD PUSH1 0x0 KECCAK256 SLOAD SWAP2 SWAP1 PUSH2 0xA6E JUMP JUMPDEST PUSH2 0x982 JUMP JUMPDEST POP PUSH1 0x1 SWAP4 SWAP3 POP POP POP JUMP JUMPDEST PUSH1 0x1 PUSH1 0x1 PUSH1 0xA0 SHL SUB DUP2 AND PUSH1 0x0 SWAP1 DUP2 MSTORE PUSH1 0x6 PUSH1 0x20 MSTORE PUSH1 0x40 DUP2 KECCAK256 SLOAD PUSH1 0x1 PUSH1 0x80 SHL SWAP1 PUSH2 0x6DA SWAP1 PUSH2 0x6D5 SWAP1 PUSH2 0x6CF PUSH2 0x6CA PUSH2 0x6C1 DUP9 PUSH2 0x749 JUMP JUMPDEST PUSH1 0x5 SLOAD SWAP1 PUSH2 0x8C4 JUMP JUMPDEST PUSH2 0xB05 JUMP JUMPDEST SWAP1 PUSH2 0xB15 JUMP JUMPDEST PUSH2 0xB48 JUMP JUMPDEST DUP2 PUSH2 0x6E1 JUMPI INVALID JUMPDEST DIV SWAP1 POP JUMPDEST SWAP2 SWAP1 POP JUMP JUMPDEST PUSH1 0x12 SWAP1 JUMP JUMPDEST PUSH1 0x0 PUSH2 0x5F4 PUSH2 0x6FC PUSH2 0x97E JUMP JUMPDEST DUP5 PUSH2 0x67C DUP6 PUSH1 0x1 PUSH1 0x0 PUSH2 0x70D PUSH2 0x97E JUMP JUMPDEST PUSH1 0x1 PUSH1 0x1 PUSH1 0xA0 SHL SUB SWAP1 DUP2 AND DUP3 MSTORE PUSH1 0x20 DUP1 DUP4 ADD SWAP4 SWAP1 SWAP4 MSTORE PUSH1 0x40 SWAP2 DUP3 ADD PUSH1 0x0 SWAP1 DUP2 KECCAK256 SWAP2 DUP13 AND DUP2 MSTORE SWAP3 MSTORE SWAP1 KECCAK256 SLOAD SWAP1 PUSH2 0x924 JUMP JUMPDEST PUSH2 0x746 CALLER PUSH2 0xB5B JUMP JUMPDEST POP JUMP JUMPDEST PUSH1 0x1 PUSH1 0x1 PUSH1 0xA0 SHL SUB AND PUSH1 0x0 SWAP1 DUP2 MSTORE PUSH1 0x20 DUP2 SWAP1 MSTORE PUSH1 0x40 SWAP1 KECCAK256 SLOAD SWAP1 JUMP JUMPDEST PUSH1 0x8 SLOAD DUP2 JUMP JUMPDEST PUSH1 0x0 PUSH2 0x5F8 DUP3 PUSH2 0x83E JUMP JUMPDEST PUSH1 0x4 DUP1 SLOAD PUSH1 0x40 DUP1 MLOAD PUSH1 0x20 PUSH1 0x1F PUSH1 0x2 PUSH1 0x0 NOT PUSH2 0x100 PUSH1 0x1 DUP9 AND ISZERO MUL ADD SWAP1 SWAP6 AND SWAP5 SWAP1 SWAP5 DIV SWAP4 DUP5 ADD DUP2 SWAP1 DIV DUP2 MUL DUP3 ADD DUP2 ADD SWAP1 SWAP3 MSTORE DUP3 DUP2 MSTORE PUSH1 0x60 SWAP4 SWAP1 SWAP3 SWAP1 SWAP2 DUP4 ADD DUP3 DUP3 DUP1 ISZERO PUSH2 0x5D6 JUMPI DUP1 PUSH1 0x1F LT PUSH2 0x5AB JUMPI PUSH2 0x100 DUP1 DUP4 SLOAD DIV MUL DUP4 MSTORE SWAP2 PUSH1 0x20 ADD SWAP2 PUSH2 0x5D6 JUMP JUMPDEST PUSH1 0x0 PUSH2 0x5F4 PUSH2 0x7E3 PUSH2 0x97E JUMP JUMPDEST DUP5 PUSH2 0x67C DUP6 PUSH1 0x40 MLOAD DUP1 PUSH1 0x60 ADD PUSH1 0x40 MSTORE DUP1 PUSH1 0x25 DUP2 MSTORE PUSH1 0x20 ADD PUSH2 0xD6E PUSH1 0x25 SWAP2 CODECOPY PUSH1 0x1 PUSH1 0x0 PUSH2 0x80D PUSH2 0x97E JUMP JUMPDEST PUSH1 0x1 PUSH1 0x1 PUSH1 0xA0 SHL SUB SWAP1 DUP2 AND DUP3 MSTORE PUSH1 0x20 DUP1 DUP4 ADD SWAP4 SWAP1 SWAP4 MSTORE PUSH1 0x40 SWAP2 DUP3 ADD PUSH1 0x0 SWAP1 DUP2 KECCAK256 SWAP2 DUP14 AND DUP2 MSTORE SWAP3 MSTORE SWAP1 KECCAK256 SLOAD SWAP2 SWAP1 PUSH2 0xA6E JUMP JUMPDEST PUSH1 0x1 PUSH1 0x1 PUSH1 0xA0 SHL SUB DUP2 AND PUSH1 0x0 SWAP1 DUP2 MSTORE PUSH1 0x7 PUSH1 0x20 MSTORE PUSH1 0x40 DUP2 KECCAK256 SLOAD PUSH2 0x5F8 SWAP1 PUSH2 0x864 DUP5 PUSH2 0x68B JUMP JUMPDEST SWAP1 PUSH2 0xC9C JUMP JUMPDEST PUSH1 0x0 PUSH2 0x5F4 PUSH2 0x877 PUSH2 0x97E JUMP JUMPDEST DUP5 DUP5 PUSH2 0x11C JUMP JUMPDEST PUSH1 0x1 PUSH1 0x1 PUSH1 0xA0 SHL SUB AND PUSH1 0x0 SWAP1 DUP2 MSTORE PUSH1 0x7 PUSH1 0x20 MSTORE PUSH1 0x40 SWAP1 KECCAK256 SLOAD SWAP1 JUMP JUMPDEST PUSH1 0x1 PUSH1 0x1 PUSH1 0xA0 SHL SUB SWAP2 DUP3 AND PUSH1 0x0 SWAP1 DUP2 MSTORE PUSH1 0x1 PUSH1 0x20 SWAP1 DUP2 MSTORE PUSH1 0x40 DUP1 DUP4 KECCAK256 SWAP4 SWAP1 SWAP5 AND DUP3 MSTORE SWAP2 SWAP1 SWAP2 MSTORE KECCAK256 SLOAD SWAP1 JUMP JUMPDEST PUSH1 0x0 DUP3 PUSH2 0x8D3 JUMPI POP PUSH1 0x0 PUSH2 0x5F8 JUMP JUMPDEST DUP3 DUP3 MUL DUP3 DUP5 DUP3 DUP2 PUSH2 0x8E0 JUMPI INVALID JUMPDEST DIV EQ PUSH2 0x91D JUMPI PUSH1 0x40 MLOAD PUSH3 0x461BCD PUSH1 0xE5 SHL DUP2 MSTORE PUSH1 0x4 ADD DUP1 DUP1 PUSH1 0x20 ADD DUP3 DUP2 SUB DUP3 MSTORE PUSH1 0x21 DUP2 MSTORE PUSH1 0x20 ADD DUP1 PUSH2 0xD01 PUSH1 0x21 SWAP2 CODECOPY PUSH1 0x40 ADD SWAP2 POP POP PUSH1 0x40 MLOAD DUP1 SWAP2 SUB SWAP1 REVERT JUMPDEST SWAP4 SWAP3 POP POP POP JUMP JUMPDEST PUSH1 0x0 DUP3 DUP3 ADD DUP4 DUP2 LT ISZERO PUSH2 0x91D JUMPI PUSH1 0x40 DUP1 MLOAD PUSH3 0x461BCD PUSH1 0xE5 SHL DUP2 MSTORE PUSH1 0x20 PUSH1 0x4 DUP3 ADD MSTORE PUSH1 0x1B PUSH1 0x24 DUP3 ADD MSTORE PUSH32 0x536166654D6174683A206164646974696F6E206F766572666C6F770000000000 PUSH1 0x44 DUP3 ADD MSTORE SWAP1 MLOAD SWAP1 DUP2 SWAP1 SUB PUSH1 0x64 ADD SWAP1 REVERT JUMPDEST CALLER SWAP1 JUMP JUMPDEST PUSH1 0x1 PUSH1 0x1 PUSH1 0xA0 SHL SUB DUP4 AND PUSH2 0x9C7 JUMPI PUSH1 0x40 MLOAD PUSH3 0x461BCD PUSH1 0xE5 SHL DUP2 MSTORE PUSH1 0x4 ADD DUP1 DUP1 PUSH1 0x20 ADD DUP3 DUP2 SUB DUP3 MSTORE PUSH1 0x24 DUP2 MSTORE PUSH1 0x20 ADD DUP1 PUSH2 0xD4A PUSH1 0x24 SWAP2 CODECOPY PUSH1 0x40 ADD SWAP2 POP POP PUSH1 0x40 MLOAD DUP1 SWAP2 SUB SWAP1 REVERT JUMPDEST PUSH1 0x1 PUSH1 0x1 PUSH1 0xA0 SHL SUB DUP3 AND PUSH2 0xA0C JUMPI PUSH1 0x40 MLOAD PUSH3 0x461BCD PUSH1 0xE5 SHL DUP2 MSTORE PUSH1 0x4 ADD DUP1 DUP1 PUSH1 0x20 ADD DUP3 DUP2 SUB DUP3 MSTORE PUSH1 0x22 DUP2 MSTORE PUSH1 0x20 ADD DUP1 PUSH2 0xCDF PUSH1 0x22 SWAP2 CODECOPY PUSH1 0x40 ADD SWAP2 POP POP PUSH1 0x40 MLOAD DUP1 SWAP2 SUB SWAP1 REVERT JUMPDEST PUSH1 0x1 PUSH1 0x1 PUSH1 0xA0 SHL SUB DUP1 DUP5 AND PUSH1 0x0 DUP2 DUP2 MSTORE PUSH1 0x1 PUSH1 0x20 SWAP1 DUP2 MSTORE PUSH1 0x40 DUP1 DUP4 KECCAK256 SWAP5 DUP8 AND DUP1 DUP5 MSTORE SWAP5 DUP3 MSTORE SWAP2 DUP3 SWAP1 KECCAK256 DUP6 SWAP1 SSTORE DUP2 MLOAD DUP6 DUP2 MSTORE SWAP2 MLOAD PUSH32 0x8C5BE1E5EBEC7D5BD14F71427D1E84F3DD0314C0F7B2291E5B200AC8C7C3B925 SWAP3 DUP2 SWAP1 SUB SWAP1 SWAP2 ADD SWAP1 LOG3 POP POP POP JUMP JUMPDEST PUSH1 0x0 DUP2 DUP5 DUP5 GT ISZERO PUSH2 0xAFD JUMPI PUSH1 0x40 MLOAD PUSH3 0x461BCD PUSH1 0xE5 SHL DUP2 MSTORE PUSH1 0x4 ADD DUP1 DUP1 PUSH1 0x20 ADD DUP3 DUP2 SUB DUP3 MSTORE DUP4 DUP2 DUP2 MLOAD DUP2 MSTORE PUSH1 0x20 ADD SWAP2 POP DUP1 MLOAD SWAP1 PUSH1 0x20 ADD SWAP1 DUP1 DUP4 DUP4 PUSH1 0x0 JUMPDEST DUP4 DUP2 LT ISZERO PUSH2 0xAC2 JUMPI DUP2 DUP2 ADD MLOAD DUP4 DUP3 ADD MSTORE PUSH1 0x20 ADD PUSH2 0xAAA JUMP JUMPDEST POP POP POP POP SWAP1 POP SWAP1 DUP2 ADD SWAP1 PUSH1 0x1F AND DUP1 ISZERO PUSH2 0xAEF JUMPI DUP1 DUP3 SUB DUP1 MLOAD PUSH1 0x1 DUP4 PUSH1 0x20 SUB PUSH2 0x100 EXP SUB NOT AND DUP2 MSTORE PUSH1 0x20 ADD SWAP2 POP JUMPDEST POP SWAP3 POP POP POP PUSH1 0x40 MLOAD DUP1 SWAP2 SUB SWAP1 REVERT JUMPDEST POP POP POP SWAP1 SUB SWAP1 JUMP JUMPDEST PUSH1 0x0 DUP2 DUP2 DUP2 SLT ISZERO PUSH2 0x5F8 JUMPI PUSH1 0x0 DUP1 REVERT JUMPDEST PUSH1 0x0 DUP3 DUP3 ADD DUP2 DUP4 SLT DUP1 ISZERO SWAP1 PUSH2 0xB2A JUMPI POP DUP4 DUP2 SLT ISZERO JUMPDEST DUP1 PUSH2 0xB3F JUMPI POP PUSH1 0x0 DUP4 SLT DUP1 ISZERO PUSH2 0xB3F JUMPI POP DUP4 DUP2 SLT JUMPDEST PUSH2 0x91D JUMPI PUSH1 0x0 DUP1 REVERT JUMPDEST PUSH1 0x0 DUP1 DUP3 SLT ISZERO PUSH2 0xB57 JUMPI PUSH1 0x0 DUP1 REVERT JUMPDEST POP SWAP1 JUMP JUMPDEST PUSH1 0x0 DUP1 PUSH2 0xB67 DUP4 PUSH2 0x83E JUMP JUMPDEST SWAP1 POP DUP1 ISZERO PUSH2 0xC93 JUMPI PUSH1 0x1 PUSH1 0x1 PUSH1 0xA0 SHL SUB DUP4 AND PUSH1 0x0 SWAP1 DUP2 MSTORE PUSH1 0x7 PUSH1 0x20 MSTORE PUSH1 0x40 SWAP1 KECCAK256 SLOAD PUSH2 0xB92 SWAP1 DUP3 PUSH2 0x924 JUMP JUMPDEST PUSH1 0x1 PUSH1 0x1 PUSH1 0xA0 SHL SUB DUP5 AND PUSH1 0x0 DUP2 DUP2 MSTORE PUSH1 0x7 PUSH1 0x20 SWAP1 DUP2 MSTORE PUSH1 0x40 SWAP2 DUP3 SWAP1 KECCAK256 SWAP4 SWAP1 SWAP4 SSTORE DUP1 MLOAD DUP5 DUP2 MSTORE SWAP1 MLOAD SWAP2 SWAP3 PUSH32 0xEE503BEE2BB6A87E57BC57DB795F98137327401A0E7B7CE42E37926CC1A9CA4D SWAP3 SWAP2 DUP3 SWAP1 SUB ADD SWAP1 LOG2 PUSH1 0x40 MLOAD PUSH1 0x0 SWAP1 PUSH1 0x1 PUSH1 0x1 PUSH1 0xA0 SHL SUB DUP6 AND SWAP1 PUSH2 0xBB8 SWAP1 DUP5 SWAP1 DUP5 DUP2 DUP2 DUP2 DUP6 DUP9 DUP9 CALL SWAP4 POP POP POP POP RETURNDATASIZE DUP1 PUSH1 0x0 DUP2 EQ PUSH2 0xC34 JUMPI PUSH1 0x40 MLOAD SWAP2 POP PUSH1 0x1F NOT PUSH1 0x3F RETURNDATASIZE ADD AND DUP3 ADD PUSH1 0x40 MSTORE RETURNDATASIZE DUP3 MSTORE RETURNDATASIZE PUSH1 0x0 PUSH1 0x20 DUP5 ADD RETURNDATACOPY PUSH2 0xC39 JUMP JUMPDEST PUSH1 0x60 SWAP2 POP JUMPDEST POP POP SWAP1 POP DUP1 PUSH2 0xC8B JUMPI PUSH1 0x1 PUSH1 0x1 PUSH1 0xA0 SHL SUB DUP5 AND PUSH1 0x0 SWAP1 DUP2 MSTORE PUSH1 0x7 PUSH1 0x20 MSTORE PUSH1 0x40 SWAP1 KECCAK256 SLOAD PUSH2 0xC65 SWAP1 DUP4 PUSH2 0xC9C JUMP JUMPDEST PUSH1 0x1 PUSH1 0x1 PUSH1 0xA0 SHL SUB DUP6 AND PUSH1 0x0 SWAP1 DUP2 MSTORE PUSH1 0x7 PUSH1 0x20 MSTORE PUSH1 0x40 DUP2 KECCAK256 SWAP2 SWAP1 SWAP2 SSTORE SWAP3 POP PUSH2 0x6E5 SWAP2 POP POP JUMP JUMPDEST POP SWAP1 POP PUSH2 0x6E5 JUMP JUMPDEST POP PUSH1 0x0 SWAP3 SWAP2 POP POP JUMP JUMPDEST PUSH1 0x0 PUSH2 0x91D DUP4 DUP4 PUSH1 0x40 MLOAD DUP1 PUSH1 0x40 ADD PUSH1 0x40 MSTORE DUP1 PUSH1 0x1E DUP2 MSTORE PUSH1 0x20 ADD PUSH32 0x536166654D6174683A207375627472616374696F6E206F766572666C6F770000 DUP2 MSTORE POP PUSH2 0xA6E JUMP INVALID GASLIMIT MSTORE NUMBER ORIGIN ADDRESS GASPRICE KECCAK256 PUSH2 0x7070 PUSH19 0x6F766520746F20746865207A65726F20616464 PUSH19 0x657373536166654D6174683A206D756C746970 PUSH13 0x69636174696F6E206F76657266 PUSH13 0x6F7745524332303A207472616E PUSH20 0x66657220616D6F756E7420657863656564732061 PUSH13 0x6C6F77616E636545524332303A KECCAK256 PUSH2 0x7070 PUSH19 0x6F76652066726F6D20746865207A65726F2061 PUSH5 0x6472657373 GASLIMIT MSTORE NUMBER ORIGIN ADDRESS GASPRICE KECCAK256 PUSH5 0x6563726561 PUSH20 0x656420616C6C6F77616E63652062656C6F77207A PUSH6 0x726FA2646970 PUSH7 0x7358221220EEAA MSTORE SWAP4 0x4E PUSH1 0x6F SWAP11 JUMPI 0xEC 0x5D CALLDATACOPY SWAP12 SWAP3 SIGNEXTEND 0xB1 0xD4 AND 0x49 NOT 0xB9 SWAP11 0xAB 0x26 CREATE2 0xE7 0xAA DUP13 PUSH28 0x71BA3864736F6C634300060C00330000000000000000000000000000 "
				},
				"gasEstimates": {
					"creation": {
						"codeDepositCost": "705600",
						"executionCost": "infinite",
						"totalCost": "infinite"
					},
					"external": {
						"accumulativeDividendOf(address)": "infinite",
						"allowance(address,address)": "1360",
						"approve(address,uint256)": "infinite",
						"balanceOf(address)": "1168",
						"decimals()": "274",
						"decreaseAllowance(address,uint256)": "infinite",
						"distributeDividends()": "infinite",
						"dividendOf(address)": "infinite",
						"increaseAllowance(address,uint256)": "infinite",
						"name()": "infinite",
						"symbol()": "infinite",
						"totalDividendsDistributed()": "1043",
						"totalSupply()": "1088",
						"transfer(address,uint256)": "335",
						"transferFrom(address,address,uint256)": "293",
						"withdrawDividend()": "infinite",
						"withdrawableDividendOf(address)": "infinite",
						"withdrawnDividendOf(address)": "1230"
					},
					"internal": {
						"_burn(address,uint256)": "infinite",
						"_mint(address,uint256)": "infinite",
						"_setBalance(address,uint256)": "infinite",
						"_transfer(address,address,uint256)": "infinite",
						"_withdrawDividendOfUser(address payable)": "infinite"
					}
				},
				"methodIdentifiers": {
					"accumulativeDividendOf(address)": "27ce0147",
					"allowance(address,address)": "dd62ed3e",
					"approve(address,uint256)": "095ea7b3",
					"balanceOf(address)": "70a08231",
					"decimals()": "313ce567",
					"decreaseAllowance(address,uint256)": "a457c2d7",
					"distributeDividends()": "03c83302",
					"dividendOf(address)": "91b89fba",
					"increaseAllowance(address,uint256)": "39509351",
					"name()": "06fdde03",
					"symbol()": "95d89b41",
					"totalDividendsDistributed()": "85a6b3ae",
					"totalSupply()": "18160ddd",
					"transfer(address,uint256)": "a9059cbb",
					"transferFrom(address,address,uint256)": "23b872dd",
					"withdrawDividend()": "6a474002",
					"withdrawableDividendOf(address)": "a8b9d240",
					"withdrawnDividendOf(address)": "aafd847a"
				}
			},
			"storageLayout": {
				"storage": [
					{
						"astId": 1395,
						"contract": "contracts/dethDividendTracker.sol:DividendPayingToken",
						"label": "_balances",
						"offset": 0,
						"slot": "0",
						"type": "t_mapping(t_address,t_uint256)"
					},
					{
						"astId": 1401,
						"contract": "contracts/dethDividendTracker.sol:DividendPayingToken",
						"label": "_allowances",
						"offset": 0,
						"slot": "1",
						"type": "t_mapping(t_address,t_mapping(t_address,t_uint256))"
					},
					{
						"astId": 1403,
						"contract": "contracts/dethDividendTracker.sol:DividendPayingToken",
						"label": "_totalSupply",
						"offset": 0,
						"slot": "2",
						"type": "t_uint256"
					},
					{
						"astId": 1405,
						"contract": "contracts/dethDividendTracker.sol:DividendPayingToken",
						"label": "_name",
						"offset": 0,
						"slot": "3",
						"type": "t_string_storage"
					},
					{
						"astId": 1407,
						"contract": "contracts/dethDividendTracker.sol:DividendPayingToken",
						"label": "_symbol",
						"offset": 0,
						"slot": "4",
						"type": "t_string_storage"
					},
					{
						"astId": 72,
						"contract": "contracts/dethDividendTracker.sol:DividendPayingToken",
						"label": "magnifiedDividendPerShare",
						"offset": 0,
						"slot": "5",
						"type": "t_uint256"
					},
					{
						"astId": 76,
						"contract": "contracts/dethDividendTracker.sol:DividendPayingToken",
						"label": "magnifiedDividendCorrections",
						"offset": 0,
						"slot": "6",
						"type": "t_mapping(t_address,t_int256)"
					},
					{
						"astId": 80,
						"contract": "contracts/dethDividendTracker.sol:DividendPayingToken",
						"label": "withdrawnDividends",
						"offset": 0,
						"slot": "7",
						"type": "t_mapping(t_address,t_uint256)"
					},
					{
						"astId": 82,
						"contract": "contracts/dethDividendTracker.sol:DividendPayingToken",
						"label": "totalDividendsDistributed",
						"offset": 0,
						"slot": "8",
						"type": "t_uint256"
					}
				],
				"types": {
					"t_address": {
						"encoding": "inplace",
						"label": "address",
						"numberOfBytes": "20"
					},
					"t_int256": {
						"encoding": "inplace",
						"label": "int256",
						"numberOfBytes": "32"
					},
					"t_mapping(t_address,t_int256)": {
						"encoding": "mapping",
						"key": "t_address",
						"label": "mapping(address => int256)",
						"numberOfBytes": "32",
						"value": "t_int256"
					},
					"t_mapping(t_address,t_mapping(t_address,t_uint256))": {
						"encoding": "mapping",
						"key": "t_address",
						"label": "mapping(address => mapping(address => uint256))",
						"numberOfBytes": "32",
						"value": "t_mapping(t_address,t_uint256)"
					},
					"t_mapping(t_address,t_uint256)": {
						"encoding": "mapping",
						"key": "t_address",
						"label": "mapping(address => uint256)",
						"numberOfBytes": "32",
						"value": "t_uint256"
					},
					"t_string_storage": {
						"encoding": "bytes",
						"label": "string",
						"numberOfBytes": "32"
					},
					"t_uint256": {
						"encoding": "inplace",
						"label": "uint256",
						"numberOfBytes": "32"
					}
				}
			},
			"userdoc": {
				"kind": "user",
				"methods": {},
				"version": 1
			}
		}
	}
}