{
	"contracts/Token.sol": {
		"CronicShiba": {
			"abi": [
				{
					"inputs": [
						{
							"internalType": "address",
							"name": "treasure",
							"type": "address"
						},
						{
							"internalType": "address",
							"name": "router",
							"type": "address"
						}
					],
					"stateMutability": "nonpayable",
					"type": "constructor"
				},
				{
					"anonymous": false,
					"inputs": [
						{
							"indexed": true,
							"internalType": "address",
							"name": "owner",
							"type": "address"
						},
						{
							"indexed": true,
							"internalType": "address",
							"name": "spender",
							"type": "address"
						},
						{
							"indexed": false,
							"internalType": "uint256",
							"name": "value",
							"type": "uint256"
						}
					],
					"name": "Approval",
					"type": "event"
				},
				{
					"anonymous": false,
					"inputs": [
						{
							"indexed": true,
							"internalType": "address",
							"name": "previousOwner",
							"type": "address"
						},
						{
							"indexed": true,
							"internalType": "address",
							"name": "newOwner",
							"type": "address"
						}
					],
					"name": "OwnershipTransferred",
					"type": "event"
				},
				{
					"anonymous": false,
					"inputs": [
						{
							"indexed": false,
							"internalType": "uint256",
							"name": "amount",
							"type": "uint256"
						}
					],
					"name": "SendETHToFee",
					"type": "event"
				},
				{
					"anonymous": false,
					"inputs": [
						{
							"indexed": false,
							"internalType": "uint256",
							"name": "amountIn",
							"type": "uint256"
						},
						{
							"indexed": false,
							"internalType": "address[]",
							"name": "path",
							"type": "address[]"
						}
					],
					"name": "SwapETHForTokens",
					"type": "event"
				},
				{
					"anonymous": false,
					"inputs": [
						{
							"indexed": false,
							"internalType": "uint256",
							"name": "contractTokenBalance",
							"type": "uint256"
						},
						{
							"indexed": false,
							"internalType": "uint256",
							"name": "contractETHBalance",
							"type": "uint256"
						}
					],
					"name": "SwapTokens",
					"type": "event"
				},
				{
					"anonymous": false,
					"inputs": [
						{
							"indexed": false,
							"internalType": "uint256",
							"name": "amountIn",
							"type": "uint256"
						},
						{
							"indexed": false,
							"internalType": "address[]",
							"name": "path",
							"type": "address[]"
						}
					],
					"name": "SwapTokensForETH",
					"type": "event"
				},
				{
					"anonymous": false,
					"inputs": [
						{
							"indexed": true,
							"internalType": "address",
							"name": "from",
							"type": "address"
						},
						{
							"indexed": true,
							"internalType": "address",
							"name": "to",
							"type": "address"
						},
						{
							"indexed": false,
							"internalType": "uint256",
							"name": "value",
							"type": "uint256"
						}
					],
					"name": "Transfer",
					"type": "event"
				},
				{
					"inputs": [
						{
							"internalType": "address",
							"name": "account",
							"type": "address"
						}
					],
					"name": "_amnestySniper",
					"outputs": [],
					"stateMutability": "nonpayable",
					"type": "function"
				},
				{
					"inputs": [],
					"name": "_liquidityFee",
					"outputs": [
						{
							"internalType": "uint256",
							"name": "",
							"type": "uint256"
						}
					],
					"stateMutability": "view",
					"type": "function"
				},
				{
					"inputs": [
						{
							"internalType": "address",
							"name": "account",
							"type": "address"
						}
					],
					"name": "_removeSniper",
					"outputs": [],
					"stateMutability": "nonpayable",
					"type": "function"
				},
				{
					"inputs": [],
					"name": "_taxFee",
					"outputs": [
						{
							"internalType": "uint256",
							"name": "",
							"type": "uint256"
						}
					],
					"stateMutability": "view",
					"type": "function"
				},
				{
					"inputs": [
						{
							"internalType": "address",
							"name": "owner",
							"type": "address"
						},
						{
							"internalType": "address",
							"name": "spender",
							"type": "address"
						}
					],
					"name": "allowance",
					"outputs": [
						{
							"internalType": "uint256",
							"name": "",
							"type": "uint256"
						}
					],
					"stateMutability": "view",
					"type": "function"
				},
				{
					"inputs": [
						{
							"internalType": "address",
							"name": "spender",
							"type": "address"
						},
						{
							"internalType": "uint256",
							"name": "amount",
							"type": "uint256"
						}
					],
					"name": "approve",
					"outputs": [
						{
							"internalType": "bool",
							"name": "",
							"type": "bool"
						}
					],
					"stateMutability": "nonpayable",
					"type": "function"
				},
				{
					"inputs": [
						{
							"internalType": "address",
							"name": "account",
							"type": "address"
						}
					],
					"name": "balanceOf",
					"outputs": [
						{
							"internalType": "uint256",
							"name": "",
							"type": "uint256"
						}
					],
					"stateMutability": "view",
					"type": "function"
				},
				{
					"inputs": [],
					"name": "deadAddress",
					"outputs": [
						{
							"internalType": "address",
							"name": "",
							"type": "address"
						}
					],
					"stateMutability": "view",
					"type": "function"
				},
				{
					"inputs": [],
					"name": "decimals",
					"outputs": [
						{
							"internalType": "uint8",
							"name": "",
							"type": "uint8"
						}
					],
					"stateMutability": "view",
					"type": "function"
				},
				{
					"inputs": [
						{
							"internalType": "address",
							"name": "spender",
							"type": "address"
						},
						{
							"internalType": "uint256",
							"name": "subtractedValue",
							"type": "uint256"
						}
					],
					"name": "decreaseAllowance",
					"outputs": [
						{
							"internalType": "bool",
							"name": "",
							"type": "bool"
						}
					],
					"stateMutability": "nonpayable",
					"type": "function"
				},
				{
					"inputs": [
						{
							"internalType": "uint256",
							"name": "tAmount",
							"type": "uint256"
						}
					],
					"name": "deliver",
					"outputs": [],
					"stateMutability": "nonpayable",
					"type": "function"
				},
				{
					"inputs": [],
					"name": "emergencyWithdraw",
					"outputs": [],
					"stateMutability": "nonpayable",
					"type": "function"
				},
				{
					"inputs": [
						{
							"internalType": "address",
							"name": "account",
							"type": "address"
						}
					],
					"name": "excludeFromFee",
					"outputs": [],
					"stateMutability": "nonpayable",
					"type": "function"
				},
				{
					"inputs": [
						{
							"internalType": "address",
							"name": "account",
							"type": "address"
						}
					],
					"name": "excludeFromReward",
					"outputs": [],
					"stateMutability": "nonpayable",
					"type": "function"
				},
				{
					"inputs": [],
					"name": "getBlockTime",
					"outputs": [
						{
							"internalType": "uint256",
							"name": "",
							"type": "uint256"
						}
					],
					"stateMutability": "view",
					"type": "function"
				},
				{
					"inputs": [
						{
							"internalType": "address",
							"name": "account",
							"type": "address"
						}
					],
					"name": "includeInFee",
					"outputs": [],
					"stateMutability": "nonpayable",
					"type": "function"
				},
				{
					"inputs": [
						{
							"internalType": "address",
							"name": "account",
							"type": "address"
						}
					],
					"name": "includeInReward",
					"outputs": [],
					"stateMutability": "nonpayable",
					"type": "function"
				},
				{
					"inputs": [
						{
							"internalType": "address",
							"name": "spender",
							"type": "address"
						},
						{
							"internalType": "uint256",
							"name": "addedValue",
							"type": "uint256"
						}
					],
					"name": "increaseAllowance",
					"outputs": [
						{
							"internalType": "bool",
							"name": "",
							"type": "bool"
						}
					],
					"stateMutability": "nonpayable",
					"type": "function"
				},
				{
					"inputs": [
						{
							"internalType": "address",
							"name": "account",
							"type": "address"
						}
					],
					"name": "isExcludedFromFee",
					"outputs": [
						{
							"internalType": "bool",
							"name": "",
							"type": "bool"
						}
					],
					"stateMutability": "view",
					"type": "function"
				},
				{
					"inputs": [
						{
							"internalType": "address",
							"name": "account",
							"type": "address"
						}
					],
					"name": "isExcludedFromReward",
					"outputs": [
						{
							"internalType": "bool",
							"name": "",
							"type": "bool"
						}
					],
					"stateMutability": "view",
					"type": "function"
				},
				{
					"inputs": [
						{
							"internalType": "address",
							"name": "account",
							"type": "address"
						}
					],
					"name": "isRemovedSniper",
					"outputs": [
						{
							"internalType": "bool",
							"name": "",
							"type": "bool"
						}
					],
					"stateMutability": "view",
					"type": "function"
				},
				{
					"inputs": [],
					"name": "marketingAddress",
					"outputs": [
						{
							"internalType": "address payable",
							"name": "",
							"type": "address"
						}
					],
					"stateMutability": "view",
					"type": "function"
				},
				{
					"inputs": [],
					"name": "name",
					"outputs": [
						{
							"internalType": "string",
							"name": "",
							"type": "string"
						}
					],
					"stateMutability": "view",
					"type": "function"
				},
				{
					"inputs": [],
					"name": "openTrading",
					"outputs": [],
					"stateMutability": "nonpayable",
					"type": "function"
				},
				{
					"inputs": [],
					"name": "owner",
					"outputs": [
						{
							"internalType": "address",
							"name": "",
							"type": "address"
						}
					],
					"stateMutability": "view",
					"type": "function"
				},
				{
					"inputs": [
						{
							"internalType": "uint256",
							"name": "tAmount",
							"type": "uint256"
						},
						{
							"internalType": "bool",
							"name": "deductTransferFee",
							"type": "bool"
						}
					],
					"name": "reflectionFromToken",
					"outputs": [
						{
							"internalType": "uint256",
							"name": "",
							"type": "uint256"
						}
					],
					"stateMutability": "view",
					"type": "function"
				},
				{
					"inputs": [],
					"name": "renounceOwnership",
					"outputs": [],
					"stateMutability": "nonpayable",
					"type": "function"
				},
				{
					"inputs": [
						{
							"internalType": "uint256",
							"name": "rate",
							"type": "uint256"
						}
					],
					"name": "setFeeRate",
					"outputs": [],
					"stateMutability": "nonpayable",
					"type": "function"
				},
				{
					"inputs": [
						{
							"internalType": "uint256",
							"name": "liquidityFee",
							"type": "uint256"
						}
					],
					"name": "setLiquidityFeePercent",
					"outputs": [],
					"stateMutability": "nonpayable",
					"type": "function"
				},
				{
					"inputs": [
						{
							"internalType": "address",
							"name": "_marketingAddress",
							"type": "address"
						}
					],
					"name": "setMarketingAddress",
					"outputs": [],
					"stateMutability": "nonpayable",
					"type": "function"
				},
				{
					"inputs": [
						{
							"internalType": "uint256",
							"name": "taxFee",
							"type": "uint256"
						}
					],
					"name": "setTaxFeePercent",
					"outputs": [],
					"stateMutability": "nonpayable",
					"type": "function"
				},
				{
					"inputs": [],
					"name": "symbol",
					"outputs": [
						{
							"internalType": "string",
							"name": "",
							"type": "string"
						}
					],
					"stateMutability": "view",
					"type": "function"
				},
				{
					"inputs": [
						{
							"internalType": "uint256",
							"name": "rAmount",
							"type": "uint256"
						}
					],
					"name": "tokenFromReflection",
					"outputs": [
						{
							"internalType": "uint256",
							"name": "",
							"type": "uint256"
						}
					],
					"stateMutability": "view",
					"type": "function"
				},
				{
					"inputs": [],
					"name": "totalFees",
					"outputs": [
						{
							"internalType": "uint256",
							"name": "",
							"type": "uint256"
						}
					],
					"stateMutability": "view",
					"type": "function"
				},
				{
					"inputs": [],
					"name": "totalSupply",
					"outputs": [
						{
							"internalType": "uint256",
							"name": "",
							"type": "uint256"
						}
					],
					"stateMutability": "view",
					"type": "function"
				},
				{
					"inputs": [
						{
							"internalType": "address",
							"name": "recipient",
							"type": "address"
						},
						{
							"internalType": "uint256",
							"name": "amount",
							"type": "uint256"
						}
					],
					"name": "transfer",
					"outputs": [
						{
							"internalType": "bool",
							"name": "",
							"type": "bool"
						}
					],
					"stateMutability": "nonpayable",
					"type": "function"
				},
				{
					"inputs": [
						{
							"internalType": "address",
							"name": "sender",
							"type": "address"
						},
						{
							"internalType": "address",
							"name": "recipient",
							"type": "address"
						},
						{
							"internalType": "uint256",
							"name": "amount",
							"type": "uint256"
						}
					],
					"name": "transferFrom",
					"outputs": [
						{
							"internalType": "bool",
							"name": "",
							"type": "bool"
						}
					],
					"stateMutability": "nonpayable",
					"type": "function"
				},
				{
					"inputs": [
						{
							"internalType": "address",
							"name": "newOwner",
							"type": "address"
						}
					],
					"name": "transferOwnership",
					"outputs": [],
					"stateMutability": "nonpayable",
					"type": "function"
				},
				{
					"inputs": [],
					"name": "uniswapV2Pair",
					"outputs": [
						{
							"internalType": "address",
							"name": "",
							"type": "address"
						}
					],
					"stateMutability": "view",
					"type": "function"
				},
				{
					"inputs": [],
					"name": "uniswapV2Router",
					"outputs": [
						{
							"internalType": "contract IUniswapV2Router02",
							"name": "",
							"type": "address"
						}
					],
					"stateMutability": "view",
					"type": "function"
				},
				{
					"stateMutability": "payable",
					"type": "receive"
				}
			],
			"devdoc": {
				"kind": "dev",
				"methods": {},
				"version": 1
			},
			"evm": {
				"assembly": "    /* \"contracts/Token.sol\":92:19050  contract CronicShiba is Context, IERC20, Ownable {\r... */\n  mstore(0x40, 0xa0)\n    /* \"contracts/Token.sol\":265:307  0x40da1dd681eC6175C3BCFe1641CD2826A99EBdD8 */\n  0x40da1dd681ec6175c3bcfe1641cd2826a99ebdd8\n    /* \"contracts/Token.sol\":215:308  address payable public marketingAddress = payable(0x40da1dd681eC6175C3BCFe1641CD2826A99EBdD8) */\n  0x03\n  exp(0x0100, 0x00)\n  dup2\n  sload\n  dup2\n  0xffffffffffffffffffffffffffffffffffffffff\n  mul\n  not\n  and\n  swap1\n  dup4\n  0xffffffffffffffffffffffffffffffffffffffff\n  and\n  mul\n  or\n  swap1\n  sstore\n  pop\n    /* \"contracts/Token.sol\":375:417  0x000000000000000000000000000000000000dEaD */\n  0xdead\n    /* \"contracts/Token.sol\":336:417  address public immutable deadAddress = 0x000000000000000000000000000000000000dEaD */\n  0xffffffffffffffffffffffffffffffffffffffff\n  and\n  0x80\n  swap1\n  0xffffffffffffffffffffffffffffffffffffffff\n  and\n  0x60\n  shl\n  dup2\n  mstore\n  pop\n    /* \"contracts/Token.sol\":911:935  10000000000000 * 10 ** 9 */\n  0x021e19e0c9bab2400000\n    /* \"contracts/Token.sol\":885:935  uint256 private _tTotal = 10000000000000 * 10 ** 9 */\n  0x0c\n  sstore\n    /* \"contracts/Token.sol\":982:989  _tTotal */\n  sload(0x0c)\n    /* \"contracts/Token.sol\":876:877  0 */\n  0x00\n    /* \"contracts/Token.sol\":867:878  ~uint256(0) */\n  not\n    /* \"contracts/Token.sol\":976:989  MAX % _tTotal */\n  dup2\n  tag_1\n  jumpi\n  invalid\ntag_1:\n  mod\n    /* \"contracts/Token.sol\":876:877  0 */\n  0x00\n    /* \"contracts/Token.sol\":867:878  ~uint256(0) */\n  not\n    /* \"contracts/Token.sol\":969:990  MAX - (MAX % _tTotal) */\n  sub\n    /* \"contracts/Token.sol\":942:991  uint256 private _rTotal = (MAX - (MAX % _tTotal)) */\n  0x0d\n  sstore\n    /* \"contracts/Token.sol\":1033:1069  string private _name = \"CronicShiba\" */\n  mload(0x40)\n  dup1\n  0x40\n  add\n  0x40\n  mstore\n  dup1\n  0x0b\n  dup2\n  mstore\n  0x20\n  add\n  0x43726f6e69635368696261000000000000000000000000000000000000000000\n  dup2\n  mstore\n  pop\n  0x0f\n  swap1\n  dup1\n  mload\n  swap1\n  0x20\n  add\n  swap1\n  tag_2\n  swap3\n  swap2\n  swap1\n  tag_3\n  jump\t// in\ntag_2:\n  pop\n    /* \"contracts/Token.sol\":1076:1109  string private _symbol = \"CRONIC\" */\n  mload(0x40)\n  dup1\n  0x40\n  add\n  0x40\n  mstore\n  dup1\n  0x06\n  dup2\n  mstore\n  0x20\n  add\n  0x43524f4e49430000000000000000000000000000000000000000000000000000\n  dup2\n  mstore\n  pop\n  0x10\n  swap1\n  dup1\n  mload\n  swap1\n  0x20\n  add\n  swap1\n  tag_4\n  swap3\n  swap2\n  swap1\n  tag_3\n  jump\t// in\ntag_4:\n  pop\n    /* \"contracts/Token.sol\":1142:1143  9 */\n  0x09\n    /* \"contracts/Token.sol\":1116:1143  uint8 private _decimals = 9 */\n  0x11\n  exp(0x0100, 0x00)\n  dup2\n  sload\n  dup2\n  0xff\n  mul\n  not\n  and\n  swap1\n  dup4\n  0xff\n  and\n  mul\n  or\n  swap1\n  sstore\n  pop\n    /* \"contracts/Token.sol\":1179:1180  3 */\n  0x03\n    /* \"contracts/Token.sol\":1154:1180  uint256 public _taxFee = 3 */\n  0x12\n  sstore\n    /* \"contracts/Token.sol\":1227:1234  _taxFee */\n  sload(0x12)\n    /* \"contracts/Token.sol\":1193:1234  uint256 private _previousTaxFee = _taxFee */\n  0x13\n  sstore\n    /* \"contracts/Token.sol\":1274:1275  6 */\n  0x06\n    /* \"contracts/Token.sol\":1243:1275  uint256 public _liquidityFee = 6 */\n  0x14\n  sstore\n    /* \"contracts/Token.sol\":1328:1341  _liquidityFee */\n  sload(0x14)\n    /* \"contracts/Token.sol\":1288:1341  uint256 private _previousLiquidityFee = _liquidityFee */\n  0x15\n  sstore\n    /* \"contracts/Token.sol\":1377:1378  2 */\n  0x02\n    /* \"contracts/Token.sol\":1350:1378  uint256 private _feeRate = 2 */\n  0x16\n  sstore\n    /* \"contracts/Token.sol\":1546:1551  false */\n  0x00\n    /* \"contracts/Token.sol\":1527:1551  bool tradingOpen = false */\n  0x19\n  exp(0x0100, 0x15)\n  dup2\n  sload\n  dup2\n  0xff\n  mul\n  not\n  and\n  swap1\n  dup4\n  iszero\n  iszero\n  mul\n  or\n  swap1\n  sstore\n  pop\n    /* \"contracts/Token.sol\":1860:2409  constructor (address treasure, address router) public {\r... */\n  callvalue\n  dup1\n  iszero\n  tag_5\n  jumpi\n  0x00\n  dup1\n  revert\ntag_5:\n  pop\n  mload(0x40)\n  sub(codesize, bytecodeSize)\n  dup1\n  bytecodeSize\n  dup4\n  codecopy\n  dup2\n  dup2\n  add\n  0x40\n  mstore\n  0x40\n  dup2\n  lt\n  iszero\n  tag_6\n  jumpi\n  0x00\n  dup1\n  revert\ntag_6:\n  dup2\n  add\n  swap1\n  dup1\n  dup1\n  mload\n  swap1\n  0x20\n  add\n  swap1\n  swap3\n  swap2\n  swap1\n  dup1\n  mload\n  swap1\n  0x20\n  add\n  swap1\n  swap3\n  swap2\n  swap1\n  pop\n  pop\n  pop\n    /* \"contracts/includes.sol\":5616:5633  address msgSender */\n  0x00\n    /* \"contracts/includes.sol\":5636:5648  _msgSender() */\n  tag_10\n    /* \"contracts/includes.sol\":5636:5646  _msgSender */\n  shl(0x20, tag_11)\n    /* \"contracts/includes.sol\":5636:5648  _msgSender() */\n  0x20\n  shr\n  jump\t// in\ntag_10:\n    /* \"contracts/includes.sol\":5616:5648  address msgSender = _msgSender() */\n  swap1\n  pop\n    /* \"contracts/includes.sol\":5668:5677  msgSender */\n  dup1\n    /* \"contracts/includes.sol\":5659:5665  _owner */\n  0x00\n  dup1\n    /* \"contracts/includes.sol\":5659:5677  _owner = msgSender */\n  0x0100\n  exp\n  dup2\n  sload\n  dup2\n  0xffffffffffffffffffffffffffffffffffffffff\n  mul\n  not\n  and\n  swap1\n  dup4\n  0xffffffffffffffffffffffffffffffffffffffff\n  and\n  mul\n  or\n  swap1\n  sstore\n  pop\n    /* \"contracts/includes.sol\":5726:5735  msgSender */\n  dup1\n    /* \"contracts/includes.sol\":5693:5736  OwnershipTransferred(address(0), msgSender) */\n  0xffffffffffffffffffffffffffffffffffffffff\n  and\n    /* \"contracts/includes.sol\":5722:5723  0 */\n  0x00\n    /* \"contracts/includes.sol\":5693:5736  OwnershipTransferred(address(0), msgSender) */\n  0xffffffffffffffffffffffffffffffffffffffff\n  and\n  0x8be0079c531659141344cd1fd0a4f28419497f9722a3daafe3b4186f6b6457e0\n  mload(0x40)\n  mload(0x40)\n  dup1\n  swap2\n  sub\n  swap1\n  log3\n    /* \"contracts/includes.sol\":5583:5744  constructor () public {\r... */\n  pop\n    /* \"contracts/Token.sol\":1947:1954  _rTotal */\n  sload(0x0d)\n    /* \"contracts/Token.sol\":1925:1932  _rOwned */\n  0x04\n    /* \"contracts/Token.sol\":1925:1944  _rOwned[msg.sender] */\n  0x00\n    /* \"contracts/Token.sol\":1933:1943  msg.sender */\n  caller\n    /* \"contracts/Token.sol\":1925:1944  _rOwned[msg.sender] */\n  0xffffffffffffffffffffffffffffffffffffffff\n  and\n  0xffffffffffffffffffffffffffffffffffffffff\n  and\n  dup2\n  mstore\n  0x20\n  add\n  swap1\n  dup2\n  mstore\n  0x20\n  add\n  0x00\n  keccak256\n    /* \"contracts/Token.sol\":1925:1954  _rOwned[msg.sender] = _rTotal */\n  dup2\n  swap1\n  sstore\n  pop\n    /* \"contracts/Token.sol\":1991:2003  _msgSender() */\n  tag_13\n    /* \"contracts/Token.sol\":1991:2001  _msgSender */\n  shl(0x20, tag_11)\n    /* \"contracts/Token.sol\":1991:2003  _msgSender() */\n  0x20\n  shr\n  jump\t// in\ntag_13:\n    /* \"contracts/Token.sol\":1970:2013  Transfer(address(0), _msgSender(), _tTotal) */\n  0xffffffffffffffffffffffffffffffffffffffff\n  and\n    /* \"contracts/Token.sol\":1987:1988  0 */\n  0x00\n    /* \"contracts/Token.sol\":1970:2013  Transfer(address(0), _msgSender(), _tTotal) */\n  0xffffffffffffffffffffffffffffffffffffffff\n  and\n  0xddf252ad1be2c89b69c2b068fc378daa952ba7f163c4a11628f55a4df523b3ef\n    /* \"contracts/Token.sol\":2005:2012  _tTotal */\n  sload(0x0c)\n    /* \"contracts/Token.sol\":1970:2013  Transfer(address(0), _msgSender(), _tTotal) */\n  mload(0x40)\n  dup1\n  dup3\n  dup2\n  mstore\n  0x20\n  add\n  swap2\n  pop\n  pop\n  mload(0x40)\n  dup1\n  swap2\n  sub\n  swap1\n  log3\n    /* \"contracts/Token.sol\":2024:2059  IUniswapV2Router02 _uniswapV2Router */\n  0x00\n    /* \"contracts/Token.sol\":2081:2087  router */\n  dup2\n    /* \"contracts/Token.sol\":2024:2088  IUniswapV2Router02 _uniswapV2Router = IUniswapV2Router02(router) */\n  swap1\n  pop\n    /* \"contracts/Token.sol\":2133:2149  _uniswapV2Router */\n  dup1\n    /* \"contracts/Token.sol\":2133:2157  _uniswapV2Router.factory */\n  0xffffffffffffffffffffffffffffffffffffffff\n  and\n  0xc45a0155\n    /* \"contracts/Token.sol\":2133:2159  _uniswapV2Router.factory() */\n  mload(0x40)\n  dup2\n  0xffffffff\n  and\n  0xe0\n  shl\n  dup2\n  mstore\n  0x04\n  add\n  0x20\n  mload(0x40)\n  dup1\n  dup4\n  sub\n  dup2\n  dup7\n  dup1\n  extcodesize\n  iszero\n  dup1\n  iszero\n  tag_14\n  jumpi\n  0x00\n  dup1\n  revert\ntag_14:\n  pop\n  gas\n  staticcall\n  iszero\n  dup1\n  iszero\n  tag_16\n  jumpi\n  returndatasize\n  0x00\n  dup1\n  returndatacopy\n  revert(0x00, returndatasize)\ntag_16:\n  pop\n  pop\n  pop\n  pop\n  mload(0x40)\n  returndatasize\n  0x20\n  dup2\n  lt\n  iszero\n  tag_17\n  jumpi\n  0x00\n  dup1\n  revert\ntag_17:\n  dup2\n  add\n  swap1\n  dup1\n  dup1\n  mload\n  swap1\n  0x20\n  add\n  swap1\n  swap3\n  swap2\n  swap1\n  pop\n  pop\n  pop\n    /* \"contracts/Token.sol\":2115:2171  IUniswapV2Factory(_uniswapV2Router.factory()).createPair */\n  0xffffffffffffffffffffffffffffffffffffffff\n  and\n  0xc9c65396\n    /* \"contracts/Token.sol\":2180:2184  this */\n  address\n    /* \"contracts/Token.sol\":2187:2203  _uniswapV2Router */\n  dup4\n    /* \"contracts/Token.sol\":2187:2208  _uniswapV2Router.WETH */\n  0xffffffffffffffffffffffffffffffffffffffff\n  and\n  0xad5c4648\n    /* \"contracts/Token.sol\":2187:2210  _uniswapV2Router.WETH() */\n  mload(0x40)\n  dup2\n  0xffffffff\n  and\n  0xe0\n  shl\n  dup2\n  mstore\n  0x04\n  add\n  0x20\n  mload(0x40)\n  dup1\n  dup4\n  sub\n  dup2\n  dup7\n  dup1\n  extcodesize\n  iszero\n  dup1\n  iszero\n  tag_18\n  jumpi\n  0x00\n  dup1\n  revert\ntag_18:\n  pop\n  gas\n  staticcall\n  iszero\n  dup1\n  iszero\n  tag_20\n  jumpi\n  returndatasize\n  0x00\n  dup1\n  returndatacopy\n  revert(0x00, returndatasize)\ntag_20:\n  pop\n  pop\n  pop\n  pop\n  mload(0x40)\n  returndatasize\n  0x20\n  dup2\n  lt\n  iszero\n  tag_21\n  jumpi\n  0x00\n  dup1\n  revert\ntag_21:\n  dup2\n  add\n  swap1\n  dup1\n  dup1\n  mload\n  swap1\n  0x20\n  add\n  swap1\n  swap3\n  swap2\n  swap1\n  pop\n  pop\n  pop\n    /* \"contracts/Token.sol\":2115:2211  IUniswapV2Factory(_uniswapV2Router.factory()).createPair(address(this), _uniswapV2Router.WETH()) */\n  mload(0x40)\n  dup4\n  0xffffffff\n  and\n  0xe0\n  shl\n  dup2\n  mstore\n  0x04\n  add\n  dup1\n  dup4\n  0xffffffffffffffffffffffffffffffffffffffff\n  and\n  dup2\n  mstore\n  0x20\n  add\n  dup3\n  0xffffffffffffffffffffffffffffffffffffffff\n  and\n  dup2\n  mstore\n  0x20\n  add\n  swap3\n  pop\n  pop\n  pop\n  0x20\n  mload(0x40)\n  dup1\n  dup4\n  sub\n  dup2\n  0x00\n  dup8\n  dup1\n  extcodesize\n  iszero\n  dup1\n  iszero\n  tag_22\n  jumpi\n  0x00\n  dup1\n  revert\ntag_22:\n  pop\n  gas\n  call\n  iszero\n  dup1\n  iszero\n  tag_24\n  jumpi\n  returndatasize\n  0x00\n  dup1\n  returndatacopy\n  revert(0x00, returndatasize)\ntag_24:\n  pop\n  pop\n  pop\n  pop\n  mload(0x40)\n  returndatasize\n  0x20\n  dup2\n  lt\n  iszero\n  tag_25\n  jumpi\n  0x00\n  dup1\n  revert\ntag_25:\n  dup2\n  add\n  swap1\n  dup1\n  dup1\n  mload\n  swap1\n  0x20\n  add\n  swap1\n  swap3\n  swap2\n  swap1\n  pop\n  pop\n  pop\n    /* \"contracts/Token.sol\":2099:2112  uniswapV2Pair */\n  0x19\n  0x00\n    /* \"contracts/Token.sol\":2099:2211  uniswapV2Pair = IUniswapV2Factory(_uniswapV2Router.factory()).createPair(address(this), _uniswapV2Router.WETH()) */\n  0x0100\n  exp\n  dup2\n  sload\n  dup2\n  0xffffffffffffffffffffffffffffffffffffffff\n  mul\n  not\n  and\n  swap1\n  dup4\n  0xffffffffffffffffffffffffffffffffffffffff\n  and\n  mul\n  or\n  swap1\n  sstore\n  pop\n    /* \"contracts/Token.sol\":2240:2256  _uniswapV2Router */\n  dup1\n    /* \"contracts/Token.sol\":2222:2237  uniswapV2Router */\n  0x18\n  0x00\n    /* \"contracts/Token.sol\":2222:2256  uniswapV2Router = _uniswapV2Router */\n  0x0100\n  exp\n  dup2\n  sload\n  dup2\n  0xffffffffffffffffffffffffffffffffffffffff\n  mul\n  not\n  and\n  swap1\n  dup4\n  0xffffffffffffffffffffffffffffffffffffffff\n  and\n  mul\n  or\n  swap1\n  sstore\n  pop\n    /* \"contracts/Token.sol\":2300:2304  true */\n  0x01\n    /* \"contracts/Token.sol\":2267:2285  _isExcludedFromFee */\n  0x09\n    /* \"contracts/Token.sol\":2267:2297  _isExcludedFromFee[msg.sender] */\n  0x00\n    /* \"contracts/Token.sol\":2286:2296  msg.sender */\n  caller\n    /* \"contracts/Token.sol\":2267:2297  _isExcludedFromFee[msg.sender] */\n  0xffffffffffffffffffffffffffffffffffffffff\n  and\n  0xffffffffffffffffffffffffffffffffffffffff\n  and\n  dup2\n  mstore\n  0x20\n  add\n  swap1\n  dup2\n  mstore\n  0x20\n  add\n  0x00\n  keccak256\n  0x00\n    /* \"contracts/Token.sol\":2267:2304  _isExcludedFromFee[msg.sender] = true */\n  0x0100\n  exp\n  dup2\n  sload\n  dup2\n  0xff\n  mul\n  not\n  and\n  swap1\n  dup4\n  iszero\n  iszero\n  mul\n  or\n  swap1\n  sstore\n  pop\n    /* \"contracts/Token.sol\":2346:2350  true */\n  0x01\n    /* \"contracts/Token.sol\":2315:2333  _isExcludedFromFee */\n  0x09\n    /* \"contracts/Token.sol\":2315:2343  _isExcludedFromFee[treasure] */\n  0x00\n    /* \"contracts/Token.sol\":2334:2342  treasure */\n  dup6\n    /* \"contracts/Token.sol\":2315:2343  _isExcludedFromFee[treasure] */\n  0xffffffffffffffffffffffffffffffffffffffff\n  and\n  0xffffffffffffffffffffffffffffffffffffffff\n  and\n  dup2\n  mstore\n  0x20\n  add\n  swap1\n  dup2\n  mstore\n  0x20\n  add\n  0x00\n  keccak256\n  0x00\n    /* \"contracts/Token.sol\":2315:2350  _isExcludedFromFee[treasure] = true */\n  0x0100\n  exp\n  dup2\n  sload\n  dup2\n  0xff\n  mul\n  not\n  and\n  swap1\n  dup4\n  iszero\n  iszero\n  mul\n  or\n  swap1\n  sstore\n  pop\n    /* \"contracts/Token.sol\":2397:2401  true */\n  0x01\n    /* \"contracts/Token.sol\":2361:2379  _isExcludedFromFee */\n  0x09\n    /* \"contracts/Token.sol\":2361:2394  _isExcludedFromFee[address(this)] */\n  0x00\n    /* \"contracts/Token.sol\":2388:2392  this */\n  address\n    /* \"contracts/Token.sol\":2361:2394  _isExcludedFromFee[address(this)] */\n  0xffffffffffffffffffffffffffffffffffffffff\n  and\n  0xffffffffffffffffffffffffffffffffffffffff\n  and\n  dup2\n  mstore\n  0x20\n  add\n  swap1\n  dup2\n  mstore\n  0x20\n  add\n  0x00\n  keccak256\n  0x00\n    /* \"contracts/Token.sol\":2361:2401  _isExcludedFromFee[address(this)] = true */\n  0x0100\n  exp\n  dup2\n  sload\n  dup2\n  0xff\n  mul\n  not\n  and\n  swap1\n  dup4\n  iszero\n  iszero\n  mul\n  or\n  swap1\n  sstore\n  pop\n    /* \"contracts/Token.sol\":1860:2409  constructor (address treasure, address router) public {\r... */\n  pop\n  pop\n  pop\n    /* \"contracts/Token.sol\":92:19050  contract CronicShiba is Context, IERC20, Ownable {\r... */\n  jump(tag_26)\n    /* \"contracts/includes.sol\":33:148  function _msgSender() internal view virtual returns (address payable) {\r... */\ntag_11:\n    /* \"contracts/includes.sol\":86:101  address payable */\n  0x00\n    /* \"contracts/includes.sol\":129:139  msg.sender */\n  caller\n    /* \"contracts/includes.sol\":114:140  return payable(msg.sender) */\n  swap1\n  pop\n    /* \"contracts/includes.sol\":33:148  function _msgSender() internal view virtual returns (address payable) {\r... */\n  swap1\n  jump\t// out\n    /* \"contracts/Token.sol\":92:19050  contract CronicShiba is Context, IERC20, Ownable {\r... */\ntag_3:\n  dup3\n  dup1\n  sload\n  0x01\n  dup2\n  0x01\n  and\n  iszero\n  0x0100\n  mul\n  sub\n  and\n  0x02\n  swap1\n  div\n  swap1\n  0x00\n  mstore\n  keccak256(0x00, 0x20)\n  swap1\n  0x1f\n  add\n  0x20\n  swap1\n  div\n  dup2\n  add\n  swap3\n  dup3\n  0x1f\n  lt\n  tag_29\n  jumpi\n  dup1\n  mload\n  not(0xff)\n  and\n  dup4\n  dup1\n  add\n  or\n  dup6\n  sstore\n  jump(tag_28)\ntag_29:\n  dup3\n  dup1\n  add\n  0x01\n  add\n  dup6\n  sstore\n  dup3\n  iszero\n  tag_28\n  jumpi\n  swap2\n  dup3\n  add\ntag_30:\n  dup3\n  dup2\n  gt\n  iszero\n  tag_31\n  jumpi\n  dup3\n  mload\n  dup3\n  sstore\n  swap2\n  0x20\n  add\n  swap2\n  swap1\n  0x01\n  add\n  swap1\n  jump(tag_30)\ntag_31:\ntag_28:\n  pop\n  swap1\n  pop\n  tag_32\n  swap2\n  swap1\n  tag_33\n  jump\t// in\ntag_32:\n  pop\n  swap1\n  jump\t// out\ntag_33:\ntag_34:\n  dup1\n  dup3\n  gt\n  iszero\n  tag_35\n  jumpi\n  0x00\n  dup2\n  0x00\n  swap1\n  sstore\n  pop\n  0x01\n  add\n  jump(tag_34)\ntag_35:\n  pop\n  swap1\n  jump\t// out\ntag_26:\n  shr(0x60, mload(0x80))\n  codecopy(0x00, dataOffset(sub_0), dataSize(sub_0))\n  assignImmutable(\"0x1572b593c53d839d80004aa4b8c51211864104f06ace9e22be9c4365b50655ea\")\n  return(0x00, dataSize(sub_0))\nstop\n\nsub_0: assembly {\n        /* \"contracts/Token.sol\":92:19050  contract CronicShiba is Context, IERC20, Ownable {\r... */\n      mstore(0x40, 0x80)\n      jumpi(tag_1, lt(calldatasize, 0x04))\n      shr(0xe0, calldataload(0x00))\n      dup1\n      0x5342acb4\n      gt\n      tag_43\n      jumpi\n      dup1\n      0x95d89b41\n      gt\n      tag_44\n      jumpi\n      dup1\n      0xdb2e21bc\n      gt\n      tag_45\n      jumpi\n      dup1\n      0xdb2e21bc\n      eq\n      tag_38\n      jumpi\n      dup1\n      0xdd62ed3e\n      eq\n      tag_39\n      jumpi\n      dup1\n      0xea2f0b37\n      eq\n      tag_40\n      jumpi\n      dup1\n      0xf2fde38b\n      eq\n      tag_41\n      jumpi\n      dup1\n      0xf375b253\n      eq\n      tag_42\n      jumpi\n      jump(tag_2)\n    tag_45:\n      dup1\n      0x95d89b41\n      eq\n      tag_33\n      jumpi\n      dup1\n      0xa457c2d7\n      eq\n      tag_34\n      jumpi\n      dup1\n      0xa5ece941\n      eq\n      tag_35\n      jumpi\n      dup1\n      0xa9059cbb\n      eq\n      tag_36\n      jumpi\n      dup1\n      0xc9567bf9\n      eq\n      tag_37\n      jumpi\n      jump(tag_2)\n    tag_44:\n      dup1\n      0x87ceff09\n      gt\n      tag_46\n      jumpi\n      dup1\n      0x87ceff09\n      eq\n      tag_28\n      jumpi\n      dup1\n      0x88f82020\n      eq\n      tag_29\n      jumpi\n      dup1\n      0x8da5cb5b\n      eq\n      tag_30\n      jumpi\n      dup1\n      0x8ee88c53\n      eq\n      tag_31\n      jumpi\n      dup1\n      0x906e9dd0\n      eq\n      tag_32\n      jumpi\n      jump(tag_2)\n    tag_46:\n      dup1\n      0x5342acb4\n      eq\n      tag_23\n      jumpi\n      dup1\n      0x610d5b19\n      eq\n      tag_24\n      jumpi\n      dup1\n      0x6bc87c3a\n      eq\n      tag_25\n      jumpi\n      dup1\n      0x70a08231\n      eq\n      tag_26\n      jumpi\n      dup1\n      0x715018a6\n      eq\n      tag_27\n      jumpi\n      jump(tag_2)\n    tag_43:\n      dup1\n      0x362a3c5d\n      gt\n      tag_47\n      jumpi\n      dup1\n      0x437823ec\n      gt\n      tag_48\n      jumpi\n      dup1\n      0x437823ec\n      eq\n      tag_18\n      jumpi\n      dup1\n      0x4549b039\n      eq\n      tag_19\n      jumpi\n      dup1\n      0x45596e2e\n      eq\n      tag_20\n      jumpi\n      dup1\n      0x49bd5a5e\n      eq\n      tag_21\n      jumpi\n      dup1\n      0x52390c02\n      eq\n      tag_22\n      jumpi\n      jump(tag_2)\n    tag_48:\n      dup1\n      0x362a3c5d\n      eq\n      tag_13\n      jumpi\n      dup1\n      0x3685d419\n      eq\n      tag_14\n      jumpi\n      dup1\n      0x39509351\n      eq\n      tag_15\n      jumpi\n      dup1\n      0x3b124fe7\n      eq\n      tag_16\n      jumpi\n      dup1\n      0x3bd5d173\n      eq\n      tag_17\n      jumpi\n      jump(tag_2)\n    tag_47:\n      dup1\n      0x18160ddd\n      gt\n      tag_49\n      jumpi\n      dup1\n      0x18160ddd\n      eq\n      tag_8\n      jumpi\n      dup1\n      0x23b872dd\n      eq\n      tag_9\n      jumpi\n      dup1\n      0x27c8f835\n      eq\n      tag_10\n      jumpi\n      dup1\n      0x2d838119\n      eq\n      tag_11\n      jumpi\n      dup1\n      0x313ce567\n      eq\n      tag_12\n      jumpi\n      jump(tag_2)\n    tag_49:\n      dup1\n      0x061c82d0\n      eq\n      tag_3\n      jumpi\n      dup1\n      0x06fdde03\n      eq\n      tag_4\n      jumpi\n      dup1\n      0x095ea7b3\n      eq\n      tag_5\n      jumpi\n      dup1\n      0x13114a9d\n      eq\n      tag_6\n      jumpi\n      dup1\n      0x1694505e\n      eq\n      tag_7\n      jumpi\n      jump(tag_2)\n    tag_1:\n      jumpi(tag_2, calldatasize)\n      stop\n    tag_2:\n      0x00\n      dup1\n      revert\n        /* \"contracts/Token.sol\":17171:17269  function setTaxFeePercent(uint256 taxFee) external onlyOwner() {\r... */\n    tag_3:\n      callvalue\n      dup1\n      iszero\n      tag_52\n      jumpi\n      0x00\n      dup1\n      revert\n    tag_52:\n      pop\n      tag_53\n      0x04\n      dup1\n      calldatasize\n      sub\n      0x20\n      dup2\n      lt\n      iszero\n      tag_54\n      jumpi\n      0x00\n      dup1\n      revert\n    tag_54:\n      dup2\n      add\n      swap1\n      dup1\n      dup1\n      calldataload\n      swap1\n      0x20\n      add\n      swap1\n      swap3\n      swap2\n      swap1\n      pop\n      pop\n      pop\n      tag_55\n      jump\t// in\n    tag_53:\n      stop\n        /* \"contracts/Token.sol\":2545:2628  function name() public view returns (string memory) {\r... */\n    tag_4:\n      callvalue\n      dup1\n      iszero\n      tag_56\n      jumpi\n      0x00\n      dup1\n      revert\n    tag_56:\n      pop\n      tag_57\n      tag_58\n      jump\t// in\n    tag_57:\n      mload(0x40)\n      dup1\n      dup1\n      0x20\n      add\n      dup3\n      dup2\n      sub\n      dup3\n      mstore\n      dup4\n      dup2\n      dup2\n      mload\n      dup2\n      mstore\n      0x20\n      add\n      swap2\n      pop\n      dup1\n      mload\n      swap1\n      0x20\n      add\n      swap1\n      dup1\n      dup4\n      dup4\n      0x00\n    tag_59:\n      dup4\n      dup2\n      lt\n      iszero\n      tag_61\n      jumpi\n      dup1\n      dup3\n      add\n      mload\n      dup2\n      dup5\n      add\n      mstore\n      0x20\n      dup2\n      add\n      swap1\n      pop\n      jump(tag_59)\n    tag_61:\n      pop\n      pop\n      pop\n      pop\n      swap1\n      pop\n      swap1\n      dup2\n      add\n      swap1\n      0x1f\n      and\n      dup1\n      iszero\n      tag_62\n      jumpi\n      dup1\n      dup3\n      sub\n      dup1\n      mload\n      0x01\n      dup4\n      0x20\n      sub\n      0x0100\n      exp\n      sub\n      not\n      and\n      dup2\n      mstore\n      0x20\n      add\n      swap2\n      pop\n    tag_62:\n      pop\n      swap3\n      pop\n      pop\n      pop\n      mload(0x40)\n      dup1\n      swap2\n      sub\n      swap1\n      return\n        /* \"contracts/Token.sol\":3457:3618  function approve(address spender, uint256 amount) public override returns (bool) {\r... */\n    tag_5:\n      callvalue\n      dup1\n      iszero\n      tag_63\n      jumpi\n      0x00\n      dup1\n      revert\n    tag_63:\n      pop\n      tag_64\n      0x04\n      dup1\n      calldatasize\n      sub\n      0x40\n      dup2\n      lt\n      iszero\n      tag_65\n      jumpi\n      0x00\n      dup1\n      revert\n    tag_65:\n      dup2\n      add\n      swap1\n      dup1\n      dup1\n      calldataload\n      0xffffffffffffffffffffffffffffffffffffffff\n      and\n      swap1\n      0x20\n      add\n      swap1\n      swap3\n      swap2\n      swap1\n      dup1\n      calldataload\n      swap1\n      0x20\n      add\n      swap1\n      swap3\n      swap2\n      swap1\n      pop\n      pop\n      pop\n      tag_66\n      jump\t// in\n    tag_64:\n      mload(0x40)\n      dup1\n      dup3\n      iszero\n      iszero\n      dup2\n      mstore\n      0x20\n      add\n      swap2\n      pop\n      pop\n      mload(0x40)\n      dup1\n      swap2\n      sub\n      swap1\n      return\n        /* \"contracts/Token.sol\":4578:4665  function totalFees() public view returns (uint256) {\r... */\n    tag_6:\n      callvalue\n      dup1\n      iszero\n      tag_67\n      jumpi\n      0x00\n      dup1\n      revert\n    tag_67:\n      pop\n      tag_68\n      tag_69\n      jump\t// in\n    tag_68:\n      mload(0x40)\n      dup1\n      dup3\n      dup2\n      mstore\n      0x20\n      add\n      swap2\n      pop\n      pop\n      mload(0x40)\n      dup1\n      swap2\n      sub\n      swap1\n      return\n        /* \"contracts/Token.sol\":1412:1453  IUniswapV2Router02 public uniswapV2Router */\n    tag_7:\n      callvalue\n      dup1\n      iszero\n      tag_70\n      jumpi\n      0x00\n      dup1\n      revert\n    tag_70:\n      pop\n      tag_71\n      tag_72\n      jump\t// in\n    tag_71:\n      mload(0x40)\n      dup1\n      dup3\n      0xffffffffffffffffffffffffffffffffffffffff\n      and\n      dup2\n      mstore\n      0x20\n      add\n      swap2\n      pop\n      pop\n      mload(0x40)\n      dup1\n      swap2\n      sub\n      swap1\n      return\n        /* \"contracts/Token.sol\":2822:2917  function totalSupply() public view override returns (uint256) {\r... */\n    tag_8:\n      callvalue\n      dup1\n      iszero\n      tag_73\n      jumpi\n      0x00\n      dup1\n      revert\n    tag_73:\n      pop\n      tag_74\n      tag_75\n      jump\t// in\n    tag_74:\n      mload(0x40)\n      dup1\n      dup3\n      dup2\n      mstore\n      0x20\n      add\n      swap2\n      pop\n      pop\n      mload(0x40)\n      dup1\n      swap2\n      sub\n      swap1\n      return\n        /* \"contracts/Token.sol\":3626:3939  function transferFrom(address sender, address recipient, uint256 amount) public override returns (bool) {\r... */\n    tag_9:\n      callvalue\n      dup1\n      iszero\n      tag_76\n      jumpi\n      0x00\n      dup1\n      revert\n    tag_76:\n      pop\n      tag_77\n      0x04\n      dup1\n      calldatasize\n      sub\n      0x60\n      dup2\n      lt\n      iszero\n      tag_78\n      jumpi\n      0x00\n      dup1\n      revert\n    tag_78:\n      dup2\n      add\n      swap1\n      dup1\n      dup1\n      calldataload\n      0xffffffffffffffffffffffffffffffffffffffff\n      and\n      swap1\n      0x20\n      add\n      swap1\n      swap3\n      swap2\n      swap1\n      dup1\n      calldataload\n      0xffffffffffffffffffffffffffffffffffffffff\n      and\n      swap1\n      0x20\n      add\n      swap1\n      swap3\n      swap2\n      swap1\n      dup1\n      calldataload\n      swap1\n      0x20\n      add\n      swap1\n      swap3\n      swap2\n      swap1\n      pop\n      pop\n      pop\n      tag_79\n      jump\t// in\n    tag_77:\n      mload(0x40)\n      dup1\n      dup3\n      iszero\n      iszero\n      dup2\n      mstore\n      0x20\n      add\n      swap2\n      pop\n      pop\n      mload(0x40)\n      dup1\n      swap2\n      sub\n      swap1\n      return\n        /* \"contracts/Token.sol\":336:417  address public immutable deadAddress = 0x000000000000000000000000000000000000dEaD */\n    tag_10:\n      callvalue\n      dup1\n      iszero\n      tag_80\n      jumpi\n      0x00\n      dup1\n      revert\n    tag_80:\n      pop\n      tag_81\n      tag_82\n      jump\t// in\n    tag_81:\n      mload(0x40)\n      dup1\n      dup3\n      0xffffffffffffffffffffffffffffffffffffffff\n      and\n      dup2\n      mstore\n      0x20\n      add\n      swap2\n      pop\n      pop\n      mload(0x40)\n      dup1\n      swap2\n      sub\n      swap1\n      return\n        /* \"contracts/Token.sol\":5507:5760  function tokenFromReflection(uint256 rAmount) public view returns (uint256) {\r... */\n    tag_11:\n      callvalue\n      dup1\n      iszero\n      tag_83\n      jumpi\n      0x00\n      dup1\n      revert\n    tag_83:\n      pop\n      tag_84\n      0x04\n      dup1\n      calldatasize\n      sub\n      0x20\n      dup2\n      lt\n      iszero\n      tag_85\n      jumpi\n      0x00\n      dup1\n      revert\n    tag_85:\n      dup2\n      add\n      swap1\n      dup1\n      dup1\n      calldataload\n      swap1\n      0x20\n      add\n      swap1\n      swap3\n      swap2\n      swap1\n      pop\n      pop\n      pop\n      tag_86\n      jump\t// in\n    tag_84:\n      mload(0x40)\n      dup1\n      dup3\n      dup2\n      mstore\n      0x20\n      add\n      swap2\n      pop\n      pop\n      mload(0x40)\n      dup1\n      swap2\n      sub\n      swap1\n      return\n        /* \"contracts/Token.sol\":2731:2814  function decimals() public view returns (uint8) {\r... */\n    tag_12:\n      callvalue\n      dup1\n      iszero\n      tag_87\n      jumpi\n      0x00\n      dup1\n      revert\n    tag_87:\n      pop\n      tag_88\n      tag_89\n      jump\t// in\n    tag_88:\n      mload(0x40)\n      dup1\n      dup3\n      0xff\n      and\n      dup2\n      mstore\n      0x20\n      add\n      swap2\n      pop\n      pop\n      mload(0x40)\n      dup1\n      swap2\n      sub\n      swap1\n      return\n        /* \"contracts/Token.sol\":18147:18629  function _amnestySniper(address account) external onlyOwner() {\r... */\n    tag_13:\n      callvalue\n      dup1\n      iszero\n      tag_90\n      jumpi\n      0x00\n      dup1\n      revert\n    tag_90:\n      pop\n      tag_91\n      0x04\n      dup1\n      calldatasize\n      sub\n      0x20\n      dup2\n      lt\n      iszero\n      tag_92\n      jumpi\n      0x00\n      dup1\n      revert\n    tag_92:\n      dup2\n      add\n      swap1\n      dup1\n      dup1\n      calldataload\n      0xffffffffffffffffffffffffffffffffffffffff\n      and\n      swap1\n      0x20\n      add\n      swap1\n      swap3\n      swap2\n      swap1\n      pop\n      pop\n      pop\n      tag_93\n      jump\t// in\n    tag_91:\n      stop\n        /* \"contracts/Token.sol\":6112:6591  function includeInReward(address account) external onlyOwner() {\r... */\n    tag_14:\n      callvalue\n      dup1\n      iszero\n      tag_94\n      jumpi\n      0x00\n      dup1\n      revert\n    tag_94:\n      pop\n      tag_95\n      0x04\n      dup1\n      calldatasize\n      sub\n      0x20\n      dup2\n      lt\n      iszero\n      tag_96\n      jumpi\n      0x00\n      dup1\n      revert\n    tag_96:\n      dup2\n      add\n      swap1\n      dup1\n      dup1\n      calldataload\n      0xffffffffffffffffffffffffffffffffffffffff\n      and\n      swap1\n      0x20\n      add\n      swap1\n      swap3\n      swap2\n      swap1\n      pop\n      pop\n      pop\n      tag_97\n      jump\t// in\n    tag_95:\n      stop\n        /* \"contracts/Token.sol\":3947:4165  function increaseAllowance(address spender, uint256 addedValue) public virtual returns (bool) {\r... */\n    tag_15:\n      callvalue\n      dup1\n      iszero\n      tag_98\n      jumpi\n      0x00\n      dup1\n      revert\n    tag_98:\n      pop\n      tag_99\n      0x04\n      dup1\n      calldatasize\n      sub\n      0x40\n      dup2\n      lt\n      iszero\n      tag_100\n      jumpi\n      0x00\n      dup1\n      revert\n    tag_100:\n      dup2\n      add\n      swap1\n      dup1\n      dup1\n      calldataload\n      0xffffffffffffffffffffffffffffffffffffffff\n      and\n      swap1\n      0x20\n      add\n      swap1\n      swap3\n      swap2\n      swap1\n      dup1\n      calldataload\n      swap1\n      0x20\n      add\n      swap1\n      swap3\n      swap2\n      swap1\n      pop\n      pop\n      pop\n      tag_101\n      jump\t// in\n    tag_99:\n      mload(0x40)\n      dup1\n      dup3\n      iszero\n      iszero\n      dup2\n      mstore\n      0x20\n      add\n      swap2\n      pop\n      pop\n      mload(0x40)\n      dup1\n      swap2\n      sub\n      swap1\n      return\n        /* \"contracts/Token.sol\":1154:1180  uint256 public _taxFee = 3 */\n    tag_16:\n      callvalue\n      dup1\n      iszero\n      tag_102\n      jumpi\n      0x00\n      dup1\n      revert\n    tag_102:\n      pop\n      tag_103\n      tag_104\n      jump\t// in\n    tag_103:\n      mload(0x40)\n      dup1\n      dup3\n      dup2\n      mstore\n      0x20\n      add\n      swap2\n      pop\n      pop\n      mload(0x40)\n      dup1\n      swap2\n      sub\n      swap1\n      return\n        /* \"contracts/Token.sol\":4675:5052  function deliver(uint256 tAmount) public {\r... */\n    tag_17:\n      callvalue\n      dup1\n      iszero\n      tag_105\n      jumpi\n      0x00\n      dup1\n      revert\n    tag_105:\n      pop\n      tag_106\n      0x04\n      dup1\n      calldatasize\n      sub\n      0x20\n      dup2\n      lt\n      iszero\n      tag_107\n      jumpi\n      0x00\n      dup1\n      revert\n    tag_107:\n      dup2\n      add\n      swap1\n      dup1\n      dup1\n      calldataload\n      swap1\n      0x20\n      add\n      swap1\n      swap3\n      swap2\n      swap1\n      pop\n      pop\n      pop\n      tag_108\n      jump\t// in\n    tag_106:\n      stop\n        /* \"contracts/Token.sol\":16934:17045  function excludeFromFee(address account) public onlyOwner {\r... */\n    tag_18:\n      callvalue\n      dup1\n      iszero\n      tag_109\n      jumpi\n      0x00\n      dup1\n      revert\n    tag_109:\n      pop\n      tag_110\n      0x04\n      dup1\n      calldatasize\n      sub\n      0x20\n      dup2\n      lt\n      iszero\n      tag_111\n      jumpi\n      0x00\n      dup1\n      revert\n    tag_111:\n      dup2\n      add\n      swap1\n      dup1\n      dup1\n      calldataload\n      0xffffffffffffffffffffffffffffffffffffffff\n      and\n      swap1\n      0x20\n      add\n      swap1\n      swap3\n      swap2\n      swap1\n      pop\n      pop\n      pop\n      tag_112\n      jump\t// in\n    tag_110:\n      stop\n        /* \"contracts/Token.sol\":5062:5499  function reflectionFromToken(uint256 tAmount, bool deductTransferFee) public view returns (uint256) {\r... */\n    tag_19:\n      callvalue\n      dup1\n      iszero\n      tag_113\n      jumpi\n      0x00\n      dup1\n      revert\n    tag_113:\n      pop\n      tag_114\n      0x04\n      dup1\n      calldatasize\n      sub\n      0x40\n      dup2\n      lt\n      iszero\n      tag_115\n      jumpi\n      0x00\n      dup1\n      revert\n    tag_115:\n      dup2\n      add\n      swap1\n      dup1\n      dup1\n      calldataload\n      swap1\n      0x20\n      add\n      swap1\n      swap3\n      swap2\n      swap1\n      dup1\n      calldataload\n      iszero\n      iszero\n      swap1\n      0x20\n      add\n      swap1\n      swap3\n      swap2\n      swap1\n      pop\n      pop\n      pop\n      tag_116\n      jump\t// in\n    tag_114:\n      mload(0x40)\n      dup1\n      dup3\n      dup2\n      mstore\n      0x20\n      add\n      swap2\n      pop\n      pop\n      mload(0x40)\n      dup1\n      swap2\n      sub\n      swap1\n      return\n        /* \"contracts/Token.sol\":18639:18728  function setFeeRate(uint256 rate) external onlyOwner() {\r... */\n    tag_20:\n      callvalue\n      dup1\n      iszero\n      tag_117\n      jumpi\n      0x00\n      dup1\n      revert\n    tag_117:\n      pop\n      tag_118\n      0x04\n      dup1\n      calldatasize\n      sub\n      0x20\n      dup2\n      lt\n      iszero\n      tag_119\n      jumpi\n      0x00\n      dup1\n      revert\n    tag_119:\n      dup2\n      add\n      swap1\n      dup1\n      dup1\n      calldataload\n      swap1\n      0x20\n      add\n      swap1\n      swap3\n      swap2\n      swap1\n      pop\n      pop\n      pop\n      tag_120\n      jump\t// in\n    tag_118:\n      stop\n        /* \"contracts/Token.sol\":1460:1488  address public uniswapV2Pair */\n    tag_21:\n      callvalue\n      dup1\n      iszero\n      tag_121\n      jumpi\n      0x00\n      dup1\n      revert\n    tag_121:\n      pop\n      tag_122\n      tag_123\n      jump\t// in\n    tag_122:\n      mload(0x40)\n      dup1\n      dup3\n      0xffffffffffffffffffffffffffffffffffffffff\n      and\n      dup2\n      mstore\n      0x20\n      add\n      swap2\n      pop\n      pop\n      mload(0x40)\n      dup1\n      swap2\n      sub\n      swap1\n      return\n        /* \"contracts/Token.sol\":5768:6104  function excludeFromReward(address account) public onlyOwner() {\r... */\n    tag_22:\n      callvalue\n      dup1\n      iszero\n      tag_124\n      jumpi\n      0x00\n      dup1\n      revert\n    tag_124:\n      pop\n      tag_125\n      0x04\n      dup1\n      calldatasize\n      sub\n      0x20\n      dup2\n      lt\n      iszero\n      tag_126\n      jumpi\n      0x00\n      dup1\n      revert\n    tag_126:\n      dup2\n      add\n      swap1\n      dup1\n      dup1\n      calldataload\n      0xffffffffffffffffffffffffffffffffffffffff\n      and\n      swap1\n      0x20\n      add\n      swap1\n      swap3\n      swap2\n      swap1\n      pop\n      pop\n      pop\n      tag_127\n      jump\t// in\n    tag_125:\n      stop\n        /* \"contracts/Token.sol\":16802:16926  function isExcludedFromFee(address account) public view returns (bool) {\r... */\n    tag_23:\n      callvalue\n      dup1\n      iszero\n      tag_128\n      jumpi\n      0x00\n      dup1\n      revert\n    tag_128:\n      pop\n      tag_129\n      0x04\n      dup1\n      calldatasize\n      sub\n      0x20\n      dup2\n      lt\n      iszero\n      tag_130\n      jumpi\n      0x00\n      dup1\n      revert\n    tag_130:\n      dup2\n      add\n      swap1\n      dup1\n      dup1\n      calldataload\n      0xffffffffffffffffffffffffffffffffffffffff\n      and\n      swap1\n      0x20\n      add\n      swap1\n      swap3\n      swap2\n      swap1\n      pop\n      pop\n      pop\n      tag_131\n      jump\t// in\n    tag_129:\n      mload(0x40)\n      dup1\n      dup3\n      iszero\n      iszero\n      dup2\n      mstore\n      0x20\n      add\n      swap2\n      pop\n      pop\n      mload(0x40)\n      dup1\n      swap2\n      sub\n      swap1\n      return\n        /* \"contracts/Token.sol\":17694:17807  function isRemovedSniper(address account) public view returns (bool) {\r... */\n    tag_24:\n      callvalue\n      dup1\n      iszero\n      tag_132\n      jumpi\n      0x00\n      dup1\n      revert\n    tag_132:\n      pop\n      tag_133\n      0x04\n      dup1\n      calldatasize\n      sub\n      0x20\n      dup2\n      lt\n      iszero\n      tag_134\n      jumpi\n      0x00\n      dup1\n      revert\n    tag_134:\n      dup2\n      add\n      swap1\n      dup1\n      dup1\n      calldataload\n      0xffffffffffffffffffffffffffffffffffffffff\n      and\n      swap1\n      0x20\n      add\n      swap1\n      swap3\n      swap2\n      swap1\n      pop\n      pop\n      pop\n      tag_135\n      jump\t// in\n    tag_133:\n      mload(0x40)\n      dup1\n      dup3\n      iszero\n      iszero\n      dup2\n      mstore\n      0x20\n      add\n      swap2\n      pop\n      pop\n      mload(0x40)\n      dup1\n      swap2\n      sub\n      swap1\n      return\n        /* \"contracts/Token.sol\":1243:1275  uint256 public _liquidityFee = 6 */\n    tag_25:\n      callvalue\n      dup1\n      iszero\n      tag_136\n      jumpi\n      0x00\n      dup1\n      revert\n    tag_136:\n      pop\n      tag_137\n      tag_138\n      jump\t// in\n    tag_137:\n      mload(0x40)\n      dup1\n      dup3\n      dup2\n      mstore\n      0x20\n      add\n      swap2\n      pop\n      pop\n      mload(0x40)\n      dup1\n      swap2\n      sub\n      swap1\n      return\n        /* \"contracts/Token.sol\":2925:3123  function balanceOf(address account) public view override returns (uint256) {\r... */\n    tag_26:\n      callvalue\n      dup1\n      iszero\n      tag_139\n      jumpi\n      0x00\n      dup1\n      revert\n    tag_139:\n      pop\n      tag_140\n      0x04\n      dup1\n      calldatasize\n      sub\n      0x20\n      dup2\n      lt\n      iszero\n      tag_141\n      jumpi\n      0x00\n      dup1\n      revert\n    tag_141:\n      dup2\n      add\n      swap1\n      dup1\n      dup1\n      calldataload\n      0xffffffffffffffffffffffffffffffffffffffff\n      and\n      swap1\n      0x20\n      add\n      swap1\n      swap3\n      swap2\n      swap1\n      pop\n      pop\n      pop\n      tag_142\n      jump\t// in\n    tag_140:\n      mload(0x40)\n      dup1\n      dup3\n      dup2\n      mstore\n      0x20\n      add\n      swap2\n      pop\n      pop\n      mload(0x40)\n      dup1\n      swap2\n      sub\n      swap1\n      return\n        /* \"contracts/includes.sol\":5966:6114  function renounceOwnership() public virtual onlyOwner {\r... */\n    tag_27:\n      callvalue\n      dup1\n      iszero\n      tag_143\n      jumpi\n      0x00\n      dup1\n      revert\n    tag_143:\n      pop\n      tag_144\n      tag_145\n      jump\t// in\n    tag_144:\n      stop\n        /* \"contracts/Token.sol\":18736:18831  function getBlockTime() public view returns (uint256) {\r... */\n    tag_28:\n      callvalue\n      dup1\n      iszero\n      tag_146\n      jumpi\n      0x00\n      dup1\n      revert\n    tag_146:\n      pop\n      tag_147\n      tag_148\n      jump\t// in\n    tag_147:\n      mload(0x40)\n      dup1\n      dup3\n      dup2\n      mstore\n      0x20\n      add\n      swap2\n      pop\n      pop\n      mload(0x40)\n      dup1\n      swap2\n      sub\n      swap1\n      return\n        /* \"contracts/Token.sol\":4450:4570  function isExcludedFromReward(address account) public view returns (bool) {\r... */\n    tag_29:\n      callvalue\n      dup1\n      iszero\n      tag_149\n      jumpi\n      0x00\n      dup1\n      revert\n    tag_149:\n      pop\n      tag_150\n      0x04\n      dup1\n      calldatasize\n      sub\n      0x20\n      dup2\n      lt\n      iszero\n      tag_151\n      jumpi\n      0x00\n      dup1\n      revert\n    tag_151:\n      dup2\n      add\n      swap1\n      dup1\n      dup1\n      calldataload\n      0xffffffffffffffffffffffffffffffffffffffff\n      and\n      swap1\n      0x20\n      add\n      swap1\n      swap3\n      swap2\n      swap1\n      pop\n      pop\n      pop\n      tag_152\n      jump\t// in\n    tag_150:\n      mload(0x40)\n      dup1\n      dup3\n      iszero\n      iszero\n      dup2\n      mstore\n      0x20\n      add\n      swap2\n      pop\n      pop\n      mload(0x40)\n      dup1\n      swap2\n      sub\n      swap1\n      return\n        /* \"contracts/includes.sol\":5752:5831  function owner() public view returns (address) {\r... */\n    tag_30:\n      callvalue\n      dup1\n      iszero\n      tag_153\n      jumpi\n      0x00\n      dup1\n      revert\n    tag_153:\n      pop\n      tag_154\n      tag_155\n      jump\t// in\n    tag_154:\n      mload(0x40)\n      dup1\n      dup3\n      0xffffffffffffffffffffffffffffffffffffffff\n      and\n      dup2\n      mstore\n      0x20\n      add\n      swap2\n      pop\n      pop\n      mload(0x40)\n      dup1\n      swap2\n      sub\n      swap1\n      return\n        /* \"contracts/Token.sol\":17277:17399  function setLiquidityFeePercent(uint256 liquidityFee) external onlyOwner() {\r... */\n    tag_31:\n      callvalue\n      dup1\n      iszero\n      tag_156\n      jumpi\n      0x00\n      dup1\n      revert\n    tag_156:\n      pop\n      tag_157\n      0x04\n      dup1\n      calldatasize\n      sub\n      0x20\n      dup2\n      lt\n      iszero\n      tag_158\n      jumpi\n      0x00\n      dup1\n      revert\n    tag_158:\n      dup2\n      add\n      swap1\n      dup1\n      dup1\n      calldataload\n      swap1\n      0x20\n      add\n      swap1\n      swap3\n      swap2\n      swap1\n      pop\n      pop\n      pop\n      tag_159\n      jump\t// in\n    tag_157:\n      stop\n        /* \"contracts/Token.sol\":17409:17550  function setMarketingAddress(address _marketingAddress) external onlyOwner() {\r... */\n    tag_32:\n      callvalue\n      dup1\n      iszero\n      tag_160\n      jumpi\n      0x00\n      dup1\n      revert\n    tag_160:\n      pop\n      tag_161\n      0x04\n      dup1\n      calldatasize\n      sub\n      0x20\n      dup2\n      lt\n      iszero\n      tag_162\n      jumpi\n      0x00\n      dup1\n      revert\n    tag_162:\n      dup2\n      add\n      swap1\n      dup1\n      dup1\n      calldataload\n      0xffffffffffffffffffffffffffffffffffffffff\n      and\n      swap1\n      0x20\n      add\n      swap1\n      swap3\n      swap2\n      swap1\n      pop\n      pop\n      pop\n      tag_163\n      jump\t// in\n    tag_161:\n      stop\n        /* \"contracts/Token.sol\":2636:2723  function symbol() public view returns (string memory) {\r... */\n    tag_33:\n      callvalue\n      dup1\n      iszero\n      tag_164\n      jumpi\n      0x00\n      dup1\n      revert\n    tag_164:\n      pop\n      tag_165\n      tag_166\n      jump\t// in\n    tag_165:\n      mload(0x40)\n      dup1\n      dup1\n      0x20\n      add\n      dup3\n      dup2\n      sub\n      dup3\n      mstore\n      dup4\n      dup2\n      dup2\n      mload\n      dup2\n      mstore\n      0x20\n      add\n      swap2\n      pop\n      dup1\n      mload\n      swap1\n      0x20\n      add\n      swap1\n      dup1\n      dup4\n      dup4\n      0x00\n    tag_167:\n      dup4\n      dup2\n      lt\n      iszero\n      tag_169\n      jumpi\n      dup1\n      dup3\n      add\n      mload\n      dup2\n      dup5\n      add\n      mstore\n      0x20\n      dup2\n      add\n      swap1\n      pop\n      jump(tag_167)\n    tag_169:\n      pop\n      pop\n      pop\n      pop\n      swap1\n      pop\n      swap1\n      dup2\n      add\n      swap1\n      0x1f\n      and\n      dup1\n      iszero\n      tag_170\n      jumpi\n      dup1\n      dup3\n      sub\n      dup1\n      mload\n      0x01\n      dup4\n      0x20\n      sub\n      0x0100\n      exp\n      sub\n      not\n      and\n      dup2\n      mstore\n      0x20\n      add\n      swap2\n      pop\n    tag_170:\n      pop\n      swap3\n      pop\n      pop\n      pop\n      mload(0x40)\n      dup1\n      swap2\n      sub\n      swap1\n      return\n        /* \"contracts/Token.sol\":4173:4442  function decreaseAllowance(address spender, uint256 subtractedValue) public virtual returns (bool) {\r... */\n    tag_34:\n      callvalue\n      dup1\n      iszero\n      tag_171\n      jumpi\n      0x00\n      dup1\n      revert\n    tag_171:\n      pop\n      tag_172\n      0x04\n      dup1\n      calldatasize\n      sub\n      0x40\n      dup2\n      lt\n      iszero\n      tag_173\n      jumpi\n      0x00\n      dup1\n      revert\n    tag_173:\n      dup2\n      add\n      swap1\n      dup1\n      dup1\n      calldataload\n      0xffffffffffffffffffffffffffffffffffffffff\n      and\n      swap1\n      0x20\n      add\n      swap1\n      swap3\n      swap2\n      swap1\n      dup1\n      calldataload\n      swap1\n      0x20\n      add\n      swap1\n      swap3\n      swap2\n      swap1\n      pop\n      pop\n      pop\n      tag_174\n      jump\t// in\n    tag_172:\n      mload(0x40)\n      dup1\n      dup3\n      iszero\n      iszero\n      dup2\n      mstore\n      0x20\n      add\n      swap2\n      pop\n      pop\n      mload(0x40)\n      dup1\n      swap2\n      sub\n      swap1\n      return\n        /* \"contracts/Token.sol\":215:308  address payable public marketingAddress = payable(0x40da1dd681eC6175C3BCFe1641CD2826A99EBdD8) */\n    tag_35:\n      callvalue\n      dup1\n      iszero\n      tag_175\n      jumpi\n      0x00\n      dup1\n      revert\n    tag_175:\n      pop\n      tag_176\n      tag_177\n      jump\t// in\n    tag_176:\n      mload(0x40)\n      dup1\n      dup3\n      0xffffffffffffffffffffffffffffffffffffffff\n      and\n      dup2\n      mstore\n      0x20\n      add\n      swap2\n      pop\n      pop\n      mload(0x40)\n      dup1\n      swap2\n      sub\n      swap1\n      return\n        /* \"contracts/Token.sol\":3131:3298  function transfer(address recipient, uint256 amount) public override returns (bool) {\r... */\n    tag_36:\n      callvalue\n      dup1\n      iszero\n      tag_178\n      jumpi\n      0x00\n      dup1\n      revert\n    tag_178:\n      pop\n      tag_179\n      0x04\n      dup1\n      calldatasize\n      sub\n      0x40\n      dup2\n      lt\n      iszero\n      tag_180\n      jumpi\n      0x00\n      dup1\n      revert\n    tag_180:\n      dup2\n      add\n      swap1\n      dup1\n      dup1\n      calldataload\n      0xffffffffffffffffffffffffffffffffffffffff\n      and\n      swap1\n      0x20\n      add\n      swap1\n      swap3\n      swap2\n      swap1\n      dup1\n      calldataload\n      swap1\n      0x20\n      add\n      swap1\n      swap3\n      swap2\n      swap1\n      pop\n      pop\n      pop\n      tag_181\n      jump\t// in\n    tag_179:\n      mload(0x40)\n      dup1\n      dup3\n      iszero\n      iszero\n      dup2\n      mstore\n      0x20\n      add\n      swap2\n      pop\n      pop\n      mload(0x40)\n      dup1\n      swap2\n      sub\n      swap1\n      return\n        /* \"contracts/Token.sol\":2417:2537  function openTrading() external onlyOwner() {\r... */\n    tag_37:\n      callvalue\n      dup1\n      iszero\n      tag_182\n      jumpi\n      0x00\n      dup1\n      revert\n    tag_182:\n      pop\n      tag_183\n      tag_184\n      jump\t// in\n    tag_183:\n      stop\n        /* \"contracts/Token.sol\":18839:18954  function emergencyWithdraw() external onlyOwner {\r... */\n    tag_38:\n      callvalue\n      dup1\n      iszero\n      tag_185\n      jumpi\n      0x00\n      dup1\n      revert\n    tag_185:\n      pop\n      tag_186\n      tag_187\n      jump\t// in\n    tag_186:\n      stop\n        /* \"contracts/Token.sol\":3306:3449  function allowance(address owner, address spender) public view override returns (uint256) {\r... */\n    tag_39:\n      callvalue\n      dup1\n      iszero\n      tag_188\n      jumpi\n      0x00\n      dup1\n      revert\n    tag_188:\n      pop\n      tag_189\n      0x04\n      dup1\n      calldatasize\n      sub\n      0x40\n      dup2\n      lt\n      iszero\n      tag_190\n      jumpi\n      0x00\n      dup1\n      revert\n    tag_190:\n      dup2\n      add\n      swap1\n      dup1\n      dup1\n      calldataload\n      0xffffffffffffffffffffffffffffffffffffffff\n      and\n      swap1\n      0x20\n      add\n      swap1\n      swap3\n      swap2\n      swap1\n      dup1\n      calldataload\n      0xffffffffffffffffffffffffffffffffffffffff\n      and\n      swap1\n      0x20\n      add\n      swap1\n      swap3\n      swap2\n      swap1\n      pop\n      pop\n      pop\n      tag_191\n      jump\t// in\n    tag_189:\n      mload(0x40)\n      dup1\n      dup3\n      dup2\n      mstore\n      0x20\n      add\n      swap2\n      pop\n      pop\n      mload(0x40)\n      dup1\n      swap2\n      sub\n      swap1\n      return\n        /* \"contracts/Token.sol\":17053:17163  function includeInFee(address account) public onlyOwner {\r... */\n    tag_40:\n      callvalue\n      dup1\n      iszero\n      tag_192\n      jumpi\n      0x00\n      dup1\n      revert\n    tag_192:\n      pop\n      tag_193\n      0x04\n      dup1\n      calldatasize\n      sub\n      0x20\n      dup2\n      lt\n      iszero\n      tag_194\n      jumpi\n      0x00\n      dup1\n      revert\n    tag_194:\n      dup2\n      add\n      swap1\n      dup1\n      dup1\n      calldataload\n      0xffffffffffffffffffffffffffffffffffffffff\n      and\n      swap1\n      0x20\n      add\n      swap1\n      swap3\n      swap2\n      swap1\n      pop\n      pop\n      pop\n      tag_195\n      jump\t// in\n    tag_193:\n      stop\n        /* \"contracts/includes.sol\":6122:6366  function transferOwnership(address newOwner) public virtual onlyOwner {\r... */\n    tag_41:\n      callvalue\n      dup1\n      iszero\n      tag_196\n      jumpi\n      0x00\n      dup1\n      revert\n    tag_196:\n      pop\n      tag_197\n      0x04\n      dup1\n      calldatasize\n      sub\n      0x20\n      dup2\n      lt\n      iszero\n      tag_198\n      jumpi\n      0x00\n      dup1\n      revert\n    tag_198:\n      dup2\n      add\n      swap1\n      dup1\n      dup1\n      calldataload\n      0xffffffffffffffffffffffffffffffffffffffff\n      and\n      swap1\n      0x20\n      add\n      swap1\n      swap3\n      swap2\n      swap1\n      pop\n      pop\n      pop\n      tag_199\n      jump\t// in\n    tag_197:\n      stop\n        /* \"contracts/Token.sol\":17815:18139  function _removeSniper(address account) external onlyOwner() {\r... */\n    tag_42:\n      callvalue\n      dup1\n      iszero\n      tag_200\n      jumpi\n      0x00\n      dup1\n      revert\n    tag_200:\n      pop\n      tag_201\n      0x04\n      dup1\n      calldatasize\n      sub\n      0x20\n      dup2\n      lt\n      iszero\n      tag_202\n      jumpi\n      0x00\n      dup1\n      revert\n    tag_202:\n      dup2\n      add\n      swap1\n      dup1\n      dup1\n      calldataload\n      0xffffffffffffffffffffffffffffffffffffffff\n      and\n      swap1\n      0x20\n      add\n      swap1\n      swap3\n      swap2\n      swap1\n      pop\n      pop\n      pop\n      tag_203\n      jump\t// in\n    tag_201:\n      stop\n        /* \"contracts/Token.sol\":17171:17269  function setTaxFeePercent(uint256 taxFee) external onlyOwner() {\r... */\n    tag_55:\n        /* \"contracts/includes.sol\":5889:5901  _msgSender() */\n      tag_205\n        /* \"contracts/includes.sol\":5889:5899  _msgSender */\n      tag_206\n        /* \"contracts/includes.sol\":5889:5901  _msgSender() */\n      jump\t// in\n    tag_205:\n        /* \"contracts/includes.sol\":5879:5901  _owner == _msgSender() */\n      0xffffffffffffffffffffffffffffffffffffffff\n      and\n        /* \"contracts/includes.sol\":5879:5885  _owner */\n      0x00\n      dup1\n      sload\n      swap1\n      0x0100\n      exp\n      swap1\n      div\n      0xffffffffffffffffffffffffffffffffffffffff\n      and\n        /* \"contracts/includes.sol\":5879:5901  _owner == _msgSender() */\n      0xffffffffffffffffffffffffffffffffffffffff\n      and\n      eq\n        /* \"contracts/includes.sol\":5871:5938  require(_owner == _msgSender(), \"Ownable: caller is not the owner\") */\n      tag_207\n      jumpi\n      mload(0x40)\n      0x08c379a000000000000000000000000000000000000000000000000000000000\n      dup2\n      mstore\n      0x04\n      add\n      dup1\n      dup1\n      0x20\n      add\n      dup3\n      dup2\n      sub\n      dup3\n      mstore\n      0x20\n      dup2\n      mstore\n      0x20\n      add\n      dup1\n      0x4f776e61626c653a2063616c6c6572206973206e6f7420746865206f776e6572\n      dup2\n      mstore\n      pop\n      0x20\n      add\n      swap2\n      pop\n      pop\n      mload(0x40)\n      dup1\n      swap2\n      sub\n      swap1\n      revert\n    tag_207:\n        /* \"contracts/Token.sol\":17255:17261  taxFee */\n      dup1\n        /* \"contracts/Token.sol\":17245:17252  _taxFee */\n      0x12\n        /* \"contracts/Token.sol\":17245:17261  _taxFee = taxFee */\n      dup2\n      swap1\n      sstore\n      pop\n        /* \"contracts/Token.sol\":17171:17269  function setTaxFeePercent(uint256 taxFee) external onlyOwner() {\r... */\n      pop\n      jump\t// out\n        /* \"contracts/Token.sol\":2545:2628  function name() public view returns (string memory) {\r... */\n    tag_58:\n        /* \"contracts/Token.sol\":2582:2595  string memory */\n      0x60\n        /* \"contracts/Token.sol\":2615:2620  _name */\n      0x0f\n        /* \"contracts/Token.sol\":2608:2620  return _name */\n      dup1\n      sload\n      0x01\n      dup2\n      0x01\n      and\n      iszero\n      0x0100\n      mul\n      sub\n      and\n      0x02\n      swap1\n      div\n      dup1\n      0x1f\n      add\n      0x20\n      dup1\n      swap2\n      div\n      mul\n      0x20\n      add\n      mload(0x40)\n      swap1\n      dup2\n      add\n      0x40\n      mstore\n      dup1\n      swap3\n      swap2\n      swap1\n      dup2\n      dup2\n      mstore\n      0x20\n      add\n      dup3\n      dup1\n      sload\n      0x01\n      dup2\n      0x01\n      and\n      iszero\n      0x0100\n      mul\n      sub\n      and\n      0x02\n      swap1\n      div\n      dup1\n      iszero\n      tag_210\n      jumpi\n      dup1\n      0x1f\n      lt\n      tag_211\n      jumpi\n      0x0100\n      dup1\n      dup4\n      sload\n      div\n      mul\n      dup4\n      mstore\n      swap2\n      0x20\n      add\n      swap2\n      jump(tag_210)\n    tag_211:\n      dup3\n      add\n      swap2\n      swap1\n      0x00\n      mstore\n      keccak256(0x00, 0x20)\n      swap1\n    tag_212:\n      dup2\n      sload\n      dup2\n      mstore\n      swap1\n      0x01\n      add\n      swap1\n      0x20\n      add\n      dup1\n      dup4\n      gt\n      tag_212\n      jumpi\n      dup3\n      swap1\n      sub\n      0x1f\n      and\n      dup3\n      add\n      swap2\n    tag_210:\n      pop\n      pop\n      pop\n      pop\n      pop\n      swap1\n      pop\n        /* \"contracts/Token.sol\":2545:2628  function name() public view returns (string memory) {\r... */\n      swap1\n      jump\t// out\n        /* \"contracts/Token.sol\":3457:3618  function approve(address spender, uint256 amount) public override returns (bool) {\r... */\n    tag_66:\n        /* \"contracts/Token.sol\":3532:3536  bool */\n      0x00\n        /* \"contracts/Token.sol\":3549:3588  _approve(_msgSender(), spender, amount) */\n      tag_214\n        /* \"contracts/Token.sol\":3558:3570  _msgSender() */\n      tag_215\n        /* \"contracts/Token.sol\":3558:3568  _msgSender */\n      tag_206\n        /* \"contracts/Token.sol\":3558:3570  _msgSender() */\n      jump\t// in\n    tag_215:\n        /* \"contracts/Token.sol\":3572:3579  spender */\n      dup5\n        /* \"contracts/Token.sol\":3581:3587  amount */\n      dup5\n        /* \"contracts/Token.sol\":3549:3557  _approve */\n      tag_216\n        /* \"contracts/Token.sol\":3549:3588  _approve(_msgSender(), spender, amount) */\n      jump\t// in\n    tag_214:\n        /* \"contracts/Token.sol\":3606:3610  true */\n      0x01\n        /* \"contracts/Token.sol\":3599:3610  return true */\n      swap1\n      pop\n        /* \"contracts/Token.sol\":3457:3618  function approve(address spender, uint256 amount) public override returns (bool) {\r... */\n      swap3\n      swap2\n      pop\n      pop\n      jump\t// out\n        /* \"contracts/Token.sol\":4578:4665  function totalFees() public view returns (uint256) {\r... */\n    tag_69:\n        /* \"contracts/Token.sol\":4620:4627  uint256 */\n      0x00\n        /* \"contracts/Token.sol\":4647:4657  _tFeeTotal */\n      sload(0x0e)\n        /* \"contracts/Token.sol\":4640:4657  return _tFeeTotal */\n      swap1\n      pop\n        /* \"contracts/Token.sol\":4578:4665  function totalFees() public view returns (uint256) {\r... */\n      swap1\n      jump\t// out\n        /* \"contracts/Token.sol\":1412:1453  IUniswapV2Router02 public uniswapV2Router */\n    tag_72:\n      0x18\n      0x00\n      swap1\n      sload\n      swap1\n      0x0100\n      exp\n      swap1\n      div\n      0xffffffffffffffffffffffffffffffffffffffff\n      and\n      dup2\n      jump\t// out\n        /* \"contracts/Token.sol\":2822:2917  function totalSupply() public view override returns (uint256) {\r... */\n    tag_75:\n        /* \"contracts/Token.sol\":2875:2882  uint256 */\n      0x00\n        /* \"contracts/Token.sol\":2902:2909  _tTotal */\n      sload(0x0c)\n        /* \"contracts/Token.sol\":2895:2909  return _tTotal */\n      swap1\n      pop\n        /* \"contracts/Token.sol\":2822:2917  function totalSupply() public view override returns (uint256) {\r... */\n      swap1\n      jump\t// out\n        /* \"contracts/Token.sol\":3626:3939  function transferFrom(address sender, address recipient, uint256 amount) public override returns (bool) {\r... */\n    tag_79:\n        /* \"contracts/Token.sol\":3724:3728  bool */\n      0x00\n        /* \"contracts/Token.sol\":3741:3777  _transfer(sender, recipient, amount) */\n      tag_220\n        /* \"contracts/Token.sol\":3751:3757  sender */\n      dup5\n        /* \"contracts/Token.sol\":3759:3768  recipient */\n      dup5\n        /* \"contracts/Token.sol\":3770:3776  amount */\n      dup5\n        /* \"contracts/Token.sol\":3741:3750  _transfer */\n      tag_221\n        /* \"contracts/Token.sol\":3741:3777  _transfer(sender, recipient, amount) */\n      jump\t// in\n    tag_220:\n        /* \"contracts/Token.sol\":3788:3909  _approve(sender, _msgSender(), _allowances[sender][_msgSender()].sub(amount, \"ERC20: transfer amount exceeds allowance\")) */\n      tag_222\n        /* \"contracts/Token.sol\":3797:3803  sender */\n      dup5\n        /* \"contracts/Token.sol\":3805:3817  _msgSender() */\n      tag_223\n        /* \"contracts/Token.sol\":3805:3815  _msgSender */\n      tag_206\n        /* \"contracts/Token.sol\":3805:3817  _msgSender() */\n      jump\t// in\n    tag_223:\n        /* \"contracts/Token.sol\":3819:3908  _allowances[sender][_msgSender()].sub(amount, \"ERC20: transfer amount exceeds allowance\") */\n      tag_224\n        /* \"contracts/Token.sol\":3857:3863  amount */\n      dup6\n        /* \"contracts/Token.sol\":3819:3908  _allowances[sender][_msgSender()].sub(amount, \"ERC20: transfer amount exceeds allowance\") */\n      mload(0x40)\n      dup1\n      0x60\n      add\n      0x40\n      mstore\n      dup1\n      0x28\n      dup2\n      mstore\n      0x20\n      add\n      data_974d1b4421da69cc60b481194f0dad36a5bb4e23da810da7a7fb30cdba178330\n      0x28\n      swap2\n      codecopy\n        /* \"contracts/Token.sol\":3819:3830  _allowances */\n      0x06\n        /* \"contracts/Token.sol\":3819:3838  _allowances[sender] */\n      0x00\n        /* \"contracts/Token.sol\":3831:3837  sender */\n      dup12\n        /* \"contracts/Token.sol\":3819:3838  _allowances[sender] */\n      0xffffffffffffffffffffffffffffffffffffffff\n      and\n      0xffffffffffffffffffffffffffffffffffffffff\n      and\n      dup2\n      mstore\n      0x20\n      add\n      swap1\n      dup2\n      mstore\n      0x20\n      add\n      0x00\n      keccak256\n        /* \"contracts/Token.sol\":3819:3852  _allowances[sender][_msgSender()] */\n      0x00\n        /* \"contracts/Token.sol\":3839:3851  _msgSender() */\n      tag_225\n        /* \"contracts/Token.sol\":3839:3849  _msgSender */\n      tag_206\n        /* \"contracts/Token.sol\":3839:3851  _msgSender() */\n      jump\t// in\n    tag_225:\n        /* \"contracts/Token.sol\":3819:3852  _allowances[sender][_msgSender()] */\n      0xffffffffffffffffffffffffffffffffffffffff\n      and\n      0xffffffffffffffffffffffffffffffffffffffff\n      and\n      dup2\n      mstore\n      0x20\n      add\n      swap1\n      dup2\n      mstore\n      0x20\n      add\n      0x00\n      keccak256\n      sload\n        /* \"contracts/Token.sol\":3819:3856  _allowances[sender][_msgSender()].sub */\n      tag_226\n      swap1\n        /* \"contracts/Token.sol\":3819:3908  _allowances[sender][_msgSender()].sub(amount, \"ERC20: transfer amount exceeds allowance\") */\n      swap3\n      swap2\n      swap1\n      0xffffffff\n      and\n      jump\t// in\n    tag_224:\n        /* \"contracts/Token.sol\":3788:3796  _approve */\n      tag_216\n        /* \"contracts/Token.sol\":3788:3909  _approve(sender, _msgSender(), _allowances[sender][_msgSender()].sub(amount, \"ERC20: transfer amount exceeds allowance\")) */\n      jump\t// in\n    tag_222:\n        /* \"contracts/Token.sol\":3927:3931  true */\n      0x01\n        /* \"contracts/Token.sol\":3920:3931  return true */\n      swap1\n      pop\n        /* \"contracts/Token.sol\":3626:3939  function transferFrom(address sender, address recipient, uint256 amount) public override returns (bool) {\r... */\n      swap4\n      swap3\n      pop\n      pop\n      pop\n      jump\t// out\n        /* \"contracts/Token.sol\":336:417  address public immutable deadAddress = 0x000000000000000000000000000000000000dEaD */\n    tag_82:\n      immutable(\"0x1572b593c53d839d80004aa4b8c51211864104f06ace9e22be9c4365b50655ea\")\n      dup2\n      jump\t// out\n        /* \"contracts/Token.sol\":5507:5760  function tokenFromReflection(uint256 rAmount) public view returns (uint256) {\r... */\n    tag_86:\n        /* \"contracts/Token.sol\":5574:5581  uint256 */\n      0x00\n        /* \"contracts/Token.sol\":5613:5620  _rTotal */\n      sload(0x0d)\n        /* \"contracts/Token.sol\":5602:5609  rAmount */\n      dup3\n        /* \"contracts/Token.sol\":5602:5620  rAmount <= _rTotal */\n      gt\n      iszero\n        /* \"contracts/Token.sol\":5594:5667  require(rAmount <= _rTotal, \"Amount must be less than total reflections\") */\n      tag_228\n      jumpi\n      mload(0x40)\n      0x08c379a000000000000000000000000000000000000000000000000000000000\n      dup2\n      mstore\n      0x04\n      add\n      dup1\n      dup1\n      0x20\n      add\n      dup3\n      dup2\n      sub\n      dup3\n      mstore\n      0x2a\n      dup2\n      mstore\n      0x20\n      add\n      dup1\n      data_22f7af55a509c3b14f0d528f087748dec8a8bf425135e3f5dc28c6a31ec6d812\n      0x2a\n      swap2\n      codecopy\n      0x40\n      add\n      swap2\n      pop\n      pop\n      mload(0x40)\n      dup1\n      swap2\n      sub\n      swap1\n      revert\n    tag_228:\n        /* \"contracts/Token.sol\":5678:5697  uint256 currentRate */\n      0x00\n        /* \"contracts/Token.sol\":5700:5710  _getRate() */\n      tag_229\n        /* \"contracts/Token.sol\":5700:5708  _getRate */\n      tag_230\n        /* \"contracts/Token.sol\":5700:5710  _getRate() */\n      jump\t// in\n    tag_229:\n        /* \"contracts/Token.sol\":5678:5710  uint256 currentRate = _getRate() */\n      swap1\n      pop\n        /* \"contracts/Token.sol\":5728:5752  rAmount.div(currentRate) */\n      tag_231\n        /* \"contracts/Token.sol\":5740:5751  currentRate */\n      dup2\n        /* \"contracts/Token.sol\":5728:5735  rAmount */\n      dup5\n        /* \"contracts/Token.sol\":5728:5739  rAmount.div */\n      tag_232\n      swap1\n        /* \"contracts/Token.sol\":5728:5752  rAmount.div(currentRate) */\n      swap2\n      swap1\n      0xffffffff\n      and\n      jump\t// in\n    tag_231:\n        /* \"contracts/Token.sol\":5721:5752  return rAmount.div(currentRate) */\n      swap2\n      pop\n      pop\n        /* \"contracts/Token.sol\":5507:5760  function tokenFromReflection(uint256 rAmount) public view returns (uint256) {\r... */\n      swap2\n      swap1\n      pop\n      jump\t// out\n        /* \"contracts/Token.sol\":2731:2814  function decimals() public view returns (uint8) {\r... */\n    tag_89:\n        /* \"contracts/Token.sol\":2772:2777  uint8 */\n      0x00\n        /* \"contracts/Token.sol\":2797:2806  _decimals */\n      0x11\n      0x00\n      swap1\n      sload\n      swap1\n      0x0100\n      exp\n      swap1\n      div\n      0xff\n      and\n        /* \"contracts/Token.sol\":2790:2806  return _decimals */\n      swap1\n      pop\n        /* \"contracts/Token.sol\":2731:2814  function decimals() public view returns (uint8) {\r... */\n      swap1\n      jump\t// out\n        /* \"contracts/Token.sol\":18147:18629  function _amnestySniper(address account) external onlyOwner() {\r... */\n    tag_93:\n        /* \"contracts/includes.sol\":5889:5901  _msgSender() */\n      tag_235\n        /* \"contracts/includes.sol\":5889:5899  _msgSender */\n      tag_206\n        /* \"contracts/includes.sol\":5889:5901  _msgSender() */\n      jump\t// in\n    tag_235:\n        /* \"contracts/includes.sol\":5879:5901  _owner == _msgSender() */\n      0xffffffffffffffffffffffffffffffffffffffff\n      and\n        /* \"contracts/includes.sol\":5879:5885  _owner */\n      0x00\n      dup1\n      sload\n      swap1\n      0x0100\n      exp\n      swap1\n      div\n      0xffffffffffffffffffffffffffffffffffffffff\n      and\n        /* \"contracts/includes.sol\":5879:5901  _owner == _msgSender() */\n      0xffffffffffffffffffffffffffffffffffffffff\n      and\n      eq\n        /* \"contracts/includes.sol\":5871:5938  require(_owner == _msgSender(), \"Ownable: caller is not the owner\") */\n      tag_236\n      jumpi\n      mload(0x40)\n      0x08c379a000000000000000000000000000000000000000000000000000000000\n      dup2\n      mstore\n      0x04\n      add\n      dup1\n      dup1\n      0x20\n      add\n      dup3\n      dup2\n      sub\n      dup3\n      mstore\n      0x20\n      dup2\n      mstore\n      0x20\n      add\n      dup1\n      0x4f776e61626c653a2063616c6c6572206973206e6f7420746865206f776e6572\n      dup2\n      mstore\n      pop\n      0x20\n      add\n      swap2\n      pop\n      pop\n      mload(0x40)\n      dup1\n      swap2\n      sub\n      swap1\n      revert\n    tag_236:\n        /* \"contracts/Token.sol\":18228:18237  _isSniper */\n      0x07\n        /* \"contracts/Token.sol\":18228:18246  _isSniper[account] */\n      0x00\n        /* \"contracts/Token.sol\":18238:18245  account */\n      dup3\n        /* \"contracts/Token.sol\":18228:18246  _isSniper[account] */\n      0xffffffffffffffffffffffffffffffffffffffff\n      and\n      0xffffffffffffffffffffffffffffffffffffffff\n      and\n      dup2\n      mstore\n      0x20\n      add\n      swap1\n      dup2\n      mstore\n      0x20\n      add\n      0x00\n      keccak256\n      0x00\n      swap1\n      sload\n      swap1\n      0x0100\n      exp\n      swap1\n      div\n      0xff\n      and\n        /* \"contracts/Token.sol\":18220:18277  require(_isSniper[account], \"Account is not blacklisted\") */\n      tag_238\n      jumpi\n      mload(0x40)\n      0x08c379a000000000000000000000000000000000000000000000000000000000\n      dup2\n      mstore\n      0x04\n      add\n      dup1\n      dup1\n      0x20\n      add\n      dup3\n      dup2\n      sub\n      dup3\n      mstore\n      0x1a\n      dup2\n      mstore\n      0x20\n      add\n      dup1\n      0x4163636f756e74206973206e6f7420626c61636b6c6973746564000000000000\n      dup2\n      mstore\n      pop\n      0x20\n      add\n      swap2\n      pop\n      pop\n      mload(0x40)\n      dup1\n      swap2\n      sub\n      swap1\n      revert\n    tag_238:\n        /* \"contracts/Token.sol\":18293:18302  uint256 i */\n      0x00\n        /* \"contracts/Token.sol\":18288:18622  for (uint256 i = 0; i < _confirmedSnipers.length; i++) {\r... */\n    tag_239:\n        /* \"contracts/Token.sol\":18312:18329  _confirmedSnipers */\n      0x08\n        /* \"contracts/Token.sol\":18312:18336  _confirmedSnipers.length */\n      dup1\n      sload\n      swap1\n      pop\n        /* \"contracts/Token.sol\":18308:18309  i */\n      dup2\n        /* \"contracts/Token.sol\":18308:18336  i < _confirmedSnipers.length */\n      lt\n        /* \"contracts/Token.sol\":18288:18622  for (uint256 i = 0; i < _confirmedSnipers.length; i++) {\r... */\n      iszero\n      tag_240\n      jumpi\n        /* \"contracts/Token.sol\":18386:18393  account */\n      dup2\n        /* \"contracts/Token.sol\":18362:18393  _confirmedSnipers[i] == account */\n      0xffffffffffffffffffffffffffffffffffffffff\n      and\n        /* \"contracts/Token.sol\":18362:18379  _confirmedSnipers */\n      0x08\n        /* \"contracts/Token.sol\":18380:18381  i */\n      dup3\n        /* \"contracts/Token.sol\":18362:18382  _confirmedSnipers[i] */\n      dup2\n      sload\n      dup2\n      lt\n      tag_242\n      jumpi\n      invalid\n    tag_242:\n      swap1\n      0x00\n      mstore\n      keccak256(0x00, 0x20)\n      add\n      0x00\n      swap1\n      sload\n      swap1\n      0x0100\n      exp\n      swap1\n      div\n      0xffffffffffffffffffffffffffffffffffffffff\n      and\n        /* \"contracts/Token.sol\":18362:18393  _confirmedSnipers[i] == account */\n      0xffffffffffffffffffffffffffffffffffffffff\n      and\n      eq\n        /* \"contracts/Token.sol\":18358:18611  if (_confirmedSnipers[i] == account) {\r... */\n      iszero\n      tag_244\n      jumpi\n        /* \"contracts/Token.sol\":18437:18454  _confirmedSnipers */\n      0x08\n        /* \"contracts/Token.sol\":18482:18483  1 */\n      0x01\n        /* \"contracts/Token.sol\":18455:18472  _confirmedSnipers */\n      0x08\n        /* \"contracts/Token.sol\":18455:18479  _confirmedSnipers.length */\n      dup1\n      sload\n      swap1\n      pop\n        /* \"contracts/Token.sol\":18455:18483  _confirmedSnipers.length - 1 */\n      sub\n        /* \"contracts/Token.sol\":18437:18484  _confirmedSnipers[_confirmedSnipers.length - 1] */\n      dup2\n      sload\n      dup2\n      lt\n      tag_245\n      jumpi\n      invalid\n    tag_245:\n      swap1\n      0x00\n      mstore\n      keccak256(0x00, 0x20)\n      add\n      0x00\n      swap1\n      sload\n      swap1\n      0x0100\n      exp\n      swap1\n      div\n      0xffffffffffffffffffffffffffffffffffffffff\n      and\n        /* \"contracts/Token.sol\":18414:18431  _confirmedSnipers */\n      0x08\n        /* \"contracts/Token.sol\":18432:18433  i */\n      dup3\n        /* \"contracts/Token.sol\":18414:18434  _confirmedSnipers[i] */\n      dup2\n      sload\n      dup2\n      lt\n      tag_247\n      jumpi\n      invalid\n    tag_247:\n      swap1\n      0x00\n      mstore\n      keccak256(0x00, 0x20)\n      add\n      0x00\n        /* \"contracts/Token.sol\":18414:18484  _confirmedSnipers[i] = _confirmedSnipers[_confirmedSnipers.length - 1] */\n      0x0100\n      exp\n      dup2\n      sload\n      dup2\n      0xffffffffffffffffffffffffffffffffffffffff\n      mul\n      not\n      and\n      swap1\n      dup4\n      0xffffffffffffffffffffffffffffffffffffffff\n      and\n      mul\n      or\n      swap1\n      sstore\n      pop\n        /* \"contracts/Token.sol\":18524:18529  false */\n      0x00\n        /* \"contracts/Token.sol\":18503:18512  _isSniper */\n      0x07\n        /* \"contracts/Token.sol\":18503:18521  _isSniper[account] */\n      0x00\n        /* \"contracts/Token.sol\":18513:18520  account */\n      dup5\n        /* \"contracts/Token.sol\":18503:18521  _isSniper[account] */\n      0xffffffffffffffffffffffffffffffffffffffff\n      and\n      0xffffffffffffffffffffffffffffffffffffffff\n      and\n      dup2\n      mstore\n      0x20\n      add\n      swap1\n      dup2\n      mstore\n      0x20\n      add\n      0x00\n      keccak256\n      0x00\n        /* \"contracts/Token.sol\":18503:18529  _isSniper[account] = false */\n      0x0100\n      exp\n      dup2\n      sload\n      dup2\n      0xff\n      mul\n      not\n      and\n      swap1\n      dup4\n      iszero\n      iszero\n      mul\n      or\n      swap1\n      sstore\n      pop\n        /* \"contracts/Token.sol\":18548:18565  _confirmedSnipers */\n      0x08\n        /* \"contracts/Token.sol\":18548:18571  _confirmedSnipers.pop() */\n      dup1\n      sload\n      dup1\n      tag_249\n      jumpi\n      invalid\n    tag_249:\n      0x01\n      swap1\n      sub\n      dup2\n      dup2\n      swap1\n      0x00\n      mstore\n      keccak256(0x00, 0x20)\n      add\n      exp(0x0100, 0x00)\n      dup2\n      sload\n      swap1\n      0xffffffffffffffffffffffffffffffffffffffff\n      mul\n      not\n      and\n      swap1\n      sstore\n      swap1\n      sstore\n        /* \"contracts/Token.sol\":18590:18595  break */\n      jump(tag_240)\n        /* \"contracts/Token.sol\":18358:18611  if (_confirmedSnipers[i] == account) {\r... */\n    tag_244:\n        /* \"contracts/Token.sol\":18338:18341  i++ */\n      dup1\n      dup1\n      0x01\n      add\n      swap2\n      pop\n      pop\n        /* \"contracts/Token.sol\":18288:18622  for (uint256 i = 0; i < _confirmedSnipers.length; i++) {\r... */\n      jump(tag_239)\n    tag_240:\n      pop\n        /* \"contracts/Token.sol\":18147:18629  function _amnestySniper(address account) external onlyOwner() {\r... */\n      pop\n      jump\t// out\n        /* \"contracts/Token.sol\":6112:6591  function includeInReward(address account) external onlyOwner() {\r... */\n    tag_97:\n        /* \"contracts/includes.sol\":5889:5901  _msgSender() */\n      tag_252\n        /* \"contracts/includes.sol\":5889:5899  _msgSender */\n      tag_206\n        /* \"contracts/includes.sol\":5889:5901  _msgSender() */\n      jump\t// in\n    tag_252:\n        /* \"contracts/includes.sol\":5879:5901  _owner == _msgSender() */\n      0xffffffffffffffffffffffffffffffffffffffff\n      and\n        /* \"contracts/includes.sol\":5879:5885  _owner */\n      0x00\n      dup1\n      sload\n      swap1\n      0x0100\n      exp\n      swap1\n      div\n      0xffffffffffffffffffffffffffffffffffffffff\n      and\n        /* \"contracts/includes.sol\":5879:5901  _owner == _msgSender() */\n      0xffffffffffffffffffffffffffffffffffffffff\n      and\n      eq\n        /* \"contracts/includes.sol\":5871:5938  require(_owner == _msgSender(), \"Ownable: caller is not the owner\") */\n      tag_253\n      jumpi\n      mload(0x40)\n      0x08c379a000000000000000000000000000000000000000000000000000000000\n      dup2\n      mstore\n      0x04\n      add\n      dup1\n      dup1\n      0x20\n      add\n      dup3\n      dup2\n      sub\n      dup3\n      mstore\n      0x20\n      dup2\n      mstore\n      0x20\n      add\n      dup1\n      0x4f776e61626c653a2063616c6c6572206973206e6f7420746865206f776e6572\n      dup2\n      mstore\n      pop\n      0x20\n      add\n      swap2\n      pop\n      pop\n      mload(0x40)\n      dup1\n      swap2\n      sub\n      swap1\n      revert\n    tag_253:\n        /* \"contracts/Token.sol\":6194:6205  _isExcluded */\n      0x0a\n        /* \"contracts/Token.sol\":6194:6214  _isExcluded[account] */\n      0x00\n        /* \"contracts/Token.sol\":6206:6213  account */\n      dup3\n        /* \"contracts/Token.sol\":6194:6214  _isExcluded[account] */\n      0xffffffffffffffffffffffffffffffffffffffff\n      and\n      0xffffffffffffffffffffffffffffffffffffffff\n      and\n      dup2\n      mstore\n      0x20\n      add\n      swap1\n      dup2\n      mstore\n      0x20\n      add\n      0x00\n      keccak256\n      0x00\n      swap1\n      sload\n      swap1\n      0x0100\n      exp\n      swap1\n      div\n      0xff\n      and\n        /* \"contracts/Token.sol\":6186:6246  require(_isExcluded[account], \"Account is already excluded\") */\n      tag_255\n      jumpi\n      mload(0x40)\n      0x08c379a000000000000000000000000000000000000000000000000000000000\n      dup2\n      mstore\n      0x04\n      add\n      dup1\n      dup1\n      0x20\n      add\n      dup3\n      dup2\n      sub\n      dup3\n      mstore\n      0x1b\n      dup2\n      mstore\n      0x20\n      add\n      dup1\n      0x4163636f756e7420697320616c7265616479206578636c756465640000000000\n      dup2\n      mstore\n      pop\n      0x20\n      add\n      swap2\n      pop\n      pop\n      mload(0x40)\n      dup1\n      swap2\n      sub\n      swap1\n      revert\n    tag_255:\n        /* \"contracts/Token.sol\":6262:6271  uint256 i */\n      0x00\n        /* \"contracts/Token.sol\":6257:6584  for (uint256 i = 0; i < _excluded.length; i++) {\r... */\n    tag_256:\n        /* \"contracts/Token.sol\":6281:6290  _excluded */\n      0x0b\n        /* \"contracts/Token.sol\":6281:6297  _excluded.length */\n      dup1\n      sload\n      swap1\n      pop\n        /* \"contracts/Token.sol\":6277:6278  i */\n      dup2\n        /* \"contracts/Token.sol\":6277:6297  i < _excluded.length */\n      lt\n        /* \"contracts/Token.sol\":6257:6584  for (uint256 i = 0; i < _excluded.length; i++) {\r... */\n      iszero\n      tag_257\n      jumpi\n        /* \"contracts/Token.sol\":6339:6346  account */\n      dup2\n        /* \"contracts/Token.sol\":6323:6346  _excluded[i] == account */\n      0xffffffffffffffffffffffffffffffffffffffff\n      and\n        /* \"contracts/Token.sol\":6323:6332  _excluded */\n      0x0b\n        /* \"contracts/Token.sol\":6333:6334  i */\n      dup3\n        /* \"contracts/Token.sol\":6323:6335  _excluded[i] */\n      dup2\n      sload\n      dup2\n      lt\n      tag_259\n      jumpi\n      invalid\n    tag_259:\n      swap1\n      0x00\n      mstore\n      keccak256(0x00, 0x20)\n      add\n      0x00\n      swap1\n      sload\n      swap1\n      0x0100\n      exp\n      swap1\n      div\n      0xffffffffffffffffffffffffffffffffffffffff\n      and\n        /* \"contracts/Token.sol\":6323:6346  _excluded[i] == account */\n      0xffffffffffffffffffffffffffffffffffffffff\n      and\n      eq\n        /* \"contracts/Token.sol\":6319:6573  if (_excluded[i] == account) {\r... */\n      iszero\n      tag_261\n      jumpi\n        /* \"contracts/Token.sol\":6382:6391  _excluded */\n      0x0b\n        /* \"contracts/Token.sol\":6411:6412  1 */\n      0x01\n        /* \"contracts/Token.sol\":6392:6401  _excluded */\n      0x0b\n        /* \"contracts/Token.sol\":6392:6408  _excluded.length */\n      dup1\n      sload\n      swap1\n      pop\n        /* \"contracts/Token.sol\":6392:6412  _excluded.length - 1 */\n      sub\n        /* \"contracts/Token.sol\":6382:6413  _excluded[_excluded.length - 1] */\n      dup2\n      sload\n      dup2\n      lt\n      tag_262\n      jumpi\n      invalid\n    tag_262:\n      swap1\n      0x00\n      mstore\n      keccak256(0x00, 0x20)\n      add\n      0x00\n      swap1\n      sload\n      swap1\n      0x0100\n      exp\n      swap1\n      div\n      0xffffffffffffffffffffffffffffffffffffffff\n      and\n        /* \"contracts/Token.sol\":6367:6376  _excluded */\n      0x0b\n        /* \"contracts/Token.sol\":6377:6378  i */\n      dup3\n        /* \"contracts/Token.sol\":6367:6379  _excluded[i] */\n      dup2\n      sload\n      dup2\n      lt\n      tag_264\n      jumpi\n      invalid\n    tag_264:\n      swap1\n      0x00\n      mstore\n      keccak256(0x00, 0x20)\n      add\n      0x00\n        /* \"contracts/Token.sol\":6367:6413  _excluded[i] = _excluded[_excluded.length - 1] */\n      0x0100\n      exp\n      dup2\n      sload\n      dup2\n      0xffffffffffffffffffffffffffffffffffffffff\n      mul\n      not\n      and\n      swap1\n      dup4\n      0xffffffffffffffffffffffffffffffffffffffff\n      and\n      mul\n      or\n      swap1\n      sstore\n      pop\n        /* \"contracts/Token.sol\":6451:6452  0 */\n      0x00\n        /* \"contracts/Token.sol\":6432:6439  _tOwned */\n      0x05\n        /* \"contracts/Token.sol\":6432:6448  _tOwned[account] */\n      0x00\n        /* \"contracts/Token.sol\":6440:6447  account */\n      dup5\n        /* \"contracts/Token.sol\":6432:6448  _tOwned[account] */\n      0xffffffffffffffffffffffffffffffffffffffff\n      and\n      0xffffffffffffffffffffffffffffffffffffffff\n      and\n      dup2\n      mstore\n      0x20\n      add\n      swap1\n      dup2\n      mstore\n      0x20\n      add\n      0x00\n      keccak256\n        /* \"contracts/Token.sol\":6432:6452  _tOwned[account] = 0 */\n      dup2\n      swap1\n      sstore\n      pop\n        /* \"contracts/Token.sol\":6494:6499  false */\n      0x00\n        /* \"contracts/Token.sol\":6471:6482  _isExcluded */\n      0x0a\n        /* \"contracts/Token.sol\":6471:6491  _isExcluded[account] */\n      0x00\n        /* \"contracts/Token.sol\":6483:6490  account */\n      dup5\n        /* \"contracts/Token.sol\":6471:6491  _isExcluded[account] */\n      0xffffffffffffffffffffffffffffffffffffffff\n      and\n      0xffffffffffffffffffffffffffffffffffffffff\n      and\n      dup2\n      mstore\n      0x20\n      add\n      swap1\n      dup2\n      mstore\n      0x20\n      add\n      0x00\n      keccak256\n      0x00\n        /* \"contracts/Token.sol\":6471:6499  _isExcluded[account] = false */\n      0x0100\n      exp\n      dup2\n      sload\n      dup2\n      0xff\n      mul\n      not\n      and\n      swap1\n      dup4\n      iszero\n      iszero\n      mul\n      or\n      swap1\n      sstore\n      pop\n        /* \"contracts/Token.sol\":6518:6527  _excluded */\n      0x0b\n        /* \"contracts/Token.sol\":6518:6533  _excluded.pop() */\n      dup1\n      sload\n      dup1\n      tag_266\n      jumpi\n      invalid\n    tag_266:\n      0x01\n      swap1\n      sub\n      dup2\n      dup2\n      swap1\n      0x00\n      mstore\n      keccak256(0x00, 0x20)\n      add\n      exp(0x0100, 0x00)\n      dup2\n      sload\n      swap1\n      0xffffffffffffffffffffffffffffffffffffffff\n      mul\n      not\n      and\n      swap1\n      sstore\n      swap1\n      sstore\n        /* \"contracts/Token.sol\":6552:6557  break */\n      jump(tag_257)\n        /* \"contracts/Token.sol\":6319:6573  if (_excluded[i] == account) {\r... */\n    tag_261:\n        /* \"contracts/Token.sol\":6299:6302  i++ */\n      dup1\n      dup1\n      0x01\n      add\n      swap2\n      pop\n      pop\n        /* \"contracts/Token.sol\":6257:6584  for (uint256 i = 0; i < _excluded.length; i++) {\r... */\n      jump(tag_256)\n    tag_257:\n      pop\n        /* \"contracts/Token.sol\":6112:6591  function includeInReward(address account) external onlyOwner() {\r... */\n      pop\n      jump\t// out\n        /* \"contracts/Token.sol\":3947:4165  function increaseAllowance(address spender, uint256 addedValue) public virtual returns (bool) {\r... */\n    tag_101:\n        /* \"contracts/Token.sol\":4035:4039  bool */\n      0x00\n        /* \"contracts/Token.sol\":4052:4135  _approve(_msgSender(), spender, _allowances[_msgSender()][spender].add(addedValue)) */\n      tag_269\n        /* \"contracts/Token.sol\":4061:4073  _msgSender() */\n      tag_270\n        /* \"contracts/Token.sol\":4061:4071  _msgSender */\n      tag_206\n        /* \"contracts/Token.sol\":4061:4073  _msgSender() */\n      jump\t// in\n    tag_270:\n        /* \"contracts/Token.sol\":4075:4082  spender */\n      dup5\n        /* \"contracts/Token.sol\":4084:4134  _allowances[_msgSender()][spender].add(addedValue) */\n      tag_271\n        /* \"contracts/Token.sol\":4123:4133  addedValue */\n      dup6\n        /* \"contracts/Token.sol\":4084:4095  _allowances */\n      0x06\n        /* \"contracts/Token.sol\":4084:4109  _allowances[_msgSender()] */\n      0x00\n        /* \"contracts/Token.sol\":4096:4108  _msgSender() */\n      tag_272\n        /* \"contracts/Token.sol\":4096:4106  _msgSender */\n      tag_206\n        /* \"contracts/Token.sol\":4096:4108  _msgSender() */\n      jump\t// in\n    tag_272:\n        /* \"contracts/Token.sol\":4084:4109  _allowances[_msgSender()] */\n      0xffffffffffffffffffffffffffffffffffffffff\n      and\n      0xffffffffffffffffffffffffffffffffffffffff\n      and\n      dup2\n      mstore\n      0x20\n      add\n      swap1\n      dup2\n      mstore\n      0x20\n      add\n      0x00\n      keccak256\n        /* \"contracts/Token.sol\":4084:4118  _allowances[_msgSender()][spender] */\n      0x00\n        /* \"contracts/Token.sol\":4110:4117  spender */\n      dup10\n        /* \"contracts/Token.sol\":4084:4118  _allowances[_msgSender()][spender] */\n      0xffffffffffffffffffffffffffffffffffffffff\n      and\n      0xffffffffffffffffffffffffffffffffffffffff\n      and\n      dup2\n      mstore\n      0x20\n      add\n      swap1\n      dup2\n      mstore\n      0x20\n      add\n      0x00\n      keccak256\n      sload\n        /* \"contracts/Token.sol\":4084:4122  _allowances[_msgSender()][spender].add */\n      tag_273\n      swap1\n        /* \"contracts/Token.sol\":4084:4134  _allowances[_msgSender()][spender].add(addedValue) */\n      swap2\n      swap1\n      0xffffffff\n      and\n      jump\t// in\n    tag_271:\n        /* \"contracts/Token.sol\":4052:4060  _approve */\n      tag_216\n        /* \"contracts/Token.sol\":4052:4135  _approve(_msgSender(), spender, _allowances[_msgSender()][spender].add(addedValue)) */\n      jump\t// in\n    tag_269:\n        /* \"contracts/Token.sol\":4153:4157  true */\n      0x01\n        /* \"contracts/Token.sol\":4146:4157  return true */\n      swap1\n      pop\n        /* \"contracts/Token.sol\":3947:4165  function increaseAllowance(address spender, uint256 addedValue) public virtual returns (bool) {\r... */\n      swap3\n      swap2\n      pop\n      pop\n      jump\t// out\n        /* \"contracts/Token.sol\":1154:1180  uint256 public _taxFee = 3 */\n    tag_104:\n      sload(0x12)\n      dup2\n      jump\t// out\n        /* \"contracts/Token.sol\":4675:5052  function deliver(uint256 tAmount) public {\r... */\n    tag_108:\n        /* \"contracts/Token.sol\":4727:4741  address sender */\n      0x00\n        /* \"contracts/Token.sol\":4744:4756  _msgSender() */\n      tag_275\n        /* \"contracts/Token.sol\":4744:4754  _msgSender */\n      tag_206\n        /* \"contracts/Token.sol\":4744:4756  _msgSender() */\n      jump\t// in\n    tag_275:\n        /* \"contracts/Token.sol\":4727:4756  address sender = _msgSender() */\n      swap1\n      pop\n        /* \"contracts/Token.sol\":4776:4787  _isExcluded */\n      0x0a\n        /* \"contracts/Token.sol\":4776:4795  _isExcluded[sender] */\n      0x00\n        /* \"contracts/Token.sol\":4788:4794  sender */\n      dup3\n        /* \"contracts/Token.sol\":4776:4795  _isExcluded[sender] */\n      0xffffffffffffffffffffffffffffffffffffffff\n      and\n      0xffffffffffffffffffffffffffffffffffffffff\n      and\n      dup2\n      mstore\n      0x20\n      add\n      swap1\n      dup2\n      mstore\n      0x20\n      add\n      0x00\n      keccak256\n      0x00\n      swap1\n      sload\n      swap1\n      0x0100\n      exp\n      swap1\n      div\n      0xff\n      and\n        /* \"contracts/Token.sol\":4775:4795  !_isExcluded[sender] */\n      iszero\n        /* \"contracts/Token.sol\":4767:4844  require(!_isExcluded[sender], \"Excluded addresses cannot call this function\") */\n      tag_276\n      jumpi\n      mload(0x40)\n      0x08c379a000000000000000000000000000000000000000000000000000000000\n      dup2\n      mstore\n      0x04\n      add\n      dup1\n      dup1\n      0x20\n      add\n      dup3\n      dup2\n      sub\n      dup3\n      mstore\n      0x2c\n      dup2\n      mstore\n      0x20\n      add\n      dup1\n      data_ecefcaf5fbcf9ca6dcdb02298ba1da96f4ead317b0a4779917ecb2e5e7dc3ac4\n      0x2c\n      swap2\n      codecopy\n      0x40\n      add\n      swap2\n      pop\n      pop\n      mload(0x40)\n      dup1\n      swap2\n      sub\n      swap1\n      revert\n    tag_276:\n        /* \"contracts/Token.sol\":4856:4871  uint256 rAmount */\n      0x00\n        /* \"contracts/Token.sol\":4880:4899  _getValues(tAmount) */\n      tag_277\n        /* \"contracts/Token.sol\":4891:4898  tAmount */\n      dup4\n        /* \"contracts/Token.sol\":4880:4890  _getValues */\n      tag_278\n        /* \"contracts/Token.sol\":4880:4899  _getValues(tAmount) */\n      jump\t// in\n    tag_277:\n        /* \"contracts/Token.sol\":4855:4899  (uint256 rAmount,,,,,) = _getValues(tAmount) */\n      pop\n      pop\n      pop\n      pop\n      pop\n      swap1\n      pop\n        /* \"contracts/Token.sol\":4928:4956  _rOwned[sender].sub(rAmount) */\n      tag_279\n        /* \"contracts/Token.sol\":4948:4955  rAmount */\n      dup2\n        /* \"contracts/Token.sol\":4928:4935  _rOwned */\n      0x04\n        /* \"contracts/Token.sol\":4928:4943  _rOwned[sender] */\n      0x00\n        /* \"contracts/Token.sol\":4936:4942  sender */\n      dup6\n        /* \"contracts/Token.sol\":4928:4943  _rOwned[sender] */\n      0xffffffffffffffffffffffffffffffffffffffff\n      and\n      0xffffffffffffffffffffffffffffffffffffffff\n      and\n      dup2\n      mstore\n      0x20\n      add\n      swap1\n      dup2\n      mstore\n      0x20\n      add\n      0x00\n      keccak256\n      sload\n        /* \"contracts/Token.sol\":4928:4947  _rOwned[sender].sub */\n      tag_280\n      swap1\n        /* \"contracts/Token.sol\":4928:4956  _rOwned[sender].sub(rAmount) */\n      swap2\n      swap1\n      0xffffffff\n      and\n      jump\t// in\n    tag_279:\n        /* \"contracts/Token.sol\":4910:4917  _rOwned */\n      0x04\n        /* \"contracts/Token.sol\":4910:4925  _rOwned[sender] */\n      0x00\n        /* \"contracts/Token.sol\":4918:4924  sender */\n      dup5\n        /* \"contracts/Token.sol\":4910:4925  _rOwned[sender] */\n      0xffffffffffffffffffffffffffffffffffffffff\n      and\n      0xffffffffffffffffffffffffffffffffffffffff\n      and\n      dup2\n      mstore\n      0x20\n      add\n      swap1\n      dup2\n      mstore\n      0x20\n      add\n      0x00\n      keccak256\n        /* \"contracts/Token.sol\":4910:4956  _rOwned[sender] = _rOwned[sender].sub(rAmount) */\n      dup2\n      swap1\n      sstore\n      pop\n        /* \"contracts/Token.sol\":4977:4997  _rTotal.sub(rAmount) */\n      tag_281\n        /* \"contracts/Token.sol\":4989:4996  rAmount */\n      dup2\n        /* \"contracts/Token.sol\":4977:4984  _rTotal */\n      sload(0x0d)\n        /* \"contracts/Token.sol\":4977:4988  _rTotal.sub */\n      tag_280\n      swap1\n        /* \"contracts/Token.sol\":4977:4997  _rTotal.sub(rAmount) */\n      swap2\n      swap1\n      0xffffffff\n      and\n      jump\t// in\n    tag_281:\n        /* \"contracts/Token.sol\":4967:4974  _rTotal */\n      0x0d\n        /* \"contracts/Token.sol\":4967:4997  _rTotal = _rTotal.sub(rAmount) */\n      dup2\n      swap1\n      sstore\n      pop\n        /* \"contracts/Token.sol\":5021:5044  _tFeeTotal.add(tAmount) */\n      tag_282\n        /* \"contracts/Token.sol\":5036:5043  tAmount */\n      dup4\n        /* \"contracts/Token.sol\":5021:5031  _tFeeTotal */\n      sload(0x0e)\n        /* \"contracts/Token.sol\":5021:5035  _tFeeTotal.add */\n      tag_273\n      swap1\n        /* \"contracts/Token.sol\":5021:5044  _tFeeTotal.add(tAmount) */\n      swap2\n      swap1\n      0xffffffff\n      and\n      jump\t// in\n    tag_282:\n        /* \"contracts/Token.sol\":5008:5018  _tFeeTotal */\n      0x0e\n        /* \"contracts/Token.sol\":5008:5044  _tFeeTotal = _tFeeTotal.add(tAmount) */\n      dup2\n      swap1\n      sstore\n      pop\n        /* \"contracts/Token.sol\":4675:5052  function deliver(uint256 tAmount) public {\r... */\n      pop\n      pop\n      pop\n      jump\t// out\n        /* \"contracts/Token.sol\":16934:17045  function excludeFromFee(address account) public onlyOwner {\r... */\n    tag_112:\n        /* \"contracts/includes.sol\":5889:5901  _msgSender() */\n      tag_284\n        /* \"contracts/includes.sol\":5889:5899  _msgSender */\n      tag_206\n        /* \"contracts/includes.sol\":5889:5901  _msgSender() */\n      jump\t// in\n    tag_284:\n        /* \"contracts/includes.sol\":5879:5901  _owner == _msgSender() */\n      0xffffffffffffffffffffffffffffffffffffffff\n      and\n        /* \"contracts/includes.sol\":5879:5885  _owner */\n      0x00\n      dup1\n      sload\n      swap1\n      0x0100\n      exp\n      swap1\n      div\n      0xffffffffffffffffffffffffffffffffffffffff\n      and\n        /* \"contracts/includes.sol\":5879:5901  _owner == _msgSender() */\n      0xffffffffffffffffffffffffffffffffffffffff\n      and\n      eq\n        /* \"contracts/includes.sol\":5871:5938  require(_owner == _msgSender(), \"Ownable: caller is not the owner\") */\n      tag_285\n      jumpi\n      mload(0x40)\n      0x08c379a000000000000000000000000000000000000000000000000000000000\n      dup2\n      mstore\n      0x04\n      add\n      dup1\n      dup1\n      0x20\n      add\n      dup3\n      dup2\n      sub\n      dup3\n      mstore\n      0x20\n      dup2\n      mstore\n      0x20\n      add\n      dup1\n      0x4f776e61626c653a2063616c6c6572206973206e6f7420746865206f776e6572\n      dup2\n      mstore\n      pop\n      0x20\n      add\n      swap2\n      pop\n      pop\n      mload(0x40)\n      dup1\n      swap2\n      sub\n      swap1\n      revert\n    tag_285:\n        /* \"contracts/Token.sol\":17033:17037  true */\n      0x01\n        /* \"contracts/Token.sol\":17003:17021  _isExcludedFromFee */\n      0x09\n        /* \"contracts/Token.sol\":17003:17030  _isExcludedFromFee[account] */\n      0x00\n        /* \"contracts/Token.sol\":17022:17029  account */\n      dup4\n        /* \"contracts/Token.sol\":17003:17030  _isExcludedFromFee[account] */\n      0xffffffffffffffffffffffffffffffffffffffff\n      and\n      0xffffffffffffffffffffffffffffffffffffffff\n      and\n      dup2\n      mstore\n      0x20\n      add\n      swap1\n      dup2\n      mstore\n      0x20\n      add\n      0x00\n      keccak256\n      0x00\n        /* \"contracts/Token.sol\":17003:17037  _isExcludedFromFee[account] = true */\n      0x0100\n      exp\n      dup2\n      sload\n      dup2\n      0xff\n      mul\n      not\n      and\n      swap1\n      dup4\n      iszero\n      iszero\n      mul\n      or\n      swap1\n      sstore\n      pop\n        /* \"contracts/Token.sol\":16934:17045  function excludeFromFee(address account) public onlyOwner {\r... */\n      pop\n      jump\t// out\n        /* \"contracts/Token.sol\":5062:5499  function reflectionFromToken(uint256 tAmount, bool deductTransferFee) public view returns (uint256) {\r... */\n    tag_116:\n        /* \"contracts/Token.sol\":5153:5160  uint256 */\n      0x00\n        /* \"contracts/Token.sol\":5192:5199  _tTotal */\n      sload(0x0c)\n        /* \"contracts/Token.sol\":5181:5188  tAmount */\n      dup4\n        /* \"contracts/Token.sol\":5181:5199  tAmount <= _tTotal */\n      gt\n      iszero\n        /* \"contracts/Token.sol\":5173:5235  require(tAmount <= _tTotal, \"Amount must be less than supply\") */\n      tag_288\n      jumpi\n      mload(0x40)\n      0x08c379a000000000000000000000000000000000000000000000000000000000\n      dup2\n      mstore\n      0x04\n      add\n      dup1\n      dup1\n      0x20\n      add\n      dup3\n      dup2\n      sub\n      dup3\n      mstore\n      0x1f\n      dup2\n      mstore\n      0x20\n      add\n      dup1\n      0x416d6f756e74206d757374206265206c657373207468616e20737570706c7900\n      dup2\n      mstore\n      pop\n      0x20\n      add\n      swap2\n      pop\n      pop\n      mload(0x40)\n      dup1\n      swap2\n      sub\n      swap1\n      revert\n    tag_288:\n        /* \"contracts/Token.sol\":5251:5268  deductTransferFee */\n      dup2\n        /* \"contracts/Token.sol\":5246:5492  if (!deductTransferFee) {\r... */\n      tag_289\n      jumpi\n        /* \"contracts/Token.sol\":5286:5301  uint256 rAmount */\n      0x00\n        /* \"contracts/Token.sol\":5310:5329  _getValues(tAmount) */\n      tag_290\n        /* \"contracts/Token.sol\":5321:5328  tAmount */\n      dup5\n        /* \"contracts/Token.sol\":5310:5320  _getValues */\n      tag_278\n        /* \"contracts/Token.sol\":5310:5329  _getValues(tAmount) */\n      jump\t// in\n    tag_290:\n        /* \"contracts/Token.sol\":5285:5329  (uint256 rAmount,,,,,) = _getValues(tAmount) */\n      pop\n      pop\n      pop\n      pop\n      pop\n      swap1\n      pop\n        /* \"contracts/Token.sol\":5351:5358  rAmount */\n      dup1\n        /* \"contracts/Token.sol\":5344:5358  return rAmount */\n      swap2\n      pop\n      pop\n      jump(tag_287)\n        /* \"contracts/Token.sol\":5246:5492  if (!deductTransferFee) {\r... */\n    tag_289:\n        /* \"contracts/Token.sol\":5393:5416  uint256 rTransferAmount */\n      0x00\n        /* \"contracts/Token.sol\":5424:5443  _getValues(tAmount) */\n      tag_292\n        /* \"contracts/Token.sol\":5435:5442  tAmount */\n      dup5\n        /* \"contracts/Token.sol\":5424:5434  _getValues */\n      tag_278\n        /* \"contracts/Token.sol\":5424:5443  _getValues(tAmount) */\n      jump\t// in\n    tag_292:\n        /* \"contracts/Token.sol\":5391:5443  (,uint256 rTransferAmount,,,,) = _getValues(tAmount) */\n      pop\n      pop\n      pop\n      pop\n      swap2\n      pop\n      pop\n        /* \"contracts/Token.sol\":5465:5480  rTransferAmount */\n      dup1\n        /* \"contracts/Token.sol\":5458:5480  return rTransferAmount */\n      swap2\n      pop\n      pop\n        /* \"contracts/Token.sol\":5062:5499  function reflectionFromToken(uint256 tAmount, bool deductTransferFee) public view returns (uint256) {\r... */\n    tag_287:\n      swap3\n      swap2\n      pop\n      pop\n      jump\t// out\n        /* \"contracts/Token.sol\":18639:18728  function setFeeRate(uint256 rate) external onlyOwner() {\r... */\n    tag_120:\n        /* \"contracts/includes.sol\":5889:5901  _msgSender() */\n      tag_294\n        /* \"contracts/includes.sol\":5889:5899  _msgSender */\n      tag_206\n        /* \"contracts/includes.sol\":5889:5901  _msgSender() */\n      jump\t// in\n    tag_294:\n        /* \"contracts/includes.sol\":5879:5901  _owner == _msgSender() */\n      0xffffffffffffffffffffffffffffffffffffffff\n      and\n        /* \"contracts/includes.sol\":5879:5885  _owner */\n      0x00\n      dup1\n      sload\n      swap1\n      0x0100\n      exp\n      swap1\n      div\n      0xffffffffffffffffffffffffffffffffffffffff\n      and\n        /* \"contracts/includes.sol\":5879:5901  _owner == _msgSender() */\n      0xffffffffffffffffffffffffffffffffffffffff\n      and\n      eq\n        /* \"contracts/includes.sol\":5871:5938  require(_owner == _msgSender(), \"Ownable: caller is not the owner\") */\n      tag_295\n      jumpi\n      mload(0x40)\n      0x08c379a000000000000000000000000000000000000000000000000000000000\n      dup2\n      mstore\n      0x04\n      add\n      dup1\n      dup1\n      0x20\n      add\n      dup3\n      dup2\n      sub\n      dup3\n      mstore\n      0x20\n      dup2\n      mstore\n      0x20\n      add\n      dup1\n      0x4f776e61626c653a2063616c6c6572206973206e6f7420746865206f776e6572\n      dup2\n      mstore\n      pop\n      0x20\n      add\n      swap2\n      pop\n      pop\n      mload(0x40)\n      dup1\n      swap2\n      sub\n      swap1\n      revert\n    tag_295:\n        /* \"contracts/Token.sol\":18716:18720  rate */\n      dup1\n        /* \"contracts/Token.sol\":18705:18713  _feeRate */\n      0x16\n        /* \"contracts/Token.sol\":18705:18720  _feeRate = rate */\n      dup2\n      swap1\n      sstore\n      pop\n        /* \"contracts/Token.sol\":18639:18728  function setFeeRate(uint256 rate) external onlyOwner() {\r... */\n      pop\n      jump\t// out\n        /* \"contracts/Token.sol\":1460:1488  address public uniswapV2Pair */\n    tag_123:\n      0x19\n      0x00\n      swap1\n      sload\n      swap1\n      0x0100\n      exp\n      swap1\n      div\n      0xffffffffffffffffffffffffffffffffffffffff\n      and\n      dup2\n      jump\t// out\n        /* \"contracts/Token.sol\":5768:6104  function excludeFromReward(address account) public onlyOwner() {\r... */\n    tag_127:\n        /* \"contracts/includes.sol\":5889:5901  _msgSender() */\n      tag_298\n        /* \"contracts/includes.sol\":5889:5899  _msgSender */\n      tag_206\n        /* \"contracts/includes.sol\":5889:5901  _msgSender() */\n      jump\t// in\n    tag_298:\n        /* \"contracts/includes.sol\":5879:5901  _owner == _msgSender() */\n      0xffffffffffffffffffffffffffffffffffffffff\n      and\n        /* \"contracts/includes.sol\":5879:5885  _owner */\n      0x00\n      dup1\n      sload\n      swap1\n      0x0100\n      exp\n      swap1\n      div\n      0xffffffffffffffffffffffffffffffffffffffff\n      and\n        /* \"contracts/includes.sol\":5879:5901  _owner == _msgSender() */\n      0xffffffffffffffffffffffffffffffffffffffff\n      and\n      eq\n        /* \"contracts/includes.sol\":5871:5938  require(_owner == _msgSender(), \"Ownable: caller is not the owner\") */\n      tag_299\n      jumpi\n      mload(0x40)\n      0x08c379a000000000000000000000000000000000000000000000000000000000\n      dup2\n      mstore\n      0x04\n      add\n      dup1\n      dup1\n      0x20\n      add\n      dup3\n      dup2\n      sub\n      dup3\n      mstore\n      0x20\n      dup2\n      mstore\n      0x20\n      add\n      dup1\n      0x4f776e61626c653a2063616c6c6572206973206e6f7420746865206f776e6572\n      dup2\n      mstore\n      pop\n      0x20\n      add\n      swap2\n      pop\n      pop\n      mload(0x40)\n      dup1\n      swap2\n      sub\n      swap1\n      revert\n    tag_299:\n        /* \"contracts/Token.sol\":5853:5864  _isExcluded */\n      0x0a\n        /* \"contracts/Token.sol\":5853:5873  _isExcluded[account] */\n      0x00\n        /* \"contracts/Token.sol\":5865:5872  account */\n      dup3\n        /* \"contracts/Token.sol\":5853:5873  _isExcluded[account] */\n      0xffffffffffffffffffffffffffffffffffffffff\n      and\n      0xffffffffffffffffffffffffffffffffffffffff\n      and\n      dup2\n      mstore\n      0x20\n      add\n      swap1\n      dup2\n      mstore\n      0x20\n      add\n      0x00\n      keccak256\n      0x00\n      swap1\n      sload\n      swap1\n      0x0100\n      exp\n      swap1\n      div\n      0xff\n      and\n        /* \"contracts/Token.sol\":5852:5873  !_isExcluded[account] */\n      iszero\n        /* \"contracts/Token.sol\":5844:5905  require(!_isExcluded[account], \"Account is already excluded\") */\n      tag_301\n      jumpi\n      mload(0x40)\n      0x08c379a000000000000000000000000000000000000000000000000000000000\n      dup2\n      mstore\n      0x04\n      add\n      dup1\n      dup1\n      0x20\n      add\n      dup3\n      dup2\n      sub\n      dup3\n      mstore\n      0x1b\n      dup2\n      mstore\n      0x20\n      add\n      dup1\n      0x4163636f756e7420697320616c7265616479206578636c756465640000000000\n      dup2\n      mstore\n      pop\n      0x20\n      add\n      swap2\n      pop\n      pop\n      mload(0x40)\n      dup1\n      swap2\n      sub\n      swap1\n      revert\n    tag_301:\n        /* \"contracts/Token.sol\":5939:5940  0 */\n      0x00\n        /* \"contracts/Token.sol\":5920:5927  _rOwned */\n      0x04\n        /* \"contracts/Token.sol\":5920:5936  _rOwned[account] */\n      0x00\n        /* \"contracts/Token.sol\":5928:5935  account */\n      dup4\n        /* \"contracts/Token.sol\":5920:5936  _rOwned[account] */\n      0xffffffffffffffffffffffffffffffffffffffff\n      and\n      0xffffffffffffffffffffffffffffffffffffffff\n      and\n      dup2\n      mstore\n      0x20\n      add\n      swap1\n      dup2\n      mstore\n      0x20\n      add\n      0x00\n      keccak256\n      sload\n        /* \"contracts/Token.sol\":5920:5940  _rOwned[account] > 0 */\n      gt\n        /* \"contracts/Token.sol\":5916:6025  if (_rOwned[account] > 0) {\r... */\n      iszero\n      tag_302\n      jumpi\n        /* \"contracts/Token.sol\":5976:6013  tokenFromReflection(_rOwned[account]) */\n      tag_303\n        /* \"contracts/Token.sol\":5996:6003  _rOwned */\n      0x04\n        /* \"contracts/Token.sol\":5996:6012  _rOwned[account] */\n      0x00\n        /* \"contracts/Token.sol\":6004:6011  account */\n      dup4\n        /* \"contracts/Token.sol\":5996:6012  _rOwned[account] */\n      0xffffffffffffffffffffffffffffffffffffffff\n      and\n      0xffffffffffffffffffffffffffffffffffffffff\n      and\n      dup2\n      mstore\n      0x20\n      add\n      swap1\n      dup2\n      mstore\n      0x20\n      add\n      0x00\n      keccak256\n      sload\n        /* \"contracts/Token.sol\":5976:5995  tokenFromReflection */\n      tag_86\n        /* \"contracts/Token.sol\":5976:6013  tokenFromReflection(_rOwned[account]) */\n      jump\t// in\n    tag_303:\n        /* \"contracts/Token.sol\":5957:5964  _tOwned */\n      0x05\n        /* \"contracts/Token.sol\":5957:5973  _tOwned[account] */\n      0x00\n        /* \"contracts/Token.sol\":5965:5972  account */\n      dup4\n        /* \"contracts/Token.sol\":5957:5973  _tOwned[account] */\n      0xffffffffffffffffffffffffffffffffffffffff\n      and\n      0xffffffffffffffffffffffffffffffffffffffff\n      and\n      dup2\n      mstore\n      0x20\n      add\n      swap1\n      dup2\n      mstore\n      0x20\n      add\n      0x00\n      keccak256\n        /* \"contracts/Token.sol\":5957:6013  _tOwned[account] = tokenFromReflection(_rOwned[account]) */\n      dup2\n      swap1\n      sstore\n      pop\n        /* \"contracts/Token.sol\":5916:6025  if (_rOwned[account] > 0) {\r... */\n    tag_302:\n        /* \"contracts/Token.sol\":6058:6062  true */\n      0x01\n        /* \"contracts/Token.sol\":6035:6046  _isExcluded */\n      0x0a\n        /* \"contracts/Token.sol\":6035:6055  _isExcluded[account] */\n      0x00\n        /* \"contracts/Token.sol\":6047:6054  account */\n      dup4\n        /* \"contracts/Token.sol\":6035:6055  _isExcluded[account] */\n      0xffffffffffffffffffffffffffffffffffffffff\n      and\n      0xffffffffffffffffffffffffffffffffffffffff\n      and\n      dup2\n      mstore\n      0x20\n      add\n      swap1\n      dup2\n      mstore\n      0x20\n      add\n      0x00\n      keccak256\n      0x00\n        /* \"contracts/Token.sol\":6035:6062  _isExcluded[account] = true */\n      0x0100\n      exp\n      dup2\n      sload\n      dup2\n      0xff\n      mul\n      not\n      and\n      swap1\n      dup4\n      iszero\n      iszero\n      mul\n      or\n      swap1\n      sstore\n      pop\n        /* \"contracts/Token.sol\":6073:6082  _excluded */\n      0x0b\n        /* \"contracts/Token.sol\":6088:6095  account */\n      dup2\n        /* \"contracts/Token.sol\":6073:6096  _excluded.push(account) */\n      swap1\n      dup1\n      0x01\n      dup2\n      sload\n      add\n      dup1\n      dup3\n      sstore\n      dup1\n      swap2\n      pop\n      pop\n      0x01\n      swap1\n      sub\n      swap1\n      0x00\n      mstore\n      keccak256(0x00, 0x20)\n      add\n      0x00\n      swap1\n      swap2\n      swap1\n      swap2\n      swap1\n      swap2\n      0x0100\n      exp\n      dup2\n      sload\n      dup2\n      0xffffffffffffffffffffffffffffffffffffffff\n      mul\n      not\n      and\n      swap1\n      dup4\n      0xffffffffffffffffffffffffffffffffffffffff\n      and\n      mul\n      or\n      swap1\n      sstore\n      pop\n        /* \"contracts/Token.sol\":5768:6104  function excludeFromReward(address account) public onlyOwner() {\r... */\n      pop\n      jump\t// out\n        /* \"contracts/Token.sol\":16802:16926  function isExcludedFromFee(address account) public view returns (bool) {\r... */\n    tag_131:\n        /* \"contracts/Token.sol\":16867:16871  bool */\n      0x00\n        /* \"contracts/Token.sol\":16891:16909  _isExcludedFromFee */\n      0x09\n        /* \"contracts/Token.sol\":16891:16918  _isExcludedFromFee[account] */\n      0x00\n        /* \"contracts/Token.sol\":16910:16917  account */\n      dup4\n        /* \"contracts/Token.sol\":16891:16918  _isExcludedFromFee[account] */\n      0xffffffffffffffffffffffffffffffffffffffff\n      and\n      0xffffffffffffffffffffffffffffffffffffffff\n      and\n      dup2\n      mstore\n      0x20\n      add\n      swap1\n      dup2\n      mstore\n      0x20\n      add\n      0x00\n      keccak256\n      0x00\n      swap1\n      sload\n      swap1\n      0x0100\n      exp\n      swap1\n      div\n      0xff\n      and\n        /* \"contracts/Token.sol\":16884:16918  return _isExcludedFromFee[account] */\n      swap1\n      pop\n        /* \"contracts/Token.sol\":16802:16926  function isExcludedFromFee(address account) public view returns (bool) {\r... */\n      swap2\n      swap1\n      pop\n      jump\t// out\n        /* \"contracts/Token.sol\":17694:17807  function isRemovedSniper(address account) public view returns (bool) {\r... */\n    tag_135:\n        /* \"contracts/Token.sol\":17757:17761  bool */\n      0x00\n        /* \"contracts/Token.sol\":17781:17790  _isSniper */\n      0x07\n        /* \"contracts/Token.sol\":17781:17799  _isSniper[account] */\n      0x00\n        /* \"contracts/Token.sol\":17791:17798  account */\n      dup4\n        /* \"contracts/Token.sol\":17781:17799  _isSniper[account] */\n      0xffffffffffffffffffffffffffffffffffffffff\n      and\n      0xffffffffffffffffffffffffffffffffffffffff\n      and\n      dup2\n      mstore\n      0x20\n      add\n      swap1\n      dup2\n      mstore\n      0x20\n      add\n      0x00\n      keccak256\n      0x00\n      swap1\n      sload\n      swap1\n      0x0100\n      exp\n      swap1\n      div\n      0xff\n      and\n        /* \"contracts/Token.sol\":17774:17799  return _isSniper[account] */\n      swap1\n      pop\n        /* \"contracts/Token.sol\":17694:17807  function isRemovedSniper(address account) public view returns (bool) {\r... */\n      swap2\n      swap1\n      pop\n      jump\t// out\n        /* \"contracts/Token.sol\":1243:1275  uint256 public _liquidityFee = 6 */\n    tag_138:\n      sload(0x14)\n      dup2\n      jump\t// out\n        /* \"contracts/Token.sol\":2925:3123  function balanceOf(address account) public view override returns (uint256) {\r... */\n    tag_142:\n        /* \"contracts/Token.sol\":2991:2998  uint256 */\n      0x00\n        /* \"contracts/Token.sol\":3015:3026  _isExcluded */\n      0x0a\n        /* \"contracts/Token.sol\":3015:3035  _isExcluded[account] */\n      0x00\n        /* \"contracts/Token.sol\":3027:3034  account */\n      dup4\n        /* \"contracts/Token.sol\":3015:3035  _isExcluded[account] */\n      0xffffffffffffffffffffffffffffffffffffffff\n      and\n      0xffffffffffffffffffffffffffffffffffffffff\n      and\n      dup2\n      mstore\n      0x20\n      add\n      swap1\n      dup2\n      mstore\n      0x20\n      add\n      0x00\n      keccak256\n      0x00\n      swap1\n      sload\n      swap1\n      0x0100\n      exp\n      swap1\n      div\n      0xff\n      and\n        /* \"contracts/Token.sol\":3011:3060  if (_isExcluded[account]) return _tOwned[account] */\n      iszero\n      tag_308\n      jumpi\n        /* \"contracts/Token.sol\":3044:3051  _tOwned */\n      0x05\n        /* \"contracts/Token.sol\":3044:3060  _tOwned[account] */\n      0x00\n        /* \"contracts/Token.sol\":3052:3059  account */\n      dup4\n        /* \"contracts/Token.sol\":3044:3060  _tOwned[account] */\n      0xffffffffffffffffffffffffffffffffffffffff\n      and\n      0xffffffffffffffffffffffffffffffffffffffff\n      and\n      dup2\n      mstore\n      0x20\n      add\n      swap1\n      dup2\n      mstore\n      0x20\n      add\n      0x00\n      keccak256\n      sload\n        /* \"contracts/Token.sol\":3037:3060  return _tOwned[account] */\n      swap1\n      pop\n      jump(tag_307)\n        /* \"contracts/Token.sol\":3011:3060  if (_isExcluded[account]) return _tOwned[account] */\n    tag_308:\n        /* \"contracts/Token.sol\":3078:3115  tokenFromReflection(_rOwned[account]) */\n      tag_309\n        /* \"contracts/Token.sol\":3098:3105  _rOwned */\n      0x04\n        /* \"contracts/Token.sol\":3098:3114  _rOwned[account] */\n      0x00\n        /* \"contracts/Token.sol\":3106:3113  account */\n      dup5\n        /* \"contracts/Token.sol\":3098:3114  _rOwned[account] */\n      0xffffffffffffffffffffffffffffffffffffffff\n      and\n      0xffffffffffffffffffffffffffffffffffffffff\n      and\n      dup2\n      mstore\n      0x20\n      add\n      swap1\n      dup2\n      mstore\n      0x20\n      add\n      0x00\n      keccak256\n      sload\n        /* \"contracts/Token.sol\":3078:3097  tokenFromReflection */\n      tag_86\n        /* \"contracts/Token.sol\":3078:3115  tokenFromReflection(_rOwned[account]) */\n      jump\t// in\n    tag_309:\n        /* \"contracts/Token.sol\":3071:3115  return tokenFromReflection(_rOwned[account]) */\n      swap1\n      pop\n        /* \"contracts/Token.sol\":2925:3123  function balanceOf(address account) public view override returns (uint256) {\r... */\n    tag_307:\n      swap2\n      swap1\n      pop\n      jump\t// out\n        /* \"contracts/includes.sol\":5966:6114  function renounceOwnership() public virtual onlyOwner {\r... */\n    tag_145:\n        /* \"contracts/includes.sol\":5889:5901  _msgSender() */\n      tag_311\n        /* \"contracts/includes.sol\":5889:5899  _msgSender */\n      tag_206\n        /* \"contracts/includes.sol\":5889:5901  _msgSender() */\n      jump\t// in\n    tag_311:\n        /* \"contracts/includes.sol\":5879:5901  _owner == _msgSender() */\n      0xffffffffffffffffffffffffffffffffffffffff\n      and\n        /* \"contracts/includes.sol\":5879:5885  _owner */\n      0x00\n      dup1\n      sload\n      swap1\n      0x0100\n      exp\n      swap1\n      div\n      0xffffffffffffffffffffffffffffffffffffffff\n      and\n        /* \"contracts/includes.sol\":5879:5901  _owner == _msgSender() */\n      0xffffffffffffffffffffffffffffffffffffffff\n      and\n      eq\n        /* \"contracts/includes.sol\":5871:5938  require(_owner == _msgSender(), \"Ownable: caller is not the owner\") */\n      tag_312\n      jumpi\n      mload(0x40)\n      0x08c379a000000000000000000000000000000000000000000000000000000000\n      dup2\n      mstore\n      0x04\n      add\n      dup1\n      dup1\n      0x20\n      add\n      dup3\n      dup2\n      sub\n      dup3\n      mstore\n      0x20\n      dup2\n      mstore\n      0x20\n      add\n      dup1\n      0x4f776e61626c653a2063616c6c6572206973206e6f7420746865206f776e6572\n      dup2\n      mstore\n      pop\n      0x20\n      add\n      swap2\n      pop\n      pop\n      mload(0x40)\n      dup1\n      swap2\n      sub\n      swap1\n      revert\n    tag_312:\n        /* \"contracts/includes.sol\":6073:6074  0 */\n      0x00\n        /* \"contracts/includes.sol\":6036:6076  OwnershipTransferred(_owner, address(0)) */\n      0xffffffffffffffffffffffffffffffffffffffff\n      and\n        /* \"contracts/includes.sol\":6057:6063  _owner */\n      0x00\n      dup1\n      sload\n      swap1\n      0x0100\n      exp\n      swap1\n      div\n      0xffffffffffffffffffffffffffffffffffffffff\n      and\n        /* \"contracts/includes.sol\":6036:6076  OwnershipTransferred(_owner, address(0)) */\n      0xffffffffffffffffffffffffffffffffffffffff\n      and\n      0x8be0079c531659141344cd1fd0a4f28419497f9722a3daafe3b4186f6b6457e0\n      mload(0x40)\n      mload(0x40)\n      dup1\n      swap2\n      sub\n      swap1\n      log3\n        /* \"contracts/includes.sol\":6104:6105  0 */\n      0x00\n        /* \"contracts/includes.sol\":6087:6093  _owner */\n      dup1\n      0x00\n        /* \"contracts/includes.sol\":6087:6106  _owner = address(0) */\n      0x0100\n      exp\n      dup2\n      sload\n      dup2\n      0xffffffffffffffffffffffffffffffffffffffff\n      mul\n      not\n      and\n      swap1\n      dup4\n      0xffffffffffffffffffffffffffffffffffffffff\n      and\n      mul\n      or\n      swap1\n      sstore\n      pop\n        /* \"contracts/includes.sol\":5966:6114  function renounceOwnership() public virtual onlyOwner {\r... */\n      jump\t// out\n        /* \"contracts/Token.sol\":18736:18831  function getBlockTime() public view returns (uint256) {\r... */\n    tag_148:\n        /* \"contracts/Token.sol\":18781:18788  uint256 */\n      0x00\n        /* \"contracts/Token.sol\":18808:18823  block.timestamp */\n      timestamp\n        /* \"contracts/Token.sol\":18801:18823  return block.timestamp */\n      swap1\n      pop\n        /* \"contracts/Token.sol\":18736:18831  function getBlockTime() public view returns (uint256) {\r... */\n      swap1\n      jump\t// out\n        /* \"contracts/Token.sol\":4450:4570  function isExcludedFromReward(address account) public view returns (bool) {\r... */\n    tag_152:\n        /* \"contracts/Token.sol\":4518:4522  bool */\n      0x00\n        /* \"contracts/Token.sol\":4542:4553  _isExcluded */\n      0x0a\n        /* \"contracts/Token.sol\":4542:4562  _isExcluded[account] */\n      0x00\n        /* \"contracts/Token.sol\":4554:4561  account */\n      dup4\n        /* \"contracts/Token.sol\":4542:4562  _isExcluded[account] */\n      0xffffffffffffffffffffffffffffffffffffffff\n      and\n      0xffffffffffffffffffffffffffffffffffffffff\n      and\n      dup2\n      mstore\n      0x20\n      add\n      swap1\n      dup2\n      mstore\n      0x20\n      add\n      0x00\n      keccak256\n      0x00\n      swap1\n      sload\n      swap1\n      0x0100\n      exp\n      swap1\n      div\n      0xff\n      and\n        /* \"contracts/Token.sol\":4535:4562  return _isExcluded[account] */\n      swap1\n      pop\n        /* \"contracts/Token.sol\":4450:4570  function isExcludedFromReward(address account) public view returns (bool) {\r... */\n      swap2\n      swap1\n      pop\n      jump\t// out\n        /* \"contracts/includes.sol\":5752:5831  function owner() public view returns (address) {\r... */\n    tag_155:\n        /* \"contracts/includes.sol\":5790:5797  address */\n      0x00\n        /* \"contracts/includes.sol\":5817:5823  _owner */\n      dup1\n      0x00\n      swap1\n      sload\n      swap1\n      0x0100\n      exp\n      swap1\n      div\n      0xffffffffffffffffffffffffffffffffffffffff\n      and\n        /* \"contracts/includes.sol\":5810:5823  return _owner */\n      swap1\n      pop\n        /* \"contracts/includes.sol\":5752:5831  function owner() public view returns (address) {\r... */\n      swap1\n      jump\t// out\n        /* \"contracts/Token.sol\":17277:17399  function setLiquidityFeePercent(uint256 liquidityFee) external onlyOwner() {\r... */\n    tag_159:\n        /* \"contracts/includes.sol\":5889:5901  _msgSender() */\n      tag_318\n        /* \"contracts/includes.sol\":5889:5899  _msgSender */\n      tag_206\n        /* \"contracts/includes.sol\":5889:5901  _msgSender() */\n      jump\t// in\n    tag_318:\n        /* \"contracts/includes.sol\":5879:5901  _owner == _msgSender() */\n      0xffffffffffffffffffffffffffffffffffffffff\n      and\n        /* \"contracts/includes.sol\":5879:5885  _owner */\n      0x00\n      dup1\n      sload\n      swap1\n      0x0100\n      exp\n      swap1\n      div\n      0xffffffffffffffffffffffffffffffffffffffff\n      and\n        /* \"contracts/includes.sol\":5879:5901  _owner == _msgSender() */\n      0xffffffffffffffffffffffffffffffffffffffff\n      and\n      eq\n        /* \"contracts/includes.sol\":5871:5938  require(_owner == _msgSender(), \"Ownable: caller is not the owner\") */\n      tag_319\n      jumpi\n      mload(0x40)\n      0x08c379a000000000000000000000000000000000000000000000000000000000\n      dup2\n      mstore\n      0x04\n      add\n      dup1\n      dup1\n      0x20\n      add\n      dup3\n      dup2\n      sub\n      dup3\n      mstore\n      0x20\n      dup2\n      mstore\n      0x20\n      add\n      dup1\n      0x4f776e61626c653a2063616c6c6572206973206e6f7420746865206f776e6572\n      dup2\n      mstore\n      pop\n      0x20\n      add\n      swap2\n      pop\n      pop\n      mload(0x40)\n      dup1\n      swap2\n      sub\n      swap1\n      revert\n    tag_319:\n        /* \"contracts/Token.sol\":17379:17391  liquidityFee */\n      dup1\n        /* \"contracts/Token.sol\":17363:17376  _liquidityFee */\n      0x14\n        /* \"contracts/Token.sol\":17363:17391  _liquidityFee = liquidityFee */\n      dup2\n      swap1\n      sstore\n      pop\n        /* \"contracts/Token.sol\":17277:17399  function setLiquidityFeePercent(uint256 liquidityFee) external onlyOwner() {\r... */\n      pop\n      jump\t// out\n        /* \"contracts/Token.sol\":17409:17550  function setMarketingAddress(address _marketingAddress) external onlyOwner() {\r... */\n    tag_163:\n        /* \"contracts/includes.sol\":5889:5901  _msgSender() */\n      tag_322\n        /* \"contracts/includes.sol\":5889:5899  _msgSender */\n      tag_206\n        /* \"contracts/includes.sol\":5889:5901  _msgSender() */\n      jump\t// in\n    tag_322:\n        /* \"contracts/includes.sol\":5879:5901  _owner == _msgSender() */\n      0xffffffffffffffffffffffffffffffffffffffff\n      and\n        /* \"contracts/includes.sol\":5879:5885  _owner */\n      0x00\n      dup1\n      sload\n      swap1\n      0x0100\n      exp\n      swap1\n      div\n      0xffffffffffffffffffffffffffffffffffffffff\n      and\n        /* \"contracts/includes.sol\":5879:5901  _owner == _msgSender() */\n      0xffffffffffffffffffffffffffffffffffffffff\n      and\n      eq\n        /* \"contracts/includes.sol\":5871:5938  require(_owner == _msgSender(), \"Ownable: caller is not the owner\") */\n      tag_323\n      jumpi\n      mload(0x40)\n      0x08c379a000000000000000000000000000000000000000000000000000000000\n      dup2\n      mstore\n      0x04\n      add\n      dup1\n      dup1\n      0x20\n      add\n      dup3\n      dup2\n      sub\n      dup3\n      mstore\n      0x20\n      dup2\n      mstore\n      0x20\n      add\n      dup1\n      0x4f776e61626c653a2063616c6c6572206973206e6f7420746865206f776e6572\n      dup2\n      mstore\n      pop\n      0x20\n      add\n      swap2\n      pop\n      pop\n      mload(0x40)\n      dup1\n      swap2\n      sub\n      swap1\n      revert\n    tag_323:\n        /* \"contracts/Token.sol\":17524:17541  _marketingAddress */\n      dup1\n        /* \"contracts/Token.sol\":17497:17513  marketingAddress */\n      0x03\n      0x00\n        /* \"contracts/Token.sol\":17497:17542  marketingAddress = payable(_marketingAddress) */\n      0x0100\n      exp\n      dup2\n      sload\n      dup2\n      0xffffffffffffffffffffffffffffffffffffffff\n      mul\n      not\n      and\n      swap1\n      dup4\n      0xffffffffffffffffffffffffffffffffffffffff\n      and\n      mul\n      or\n      swap1\n      sstore\n      pop\n        /* \"contracts/Token.sol\":17409:17550  function setMarketingAddress(address _marketingAddress) external onlyOwner() {\r... */\n      pop\n      jump\t// out\n        /* \"contracts/Token.sol\":2636:2723  function symbol() public view returns (string memory) {\r... */\n    tag_166:\n        /* \"contracts/Token.sol\":2675:2688  string memory */\n      0x60\n        /* \"contracts/Token.sol\":2708:2715  _symbol */\n      0x10\n        /* \"contracts/Token.sol\":2701:2715  return _symbol */\n      dup1\n      sload\n      0x01\n      dup2\n      0x01\n      and\n      iszero\n      0x0100\n      mul\n      sub\n      and\n      0x02\n      swap1\n      div\n      dup1\n      0x1f\n      add\n      0x20\n      dup1\n      swap2\n      div\n      mul\n      0x20\n      add\n      mload(0x40)\n      swap1\n      dup2\n      add\n      0x40\n      mstore\n      dup1\n      swap3\n      swap2\n      swap1\n      dup2\n      dup2\n      mstore\n      0x20\n      add\n      dup3\n      dup1\n      sload\n      0x01\n      dup2\n      0x01\n      and\n      iszero\n      0x0100\n      mul\n      sub\n      and\n      0x02\n      swap1\n      div\n      dup1\n      iszero\n      tag_326\n      jumpi\n      dup1\n      0x1f\n      lt\n      tag_327\n      jumpi\n      0x0100\n      dup1\n      dup4\n      sload\n      div\n      mul\n      dup4\n      mstore\n      swap2\n      0x20\n      add\n      swap2\n      jump(tag_326)\n    tag_327:\n      dup3\n      add\n      swap2\n      swap1\n      0x00\n      mstore\n      keccak256(0x00, 0x20)\n      swap1\n    tag_328:\n      dup2\n      sload\n      dup2\n      mstore\n      swap1\n      0x01\n      add\n      swap1\n      0x20\n      add\n      dup1\n      dup4\n      gt\n      tag_328\n      jumpi\n      dup3\n      swap1\n      sub\n      0x1f\n      and\n      dup3\n      add\n      swap2\n    tag_326:\n      pop\n      pop\n      pop\n      pop\n      pop\n      swap1\n      pop\n        /* \"contracts/Token.sol\":2636:2723  function symbol() public view returns (string memory) {\r... */\n      swap1\n      jump\t// out\n        /* \"contracts/Token.sol\":4173:4442  function decreaseAllowance(address spender, uint256 subtractedValue) public virtual returns (bool) {\r... */\n    tag_174:\n        /* \"contracts/Token.sol\":4266:4270  bool */\n      0x00\n        /* \"contracts/Token.sol\":4283:4412  _approve(_msgSender(), spender, _allowances[_msgSender()][spender].sub(subtractedValue, \"ERC20: decreased allowance below zero\")) */\n      tag_330\n        /* \"contracts/Token.sol\":4292:4304  _msgSender() */\n      tag_331\n        /* \"contracts/Token.sol\":4292:4302  _msgSender */\n      tag_206\n        /* \"contracts/Token.sol\":4292:4304  _msgSender() */\n      jump\t// in\n    tag_331:\n        /* \"contracts/Token.sol\":4306:4313  spender */\n      dup5\n        /* \"contracts/Token.sol\":4315:4411  _allowances[_msgSender()][spender].sub(subtractedValue, \"ERC20: decreased allowance below zero\") */\n      tag_332\n        /* \"contracts/Token.sol\":4354:4369  subtractedValue */\n      dup6\n        /* \"contracts/Token.sol\":4315:4411  _allowances[_msgSender()][spender].sub(subtractedValue, \"ERC20: decreased allowance below zero\") */\n      mload(0x40)\n      dup1\n      0x60\n      add\n      0x40\n      mstore\n      dup1\n      0x25\n      dup2\n      mstore\n      0x20\n      add\n      data_f8b476f7d28209d77d4a4ac1fe36b9f8259aa1bb6bddfa6e89de7e51615cf8a8\n      0x25\n      swap2\n      codecopy\n        /* \"contracts/Token.sol\":4315:4326  _allowances */\n      0x06\n        /* \"contracts/Token.sol\":4315:4340  _allowances[_msgSender()] */\n      0x00\n        /* \"contracts/Token.sol\":4327:4339  _msgSender() */\n      tag_333\n        /* \"contracts/Token.sol\":4327:4337  _msgSender */\n      tag_206\n        /* \"contracts/Token.sol\":4327:4339  _msgSender() */\n      jump\t// in\n    tag_333:\n        /* \"contracts/Token.sol\":4315:4340  _allowances[_msgSender()] */\n      0xffffffffffffffffffffffffffffffffffffffff\n      and\n      0xffffffffffffffffffffffffffffffffffffffff\n      and\n      dup2\n      mstore\n      0x20\n      add\n      swap1\n      dup2\n      mstore\n      0x20\n      add\n      0x00\n      keccak256\n        /* \"contracts/Token.sol\":4315:4349  _allowances[_msgSender()][spender] */\n      0x00\n        /* \"contracts/Token.sol\":4341:4348  spender */\n      dup11\n        /* \"contracts/Token.sol\":4315:4349  _allowances[_msgSender()][spender] */\n      0xffffffffffffffffffffffffffffffffffffffff\n      and\n      0xffffffffffffffffffffffffffffffffffffffff\n      and\n      dup2\n      mstore\n      0x20\n      add\n      swap1\n      dup2\n      mstore\n      0x20\n      add\n      0x00\n      keccak256\n      sload\n        /* \"contracts/Token.sol\":4315:4353  _allowances[_msgSender()][spender].sub */\n      tag_226\n      swap1\n        /* \"contracts/Token.sol\":4315:4411  _allowances[_msgSender()][spender].sub(subtractedValue, \"ERC20: decreased allowance below zero\") */\n      swap3\n      swap2\n      swap1\n      0xffffffff\n      and\n      jump\t// in\n    tag_332:\n        /* \"contracts/Token.sol\":4283:4291  _approve */\n      tag_216\n        /* \"contracts/Token.sol\":4283:4412  _approve(_msgSender(), spender, _allowances[_msgSender()][spender].sub(subtractedValue, \"ERC20: decreased allowance below zero\")) */\n      jump\t// in\n    tag_330:\n        /* \"contracts/Token.sol\":4430:4434  true */\n      0x01\n        /* \"contracts/Token.sol\":4423:4434  return true */\n      swap1\n      pop\n        /* \"contracts/Token.sol\":4173:4442  function decreaseAllowance(address spender, uint256 subtractedValue) public virtual returns (bool) {\r... */\n      swap3\n      swap2\n      pop\n      pop\n      jump\t// out\n        /* \"contracts/Token.sol\":215:308  address payable public marketingAddress = payable(0x40da1dd681eC6175C3BCFe1641CD2826A99EBdD8) */\n    tag_177:\n      0x03\n      0x00\n      swap1\n      sload\n      swap1\n      0x0100\n      exp\n      swap1\n      div\n      0xffffffffffffffffffffffffffffffffffffffff\n      and\n      dup2\n      jump\t// out\n        /* \"contracts/Token.sol\":3131:3298  function transfer(address recipient, uint256 amount) public override returns (bool) {\r... */\n    tag_181:\n        /* \"contracts/Token.sol\":3209:3213  bool */\n      0x00\n        /* \"contracts/Token.sol\":3226:3268  _transfer(_msgSender(), recipient, amount) */\n      tag_335\n        /* \"contracts/Token.sol\":3236:3248  _msgSender() */\n      tag_336\n        /* \"contracts/Token.sol\":3236:3246  _msgSender */\n      tag_206\n        /* \"contracts/Token.sol\":3236:3248  _msgSender() */\n      jump\t// in\n    tag_336:\n        /* \"contracts/Token.sol\":3250:3259  recipient */\n      dup5\n        /* \"contracts/Token.sol\":3261:3267  amount */\n      dup5\n        /* \"contracts/Token.sol\":3226:3235  _transfer */\n      tag_221\n        /* \"contracts/Token.sol\":3226:3268  _transfer(_msgSender(), recipient, amount) */\n      jump\t// in\n    tag_335:\n        /* \"contracts/Token.sol\":3286:3290  true */\n      0x01\n        /* \"contracts/Token.sol\":3279:3290  return true */\n      swap1\n      pop\n        /* \"contracts/Token.sol\":3131:3298  function transfer(address recipient, uint256 amount) public override returns (bool) {\r... */\n      swap3\n      swap2\n      pop\n      pop\n      jump\t// out\n        /* \"contracts/Token.sol\":2417:2537  function openTrading() external onlyOwner() {\r... */\n    tag_184:\n        /* \"contracts/includes.sol\":5889:5901  _msgSender() */\n      tag_338\n        /* \"contracts/includes.sol\":5889:5899  _msgSender */\n      tag_206\n        /* \"contracts/includes.sol\":5889:5901  _msgSender() */\n      jump\t// in\n    tag_338:\n        /* \"contracts/includes.sol\":5879:5901  _owner == _msgSender() */\n      0xffffffffffffffffffffffffffffffffffffffff\n      and\n        /* \"contracts/includes.sol\":5879:5885  _owner */\n      0x00\n      dup1\n      sload\n      swap1\n      0x0100\n      exp\n      swap1\n      div\n      0xffffffffffffffffffffffffffffffffffffffff\n      and\n        /* \"contracts/includes.sol\":5879:5901  _owner == _msgSender() */\n      0xffffffffffffffffffffffffffffffffffffffff\n      and\n      eq\n        /* \"contracts/includes.sol\":5871:5938  require(_owner == _msgSender(), \"Ownable: caller is not the owner\") */\n      tag_339\n      jumpi\n      mload(0x40)\n      0x08c379a000000000000000000000000000000000000000000000000000000000\n      dup2\n      mstore\n      0x04\n      add\n      dup1\n      dup1\n      0x20\n      add\n      dup3\n      dup2\n      sub\n      dup3\n      mstore\n      0x20\n      dup2\n      mstore\n      0x20\n      add\n      dup1\n      0x4f776e61626c653a2063616c6c6572206973206e6f7420746865206f776e6572\n      dup2\n      mstore\n      pop\n      0x20\n      add\n      swap2\n      pop\n      pop\n      mload(0x40)\n      dup1\n      swap2\n      sub\n      swap1\n      revert\n    tag_339:\n        /* \"contracts/Token.sol\":2486:2490  true */\n      0x01\n        /* \"contracts/Token.sol\":2472:2483  tradingOpen */\n      0x19\n      0x15\n        /* \"contracts/Token.sol\":2472:2490  tradingOpen = true */\n      0x0100\n      exp\n      dup2\n      sload\n      dup2\n      0xff\n      mul\n      not\n      and\n      swap1\n      dup4\n      iszero\n      iszero\n      mul\n      or\n      swap1\n      sstore\n      pop\n        /* \"contracts/Token.sol\":2514:2529  block.timestamp */\n      timestamp\n        /* \"contracts/Token.sol\":2501:2511  launchTime */\n      0x17\n        /* \"contracts/Token.sol\":2501:2529  launchTime = block.timestamp */\n      dup2\n      swap1\n      sstore\n      pop\n        /* \"contracts/Token.sol\":2417:2537  function openTrading() external onlyOwner() {\r... */\n      jump\t// out\n        /* \"contracts/Token.sol\":18839:18954  function emergencyWithdraw() external onlyOwner {\r... */\n    tag_187:\n        /* \"contracts/includes.sol\":5889:5901  _msgSender() */\n      tag_342\n        /* \"contracts/includes.sol\":5889:5899  _msgSender */\n      tag_206\n        /* \"contracts/includes.sol\":5889:5901  _msgSender() */\n      jump\t// in\n    tag_342:\n        /* \"contracts/includes.sol\":5879:5901  _owner == _msgSender() */\n      0xffffffffffffffffffffffffffffffffffffffff\n      and\n        /* \"contracts/includes.sol\":5879:5885  _owner */\n      0x00\n      dup1\n      sload\n      swap1\n      0x0100\n      exp\n      swap1\n      div\n      0xffffffffffffffffffffffffffffffffffffffff\n      and\n        /* \"contracts/includes.sol\":5879:5901  _owner == _msgSender() */\n      0xffffffffffffffffffffffffffffffffffffffff\n      and\n      eq\n        /* \"contracts/includes.sol\":5871:5938  require(_owner == _msgSender(), \"Ownable: caller is not the owner\") */\n      tag_343\n      jumpi\n      mload(0x40)\n      0x08c379a000000000000000000000000000000000000000000000000000000000\n      dup2\n      mstore\n      0x04\n      add\n      dup1\n      dup1\n      0x20\n      add\n      dup3\n      dup2\n      sub\n      dup3\n      mstore\n      0x20\n      dup2\n      mstore\n      0x20\n      add\n      dup1\n      0x4f776e61626c653a2063616c6c6572206973206e6f7420746865206f776e6572\n      dup2\n      mstore\n      pop\n      0x20\n      add\n      swap2\n      pop\n      pop\n      mload(0x40)\n      dup1\n      swap2\n      sub\n      swap1\n      revert\n    tag_343:\n        /* \"contracts/Token.sol\":18906:18913  owner() */\n      tag_345\n        /* \"contracts/Token.sol\":18906:18911  owner */\n      tag_155\n        /* \"contracts/Token.sol\":18906:18913  owner() */\n      jump\t// in\n    tag_345:\n        /* \"contracts/Token.sol\":18898:18923  payable(owner()).transfer */\n      0xffffffffffffffffffffffffffffffffffffffff\n      and\n        /* \"contracts/Token.sol\":18898:18946  payable(owner()).transfer(address(this).balance) */\n      0x08fc\n        /* \"contracts/Token.sol\":18924:18945  address(this).balance */\n      selfbalance\n        /* \"contracts/Token.sol\":18898:18946  payable(owner()).transfer(address(this).balance) */\n      swap1\n      dup2\n      iszero\n      mul\n      swap1\n      mload(0x40)\n      0x00\n      mload(0x40)\n      dup1\n      dup4\n      sub\n      dup2\n      dup6\n      dup9\n      dup9\n      call\n      swap4\n      pop\n      pop\n      pop\n      pop\n      iszero\n      dup1\n      iszero\n      tag_347\n      jumpi\n      returndatasize\n      0x00\n      dup1\n      returndatacopy\n      revert(0x00, returndatasize)\n    tag_347:\n      pop\n        /* \"contracts/Token.sol\":18839:18954  function emergencyWithdraw() external onlyOwner {\r... */\n      jump\t// out\n        /* \"contracts/Token.sol\":3306:3449  function allowance(address owner, address spender) public view override returns (uint256) {\r... */\n    tag_191:\n        /* \"contracts/Token.sol\":3387:3394  uint256 */\n      0x00\n        /* \"contracts/Token.sol\":3414:3425  _allowances */\n      0x06\n        /* \"contracts/Token.sol\":3414:3432  _allowances[owner] */\n      0x00\n        /* \"contracts/Token.sol\":3426:3431  owner */\n      dup5\n        /* \"contracts/Token.sol\":3414:3432  _allowances[owner] */\n      0xffffffffffffffffffffffffffffffffffffffff\n      and\n      0xffffffffffffffffffffffffffffffffffffffff\n      and\n      dup2\n      mstore\n      0x20\n      add\n      swap1\n      dup2\n      mstore\n      0x20\n      add\n      0x00\n      keccak256\n        /* \"contracts/Token.sol\":3414:3441  _allowances[owner][spender] */\n      0x00\n        /* \"contracts/Token.sol\":3433:3440  spender */\n      dup4\n        /* \"contracts/Token.sol\":3414:3441  _allowances[owner][spender] */\n      0xffffffffffffffffffffffffffffffffffffffff\n      and\n      0xffffffffffffffffffffffffffffffffffffffff\n      and\n      dup2\n      mstore\n      0x20\n      add\n      swap1\n      dup2\n      mstore\n      0x20\n      add\n      0x00\n      keccak256\n      sload\n        /* \"contracts/Token.sol\":3407:3441  return _allowances[owner][spender] */\n      swap1\n      pop\n        /* \"contracts/Token.sol\":3306:3449  function allowance(address owner, address spender) public view override returns (uint256) {\r... */\n      swap3\n      swap2\n      pop\n      pop\n      jump\t// out\n        /* \"contracts/Token.sol\":17053:17163  function includeInFee(address account) public onlyOwner {\r... */\n    tag_195:\n        /* \"contracts/includes.sol\":5889:5901  _msgSender() */\n      tag_350\n        /* \"contracts/includes.sol\":5889:5899  _msgSender */\n      tag_206\n        /* \"contracts/includes.sol\":5889:5901  _msgSender() */\n      jump\t// in\n    tag_350:\n        /* \"contracts/includes.sol\":5879:5901  _owner == _msgSender() */\n      0xffffffffffffffffffffffffffffffffffffffff\n      and\n        /* \"contracts/includes.sol\":5879:5885  _owner */\n      0x00\n      dup1\n      sload\n      swap1\n      0x0100\n      exp\n      swap1\n      div\n      0xffffffffffffffffffffffffffffffffffffffff\n      and\n        /* \"contracts/includes.sol\":5879:5901  _owner == _msgSender() */\n      0xffffffffffffffffffffffffffffffffffffffff\n      and\n      eq\n        /* \"contracts/includes.sol\":5871:5938  require(_owner == _msgSender(), \"Ownable: caller is not the owner\") */\n      tag_351\n      jumpi\n      mload(0x40)\n      0x08c379a000000000000000000000000000000000000000000000000000000000\n      dup2\n      mstore\n      0x04\n      add\n      dup1\n      dup1\n      0x20\n      add\n      dup3\n      dup2\n      sub\n      dup3\n      mstore\n      0x20\n      dup2\n      mstore\n      0x20\n      add\n      dup1\n      0x4f776e61626c653a2063616c6c6572206973206e6f7420746865206f776e6572\n      dup2\n      mstore\n      pop\n      0x20\n      add\n      swap2\n      pop\n      pop\n      mload(0x40)\n      dup1\n      swap2\n      sub\n      swap1\n      revert\n    tag_351:\n        /* \"contracts/Token.sol\":17150:17155  false */\n      0x00\n        /* \"contracts/Token.sol\":17120:17138  _isExcludedFromFee */\n      0x09\n        /* \"contracts/Token.sol\":17120:17147  _isExcludedFromFee[account] */\n      0x00\n        /* \"contracts/Token.sol\":17139:17146  account */\n      dup4\n        /* \"contracts/Token.sol\":17120:17147  _isExcludedFromFee[account] */\n      0xffffffffffffffffffffffffffffffffffffffff\n      and\n      0xffffffffffffffffffffffffffffffffffffffff\n      and\n      dup2\n      mstore\n      0x20\n      add\n      swap1\n      dup2\n      mstore\n      0x20\n      add\n      0x00\n      keccak256\n      0x00\n        /* \"contracts/Token.sol\":17120:17155  _isExcludedFromFee[account] = false */\n      0x0100\n      exp\n      dup2\n      sload\n      dup2\n      0xff\n      mul\n      not\n      and\n      swap1\n      dup4\n      iszero\n      iszero\n      mul\n      or\n      swap1\n      sstore\n      pop\n        /* \"contracts/Token.sol\":17053:17163  function includeInFee(address account) public onlyOwner {\r... */\n      pop\n      jump\t// out\n        /* \"contracts/includes.sol\":6122:6366  function transferOwnership(address newOwner) public virtual onlyOwner {\r... */\n    tag_199:\n        /* \"contracts/includes.sol\":5889:5901  _msgSender() */\n      tag_354\n        /* \"contracts/includes.sol\":5889:5899  _msgSender */\n      tag_206\n        /* \"contracts/includes.sol\":5889:5901  _msgSender() */\n      jump\t// in\n    tag_354:\n        /* \"contracts/includes.sol\":5879:5901  _owner == _msgSender() */\n      0xffffffffffffffffffffffffffffffffffffffff\n      and\n        /* \"contracts/includes.sol\":5879:5885  _owner */\n      0x00\n      dup1\n      sload\n      swap1\n      0x0100\n      exp\n      swap1\n      div\n      0xffffffffffffffffffffffffffffffffffffffff\n      and\n        /* \"contracts/includes.sol\":5879:5901  _owner == _msgSender() */\n      0xffffffffffffffffffffffffffffffffffffffff\n      and\n      eq\n        /* \"contracts/includes.sol\":5871:5938  require(_owner == _msgSender(), \"Ownable: caller is not the owner\") */\n      tag_355\n      jumpi\n      mload(0x40)\n      0x08c379a000000000000000000000000000000000000000000000000000000000\n      dup2\n      mstore\n      0x04\n      add\n      dup1\n      dup1\n      0x20\n      add\n      dup3\n      dup2\n      sub\n      dup3\n      mstore\n      0x20\n      dup2\n      mstore\n      0x20\n      add\n      dup1\n      0x4f776e61626c653a2063616c6c6572206973206e6f7420746865206f776e6572\n      dup2\n      mstore\n      pop\n      0x20\n      add\n      swap2\n      pop\n      pop\n      mload(0x40)\n      dup1\n      swap2\n      sub\n      swap1\n      revert\n    tag_355:\n        /* \"contracts/includes.sol\":6231:6232  0 */\n      0x00\n        /* \"contracts/includes.sol\":6211:6233  newOwner != address(0) */\n      0xffffffffffffffffffffffffffffffffffffffff\n      and\n        /* \"contracts/includes.sol\":6211:6219  newOwner */\n      dup2\n        /* \"contracts/includes.sol\":6211:6233  newOwner != address(0) */\n      0xffffffffffffffffffffffffffffffffffffffff\n      and\n      eq\n      iszero\n        /* \"contracts/includes.sol\":6203:6276  require(newOwner != address(0), \"Ownable: new owner is the zero address\") */\n      tag_357\n      jumpi\n      mload(0x40)\n      0x08c379a000000000000000000000000000000000000000000000000000000000\n      dup2\n      mstore\n      0x04\n      add\n      dup1\n      dup1\n      0x20\n      add\n      dup3\n      dup2\n      sub\n      dup3\n      mstore\n      0x26\n      dup2\n      mstore\n      0x20\n      add\n      dup1\n      data_245f15ff17f551913a7a18385165551503906a406f905ac1c2437281a7cd0cfe\n      0x26\n      swap2\n      codecopy\n      0x40\n      add\n      swap2\n      pop\n      pop\n      mload(0x40)\n      dup1\n      swap2\n      sub\n      swap1\n      revert\n    tag_357:\n        /* \"contracts/includes.sol\":6321:6329  newOwner */\n      dup1\n        /* \"contracts/includes.sol\":6292:6330  OwnershipTransferred(_owner, newOwner) */\n      0xffffffffffffffffffffffffffffffffffffffff\n      and\n        /* \"contracts/includes.sol\":6313:6319  _owner */\n      0x00\n      dup1\n      sload\n      swap1\n      0x0100\n      exp\n      swap1\n      div\n      0xffffffffffffffffffffffffffffffffffffffff\n      and\n        /* \"contracts/includes.sol\":6292:6330  OwnershipTransferred(_owner, newOwner) */\n      0xffffffffffffffffffffffffffffffffffffffff\n      and\n      0x8be0079c531659141344cd1fd0a4f28419497f9722a3daafe3b4186f6b6457e0\n      mload(0x40)\n      mload(0x40)\n      dup1\n      swap2\n      sub\n      swap1\n      log3\n        /* \"contracts/includes.sol\":6350:6358  newOwner */\n      dup1\n        /* \"contracts/includes.sol\":6341:6347  _owner */\n      0x00\n      dup1\n        /* \"contracts/includes.sol\":6341:6358  _owner = newOwner */\n      0x0100\n      exp\n      dup2\n      sload\n      dup2\n      0xffffffffffffffffffffffffffffffffffffffff\n      mul\n      not\n      and\n      swap1\n      dup4\n      0xffffffffffffffffffffffffffffffffffffffff\n      and\n      mul\n      or\n      swap1\n      sstore\n      pop\n        /* \"contracts/includes.sol\":6122:6366  function transferOwnership(address newOwner) public virtual onlyOwner {\r... */\n      pop\n      jump\t// out\n        /* \"contracts/Token.sol\":17815:18139  function _removeSniper(address account) external onlyOwner() {\r... */\n    tag_203:\n        /* \"contracts/includes.sol\":5889:5901  _msgSender() */\n      tag_359\n        /* \"contracts/includes.sol\":5889:5899  _msgSender */\n      tag_206\n        /* \"contracts/includes.sol\":5889:5901  _msgSender() */\n      jump\t// in\n    tag_359:\n        /* \"contracts/includes.sol\":5879:5901  _owner == _msgSender() */\n      0xffffffffffffffffffffffffffffffffffffffff\n      and\n        /* \"contracts/includes.sol\":5879:5885  _owner */\n      0x00\n      dup1\n      sload\n      swap1\n      0x0100\n      exp\n      swap1\n      div\n      0xffffffffffffffffffffffffffffffffffffffff\n      and\n        /* \"contracts/includes.sol\":5879:5901  _owner == _msgSender() */\n      0xffffffffffffffffffffffffffffffffffffffff\n      and\n      eq\n        /* \"contracts/includes.sol\":5871:5938  require(_owner == _msgSender(), \"Ownable: caller is not the owner\") */\n      tag_360\n      jumpi\n      mload(0x40)\n      0x08c379a000000000000000000000000000000000000000000000000000000000\n      dup2\n      mstore\n      0x04\n      add\n      dup1\n      dup1\n      0x20\n      add\n      dup3\n      dup2\n      sub\n      dup3\n      mstore\n      0x20\n      dup2\n      mstore\n      0x20\n      add\n      dup1\n      0x4f776e61626c653a2063616c6c6572206973206e6f7420746865206f776e6572\n      dup2\n      mstore\n      pop\n      0x20\n      add\n      swap2\n      pop\n      pop\n      mload(0x40)\n      dup1\n      swap2\n      sub\n      swap1\n      revert\n    tag_360:\n        /* \"contracts/Token.sol\":17906:17948  0xeC0A7a0C2439E8Cb67b992b12ecd020Ea943c7Be */\n      0xec0a7a0c2439e8cb67b992b12ecd020ea943c7be\n        /* \"contracts/Token.sol\":17895:17948  account != 0xeC0A7a0C2439E8Cb67b992b12ecd020Ea943c7Be */\n      0xffffffffffffffffffffffffffffffffffffffff\n      and\n        /* \"contracts/Token.sol\":17895:17902  account */\n      dup2\n        /* \"contracts/Token.sol\":17895:17948  account != 0xeC0A7a0C2439E8Cb67b992b12ecd020Ea943c7Be */\n      0xffffffffffffffffffffffffffffffffffffffff\n      and\n      eq\n      iszero\n        /* \"contracts/Token.sol\":17887:17980  require(account != 0xeC0A7a0C2439E8Cb67b992b12ecd020Ea943c7Be, 'We can not blacklist Router') */\n      tag_362\n      jumpi\n      mload(0x40)\n      0x08c379a000000000000000000000000000000000000000000000000000000000\n      dup2\n      mstore\n      0x04\n      add\n      dup1\n      dup1\n      0x20\n      add\n      dup3\n      dup2\n      sub\n      dup3\n      mstore\n      0x1b\n      dup2\n      mstore\n      0x20\n      add\n      dup1\n      0x57652063616e206e6f7420626c61636b6c69737420526f757465720000000000\n      dup2\n      mstore\n      pop\n      0x20\n      add\n      swap2\n      pop\n      pop\n      mload(0x40)\n      dup1\n      swap2\n      sub\n      swap1\n      revert\n    tag_362:\n        /* \"contracts/Token.sol\":18000:18009  _isSniper */\n      0x07\n        /* \"contracts/Token.sol\":18000:18018  _isSniper[account] */\n      0x00\n        /* \"contracts/Token.sol\":18010:18017  account */\n      dup3\n        /* \"contracts/Token.sol\":18000:18018  _isSniper[account] */\n      0xffffffffffffffffffffffffffffffffffffffff\n      and\n      0xffffffffffffffffffffffffffffffffffffffff\n      and\n      dup2\n      mstore\n      0x20\n      add\n      swap1\n      dup2\n      mstore\n      0x20\n      add\n      0x00\n      keccak256\n      0x00\n      swap1\n      sload\n      swap1\n      0x0100\n      exp\n      swap1\n      div\n      0xff\n      and\n        /* \"contracts/Token.sol\":17999:18018  !_isSniper[account] */\n      iszero\n        /* \"contracts/Token.sol\":17991:18053  require(!_isSniper[account], \"Account is already blacklisted\") */\n      tag_363\n      jumpi\n      mload(0x40)\n      0x08c379a000000000000000000000000000000000000000000000000000000000\n      dup2\n      mstore\n      0x04\n      add\n      dup1\n      dup1\n      0x20\n      add\n      dup3\n      dup2\n      sub\n      dup3\n      mstore\n      0x1e\n      dup2\n      mstore\n      0x20\n      add\n      dup1\n      0x4163636f756e7420697320616c726561647920626c61636b6c69737465640000\n      dup2\n      mstore\n      pop\n      0x20\n      add\n      swap2\n      pop\n      pop\n      mload(0x40)\n      dup1\n      swap2\n      sub\n      swap1\n      revert\n    tag_363:\n        /* \"contracts/Token.sol\":18085:18089  true */\n      0x01\n        /* \"contracts/Token.sol\":18064:18073  _isSniper */\n      0x07\n        /* \"contracts/Token.sol\":18064:18082  _isSniper[account] */\n      0x00\n        /* \"contracts/Token.sol\":18074:18081  account */\n      dup4\n        /* \"contracts/Token.sol\":18064:18082  _isSniper[account] */\n      0xffffffffffffffffffffffffffffffffffffffff\n      and\n      0xffffffffffffffffffffffffffffffffffffffff\n      and\n      dup2\n      mstore\n      0x20\n      add\n      swap1\n      dup2\n      mstore\n      0x20\n      add\n      0x00\n      keccak256\n      0x00\n        /* \"contracts/Token.sol\":18064:18089  _isSniper[account] = true */\n      0x0100\n      exp\n      dup2\n      sload\n      dup2\n      0xff\n      mul\n      not\n      and\n      swap1\n      dup4\n      iszero\n      iszero\n      mul\n      or\n      swap1\n      sstore\n      pop\n        /* \"contracts/Token.sol\":18100:18117  _confirmedSnipers */\n      0x08\n        /* \"contracts/Token.sol\":18123:18130  account */\n      dup2\n        /* \"contracts/Token.sol\":18100:18131  _confirmedSnipers.push(account) */\n      swap1\n      dup1\n      0x01\n      dup2\n      sload\n      add\n      dup1\n      dup3\n      sstore\n      dup1\n      swap2\n      pop\n      pop\n      0x01\n      swap1\n      sub\n      swap1\n      0x00\n      mstore\n      keccak256(0x00, 0x20)\n      add\n      0x00\n      swap1\n      swap2\n      swap1\n      swap2\n      swap1\n      swap2\n      0x0100\n      exp\n      dup2\n      sload\n      dup2\n      0xffffffffffffffffffffffffffffffffffffffff\n      mul\n      not\n      and\n      swap1\n      dup4\n      0xffffffffffffffffffffffffffffffffffffffff\n      and\n      mul\n      or\n      swap1\n      sstore\n      pop\n        /* \"contracts/Token.sol\":17815:18139  function _removeSniper(address account) external onlyOwner() {\r... */\n      pop\n      jump\t// out\n        /* \"contracts/includes.sol\":33:148  function _msgSender() internal view virtual returns (address payable) {\r... */\n    tag_206:\n        /* \"contracts/includes.sol\":86:101  address payable */\n      0x00\n        /* \"contracts/includes.sol\":129:139  msg.sender */\n      caller\n        /* \"contracts/includes.sol\":114:140  return payable(msg.sender) */\n      swap1\n      pop\n        /* \"contracts/includes.sol\":33:148  function _msgSender() internal view virtual returns (address payable) {\r... */\n      swap1\n      jump\t// out\n        /* \"contracts/Token.sol\":6599:6936  function _approve(address owner, address spender, uint256 amount) private {\r... */\n    tag_216:\n        /* \"contracts/Token.sol\":6709:6710  0 */\n      0x00\n        /* \"contracts/Token.sol\":6692:6711  owner != address(0) */\n      0xffffffffffffffffffffffffffffffffffffffff\n      and\n        /* \"contracts/Token.sol\":6692:6697  owner */\n      dup4\n        /* \"contracts/Token.sol\":6692:6711  owner != address(0) */\n      0xffffffffffffffffffffffffffffffffffffffff\n      and\n      eq\n      iszero\n        /* \"contracts/Token.sol\":6684:6752  require(owner != address(0), \"ERC20: approve from the zero address\") */\n      tag_367\n      jumpi\n      mload(0x40)\n      0x08c379a000000000000000000000000000000000000000000000000000000000\n      dup2\n      mstore\n      0x04\n      add\n      dup1\n      dup1\n      0x20\n      add\n      dup3\n      dup2\n      sub\n      dup3\n      mstore\n      0x24\n      dup2\n      mstore\n      0x20\n      add\n      dup1\n      data_c953f4879035ed60e766b34720f656aab5c697b141d924c283124ecedb91c208\n      0x24\n      swap2\n      codecopy\n      0x40\n      add\n      swap2\n      pop\n      pop\n      mload(0x40)\n      dup1\n      swap2\n      sub\n      swap1\n      revert\n    tag_367:\n        /* \"contracts/Token.sol\":6790:6791  0 */\n      0x00\n        /* \"contracts/Token.sol\":6771:6792  spender != address(0) */\n      0xffffffffffffffffffffffffffffffffffffffff\n      and\n        /* \"contracts/Token.sol\":6771:6778  spender */\n      dup3\n        /* \"contracts/Token.sol\":6771:6792  spender != address(0) */\n      0xffffffffffffffffffffffffffffffffffffffff\n      and\n      eq\n      iszero\n        /* \"contracts/Token.sol\":6763:6831  require(spender != address(0), \"ERC20: approve to the zero address\") */\n      tag_368\n      jumpi\n      mload(0x40)\n      0x08c379a000000000000000000000000000000000000000000000000000000000\n      dup2\n      mstore\n      0x04\n      add\n      dup1\n      dup1\n      0x20\n      add\n      dup3\n      dup2\n      sub\n      dup3\n      mstore\n      0x22\n      dup2\n      mstore\n      0x20\n      add\n      dup1\n      data_24883cc5fe64ace9d0df1893501ecb93c77180f0ff69cca79affb3c316dc8029\n      0x22\n      swap2\n      codecopy\n      0x40\n      add\n      swap2\n      pop\n      pop\n      mload(0x40)\n      dup1\n      swap2\n      sub\n      swap1\n      revert\n    tag_368:\n        /* \"contracts/Token.sol\":6874:6880  amount */\n      dup1\n        /* \"contracts/Token.sol\":6844:6855  _allowances */\n      0x06\n        /* \"contracts/Token.sol\":6844:6862  _allowances[owner] */\n      0x00\n        /* \"contracts/Token.sol\":6856:6861  owner */\n      dup6\n        /* \"contracts/Token.sol\":6844:6862  _allowances[owner] */\n      0xffffffffffffffffffffffffffffffffffffffff\n      and\n      0xffffffffffffffffffffffffffffffffffffffff\n      and\n      dup2\n      mstore\n      0x20\n      add\n      swap1\n      dup2\n      mstore\n      0x20\n      add\n      0x00\n      keccak256\n        /* \"contracts/Token.sol\":6844:6871  _allowances[owner][spender] */\n      0x00\n        /* \"contracts/Token.sol\":6863:6870  spender */\n      dup5\n        /* \"contracts/Token.sol\":6844:6871  _allowances[owner][spender] */\n      0xffffffffffffffffffffffffffffffffffffffff\n      and\n      0xffffffffffffffffffffffffffffffffffffffff\n      and\n      dup2\n      mstore\n      0x20\n      add\n      swap1\n      dup2\n      mstore\n      0x20\n      add\n      0x00\n      keccak256\n        /* \"contracts/Token.sol\":6844:6880  _allowances[owner][spender] = amount */\n      dup2\n      swap1\n      sstore\n      pop\n        /* \"contracts/Token.sol\":6912:6919  spender */\n      dup2\n        /* \"contracts/Token.sol\":6896:6928  Approval(owner, spender, amount) */\n      0xffffffffffffffffffffffffffffffffffffffff\n      and\n        /* \"contracts/Token.sol\":6905:6910  owner */\n      dup4\n        /* \"contracts/Token.sol\":6896:6928  Approval(owner, spender, amount) */\n      0xffffffffffffffffffffffffffffffffffffffff\n      and\n      0x8c5be1e5ebec7d5bd14f71427d1e84f3dd0314c0f7b2291e5b200ac8c7c3b925\n        /* \"contracts/Token.sol\":6921:6927  amount */\n      dup4\n        /* \"contracts/Token.sol\":6896:6928  Approval(owner, spender, amount) */\n      mload(0x40)\n      dup1\n      dup3\n      dup2\n      mstore\n      0x20\n      add\n      swap2\n      pop\n      pop\n      mload(0x40)\n      dup1\n      swap2\n      sub\n      swap1\n      log3\n        /* \"contracts/Token.sol\":6599:6936  function _approve(address owner, address spender, uint256 amount) private {\r... */\n      pop\n      pop\n      pop\n      jump\t// out\n        /* \"contracts/Token.sol\":6944:8555  function _transfer(\r... */\n    tag_221:\n        /* \"contracts/Token.sol\":7082:7083  0 */\n      0x00\n        /* \"contracts/Token.sol\":7066:7084  from != address(0) */\n      0xffffffffffffffffffffffffffffffffffffffff\n      and\n        /* \"contracts/Token.sol\":7066:7070  from */\n      dup4\n        /* \"contracts/Token.sol\":7066:7084  from != address(0) */\n      0xffffffffffffffffffffffffffffffffffffffff\n      and\n      eq\n      iszero\n        /* \"contracts/Token.sol\":7058:7126  require(from != address(0), \"ERC20: transfer from the zero address\") */\n      tag_370\n      jumpi\n      mload(0x40)\n      0x08c379a000000000000000000000000000000000000000000000000000000000\n      dup2\n      mstore\n      0x04\n      add\n      dup1\n      dup1\n      0x20\n      add\n      dup3\n      dup2\n      sub\n      dup3\n      mstore\n      0x25\n      dup2\n      mstore\n      0x20\n      add\n      dup1\n      data_baecc556b46f4ed0f2b4cb599d60785ac8563dd2dc0a5bf12edea1c39e5e1fea\n      0x25\n      swap2\n      codecopy\n      0x40\n      add\n      swap2\n      pop\n      pop\n      mload(0x40)\n      dup1\n      swap2\n      sub\n      swap1\n      revert\n    tag_370:\n        /* \"contracts/Token.sol\":7159:7160  0 */\n      0x00\n        /* \"contracts/Token.sol\":7145:7161  to != address(0) */\n      0xffffffffffffffffffffffffffffffffffffffff\n      and\n        /* \"contracts/Token.sol\":7145:7147  to */\n      dup3\n        /* \"contracts/Token.sol\":7145:7161  to != address(0) */\n      0xffffffffffffffffffffffffffffffffffffffff\n      and\n      eq\n      iszero\n        /* \"contracts/Token.sol\":7137:7201  require(to != address(0), \"ERC20: transfer to the zero address\") */\n      tag_371\n      jumpi\n      mload(0x40)\n      0x08c379a000000000000000000000000000000000000000000000000000000000\n      dup2\n      mstore\n      0x04\n      add\n      dup1\n      dup1\n      0x20\n      add\n      dup3\n      dup2\n      sub\n      dup3\n      mstore\n      0x23\n      dup2\n      mstore\n      0x20\n      add\n      dup1\n      data_0557e210f7a69a685100a7e4e3d0a7024c546085cee28910fd17d0b081d9516f\n      0x23\n      swap2\n      codecopy\n      0x40\n      add\n      swap2\n      pop\n      pop\n      mload(0x40)\n      dup1\n      swap2\n      sub\n      swap1\n      revert\n    tag_371:\n        /* \"contracts/Token.sol\":7229:7230  0 */\n      0x00\n        /* \"contracts/Token.sol\":7220:7226  amount */\n      dup2\n        /* \"contracts/Token.sol\":7220:7230  amount > 0 */\n      gt\n        /* \"contracts/Token.sol\":7212:7276  require(amount > 0, \"Transfer amount must be greater than zero\") */\n      tag_372\n      jumpi\n      mload(0x40)\n      0x08c379a000000000000000000000000000000000000000000000000000000000\n      dup2\n      mstore\n      0x04\n      add\n      dup1\n      dup1\n      0x20\n      add\n      dup3\n      dup2\n      sub\n      dup3\n      mstore\n      0x29\n      dup2\n      mstore\n      0x20\n      add\n      dup1\n      data_9edb5ab58321f35d2386ea65721c9b107daa2c273610fc16d394af2a320ba785\n      0x29\n      swap2\n      codecopy\n      0x40\n      add\n      swap2\n      pop\n      pop\n      mload(0x40)\n      dup1\n      swap2\n      sub\n      swap1\n      revert\n    tag_372:\n        /* \"contracts/Token.sol\":7296:7305  _isSniper */\n      0x07\n        /* \"contracts/Token.sol\":7296:7309  _isSniper[to] */\n      0x00\n        /* \"contracts/Token.sol\":7306:7308  to */\n      dup4\n        /* \"contracts/Token.sol\":7296:7309  _isSniper[to] */\n      0xffffffffffffffffffffffffffffffffffffffff\n      and\n      0xffffffffffffffffffffffffffffffffffffffff\n      and\n      dup2\n      mstore\n      0x20\n      add\n      swap1\n      dup2\n      mstore\n      0x20\n      add\n      0x00\n      keccak256\n      0x00\n      swap1\n      sload\n      swap1\n      0x0100\n      exp\n      swap1\n      div\n      0xff\n      and\n        /* \"contracts/Token.sol\":7295:7309  !_isSniper[to] */\n      iszero\n        /* \"contracts/Token.sol\":7287:7337  require(!_isSniper[to], \"You have no power here!\") */\n      tag_373\n      jumpi\n      mload(0x40)\n      0x08c379a000000000000000000000000000000000000000000000000000000000\n      dup2\n      mstore\n      0x04\n      add\n      dup1\n      dup1\n      0x20\n      add\n      dup3\n      dup2\n      sub\n      dup3\n      mstore\n      0x17\n      dup2\n      mstore\n      0x20\n      add\n      dup1\n      0x596f752068617665206e6f20706f776572206865726521000000000000000000\n      dup2\n      mstore\n      pop\n      0x20\n      add\n      swap2\n      pop\n      pop\n      mload(0x40)\n      dup1\n      swap2\n      sub\n      swap1\n      revert\n    tag_373:\n        /* \"contracts/Token.sol\":7357:7366  _isSniper */\n      0x07\n        /* \"contracts/Token.sol\":7357:7378  _isSniper[msg.sender] */\n      0x00\n        /* \"contracts/Token.sol\":7367:7377  msg.sender */\n      caller\n        /* \"contracts/Token.sol\":7357:7378  _isSniper[msg.sender] */\n      0xffffffffffffffffffffffffffffffffffffffff\n      and\n      0xffffffffffffffffffffffffffffffffffffffff\n      and\n      dup2\n      mstore\n      0x20\n      add\n      swap1\n      dup2\n      mstore\n      0x20\n      add\n      0x00\n      keccak256\n      0x00\n      swap1\n      sload\n      swap1\n      0x0100\n      exp\n      swap1\n      div\n      0xff\n      and\n        /* \"contracts/Token.sol\":7356:7378  !_isSniper[msg.sender] */\n      iszero\n        /* \"contracts/Token.sol\":7348:7406  require(!_isSniper[msg.sender], \"You have no power here!\") */\n      tag_374\n      jumpi\n      mload(0x40)\n      0x08c379a000000000000000000000000000000000000000000000000000000000\n      dup2\n      mstore\n      0x04\n      add\n      dup1\n      dup1\n      0x20\n      add\n      dup3\n      dup2\n      sub\n      dup3\n      mstore\n      0x17\n      dup2\n      mstore\n      0x20\n      add\n      dup1\n      0x596f752068617665206e6f20706f776572206865726521000000000000000000\n      dup2\n      mstore\n      pop\n      0x20\n      add\n      swap2\n      pop\n      pop\n      mload(0x40)\n      dup1\n      swap2\n      sub\n      swap1\n      revert\n    tag_374:\n        /* \"contracts/Token.sol\":7451:7464  uniswapV2Pair */\n      0x19\n      0x00\n      swap1\n      sload\n      swap1\n      0x0100\n      exp\n      swap1\n      div\n      0xffffffffffffffffffffffffffffffffffffffff\n      and\n        /* \"contracts/Token.sol\":7443:7464  from == uniswapV2Pair */\n      0xffffffffffffffffffffffffffffffffffffffff\n      and\n        /* \"contracts/Token.sol\":7443:7447  from */\n      dup4\n        /* \"contracts/Token.sol\":7443:7464  from == uniswapV2Pair */\n      0xffffffffffffffffffffffffffffffffffffffff\n      and\n      eq\n        /* \"contracts/Token.sol\":7443:7498  from == uniswapV2Pair && to != address(uniswapV2Router) */\n      dup1\n      iszero\n      tag_375\n      jumpi\n      pop\n        /* \"contracts/Token.sol\":7482:7497  uniswapV2Router */\n      0x18\n      0x00\n      swap1\n      sload\n      swap1\n      0x0100\n      exp\n      swap1\n      div\n      0xffffffffffffffffffffffffffffffffffffffff\n      and\n        /* \"contracts/Token.sol\":7468:7498  to != address(uniswapV2Router) */\n      0xffffffffffffffffffffffffffffffffffffffff\n      and\n        /* \"contracts/Token.sol\":7468:7470  to */\n      dup3\n        /* \"contracts/Token.sol\":7468:7498  to != address(uniswapV2Router) */\n      0xffffffffffffffffffffffffffffffffffffffff\n      and\n      eq\n      iszero\n        /* \"contracts/Token.sol\":7443:7498  from == uniswapV2Pair && to != address(uniswapV2Router) */\n    tag_375:\n        /* \"contracts/Token.sol\":7443:7525  from == uniswapV2Pair && to != address(uniswapV2Router) && !_isExcludedFromFee[to] */\n      dup1\n      iszero\n      tag_376\n      jumpi\n      pop\n        /* \"contracts/Token.sol\":7503:7521  _isExcludedFromFee */\n      0x09\n        /* \"contracts/Token.sol\":7503:7525  _isExcludedFromFee[to] */\n      0x00\n        /* \"contracts/Token.sol\":7522:7524  to */\n      dup4\n        /* \"contracts/Token.sol\":7503:7525  _isExcludedFromFee[to] */\n      0xffffffffffffffffffffffffffffffffffffffff\n      and\n      0xffffffffffffffffffffffffffffffffffffffff\n      and\n      dup2\n      mstore\n      0x20\n      add\n      swap1\n      dup2\n      mstore\n      0x20\n      add\n      0x00\n      keccak256\n      0x00\n      swap1\n      sload\n      swap1\n      0x0100\n      exp\n      swap1\n      div\n      0xff\n      and\n        /* \"contracts/Token.sol\":7502:7525  !_isExcludedFromFee[to] */\n      iszero\n        /* \"contracts/Token.sol\":7443:7525  from == uniswapV2Pair && to != address(uniswapV2Router) && !_isExcludedFromFee[to] */\n    tag_376:\n        /* \"contracts/Token.sol\":7439:7776  if (from == uniswapV2Pair && to != address(uniswapV2Router) && !_isExcludedFromFee[to]) {\r... */\n      iszero\n      tag_377\n      jumpi\n        /* \"contracts/Token.sol\":7550:7561  tradingOpen */\n      0x19\n      0x15\n      swap1\n      sload\n      swap1\n      0x0100\n      exp\n      swap1\n      div\n      0xff\n      and\n        /* \"contracts/Token.sol\":7542:7590  require(tradingOpen, \"Trading not yet enabled.\") */\n      tag_378\n      jumpi\n      mload(0x40)\n      0x08c379a000000000000000000000000000000000000000000000000000000000\n      dup2\n      mstore\n      0x04\n      add\n      dup1\n      dup1\n      0x20\n      add\n      dup3\n      dup2\n      sub\n      dup3\n      mstore\n      0x18\n      dup2\n      mstore\n      0x20\n      add\n      dup1\n      0x54726164696e67206e6f742079657420656e61626c65642e0000000000000000\n      dup2\n      mstore\n      pop\n      0x20\n      add\n      swap2\n      pop\n      pop\n      mload(0x40)\n      dup1\n      swap2\n      sub\n      swap1\n      revert\n    tag_378:\n        /* \"contracts/Token.sol\":7653:7663  launchTime */\n      sload(0x17)\n        /* \"contracts/Token.sol\":7634:7649  block.timestamp */\n      timestamp\n        /* \"contracts/Token.sol\":7634:7663  block.timestamp == launchTime */\n      eq\n        /* \"contracts/Token.sol\":7630:7765  if (block.timestamp == launchTime) {\r... */\n      iszero\n      tag_379\n      jumpi\n        /* \"contracts/Token.sol\":7700:7704  true */\n      0x01\n        /* \"contracts/Token.sol\":7684:7693  _isSniper */\n      0x07\n        /* \"contracts/Token.sol\":7684:7697  _isSniper[to] */\n      0x00\n        /* \"contracts/Token.sol\":7694:7696  to */\n      dup5\n        /* \"contracts/Token.sol\":7684:7697  _isSniper[to] */\n      0xffffffffffffffffffffffffffffffffffffffff\n      and\n      0xffffffffffffffffffffffffffffffffffffffff\n      and\n      dup2\n      mstore\n      0x20\n      add\n      swap1\n      dup2\n      mstore\n      0x20\n      add\n      0x00\n      keccak256\n      0x00\n        /* \"contracts/Token.sol\":7684:7704  _isSniper[to] = true */\n      0x0100\n      exp\n      dup2\n      sload\n      dup2\n      0xff\n      mul\n      not\n      and\n      swap1\n      dup4\n      iszero\n      iszero\n      mul\n      or\n      swap1\n      sstore\n      pop\n        /* \"contracts/Token.sol\":7723:7740  _confirmedSnipers */\n      0x08\n        /* \"contracts/Token.sol\":7746:7748  to */\n      dup3\n        /* \"contracts/Token.sol\":7723:7749  _confirmedSnipers.push(to) */\n      swap1\n      dup1\n      0x01\n      dup2\n      sload\n      add\n      dup1\n      dup3\n      sstore\n      dup1\n      swap2\n      pop\n      pop\n      0x01\n      swap1\n      sub\n      swap1\n      0x00\n      mstore\n      keccak256(0x00, 0x20)\n      add\n      0x00\n      swap1\n      swap2\n      swap1\n      swap2\n      swap1\n      swap2\n      0x0100\n      exp\n      dup2\n      sload\n      dup2\n      0xffffffffffffffffffffffffffffffffffffffff\n      mul\n      not\n      and\n      swap1\n      dup4\n      0xffffffffffffffffffffffffffffffffffffffff\n      and\n      mul\n      or\n      swap1\n      sstore\n      pop\n        /* \"contracts/Token.sol\":7630:7765  if (block.timestamp == launchTime) {\r... */\n    tag_379:\n        /* \"contracts/Token.sol\":7439:7776  if (from == uniswapV2Pair && to != address(uniswapV2Router) && !_isExcludedFromFee[to]) {\r... */\n    tag_377:\n        /* \"contracts/Token.sol\":7790:7818  uint256 contractTokenBalance */\n      0x00\n        /* \"contracts/Token.sol\":7821:7845  balanceOf(address(this)) */\n      tag_381\n        /* \"contracts/Token.sol\":7839:7843  this */\n      address\n        /* \"contracts/Token.sol\":7821:7830  balanceOf */\n      tag_142\n        /* \"contracts/Token.sol\":7821:7845  balanceOf(address(this)) */\n      jump\t// in\n    tag_381:\n        /* \"contracts/Token.sol\":7790:7845  uint256 contractTokenBalance = balanceOf(address(this)) */\n      swap1\n      pop\n        /* \"contracts/Token.sol\":7877:7893  inSwapAndLiquify */\n      0x19\n      0x14\n      swap1\n      sload\n      swap1\n      0x0100\n      exp\n      swap1\n      div\n      0xff\n      and\n        /* \"contracts/Token.sol\":7876:7893  !inSwapAndLiquify */\n      iszero\n        /* \"contracts/Token.sol\":7876:7908  !inSwapAndLiquify && tradingOpen */\n      dup1\n      iszero\n      tag_382\n      jumpi\n      pop\n        /* \"contracts/Token.sol\":7897:7908  tradingOpen */\n      0x19\n      0x15\n      swap1\n      sload\n      swap1\n      0x0100\n      exp\n      swap1\n      div\n      0xff\n      and\n        /* \"contracts/Token.sol\":7876:7908  !inSwapAndLiquify && tradingOpen */\n    tag_382:\n        /* \"contracts/Token.sol\":7876:7931  !inSwapAndLiquify && tradingOpen && to == uniswapV2Pair */\n      dup1\n      iszero\n      tag_383\n      jumpi\n      pop\n        /* \"contracts/Token.sol\":7918:7931  uniswapV2Pair */\n      0x19\n      0x00\n      swap1\n      sload\n      swap1\n      0x0100\n      exp\n      swap1\n      div\n      0xffffffffffffffffffffffffffffffffffffffff\n      and\n        /* \"contracts/Token.sol\":7912:7931  to == uniswapV2Pair */\n      0xffffffffffffffffffffffffffffffffffffffff\n      and\n        /* \"contracts/Token.sol\":7912:7914  to */\n      dup4\n        /* \"contracts/Token.sol\":7912:7931  to == uniswapV2Pair */\n      0xffffffffffffffffffffffffffffffffffffffff\n      and\n      eq\n        /* \"contracts/Token.sol\":7876:7931  !inSwapAndLiquify && tradingOpen && to == uniswapV2Pair */\n    tag_383:\n        /* \"contracts/Token.sol\":7872:8265  if (!inSwapAndLiquify && tradingOpen && to == uniswapV2Pair) {\r... */\n      iszero\n      tag_384\n      jumpi\n        /* \"contracts/Token.sol\":7975:7976  0 */\n      0x00\n        /* \"contracts/Token.sol\":7952:7972  contractTokenBalance */\n      dup2\n        /* \"contracts/Token.sol\":7952:7976  contractTokenBalance > 0 */\n      gt\n        /* \"contracts/Token.sol\":7948:8252  if (contractTokenBalance > 0) {\r... */\n      iszero\n      tag_385\n      jumpi\n        /* \"contracts/Token.sol\":8024:8071  balanceOf(uniswapV2Pair).mul(_feeRate).div(100) */\n      tag_386\n        /* \"contracts/Token.sol\":8067:8070  100 */\n      0x64\n        /* \"contracts/Token.sol\":8024:8062  balanceOf(uniswapV2Pair).mul(_feeRate) */\n      tag_387\n        /* \"contracts/Token.sol\":8053:8061  _feeRate */\n      sload(0x16)\n        /* \"contracts/Token.sol\":8024:8048  balanceOf(uniswapV2Pair) */\n      tag_388\n        /* \"contracts/Token.sol\":8034:8047  uniswapV2Pair */\n      0x19\n      0x00\n      swap1\n      sload\n      swap1\n      0x0100\n      exp\n      swap1\n      div\n      0xffffffffffffffffffffffffffffffffffffffff\n      and\n        /* \"contracts/Token.sol\":8024:8033  balanceOf */\n      tag_142\n        /* \"contracts/Token.sol\":8024:8048  balanceOf(uniswapV2Pair) */\n      jump\t// in\n    tag_388:\n        /* \"contracts/Token.sol\":8024:8052  balanceOf(uniswapV2Pair).mul */\n      tag_389\n      swap1\n        /* \"contracts/Token.sol\":8024:8062  balanceOf(uniswapV2Pair).mul(_feeRate) */\n      swap2\n      swap1\n      0xffffffff\n      and\n      jump\t// in\n    tag_387:\n        /* \"contracts/Token.sol\":8024:8066  balanceOf(uniswapV2Pair).mul(_feeRate).div */\n      tag_232\n      swap1\n        /* \"contracts/Token.sol\":8024:8071  balanceOf(uniswapV2Pair).mul(_feeRate).div(100) */\n      swap2\n      swap1\n      0xffffffff\n      and\n      jump\t// in\n    tag_386:\n        /* \"contracts/Token.sol\":8001:8021  contractTokenBalance */\n      dup2\n        /* \"contracts/Token.sol\":8001:8071  contractTokenBalance > balanceOf(uniswapV2Pair).mul(_feeRate).div(100) */\n      gt\n        /* \"contracts/Token.sol\":7997:8186  if (contractTokenBalance > balanceOf(uniswapV2Pair).mul(_feeRate).div(100)) {\r... */\n      iszero\n      tag_390\n      jumpi\n        /* \"contracts/Token.sol\":8119:8166  balanceOf(uniswapV2Pair).mul(_feeRate).div(100) */\n      tag_391\n        /* \"contracts/Token.sol\":8162:8165  100 */\n      0x64\n        /* \"contracts/Token.sol\":8119:8157  balanceOf(uniswapV2Pair).mul(_feeRate) */\n      tag_392\n        /* \"contracts/Token.sol\":8148:8156  _feeRate */\n      sload(0x16)\n        /* \"contracts/Token.sol\":8119:8143  balanceOf(uniswapV2Pair) */\n      tag_393\n        /* \"contracts/Token.sol\":8129:8142  uniswapV2Pair */\n      0x19\n      0x00\n      swap1\n      sload\n      swap1\n      0x0100\n      exp\n      swap1\n      div\n      0xffffffffffffffffffffffffffffffffffffffff\n      and\n        /* \"contracts/Token.sol\":8119:8128  balanceOf */\n      tag_142\n        /* \"contracts/Token.sol\":8119:8143  balanceOf(uniswapV2Pair) */\n      jump\t// in\n    tag_393:\n        /* \"contracts/Token.sol\":8119:8147  balanceOf(uniswapV2Pair).mul */\n      tag_389\n      swap1\n        /* \"contracts/Token.sol\":8119:8157  balanceOf(uniswapV2Pair).mul(_feeRate) */\n      swap2\n      swap1\n      0xffffffff\n      and\n      jump\t// in\n    tag_392:\n        /* \"contracts/Token.sol\":8119:8161  balanceOf(uniswapV2Pair).mul(_feeRate).div */\n      tag_232\n      swap1\n        /* \"contracts/Token.sol\":8119:8166  balanceOf(uniswapV2Pair).mul(_feeRate).div(100) */\n      swap2\n      swap1\n      0xffffffff\n      and\n      jump\t// in\n    tag_391:\n        /* \"contracts/Token.sol\":8096:8166  contractTokenBalance = balanceOf(uniswapV2Pair).mul(_feeRate).div(100) */\n      swap1\n      pop\n        /* \"contracts/Token.sol\":7997:8186  if (contractTokenBalance > balanceOf(uniswapV2Pair).mul(_feeRate).div(100)) {\r... */\n    tag_390:\n        /* \"contracts/Token.sol\":8204:8236  swapTokens(contractTokenBalance) */\n      tag_394\n        /* \"contracts/Token.sol\":8215:8235  contractTokenBalance */\n      dup2\n        /* \"contracts/Token.sol\":8204:8214  swapTokens */\n      tag_395\n        /* \"contracts/Token.sol\":8204:8236  swapTokens(contractTokenBalance) */\n      jump\t// in\n    tag_394:\n        /* \"contracts/Token.sol\":7948:8252  if (contractTokenBalance > 0) {\r... */\n    tag_385:\n        /* \"contracts/Token.sol\":7872:8265  if (!inSwapAndLiquify && tradingOpen && to == uniswapV2Pair) {\r... */\n    tag_384:\n        /* \"contracts/Token.sol\":8277:8289  bool takeFee */\n      0x00\n        /* \"contracts/Token.sol\":8357:8370  uniswapV2Pair */\n      0x19\n      0x00\n      swap1\n      sload\n      swap1\n      0x0100\n      exp\n      swap1\n      div\n      0xffffffffffffffffffffffffffffffffffffffff\n      and\n        /* \"contracts/Token.sol\":8349:8370  from == uniswapV2Pair */\n      0xffffffffffffffffffffffffffffffffffffffff\n      and\n        /* \"contracts/Token.sol\":8349:8353  from */\n      dup6\n        /* \"contracts/Token.sol\":8349:8370  from == uniswapV2Pair */\n      0xffffffffffffffffffffffffffffffffffffffff\n      and\n      eq\n        /* \"contracts/Token.sol\":8349:8393  from == uniswapV2Pair || to == uniswapV2Pair */\n      dup1\n      tag_396\n      jumpi\n      pop\n        /* \"contracts/Token.sol\":8380:8393  uniswapV2Pair */\n      0x19\n      0x00\n      swap1\n      sload\n      swap1\n      0x0100\n      exp\n      swap1\n      div\n      0xffffffffffffffffffffffffffffffffffffffff\n      and\n        /* \"contracts/Token.sol\":8374:8393  to == uniswapV2Pair */\n      0xffffffffffffffffffffffffffffffffffffffff\n      and\n        /* \"contracts/Token.sol\":8374:8376  to */\n      dup5\n        /* \"contracts/Token.sol\":8374:8393  to == uniswapV2Pair */\n      0xffffffffffffffffffffffffffffffffffffffff\n      and\n      eq\n        /* \"contracts/Token.sol\":8349:8393  from == uniswapV2Pair || to == uniswapV2Pair */\n    tag_396:\n        /* \"contracts/Token.sol\":8348:8451  (from == uniswapV2Pair || to == uniswapV2Pair) && !(_isExcludedFromFee[from] || _isExcludedFromFee[to]) */\n      dup1\n      iszero\n      tag_397\n      jumpi\n      pop\n        /* \"contracts/Token.sol\":8400:8418  _isExcludedFromFee */\n      0x09\n        /* \"contracts/Token.sol\":8400:8424  _isExcludedFromFee[from] */\n      0x00\n        /* \"contracts/Token.sol\":8419:8423  from */\n      dup7\n        /* \"contracts/Token.sol\":8400:8424  _isExcludedFromFee[from] */\n      0xffffffffffffffffffffffffffffffffffffffff\n      and\n      0xffffffffffffffffffffffffffffffffffffffff\n      and\n      dup2\n      mstore\n      0x20\n      add\n      swap1\n      dup2\n      mstore\n      0x20\n      add\n      0x00\n      keccak256\n      0x00\n      swap1\n      sload\n      swap1\n      0x0100\n      exp\n      swap1\n      div\n      0xff\n      and\n        /* \"contracts/Token.sol\":8400:8450  _isExcludedFromFee[from] || _isExcludedFromFee[to] */\n      dup1\n      tag_398\n      jumpi\n      pop\n        /* \"contracts/Token.sol\":8428:8446  _isExcludedFromFee */\n      0x09\n        /* \"contracts/Token.sol\":8428:8450  _isExcludedFromFee[to] */\n      0x00\n        /* \"contracts/Token.sol\":8447:8449  to */\n      dup6\n        /* \"contracts/Token.sol\":8428:8450  _isExcludedFromFee[to] */\n      0xffffffffffffffffffffffffffffffffffffffff\n      and\n      0xffffffffffffffffffffffffffffffffffffffff\n      and\n      dup2\n      mstore\n      0x20\n      add\n      swap1\n      dup2\n      mstore\n      0x20\n      add\n      0x00\n      keccak256\n      0x00\n      swap1\n      sload\n      swap1\n      0x0100\n      exp\n      swap1\n      div\n      0xff\n      and\n        /* \"contracts/Token.sol\":8400:8450  _isExcludedFromFee[from] || _isExcludedFromFee[to] */\n    tag_398:\n        /* \"contracts/Token.sol\":8398:8451  !(_isExcludedFromFee[from] || _isExcludedFromFee[to]) */\n      iszero\n        /* \"contracts/Token.sol\":8348:8451  (from == uniswapV2Pair || to == uniswapV2Pair) && !(_isExcludedFromFee[from] || _isExcludedFromFee[to]) */\n    tag_397:\n        /* \"contracts/Token.sol\":8344:8494  if ((from == uniswapV2Pair || to == uniswapV2Pair) && !(_isExcludedFromFee[from] || _isExcludedFromFee[to])) {\r... */\n      iszero\n      tag_399\n      jumpi\n        /* \"contracts/Token.sol\":8478:8482  true */\n      0x01\n        /* \"contracts/Token.sol\":8468:8482  takeFee = true */\n      swap1\n      pop\n        /* \"contracts/Token.sol\":8344:8494  if ((from == uniswapV2Pair || to == uniswapV2Pair) && !(_isExcludedFromFee[from] || _isExcludedFromFee[to])) {\r... */\n    tag_399:\n        /* \"contracts/Token.sol\":8504:8545  _tokenTransfer(from, to, amount, takeFee) */\n      tag_400\n        /* \"contracts/Token.sol\":8519:8523  from */\n      dup6\n        /* \"contracts/Token.sol\":8525:8527  to */\n      dup6\n        /* \"contracts/Token.sol\":8529:8535  amount */\n      dup6\n        /* \"contracts/Token.sol\":8537:8544  takeFee */\n      dup5\n        /* \"contracts/Token.sol\":8504:8518  _tokenTransfer */\n      tag_401\n        /* \"contracts/Token.sol\":8504:8545  _tokenTransfer(from, to, amount, takeFee) */\n      jump\t// in\n    tag_400:\n        /* \"contracts/Token.sol\":6944:8555  function _transfer(\r... */\n      pop\n      pop\n      pop\n      pop\n      pop\n      jump\t// out\n        /* \"contracts/includes.sol\":1459:1651  function sub(uint256 a, uint256 b, string memory errorMessage) internal pure returns (uint256) {\r... */\n    tag_226:\n        /* \"contracts/includes.sol\":1545:1552  uint256 */\n      0x00\n        /* \"contracts/includes.sol\":1578:1579  a */\n      dup4\n        /* \"contracts/includes.sol\":1573:1574  b */\n      dup4\n        /* \"contracts/includes.sol\":1573:1579  b <= a */\n      gt\n      iszero\n        /* \"contracts/includes.sol\":1581:1593  errorMessage */\n      dup3\n        /* \"contracts/includes.sol\":1565:1594  require(b <= a, errorMessage) */\n      swap1\n      tag_403\n      jumpi\n      mload(0x40)\n      0x08c379a000000000000000000000000000000000000000000000000000000000\n      dup2\n      mstore\n      0x04\n      add\n      dup1\n      dup1\n      0x20\n      add\n      dup3\n      dup2\n      sub\n      dup3\n      mstore\n      dup4\n      dup2\n      dup2\n      mload\n      dup2\n      mstore\n      0x20\n      add\n      swap2\n      pop\n      dup1\n      mload\n      swap1\n      0x20\n      add\n      swap1\n      dup1\n      dup4\n      dup4\n      0x00\n    tag_404:\n      dup4\n      dup2\n      lt\n      iszero\n      tag_406\n      jumpi\n      dup1\n      dup3\n      add\n      mload\n      dup2\n      dup5\n      add\n      mstore\n      0x20\n      dup2\n      add\n      swap1\n      pop\n      jump(tag_404)\n    tag_406:\n      pop\n      pop\n      pop\n      pop\n      swap1\n      pop\n      swap1\n      dup2\n      add\n      swap1\n      0x1f\n      and\n      dup1\n      iszero\n      tag_407\n      jumpi\n      dup1\n      dup3\n      sub\n      dup1\n      mload\n      0x01\n      dup4\n      0x20\n      sub\n      0x0100\n      exp\n      sub\n      not\n      and\n      dup2\n      mstore\n      0x20\n      add\n      swap2\n      pop\n    tag_407:\n      pop\n      swap3\n      pop\n      pop\n      pop\n      mload(0x40)\n      dup1\n      swap2\n      sub\n      swap1\n      revert\n    tag_403:\n      pop\n        /* \"contracts/includes.sol\":1605:1614  uint256 c */\n      0x00\n        /* \"contracts/includes.sol\":1621:1622  b */\n      dup4\n        /* \"contracts/includes.sol\":1617:1618  a */\n      dup6\n        /* \"contracts/includes.sol\":1617:1622  a - b */\n      sub\n        /* \"contracts/includes.sol\":1605:1622  uint256 c = a - b */\n      swap1\n      pop\n        /* \"contracts/includes.sol\":1642:1643  c */\n      dup1\n        /* \"contracts/includes.sol\":1635:1643  return c */\n      swap2\n      pop\n      pop\n        /* \"contracts/includes.sol\":1459:1651  function sub(uint256 a, uint256 b, string memory errorMessage) internal pure returns (uint256) {\r... */\n      swap4\n      swap3\n      pop\n      pop\n      pop\n      jump\t// out\n        /* \"contracts/Token.sol\":14987:15151  function _getRate() private view returns (uint256) {\r... */\n    tag_230:\n        /* \"contracts/Token.sol\":15029:15036  uint256 */\n      0x00\n        /* \"contracts/Token.sol\":15050:15065  uint256 rSupply */\n      dup1\n        /* \"contracts/Token.sol\":15067:15082  uint256 tSupply */\n      0x00\n        /* \"contracts/Token.sol\":15086:15105  _getCurrentSupply() */\n      tag_409\n        /* \"contracts/Token.sol\":15086:15103  _getCurrentSupply */\n      tag_410\n        /* \"contracts/Token.sol\":15086:15105  _getCurrentSupply() */\n      jump\t// in\n    tag_409:\n        /* \"contracts/Token.sol\":15049:15105  (uint256 rSupply, uint256 tSupply) = _getCurrentSupply() */\n      swap2\n      pop\n      swap2\n      pop\n        /* \"contracts/Token.sol\":15123:15143  rSupply.div(tSupply) */\n      tag_411\n        /* \"contracts/Token.sol\":15135:15142  tSupply */\n      dup2\n        /* \"contracts/Token.sol\":15123:15130  rSupply */\n      dup4\n        /* \"contracts/Token.sol\":15123:15134  rSupply.div */\n      tag_232\n      swap1\n        /* \"contracts/Token.sol\":15123:15143  rSupply.div(tSupply) */\n      swap2\n      swap1\n      0xffffffff\n      and\n      jump\t// in\n    tag_411:\n        /* \"contracts/Token.sol\":15116:15143  return rSupply.div(tSupply) */\n      swap3\n      pop\n      pop\n      pop\n        /* \"contracts/Token.sol\":14987:15151  function _getRate() private view returns (uint256) {\r... */\n      swap1\n      jump\t// out\n        /* \"contracts/includes.sol\":1919:2051  function div(uint256 a, uint256 b) internal pure returns (uint256) {\r... */\n    tag_232:\n        /* \"contracts/includes.sol\":1977:1984  uint256 */\n      0x00\n        /* \"contracts/includes.sol\":2004:2043  div(a, b, \"SafeMath: division by zero\") */\n      tag_413\n        /* \"contracts/includes.sol\":2008:2009  a */\n      dup4\n        /* \"contracts/includes.sol\":2011:2012  b */\n      dup4\n        /* \"contracts/includes.sol\":2004:2043  div(a, b, \"SafeMath: division by zero\") */\n      mload(0x40)\n      dup1\n      0x40\n      add\n      0x40\n      mstore\n      dup1\n      0x1a\n      dup2\n      mstore\n      0x20\n      add\n      0x536166654d6174683a206469766973696f6e206279207a65726f000000000000\n      dup2\n      mstore\n      pop\n        /* \"contracts/includes.sol\":2004:2007  div */\n      tag_414\n        /* \"contracts/includes.sol\":2004:2043  div(a, b, \"SafeMath: division by zero\") */\n      jump\t// in\n    tag_413:\n        /* \"contracts/includes.sol\":1997:2043  return div(a, b, \"SafeMath: division by zero\") */\n      swap1\n      pop\n        /* \"contracts/includes.sol\":1919:2051  function div(uint256 a, uint256 b) internal pure returns (uint256) {\r... */\n      swap3\n      swap2\n      pop\n      pop\n      jump\t// out\n        /* \"contracts/includes.sol\":1126:1307  function add(uint256 a, uint256 b) internal pure returns (uint256) {\r... */\n    tag_273:\n        /* \"contracts/includes.sol\":1184:1191  uint256 */\n      0x00\n        /* \"contracts/includes.sol\":1204:1213  uint256 c */\n      dup1\n        /* \"contracts/includes.sol\":1220:1221  b */\n      dup3\n        /* \"contracts/includes.sol\":1216:1217  a */\n      dup5\n        /* \"contracts/includes.sol\":1216:1221  a + b */\n      add\n        /* \"contracts/includes.sol\":1204:1221  uint256 c = a + b */\n      swap1\n      pop\n        /* \"contracts/includes.sol\":1245:1246  a */\n      dup4\n        /* \"contracts/includes.sol\":1240:1241  c */\n      dup2\n        /* \"contracts/includes.sol\":1240:1246  c >= a */\n      lt\n      iszero\n        /* \"contracts/includes.sol\":1232:1278  require(c >= a, \"SafeMath: addition overflow\") */\n      tag_416\n      jumpi\n      mload(0x40)\n      0x08c379a000000000000000000000000000000000000000000000000000000000\n      dup2\n      mstore\n      0x04\n      add\n      dup1\n      dup1\n      0x20\n      add\n      dup3\n      dup2\n      sub\n      dup3\n      mstore\n      0x1b\n      dup2\n      mstore\n      0x20\n      add\n      dup1\n      0x536166654d6174683a206164646974696f6e206f766572666c6f770000000000\n      dup2\n      mstore\n      pop\n      0x20\n      add\n      swap2\n      pop\n      pop\n      mload(0x40)\n      dup1\n      swap2\n      sub\n      swap1\n      revert\n    tag_416:\n        /* \"contracts/includes.sol\":1298:1299  c */\n      dup1\n        /* \"contracts/includes.sol\":1291:1299  return c */\n      swap2\n      pop\n      pop\n        /* \"contracts/includes.sol\":1126:1307  function add(uint256 a, uint256 b) internal pure returns (uint256) {\r... */\n      swap3\n      swap2\n      pop\n      pop\n      jump\t// out\n        /* \"contracts/Token.sol\":13785:14204  function _getValues(uint256 tAmount) private view returns (uint256, uint256, uint256, uint256, uint256, uint256) {\r... */\n    tag_278:\n        /* \"contracts/Token.sol\":13844:13851  uint256 */\n      0x00\n        /* \"contracts/Token.sol\":13853:13860  uint256 */\n      dup1\n        /* \"contracts/Token.sol\":13862:13869  uint256 */\n      0x00\n        /* \"contracts/Token.sol\":13871:13878  uint256 */\n      dup1\n        /* \"contracts/Token.sol\":13880:13887  uint256 */\n      0x00\n        /* \"contracts/Token.sol\":13889:13896  uint256 */\n      dup1\n        /* \"contracts/Token.sol\":13910:13933  uint256 tTransferAmount */\n      0x00\n        /* \"contracts/Token.sol\":13935:13947  uint256 tFee */\n      dup1\n        /* \"contracts/Token.sol\":13949:13967  uint256 tLiquidity */\n      0x00\n        /* \"contracts/Token.sol\":13971:13991  _getTValues(tAmount) */\n      tag_418\n        /* \"contracts/Token.sol\":13983:13990  tAmount */\n      dup11\n        /* \"contracts/Token.sol\":13971:13982  _getTValues */\n      tag_419\n        /* \"contracts/Token.sol\":13971:13991  _getTValues(tAmount) */\n      jump\t// in\n    tag_418:\n        /* \"contracts/Token.sol\":13909:13991  (uint256 tTransferAmount, uint256 tFee, uint256 tLiquidity) = _getTValues(tAmount) */\n      swap3\n      pop\n      swap3\n      pop\n      swap3\n      pop\n        /* \"contracts/Token.sol\":14003:14018  uint256 rAmount */\n      0x00\n        /* \"contracts/Token.sol\":14020:14043  uint256 rTransferAmount */\n      dup1\n        /* \"contracts/Token.sol\":14045:14057  uint256 rFee */\n      0x00\n        /* \"contracts/Token.sol\":14061:14111  _getRValues(tAmount, tFee, tLiquidity, _getRate()) */\n      tag_420\n        /* \"contracts/Token.sol\":14073:14080  tAmount */\n      dup14\n        /* \"contracts/Token.sol\":14082:14086  tFee */\n      dup7\n        /* \"contracts/Token.sol\":14088:14098  tLiquidity */\n      dup7\n        /* \"contracts/Token.sol\":14100:14110  _getRate() */\n      tag_421\n        /* \"contracts/Token.sol\":14100:14108  _getRate */\n      tag_230\n        /* \"contracts/Token.sol\":14100:14110  _getRate() */\n      jump\t// in\n    tag_421:\n        /* \"contracts/Token.sol\":14061:14072  _getRValues */\n      tag_422\n        /* \"contracts/Token.sol\":14061:14111  _getRValues(tAmount, tFee, tLiquidity, _getRate()) */\n      jump\t// in\n    tag_420:\n        /* \"contracts/Token.sol\":14002:14111  (uint256 rAmount, uint256 rTransferAmount, uint256 rFee) = _getRValues(tAmount, tFee, tLiquidity, _getRate()) */\n      swap3\n      pop\n      swap3\n      pop\n      swap3\n      pop\n        /* \"contracts/Token.sol\":14130:14137  rAmount */\n      dup3\n        /* \"contracts/Token.sol\":14139:14154  rTransferAmount */\n      dup3\n        /* \"contracts/Token.sol\":14156:14160  rFee */\n      dup3\n        /* \"contracts/Token.sol\":14162:14177  tTransferAmount */\n      dup9\n        /* \"contracts/Token.sol\":14179:14183  tFee */\n      dup9\n        /* \"contracts/Token.sol\":14185:14195  tLiquidity */\n      dup9\n        /* \"contracts/Token.sol\":14122:14196  return (rAmount, rTransferAmount, rFee, tTransferAmount, tFee, tLiquidity) */\n      swap12\n      pop\n      swap12\n      pop\n      swap12\n      pop\n      swap12\n      pop\n      swap12\n      pop\n      swap12\n      pop\n      pop\n      pop\n      pop\n      pop\n      pop\n      pop\n        /* \"contracts/Token.sol\":13785:14204  function _getValues(uint256 tAmount) private view returns (uint256, uint256, uint256, uint256, uint256, uint256) {\r... */\n      swap2\n      swap4\n      swap6\n      pop\n      swap2\n      swap4\n      swap6\n      jump\t// out\n        /* \"contracts/includes.sol\":1315:1451  function sub(uint256 a, uint256 b) internal pure returns (uint256) {\r... */\n    tag_280:\n        /* \"contracts/includes.sol\":1373:1380  uint256 */\n      0x00\n        /* \"contracts/includes.sol\":1400:1443  sub(a, b, \"SafeMath: subtraction overflow\") */\n      tag_424\n        /* \"contracts/includes.sol\":1404:1405  a */\n      dup4\n        /* \"contracts/includes.sol\":1407:1408  b */\n      dup4\n        /* \"contracts/includes.sol\":1400:1443  sub(a, b, \"SafeMath: subtraction overflow\") */\n      mload(0x40)\n      dup1\n      0x40\n      add\n      0x40\n      mstore\n      dup1\n      0x1e\n      dup2\n      mstore\n      0x20\n      add\n      0x536166654d6174683a207375627472616374696f6e206f766572666c6f770000\n      dup2\n      mstore\n      pop\n        /* \"contracts/includes.sol\":1400:1403  sub */\n      tag_226\n        /* \"contracts/includes.sol\":1400:1443  sub(a, b, \"SafeMath: subtraction overflow\") */\n      jump\t// in\n    tag_424:\n        /* \"contracts/includes.sol\":1393:1443  return sub(a, b, \"SafeMath: subtraction overflow\") */\n      swap1\n      pop\n        /* \"contracts/includes.sol\":1315:1451  function sub(uint256 a, uint256 b) internal pure returns (uint256) {\r... */\n      swap3\n      swap2\n      pop\n      pop\n      jump\t// out\n        /* \"contracts/includes.sol\":1659:1909  function mul(uint256 a, uint256 b) internal pure returns (uint256) {\r... */\n    tag_389:\n        /* \"contracts/includes.sol\":1717:1724  uint256 */\n      0x00\n        /* \"contracts/includes.sol\":1746:1747  0 */\n      dup1\n        /* \"contracts/includes.sol\":1741:1742  a */\n      dup4\n        /* \"contracts/includes.sol\":1741:1747  a == 0 */\n      eq\n        /* \"contracts/includes.sol\":1737:1784  if (a == 0) {\r... */\n      iszero\n      tag_426\n      jumpi\n        /* \"contracts/includes.sol\":1771:1772  0 */\n      0x00\n        /* \"contracts/includes.sol\":1764:1772  return 0 */\n      swap1\n      pop\n      jump(tag_425)\n        /* \"contracts/includes.sol\":1737:1784  if (a == 0) {\r... */\n    tag_426:\n        /* \"contracts/includes.sol\":1796:1805  uint256 c */\n      0x00\n        /* \"contracts/includes.sol\":1812:1813  b */\n      dup3\n        /* \"contracts/includes.sol\":1808:1809  a */\n      dup5\n        /* \"contracts/includes.sol\":1808:1813  a * b */\n      mul\n        /* \"contracts/includes.sol\":1796:1813  uint256 c = a * b */\n      swap1\n      pop\n        /* \"contracts/includes.sol\":1841:1842  b */\n      dup3\n        /* \"contracts/includes.sol\":1836:1837  a */\n      dup5\n        /* \"contracts/includes.sol\":1832:1833  c */\n      dup3\n        /* \"contracts/includes.sol\":1832:1837  c / a */\n      dup2\n      tag_427\n      jumpi\n      invalid\n    tag_427:\n      div\n        /* \"contracts/includes.sol\":1832:1842  c / a == b */\n      eq\n        /* \"contracts/includes.sol\":1824:1880  require(c / a == b, \"SafeMath: multiplication overflow\") */\n      tag_428\n      jumpi\n      mload(0x40)\n      0x08c379a000000000000000000000000000000000000000000000000000000000\n      dup2\n      mstore\n      0x04\n      add\n      dup1\n      dup1\n      0x20\n      add\n      dup3\n      dup2\n      sub\n      dup3\n      mstore\n      0x21\n      dup2\n      mstore\n      0x20\n      add\n      dup1\n      data_9113bb53c2876a3805b2c9242029423fc540a728243ce887ab24c82cf119fba3\n      0x21\n      swap2\n      codecopy\n      0x40\n      add\n      swap2\n      pop\n      pop\n      mload(0x40)\n      dup1\n      swap2\n      sub\n      swap1\n      revert\n    tag_428:\n        /* \"contracts/includes.sol\":1900:1901  c */\n      dup1\n        /* \"contracts/includes.sol\":1893:1901  return c */\n      swap2\n      pop\n      pop\n        /* \"contracts/includes.sol\":1659:1909  function mul(uint256 a, uint256 b) internal pure returns (uint256) {\r... */\n    tag_425:\n      swap3\n      swap2\n      pop\n      pop\n      jump\t// out\n        /* \"contracts/Token.sol\":8845:9240  function swapTokens(uint256 contractTokenBalance) private lockTheSwap {\r... */\n    tag_395:\n        /* \"contracts/Token.sol\":1791:1795  true */\n      0x01\n        /* \"contracts/Token.sol\":1772:1788  inSwapAndLiquify */\n      0x19\n      0x14\n        /* \"contracts/Token.sol\":1772:1795  inSwapAndLiquify = true */\n      0x0100\n      exp\n      dup2\n      sload\n      dup2\n      0xff\n      mul\n      not\n      and\n      swap1\n      dup4\n      iszero\n      iszero\n      mul\n      or\n      swap1\n      sstore\n      pop\n        /* \"contracts/Token.sol\":8926:8964  swapTokensForEth(contractTokenBalance) */\n      tag_431\n        /* \"contracts/Token.sol\":8943:8963  contractTokenBalance */\n      dup2\n        /* \"contracts/Token.sol\":8926:8942  swapTokensForEth */\n      tag_432\n        /* \"contracts/Token.sol\":8926:8964  swapTokensForEth(contractTokenBalance) */\n      jump\t// in\n    tag_431:\n        /* \"contracts/Token.sol\":9014:9040  uint256 contractETHBalance */\n      0x00\n        /* \"contracts/Token.sol\":9043:9064  address(this).balance */\n      selfbalance\n        /* \"contracts/Token.sol\":9014:9064  uint256 contractETHBalance = address(this).balance */\n      swap1\n      pop\n        /* \"contracts/Token.sol\":9080:9132  SwapTokens(contractTokenBalance, contractETHBalance) */\n      0x738b737502df4c5f230bbb98a45ea9c2821bad262e880f883357ad3695f8dae4\n        /* \"contracts/Token.sol\":9091:9111  contractTokenBalance */\n      dup3\n        /* \"contracts/Token.sol\":9113:9131  contractETHBalance */\n      dup3\n        /* \"contracts/Token.sol\":9080:9132  SwapTokens(contractTokenBalance, contractETHBalance) */\n      mload(0x40)\n      dup1\n      dup4\n      dup2\n      mstore\n      0x20\n      add\n      dup3\n      dup2\n      mstore\n      0x20\n      add\n      swap3\n      pop\n      pop\n      pop\n      mload(0x40)\n      dup1\n      swap2\n      sub\n      swap1\n      log1\n        /* \"contracts/Token.sol\":9168:9169  0 */\n      0x00\n        /* \"contracts/Token.sol\":9147:9165  contractETHBalance */\n      dup2\n        /* \"contracts/Token.sol\":9147:9169  contractETHBalance > 0 */\n      gt\n        /* \"contracts/Token.sol\":9143:9233  if (contractETHBalance > 0) {\r... */\n      iszero\n      tag_433\n      jumpi\n        /* \"contracts/Token.sol\":9186:9221  sendETHToFee(address(this).balance) */\n      tag_434\n        /* \"contracts/Token.sol\":9199:9220  address(this).balance */\n      selfbalance\n        /* \"contracts/Token.sol\":9186:9198  sendETHToFee */\n      tag_435\n        /* \"contracts/Token.sol\":9186:9221  sendETHToFee(address(this).balance) */\n      jump\t// in\n    tag_434:\n        /* \"contracts/Token.sol\":9143:9233  if (contractETHBalance > 0) {\r... */\n    tag_433:\n        /* \"contracts/Token.sol\":1806:1807  _ */\n      pop\n        /* \"contracts/Token.sol\":1837:1842  false */\n      0x00\n        /* \"contracts/Token.sol\":1818:1834  inSwapAndLiquify */\n      0x19\n      0x14\n        /* \"contracts/Token.sol\":1818:1842  inSwapAndLiquify = false */\n      0x0100\n      exp\n      dup2\n      sload\n      dup2\n      0xff\n      mul\n      not\n      and\n      swap1\n      dup4\n      iszero\n      iszero\n      mul\n      or\n      swap1\n      sstore\n      pop\n        /* \"contracts/Token.sol\":8845:9240  function swapTokens(uint256 contractTokenBalance) private lockTheSwap {\r... */\n      pop\n      jump\t// out\n        /* \"contracts/Token.sol\":10625:11316  function _tokenTransfer(address sender, address recipient, uint256 amount, bool takeFee) private {\r... */\n    tag_401:\n        /* \"contracts/Token.sol\":10738:10745  takeFee */\n      dup1\n        /* \"contracts/Token.sol\":10733:10774  if (!takeFee)\r... */\n      tag_437\n      jumpi\n        /* \"contracts/Token.sol\":10760:10774  removeAllFee() */\n      tag_438\n        /* \"contracts/Token.sol\":10760:10772  removeAllFee */\n      tag_439\n        /* \"contracts/Token.sol\":10760:10774  removeAllFee() */\n      jump\t// in\n    tag_438:\n        /* \"contracts/Token.sol\":10733:10774  if (!takeFee)\r... */\n    tag_437:\n        /* \"contracts/Token.sol\":10791:10802  _isExcluded */\n      0x0a\n        /* \"contracts/Token.sol\":10791:10810  _isExcluded[sender] */\n      0x00\n        /* \"contracts/Token.sol\":10803:10809  sender */\n      dup6\n        /* \"contracts/Token.sol\":10791:10810  _isExcluded[sender] */\n      0xffffffffffffffffffffffffffffffffffffffff\n      and\n      0xffffffffffffffffffffffffffffffffffffffff\n      and\n      dup2\n      mstore\n      0x20\n      add\n      swap1\n      dup2\n      mstore\n      0x20\n      add\n      0x00\n      keccak256\n      0x00\n      swap1\n      sload\n      swap1\n      0x0100\n      exp\n      swap1\n      div\n      0xff\n      and\n        /* \"contracts/Token.sol\":10791:10837  _isExcluded[sender] && !_isExcluded[recipient] */\n      dup1\n      iszero\n      tag_440\n      jumpi\n      pop\n        /* \"contracts/Token.sol\":10815:10826  _isExcluded */\n      0x0a\n        /* \"contracts/Token.sol\":10815:10837  _isExcluded[recipient] */\n      0x00\n        /* \"contracts/Token.sol\":10827:10836  recipient */\n      dup5\n        /* \"contracts/Token.sol\":10815:10837  _isExcluded[recipient] */\n      0xffffffffffffffffffffffffffffffffffffffff\n      and\n      0xffffffffffffffffffffffffffffffffffffffff\n      and\n      dup2\n      mstore\n      0x20\n      add\n      swap1\n      dup2\n      mstore\n      0x20\n      add\n      0x00\n      keccak256\n      0x00\n      swap1\n      sload\n      swap1\n      0x0100\n      exp\n      swap1\n      div\n      0xff\n      and\n        /* \"contracts/Token.sol\":10814:10837  !_isExcluded[recipient] */\n      iszero\n        /* \"contracts/Token.sol\":10791:10837  _isExcluded[sender] && !_isExcluded[recipient] */\n    tag_440:\n        /* \"contracts/Token.sol\":10787:11254  if (_isExcluded[sender] && !_isExcluded[recipient]) {\r... */\n      iszero\n      tag_441\n      jumpi\n        /* \"contracts/Token.sol\":10854:10902  _transferFromExcluded(sender, recipient, amount) */\n      tag_442\n        /* \"contracts/Token.sol\":10876:10882  sender */\n      dup5\n        /* \"contracts/Token.sol\":10884:10893  recipient */\n      dup5\n        /* \"contracts/Token.sol\":10895:10901  amount */\n      dup5\n        /* \"contracts/Token.sol\":10854:10875  _transferFromExcluded */\n      tag_443\n        /* \"contracts/Token.sol\":10854:10902  _transferFromExcluded(sender, recipient, amount) */\n      jump\t// in\n    tag_442:\n        /* \"contracts/Token.sol\":10787:11254  if (_isExcluded[sender] && !_isExcluded[recipient]) {\r... */\n      jump(tag_444)\n    tag_441:\n        /* \"contracts/Token.sol\":10925:10936  _isExcluded */\n      0x0a\n        /* \"contracts/Token.sol\":10925:10944  _isExcluded[sender] */\n      0x00\n        /* \"contracts/Token.sol\":10937:10943  sender */\n      dup6\n        /* \"contracts/Token.sol\":10925:10944  _isExcluded[sender] */\n      0xffffffffffffffffffffffffffffffffffffffff\n      and\n      0xffffffffffffffffffffffffffffffffffffffff\n      and\n      dup2\n      mstore\n      0x20\n      add\n      swap1\n      dup2\n      mstore\n      0x20\n      add\n      0x00\n      keccak256\n      0x00\n      swap1\n      sload\n      swap1\n      0x0100\n      exp\n      swap1\n      div\n      0xff\n      and\n        /* \"contracts/Token.sol\":10924:10944  !_isExcluded[sender] */\n      iszero\n        /* \"contracts/Token.sol\":10924:10970  !_isExcluded[sender] && _isExcluded[recipient] */\n      dup1\n      iszero\n      tag_445\n      jumpi\n      pop\n        /* \"contracts/Token.sol\":10948:10959  _isExcluded */\n      0x0a\n        /* \"contracts/Token.sol\":10948:10970  _isExcluded[recipient] */\n      0x00\n        /* \"contracts/Token.sol\":10960:10969  recipient */\n      dup5\n        /* \"contracts/Token.sol\":10948:10970  _isExcluded[recipient] */\n      0xffffffffffffffffffffffffffffffffffffffff\n      and\n      0xffffffffffffffffffffffffffffffffffffffff\n      and\n      dup2\n      mstore\n      0x20\n      add\n      swap1\n      dup2\n      mstore\n      0x20\n      add\n      0x00\n      keccak256\n      0x00\n      swap1\n      sload\n      swap1\n      0x0100\n      exp\n      swap1\n      div\n      0xff\n      and\n        /* \"contracts/Token.sol\":10924:10970  !_isExcluded[sender] && _isExcluded[recipient] */\n    tag_445:\n        /* \"contracts/Token.sol\":10920:11254  if (!_isExcluded[sender] && _isExcluded[recipient]) {\r... */\n      iszero\n      tag_446\n      jumpi\n        /* \"contracts/Token.sol\":10987:11033  _transferToExcluded(sender, recipient, amount) */\n      tag_447\n        /* \"contracts/Token.sol\":11007:11013  sender */\n      dup5\n        /* \"contracts/Token.sol\":11015:11024  recipient */\n      dup5\n        /* \"contracts/Token.sol\":11026:11032  amount */\n      dup5\n        /* \"contracts/Token.sol\":10987:11006  _transferToExcluded */\n      tag_448\n        /* \"contracts/Token.sol\":10987:11033  _transferToExcluded(sender, recipient, amount) */\n      jump\t// in\n    tag_447:\n        /* \"contracts/Token.sol\":10920:11254  if (!_isExcluded[sender] && _isExcluded[recipient]) {\r... */\n      jump(tag_449)\n    tag_446:\n        /* \"contracts/Token.sol\":11055:11066  _isExcluded */\n      0x0a\n        /* \"contracts/Token.sol\":11055:11074  _isExcluded[sender] */\n      0x00\n        /* \"contracts/Token.sol\":11067:11073  sender */\n      dup6\n        /* \"contracts/Token.sol\":11055:11074  _isExcluded[sender] */\n      0xffffffffffffffffffffffffffffffffffffffff\n      and\n      0xffffffffffffffffffffffffffffffffffffffff\n      and\n      dup2\n      mstore\n      0x20\n      add\n      swap1\n      dup2\n      mstore\n      0x20\n      add\n      0x00\n      keccak256\n      0x00\n      swap1\n      sload\n      swap1\n      0x0100\n      exp\n      swap1\n      div\n      0xff\n      and\n        /* \"contracts/Token.sol\":11055:11100  _isExcluded[sender] && _isExcluded[recipient] */\n      dup1\n      iszero\n      tag_450\n      jumpi\n      pop\n        /* \"contracts/Token.sol\":11078:11089  _isExcluded */\n      0x0a\n        /* \"contracts/Token.sol\":11078:11100  _isExcluded[recipient] */\n      0x00\n        /* \"contracts/Token.sol\":11090:11099  recipient */\n      dup5\n        /* \"contracts/Token.sol\":11078:11100  _isExcluded[recipient] */\n      0xffffffffffffffffffffffffffffffffffffffff\n      and\n      0xffffffffffffffffffffffffffffffffffffffff\n      and\n      dup2\n      mstore\n      0x20\n      add\n      swap1\n      dup2\n      mstore\n      0x20\n      add\n      0x00\n      keccak256\n      0x00\n      swap1\n      sload\n      swap1\n      0x0100\n      exp\n      swap1\n      div\n      0xff\n      and\n        /* \"contracts/Token.sol\":11055:11100  _isExcluded[sender] && _isExcluded[recipient] */\n    tag_450:\n        /* \"contracts/Token.sol\":11051:11254  if (_isExcluded[sender] && _isExcluded[recipient]) {\r... */\n      iszero\n      tag_451\n      jumpi\n        /* \"contracts/Token.sol\":11117:11165  _transferBothExcluded(sender, recipient, amount) */\n      tag_452\n        /* \"contracts/Token.sol\":11139:11145  sender */\n      dup5\n        /* \"contracts/Token.sol\":11147:11156  recipient */\n      dup5\n        /* \"contracts/Token.sol\":11158:11164  amount */\n      dup5\n        /* \"contracts/Token.sol\":11117:11138  _transferBothExcluded */\n      tag_453\n        /* \"contracts/Token.sol\":11117:11165  _transferBothExcluded(sender, recipient, amount) */\n      jump\t// in\n    tag_452:\n        /* \"contracts/Token.sol\":11051:11254  if (_isExcluded[sender] && _isExcluded[recipient]) {\r... */\n      jump(tag_454)\n    tag_451:\n        /* \"contracts/Token.sol\":11198:11242  _transferStandard(sender, recipient, amount) */\n      tag_455\n        /* \"contracts/Token.sol\":11216:11222  sender */\n      dup5\n        /* \"contracts/Token.sol\":11224:11233  recipient */\n      dup5\n        /* \"contracts/Token.sol\":11235:11241  amount */\n      dup5\n        /* \"contracts/Token.sol\":11198:11215  _transferStandard */\n      tag_456\n        /* \"contracts/Token.sol\":11198:11242  _transferStandard(sender, recipient, amount) */\n      jump\t// in\n    tag_455:\n        /* \"contracts/Token.sol\":11051:11254  if (_isExcluded[sender] && _isExcluded[recipient]) {\r... */\n    tag_454:\n        /* \"contracts/Token.sol\":10920:11254  if (!_isExcluded[sender] && _isExcluded[recipient]) {\r... */\n    tag_449:\n        /* \"contracts/Token.sol\":10787:11254  if (_isExcluded[sender] && !_isExcluded[recipient]) {\r... */\n    tag_444:\n        /* \"contracts/Token.sol\":11271:11278  takeFee */\n      dup1\n        /* \"contracts/Token.sol\":11266:11308  if (!takeFee)\r... */\n      tag_457\n      jumpi\n        /* \"contracts/Token.sol\":11293:11308  restoreAllFee() */\n      tag_458\n        /* \"contracts/Token.sol\":11293:11306  restoreAllFee */\n      tag_459\n        /* \"contracts/Token.sol\":11293:11308  restoreAllFee() */\n      jump\t// in\n    tag_458:\n        /* \"contracts/Token.sol\":11266:11308  if (!takeFee)\r... */\n    tag_457:\n        /* \"contracts/Token.sol\":10625:11316  function _tokenTransfer(address sender, address recipient, uint256 amount, bool takeFee) private {\r... */\n      pop\n      pop\n      pop\n      pop\n      jump\t// out\n        /* \"contracts/Token.sol\":15159:15715  function _getCurrentSupply() private view returns (uint256, uint256) {\r... */\n    tag_410:\n        /* \"contracts/Token.sol\":15210:15217  uint256 */\n      0x00\n        /* \"contracts/Token.sol\":15219:15226  uint256 */\n      dup1\n        /* \"contracts/Token.sol\":15239:15254  uint256 rSupply */\n      0x00\n        /* \"contracts/Token.sol\":15257:15264  _rTotal */\n      sload(0x0d)\n        /* \"contracts/Token.sol\":15239:15264  uint256 rSupply = _rTotal */\n      swap1\n      pop\n        /* \"contracts/Token.sol\":15275:15290  uint256 tSupply */\n      0x00\n        /* \"contracts/Token.sol\":15293:15300  _tTotal */\n      sload(0x0c)\n        /* \"contracts/Token.sol\":15275:15300  uint256 tSupply = _tTotal */\n      swap1\n      pop\n        /* \"contracts/Token.sol\":15316:15325  uint256 i */\n      0x00\n        /* \"contracts/Token.sol\":15311:15600  for (uint256 i = 0; i < _excluded.length; i++) {\r... */\n    tag_461:\n        /* \"contracts/Token.sol\":15335:15344  _excluded */\n      0x0b\n        /* \"contracts/Token.sol\":15335:15351  _excluded.length */\n      dup1\n      sload\n      swap1\n      pop\n        /* \"contracts/Token.sol\":15331:15332  i */\n      dup2\n        /* \"contracts/Token.sol\":15331:15351  i < _excluded.length */\n      lt\n        /* \"contracts/Token.sol\":15311:15600  for (uint256 i = 0; i < _excluded.length; i++) {\r... */\n      iszero\n      tag_462\n      jumpi\n        /* \"contracts/Token.sol\":15401:15408  rSupply */\n      dup3\n        /* \"contracts/Token.sol\":15377:15384  _rOwned */\n      0x04\n        /* \"contracts/Token.sol\":15377:15398  _rOwned[_excluded[i]] */\n      0x00\n        /* \"contracts/Token.sol\":15385:15394  _excluded */\n      0x0b\n        /* \"contracts/Token.sol\":15395:15396  i */\n      dup5\n        /* \"contracts/Token.sol\":15385:15397  _excluded[i] */\n      dup2\n      sload\n      dup2\n      lt\n      tag_464\n      jumpi\n      invalid\n    tag_464:\n      swap1\n      0x00\n      mstore\n      keccak256(0x00, 0x20)\n      add\n      0x00\n      swap1\n      sload\n      swap1\n      0x0100\n      exp\n      swap1\n      div\n      0xffffffffffffffffffffffffffffffffffffffff\n      and\n        /* \"contracts/Token.sol\":15377:15398  _rOwned[_excluded[i]] */\n      0xffffffffffffffffffffffffffffffffffffffff\n      and\n      0xffffffffffffffffffffffffffffffffffffffff\n      and\n      dup2\n      mstore\n      0x20\n      add\n      swap1\n      dup2\n      mstore\n      0x20\n      add\n      0x00\n      keccak256\n      sload\n        /* \"contracts/Token.sol\":15377:15408  _rOwned[_excluded[i]] > rSupply */\n      gt\n        /* \"contracts/Token.sol\":15377:15443  _rOwned[_excluded[i]] > rSupply || _tOwned[_excluded[i]] > tSupply */\n      dup1\n      tag_466\n      jumpi\n      pop\n        /* \"contracts/Token.sol\":15436:15443  tSupply */\n      dup2\n        /* \"contracts/Token.sol\":15412:15419  _tOwned */\n      0x05\n        /* \"contracts/Token.sol\":15412:15433  _tOwned[_excluded[i]] */\n      0x00\n        /* \"contracts/Token.sol\":15420:15429  _excluded */\n      0x0b\n        /* \"contracts/Token.sol\":15430:15431  i */\n      dup5\n        /* \"contracts/Token.sol\":15420:15432  _excluded[i] */\n      dup2\n      sload\n      dup2\n      lt\n      tag_467\n      jumpi\n      invalid\n    tag_467:\n      swap1\n      0x00\n      mstore\n      keccak256(0x00, 0x20)\n      add\n      0x00\n      swap1\n      sload\n      swap1\n      0x0100\n      exp\n      swap1\n      div\n      0xffffffffffffffffffffffffffffffffffffffff\n      and\n        /* \"contracts/Token.sol\":15412:15433  _tOwned[_excluded[i]] */\n      0xffffffffffffffffffffffffffffffffffffffff\n      and\n      0xffffffffffffffffffffffffffffffffffffffff\n      and\n      dup2\n      mstore\n      0x20\n      add\n      swap1\n      dup2\n      mstore\n      0x20\n      add\n      0x00\n      keccak256\n      sload\n        /* \"contracts/Token.sol\":15412:15443  _tOwned[_excluded[i]] > tSupply */\n      gt\n        /* \"contracts/Token.sol\":15377:15443  _rOwned[_excluded[i]] > rSupply || _tOwned[_excluded[i]] > tSupply */\n    tag_466:\n        /* \"contracts/Token.sol\":15373:15470  if (_rOwned[_excluded[i]] > rSupply || _tOwned[_excluded[i]] > tSupply) return (_rTotal, _tTotal) */\n      iszero\n      tag_469\n      jumpi\n        /* \"contracts/Token.sol\":15453:15460  _rTotal */\n      sload(0x0d)\n        /* \"contracts/Token.sol\":15462:15469  _tTotal */\n      sload(0x0c)\n        /* \"contracts/Token.sol\":15445:15470  return (_rTotal, _tTotal) */\n      swap5\n      pop\n      swap5\n      pop\n      pop\n      pop\n      pop\n      jump(tag_460)\n        /* \"contracts/Token.sol\":15373:15470  if (_rOwned[_excluded[i]] > rSupply || _tOwned[_excluded[i]] > tSupply) return (_rTotal, _tTotal) */\n    tag_469:\n        /* \"contracts/Token.sol\":15495:15529  rSupply.sub(_rOwned[_excluded[i]]) */\n      tag_470\n        /* \"contracts/Token.sol\":15507:15514  _rOwned */\n      0x04\n        /* \"contracts/Token.sol\":15507:15528  _rOwned[_excluded[i]] */\n      0x00\n        /* \"contracts/Token.sol\":15515:15524  _excluded */\n      0x0b\n        /* \"contracts/Token.sol\":15525:15526  i */\n      dup5\n        /* \"contracts/Token.sol\":15515:15527  _excluded[i] */\n      dup2\n      sload\n      dup2\n      lt\n      tag_471\n      jumpi\n      invalid\n    tag_471:\n      swap1\n      0x00\n      mstore\n      keccak256(0x00, 0x20)\n      add\n      0x00\n      swap1\n      sload\n      swap1\n      0x0100\n      exp\n      swap1\n      div\n      0xffffffffffffffffffffffffffffffffffffffff\n      and\n        /* \"contracts/Token.sol\":15507:15528  _rOwned[_excluded[i]] */\n      0xffffffffffffffffffffffffffffffffffffffff\n      and\n      0xffffffffffffffffffffffffffffffffffffffff\n      and\n      dup2\n      mstore\n      0x20\n      add\n      swap1\n      dup2\n      mstore\n      0x20\n      add\n      0x00\n      keccak256\n      sload\n        /* \"contracts/Token.sol\":15495:15502  rSupply */\n      dup5\n        /* \"contracts/Token.sol\":15495:15506  rSupply.sub */\n      tag_280\n      swap1\n        /* \"contracts/Token.sol\":15495:15529  rSupply.sub(_rOwned[_excluded[i]]) */\n      swap2\n      swap1\n      0xffffffff\n      and\n      jump\t// in\n    tag_470:\n        /* \"contracts/Token.sol\":15485:15529  rSupply = rSupply.sub(_rOwned[_excluded[i]]) */\n      swap3\n      pop\n        /* \"contracts/Token.sol\":15554:15588  tSupply.sub(_tOwned[_excluded[i]]) */\n      tag_473\n        /* \"contracts/Token.sol\":15566:15573  _tOwned */\n      0x05\n        /* \"contracts/Token.sol\":15566:15587  _tOwned[_excluded[i]] */\n      0x00\n        /* \"contracts/Token.sol\":15574:15583  _excluded */\n      0x0b\n        /* \"contracts/Token.sol\":15584:15585  i */\n      dup5\n        /* \"contracts/Token.sol\":15574:15586  _excluded[i] */\n      dup2\n      sload\n      dup2\n      lt\n      tag_474\n      jumpi\n      invalid\n    tag_474:\n      swap1\n      0x00\n      mstore\n      keccak256(0x00, 0x20)\n      add\n      0x00\n      swap1\n      sload\n      swap1\n      0x0100\n      exp\n      swap1\n      div\n      0xffffffffffffffffffffffffffffffffffffffff\n      and\n        /* \"contracts/Token.sol\":15566:15587  _tOwned[_excluded[i]] */\n      0xffffffffffffffffffffffffffffffffffffffff\n      and\n      0xffffffffffffffffffffffffffffffffffffffff\n      and\n      dup2\n      mstore\n      0x20\n      add\n      swap1\n      dup2\n      mstore\n      0x20\n      add\n      0x00\n      keccak256\n      sload\n        /* \"contracts/Token.sol\":15554:15561  tSupply */\n      dup4\n        /* \"contracts/Token.sol\":15554:15565  tSupply.sub */\n      tag_280\n      swap1\n        /* \"contracts/Token.sol\":15554:15588  tSupply.sub(_tOwned[_excluded[i]]) */\n      swap2\n      swap1\n      0xffffffff\n      and\n      jump\t// in\n    tag_473:\n        /* \"contracts/Token.sol\":15544:15588  tSupply = tSupply.sub(_tOwned[_excluded[i]]) */\n      swap2\n      pop\n        /* \"contracts/Token.sol\":15353:15356  i++ */\n      dup1\n      dup1\n      0x01\n      add\n      swap2\n      pop\n      pop\n        /* \"contracts/Token.sol\":15311:15600  for (uint256 i = 0; i < _excluded.length; i++) {\r... */\n      jump(tag_461)\n    tag_462:\n      pop\n        /* \"contracts/Token.sol\":15624:15644  _rTotal.div(_tTotal) */\n      tag_476\n        /* \"contracts/Token.sol\":15636:15643  _tTotal */\n      sload(0x0c)\n        /* \"contracts/Token.sol\":15624:15631  _rTotal */\n      sload(0x0d)\n        /* \"contracts/Token.sol\":15624:15635  _rTotal.div */\n      tag_232\n      swap1\n        /* \"contracts/Token.sol\":15624:15644  _rTotal.div(_tTotal) */\n      swap2\n      swap1\n      0xffffffff\n      and\n      jump\t// in\n    tag_476:\n        /* \"contracts/Token.sol\":15614:15621  rSupply */\n      dup3\n        /* \"contracts/Token.sol\":15614:15644  rSupply < _rTotal.div(_tTotal) */\n      lt\n        /* \"contracts/Token.sol\":15610:15671  if (rSupply < _rTotal.div(_tTotal)) return (_rTotal, _tTotal) */\n      iszero\n      tag_477\n      jumpi\n        /* \"contracts/Token.sol\":15654:15661  _rTotal */\n      sload(0x0d)\n        /* \"contracts/Token.sol\":15663:15670  _tTotal */\n      sload(0x0c)\n        /* \"contracts/Token.sol\":15646:15671  return (_rTotal, _tTotal) */\n      swap4\n      pop\n      swap4\n      pop\n      pop\n      pop\n      jump(tag_460)\n        /* \"contracts/Token.sol\":15610:15671  if (rSupply < _rTotal.div(_tTotal)) return (_rTotal, _tTotal) */\n    tag_477:\n        /* \"contracts/Token.sol\":15690:15697  rSupply */\n      dup2\n        /* \"contracts/Token.sol\":15699:15706  tSupply */\n      dup2\n        /* \"contracts/Token.sol\":15682:15707  return (rSupply, tSupply) */\n      swap4\n      pop\n      swap4\n      pop\n      pop\n      pop\n        /* \"contracts/Token.sol\":15159:15715  function _getCurrentSupply() private view returns (uint256, uint256) {\r... */\n    tag_460:\n      swap1\n      swap2\n      jump\t// out\n        /* \"contracts/includes.sol\":2059:2337  function div(uint256 a, uint256 b, string memory errorMessage) internal pure returns (uint256) {\r... */\n    tag_414:\n        /* \"contracts/includes.sol\":2145:2152  uint256 */\n      0x00\n        /* \"contracts/includes.sol\":2177:2178  0 */\n      dup1\n        /* \"contracts/includes.sol\":2173:2174  b */\n      dup4\n        /* \"contracts/includes.sol\":2173:2178  b > 0 */\n      gt\n        /* \"contracts/includes.sol\":2180:2192  errorMessage */\n      dup3\n        /* \"contracts/includes.sol\":2165:2193  require(b > 0, errorMessage) */\n      swap1\n      tag_479\n      jumpi\n      mload(0x40)\n      0x08c379a000000000000000000000000000000000000000000000000000000000\n      dup2\n      mstore\n      0x04\n      add\n      dup1\n      dup1\n      0x20\n      add\n      dup3\n      dup2\n      sub\n      dup3\n      mstore\n      dup4\n      dup2\n      dup2\n      mload\n      dup2\n      mstore\n      0x20\n      add\n      swap2\n      pop\n      dup1\n      mload\n      swap1\n      0x20\n      add\n      swap1\n      dup1\n      dup4\n      dup4\n      0x00\n    tag_480:\n      dup4\n      dup2\n      lt\n      iszero\n      tag_482\n      jumpi\n      dup1\n      dup3\n      add\n      mload\n      dup2\n      dup5\n      add\n      mstore\n      0x20\n      dup2\n      add\n      swap1\n      pop\n      jump(tag_480)\n    tag_482:\n      pop\n      pop\n      pop\n      pop\n      swap1\n      pop\n      swap1\n      dup2\n      add\n      swap1\n      0x1f\n      and\n      dup1\n      iszero\n      tag_483\n      jumpi\n      dup1\n      dup3\n      sub\n      dup1\n      mload\n      0x01\n      dup4\n      0x20\n      sub\n      0x0100\n      exp\n      sub\n      not\n      and\n      dup2\n      mstore\n      0x20\n      add\n      swap2\n      pop\n    tag_483:\n      pop\n      swap3\n      pop\n      pop\n      pop\n      mload(0x40)\n      dup1\n      swap2\n      sub\n      swap1\n      revert\n    tag_479:\n      pop\n        /* \"contracts/includes.sol\":2204:2213  uint256 c */\n      0x00\n        /* \"contracts/includes.sol\":2220:2221  b */\n      dup4\n        /* \"contracts/includes.sol\":2216:2217  a */\n      dup6\n        /* \"contracts/includes.sol\":2216:2221  a / b */\n      dup2\n      tag_484\n      jumpi\n      invalid\n    tag_484:\n      div\n        /* \"contracts/includes.sol\":2204:2221  uint256 c = a / b */\n      swap1\n      pop\n        /* \"contracts/includes.sol\":2328:2329  c */\n      dup1\n        /* \"contracts/includes.sol\":2321:2329  return c */\n      swap2\n      pop\n      pop\n        /* \"contracts/includes.sol\":2059:2337  function div(uint256 a, uint256 b, string memory errorMessage) internal pure returns (uint256) {\r... */\n      swap4\n      swap3\n      pop\n      pop\n      pop\n      jump\t// out\n        /* \"contracts/Token.sol\":14212:14542  function _getTValues(uint256 tAmount) private view returns (uint256, uint256, uint256) {\r... */\n    tag_419:\n        /* \"contracts/Token.sol\":14272:14279  uint256 */\n      0x00\n        /* \"contracts/Token.sol\":14281:14288  uint256 */\n      dup1\n        /* \"contracts/Token.sol\":14290:14297  uint256 */\n      0x00\n        /* \"contracts/Token.sol\":14310:14322  uint256 tFee */\n      dup1\n        /* \"contracts/Token.sol\":14325:14349  calculateTaxFee(tAmount) */\n      tag_486\n        /* \"contracts/Token.sol\":14341:14348  tAmount */\n      dup6\n        /* \"contracts/Token.sol\":14325:14340  calculateTaxFee */\n      tag_487\n        /* \"contracts/Token.sol\":14325:14349  calculateTaxFee(tAmount) */\n      jump\t// in\n    tag_486:\n        /* \"contracts/Token.sol\":14310:14349  uint256 tFee = calculateTaxFee(tAmount) */\n      swap1\n      pop\n        /* \"contracts/Token.sol\":14360:14378  uint256 tLiquidity */\n      0x00\n        /* \"contracts/Token.sol\":14381:14411  calculateLiquidityFee(tAmount) */\n      tag_488\n        /* \"contracts/Token.sol\":14403:14410  tAmount */\n      dup7\n        /* \"contracts/Token.sol\":14381:14402  calculateLiquidityFee */\n      tag_489\n        /* \"contracts/Token.sol\":14381:14411  calculateLiquidityFee(tAmount) */\n      jump\t// in\n    tag_488:\n        /* \"contracts/Token.sol\":14360:14411  uint256 tLiquidity = calculateLiquidityFee(tAmount) */\n      swap1\n      pop\n        /* \"contracts/Token.sol\":14422:14445  uint256 tTransferAmount */\n      0x00\n        /* \"contracts/Token.sol\":14448:14481  tAmount.sub(tFee).sub(tLiquidity) */\n      tag_490\n        /* \"contracts/Token.sol\":14470:14480  tLiquidity */\n      dup3\n        /* \"contracts/Token.sol\":14448:14465  tAmount.sub(tFee) */\n      tag_491\n        /* \"contracts/Token.sol\":14460:14464  tFee */\n      dup6\n        /* \"contracts/Token.sol\":14448:14455  tAmount */\n      dup11\n        /* \"contracts/Token.sol\":14448:14459  tAmount.sub */\n      tag_280\n      swap1\n        /* \"contracts/Token.sol\":14448:14465  tAmount.sub(tFee) */\n      swap2\n      swap1\n      0xffffffff\n      and\n      jump\t// in\n    tag_491:\n        /* \"contracts/Token.sol\":14448:14469  tAmount.sub(tFee).sub */\n      tag_280\n      swap1\n        /* \"contracts/Token.sol\":14448:14481  tAmount.sub(tFee).sub(tLiquidity) */\n      swap2\n      swap1\n      0xffffffff\n      and\n      jump\t// in\n    tag_490:\n        /* \"contracts/Token.sol\":14422:14481  uint256 tTransferAmount = tAmount.sub(tFee).sub(tLiquidity) */\n      swap1\n      pop\n        /* \"contracts/Token.sol\":14500:14515  tTransferAmount */\n      dup1\n        /* \"contracts/Token.sol\":14517:14521  tFee */\n      dup4\n        /* \"contracts/Token.sol\":14523:14533  tLiquidity */\n      dup4\n        /* \"contracts/Token.sol\":14492:14534  return (tTransferAmount, tFee, tLiquidity) */\n      swap6\n      pop\n      swap6\n      pop\n      swap6\n      pop\n      pop\n      pop\n      pop\n        /* \"contracts/Token.sol\":14212:14542  function _getTValues(uint256 tAmount) private view returns (uint256, uint256, uint256) {\r... */\n      swap2\n      swap4\n      swap1\n      swap3\n      pop\n      jump\t// out\n        /* \"contracts/Token.sol\":14550:14979  function _getRValues(uint256 tAmount, uint256 tFee, uint256 tLiquidity, uint256 currentRate) private pure returns (uint256, uint256, uint256) {\r... */\n    tag_422:\n        /* \"contracts/Token.sol\":14665:14672  uint256 */\n      0x00\n        /* \"contracts/Token.sol\":14674:14681  uint256 */\n      dup1\n        /* \"contracts/Token.sol\":14683:14690  uint256 */\n      0x00\n        /* \"contracts/Token.sol\":14703:14718  uint256 rAmount */\n      dup1\n        /* \"contracts/Token.sol\":14721:14745  tAmount.mul(currentRate) */\n      tag_493\n        /* \"contracts/Token.sol\":14733:14744  currentRate */\n      dup6\n        /* \"contracts/Token.sol\":14721:14728  tAmount */\n      dup10\n        /* \"contracts/Token.sol\":14721:14732  tAmount.mul */\n      tag_389\n      swap1\n        /* \"contracts/Token.sol\":14721:14745  tAmount.mul(currentRate) */\n      swap2\n      swap1\n      0xffffffff\n      and\n      jump\t// in\n    tag_493:\n        /* \"contracts/Token.sol\":14703:14745  uint256 rAmount = tAmount.mul(currentRate) */\n      swap1\n      pop\n        /* \"contracts/Token.sol\":14756:14768  uint256 rFee */\n      0x00\n        /* \"contracts/Token.sol\":14771:14792  tFee.mul(currentRate) */\n      tag_494\n        /* \"contracts/Token.sol\":14780:14791  currentRate */\n      dup7\n        /* \"contracts/Token.sol\":14771:14775  tFee */\n      dup10\n        /* \"contracts/Token.sol\":14771:14779  tFee.mul */\n      tag_389\n      swap1\n        /* \"contracts/Token.sol\":14771:14792  tFee.mul(currentRate) */\n      swap2\n      swap1\n      0xffffffff\n      and\n      jump\t// in\n    tag_494:\n        /* \"contracts/Token.sol\":14756:14792  uint256 rFee = tFee.mul(currentRate) */\n      swap1\n      pop\n        /* \"contracts/Token.sol\":14803:14821  uint256 rLiquidity */\n      0x00\n        /* \"contracts/Token.sol\":14824:14851  tLiquidity.mul(currentRate) */\n      tag_495\n        /* \"contracts/Token.sol\":14839:14850  currentRate */\n      dup8\n        /* \"contracts/Token.sol\":14824:14834  tLiquidity */\n      dup10\n        /* \"contracts/Token.sol\":14824:14838  tLiquidity.mul */\n      tag_389\n      swap1\n        /* \"contracts/Token.sol\":14824:14851  tLiquidity.mul(currentRate) */\n      swap2\n      swap1\n      0xffffffff\n      and\n      jump\t// in\n    tag_495:\n        /* \"contracts/Token.sol\":14803:14851  uint256 rLiquidity = tLiquidity.mul(currentRate) */\n      swap1\n      pop\n        /* \"contracts/Token.sol\":14862:14885  uint256 rTransferAmount */\n      0x00\n        /* \"contracts/Token.sol\":14888:14921  rAmount.sub(rFee).sub(rLiquidity) */\n      tag_496\n        /* \"contracts/Token.sol\":14910:14920  rLiquidity */\n      dup3\n        /* \"contracts/Token.sol\":14888:14905  rAmount.sub(rFee) */\n      tag_497\n        /* \"contracts/Token.sol\":14900:14904  rFee */\n      dup6\n        /* \"contracts/Token.sol\":14888:14895  rAmount */\n      dup8\n        /* \"contracts/Token.sol\":14888:14899  rAmount.sub */\n      tag_280\n      swap1\n        /* \"contracts/Token.sol\":14888:14905  rAmount.sub(rFee) */\n      swap2\n      swap1\n      0xffffffff\n      and\n      jump\t// in\n    tag_497:\n        /* \"contracts/Token.sol\":14888:14909  rAmount.sub(rFee).sub */\n      tag_280\n      swap1\n        /* \"contracts/Token.sol\":14888:14921  rAmount.sub(rFee).sub(rLiquidity) */\n      swap2\n      swap1\n      0xffffffff\n      and\n      jump\t// in\n    tag_496:\n        /* \"contracts/Token.sol\":14862:14921  uint256 rTransferAmount = rAmount.sub(rFee).sub(rLiquidity) */\n      swap1\n      pop\n        /* \"contracts/Token.sol\":14940:14947  rAmount */\n      dup4\n        /* \"contracts/Token.sol\":14949:14964  rTransferAmount */\n      dup2\n        /* \"contracts/Token.sol\":14966:14970  rFee */\n      dup5\n        /* \"contracts/Token.sol\":14932:14971  return (rAmount, rTransferAmount, rFee) */\n      swap7\n      pop\n      swap7\n      pop\n      swap7\n      pop\n      pop\n      pop\n      pop\n      pop\n        /* \"contracts/Token.sol\":14550:14979  function _getRValues(uint256 tAmount, uint256 tFee, uint256 tLiquidity, uint256 currentRate) private pure returns (uint256, uint256, uint256) {\r... */\n      swap5\n      pop\n      swap5\n      pop\n      swap5\n      swap2\n      pop\n      pop\n      jump\t// out\n        /* \"contracts/Token.sol\":9435:10093  function swapTokensForEth(uint256 tokenAmount) private {\r... */\n    tag_432:\n        /* \"contracts/Token.sol\":9561:9582  address[] memory path */\n      0x60\n        /* \"contracts/Token.sol\":9599:9600  2 */\n      0x02\n        /* \"contracts/Token.sol\":9585:9601  new address[](2) */\n      0xffffffffffffffff\n      dup2\n      gt\n      dup1\n      iszero\n      tag_499\n      jumpi\n      0x00\n      dup1\n      revert\n    tag_499:\n      pop\n      mload(0x40)\n      swap1\n      dup1\n      dup3\n      mstore\n      dup1\n      0x20\n      mul\n      0x20\n      add\n      dup3\n      add\n      0x40\n      mstore\n      dup1\n      iszero\n      tag_500\n      jumpi\n      dup2\n      0x20\n      add\n      0x20\n      dup3\n      mul\n      dup1\n      calldatasize\n      dup4\n      calldatacopy\n      dup1\n      dup3\n      add\n      swap2\n      pop\n      pop\n      swap1\n      pop\n    tag_500:\n      pop\n        /* \"contracts/Token.sol\":9561:9601  address[] memory path = new address[](2) */\n      swap1\n      pop\n        /* \"contracts/Token.sol\":9630:9634  this */\n      address\n        /* \"contracts/Token.sol\":9612:9616  path */\n      dup2\n        /* \"contracts/Token.sol\":9617:9618  0 */\n      0x00\n        /* \"contracts/Token.sol\":9612:9619  path[0] */\n      dup2\n      mload\n      dup2\n      lt\n      tag_501\n      jumpi\n      invalid\n    tag_501:\n      0x20\n      mul\n      0x20\n      add\n      add\n        /* \"contracts/Token.sol\":9612:9635  path[0] = address(this) */\n      swap1\n      0xffffffffffffffffffffffffffffffffffffffff\n      and\n      swap1\n      dup2\n      0xffffffffffffffffffffffffffffffffffffffff\n      and\n      dup2\n      mstore\n      pop\n      pop\n        /* \"contracts/Token.sol\":9656:9671  uniswapV2Router */\n      0x18\n      0x00\n      swap1\n      sload\n      swap1\n      0x0100\n      exp\n      swap1\n      div\n      0xffffffffffffffffffffffffffffffffffffffff\n      and\n        /* \"contracts/Token.sol\":9656:9676  uniswapV2Router.WETH */\n      0xffffffffffffffffffffffffffffffffffffffff\n      and\n      0xad5c4648\n        /* \"contracts/Token.sol\":9656:9678  uniswapV2Router.WETH() */\n      mload(0x40)\n      dup2\n      0xffffffff\n      and\n      0xe0\n      shl\n      dup2\n      mstore\n      0x04\n      add\n      0x20\n      mload(0x40)\n      dup1\n      dup4\n      sub\n      dup2\n      dup7\n      dup1\n      extcodesize\n      iszero\n      dup1\n      iszero\n      tag_502\n      jumpi\n      0x00\n      dup1\n      revert\n    tag_502:\n      pop\n      gas\n      staticcall\n      iszero\n      dup1\n      iszero\n      tag_504\n      jumpi\n      returndatasize\n      0x00\n      dup1\n      returndatacopy\n      revert(0x00, returndatasize)\n    tag_504:\n      pop\n      pop\n      pop\n      pop\n      mload(0x40)\n      returndatasize\n      0x20\n      dup2\n      lt\n      iszero\n      tag_505\n      jumpi\n      0x00\n      dup1\n      revert\n    tag_505:\n      dup2\n      add\n      swap1\n      dup1\n      dup1\n      mload\n      swap1\n      0x20\n      add\n      swap1\n      swap3\n      swap2\n      swap1\n      pop\n      pop\n      pop\n        /* \"contracts/Token.sol\":9646:9650  path */\n      dup2\n        /* \"contracts/Token.sol\":9651:9652  1 */\n      0x01\n        /* \"contracts/Token.sol\":9646:9653  path[1] */\n      dup2\n      mload\n      dup2\n      lt\n      tag_506\n      jumpi\n      invalid\n    tag_506:\n      0x20\n      mul\n      0x20\n      add\n      add\n        /* \"contracts/Token.sol\":9646:9678  path[1] = uniswapV2Router.WETH() */\n      swap1\n      0xffffffffffffffffffffffffffffffffffffffff\n      and\n      swap1\n      dup2\n      0xffffffffffffffffffffffffffffffffffffffff\n      and\n      dup2\n      mstore\n      pop\n      pop\n        /* \"contracts/Token.sol\":9691:9753  _approve(address(this), address(uniswapV2Router), tokenAmount) */\n      tag_507\n        /* \"contracts/Token.sol\":9708:9712  this */\n      address\n        /* \"contracts/Token.sol\":9723:9738  uniswapV2Router */\n      0x18\n      0x00\n      swap1\n      sload\n      swap1\n      0x0100\n      exp\n      swap1\n      div\n      0xffffffffffffffffffffffffffffffffffffffff\n      and\n        /* \"contracts/Token.sol\":9741:9752  tokenAmount */\n      dup5\n        /* \"contracts/Token.sol\":9691:9699  _approve */\n      tag_216\n        /* \"contracts/Token.sol\":9691:9753  _approve(address(this), address(uniswapV2Router), tokenAmount) */\n      jump\t// in\n    tag_507:\n        /* \"contracts/Token.sol\":9792:9807  uniswapV2Router */\n      0x18\n      0x00\n      swap1\n      sload\n      swap1\n      0x0100\n      exp\n      swap1\n      div\n      0xffffffffffffffffffffffffffffffffffffffff\n      and\n        /* \"contracts/Token.sol\":9792:9858  uniswapV2Router.swapExactTokensForETHSupportingFeeOnTransferTokens */\n      0xffffffffffffffffffffffffffffffffffffffff\n      and\n      0x791ac947\n        /* \"contracts/Token.sol\":9873:9884  tokenAmount */\n      dup4\n        /* \"contracts/Token.sol\":9899:9900  0 */\n      0x00\n        /* \"contracts/Token.sol\":9943:9947  path */\n      dup5\n        /* \"contracts/Token.sol\":9970:9974  this */\n      address\n        /* \"contracts/Token.sol\":10006:10021  block.timestamp */\n      timestamp\n        /* \"contracts/Token.sol\":9792:10032  uniswapV2Router.swapExactTokensForETHSupportingFeeOnTransferTokens(\r... */\n      mload(0x40)\n      dup7\n      0xffffffff\n      and\n      0xe0\n      shl\n      dup2\n      mstore\n      0x04\n      add\n      dup1\n      dup7\n      dup2\n      mstore\n      0x20\n      add\n      dup6\n      dup2\n      mstore\n      0x20\n      add\n      dup1\n      0x20\n      add\n      dup5\n      0xffffffffffffffffffffffffffffffffffffffff\n      and\n      dup2\n      mstore\n      0x20\n      add\n      dup4\n      dup2\n      mstore\n      0x20\n      add\n      dup3\n      dup2\n      sub\n      dup3\n      mstore\n      dup6\n      dup2\n      dup2\n      mload\n      dup2\n      mstore\n      0x20\n      add\n      swap2\n      pop\n      dup1\n      mload\n      swap1\n      0x20\n      add\n      swap1\n      0x20\n      mul\n      dup1\n      dup4\n      dup4\n      0x00\n    tag_508:\n      dup4\n      dup2\n      lt\n      iszero\n      tag_510\n      jumpi\n      dup1\n      dup3\n      add\n      mload\n      dup2\n      dup5\n      add\n      mstore\n      0x20\n      dup2\n      add\n      swap1\n      pop\n      jump(tag_508)\n    tag_510:\n      pop\n      pop\n      pop\n      pop\n      swap1\n      pop\n      add\n      swap7\n      pop\n      pop\n      pop\n      pop\n      pop\n      pop\n      pop\n      0x00\n      mload(0x40)\n      dup1\n      dup4\n      sub\n      dup2\n      0x00\n      dup8\n      dup1\n      extcodesize\n      iszero\n      dup1\n      iszero\n      tag_511\n      jumpi\n      0x00\n      dup1\n      revert\n    tag_511:\n      pop\n      gas\n      call\n      iszero\n      dup1\n      iszero\n      tag_513\n      jumpi\n      returndatasize\n      0x00\n      dup1\n      returndatacopy\n      revert(0x00, returndatasize)\n    tag_513:\n      pop\n      pop\n      pop\n      pop\n        /* \"contracts/Token.sol\":10050:10085  SwapTokensForETH(tokenAmount, path) */\n      0x32cde87eb454f3a0b875ab23547023107cfad454363ec88ba5695e2c24aa52a7\n        /* \"contracts/Token.sol\":10067:10078  tokenAmount */\n      dup3\n        /* \"contracts/Token.sol\":10080:10084  path */\n      dup3\n        /* \"contracts/Token.sol\":10050:10085  SwapTokensForETH(tokenAmount, path) */\n      mload(0x40)\n      dup1\n      dup4\n      dup2\n      mstore\n      0x20\n      add\n      dup1\n      0x20\n      add\n      dup3\n      dup2\n      sub\n      dup3\n      mstore\n      dup4\n      dup2\n      dup2\n      mload\n      dup2\n      mstore\n      0x20\n      add\n      swap2\n      pop\n      dup1\n      mload\n      swap1\n      0x20\n      add\n      swap1\n      0x20\n      mul\n      dup1\n      dup4\n      dup4\n      0x00\n    tag_514:\n      dup4\n      dup2\n      lt\n      iszero\n      tag_516\n      jumpi\n      dup1\n      dup3\n      add\n      mload\n      dup2\n      dup5\n      add\n      mstore\n      0x20\n      dup2\n      add\n      swap1\n      pop\n      jump(tag_514)\n    tag_516:\n      pop\n      pop\n      pop\n      pop\n      swap1\n      pop\n      add\n      swap4\n      pop\n      pop\n      pop\n      pop\n      mload(0x40)\n      dup1\n      swap2\n      sub\n      swap1\n      log1\n        /* \"contracts/Token.sol\":9435:10093  function swapTokensForEth(uint256 tokenAmount) private {\r... */\n      pop\n      pop\n      jump\t// out\n        /* \"contracts/Token.sol\":9291:9425  function sendETHToFee(uint256 amount) private {\r... */\n    tag_435:\n        /* \"contracts/Token.sol\":9348:9364  marketingAddress */\n      0x03\n      0x00\n      swap1\n      sload\n      swap1\n      0x0100\n      exp\n      swap1\n      div\n      0xffffffffffffffffffffffffffffffffffffffff\n      and\n        /* \"contracts/Token.sol\":9348:9373  marketingAddress.transfer */\n      0xffffffffffffffffffffffffffffffffffffffff\n      and\n        /* \"contracts/Token.sol\":9348:9381  marketingAddress.transfer(amount) */\n      0x08fc\n        /* \"contracts/Token.sol\":9374:9380  amount */\n      dup3\n        /* \"contracts/Token.sol\":9348:9381  marketingAddress.transfer(amount) */\n      swap1\n      dup2\n      iszero\n      mul\n      swap1\n      mload(0x40)\n      0x00\n      mload(0x40)\n      dup1\n      dup4\n      sub\n      dup2\n      dup6\n      dup9\n      dup9\n      call\n      swap4\n      pop\n      pop\n      pop\n      pop\n      iszero\n      dup1\n      iszero\n      tag_519\n      jumpi\n      returndatasize\n      0x00\n      dup1\n      returndatacopy\n      revert(0x00, returndatasize)\n    tag_519:\n      pop\n        /* \"contracts/Token.sol\":9397:9417  SendETHToFee(amount) */\n      0xb6b34f3cfef2b0bb0e47223ab355ff7c3615a62fe5f469444611e679411246c6\n        /* \"contracts/Token.sol\":9410:9416  amount */\n      dup2\n        /* \"contracts/Token.sol\":9397:9417  SendETHToFee(amount) */\n      mload(0x40)\n      dup1\n      dup3\n      dup2\n      mstore\n      0x20\n      add\n      swap2\n      pop\n      pop\n      mload(0x40)\n      dup1\n      swap2\n      sub\n      swap1\n      log1\n        /* \"contracts/Token.sol\":9291:9425  function sendETHToFee(uint256 amount) private {\r... */\n      pop\n      jump\t// out\n        /* \"contracts/Token.sol\":16426:16661  function removeAllFee() private {\r... */\n    tag_439:\n        /* \"contracts/Token.sol\":16484:16485  0 */\n      0x00\n        /* \"contracts/Token.sol\":16473:16480  _taxFee */\n      sload(0x12)\n        /* \"contracts/Token.sol\":16473:16485  _taxFee == 0 */\n      eq\n        /* \"contracts/Token.sol\":16473:16507  _taxFee == 0 && _liquidityFee == 0 */\n      dup1\n      iszero\n      tag_521\n      jumpi\n      pop\n        /* \"contracts/Token.sol\":16506:16507  0 */\n      0x00\n        /* \"contracts/Token.sol\":16489:16502  _liquidityFee */\n      sload(0x14)\n        /* \"contracts/Token.sol\":16489:16507  _liquidityFee == 0 */\n      eq\n        /* \"contracts/Token.sol\":16473:16507  _taxFee == 0 && _liquidityFee == 0 */\n    tag_521:\n        /* \"contracts/Token.sol\":16469:16516  if (_taxFee == 0 && _liquidityFee == 0) return; */\n      iszero\n      tag_522\n      jumpi\n        /* \"contracts/Token.sol\":16509:16516  return; */\n      jump(tag_520)\n        /* \"contracts/Token.sol\":16469:16516  if (_taxFee == 0 && _liquidityFee == 0) return; */\n    tag_522:\n        /* \"contracts/Token.sol\":16546:16553  _taxFee */\n      sload(0x12)\n        /* \"contracts/Token.sol\":16528:16543  _previousTaxFee */\n      0x13\n        /* \"contracts/Token.sol\":16528:16553  _previousTaxFee = _taxFee */\n      dup2\n      swap1\n      sstore\n      pop\n        /* \"contracts/Token.sol\":16588:16601  _liquidityFee */\n      sload(0x14)\n        /* \"contracts/Token.sol\":16564:16585  _previousLiquidityFee */\n      0x15\n        /* \"contracts/Token.sol\":16564:16601  _previousLiquidityFee = _liquidityFee */\n      dup2\n      swap1\n      sstore\n      pop\n        /* \"contracts/Token.sol\":16624:16625  0 */\n      0x00\n        /* \"contracts/Token.sol\":16614:16621  _taxFee */\n      0x12\n        /* \"contracts/Token.sol\":16614:16625  _taxFee = 0 */\n      dup2\n      swap1\n      sstore\n      pop\n        /* \"contracts/Token.sol\":16652:16653  0 */\n      0x00\n        /* \"contracts/Token.sol\":16636:16649  _liquidityFee */\n      0x14\n        /* \"contracts/Token.sol\":16636:16653  _liquidityFee = 0 */\n      dup2\n      swap1\n      sstore\n      pop\n        /* \"contracts/Token.sol\":16426:16661  function removeAllFee() private {\r... */\n    tag_520:\n      jump\t// out\n        /* \"contracts/Token.sol\":12417:12980  function _transferFromExcluded(address sender, address recipient, uint256 tAmount) private {\r... */\n    tag_443:\n        /* \"contracts/Token.sol\":12520:12535  uint256 rAmount */\n      0x00\n        /* \"contracts/Token.sol\":12537:12560  uint256 rTransferAmount */\n      dup1\n        /* \"contracts/Token.sol\":12562:12574  uint256 rFee */\n      0x00\n        /* \"contracts/Token.sol\":12576:12599  uint256 tTransferAmount */\n      dup1\n        /* \"contracts/Token.sol\":12601:12613  uint256 tFee */\n      0x00\n        /* \"contracts/Token.sol\":12615:12633  uint256 tLiquidity */\n      dup1\n        /* \"contracts/Token.sol\":12637:12656  _getValues(tAmount) */\n      tag_524\n        /* \"contracts/Token.sol\":12648:12655  tAmount */\n      dup8\n        /* \"contracts/Token.sol\":12637:12647  _getValues */\n      tag_278\n        /* \"contracts/Token.sol\":12637:12656  _getValues(tAmount) */\n      jump\t// in\n    tag_524:\n        /* \"contracts/Token.sol\":12519:12656  (uint256 rAmount, uint256 rTransferAmount, uint256 rFee, uint256 tTransferAmount, uint256 tFee, uint256 tLiquidity) = _getValues(tAmount) */\n      swap6\n      pop\n      swap6\n      pop\n      swap6\n      pop\n      swap6\n      pop\n      swap6\n      pop\n      swap6\n      pop\n        /* \"contracts/Token.sol\":12685:12713  _tOwned[sender].sub(tAmount) */\n      tag_525\n        /* \"contracts/Token.sol\":12705:12712  tAmount */\n      dup8\n        /* \"contracts/Token.sol\":12685:12692  _tOwned */\n      0x05\n        /* \"contracts/Token.sol\":12685:12700  _tOwned[sender] */\n      0x00\n        /* \"contracts/Token.sol\":12693:12699  sender */\n      dup13\n        /* \"contracts/Token.sol\":12685:12700  _tOwned[sender] */\n      0xffffffffffffffffffffffffffffffffffffffff\n      and\n      0xffffffffffffffffffffffffffffffffffffffff\n      and\n      dup2\n      mstore\n      0x20\n      add\n      swap1\n      dup2\n      mstore\n      0x20\n      add\n      0x00\n      keccak256\n      sload\n        /* \"contracts/Token.sol\":12685:12704  _tOwned[sender].sub */\n      tag_280\n      swap1\n        /* \"contracts/Token.sol\":12685:12713  _tOwned[sender].sub(tAmount) */\n      swap2\n      swap1\n      0xffffffff\n      and\n      jump\t// in\n    tag_525:\n        /* \"contracts/Token.sol\":12667:12674  _tOwned */\n      0x05\n        /* \"contracts/Token.sol\":12667:12682  _tOwned[sender] */\n      0x00\n        /* \"contracts/Token.sol\":12675:12681  sender */\n      dup12\n        /* \"contracts/Token.sol\":12667:12682  _tOwned[sender] */\n      0xffffffffffffffffffffffffffffffffffffffff\n      and\n      0xffffffffffffffffffffffffffffffffffffffff\n      and\n      dup2\n      mstore\n      0x20\n      add\n      swap1\n      dup2\n      mstore\n      0x20\n      add\n      0x00\n      keccak256\n        /* \"contracts/Token.sol\":12667:12713  _tOwned[sender] = _tOwned[sender].sub(tAmount) */\n      dup2\n      swap1\n      sstore\n      pop\n        /* \"contracts/Token.sol\":12742:12770  _rOwned[sender].sub(rAmount) */\n      tag_526\n        /* \"contracts/Token.sol\":12762:12769  rAmount */\n      dup7\n        /* \"contracts/Token.sol\":12742:12749  _rOwned */\n      0x04\n        /* \"contracts/Token.sol\":12742:12757  _rOwned[sender] */\n      0x00\n        /* \"contracts/Token.sol\":12750:12756  sender */\n      dup13\n        /* \"contracts/Token.sol\":12742:12757  _rOwned[sender] */\n      0xffffffffffffffffffffffffffffffffffffffff\n      and\n      0xffffffffffffffffffffffffffffffffffffffff\n      and\n      dup2\n      mstore\n      0x20\n      add\n      swap1\n      dup2\n      mstore\n      0x20\n      add\n      0x00\n      keccak256\n      sload\n        /* \"contracts/Token.sol\":12742:12761  _rOwned[sender].sub */\n      tag_280\n      swap1\n        /* \"contracts/Token.sol\":12742:12770  _rOwned[sender].sub(rAmount) */\n      swap2\n      swap1\n      0xffffffff\n      and\n      jump\t// in\n    tag_526:\n        /* \"contracts/Token.sol\":12724:12731  _rOwned */\n      0x04\n        /* \"contracts/Token.sol\":12724:12739  _rOwned[sender] */\n      0x00\n        /* \"contracts/Token.sol\":12732:12738  sender */\n      dup12\n        /* \"contracts/Token.sol\":12724:12739  _rOwned[sender] */\n      0xffffffffffffffffffffffffffffffffffffffff\n      and\n      0xffffffffffffffffffffffffffffffffffffffff\n      and\n      dup2\n      mstore\n      0x20\n      add\n      swap1\n      dup2\n      mstore\n      0x20\n      add\n      0x00\n      keccak256\n        /* \"contracts/Token.sol\":12724:12770  _rOwned[sender] = _rOwned[sender].sub(rAmount) */\n      dup2\n      swap1\n      sstore\n      pop\n        /* \"contracts/Token.sol\":12802:12841  _rOwned[recipient].add(rTransferAmount) */\n      tag_527\n        /* \"contracts/Token.sol\":12825:12840  rTransferAmount */\n      dup6\n        /* \"contracts/Token.sol\":12802:12809  _rOwned */\n      0x04\n        /* \"contracts/Token.sol\":12802:12820  _rOwned[recipient] */\n      0x00\n        /* \"contracts/Token.sol\":12810:12819  recipient */\n      dup12\n        /* \"contracts/Token.sol\":12802:12820  _rOwned[recipient] */\n      0xffffffffffffffffffffffffffffffffffffffff\n      and\n      0xffffffffffffffffffffffffffffffffffffffff\n      and\n      dup2\n      mstore\n      0x20\n      add\n      swap1\n      dup2\n      mstore\n      0x20\n      add\n      0x00\n      keccak256\n      sload\n        /* \"contracts/Token.sol\":12802:12824  _rOwned[recipient].add */\n      tag_273\n      swap1\n        /* \"contracts/Token.sol\":12802:12841  _rOwned[recipient].add(rTransferAmount) */\n      swap2\n      swap1\n      0xffffffff\n      and\n      jump\t// in\n    tag_527:\n        /* \"contracts/Token.sol\":12781:12788  _rOwned */\n      0x04\n        /* \"contracts/Token.sol\":12781:12799  _rOwned[recipient] */\n      0x00\n        /* \"contracts/Token.sol\":12789:12798  recipient */\n      dup11\n        /* \"contracts/Token.sol\":12781:12799  _rOwned[recipient] */\n      0xffffffffffffffffffffffffffffffffffffffff\n      and\n      0xffffffffffffffffffffffffffffffffffffffff\n      and\n      dup2\n      mstore\n      0x20\n      add\n      swap1\n      dup2\n      mstore\n      0x20\n      add\n      0x00\n      keccak256\n        /* \"contracts/Token.sol\":12781:12841  _rOwned[recipient] = _rOwned[recipient].add(rTransferAmount) */\n      dup2\n      swap1\n      sstore\n      pop\n        /* \"contracts/Token.sol\":12852:12878  _takeLiquidity(tLiquidity) */\n      tag_528\n        /* \"contracts/Token.sol\":12867:12877  tLiquidity */\n      dup2\n        /* \"contracts/Token.sol\":12852:12866  _takeLiquidity */\n      tag_529\n        /* \"contracts/Token.sol\":12852:12878  _takeLiquidity(tLiquidity) */\n      jump\t// in\n    tag_528:\n        /* \"contracts/Token.sol\":12889:12912  _reflectFee(rFee, tFee) */\n      tag_530\n        /* \"contracts/Token.sol\":12901:12905  rFee */\n      dup5\n        /* \"contracts/Token.sol\":12907:12911  tFee */\n      dup4\n        /* \"contracts/Token.sol\":12889:12900  _reflectFee */\n      tag_531\n        /* \"contracts/Token.sol\":12889:12912  _reflectFee(rFee, tFee) */\n      jump\t// in\n    tag_530:\n        /* \"contracts/Token.sol\":12945:12954  recipient */\n      dup8\n        /* \"contracts/Token.sol\":12928:12972  Transfer(sender, recipient, tTransferAmount) */\n      0xffffffffffffffffffffffffffffffffffffffff\n      and\n        /* \"contracts/Token.sol\":12937:12943  sender */\n      dup10\n        /* \"contracts/Token.sol\":12928:12972  Transfer(sender, recipient, tTransferAmount) */\n      0xffffffffffffffffffffffffffffffffffffffff\n      and\n      0xddf252ad1be2c89b69c2b068fc378daa952ba7f163c4a11628f55a4df523b3ef\n        /* \"contracts/Token.sol\":12956:12971  tTransferAmount */\n      dup6\n        /* \"contracts/Token.sol\":12928:12972  Transfer(sender, recipient, tTransferAmount) */\n      mload(0x40)\n      dup1\n      dup3\n      dup2\n      mstore\n      0x20\n      add\n      swap2\n      pop\n      pop\n      mload(0x40)\n      dup1\n      swap2\n      sub\n      swap1\n      log3\n        /* \"contracts/Token.sol\":12417:12980  function _transferFromExcluded(address sender, address recipient, uint256 tAmount) private {\r... */\n      pop\n      pop\n      pop\n      pop\n      pop\n      pop\n      pop\n      pop\n      pop\n      jump\t// out\n        /* \"contracts/Token.sol\":11834:12409  function _transferToExcluded(address sender, address recipient, uint256 tAmount) private {\r... */\n    tag_448:\n        /* \"contracts/Token.sol\":11935:11950  uint256 rAmount */\n      0x00\n        /* \"contracts/Token.sol\":11952:11975  uint256 rTransferAmount */\n      dup1\n        /* \"contracts/Token.sol\":11977:11989  uint256 rFee */\n      0x00\n        /* \"contracts/Token.sol\":11991:12014  uint256 tTransferAmount */\n      dup1\n        /* \"contracts/Token.sol\":12016:12028  uint256 tFee */\n      0x00\n        /* \"contracts/Token.sol\":12030:12048  uint256 tLiquidity */\n      dup1\n        /* \"contracts/Token.sol\":12052:12071  _getValues(tAmount) */\n      tag_533\n        /* \"contracts/Token.sol\":12063:12070  tAmount */\n      dup8\n        /* \"contracts/Token.sol\":12052:12062  _getValues */\n      tag_278\n        /* \"contracts/Token.sol\":12052:12071  _getValues(tAmount) */\n      jump\t// in\n    tag_533:\n        /* \"contracts/Token.sol\":11934:12071  (uint256 rAmount, uint256 rTransferAmount, uint256 rFee, uint256 tTransferAmount, uint256 tFee, uint256 tLiquidity) = _getValues(tAmount) */\n      swap6\n      pop\n      swap6\n      pop\n      swap6\n      pop\n      swap6\n      pop\n      swap6\n      pop\n      swap6\n      pop\n        /* \"contracts/Token.sol\":12100:12128  _rOwned[sender].sub(rAmount) */\n      tag_534\n        /* \"contracts/Token.sol\":12120:12127  rAmount */\n      dup7\n        /* \"contracts/Token.sol\":12100:12107  _rOwned */\n      0x04\n        /* \"contracts/Token.sol\":12100:12115  _rOwned[sender] */\n      0x00\n        /* \"contracts/Token.sol\":12108:12114  sender */\n      dup13\n        /* \"contracts/Token.sol\":12100:12115  _rOwned[sender] */\n      0xffffffffffffffffffffffffffffffffffffffff\n      and\n      0xffffffffffffffffffffffffffffffffffffffff\n      and\n      dup2\n      mstore\n      0x20\n      add\n      swap1\n      dup2\n      mstore\n      0x20\n      add\n      0x00\n      keccak256\n      sload\n        /* \"contracts/Token.sol\":12100:12119  _rOwned[sender].sub */\n      tag_280\n      swap1\n        /* \"contracts/Token.sol\":12100:12128  _rOwned[sender].sub(rAmount) */\n      swap2\n      swap1\n      0xffffffff\n      and\n      jump\t// in\n    tag_534:\n        /* \"contracts/Token.sol\":12082:12089  _rOwned */\n      0x04\n        /* \"contracts/Token.sol\":12082:12097  _rOwned[sender] */\n      0x00\n        /* \"contracts/Token.sol\":12090:12096  sender */\n      dup12\n        /* \"contracts/Token.sol\":12082:12097  _rOwned[sender] */\n      0xffffffffffffffffffffffffffffffffffffffff\n      and\n      0xffffffffffffffffffffffffffffffffffffffff\n      and\n      dup2\n      mstore\n      0x20\n      add\n      swap1\n      dup2\n      mstore\n      0x20\n      add\n      0x00\n      keccak256\n        /* \"contracts/Token.sol\":12082:12128  _rOwned[sender] = _rOwned[sender].sub(rAmount) */\n      dup2\n      swap1\n      sstore\n      pop\n        /* \"contracts/Token.sol\":12160:12199  _tOwned[recipient].add(tTransferAmount) */\n      tag_535\n        /* \"contracts/Token.sol\":12183:12198  tTransferAmount */\n      dup4\n        /* \"contracts/Token.sol\":12160:12167  _tOwned */\n      0x05\n        /* \"contracts/Token.sol\":12160:12178  _tOwned[recipient] */\n      0x00\n        /* \"contracts/Token.sol\":12168:12177  recipient */\n      dup12\n        /* \"contracts/Token.sol\":12160:12178  _tOwned[recipient] */\n      0xffffffffffffffffffffffffffffffffffffffff\n      and\n      0xffffffffffffffffffffffffffffffffffffffff\n      and\n      dup2\n      mstore\n      0x20\n      add\n      swap1\n      dup2\n      mstore\n      0x20\n      add\n      0x00\n      keccak256\n      sload\n        /* \"contracts/Token.sol\":12160:12182  _tOwned[recipient].add */\n      tag_273\n      swap1\n        /* \"contracts/Token.sol\":12160:12199  _tOwned[recipient].add(tTransferAmount) */\n      swap2\n      swap1\n      0xffffffff\n      and\n      jump\t// in\n    tag_535:\n        /* \"contracts/Token.sol\":12139:12146  _tOwned */\n      0x05\n        /* \"contracts/Token.sol\":12139:12157  _tOwned[recipient] */\n      0x00\n        /* \"contracts/Token.sol\":12147:12156  recipient */\n      dup11\n        /* \"contracts/Token.sol\":12139:12157  _tOwned[recipient] */\n      0xffffffffffffffffffffffffffffffffffffffff\n      and\n      0xffffffffffffffffffffffffffffffffffffffff\n      and\n      dup2\n      mstore\n      0x20\n      add\n      swap1\n      dup2\n      mstore\n      0x20\n      add\n      0x00\n      keccak256\n        /* \"contracts/Token.sol\":12139:12199  _tOwned[recipient] = _tOwned[recipient].add(tTransferAmount) */\n      dup2\n      swap1\n      sstore\n      pop\n        /* \"contracts/Token.sol\":12231:12270  _rOwned[recipient].add(rTransferAmount) */\n      tag_536\n        /* \"contracts/Token.sol\":12254:12269  rTransferAmount */\n      dup6\n        /* \"contracts/Token.sol\":12231:12238  _rOwned */\n      0x04\n        /* \"contracts/Token.sol\":12231:12249  _rOwned[recipient] */\n      0x00\n        /* \"contracts/Token.sol\":12239:12248  recipient */\n      dup12\n        /* \"contracts/Token.sol\":12231:12249  _rOwned[recipient] */\n      0xffffffffffffffffffffffffffffffffffffffff\n      and\n      0xffffffffffffffffffffffffffffffffffffffff\n      and\n      dup2\n      mstore\n      0x20\n      add\n      swap1\n      dup2\n      mstore\n      0x20\n      add\n      0x00\n      keccak256\n      sload\n        /* \"contracts/Token.sol\":12231:12253  _rOwned[recipient].add */\n      tag_273\n      swap1\n        /* \"contracts/Token.sol\":12231:12270  _rOwned[recipient].add(rTransferAmount) */\n      swap2\n      swap1\n      0xffffffff\n      and\n      jump\t// in\n    tag_536:\n        /* \"contracts/Token.sol\":12210:12217  _rOwned */\n      0x04\n        /* \"contracts/Token.sol\":12210:12228  _rOwned[recipient] */\n      0x00\n        /* \"contracts/Token.sol\":12218:12227  recipient */\n      dup11\n        /* \"contracts/Token.sol\":12210:12228  _rOwned[recipient] */\n      0xffffffffffffffffffffffffffffffffffffffff\n      and\n      0xffffffffffffffffffffffffffffffffffffffff\n      and\n      dup2\n      mstore\n      0x20\n      add\n      swap1\n      dup2\n      mstore\n      0x20\n      add\n      0x00\n      keccak256\n        /* \"contracts/Token.sol\":12210:12270  _rOwned[recipient] = _rOwned[recipient].add(rTransferAmount) */\n      dup2\n      swap1\n      sstore\n      pop\n        /* \"contracts/Token.sol\":12281:12307  _takeLiquidity(tLiquidity) */\n      tag_537\n        /* \"contracts/Token.sol\":12296:12306  tLiquidity */\n      dup2\n        /* \"contracts/Token.sol\":12281:12295  _takeLiquidity */\n      tag_529\n        /* \"contracts/Token.sol\":12281:12307  _takeLiquidity(tLiquidity) */\n      jump\t// in\n    tag_537:\n        /* \"contracts/Token.sol\":12318:12341  _reflectFee(rFee, tFee) */\n      tag_538\n        /* \"contracts/Token.sol\":12330:12334  rFee */\n      dup5\n        /* \"contracts/Token.sol\":12336:12340  tFee */\n      dup4\n        /* \"contracts/Token.sol\":12318:12329  _reflectFee */\n      tag_531\n        /* \"contracts/Token.sol\":12318:12341  _reflectFee(rFee, tFee) */\n      jump\t// in\n    tag_538:\n        /* \"contracts/Token.sol\":12374:12383  recipient */\n      dup8\n        /* \"contracts/Token.sol\":12357:12401  Transfer(sender, recipient, tTransferAmount) */\n      0xffffffffffffffffffffffffffffffffffffffff\n      and\n        /* \"contracts/Token.sol\":12366:12372  sender */\n      dup10\n        /* \"contracts/Token.sol\":12357:12401  Transfer(sender, recipient, tTransferAmount) */\n      0xffffffffffffffffffffffffffffffffffffffff\n      and\n      0xddf252ad1be2c89b69c2b068fc378daa952ba7f163c4a11628f55a4df523b3ef\n        /* \"contracts/Token.sol\":12385:12400  tTransferAmount */\n      dup6\n        /* \"contracts/Token.sol\":12357:12401  Transfer(sender, recipient, tTransferAmount) */\n      mload(0x40)\n      dup1\n      dup3\n      dup2\n      mstore\n      0x20\n      add\n      swap2\n      pop\n      pop\n      mload(0x40)\n      dup1\n      swap2\n      sub\n      swap1\n      log3\n        /* \"contracts/Token.sol\":11834:12409  function _transferToExcluded(address sender, address recipient, uint256 tAmount) private {\r... */\n      pop\n      pop\n      pop\n      pop\n      pop\n      pop\n      pop\n      pop\n      pop\n      jump\t// out\n        /* \"contracts/Token.sol\":12988:13622  function _transferBothExcluded(address sender, address recipient, uint256 tAmount) private {\r... */\n    tag_453:\n        /* \"contracts/Token.sol\":13091:13106  uint256 rAmount */\n      0x00\n        /* \"contracts/Token.sol\":13108:13131  uint256 rTransferAmount */\n      dup1\n        /* \"contracts/Token.sol\":13133:13145  uint256 rFee */\n      0x00\n        /* \"contracts/Token.sol\":13147:13170  uint256 tTransferAmount */\n      dup1\n        /* \"contracts/Token.sol\":13172:13184  uint256 tFee */\n      0x00\n        /* \"contracts/Token.sol\":13186:13204  uint256 tLiquidity */\n      dup1\n        /* \"contracts/Token.sol\":13208:13227  _getValues(tAmount) */\n      tag_540\n        /* \"contracts/Token.sol\":13219:13226  tAmount */\n      dup8\n        /* \"contracts/Token.sol\":13208:13218  _getValues */\n      tag_278\n        /* \"contracts/Token.sol\":13208:13227  _getValues(tAmount) */\n      jump\t// in\n    tag_540:\n        /* \"contracts/Token.sol\":13090:13227  (uint256 rAmount, uint256 rTransferAmount, uint256 rFee, uint256 tTransferAmount, uint256 tFee, uint256 tLiquidity) = _getValues(tAmount) */\n      swap6\n      pop\n      swap6\n      pop\n      swap6\n      pop\n      swap6\n      pop\n      swap6\n      pop\n      swap6\n      pop\n        /* \"contracts/Token.sol\":13256:13284  _tOwned[sender].sub(tAmount) */\n      tag_541\n        /* \"contracts/Token.sol\":13276:13283  tAmount */\n      dup8\n        /* \"contracts/Token.sol\":13256:13263  _tOwned */\n      0x05\n        /* \"contracts/Token.sol\":13256:13271  _tOwned[sender] */\n      0x00\n        /* \"contracts/Token.sol\":13264:13270  sender */\n      dup13\n        /* \"contracts/Token.sol\":13256:13271  _tOwned[sender] */\n      0xffffffffffffffffffffffffffffffffffffffff\n      and\n      0xffffffffffffffffffffffffffffffffffffffff\n      and\n      dup2\n      mstore\n      0x20\n      add\n      swap1\n      dup2\n      mstore\n      0x20\n      add\n      0x00\n      keccak256\n      sload\n        /* \"contracts/Token.sol\":13256:13275  _tOwned[sender].sub */\n      tag_280\n      swap1\n        /* \"contracts/Token.sol\":13256:13284  _tOwned[sender].sub(tAmount) */\n      swap2\n      swap1\n      0xffffffff\n      and\n      jump\t// in\n    tag_541:\n        /* \"contracts/Token.sol\":13238:13245  _tOwned */\n      0x05\n        /* \"contracts/Token.sol\":13238:13253  _tOwned[sender] */\n      0x00\n        /* \"contracts/Token.sol\":13246:13252  sender */\n      dup12\n        /* \"contracts/Token.sol\":13238:13253  _tOwned[sender] */\n      0xffffffffffffffffffffffffffffffffffffffff\n      and\n      0xffffffffffffffffffffffffffffffffffffffff\n      and\n      dup2\n      mstore\n      0x20\n      add\n      swap1\n      dup2\n      mstore\n      0x20\n      add\n      0x00\n      keccak256\n        /* \"contracts/Token.sol\":13238:13284  _tOwned[sender] = _tOwned[sender].sub(tAmount) */\n      dup2\n      swap1\n      sstore\n      pop\n        /* \"contracts/Token.sol\":13313:13341  _rOwned[sender].sub(rAmount) */\n      tag_542\n        /* \"contracts/Token.sol\":13333:13340  rAmount */\n      dup7\n        /* \"contracts/Token.sol\":13313:13320  _rOwned */\n      0x04\n        /* \"contracts/Token.sol\":13313:13328  _rOwned[sender] */\n      0x00\n        /* \"contracts/Token.sol\":13321:13327  sender */\n      dup13\n        /* \"contracts/Token.sol\":13313:13328  _rOwned[sender] */\n      0xffffffffffffffffffffffffffffffffffffffff\n      and\n      0xffffffffffffffffffffffffffffffffffffffff\n      and\n      dup2\n      mstore\n      0x20\n      add\n      swap1\n      dup2\n      mstore\n      0x20\n      add\n      0x00\n      keccak256\n      sload\n        /* \"contracts/Token.sol\":13313:13332  _rOwned[sender].sub */\n      tag_280\n      swap1\n        /* \"contracts/Token.sol\":13313:13341  _rOwned[sender].sub(rAmount) */\n      swap2\n      swap1\n      0xffffffff\n      and\n      jump\t// in\n    tag_542:\n        /* \"contracts/Token.sol\":13295:13302  _rOwned */\n      0x04\n        /* \"contracts/Token.sol\":13295:13310  _rOwned[sender] */\n      0x00\n        /* \"contracts/Token.sol\":13303:13309  sender */\n      dup12\n        /* \"contracts/Token.sol\":13295:13310  _rOwned[sender] */\n      0xffffffffffffffffffffffffffffffffffffffff\n      and\n      0xffffffffffffffffffffffffffffffffffffffff\n      and\n      dup2\n      mstore\n      0x20\n      add\n      swap1\n      dup2\n      mstore\n      0x20\n      add\n      0x00\n      keccak256\n        /* \"contracts/Token.sol\":13295:13341  _rOwned[sender] = _rOwned[sender].sub(rAmount) */\n      dup2\n      swap1\n      sstore\n      pop\n        /* \"contracts/Token.sol\":13373:13412  _tOwned[recipient].add(tTransferAmount) */\n      tag_543\n        /* \"contracts/Token.sol\":13396:13411  tTransferAmount */\n      dup4\n        /* \"contracts/Token.sol\":13373:13380  _tOwned */\n      0x05\n        /* \"contracts/Token.sol\":13373:13391  _tOwned[recipient] */\n      0x00\n        /* \"contracts/Token.sol\":13381:13390  recipient */\n      dup12\n        /* \"contracts/Token.sol\":13373:13391  _tOwned[recipient] */\n      0xffffffffffffffffffffffffffffffffffffffff\n      and\n      0xffffffffffffffffffffffffffffffffffffffff\n      and\n      dup2\n      mstore\n      0x20\n      add\n      swap1\n      dup2\n      mstore\n      0x20\n      add\n      0x00\n      keccak256\n      sload\n        /* \"contracts/Token.sol\":13373:13395  _tOwned[recipient].add */\n      tag_273\n      swap1\n        /* \"contracts/Token.sol\":13373:13412  _tOwned[recipient].add(tTransferAmount) */\n      swap2\n      swap1\n      0xffffffff\n      and\n      jump\t// in\n    tag_543:\n        /* \"contracts/Token.sol\":13352:13359  _tOwned */\n      0x05\n        /* \"contracts/Token.sol\":13352:13370  _tOwned[recipient] */\n      0x00\n        /* \"contracts/Token.sol\":13360:13369  recipient */\n      dup11\n        /* \"contracts/Token.sol\":13352:13370  _tOwned[recipient] */\n      0xffffffffffffffffffffffffffffffffffffffff\n      and\n      0xffffffffffffffffffffffffffffffffffffffff\n      and\n      dup2\n      mstore\n      0x20\n      add\n      swap1\n      dup2\n      mstore\n      0x20\n      add\n      0x00\n      keccak256\n        /* \"contracts/Token.sol\":13352:13412  _tOwned[recipient] = _tOwned[recipient].add(tTransferAmount) */\n      dup2\n      swap1\n      sstore\n      pop\n        /* \"contracts/Token.sol\":13444:13483  _rOwned[recipient].add(rTransferAmount) */\n      tag_544\n        /* \"contracts/Token.sol\":13467:13482  rTransferAmount */\n      dup6\n        /* \"contracts/Token.sol\":13444:13451  _rOwned */\n      0x04\n        /* \"contracts/Token.sol\":13444:13462  _rOwned[recipient] */\n      0x00\n        /* \"contracts/Token.sol\":13452:13461  recipient */\n      dup12\n        /* \"contracts/Token.sol\":13444:13462  _rOwned[recipient] */\n      0xffffffffffffffffffffffffffffffffffffffff\n      and\n      0xffffffffffffffffffffffffffffffffffffffff\n      and\n      dup2\n      mstore\n      0x20\n      add\n      swap1\n      dup2\n      mstore\n      0x20\n      add\n      0x00\n      keccak256\n      sload\n        /* \"contracts/Token.sol\":13444:13466  _rOwned[recipient].add */\n      tag_273\n      swap1\n        /* \"contracts/Token.sol\":13444:13483  _rOwned[recipient].add(rTransferAmount) */\n      swap2\n      swap1\n      0xffffffff\n      and\n      jump\t// in\n    tag_544:\n        /* \"contracts/Token.sol\":13423:13430  _rOwned */\n      0x04\n        /* \"contracts/Token.sol\":13423:13441  _rOwned[recipient] */\n      0x00\n        /* \"contracts/Token.sol\":13431:13440  recipient */\n      dup11\n        /* \"contracts/Token.sol\":13423:13441  _rOwned[recipient] */\n      0xffffffffffffffffffffffffffffffffffffffff\n      and\n      0xffffffffffffffffffffffffffffffffffffffff\n      and\n      dup2\n      mstore\n      0x20\n      add\n      swap1\n      dup2\n      mstore\n      0x20\n      add\n      0x00\n      keccak256\n        /* \"contracts/Token.sol\":13423:13483  _rOwned[recipient] = _rOwned[recipient].add(rTransferAmount) */\n      dup2\n      swap1\n      sstore\n      pop\n        /* \"contracts/Token.sol\":13494:13520  _takeLiquidity(tLiquidity) */\n      tag_545\n        /* \"contracts/Token.sol\":13509:13519  tLiquidity */\n      dup2\n        /* \"contracts/Token.sol\":13494:13508  _takeLiquidity */\n      tag_529\n        /* \"contracts/Token.sol\":13494:13520  _takeLiquidity(tLiquidity) */\n      jump\t// in\n    tag_545:\n        /* \"contracts/Token.sol\":13531:13554  _reflectFee(rFee, tFee) */\n      tag_546\n        /* \"contracts/Token.sol\":13543:13547  rFee */\n      dup5\n        /* \"contracts/Token.sol\":13549:13553  tFee */\n      dup4\n        /* \"contracts/Token.sol\":13531:13542  _reflectFee */\n      tag_531\n        /* \"contracts/Token.sol\":13531:13554  _reflectFee(rFee, tFee) */\n      jump\t// in\n    tag_546:\n        /* \"contracts/Token.sol\":13587:13596  recipient */\n      dup8\n        /* \"contracts/Token.sol\":13570:13614  Transfer(sender, recipient, tTransferAmount) */\n      0xffffffffffffffffffffffffffffffffffffffff\n      and\n        /* \"contracts/Token.sol\":13579:13585  sender */\n      dup10\n        /* \"contracts/Token.sol\":13570:13614  Transfer(sender, recipient, tTransferAmount) */\n      0xffffffffffffffffffffffffffffffffffffffff\n      and\n      0xddf252ad1be2c89b69c2b068fc378daa952ba7f163c4a11628f55a4df523b3ef\n        /* \"contracts/Token.sol\":13598:13613  tTransferAmount */\n      dup6\n        /* \"contracts/Token.sol\":13570:13614  Transfer(sender, recipient, tTransferAmount) */\n      mload(0x40)\n      dup1\n      dup3\n      dup2\n      mstore\n      0x20\n      add\n      swap2\n      pop\n      pop\n      mload(0x40)\n      dup1\n      swap2\n      sub\n      swap1\n      log3\n        /* \"contracts/Token.sol\":12988:13622  function _transferBothExcluded(address sender, address recipient, uint256 tAmount) private {\r... */\n      pop\n      pop\n      pop\n      pop\n      pop\n      pop\n      pop\n      pop\n      pop\n      jump\t// out\n        /* \"contracts/Token.sol\":11324:11826  function _transferStandard(address sender, address recipient, uint256 tAmount) private {\r... */\n    tag_456:\n        /* \"contracts/Token.sol\":11423:11438  uint256 rAmount */\n      0x00\n        /* \"contracts/Token.sol\":11440:11463  uint256 rTransferAmount */\n      dup1\n        /* \"contracts/Token.sol\":11465:11477  uint256 rFee */\n      0x00\n        /* \"contracts/Token.sol\":11479:11502  uint256 tTransferAmount */\n      dup1\n        /* \"contracts/Token.sol\":11504:11516  uint256 tFee */\n      0x00\n        /* \"contracts/Token.sol\":11518:11536  uint256 tLiquidity */\n      dup1\n        /* \"contracts/Token.sol\":11540:11559  _getValues(tAmount) */\n      tag_548\n        /* \"contracts/Token.sol\":11551:11558  tAmount */\n      dup8\n        /* \"contracts/Token.sol\":11540:11550  _getValues */\n      tag_278\n        /* \"contracts/Token.sol\":11540:11559  _getValues(tAmount) */\n      jump\t// in\n    tag_548:\n        /* \"contracts/Token.sol\":11422:11559  (uint256 rAmount, uint256 rTransferAmount, uint256 rFee, uint256 tTransferAmount, uint256 tFee, uint256 tLiquidity) = _getValues(tAmount) */\n      swap6\n      pop\n      swap6\n      pop\n      swap6\n      pop\n      swap6\n      pop\n      swap6\n      pop\n      swap6\n      pop\n        /* \"contracts/Token.sol\":11588:11616  _rOwned[sender].sub(rAmount) */\n      tag_549\n        /* \"contracts/Token.sol\":11608:11615  rAmount */\n      dup7\n        /* \"contracts/Token.sol\":11588:11595  _rOwned */\n      0x04\n        /* \"contracts/Token.sol\":11588:11603  _rOwned[sender] */\n      0x00\n        /* \"contracts/Token.sol\":11596:11602  sender */\n      dup13\n        /* \"contracts/Token.sol\":11588:11603  _rOwned[sender] */\n      0xffffffffffffffffffffffffffffffffffffffff\n      and\n      0xffffffffffffffffffffffffffffffffffffffff\n      and\n      dup2\n      mstore\n      0x20\n      add\n      swap1\n      dup2\n      mstore\n      0x20\n      add\n      0x00\n      keccak256\n      sload\n        /* \"contracts/Token.sol\":11588:11607  _rOwned[sender].sub */\n      tag_280\n      swap1\n        /* \"contracts/Token.sol\":11588:11616  _rOwned[sender].sub(rAmount) */\n      swap2\n      swap1\n      0xffffffff\n      and\n      jump\t// in\n    tag_549:\n        /* \"contracts/Token.sol\":11570:11577  _rOwned */\n      0x04\n        /* \"contracts/Token.sol\":11570:11585  _rOwned[sender] */\n      0x00\n        /* \"contracts/Token.sol\":11578:11584  sender */\n      dup12\n        /* \"contracts/Token.sol\":11570:11585  _rOwned[sender] */\n      0xffffffffffffffffffffffffffffffffffffffff\n      and\n      0xffffffffffffffffffffffffffffffffffffffff\n      and\n      dup2\n      mstore\n      0x20\n      add\n      swap1\n      dup2\n      mstore\n      0x20\n      add\n      0x00\n      keccak256\n        /* \"contracts/Token.sol\":11570:11616  _rOwned[sender] = _rOwned[sender].sub(rAmount) */\n      dup2\n      swap1\n      sstore\n      pop\n        /* \"contracts/Token.sol\":11648:11687  _rOwned[recipient].add(rTransferAmount) */\n      tag_550\n        /* \"contracts/Token.sol\":11671:11686  rTransferAmount */\n      dup6\n        /* \"contracts/Token.sol\":11648:11655  _rOwned */\n      0x04\n        /* \"contracts/Token.sol\":11648:11666  _rOwned[recipient] */\n      0x00\n        /* \"contracts/Token.sol\":11656:11665  recipient */\n      dup12\n        /* \"contracts/Token.sol\":11648:11666  _rOwned[recipient] */\n      0xffffffffffffffffffffffffffffffffffffffff\n      and\n      0xffffffffffffffffffffffffffffffffffffffff\n      and\n      dup2\n      mstore\n      0x20\n      add\n      swap1\n      dup2\n      mstore\n      0x20\n      add\n      0x00\n      keccak256\n      sload\n        /* \"contracts/Token.sol\":11648:11670  _rOwned[recipient].add */\n      tag_273\n      swap1\n        /* \"contracts/Token.sol\":11648:11687  _rOwned[recipient].add(rTransferAmount) */\n      swap2\n      swap1\n      0xffffffff\n      and\n      jump\t// in\n    tag_550:\n        /* \"contracts/Token.sol\":11627:11634  _rOwned */\n      0x04\n        /* \"contracts/Token.sol\":11627:11645  _rOwned[recipient] */\n      0x00\n        /* \"contracts/Token.sol\":11635:11644  recipient */\n      dup11\n        /* \"contracts/Token.sol\":11627:11645  _rOwned[recipient] */\n      0xffffffffffffffffffffffffffffffffffffffff\n      and\n      0xffffffffffffffffffffffffffffffffffffffff\n      and\n      dup2\n      mstore\n      0x20\n      add\n      swap1\n      dup2\n      mstore\n      0x20\n      add\n      0x00\n      keccak256\n        /* \"contracts/Token.sol\":11627:11687  _rOwned[recipient] = _rOwned[recipient].add(rTransferAmount) */\n      dup2\n      swap1\n      sstore\n      pop\n        /* \"contracts/Token.sol\":11698:11724  _takeLiquidity(tLiquidity) */\n      tag_551\n        /* \"contracts/Token.sol\":11713:11723  tLiquidity */\n      dup2\n        /* \"contracts/Token.sol\":11698:11712  _takeLiquidity */\n      tag_529\n        /* \"contracts/Token.sol\":11698:11724  _takeLiquidity(tLiquidity) */\n      jump\t// in\n    tag_551:\n        /* \"contracts/Token.sol\":11735:11758  _reflectFee(rFee, tFee) */\n      tag_552\n        /* \"contracts/Token.sol\":11747:11751  rFee */\n      dup5\n        /* \"contracts/Token.sol\":11753:11757  tFee */\n      dup4\n        /* \"contracts/Token.sol\":11735:11746  _reflectFee */\n      tag_531\n        /* \"contracts/Token.sol\":11735:11758  _reflectFee(rFee, tFee) */\n      jump\t// in\n    tag_552:\n        /* \"contracts/Token.sol\":11791:11800  recipient */\n      dup8\n        /* \"contracts/Token.sol\":11774:11818  Transfer(sender, recipient, tTransferAmount) */\n      0xffffffffffffffffffffffffffffffffffffffff\n      and\n        /* \"contracts/Token.sol\":11783:11789  sender */\n      dup10\n        /* \"contracts/Token.sol\":11774:11818  Transfer(sender, recipient, tTransferAmount) */\n      0xffffffffffffffffffffffffffffffffffffffff\n      and\n      0xddf252ad1be2c89b69c2b068fc378daa952ba7f163c4a11628f55a4df523b3ef\n        /* \"contracts/Token.sol\":11802:11817  tTransferAmount */\n      dup6\n        /* \"contracts/Token.sol\":11774:11818  Transfer(sender, recipient, tTransferAmount) */\n      mload(0x40)\n      dup1\n      dup3\n      dup2\n      mstore\n      0x20\n      add\n      swap2\n      pop\n      pop\n      mload(0x40)\n      dup1\n      swap2\n      sub\n      swap1\n      log3\n        /* \"contracts/Token.sol\":11324:11826  function _transferStandard(address sender, address recipient, uint256 tAmount) private {\r... */\n      pop\n      pop\n      pop\n      pop\n      pop\n      pop\n      pop\n      pop\n      pop\n      jump\t// out\n        /* \"contracts/Token.sol\":16669:16794  function restoreAllFee() private {\r... */\n    tag_459:\n        /* \"contracts/Token.sol\":16723:16738  _previousTaxFee */\n      sload(0x13)\n        /* \"contracts/Token.sol\":16713:16720  _taxFee */\n      0x12\n        /* \"contracts/Token.sol\":16713:16738  _taxFee = _previousTaxFee */\n      dup2\n      swap1\n      sstore\n      pop\n        /* \"contracts/Token.sol\":16765:16786  _previousLiquidityFee */\n      sload(0x15)\n        /* \"contracts/Token.sol\":16749:16762  _liquidityFee */\n      0x14\n        /* \"contracts/Token.sol\":16749:16786  _liquidityFee = _previousLiquidityFee */\n      dup2\n      swap1\n      sstore\n      pop\n        /* \"contracts/Token.sol\":16669:16794  function restoreAllFee() private {\r... */\n      jump\t// out\n        /* \"contracts/Token.sol\":16086:16242  function calculateTaxFee(uint256 _amount) private view returns (uint256) {\r... */\n    tag_487:\n        /* \"contracts/Token.sol\":16150:16157  uint256 */\n      0x00\n        /* \"contracts/Token.sol\":16177:16234  _amount.mul(_taxFee).div(\r... */\n      tag_555\n        /* \"contracts/Token.sol\":16216:16223  10 ** 2 */\n      0x64\n        /* \"contracts/Token.sol\":16177:16197  _amount.mul(_taxFee) */\n      tag_556\n        /* \"contracts/Token.sol\":16189:16196  _taxFee */\n      sload(0x12)\n        /* \"contracts/Token.sol\":16177:16184  _amount */\n      dup6\n        /* \"contracts/Token.sol\":16177:16188  _amount.mul */\n      tag_389\n      swap1\n        /* \"contracts/Token.sol\":16177:16197  _amount.mul(_taxFee) */\n      swap2\n      swap1\n      0xffffffff\n      and\n      jump\t// in\n    tag_556:\n        /* \"contracts/Token.sol\":16177:16201  _amount.mul(_taxFee).div */\n      tag_232\n      swap1\n        /* \"contracts/Token.sol\":16177:16234  _amount.mul(_taxFee).div(\r... */\n      swap2\n      swap1\n      0xffffffff\n      and\n      jump\t// in\n    tag_555:\n        /* \"contracts/Token.sol\":16170:16234  return _amount.mul(_taxFee).div(\r... */\n      swap1\n      pop\n        /* \"contracts/Token.sol\":16086:16242  function calculateTaxFee(uint256 _amount) private view returns (uint256) {\r... */\n      swap2\n      swap1\n      pop\n      jump\t// out\n        /* \"contracts/Token.sol\":16250:16418  function calculateLiquidityFee(uint256 _amount) private view returns (uint256) {\r... */\n    tag_489:\n        /* \"contracts/Token.sol\":16320:16327  uint256 */\n      0x00\n        /* \"contracts/Token.sol\":16347:16410  _amount.mul(_liquidityFee).div(\r... */\n      tag_558\n        /* \"contracts/Token.sol\":16392:16399  10 ** 2 */\n      0x64\n        /* \"contracts/Token.sol\":16347:16373  _amount.mul(_liquidityFee) */\n      tag_559\n        /* \"contracts/Token.sol\":16359:16372  _liquidityFee */\n      sload(0x14)\n        /* \"contracts/Token.sol\":16347:16354  _amount */\n      dup6\n        /* \"contracts/Token.sol\":16347:16358  _amount.mul */\n      tag_389\n      swap1\n        /* \"contracts/Token.sol\":16347:16373  _amount.mul(_liquidityFee) */\n      swap2\n      swap1\n      0xffffffff\n      and\n      jump\t// in\n    tag_559:\n        /* \"contracts/Token.sol\":16347:16377  _amount.mul(_liquidityFee).div */\n      tag_232\n      swap1\n        /* \"contracts/Token.sol\":16347:16410  _amount.mul(_liquidityFee).div(\r... */\n      swap2\n      swap1\n      0xffffffff\n      and\n      jump\t// in\n    tag_558:\n        /* \"contracts/Token.sol\":16340:16410  return _amount.mul(_liquidityFee).div(\r... */\n      swap1\n      pop\n        /* \"contracts/Token.sol\":16250:16418  function calculateLiquidityFee(uint256 _amount) private view returns (uint256) {\r... */\n      swap2\n      swap1\n      pop\n      jump\t// out\n        /* \"contracts/Token.sol\":15723:16078  function _takeLiquidity(uint256 tLiquidity) private {\r... */\n    tag_529:\n        /* \"contracts/Token.sol\":15786:15805  uint256 currentRate */\n      0x00\n        /* \"contracts/Token.sol\":15808:15818  _getRate() */\n      tag_561\n        /* \"contracts/Token.sol\":15808:15816  _getRate */\n      tag_230\n        /* \"contracts/Token.sol\":15808:15818  _getRate() */\n      jump\t// in\n    tag_561:\n        /* \"contracts/Token.sol\":15786:15818  uint256 currentRate = _getRate() */\n      swap1\n      pop\n        /* \"contracts/Token.sol\":15829:15847  uint256 rLiquidity */\n      0x00\n        /* \"contracts/Token.sol\":15850:15877  tLiquidity.mul(currentRate) */\n      tag_562\n        /* \"contracts/Token.sol\":15865:15876  currentRate */\n      dup3\n        /* \"contracts/Token.sol\":15850:15860  tLiquidity */\n      dup5\n        /* \"contracts/Token.sol\":15850:15864  tLiquidity.mul */\n      tag_389\n      swap1\n        /* \"contracts/Token.sol\":15850:15877  tLiquidity.mul(currentRate) */\n      swap2\n      swap1\n      0xffffffff\n      and\n      jump\t// in\n    tag_562:\n        /* \"contracts/Token.sol\":15829:15877  uint256 rLiquidity = tLiquidity.mul(currentRate) */\n      swap1\n      pop\n        /* \"contracts/Token.sol\":15913:15951  _rOwned[address(this)].add(rLiquidity) */\n      tag_563\n        /* \"contracts/Token.sol\":15940:15950  rLiquidity */\n      dup2\n        /* \"contracts/Token.sol\":15913:15920  _rOwned */\n      0x04\n        /* \"contracts/Token.sol\":15913:15935  _rOwned[address(this)] */\n      0x00\n        /* \"contracts/Token.sol\":15929:15933  this */\n      address\n        /* \"contracts/Token.sol\":15913:15935  _rOwned[address(this)] */\n      0xffffffffffffffffffffffffffffffffffffffff\n      and\n      0xffffffffffffffffffffffffffffffffffffffff\n      and\n      dup2\n      mstore\n      0x20\n      add\n      swap1\n      dup2\n      mstore\n      0x20\n      add\n      0x00\n      keccak256\n      sload\n        /* \"contracts/Token.sol\":15913:15939  _rOwned[address(this)].add */\n      tag_273\n      swap1\n        /* \"contracts/Token.sol\":15913:15951  _rOwned[address(this)].add(rLiquidity) */\n      swap2\n      swap1\n      0xffffffff\n      and\n      jump\t// in\n    tag_563:\n        /* \"contracts/Token.sol\":15888:15895  _rOwned */\n      0x04\n        /* \"contracts/Token.sol\":15888:15910  _rOwned[address(this)] */\n      0x00\n        /* \"contracts/Token.sol\":15904:15908  this */\n      address\n        /* \"contracts/Token.sol\":15888:15910  _rOwned[address(this)] */\n      0xffffffffffffffffffffffffffffffffffffffff\n      and\n      0xffffffffffffffffffffffffffffffffffffffff\n      and\n      dup2\n      mstore\n      0x20\n      add\n      swap1\n      dup2\n      mstore\n      0x20\n      add\n      0x00\n      keccak256\n        /* \"contracts/Token.sol\":15888:15951  _rOwned[address(this)] = _rOwned[address(this)].add(rLiquidity) */\n      dup2\n      swap1\n      sstore\n      pop\n        /* \"contracts/Token.sol\":15966:15977  _isExcluded */\n      0x0a\n        /* \"contracts/Token.sol\":15966:15992  _isExcluded[address(this)] */\n      0x00\n        /* \"contracts/Token.sol\":15986:15990  this */\n      address\n        /* \"contracts/Token.sol\":15966:15992  _isExcluded[address(this)] */\n      0xffffffffffffffffffffffffffffffffffffffff\n      and\n      0xffffffffffffffffffffffffffffffffffffffff\n      and\n      dup2\n      mstore\n      0x20\n      add\n      swap1\n      dup2\n      mstore\n      0x20\n      add\n      0x00\n      keccak256\n      0x00\n      swap1\n      sload\n      swap1\n      0x0100\n      exp\n      swap1\n      div\n      0xff\n      and\n        /* \"contracts/Token.sol\":15962:16070  if (_isExcluded[address(this)])\r... */\n      iszero\n      tag_564\n      jumpi\n        /* \"contracts/Token.sol\":16032:16070  _tOwned[address(this)].add(tLiquidity) */\n      tag_565\n        /* \"contracts/Token.sol\":16059:16069  tLiquidity */\n      dup4\n        /* \"contracts/Token.sol\":16032:16039  _tOwned */\n      0x05\n        /* \"contracts/Token.sol\":16032:16054  _tOwned[address(this)] */\n      0x00\n        /* \"contracts/Token.sol\":16048:16052  this */\n      address\n        /* \"contracts/Token.sol\":16032:16054  _tOwned[address(this)] */\n      0xffffffffffffffffffffffffffffffffffffffff\n      and\n      0xffffffffffffffffffffffffffffffffffffffff\n      and\n      dup2\n      mstore\n      0x20\n      add\n      swap1\n      dup2\n      mstore\n      0x20\n      add\n      0x00\n      keccak256\n      sload\n        /* \"contracts/Token.sol\":16032:16058  _tOwned[address(this)].add */\n      tag_273\n      swap1\n        /* \"contracts/Token.sol\":16032:16070  _tOwned[address(this)].add(tLiquidity) */\n      swap2\n      swap1\n      0xffffffff\n      and\n      jump\t// in\n    tag_565:\n        /* \"contracts/Token.sol\":16007:16014  _tOwned */\n      0x05\n        /* \"contracts/Token.sol\":16007:16029  _tOwned[address(this)] */\n      0x00\n        /* \"contracts/Token.sol\":16023:16027  this */\n      address\n        /* \"contracts/Token.sol\":16007:16029  _tOwned[address(this)] */\n      0xffffffffffffffffffffffffffffffffffffffff\n      and\n      0xffffffffffffffffffffffffffffffffffffffff\n      and\n      dup2\n      mstore\n      0x20\n      add\n      swap1\n      dup2\n      mstore\n      0x20\n      add\n      0x00\n      keccak256\n        /* \"contracts/Token.sol\":16007:16070  _tOwned[address(this)] = _tOwned[address(this)].add(tLiquidity) */\n      dup2\n      swap1\n      sstore\n      pop\n        /* \"contracts/Token.sol\":15962:16070  if (_isExcluded[address(this)])\r... */\n    tag_564:\n        /* \"contracts/Token.sol\":15723:16078  function _takeLiquidity(uint256 tLiquidity) private {\r... */\n      pop\n      pop\n      pop\n      jump\t// out\n        /* \"contracts/Token.sol\":13630:13777  function _reflectFee(uint256 rFee, uint256 tFee) private {\r... */\n    tag_531:\n        /* \"contracts/Token.sol\":13708:13725  _rTotal.sub(rFee) */\n      tag_567\n        /* \"contracts/Token.sol\":13720:13724  rFee */\n      dup3\n        /* \"contracts/Token.sol\":13708:13715  _rTotal */\n      sload(0x0d)\n        /* \"contracts/Token.sol\":13708:13719  _rTotal.sub */\n      tag_280\n      swap1\n        /* \"contracts/Token.sol\":13708:13725  _rTotal.sub(rFee) */\n      swap2\n      swap1\n      0xffffffff\n      and\n      jump\t// in\n    tag_567:\n        /* \"contracts/Token.sol\":13698:13705  _rTotal */\n      0x0d\n        /* \"contracts/Token.sol\":13698:13725  _rTotal = _rTotal.sub(rFee) */\n      dup2\n      swap1\n      sstore\n      pop\n        /* \"contracts/Token.sol\":13749:13769  _tFeeTotal.add(tFee) */\n      tag_568\n        /* \"contracts/Token.sol\":13764:13768  tFee */\n      dup2\n        /* \"contracts/Token.sol\":13749:13759  _tFeeTotal */\n      sload(0x0e)\n        /* \"contracts/Token.sol\":13749:13763  _tFeeTotal.add */\n      tag_273\n      swap1\n        /* \"contracts/Token.sol\":13749:13769  _tFeeTotal.add(tFee) */\n      swap2\n      swap1\n      0xffffffff\n      and\n      jump\t// in\n    tag_568:\n        /* \"contracts/Token.sol\":13736:13746  _tFeeTotal */\n      0x0e\n        /* \"contracts/Token.sol\":13736:13769  _tFeeTotal = _tFeeTotal.add(tFee) */\n      dup2\n      swap1\n      sstore\n      pop\n        /* \"contracts/Token.sol\":13630:13777  function _reflectFee(uint256 rFee, uint256 tFee) private {\r... */\n      pop\n      pop\n      jump\t// out\n    stop\n    data_0557e210f7a69a685100a7e4e3d0a7024c546085cee28910fd17d0b081d9516f 45524332303a207472616e7366657220746f20746865207a65726f2061646472657373\n    data_22f7af55a509c3b14f0d528f087748dec8a8bf425135e3f5dc28c6a31ec6d812 416d6f756e74206d757374206265206c657373207468616e20746f74616c207265666c656374696f6e73\n    data_245f15ff17f551913a7a18385165551503906a406f905ac1c2437281a7cd0cfe 4f776e61626c653a206e6577206f776e657220697320746865207a65726f2061646472657373\n    data_24883cc5fe64ace9d0df1893501ecb93c77180f0ff69cca79affb3c316dc8029 45524332303a20617070726f766520746f20746865207a65726f2061646472657373\n    data_9113bb53c2876a3805b2c9242029423fc540a728243ce887ab24c82cf119fba3 536166654d6174683a206d756c7469706c69636174696f6e206f766572666c6f77\n    data_974d1b4421da69cc60b481194f0dad36a5bb4e23da810da7a7fb30cdba178330 45524332303a207472616e7366657220616d6f756e74206578636565647320616c6c6f77616e6365\n    data_9edb5ab58321f35d2386ea65721c9b107daa2c273610fc16d394af2a320ba785 5472616e7366657220616d6f756e74206d7573742062652067726561746572207468616e207a65726f\n    data_baecc556b46f4ed0f2b4cb599d60785ac8563dd2dc0a5bf12edea1c39e5e1fea 45524332303a207472616e736665722066726f6d20746865207a65726f2061646472657373\n    data_c953f4879035ed60e766b34720f656aab5c697b141d924c283124ecedb91c208 45524332303a20617070726f76652066726f6d20746865207a65726f2061646472657373\n    data_ecefcaf5fbcf9ca6dcdb02298ba1da96f4ead317b0a4779917ecb2e5e7dc3ac4 4578636c75646564206164647265737365732063616e6e6f742063616c6c20746869732066756e6374696f6e\n    data_f8b476f7d28209d77d4a4ac1fe36b9f8259aa1bb6bddfa6e89de7e51615cf8a8 45524332303a2064656372656173656420616c6c6f77616e63652062656c6f77207a65726f\n\n    auxdata: 0xa26469706673582212207da69ca7104fdb784d1f3176de9c2a1402d9ffe454e52ec33cac11b0c00dda2364736f6c634300060c0033\n}\n",
				"bytecode": {
					"linkReferences": {},
					"object": "60a06040527340da1dd681ec6175c3bcfe1641cd2826a99ebdd8600360006101000a81548173ffffffffffffffffffffffffffffffffffffffff021916908373ffffffffffffffffffffffffffffffffffffffff16021790555061dead73ffffffffffffffffffffffffffffffffffffffff1660809073ffffffffffffffffffffffffffffffffffffffff1660601b81525069021e19e0c9bab2400000600c55600c5460001981620000ad57fe5b0660001903600d556040518060400160405280600b81526020017f43726f6e69635368696261000000000000000000000000000000000000000000815250600f908051906020019062000102929190620006c8565b506040518060400160405280600681526020017f43524f4e494300000000000000000000000000000000000000000000000000008152506010908051906020019062000150929190620006c8565b506009601160006101000a81548160ff021916908360ff1602179055506003601255601254601355600660145560145460155560026016556000601960156101000a81548160ff021916908315150217905550348015620001b057600080fd5b5060405162005e4638038062005e4683398181016040526040811015620001d657600080fd5b810190808051906020019092919080519060200190929190505050600062000203620006c060201b60201c565b9050806000806101000a81548173ffffffffffffffffffffffffffffffffffffffff021916908373ffffffffffffffffffffffffffffffffffffffff1602179055508073ffffffffffffffffffffffffffffffffffffffff16600073ffffffffffffffffffffffffffffffffffffffff167f8be0079c531659141344cd1fd0a4f28419497f9722a3daafe3b4186f6b6457e060405160405180910390a350600d54600460003373ffffffffffffffffffffffffffffffffffffffff1673ffffffffffffffffffffffffffffffffffffffff16815260200190815260200160002081905550620002f7620006c060201b60201c565b73ffffffffffffffffffffffffffffffffffffffff16600073ffffffffffffffffffffffffffffffffffffffff167fddf252ad1be2c89b69c2b068fc378daa952ba7f163c4a11628f55a4df523b3ef600c546040518082815260200191505060405180910390a360008190508073ffffffffffffffffffffffffffffffffffffffff1663c45a01556040518163ffffffff1660e01b815260040160206040518083038186803b158015620003aa57600080fd5b505afa158015620003bf573d6000803e3d6000fd5b505050506040513d6020811015620003d657600080fd5b810190808051906020019092919050505073ffffffffffffffffffffffffffffffffffffffff1663c9c65396308373ffffffffffffffffffffffffffffffffffffffff1663ad5c46486040518163ffffffff1660e01b815260040160206040518083038186803b1580156200044a57600080fd5b505afa1580156200045f573d6000803e3d6000fd5b505050506040513d60208110156200047657600080fd5b81019080805190602001909291905050506040518363ffffffff1660e01b8152600401808373ffffffffffffffffffffffffffffffffffffffff1681526020018273ffffffffffffffffffffffffffffffffffffffff16815260200192505050602060405180830381600087803b158015620004f157600080fd5b505af115801562000506573d6000803e3d6000fd5b505050506040513d60208110156200051d57600080fd5b8101908080519060200190929190505050601960006101000a81548173ffffffffffffffffffffffffffffffffffffffff021916908373ffffffffffffffffffffffffffffffffffffffff16021790555080601860006101000a81548173ffffffffffffffffffffffffffffffffffffffff021916908373ffffffffffffffffffffffffffffffffffffffff1602179055506001600960003373ffffffffffffffffffffffffffffffffffffffff1673ffffffffffffffffffffffffffffffffffffffff16815260200190815260200160002060006101000a81548160ff0219169083151502179055506001600960008573ffffffffffffffffffffffffffffffffffffffff1673ffffffffffffffffffffffffffffffffffffffff16815260200190815260200160002060006101000a81548160ff0219169083151502179055506001600960003073ffffffffffffffffffffffffffffffffffffffff1673ffffffffffffffffffffffffffffffffffffffff16815260200190815260200160002060006101000a81548160ff0219169083151502179055505050506200076e565b600033905090565b828054600181600116156101000203166002900490600052602060002090601f016020900481019282601f106200070b57805160ff19168380011785556200073c565b828001600101855582156200073c579182015b828111156200073b5782518255916020019190600101906200071e565b5b5090506200074b91906200074f565b5090565b5b808211156200076a57600081600090555060010162000750565b5090565b60805160601c6156ba6200078c6000398061113352506156ba6000f3fe60806040526004361061023f5760003560e01c80635342acb41161012e57806395d89b41116100ab578063db2e21bc1161006f578063db2e21bc14610cfd578063dd62ed3e14610d14578063ea2f0b3714610d99578063f2fde38b14610dea578063f375b25314610e3b57610246565b806395d89b4114610b33578063a457c2d714610bc3578063a5ece94114610c34578063a9059cbb14610c75578063c9567bf914610ce657610246565b806387ceff09116100f257806387ceff09146109d457806388f82020146109ff5780638da5cb5b14610a665780638ee88c5314610aa7578063906e9dd014610ae257610246565b80635342acb41461085f578063610d5b19146108c65780636bc87c3a1461092d57806370a0823114610958578063715018a6146109bd57610246565b8063362a3c5d116101bc578063437823ec11610180578063437823ec146106e65780634549b0391461073757806345596e2e1461079257806349bd5a5e146107cd57806352390c021461080e57610246565b8063362a3c5d1461056d5780633685d419146105be578063395093511461060f5780633b124fe7146106805780633bd5d173146106ab57610246565b806318160ddd1161020357806318160ddd146103f357806323b872dd1461041e57806327c8f835146104af5780632d838119146104f0578063313ce5671461053f57610246565b8063061c82d01461024b57806306fdde0314610286578063095ea7b31461031657806313114a9d146103875780631694505e146103b257610246565b3661024657005b600080fd5b34801561025757600080fd5b506102846004803603602081101561026e57600080fd5b8101908080359060200190929190505050610e8c565b005b34801561029257600080fd5b5061029b610f5e565b6040518080602001828103825283818151815260200191508051906020019080838360005b838110156102db5780820151818401526020810190506102c0565b50505050905090810190601f1680156103085780820380516001836020036101000a031916815260200191505b509250505060405180910390f35b34801561032257600080fd5b5061036f6004803603604081101561033957600080fd5b81019080803573ffffffffffffffffffffffffffffffffffffffff16906020019092919080359060200190929190505050611000565b60405180821515815260200191505060405180910390f35b34801561039357600080fd5b5061039c61101e565b6040518082815260200191505060405180910390f35b3480156103be57600080fd5b506103c7611028565b604051808273ffffffffffffffffffffffffffffffffffffffff16815260200191505060405180910390f35b3480156103ff57600080fd5b5061040861104e565b6040518082815260200191505060405180910390f35b34801561042a57600080fd5b506104976004803603606081101561044157600080fd5b81019080803573ffffffffffffffffffffffffffffffffffffffff169060200190929190803573ffffffffffffffffffffffffffffffffffffffff16906020019092919080359060200190929190505050611058565b60405180821515815260200191505060405180910390f35b3480156104bb57600080fd5b506104c4611131565b604051808273ffffffffffffffffffffffffffffffffffffffff16815260200191505060405180910390f35b3480156104fc57600080fd5b506105296004803603602081101561051357600080fd5b8101908080359060200190929190505050611155565b6040518082815260200191505060405180910390f35b34801561054b57600080fd5b506105546111d9565b604051808260ff16815260200191505060405180910390f35b34801561057957600080fd5b506105bc6004803603602081101561059057600080fd5b81019080803573ffffffffffffffffffffffffffffffffffffffff1690602001909291905050506111f0565b005b3480156105ca57600080fd5b5061060d600480360360208110156105e157600080fd5b81019080803573ffffffffffffffffffffffffffffffffffffffff169060200190929190505050611535565b005b34801561061b57600080fd5b506106686004803603604081101561063257600080fd5b81019080803573ffffffffffffffffffffffffffffffffffffffff169060200190929190803590602001909291905050506118bf565b60405180821515815260200191505060405180910390f35b34801561068c57600080fd5b50610695611972565b6040518082815260200191505060405180910390f35b3480156106b757600080fd5b506106e4600480360360208110156106ce57600080fd5b8101908080359060200190929190505050611978565b005b3480156106f257600080fd5b506107356004803603602081101561070957600080fd5b81019080803573ffffffffffffffffffffffffffffffffffffffff169060200190929190505050611b09565b005b34801561074357600080fd5b5061077c6004803603604081101561075a57600080fd5b8101908080359060200190929190803515159060200190929190505050611c2c565b6040518082815260200191505060405180910390f35b34801561079e57600080fd5b506107cb600480360360208110156107b557600080fd5b8101908080359060200190929190505050611ce3565b005b3480156107d957600080fd5b506107e2611db5565b604051808273ffffffffffffffffffffffffffffffffffffffff16815260200191505060405180910390f35b34801561081a57600080fd5b5061085d6004803603602081101561083157600080fd5b81019080803573ffffffffffffffffffffffffffffffffffffffff169060200190929190505050611ddb565b005b34801561086b57600080fd5b506108ae6004803603602081101561088257600080fd5b81019080803573ffffffffffffffffffffffffffffffffffffffff1690602001909291905050506120f5565b60405180821515815260200191505060405180910390f35b3480156108d257600080fd5b50610915600480360360208110156108e957600080fd5b81019080803573ffffffffffffffffffffffffffffffffffffffff16906020019092919050505061214b565b60405180821515815260200191505060405180910390f35b34801561093957600080fd5b506109426121a1565b6040518082815260200191505060405180910390f35b34801561096457600080fd5b506109a76004803603602081101561097b57600080fd5b81019080803573ffffffffffffffffffffffffffffffffffffffff1690602001909291905050506121a7565b6040518082815260200191505060405180910390f35b3480156109c957600080fd5b506109d2612292565b005b3480156109e057600080fd5b506109e9612418565b6040518082815260200191505060405180910390f35b348015610a0b57600080fd5b50610a4e60048036036020811015610a2257600080fd5b81019080803573ffffffffffffffffffffffffffffffffffffffff169060200190929190505050612420565b60405180821515815260200191505060405180910390f35b348015610a7257600080fd5b50610a7b612476565b604051808273ffffffffffffffffffffffffffffffffffffffff16815260200191505060405180910390f35b348015610ab357600080fd5b50610ae060048036036020811015610aca57600080fd5b810190808035906020019092919050505061249f565b005b348015610aee57600080fd5b50610b3160048036036020811015610b0557600080fd5b81019080803573ffffffffffffffffffffffffffffffffffffffff169060200190929190505050612571565b005b348015610b3f57600080fd5b50610b4861267d565b6040518080602001828103825283818151815260200191508051906020019080838360005b83811015610b88578082015181840152602081019050610b6d565b50505050905090810190601f168015610bb55780820380516001836020036101000a031916815260200191505b509250505060405180910390f35b348015610bcf57600080fd5b50610c1c60048036036040811015610be657600080fd5b81019080803573ffffffffffffffffffffffffffffffffffffffff1690602001909291908035906020019092919050505061271f565b60405180821515815260200191505060405180910390f35b348015610c4057600080fd5b50610c496127ec565b604051808273ffffffffffffffffffffffffffffffffffffffff16815260200191505060405180910390f35b348015610c8157600080fd5b50610cce60048036036040811015610c9857600080fd5b81019080803573ffffffffffffffffffffffffffffffffffffffff16906020019092919080359060200190929190505050612812565b60405180821515815260200191505060405180910390f35b348015610cf257600080fd5b50610cfb612830565b005b348015610d0957600080fd5b50610d1261291c565b005b348015610d2057600080fd5b50610d8360048036036040811015610d3757600080fd5b81019080803573ffffffffffffffffffffffffffffffffffffffff169060200190929190803573ffffffffffffffffffffffffffffffffffffffff169060200190929190505050612a34565b6040518082815260200191505060405180910390f35b348015610da557600080fd5b50610de860048036036020811015610dbc57600080fd5b81019080803573ffffffffffffffffffffffffffffffffffffffff169060200190929190505050612abb565b005b348015610df657600080fd5b50610e3960048036036020811015610e0d57600080fd5b81019080803573ffffffffffffffffffffffffffffffffffffffff169060200190929190505050612bde565b005b348015610e4757600080fd5b50610e8a60048036036020811015610e5e57600080fd5b81019080803573ffffffffffffffffffffffffffffffffffffffff169060200190929190505050612de9565b005b610e946130e5565b73ffffffffffffffffffffffffffffffffffffffff1660008054906101000a900473ffffffffffffffffffffffffffffffffffffffff1673ffffffffffffffffffffffffffffffffffffffff1614610f54576040517f08c379a00000000000000000000000000000000000000000000000000000000081526004018080602001828103825260208152602001807f4f776e61626c653a2063616c6c6572206973206e6f7420746865206f776e657281525060200191505060405180910390fd5b8060128190555050565b6060600f8054600181600116156101000203166002900480601f016020809104026020016040519081016040528092919081815260200182805460018160011615610100020316600290048015610ff65780601f10610fcb57610100808354040283529160200191610ff6565b820191906000526020600020905b815481529060010190602001808311610fd957829003601f168201915b5050505050905090565b600061101461100d6130e5565b84846130ed565b6001905092915050565b6000600e54905090565b601860009054906101000a900473ffffffffffffffffffffffffffffffffffffffff1681565b6000600c54905090565b60006110658484846132e4565b611126846110716130e5565b6111218560405180606001604052806028815260200161559a60289139600660008b73ffffffffffffffffffffffffffffffffffffffff1673ffffffffffffffffffffffffffffffffffffffff16815260200190815260200160002060006110d76130e5565b73ffffffffffffffffffffffffffffffffffffffff1673ffffffffffffffffffffffffffffffffffffffff16815260200190815260200160002054613ae09092919063ffffffff16565b6130ed565b600190509392505050565b7f000000000000000000000000000000000000000000000000000000000000000081565b6000600d548211156111b2576040517f08c379a000000000000000000000000000000000000000000000000000000000815260040180806020018281038252602a815260200180615507602a913960400191505060405180910390fd5b60006111bc613ba0565b90506111d18184613bcb90919063ffffffff16565b915050919050565b6000601160009054906101000a900460ff16905090565b6111f86130e5565b73ffffffffffffffffffffffffffffffffffffffff1660008054906101000a900473ffffffffffffffffffffffffffffffffffffffff1673ffffffffffffffffffffffffffffffffffffffff16146112b8576040517f08c379a00000000000000000000000000000000000000000000000000000000081526004018080602001828103825260208152602001807f4f776e61626c653a2063616c6c6572206973206e6f7420746865206f776e657281525060200191505060405180910390fd5b600760008273ffffffffffffffffffffffffffffffffffffffff1673ffffffffffffffffffffffffffffffffffffffff16815260200190815260200160002060009054906101000a900460ff16611377576040517f08c379a000000000000000000000000000000000000000000000000000000000815260040180806020018281038252601a8152602001807f4163636f756e74206973206e6f7420626c61636b6c697374656400000000000081525060200191505060405180910390fd5b60005b600880549050811015611531578173ffffffffffffffffffffffffffffffffffffffff16600882815481106113ab57fe5b9060005260206000200160009054906101000a900473ffffffffffffffffffffffffffffffffffffffff1673ffffffffffffffffffffffffffffffffffffffff1614156115245760086001600880549050038154811061140757fe5b9060005260206000200160009054906101000a900473ffffffffffffffffffffffffffffffffffffffff166008828154811061143f57fe5b9060005260206000200160006101000a81548173ffffffffffffffffffffffffffffffffffffffff021916908373ffffffffffffffffffffffffffffffffffffffff1602179055506000600760008473ffffffffffffffffffffffffffffffffffffffff1673ffffffffffffffffffffffffffffffffffffffff16815260200190815260200160002060006101000a81548160ff02191690831515021790555060088054806114ea57fe5b6001900381819060005260206000200160006101000a81549073ffffffffffffffffffffffffffffffffffffffff02191690559055611531565b808060010191505061137a565b5050565b61153d6130e5565b73ffffffffffffffffffffffffffffffffffffffff1660008054906101000a900473ffffffffffffffffffffffffffffffffffffffff1673ffffffffffffffffffffffffffffffffffffffff16146115fd576040517f08c379a00000000000000000000000000000000000000000000000000000000081526004018080602001828103825260208152602001807f4f776e61626c653a2063616c6c6572206973206e6f7420746865206f776e657281525060200191505060405180910390fd5b600a60008273ffffffffffffffffffffffffffffffffffffffff1673ffffffffffffffffffffffffffffffffffffffff16815260200190815260200160002060009054906101000a900460ff166116bc576040517f08c379a000000000000000000000000000000000000000000000000000000000815260040180806020018281038252601b8152602001807f4163636f756e7420697320616c7265616479206578636c75646564000000000081525060200191505060405180910390fd5b60005b600b805490508110156118bb578173ffffffffffffffffffffffffffffffffffffffff16600b82815481106116f057fe5b9060005260206000200160009054906101000a900473ffffffffffffffffffffffffffffffffffffffff1673ffffffffffffffffffffffffffffffffffffffff1614156118ae57600b6001600b80549050038154811061174c57fe5b9060005260206000200160009054906101000a900473ffffffffffffffffffffffffffffffffffffffff16600b828154811061178457fe5b9060005260206000200160006101000a81548173ffffffffffffffffffffffffffffffffffffffff021916908373ffffffffffffffffffffffffffffffffffffffff1602179055506000600560008473ffffffffffffffffffffffffffffffffffffffff1673ffffffffffffffffffffffffffffffffffffffff168152602001908152602001600020819055506000600a60008473ffffffffffffffffffffffffffffffffffffffff1673ffffffffffffffffffffffffffffffffffffffff16815260200190815260200160002060006101000a81548160ff021916908315150217905550600b80548061187457fe5b6001900381819060005260206000200160006101000a81549073ffffffffffffffffffffffffffffffffffffffff021916905590556118bb565b80806001019150506116bf565b5050565b60006119686118cc6130e5565b8461196385600660006118dd6130e5565b73ffffffffffffffffffffffffffffffffffffffff1673ffffffffffffffffffffffffffffffffffffffff16815260200190815260200160002060008973ffffffffffffffffffffffffffffffffffffffff1673ffffffffffffffffffffffffffffffffffffffff16815260200190815260200160002054613c1590919063ffffffff16565b6130ed565b6001905092915050565b60125481565b60006119826130e5565b9050600a60008273ffffffffffffffffffffffffffffffffffffffff1673ffffffffffffffffffffffffffffffffffffffff16815260200190815260200160002060009054906101000a900460ff1615611a27576040517f08c379a000000000000000000000000000000000000000000000000000000000815260040180806020018281038252602c815260200180615634602c913960400191505060405180910390fd5b6000611a3283613c9d565b50505050509050611a8b81600460008573ffffffffffffffffffffffffffffffffffffffff1673ffffffffffffffffffffffffffffffffffffffff16815260200190815260200160002054613cf990919063ffffffff16565b600460008473ffffffffffffffffffffffffffffffffffffffff1673ffffffffffffffffffffffffffffffffffffffff16815260200190815260200160002081905550611ae381600d54613cf990919063ffffffff16565b600d81905550611afe83600e54613c1590919063ffffffff16565b600e81905550505050565b611b116130e5565b73ffffffffffffffffffffffffffffffffffffffff1660008054906101000a900473ffffffffffffffffffffffffffffffffffffffff1673ffffffffffffffffffffffffffffffffffffffff1614611bd1576040517f08c379a00000000000000000000000000000000000000000000000000000000081526004018080602001828103825260208152602001807f4f776e61626c653a2063616c6c6572206973206e6f7420746865206f776e657281525060200191505060405180910390fd5b6001600960008373ffffffffffffffffffffffffffffffffffffffff1673ffffffffffffffffffffffffffffffffffffffff16815260200190815260200160002060006101000a81548160ff02191690831515021790555050565b6000600c54831115611ca6576040517f08c379a000000000000000000000000000000000000000000000000000000000815260040180806020018281038252601f8152602001807f416d6f756e74206d757374206265206c657373207468616e20737570706c790081525060200191505060405180910390fd5b81611cc6576000611cb684613c9d565b5050505050905080915050611cdd565b6000611cd184613c9d565b50505050915050809150505b92915050565b611ceb6130e5565b73ffffffffffffffffffffffffffffffffffffffff1660008054906101000a900473ffffffffffffffffffffffffffffffffffffffff1673ffffffffffffffffffffffffffffffffffffffff1614611dab576040517f08c379a00000000000000000000000000000000000000000000000000000000081526004018080602001828103825260208152602001807f4f776e61626c653a2063616c6c6572206973206e6f7420746865206f776e657281525060200191505060405180910390fd5b8060168190555050565b601960009054906101000a900473ffffffffffffffffffffffffffffffffffffffff1681565b611de36130e5565b73ffffffffffffffffffffffffffffffffffffffff1660008054906101000a900473ffffffffffffffffffffffffffffffffffffffff1673ffffffffffffffffffffffffffffffffffffffff1614611ea3576040517f08c379a00000000000000000000000000000000000000000000000000000000081526004018080602001828103825260208152602001807f4f776e61626c653a2063616c6c6572206973206e6f7420746865206f776e657281525060200191505060405180910390fd5b600a60008273ffffffffffffffffffffffffffffffffffffffff1673ffffffffffffffffffffffffffffffffffffffff16815260200190815260200160002060009054906101000a900460ff1615611f63576040517f08c379a000000000000000000000000000000000000000000000000000000000815260040180806020018281038252601b8152602001807f4163636f756e7420697320616c7265616479206578636c75646564000000000081525060200191505060405180910390fd5b6000600460008373ffffffffffffffffffffffffffffffffffffffff1673ffffffffffffffffffffffffffffffffffffffff16815260200190815260200160002054111561203757611ff3600460008373ffffffffffffffffffffffffffffffffffffffff1673ffffffffffffffffffffffffffffffffffffffff16815260200190815260200160002054611155565b600560008373ffffffffffffffffffffffffffffffffffffffff1673ffffffffffffffffffffffffffffffffffffffff168152602001908152602001600020819055505b6001600a60008373ffffffffffffffffffffffffffffffffffffffff1673ffffffffffffffffffffffffffffffffffffffff16815260200190815260200160002060006101000a81548160ff021916908315150217905550600b819080600181540180825580915050600190039060005260206000200160009091909190916101000a81548173ffffffffffffffffffffffffffffffffffffffff021916908373ffffffffffffffffffffffffffffffffffffffff16021790555050565b6000600960008373ffffffffffffffffffffffffffffffffffffffff1673ffffffffffffffffffffffffffffffffffffffff16815260200190815260200160002060009054906101000a900460ff169050919050565b6000600760008373ffffffffffffffffffffffffffffffffffffffff1673ffffffffffffffffffffffffffffffffffffffff16815260200190815260200160002060009054906101000a900460ff169050919050565b60145481565b6000600a60008373ffffffffffffffffffffffffffffffffffffffff1673ffffffffffffffffffffffffffffffffffffffff16815260200190815260200160002060009054906101000a900460ff161561224257600560008373ffffffffffffffffffffffffffffffffffffffff1673ffffffffffffffffffffffffffffffffffffffff16815260200190815260200160002054905061228d565b61228a600460008473ffffffffffffffffffffffffffffffffffffffff1673ffffffffffffffffffffffffffffffffffffffff16815260200190815260200160002054611155565b90505b919050565b61229a6130e5565b73ffffffffffffffffffffffffffffffffffffffff1660008054906101000a900473ffffffffffffffffffffffffffffffffffffffff1673ffffffffffffffffffffffffffffffffffffffff161461235a576040517f08c379a00000000000000000000000000000000000000000000000000000000081526004018080602001828103825260208152602001807f4f776e61626c653a2063616c6c6572206973206e6f7420746865206f776e657281525060200191505060405180910390fd5b600073ffffffffffffffffffffffffffffffffffffffff1660008054906101000a900473ffffffffffffffffffffffffffffffffffffffff1673ffffffffffffffffffffffffffffffffffffffff167f8be0079c531659141344cd1fd0a4f28419497f9722a3daafe3b4186f6b6457e060405160405180910390a360008060006101000a81548173ffffffffffffffffffffffffffffffffffffffff021916908373ffffffffffffffffffffffffffffffffffffffff160217905550565b600042905090565b6000600a60008373ffffffffffffffffffffffffffffffffffffffff1673ffffffffffffffffffffffffffffffffffffffff16815260200190815260200160002060009054906101000a900460ff169050919050565b60008060009054906101000a900473ffffffffffffffffffffffffffffffffffffffff16905090565b6124a76130e5565b73ffffffffffffffffffffffffffffffffffffffff1660008054906101000a900473ffffffffffffffffffffffffffffffffffffffff1673ffffffffffffffffffffffffffffffffffffffff1614612567576040517f08c379a00000000000000000000000000000000000000000000000000000000081526004018080602001828103825260208152602001807f4f776e61626c653a2063616c6c6572206973206e6f7420746865206f776e657281525060200191505060405180910390fd5b8060148190555050565b6125796130e5565b73ffffffffffffffffffffffffffffffffffffffff1660008054906101000a900473ffffffffffffffffffffffffffffffffffffffff1673ffffffffffffffffffffffffffffffffffffffff1614612639576040517f08c379a00000000000000000000000000000000000000000000000000000000081526004018080602001828103825260208152602001807f4f776e61626c653a2063616c6c6572206973206e6f7420746865206f776e657281525060200191505060405180910390fd5b80600360006101000a81548173ffffffffffffffffffffffffffffffffffffffff021916908373ffffffffffffffffffffffffffffffffffffffff16021790555050565b606060108054600181600116156101000203166002900480601f0160208091040260200160405190810160405280929190818152602001828054600181600116156101000203166002900480156127155780601f106126ea57610100808354040283529160200191612715565b820191906000526020600020905b8154815290600101906020018083116126f857829003601f168201915b5050505050905090565b60006127e261272c6130e5565b846127dd8560405180606001604052806025815260200161566060259139600660006127566130e5565b73ffffffffffffffffffffffffffffffffffffffff1673ffffffffffffffffffffffffffffffffffffffff16815260200190815260200160002060008a73ffffffffffffffffffffffffffffffffffffffff1673ffffffffffffffffffffffffffffffffffffffff16815260200190815260200160002054613ae09092919063ffffffff16565b6130ed565b6001905092915050565b600360009054906101000a900473ffffffffffffffffffffffffffffffffffffffff1681565b600061282661281f6130e5565b84846132e4565b6001905092915050565b6128386130e5565b73ffffffffffffffffffffffffffffffffffffffff1660008054906101000a900473ffffffffffffffffffffffffffffffffffffffff1673ffffffffffffffffffffffffffffffffffffffff16146128f8576040517f08c379a00000000000000000000000000000000000000000000000000000000081526004018080602001828103825260208152602001807f4f776e61626c653a2063616c6c6572206973206e6f7420746865206f776e657281525060200191505060405180910390fd5b6001601960156101000a81548160ff02191690831515021790555042601781905550565b6129246130e5565b73ffffffffffffffffffffffffffffffffffffffff1660008054906101000a900473ffffffffffffffffffffffffffffffffffffffff1673ffffffffffffffffffffffffffffffffffffffff16146129e4576040517f08c379a00000000000000000000000000000000000000000000000000000000081526004018080602001828103825260208152602001807f4f776e61626c653a2063616c6c6572206973206e6f7420746865206f776e657281525060200191505060405180910390fd5b6129ec612476565b73ffffffffffffffffffffffffffffffffffffffff166108fc479081150290604051600060405180830381858888f19350505050158015612a31573d6000803e3d6000fd5b50565b6000600660008473ffffffffffffffffffffffffffffffffffffffff1673ffffffffffffffffffffffffffffffffffffffff16815260200190815260200160002060008373ffffffffffffffffffffffffffffffffffffffff1673ffffffffffffffffffffffffffffffffffffffff16815260200190815260200160002054905092915050565b612ac36130e5565b73ffffffffffffffffffffffffffffffffffffffff1660008054906101000a900473ffffffffffffffffffffffffffffffffffffffff1673ffffffffffffffffffffffffffffffffffffffff1614612b83576040517f08c379a00000000000000000000000000000000000000000000000000000000081526004018080602001828103825260208152602001807f4f776e61626c653a2063616c6c6572206973206e6f7420746865206f776e657281525060200191505060405180910390fd5b6000600960008373ffffffffffffffffffffffffffffffffffffffff1673ffffffffffffffffffffffffffffffffffffffff16815260200190815260200160002060006101000a81548160ff02191690831515021790555050565b612be66130e5565b73ffffffffffffffffffffffffffffffffffffffff1660008054906101000a900473ffffffffffffffffffffffffffffffffffffffff1673ffffffffffffffffffffffffffffffffffffffff1614612ca6576040517f08c379a00000000000000000000000000000000000000000000000000000000081526004018080602001828103825260208152602001807f4f776e61626c653a2063616c6c6572206973206e6f7420746865206f776e657281525060200191505060405180910390fd5b600073ffffffffffffffffffffffffffffffffffffffff168173ffffffffffffffffffffffffffffffffffffffff161415612d2c576040517f08c379a00000000000000000000000000000000000000000000000000000000081526004018080602001828103825260268152602001806155316026913960400191505060405180910390fd5b8073ffffffffffffffffffffffffffffffffffffffff1660008054906101000a900473ffffffffffffffffffffffffffffffffffffffff1673ffffffffffffffffffffffffffffffffffffffff167f8be0079c531659141344cd1fd0a4f28419497f9722a3daafe3b4186f6b6457e060405160405180910390a3806000806101000a81548173ffffffffffffffffffffffffffffffffffffffff021916908373ffffffffffffffffffffffffffffffffffffffff16021790555050565b612df16130e5565b73ffffffffffffffffffffffffffffffffffffffff1660008054906101000a900473ffffffffffffffffffffffffffffffffffffffff1673ffffffffffffffffffffffffffffffffffffffff1614612eb1576040517f08c379a00000000000000000000000000000000000000000000000000000000081526004018080602001828103825260208152602001807f4f776e61626c653a2063616c6c6572206973206e6f7420746865206f776e657281525060200191505060405180910390fd5b73ec0a7a0c2439e8cb67b992b12ecd020ea943c7be73ffffffffffffffffffffffffffffffffffffffff168173ffffffffffffffffffffffffffffffffffffffff161415612f67576040517f08c379a000000000000000000000000000000000000000000000000000000000815260040180806020018281038252601b8152602001807f57652063616e206e6f7420626c61636b6c69737420526f75746572000000000081525060200191505060405180910390fd5b600760008273ffffffffffffffffffffffffffffffffffffffff1673ffffffffffffffffffffffffffffffffffffffff16815260200190815260200160002060009054906101000a900460ff1615613027576040517f08c379a000000000000000000000000000000000000000000000000000000000815260040180806020018281038252601e8152602001807f4163636f756e7420697320616c726561647920626c61636b6c6973746564000081525060200191505060405180910390fd5b6001600760008373ffffffffffffffffffffffffffffffffffffffff1673ffffffffffffffffffffffffffffffffffffffff16815260200190815260200160002060006101000a81548160ff0219169083151502179055506008819080600181540180825580915050600190039060005260206000200160009091909190916101000a81548173ffffffffffffffffffffffffffffffffffffffff021916908373ffffffffffffffffffffffffffffffffffffffff16021790555050565b600033905090565b600073ffffffffffffffffffffffffffffffffffffffff168373ffffffffffffffffffffffffffffffffffffffff161415613173576040517f08c379a00000000000000000000000000000000000000000000000000000000081526004018080602001828103825260248152602001806156106024913960400191505060405180910390fd5b600073ffffffffffffffffffffffffffffffffffffffff168273ffffffffffffffffffffffffffffffffffffffff1614156131f9576040517f08c379a00000000000000000000000000000000000000000000000000000000081526004018080602001828103825260228152602001806155576022913960400191505060405180910390fd5b80600660008573ffffffffffffffffffffffffffffffffffffffff1673ffffffffffffffffffffffffffffffffffffffff16815260200190815260200160002060008473ffffffffffffffffffffffffffffffffffffffff1673ffffffffffffffffffffffffffffffffffffffff168152602001908152602001600020819055508173ffffffffffffffffffffffffffffffffffffffff168373ffffffffffffffffffffffffffffffffffffffff167f8c5be1e5ebec7d5bd14f71427d1e84f3dd0314c0f7b2291e5b200ac8c7c3b925836040518082815260200191505060405180910390a3505050565b600073ffffffffffffffffffffffffffffffffffffffff168373ffffffffffffffffffffffffffffffffffffffff16141561336a576040517f08c379a00000000000000000000000000000000000000000000000000000000081526004018080602001828103825260258152602001806155eb6025913960400191505060405180910390fd5b600073ffffffffffffffffffffffffffffffffffffffff168273ffffffffffffffffffffffffffffffffffffffff1614156133f0576040517f08c379a00000000000000000000000000000000000000000000000000000000081526004018080602001828103825260238152602001806154e46023913960400191505060405180910390fd5b60008111613449576040517f08c379a00000000000000000000000000000000000000000000000000000000081526004018080602001828103825260298152602001806155c26029913960400191505060405180910390fd5b600760008373ffffffffffffffffffffffffffffffffffffffff1673ffffffffffffffffffffffffffffffffffffffff16815260200190815260200160002060009054906101000a900460ff1615613509576040517f08c379a00000000000000000000000000000000000000000000000000000000081526004018080602001828103825260178152602001807f596f752068617665206e6f20706f77657220686572652100000000000000000081525060200191505060405180910390fd5b600760003373ffffffffffffffffffffffffffffffffffffffff1673ffffffffffffffffffffffffffffffffffffffff16815260200190815260200160002060009054906101000a900460ff16156135c9576040517f08c379a00000000000000000000000000000000000000000000000000000000081526004018080602001828103825260178152602001807f596f752068617665206e6f20706f77657220686572652100000000000000000081525060200191505060405180910390fd5b601960009054906101000a900473ffffffffffffffffffffffffffffffffffffffff1673ffffffffffffffffffffffffffffffffffffffff168373ffffffffffffffffffffffffffffffffffffffff161480156136745750601860009054906101000a900473ffffffffffffffffffffffffffffffffffffffff1673ffffffffffffffffffffffffffffffffffffffff168273ffffffffffffffffffffffffffffffffffffffff1614155b80156136ca5750600960008373ffffffffffffffffffffffffffffffffffffffff1673ffffffffffffffffffffffffffffffffffffffff16815260200190815260200160002060009054906101000a900460ff16155b1561381857601960159054906101000a900460ff16613751576040517f08c379a00000000000000000000000000000000000000000000000000000000081526004018080602001828103825260188152602001807f54726164696e67206e6f742079657420656e61626c65642e000000000000000081525060200191505060405180910390fd5b601754421415613817576001600760008473ffffffffffffffffffffffffffffffffffffffff1673ffffffffffffffffffffffffffffffffffffffff16815260200190815260200160002060006101000a81548160ff0219169083151502179055506008829080600181540180825580915050600190039060005260206000200160009091909190916101000a81548173ffffffffffffffffffffffffffffffffffffffff021916908373ffffffffffffffffffffffffffffffffffffffff1602179055505b5b6000613823306121a7565b9050601960149054906101000a900460ff1615801561384e5750601960159054906101000a900460ff165b80156138a75750601960009054906101000a900473ffffffffffffffffffffffffffffffffffffffff1673ffffffffffffffffffffffffffffffffffffffff168373ffffffffffffffffffffffffffffffffffffffff16145b1561396e57600081111561396d5761390760646138f96016546138eb601960009054906101000a900473ffffffffffffffffffffffffffffffffffffffff166121a7565b613d4390919063ffffffff16565b613bcb90919063ffffffff16565b811115613963576139606064613952601654613944601960009054906101000a900473ffffffffffffffffffffffffffffffffffffffff166121a7565b613d4390919063ffffffff16565b613bcb90919063ffffffff16565b90505b61396c81613dc9565b5b5b6000601960009054906101000a900473ffffffffffffffffffffffffffffffffffffffff1673ffffffffffffffffffffffffffffffffffffffff168573ffffffffffffffffffffffffffffffffffffffff161480613a195750601960009054906101000a900473ffffffffffffffffffffffffffffffffffffffff1673ffffffffffffffffffffffffffffffffffffffff168473ffffffffffffffffffffffffffffffffffffffff16145b8015613ac35750600960008673ffffffffffffffffffffffffffffffffffffffff1673ffffffffffffffffffffffffffffffffffffffff16815260200190815260200160002060009054906101000a900460ff1680613ac15750600960008573ffffffffffffffffffffffffffffffffffffffff1673ffffffffffffffffffffffffffffffffffffffff16815260200190815260200160002060009054906101000a900460ff165b155b15613acd57600190505b613ad985858584613e63565b5050505050565b6000838311158290613b8d576040517f08c379a00000000000000000000000000000000000000000000000000000000081526004018080602001828103825283818151815260200191508051906020019080838360005b83811015613b52578082015181840152602081019050613b37565b50505050905090810190601f168015613b7f5780820380516001836020036101000a031916815260200191505b509250505060405180910390fd5b5060008385039050809150509392505050565b6000806000613bad6140ba565b91509150613bc48183613bcb90919063ffffffff16565b9250505090565b6000613c0d83836040518060400160405280601a81526020017f536166654d6174683a206469766973696f6e206279207a65726f00000000000081525061434b565b905092915050565b600080828401905083811015613c93576040517f08c379a000000000000000000000000000000000000000000000000000000000815260040180806020018281038252601b8152602001807f536166654d6174683a206164646974696f6e206f766572666c6f77000000000081525060200191505060405180910390fd5b8091505092915050565b6000806000806000806000806000613cb48a614411565b9250925092506000806000613cd28d8686613ccd613ba0565b61446b565b9250925092508282828888889b509b509b509b509b509b5050505050505091939550919395565b6000613d3b83836040518060400160405280601e81526020017f536166654d6174683a207375627472616374696f6e206f766572666c6f770000815250613ae0565b905092915050565b600080831415613d565760009050613dc3565b6000828402905082848281613d6757fe5b0414613dbe576040517f08c379a00000000000000000000000000000000000000000000000000000000081526004018080602001828103825260218152602001806155796021913960400191505060405180910390fd5b809150505b92915050565b6001601960146101000a81548160ff021916908315150217905550613ded816144f4565b60004790507f738b737502df4c5f230bbb98a45ea9c2821bad262e880f883357ad3695f8dae48282604051808381526020018281526020019250505060405180910390a16000811115613e4457613e4347614828565b5b506000601960146101000a81548160ff02191690831515021790555050565b80613e7157613e706148cb565b5b600a60008573ffffffffffffffffffffffffffffffffffffffff1673ffffffffffffffffffffffffffffffffffffffff16815260200190815260200160002060009054906101000a900460ff168015613f145750600a60008473ffffffffffffffffffffffffffffffffffffffff1673ffffffffffffffffffffffffffffffffffffffff16815260200190815260200160002060009054906101000a900460ff16155b15613f2957613f2484848461490e565b6140a6565b600a60008573ffffffffffffffffffffffffffffffffffffffff1673ffffffffffffffffffffffffffffffffffffffff16815260200190815260200160002060009054906101000a900460ff16158015613fcc5750600a60008473ffffffffffffffffffffffffffffffffffffffff1673ffffffffffffffffffffffffffffffffffffffff16815260200190815260200160002060009054906101000a900460ff165b15613fe157613fdc848484614b6e565b6140a5565b600a60008573ffffffffffffffffffffffffffffffffffffffff1673ffffffffffffffffffffffffffffffffffffffff16815260200190815260200160002060009054906101000a900460ff1680156140835750600a60008473ffffffffffffffffffffffffffffffffffffffff1673ffffffffffffffffffffffffffffffffffffffff16815260200190815260200160002060009054906101000a900460ff165b1561409857614093848484614dce565b6140a4565b6140a38484846150c3565b5b5b5b806140b4576140b361528e565b5b50505050565b6000806000600d5490506000600c54905060005b600b8054905081101561430e578260046000600b84815481106140ed57fe5b9060005260206000200160009054906101000a900473ffffffffffffffffffffffffffffffffffffffff1673ffffffffffffffffffffffffffffffffffffffff1673ffffffffffffffffffffffffffffffffffffffff1681526020019081526020016000205411806141d457508160056000600b848154811061416c57fe5b9060005260206000200160009054906101000a900473ffffffffffffffffffffffffffffffffffffffff1673ffffffffffffffffffffffffffffffffffffffff1673ffffffffffffffffffffffffffffffffffffffff16815260200190815260200160002054115b156141eb57600d54600c5494509450505050614347565b61427460046000600b84815481106141ff57fe5b9060005260206000200160009054906101000a900473ffffffffffffffffffffffffffffffffffffffff1673ffffffffffffffffffffffffffffffffffffffff1673ffffffffffffffffffffffffffffffffffffffff1681526020019081526020016000205484613cf990919063ffffffff16565b92506142ff60056000600b848154811061428a57fe5b9060005260206000200160009054906101000a900473ffffffffffffffffffffffffffffffffffffffff1673ffffffffffffffffffffffffffffffffffffffff1673ffffffffffffffffffffffffffffffffffffffff1681526020019081526020016000205483613cf990919063ffffffff16565b915080806001019150506140ce565b50614326600c54600d54613bcb90919063ffffffff16565b82101561433e57600d54600c54935093505050614347565b81819350935050505b9091565b600080831182906143f7576040517f08c379a00000000000000000000000000000000000000000000000000000000081526004018080602001828103825283818151815260200191508051906020019080838360005b838110156143bc5780820151818401526020810190506143a1565b50505050905090810190601f1680156143e95780820380516001836020036101000a031916815260200191505b509250505060405180910390fd5b50600083858161440357fe5b049050809150509392505050565b600080600080614420856152a2565b9050600061442d866152d3565b9050600061445682614448858a613cf990919063ffffffff16565b613cf990919063ffffffff16565b90508083839550955095505050509193909250565b6000806000806144848589613d4390919063ffffffff16565b9050600061449b8689613d4390919063ffffffff16565b905060006144b28789613d4390919063ffffffff16565b905060006144db826144cd8587613cf990919063ffffffff16565b613cf990919063ffffffff16565b9050838184965096509650505050509450945094915050565b6060600267ffffffffffffffff8111801561450e57600080fd5b5060405190808252806020026020018201604052801561453d5781602001602082028036833780820191505090505b509050308160008151811061454e57fe5b602002602001019073ffffffffffffffffffffffffffffffffffffffff16908173ffffffffffffffffffffffffffffffffffffffff1681525050601860009054906101000a900473ffffffffffffffffffffffffffffffffffffffff1673ffffffffffffffffffffffffffffffffffffffff1663ad5c46486040518163ffffffff1660e01b815260040160206040518083038186803b1580156145f057600080fd5b505afa158015614604573d6000803e3d6000fd5b505050506040513d602081101561461a57600080fd5b81019080805190602001909291905050508160018151811061463857fe5b602002602001019073ffffffffffffffffffffffffffffffffffffffff16908173ffffffffffffffffffffffffffffffffffffffff168152505061469f30601860009054906101000a900473ffffffffffffffffffffffffffffffffffffffff16846130ed565b601860009054906101000a900473ffffffffffffffffffffffffffffffffffffffff1673ffffffffffffffffffffffffffffffffffffffff1663791ac9478360008430426040518663ffffffff1660e01b815260040180868152602001858152602001806020018473ffffffffffffffffffffffffffffffffffffffff168152602001838152602001828103825285818151815260200191508051906020019060200280838360005b83811015614763578082015181840152602081019050614748565b505050509050019650505050505050600060405180830381600087803b15801561478c57600080fd5b505af11580156147a0573d6000803e3d6000fd5b505050507f32cde87eb454f3a0b875ab23547023107cfad454363ec88ba5695e2c24aa52a782826040518083815260200180602001828103825283818151815260200191508051906020019060200280838360005b838110156148105780820151818401526020810190506147f5565b50505050905001935050505060405180910390a15050565b600360009054906101000a900473ffffffffffffffffffffffffffffffffffffffff1673ffffffffffffffffffffffffffffffffffffffff166108fc829081150290604051600060405180830381858888f19350505050158015614890573d6000803e3d6000fd5b507fb6b34f3cfef2b0bb0e47223ab355ff7c3615a62fe5f469444611e679411246c6816040518082815260200191505060405180910390a150565b60006012541480156148df57506000601454145b156148e95761490c565b601254601381905550601454601581905550600060128190555060006014819055505b565b60008060008060008061492087613c9d565b95509550955095509550955061497e87600560008c73ffffffffffffffffffffffffffffffffffffffff1673ffffffffffffffffffffffffffffffffffffffff16815260200190815260200160002054613cf990919063ffffffff16565b600560008b73ffffffffffffffffffffffffffffffffffffffff1673ffffffffffffffffffffffffffffffffffffffff16815260200190815260200160002081905550614a1386600460008c73ffffffffffffffffffffffffffffffffffffffff1673ffffffffffffffffffffffffffffffffffffffff16815260200190815260200160002054613cf990919063ffffffff16565b600460008b73ffffffffffffffffffffffffffffffffffffffff1673ffffffffffffffffffffffffffffffffffffffff16815260200190815260200160002081905550614aa885600460008b73ffffffffffffffffffffffffffffffffffffffff1673ffffffffffffffffffffffffffffffffffffffff16815260200190815260200160002054613c1590919063ffffffff16565b600460008a73ffffffffffffffffffffffffffffffffffffffff1673ffffffffffffffffffffffffffffffffffffffff16815260200190815260200160002081905550614af481615304565b614afe84836154a9565b8773ffffffffffffffffffffffffffffffffffffffff168973ffffffffffffffffffffffffffffffffffffffff167fddf252ad1be2c89b69c2b068fc378daa952ba7f163c4a11628f55a4df523b3ef856040518082815260200191505060405180910390a3505050505050505050565b600080600080600080614b8087613c9d565b955095509550955095509550614bde86600460008c73ffffffffffffffffffffffffffffffffffffffff1673ffffffffffffffffffffffffffffffffffffffff16815260200190815260200160002054613cf990919063ffffffff16565b600460008b73ffffffffffffffffffffffffffffffffffffffff1673ffffffffffffffffffffffffffffffffffffffff16815260200190815260200160002081905550614c7383600560008b73ffffffffffffffffffffffffffffffffffffffff1673ffffffffffffffffffffffffffffffffffffffff16815260200190815260200160002054613c1590919063ffffffff16565b600560008a73ffffffffffffffffffffffffffffffffffffffff1673ffffffffffffffffffffffffffffffffffffffff16815260200190815260200160002081905550614d0885600460008b73ffffffffffffffffffffffffffffffffffffffff1673ffffffffffffffffffffffffffffffffffffffff16815260200190815260200160002054613c1590919063ffffffff16565b600460008a73ffffffffffffffffffffffffffffffffffffffff1673ffffffffffffffffffffffffffffffffffffffff16815260200190815260200160002081905550614d5481615304565b614d5e84836154a9565b8773ffffffffffffffffffffffffffffffffffffffff168973ffffffffffffffffffffffffffffffffffffffff167fddf252ad1be2c89b69c2b068fc378daa952ba7f163c4a11628f55a4df523b3ef856040518082815260200191505060405180910390a3505050505050505050565b600080600080600080614de087613c9d565b955095509550955095509550614e3e87600560008c73ffffffffffffffffffffffffffffffffffffffff1673ffffffffffffffffffffffffffffffffffffffff16815260200190815260200160002054613cf990919063ffffffff16565b600560008b73ffffffffffffffffffffffffffffffffffffffff1673ffffffffffffffffffffffffffffffffffffffff16815260200190815260200160002081905550614ed386600460008c73ffffffffffffffffffffffffffffffffffffffff1673ffffffffffffffffffffffffffffffffffffffff16815260200190815260200160002054613cf990919063ffffffff16565b600460008b73ffffffffffffffffffffffffffffffffffffffff1673ffffffffffffffffffffffffffffffffffffffff16815260200190815260200160002081905550614f6883600560008b73ffffffffffffffffffffffffffffffffffffffff1673ffffffffffffffffffffffffffffffffffffffff16815260200190815260200160002054613c1590919063ffffffff16565b600560008a73ffffffffffffffffffffffffffffffffffffffff1673ffffffffffffffffffffffffffffffffffffffff16815260200190815260200160002081905550614ffd85600460008b73ffffffffffffffffffffffffffffffffffffffff1673ffffffffffffffffffffffffffffffffffffffff16815260200190815260200160002054613c1590919063ffffffff16565b600460008a73ffffffffffffffffffffffffffffffffffffffff1673ffffffffffffffffffffffffffffffffffffffff1681526020019081526020016000208190555061504981615304565b61505384836154a9565b8773ffffffffffffffffffffffffffffffffffffffff168973ffffffffffffffffffffffffffffffffffffffff167fddf252ad1be2c89b69c2b068fc378daa952ba7f163c4a11628f55a4df523b3ef856040518082815260200191505060405180910390a3505050505050505050565b6000806000806000806150d587613c9d565b95509550955095509550955061513386600460008c73ffffffffffffffffffffffffffffffffffffffff1673ffffffffffffffffffffffffffffffffffffffff16815260200190815260200160002054613cf990919063ffffffff16565b600460008b73ffffffffffffffffffffffffffffffffffffffff1673ffffffffffffffffffffffffffffffffffffffff168152602001908152602001600020819055506151c885600460008b73ffffffffffffffffffffffffffffffffffffffff1673ffffffffffffffffffffffffffffffffffffffff16815260200190815260200160002054613c1590919063ffffffff16565b600460008a73ffffffffffffffffffffffffffffffffffffffff1673ffffffffffffffffffffffffffffffffffffffff1681526020019081526020016000208190555061521481615304565b61521e84836154a9565b8773ffffffffffffffffffffffffffffffffffffffff168973ffffffffffffffffffffffffffffffffffffffff167fddf252ad1be2c89b69c2b068fc378daa952ba7f163c4a11628f55a4df523b3ef856040518082815260200191505060405180910390a3505050505050505050565b601354601281905550601554601481905550565b60006152cc60646152be60125485613d4390919063ffffffff16565b613bcb90919063ffffffff16565b9050919050565b60006152fd60646152ef60145485613d4390919063ffffffff16565b613bcb90919063ffffffff16565b9050919050565b600061530e613ba0565b905060006153258284613d4390919063ffffffff16565b905061537981600460003073ffffffffffffffffffffffffffffffffffffffff1673ffffffffffffffffffffffffffffffffffffffff16815260200190815260200160002054613c1590919063ffffffff16565b600460003073ffffffffffffffffffffffffffffffffffffffff1673ffffffffffffffffffffffffffffffffffffffff16815260200190815260200160002081905550600a60003073ffffffffffffffffffffffffffffffffffffffff1673ffffffffffffffffffffffffffffffffffffffff16815260200190815260200160002060009054906101000a900460ff16156154a45761546083600560003073ffffffffffffffffffffffffffffffffffffffff1673ffffffffffffffffffffffffffffffffffffffff16815260200190815260200160002054613c1590919063ffffffff16565b600560003073ffffffffffffffffffffffffffffffffffffffff1673ffffffffffffffffffffffffffffffffffffffff168152602001908152602001600020819055505b505050565b6154be82600d54613cf990919063ffffffff16565b600d819055506154d981600e54613c1590919063ffffffff16565b600e81905550505056fe45524332303a207472616e7366657220746f20746865207a65726f2061646472657373416d6f756e74206d757374206265206c657373207468616e20746f74616c207265666c656374696f6e734f776e61626c653a206e6577206f776e657220697320746865207a65726f206164647265737345524332303a20617070726f766520746f20746865207a65726f2061646472657373536166654d6174683a206d756c7469706c69636174696f6e206f766572666c6f7745524332303a207472616e7366657220616d6f756e74206578636565647320616c6c6f77616e63655472616e7366657220616d6f756e74206d7573742062652067726561746572207468616e207a65726f45524332303a207472616e736665722066726f6d20746865207a65726f206164647265737345524332303a20617070726f76652066726f6d20746865207a65726f20616464726573734578636c75646564206164647265737365732063616e6e6f742063616c6c20746869732066756e6374696f6e45524332303a2064656372656173656420616c6c6f77616e63652062656c6f77207a65726fa26469706673582212207da69ca7104fdb784d1f3176de9c2a1402d9ffe454e52ec33cac11b0c00dda2364736f6c634300060c0033",
					"opcodes": "PUSH1 0xA0 PUSH1 0x40 MSTORE PUSH20 0x40DA1DD681EC6175C3BCFE1641CD2826A99EBDD8 PUSH1 0x3 PUSH1 0x0 PUSH2 0x100 EXP DUP2 SLOAD DUP2 PUSH20 0xFFFFFFFFFFFFFFFFFFFFFFFFFFFFFFFFFFFFFFFF MUL NOT AND SWAP1 DUP4 PUSH20 0xFFFFFFFFFFFFFFFFFFFFFFFFFFFFFFFFFFFFFFFF AND MUL OR SWAP1 SSTORE POP PUSH2 0xDEAD PUSH20 0xFFFFFFFFFFFFFFFFFFFFFFFFFFFFFFFFFFFFFFFF AND PUSH1 0x80 SWAP1 PUSH20 0xFFFFFFFFFFFFFFFFFFFFFFFFFFFFFFFFFFFFFFFF AND PUSH1 0x60 SHL DUP2 MSTORE POP PUSH10 0x21E19E0C9BAB2400000 PUSH1 0xC SSTORE PUSH1 0xC SLOAD PUSH1 0x0 NOT DUP2 PUSH3 0xAD JUMPI INVALID JUMPDEST MOD PUSH1 0x0 NOT SUB PUSH1 0xD SSTORE PUSH1 0x40 MLOAD DUP1 PUSH1 0x40 ADD PUSH1 0x40 MSTORE DUP1 PUSH1 0xB DUP2 MSTORE PUSH1 0x20 ADD PUSH32 0x43726F6E69635368696261000000000000000000000000000000000000000000 DUP2 MSTORE POP PUSH1 0xF SWAP1 DUP1 MLOAD SWAP1 PUSH1 0x20 ADD SWAP1 PUSH3 0x102 SWAP3 SWAP2 SWAP1 PUSH3 0x6C8 JUMP JUMPDEST POP PUSH1 0x40 MLOAD DUP1 PUSH1 0x40 ADD PUSH1 0x40 MSTORE DUP1 PUSH1 0x6 DUP2 MSTORE PUSH1 0x20 ADD PUSH32 0x43524F4E49430000000000000000000000000000000000000000000000000000 DUP2 MSTORE POP PUSH1 0x10 SWAP1 DUP1 MLOAD SWAP1 PUSH1 0x20 ADD SWAP1 PUSH3 0x150 SWAP3 SWAP2 SWAP1 PUSH3 0x6C8 JUMP JUMPDEST POP PUSH1 0x9 PUSH1 0x11 PUSH1 0x0 PUSH2 0x100 EXP DUP2 SLOAD DUP2 PUSH1 0xFF MUL NOT AND SWAP1 DUP4 PUSH1 0xFF AND MUL OR SWAP1 SSTORE POP PUSH1 0x3 PUSH1 0x12 SSTORE PUSH1 0x12 SLOAD PUSH1 0x13 SSTORE PUSH1 0x6 PUSH1 0x14 SSTORE PUSH1 0x14 SLOAD PUSH1 0x15 SSTORE PUSH1 0x2 PUSH1 0x16 SSTORE PUSH1 0x0 PUSH1 0x19 PUSH1 0x15 PUSH2 0x100 EXP DUP2 SLOAD DUP2 PUSH1 0xFF MUL NOT AND SWAP1 DUP4 ISZERO ISZERO MUL OR SWAP1 SSTORE POP CALLVALUE DUP1 ISZERO PUSH3 0x1B0 JUMPI PUSH1 0x0 DUP1 REVERT JUMPDEST POP PUSH1 0x40 MLOAD PUSH3 0x5E46 CODESIZE SUB DUP1 PUSH3 0x5E46 DUP4 CODECOPY DUP2 DUP2 ADD PUSH1 0x40 MSTORE PUSH1 0x40 DUP2 LT ISZERO PUSH3 0x1D6 JUMPI PUSH1 0x0 DUP1 REVERT JUMPDEST DUP2 ADD SWAP1 DUP1 DUP1 MLOAD SWAP1 PUSH1 0x20 ADD SWAP1 SWAP3 SWAP2 SWAP1 DUP1 MLOAD SWAP1 PUSH1 0x20 ADD SWAP1 SWAP3 SWAP2 SWAP1 POP POP POP PUSH1 0x0 PUSH3 0x203 PUSH3 0x6C0 PUSH1 0x20 SHL PUSH1 0x20 SHR JUMP JUMPDEST SWAP1 POP DUP1 PUSH1 0x0 DUP1 PUSH2 0x100 EXP DUP2 SLOAD DUP2 PUSH20 0xFFFFFFFFFFFFFFFFFFFFFFFFFFFFFFFFFFFFFFFF MUL NOT AND SWAP1 DUP4 PUSH20 0xFFFFFFFFFFFFFFFFFFFFFFFFFFFFFFFFFFFFFFFF AND MUL OR SWAP1 SSTORE POP DUP1 PUSH20 0xFFFFFFFFFFFFFFFFFFFFFFFFFFFFFFFFFFFFFFFF AND PUSH1 0x0 PUSH20 0xFFFFFFFFFFFFFFFFFFFFFFFFFFFFFFFFFFFFFFFF AND PUSH32 0x8BE0079C531659141344CD1FD0A4F28419497F9722A3DAAFE3B4186F6B6457E0 PUSH1 0x40 MLOAD PUSH1 0x40 MLOAD DUP1 SWAP2 SUB SWAP1 LOG3 POP PUSH1 0xD SLOAD PUSH1 0x4 PUSH1 0x0 CALLER PUSH20 0xFFFFFFFFFFFFFFFFFFFFFFFFFFFFFFFFFFFFFFFF AND PUSH20 0xFFFFFFFFFFFFFFFFFFFFFFFFFFFFFFFFFFFFFFFF AND DUP2 MSTORE PUSH1 0x20 ADD SWAP1 DUP2 MSTORE PUSH1 0x20 ADD PUSH1 0x0 KECCAK256 DUP2 SWAP1 SSTORE POP PUSH3 0x2F7 PUSH3 0x6C0 PUSH1 0x20 SHL PUSH1 0x20 SHR JUMP JUMPDEST PUSH20 0xFFFFFFFFFFFFFFFFFFFFFFFFFFFFFFFFFFFFFFFF AND PUSH1 0x0 PUSH20 0xFFFFFFFFFFFFFFFFFFFFFFFFFFFFFFFFFFFFFFFF AND PUSH32 0xDDF252AD1BE2C89B69C2B068FC378DAA952BA7F163C4A11628F55A4DF523B3EF PUSH1 0xC SLOAD PUSH1 0x40 MLOAD DUP1 DUP3 DUP2 MSTORE PUSH1 0x20 ADD SWAP2 POP POP PUSH1 0x40 MLOAD DUP1 SWAP2 SUB SWAP1 LOG3 PUSH1 0x0 DUP2 SWAP1 POP DUP1 PUSH20 0xFFFFFFFFFFFFFFFFFFFFFFFFFFFFFFFFFFFFFFFF AND PUSH4 0xC45A0155 PUSH1 0x40 MLOAD DUP2 PUSH4 0xFFFFFFFF AND PUSH1 0xE0 SHL DUP2 MSTORE PUSH1 0x4 ADD PUSH1 0x20 PUSH1 0x40 MLOAD DUP1 DUP4 SUB DUP2 DUP7 DUP1 EXTCODESIZE ISZERO DUP1 ISZERO PUSH3 0x3AA JUMPI PUSH1 0x0 DUP1 REVERT JUMPDEST POP GAS STATICCALL ISZERO DUP1 ISZERO PUSH3 0x3BF JUMPI RETURNDATASIZE PUSH1 0x0 DUP1 RETURNDATACOPY RETURNDATASIZE PUSH1 0x0 REVERT JUMPDEST POP POP POP POP PUSH1 0x40 MLOAD RETURNDATASIZE PUSH1 0x20 DUP2 LT ISZERO PUSH3 0x3D6 JUMPI PUSH1 0x0 DUP1 REVERT JUMPDEST DUP2 ADD SWAP1 DUP1 DUP1 MLOAD SWAP1 PUSH1 0x20 ADD SWAP1 SWAP3 SWAP2 SWAP1 POP POP POP PUSH20 0xFFFFFFFFFFFFFFFFFFFFFFFFFFFFFFFFFFFFFFFF AND PUSH4 0xC9C65396 ADDRESS DUP4 PUSH20 0xFFFFFFFFFFFFFFFFFFFFFFFFFFFFFFFFFFFFFFFF AND PUSH4 0xAD5C4648 PUSH1 0x40 MLOAD DUP2 PUSH4 0xFFFFFFFF AND PUSH1 0xE0 SHL DUP2 MSTORE PUSH1 0x4 ADD PUSH1 0x20 PUSH1 0x40 MLOAD DUP1 DUP4 SUB DUP2 DUP7 DUP1 EXTCODESIZE ISZERO DUP1 ISZERO PUSH3 0x44A JUMPI PUSH1 0x0 DUP1 REVERT JUMPDEST POP GAS STATICCALL ISZERO DUP1 ISZERO PUSH3 0x45F JUMPI RETURNDATASIZE PUSH1 0x0 DUP1 RETURNDATACOPY RETURNDATASIZE PUSH1 0x0 REVERT JUMPDEST POP POP POP POP PUSH1 0x40 MLOAD RETURNDATASIZE PUSH1 0x20 DUP2 LT ISZERO PUSH3 0x476 JUMPI PUSH1 0x0 DUP1 REVERT JUMPDEST DUP2 ADD SWAP1 DUP1 DUP1 MLOAD SWAP1 PUSH1 0x20 ADD SWAP1 SWAP3 SWAP2 SWAP1 POP POP POP PUSH1 0x40 MLOAD DUP4 PUSH4 0xFFFFFFFF AND PUSH1 0xE0 SHL DUP2 MSTORE PUSH1 0x4 ADD DUP1 DUP4 PUSH20 0xFFFFFFFFFFFFFFFFFFFFFFFFFFFFFFFFFFFFFFFF AND DUP2 MSTORE PUSH1 0x20 ADD DUP3 PUSH20 0xFFFFFFFFFFFFFFFFFFFFFFFFFFFFFFFFFFFFFFFF AND DUP2 MSTORE PUSH1 0x20 ADD SWAP3 POP POP POP PUSH1 0x20 PUSH1 0x40 MLOAD DUP1 DUP4 SUB DUP2 PUSH1 0x0 DUP8 DUP1 EXTCODESIZE ISZERO DUP1 ISZERO PUSH3 0x4F1 JUMPI PUSH1 0x0 DUP1 REVERT JUMPDEST POP GAS CALL ISZERO DUP1 ISZERO PUSH3 0x506 JUMPI RETURNDATASIZE PUSH1 0x0 DUP1 RETURNDATACOPY RETURNDATASIZE PUSH1 0x0 REVERT JUMPDEST POP POP POP POP PUSH1 0x40 MLOAD RETURNDATASIZE PUSH1 0x20 DUP2 LT ISZERO PUSH3 0x51D JUMPI PUSH1 0x0 DUP1 REVERT JUMPDEST DUP2 ADD SWAP1 DUP1 DUP1 MLOAD SWAP1 PUSH1 0x20 ADD SWAP1 SWAP3 SWAP2 SWAP1 POP POP POP PUSH1 0x19 PUSH1 0x0 PUSH2 0x100 EXP DUP2 SLOAD DUP2 PUSH20 0xFFFFFFFFFFFFFFFFFFFFFFFFFFFFFFFFFFFFFFFF MUL NOT AND SWAP1 DUP4 PUSH20 0xFFFFFFFFFFFFFFFFFFFFFFFFFFFFFFFFFFFFFFFF AND MUL OR SWAP1 SSTORE POP DUP1 PUSH1 0x18 PUSH1 0x0 PUSH2 0x100 EXP DUP2 SLOAD DUP2 PUSH20 0xFFFFFFFFFFFFFFFFFFFFFFFFFFFFFFFFFFFFFFFF MUL NOT AND SWAP1 DUP4 PUSH20 0xFFFFFFFFFFFFFFFFFFFFFFFFFFFFFFFFFFFFFFFF AND MUL OR SWAP1 SSTORE POP PUSH1 0x1 PUSH1 0x9 PUSH1 0x0 CALLER PUSH20 0xFFFFFFFFFFFFFFFFFFFFFFFFFFFFFFFFFFFFFFFF AND PUSH20 0xFFFFFFFFFFFFFFFFFFFFFFFFFFFFFFFFFFFFFFFF AND DUP2 MSTORE PUSH1 0x20 ADD SWAP1 DUP2 MSTORE PUSH1 0x20 ADD PUSH1 0x0 KECCAK256 PUSH1 0x0 PUSH2 0x100 EXP DUP2 SLOAD DUP2 PUSH1 0xFF MUL NOT AND SWAP1 DUP4 ISZERO ISZERO MUL OR SWAP1 SSTORE POP PUSH1 0x1 PUSH1 0x9 PUSH1 0x0 DUP6 PUSH20 0xFFFFFFFFFFFFFFFFFFFFFFFFFFFFFFFFFFFFFFFF AND PUSH20 0xFFFFFFFFFFFFFFFFFFFFFFFFFFFFFFFFFFFFFFFF AND DUP2 MSTORE PUSH1 0x20 ADD SWAP1 DUP2 MSTORE PUSH1 0x20 ADD PUSH1 0x0 KECCAK256 PUSH1 0x0 PUSH2 0x100 EXP DUP2 SLOAD DUP2 PUSH1 0xFF MUL NOT AND SWAP1 DUP4 ISZERO ISZERO MUL OR SWAP1 SSTORE POP PUSH1 0x1 PUSH1 0x9 PUSH1 0x0 ADDRESS PUSH20 0xFFFFFFFFFFFFFFFFFFFFFFFFFFFFFFFFFFFFFFFF AND PUSH20 0xFFFFFFFFFFFFFFFFFFFFFFFFFFFFFFFFFFFFFFFF AND DUP2 MSTORE PUSH1 0x20 ADD SWAP1 DUP2 MSTORE PUSH1 0x20 ADD PUSH1 0x0 KECCAK256 PUSH1 0x0 PUSH2 0x100 EXP DUP2 SLOAD DUP2 PUSH1 0xFF MUL NOT AND SWAP1 DUP4 ISZERO ISZERO MUL OR SWAP1 SSTORE POP POP POP POP PUSH3 0x76E JUMP JUMPDEST PUSH1 0x0 CALLER SWAP1 POP SWAP1 JUMP JUMPDEST DUP3 DUP1 SLOAD PUSH1 0x1 DUP2 PUSH1 0x1 AND ISZERO PUSH2 0x100 MUL SUB AND PUSH1 0x2 SWAP1 DIV SWAP1 PUSH1 0x0 MSTORE PUSH1 0x20 PUSH1 0x0 KECCAK256 SWAP1 PUSH1 0x1F ADD PUSH1 0x20 SWAP1 DIV DUP2 ADD SWAP3 DUP3 PUSH1 0x1F LT PUSH3 0x70B JUMPI DUP1 MLOAD PUSH1 0xFF NOT AND DUP4 DUP1 ADD OR DUP6 SSTORE PUSH3 0x73C JUMP JUMPDEST DUP3 DUP1 ADD PUSH1 0x1 ADD DUP6 SSTORE DUP3 ISZERO PUSH3 0x73C JUMPI SWAP2 DUP3 ADD JUMPDEST DUP3 DUP2 GT ISZERO PUSH3 0x73B JUMPI DUP3 MLOAD DUP3 SSTORE SWAP2 PUSH1 0x20 ADD SWAP2 SWAP1 PUSH1 0x1 ADD SWAP1 PUSH3 0x71E JUMP JUMPDEST JUMPDEST POP SWAP1 POP PUSH3 0x74B SWAP2 SWAP1 PUSH3 0x74F JUMP JUMPDEST POP SWAP1 JUMP JUMPDEST JUMPDEST DUP1 DUP3 GT ISZERO PUSH3 0x76A JUMPI PUSH1 0x0 DUP2 PUSH1 0x0 SWAP1 SSTORE POP PUSH1 0x1 ADD PUSH3 0x750 JUMP JUMPDEST POP SWAP1 JUMP JUMPDEST PUSH1 0x80 MLOAD PUSH1 0x60 SHR PUSH2 0x56BA PUSH3 0x78C PUSH1 0x0 CODECOPY DUP1 PUSH2 0x1133 MSTORE POP PUSH2 0x56BA PUSH1 0x0 RETURN INVALID PUSH1 0x80 PUSH1 0x40 MSTORE PUSH1 0x4 CALLDATASIZE LT PUSH2 0x23F JUMPI PUSH1 0x0 CALLDATALOAD PUSH1 0xE0 SHR DUP1 PUSH4 0x5342ACB4 GT PUSH2 0x12E JUMPI DUP1 PUSH4 0x95D89B41 GT PUSH2 0xAB JUMPI DUP1 PUSH4 0xDB2E21BC GT PUSH2 0x6F JUMPI DUP1 PUSH4 0xDB2E21BC EQ PUSH2 0xCFD JUMPI DUP1 PUSH4 0xDD62ED3E EQ PUSH2 0xD14 JUMPI DUP1 PUSH4 0xEA2F0B37 EQ PUSH2 0xD99 JUMPI DUP1 PUSH4 0xF2FDE38B EQ PUSH2 0xDEA JUMPI DUP1 PUSH4 0xF375B253 EQ PUSH2 0xE3B JUMPI PUSH2 0x246 JUMP JUMPDEST DUP1 PUSH4 0x95D89B41 EQ PUSH2 0xB33 JUMPI DUP1 PUSH4 0xA457C2D7 EQ PUSH2 0xBC3 JUMPI DUP1 PUSH4 0xA5ECE941 EQ PUSH2 0xC34 JUMPI DUP1 PUSH4 0xA9059CBB EQ PUSH2 0xC75 JUMPI DUP1 PUSH4 0xC9567BF9 EQ PUSH2 0xCE6 JUMPI PUSH2 0x246 JUMP JUMPDEST DUP1 PUSH4 0x87CEFF09 GT PUSH2 0xF2 JUMPI DUP1 PUSH4 0x87CEFF09 EQ PUSH2 0x9D4 JUMPI DUP1 PUSH4 0x88F82020 EQ PUSH2 0x9FF JUMPI DUP1 PUSH4 0x8DA5CB5B EQ PUSH2 0xA66 JUMPI DUP1 PUSH4 0x8EE88C53 EQ PUSH2 0xAA7 JUMPI DUP1 PUSH4 0x906E9DD0 EQ PUSH2 0xAE2 JUMPI PUSH2 0x246 JUMP JUMPDEST DUP1 PUSH4 0x5342ACB4 EQ PUSH2 0x85F JUMPI DUP1 PUSH4 0x610D5B19 EQ PUSH2 0x8C6 JUMPI DUP1 PUSH4 0x6BC87C3A EQ PUSH2 0x92D JUMPI DUP1 PUSH4 0x70A08231 EQ PUSH2 0x958 JUMPI DUP1 PUSH4 0x715018A6 EQ PUSH2 0x9BD JUMPI PUSH2 0x246 JUMP JUMPDEST DUP1 PUSH4 0x362A3C5D GT PUSH2 0x1BC JUMPI DUP1 PUSH4 0x437823EC GT PUSH2 0x180 JUMPI DUP1 PUSH4 0x437823EC EQ PUSH2 0x6E6 JUMPI DUP1 PUSH4 0x4549B039 EQ PUSH2 0x737 JUMPI DUP1 PUSH4 0x45596E2E EQ PUSH2 0x792 JUMPI DUP1 PUSH4 0x49BD5A5E EQ PUSH2 0x7CD JUMPI DUP1 PUSH4 0x52390C02 EQ PUSH2 0x80E JUMPI PUSH2 0x246 JUMP JUMPDEST DUP1 PUSH4 0x362A3C5D EQ PUSH2 0x56D JUMPI DUP1 PUSH4 0x3685D419 EQ PUSH2 0x5BE JUMPI DUP1 PUSH4 0x39509351 EQ PUSH2 0x60F JUMPI DUP1 PUSH4 0x3B124FE7 EQ PUSH2 0x680 JUMPI DUP1 PUSH4 0x3BD5D173 EQ PUSH2 0x6AB JUMPI PUSH2 0x246 JUMP JUMPDEST DUP1 PUSH4 0x18160DDD GT PUSH2 0x203 JUMPI DUP1 PUSH4 0x18160DDD EQ PUSH2 0x3F3 JUMPI DUP1 PUSH4 0x23B872DD EQ PUSH2 0x41E JUMPI DUP1 PUSH4 0x27C8F835 EQ PUSH2 0x4AF JUMPI DUP1 PUSH4 0x2D838119 EQ PUSH2 0x4F0 JUMPI DUP1 PUSH4 0x313CE567 EQ PUSH2 0x53F JUMPI PUSH2 0x246 JUMP JUMPDEST DUP1 PUSH4 0x61C82D0 EQ PUSH2 0x24B JUMPI DUP1 PUSH4 0x6FDDE03 EQ PUSH2 0x286 JUMPI DUP1 PUSH4 0x95EA7B3 EQ PUSH2 0x316 JUMPI DUP1 PUSH4 0x13114A9D EQ PUSH2 0x387 JUMPI DUP1 PUSH4 0x1694505E EQ PUSH2 0x3B2 JUMPI PUSH2 0x246 JUMP JUMPDEST CALLDATASIZE PUSH2 0x246 JUMPI STOP JUMPDEST PUSH1 0x0 DUP1 REVERT JUMPDEST CALLVALUE DUP1 ISZERO PUSH2 0x257 JUMPI PUSH1 0x0 DUP1 REVERT JUMPDEST POP PUSH2 0x284 PUSH1 0x4 DUP1 CALLDATASIZE SUB PUSH1 0x20 DUP2 LT ISZERO PUSH2 0x26E JUMPI PUSH1 0x0 DUP1 REVERT JUMPDEST DUP2 ADD SWAP1 DUP1 DUP1 CALLDATALOAD SWAP1 PUSH1 0x20 ADD SWAP1 SWAP3 SWAP2 SWAP1 POP POP POP PUSH2 0xE8C JUMP JUMPDEST STOP JUMPDEST CALLVALUE DUP1 ISZERO PUSH2 0x292 JUMPI PUSH1 0x0 DUP1 REVERT JUMPDEST POP PUSH2 0x29B PUSH2 0xF5E JUMP JUMPDEST PUSH1 0x40 MLOAD DUP1 DUP1 PUSH1 0x20 ADD DUP3 DUP2 SUB DUP3 MSTORE DUP4 DUP2 DUP2 MLOAD DUP2 MSTORE PUSH1 0x20 ADD SWAP2 POP DUP1 MLOAD SWAP1 PUSH1 0x20 ADD SWAP1 DUP1 DUP4 DUP4 PUSH1 0x0 JUMPDEST DUP4 DUP2 LT ISZERO PUSH2 0x2DB JUMPI DUP1 DUP3 ADD MLOAD DUP2 DUP5 ADD MSTORE PUSH1 0x20 DUP2 ADD SWAP1 POP PUSH2 0x2C0 JUMP JUMPDEST POP POP POP POP SWAP1 POP SWAP1 DUP2 ADD SWAP1 PUSH1 0x1F AND DUP1 ISZERO PUSH2 0x308 JUMPI DUP1 DUP3 SUB DUP1 MLOAD PUSH1 0x1 DUP4 PUSH1 0x20 SUB PUSH2 0x100 EXP SUB NOT AND DUP2 MSTORE PUSH1 0x20 ADD SWAP2 POP JUMPDEST POP SWAP3 POP POP POP PUSH1 0x40 MLOAD DUP1 SWAP2 SUB SWAP1 RETURN JUMPDEST CALLVALUE DUP1 ISZERO PUSH2 0x322 JUMPI PUSH1 0x0 DUP1 REVERT JUMPDEST POP PUSH2 0x36F PUSH1 0x4 DUP1 CALLDATASIZE SUB PUSH1 0x40 DUP2 LT ISZERO PUSH2 0x339 JUMPI PUSH1 0x0 DUP1 REVERT JUMPDEST DUP2 ADD SWAP1 DUP1 DUP1 CALLDATALOAD PUSH20 0xFFFFFFFFFFFFFFFFFFFFFFFFFFFFFFFFFFFFFFFF AND SWAP1 PUSH1 0x20 ADD SWAP1 SWAP3 SWAP2 SWAP1 DUP1 CALLDATALOAD SWAP1 PUSH1 0x20 ADD SWAP1 SWAP3 SWAP2 SWAP1 POP POP POP PUSH2 0x1000 JUMP JUMPDEST PUSH1 0x40 MLOAD DUP1 DUP3 ISZERO ISZERO DUP2 MSTORE PUSH1 0x20 ADD SWAP2 POP POP PUSH1 0x40 MLOAD DUP1 SWAP2 SUB SWAP1 RETURN JUMPDEST CALLVALUE DUP1 ISZERO PUSH2 0x393 JUMPI PUSH1 0x0 DUP1 REVERT JUMPDEST POP PUSH2 0x39C PUSH2 0x101E JUMP JUMPDEST PUSH1 0x40 MLOAD DUP1 DUP3 DUP2 MSTORE PUSH1 0x20 ADD SWAP2 POP POP PUSH1 0x40 MLOAD DUP1 SWAP2 SUB SWAP1 RETURN JUMPDEST CALLVALUE DUP1 ISZERO PUSH2 0x3BE JUMPI PUSH1 0x0 DUP1 REVERT JUMPDEST POP PUSH2 0x3C7 PUSH2 0x1028 JUMP JUMPDEST PUSH1 0x40 MLOAD DUP1 DUP3 PUSH20 0xFFFFFFFFFFFFFFFFFFFFFFFFFFFFFFFFFFFFFFFF AND DUP2 MSTORE PUSH1 0x20 ADD SWAP2 POP POP PUSH1 0x40 MLOAD DUP1 SWAP2 SUB SWAP1 RETURN JUMPDEST CALLVALUE DUP1 ISZERO PUSH2 0x3FF JUMPI PUSH1 0x0 DUP1 REVERT JUMPDEST POP PUSH2 0x408 PUSH2 0x104E JUMP JUMPDEST PUSH1 0x40 MLOAD DUP1 DUP3 DUP2 MSTORE PUSH1 0x20 ADD SWAP2 POP POP PUSH1 0x40 MLOAD DUP1 SWAP2 SUB SWAP1 RETURN JUMPDEST CALLVALUE DUP1 ISZERO PUSH2 0x42A JUMPI PUSH1 0x0 DUP1 REVERT JUMPDEST POP PUSH2 0x497 PUSH1 0x4 DUP1 CALLDATASIZE SUB PUSH1 0x60 DUP2 LT ISZERO PUSH2 0x441 JUMPI PUSH1 0x0 DUP1 REVERT JUMPDEST DUP2 ADD SWAP1 DUP1 DUP1 CALLDATALOAD PUSH20 0xFFFFFFFFFFFFFFFFFFFFFFFFFFFFFFFFFFFFFFFF AND SWAP1 PUSH1 0x20 ADD SWAP1 SWAP3 SWAP2 SWAP1 DUP1 CALLDATALOAD PUSH20 0xFFFFFFFFFFFFFFFFFFFFFFFFFFFFFFFFFFFFFFFF AND SWAP1 PUSH1 0x20 ADD SWAP1 SWAP3 SWAP2 SWAP1 DUP1 CALLDATALOAD SWAP1 PUSH1 0x20 ADD SWAP1 SWAP3 SWAP2 SWAP1 POP POP POP PUSH2 0x1058 JUMP JUMPDEST PUSH1 0x40 MLOAD DUP1 DUP3 ISZERO ISZERO DUP2 MSTORE PUSH1 0x20 ADD SWAP2 POP POP PUSH1 0x40 MLOAD DUP1 SWAP2 SUB SWAP1 RETURN JUMPDEST CALLVALUE DUP1 ISZERO PUSH2 0x4BB JUMPI PUSH1 0x0 DUP1 REVERT JUMPDEST POP PUSH2 0x4C4 PUSH2 0x1131 JUMP JUMPDEST PUSH1 0x40 MLOAD DUP1 DUP3 PUSH20 0xFFFFFFFFFFFFFFFFFFFFFFFFFFFFFFFFFFFFFFFF AND DUP2 MSTORE PUSH1 0x20 ADD SWAP2 POP POP PUSH1 0x40 MLOAD DUP1 SWAP2 SUB SWAP1 RETURN JUMPDEST CALLVALUE DUP1 ISZERO PUSH2 0x4FC JUMPI PUSH1 0x0 DUP1 REVERT JUMPDEST POP PUSH2 0x529 PUSH1 0x4 DUP1 CALLDATASIZE SUB PUSH1 0x20 DUP2 LT ISZERO PUSH2 0x513 JUMPI PUSH1 0x0 DUP1 REVERT JUMPDEST DUP2 ADD SWAP1 DUP1 DUP1 CALLDATALOAD SWAP1 PUSH1 0x20 ADD SWAP1 SWAP3 SWAP2 SWAP1 POP POP POP PUSH2 0x1155 JUMP JUMPDEST PUSH1 0x40 MLOAD DUP1 DUP3 DUP2 MSTORE PUSH1 0x20 ADD SWAP2 POP POP PUSH1 0x40 MLOAD DUP1 SWAP2 SUB SWAP1 RETURN JUMPDEST CALLVALUE DUP1 ISZERO PUSH2 0x54B JUMPI PUSH1 0x0 DUP1 REVERT JUMPDEST POP PUSH2 0x554 PUSH2 0x11D9 JUMP JUMPDEST PUSH1 0x40 MLOAD DUP1 DUP3 PUSH1 0xFF AND DUP2 MSTORE PUSH1 0x20 ADD SWAP2 POP POP PUSH1 0x40 MLOAD DUP1 SWAP2 SUB SWAP1 RETURN JUMPDEST CALLVALUE DUP1 ISZERO PUSH2 0x579 JUMPI PUSH1 0x0 DUP1 REVERT JUMPDEST POP PUSH2 0x5BC PUSH1 0x4 DUP1 CALLDATASIZE SUB PUSH1 0x20 DUP2 LT ISZERO PUSH2 0x590 JUMPI PUSH1 0x0 DUP1 REVERT JUMPDEST DUP2 ADD SWAP1 DUP1 DUP1 CALLDATALOAD PUSH20 0xFFFFFFFFFFFFFFFFFFFFFFFFFFFFFFFFFFFFFFFF AND SWAP1 PUSH1 0x20 ADD SWAP1 SWAP3 SWAP2 SWAP1 POP POP POP PUSH2 0x11F0 JUMP JUMPDEST STOP JUMPDEST CALLVALUE DUP1 ISZERO PUSH2 0x5CA JUMPI PUSH1 0x0 DUP1 REVERT JUMPDEST POP PUSH2 0x60D PUSH1 0x4 DUP1 CALLDATASIZE SUB PUSH1 0x20 DUP2 LT ISZERO PUSH2 0x5E1 JUMPI PUSH1 0x0 DUP1 REVERT JUMPDEST DUP2 ADD SWAP1 DUP1 DUP1 CALLDATALOAD PUSH20 0xFFFFFFFFFFFFFFFFFFFFFFFFFFFFFFFFFFFFFFFF AND SWAP1 PUSH1 0x20 ADD SWAP1 SWAP3 SWAP2 SWAP1 POP POP POP PUSH2 0x1535 JUMP JUMPDEST STOP JUMPDEST CALLVALUE DUP1 ISZERO PUSH2 0x61B JUMPI PUSH1 0x0 DUP1 REVERT JUMPDEST POP PUSH2 0x668 PUSH1 0x4 DUP1 CALLDATASIZE SUB PUSH1 0x40 DUP2 LT ISZERO PUSH2 0x632 JUMPI PUSH1 0x0 DUP1 REVERT JUMPDEST DUP2 ADD SWAP1 DUP1 DUP1 CALLDATALOAD PUSH20 0xFFFFFFFFFFFFFFFFFFFFFFFFFFFFFFFFFFFFFFFF AND SWAP1 PUSH1 0x20 ADD SWAP1 SWAP3 SWAP2 SWAP1 DUP1 CALLDATALOAD SWAP1 PUSH1 0x20 ADD SWAP1 SWAP3 SWAP2 SWAP1 POP POP POP PUSH2 0x18BF JUMP JUMPDEST PUSH1 0x40 MLOAD DUP1 DUP3 ISZERO ISZERO DUP2 MSTORE PUSH1 0x20 ADD SWAP2 POP POP PUSH1 0x40 MLOAD DUP1 SWAP2 SUB SWAP1 RETURN JUMPDEST CALLVALUE DUP1 ISZERO PUSH2 0x68C JUMPI PUSH1 0x0 DUP1 REVERT JUMPDEST POP PUSH2 0x695 PUSH2 0x1972 JUMP JUMPDEST PUSH1 0x40 MLOAD DUP1 DUP3 DUP2 MSTORE PUSH1 0x20 ADD SWAP2 POP POP PUSH1 0x40 MLOAD DUP1 SWAP2 SUB SWAP1 RETURN JUMPDEST CALLVALUE DUP1 ISZERO PUSH2 0x6B7 JUMPI PUSH1 0x0 DUP1 REVERT JUMPDEST POP PUSH2 0x6E4 PUSH1 0x4 DUP1 CALLDATASIZE SUB PUSH1 0x20 DUP2 LT ISZERO PUSH2 0x6CE JUMPI PUSH1 0x0 DUP1 REVERT JUMPDEST DUP2 ADD SWAP1 DUP1 DUP1 CALLDATALOAD SWAP1 PUSH1 0x20 ADD SWAP1 SWAP3 SWAP2 SWAP1 POP POP POP PUSH2 0x1978 JUMP JUMPDEST STOP JUMPDEST CALLVALUE DUP1 ISZERO PUSH2 0x6F2 JUMPI PUSH1 0x0 DUP1 REVERT JUMPDEST POP PUSH2 0x735 PUSH1 0x4 DUP1 CALLDATASIZE SUB PUSH1 0x20 DUP2 LT ISZERO PUSH2 0x709 JUMPI PUSH1 0x0 DUP1 REVERT JUMPDEST DUP2 ADD SWAP1 DUP1 DUP1 CALLDATALOAD PUSH20 0xFFFFFFFFFFFFFFFFFFFFFFFFFFFFFFFFFFFFFFFF AND SWAP1 PUSH1 0x20 ADD SWAP1 SWAP3 SWAP2 SWAP1 POP POP POP PUSH2 0x1B09 JUMP JUMPDEST STOP JUMPDEST CALLVALUE DUP1 ISZERO PUSH2 0x743 JUMPI PUSH1 0x0 DUP1 REVERT JUMPDEST POP PUSH2 0x77C PUSH1 0x4 DUP1 CALLDATASIZE SUB PUSH1 0x40 DUP2 LT ISZERO PUSH2 0x75A JUMPI PUSH1 0x0 DUP1 REVERT JUMPDEST DUP2 ADD SWAP1 DUP1 DUP1 CALLDATALOAD SWAP1 PUSH1 0x20 ADD SWAP1 SWAP3 SWAP2 SWAP1 DUP1 CALLDATALOAD ISZERO ISZERO SWAP1 PUSH1 0x20 ADD SWAP1 SWAP3 SWAP2 SWAP1 POP POP POP PUSH2 0x1C2C JUMP JUMPDEST PUSH1 0x40 MLOAD DUP1 DUP3 DUP2 MSTORE PUSH1 0x20 ADD SWAP2 POP POP PUSH1 0x40 MLOAD DUP1 SWAP2 SUB SWAP1 RETURN JUMPDEST CALLVALUE DUP1 ISZERO PUSH2 0x79E JUMPI PUSH1 0x0 DUP1 REVERT JUMPDEST POP PUSH2 0x7CB PUSH1 0x4 DUP1 CALLDATASIZE SUB PUSH1 0x20 DUP2 LT ISZERO PUSH2 0x7B5 JUMPI PUSH1 0x0 DUP1 REVERT JUMPDEST DUP2 ADD SWAP1 DUP1 DUP1 CALLDATALOAD SWAP1 PUSH1 0x20 ADD SWAP1 SWAP3 SWAP2 SWAP1 POP POP POP PUSH2 0x1CE3 JUMP JUMPDEST STOP JUMPDEST CALLVALUE DUP1 ISZERO PUSH2 0x7D9 JUMPI PUSH1 0x0 DUP1 REVERT JUMPDEST POP PUSH2 0x7E2 PUSH2 0x1DB5 JUMP JUMPDEST PUSH1 0x40 MLOAD DUP1 DUP3 PUSH20 0xFFFFFFFFFFFFFFFFFFFFFFFFFFFFFFFFFFFFFFFF AND DUP2 MSTORE PUSH1 0x20 ADD SWAP2 POP POP PUSH1 0x40 MLOAD DUP1 SWAP2 SUB SWAP1 RETURN JUMPDEST CALLVALUE DUP1 ISZERO PUSH2 0x81A JUMPI PUSH1 0x0 DUP1 REVERT JUMPDEST POP PUSH2 0x85D PUSH1 0x4 DUP1 CALLDATASIZE SUB PUSH1 0x20 DUP2 LT ISZERO PUSH2 0x831 JUMPI PUSH1 0x0 DUP1 REVERT JUMPDEST DUP2 ADD SWAP1 DUP1 DUP1 CALLDATALOAD PUSH20 0xFFFFFFFFFFFFFFFFFFFFFFFFFFFFFFFFFFFFFFFF AND SWAP1 PUSH1 0x20 ADD SWAP1 SWAP3 SWAP2 SWAP1 POP POP POP PUSH2 0x1DDB JUMP JUMPDEST STOP JUMPDEST CALLVALUE DUP1 ISZERO PUSH2 0x86B JUMPI PUSH1 0x0 DUP1 REVERT JUMPDEST POP PUSH2 0x8AE PUSH1 0x4 DUP1 CALLDATASIZE SUB PUSH1 0x20 DUP2 LT ISZERO PUSH2 0x882 JUMPI PUSH1 0x0 DUP1 REVERT JUMPDEST DUP2 ADD SWAP1 DUP1 DUP1 CALLDATALOAD PUSH20 0xFFFFFFFFFFFFFFFFFFFFFFFFFFFFFFFFFFFFFFFF AND SWAP1 PUSH1 0x20 ADD SWAP1 SWAP3 SWAP2 SWAP1 POP POP POP PUSH2 0x20F5 JUMP JUMPDEST PUSH1 0x40 MLOAD DUP1 DUP3 ISZERO ISZERO DUP2 MSTORE PUSH1 0x20 ADD SWAP2 POP POP PUSH1 0x40 MLOAD DUP1 SWAP2 SUB SWAP1 RETURN JUMPDEST CALLVALUE DUP1 ISZERO PUSH2 0x8D2 JUMPI PUSH1 0x0 DUP1 REVERT JUMPDEST POP PUSH2 0x915 PUSH1 0x4 DUP1 CALLDATASIZE SUB PUSH1 0x20 DUP2 LT ISZERO PUSH2 0x8E9 JUMPI PUSH1 0x0 DUP1 REVERT JUMPDEST DUP2 ADD SWAP1 DUP1 DUP1 CALLDATALOAD PUSH20 0xFFFFFFFFFFFFFFFFFFFFFFFFFFFFFFFFFFFFFFFF AND SWAP1 PUSH1 0x20 ADD SWAP1 SWAP3 SWAP2 SWAP1 POP POP POP PUSH2 0x214B JUMP JUMPDEST PUSH1 0x40 MLOAD DUP1 DUP3 ISZERO ISZERO DUP2 MSTORE PUSH1 0x20 ADD SWAP2 POP POP PUSH1 0x40 MLOAD DUP1 SWAP2 SUB SWAP1 RETURN JUMPDEST CALLVALUE DUP1 ISZERO PUSH2 0x939 JUMPI PUSH1 0x0 DUP1 REVERT JUMPDEST POP PUSH2 0x942 PUSH2 0x21A1 JUMP JUMPDEST PUSH1 0x40 MLOAD DUP1 DUP3 DUP2 MSTORE PUSH1 0x20 ADD SWAP2 POP POP PUSH1 0x40 MLOAD DUP1 SWAP2 SUB SWAP1 RETURN JUMPDEST CALLVALUE DUP1 ISZERO PUSH2 0x964 JUMPI PUSH1 0x0 DUP1 REVERT JUMPDEST POP PUSH2 0x9A7 PUSH1 0x4 DUP1 CALLDATASIZE SUB PUSH1 0x20 DUP2 LT ISZERO PUSH2 0x97B JUMPI PUSH1 0x0 DUP1 REVERT JUMPDEST DUP2 ADD SWAP1 DUP1 DUP1 CALLDATALOAD PUSH20 0xFFFFFFFFFFFFFFFFFFFFFFFFFFFFFFFFFFFFFFFF AND SWAP1 PUSH1 0x20 ADD SWAP1 SWAP3 SWAP2 SWAP1 POP POP POP PUSH2 0x21A7 JUMP JUMPDEST PUSH1 0x40 MLOAD DUP1 DUP3 DUP2 MSTORE PUSH1 0x20 ADD SWAP2 POP POP PUSH1 0x40 MLOAD DUP1 SWAP2 SUB SWAP1 RETURN JUMPDEST CALLVALUE DUP1 ISZERO PUSH2 0x9C9 JUMPI PUSH1 0x0 DUP1 REVERT JUMPDEST POP PUSH2 0x9D2 PUSH2 0x2292 JUMP JUMPDEST STOP JUMPDEST CALLVALUE DUP1 ISZERO PUSH2 0x9E0 JUMPI PUSH1 0x0 DUP1 REVERT JUMPDEST POP PUSH2 0x9E9 PUSH2 0x2418 JUMP JUMPDEST PUSH1 0x40 MLOAD DUP1 DUP3 DUP2 MSTORE PUSH1 0x20 ADD SWAP2 POP POP PUSH1 0x40 MLOAD DUP1 SWAP2 SUB SWAP1 RETURN JUMPDEST CALLVALUE DUP1 ISZERO PUSH2 0xA0B JUMPI PUSH1 0x0 DUP1 REVERT JUMPDEST POP PUSH2 0xA4E PUSH1 0x4 DUP1 CALLDATASIZE SUB PUSH1 0x20 DUP2 LT ISZERO PUSH2 0xA22 JUMPI PUSH1 0x0 DUP1 REVERT JUMPDEST DUP2 ADD SWAP1 DUP1 DUP1 CALLDATALOAD PUSH20 0xFFFFFFFFFFFFFFFFFFFFFFFFFFFFFFFFFFFFFFFF AND SWAP1 PUSH1 0x20 ADD SWAP1 SWAP3 SWAP2 SWAP1 POP POP POP PUSH2 0x2420 JUMP JUMPDEST PUSH1 0x40 MLOAD DUP1 DUP3 ISZERO ISZERO DUP2 MSTORE PUSH1 0x20 ADD SWAP2 POP POP PUSH1 0x40 MLOAD DUP1 SWAP2 SUB SWAP1 RETURN JUMPDEST CALLVALUE DUP1 ISZERO PUSH2 0xA72 JUMPI PUSH1 0x0 DUP1 REVERT JUMPDEST POP PUSH2 0xA7B PUSH2 0x2476 JUMP JUMPDEST PUSH1 0x40 MLOAD DUP1 DUP3 PUSH20 0xFFFFFFFFFFFFFFFFFFFFFFFFFFFFFFFFFFFFFFFF AND DUP2 MSTORE PUSH1 0x20 ADD SWAP2 POP POP PUSH1 0x40 MLOAD DUP1 SWAP2 SUB SWAP1 RETURN JUMPDEST CALLVALUE DUP1 ISZERO PUSH2 0xAB3 JUMPI PUSH1 0x0 DUP1 REVERT JUMPDEST POP PUSH2 0xAE0 PUSH1 0x4 DUP1 CALLDATASIZE SUB PUSH1 0x20 DUP2 LT ISZERO PUSH2 0xACA JUMPI PUSH1 0x0 DUP1 REVERT JUMPDEST DUP2 ADD SWAP1 DUP1 DUP1 CALLDATALOAD SWAP1 PUSH1 0x20 ADD SWAP1 SWAP3 SWAP2 SWAP1 POP POP POP PUSH2 0x249F JUMP JUMPDEST STOP JUMPDEST CALLVALUE DUP1 ISZERO PUSH2 0xAEE JUMPI PUSH1 0x0 DUP1 REVERT JUMPDEST POP PUSH2 0xB31 PUSH1 0x4 DUP1 CALLDATASIZE SUB PUSH1 0x20 DUP2 LT ISZERO PUSH2 0xB05 JUMPI PUSH1 0x0 DUP1 REVERT JUMPDEST DUP2 ADD SWAP1 DUP1 DUP1 CALLDATALOAD PUSH20 0xFFFFFFFFFFFFFFFFFFFFFFFFFFFFFFFFFFFFFFFF AND SWAP1 PUSH1 0x20 ADD SWAP1 SWAP3 SWAP2 SWAP1 POP POP POP PUSH2 0x2571 JUMP JUMPDEST STOP JUMPDEST CALLVALUE DUP1 ISZERO PUSH2 0xB3F JUMPI PUSH1 0x0 DUP1 REVERT JUMPDEST POP PUSH2 0xB48 PUSH2 0x267D JUMP JUMPDEST PUSH1 0x40 MLOAD DUP1 DUP1 PUSH1 0x20 ADD DUP3 DUP2 SUB DUP3 MSTORE DUP4 DUP2 DUP2 MLOAD DUP2 MSTORE PUSH1 0x20 ADD SWAP2 POP DUP1 MLOAD SWAP1 PUSH1 0x20 ADD SWAP1 DUP1 DUP4 DUP4 PUSH1 0x0 JUMPDEST DUP4 DUP2 LT ISZERO PUSH2 0xB88 JUMPI DUP1 DUP3 ADD MLOAD DUP2 DUP5 ADD MSTORE PUSH1 0x20 DUP2 ADD SWAP1 POP PUSH2 0xB6D JUMP JUMPDEST POP POP POP POP SWAP1 POP SWAP1 DUP2 ADD SWAP1 PUSH1 0x1F AND DUP1 ISZERO PUSH2 0xBB5 JUMPI DUP1 DUP3 SUB DUP1 MLOAD PUSH1 0x1 DUP4 PUSH1 0x20 SUB PUSH2 0x100 EXP SUB NOT AND DUP2 MSTORE PUSH1 0x20 ADD SWAP2 POP JUMPDEST POP SWAP3 POP POP POP PUSH1 0x40 MLOAD DUP1 SWAP2 SUB SWAP1 RETURN JUMPDEST CALLVALUE DUP1 ISZERO PUSH2 0xBCF JUMPI PUSH1 0x0 DUP1 REVERT JUMPDEST POP PUSH2 0xC1C PUSH1 0x4 DUP1 CALLDATASIZE SUB PUSH1 0x40 DUP2 LT ISZERO PUSH2 0xBE6 JUMPI PUSH1 0x0 DUP1 REVERT JUMPDEST DUP2 ADD SWAP1 DUP1 DUP1 CALLDATALOAD PUSH20 0xFFFFFFFFFFFFFFFFFFFFFFFFFFFFFFFFFFFFFFFF AND SWAP1 PUSH1 0x20 ADD SWAP1 SWAP3 SWAP2 SWAP1 DUP1 CALLDATALOAD SWAP1 PUSH1 0x20 ADD SWAP1 SWAP3 SWAP2 SWAP1 POP POP POP PUSH2 0x271F JUMP JUMPDEST PUSH1 0x40 MLOAD DUP1 DUP3 ISZERO ISZERO DUP2 MSTORE PUSH1 0x20 ADD SWAP2 POP POP PUSH1 0x40 MLOAD DUP1 SWAP2 SUB SWAP1 RETURN JUMPDEST CALLVALUE DUP1 ISZERO PUSH2 0xC40 JUMPI PUSH1 0x0 DUP1 REVERT JUMPDEST POP PUSH2 0xC49 PUSH2 0x27EC JUMP JUMPDEST PUSH1 0x40 MLOAD DUP1 DUP3 PUSH20 0xFFFFFFFFFFFFFFFFFFFFFFFFFFFFFFFFFFFFFFFF AND DUP2 MSTORE PUSH1 0x20 ADD SWAP2 POP POP PUSH1 0x40 MLOAD DUP1 SWAP2 SUB SWAP1 RETURN JUMPDEST CALLVALUE DUP1 ISZERO PUSH2 0xC81 JUMPI PUSH1 0x0 DUP1 REVERT JUMPDEST POP PUSH2 0xCCE PUSH1 0x4 DUP1 CALLDATASIZE SUB PUSH1 0x40 DUP2 LT ISZERO PUSH2 0xC98 JUMPI PUSH1 0x0 DUP1 REVERT JUMPDEST DUP2 ADD SWAP1 DUP1 DUP1 CALLDATALOAD PUSH20 0xFFFFFFFFFFFFFFFFFFFFFFFFFFFFFFFFFFFFFFFF AND SWAP1 PUSH1 0x20 ADD SWAP1 SWAP3 SWAP2 SWAP1 DUP1 CALLDATALOAD SWAP1 PUSH1 0x20 ADD SWAP1 SWAP3 SWAP2 SWAP1 POP POP POP PUSH2 0x2812 JUMP JUMPDEST PUSH1 0x40 MLOAD DUP1 DUP3 ISZERO ISZERO DUP2 MSTORE PUSH1 0x20 ADD SWAP2 POP POP PUSH1 0x40 MLOAD DUP1 SWAP2 SUB SWAP1 RETURN JUMPDEST CALLVALUE DUP1 ISZERO PUSH2 0xCF2 JUMPI PUSH1 0x0 DUP1 REVERT JUMPDEST POP PUSH2 0xCFB PUSH2 0x2830 JUMP JUMPDEST STOP JUMPDEST CALLVALUE DUP1 ISZERO PUSH2 0xD09 JUMPI PUSH1 0x0 DUP1 REVERT JUMPDEST POP PUSH2 0xD12 PUSH2 0x291C JUMP JUMPDEST STOP JUMPDEST CALLVALUE DUP1 ISZERO PUSH2 0xD20 JUMPI PUSH1 0x0 DUP1 REVERT JUMPDEST POP PUSH2 0xD83 PUSH1 0x4 DUP1 CALLDATASIZE SUB PUSH1 0x40 DUP2 LT ISZERO PUSH2 0xD37 JUMPI PUSH1 0x0 DUP1 REVERT JUMPDEST DUP2 ADD SWAP1 DUP1 DUP1 CALLDATALOAD PUSH20 0xFFFFFFFFFFFFFFFFFFFFFFFFFFFFFFFFFFFFFFFF AND SWAP1 PUSH1 0x20 ADD SWAP1 SWAP3 SWAP2 SWAP1 DUP1 CALLDATALOAD PUSH20 0xFFFFFFFFFFFFFFFFFFFFFFFFFFFFFFFFFFFFFFFF AND SWAP1 PUSH1 0x20 ADD SWAP1 SWAP3 SWAP2 SWAP1 POP POP POP PUSH2 0x2A34 JUMP JUMPDEST PUSH1 0x40 MLOAD DUP1 DUP3 DUP2 MSTORE PUSH1 0x20 ADD SWAP2 POP POP PUSH1 0x40 MLOAD DUP1 SWAP2 SUB SWAP1 RETURN JUMPDEST CALLVALUE DUP1 ISZERO PUSH2 0xDA5 JUMPI PUSH1 0x0 DUP1 REVERT JUMPDEST POP PUSH2 0xDE8 PUSH1 0x4 DUP1 CALLDATASIZE SUB PUSH1 0x20 DUP2 LT ISZERO PUSH2 0xDBC JUMPI PUSH1 0x0 DUP1 REVERT JUMPDEST DUP2 ADD SWAP1 DUP1 DUP1 CALLDATALOAD PUSH20 0xFFFFFFFFFFFFFFFFFFFFFFFFFFFFFFFFFFFFFFFF AND SWAP1 PUSH1 0x20 ADD SWAP1 SWAP3 SWAP2 SWAP1 POP POP POP PUSH2 0x2ABB JUMP JUMPDEST STOP JUMPDEST CALLVALUE DUP1 ISZERO PUSH2 0xDF6 JUMPI PUSH1 0x0 DUP1 REVERT JUMPDEST POP PUSH2 0xE39 PUSH1 0x4 DUP1 CALLDATASIZE SUB PUSH1 0x20 DUP2 LT ISZERO PUSH2 0xE0D JUMPI PUSH1 0x0 DUP1 REVERT JUMPDEST DUP2 ADD SWAP1 DUP1 DUP1 CALLDATALOAD PUSH20 0xFFFFFFFFFFFFFFFFFFFFFFFFFFFFFFFFFFFFFFFF AND SWAP1 PUSH1 0x20 ADD SWAP1 SWAP3 SWAP2 SWAP1 POP POP POP PUSH2 0x2BDE JUMP JUMPDEST STOP JUMPDEST CALLVALUE DUP1 ISZERO PUSH2 0xE47 JUMPI PUSH1 0x0 DUP1 REVERT JUMPDEST POP PUSH2 0xE8A PUSH1 0x4 DUP1 CALLDATASIZE SUB PUSH1 0x20 DUP2 LT ISZERO PUSH2 0xE5E JUMPI PUSH1 0x0 DUP1 REVERT JUMPDEST DUP2 ADD SWAP1 DUP1 DUP1 CALLDATALOAD PUSH20 0xFFFFFFFFFFFFFFFFFFFFFFFFFFFFFFFFFFFFFFFF AND SWAP1 PUSH1 0x20 ADD SWAP1 SWAP3 SWAP2 SWAP1 POP POP POP PUSH2 0x2DE9 JUMP JUMPDEST STOP JUMPDEST PUSH2 0xE94 PUSH2 0x30E5 JUMP JUMPDEST PUSH20 0xFFFFFFFFFFFFFFFFFFFFFFFFFFFFFFFFFFFFFFFF AND PUSH1 0x0 DUP1 SLOAD SWAP1 PUSH2 0x100 EXP SWAP1 DIV PUSH20 0xFFFFFFFFFFFFFFFFFFFFFFFFFFFFFFFFFFFFFFFF AND PUSH20 0xFFFFFFFFFFFFFFFFFFFFFFFFFFFFFFFFFFFFFFFF AND EQ PUSH2 0xF54 JUMPI PUSH1 0x40 MLOAD PUSH32 0x8C379A000000000000000000000000000000000000000000000000000000000 DUP2 MSTORE PUSH1 0x4 ADD DUP1 DUP1 PUSH1 0x20 ADD DUP3 DUP2 SUB DUP3 MSTORE PUSH1 0x20 DUP2 MSTORE PUSH1 0x20 ADD DUP1 PUSH32 0x4F776E61626C653A2063616C6C6572206973206E6F7420746865206F776E6572 DUP2 MSTORE POP PUSH1 0x20 ADD SWAP2 POP POP PUSH1 0x40 MLOAD DUP1 SWAP2 SUB SWAP1 REVERT JUMPDEST DUP1 PUSH1 0x12 DUP2 SWAP1 SSTORE POP POP JUMP JUMPDEST PUSH1 0x60 PUSH1 0xF DUP1 SLOAD PUSH1 0x1 DUP2 PUSH1 0x1 AND ISZERO PUSH2 0x100 MUL SUB AND PUSH1 0x2 SWAP1 DIV DUP1 PUSH1 0x1F ADD PUSH1 0x20 DUP1 SWAP2 DIV MUL PUSH1 0x20 ADD PUSH1 0x40 MLOAD SWAP1 DUP2 ADD PUSH1 0x40 MSTORE DUP1 SWAP3 SWAP2 SWAP1 DUP2 DUP2 MSTORE PUSH1 0x20 ADD DUP3 DUP1 SLOAD PUSH1 0x1 DUP2 PUSH1 0x1 AND ISZERO PUSH2 0x100 MUL SUB AND PUSH1 0x2 SWAP1 DIV DUP1 ISZERO PUSH2 0xFF6 JUMPI DUP1 PUSH1 0x1F LT PUSH2 0xFCB JUMPI PUSH2 0x100 DUP1 DUP4 SLOAD DIV MUL DUP4 MSTORE SWAP2 PUSH1 0x20 ADD SWAP2 PUSH2 0xFF6 JUMP JUMPDEST DUP3 ADD SWAP2 SWAP1 PUSH1 0x0 MSTORE PUSH1 0x20 PUSH1 0x0 KECCAK256 SWAP1 JUMPDEST DUP2 SLOAD DUP2 MSTORE SWAP1 PUSH1 0x1 ADD SWAP1 PUSH1 0x20 ADD DUP1 DUP4 GT PUSH2 0xFD9 JUMPI DUP3 SWAP1 SUB PUSH1 0x1F AND DUP3 ADD SWAP2 JUMPDEST POP POP POP POP POP SWAP1 POP SWAP1 JUMP JUMPDEST PUSH1 0x0 PUSH2 0x1014 PUSH2 0x100D PUSH2 0x30E5 JUMP JUMPDEST DUP5 DUP5 PUSH2 0x30ED JUMP JUMPDEST PUSH1 0x1 SWAP1 POP SWAP3 SWAP2 POP POP JUMP JUMPDEST PUSH1 0x0 PUSH1 0xE SLOAD SWAP1 POP SWAP1 JUMP JUMPDEST PUSH1 0x18 PUSH1 0x0 SWAP1 SLOAD SWAP1 PUSH2 0x100 EXP SWAP1 DIV PUSH20 0xFFFFFFFFFFFFFFFFFFFFFFFFFFFFFFFFFFFFFFFF AND DUP2 JUMP JUMPDEST PUSH1 0x0 PUSH1 0xC SLOAD SWAP1 POP SWAP1 JUMP JUMPDEST PUSH1 0x0 PUSH2 0x1065 DUP5 DUP5 DUP5 PUSH2 0x32E4 JUMP JUMPDEST PUSH2 0x1126 DUP5 PUSH2 0x1071 PUSH2 0x30E5 JUMP JUMPDEST PUSH2 0x1121 DUP6 PUSH1 0x40 MLOAD DUP1 PUSH1 0x60 ADD PUSH1 0x40 MSTORE DUP1 PUSH1 0x28 DUP2 MSTORE PUSH1 0x20 ADD PUSH2 0x559A PUSH1 0x28 SWAP2 CODECOPY PUSH1 0x6 PUSH1 0x0 DUP12 PUSH20 0xFFFFFFFFFFFFFFFFFFFFFFFFFFFFFFFFFFFFFFFF AND PUSH20 0xFFFFFFFFFFFFFFFFFFFFFFFFFFFFFFFFFFFFFFFF AND DUP2 MSTORE PUSH1 0x20 ADD SWAP1 DUP2 MSTORE PUSH1 0x20 ADD PUSH1 0x0 KECCAK256 PUSH1 0x0 PUSH2 0x10D7 PUSH2 0x30E5 JUMP JUMPDEST PUSH20 0xFFFFFFFFFFFFFFFFFFFFFFFFFFFFFFFFFFFFFFFF AND PUSH20 0xFFFFFFFFFFFFFFFFFFFFFFFFFFFFFFFFFFFFFFFF AND DUP2 MSTORE PUSH1 0x20 ADD SWAP1 DUP2 MSTORE PUSH1 0x20 ADD PUSH1 0x0 KECCAK256 SLOAD PUSH2 0x3AE0 SWAP1 SWAP3 SWAP2 SWAP1 PUSH4 0xFFFFFFFF AND JUMP JUMPDEST PUSH2 0x30ED JUMP JUMPDEST PUSH1 0x1 SWAP1 POP SWAP4 SWAP3 POP POP POP JUMP JUMPDEST PUSH32 0x0 DUP2 JUMP JUMPDEST PUSH1 0x0 PUSH1 0xD SLOAD DUP3 GT ISZERO PUSH2 0x11B2 JUMPI PUSH1 0x40 MLOAD PUSH32 0x8C379A000000000000000000000000000000000000000000000000000000000 DUP2 MSTORE PUSH1 0x4 ADD DUP1 DUP1 PUSH1 0x20 ADD DUP3 DUP2 SUB DUP3 MSTORE PUSH1 0x2A DUP2 MSTORE PUSH1 0x20 ADD DUP1 PUSH2 0x5507 PUSH1 0x2A SWAP2 CODECOPY PUSH1 0x40 ADD SWAP2 POP POP PUSH1 0x40 MLOAD DUP1 SWAP2 SUB SWAP1 REVERT JUMPDEST PUSH1 0x0 PUSH2 0x11BC PUSH2 0x3BA0 JUMP JUMPDEST SWAP1 POP PUSH2 0x11D1 DUP2 DUP5 PUSH2 0x3BCB SWAP1 SWAP2 SWAP1 PUSH4 0xFFFFFFFF AND JUMP JUMPDEST SWAP2 POP POP SWAP2 SWAP1 POP JUMP JUMPDEST PUSH1 0x0 PUSH1 0x11 PUSH1 0x0 SWAP1 SLOAD SWAP1 PUSH2 0x100 EXP SWAP1 DIV PUSH1 0xFF AND SWAP1 POP SWAP1 JUMP JUMPDEST PUSH2 0x11F8 PUSH2 0x30E5 JUMP JUMPDEST PUSH20 0xFFFFFFFFFFFFFFFFFFFFFFFFFFFFFFFFFFFFFFFF AND PUSH1 0x0 DUP1 SLOAD SWAP1 PUSH2 0x100 EXP SWAP1 DIV PUSH20 0xFFFFFFFFFFFFFFFFFFFFFFFFFFFFFFFFFFFFFFFF AND PUSH20 0xFFFFFFFFFFFFFFFFFFFFFFFFFFFFFFFFFFFFFFFF AND EQ PUSH2 0x12B8 JUMPI PUSH1 0x40 MLOAD PUSH32 0x8C379A000000000000000000000000000000000000000000000000000000000 DUP2 MSTORE PUSH1 0x4 ADD DUP1 DUP1 PUSH1 0x20 ADD DUP3 DUP2 SUB DUP3 MSTORE PUSH1 0x20 DUP2 MSTORE PUSH1 0x20 ADD DUP1 PUSH32 0x4F776E61626C653A2063616C6C6572206973206E6F7420746865206F776E6572 DUP2 MSTORE POP PUSH1 0x20 ADD SWAP2 POP POP PUSH1 0x40 MLOAD DUP1 SWAP2 SUB SWAP1 REVERT JUMPDEST PUSH1 0x7 PUSH1 0x0 DUP3 PUSH20 0xFFFFFFFFFFFFFFFFFFFFFFFFFFFFFFFFFFFFFFFF AND PUSH20 0xFFFFFFFFFFFFFFFFFFFFFFFFFFFFFFFFFFFFFFFF AND DUP2 MSTORE PUSH1 0x20 ADD SWAP1 DUP2 MSTORE PUSH1 0x20 ADD PUSH1 0x0 KECCAK256 PUSH1 0x0 SWAP1 SLOAD SWAP1 PUSH2 0x100 EXP SWAP1 DIV PUSH1 0xFF AND PUSH2 0x1377 JUMPI PUSH1 0x40 MLOAD PUSH32 0x8C379A000000000000000000000000000000000000000000000000000000000 DUP2 MSTORE PUSH1 0x4 ADD DUP1 DUP1 PUSH1 0x20 ADD DUP3 DUP2 SUB DUP3 MSTORE PUSH1 0x1A DUP2 MSTORE PUSH1 0x20 ADD DUP1 PUSH32 0x4163636F756E74206973206E6F7420626C61636B6C6973746564000000000000 DUP2 MSTORE POP PUSH1 0x20 ADD SWAP2 POP POP PUSH1 0x40 MLOAD DUP1 SWAP2 SUB SWAP1 REVERT JUMPDEST PUSH1 0x0 JUMPDEST PUSH1 0x8 DUP1 SLOAD SWAP1 POP DUP2 LT ISZERO PUSH2 0x1531 JUMPI DUP2 PUSH20 0xFFFFFFFFFFFFFFFFFFFFFFFFFFFFFFFFFFFFFFFF AND PUSH1 0x8 DUP3 DUP2 SLOAD DUP2 LT PUSH2 0x13AB JUMPI INVALID JUMPDEST SWAP1 PUSH1 0x0 MSTORE PUSH1 0x20 PUSH1 0x0 KECCAK256 ADD PUSH1 0x0 SWAP1 SLOAD SWAP1 PUSH2 0x100 EXP SWAP1 DIV PUSH20 0xFFFFFFFFFFFFFFFFFFFFFFFFFFFFFFFFFFFFFFFF AND PUSH20 0xFFFFFFFFFFFFFFFFFFFFFFFFFFFFFFFFFFFFFFFF AND EQ ISZERO PUSH2 0x1524 JUMPI PUSH1 0x8 PUSH1 0x1 PUSH1 0x8 DUP1 SLOAD SWAP1 POP SUB DUP2 SLOAD DUP2 LT PUSH2 0x1407 JUMPI INVALID JUMPDEST SWAP1 PUSH1 0x0 MSTORE PUSH1 0x20 PUSH1 0x0 KECCAK256 ADD PUSH1 0x0 SWAP1 SLOAD SWAP1 PUSH2 0x100 EXP SWAP1 DIV PUSH20 0xFFFFFFFFFFFFFFFFFFFFFFFFFFFFFFFFFFFFFFFF AND PUSH1 0x8 DUP3 DUP2 SLOAD DUP2 LT PUSH2 0x143F JUMPI INVALID JUMPDEST SWAP1 PUSH1 0x0 MSTORE PUSH1 0x20 PUSH1 0x0 KECCAK256 ADD PUSH1 0x0 PUSH2 0x100 EXP DUP2 SLOAD DUP2 PUSH20 0xFFFFFFFFFFFFFFFFFFFFFFFFFFFFFFFFFFFFFFFF MUL NOT AND SWAP1 DUP4 PUSH20 0xFFFFFFFFFFFFFFFFFFFFFFFFFFFFFFFFFFFFFFFF AND MUL OR SWAP1 SSTORE POP PUSH1 0x0 PUSH1 0x7 PUSH1 0x0 DUP5 PUSH20 0xFFFFFFFFFFFFFFFFFFFFFFFFFFFFFFFFFFFFFFFF AND PUSH20 0xFFFFFFFFFFFFFFFFFFFFFFFFFFFFFFFFFFFFFFFF AND DUP2 MSTORE PUSH1 0x20 ADD SWAP1 DUP2 MSTORE PUSH1 0x20 ADD PUSH1 0x0 KECCAK256 PUSH1 0x0 PUSH2 0x100 EXP DUP2 SLOAD DUP2 PUSH1 0xFF MUL NOT AND SWAP1 DUP4 ISZERO ISZERO MUL OR SWAP1 SSTORE POP PUSH1 0x8 DUP1 SLOAD DUP1 PUSH2 0x14EA JUMPI INVALID JUMPDEST PUSH1 0x1 SWAP1 SUB DUP2 DUP2 SWAP1 PUSH1 0x0 MSTORE PUSH1 0x20 PUSH1 0x0 KECCAK256 ADD PUSH1 0x0 PUSH2 0x100 EXP DUP2 SLOAD SWAP1 PUSH20 0xFFFFFFFFFFFFFFFFFFFFFFFFFFFFFFFFFFFFFFFF MUL NOT AND SWAP1 SSTORE SWAP1 SSTORE PUSH2 0x1531 JUMP JUMPDEST DUP1 DUP1 PUSH1 0x1 ADD SWAP2 POP POP PUSH2 0x137A JUMP JUMPDEST POP POP JUMP JUMPDEST PUSH2 0x153D PUSH2 0x30E5 JUMP JUMPDEST PUSH20 0xFFFFFFFFFFFFFFFFFFFFFFFFFFFFFFFFFFFFFFFF AND PUSH1 0x0 DUP1 SLOAD SWAP1 PUSH2 0x100 EXP SWAP1 DIV PUSH20 0xFFFFFFFFFFFFFFFFFFFFFFFFFFFFFFFFFFFFFFFF AND PUSH20 0xFFFFFFFFFFFFFFFFFFFFFFFFFFFFFFFFFFFFFFFF AND EQ PUSH2 0x15FD JUMPI PUSH1 0x40 MLOAD PUSH32 0x8C379A000000000000000000000000000000000000000000000000000000000 DUP2 MSTORE PUSH1 0x4 ADD DUP1 DUP1 PUSH1 0x20 ADD DUP3 DUP2 SUB DUP3 MSTORE PUSH1 0x20 DUP2 MSTORE PUSH1 0x20 ADD DUP1 PUSH32 0x4F776E61626C653A2063616C6C6572206973206E6F7420746865206F776E6572 DUP2 MSTORE POP PUSH1 0x20 ADD SWAP2 POP POP PUSH1 0x40 MLOAD DUP1 SWAP2 SUB SWAP1 REVERT JUMPDEST PUSH1 0xA PUSH1 0x0 DUP3 PUSH20 0xFFFFFFFFFFFFFFFFFFFFFFFFFFFFFFFFFFFFFFFF AND PUSH20 0xFFFFFFFFFFFFFFFFFFFFFFFFFFFFFFFFFFFFFFFF AND DUP2 MSTORE PUSH1 0x20 ADD SWAP1 DUP2 MSTORE PUSH1 0x20 ADD PUSH1 0x0 KECCAK256 PUSH1 0x0 SWAP1 SLOAD SWAP1 PUSH2 0x100 EXP SWAP1 DIV PUSH1 0xFF AND PUSH2 0x16BC JUMPI PUSH1 0x40 MLOAD PUSH32 0x8C379A000000000000000000000000000000000000000000000000000000000 DUP2 MSTORE PUSH1 0x4 ADD DUP1 DUP1 PUSH1 0x20 ADD DUP3 DUP2 SUB DUP3 MSTORE PUSH1 0x1B DUP2 MSTORE PUSH1 0x20 ADD DUP1 PUSH32 0x4163636F756E7420697320616C7265616479206578636C756465640000000000 DUP2 MSTORE POP PUSH1 0x20 ADD SWAP2 POP POP PUSH1 0x40 MLOAD DUP1 SWAP2 SUB SWAP1 REVERT JUMPDEST PUSH1 0x0 JUMPDEST PUSH1 0xB DUP1 SLOAD SWAP1 POP DUP2 LT ISZERO PUSH2 0x18BB JUMPI DUP2 PUSH20 0xFFFFFFFFFFFFFFFFFFFFFFFFFFFFFFFFFFFFFFFF AND PUSH1 0xB DUP3 DUP2 SLOAD DUP2 LT PUSH2 0x16F0 JUMPI INVALID JUMPDEST SWAP1 PUSH1 0x0 MSTORE PUSH1 0x20 PUSH1 0x0 KECCAK256 ADD PUSH1 0x0 SWAP1 SLOAD SWAP1 PUSH2 0x100 EXP SWAP1 DIV PUSH20 0xFFFFFFFFFFFFFFFFFFFFFFFFFFFFFFFFFFFFFFFF AND PUSH20 0xFFFFFFFFFFFFFFFFFFFFFFFFFFFFFFFFFFFFFFFF AND EQ ISZERO PUSH2 0x18AE JUMPI PUSH1 0xB PUSH1 0x1 PUSH1 0xB DUP1 SLOAD SWAP1 POP SUB DUP2 SLOAD DUP2 LT PUSH2 0x174C JUMPI INVALID JUMPDEST SWAP1 PUSH1 0x0 MSTORE PUSH1 0x20 PUSH1 0x0 KECCAK256 ADD PUSH1 0x0 SWAP1 SLOAD SWAP1 PUSH2 0x100 EXP SWAP1 DIV PUSH20 0xFFFFFFFFFFFFFFFFFFFFFFFFFFFFFFFFFFFFFFFF AND PUSH1 0xB DUP3 DUP2 SLOAD DUP2 LT PUSH2 0x1784 JUMPI INVALID JUMPDEST SWAP1 PUSH1 0x0 MSTORE PUSH1 0x20 PUSH1 0x0 KECCAK256 ADD PUSH1 0x0 PUSH2 0x100 EXP DUP2 SLOAD DUP2 PUSH20 0xFFFFFFFFFFFFFFFFFFFFFFFFFFFFFFFFFFFFFFFF MUL NOT AND SWAP1 DUP4 PUSH20 0xFFFFFFFFFFFFFFFFFFFFFFFFFFFFFFFFFFFFFFFF AND MUL OR SWAP1 SSTORE POP PUSH1 0x0 PUSH1 0x5 PUSH1 0x0 DUP5 PUSH20 0xFFFFFFFFFFFFFFFFFFFFFFFFFFFFFFFFFFFFFFFF AND PUSH20 0xFFFFFFFFFFFFFFFFFFFFFFFFFFFFFFFFFFFFFFFF AND DUP2 MSTORE PUSH1 0x20 ADD SWAP1 DUP2 MSTORE PUSH1 0x20 ADD PUSH1 0x0 KECCAK256 DUP2 SWAP1 SSTORE POP PUSH1 0x0 PUSH1 0xA PUSH1 0x0 DUP5 PUSH20 0xFFFFFFFFFFFFFFFFFFFFFFFFFFFFFFFFFFFFFFFF AND PUSH20 0xFFFFFFFFFFFFFFFFFFFFFFFFFFFFFFFFFFFFFFFF AND DUP2 MSTORE PUSH1 0x20 ADD SWAP1 DUP2 MSTORE PUSH1 0x20 ADD PUSH1 0x0 KECCAK256 PUSH1 0x0 PUSH2 0x100 EXP DUP2 SLOAD DUP2 PUSH1 0xFF MUL NOT AND SWAP1 DUP4 ISZERO ISZERO MUL OR SWAP1 SSTORE POP PUSH1 0xB DUP1 SLOAD DUP1 PUSH2 0x1874 JUMPI INVALID JUMPDEST PUSH1 0x1 SWAP1 SUB DUP2 DUP2 SWAP1 PUSH1 0x0 MSTORE PUSH1 0x20 PUSH1 0x0 KECCAK256 ADD PUSH1 0x0 PUSH2 0x100 EXP DUP2 SLOAD SWAP1 PUSH20 0xFFFFFFFFFFFFFFFFFFFFFFFFFFFFFFFFFFFFFFFF MUL NOT AND SWAP1 SSTORE SWAP1 SSTORE PUSH2 0x18BB JUMP JUMPDEST DUP1 DUP1 PUSH1 0x1 ADD SWAP2 POP POP PUSH2 0x16BF JUMP JUMPDEST POP POP JUMP JUMPDEST PUSH1 0x0 PUSH2 0x1968 PUSH2 0x18CC PUSH2 0x30E5 JUMP JUMPDEST DUP5 PUSH2 0x1963 DUP6 PUSH1 0x6 PUSH1 0x0 PUSH2 0x18DD PUSH2 0x30E5 JUMP JUMPDEST PUSH20 0xFFFFFFFFFFFFFFFFFFFFFFFFFFFFFFFFFFFFFFFF AND PUSH20 0xFFFFFFFFFFFFFFFFFFFFFFFFFFFFFFFFFFFFFFFF AND DUP2 MSTORE PUSH1 0x20 ADD SWAP1 DUP2 MSTORE PUSH1 0x20 ADD PUSH1 0x0 KECCAK256 PUSH1 0x0 DUP10 PUSH20 0xFFFFFFFFFFFFFFFFFFFFFFFFFFFFFFFFFFFFFFFF AND PUSH20 0xFFFFFFFFFFFFFFFFFFFFFFFFFFFFFFFFFFFFFFFF AND DUP2 MSTORE PUSH1 0x20 ADD SWAP1 DUP2 MSTORE PUSH1 0x20 ADD PUSH1 0x0 KECCAK256 SLOAD PUSH2 0x3C15 SWAP1 SWAP2 SWAP1 PUSH4 0xFFFFFFFF AND JUMP JUMPDEST PUSH2 0x30ED JUMP JUMPDEST PUSH1 0x1 SWAP1 POP SWAP3 SWAP2 POP POP JUMP JUMPDEST PUSH1 0x12 SLOAD DUP2 JUMP JUMPDEST PUSH1 0x0 PUSH2 0x1982 PUSH2 0x30E5 JUMP JUMPDEST SWAP1 POP PUSH1 0xA PUSH1 0x0 DUP3 PUSH20 0xFFFFFFFFFFFFFFFFFFFFFFFFFFFFFFFFFFFFFFFF AND PUSH20 0xFFFFFFFFFFFFFFFFFFFFFFFFFFFFFFFFFFFFFFFF AND DUP2 MSTORE PUSH1 0x20 ADD SWAP1 DUP2 MSTORE PUSH1 0x20 ADD PUSH1 0x0 KECCAK256 PUSH1 0x0 SWAP1 SLOAD SWAP1 PUSH2 0x100 EXP SWAP1 DIV PUSH1 0xFF AND ISZERO PUSH2 0x1A27 JUMPI PUSH1 0x40 MLOAD PUSH32 0x8C379A000000000000000000000000000000000000000000000000000000000 DUP2 MSTORE PUSH1 0x4 ADD DUP1 DUP1 PUSH1 0x20 ADD DUP3 DUP2 SUB DUP3 MSTORE PUSH1 0x2C DUP2 MSTORE PUSH1 0x20 ADD DUP1 PUSH2 0x5634 PUSH1 0x2C SWAP2 CODECOPY PUSH1 0x40 ADD SWAP2 POP POP PUSH1 0x40 MLOAD DUP1 SWAP2 SUB SWAP1 REVERT JUMPDEST PUSH1 0x0 PUSH2 0x1A32 DUP4 PUSH2 0x3C9D JUMP JUMPDEST POP POP POP POP POP SWAP1 POP PUSH2 0x1A8B DUP2 PUSH1 0x4 PUSH1 0x0 DUP6 PUSH20 0xFFFFFFFFFFFFFFFFFFFFFFFFFFFFFFFFFFFFFFFF AND PUSH20 0xFFFFFFFFFFFFFFFFFFFFFFFFFFFFFFFFFFFFFFFF AND DUP2 MSTORE PUSH1 0x20 ADD SWAP1 DUP2 MSTORE PUSH1 0x20 ADD PUSH1 0x0 KECCAK256 SLOAD PUSH2 0x3CF9 SWAP1 SWAP2 SWAP1 PUSH4 0xFFFFFFFF AND JUMP JUMPDEST PUSH1 0x4 PUSH1 0x0 DUP5 PUSH20 0xFFFFFFFFFFFFFFFFFFFFFFFFFFFFFFFFFFFFFFFF AND PUSH20 0xFFFFFFFFFFFFFFFFFFFFFFFFFFFFFFFFFFFFFFFF AND DUP2 MSTORE PUSH1 0x20 ADD SWAP1 DUP2 MSTORE PUSH1 0x20 ADD PUSH1 0x0 KECCAK256 DUP2 SWAP1 SSTORE POP PUSH2 0x1AE3 DUP2 PUSH1 0xD SLOAD PUSH2 0x3CF9 SWAP1 SWAP2 SWAP1 PUSH4 0xFFFFFFFF AND JUMP JUMPDEST PUSH1 0xD DUP2 SWAP1 SSTORE POP PUSH2 0x1AFE DUP4 PUSH1 0xE SLOAD PUSH2 0x3C15 SWAP1 SWAP2 SWAP1 PUSH4 0xFFFFFFFF AND JUMP JUMPDEST PUSH1 0xE DUP2 SWAP1 SSTORE POP POP POP POP JUMP JUMPDEST PUSH2 0x1B11 PUSH2 0x30E5 JUMP JUMPDEST PUSH20 0xFFFFFFFFFFFFFFFFFFFFFFFFFFFFFFFFFFFFFFFF AND PUSH1 0x0 DUP1 SLOAD SWAP1 PUSH2 0x100 EXP SWAP1 DIV PUSH20 0xFFFFFFFFFFFFFFFFFFFFFFFFFFFFFFFFFFFFFFFF AND PUSH20 0xFFFFFFFFFFFFFFFFFFFFFFFFFFFFFFFFFFFFFFFF AND EQ PUSH2 0x1BD1 JUMPI PUSH1 0x40 MLOAD PUSH32 0x8C379A000000000000000000000000000000000000000000000000000000000 DUP2 MSTORE PUSH1 0x4 ADD DUP1 DUP1 PUSH1 0x20 ADD DUP3 DUP2 SUB DUP3 MSTORE PUSH1 0x20 DUP2 MSTORE PUSH1 0x20 ADD DUP1 PUSH32 0x4F776E61626C653A2063616C6C6572206973206E6F7420746865206F776E6572 DUP2 MSTORE POP PUSH1 0x20 ADD SWAP2 POP POP PUSH1 0x40 MLOAD DUP1 SWAP2 SUB SWAP1 REVERT JUMPDEST PUSH1 0x1 PUSH1 0x9 PUSH1 0x0 DUP4 PUSH20 0xFFFFFFFFFFFFFFFFFFFFFFFFFFFFFFFFFFFFFFFF AND PUSH20 0xFFFFFFFFFFFFFFFFFFFFFFFFFFFFFFFFFFFFFFFF AND DUP2 MSTORE PUSH1 0x20 ADD SWAP1 DUP2 MSTORE PUSH1 0x20 ADD PUSH1 0x0 KECCAK256 PUSH1 0x0 PUSH2 0x100 EXP DUP2 SLOAD DUP2 PUSH1 0xFF MUL NOT AND SWAP1 DUP4 ISZERO ISZERO MUL OR SWAP1 SSTORE POP POP JUMP JUMPDEST PUSH1 0x0 PUSH1 0xC SLOAD DUP4 GT ISZERO PUSH2 0x1CA6 JUMPI PUSH1 0x40 MLOAD PUSH32 0x8C379A000000000000000000000000000000000000000000000000000000000 DUP2 MSTORE PUSH1 0x4 ADD DUP1 DUP1 PUSH1 0x20 ADD DUP3 DUP2 SUB DUP3 MSTORE PUSH1 0x1F DUP2 MSTORE PUSH1 0x20 ADD DUP1 PUSH32 0x416D6F756E74206D757374206265206C657373207468616E20737570706C7900 DUP2 MSTORE POP PUSH1 0x20 ADD SWAP2 POP POP PUSH1 0x40 MLOAD DUP1 SWAP2 SUB SWAP1 REVERT JUMPDEST DUP2 PUSH2 0x1CC6 JUMPI PUSH1 0x0 PUSH2 0x1CB6 DUP5 PUSH2 0x3C9D JUMP JUMPDEST POP POP POP POP POP SWAP1 POP DUP1 SWAP2 POP POP PUSH2 0x1CDD JUMP JUMPDEST PUSH1 0x0 PUSH2 0x1CD1 DUP5 PUSH2 0x3C9D JUMP JUMPDEST POP POP POP POP SWAP2 POP POP DUP1 SWAP2 POP POP JUMPDEST SWAP3 SWAP2 POP POP JUMP JUMPDEST PUSH2 0x1CEB PUSH2 0x30E5 JUMP JUMPDEST PUSH20 0xFFFFFFFFFFFFFFFFFFFFFFFFFFFFFFFFFFFFFFFF AND PUSH1 0x0 DUP1 SLOAD SWAP1 PUSH2 0x100 EXP SWAP1 DIV PUSH20 0xFFFFFFFFFFFFFFFFFFFFFFFFFFFFFFFFFFFFFFFF AND PUSH20 0xFFFFFFFFFFFFFFFFFFFFFFFFFFFFFFFFFFFFFFFF AND EQ PUSH2 0x1DAB JUMPI PUSH1 0x40 MLOAD PUSH32 0x8C379A000000000000000000000000000000000000000000000000000000000 DUP2 MSTORE PUSH1 0x4 ADD DUP1 DUP1 PUSH1 0x20 ADD DUP3 DUP2 SUB DUP3 MSTORE PUSH1 0x20 DUP2 MSTORE PUSH1 0x20 ADD DUP1 PUSH32 0x4F776E61626C653A2063616C6C6572206973206E6F7420746865206F776E6572 DUP2 MSTORE POP PUSH1 0x20 ADD SWAP2 POP POP PUSH1 0x40 MLOAD DUP1 SWAP2 SUB SWAP1 REVERT JUMPDEST DUP1 PUSH1 0x16 DUP2 SWAP1 SSTORE POP POP JUMP JUMPDEST PUSH1 0x19 PUSH1 0x0 SWAP1 SLOAD SWAP1 PUSH2 0x100 EXP SWAP1 DIV PUSH20 0xFFFFFFFFFFFFFFFFFFFFFFFFFFFFFFFFFFFFFFFF AND DUP2 JUMP JUMPDEST PUSH2 0x1DE3 PUSH2 0x30E5 JUMP JUMPDEST PUSH20 0xFFFFFFFFFFFFFFFFFFFFFFFFFFFFFFFFFFFFFFFF AND PUSH1 0x0 DUP1 SLOAD SWAP1 PUSH2 0x100 EXP SWAP1 DIV PUSH20 0xFFFFFFFFFFFFFFFFFFFFFFFFFFFFFFFFFFFFFFFF AND PUSH20 0xFFFFFFFFFFFFFFFFFFFFFFFFFFFFFFFFFFFFFFFF AND EQ PUSH2 0x1EA3 JUMPI PUSH1 0x40 MLOAD PUSH32 0x8C379A000000000000000000000000000000000000000000000000000000000 DUP2 MSTORE PUSH1 0x4 ADD DUP1 DUP1 PUSH1 0x20 ADD DUP3 DUP2 SUB DUP3 MSTORE PUSH1 0x20 DUP2 MSTORE PUSH1 0x20 ADD DUP1 PUSH32 0x4F776E61626C653A2063616C6C6572206973206E6F7420746865206F776E6572 DUP2 MSTORE POP PUSH1 0x20 ADD SWAP2 POP POP PUSH1 0x40 MLOAD DUP1 SWAP2 SUB SWAP1 REVERT JUMPDEST PUSH1 0xA PUSH1 0x0 DUP3 PUSH20 0xFFFFFFFFFFFFFFFFFFFFFFFFFFFFFFFFFFFFFFFF AND PUSH20 0xFFFFFFFFFFFFFFFFFFFFFFFFFFFFFFFFFFFFFFFF AND DUP2 MSTORE PUSH1 0x20 ADD SWAP1 DUP2 MSTORE PUSH1 0x20 ADD PUSH1 0x0 KECCAK256 PUSH1 0x0 SWAP1 SLOAD SWAP1 PUSH2 0x100 EXP SWAP1 DIV PUSH1 0xFF AND ISZERO PUSH2 0x1F63 JUMPI PUSH1 0x40 MLOAD PUSH32 0x8C379A000000000000000000000000000000000000000000000000000000000 DUP2 MSTORE PUSH1 0x4 ADD DUP1 DUP1 PUSH1 0x20 ADD DUP3 DUP2 SUB DUP3 MSTORE PUSH1 0x1B DUP2 MSTORE PUSH1 0x20 ADD DUP1 PUSH32 0x4163636F756E7420697320616C7265616479206578636C756465640000000000 DUP2 MSTORE POP PUSH1 0x20 ADD SWAP2 POP POP PUSH1 0x40 MLOAD DUP1 SWAP2 SUB SWAP1 REVERT JUMPDEST PUSH1 0x0 PUSH1 0x4 PUSH1 0x0 DUP4 PUSH20 0xFFFFFFFFFFFFFFFFFFFFFFFFFFFFFFFFFFFFFFFF AND PUSH20 0xFFFFFFFFFFFFFFFFFFFFFFFFFFFFFFFFFFFFFFFF AND DUP2 MSTORE PUSH1 0x20 ADD SWAP1 DUP2 MSTORE PUSH1 0x20 ADD PUSH1 0x0 KECCAK256 SLOAD GT ISZERO PUSH2 0x2037 JUMPI PUSH2 0x1FF3 PUSH1 0x4 PUSH1 0x0 DUP4 PUSH20 0xFFFFFFFFFFFFFFFFFFFFFFFFFFFFFFFFFFFFFFFF AND PUSH20 0xFFFFFFFFFFFFFFFFFFFFFFFFFFFFFFFFFFFFFFFF AND DUP2 MSTORE PUSH1 0x20 ADD SWAP1 DUP2 MSTORE PUSH1 0x20 ADD PUSH1 0x0 KECCAK256 SLOAD PUSH2 0x1155 JUMP JUMPDEST PUSH1 0x5 PUSH1 0x0 DUP4 PUSH20 0xFFFFFFFFFFFFFFFFFFFFFFFFFFFFFFFFFFFFFFFF AND PUSH20 0xFFFFFFFFFFFFFFFFFFFFFFFFFFFFFFFFFFFFFFFF AND DUP2 MSTORE PUSH1 0x20 ADD SWAP1 DUP2 MSTORE PUSH1 0x20 ADD PUSH1 0x0 KECCAK256 DUP2 SWAP1 SSTORE POP JUMPDEST PUSH1 0x1 PUSH1 0xA PUSH1 0x0 DUP4 PUSH20 0xFFFFFFFFFFFFFFFFFFFFFFFFFFFFFFFFFFFFFFFF AND PUSH20 0xFFFFFFFFFFFFFFFFFFFFFFFFFFFFFFFFFFFFFFFF AND DUP2 MSTORE PUSH1 0x20 ADD SWAP1 DUP2 MSTORE PUSH1 0x20 ADD PUSH1 0x0 KECCAK256 PUSH1 0x0 PUSH2 0x100 EXP DUP2 SLOAD DUP2 PUSH1 0xFF MUL NOT AND SWAP1 DUP4 ISZERO ISZERO MUL OR SWAP1 SSTORE POP PUSH1 0xB DUP2 SWAP1 DUP1 PUSH1 0x1 DUP2 SLOAD ADD DUP1 DUP3 SSTORE DUP1 SWAP2 POP POP PUSH1 0x1 SWAP1 SUB SWAP1 PUSH1 0x0 MSTORE PUSH1 0x20 PUSH1 0x0 KECCAK256 ADD PUSH1 0x0 SWAP1 SWAP2 SWAP1 SWAP2 SWAP1 SWAP2 PUSH2 0x100 EXP DUP2 SLOAD DUP2 PUSH20 0xFFFFFFFFFFFFFFFFFFFFFFFFFFFFFFFFFFFFFFFF MUL NOT AND SWAP1 DUP4 PUSH20 0xFFFFFFFFFFFFFFFFFFFFFFFFFFFFFFFFFFFFFFFF AND MUL OR SWAP1 SSTORE POP POP JUMP JUMPDEST PUSH1 0x0 PUSH1 0x9 PUSH1 0x0 DUP4 PUSH20 0xFFFFFFFFFFFFFFFFFFFFFFFFFFFFFFFFFFFFFFFF AND PUSH20 0xFFFFFFFFFFFFFFFFFFFFFFFFFFFFFFFFFFFFFFFF AND DUP2 MSTORE PUSH1 0x20 ADD SWAP1 DUP2 MSTORE PUSH1 0x20 ADD PUSH1 0x0 KECCAK256 PUSH1 0x0 SWAP1 SLOAD SWAP1 PUSH2 0x100 EXP SWAP1 DIV PUSH1 0xFF AND SWAP1 POP SWAP2 SWAP1 POP JUMP JUMPDEST PUSH1 0x0 PUSH1 0x7 PUSH1 0x0 DUP4 PUSH20 0xFFFFFFFFFFFFFFFFFFFFFFFFFFFFFFFFFFFFFFFF AND PUSH20 0xFFFFFFFFFFFFFFFFFFFFFFFFFFFFFFFFFFFFFFFF AND DUP2 MSTORE PUSH1 0x20 ADD SWAP1 DUP2 MSTORE PUSH1 0x20 ADD PUSH1 0x0 KECCAK256 PUSH1 0x0 SWAP1 SLOAD SWAP1 PUSH2 0x100 EXP SWAP1 DIV PUSH1 0xFF AND SWAP1 POP SWAP2 SWAP1 POP JUMP JUMPDEST PUSH1 0x14 SLOAD DUP2 JUMP JUMPDEST PUSH1 0x0 PUSH1 0xA PUSH1 0x0 DUP4 PUSH20 0xFFFFFFFFFFFFFFFFFFFFFFFFFFFFFFFFFFFFFFFF AND PUSH20 0xFFFFFFFFFFFFFFFFFFFFFFFFFFFFFFFFFFFFFFFF AND DUP2 MSTORE PUSH1 0x20 ADD SWAP1 DUP2 MSTORE PUSH1 0x20 ADD PUSH1 0x0 KECCAK256 PUSH1 0x0 SWAP1 SLOAD SWAP1 PUSH2 0x100 EXP SWAP1 DIV PUSH1 0xFF AND ISZERO PUSH2 0x2242 JUMPI PUSH1 0x5 PUSH1 0x0 DUP4 PUSH20 0xFFFFFFFFFFFFFFFFFFFFFFFFFFFFFFFFFFFFFFFF AND PUSH20 0xFFFFFFFFFFFFFFFFFFFFFFFFFFFFFFFFFFFFFFFF AND DUP2 MSTORE PUSH1 0x20 ADD SWAP1 DUP2 MSTORE PUSH1 0x20 ADD PUSH1 0x0 KECCAK256 SLOAD SWAP1 POP PUSH2 0x228D JUMP JUMPDEST PUSH2 0x228A PUSH1 0x4 PUSH1 0x0 DUP5 PUSH20 0xFFFFFFFFFFFFFFFFFFFFFFFFFFFFFFFFFFFFFFFF AND PUSH20 0xFFFFFFFFFFFFFFFFFFFFFFFFFFFFFFFFFFFFFFFF AND DUP2 MSTORE PUSH1 0x20 ADD SWAP1 DUP2 MSTORE PUSH1 0x20 ADD PUSH1 0x0 KECCAK256 SLOAD PUSH2 0x1155 JUMP JUMPDEST SWAP1 POP JUMPDEST SWAP2 SWAP1 POP JUMP JUMPDEST PUSH2 0x229A PUSH2 0x30E5 JUMP JUMPDEST PUSH20 0xFFFFFFFFFFFFFFFFFFFFFFFFFFFFFFFFFFFFFFFF AND PUSH1 0x0 DUP1 SLOAD SWAP1 PUSH2 0x100 EXP SWAP1 DIV PUSH20 0xFFFFFFFFFFFFFFFFFFFFFFFFFFFFFFFFFFFFFFFF AND PUSH20 0xFFFFFFFFFFFFFFFFFFFFFFFFFFFFFFFFFFFFFFFF AND EQ PUSH2 0x235A JUMPI PUSH1 0x40 MLOAD PUSH32 0x8C379A000000000000000000000000000000000000000000000000000000000 DUP2 MSTORE PUSH1 0x4 ADD DUP1 DUP1 PUSH1 0x20 ADD DUP3 DUP2 SUB DUP3 MSTORE PUSH1 0x20 DUP2 MSTORE PUSH1 0x20 ADD DUP1 PUSH32 0x4F776E61626C653A2063616C6C6572206973206E6F7420746865206F776E6572 DUP2 MSTORE POP PUSH1 0x20 ADD SWAP2 POP POP PUSH1 0x40 MLOAD DUP1 SWAP2 SUB SWAP1 REVERT JUMPDEST PUSH1 0x0 PUSH20 0xFFFFFFFFFFFFFFFFFFFFFFFFFFFFFFFFFFFFFFFF AND PUSH1 0x0 DUP1 SLOAD SWAP1 PUSH2 0x100 EXP SWAP1 DIV PUSH20 0xFFFFFFFFFFFFFFFFFFFFFFFFFFFFFFFFFFFFFFFF AND PUSH20 0xFFFFFFFFFFFFFFFFFFFFFFFFFFFFFFFFFFFFFFFF AND PUSH32 0x8BE0079C531659141344CD1FD0A4F28419497F9722A3DAAFE3B4186F6B6457E0 PUSH1 0x40 MLOAD PUSH1 0x40 MLOAD DUP1 SWAP2 SUB SWAP1 LOG3 PUSH1 0x0 DUP1 PUSH1 0x0 PUSH2 0x100 EXP DUP2 SLOAD DUP2 PUSH20 0xFFFFFFFFFFFFFFFFFFFFFFFFFFFFFFFFFFFFFFFF MUL NOT AND SWAP1 DUP4 PUSH20 0xFFFFFFFFFFFFFFFFFFFFFFFFFFFFFFFFFFFFFFFF AND MUL OR SWAP1 SSTORE POP JUMP JUMPDEST PUSH1 0x0 TIMESTAMP SWAP1 POP SWAP1 JUMP JUMPDEST PUSH1 0x0 PUSH1 0xA PUSH1 0x0 DUP4 PUSH20 0xFFFFFFFFFFFFFFFFFFFFFFFFFFFFFFFFFFFFFFFF AND PUSH20 0xFFFFFFFFFFFFFFFFFFFFFFFFFFFFFFFFFFFFFFFF AND DUP2 MSTORE PUSH1 0x20 ADD SWAP1 DUP2 MSTORE PUSH1 0x20 ADD PUSH1 0x0 KECCAK256 PUSH1 0x0 SWAP1 SLOAD SWAP1 PUSH2 0x100 EXP SWAP1 DIV PUSH1 0xFF AND SWAP1 POP SWAP2 SWAP1 POP JUMP JUMPDEST PUSH1 0x0 DUP1 PUSH1 0x0 SWAP1 SLOAD SWAP1 PUSH2 0x100 EXP SWAP1 DIV PUSH20 0xFFFFFFFFFFFFFFFFFFFFFFFFFFFFFFFFFFFFFFFF AND SWAP1 POP SWAP1 JUMP JUMPDEST PUSH2 0x24A7 PUSH2 0x30E5 JUMP JUMPDEST PUSH20 0xFFFFFFFFFFFFFFFFFFFFFFFFFFFFFFFFFFFFFFFF AND PUSH1 0x0 DUP1 SLOAD SWAP1 PUSH2 0x100 EXP SWAP1 DIV PUSH20 0xFFFFFFFFFFFFFFFFFFFFFFFFFFFFFFFFFFFFFFFF AND PUSH20 0xFFFFFFFFFFFFFFFFFFFFFFFFFFFFFFFFFFFFFFFF AND EQ PUSH2 0x2567 JUMPI PUSH1 0x40 MLOAD PUSH32 0x8C379A000000000000000000000000000000000000000000000000000000000 DUP2 MSTORE PUSH1 0x4 ADD DUP1 DUP1 PUSH1 0x20 ADD DUP3 DUP2 SUB DUP3 MSTORE PUSH1 0x20 DUP2 MSTORE PUSH1 0x20 ADD DUP1 PUSH32 0x4F776E61626C653A2063616C6C6572206973206E6F7420746865206F776E6572 DUP2 MSTORE POP PUSH1 0x20 ADD SWAP2 POP POP PUSH1 0x40 MLOAD DUP1 SWAP2 SUB SWAP1 REVERT JUMPDEST DUP1 PUSH1 0x14 DUP2 SWAP1 SSTORE POP POP JUMP JUMPDEST PUSH2 0x2579 PUSH2 0x30E5 JUMP JUMPDEST PUSH20 0xFFFFFFFFFFFFFFFFFFFFFFFFFFFFFFFFFFFFFFFF AND PUSH1 0x0 DUP1 SLOAD SWAP1 PUSH2 0x100 EXP SWAP1 DIV PUSH20 0xFFFFFFFFFFFFFFFFFFFFFFFFFFFFFFFFFFFFFFFF AND PUSH20 0xFFFFFFFFFFFFFFFFFFFFFFFFFFFFFFFFFFFFFFFF AND EQ PUSH2 0x2639 JUMPI PUSH1 0x40 MLOAD PUSH32 0x8C379A000000000000000000000000000000000000000000000000000000000 DUP2 MSTORE PUSH1 0x4 ADD DUP1 DUP1 PUSH1 0x20 ADD DUP3 DUP2 SUB DUP3 MSTORE PUSH1 0x20 DUP2 MSTORE PUSH1 0x20 ADD DUP1 PUSH32 0x4F776E61626C653A2063616C6C6572206973206E6F7420746865206F776E6572 DUP2 MSTORE POP PUSH1 0x20 ADD SWAP2 POP POP PUSH1 0x40 MLOAD DUP1 SWAP2 SUB SWAP1 REVERT JUMPDEST DUP1 PUSH1 0x3 PUSH1 0x0 PUSH2 0x100 EXP DUP2 SLOAD DUP2 PUSH20 0xFFFFFFFFFFFFFFFFFFFFFFFFFFFFFFFFFFFFFFFF MUL NOT AND SWAP1 DUP4 PUSH20 0xFFFFFFFFFFFFFFFFFFFFFFFFFFFFFFFFFFFFFFFF AND MUL OR SWAP1 SSTORE POP POP JUMP JUMPDEST PUSH1 0x60 PUSH1 0x10 DUP1 SLOAD PUSH1 0x1 DUP2 PUSH1 0x1 AND ISZERO PUSH2 0x100 MUL SUB AND PUSH1 0x2 SWAP1 DIV DUP1 PUSH1 0x1F ADD PUSH1 0x20 DUP1 SWAP2 DIV MUL PUSH1 0x20 ADD PUSH1 0x40 MLOAD SWAP1 DUP2 ADD PUSH1 0x40 MSTORE DUP1 SWAP3 SWAP2 SWAP1 DUP2 DUP2 MSTORE PUSH1 0x20 ADD DUP3 DUP1 SLOAD PUSH1 0x1 DUP2 PUSH1 0x1 AND ISZERO PUSH2 0x100 MUL SUB AND PUSH1 0x2 SWAP1 DIV DUP1 ISZERO PUSH2 0x2715 JUMPI DUP1 PUSH1 0x1F LT PUSH2 0x26EA JUMPI PUSH2 0x100 DUP1 DUP4 SLOAD DIV MUL DUP4 MSTORE SWAP2 PUSH1 0x20 ADD SWAP2 PUSH2 0x2715 JUMP JUMPDEST DUP3 ADD SWAP2 SWAP1 PUSH1 0x0 MSTORE PUSH1 0x20 PUSH1 0x0 KECCAK256 SWAP1 JUMPDEST DUP2 SLOAD DUP2 MSTORE SWAP1 PUSH1 0x1 ADD SWAP1 PUSH1 0x20 ADD DUP1 DUP4 GT PUSH2 0x26F8 JUMPI DUP3 SWAP1 SUB PUSH1 0x1F AND DUP3 ADD SWAP2 JUMPDEST POP POP POP POP POP SWAP1 POP SWAP1 JUMP JUMPDEST PUSH1 0x0 PUSH2 0x27E2 PUSH2 0x272C PUSH2 0x30E5 JUMP JUMPDEST DUP5 PUSH2 0x27DD DUP6 PUSH1 0x40 MLOAD DUP1 PUSH1 0x60 ADD PUSH1 0x40 MSTORE DUP1 PUSH1 0x25 DUP2 MSTORE PUSH1 0x20 ADD PUSH2 0x5660 PUSH1 0x25 SWAP2 CODECOPY PUSH1 0x6 PUSH1 0x0 PUSH2 0x2756 PUSH2 0x30E5 JUMP JUMPDEST PUSH20 0xFFFFFFFFFFFFFFFFFFFFFFFFFFFFFFFFFFFFFFFF AND PUSH20 0xFFFFFFFFFFFFFFFFFFFFFFFFFFFFFFFFFFFFFFFF AND DUP2 MSTORE PUSH1 0x20 ADD SWAP1 DUP2 MSTORE PUSH1 0x20 ADD PUSH1 0x0 KECCAK256 PUSH1 0x0 DUP11 PUSH20 0xFFFFFFFFFFFFFFFFFFFFFFFFFFFFFFFFFFFFFFFF AND PUSH20 0xFFFFFFFFFFFFFFFFFFFFFFFFFFFFFFFFFFFFFFFF AND DUP2 MSTORE PUSH1 0x20 ADD SWAP1 DUP2 MSTORE PUSH1 0x20 ADD PUSH1 0x0 KECCAK256 SLOAD PUSH2 0x3AE0 SWAP1 SWAP3 SWAP2 SWAP1 PUSH4 0xFFFFFFFF AND JUMP JUMPDEST PUSH2 0x30ED JUMP JUMPDEST PUSH1 0x1 SWAP1 POP SWAP3 SWAP2 POP POP JUMP JUMPDEST PUSH1 0x3 PUSH1 0x0 SWAP1 SLOAD SWAP1 PUSH2 0x100 EXP SWAP1 DIV PUSH20 0xFFFFFFFFFFFFFFFFFFFFFFFFFFFFFFFFFFFFFFFF AND DUP2 JUMP JUMPDEST PUSH1 0x0 PUSH2 0x2826 PUSH2 0x281F PUSH2 0x30E5 JUMP JUMPDEST DUP5 DUP5 PUSH2 0x32E4 JUMP JUMPDEST PUSH1 0x1 SWAP1 POP SWAP3 SWAP2 POP POP JUMP JUMPDEST PUSH2 0x2838 PUSH2 0x30E5 JUMP JUMPDEST PUSH20 0xFFFFFFFFFFFFFFFFFFFFFFFFFFFFFFFFFFFFFFFF AND PUSH1 0x0 DUP1 SLOAD SWAP1 PUSH2 0x100 EXP SWAP1 DIV PUSH20 0xFFFFFFFFFFFFFFFFFFFFFFFFFFFFFFFFFFFFFFFF AND PUSH20 0xFFFFFFFFFFFFFFFFFFFFFFFFFFFFFFFFFFFFFFFF AND EQ PUSH2 0x28F8 JUMPI PUSH1 0x40 MLOAD PUSH32 0x8C379A000000000000000000000000000000000000000000000000000000000 DUP2 MSTORE PUSH1 0x4 ADD DUP1 DUP1 PUSH1 0x20 ADD DUP3 DUP2 SUB DUP3 MSTORE PUSH1 0x20 DUP2 MSTORE PUSH1 0x20 ADD DUP1 PUSH32 0x4F776E61626C653A2063616C6C6572206973206E6F7420746865206F776E6572 DUP2 MSTORE POP PUSH1 0x20 ADD SWAP2 POP POP PUSH1 0x40 MLOAD DUP1 SWAP2 SUB SWAP1 REVERT JUMPDEST PUSH1 0x1 PUSH1 0x19 PUSH1 0x15 PUSH2 0x100 EXP DUP2 SLOAD DUP2 PUSH1 0xFF MUL NOT AND SWAP1 DUP4 ISZERO ISZERO MUL OR SWAP1 SSTORE POP TIMESTAMP PUSH1 0x17 DUP2 SWAP1 SSTORE POP JUMP JUMPDEST PUSH2 0x2924 PUSH2 0x30E5 JUMP JUMPDEST PUSH20 0xFFFFFFFFFFFFFFFFFFFFFFFFFFFFFFFFFFFFFFFF AND PUSH1 0x0 DUP1 SLOAD SWAP1 PUSH2 0x100 EXP SWAP1 DIV PUSH20 0xFFFFFFFFFFFFFFFFFFFFFFFFFFFFFFFFFFFFFFFF AND PUSH20 0xFFFFFFFFFFFFFFFFFFFFFFFFFFFFFFFFFFFFFFFF AND EQ PUSH2 0x29E4 JUMPI PUSH1 0x40 MLOAD PUSH32 0x8C379A000000000000000000000000000000000000000000000000000000000 DUP2 MSTORE PUSH1 0x4 ADD DUP1 DUP1 PUSH1 0x20 ADD DUP3 DUP2 SUB DUP3 MSTORE PUSH1 0x20 DUP2 MSTORE PUSH1 0x20 ADD DUP1 PUSH32 0x4F776E61626C653A2063616C6C6572206973206E6F7420746865206F776E6572 DUP2 MSTORE POP PUSH1 0x20 ADD SWAP2 POP POP PUSH1 0x40 MLOAD DUP1 SWAP2 SUB SWAP1 REVERT JUMPDEST PUSH2 0x29EC PUSH2 0x2476 JUMP JUMPDEST PUSH20 0xFFFFFFFFFFFFFFFFFFFFFFFFFFFFFFFFFFFFFFFF AND PUSH2 0x8FC SELFBALANCE SWAP1 DUP2 ISZERO MUL SWAP1 PUSH1 0x40 MLOAD PUSH1 0x0 PUSH1 0x40 MLOAD DUP1 DUP4 SUB DUP2 DUP6 DUP9 DUP9 CALL SWAP4 POP POP POP POP ISZERO DUP1 ISZERO PUSH2 0x2A31 JUMPI RETURNDATASIZE PUSH1 0x0 DUP1 RETURNDATACOPY RETURNDATASIZE PUSH1 0x0 REVERT JUMPDEST POP JUMP JUMPDEST PUSH1 0x0 PUSH1 0x6 PUSH1 0x0 DUP5 PUSH20 0xFFFFFFFFFFFFFFFFFFFFFFFFFFFFFFFFFFFFFFFF AND PUSH20 0xFFFFFFFFFFFFFFFFFFFFFFFFFFFFFFFFFFFFFFFF AND DUP2 MSTORE PUSH1 0x20 ADD SWAP1 DUP2 MSTORE PUSH1 0x20 ADD PUSH1 0x0 KECCAK256 PUSH1 0x0 DUP4 PUSH20 0xFFFFFFFFFFFFFFFFFFFFFFFFFFFFFFFFFFFFFFFF AND PUSH20 0xFFFFFFFFFFFFFFFFFFFFFFFFFFFFFFFFFFFFFFFF AND DUP2 MSTORE PUSH1 0x20 ADD SWAP1 DUP2 MSTORE PUSH1 0x20 ADD PUSH1 0x0 KECCAK256 SLOAD SWAP1 POP SWAP3 SWAP2 POP POP JUMP JUMPDEST PUSH2 0x2AC3 PUSH2 0x30E5 JUMP JUMPDEST PUSH20 0xFFFFFFFFFFFFFFFFFFFFFFFFFFFFFFFFFFFFFFFF AND PUSH1 0x0 DUP1 SLOAD SWAP1 PUSH2 0x100 EXP SWAP1 DIV PUSH20 0xFFFFFFFFFFFFFFFFFFFFFFFFFFFFFFFFFFFFFFFF AND PUSH20 0xFFFFFFFFFFFFFFFFFFFFFFFFFFFFFFFFFFFFFFFF AND EQ PUSH2 0x2B83 JUMPI PUSH1 0x40 MLOAD PUSH32 0x8C379A000000000000000000000000000000000000000000000000000000000 DUP2 MSTORE PUSH1 0x4 ADD DUP1 DUP1 PUSH1 0x20 ADD DUP3 DUP2 SUB DUP3 MSTORE PUSH1 0x20 DUP2 MSTORE PUSH1 0x20 ADD DUP1 PUSH32 0x4F776E61626C653A2063616C6C6572206973206E6F7420746865206F776E6572 DUP2 MSTORE POP PUSH1 0x20 ADD SWAP2 POP POP PUSH1 0x40 MLOAD DUP1 SWAP2 SUB SWAP1 REVERT JUMPDEST PUSH1 0x0 PUSH1 0x9 PUSH1 0x0 DUP4 PUSH20 0xFFFFFFFFFFFFFFFFFFFFFFFFFFFFFFFFFFFFFFFF AND PUSH20 0xFFFFFFFFFFFFFFFFFFFFFFFFFFFFFFFFFFFFFFFF AND DUP2 MSTORE PUSH1 0x20 ADD SWAP1 DUP2 MSTORE PUSH1 0x20 ADD PUSH1 0x0 KECCAK256 PUSH1 0x0 PUSH2 0x100 EXP DUP2 SLOAD DUP2 PUSH1 0xFF MUL NOT AND SWAP1 DUP4 ISZERO ISZERO MUL OR SWAP1 SSTORE POP POP JUMP JUMPDEST PUSH2 0x2BE6 PUSH2 0x30E5 JUMP JUMPDEST PUSH20 0xFFFFFFFFFFFFFFFFFFFFFFFFFFFFFFFFFFFFFFFF AND PUSH1 0x0 DUP1 SLOAD SWAP1 PUSH2 0x100 EXP SWAP1 DIV PUSH20 0xFFFFFFFFFFFFFFFFFFFFFFFFFFFFFFFFFFFFFFFF AND PUSH20 0xFFFFFFFFFFFFFFFFFFFFFFFFFFFFFFFFFFFFFFFF AND EQ PUSH2 0x2CA6 JUMPI PUSH1 0x40 MLOAD PUSH32 0x8C379A000000000000000000000000000000000000000000000000000000000 DUP2 MSTORE PUSH1 0x4 ADD DUP1 DUP1 PUSH1 0x20 ADD DUP3 DUP2 SUB DUP3 MSTORE PUSH1 0x20 DUP2 MSTORE PUSH1 0x20 ADD DUP1 PUSH32 0x4F776E61626C653A2063616C6C6572206973206E6F7420746865206F776E6572 DUP2 MSTORE POP PUSH1 0x20 ADD SWAP2 POP POP PUSH1 0x40 MLOAD DUP1 SWAP2 SUB SWAP1 REVERT JUMPDEST PUSH1 0x0 PUSH20 0xFFFFFFFFFFFFFFFFFFFFFFFFFFFFFFFFFFFFFFFF AND DUP2 PUSH20 0xFFFFFFFFFFFFFFFFFFFFFFFFFFFFFFFFFFFFFFFF AND EQ ISZERO PUSH2 0x2D2C JUMPI PUSH1 0x40 MLOAD PUSH32 0x8C379A000000000000000000000000000000000000000000000000000000000 DUP2 MSTORE PUSH1 0x4 ADD DUP1 DUP1 PUSH1 0x20 ADD DUP3 DUP2 SUB DUP3 MSTORE PUSH1 0x26 DUP2 MSTORE PUSH1 0x20 ADD DUP1 PUSH2 0x5531 PUSH1 0x26 SWAP2 CODECOPY PUSH1 0x40 ADD SWAP2 POP POP PUSH1 0x40 MLOAD DUP1 SWAP2 SUB SWAP1 REVERT JUMPDEST DUP1 PUSH20 0xFFFFFFFFFFFFFFFFFFFFFFFFFFFFFFFFFFFFFFFF AND PUSH1 0x0 DUP1 SLOAD SWAP1 PUSH2 0x100 EXP SWAP1 DIV PUSH20 0xFFFFFFFFFFFFFFFFFFFFFFFFFFFFFFFFFFFFFFFF AND PUSH20 0xFFFFFFFFFFFFFFFFFFFFFFFFFFFFFFFFFFFFFFFF AND PUSH32 0x8BE0079C531659141344CD1FD0A4F28419497F9722A3DAAFE3B4186F6B6457E0 PUSH1 0x40 MLOAD PUSH1 0x40 MLOAD DUP1 SWAP2 SUB SWAP1 LOG3 DUP1 PUSH1 0x0 DUP1 PUSH2 0x100 EXP DUP2 SLOAD DUP2 PUSH20 0xFFFFFFFFFFFFFFFFFFFFFFFFFFFFFFFFFFFFFFFF MUL NOT AND SWAP1 DUP4 PUSH20 0xFFFFFFFFFFFFFFFFFFFFFFFFFFFFFFFFFFFFFFFF AND MUL OR SWAP1 SSTORE POP POP JUMP JUMPDEST PUSH2 0x2DF1 PUSH2 0x30E5 JUMP JUMPDEST PUSH20 0xFFFFFFFFFFFFFFFFFFFFFFFFFFFFFFFFFFFFFFFF AND PUSH1 0x0 DUP1 SLOAD SWAP1 PUSH2 0x100 EXP SWAP1 DIV PUSH20 0xFFFFFFFFFFFFFFFFFFFFFFFFFFFFFFFFFFFFFFFF AND PUSH20 0xFFFFFFFFFFFFFFFFFFFFFFFFFFFFFFFFFFFFFFFF AND EQ PUSH2 0x2EB1 JUMPI PUSH1 0x40 MLOAD PUSH32 0x8C379A000000000000000000000000000000000000000000000000000000000 DUP2 MSTORE PUSH1 0x4 ADD DUP1 DUP1 PUSH1 0x20 ADD DUP3 DUP2 SUB DUP3 MSTORE PUSH1 0x20 DUP2 MSTORE PUSH1 0x20 ADD DUP1 PUSH32 0x4F776E61626C653A2063616C6C6572206973206E6F7420746865206F776E6572 DUP2 MSTORE POP PUSH1 0x20 ADD SWAP2 POP POP PUSH1 0x40 MLOAD DUP1 SWAP2 SUB SWAP1 REVERT JUMPDEST PUSH20 0xEC0A7A0C2439E8CB67B992B12ECD020EA943C7BE PUSH20 0xFFFFFFFFFFFFFFFFFFFFFFFFFFFFFFFFFFFFFFFF AND DUP2 PUSH20 0xFFFFFFFFFFFFFFFFFFFFFFFFFFFFFFFFFFFFFFFF AND EQ ISZERO PUSH2 0x2F67 JUMPI PUSH1 0x40 MLOAD PUSH32 0x8C379A000000000000000000000000000000000000000000000000000000000 DUP2 MSTORE PUSH1 0x4 ADD DUP1 DUP1 PUSH1 0x20 ADD DUP3 DUP2 SUB DUP3 MSTORE PUSH1 0x1B DUP2 MSTORE PUSH1 0x20 ADD DUP1 PUSH32 0x57652063616E206E6F7420626C61636B6C69737420526F757465720000000000 DUP2 MSTORE POP PUSH1 0x20 ADD SWAP2 POP POP PUSH1 0x40 MLOAD DUP1 SWAP2 SUB SWAP1 REVERT JUMPDEST PUSH1 0x7 PUSH1 0x0 DUP3 PUSH20 0xFFFFFFFFFFFFFFFFFFFFFFFFFFFFFFFFFFFFFFFF AND PUSH20 0xFFFFFFFFFFFFFFFFFFFFFFFFFFFFFFFFFFFFFFFF AND DUP2 MSTORE PUSH1 0x20 ADD SWAP1 DUP2 MSTORE PUSH1 0x20 ADD PUSH1 0x0 KECCAK256 PUSH1 0x0 SWAP1 SLOAD SWAP1 PUSH2 0x100 EXP SWAP1 DIV PUSH1 0xFF AND ISZERO PUSH2 0x3027 JUMPI PUSH1 0x40 MLOAD PUSH32 0x8C379A000000000000000000000000000000000000000000000000000000000 DUP2 MSTORE PUSH1 0x4 ADD DUP1 DUP1 PUSH1 0x20 ADD DUP3 DUP2 SUB DUP3 MSTORE PUSH1 0x1E DUP2 MSTORE PUSH1 0x20 ADD DUP1 PUSH32 0x4163636F756E7420697320616C726561647920626C61636B6C69737465640000 DUP2 MSTORE POP PUSH1 0x20 ADD SWAP2 POP POP PUSH1 0x40 MLOAD DUP1 SWAP2 SUB SWAP1 REVERT JUMPDEST PUSH1 0x1 PUSH1 0x7 PUSH1 0x0 DUP4 PUSH20 0xFFFFFFFFFFFFFFFFFFFFFFFFFFFFFFFFFFFFFFFF AND PUSH20 0xFFFFFFFFFFFFFFFFFFFFFFFFFFFFFFFFFFFFFFFF AND DUP2 MSTORE PUSH1 0x20 ADD SWAP1 DUP2 MSTORE PUSH1 0x20 ADD PUSH1 0x0 KECCAK256 PUSH1 0x0 PUSH2 0x100 EXP DUP2 SLOAD DUP2 PUSH1 0xFF MUL NOT AND SWAP1 DUP4 ISZERO ISZERO MUL OR SWAP1 SSTORE POP PUSH1 0x8 DUP2 SWAP1 DUP1 PUSH1 0x1 DUP2 SLOAD ADD DUP1 DUP3 SSTORE DUP1 SWAP2 POP POP PUSH1 0x1 SWAP1 SUB SWAP1 PUSH1 0x0 MSTORE PUSH1 0x20 PUSH1 0x0 KECCAK256 ADD PUSH1 0x0 SWAP1 SWAP2 SWAP1 SWAP2 SWAP1 SWAP2 PUSH2 0x100 EXP DUP2 SLOAD DUP2 PUSH20 0xFFFFFFFFFFFFFFFFFFFFFFFFFFFFFFFFFFFFFFFF MUL NOT AND SWAP1 DUP4 PUSH20 0xFFFFFFFFFFFFFFFFFFFFFFFFFFFFFFFFFFFFFFFF AND MUL OR SWAP1 SSTORE POP POP JUMP JUMPDEST PUSH1 0x0 CALLER SWAP1 POP SWAP1 JUMP JUMPDEST PUSH1 0x0 PUSH20 0xFFFFFFFFFFFFFFFFFFFFFFFFFFFFFFFFFFFFFFFF AND DUP4 PUSH20 0xFFFFFFFFFFFFFFFFFFFFFFFFFFFFFFFFFFFFFFFF AND EQ ISZERO PUSH2 0x3173 JUMPI PUSH1 0x40 MLOAD PUSH32 0x8C379A000000000000000000000000000000000000000000000000000000000 DUP2 MSTORE PUSH1 0x4 ADD DUP1 DUP1 PUSH1 0x20 ADD DUP3 DUP2 SUB DUP3 MSTORE PUSH1 0x24 DUP2 MSTORE PUSH1 0x20 ADD DUP1 PUSH2 0x5610 PUSH1 0x24 SWAP2 CODECOPY PUSH1 0x40 ADD SWAP2 POP POP PUSH1 0x40 MLOAD DUP1 SWAP2 SUB SWAP1 REVERT JUMPDEST PUSH1 0x0 PUSH20 0xFFFFFFFFFFFFFFFFFFFFFFFFFFFFFFFFFFFFFFFF AND DUP3 PUSH20 0xFFFFFFFFFFFFFFFFFFFFFFFFFFFFFFFFFFFFFFFF AND EQ ISZERO PUSH2 0x31F9 JUMPI PUSH1 0x40 MLOAD PUSH32 0x8C379A000000000000000000000000000000000000000000000000000000000 DUP2 MSTORE PUSH1 0x4 ADD DUP1 DUP1 PUSH1 0x20 ADD DUP3 DUP2 SUB DUP3 MSTORE PUSH1 0x22 DUP2 MSTORE PUSH1 0x20 ADD DUP1 PUSH2 0x5557 PUSH1 0x22 SWAP2 CODECOPY PUSH1 0x40 ADD SWAP2 POP POP PUSH1 0x40 MLOAD DUP1 SWAP2 SUB SWAP1 REVERT JUMPDEST DUP1 PUSH1 0x6 PUSH1 0x0 DUP6 PUSH20 0xFFFFFFFFFFFFFFFFFFFFFFFFFFFFFFFFFFFFFFFF AND PUSH20 0xFFFFFFFFFFFFFFFFFFFFFFFFFFFFFFFFFFFFFFFF AND DUP2 MSTORE PUSH1 0x20 ADD SWAP1 DUP2 MSTORE PUSH1 0x20 ADD PUSH1 0x0 KECCAK256 PUSH1 0x0 DUP5 PUSH20 0xFFFFFFFFFFFFFFFFFFFFFFFFFFFFFFFFFFFFFFFF AND PUSH20 0xFFFFFFFFFFFFFFFFFFFFFFFFFFFFFFFFFFFFFFFF AND DUP2 MSTORE PUSH1 0x20 ADD SWAP1 DUP2 MSTORE PUSH1 0x20 ADD PUSH1 0x0 KECCAK256 DUP2 SWAP1 SSTORE POP DUP2 PUSH20 0xFFFFFFFFFFFFFFFFFFFFFFFFFFFFFFFFFFFFFFFF AND DUP4 PUSH20 0xFFFFFFFFFFFFFFFFFFFFFFFFFFFFFFFFFFFFFFFF AND PUSH32 0x8C5BE1E5EBEC7D5BD14F71427D1E84F3DD0314C0F7B2291E5B200AC8C7C3B925 DUP4 PUSH1 0x40 MLOAD DUP1 DUP3 DUP2 MSTORE PUSH1 0x20 ADD SWAP2 POP POP PUSH1 0x40 MLOAD DUP1 SWAP2 SUB SWAP1 LOG3 POP POP POP JUMP JUMPDEST PUSH1 0x0 PUSH20 0xFFFFFFFFFFFFFFFFFFFFFFFFFFFFFFFFFFFFFFFF AND DUP4 PUSH20 0xFFFFFFFFFFFFFFFFFFFFFFFFFFFFFFFFFFFFFFFF AND EQ ISZERO PUSH2 0x336A JUMPI PUSH1 0x40 MLOAD PUSH32 0x8C379A000000000000000000000000000000000000000000000000000000000 DUP2 MSTORE PUSH1 0x4 ADD DUP1 DUP1 PUSH1 0x20 ADD DUP3 DUP2 SUB DUP3 MSTORE PUSH1 0x25 DUP2 MSTORE PUSH1 0x20 ADD DUP1 PUSH2 0x55EB PUSH1 0x25 SWAP2 CODECOPY PUSH1 0x40 ADD SWAP2 POP POP PUSH1 0x40 MLOAD DUP1 SWAP2 SUB SWAP1 REVERT JUMPDEST PUSH1 0x0 PUSH20 0xFFFFFFFFFFFFFFFFFFFFFFFFFFFFFFFFFFFFFFFF AND DUP3 PUSH20 0xFFFFFFFFFFFFFFFFFFFFFFFFFFFFFFFFFFFFFFFF AND EQ ISZERO PUSH2 0x33F0 JUMPI PUSH1 0x40 MLOAD PUSH32 0x8C379A000000000000000000000000000000000000000000000000000000000 DUP2 MSTORE PUSH1 0x4 ADD DUP1 DUP1 PUSH1 0x20 ADD DUP3 DUP2 SUB DUP3 MSTORE PUSH1 0x23 DUP2 MSTORE PUSH1 0x20 ADD DUP1 PUSH2 0x54E4 PUSH1 0x23 SWAP2 CODECOPY PUSH1 0x40 ADD SWAP2 POP POP PUSH1 0x40 MLOAD DUP1 SWAP2 SUB SWAP1 REVERT JUMPDEST PUSH1 0x0 DUP2 GT PUSH2 0x3449 JUMPI PUSH1 0x40 MLOAD PUSH32 0x8C379A000000000000000000000000000000000000000000000000000000000 DUP2 MSTORE PUSH1 0x4 ADD DUP1 DUP1 PUSH1 0x20 ADD DUP3 DUP2 SUB DUP3 MSTORE PUSH1 0x29 DUP2 MSTORE PUSH1 0x20 ADD DUP1 PUSH2 0x55C2 PUSH1 0x29 SWAP2 CODECOPY PUSH1 0x40 ADD SWAP2 POP POP PUSH1 0x40 MLOAD DUP1 SWAP2 SUB SWAP1 REVERT JUMPDEST PUSH1 0x7 PUSH1 0x0 DUP4 PUSH20 0xFFFFFFFFFFFFFFFFFFFFFFFFFFFFFFFFFFFFFFFF AND PUSH20 0xFFFFFFFFFFFFFFFFFFFFFFFFFFFFFFFFFFFFFFFF AND DUP2 MSTORE PUSH1 0x20 ADD SWAP1 DUP2 MSTORE PUSH1 0x20 ADD PUSH1 0x0 KECCAK256 PUSH1 0x0 SWAP1 SLOAD SWAP1 PUSH2 0x100 EXP SWAP1 DIV PUSH1 0xFF AND ISZERO PUSH2 0x3509 JUMPI PUSH1 0x40 MLOAD PUSH32 0x8C379A000000000000000000000000000000000000000000000000000000000 DUP2 MSTORE PUSH1 0x4 ADD DUP1 DUP1 PUSH1 0x20 ADD DUP3 DUP2 SUB DUP3 MSTORE PUSH1 0x17 DUP2 MSTORE PUSH1 0x20 ADD DUP1 PUSH32 0x596F752068617665206E6F20706F776572206865726521000000000000000000 DUP2 MSTORE POP PUSH1 0x20 ADD SWAP2 POP POP PUSH1 0x40 MLOAD DUP1 SWAP2 SUB SWAP1 REVERT JUMPDEST PUSH1 0x7 PUSH1 0x0 CALLER PUSH20 0xFFFFFFFFFFFFFFFFFFFFFFFFFFFFFFFFFFFFFFFF AND PUSH20 0xFFFFFFFFFFFFFFFFFFFFFFFFFFFFFFFFFFFFFFFF AND DUP2 MSTORE PUSH1 0x20 ADD SWAP1 DUP2 MSTORE PUSH1 0x20 ADD PUSH1 0x0 KECCAK256 PUSH1 0x0 SWAP1 SLOAD SWAP1 PUSH2 0x100 EXP SWAP1 DIV PUSH1 0xFF AND ISZERO PUSH2 0x35C9 JUMPI PUSH1 0x40 MLOAD PUSH32 0x8C379A000000000000000000000000000000000000000000000000000000000 DUP2 MSTORE PUSH1 0x4 ADD DUP1 DUP1 PUSH1 0x20 ADD DUP3 DUP2 SUB DUP3 MSTORE PUSH1 0x17 DUP2 MSTORE PUSH1 0x20 ADD DUP1 PUSH32 0x596F752068617665206E6F20706F776572206865726521000000000000000000 DUP2 MSTORE POP PUSH1 0x20 ADD SWAP2 POP POP PUSH1 0x40 MLOAD DUP1 SWAP2 SUB SWAP1 REVERT JUMPDEST PUSH1 0x19 PUSH1 0x0 SWAP1 SLOAD SWAP1 PUSH2 0x100 EXP SWAP1 DIV PUSH20 0xFFFFFFFFFFFFFFFFFFFFFFFFFFFFFFFFFFFFFFFF AND PUSH20 0xFFFFFFFFFFFFFFFFFFFFFFFFFFFFFFFFFFFFFFFF AND DUP4 PUSH20 0xFFFFFFFFFFFFFFFFFFFFFFFFFFFFFFFFFFFFFFFF AND EQ DUP1 ISZERO PUSH2 0x3674 JUMPI POP PUSH1 0x18 PUSH1 0x0 SWAP1 SLOAD SWAP1 PUSH2 0x100 EXP SWAP1 DIV PUSH20 0xFFFFFFFFFFFFFFFFFFFFFFFFFFFFFFFFFFFFFFFF AND PUSH20 0xFFFFFFFFFFFFFFFFFFFFFFFFFFFFFFFFFFFFFFFF AND DUP3 PUSH20 0xFFFFFFFFFFFFFFFFFFFFFFFFFFFFFFFFFFFFFFFF AND EQ ISZERO JUMPDEST DUP1 ISZERO PUSH2 0x36CA JUMPI POP PUSH1 0x9 PUSH1 0x0 DUP4 PUSH20 0xFFFFFFFFFFFFFFFFFFFFFFFFFFFFFFFFFFFFFFFF AND PUSH20 0xFFFFFFFFFFFFFFFFFFFFFFFFFFFFFFFFFFFFFFFF AND DUP2 MSTORE PUSH1 0x20 ADD SWAP1 DUP2 MSTORE PUSH1 0x20 ADD PUSH1 0x0 KECCAK256 PUSH1 0x0 SWAP1 SLOAD SWAP1 PUSH2 0x100 EXP SWAP1 DIV PUSH1 0xFF AND ISZERO JUMPDEST ISZERO PUSH2 0x3818 JUMPI PUSH1 0x19 PUSH1 0x15 SWAP1 SLOAD SWAP1 PUSH2 0x100 EXP SWAP1 DIV PUSH1 0xFF AND PUSH2 0x3751 JUMPI PUSH1 0x40 MLOAD PUSH32 0x8C379A000000000000000000000000000000000000000000000000000000000 DUP2 MSTORE PUSH1 0x4 ADD DUP1 DUP1 PUSH1 0x20 ADD DUP3 DUP2 SUB DUP3 MSTORE PUSH1 0x18 DUP2 MSTORE PUSH1 0x20 ADD DUP1 PUSH32 0x54726164696E67206E6F742079657420656E61626C65642E0000000000000000 DUP2 MSTORE POP PUSH1 0x20 ADD SWAP2 POP POP PUSH1 0x40 MLOAD DUP1 SWAP2 SUB SWAP1 REVERT JUMPDEST PUSH1 0x17 SLOAD TIMESTAMP EQ ISZERO PUSH2 0x3817 JUMPI PUSH1 0x1 PUSH1 0x7 PUSH1 0x0 DUP5 PUSH20 0xFFFFFFFFFFFFFFFFFFFFFFFFFFFFFFFFFFFFFFFF AND PUSH20 0xFFFFFFFFFFFFFFFFFFFFFFFFFFFFFFFFFFFFFFFF AND DUP2 MSTORE PUSH1 0x20 ADD SWAP1 DUP2 MSTORE PUSH1 0x20 ADD PUSH1 0x0 KECCAK256 PUSH1 0x0 PUSH2 0x100 EXP DUP2 SLOAD DUP2 PUSH1 0xFF MUL NOT AND SWAP1 DUP4 ISZERO ISZERO MUL OR SWAP1 SSTORE POP PUSH1 0x8 DUP3 SWAP1 DUP1 PUSH1 0x1 DUP2 SLOAD ADD DUP1 DUP3 SSTORE DUP1 SWAP2 POP POP PUSH1 0x1 SWAP1 SUB SWAP1 PUSH1 0x0 MSTORE PUSH1 0x20 PUSH1 0x0 KECCAK256 ADD PUSH1 0x0 SWAP1 SWAP2 SWAP1 SWAP2 SWAP1 SWAP2 PUSH2 0x100 EXP DUP2 SLOAD DUP2 PUSH20 0xFFFFFFFFFFFFFFFFFFFFFFFFFFFFFFFFFFFFFFFF MUL NOT AND SWAP1 DUP4 PUSH20 0xFFFFFFFFFFFFFFFFFFFFFFFFFFFFFFFFFFFFFFFF AND MUL OR SWAP1 SSTORE POP JUMPDEST JUMPDEST PUSH1 0x0 PUSH2 0x3823 ADDRESS PUSH2 0x21A7 JUMP JUMPDEST SWAP1 POP PUSH1 0x19 PUSH1 0x14 SWAP1 SLOAD SWAP1 PUSH2 0x100 EXP SWAP1 DIV PUSH1 0xFF AND ISZERO DUP1 ISZERO PUSH2 0x384E JUMPI POP PUSH1 0x19 PUSH1 0x15 SWAP1 SLOAD SWAP1 PUSH2 0x100 EXP SWAP1 DIV PUSH1 0xFF AND JUMPDEST DUP1 ISZERO PUSH2 0x38A7 JUMPI POP PUSH1 0x19 PUSH1 0x0 SWAP1 SLOAD SWAP1 PUSH2 0x100 EXP SWAP1 DIV PUSH20 0xFFFFFFFFFFFFFFFFFFFFFFFFFFFFFFFFFFFFFFFF AND PUSH20 0xFFFFFFFFFFFFFFFFFFFFFFFFFFFFFFFFFFFFFFFF AND DUP4 PUSH20 0xFFFFFFFFFFFFFFFFFFFFFFFFFFFFFFFFFFFFFFFF AND EQ JUMPDEST ISZERO PUSH2 0x396E JUMPI PUSH1 0x0 DUP2 GT ISZERO PUSH2 0x396D JUMPI PUSH2 0x3907 PUSH1 0x64 PUSH2 0x38F9 PUSH1 0x16 SLOAD PUSH2 0x38EB PUSH1 0x19 PUSH1 0x0 SWAP1 SLOAD SWAP1 PUSH2 0x100 EXP SWAP1 DIV PUSH20 0xFFFFFFFFFFFFFFFFFFFFFFFFFFFFFFFFFFFFFFFF AND PUSH2 0x21A7 JUMP JUMPDEST PUSH2 0x3D43 SWAP1 SWAP2 SWAP1 PUSH4 0xFFFFFFFF AND JUMP JUMPDEST PUSH2 0x3BCB SWAP1 SWAP2 SWAP1 PUSH4 0xFFFFFFFF AND JUMP JUMPDEST DUP2 GT ISZERO PUSH2 0x3963 JUMPI PUSH2 0x3960 PUSH1 0x64 PUSH2 0x3952 PUSH1 0x16 SLOAD PUSH2 0x3944 PUSH1 0x19 PUSH1 0x0 SWAP1 SLOAD SWAP1 PUSH2 0x100 EXP SWAP1 DIV PUSH20 0xFFFFFFFFFFFFFFFFFFFFFFFFFFFFFFFFFFFFFFFF AND PUSH2 0x21A7 JUMP JUMPDEST PUSH2 0x3D43 SWAP1 SWAP2 SWAP1 PUSH4 0xFFFFFFFF AND JUMP JUMPDEST PUSH2 0x3BCB SWAP1 SWAP2 SWAP1 PUSH4 0xFFFFFFFF AND JUMP JUMPDEST SWAP1 POP JUMPDEST PUSH2 0x396C DUP2 PUSH2 0x3DC9 JUMP JUMPDEST JUMPDEST JUMPDEST PUSH1 0x0 PUSH1 0x19 PUSH1 0x0 SWAP1 SLOAD SWAP1 PUSH2 0x100 EXP SWAP1 DIV PUSH20 0xFFFFFFFFFFFFFFFFFFFFFFFFFFFFFFFFFFFFFFFF AND PUSH20 0xFFFFFFFFFFFFFFFFFFFFFFFFFFFFFFFFFFFFFFFF AND DUP6 PUSH20 0xFFFFFFFFFFFFFFFFFFFFFFFFFFFFFFFFFFFFFFFF AND EQ DUP1 PUSH2 0x3A19 JUMPI POP PUSH1 0x19 PUSH1 0x0 SWAP1 SLOAD SWAP1 PUSH2 0x100 EXP SWAP1 DIV PUSH20 0xFFFFFFFFFFFFFFFFFFFFFFFFFFFFFFFFFFFFFFFF AND PUSH20 0xFFFFFFFFFFFFFFFFFFFFFFFFFFFFFFFFFFFFFFFF AND DUP5 PUSH20 0xFFFFFFFFFFFFFFFFFFFFFFFFFFFFFFFFFFFFFFFF AND EQ JUMPDEST DUP1 ISZERO PUSH2 0x3AC3 JUMPI POP PUSH1 0x9 PUSH1 0x0 DUP7 PUSH20 0xFFFFFFFFFFFFFFFFFFFFFFFFFFFFFFFFFFFFFFFF AND PUSH20 0xFFFFFFFFFFFFFFFFFFFFFFFFFFFFFFFFFFFFFFFF AND DUP2 MSTORE PUSH1 0x20 ADD SWAP1 DUP2 MSTORE PUSH1 0x20 ADD PUSH1 0x0 KECCAK256 PUSH1 0x0 SWAP1 SLOAD SWAP1 PUSH2 0x100 EXP SWAP1 DIV PUSH1 0xFF AND DUP1 PUSH2 0x3AC1 JUMPI POP PUSH1 0x9 PUSH1 0x0 DUP6 PUSH20 0xFFFFFFFFFFFFFFFFFFFFFFFFFFFFFFFFFFFFFFFF AND PUSH20 0xFFFFFFFFFFFFFFFFFFFFFFFFFFFFFFFFFFFFFFFF AND DUP2 MSTORE PUSH1 0x20 ADD SWAP1 DUP2 MSTORE PUSH1 0x20 ADD PUSH1 0x0 KECCAK256 PUSH1 0x0 SWAP1 SLOAD SWAP1 PUSH2 0x100 EXP SWAP1 DIV PUSH1 0xFF AND JUMPDEST ISZERO JUMPDEST ISZERO PUSH2 0x3ACD JUMPI PUSH1 0x1 SWAP1 POP JUMPDEST PUSH2 0x3AD9 DUP6 DUP6 DUP6 DUP5 PUSH2 0x3E63 JUMP JUMPDEST POP POP POP POP POP JUMP JUMPDEST PUSH1 0x0 DUP4 DUP4 GT ISZERO DUP3 SWAP1 PUSH2 0x3B8D JUMPI PUSH1 0x40 MLOAD PUSH32 0x8C379A000000000000000000000000000000000000000000000000000000000 DUP2 MSTORE PUSH1 0x4 ADD DUP1 DUP1 PUSH1 0x20 ADD DUP3 DUP2 SUB DUP3 MSTORE DUP4 DUP2 DUP2 MLOAD DUP2 MSTORE PUSH1 0x20 ADD SWAP2 POP DUP1 MLOAD SWAP1 PUSH1 0x20 ADD SWAP1 DUP1 DUP4 DUP4 PUSH1 0x0 JUMPDEST DUP4 DUP2 LT ISZERO PUSH2 0x3B52 JUMPI DUP1 DUP3 ADD MLOAD DUP2 DUP5 ADD MSTORE PUSH1 0x20 DUP2 ADD SWAP1 POP PUSH2 0x3B37 JUMP JUMPDEST POP POP POP POP SWAP1 POP SWAP1 DUP2 ADD SWAP1 PUSH1 0x1F AND DUP1 ISZERO PUSH2 0x3B7F JUMPI DUP1 DUP3 SUB DUP1 MLOAD PUSH1 0x1 DUP4 PUSH1 0x20 SUB PUSH2 0x100 EXP SUB NOT AND DUP2 MSTORE PUSH1 0x20 ADD SWAP2 POP JUMPDEST POP SWAP3 POP POP POP PUSH1 0x40 MLOAD DUP1 SWAP2 SUB SWAP1 REVERT JUMPDEST POP PUSH1 0x0 DUP4 DUP6 SUB SWAP1 POP DUP1 SWAP2 POP POP SWAP4 SWAP3 POP POP POP JUMP JUMPDEST PUSH1 0x0 DUP1 PUSH1 0x0 PUSH2 0x3BAD PUSH2 0x40BA JUMP JUMPDEST SWAP2 POP SWAP2 POP PUSH2 0x3BC4 DUP2 DUP4 PUSH2 0x3BCB SWAP1 SWAP2 SWAP1 PUSH4 0xFFFFFFFF AND JUMP JUMPDEST SWAP3 POP POP POP SWAP1 JUMP JUMPDEST PUSH1 0x0 PUSH2 0x3C0D DUP4 DUP4 PUSH1 0x40 MLOAD DUP1 PUSH1 0x40 ADD PUSH1 0x40 MSTORE DUP1 PUSH1 0x1A DUP2 MSTORE PUSH1 0x20 ADD PUSH32 0x536166654D6174683A206469766973696F6E206279207A65726F000000000000 DUP2 MSTORE POP PUSH2 0x434B JUMP JUMPDEST SWAP1 POP SWAP3 SWAP2 POP POP JUMP JUMPDEST PUSH1 0x0 DUP1 DUP3 DUP5 ADD SWAP1 POP DUP4 DUP2 LT ISZERO PUSH2 0x3C93 JUMPI PUSH1 0x40 MLOAD PUSH32 0x8C379A000000000000000000000000000000000000000000000000000000000 DUP2 MSTORE PUSH1 0x4 ADD DUP1 DUP1 PUSH1 0x20 ADD DUP3 DUP2 SUB DUP3 MSTORE PUSH1 0x1B DUP2 MSTORE PUSH1 0x20 ADD DUP1 PUSH32 0x536166654D6174683A206164646974696F6E206F766572666C6F770000000000 DUP2 MSTORE POP PUSH1 0x20 ADD SWAP2 POP POP PUSH1 0x40 MLOAD DUP1 SWAP2 SUB SWAP1 REVERT JUMPDEST DUP1 SWAP2 POP POP SWAP3 SWAP2 POP POP JUMP JUMPDEST PUSH1 0x0 DUP1 PUSH1 0x0 DUP1 PUSH1 0x0 DUP1 PUSH1 0x0 DUP1 PUSH1 0x0 PUSH2 0x3CB4 DUP11 PUSH2 0x4411 JUMP JUMPDEST SWAP3 POP SWAP3 POP SWAP3 POP PUSH1 0x0 DUP1 PUSH1 0x0 PUSH2 0x3CD2 DUP14 DUP7 DUP7 PUSH2 0x3CCD PUSH2 0x3BA0 JUMP JUMPDEST PUSH2 0x446B JUMP JUMPDEST SWAP3 POP SWAP3 POP SWAP3 POP DUP3 DUP3 DUP3 DUP9 DUP9 DUP9 SWAP12 POP SWAP12 POP SWAP12 POP SWAP12 POP SWAP12 POP SWAP12 POP POP POP POP POP POP POP SWAP2 SWAP4 SWAP6 POP SWAP2 SWAP4 SWAP6 JUMP JUMPDEST PUSH1 0x0 PUSH2 0x3D3B DUP4 DUP4 PUSH1 0x40 MLOAD DUP1 PUSH1 0x40 ADD PUSH1 0x40 MSTORE DUP1 PUSH1 0x1E DUP2 MSTORE PUSH1 0x20 ADD PUSH32 0x536166654D6174683A207375627472616374696F6E206F766572666C6F770000 DUP2 MSTORE POP PUSH2 0x3AE0 JUMP JUMPDEST SWAP1 POP SWAP3 SWAP2 POP POP JUMP JUMPDEST PUSH1 0x0 DUP1 DUP4 EQ ISZERO PUSH2 0x3D56 JUMPI PUSH1 0x0 SWAP1 POP PUSH2 0x3DC3 JUMP JUMPDEST PUSH1 0x0 DUP3 DUP5 MUL SWAP1 POP DUP3 DUP5 DUP3 DUP2 PUSH2 0x3D67 JUMPI INVALID JUMPDEST DIV EQ PUSH2 0x3DBE JUMPI PUSH1 0x40 MLOAD PUSH32 0x8C379A000000000000000000000000000000000000000000000000000000000 DUP2 MSTORE PUSH1 0x4 ADD DUP1 DUP1 PUSH1 0x20 ADD DUP3 DUP2 SUB DUP3 MSTORE PUSH1 0x21 DUP2 MSTORE PUSH1 0x20 ADD DUP1 PUSH2 0x5579 PUSH1 0x21 SWAP2 CODECOPY PUSH1 0x40 ADD SWAP2 POP POP PUSH1 0x40 MLOAD DUP1 SWAP2 SUB SWAP1 REVERT JUMPDEST DUP1 SWAP2 POP POP JUMPDEST SWAP3 SWAP2 POP POP JUMP JUMPDEST PUSH1 0x1 PUSH1 0x19 PUSH1 0x14 PUSH2 0x100 EXP DUP2 SLOAD DUP2 PUSH1 0xFF MUL NOT AND SWAP1 DUP4 ISZERO ISZERO MUL OR SWAP1 SSTORE POP PUSH2 0x3DED DUP2 PUSH2 0x44F4 JUMP JUMPDEST PUSH1 0x0 SELFBALANCE SWAP1 POP PUSH32 0x738B737502DF4C5F230BBB98A45EA9C2821BAD262E880F883357AD3695F8DAE4 DUP3 DUP3 PUSH1 0x40 MLOAD DUP1 DUP4 DUP2 MSTORE PUSH1 0x20 ADD DUP3 DUP2 MSTORE PUSH1 0x20 ADD SWAP3 POP POP POP PUSH1 0x40 MLOAD DUP1 SWAP2 SUB SWAP1 LOG1 PUSH1 0x0 DUP2 GT ISZERO PUSH2 0x3E44 JUMPI PUSH2 0x3E43 SELFBALANCE PUSH2 0x4828 JUMP JUMPDEST JUMPDEST POP PUSH1 0x0 PUSH1 0x19 PUSH1 0x14 PUSH2 0x100 EXP DUP2 SLOAD DUP2 PUSH1 0xFF MUL NOT AND SWAP1 DUP4 ISZERO ISZERO MUL OR SWAP1 SSTORE POP POP JUMP JUMPDEST DUP1 PUSH2 0x3E71 JUMPI PUSH2 0x3E70 PUSH2 0x48CB JUMP JUMPDEST JUMPDEST PUSH1 0xA PUSH1 0x0 DUP6 PUSH20 0xFFFFFFFFFFFFFFFFFFFFFFFFFFFFFFFFFFFFFFFF AND PUSH20 0xFFFFFFFFFFFFFFFFFFFFFFFFFFFFFFFFFFFFFFFF AND DUP2 MSTORE PUSH1 0x20 ADD SWAP1 DUP2 MSTORE PUSH1 0x20 ADD PUSH1 0x0 KECCAK256 PUSH1 0x0 SWAP1 SLOAD SWAP1 PUSH2 0x100 EXP SWAP1 DIV PUSH1 0xFF AND DUP1 ISZERO PUSH2 0x3F14 JUMPI POP PUSH1 0xA PUSH1 0x0 DUP5 PUSH20 0xFFFFFFFFFFFFFFFFFFFFFFFFFFFFFFFFFFFFFFFF AND PUSH20 0xFFFFFFFFFFFFFFFFFFFFFFFFFFFFFFFFFFFFFFFF AND DUP2 MSTORE PUSH1 0x20 ADD SWAP1 DUP2 MSTORE PUSH1 0x20 ADD PUSH1 0x0 KECCAK256 PUSH1 0x0 SWAP1 SLOAD SWAP1 PUSH2 0x100 EXP SWAP1 DIV PUSH1 0xFF AND ISZERO JUMPDEST ISZERO PUSH2 0x3F29 JUMPI PUSH2 0x3F24 DUP5 DUP5 DUP5 PUSH2 0x490E JUMP JUMPDEST PUSH2 0x40A6 JUMP JUMPDEST PUSH1 0xA PUSH1 0x0 DUP6 PUSH20 0xFFFFFFFFFFFFFFFFFFFFFFFFFFFFFFFFFFFFFFFF AND PUSH20 0xFFFFFFFFFFFFFFFFFFFFFFFFFFFFFFFFFFFFFFFF AND DUP2 MSTORE PUSH1 0x20 ADD SWAP1 DUP2 MSTORE PUSH1 0x20 ADD PUSH1 0x0 KECCAK256 PUSH1 0x0 SWAP1 SLOAD SWAP1 PUSH2 0x100 EXP SWAP1 DIV PUSH1 0xFF AND ISZERO DUP1 ISZERO PUSH2 0x3FCC JUMPI POP PUSH1 0xA PUSH1 0x0 DUP5 PUSH20 0xFFFFFFFFFFFFFFFFFFFFFFFFFFFFFFFFFFFFFFFF AND PUSH20 0xFFFFFFFFFFFFFFFFFFFFFFFFFFFFFFFFFFFFFFFF AND DUP2 MSTORE PUSH1 0x20 ADD SWAP1 DUP2 MSTORE PUSH1 0x20 ADD PUSH1 0x0 KECCAK256 PUSH1 0x0 SWAP1 SLOAD SWAP1 PUSH2 0x100 EXP SWAP1 DIV PUSH1 0xFF AND JUMPDEST ISZERO PUSH2 0x3FE1 JUMPI PUSH2 0x3FDC DUP5 DUP5 DUP5 PUSH2 0x4B6E JUMP JUMPDEST PUSH2 0x40A5 JUMP JUMPDEST PUSH1 0xA PUSH1 0x0 DUP6 PUSH20 0xFFFFFFFFFFFFFFFFFFFFFFFFFFFFFFFFFFFFFFFF AND PUSH20 0xFFFFFFFFFFFFFFFFFFFFFFFFFFFFFFFFFFFFFFFF AND DUP2 MSTORE PUSH1 0x20 ADD SWAP1 DUP2 MSTORE PUSH1 0x20 ADD PUSH1 0x0 KECCAK256 PUSH1 0x0 SWAP1 SLOAD SWAP1 PUSH2 0x100 EXP SWAP1 DIV PUSH1 0xFF AND DUP1 ISZERO PUSH2 0x4083 JUMPI POP PUSH1 0xA PUSH1 0x0 DUP5 PUSH20 0xFFFFFFFFFFFFFFFFFFFFFFFFFFFFFFFFFFFFFFFF AND PUSH20 0xFFFFFFFFFFFFFFFFFFFFFFFFFFFFFFFFFFFFFFFF AND DUP2 MSTORE PUSH1 0x20 ADD SWAP1 DUP2 MSTORE PUSH1 0x20 ADD PUSH1 0x0 KECCAK256 PUSH1 0x0 SWAP1 SLOAD SWAP1 PUSH2 0x100 EXP SWAP1 DIV PUSH1 0xFF AND JUMPDEST ISZERO PUSH2 0x4098 JUMPI PUSH2 0x4093 DUP5 DUP5 DUP5 PUSH2 0x4DCE JUMP JUMPDEST PUSH2 0x40A4 JUMP JUMPDEST PUSH2 0x40A3 DUP5 DUP5 DUP5 PUSH2 0x50C3 JUMP JUMPDEST JUMPDEST JUMPDEST JUMPDEST DUP1 PUSH2 0x40B4 JUMPI PUSH2 0x40B3 PUSH2 0x528E JUMP JUMPDEST JUMPDEST POP POP POP POP JUMP JUMPDEST PUSH1 0x0 DUP1 PUSH1 0x0 PUSH1 0xD SLOAD SWAP1 POP PUSH1 0x0 PUSH1 0xC SLOAD SWAP1 POP PUSH1 0x0 JUMPDEST PUSH1 0xB DUP1 SLOAD SWAP1 POP DUP2 LT ISZERO PUSH2 0x430E JUMPI DUP3 PUSH1 0x4 PUSH1 0x0 PUSH1 0xB DUP5 DUP2 SLOAD DUP2 LT PUSH2 0x40ED JUMPI INVALID JUMPDEST SWAP1 PUSH1 0x0 MSTORE PUSH1 0x20 PUSH1 0x0 KECCAK256 ADD PUSH1 0x0 SWAP1 SLOAD SWAP1 PUSH2 0x100 EXP SWAP1 DIV PUSH20 0xFFFFFFFFFFFFFFFFFFFFFFFFFFFFFFFFFFFFFFFF AND PUSH20 0xFFFFFFFFFFFFFFFFFFFFFFFFFFFFFFFFFFFFFFFF AND PUSH20 0xFFFFFFFFFFFFFFFFFFFFFFFFFFFFFFFFFFFFFFFF AND DUP2 MSTORE PUSH1 0x20 ADD SWAP1 DUP2 MSTORE PUSH1 0x20 ADD PUSH1 0x0 KECCAK256 SLOAD GT DUP1 PUSH2 0x41D4 JUMPI POP DUP2 PUSH1 0x5 PUSH1 0x0 PUSH1 0xB DUP5 DUP2 SLOAD DUP2 LT PUSH2 0x416C JUMPI INVALID JUMPDEST SWAP1 PUSH1 0x0 MSTORE PUSH1 0x20 PUSH1 0x0 KECCAK256 ADD PUSH1 0x0 SWAP1 SLOAD SWAP1 PUSH2 0x100 EXP SWAP1 DIV PUSH20 0xFFFFFFFFFFFFFFFFFFFFFFFFFFFFFFFFFFFFFFFF AND PUSH20 0xFFFFFFFFFFFFFFFFFFFFFFFFFFFFFFFFFFFFFFFF AND PUSH20 0xFFFFFFFFFFFFFFFFFFFFFFFFFFFFFFFFFFFFFFFF AND DUP2 MSTORE PUSH1 0x20 ADD SWAP1 DUP2 MSTORE PUSH1 0x20 ADD PUSH1 0x0 KECCAK256 SLOAD GT JUMPDEST ISZERO PUSH2 0x41EB JUMPI PUSH1 0xD SLOAD PUSH1 0xC SLOAD SWAP5 POP SWAP5 POP POP POP POP PUSH2 0x4347 JUMP JUMPDEST PUSH2 0x4274 PUSH1 0x4 PUSH1 0x0 PUSH1 0xB DUP5 DUP2 SLOAD DUP2 LT PUSH2 0x41FF JUMPI INVALID JUMPDEST SWAP1 PUSH1 0x0 MSTORE PUSH1 0x20 PUSH1 0x0 KECCAK256 ADD PUSH1 0x0 SWAP1 SLOAD SWAP1 PUSH2 0x100 EXP SWAP1 DIV PUSH20 0xFFFFFFFFFFFFFFFFFFFFFFFFFFFFFFFFFFFFFFFF AND PUSH20 0xFFFFFFFFFFFFFFFFFFFFFFFFFFFFFFFFFFFFFFFF AND PUSH20 0xFFFFFFFFFFFFFFFFFFFFFFFFFFFFFFFFFFFFFFFF AND DUP2 MSTORE PUSH1 0x20 ADD SWAP1 DUP2 MSTORE PUSH1 0x20 ADD PUSH1 0x0 KECCAK256 SLOAD DUP5 PUSH2 0x3CF9 SWAP1 SWAP2 SWAP1 PUSH4 0xFFFFFFFF AND JUMP JUMPDEST SWAP3 POP PUSH2 0x42FF PUSH1 0x5 PUSH1 0x0 PUSH1 0xB DUP5 DUP2 SLOAD DUP2 LT PUSH2 0x428A JUMPI INVALID JUMPDEST SWAP1 PUSH1 0x0 MSTORE PUSH1 0x20 PUSH1 0x0 KECCAK256 ADD PUSH1 0x0 SWAP1 SLOAD SWAP1 PUSH2 0x100 EXP SWAP1 DIV PUSH20 0xFFFFFFFFFFFFFFFFFFFFFFFFFFFFFFFFFFFFFFFF AND PUSH20 0xFFFFFFFFFFFFFFFFFFFFFFFFFFFFFFFFFFFFFFFF AND PUSH20 0xFFFFFFFFFFFFFFFFFFFFFFFFFFFFFFFFFFFFFFFF AND DUP2 MSTORE PUSH1 0x20 ADD SWAP1 DUP2 MSTORE PUSH1 0x20 ADD PUSH1 0x0 KECCAK256 SLOAD DUP4 PUSH2 0x3CF9 SWAP1 SWAP2 SWAP1 PUSH4 0xFFFFFFFF AND JUMP JUMPDEST SWAP2 POP DUP1 DUP1 PUSH1 0x1 ADD SWAP2 POP POP PUSH2 0x40CE JUMP JUMPDEST POP PUSH2 0x4326 PUSH1 0xC SLOAD PUSH1 0xD SLOAD PUSH2 0x3BCB SWAP1 SWAP2 SWAP1 PUSH4 0xFFFFFFFF AND JUMP JUMPDEST DUP3 LT ISZERO PUSH2 0x433E JUMPI PUSH1 0xD SLOAD PUSH1 0xC SLOAD SWAP4 POP SWAP4 POP POP POP PUSH2 0x4347 JUMP JUMPDEST DUP2 DUP2 SWAP4 POP SWAP4 POP POP POP JUMPDEST SWAP1 SWAP2 JUMP JUMPDEST PUSH1 0x0 DUP1 DUP4 GT DUP3 SWAP1 PUSH2 0x43F7 JUMPI PUSH1 0x40 MLOAD PUSH32 0x8C379A000000000000000000000000000000000000000000000000000000000 DUP2 MSTORE PUSH1 0x4 ADD DUP1 DUP1 PUSH1 0x20 ADD DUP3 DUP2 SUB DUP3 MSTORE DUP4 DUP2 DUP2 MLOAD DUP2 MSTORE PUSH1 0x20 ADD SWAP2 POP DUP1 MLOAD SWAP1 PUSH1 0x20 ADD SWAP1 DUP1 DUP4 DUP4 PUSH1 0x0 JUMPDEST DUP4 DUP2 LT ISZERO PUSH2 0x43BC JUMPI DUP1 DUP3 ADD MLOAD DUP2 DUP5 ADD MSTORE PUSH1 0x20 DUP2 ADD SWAP1 POP PUSH2 0x43A1 JUMP JUMPDEST POP POP POP POP SWAP1 POP SWAP1 DUP2 ADD SWAP1 PUSH1 0x1F AND DUP1 ISZERO PUSH2 0x43E9 JUMPI DUP1 DUP3 SUB DUP1 MLOAD PUSH1 0x1 DUP4 PUSH1 0x20 SUB PUSH2 0x100 EXP SUB NOT AND DUP2 MSTORE PUSH1 0x20 ADD SWAP2 POP JUMPDEST POP SWAP3 POP POP POP PUSH1 0x40 MLOAD DUP1 SWAP2 SUB SWAP1 REVERT JUMPDEST POP PUSH1 0x0 DUP4 DUP6 DUP2 PUSH2 0x4403 JUMPI INVALID JUMPDEST DIV SWAP1 POP DUP1 SWAP2 POP POP SWAP4 SWAP3 POP POP POP JUMP JUMPDEST PUSH1 0x0 DUP1 PUSH1 0x0 DUP1 PUSH2 0x4420 DUP6 PUSH2 0x52A2 JUMP JUMPDEST SWAP1 POP PUSH1 0x0 PUSH2 0x442D DUP7 PUSH2 0x52D3 JUMP JUMPDEST SWAP1 POP PUSH1 0x0 PUSH2 0x4456 DUP3 PUSH2 0x4448 DUP6 DUP11 PUSH2 0x3CF9 SWAP1 SWAP2 SWAP1 PUSH4 0xFFFFFFFF AND JUMP JUMPDEST PUSH2 0x3CF9 SWAP1 SWAP2 SWAP1 PUSH4 0xFFFFFFFF AND JUMP JUMPDEST SWAP1 POP DUP1 DUP4 DUP4 SWAP6 POP SWAP6 POP SWAP6 POP POP POP POP SWAP2 SWAP4 SWAP1 SWAP3 POP JUMP JUMPDEST PUSH1 0x0 DUP1 PUSH1 0x0 DUP1 PUSH2 0x4484 DUP6 DUP10 PUSH2 0x3D43 SWAP1 SWAP2 SWAP1 PUSH4 0xFFFFFFFF AND JUMP JUMPDEST SWAP1 POP PUSH1 0x0 PUSH2 0x449B DUP7 DUP10 PUSH2 0x3D43 SWAP1 SWAP2 SWAP1 PUSH4 0xFFFFFFFF AND JUMP JUMPDEST SWAP1 POP PUSH1 0x0 PUSH2 0x44B2 DUP8 DUP10 PUSH2 0x3D43 SWAP1 SWAP2 SWAP1 PUSH4 0xFFFFFFFF AND JUMP JUMPDEST SWAP1 POP PUSH1 0x0 PUSH2 0x44DB DUP3 PUSH2 0x44CD DUP6 DUP8 PUSH2 0x3CF9 SWAP1 SWAP2 SWAP1 PUSH4 0xFFFFFFFF AND JUMP JUMPDEST PUSH2 0x3CF9 SWAP1 SWAP2 SWAP1 PUSH4 0xFFFFFFFF AND JUMP JUMPDEST SWAP1 POP DUP4 DUP2 DUP5 SWAP7 POP SWAP7 POP SWAP7 POP POP POP POP POP SWAP5 POP SWAP5 POP SWAP5 SWAP2 POP POP JUMP JUMPDEST PUSH1 0x60 PUSH1 0x2 PUSH8 0xFFFFFFFFFFFFFFFF DUP2 GT DUP1 ISZERO PUSH2 0x450E JUMPI PUSH1 0x0 DUP1 REVERT JUMPDEST POP PUSH1 0x40 MLOAD SWAP1 DUP1 DUP3 MSTORE DUP1 PUSH1 0x20 MUL PUSH1 0x20 ADD DUP3 ADD PUSH1 0x40 MSTORE DUP1 ISZERO PUSH2 0x453D JUMPI DUP2 PUSH1 0x20 ADD PUSH1 0x20 DUP3 MUL DUP1 CALLDATASIZE DUP4 CALLDATACOPY DUP1 DUP3 ADD SWAP2 POP POP SWAP1 POP JUMPDEST POP SWAP1 POP ADDRESS DUP2 PUSH1 0x0 DUP2 MLOAD DUP2 LT PUSH2 0x454E JUMPI INVALID JUMPDEST PUSH1 0x20 MUL PUSH1 0x20 ADD ADD SWAP1 PUSH20 0xFFFFFFFFFFFFFFFFFFFFFFFFFFFFFFFFFFFFFFFF AND SWAP1 DUP2 PUSH20 0xFFFFFFFFFFFFFFFFFFFFFFFFFFFFFFFFFFFFFFFF AND DUP2 MSTORE POP POP PUSH1 0x18 PUSH1 0x0 SWAP1 SLOAD SWAP1 PUSH2 0x100 EXP SWAP1 DIV PUSH20 0xFFFFFFFFFFFFFFFFFFFFFFFFFFFFFFFFFFFFFFFF AND PUSH20 0xFFFFFFFFFFFFFFFFFFFFFFFFFFFFFFFFFFFFFFFF AND PUSH4 0xAD5C4648 PUSH1 0x40 MLOAD DUP2 PUSH4 0xFFFFFFFF AND PUSH1 0xE0 SHL DUP2 MSTORE PUSH1 0x4 ADD PUSH1 0x20 PUSH1 0x40 MLOAD DUP1 DUP4 SUB DUP2 DUP7 DUP1 EXTCODESIZE ISZERO DUP1 ISZERO PUSH2 0x45F0 JUMPI PUSH1 0x0 DUP1 REVERT JUMPDEST POP GAS STATICCALL ISZERO DUP1 ISZERO PUSH2 0x4604 JUMPI RETURNDATASIZE PUSH1 0x0 DUP1 RETURNDATACOPY RETURNDATASIZE PUSH1 0x0 REVERT JUMPDEST POP POP POP POP PUSH1 0x40 MLOAD RETURNDATASIZE PUSH1 0x20 DUP2 LT ISZERO PUSH2 0x461A JUMPI PUSH1 0x0 DUP1 REVERT JUMPDEST DUP2 ADD SWAP1 DUP1 DUP1 MLOAD SWAP1 PUSH1 0x20 ADD SWAP1 SWAP3 SWAP2 SWAP1 POP POP POP DUP2 PUSH1 0x1 DUP2 MLOAD DUP2 LT PUSH2 0x4638 JUMPI INVALID JUMPDEST PUSH1 0x20 MUL PUSH1 0x20 ADD ADD SWAP1 PUSH20 0xFFFFFFFFFFFFFFFFFFFFFFFFFFFFFFFFFFFFFFFF AND SWAP1 DUP2 PUSH20 0xFFFFFFFFFFFFFFFFFFFFFFFFFFFFFFFFFFFFFFFF AND DUP2 MSTORE POP POP PUSH2 0x469F ADDRESS PUSH1 0x18 PUSH1 0x0 SWAP1 SLOAD SWAP1 PUSH2 0x100 EXP SWAP1 DIV PUSH20 0xFFFFFFFFFFFFFFFFFFFFFFFFFFFFFFFFFFFFFFFF AND DUP5 PUSH2 0x30ED JUMP JUMPDEST PUSH1 0x18 PUSH1 0x0 SWAP1 SLOAD SWAP1 PUSH2 0x100 EXP SWAP1 DIV PUSH20 0xFFFFFFFFFFFFFFFFFFFFFFFFFFFFFFFFFFFFFFFF AND PUSH20 0xFFFFFFFFFFFFFFFFFFFFFFFFFFFFFFFFFFFFFFFF AND PUSH4 0x791AC947 DUP4 PUSH1 0x0 DUP5 ADDRESS TIMESTAMP PUSH1 0x40 MLOAD DUP7 PUSH4 0xFFFFFFFF AND PUSH1 0xE0 SHL DUP2 MSTORE PUSH1 0x4 ADD DUP1 DUP7 DUP2 MSTORE PUSH1 0x20 ADD DUP6 DUP2 MSTORE PUSH1 0x20 ADD DUP1 PUSH1 0x20 ADD DUP5 PUSH20 0xFFFFFFFFFFFFFFFFFFFFFFFFFFFFFFFFFFFFFFFF AND DUP2 MSTORE PUSH1 0x20 ADD DUP4 DUP2 MSTORE PUSH1 0x20 ADD DUP3 DUP2 SUB DUP3 MSTORE DUP6 DUP2 DUP2 MLOAD DUP2 MSTORE PUSH1 0x20 ADD SWAP2 POP DUP1 MLOAD SWAP1 PUSH1 0x20 ADD SWAP1 PUSH1 0x20 MUL DUP1 DUP4 DUP4 PUSH1 0x0 JUMPDEST DUP4 DUP2 LT ISZERO PUSH2 0x4763 JUMPI DUP1 DUP3 ADD MLOAD DUP2 DUP5 ADD MSTORE PUSH1 0x20 DUP2 ADD SWAP1 POP PUSH2 0x4748 JUMP JUMPDEST POP POP POP POP SWAP1 POP ADD SWAP7 POP POP POP POP POP POP POP PUSH1 0x0 PUSH1 0x40 MLOAD DUP1 DUP4 SUB DUP2 PUSH1 0x0 DUP8 DUP1 EXTCODESIZE ISZERO DUP1 ISZERO PUSH2 0x478C JUMPI PUSH1 0x0 DUP1 REVERT JUMPDEST POP GAS CALL ISZERO DUP1 ISZERO PUSH2 0x47A0 JUMPI RETURNDATASIZE PUSH1 0x0 DUP1 RETURNDATACOPY RETURNDATASIZE PUSH1 0x0 REVERT JUMPDEST POP POP POP POP PUSH32 0x32CDE87EB454F3A0B875AB23547023107CFAD454363EC88BA5695E2C24AA52A7 DUP3 DUP3 PUSH1 0x40 MLOAD DUP1 DUP4 DUP2 MSTORE PUSH1 0x20 ADD DUP1 PUSH1 0x20 ADD DUP3 DUP2 SUB DUP3 MSTORE DUP4 DUP2 DUP2 MLOAD DUP2 MSTORE PUSH1 0x20 ADD SWAP2 POP DUP1 MLOAD SWAP1 PUSH1 0x20 ADD SWAP1 PUSH1 0x20 MUL DUP1 DUP4 DUP4 PUSH1 0x0 JUMPDEST DUP4 DUP2 LT ISZERO PUSH2 0x4810 JUMPI DUP1 DUP3 ADD MLOAD DUP2 DUP5 ADD MSTORE PUSH1 0x20 DUP2 ADD SWAP1 POP PUSH2 0x47F5 JUMP JUMPDEST POP POP POP POP SWAP1 POP ADD SWAP4 POP POP POP POP PUSH1 0x40 MLOAD DUP1 SWAP2 SUB SWAP1 LOG1 POP POP JUMP JUMPDEST PUSH1 0x3 PUSH1 0x0 SWAP1 SLOAD SWAP1 PUSH2 0x100 EXP SWAP1 DIV PUSH20 0xFFFFFFFFFFFFFFFFFFFFFFFFFFFFFFFFFFFFFFFF AND PUSH20 0xFFFFFFFFFFFFFFFFFFFFFFFFFFFFFFFFFFFFFFFF AND PUSH2 0x8FC DUP3 SWAP1 DUP2 ISZERO MUL SWAP1 PUSH1 0x40 MLOAD PUSH1 0x0 PUSH1 0x40 MLOAD DUP1 DUP4 SUB DUP2 DUP6 DUP9 DUP9 CALL SWAP4 POP POP POP POP ISZERO DUP1 ISZERO PUSH2 0x4890 JUMPI RETURNDATASIZE PUSH1 0x0 DUP1 RETURNDATACOPY RETURNDATASIZE PUSH1 0x0 REVERT JUMPDEST POP PUSH32 0xB6B34F3CFEF2B0BB0E47223AB355FF7C3615A62FE5F469444611E679411246C6 DUP2 PUSH1 0x40 MLOAD DUP1 DUP3 DUP2 MSTORE PUSH1 0x20 ADD SWAP2 POP POP PUSH1 0x40 MLOAD DUP1 SWAP2 SUB SWAP1 LOG1 POP JUMP JUMPDEST PUSH1 0x0 PUSH1 0x12 SLOAD EQ DUP1 ISZERO PUSH2 0x48DF JUMPI POP PUSH1 0x0 PUSH1 0x14 SLOAD EQ JUMPDEST ISZERO PUSH2 0x48E9 JUMPI PUSH2 0x490C JUMP JUMPDEST PUSH1 0x12 SLOAD PUSH1 0x13 DUP2 SWAP1 SSTORE POP PUSH1 0x14 SLOAD PUSH1 0x15 DUP2 SWAP1 SSTORE POP PUSH1 0x0 PUSH1 0x12 DUP2 SWAP1 SSTORE POP PUSH1 0x0 PUSH1 0x14 DUP2 SWAP1 SSTORE POP JUMPDEST JUMP JUMPDEST PUSH1 0x0 DUP1 PUSH1 0x0 DUP1 PUSH1 0x0 DUP1 PUSH2 0x4920 DUP8 PUSH2 0x3C9D JUMP JUMPDEST SWAP6 POP SWAP6 POP SWAP6 POP SWAP6 POP SWAP6 POP SWAP6 POP PUSH2 0x497E DUP8 PUSH1 0x5 PUSH1 0x0 DUP13 PUSH20 0xFFFFFFFFFFFFFFFFFFFFFFFFFFFFFFFFFFFFFFFF AND PUSH20 0xFFFFFFFFFFFFFFFFFFFFFFFFFFFFFFFFFFFFFFFF AND DUP2 MSTORE PUSH1 0x20 ADD SWAP1 DUP2 MSTORE PUSH1 0x20 ADD PUSH1 0x0 KECCAK256 SLOAD PUSH2 0x3CF9 SWAP1 SWAP2 SWAP1 PUSH4 0xFFFFFFFF AND JUMP JUMPDEST PUSH1 0x5 PUSH1 0x0 DUP12 PUSH20 0xFFFFFFFFFFFFFFFFFFFFFFFFFFFFFFFFFFFFFFFF AND PUSH20 0xFFFFFFFFFFFFFFFFFFFFFFFFFFFFFFFFFFFFFFFF AND DUP2 MSTORE PUSH1 0x20 ADD SWAP1 DUP2 MSTORE PUSH1 0x20 ADD PUSH1 0x0 KECCAK256 DUP2 SWAP1 SSTORE POP PUSH2 0x4A13 DUP7 PUSH1 0x4 PUSH1 0x0 DUP13 PUSH20 0xFFFFFFFFFFFFFFFFFFFFFFFFFFFFFFFFFFFFFFFF AND PUSH20 0xFFFFFFFFFFFFFFFFFFFFFFFFFFFFFFFFFFFFFFFF AND DUP2 MSTORE PUSH1 0x20 ADD SWAP1 DUP2 MSTORE PUSH1 0x20 ADD PUSH1 0x0 KECCAK256 SLOAD PUSH2 0x3CF9 SWAP1 SWAP2 SWAP1 PUSH4 0xFFFFFFFF AND JUMP JUMPDEST PUSH1 0x4 PUSH1 0x0 DUP12 PUSH20 0xFFFFFFFFFFFFFFFFFFFFFFFFFFFFFFFFFFFFFFFF AND PUSH20 0xFFFFFFFFFFFFFFFFFFFFFFFFFFFFFFFFFFFFFFFF AND DUP2 MSTORE PUSH1 0x20 ADD SWAP1 DUP2 MSTORE PUSH1 0x20 ADD PUSH1 0x0 KECCAK256 DUP2 SWAP1 SSTORE POP PUSH2 0x4AA8 DUP6 PUSH1 0x4 PUSH1 0x0 DUP12 PUSH20 0xFFFFFFFFFFFFFFFFFFFFFFFFFFFFFFFFFFFFFFFF AND PUSH20 0xFFFFFFFFFFFFFFFFFFFFFFFFFFFFFFFFFFFFFFFF AND DUP2 MSTORE PUSH1 0x20 ADD SWAP1 DUP2 MSTORE PUSH1 0x20 ADD PUSH1 0x0 KECCAK256 SLOAD PUSH2 0x3C15 SWAP1 SWAP2 SWAP1 PUSH4 0xFFFFFFFF AND JUMP JUMPDEST PUSH1 0x4 PUSH1 0x0 DUP11 PUSH20 0xFFFFFFFFFFFFFFFFFFFFFFFFFFFFFFFFFFFFFFFF AND PUSH20 0xFFFFFFFFFFFFFFFFFFFFFFFFFFFFFFFFFFFFFFFF AND DUP2 MSTORE PUSH1 0x20 ADD SWAP1 DUP2 MSTORE PUSH1 0x20 ADD PUSH1 0x0 KECCAK256 DUP2 SWAP1 SSTORE POP PUSH2 0x4AF4 DUP2 PUSH2 0x5304 JUMP JUMPDEST PUSH2 0x4AFE DUP5 DUP4 PUSH2 0x54A9 JUMP JUMPDEST DUP8 PUSH20 0xFFFFFFFFFFFFFFFFFFFFFFFFFFFFFFFFFFFFFFFF AND DUP10 PUSH20 0xFFFFFFFFFFFFFFFFFFFFFFFFFFFFFFFFFFFFFFFF AND PUSH32 0xDDF252AD1BE2C89B69C2B068FC378DAA952BA7F163C4A11628F55A4DF523B3EF DUP6 PUSH1 0x40 MLOAD DUP1 DUP3 DUP2 MSTORE PUSH1 0x20 ADD SWAP2 POP POP PUSH1 0x40 MLOAD DUP1 SWAP2 SUB SWAP1 LOG3 POP POP POP POP POP POP POP POP POP JUMP JUMPDEST PUSH1 0x0 DUP1 PUSH1 0x0 DUP1 PUSH1 0x0 DUP1 PUSH2 0x4B80 DUP8 PUSH2 0x3C9D JUMP JUMPDEST SWAP6 POP SWAP6 POP SWAP6 POP SWAP6 POP SWAP6 POP SWAP6 POP PUSH2 0x4BDE DUP7 PUSH1 0x4 PUSH1 0x0 DUP13 PUSH20 0xFFFFFFFFFFFFFFFFFFFFFFFFFFFFFFFFFFFFFFFF AND PUSH20 0xFFFFFFFFFFFFFFFFFFFFFFFFFFFFFFFFFFFFFFFF AND DUP2 MSTORE PUSH1 0x20 ADD SWAP1 DUP2 MSTORE PUSH1 0x20 ADD PUSH1 0x0 KECCAK256 SLOAD PUSH2 0x3CF9 SWAP1 SWAP2 SWAP1 PUSH4 0xFFFFFFFF AND JUMP JUMPDEST PUSH1 0x4 PUSH1 0x0 DUP12 PUSH20 0xFFFFFFFFFFFFFFFFFFFFFFFFFFFFFFFFFFFFFFFF AND PUSH20 0xFFFFFFFFFFFFFFFFFFFFFFFFFFFFFFFFFFFFFFFF AND DUP2 MSTORE PUSH1 0x20 ADD SWAP1 DUP2 MSTORE PUSH1 0x20 ADD PUSH1 0x0 KECCAK256 DUP2 SWAP1 SSTORE POP PUSH2 0x4C73 DUP4 PUSH1 0x5 PUSH1 0x0 DUP12 PUSH20 0xFFFFFFFFFFFFFFFFFFFFFFFFFFFFFFFFFFFFFFFF AND PUSH20 0xFFFFFFFFFFFFFFFFFFFFFFFFFFFFFFFFFFFFFFFF AND DUP2 MSTORE PUSH1 0x20 ADD SWAP1 DUP2 MSTORE PUSH1 0x20 ADD PUSH1 0x0 KECCAK256 SLOAD PUSH2 0x3C15 SWAP1 SWAP2 SWAP1 PUSH4 0xFFFFFFFF AND JUMP JUMPDEST PUSH1 0x5 PUSH1 0x0 DUP11 PUSH20 0xFFFFFFFFFFFFFFFFFFFFFFFFFFFFFFFFFFFFFFFF AND PUSH20 0xFFFFFFFFFFFFFFFFFFFFFFFFFFFFFFFFFFFFFFFF AND DUP2 MSTORE PUSH1 0x20 ADD SWAP1 DUP2 MSTORE PUSH1 0x20 ADD PUSH1 0x0 KECCAK256 DUP2 SWAP1 SSTORE POP PUSH2 0x4D08 DUP6 PUSH1 0x4 PUSH1 0x0 DUP12 PUSH20 0xFFFFFFFFFFFFFFFFFFFFFFFFFFFFFFFFFFFFFFFF AND PUSH20 0xFFFFFFFFFFFFFFFFFFFFFFFFFFFFFFFFFFFFFFFF AND DUP2 MSTORE PUSH1 0x20 ADD SWAP1 DUP2 MSTORE PUSH1 0x20 ADD PUSH1 0x0 KECCAK256 SLOAD PUSH2 0x3C15 SWAP1 SWAP2 SWAP1 PUSH4 0xFFFFFFFF AND JUMP JUMPDEST PUSH1 0x4 PUSH1 0x0 DUP11 PUSH20 0xFFFFFFFFFFFFFFFFFFFFFFFFFFFFFFFFFFFFFFFF AND PUSH20 0xFFFFFFFFFFFFFFFFFFFFFFFFFFFFFFFFFFFFFFFF AND DUP2 MSTORE PUSH1 0x20 ADD SWAP1 DUP2 MSTORE PUSH1 0x20 ADD PUSH1 0x0 KECCAK256 DUP2 SWAP1 SSTORE POP PUSH2 0x4D54 DUP2 PUSH2 0x5304 JUMP JUMPDEST PUSH2 0x4D5E DUP5 DUP4 PUSH2 0x54A9 JUMP JUMPDEST DUP8 PUSH20 0xFFFFFFFFFFFFFFFFFFFFFFFFFFFFFFFFFFFFFFFF AND DUP10 PUSH20 0xFFFFFFFFFFFFFFFFFFFFFFFFFFFFFFFFFFFFFFFF AND PUSH32 0xDDF252AD1BE2C89B69C2B068FC378DAA952BA7F163C4A11628F55A4DF523B3EF DUP6 PUSH1 0x40 MLOAD DUP1 DUP3 DUP2 MSTORE PUSH1 0x20 ADD SWAP2 POP POP PUSH1 0x40 MLOAD DUP1 SWAP2 SUB SWAP1 LOG3 POP POP POP POP POP POP POP POP POP JUMP JUMPDEST PUSH1 0x0 DUP1 PUSH1 0x0 DUP1 PUSH1 0x0 DUP1 PUSH2 0x4DE0 DUP8 PUSH2 0x3C9D JUMP JUMPDEST SWAP6 POP SWAP6 POP SWAP6 POP SWAP6 POP SWAP6 POP SWAP6 POP PUSH2 0x4E3E DUP8 PUSH1 0x5 PUSH1 0x0 DUP13 PUSH20 0xFFFFFFFFFFFFFFFFFFFFFFFFFFFFFFFFFFFFFFFF AND PUSH20 0xFFFFFFFFFFFFFFFFFFFFFFFFFFFFFFFFFFFFFFFF AND DUP2 MSTORE PUSH1 0x20 ADD SWAP1 DUP2 MSTORE PUSH1 0x20 ADD PUSH1 0x0 KECCAK256 SLOAD PUSH2 0x3CF9 SWAP1 SWAP2 SWAP1 PUSH4 0xFFFFFFFF AND JUMP JUMPDEST PUSH1 0x5 PUSH1 0x0 DUP12 PUSH20 0xFFFFFFFFFFFFFFFFFFFFFFFFFFFFFFFFFFFFFFFF AND PUSH20 0xFFFFFFFFFFFFFFFFFFFFFFFFFFFFFFFFFFFFFFFF AND DUP2 MSTORE PUSH1 0x20 ADD SWAP1 DUP2 MSTORE PUSH1 0x20 ADD PUSH1 0x0 KECCAK256 DUP2 SWAP1 SSTORE POP PUSH2 0x4ED3 DUP7 PUSH1 0x4 PUSH1 0x0 DUP13 PUSH20 0xFFFFFFFFFFFFFFFFFFFFFFFFFFFFFFFFFFFFFFFF AND PUSH20 0xFFFFFFFFFFFFFFFFFFFFFFFFFFFFFFFFFFFFFFFF AND DUP2 MSTORE PUSH1 0x20 ADD SWAP1 DUP2 MSTORE PUSH1 0x20 ADD PUSH1 0x0 KECCAK256 SLOAD PUSH2 0x3CF9 SWAP1 SWAP2 SWAP1 PUSH4 0xFFFFFFFF AND JUMP JUMPDEST PUSH1 0x4 PUSH1 0x0 DUP12 PUSH20 0xFFFFFFFFFFFFFFFFFFFFFFFFFFFFFFFFFFFFFFFF AND PUSH20 0xFFFFFFFFFFFFFFFFFFFFFFFFFFFFFFFFFFFFFFFF AND DUP2 MSTORE PUSH1 0x20 ADD SWAP1 DUP2 MSTORE PUSH1 0x20 ADD PUSH1 0x0 KECCAK256 DUP2 SWAP1 SSTORE POP PUSH2 0x4F68 DUP4 PUSH1 0x5 PUSH1 0x0 DUP12 PUSH20 0xFFFFFFFFFFFFFFFFFFFFFFFFFFFFFFFFFFFFFFFF AND PUSH20 0xFFFFFFFFFFFFFFFFFFFFFFFFFFFFFFFFFFFFFFFF AND DUP2 MSTORE PUSH1 0x20 ADD SWAP1 DUP2 MSTORE PUSH1 0x20 ADD PUSH1 0x0 KECCAK256 SLOAD PUSH2 0x3C15 SWAP1 SWAP2 SWAP1 PUSH4 0xFFFFFFFF AND JUMP JUMPDEST PUSH1 0x5 PUSH1 0x0 DUP11 PUSH20 0xFFFFFFFFFFFFFFFFFFFFFFFFFFFFFFFFFFFFFFFF AND PUSH20 0xFFFFFFFFFFFFFFFFFFFFFFFFFFFFFFFFFFFFFFFF AND DUP2 MSTORE PUSH1 0x20 ADD SWAP1 DUP2 MSTORE PUSH1 0x20 ADD PUSH1 0x0 KECCAK256 DUP2 SWAP1 SSTORE POP PUSH2 0x4FFD DUP6 PUSH1 0x4 PUSH1 0x0 DUP12 PUSH20 0xFFFFFFFFFFFFFFFFFFFFFFFFFFFFFFFFFFFFFFFF AND PUSH20 0xFFFFFFFFFFFFFFFFFFFFFFFFFFFFFFFFFFFFFFFF AND DUP2 MSTORE PUSH1 0x20 ADD SWAP1 DUP2 MSTORE PUSH1 0x20 ADD PUSH1 0x0 KECCAK256 SLOAD PUSH2 0x3C15 SWAP1 SWAP2 SWAP1 PUSH4 0xFFFFFFFF AND JUMP JUMPDEST PUSH1 0x4 PUSH1 0x0 DUP11 PUSH20 0xFFFFFFFFFFFFFFFFFFFFFFFFFFFFFFFFFFFFFFFF AND PUSH20 0xFFFFFFFFFFFFFFFFFFFFFFFFFFFFFFFFFFFFFFFF AND DUP2 MSTORE PUSH1 0x20 ADD SWAP1 DUP2 MSTORE PUSH1 0x20 ADD PUSH1 0x0 KECCAK256 DUP2 SWAP1 SSTORE POP PUSH2 0x5049 DUP2 PUSH2 0x5304 JUMP JUMPDEST PUSH2 0x5053 DUP5 DUP4 PUSH2 0x54A9 JUMP JUMPDEST DUP8 PUSH20 0xFFFFFFFFFFFFFFFFFFFFFFFFFFFFFFFFFFFFFFFF AND DUP10 PUSH20 0xFFFFFFFFFFFFFFFFFFFFFFFFFFFFFFFFFFFFFFFF AND PUSH32 0xDDF252AD1BE2C89B69C2B068FC378DAA952BA7F163C4A11628F55A4DF523B3EF DUP6 PUSH1 0x40 MLOAD DUP1 DUP3 DUP2 MSTORE PUSH1 0x20 ADD SWAP2 POP POP PUSH1 0x40 MLOAD DUP1 SWAP2 SUB SWAP1 LOG3 POP POP POP POP POP POP POP POP POP JUMP JUMPDEST PUSH1 0x0 DUP1 PUSH1 0x0 DUP1 PUSH1 0x0 DUP1 PUSH2 0x50D5 DUP8 PUSH2 0x3C9D JUMP JUMPDEST SWAP6 POP SWAP6 POP SWAP6 POP SWAP6 POP SWAP6 POP SWAP6 POP PUSH2 0x5133 DUP7 PUSH1 0x4 PUSH1 0x0 DUP13 PUSH20 0xFFFFFFFFFFFFFFFFFFFFFFFFFFFFFFFFFFFFFFFF AND PUSH20 0xFFFFFFFFFFFFFFFFFFFFFFFFFFFFFFFFFFFFFFFF AND DUP2 MSTORE PUSH1 0x20 ADD SWAP1 DUP2 MSTORE PUSH1 0x20 ADD PUSH1 0x0 KECCAK256 SLOAD PUSH2 0x3CF9 SWAP1 SWAP2 SWAP1 PUSH4 0xFFFFFFFF AND JUMP JUMPDEST PUSH1 0x4 PUSH1 0x0 DUP12 PUSH20 0xFFFFFFFFFFFFFFFFFFFFFFFFFFFFFFFFFFFFFFFF AND PUSH20 0xFFFFFFFFFFFFFFFFFFFFFFFFFFFFFFFFFFFFFFFF AND DUP2 MSTORE PUSH1 0x20 ADD SWAP1 DUP2 MSTORE PUSH1 0x20 ADD PUSH1 0x0 KECCAK256 DUP2 SWAP1 SSTORE POP PUSH2 0x51C8 DUP6 PUSH1 0x4 PUSH1 0x0 DUP12 PUSH20 0xFFFFFFFFFFFFFFFFFFFFFFFFFFFFFFFFFFFFFFFF AND PUSH20 0xFFFFFFFFFFFFFFFFFFFFFFFFFFFFFFFFFFFFFFFF AND DUP2 MSTORE PUSH1 0x20 ADD SWAP1 DUP2 MSTORE PUSH1 0x20 ADD PUSH1 0x0 KECCAK256 SLOAD PUSH2 0x3C15 SWAP1 SWAP2 SWAP1 PUSH4 0xFFFFFFFF AND JUMP JUMPDEST PUSH1 0x4 PUSH1 0x0 DUP11 PUSH20 0xFFFFFFFFFFFFFFFFFFFFFFFFFFFFFFFFFFFFFFFF AND PUSH20 0xFFFFFFFFFFFFFFFFFFFFFFFFFFFFFFFFFFFFFFFF AND DUP2 MSTORE PUSH1 0x20 ADD SWAP1 DUP2 MSTORE PUSH1 0x20 ADD PUSH1 0x0 KECCAK256 DUP2 SWAP1 SSTORE POP PUSH2 0x5214 DUP2 PUSH2 0x5304 JUMP JUMPDEST PUSH2 0x521E DUP5 DUP4 PUSH2 0x54A9 JUMP JUMPDEST DUP8 PUSH20 0xFFFFFFFFFFFFFFFFFFFFFFFFFFFFFFFFFFFFFFFF AND DUP10 PUSH20 0xFFFFFFFFFFFFFFFFFFFFFFFFFFFFFFFFFFFFFFFF AND PUSH32 0xDDF252AD1BE2C89B69C2B068FC378DAA952BA7F163C4A11628F55A4DF523B3EF DUP6 PUSH1 0x40 MLOAD DUP1 DUP3 DUP2 MSTORE PUSH1 0x20 ADD SWAP2 POP POP PUSH1 0x40 MLOAD DUP1 SWAP2 SUB SWAP1 LOG3 POP POP POP POP POP POP POP POP POP JUMP JUMPDEST PUSH1 0x13 SLOAD PUSH1 0x12 DUP2 SWAP1 SSTORE POP PUSH1 0x15 SLOAD PUSH1 0x14 DUP2 SWAP1 SSTORE POP JUMP JUMPDEST PUSH1 0x0 PUSH2 0x52CC PUSH1 0x64 PUSH2 0x52BE PUSH1 0x12 SLOAD DUP6 PUSH2 0x3D43 SWAP1 SWAP2 SWAP1 PUSH4 0xFFFFFFFF AND JUMP JUMPDEST PUSH2 0x3BCB SWAP1 SWAP2 SWAP1 PUSH4 0xFFFFFFFF AND JUMP JUMPDEST SWAP1 POP SWAP2 SWAP1 POP JUMP JUMPDEST PUSH1 0x0 PUSH2 0x52FD PUSH1 0x64 PUSH2 0x52EF PUSH1 0x14 SLOAD DUP6 PUSH2 0x3D43 SWAP1 SWAP2 SWAP1 PUSH4 0xFFFFFFFF AND JUMP JUMPDEST PUSH2 0x3BCB SWAP1 SWAP2 SWAP1 PUSH4 0xFFFFFFFF AND JUMP JUMPDEST SWAP1 POP SWAP2 SWAP1 POP JUMP JUMPDEST PUSH1 0x0 PUSH2 0x530E PUSH2 0x3BA0 JUMP JUMPDEST SWAP1 POP PUSH1 0x0 PUSH2 0x5325 DUP3 DUP5 PUSH2 0x3D43 SWAP1 SWAP2 SWAP1 PUSH4 0xFFFFFFFF AND JUMP JUMPDEST SWAP1 POP PUSH2 0x5379 DUP2 PUSH1 0x4 PUSH1 0x0 ADDRESS PUSH20 0xFFFFFFFFFFFFFFFFFFFFFFFFFFFFFFFFFFFFFFFF AND PUSH20 0xFFFFFFFFFFFFFFFFFFFFFFFFFFFFFFFFFFFFFFFF AND DUP2 MSTORE PUSH1 0x20 ADD SWAP1 DUP2 MSTORE PUSH1 0x20 ADD PUSH1 0x0 KECCAK256 SLOAD PUSH2 0x3C15 SWAP1 SWAP2 SWAP1 PUSH4 0xFFFFFFFF AND JUMP JUMPDEST PUSH1 0x4 PUSH1 0x0 ADDRESS PUSH20 0xFFFFFFFFFFFFFFFFFFFFFFFFFFFFFFFFFFFFFFFF AND PUSH20 0xFFFFFFFFFFFFFFFFFFFFFFFFFFFFFFFFFFFFFFFF AND DUP2 MSTORE PUSH1 0x20 ADD SWAP1 DUP2 MSTORE PUSH1 0x20 ADD PUSH1 0x0 KECCAK256 DUP2 SWAP1 SSTORE POP PUSH1 0xA PUSH1 0x0 ADDRESS PUSH20 0xFFFFFFFFFFFFFFFFFFFFFFFFFFFFFFFFFFFFFFFF AND PUSH20 0xFFFFFFFFFFFFFFFFFFFFFFFFFFFFFFFFFFFFFFFF AND DUP2 MSTORE PUSH1 0x20 ADD SWAP1 DUP2 MSTORE PUSH1 0x20 ADD PUSH1 0x0 KECCAK256 PUSH1 0x0 SWAP1 SLOAD SWAP1 PUSH2 0x100 EXP SWAP1 DIV PUSH1 0xFF AND ISZERO PUSH2 0x54A4 JUMPI PUSH2 0x5460 DUP4 PUSH1 0x5 PUSH1 0x0 ADDRESS PUSH20 0xFFFFFFFFFFFFFFFFFFFFFFFFFFFFFFFFFFFFFFFF AND PUSH20 0xFFFFFFFFFFFFFFFFFFFFFFFFFFFFFFFFFFFFFFFF AND DUP2 MSTORE PUSH1 0x20 ADD SWAP1 DUP2 MSTORE PUSH1 0x20 ADD PUSH1 0x0 KECCAK256 SLOAD PUSH2 0x3C15 SWAP1 SWAP2 SWAP1 PUSH4 0xFFFFFFFF AND JUMP JUMPDEST PUSH1 0x5 PUSH1 0x0 ADDRESS PUSH20 0xFFFFFFFFFFFFFFFFFFFFFFFFFFFFFFFFFFFFFFFF AND PUSH20 0xFFFFFFFFFFFFFFFFFFFFFFFFFFFFFFFFFFFFFFFF AND DUP2 MSTORE PUSH1 0x20 ADD SWAP1 DUP2 MSTORE PUSH1 0x20 ADD PUSH1 0x0 KECCAK256 DUP2 SWAP1 SSTORE POP JUMPDEST POP POP POP JUMP JUMPDEST PUSH2 0x54BE DUP3 PUSH1 0xD SLOAD PUSH2 0x3CF9 SWAP1 SWAP2 SWAP1 PUSH4 0xFFFFFFFF AND JUMP JUMPDEST PUSH1 0xD DUP2 SWAP1 SSTORE POP PUSH2 0x54D9 DUP2 PUSH1 0xE SLOAD PUSH2 0x3C15 SWAP1 SWAP2 SWAP1 PUSH4 0xFFFFFFFF AND JUMP JUMPDEST PUSH1 0xE DUP2 SWAP1 SSTORE POP POP POP JUMP INVALID GASLIMIT MSTORE NUMBER ORIGIN ADDRESS GASPRICE KECCAK256 PUSH21 0x72616E7366657220746F20746865207A65726F2061 PUSH5 0x6472657373 COINBASE PUSH14 0x6F756E74206D757374206265206C PUSH6 0x737320746861 PUSH15 0x20746F74616C207265666C65637469 PUSH16 0x6E734F776E61626C653A206E6577206F PUSH24 0x6E657220697320746865207A65726F206164647265737345 MSTORE NUMBER ORIGIN ADDRESS GASPRICE KECCAK256 PUSH2 0x7070 PUSH19 0x6F766520746F20746865207A65726F20616464 PUSH19 0x657373536166654D6174683A206D756C746970 PUSH13 0x69636174696F6E206F76657266 PUSH13 0x6F7745524332303A207472616E PUSH20 0x66657220616D6F756E7420657863656564732061 PUSH13 0x6C6F77616E63655472616E7366 PUSH6 0x7220616D6F75 PUSH15 0x74206D757374206265206772656174 PUSH6 0x72207468616E KECCAK256 PUSH27 0x65726F45524332303A207472616E736665722066726F6D20746865 KECCAK256 PUSH27 0x65726F206164647265737345524332303A20617070726F76652066 PUSH19 0x6F6D20746865207A65726F2061646472657373 GASLIMIT PUSH25 0x636C75646564206164647265737365732063616E6E6F742063 PUSH2 0x6C6C KECCAK256 PUSH21 0x6869732066756E6374696F6E45524332303A206465 PUSH4 0x72656173 PUSH6 0x6420616C6C6F PUSH24 0x616E63652062656C6F77207A65726FA26469706673582212 KECCAK256 PUSH30 0xA69CA7104FDB784D1F3176DE9C2A1402D9FFE454E52EC33CAC11B0C00DDA 0x23 PUSH5 0x736F6C6343 STOP MOD 0xC STOP CALLER "
				},
				"gasEstimates": {
					"creation": {
						"codeDepositCost": "4440400",
						"executionCost": "infinite",
						"totalCost": "infinite"
					},
					"external": {
						"_amnestySniper(address)": "infinite",
						"_liquidityFee()": "1095",
						"_removeSniper(address)": "64988",
						"_taxFee()": "1117",
						"allowance(address,address)": "1387",
						"approve(address,uint256)": "infinite",
						"balanceOf(address)": "infinite",
						"deadAddress()": "infinite",
						"decimals()": "1189",
						"decreaseAllowance(address,uint256)": "infinite",
						"deliver(uint256)": "infinite",
						"emergencyWithdraw()": "infinite",
						"excludeFromFee(address)": "22138",
						"excludeFromReward(address)": "infinite",
						"getBlockTime()": "257",
						"includeInFee(address)": "22181",
						"includeInReward(address)": "infinite",
						"increaseAllowance(address,uint256)": "infinite",
						"isExcludedFromFee(address)": "1284",
						"isExcludedFromReward(address)": "1305",
						"isRemovedSniper(address)": "1306",
						"marketingAddress()": "1136",
						"name()": "infinite",
						"openTrading()": "42109",
						"owner()": "1144",
						"reflectionFromToken(uint256,bool)": "infinite",
						"renounceOwnership()": "24425",
						"setFeeRate(uint256)": "21233",
						"setLiquidityFeePercent(uint256)": "21255",
						"setMarketingAddress(address)": "22136",
						"setTaxFeePercent(uint256)": "21191",
						"symbol()": "infinite",
						"tokenFromReflection(uint256)": "infinite",
						"totalFees()": "1126",
						"totalSupply()": "1059",
						"transfer(address,uint256)": "infinite",
						"transferFrom(address,address,uint256)": "infinite",
						"transferOwnership(address)": "infinite",
						"uniswapV2Pair()": "1158",
						"uniswapV2Router()": "1182"
					},
					"internal": {
						"_approve(address,address,uint256)": "infinite",
						"_getCurrentSupply()": "infinite",
						"_getRValues(uint256,uint256,uint256,uint256)": "infinite",
						"_getRate()": "infinite",
						"_getTValues(uint256)": "infinite",
						"_getValues(uint256)": "infinite",
						"_isContract(address)": "infinite",
						"_reflectFee(uint256,uint256)": "infinite",
						"_takeLiquidity(uint256)": "infinite",
						"_tokenTransfer(address,address,uint256,bool)": "infinite",
						"_transfer(address,address,uint256)": "infinite",
						"_transferBothExcluded(address,address,uint256)": "infinite",
						"_transferFromExcluded(address,address,uint256)": "infinite",
						"_transferStandard(address,address,uint256)": "infinite",
						"_transferToExcluded(address,address,uint256)": "infinite",
						"addLiquidity(uint256,uint256)": "infinite",
						"calculateLiquidityFee(uint256)": "infinite",
						"calculateTaxFee(uint256)": "infinite",
						"removeAllFee()": "53323",
						"restoreAllFee()": "41637",
						"sendETHToFee(uint256)": "infinite",
						"swapTokens(uint256)": "infinite",
						"swapTokensForEth(uint256)": "infinite",
						"transferToAddressETH(address payable,uint256)": "infinite"
					}
				},
				"methodIdentifiers": {
					"_amnestySniper(address)": "362a3c5d",
					"_liquidityFee()": "6bc87c3a",
					"_removeSniper(address)": "f375b253",
					"_taxFee()": "3b124fe7",
					"allowance(address,address)": "dd62ed3e",
					"approve(address,uint256)": "095ea7b3",
					"balanceOf(address)": "70a08231",
					"deadAddress()": "27c8f835",
					"decimals()": "313ce567",
					"decreaseAllowance(address,uint256)": "a457c2d7",
					"deliver(uint256)": "3bd5d173",
					"emergencyWithdraw()": "db2e21bc",
					"excludeFromFee(address)": "437823ec",
					"excludeFromReward(address)": "52390c02",
					"getBlockTime()": "87ceff09",
					"includeInFee(address)": "ea2f0b37",
					"includeInReward(address)": "3685d419",
					"increaseAllowance(address,uint256)": "39509351",
					"isExcludedFromFee(address)": "5342acb4",
					"isExcludedFromReward(address)": "88f82020",
					"isRemovedSniper(address)": "610d5b19",
					"marketingAddress()": "a5ece941",
					"name()": "06fdde03",
					"openTrading()": "c9567bf9",
					"owner()": "8da5cb5b",
					"reflectionFromToken(uint256,bool)": "4549b039",
					"renounceOwnership()": "715018a6",
					"setFeeRate(uint256)": "45596e2e",
					"setLiquidityFeePercent(uint256)": "8ee88c53",
					"setMarketingAddress(address)": "906e9dd0",
					"setTaxFeePercent(uint256)": "061c82d0",
					"symbol()": "95d89b41",
					"tokenFromReflection(uint256)": "2d838119",
					"totalFees()": "13114a9d",
					"totalSupply()": "18160ddd",
					"transfer(address,uint256)": "a9059cbb",
					"transferFrom(address,address,uint256)": "23b872dd",
					"transferOwnership(address)": "f2fde38b",
					"uniswapV2Pair()": "49bd5a5e",
					"uniswapV2Router()": "1694505e"
				}
			},
			"storageLayout": {
				"storage": [
					{
						"astId": 2584,
						"contract": "contracts/Token.sol:CronicShiba",
						"label": "_owner",
						"offset": 0,
						"slot": "0",
						"type": "t_address"
					},
					{
						"astId": 2586,
						"contract": "contracts/Token.sol:CronicShiba",
						"label": "_previousOwner",
						"offset": 0,
						"slot": "1",
						"type": "t_address"
					},
					{
						"astId": 2588,
						"contract": "contracts/Token.sol:CronicShiba",
						"label": "_lockTime",
						"offset": 0,
						"slot": "2",
						"type": "t_uint256"
					},
					{
						"astId": 20,
						"contract": "contracts/Token.sol:CronicShiba",
						"label": "marketingAddress",
						"offset": 0,
						"slot": "3",
						"type": "t_address_payable"
					},
					{
						"astId": 27,
						"contract": "contracts/Token.sol:CronicShiba",
						"label": "_rOwned",
						"offset": 0,
						"slot": "4",
						"type": "t_mapping(t_address,t_uint256)"
					},
					{
						"astId": 31,
						"contract": "contracts/Token.sol:CronicShiba",
						"label": "_tOwned",
						"offset": 0,
						"slot": "5",
						"type": "t_mapping(t_address,t_uint256)"
					},
					{
						"astId": 37,
						"contract": "contracts/Token.sol:CronicShiba",
						"label": "_allowances",
						"offset": 0,
						"slot": "6",
						"type": "t_mapping(t_address,t_mapping(t_address,t_uint256))"
					},
					{
						"astId": 41,
						"contract": "contracts/Token.sol:CronicShiba",
						"label": "_isSniper",
						"offset": 0,
						"slot": "7",
						"type": "t_mapping(t_address,t_bool)"
					},
					{
						"astId": 44,
						"contract": "contracts/Token.sol:CronicShiba",
						"label": "_confirmedSnipers",
						"offset": 0,
						"slot": "8",
						"type": "t_array(t_address)dyn_storage"
					},
					{
						"astId": 48,
						"contract": "contracts/Token.sol:CronicShiba",
						"label": "_isExcludedFromFee",
						"offset": 0,
						"slot": "9",
						"type": "t_mapping(t_address,t_bool)"
					},
					{
						"astId": 52,
						"contract": "contracts/Token.sol:CronicShiba",
						"label": "_isExcluded",
						"offset": 0,
						"slot": "10",
						"type": "t_mapping(t_address,t_bool)"
					},
					{
						"astId": 55,
						"contract": "contracts/Token.sol:CronicShiba",
						"label": "_excluded",
						"offset": 0,
						"slot": "11",
						"type": "t_array(t_address)dyn_storage"
					},
					{
						"astId": 69,
						"contract": "contracts/Token.sol:CronicShiba",
						"label": "_tTotal",
						"offset": 0,
						"slot": "12",
						"type": "t_uint256"
					},
					{
						"astId": 78,
						"contract": "contracts/Token.sol:CronicShiba",
						"label": "_rTotal",
						"offset": 0,
						"slot": "13",
						"type": "t_uint256"
					},
					{
						"astId": 80,
						"contract": "contracts/Token.sol:CronicShiba",
						"label": "_tFeeTotal",
						"offset": 0,
						"slot": "14",
						"type": "t_uint256"
					},
					{
						"astId": 83,
						"contract": "contracts/Token.sol:CronicShiba",
						"label": "_name",
						"offset": 0,
						"slot": "15",
						"type": "t_string_storage"
					},
					{
						"astId": 86,
						"contract": "contracts/Token.sol:CronicShiba",
						"label": "_symbol",
						"offset": 0,
						"slot": "16",
						"type": "t_string_storage"
					},
					{
						"astId": 89,
						"contract": "contracts/Token.sol:CronicShiba",
						"label": "_decimals",
						"offset": 0,
						"slot": "17",
						"type": "t_uint8"
					},
					{
						"astId": 92,
						"contract": "contracts/Token.sol:CronicShiba",
						"label": "_taxFee",
						"offset": 0,
						"slot": "18",
						"type": "t_uint256"
					},
					{
						"astId": 95,
						"contract": "contracts/Token.sol:CronicShiba",
						"label": "_previousTaxFee",
						"offset": 0,
						"slot": "19",
						"type": "t_uint256"
					},
					{
						"astId": 98,
						"contract": "contracts/Token.sol:CronicShiba",
						"label": "_liquidityFee",
						"offset": 0,
						"slot": "20",
						"type": "t_uint256"
					},
					{
						"astId": 101,
						"contract": "contracts/Token.sol:CronicShiba",
						"label": "_previousLiquidityFee",
						"offset": 0,
						"slot": "21",
						"type": "t_uint256"
					},
					{
						"astId": 104,
						"contract": "contracts/Token.sol:CronicShiba",
						"label": "_feeRate",
						"offset": 0,
						"slot": "22",
						"type": "t_uint256"
					},
					{
						"astId": 106,
						"contract": "contracts/Token.sol:CronicShiba",
						"label": "launchTime",
						"offset": 0,
						"slot": "23",
						"type": "t_uint256"
					},
					{
						"astId": 108,
						"contract": "contracts/Token.sol:CronicShiba",
						"label": "uniswapV2Router",
						"offset": 0,
						"slot": "24",
						"type": "t_contract(IUniswapV2Router02)3361"
					},
					{
						"astId": 110,
						"contract": "contracts/Token.sol:CronicShiba",
						"label": "uniswapV2Pair",
						"offset": 0,
						"slot": "25",
						"type": "t_address"
					},
					{
						"astId": 112,
						"contract": "contracts/Token.sol:CronicShiba",
						"label": "inSwapAndLiquify",
						"offset": 20,
						"slot": "25",
						"type": "t_bool"
					},
					{
						"astId": 115,
						"contract": "contracts/Token.sol:CronicShiba",
						"label": "tradingOpen",
						"offset": 21,
						"slot": "25",
						"type": "t_bool"
					}
				],
				"types": {
					"t_address": {
						"encoding": "inplace",
						"label": "address",
						"numberOfBytes": "20"
					},
					"t_address_payable": {
						"encoding": "inplace",
						"label": "address payable",
						"numberOfBytes": "20"
					},
					"t_array(t_address)dyn_storage": {
						"base": "t_address",
						"encoding": "dynamic_array",
						"label": "address[]",
						"numberOfBytes": "32"
					},
					"t_bool": {
						"encoding": "inplace",
						"label": "bool",
						"numberOfBytes": "1"
					},
					"t_contract(IUniswapV2Router02)3361": {
						"encoding": "inplace",
						"label": "contract IUniswapV2Router02",
						"numberOfBytes": "20"
					},
					"t_mapping(t_address,t_bool)": {
						"encoding": "mapping",
						"key": "t_address",
						"label": "mapping(address => bool)",
						"numberOfBytes": "32",
						"value": "t_bool"
					},
					"t_mapping(t_address,t_mapping(t_address,t_uint256))": {
						"encoding": "mapping",
						"key": "t_address",
						"label": "mapping(address => mapping(address => uint256))",
						"numberOfBytes": "32",
						"value": "t_mapping(t_address,t_uint256)"
					},
					"t_mapping(t_address,t_uint256)": {
						"encoding": "mapping",
						"key": "t_address",
						"label": "mapping(address => uint256)",
						"numberOfBytes": "32",
						"value": "t_uint256"
					},
					"t_string_storage": {
						"encoding": "bytes",
						"label": "string",
						"numberOfBytes": "32"
					},
					"t_uint256": {
						"encoding": "inplace",
						"label": "uint256",
						"numberOfBytes": "32"
					},
					"t_uint8": {
						"encoding": "inplace",
						"label": "uint8",
						"numberOfBytes": "1"
					}
				}
			},
			"userdoc": {
				"kind": "user",
				"methods": {},
				"version": 1
			}
		}
	}
}