{
	"contracts/dETHRewardsPools.sol": {
		"dETHRewardPools": {
			"abi": [
				{
					"inputs": [
						{
							"internalType": "address",
							"name": "_deth",
							"type": "address"
						},
						{
							"internalType": "uint256",
							"name": "_poolStartTime",
							"type": "uint256"
						},
						{
							"internalType": "uint16",
							"name": "_depositFeeBP",
							"type": "uint16"
						},
						{
							"internalType": "address",
							"name": "_depositfeeAddress",
							"type": "address"
						}
					],
					"stateMutability": "nonpayable",
					"type": "constructor"
				},
				{
					"anonymous": false,
					"inputs": [
						{
							"indexed": true,
							"internalType": "address",
							"name": "user",
							"type": "address"
						},
						{
							"indexed": true,
							"internalType": "uint256",
							"name": "pid",
							"type": "uint256"
						},
						{
							"indexed": false,
							"internalType": "uint256",
							"name": "amount",
							"type": "uint256"
						}
					],
					"name": "Deposit",
					"type": "event"
				},
				{
					"anonymous": false,
					"inputs": [
						{
							"indexed": true,
							"internalType": "address",
							"name": "user",
							"type": "address"
						},
						{
							"indexed": true,
							"internalType": "uint256",
							"name": "pid",
							"type": "uint256"
						},
						{
							"indexed": false,
							"internalType": "uint256",
							"name": "amount",
							"type": "uint256"
						}
					],
					"name": "EmergencyWithdraw",
					"type": "event"
				},
				{
					"anonymous": false,
					"inputs": [
						{
							"indexed": true,
							"internalType": "address",
							"name": "user",
							"type": "address"
						},
						{
							"indexed": false,
							"internalType": "uint256",
							"name": "amount",
							"type": "uint256"
						}
					],
					"name": "RewardPaid",
					"type": "event"
				},
				{
					"anonymous": false,
					"inputs": [
						{
							"indexed": true,
							"internalType": "address",
							"name": "user",
							"type": "address"
						},
						{
							"indexed": true,
							"internalType": "uint256",
							"name": "pid",
							"type": "uint256"
						},
						{
							"indexed": false,
							"internalType": "uint256",
							"name": "amount",
							"type": "uint256"
						}
					],
					"name": "Withdraw",
					"type": "event"
				},
				{
					"anonymous": false,
					"inputs": [
						{
							"indexed": true,
							"internalType": "uint256",
							"name": "pid",
							"type": "uint256"
						},
						{
							"indexed": false,
							"internalType": "address",
							"name": "lpToken",
							"type": "address"
						},
						{
							"indexed": false,
							"internalType": "uint256",
							"name": "allocPoint",
							"type": "uint256"
						},
						{
							"indexed": false,
							"internalType": "uint256",
							"name": "depositFeeBP",
							"type": "uint256"
						}
					],
					"name": "setPool",
					"type": "event"
				},
				{
					"inputs": [],
					"name": "TOTAL_REWARDS",
					"outputs": [
						{
							"internalType": "uint256",
							"name": "",
							"type": "uint256"
						}
					],
					"stateMutability": "view",
					"type": "function"
				},
				{
					"inputs": [
						{
							"internalType": "uint256",
							"name": "_allocPoint",
							"type": "uint256"
						},
						{
							"internalType": "contract IERC20",
							"name": "_token",
							"type": "address"
						},
						{
							"internalType": "bool",
							"name": "_withUpdate",
							"type": "bool"
						},
						{
							"internalType": "uint16",
							"name": "_depositFeeBP",
							"type": "uint16"
						},
						{
							"internalType": "uint256",
							"name": "_lastRewardTime",
							"type": "uint256"
						}
					],
					"name": "add",
					"outputs": [],
					"stateMutability": "nonpayable",
					"type": "function"
				},
				{
					"inputs": [
						{
							"internalType": "uint256",
							"name": "_pid",
							"type": "uint256"
						},
						{
							"internalType": "uint256",
							"name": "_amount",
							"type": "uint256"
						}
					],
					"name": "deposit",
					"outputs": [],
					"stateMutability": "nonpayable",
					"type": "function"
				},
				{
					"inputs": [],
					"name": "deth",
					"outputs": [
						{
							"internalType": "contract IERC20",
							"name": "",
							"type": "address"
						}
					],
					"stateMutability": "view",
					"type": "function"
				},
				{
					"inputs": [],
					"name": "dethPerSecond",
					"outputs": [
						{
							"internalType": "uint256",
							"name": "",
							"type": "uint256"
						}
					],
					"stateMutability": "view",
					"type": "function"
				},
				{
					"inputs": [
						{
							"internalType": "uint256",
							"name": "_pid",
							"type": "uint256"
						}
					],
					"name": "emergencyWithdraw",
					"outputs": [],
					"stateMutability": "nonpayable",
					"type": "function"
				},
				{
					"inputs": [],
					"name": "feeAddress",
					"outputs": [
						{
							"internalType": "address",
							"name": "",
							"type": "address"
						}
					],
					"stateMutability": "view",
					"type": "function"
				},
				{
					"inputs": [
						{
							"internalType": "uint256",
							"name": "_fromTime",
							"type": "uint256"
						},
						{
							"internalType": "uint256",
							"name": "_toTime",
							"type": "uint256"
						}
					],
					"name": "getGeneratedReward",
					"outputs": [
						{
							"internalType": "uint256",
							"name": "",
							"type": "uint256"
						}
					],
					"stateMutability": "view",
					"type": "function"
				},
				{
					"inputs": [
						{
							"internalType": "contract IERC20",
							"name": "_token",
							"type": "address"
						},
						{
							"internalType": "uint256",
							"name": "amount",
							"type": "uint256"
						},
						{
							"internalType": "address",
							"name": "to",
							"type": "address"
						}
					],
					"name": "governanceRecoverUnsupported",
					"outputs": [],
					"stateMutability": "nonpayable",
					"type": "function"
				},
				{
					"inputs": [],
					"name": "massUpdatePools",
					"outputs": [],
					"stateMutability": "nonpayable",
					"type": "function"
				},
				{
					"inputs": [],
					"name": "operator",
					"outputs": [
						{
							"internalType": "address",
							"name": "",
							"type": "address"
						}
					],
					"stateMutability": "view",
					"type": "function"
				},
				{
					"inputs": [
						{
							"internalType": "uint256",
							"name": "_pid",
							"type": "uint256"
						},
						{
							"internalType": "address",
							"name": "_user",
							"type": "address"
						}
					],
					"name": "pendingdETH",
					"outputs": [
						{
							"internalType": "uint256",
							"name": "",
							"type": "uint256"
						}
					],
					"stateMutability": "view",
					"type": "function"
				},
				{
					"inputs": [],
					"name": "poolEndTime",
					"outputs": [
						{
							"internalType": "uint256",
							"name": "",
							"type": "uint256"
						}
					],
					"stateMutability": "view",
					"type": "function"
				},
				{
					"inputs": [
						{
							"internalType": "uint256",
							"name": "",
							"type": "uint256"
						}
					],
					"name": "poolInfo",
					"outputs": [
						{
							"internalType": "contract IERC20",
							"name": "token",
							"type": "address"
						},
						{
							"internalType": "uint256",
							"name": "allocPoint",
							"type": "uint256"
						},
						{
							"internalType": "uint256",
							"name": "lastRewardTime",
							"type": "uint256"
						},
						{
							"internalType": "uint256",
							"name": "accDETHPerShare",
							"type": "uint256"
						},
						{
							"internalType": "uint16",
							"name": "depositFeeBP",
							"type": "uint16"
						},
						{
							"internalType": "bool",
							"name": "isStarted",
							"type": "bool"
						}
					],
					"stateMutability": "view",
					"type": "function"
				},
				{
					"inputs": [],
					"name": "poolStartTime",
					"outputs": [
						{
							"internalType": "uint256",
							"name": "",
							"type": "uint256"
						}
					],
					"stateMutability": "view",
					"type": "function"
				},
				{
					"inputs": [],
					"name": "runningTime",
					"outputs": [
						{
							"internalType": "uint256",
							"name": "",
							"type": "uint256"
						}
					],
					"stateMutability": "view",
					"type": "function"
				},
				{
					"inputs": [
						{
							"internalType": "uint256",
							"name": "_pid",
							"type": "uint256"
						},
						{
							"internalType": "uint256",
							"name": "_allocPoint",
							"type": "uint256"
						},
						{
							"internalType": "uint16",
							"name": "_depositFeeBP",
							"type": "uint16"
						}
					],
					"name": "set",
					"outputs": [],
					"stateMutability": "nonpayable",
					"type": "function"
				},
				{
					"inputs": [
						{
							"internalType": "uint16",
							"name": "_globalDepositFeeBP",
							"type": "uint16"
						}
					],
					"name": "setGlobalDepositFee",
					"outputs": [],
					"stateMutability": "nonpayable",
					"type": "function"
				},
				{
					"inputs": [
						{
							"internalType": "address",
							"name": "_operator",
							"type": "address"
						}
					],
					"name": "setOperator",
					"outputs": [],
					"stateMutability": "nonpayable",
					"type": "function"
				},
				{
					"inputs": [],
					"name": "totalAllocPoint",
					"outputs": [
						{
							"internalType": "uint256",
							"name": "",
							"type": "uint256"
						}
					],
					"stateMutability": "view",
					"type": "function"
				},
				{
					"inputs": [
						{
							"internalType": "uint256",
							"name": "_pid",
							"type": "uint256"
						}
					],
					"name": "updatePool",
					"outputs": [],
					"stateMutability": "nonpayable",
					"type": "function"
				},
				{
					"inputs": [
						{
							"internalType": "uint256",
							"name": "",
							"type": "uint256"
						},
						{
							"internalType": "address",
							"name": "",
							"type": "address"
						}
					],
					"name": "userInfo",
					"outputs": [
						{
							"internalType": "uint256",
							"name": "amount",
							"type": "uint256"
						},
						{
							"internalType": "uint256",
							"name": "rewardDebt",
							"type": "uint256"
						}
					],
					"stateMutability": "view",
					"type": "function"
				},
				{
					"inputs": [
						{
							"internalType": "uint256",
							"name": "_pid",
							"type": "uint256"
						},
						{
							"internalType": "uint256",
							"name": "_amount",
							"type": "uint256"
						}
					],
					"name": "withdraw",
					"outputs": [],
					"stateMutability": "nonpayable",
					"type": "function"
				}
			],
			"devdoc": {
				"kind": "dev",
				"methods": {},
				"version": 1
			},
			"evm": {
				"assembly": "    /* \"contracts/dETHRewardsPools.sol\":400:12235  contract dETHRewardPools {... */\n  mstore(0x40, 0x80)\n    /* \"contracts/dETHRewardsPools.sol\":1596:1597  0 */\n  0x00\n    /* \"contracts/dETHRewardsPools.sol\":1563:1597  uint256 public totalAllocPoint = 0 */\n  0x05\n  sstore\n    /* \"contracts/dETHRewardsPools.sol\":1809:1827  0.0035225443 ether */\n  0x0c83bc41b50300\n    /* \"contracts/dETHRewardsPools.sol\":1778:1827  uint256 public dethPerSecond = 0.0035225443 ether */\n  0x08\n  sstore\n    /* \"contracts/dETHRewardsPools.sol\":1904:1912  115 days */\n  0x979c80\n    /* \"contracts/dETHRewardsPools.sol\":1875:1912  uint256 public runningTime = 115 days */\n  0x09\n  sstore\n    /* \"contracts/dETHRewardsPools.sol\":2448:2931  constructor(... */\n  callvalue\n  dup1\n  iszero\n  tag_1\n  jumpi\n  0x00\n  dup1\n  revert\ntag_1:\n  pop\n  mload(0x40)\n  sub(codesize, bytecodeSize)\n  dup1\n  bytecodeSize\n  dup4\n  codecopy\n  dup2\n  dup2\n  add\n  0x40\n  mstore\n  dup2\n  add\n  swap1\n  tag_2\n  swap2\n  swap1\n  tag_3\n  jump\t// in\ntag_2:\n    /* \"contracts/dETHRewardsPools.sol\":2636:2650  _poolStartTime */\n  dup3\n    /* \"contracts/dETHRewardsPools.sol\":2618:2633  block.timestamp */\n  timestamp\n    /* \"contracts/dETHRewardsPools.sol\":2618:2650  block.timestamp < _poolStartTime */\n  lt\n    /* \"contracts/dETHRewardsPools.sol\":2610:2659  require(block.timestamp < _poolStartTime, \"late\") */\n  tag_6\n  jumpi\n  mload(0x40)\n  0x08c379a000000000000000000000000000000000000000000000000000000000\n  dup2\n  mstore\n  0x04\n  add\n  tag_7\n  swap1\n  tag_8\n  jump\t// in\ntag_7:\n  mload(0x40)\n  dup1\n  swap2\n  sub\n  swap1\n  revert\ntag_6:\n    /* \"contracts/dETHRewardsPools.sol\":2691:2692  0 */\n  0x00\n    /* \"contracts/dETHRewardsPools.sol\":2674:2693  _deth != address(0) */\n  0xffffffffffffffffffffffffffffffffffffffff\n  and\n    /* \"contracts/dETHRewardsPools.sol\":2674:2679  _deth */\n  dup5\n    /* \"contracts/dETHRewardsPools.sol\":2674:2693  _deth != address(0) */\n  0xffffffffffffffffffffffffffffffffffffffff\n  and\n  eq\n    /* \"contracts/dETHRewardsPools.sol\":2670:2715  if (_deth != address(0)) deth = IERC20(_deth) */\n  tag_9\n  jumpi\n    /* \"contracts/dETHRewardsPools.sol\":2709:2714  _deth */\n  dup4\n    /* \"contracts/dETHRewardsPools.sol\":2695:2699  deth */\n  0x01\n  0x00\n    /* \"contracts/dETHRewardsPools.sol\":2695:2715  deth = IERC20(_deth) */\n  0x0100\n  exp\n  dup2\n  sload\n  dup2\n  0xffffffffffffffffffffffffffffffffffffffff\n  mul\n  not\n  and\n  swap1\n  dup4\n  0xffffffffffffffffffffffffffffffffffffffff\n  and\n  mul\n  or\n  swap1\n  sstore\n  pop\n    /* \"contracts/dETHRewardsPools.sol\":2670:2715  if (_deth != address(0)) deth = IERC20(_deth) */\ntag_9:\n    /* \"contracts/dETHRewardsPools.sol\":2742:2756  _poolStartTime */\n  dup3\n    /* \"contracts/dETHRewardsPools.sol\":2726:2739  poolStartTime */\n  0x06\n    /* \"contracts/dETHRewardsPools.sol\":2726:2756  poolStartTime = _poolStartTime */\n  dup2\n  swap1\n  sstore\n  pop\n    /* \"contracts/dETHRewardsPools.sol\":2797:2808  runningTime */\n  sload(0x09)\n    /* \"contracts/dETHRewardsPools.sol\":2781:2794  poolStartTime */\n  sload(0x06)\n    /* \"contracts/dETHRewardsPools.sol\":2781:2808  poolStartTime + runningTime */\n  tag_10\n  swap2\n  swap1\n  tag_11\n  jump\t// in\ntag_10:\n    /* \"contracts/dETHRewardsPools.sol\":2767:2778  poolEndTime */\n  0x07\n    /* \"contracts/dETHRewardsPools.sol\":2767:2808  poolEndTime = poolStartTime + runningTime */\n  dup2\n  swap1\n  sstore\n  pop\n    /* \"contracts/dETHRewardsPools.sol\":2834:2847  _depositFeeBP */\n  dup2\n    /* \"contracts/dETHRewardsPools.sol\":2819:2831  depositFeeBP */\n  0x0a\n  0x00\n    /* \"contracts/dETHRewardsPools.sol\":2819:2847  depositFeeBP = _depositFeeBP */\n  0x0100\n  exp\n  dup2\n  sload\n  dup2\n  0xffff\n  mul\n  not\n  and\n  swap1\n  dup4\n  0xffff\n  and\n  mul\n  or\n  swap1\n  sstore\n  pop\n    /* \"contracts/dETHRewardsPools.sol\":2873:2891  _depositfeeAddress */\n  dup1\n    /* \"contracts/dETHRewardsPools.sol\":2860:2870  feeAddress */\n  0x02\n  0x00\n    /* \"contracts/dETHRewardsPools.sol\":2860:2891  feeAddress = _depositfeeAddress */\n  0x0100\n  exp\n  dup2\n  sload\n  dup2\n  0xffffffffffffffffffffffffffffffffffffffff\n  mul\n  not\n  and\n  swap1\n  dup4\n  0xffffffffffffffffffffffffffffffffffffffff\n  and\n  mul\n  or\n  swap1\n  sstore\n  pop\n    /* \"contracts/dETHRewardsPools.sol\":2913:2923  msg.sender */\n  caller\n    /* \"contracts/dETHRewardsPools.sol\":2902:2910  operator */\n  0x00\n  dup1\n    /* \"contracts/dETHRewardsPools.sol\":2902:2923  operator = msg.sender */\n  0x0100\n  exp\n  dup2\n  sload\n  dup2\n  0xffffffffffffffffffffffffffffffffffffffff\n  mul\n  not\n  and\n  swap1\n  dup4\n  0xffffffffffffffffffffffffffffffffffffffff\n  and\n  mul\n  or\n  swap1\n  sstore\n  pop\n    /* \"contracts/dETHRewardsPools.sol\":2448:2931  constructor(... */\n  pop\n  pop\n  pop\n  pop\n    /* \"contracts/dETHRewardsPools.sol\":400:12235  contract dETHRewardPools {... */\n  jump(tag_12)\n    /* \"#utility.yul\":88:205   */\ntag_14:\n    /* \"#utility.yul\":197:198   */\n  0x00\n    /* \"#utility.yul\":194:195   */\n  dup1\n    /* \"#utility.yul\":187:199   */\n  revert\n    /* \"#utility.yul\":334:460   */\ntag_16:\n    /* \"#utility.yul\":371:378   */\n  0x00\n    /* \"#utility.yul\":411:453   */\n  0xffffffffffffffffffffffffffffffffffffffff\n    /* \"#utility.yul\":404:409   */\n  dup3\n    /* \"#utility.yul\":400:454   */\n  and\n    /* \"#utility.yul\":389:454   */\n  swap1\n  pop\n    /* \"#utility.yul\":334:460   */\n  swap2\n  swap1\n  pop\n  jump\t// out\n    /* \"#utility.yul\":466:562   */\ntag_17:\n    /* \"#utility.yul\":503:510   */\n  0x00\n    /* \"#utility.yul\":532:556   */\n  tag_36\n    /* \"#utility.yul\":550:555   */\n  dup3\n    /* \"#utility.yul\":532:556   */\n  tag_16\n  jump\t// in\ntag_36:\n    /* \"#utility.yul\":521:556   */\n  swap1\n  pop\n    /* \"#utility.yul\":466:562   */\n  swap2\n  swap1\n  pop\n  jump\t// out\n    /* \"#utility.yul\":568:690   */\ntag_18:\n    /* \"#utility.yul\":641:665   */\n  tag_38\n    /* \"#utility.yul\":659:664   */\n  dup2\n    /* \"#utility.yul\":641:665   */\n  tag_17\n  jump\t// in\ntag_38:\n    /* \"#utility.yul\":634:639   */\n  dup2\n    /* \"#utility.yul\":631:666   */\n  eq\n    /* \"#utility.yul\":621:684   */\n  tag_39\n  jumpi\n    /* \"#utility.yul\":680:681   */\n  0x00\n    /* \"#utility.yul\":677:678   */\n  dup1\n    /* \"#utility.yul\":670:682   */\n  revert\n    /* \"#utility.yul\":621:684   */\ntag_39:\n    /* \"#utility.yul\":568:690   */\n  pop\n  jump\t// out\n    /* \"#utility.yul\":696:839   */\ntag_19:\n    /* \"#utility.yul\":753:758   */\n  0x00\n    /* \"#utility.yul\":784:790   */\n  dup2\n    /* \"#utility.yul\":778:791   */\n  mload\n    /* \"#utility.yul\":769:791   */\n  swap1\n  pop\n    /* \"#utility.yul\":800:833   */\n  tag_41\n    /* \"#utility.yul\":827:832   */\n  dup2\n    /* \"#utility.yul\":800:833   */\n  tag_18\n  jump\t// in\ntag_41:\n    /* \"#utility.yul\":696:839   */\n  swap3\n  swap2\n  pop\n  pop\n  jump\t// out\n    /* \"#utility.yul\":845:922   */\ntag_20:\n    /* \"#utility.yul\":882:889   */\n  0x00\n    /* \"#utility.yul\":911:916   */\n  dup2\n    /* \"#utility.yul\":900:916   */\n  swap1\n  pop\n    /* \"#utility.yul\":845:922   */\n  swap2\n  swap1\n  pop\n  jump\t// out\n    /* \"#utility.yul\":928:1050   */\ntag_21:\n    /* \"#utility.yul\":1001:1025   */\n  tag_44\n    /* \"#utility.yul\":1019:1024   */\n  dup2\n    /* \"#utility.yul\":1001:1025   */\n  tag_20\n  jump\t// in\ntag_44:\n    /* \"#utility.yul\":994:999   */\n  dup2\n    /* \"#utility.yul\":991:1026   */\n  eq\n    /* \"#utility.yul\":981:1044   */\n  tag_45\n  jumpi\n    /* \"#utility.yul\":1040:1041   */\n  0x00\n    /* \"#utility.yul\":1037:1038   */\n  dup1\n    /* \"#utility.yul\":1030:1042   */\n  revert\n    /* \"#utility.yul\":981:1044   */\ntag_45:\n    /* \"#utility.yul\":928:1050   */\n  pop\n  jump\t// out\n    /* \"#utility.yul\":1056:1199   */\ntag_22:\n    /* \"#utility.yul\":1113:1118   */\n  0x00\n    /* \"#utility.yul\":1144:1150   */\n  dup2\n    /* \"#utility.yul\":1138:1151   */\n  mload\n    /* \"#utility.yul\":1129:1151   */\n  swap1\n  pop\n    /* \"#utility.yul\":1160:1193   */\n  tag_47\n    /* \"#utility.yul\":1187:1192   */\n  dup2\n    /* \"#utility.yul\":1160:1193   */\n  tag_21\n  jump\t// in\ntag_47:\n    /* \"#utility.yul\":1056:1199   */\n  swap3\n  swap2\n  pop\n  pop\n  jump\t// out\n    /* \"#utility.yul\":1205:1294   */\ntag_23:\n    /* \"#utility.yul\":1241:1248   */\n  0x00\n    /* \"#utility.yul\":1281:1287   */\n  0xffff\n    /* \"#utility.yul\":1274:1279   */\n  dup3\n    /* \"#utility.yul\":1270:1288   */\n  and\n    /* \"#utility.yul\":1259:1288   */\n  swap1\n  pop\n    /* \"#utility.yul\":1205:1294   */\n  swap2\n  swap1\n  pop\n  jump\t// out\n    /* \"#utility.yul\":1300:1420   */\ntag_24:\n    /* \"#utility.yul\":1372:1395   */\n  tag_50\n    /* \"#utility.yul\":1389:1394   */\n  dup2\n    /* \"#utility.yul\":1372:1395   */\n  tag_23\n  jump\t// in\ntag_50:\n    /* \"#utility.yul\":1365:1370   */\n  dup2\n    /* \"#utility.yul\":1362:1396   */\n  eq\n    /* \"#utility.yul\":1352:1414   */\n  tag_51\n  jumpi\n    /* \"#utility.yul\":1410:1411   */\n  0x00\n    /* \"#utility.yul\":1407:1408   */\n  dup1\n    /* \"#utility.yul\":1400:1412   */\n  revert\n    /* \"#utility.yul\":1352:1414   */\ntag_51:\n    /* \"#utility.yul\":1300:1420   */\n  pop\n  jump\t// out\n    /* \"#utility.yul\":1426:1567   */\ntag_25:\n    /* \"#utility.yul\":1482:1487   */\n  0x00\n    /* \"#utility.yul\":1513:1519   */\n  dup2\n    /* \"#utility.yul\":1507:1520   */\n  mload\n    /* \"#utility.yul\":1498:1520   */\n  swap1\n  pop\n    /* \"#utility.yul\":1529:1561   */\n  tag_53\n    /* \"#utility.yul\":1555:1560   */\n  dup2\n    /* \"#utility.yul\":1529:1561   */\n  tag_24\n  jump\t// in\ntag_53:\n    /* \"#utility.yul\":1426:1567   */\n  swap3\n  swap2\n  pop\n  pop\n  jump\t// out\n    /* \"#utility.yul\":1573:2391   */\ntag_3:\n    /* \"#utility.yul\":1669:1675   */\n  0x00\n    /* \"#utility.yul\":1677:1683   */\n  dup1\n    /* \"#utility.yul\":1685:1691   */\n  0x00\n    /* \"#utility.yul\":1693:1699   */\n  dup1\n    /* \"#utility.yul\":1742:1745   */\n  0x80\n    /* \"#utility.yul\":1730:1739   */\n  dup6\n    /* \"#utility.yul\":1721:1728   */\n  dup8\n    /* \"#utility.yul\":1717:1740   */\n  sub\n    /* \"#utility.yul\":1713:1746   */\n  slt\n    /* \"#utility.yul\":1710:1830   */\n  iszero\n  tag_55\n  jumpi\n    /* \"#utility.yul\":1749:1828   */\n  tag_56\n  tag_14\n  jump\t// in\ntag_56:\n    /* \"#utility.yul\":1710:1830   */\ntag_55:\n    /* \"#utility.yul\":1869:1870   */\n  0x00\n    /* \"#utility.yul\":1894:1958   */\n  tag_57\n    /* \"#utility.yul\":1950:1957   */\n  dup8\n    /* \"#utility.yul\":1941:1947   */\n  dup3\n    /* \"#utility.yul\":1930:1939   */\n  dup9\n    /* \"#utility.yul\":1926:1948   */\n  add\n    /* \"#utility.yul\":1894:1958   */\n  tag_19\n  jump\t// in\ntag_57:\n    /* \"#utility.yul\":1884:1958   */\n  swap5\n  pop\n    /* \"#utility.yul\":1840:1968   */\n  pop\n    /* \"#utility.yul\":2007:2009   */\n  0x20\n    /* \"#utility.yul\":2033:2097   */\n  tag_58\n    /* \"#utility.yul\":2089:2096   */\n  dup8\n    /* \"#utility.yul\":2080:2086   */\n  dup3\n    /* \"#utility.yul\":2069:2078   */\n  dup9\n    /* \"#utility.yul\":2065:2087   */\n  add\n    /* \"#utility.yul\":2033:2097   */\n  tag_22\n  jump\t// in\ntag_58:\n    /* \"#utility.yul\":2023:2097   */\n  swap4\n  pop\n    /* \"#utility.yul\":1978:2107   */\n  pop\n    /* \"#utility.yul\":2146:2148   */\n  0x40\n    /* \"#utility.yul\":2172:2235   */\n  tag_59\n    /* \"#utility.yul\":2227:2234   */\n  dup8\n    /* \"#utility.yul\":2218:2224   */\n  dup3\n    /* \"#utility.yul\":2207:2216   */\n  dup9\n    /* \"#utility.yul\":2203:2225   */\n  add\n    /* \"#utility.yul\":2172:2235   */\n  tag_25\n  jump\t// in\ntag_59:\n    /* \"#utility.yul\":2162:2235   */\n  swap3\n  pop\n    /* \"#utility.yul\":2117:2245   */\n  pop\n    /* \"#utility.yul\":2284:2286   */\n  0x60\n    /* \"#utility.yul\":2310:2374   */\n  tag_60\n    /* \"#utility.yul\":2366:2373   */\n  dup8\n    /* \"#utility.yul\":2357:2363   */\n  dup3\n    /* \"#utility.yul\":2346:2355   */\n  dup9\n    /* \"#utility.yul\":2342:2364   */\n  add\n    /* \"#utility.yul\":2310:2374   */\n  tag_19\n  jump\t// in\ntag_60:\n    /* \"#utility.yul\":2300:2374   */\n  swap2\n  pop\n    /* \"#utility.yul\":2255:2384   */\n  pop\n    /* \"#utility.yul\":1573:2391   */\n  swap3\n  swap6\n  swap2\n  swap5\n  pop\n  swap3\n  pop\n  jump\t// out\n    /* \"#utility.yul\":2397:2566   */\ntag_26:\n    /* \"#utility.yul\":2481:2492   */\n  0x00\n    /* \"#utility.yul\":2515:2521   */\n  dup3\n    /* \"#utility.yul\":2510:2513   */\n  dup3\n    /* \"#utility.yul\":2503:2522   */\n  mstore\n    /* \"#utility.yul\":2555:2559   */\n  0x20\n    /* \"#utility.yul\":2550:2553   */\n  dup3\n    /* \"#utility.yul\":2546:2560   */\n  add\n    /* \"#utility.yul\":2531:2560   */\n  swap1\n  pop\n    /* \"#utility.yul\":2397:2566   */\n  swap3\n  swap2\n  pop\n  pop\n  jump\t// out\n    /* \"#utility.yul\":2572:2726   */\ntag_27:\n    /* \"#utility.yul\":2712:2718   */\n  0x6c61746500000000000000000000000000000000000000000000000000000000\n    /* \"#utility.yul\":2708:2709   */\n  0x00\n    /* \"#utility.yul\":2700:2706   */\n  dup3\n    /* \"#utility.yul\":2696:2710   */\n  add\n    /* \"#utility.yul\":2689:2719   */\n  mstore\n    /* \"#utility.yul\":2572:2726   */\n  pop\n  jump\t// out\n    /* \"#utility.yul\":2732:3097   */\ntag_28:\n    /* \"#utility.yul\":2874:2877   */\n  0x00\n    /* \"#utility.yul\":2895:2961   */\n  tag_64\n    /* \"#utility.yul\":2959:2960   */\n  0x04\n    /* \"#utility.yul\":2954:2957   */\n  dup4\n    /* \"#utility.yul\":2895:2961   */\n  tag_26\n  jump\t// in\ntag_64:\n    /* \"#utility.yul\":2888:2961   */\n  swap2\n  pop\n    /* \"#utility.yul\":2970:3063   */\n  tag_65\n    /* \"#utility.yul\":3059:3062   */\n  dup3\n    /* \"#utility.yul\":2970:3063   */\n  tag_27\n  jump\t// in\ntag_65:\n    /* \"#utility.yul\":3088:3090   */\n  0x20\n    /* \"#utility.yul\":3083:3086   */\n  dup3\n    /* \"#utility.yul\":3079:3091   */\n  add\n    /* \"#utility.yul\":3072:3091   */\n  swap1\n  pop\n    /* \"#utility.yul\":2732:3097   */\n  swap2\n  swap1\n  pop\n  jump\t// out\n    /* \"#utility.yul\":3103:3522   */\ntag_8:\n    /* \"#utility.yul\":3269:3273   */\n  0x00\n    /* \"#utility.yul\":3307:3309   */\n  0x20\n    /* \"#utility.yul\":3296:3305   */\n  dup3\n    /* \"#utility.yul\":3292:3310   */\n  add\n    /* \"#utility.yul\":3284:3310   */\n  swap1\n  pop\n    /* \"#utility.yul\":3356:3365   */\n  dup2\n    /* \"#utility.yul\":3350:3354   */\n  dup2\n    /* \"#utility.yul\":3346:3366   */\n  sub\n    /* \"#utility.yul\":3342:3343   */\n  0x00\n    /* \"#utility.yul\":3331:3340   */\n  dup4\n    /* \"#utility.yul\":3327:3344   */\n  add\n    /* \"#utility.yul\":3320:3367   */\n  mstore\n    /* \"#utility.yul\":3384:3515   */\n  tag_67\n    /* \"#utility.yul\":3510:3514   */\n  dup2\n    /* \"#utility.yul\":3384:3515   */\n  tag_28\n  jump\t// in\ntag_67:\n    /* \"#utility.yul\":3376:3515   */\n  swap1\n  pop\n    /* \"#utility.yul\":3103:3522   */\n  swap2\n  swap1\n  pop\n  jump\t// out\n    /* \"#utility.yul\":3528:3708   */\ntag_29:\n    /* \"#utility.yul\":3576:3653   */\n  0x4e487b7100000000000000000000000000000000000000000000000000000000\n    /* \"#utility.yul\":3573:3574   */\n  0x00\n    /* \"#utility.yul\":3566:3654   */\n  mstore\n    /* \"#utility.yul\":3673:3677   */\n  0x11\n    /* \"#utility.yul\":3670:3671   */\n  0x04\n    /* \"#utility.yul\":3663:3678   */\n  mstore\n    /* \"#utility.yul\":3697:3701   */\n  0x24\n    /* \"#utility.yul\":3694:3695   */\n  0x00\n    /* \"#utility.yul\":3687:3702   */\n  revert\n    /* \"#utility.yul\":3714:3905   */\ntag_11:\n    /* \"#utility.yul\":3754:3757   */\n  0x00\n    /* \"#utility.yul\":3773:3793   */\n  tag_70\n    /* \"#utility.yul\":3791:3792   */\n  dup3\n    /* \"#utility.yul\":3773:3793   */\n  tag_20\n  jump\t// in\ntag_70:\n    /* \"#utility.yul\":3768:3793   */\n  swap2\n  pop\n    /* \"#utility.yul\":3807:3827   */\n  tag_71\n    /* \"#utility.yul\":3825:3826   */\n  dup4\n    /* \"#utility.yul\":3807:3827   */\n  tag_20\n  jump\t// in\ntag_71:\n    /* \"#utility.yul\":3802:3827   */\n  swap3\n  pop\n    /* \"#utility.yul\":3850:3851   */\n  dup3\n    /* \"#utility.yul\":3847:3848   */\n  dup3\n    /* \"#utility.yul\":3843:3852   */\n  add\n    /* \"#utility.yul\":3836:3852   */\n  swap1\n  pop\n    /* \"#utility.yul\":3871:3874   */\n  dup1\n    /* \"#utility.yul\":3868:3869   */\n  dup3\n    /* \"#utility.yul\":3865:3875   */\n  gt\n    /* \"#utility.yul\":3862:3898   */\n  iszero\n  tag_72\n  jumpi\n    /* \"#utility.yul\":3878:3896   */\n  tag_73\n  tag_29\n  jump\t// in\ntag_73:\n    /* \"#utility.yul\":3862:3898   */\ntag_72:\n    /* \"#utility.yul\":3714:3905   */\n  swap3\n  swap2\n  pop\n  pop\n  jump\t// out\n    /* \"contracts/dETHRewardsPools.sol\":400:12235  contract dETHRewardPools {... */\ntag_12:\n  dataSize(sub_0)\n  dup1\n  dataOffset(sub_0)\n  0x00\n  codecopy\n  0x00\n  return\nstop\n\nsub_0: assembly {\n        /* \"contracts/dETHRewardsPools.sol\":400:12235  contract dETHRewardPools {... */\n      mstore(0x40, 0x80)\n      callvalue\n      dup1\n      iszero\n      tag_1\n      jumpi\n      0x00\n      dup1\n      revert\n    tag_1:\n      pop\n      jumpi(tag_2, lt(calldatasize, 0x04))\n      shr(0xe0, calldataload(0x00))\n      dup1\n      0x54575af4\n      gt\n      tag_26\n      jumpi\n      dup1\n      0x943f013d\n      gt\n      tag_27\n      jumpi\n      dup1\n      0x943f013d\n      eq\n      tag_20\n      jumpi\n      dup1\n      0xb3ab15fb\n      eq\n      tag_21\n      jumpi\n      dup1\n      0xd18ccd89\n      eq\n      tag_22\n      jumpi\n      dup1\n      0xdc9e5dea\n      eq\n      tag_23\n      jumpi\n      dup1\n      0xe2bbb158\n      eq\n      tag_24\n      jumpi\n      dup1\n      0xecb1ab54\n      eq\n      tag_25\n      jumpi\n      jump(tag_2)\n    tag_27:\n      dup1\n      0x54575af4\n      eq\n      tag_14\n      jumpi\n      dup1\n      0x570ca735\n      eq\n      tag_15\n      jumpi\n      dup1\n      0x5f96dc11\n      eq\n      tag_16\n      jumpi\n      dup1\n      0x630b5ba1\n      eq\n      tag_17\n      jumpi\n      dup1\n      0x6e271dd5\n      eq\n      tag_18\n      jumpi\n      dup1\n      0x93f1a40b\n      eq\n      tag_19\n      jumpi\n      jump(tag_2)\n    tag_26:\n      dup1\n      0x231f0c6a\n      gt\n      tag_28\n      jumpi\n      dup1\n      0x231f0c6a\n      eq\n      tag_8\n      jumpi\n      dup1\n      0x24bcb38c\n      eq\n      tag_9\n      jumpi\n      dup1\n      0x41275358\n      eq\n      tag_10\n      jumpi\n      dup1\n      0x441a3e70\n      eq\n      tag_11\n      jumpi\n      dup1\n      0x51eb05a6\n      eq\n      tag_12\n      jumpi\n      dup1\n      0x5312ea8e\n      eq\n      tag_13\n      jumpi\n      jump(tag_2)\n    tag_28:\n      dup1\n      0x08bee642\n      eq\n      tag_3\n      jumpi\n      dup1\n      0x09cf6091\n      eq\n      tag_4\n      jumpi\n      dup1\n      0x1526fe27\n      eq\n      tag_5\n      jumpi\n      dup1\n      0x17caf6f1\n      eq\n      tag_6\n      jumpi\n      dup1\n      0x1e8fa23a\n      eq\n      tag_7\n      jumpi\n    tag_2:\n      0x00\n      dup1\n      revert\n        /* \"contracts/dETHRewardsPools.sol\":3417:4731  function add(... */\n    tag_3:\n      tag_29\n      0x04\n      dup1\n      calldatasize\n      sub\n      dup2\n      add\n      swap1\n      tag_30\n      swap2\n      swap1\n      tag_31\n      jump\t// in\n    tag_30:\n      tag_32\n      jump\t// in\n    tag_29:\n      stop\n        /* \"contracts/dETHRewardsPools.sol\":1929:1982  uint256 public constant TOTAL_REWARDS = 4000000 ether */\n    tag_4:\n      tag_33\n      tag_34\n      jump\t// in\n    tag_33:\n      mload(0x40)\n      tag_35\n      swap2\n      swap1\n      tag_36\n      jump\t// in\n    tag_35:\n      mload(0x40)\n      dup1\n      swap2\n      sub\n      swap1\n      return\n        /* \"contracts/dETHRewardsPools.sol\":1318:1344  PoolInfo[] public poolInfo */\n    tag_5:\n      tag_37\n      0x04\n      dup1\n      calldatasize\n      sub\n      dup2\n      add\n      swap1\n      tag_38\n      swap2\n      swap1\n      tag_39\n      jump\t// in\n    tag_38:\n      tag_40\n      jump\t// in\n    tag_37:\n      mload(0x40)\n      tag_41\n      swap7\n      swap6\n      swap5\n      swap4\n      swap3\n      swap2\n      swap1\n      tag_42\n      jump\t// in\n    tag_41:\n      mload(0x40)\n      dup1\n      swap2\n      sub\n      swap1\n      return\n        /* \"contracts/dETHRewardsPools.sol\":1563:1597  uint256 public totalAllocPoint = 0 */\n    tag_6:\n      tag_43\n      tag_44\n      jump\t// in\n    tag_43:\n      mload(0x40)\n      tag_45\n      swap2\n      swap1\n      tag_36\n      jump\t// in\n    tag_45:\n      mload(0x40)\n      dup1\n      swap2\n      sub\n      swap1\n      return\n        /* \"contracts/dETHRewardsPools.sol\":6515:7286  function pendingdETH(uint256 _pid, address _user) external view returns (uint256) {... */\n    tag_7:\n      tag_46\n      0x04\n      dup1\n      calldatasize\n      sub\n      dup2\n      add\n      swap1\n      tag_47\n      swap2\n      swap1\n      tag_48\n      jump\t// in\n    tag_47:\n      tag_49\n      jump\t// in\n    tag_46:\n      mload(0x40)\n      tag_50\n      swap2\n      swap1\n      tag_36\n      jump\t// in\n    tag_50:\n      mload(0x40)\n      dup1\n      swap2\n      sub\n      swap1\n      return\n        /* \"contracts/dETHRewardsPools.sol\":5798:6451  function getGeneratedReward(uint256 _fromTime, uint256 _toTime) public view returns (uint256) {... */\n    tag_8:\n      tag_51\n      0x04\n      dup1\n      calldatasize\n      sub\n      dup2\n      add\n      swap1\n      tag_52\n      swap2\n      swap1\n      tag_53\n      jump\t// in\n    tag_52:\n      tag_54\n      jump\t// in\n    tag_51:\n      mload(0x40)\n      tag_55\n      swap2\n      swap1\n      tag_36\n      jump\t// in\n    tag_55:\n      mload(0x40)\n      dup1\n      swap2\n      sub\n      swap1\n      return\n        /* \"contracts/dETHRewardsPools.sol\":4828:5292  function set(uint256 _pid, uint256 _allocPoint, uint16 _depositFeeBP) public onlyOperator {... */\n    tag_9:\n      tag_56\n      0x04\n      dup1\n      calldatasize\n      sub\n      dup2\n      add\n      swap1\n      tag_57\n      swap2\n      swap1\n      tag_58\n      jump\t// in\n    tag_57:\n      tag_59\n      jump\t// in\n    tag_56:\n      stop\n        /* \"contracts/dETHRewardsPools.sol\":1257:1282  address public feeAddress */\n    tag_10:\n      tag_60\n      tag_61\n      jump\t// in\n    tag_60:\n      mload(0x40)\n      tag_62\n      swap2\n      swap1\n      tag_63\n      jump\t// in\n    tag_62:\n      mload(0x40)\n      dup1\n      swap2\n      sub\n      swap1\n      return\n        /* \"contracts/dETHRewardsPools.sol\":9739:10549  function withdraw(uint256 _pid, uint256 _amount) public {... */\n    tag_11:\n      tag_64\n      0x04\n      dup1\n      calldatasize\n      sub\n      dup2\n      add\n      swap1\n      tag_65\n      swap2\n      swap1\n      tag_53\n      jump\t// in\n    tag_65:\n      tag_66\n      jump\t// in\n    tag_64:\n      stop\n        /* \"contracts/dETHRewardsPools.sol\":7625:8533  function updatePool(uint256 _pid) public {... */\n    tag_12:\n      tag_67\n      0x04\n      dup1\n      calldatasize\n      sub\n      dup2\n      add\n      swap1\n      tag_68\n      swap2\n      swap1\n      tag_39\n      jump\t// in\n    tag_68:\n      tag_69\n      jump\t// in\n    tag_67:\n      stop\n        /* \"contracts/dETHRewardsPools.sol\":10620:10997  function emergencyWithdraw(uint256 _pid) public {... */\n    tag_13:\n      tag_70\n      0x04\n      dup1\n      calldatasize\n      sub\n      dup2\n      add\n      swap1\n      tag_71\n      swap2\n      swap1\n      tag_39\n      jump\t// in\n    tag_71:\n      tag_72\n      jump\t// in\n    tag_70:\n      stop\n        /* \"contracts/dETHRewardsPools.sol\":11593:12232  function governanceRecoverUnsupported(... */\n    tag_14:\n      tag_73\n      0x04\n      dup1\n      calldatasize\n      sub\n      dup2\n      add\n      swap1\n      tag_74\n      swap2\n      swap1\n      tag_75\n      jump\t// in\n    tag_74:\n      tag_76\n      jump\t// in\n    tag_73:\n      stop\n        /* \"contracts/dETHRewardsPools.sol\":519:542  address public operator */\n    tag_15:\n      tag_77\n      tag_78\n      jump\t// in\n    tag_77:\n      mload(0x40)\n      tag_79\n      swap2\n      swap1\n      tag_63\n      jump\t// in\n    tag_79:\n      mload(0x40)\n      dup1\n      swap2\n      sub\n      swap1\n      return\n        /* \"contracts/dETHRewardsPools.sol\":1649:1677  uint256 public poolStartTime */\n    tag_16:\n      tag_80\n      tag_81\n      jump\t// in\n    tag_80:\n      mload(0x40)\n      tag_82\n      swap2\n      swap1\n      tag_36\n      jump\t// in\n    tag_82:\n      mload(0x40)\n      dup1\n      swap2\n      sub\n      swap1\n      return\n        /* \"contracts/dETHRewardsPools.sol\":7369:7549  function massUpdatePools() public {... */\n    tag_17:\n      tag_83\n      tag_84\n      jump\t// in\n    tag_83:\n      stop\n        /* \"contracts/dETHRewardsPools.sol\":1727:1753  uint256 public poolEndTime */\n    tag_18:\n      tag_85\n      tag_86\n      jump\t// in\n    tag_85:\n      mload(0x40)\n      tag_87\n      swap2\n      swap1\n      tag_36\n      jump\t// in\n    tag_87:\n      mload(0x40)\n      dup1\n      swap2\n      sub\n      swap1\n      return\n        /* \"contracts/dETHRewardsPools.sol\":1402:1466  mapping(uint256 => mapping(address => UserInfo)) public userInfo */\n    tag_19:\n      tag_88\n      0x04\n      dup1\n      calldatasize\n      sub\n      dup2\n      add\n      swap1\n      tag_89\n      swap2\n      swap1\n      tag_48\n      jump\t// in\n    tag_89:\n      tag_90\n      jump\t// in\n    tag_88:\n      mload(0x40)\n      tag_91\n      swap3\n      swap2\n      swap1\n      tag_92\n      jump\t// in\n    tag_91:\n      mload(0x40)\n      dup1\n      swap2\n      sub\n      swap1\n      return\n        /* \"contracts/dETHRewardsPools.sol\":1875:1912  uint256 public runningTime = 115 days */\n    tag_20:\n      tag_93\n      tag_94\n      jump\t// in\n    tag_93:\n      mload(0x40)\n      tag_95\n      swap2\n      swap1\n      tag_36\n      jump\t// in\n    tag_95:\n      mload(0x40)\n      dup1\n      swap2\n      sub\n      swap1\n      return\n        /* \"contracts/dETHRewardsPools.sol\":11484:11585  function setOperator(address _operator) external onlyOperator {... */\n    tag_21:\n      tag_96\n      0x04\n      dup1\n      calldatasize\n      sub\n      dup2\n      add\n      swap1\n      tag_97\n      swap2\n      swap1\n      tag_98\n      jump\t// in\n    tag_97:\n      tag_99\n      jump\t// in\n    tag_96:\n      stop\n        /* \"contracts/dETHRewardsPools.sol\":1232:1250  IERC20 public deth */\n    tag_22:\n      tag_100\n      tag_101\n      jump\t// in\n    tag_100:\n      mload(0x40)\n      tag_102\n      swap2\n      swap1\n      tag_103\n      jump\t// in\n    tag_102:\n      mload(0x40)\n      dup1\n      swap2\n      sub\n      swap1\n      return\n        /* \"contracts/dETHRewardsPools.sol\":1778:1827  uint256 public dethPerSecond = 0.0035225443 ether */\n    tag_23:\n      tag_104\n      tag_105\n      jump\t// in\n    tag_104:\n      mload(0x40)\n      tag_106\n      swap2\n      swap1\n      tag_36\n      jump\t// in\n    tag_106:\n      mload(0x40)\n      dup1\n      swap2\n      sub\n      swap1\n      return\n        /* \"contracts/dETHRewardsPools.sol\":8568:9703  function deposit(uint256 _pid, uint256 _amount) public {... */\n    tag_24:\n      tag_107\n      0x04\n      dup1\n      calldatasize\n      sub\n      dup2\n      add\n      swap1\n      tag_108\n      swap2\n      swap1\n      tag_53\n      jump\t// in\n    tag_108:\n      tag_109\n      jump\t// in\n    tag_107:\n      stop\n        /* \"contracts/dETHRewardsPools.sol\":5339:5721  function setGlobalDepositFee(uint16 _globalDepositFeeBP) external onlyOperator {... */\n    tag_25:\n      tag_110\n      0x04\n      dup1\n      calldatasize\n      sub\n      dup2\n      add\n      swap1\n      tag_111\n      swap2\n      swap1\n      tag_112\n      jump\t// in\n    tag_111:\n      tag_113\n      jump\t// in\n    tag_110:\n      stop\n        /* \"contracts/dETHRewardsPools.sol\":3417:4731  function add(... */\n    tag_32:\n        /* \"contracts/dETHRewardsPools.sol\":2994:3004  msg.sender */\n      caller\n        /* \"contracts/dETHRewardsPools.sol\":2982:3004  operator == msg.sender */\n      0xffffffffffffffffffffffffffffffffffffffff\n      and\n        /* \"contracts/dETHRewardsPools.sol\":2982:2990  operator */\n      0x00\n      dup1\n      sload\n      swap1\n      0x0100\n      exp\n      swap1\n      div\n      0xffffffffffffffffffffffffffffffffffffffff\n      and\n        /* \"contracts/dETHRewardsPools.sol\":2982:3004  operator == msg.sender */\n      0xffffffffffffffffffffffffffffffffffffffff\n      and\n      eq\n        /* \"contracts/dETHRewardsPools.sol\":2974:3051  require(operator == msg.sender, \"dETHRewardPool: caller is not the operator\") */\n      tag_115\n      jumpi\n      mload(0x40)\n      0x08c379a000000000000000000000000000000000000000000000000000000000\n      dup2\n      mstore\n      0x04\n      add\n      tag_116\n      swap1\n      tag_117\n      jump\t// in\n    tag_116:\n      mload(0x40)\n      dup1\n      swap2\n      sub\n      swap1\n      revert\n    tag_115:\n        /* \"contracts/dETHRewardsPools.sol\":3614:3640  checkPoolDuplicate(_token) */\n      tag_119\n        /* \"contracts/dETHRewardsPools.sol\":3633:3639  _token */\n      dup5\n        /* \"contracts/dETHRewardsPools.sol\":3614:3632  checkPoolDuplicate */\n      tag_120\n        /* \"contracts/dETHRewardsPools.sol\":3614:3640  checkPoolDuplicate(_token) */\n      jump\t// in\n    tag_119:\n        /* \"contracts/dETHRewardsPools.sol\":3676:3679  100 */\n      0x64\n        /* \"contracts/dETHRewardsPools.sol\":3659:3672  _depositFeeBP */\n      dup3\n        /* \"contracts/dETHRewardsPools.sol\":3659:3679  _depositFeeBP <= 100 */\n      0xffff\n      and\n      gt\n      iszero\n        /* \"contracts/dETHRewardsPools.sol\":3651:3721  require(_depositFeeBP <= 100, \"add: invalid deposit fee basis points\") */\n      tag_121\n      jumpi\n      mload(0x40)\n      0x08c379a000000000000000000000000000000000000000000000000000000000\n      dup2\n      mstore\n      0x04\n      add\n      tag_122\n      swap1\n      tag_123\n      jump\t// in\n    tag_122:\n      mload(0x40)\n      dup1\n      swap2\n      sub\n      swap1\n      revert\n    tag_121:\n        /* \"contracts/dETHRewardsPools.sol\":3736:3747  _withUpdate */\n      dup3\n        /* \"contracts/dETHRewardsPools.sol\":3732:3793  if (_withUpdate) {... */\n      iszero\n      tag_124\n      jumpi\n        /* \"contracts/dETHRewardsPools.sol\":3764:3781  massUpdatePools() */\n      tag_125\n        /* \"contracts/dETHRewardsPools.sol\":3764:3779  massUpdatePools */\n      tag_84\n        /* \"contracts/dETHRewardsPools.sol\":3764:3781  massUpdatePools() */\n      jump\t// in\n    tag_125:\n        /* \"contracts/dETHRewardsPools.sol\":3732:3793  if (_withUpdate) {... */\n    tag_124:\n        /* \"contracts/dETHRewardsPools.sol\":3825:3838  poolStartTime */\n      sload(0x06)\n        /* \"contracts/dETHRewardsPools.sol\":3807:3822  block.timestamp */\n      timestamp\n        /* \"contracts/dETHRewardsPools.sol\":3807:3838  block.timestamp < poolStartTime */\n      lt\n        /* \"contracts/dETHRewardsPools.sol\":3803:4337  if (block.timestamp < poolStartTime) {... */\n      iszero\n      tag_126\n      jumpi\n        /* \"contracts/dETHRewardsPools.sol\":3911:3912  0 */\n      0x00\n        /* \"contracts/dETHRewardsPools.sol\":3892:3907  _lastRewardTime */\n      dup2\n        /* \"contracts/dETHRewardsPools.sol\":3892:3912  _lastRewardTime == 0 */\n      sub\n        /* \"contracts/dETHRewardsPools.sol\":3888:4131  if (_lastRewardTime == 0) {... */\n      tag_127\n      jumpi\n        /* \"contracts/dETHRewardsPools.sol\":3951:3964  poolStartTime */\n      sload(0x06)\n        /* \"contracts/dETHRewardsPools.sol\":3933:3964  _lastRewardTime = poolStartTime */\n      swap1\n      pop\n        /* \"contracts/dETHRewardsPools.sol\":3888:4131  if (_lastRewardTime == 0) {... */\n      jump(tag_128)\n    tag_127:\n        /* \"contracts/dETHRewardsPools.sol\":4027:4040  poolStartTime */\n      sload(0x06)\n        /* \"contracts/dETHRewardsPools.sol\":4009:4024  _lastRewardTime */\n      dup2\n        /* \"contracts/dETHRewardsPools.sol\":4009:4040  _lastRewardTime < poolStartTime */\n      lt\n        /* \"contracts/dETHRewardsPools.sol\":4005:4116  if (_lastRewardTime < poolStartTime) {... */\n      iszero\n      tag_129\n      jumpi\n        /* \"contracts/dETHRewardsPools.sol\":4083:4096  poolStartTime */\n      sload(0x06)\n        /* \"contracts/dETHRewardsPools.sol\":4065:4096  _lastRewardTime = poolStartTime */\n      swap1\n      pop\n        /* \"contracts/dETHRewardsPools.sol\":4005:4116  if (_lastRewardTime < poolStartTime) {... */\n    tag_129:\n        /* \"contracts/dETHRewardsPools.sol\":3888:4131  if (_lastRewardTime == 0) {... */\n    tag_128:\n        /* \"contracts/dETHRewardsPools.sol\":3803:4337  if (block.timestamp < poolStartTime) {... */\n      jump(tag_130)\n    tag_126:\n        /* \"contracts/dETHRewardsPools.sol\":4218:4219  0 */\n      0x00\n        /* \"contracts/dETHRewardsPools.sol\":4199:4214  _lastRewardTime */\n      dup2\n        /* \"contracts/dETHRewardsPools.sol\":4199:4219  _lastRewardTime == 0 */\n      eq\n        /* \"contracts/dETHRewardsPools.sol\":4199:4256  _lastRewardTime == 0 || _lastRewardTime < block.timestamp */\n      dup1\n      tag_131\n      jumpi\n      pop\n        /* \"contracts/dETHRewardsPools.sol\":4241:4256  block.timestamp */\n      timestamp\n        /* \"contracts/dETHRewardsPools.sol\":4223:4238  _lastRewardTime */\n      dup2\n        /* \"contracts/dETHRewardsPools.sol\":4223:4256  _lastRewardTime < block.timestamp */\n      lt\n        /* \"contracts/dETHRewardsPools.sol\":4199:4256  _lastRewardTime == 0 || _lastRewardTime < block.timestamp */\n    tag_131:\n        /* \"contracts/dETHRewardsPools.sol\":4195:4326  if (_lastRewardTime == 0 || _lastRewardTime < block.timestamp) {... */\n      iszero\n      tag_132\n      jumpi\n        /* \"contracts/dETHRewardsPools.sol\":4295:4310  block.timestamp */\n      timestamp\n        /* \"contracts/dETHRewardsPools.sol\":4277:4310  _lastRewardTime = block.timestamp */\n      swap1\n      pop\n        /* \"contracts/dETHRewardsPools.sol\":4195:4326  if (_lastRewardTime == 0 || _lastRewardTime < block.timestamp) {... */\n    tag_132:\n        /* \"contracts/dETHRewardsPools.sol\":3803:4337  if (block.timestamp < poolStartTime) {... */\n    tag_130:\n        /* \"contracts/dETHRewardsPools.sol\":4347:4362  bool _isStarted */\n      0x00\n        /* \"contracts/dETHRewardsPools.sol\":4385:4398  poolStartTime */\n      sload(0x06)\n        /* \"contracts/dETHRewardsPools.sol\":4366:4381  _lastRewardTime */\n      dup3\n        /* \"contracts/dETHRewardsPools.sol\":4366:4398  _lastRewardTime <= poolStartTime */\n      gt\n      iszero\n        /* \"contracts/dETHRewardsPools.sol\":4365:4439  (_lastRewardTime <= poolStartTime) || (_lastRewardTime <= block.timestamp) */\n      dup1\n      tag_133\n      jumpi\n      pop\n        /* \"contracts/dETHRewardsPools.sol\":4423:4438  block.timestamp */\n      timestamp\n        /* \"contracts/dETHRewardsPools.sol\":4404:4419  _lastRewardTime */\n      dup3\n        /* \"contracts/dETHRewardsPools.sol\":4404:4438  _lastRewardTime <= block.timestamp */\n      gt\n      iszero\n        /* \"contracts/dETHRewardsPools.sol\":4365:4439  (_lastRewardTime <= poolStartTime) || (_lastRewardTime <= block.timestamp) */\n    tag_133:\n        /* \"contracts/dETHRewardsPools.sol\":4347:4439  bool _isStarted = (_lastRewardTime <= poolStartTime) || (_lastRewardTime <= block.timestamp) */\n      swap1\n      pop\n        /* \"contracts/dETHRewardsPools.sol\":4450:4458  poolInfo */\n      0x03\n        /* \"contracts/dETHRewardsPools.sol\":4464:4619  PoolInfo({token: _token, allocPoint: _allocPoint, depositFeeBP: _depositFeeBP, lastRewardTime: _lastRewardTime, accDETHPerShare: 0, isStarted: _isStarted}) */\n      mload(0x40)\n      dup1\n      0xc0\n      add\n      0x40\n      mstore\n      dup1\n        /* \"contracts/dETHRewardsPools.sol\":4481:4487  _token */\n      dup8\n        /* \"contracts/dETHRewardsPools.sol\":4464:4619  PoolInfo({token: _token, allocPoint: _allocPoint, depositFeeBP: _depositFeeBP, lastRewardTime: _lastRewardTime, accDETHPerShare: 0, isStarted: _isStarted}) */\n      0xffffffffffffffffffffffffffffffffffffffff\n      and\n      dup2\n      mstore\n      0x20\n      add\n        /* \"contracts/dETHRewardsPools.sol\":4501:4512  _allocPoint */\n      dup9\n        /* \"contracts/dETHRewardsPools.sol\":4464:4619  PoolInfo({token: _token, allocPoint: _allocPoint, depositFeeBP: _depositFeeBP, lastRewardTime: _lastRewardTime, accDETHPerShare: 0, isStarted: _isStarted}) */\n      dup2\n      mstore\n      0x20\n      add\n        /* \"contracts/dETHRewardsPools.sol\":4559:4574  _lastRewardTime */\n      dup5\n        /* \"contracts/dETHRewardsPools.sol\":4464:4619  PoolInfo({token: _token, allocPoint: _allocPoint, depositFeeBP: _depositFeeBP, lastRewardTime: _lastRewardTime, accDETHPerShare: 0, isStarted: _isStarted}) */\n      dup2\n      mstore\n      0x20\n      add\n        /* \"contracts/dETHRewardsPools.sol\":4593:4594  0 */\n      0x00\n        /* \"contracts/dETHRewardsPools.sol\":4464:4619  PoolInfo({token: _token, allocPoint: _allocPoint, depositFeeBP: _depositFeeBP, lastRewardTime: _lastRewardTime, accDETHPerShare: 0, isStarted: _isStarted}) */\n      dup2\n      mstore\n      0x20\n      add\n        /* \"contracts/dETHRewardsPools.sol\":4528:4541  _depositFeeBP */\n      dup6\n        /* \"contracts/dETHRewardsPools.sol\":4464:4619  PoolInfo({token: _token, allocPoint: _allocPoint, depositFeeBP: _depositFeeBP, lastRewardTime: _lastRewardTime, accDETHPerShare: 0, isStarted: _isStarted}) */\n      0xffff\n      and\n      dup2\n      mstore\n      0x20\n      add\n        /* \"contracts/dETHRewardsPools.sol\":4607:4617  _isStarted */\n      dup4\n        /* \"contracts/dETHRewardsPools.sol\":4464:4619  PoolInfo({token: _token, allocPoint: _allocPoint, depositFeeBP: _depositFeeBP, lastRewardTime: _lastRewardTime, accDETHPerShare: 0, isStarted: _isStarted}) */\n      iszero\n      iszero\n      dup2\n      mstore\n      pop\n        /* \"contracts/dETHRewardsPools.sol\":4450:4620  poolInfo.push(PoolInfo({token: _token, allocPoint: _allocPoint, depositFeeBP: _depositFeeBP, lastRewardTime: _lastRewardTime, accDETHPerShare: 0, isStarted: _isStarted})) */\n      swap1\n      dup1\n      0x01\n      dup2\n      sload\n      add\n      dup1\n      dup3\n      sstore\n      dup1\n      swap2\n      pop\n      pop\n      0x01\n      swap1\n      sub\n      swap1\n      0x00\n      mstore\n      keccak256(0x00, 0x20)\n      swap1\n      0x05\n      mul\n      add\n      0x00\n      swap1\n      swap2\n      swap1\n      swap2\n      swap1\n      swap2\n      pop\n      0x00\n      dup3\n      add\n      mload\n      dup2\n      0x00\n      add\n      exp(0x0100, 0x00)\n      dup2\n      sload\n      dup2\n      0xffffffffffffffffffffffffffffffffffffffff\n      mul\n      not\n      and\n      swap1\n      dup4\n      0xffffffffffffffffffffffffffffffffffffffff\n      and\n      mul\n      or\n      swap1\n      sstore\n      pop\n      0x20\n      dup3\n      add\n      mload\n      dup2\n      0x01\n      add\n      sstore\n      0x40\n      dup3\n      add\n      mload\n      dup2\n      0x02\n      add\n      sstore\n      0x60\n      dup3\n      add\n      mload\n      dup2\n      0x03\n      add\n      sstore\n      0x80\n      dup3\n      add\n      mload\n      dup2\n      0x04\n      add\n      exp(0x0100, 0x00)\n      dup2\n      sload\n      dup2\n      0xffff\n      mul\n      not\n      and\n      swap1\n      dup4\n      0xffff\n      and\n      mul\n      or\n      swap1\n      sstore\n      pop\n      0xa0\n      dup3\n      add\n      mload\n      dup2\n      0x04\n      add\n      exp(0x0100, 0x02)\n      dup2\n      sload\n      dup2\n      0xff\n      mul\n      not\n      and\n      swap1\n      dup4\n      iszero\n      iszero\n      mul\n      or\n      swap1\n      sstore\n      pop\n      pop\n      pop\n        /* \"contracts/dETHRewardsPools.sol\":4635:4645  _isStarted */\n      dup1\n        /* \"contracts/dETHRewardsPools.sol\":4631:4724  if (_isStarted) {... */\n      iszero\n      tag_135\n      jumpi\n        /* \"contracts/dETHRewardsPools.sol\":4680:4712  totalAllocPoint.add(_allocPoint) */\n      tag_136\n        /* \"contracts/dETHRewardsPools.sol\":4700:4711  _allocPoint */\n      dup7\n        /* \"contracts/dETHRewardsPools.sol\":4680:4695  totalAllocPoint */\n      sload(0x05)\n        /* \"contracts/dETHRewardsPools.sol\":4680:4699  totalAllocPoint.add */\n      tag_137\n      swap1\n        /* \"contracts/dETHRewardsPools.sol\":4680:4712  totalAllocPoint.add(_allocPoint) */\n      swap2\n      swap1\n      0xffffffff\n      and\n      jump\t// in\n    tag_136:\n        /* \"contracts/dETHRewardsPools.sol\":4662:4677  totalAllocPoint */\n      0x05\n        /* \"contracts/dETHRewardsPools.sol\":4662:4712  totalAllocPoint = totalAllocPoint.add(_allocPoint) */\n      dup2\n      swap1\n      sstore\n      pop\n        /* \"contracts/dETHRewardsPools.sol\":4631:4724  if (_isStarted) {... */\n    tag_135:\n        /* \"contracts/dETHRewardsPools.sol\":3603:4731  {... */\n      pop\n        /* \"contracts/dETHRewardsPools.sol\":3417:4731  function add(... */\n      pop\n      pop\n      pop\n      pop\n      pop\n      jump\t// out\n        /* \"contracts/dETHRewardsPools.sol\":1929:1982  uint256 public constant TOTAL_REWARDS = 4000000 ether */\n    tag_34:\n        /* \"contracts/dETHRewardsPools.sol\":1969:1982  4000000 ether */\n      0x034f086f3b33b684000000\n        /* \"contracts/dETHRewardsPools.sol\":1929:1982  uint256 public constant TOTAL_REWARDS = 4000000 ether */\n      dup2\n      jump\t// out\n        /* \"contracts/dETHRewardsPools.sol\":1318:1344  PoolInfo[] public poolInfo */\n    tag_40:\n      0x03\n      dup2\n      dup2\n      sload\n      dup2\n      lt\n      tag_138\n      jumpi\n      0x00\n      dup1\n      revert\n    tag_138:\n      swap1\n      0x00\n      mstore\n      keccak256(0x00, 0x20)\n      swap1\n      0x05\n      mul\n      add\n      0x00\n      swap2\n      pop\n      swap1\n      pop\n      dup1\n      0x00\n      add\n      0x00\n      swap1\n      sload\n      swap1\n      0x0100\n      exp\n      swap1\n      div\n      0xffffffffffffffffffffffffffffffffffffffff\n      and\n      swap1\n      dup1\n      0x01\n      add\n      sload\n      swap1\n      dup1\n      0x02\n      add\n      sload\n      swap1\n      dup1\n      0x03\n      add\n      sload\n      swap1\n      dup1\n      0x04\n      add\n      0x00\n      swap1\n      sload\n      swap1\n      0x0100\n      exp\n      swap1\n      div\n      0xffff\n      and\n      swap1\n      dup1\n      0x04\n      add\n      0x02\n      swap1\n      sload\n      swap1\n      0x0100\n      exp\n      swap1\n      div\n      0xff\n      and\n      swap1\n      pop\n      dup7\n      jump\t// out\n        /* \"contracts/dETHRewardsPools.sol\":1563:1597  uint256 public totalAllocPoint = 0 */\n    tag_44:\n      sload(0x05)\n      dup2\n      jump\t// out\n        /* \"contracts/dETHRewardsPools.sol\":6515:7286  function pendingdETH(uint256 _pid, address _user) external view returns (uint256) {... */\n    tag_49:\n        /* \"contracts/dETHRewardsPools.sol\":6588:6595  uint256 */\n      0x00\n        /* \"contracts/dETHRewardsPools.sol\":6608:6629  PoolInfo storage pool */\n      dup1\n        /* \"contracts/dETHRewardsPools.sol\":6632:6640  poolInfo */\n      0x03\n        /* \"contracts/dETHRewardsPools.sol\":6641:6645  _pid */\n      dup5\n        /* \"contracts/dETHRewardsPools.sol\":6632:6646  poolInfo[_pid] */\n      dup2\n      sload\n      dup2\n      lt\n      tag_141\n      jumpi\n      tag_142\n      tag_143\n      jump\t// in\n    tag_142:\n    tag_141:\n      swap1\n      0x00\n      mstore\n      keccak256(0x00, 0x20)\n      swap1\n      0x05\n      mul\n      add\n        /* \"contracts/dETHRewardsPools.sol\":6608:6646  PoolInfo storage pool = poolInfo[_pid] */\n      swap1\n      pop\n        /* \"contracts/dETHRewardsPools.sol\":6657:6678  UserInfo storage user */\n      0x00\n        /* \"contracts/dETHRewardsPools.sol\":6681:6689  userInfo */\n      0x04\n        /* \"contracts/dETHRewardsPools.sol\":6681:6695  userInfo[_pid] */\n      0x00\n        /* \"contracts/dETHRewardsPools.sol\":6690:6694  _pid */\n      dup7\n        /* \"contracts/dETHRewardsPools.sol\":6681:6695  userInfo[_pid] */\n      dup2\n      mstore\n      0x20\n      add\n      swap1\n      dup2\n      mstore\n      0x20\n      add\n      0x00\n      keccak256\n        /* \"contracts/dETHRewardsPools.sol\":6681:6702  userInfo[_pid][_user] */\n      0x00\n        /* \"contracts/dETHRewardsPools.sol\":6696:6701  _user */\n      dup6\n        /* \"contracts/dETHRewardsPools.sol\":6681:6702  userInfo[_pid][_user] */\n      0xffffffffffffffffffffffffffffffffffffffff\n      and\n      0xffffffffffffffffffffffffffffffffffffffff\n      and\n      dup2\n      mstore\n      0x20\n      add\n      swap1\n      dup2\n      mstore\n      0x20\n      add\n      0x00\n      keccak256\n        /* \"contracts/dETHRewardsPools.sol\":6657:6702  UserInfo storage user = userInfo[_pid][_user] */\n      swap1\n      pop\n        /* \"contracts/dETHRewardsPools.sol\":6713:6736  uint256 accDETHPerShare */\n      0x00\n        /* \"contracts/dETHRewardsPools.sol\":6739:6743  pool */\n      dup3\n        /* \"contracts/dETHRewardsPools.sol\":6739:6759  pool.accDETHPerShare */\n      0x03\n      add\n      sload\n        /* \"contracts/dETHRewardsPools.sol\":6713:6759  uint256 accDETHPerShare = pool.accDETHPerShare */\n      swap1\n      pop\n        /* \"contracts/dETHRewardsPools.sol\":6770:6789  uint256 tokenSupply */\n      0x00\n        /* \"contracts/dETHRewardsPools.sol\":6792:6796  pool */\n      dup4\n        /* \"contracts/dETHRewardsPools.sol\":6792:6802  pool.token */\n      0x00\n      add\n      0x00\n      swap1\n      sload\n      swap1\n      0x0100\n      exp\n      swap1\n      div\n      0xffffffffffffffffffffffffffffffffffffffff\n      and\n        /* \"contracts/dETHRewardsPools.sol\":6792:6812  pool.token.balanceOf */\n      0xffffffffffffffffffffffffffffffffffffffff\n      and\n      0x70a08231\n        /* \"contracts/dETHRewardsPools.sol\":6821:6825  this */\n      address\n        /* \"contracts/dETHRewardsPools.sol\":6792:6827  pool.token.balanceOf(address(this)) */\n      mload(0x40)\n      dup3\n      0xffffffff\n      and\n      0xe0\n      shl\n      dup2\n      mstore\n      0x04\n      add\n      tag_145\n      swap2\n      swap1\n      tag_63\n      jump\t// in\n    tag_145:\n      0x20\n      mload(0x40)\n      dup1\n      dup4\n      sub\n      dup2\n      dup7\n      gas\n      staticcall\n      iszero\n      dup1\n      iszero\n      tag_147\n      jumpi\n      returndatasize\n      0x00\n      dup1\n      returndatacopy\n      revert(0x00, returndatasize)\n    tag_147:\n      pop\n      pop\n      pop\n      pop\n      mload(0x40)\n      returndatasize\n      not(0x1f)\n      0x1f\n      dup3\n      add\n      and\n      dup3\n      add\n      dup1\n      0x40\n      mstore\n      pop\n      dup2\n      add\n      swap1\n      tag_148\n      swap2\n      swap1\n      tag_149\n      jump\t// in\n    tag_148:\n        /* \"contracts/dETHRewardsPools.sol\":6770:6827  uint256 tokenSupply = pool.token.balanceOf(address(this)) */\n      swap1\n      pop\n        /* \"contracts/dETHRewardsPools.sol\":6860:6864  pool */\n      dup4\n        /* \"contracts/dETHRewardsPools.sol\":6860:6879  pool.lastRewardTime */\n      0x02\n      add\n      sload\n        /* \"contracts/dETHRewardsPools.sol\":6842:6857  block.timestamp */\n      timestamp\n        /* \"contracts/dETHRewardsPools.sol\":6842:6879  block.timestamp > pool.lastRewardTime */\n      gt\n        /* \"contracts/dETHRewardsPools.sol\":6842:6899  block.timestamp > pool.lastRewardTime && tokenSupply != 0 */\n      dup1\n      iszero\n      tag_150\n      jumpi\n      pop\n        /* \"contracts/dETHRewardsPools.sol\":6898:6899  0 */\n      0x00\n        /* \"contracts/dETHRewardsPools.sol\":6883:6894  tokenSupply */\n      dup2\n        /* \"contracts/dETHRewardsPools.sol\":6883:6899  tokenSupply != 0 */\n      eq\n      iszero\n        /* \"contracts/dETHRewardsPools.sol\":6842:6899  block.timestamp > pool.lastRewardTime && tokenSupply != 0 */\n    tag_150:\n        /* \"contracts/dETHRewardsPools.sol\":6838:7198  if (block.timestamp > pool.lastRewardTime && tokenSupply != 0) {... */\n      iszero\n      tag_151\n      jumpi\n        /* \"contracts/dETHRewardsPools.sol\":6916:6940  uint256 _generatedReward */\n      0x00\n        /* \"contracts/dETHRewardsPools.sol\":6943:6999  getGeneratedReward(pool.lastRewardTime, block.timestamp) */\n      tag_152\n        /* \"contracts/dETHRewardsPools.sol\":6962:6966  pool */\n      dup6\n        /* \"contracts/dETHRewardsPools.sol\":6962:6981  pool.lastRewardTime */\n      0x02\n      add\n      sload\n        /* \"contracts/dETHRewardsPools.sol\":6983:6998  block.timestamp */\n      timestamp\n        /* \"contracts/dETHRewardsPools.sol\":6943:6961  getGeneratedReward */\n      tag_54\n        /* \"contracts/dETHRewardsPools.sol\":6943:6999  getGeneratedReward(pool.lastRewardTime, block.timestamp) */\n      jump\t// in\n    tag_152:\n        /* \"contracts/dETHRewardsPools.sol\":6916:6999  uint256 _generatedReward = getGeneratedReward(pool.lastRewardTime, block.timestamp) */\n      swap1\n      pop\n        /* \"contracts/dETHRewardsPools.sol\":7014:7033  uint256 _dethReward */\n      0x00\n        /* \"contracts/dETHRewardsPools.sol\":7036:7094  _generatedReward.mul(pool.allocPoint).div(totalAllocPoint) */\n      tag_153\n        /* \"contracts/dETHRewardsPools.sol\":7078:7093  totalAllocPoint */\n      sload(0x05)\n        /* \"contracts/dETHRewardsPools.sol\":7036:7073  _generatedReward.mul(pool.allocPoint) */\n      tag_154\n        /* \"contracts/dETHRewardsPools.sol\":7057:7061  pool */\n      dup9\n        /* \"contracts/dETHRewardsPools.sol\":7057:7072  pool.allocPoint */\n      0x01\n      add\n      sload\n        /* \"contracts/dETHRewardsPools.sol\":7036:7052  _generatedReward */\n      dup6\n        /* \"contracts/dETHRewardsPools.sol\":7036:7056  _generatedReward.mul */\n      tag_155\n      swap1\n        /* \"contracts/dETHRewardsPools.sol\":7036:7073  _generatedReward.mul(pool.allocPoint) */\n      swap2\n      swap1\n      0xffffffff\n      and\n      jump\t// in\n    tag_154:\n        /* \"contracts/dETHRewardsPools.sol\":7036:7077  _generatedReward.mul(pool.allocPoint).div */\n      tag_156\n      swap1\n        /* \"contracts/dETHRewardsPools.sol\":7036:7094  _generatedReward.mul(pool.allocPoint).div(totalAllocPoint) */\n      swap2\n      swap1\n      0xffffffff\n      and\n      jump\t// in\n    tag_153:\n        /* \"contracts/dETHRewardsPools.sol\":7014:7094  uint256 _dethReward = _generatedReward.mul(pool.allocPoint).div(totalAllocPoint) */\n      swap1\n      pop\n        /* \"contracts/dETHRewardsPools.sol\":7127:7186  accDETHPerShare.add(_dethReward.mul(1e18).div(tokenSupply)) */\n      tag_157\n        /* \"contracts/dETHRewardsPools.sol\":7147:7185  _dethReward.mul(1e18).div(tokenSupply) */\n      tag_158\n        /* \"contracts/dETHRewardsPools.sol\":7173:7184  tokenSupply */\n      dup5\n        /* \"contracts/dETHRewardsPools.sol\":7147:7168  _dethReward.mul(1e18) */\n      tag_159\n        /* \"contracts/dETHRewardsPools.sol\":7163:7167  1e18 */\n      0x0de0b6b3a7640000\n        /* \"contracts/dETHRewardsPools.sol\":7147:7158  _dethReward */\n      dup6\n        /* \"contracts/dETHRewardsPools.sol\":7147:7162  _dethReward.mul */\n      tag_155\n      swap1\n        /* \"contracts/dETHRewardsPools.sol\":7147:7168  _dethReward.mul(1e18) */\n      swap2\n      swap1\n      0xffffffff\n      and\n      jump\t// in\n    tag_159:\n        /* \"contracts/dETHRewardsPools.sol\":7147:7172  _dethReward.mul(1e18).div */\n      tag_156\n      swap1\n        /* \"contracts/dETHRewardsPools.sol\":7147:7185  _dethReward.mul(1e18).div(tokenSupply) */\n      swap2\n      swap1\n      0xffffffff\n      and\n      jump\t// in\n    tag_158:\n        /* \"contracts/dETHRewardsPools.sol\":7127:7142  accDETHPerShare */\n      dup6\n        /* \"contracts/dETHRewardsPools.sol\":7127:7146  accDETHPerShare.add */\n      tag_137\n      swap1\n        /* \"contracts/dETHRewardsPools.sol\":7127:7186  accDETHPerShare.add(_dethReward.mul(1e18).div(tokenSupply)) */\n      swap2\n      swap1\n      0xffffffff\n      and\n      jump\t// in\n    tag_157:\n        /* \"contracts/dETHRewardsPools.sol\":7109:7186  accDETHPerShare = accDETHPerShare.add(_dethReward.mul(1e18).div(tokenSupply)) */\n      swap4\n      pop\n        /* \"contracts/dETHRewardsPools.sol\":6901:7198  {... */\n      pop\n      pop\n        /* \"contracts/dETHRewardsPools.sol\":6838:7198  if (block.timestamp > pool.lastRewardTime && tokenSupply != 0) {... */\n    tag_151:\n        /* \"contracts/dETHRewardsPools.sol\":7215:7278  user.amount.mul(accDETHPerShare).div(1e18).sub(user.rewardDebt) */\n      tag_160\n        /* \"contracts/dETHRewardsPools.sol\":7262:7266  user */\n      dup4\n        /* \"contracts/dETHRewardsPools.sol\":7262:7277  user.rewardDebt */\n      0x01\n      add\n      sload\n        /* \"contracts/dETHRewardsPools.sol\":7215:7257  user.amount.mul(accDETHPerShare).div(1e18) */\n      tag_161\n        /* \"contracts/dETHRewardsPools.sol\":7252:7256  1e18 */\n      0x0de0b6b3a7640000\n        /* \"contracts/dETHRewardsPools.sol\":7215:7247  user.amount.mul(accDETHPerShare) */\n      tag_162\n        /* \"contracts/dETHRewardsPools.sol\":7231:7246  accDETHPerShare */\n      dup7\n        /* \"contracts/dETHRewardsPools.sol\":7215:7219  user */\n      dup9\n        /* \"contracts/dETHRewardsPools.sol\":7215:7226  user.amount */\n      0x00\n      add\n      sload\n        /* \"contracts/dETHRewardsPools.sol\":7215:7230  user.amount.mul */\n      tag_155\n      swap1\n        /* \"contracts/dETHRewardsPools.sol\":7215:7247  user.amount.mul(accDETHPerShare) */\n      swap2\n      swap1\n      0xffffffff\n      and\n      jump\t// in\n    tag_162:\n        /* \"contracts/dETHRewardsPools.sol\":7215:7251  user.amount.mul(accDETHPerShare).div */\n      tag_156\n      swap1\n        /* \"contracts/dETHRewardsPools.sol\":7215:7257  user.amount.mul(accDETHPerShare).div(1e18) */\n      swap2\n      swap1\n      0xffffffff\n      and\n      jump\t// in\n    tag_161:\n        /* \"contracts/dETHRewardsPools.sol\":7215:7261  user.amount.mul(accDETHPerShare).div(1e18).sub */\n      tag_163\n      swap1\n        /* \"contracts/dETHRewardsPools.sol\":7215:7278  user.amount.mul(accDETHPerShare).div(1e18).sub(user.rewardDebt) */\n      swap2\n      swap1\n      0xffffffff\n      and\n      jump\t// in\n    tag_160:\n        /* \"contracts/dETHRewardsPools.sol\":7208:7278  return user.amount.mul(accDETHPerShare).div(1e18).sub(user.rewardDebt) */\n      swap5\n      pop\n      pop\n      pop\n      pop\n      pop\n        /* \"contracts/dETHRewardsPools.sol\":6515:7286  function pendingdETH(uint256 _pid, address _user) external view returns (uint256) {... */\n      swap3\n      swap2\n      pop\n      pop\n      jump\t// out\n        /* \"contracts/dETHRewardsPools.sol\":5798:6451  function getGeneratedReward(uint256 _fromTime, uint256 _toTime) public view returns (uint256) {... */\n    tag_54:\n        /* \"contracts/dETHRewardsPools.sol\":5883:5890  uint256 */\n      0x00\n        /* \"contracts/dETHRewardsPools.sol\":5920:5927  _toTime */\n      dup2\n        /* \"contracts/dETHRewardsPools.sol\":5907:5916  _fromTime */\n      dup4\n        /* \"contracts/dETHRewardsPools.sol\":5907:5927  _fromTime >= _toTime */\n      lt\n        /* \"contracts/dETHRewardsPools.sol\":5903:5937  if (_fromTime >= _toTime) return 0 */\n      tag_165\n      jumpi\n        /* \"contracts/dETHRewardsPools.sol\":5936:5937  0 */\n      0x00\n        /* \"contracts/dETHRewardsPools.sol\":5929:5937  return 0 */\n      swap1\n      pop\n      jump(tag_164)\n        /* \"contracts/dETHRewardsPools.sol\":5903:5937  if (_fromTime >= _toTime) return 0 */\n    tag_165:\n        /* \"contracts/dETHRewardsPools.sol\":5963:5974  poolEndTime */\n      sload(0x07)\n        /* \"contracts/dETHRewardsPools.sol\":5952:5959  _toTime */\n      dup3\n        /* \"contracts/dETHRewardsPools.sol\":5952:5974  _toTime >= poolEndTime */\n      lt\n        /* \"contracts/dETHRewardsPools.sol\":5948:6444  if (_toTime >= poolEndTime) {... */\n      tag_166\n      jumpi\n        /* \"contracts/dETHRewardsPools.sol\":6008:6019  poolEndTime */\n      sload(0x07)\n        /* \"contracts/dETHRewardsPools.sol\":5995:6004  _fromTime */\n      dup4\n        /* \"contracts/dETHRewardsPools.sol\":5995:6019  _fromTime >= poolEndTime */\n      lt\n        /* \"contracts/dETHRewardsPools.sol\":5991:6029  if (_fromTime >= poolEndTime) return 0 */\n      tag_167\n      jumpi\n        /* \"contracts/dETHRewardsPools.sol\":6028:6029  0 */\n      0x00\n        /* \"contracts/dETHRewardsPools.sol\":6021:6029  return 0 */\n      swap1\n      pop\n      jump(tag_164)\n        /* \"contracts/dETHRewardsPools.sol\":5991:6029  if (_fromTime >= poolEndTime) return 0 */\n    tag_167:\n        /* \"contracts/dETHRewardsPools.sol\":6061:6074  poolStartTime */\n      sload(0x06)\n        /* \"contracts/dETHRewardsPools.sol\":6048:6057  _fromTime */\n      dup4\n        /* \"contracts/dETHRewardsPools.sol\":6048:6074  _fromTime <= poolStartTime */\n      gt\n        /* \"contracts/dETHRewardsPools.sol\":6044:6132  if (_fromTime <= poolStartTime) return poolEndTime.sub(poolStartTime).mul(dethPerSecond) */\n      tag_168\n      jumpi\n        /* \"contracts/dETHRewardsPools.sol\":6083:6132  poolEndTime.sub(poolStartTime).mul(dethPerSecond) */\n      tag_169\n        /* \"contracts/dETHRewardsPools.sol\":6118:6131  dethPerSecond */\n      sload(0x08)\n        /* \"contracts/dETHRewardsPools.sol\":6083:6113  poolEndTime.sub(poolStartTime) */\n      tag_170\n        /* \"contracts/dETHRewardsPools.sol\":6099:6112  poolStartTime */\n      sload(0x06)\n        /* \"contracts/dETHRewardsPools.sol\":6083:6094  poolEndTime */\n      sload(0x07)\n        /* \"contracts/dETHRewardsPools.sol\":6083:6098  poolEndTime.sub */\n      tag_163\n      swap1\n        /* \"contracts/dETHRewardsPools.sol\":6083:6113  poolEndTime.sub(poolStartTime) */\n      swap2\n      swap1\n      0xffffffff\n      and\n      jump\t// in\n    tag_170:\n        /* \"contracts/dETHRewardsPools.sol\":6083:6117  poolEndTime.sub(poolStartTime).mul */\n      tag_155\n      swap1\n        /* \"contracts/dETHRewardsPools.sol\":6083:6132  poolEndTime.sub(poolStartTime).mul(dethPerSecond) */\n      swap2\n      swap1\n      0xffffffff\n      and\n      jump\t// in\n    tag_169:\n        /* \"contracts/dETHRewardsPools.sol\":6076:6132  return poolEndTime.sub(poolStartTime).mul(dethPerSecond) */\n      swap1\n      pop\n      jump(tag_164)\n        /* \"contracts/dETHRewardsPools.sol\":6044:6132  if (_fromTime <= poolStartTime) return poolEndTime.sub(poolStartTime).mul(dethPerSecond) */\n    tag_168:\n        /* \"contracts/dETHRewardsPools.sol\":6154:6199  poolEndTime.sub(_fromTime).mul(dethPerSecond) */\n      tag_171\n        /* \"contracts/dETHRewardsPools.sol\":6185:6198  dethPerSecond */\n      sload(0x08)\n        /* \"contracts/dETHRewardsPools.sol\":6154:6180  poolEndTime.sub(_fromTime) */\n      tag_172\n        /* \"contracts/dETHRewardsPools.sol\":6170:6179  _fromTime */\n      dup6\n        /* \"contracts/dETHRewardsPools.sol\":6154:6165  poolEndTime */\n      sload(0x07)\n        /* \"contracts/dETHRewardsPools.sol\":6154:6169  poolEndTime.sub */\n      tag_163\n      swap1\n        /* \"contracts/dETHRewardsPools.sol\":6154:6180  poolEndTime.sub(_fromTime) */\n      swap2\n      swap1\n      0xffffffff\n      and\n      jump\t// in\n    tag_172:\n        /* \"contracts/dETHRewardsPools.sol\":6154:6184  poolEndTime.sub(_fromTime).mul */\n      tag_155\n      swap1\n        /* \"contracts/dETHRewardsPools.sol\":6154:6199  poolEndTime.sub(_fromTime).mul(dethPerSecond) */\n      swap2\n      swap1\n      0xffffffff\n      and\n      jump\t// in\n    tag_171:\n        /* \"contracts/dETHRewardsPools.sol\":6147:6199  return poolEndTime.sub(_fromTime).mul(dethPerSecond) */\n      swap1\n      pop\n      jump(tag_164)\n        /* \"contracts/dETHRewardsPools.sol\":5948:6444  if (_toTime >= poolEndTime) {... */\n    tag_166:\n        /* \"contracts/dETHRewardsPools.sol\":6247:6260  poolStartTime */\n      sload(0x06)\n        /* \"contracts/dETHRewardsPools.sol\":6236:6243  _toTime */\n      dup3\n        /* \"contracts/dETHRewardsPools.sol\":6236:6260  _toTime <= poolStartTime */\n      gt\n        /* \"contracts/dETHRewardsPools.sol\":6232:6270  if (_toTime <= poolStartTime) return 0 */\n      tag_174\n      jumpi\n        /* \"contracts/dETHRewardsPools.sol\":6269:6270  0 */\n      0x00\n        /* \"contracts/dETHRewardsPools.sol\":6262:6270  return 0 */\n      swap1\n      pop\n      jump(tag_164)\n        /* \"contracts/dETHRewardsPools.sol\":6232:6270  if (_toTime <= poolStartTime) return 0 */\n    tag_174:\n        /* \"contracts/dETHRewardsPools.sol\":6302:6315  poolStartTime */\n      sload(0x06)\n        /* \"contracts/dETHRewardsPools.sol\":6289:6298  _fromTime */\n      dup4\n        /* \"contracts/dETHRewardsPools.sol\":6289:6315  _fromTime <= poolStartTime */\n      gt\n        /* \"contracts/dETHRewardsPools.sol\":6285:6369  if (_fromTime <= poolStartTime) return _toTime.sub(poolStartTime).mul(dethPerSecond) */\n      tag_175\n      jumpi\n        /* \"contracts/dETHRewardsPools.sol\":6324:6369  _toTime.sub(poolStartTime).mul(dethPerSecond) */\n      tag_176\n        /* \"contracts/dETHRewardsPools.sol\":6355:6368  dethPerSecond */\n      sload(0x08)\n        /* \"contracts/dETHRewardsPools.sol\":6324:6350  _toTime.sub(poolStartTime) */\n      tag_177\n        /* \"contracts/dETHRewardsPools.sol\":6336:6349  poolStartTime */\n      sload(0x06)\n        /* \"contracts/dETHRewardsPools.sol\":6324:6331  _toTime */\n      dup6\n        /* \"contracts/dETHRewardsPools.sol\":6324:6335  _toTime.sub */\n      tag_163\n      swap1\n        /* \"contracts/dETHRewardsPools.sol\":6324:6350  _toTime.sub(poolStartTime) */\n      swap2\n      swap1\n      0xffffffff\n      and\n      jump\t// in\n    tag_177:\n        /* \"contracts/dETHRewardsPools.sol\":6324:6354  _toTime.sub(poolStartTime).mul */\n      tag_155\n      swap1\n        /* \"contracts/dETHRewardsPools.sol\":6324:6369  _toTime.sub(poolStartTime).mul(dethPerSecond) */\n      swap2\n      swap1\n      0xffffffff\n      and\n      jump\t// in\n    tag_176:\n        /* \"contracts/dETHRewardsPools.sol\":6317:6369  return _toTime.sub(poolStartTime).mul(dethPerSecond) */\n      swap1\n      pop\n      jump(tag_164)\n        /* \"contracts/dETHRewardsPools.sol\":6285:6369  if (_fromTime <= poolStartTime) return _toTime.sub(poolStartTime).mul(dethPerSecond) */\n    tag_175:\n        /* \"contracts/dETHRewardsPools.sol\":6391:6432  _toTime.sub(_fromTime).mul(dethPerSecond) */\n      tag_178\n        /* \"contracts/dETHRewardsPools.sol\":6418:6431  dethPerSecond */\n      sload(0x08)\n        /* \"contracts/dETHRewardsPools.sol\":6391:6413  _toTime.sub(_fromTime) */\n      tag_179\n        /* \"contracts/dETHRewardsPools.sol\":6403:6412  _fromTime */\n      dup6\n        /* \"contracts/dETHRewardsPools.sol\":6391:6398  _toTime */\n      dup6\n        /* \"contracts/dETHRewardsPools.sol\":6391:6402  _toTime.sub */\n      tag_163\n      swap1\n        /* \"contracts/dETHRewardsPools.sol\":6391:6413  _toTime.sub(_fromTime) */\n      swap2\n      swap1\n      0xffffffff\n      and\n      jump\t// in\n    tag_179:\n        /* \"contracts/dETHRewardsPools.sol\":6391:6417  _toTime.sub(_fromTime).mul */\n      tag_155\n      swap1\n        /* \"contracts/dETHRewardsPools.sol\":6391:6432  _toTime.sub(_fromTime).mul(dethPerSecond) */\n      swap2\n      swap1\n      0xffffffff\n      and\n      jump\t// in\n    tag_178:\n        /* \"contracts/dETHRewardsPools.sol\":6384:6432  return _toTime.sub(_fromTime).mul(dethPerSecond) */\n      swap1\n      pop\n        /* \"contracts/dETHRewardsPools.sol\":5798:6451  function getGeneratedReward(uint256 _fromTime, uint256 _toTime) public view returns (uint256) {... */\n    tag_164:\n      swap3\n      swap2\n      pop\n      pop\n      jump\t// out\n        /* \"contracts/dETHRewardsPools.sol\":4828:5292  function set(uint256 _pid, uint256 _allocPoint, uint16 _depositFeeBP) public onlyOperator {... */\n    tag_59:\n        /* \"contracts/dETHRewardsPools.sol\":2994:3004  msg.sender */\n      caller\n        /* \"contracts/dETHRewardsPools.sol\":2982:3004  operator == msg.sender */\n      0xffffffffffffffffffffffffffffffffffffffff\n      and\n        /* \"contracts/dETHRewardsPools.sol\":2982:2990  operator */\n      0x00\n      dup1\n      sload\n      swap1\n      0x0100\n      exp\n      swap1\n      div\n      0xffffffffffffffffffffffffffffffffffffffff\n      and\n        /* \"contracts/dETHRewardsPools.sol\":2982:3004  operator == msg.sender */\n      0xffffffffffffffffffffffffffffffffffffffff\n      and\n      eq\n        /* \"contracts/dETHRewardsPools.sol\":2974:3051  require(operator == msg.sender, \"dETHRewardPool: caller is not the operator\") */\n      tag_181\n      jumpi\n      mload(0x40)\n      0x08c379a000000000000000000000000000000000000000000000000000000000\n      dup2\n      mstore\n      0x04\n      add\n      tag_182\n      swap1\n      tag_117\n      jump\t// in\n    tag_182:\n      mload(0x40)\n      dup1\n      swap2\n      sub\n      swap1\n      revert\n    tag_181:\n        /* \"contracts/dETHRewardsPools.sol\":4952:4953  0 */\n      0x00\n        /* \"contracts/dETHRewardsPools.sol\":4935:4948  _depositFeeBP */\n      dup2\n        /* \"contracts/dETHRewardsPools.sol\":4935:4953  _depositFeeBP <= 0 */\n      0xffff\n      and\n      gt\n      iszero\n        /* \"contracts/dETHRewardsPools.sol\":4927:4995  require(_depositFeeBP <= 0, \"Deposit Fee Cannot equal more than 0%\") */\n      tag_184\n      jumpi\n      mload(0x40)\n      0x08c379a000000000000000000000000000000000000000000000000000000000\n      dup2\n      mstore\n      0x04\n      add\n      tag_185\n      swap1\n      tag_186\n      jump\t// in\n    tag_185:\n      mload(0x40)\n      dup1\n      swap2\n      sub\n      swap1\n      revert\n    tag_184:\n        /* \"contracts/dETHRewardsPools.sol\":5006:5023  massUpdatePools() */\n      tag_187\n        /* \"contracts/dETHRewardsPools.sol\":5006:5021  massUpdatePools */\n      tag_84\n        /* \"contracts/dETHRewardsPools.sol\":5006:5023  massUpdatePools() */\n      jump\t// in\n    tag_187:\n        /* \"contracts/dETHRewardsPools.sol\":5034:5055  PoolInfo storage pool */\n      0x00\n        /* \"contracts/dETHRewardsPools.sol\":5058:5066  poolInfo */\n      0x03\n        /* \"contracts/dETHRewardsPools.sol\":5067:5071  _pid */\n      dup5\n        /* \"contracts/dETHRewardsPools.sol\":5058:5072  poolInfo[_pid] */\n      dup2\n      sload\n      dup2\n      lt\n      tag_188\n      jumpi\n      tag_189\n      tag_143\n      jump\t// in\n    tag_189:\n    tag_188:\n      swap1\n      0x00\n      mstore\n      keccak256(0x00, 0x20)\n      swap1\n      0x05\n      mul\n      add\n        /* \"contracts/dETHRewardsPools.sol\":5034:5072  PoolInfo storage pool = poolInfo[_pid] */\n      swap1\n      pop\n        /* \"contracts/dETHRewardsPools.sol\":5087:5091  pool */\n      dup1\n        /* \"contracts/dETHRewardsPools.sol\":5087:5101  pool.isStarted */\n      0x04\n      add\n      0x02\n      swap1\n      sload\n      swap1\n      0x0100\n      exp\n      swap1\n      div\n      0xff\n      and\n        /* \"contracts/dETHRewardsPools.sol\":5083:5201  if (pool.isStarted) {... */\n      iszero\n      tag_191\n      jumpi\n        /* \"contracts/dETHRewardsPools.sol\":5136:5189  totalAllocPoint.sub(pool.allocPoint).add(_allocPoint) */\n      tag_192\n        /* \"contracts/dETHRewardsPools.sol\":5177:5188  _allocPoint */\n      dup4\n        /* \"contracts/dETHRewardsPools.sol\":5136:5172  totalAllocPoint.sub(pool.allocPoint) */\n      tag_193\n        /* \"contracts/dETHRewardsPools.sol\":5156:5160  pool */\n      dup4\n        /* \"contracts/dETHRewardsPools.sol\":5156:5171  pool.allocPoint */\n      0x01\n      add\n      sload\n        /* \"contracts/dETHRewardsPools.sol\":5136:5151  totalAllocPoint */\n      sload(0x05)\n        /* \"contracts/dETHRewardsPools.sol\":5136:5155  totalAllocPoint.sub */\n      tag_163\n      swap1\n        /* \"contracts/dETHRewardsPools.sol\":5136:5172  totalAllocPoint.sub(pool.allocPoint) */\n      swap2\n      swap1\n      0xffffffff\n      and\n      jump\t// in\n    tag_193:\n        /* \"contracts/dETHRewardsPools.sol\":5136:5176  totalAllocPoint.sub(pool.allocPoint).add */\n      tag_137\n      swap1\n        /* \"contracts/dETHRewardsPools.sol\":5136:5189  totalAllocPoint.sub(pool.allocPoint).add(_allocPoint) */\n      swap2\n      swap1\n      0xffffffff\n      and\n      jump\t// in\n    tag_192:\n        /* \"contracts/dETHRewardsPools.sol\":5118:5133  totalAllocPoint */\n      0x05\n        /* \"contracts/dETHRewardsPools.sol\":5118:5189  totalAllocPoint = totalAllocPoint.sub(pool.allocPoint).add(_allocPoint) */\n      dup2\n      swap1\n      sstore\n      pop\n        /* \"contracts/dETHRewardsPools.sol\":5083:5201  if (pool.isStarted) {... */\n    tag_191:\n        /* \"contracts/dETHRewardsPools.sol\":5229:5240  _allocPoint */\n      dup3\n        /* \"contracts/dETHRewardsPools.sol\":5211:5215  pool */\n      dup2\n        /* \"contracts/dETHRewardsPools.sol\":5211:5226  pool.allocPoint */\n      0x01\n      add\n        /* \"contracts/dETHRewardsPools.sol\":5211:5240  pool.allocPoint = _allocPoint */\n      dup2\n      swap1\n      sstore\n      pop\n        /* \"contracts/dETHRewardsPools.sol\":5271:5284  _depositFeeBP */\n      dup2\n        /* \"contracts/dETHRewardsPools.sol\":5251:5255  pool */\n      dup2\n        /* \"contracts/dETHRewardsPools.sol\":5251:5268  pool.depositFeeBP */\n      0x04\n      add\n      0x00\n        /* \"contracts/dETHRewardsPools.sol\":5251:5284  pool.depositFeeBP = _depositFeeBP */\n      0x0100\n      exp\n      dup2\n      sload\n      dup2\n      0xffff\n      mul\n      not\n      and\n      swap1\n      dup4\n      0xffff\n      and\n      mul\n      or\n      swap1\n      sstore\n      pop\n        /* \"contracts/dETHRewardsPools.sol\":4918:5292  {... */\n      pop\n        /* \"contracts/dETHRewardsPools.sol\":4828:5292  function set(uint256 _pid, uint256 _allocPoint, uint16 _depositFeeBP) public onlyOperator {... */\n      pop\n      pop\n      pop\n      jump\t// out\n        /* \"contracts/dETHRewardsPools.sol\":1257:1282  address public feeAddress */\n    tag_61:\n      0x02\n      0x00\n      swap1\n      sload\n      swap1\n      0x0100\n      exp\n      swap1\n      div\n      0xffffffffffffffffffffffffffffffffffffffff\n      and\n      dup2\n      jump\t// out\n        /* \"contracts/dETHRewardsPools.sol\":9739:10549  function withdraw(uint256 _pid, uint256 _amount) public {... */\n    tag_66:\n        /* \"contracts/dETHRewardsPools.sol\":9806:9821  address _sender */\n      0x00\n        /* \"contracts/dETHRewardsPools.sol\":9824:9834  msg.sender */\n      caller\n        /* \"contracts/dETHRewardsPools.sol\":9806:9834  address _sender = msg.sender */\n      swap1\n      pop\n        /* \"contracts/dETHRewardsPools.sol\":9845:9866  PoolInfo storage pool */\n      0x00\n        /* \"contracts/dETHRewardsPools.sol\":9869:9877  poolInfo */\n      0x03\n        /* \"contracts/dETHRewardsPools.sol\":9878:9882  _pid */\n      dup5\n        /* \"contracts/dETHRewardsPools.sol\":9869:9883  poolInfo[_pid] */\n      dup2\n      sload\n      dup2\n      lt\n      tag_195\n      jumpi\n      tag_196\n      tag_143\n      jump\t// in\n    tag_196:\n    tag_195:\n      swap1\n      0x00\n      mstore\n      keccak256(0x00, 0x20)\n      swap1\n      0x05\n      mul\n      add\n        /* \"contracts/dETHRewardsPools.sol\":9845:9883  PoolInfo storage pool = poolInfo[_pid] */\n      swap1\n      pop\n        /* \"contracts/dETHRewardsPools.sol\":9894:9915  UserInfo storage user */\n      0x00\n        /* \"contracts/dETHRewardsPools.sol\":9918:9926  userInfo */\n      0x04\n        /* \"contracts/dETHRewardsPools.sol\":9918:9932  userInfo[_pid] */\n      0x00\n        /* \"contracts/dETHRewardsPools.sol\":9927:9931  _pid */\n      dup7\n        /* \"contracts/dETHRewardsPools.sol\":9918:9932  userInfo[_pid] */\n      dup2\n      mstore\n      0x20\n      add\n      swap1\n      dup2\n      mstore\n      0x20\n      add\n      0x00\n      keccak256\n        /* \"contracts/dETHRewardsPools.sol\":9918:9941  userInfo[_pid][_sender] */\n      0x00\n        /* \"contracts/dETHRewardsPools.sol\":9933:9940  _sender */\n      dup5\n        /* \"contracts/dETHRewardsPools.sol\":9918:9941  userInfo[_pid][_sender] */\n      0xffffffffffffffffffffffffffffffffffffffff\n      and\n      0xffffffffffffffffffffffffffffffffffffffff\n      and\n      dup2\n      mstore\n      0x20\n      add\n      swap1\n      dup2\n      mstore\n      0x20\n      add\n      0x00\n      keccak256\n        /* \"contracts/dETHRewardsPools.sol\":9894:9941  UserInfo storage user = userInfo[_pid][_sender] */\n      swap1\n      pop\n        /* \"contracts/dETHRewardsPools.sol\":9975:9982  _amount */\n      dup4\n        /* \"contracts/dETHRewardsPools.sol\":9960:9964  user */\n      dup2\n        /* \"contracts/dETHRewardsPools.sol\":9960:9971  user.amount */\n      0x00\n      add\n      sload\n        /* \"contracts/dETHRewardsPools.sol\":9960:9982  user.amount >= _amount */\n      lt\n      iszero\n        /* \"contracts/dETHRewardsPools.sol\":9952:10005  require(user.amount >= _amount, \"withdraw: not good\") */\n      tag_198\n      jumpi\n      mload(0x40)\n      0x08c379a000000000000000000000000000000000000000000000000000000000\n      dup2\n      mstore\n      0x04\n      add\n      tag_199\n      swap1\n      tag_200\n      jump\t// in\n    tag_199:\n      mload(0x40)\n      dup1\n      swap2\n      sub\n      swap1\n      revert\n    tag_198:\n        /* \"contracts/dETHRewardsPools.sol\":10016:10032  updatePool(_pid) */\n      tag_201\n        /* \"contracts/dETHRewardsPools.sol\":10027:10031  _pid */\n      dup6\n        /* \"contracts/dETHRewardsPools.sol\":10016:10026  updatePool */\n      tag_69\n        /* \"contracts/dETHRewardsPools.sol\":10016:10032  updatePool(_pid) */\n      jump\t// in\n    tag_201:\n        /* \"contracts/dETHRewardsPools.sol\":10043:10059  uint256 _pending */\n      0x00\n        /* \"contracts/dETHRewardsPools.sol\":10062:10130  user.amount.mul(pool.accDETHPerShare).div(1e18).sub(user.rewardDebt) */\n      tag_202\n        /* \"contracts/dETHRewardsPools.sol\":10114:10118  user */\n      dup3\n        /* \"contracts/dETHRewardsPools.sol\":10114:10129  user.rewardDebt */\n      0x01\n      add\n      sload\n        /* \"contracts/dETHRewardsPools.sol\":10062:10109  user.amount.mul(pool.accDETHPerShare).div(1e18) */\n      tag_203\n        /* \"contracts/dETHRewardsPools.sol\":10104:10108  1e18 */\n      0x0de0b6b3a7640000\n        /* \"contracts/dETHRewardsPools.sol\":10062:10099  user.amount.mul(pool.accDETHPerShare) */\n      tag_204\n        /* \"contracts/dETHRewardsPools.sol\":10078:10082  pool */\n      dup8\n        /* \"contracts/dETHRewardsPools.sol\":10078:10098  pool.accDETHPerShare */\n      0x03\n      add\n      sload\n        /* \"contracts/dETHRewardsPools.sol\":10062:10066  user */\n      dup8\n        /* \"contracts/dETHRewardsPools.sol\":10062:10073  user.amount */\n      0x00\n      add\n      sload\n        /* \"contracts/dETHRewardsPools.sol\":10062:10077  user.amount.mul */\n      tag_155\n      swap1\n        /* \"contracts/dETHRewardsPools.sol\":10062:10099  user.amount.mul(pool.accDETHPerShare) */\n      swap2\n      swap1\n      0xffffffff\n      and\n      jump\t// in\n    tag_204:\n        /* \"contracts/dETHRewardsPools.sol\":10062:10103  user.amount.mul(pool.accDETHPerShare).div */\n      tag_156\n      swap1\n        /* \"contracts/dETHRewardsPools.sol\":10062:10109  user.amount.mul(pool.accDETHPerShare).div(1e18) */\n      swap2\n      swap1\n      0xffffffff\n      and\n      jump\t// in\n    tag_203:\n        /* \"contracts/dETHRewardsPools.sol\":10062:10113  user.amount.mul(pool.accDETHPerShare).div(1e18).sub */\n      tag_163\n      swap1\n        /* \"contracts/dETHRewardsPools.sol\":10062:10130  user.amount.mul(pool.accDETHPerShare).div(1e18).sub(user.rewardDebt) */\n      swap2\n      swap1\n      0xffffffff\n      and\n      jump\t// in\n    tag_202:\n        /* \"contracts/dETHRewardsPools.sol\":10043:10130  uint256 _pending = user.amount.mul(pool.accDETHPerShare).div(1e18).sub(user.rewardDebt) */\n      swap1\n      pop\n        /* \"contracts/dETHRewardsPools.sol\":10156:10157  0 */\n      0x00\n        /* \"contracts/dETHRewardsPools.sol\":10145:10153  _pending */\n      dup2\n        /* \"contracts/dETHRewardsPools.sol\":10145:10157  _pending > 0 */\n      gt\n        /* \"contracts/dETHRewardsPools.sol\":10141:10270  if (_pending > 0) {... */\n      iszero\n      tag_205\n      jumpi\n        /* \"contracts/dETHRewardsPools.sol\":10174:10209  safedETHTransfer(_sender, _pending) */\n      tag_206\n        /* \"contracts/dETHRewardsPools.sol\":10191:10198  _sender */\n      dup5\n        /* \"contracts/dETHRewardsPools.sol\":10200:10208  _pending */\n      dup3\n        /* \"contracts/dETHRewardsPools.sol\":10174:10190  safedETHTransfer */\n      tag_207\n        /* \"contracts/dETHRewardsPools.sol\":10174:10209  safedETHTransfer(_sender, _pending) */\n      jump\t// in\n    tag_206:\n        /* \"contracts/dETHRewardsPools.sol\":10240:10247  _sender */\n      dup4\n        /* \"contracts/dETHRewardsPools.sol\":10229:10258  RewardPaid(_sender, _pending) */\n      0xffffffffffffffffffffffffffffffffffffffff\n      and\n      0xe2403640ba68fed3a2f88b7557551d1993f84b99bb10ff833f0cf8db0c5e0486\n        /* \"contracts/dETHRewardsPools.sol\":10249:10257  _pending */\n      dup3\n        /* \"contracts/dETHRewardsPools.sol\":10229:10258  RewardPaid(_sender, _pending) */\n      mload(0x40)\n      tag_208\n      swap2\n      swap1\n      tag_36\n      jump\t// in\n    tag_208:\n      mload(0x40)\n      dup1\n      swap2\n      sub\n      swap1\n      log2\n        /* \"contracts/dETHRewardsPools.sol\":10141:10270  if (_pending > 0) {... */\n    tag_205:\n        /* \"contracts/dETHRewardsPools.sol\":10294:10295  0 */\n      0x00\n        /* \"contracts/dETHRewardsPools.sol\":10284:10291  _amount */\n      dup6\n        /* \"contracts/dETHRewardsPools.sol\":10284:10295  _amount > 0 */\n      gt\n        /* \"contracts/dETHRewardsPools.sol\":10280:10418  if (_amount > 0) {... */\n      iszero\n      tag_209\n      jumpi\n        /* \"contracts/dETHRewardsPools.sol\":10326:10350  user.amount.sub(_amount) */\n      tag_210\n        /* \"contracts/dETHRewardsPools.sol\":10342:10349  _amount */\n      dup6\n        /* \"contracts/dETHRewardsPools.sol\":10326:10330  user */\n      dup4\n        /* \"contracts/dETHRewardsPools.sol\":10326:10337  user.amount */\n      0x00\n      add\n      sload\n        /* \"contracts/dETHRewardsPools.sol\":10326:10341  user.amount.sub */\n      tag_163\n      swap1\n        /* \"contracts/dETHRewardsPools.sol\":10326:10350  user.amount.sub(_amount) */\n      swap2\n      swap1\n      0xffffffff\n      and\n      jump\t// in\n    tag_210:\n        /* \"contracts/dETHRewardsPools.sol\":10312:10316  user */\n      dup3\n        /* \"contracts/dETHRewardsPools.sol\":10312:10323  user.amount */\n      0x00\n      add\n        /* \"contracts/dETHRewardsPools.sol\":10312:10350  user.amount = user.amount.sub(_amount) */\n      dup2\n      swap1\n      sstore\n      pop\n        /* \"contracts/dETHRewardsPools.sol\":10365:10406  pool.token.safeTransfer(_sender, _amount) */\n      tag_211\n        /* \"contracts/dETHRewardsPools.sol\":10389:10396  _sender */\n      dup5\n        /* \"contracts/dETHRewardsPools.sol\":10398:10405  _amount */\n      dup7\n        /* \"contracts/dETHRewardsPools.sol\":10365:10369  pool */\n      dup6\n        /* \"contracts/dETHRewardsPools.sol\":10365:10375  pool.token */\n      0x00\n      add\n      0x00\n      swap1\n      sload\n      swap1\n      0x0100\n      exp\n      swap1\n      div\n      0xffffffffffffffffffffffffffffffffffffffff\n      and\n        /* \"contracts/dETHRewardsPools.sol\":10365:10388  pool.token.safeTransfer */\n      0xffffffffffffffffffffffffffffffffffffffff\n      and\n      tag_212\n      swap1\n        /* \"contracts/dETHRewardsPools.sol\":10365:10406  pool.token.safeTransfer(_sender, _amount) */\n      swap3\n      swap2\n      swap1\n      0xffffffff\n      and\n      jump\t// in\n    tag_211:\n        /* \"contracts/dETHRewardsPools.sol\":10280:10418  if (_amount > 0) {... */\n    tag_209:\n        /* \"contracts/dETHRewardsPools.sol\":10446:10493  user.amount.mul(pool.accDETHPerShare).div(1e18) */\n      tag_213\n        /* \"contracts/dETHRewardsPools.sol\":10488:10492  1e18 */\n      0x0de0b6b3a7640000\n        /* \"contracts/dETHRewardsPools.sol\":10446:10483  user.amount.mul(pool.accDETHPerShare) */\n      tag_214\n        /* \"contracts/dETHRewardsPools.sol\":10462:10466  pool */\n      dup6\n        /* \"contracts/dETHRewardsPools.sol\":10462:10482  pool.accDETHPerShare */\n      0x03\n      add\n      sload\n        /* \"contracts/dETHRewardsPools.sol\":10446:10450  user */\n      dup6\n        /* \"contracts/dETHRewardsPools.sol\":10446:10457  user.amount */\n      0x00\n      add\n      sload\n        /* \"contracts/dETHRewardsPools.sol\":10446:10461  user.amount.mul */\n      tag_155\n      swap1\n        /* \"contracts/dETHRewardsPools.sol\":10446:10483  user.amount.mul(pool.accDETHPerShare) */\n      swap2\n      swap1\n      0xffffffff\n      and\n      jump\t// in\n    tag_214:\n        /* \"contracts/dETHRewardsPools.sol\":10446:10487  user.amount.mul(pool.accDETHPerShare).div */\n      tag_156\n      swap1\n        /* \"contracts/dETHRewardsPools.sol\":10446:10493  user.amount.mul(pool.accDETHPerShare).div(1e18) */\n      swap2\n      swap1\n      0xffffffff\n      and\n      jump\t// in\n    tag_213:\n        /* \"contracts/dETHRewardsPools.sol\":10428:10432  user */\n      dup3\n        /* \"contracts/dETHRewardsPools.sol\":10428:10443  user.rewardDebt */\n      0x01\n      add\n        /* \"contracts/dETHRewardsPools.sol\":10428:10493  user.rewardDebt = user.amount.mul(pool.accDETHPerShare).div(1e18) */\n      dup2\n      swap1\n      sstore\n      pop\n        /* \"contracts/dETHRewardsPools.sol\":10527:10531  _pid */\n      dup6\n        /* \"contracts/dETHRewardsPools.sol\":10518:10525  _sender */\n      dup5\n        /* \"contracts/dETHRewardsPools.sol\":10509:10541  Withdraw(_sender, _pid, _amount) */\n      0xffffffffffffffffffffffffffffffffffffffff\n      and\n      0xf279e6a1f5e320cca91135676d9cb6e44ca8a08c0b88342bcdb1144f6511b568\n        /* \"contracts/dETHRewardsPools.sol\":10533:10540  _amount */\n      dup8\n        /* \"contracts/dETHRewardsPools.sol\":10509:10541  Withdraw(_sender, _pid, _amount) */\n      mload(0x40)\n      tag_215\n      swap2\n      swap1\n      tag_36\n      jump\t// in\n    tag_215:\n      mload(0x40)\n      dup1\n      swap2\n      sub\n      swap1\n      log3\n        /* \"contracts/dETHRewardsPools.sol\":9795:10549  {... */\n      pop\n      pop\n      pop\n      pop\n        /* \"contracts/dETHRewardsPools.sol\":9739:10549  function withdraw(uint256 _pid, uint256 _amount) public {... */\n      pop\n      pop\n      jump\t// out\n        /* \"contracts/dETHRewardsPools.sol\":7625:8533  function updatePool(uint256 _pid) public {... */\n    tag_69:\n        /* \"contracts/dETHRewardsPools.sol\":7677:7698  PoolInfo storage pool */\n      0x00\n        /* \"contracts/dETHRewardsPools.sol\":7701:7709  poolInfo */\n      0x03\n        /* \"contracts/dETHRewardsPools.sol\":7710:7714  _pid */\n      dup3\n        /* \"contracts/dETHRewardsPools.sol\":7701:7715  poolInfo[_pid] */\n      dup2\n      sload\n      dup2\n      lt\n      tag_217\n      jumpi\n      tag_218\n      tag_143\n      jump\t// in\n    tag_218:\n    tag_217:\n      swap1\n      0x00\n      mstore\n      keccak256(0x00, 0x20)\n      swap1\n      0x05\n      mul\n      add\n        /* \"contracts/dETHRewardsPools.sol\":7677:7715  PoolInfo storage pool = poolInfo[_pid] */\n      swap1\n      pop\n        /* \"contracts/dETHRewardsPools.sol\":7749:7753  pool */\n      dup1\n        /* \"contracts/dETHRewardsPools.sol\":7749:7768  pool.lastRewardTime */\n      0x02\n      add\n      sload\n        /* \"contracts/dETHRewardsPools.sol\":7730:7745  block.timestamp */\n      timestamp\n        /* \"contracts/dETHRewardsPools.sol\":7730:7768  block.timestamp <= pool.lastRewardTime */\n      gt\n        /* \"contracts/dETHRewardsPools.sol\":7726:7803  if (block.timestamp <= pool.lastRewardTime) {... */\n      tag_220\n      jumpi\n        /* \"contracts/dETHRewardsPools.sol\":7785:7792  return; */\n      pop\n      jump(tag_216)\n        /* \"contracts/dETHRewardsPools.sol\":7726:7803  if (block.timestamp <= pool.lastRewardTime) {... */\n    tag_220:\n        /* \"contracts/dETHRewardsPools.sol\":7813:7832  uint256 tokenSupply */\n      0x00\n        /* \"contracts/dETHRewardsPools.sol\":7835:7839  pool */\n      dup2\n        /* \"contracts/dETHRewardsPools.sol\":7835:7845  pool.token */\n      0x00\n      add\n      0x00\n      swap1\n      sload\n      swap1\n      0x0100\n      exp\n      swap1\n      div\n      0xffffffffffffffffffffffffffffffffffffffff\n      and\n        /* \"contracts/dETHRewardsPools.sol\":7835:7855  pool.token.balanceOf */\n      0xffffffffffffffffffffffffffffffffffffffff\n      and\n      0x70a08231\n        /* \"contracts/dETHRewardsPools.sol\":7864:7868  this */\n      address\n        /* \"contracts/dETHRewardsPools.sol\":7835:7870  pool.token.balanceOf(address(this)) */\n      mload(0x40)\n      dup3\n      0xffffffff\n      and\n      0xe0\n      shl\n      dup2\n      mstore\n      0x04\n      add\n      tag_221\n      swap2\n      swap1\n      tag_63\n      jump\t// in\n    tag_221:\n      0x20\n      mload(0x40)\n      dup1\n      dup4\n      sub\n      dup2\n      dup7\n      gas\n      staticcall\n      iszero\n      dup1\n      iszero\n      tag_223\n      jumpi\n      returndatasize\n      0x00\n      dup1\n      returndatacopy\n      revert(0x00, returndatasize)\n    tag_223:\n      pop\n      pop\n      pop\n      pop\n      mload(0x40)\n      returndatasize\n      not(0x1f)\n      0x1f\n      dup3\n      add\n      and\n      dup3\n      add\n      dup1\n      0x40\n      mstore\n      pop\n      dup2\n      add\n      swap1\n      tag_224\n      swap2\n      swap1\n      tag_149\n      jump\t// in\n    tag_224:\n        /* \"contracts/dETHRewardsPools.sol\":7813:7870  uint256 tokenSupply = pool.token.balanceOf(address(this)) */\n      swap1\n      pop\n        /* \"contracts/dETHRewardsPools.sol\":7900:7901  0 */\n      0x00\n        /* \"contracts/dETHRewardsPools.sol\":7885:7896  tokenSupply */\n      dup2\n        /* \"contracts/dETHRewardsPools.sol\":7885:7901  tokenSupply == 0 */\n      sub\n        /* \"contracts/dETHRewardsPools.sol\":7881:7988  if (tokenSupply == 0) {... */\n      tag_225\n      jumpi\n        /* \"contracts/dETHRewardsPools.sol\":7940:7955  block.timestamp */\n      timestamp\n        /* \"contracts/dETHRewardsPools.sol\":7918:7922  pool */\n      dup3\n        /* \"contracts/dETHRewardsPools.sol\":7918:7937  pool.lastRewardTime */\n      0x02\n      add\n        /* \"contracts/dETHRewardsPools.sol\":7918:7955  pool.lastRewardTime = block.timestamp */\n      dup2\n      swap1\n      sstore\n      pop\n        /* \"contracts/dETHRewardsPools.sol\":7970:7977  return; */\n      pop\n      pop\n      jump(tag_216)\n        /* \"contracts/dETHRewardsPools.sol\":7881:7988  if (tokenSupply == 0) {... */\n    tag_225:\n        /* \"contracts/dETHRewardsPools.sol\":8003:8007  pool */\n      dup2\n        /* \"contracts/dETHRewardsPools.sol\":8003:8017  pool.isStarted */\n      0x04\n      add\n      0x02\n      swap1\n      sload\n      swap1\n      0x0100\n      exp\n      swap1\n      div\n      0xff\n      and\n        /* \"contracts/dETHRewardsPools.sol\":7998:8136  if (!pool.isStarted) {... */\n      tag_226\n      jumpi\n        /* \"contracts/dETHRewardsPools.sol\":8051:8055  true */\n      0x01\n        /* \"contracts/dETHRewardsPools.sol\":8034:8038  pool */\n      dup3\n        /* \"contracts/dETHRewardsPools.sol\":8034:8048  pool.isStarted */\n      0x04\n      add\n      0x02\n        /* \"contracts/dETHRewardsPools.sol\":8034:8055  pool.isStarted = true */\n      0x0100\n      exp\n      dup2\n      sload\n      dup2\n      0xff\n      mul\n      not\n      and\n      swap1\n      dup4\n      iszero\n      iszero\n      mul\n      or\n      swap1\n      sstore\n      pop\n        /* \"contracts/dETHRewardsPools.sol\":8088:8124  totalAllocPoint.add(pool.allocPoint) */\n      tag_227\n        /* \"contracts/dETHRewardsPools.sol\":8108:8112  pool */\n      dup3\n        /* \"contracts/dETHRewardsPools.sol\":8108:8123  pool.allocPoint */\n      0x01\n      add\n      sload\n        /* \"contracts/dETHRewardsPools.sol\":8088:8103  totalAllocPoint */\n      sload(0x05)\n        /* \"contracts/dETHRewardsPools.sol\":8088:8107  totalAllocPoint.add */\n      tag_137\n      swap1\n        /* \"contracts/dETHRewardsPools.sol\":8088:8124  totalAllocPoint.add(pool.allocPoint) */\n      swap2\n      swap1\n      0xffffffff\n      and\n      jump\t// in\n    tag_227:\n        /* \"contracts/dETHRewardsPools.sol\":8070:8085  totalAllocPoint */\n      0x05\n        /* \"contracts/dETHRewardsPools.sol\":8070:8124  totalAllocPoint = totalAllocPoint.add(pool.allocPoint) */\n      dup2\n      swap1\n      sstore\n      pop\n        /* \"contracts/dETHRewardsPools.sol\":7998:8136  if (!pool.isStarted) {... */\n    tag_226:\n        /* \"contracts/dETHRewardsPools.sol\":8168:8169  0 */\n      0x00\n        /* \"contracts/dETHRewardsPools.sol\":8150:8165  totalAllocPoint */\n      sload(0x05)\n        /* \"contracts/dETHRewardsPools.sol\":8150:8169  totalAllocPoint > 0 */\n      gt\n        /* \"contracts/dETHRewardsPools.sol\":8146:8478  if (totalAllocPoint > 0) {... */\n      iszero\n      tag_228\n      jumpi\n        /* \"contracts/dETHRewardsPools.sol\":8186:8210  uint256 _generatedReward */\n      0x00\n        /* \"contracts/dETHRewardsPools.sol\":8213:8269  getGeneratedReward(pool.lastRewardTime, block.timestamp) */\n      tag_229\n        /* \"contracts/dETHRewardsPools.sol\":8232:8236  pool */\n      dup4\n        /* \"contracts/dETHRewardsPools.sol\":8232:8251  pool.lastRewardTime */\n      0x02\n      add\n      sload\n        /* \"contracts/dETHRewardsPools.sol\":8253:8268  block.timestamp */\n      timestamp\n        /* \"contracts/dETHRewardsPools.sol\":8213:8231  getGeneratedReward */\n      tag_54\n        /* \"contracts/dETHRewardsPools.sol\":8213:8269  getGeneratedReward(pool.lastRewardTime, block.timestamp) */\n      jump\t// in\n    tag_229:\n        /* \"contracts/dETHRewardsPools.sol\":8186:8269  uint256 _generatedReward = getGeneratedReward(pool.lastRewardTime, block.timestamp) */\n      swap1\n      pop\n        /* \"contracts/dETHRewardsPools.sol\":8284:8303  uint256 _dethReward */\n      0x00\n        /* \"contracts/dETHRewardsPools.sol\":8306:8364  _generatedReward.mul(pool.allocPoint).div(totalAllocPoint) */\n      tag_230\n        /* \"contracts/dETHRewardsPools.sol\":8348:8363  totalAllocPoint */\n      sload(0x05)\n        /* \"contracts/dETHRewardsPools.sol\":8306:8343  _generatedReward.mul(pool.allocPoint) */\n      tag_231\n        /* \"contracts/dETHRewardsPools.sol\":8327:8331  pool */\n      dup7\n        /* \"contracts/dETHRewardsPools.sol\":8327:8342  pool.allocPoint */\n      0x01\n      add\n      sload\n        /* \"contracts/dETHRewardsPools.sol\":8306:8322  _generatedReward */\n      dup6\n        /* \"contracts/dETHRewardsPools.sol\":8306:8326  _generatedReward.mul */\n      tag_155\n      swap1\n        /* \"contracts/dETHRewardsPools.sol\":8306:8343  _generatedReward.mul(pool.allocPoint) */\n      swap2\n      swap1\n      0xffffffff\n      and\n      jump\t// in\n    tag_231:\n        /* \"contracts/dETHRewardsPools.sol\":8306:8347  _generatedReward.mul(pool.allocPoint).div */\n      tag_156\n      swap1\n        /* \"contracts/dETHRewardsPools.sol\":8306:8364  _generatedReward.mul(pool.allocPoint).div(totalAllocPoint) */\n      swap2\n      swap1\n      0xffffffff\n      and\n      jump\t// in\n    tag_230:\n        /* \"contracts/dETHRewardsPools.sol\":8284:8364  uint256 _dethReward = _generatedReward.mul(pool.allocPoint).div(totalAllocPoint) */\n      swap1\n      pop\n        /* \"contracts/dETHRewardsPools.sol\":8402:8466  pool.accDETHPerShare.add(_dethReward.mul(1e18).div(tokenSupply)) */\n      tag_232\n        /* \"contracts/dETHRewardsPools.sol\":8427:8465  _dethReward.mul(1e18).div(tokenSupply) */\n      tag_233\n        /* \"contracts/dETHRewardsPools.sol\":8453:8464  tokenSupply */\n      dup5\n        /* \"contracts/dETHRewardsPools.sol\":8427:8448  _dethReward.mul(1e18) */\n      tag_234\n        /* \"contracts/dETHRewardsPools.sol\":8443:8447  1e18 */\n      0x0de0b6b3a7640000\n        /* \"contracts/dETHRewardsPools.sol\":8427:8438  _dethReward */\n      dup6\n        /* \"contracts/dETHRewardsPools.sol\":8427:8442  _dethReward.mul */\n      tag_155\n      swap1\n        /* \"contracts/dETHRewardsPools.sol\":8427:8448  _dethReward.mul(1e18) */\n      swap2\n      swap1\n      0xffffffff\n      and\n      jump\t// in\n    tag_234:\n        /* \"contracts/dETHRewardsPools.sol\":8427:8452  _dethReward.mul(1e18).div */\n      tag_156\n      swap1\n        /* \"contracts/dETHRewardsPools.sol\":8427:8465  _dethReward.mul(1e18).div(tokenSupply) */\n      swap2\n      swap1\n      0xffffffff\n      and\n      jump\t// in\n    tag_233:\n        /* \"contracts/dETHRewardsPools.sol\":8402:8406  pool */\n      dup6\n        /* \"contracts/dETHRewardsPools.sol\":8402:8422  pool.accDETHPerShare */\n      0x03\n      add\n      sload\n        /* \"contracts/dETHRewardsPools.sol\":8402:8426  pool.accDETHPerShare.add */\n      tag_137\n      swap1\n        /* \"contracts/dETHRewardsPools.sol\":8402:8466  pool.accDETHPerShare.add(_dethReward.mul(1e18).div(tokenSupply)) */\n      swap2\n      swap1\n      0xffffffff\n      and\n      jump\t// in\n    tag_232:\n        /* \"contracts/dETHRewardsPools.sol\":8379:8383  pool */\n      dup5\n        /* \"contracts/dETHRewardsPools.sol\":8379:8399  pool.accDETHPerShare */\n      0x03\n      add\n        /* \"contracts/dETHRewardsPools.sol\":8379:8466  pool.accDETHPerShare = pool.accDETHPerShare.add(_dethReward.mul(1e18).div(tokenSupply)) */\n      dup2\n      swap1\n      sstore\n      pop\n        /* \"contracts/dETHRewardsPools.sol\":8171:8478  {... */\n      pop\n      pop\n        /* \"contracts/dETHRewardsPools.sol\":8146:8478  if (totalAllocPoint > 0) {... */\n    tag_228:\n        /* \"contracts/dETHRewardsPools.sol\":8510:8525  block.timestamp */\n      timestamp\n        /* \"contracts/dETHRewardsPools.sol\":8488:8492  pool */\n      dup3\n        /* \"contracts/dETHRewardsPools.sol\":8488:8507  pool.lastRewardTime */\n      0x02\n      add\n        /* \"contracts/dETHRewardsPools.sol\":8488:8525  pool.lastRewardTime = block.timestamp */\n      dup2\n      swap1\n      sstore\n      pop\n        /* \"contracts/dETHRewardsPools.sol\":7666:8533  {... */\n      pop\n      pop\n        /* \"contracts/dETHRewardsPools.sol\":7625:8533  function updatePool(uint256 _pid) public {... */\n    tag_216:\n      pop\n      jump\t// out\n        /* \"contracts/dETHRewardsPools.sol\":10620:10997  function emergencyWithdraw(uint256 _pid) public {... */\n    tag_72:\n        /* \"contracts/dETHRewardsPools.sol\":10679:10700  PoolInfo storage pool */\n      0x00\n        /* \"contracts/dETHRewardsPools.sol\":10703:10711  poolInfo */\n      0x03\n        /* \"contracts/dETHRewardsPools.sol\":10712:10716  _pid */\n      dup3\n        /* \"contracts/dETHRewardsPools.sol\":10703:10717  poolInfo[_pid] */\n      dup2\n      sload\n      dup2\n      lt\n      tag_236\n      jumpi\n      tag_237\n      tag_143\n      jump\t// in\n    tag_237:\n    tag_236:\n      swap1\n      0x00\n      mstore\n      keccak256(0x00, 0x20)\n      swap1\n      0x05\n      mul\n      add\n        /* \"contracts/dETHRewardsPools.sol\":10679:10717  PoolInfo storage pool = poolInfo[_pid] */\n      swap1\n      pop\n        /* \"contracts/dETHRewardsPools.sol\":10728:10749  UserInfo storage user */\n      0x00\n        /* \"contracts/dETHRewardsPools.sol\":10752:10760  userInfo */\n      0x04\n        /* \"contracts/dETHRewardsPools.sol\":10752:10766  userInfo[_pid] */\n      0x00\n        /* \"contracts/dETHRewardsPools.sol\":10761:10765  _pid */\n      dup5\n        /* \"contracts/dETHRewardsPools.sol\":10752:10766  userInfo[_pid] */\n      dup2\n      mstore\n      0x20\n      add\n      swap1\n      dup2\n      mstore\n      0x20\n      add\n      0x00\n      keccak256\n        /* \"contracts/dETHRewardsPools.sol\":10752:10778  userInfo[_pid][msg.sender] */\n      0x00\n        /* \"contracts/dETHRewardsPools.sol\":10767:10777  msg.sender */\n      caller\n        /* \"contracts/dETHRewardsPools.sol\":10752:10778  userInfo[_pid][msg.sender] */\n      0xffffffffffffffffffffffffffffffffffffffff\n      and\n      0xffffffffffffffffffffffffffffffffffffffff\n      and\n      dup2\n      mstore\n      0x20\n      add\n      swap1\n      dup2\n      mstore\n      0x20\n      add\n      0x00\n      keccak256\n        /* \"contracts/dETHRewardsPools.sol\":10728:10778  UserInfo storage user = userInfo[_pid][msg.sender] */\n      swap1\n      pop\n        /* \"contracts/dETHRewardsPools.sol\":10789:10804  uint256 _amount */\n      0x00\n        /* \"contracts/dETHRewardsPools.sol\":10807:10811  user */\n      dup2\n        /* \"contracts/dETHRewardsPools.sol\":10807:10818  user.amount */\n      0x00\n      add\n      sload\n        /* \"contracts/dETHRewardsPools.sol\":10789:10818  uint256 _amount = user.amount */\n      swap1\n      pop\n        /* \"contracts/dETHRewardsPools.sol\":10843:10844  0 */\n      0x00\n        /* \"contracts/dETHRewardsPools.sol\":10829:10833  user */\n      dup3\n        /* \"contracts/dETHRewardsPools.sol\":10829:10840  user.amount */\n      0x00\n      add\n        /* \"contracts/dETHRewardsPools.sol\":10829:10844  user.amount = 0 */\n      dup2\n      swap1\n      sstore\n      pop\n        /* \"contracts/dETHRewardsPools.sol\":10873:10874  0 */\n      0x00\n        /* \"contracts/dETHRewardsPools.sol\":10855:10859  user */\n      dup3\n        /* \"contracts/dETHRewardsPools.sol\":10855:10870  user.rewardDebt */\n      0x01\n      add\n        /* \"contracts/dETHRewardsPools.sol\":10855:10874  user.rewardDebt = 0 */\n      dup2\n      swap1\n      sstore\n      pop\n        /* \"contracts/dETHRewardsPools.sol\":10885:10929  pool.token.safeTransfer(msg.sender, _amount) */\n      tag_239\n        /* \"contracts/dETHRewardsPools.sol\":10909:10919  msg.sender */\n      caller\n        /* \"contracts/dETHRewardsPools.sol\":10921:10928  _amount */\n      dup3\n        /* \"contracts/dETHRewardsPools.sol\":10885:10889  pool */\n      dup6\n        /* \"contracts/dETHRewardsPools.sol\":10885:10895  pool.token */\n      0x00\n      add\n      0x00\n      swap1\n      sload\n      swap1\n      0x0100\n      exp\n      swap1\n      div\n      0xffffffffffffffffffffffffffffffffffffffff\n      and\n        /* \"contracts/dETHRewardsPools.sol\":10885:10908  pool.token.safeTransfer */\n      0xffffffffffffffffffffffffffffffffffffffff\n      and\n      tag_212\n      swap1\n        /* \"contracts/dETHRewardsPools.sol\":10885:10929  pool.token.safeTransfer(msg.sender, _amount) */\n      swap3\n      swap2\n      swap1\n      0xffffffff\n      and\n      jump\t// in\n    tag_239:\n        /* \"contracts/dETHRewardsPools.sol\":10975:10979  _pid */\n      dup4\n        /* \"contracts/dETHRewardsPools.sol\":10963:10973  msg.sender */\n      caller\n        /* \"contracts/dETHRewardsPools.sol\":10945:10989  EmergencyWithdraw(msg.sender, _pid, _amount) */\n      0xffffffffffffffffffffffffffffffffffffffff\n      and\n      0xbb757047c2b5f3974fe26b7c10f732e7bce710b0952a71082702781e62ae0595\n        /* \"contracts/dETHRewardsPools.sol\":10981:10988  _amount */\n      dup4\n        /* \"contracts/dETHRewardsPools.sol\":10945:10989  EmergencyWithdraw(msg.sender, _pid, _amount) */\n      mload(0x40)\n      tag_240\n      swap2\n      swap1\n      tag_36\n      jump\t// in\n    tag_240:\n      mload(0x40)\n      dup1\n      swap2\n      sub\n      swap1\n      log3\n        /* \"contracts/dETHRewardsPools.sol\":10668:10997  {... */\n      pop\n      pop\n      pop\n        /* \"contracts/dETHRewardsPools.sol\":10620:10997  function emergencyWithdraw(uint256 _pid) public {... */\n      pop\n      jump\t// out\n        /* \"contracts/dETHRewardsPools.sol\":11593:12232  function governanceRecoverUnsupported(... */\n    tag_76:\n        /* \"contracts/dETHRewardsPools.sol\":2994:3004  msg.sender */\n      caller\n        /* \"contracts/dETHRewardsPools.sol\":2982:3004  operator == msg.sender */\n      0xffffffffffffffffffffffffffffffffffffffff\n      and\n        /* \"contracts/dETHRewardsPools.sol\":2982:2990  operator */\n      0x00\n      dup1\n      sload\n      swap1\n      0x0100\n      exp\n      swap1\n      div\n      0xffffffffffffffffffffffffffffffffffffffff\n      and\n        /* \"contracts/dETHRewardsPools.sol\":2982:3004  operator == msg.sender */\n      0xffffffffffffffffffffffffffffffffffffffff\n      and\n      eq\n        /* \"contracts/dETHRewardsPools.sol\":2974:3051  require(operator == msg.sender, \"dETHRewardPool: caller is not the operator\") */\n      tag_242\n      jumpi\n      mload(0x40)\n      0x08c379a000000000000000000000000000000000000000000000000000000000\n      dup2\n      mstore\n      0x04\n      add\n      tag_243\n      swap1\n      tag_117\n      jump\t// in\n    tag_243:\n      mload(0x40)\n      dup1\n      swap2\n      sub\n      swap1\n      revert\n    tag_242:\n        /* \"contracts/dETHRewardsPools.sol\":11777:11784  90 days */\n      0x76a700\n        /* \"contracts/dETHRewardsPools.sol\":11763:11774  poolEndTime */\n      sload(0x07)\n        /* \"contracts/dETHRewardsPools.sol\":11763:11784  poolEndTime + 90 days */\n      tag_245\n      swap2\n      swap1\n      tag_246\n      jump\t// in\n    tag_245:\n        /* \"contracts/dETHRewardsPools.sol\":11745:11760  block.timestamp */\n      timestamp\n        /* \"contracts/dETHRewardsPools.sol\":11745:11784  block.timestamp < poolEndTime + 90 days */\n      lt\n        /* \"contracts/dETHRewardsPools.sol\":11741:12183  if (block.timestamp < poolEndTime + 90 days) {... */\n      iszero\n      tag_247\n      jumpi\n        /* \"contracts/dETHRewardsPools.sol\":11920:11924  deth */\n      0x01\n      0x00\n      swap1\n      sload\n      swap1\n      0x0100\n      exp\n      swap1\n      div\n      0xffffffffffffffffffffffffffffffffffffffff\n      and\n        /* \"contracts/dETHRewardsPools.sol\":11910:11924  _token != deth */\n      0xffffffffffffffffffffffffffffffffffffffff\n      and\n        /* \"contracts/dETHRewardsPools.sol\":11910:11916  _token */\n      dup4\n        /* \"contracts/dETHRewardsPools.sol\":11910:11924  _token != deth */\n      0xffffffffffffffffffffffffffffffffffffffff\n      and\n      sub\n        /* \"contracts/dETHRewardsPools.sol\":11902:11933  require(_token != deth, \"deth\") */\n      tag_248\n      jumpi\n      mload(0x40)\n      0x08c379a000000000000000000000000000000000000000000000000000000000\n      dup2\n      mstore\n      0x04\n      add\n      tag_249\n      swap1\n      tag_250\n      jump\t// in\n    tag_249:\n      mload(0x40)\n      dup1\n      swap2\n      sub\n      swap1\n      revert\n    tag_248:\n        /* \"contracts/dETHRewardsPools.sol\":11948:11962  uint256 length */\n      0x00\n        /* \"contracts/dETHRewardsPools.sol\":11965:11973  poolInfo */\n      0x03\n        /* \"contracts/dETHRewardsPools.sol\":11965:11980  poolInfo.length */\n      dup1\n      sload\n      swap1\n      pop\n        /* \"contracts/dETHRewardsPools.sol\":11948:11980  uint256 length = poolInfo.length */\n      swap1\n      pop\n        /* \"contracts/dETHRewardsPools.sol\":12000:12011  uint256 pid */\n      0x00\n        /* \"contracts/dETHRewardsPools.sol\":11995:12172  for (uint256 pid = 0; pid < length; ++pid) {... */\n    tag_251:\n        /* \"contracts/dETHRewardsPools.sol\":12023:12029  length */\n      dup2\n        /* \"contracts/dETHRewardsPools.sol\":12017:12020  pid */\n      dup2\n        /* \"contracts/dETHRewardsPools.sol\":12017:12029  pid < length */\n      lt\n        /* \"contracts/dETHRewardsPools.sol\":11995:12172  for (uint256 pid = 0; pid < length; ++pid) {... */\n      iszero\n      tag_252\n      jumpi\n        /* \"contracts/dETHRewardsPools.sol\":12057:12078  PoolInfo storage pool */\n      0x00\n        /* \"contracts/dETHRewardsPools.sol\":12081:12089  poolInfo */\n      0x03\n        /* \"contracts/dETHRewardsPools.sol\":12090:12093  pid */\n      dup3\n        /* \"contracts/dETHRewardsPools.sol\":12081:12094  poolInfo[pid] */\n      dup2\n      sload\n      dup2\n      lt\n      tag_254\n      jumpi\n      tag_255\n      tag_143\n      jump\t// in\n    tag_255:\n    tag_254:\n      swap1\n      0x00\n      mstore\n      keccak256(0x00, 0x20)\n      swap1\n      0x05\n      mul\n      add\n        /* \"contracts/dETHRewardsPools.sol\":12057:12094  PoolInfo storage pool = poolInfo[pid] */\n      swap1\n      pop\n        /* \"contracts/dETHRewardsPools.sol\":12131:12135  pool */\n      dup1\n        /* \"contracts/dETHRewardsPools.sol\":12131:12141  pool.token */\n      0x00\n      add\n      0x00\n      swap1\n      sload\n      swap1\n      0x0100\n      exp\n      swap1\n      div\n      0xffffffffffffffffffffffffffffffffffffffff\n      and\n        /* \"contracts/dETHRewardsPools.sol\":12121:12141  _token != pool.token */\n      0xffffffffffffffffffffffffffffffffffffffff\n      and\n        /* \"contracts/dETHRewardsPools.sol\":12121:12127  _token */\n      dup7\n        /* \"contracts/dETHRewardsPools.sol\":12121:12141  _token != pool.token */\n      0xffffffffffffffffffffffffffffffffffffffff\n      and\n      sub\n        /* \"contracts/dETHRewardsPools.sol\":12113:12156  require(_token != pool.token, \"pool.token\") */\n      tag_257\n      jumpi\n      mload(0x40)\n      0x08c379a000000000000000000000000000000000000000000000000000000000\n      dup2\n      mstore\n      0x04\n      add\n      tag_258\n      swap1\n      tag_259\n      jump\t// in\n    tag_258:\n      mload(0x40)\n      dup1\n      swap2\n      sub\n      swap1\n      revert\n    tag_257:\n        /* \"contracts/dETHRewardsPools.sol\":12038:12172  {... */\n      pop\n        /* \"contracts/dETHRewardsPools.sol\":12031:12036  ++pid */\n      dup1\n      tag_260\n      swap1\n      tag_261\n      jump\t// in\n    tag_260:\n      swap1\n      pop\n        /* \"contracts/dETHRewardsPools.sol\":11995:12172  for (uint256 pid = 0; pid < length; ++pid) {... */\n      jump(tag_251)\n    tag_252:\n      pop\n        /* \"contracts/dETHRewardsPools.sol\":11786:12183  {... */\n      pop\n        /* \"contracts/dETHRewardsPools.sol\":11741:12183  if (block.timestamp < poolEndTime + 90 days) {... */\n    tag_247:\n        /* \"contracts/dETHRewardsPools.sol\":12193:12224  _token.safeTransfer(to, amount) */\n      tag_262\n        /* \"contracts/dETHRewardsPools.sol\":12213:12215  to */\n      dup2\n        /* \"contracts/dETHRewardsPools.sol\":12217:12223  amount */\n      dup4\n        /* \"contracts/dETHRewardsPools.sol\":12193:12199  _token */\n      dup6\n        /* \"contracts/dETHRewardsPools.sol\":12193:12212  _token.safeTransfer */\n      0xffffffffffffffffffffffffffffffffffffffff\n      and\n      tag_212\n      swap1\n        /* \"contracts/dETHRewardsPools.sol\":12193:12224  _token.safeTransfer(to, amount) */\n      swap3\n      swap2\n      swap1\n      0xffffffff\n      and\n      jump\t// in\n    tag_262:\n        /* \"contracts/dETHRewardsPools.sol\":11593:12232  function governanceRecoverUnsupported(... */\n      pop\n      pop\n      pop\n      jump\t// out\n        /* \"contracts/dETHRewardsPools.sol\":519:542  address public operator */\n    tag_78:\n      0x00\n      dup1\n      sload\n      swap1\n      0x0100\n      exp\n      swap1\n      div\n      0xffffffffffffffffffffffffffffffffffffffff\n      and\n      dup2\n      jump\t// out\n        /* \"contracts/dETHRewardsPools.sol\":1649:1677  uint256 public poolStartTime */\n    tag_81:\n      sload(0x06)\n      dup2\n      jump\t// out\n        /* \"contracts/dETHRewardsPools.sol\":7369:7549  function massUpdatePools() public {... */\n    tag_84:\n        /* \"contracts/dETHRewardsPools.sol\":7414:7428  uint256 length */\n      0x00\n        /* \"contracts/dETHRewardsPools.sol\":7431:7439  poolInfo */\n      0x03\n        /* \"contracts/dETHRewardsPools.sol\":7431:7446  poolInfo.length */\n      dup1\n      sload\n      swap1\n      pop\n        /* \"contracts/dETHRewardsPools.sol\":7414:7446  uint256 length = poolInfo.length */\n      swap1\n      pop\n        /* \"contracts/dETHRewardsPools.sol\":7462:7473  uint256 pid */\n      0x00\n        /* \"contracts/dETHRewardsPools.sol\":7457:7542  for (uint256 pid = 0; pid < length; ++pid) {... */\n    tag_264:\n        /* \"contracts/dETHRewardsPools.sol\":7485:7491  length */\n      dup2\n        /* \"contracts/dETHRewardsPools.sol\":7479:7482  pid */\n      dup2\n        /* \"contracts/dETHRewardsPools.sol\":7479:7491  pid < length */\n      lt\n        /* \"contracts/dETHRewardsPools.sol\":7457:7542  for (uint256 pid = 0; pid < length; ++pid) {... */\n      iszero\n      tag_265\n      jumpi\n        /* \"contracts/dETHRewardsPools.sol\":7515:7530  updatePool(pid) */\n      tag_267\n        /* \"contracts/dETHRewardsPools.sol\":7526:7529  pid */\n      dup2\n        /* \"contracts/dETHRewardsPools.sol\":7515:7525  updatePool */\n      tag_69\n        /* \"contracts/dETHRewardsPools.sol\":7515:7530  updatePool(pid) */\n      jump\t// in\n    tag_267:\n        /* \"contracts/dETHRewardsPools.sol\":7493:7498  ++pid */\n      dup1\n      tag_268\n      swap1\n      tag_261\n      jump\t// in\n    tag_268:\n      swap1\n      pop\n        /* \"contracts/dETHRewardsPools.sol\":7457:7542  for (uint256 pid = 0; pid < length; ++pid) {... */\n      jump(tag_264)\n    tag_265:\n      pop\n        /* \"contracts/dETHRewardsPools.sol\":7403:7549  {... */\n      pop\n        /* \"contracts/dETHRewardsPools.sol\":7369:7549  function massUpdatePools() public {... */\n      jump\t// out\n        /* \"contracts/dETHRewardsPools.sol\":1727:1753  uint256 public poolEndTime */\n    tag_86:\n      sload(0x07)\n      dup2\n      jump\t// out\n        /* \"contracts/dETHRewardsPools.sol\":1402:1466  mapping(uint256 => mapping(address => UserInfo)) public userInfo */\n    tag_90:\n      mstore(0x20, 0x04)\n      dup2\n      0x00\n      mstore\n      mstore(0x20, keccak256(0x00, 0x40))\n      dup1\n      0x00\n      mstore\n      keccak256(0x00, 0x40)\n      0x00\n      swap2\n      pop\n      swap2\n      pop\n      pop\n      dup1\n      0x00\n      add\n      sload\n      swap1\n      dup1\n      0x01\n      add\n      sload\n      swap1\n      pop\n      dup3\n      jump\t// out\n        /* \"contracts/dETHRewardsPools.sol\":1875:1912  uint256 public runningTime = 115 days */\n    tag_94:\n      sload(0x09)\n      dup2\n      jump\t// out\n        /* \"contracts/dETHRewardsPools.sol\":11484:11585  function setOperator(address _operator) external onlyOperator {... */\n    tag_99:\n        /* \"contracts/dETHRewardsPools.sol\":2994:3004  msg.sender */\n      caller\n        /* \"contracts/dETHRewardsPools.sol\":2982:3004  operator == msg.sender */\n      0xffffffffffffffffffffffffffffffffffffffff\n      and\n        /* \"contracts/dETHRewardsPools.sol\":2982:2990  operator */\n      0x00\n      dup1\n      sload\n      swap1\n      0x0100\n      exp\n      swap1\n      div\n      0xffffffffffffffffffffffffffffffffffffffff\n      and\n        /* \"contracts/dETHRewardsPools.sol\":2982:3004  operator == msg.sender */\n      0xffffffffffffffffffffffffffffffffffffffff\n      and\n      eq\n        /* \"contracts/dETHRewardsPools.sol\":2974:3051  require(operator == msg.sender, \"dETHRewardPool: caller is not the operator\") */\n      tag_270\n      jumpi\n      mload(0x40)\n      0x08c379a000000000000000000000000000000000000000000000000000000000\n      dup2\n      mstore\n      0x04\n      add\n      tag_271\n      swap1\n      tag_117\n      jump\t// in\n    tag_271:\n      mload(0x40)\n      dup1\n      swap2\n      sub\n      swap1\n      revert\n    tag_270:\n        /* \"contracts/dETHRewardsPools.sol\":11568:11577  _operator */\n      dup1\n        /* \"contracts/dETHRewardsPools.sol\":11557:11565  operator */\n      0x00\n      dup1\n        /* \"contracts/dETHRewardsPools.sol\":11557:11577  operator = _operator */\n      0x0100\n      exp\n      dup2\n      sload\n      dup2\n      0xffffffffffffffffffffffffffffffffffffffff\n      mul\n      not\n      and\n      swap1\n      dup4\n      0xffffffffffffffffffffffffffffffffffffffff\n      and\n      mul\n      or\n      swap1\n      sstore\n      pop\n        /* \"contracts/dETHRewardsPools.sol\":11484:11585  function setOperator(address _operator) external onlyOperator {... */\n      pop\n      jump\t// out\n        /* \"contracts/dETHRewardsPools.sol\":1232:1250  IERC20 public deth */\n    tag_101:\n      0x01\n      0x00\n      swap1\n      sload\n      swap1\n      0x0100\n      exp\n      swap1\n      div\n      0xffffffffffffffffffffffffffffffffffffffff\n      and\n      dup2\n      jump\t// out\n        /* \"contracts/dETHRewardsPools.sol\":1778:1827  uint256 public dethPerSecond = 0.0035225443 ether */\n    tag_105:\n      sload(0x08)\n      dup2\n      jump\t// out\n        /* \"contracts/dETHRewardsPools.sol\":8568:9703  function deposit(uint256 _pid, uint256 _amount) public {... */\n    tag_109:\n        /* \"contracts/dETHRewardsPools.sol\":8634:8649  address _sender */\n      0x00\n        /* \"contracts/dETHRewardsPools.sol\":8652:8662  msg.sender */\n      caller\n        /* \"contracts/dETHRewardsPools.sol\":8634:8662  address _sender = msg.sender */\n      swap1\n      pop\n        /* \"contracts/dETHRewardsPools.sol\":8673:8694  PoolInfo storage pool */\n      0x00\n        /* \"contracts/dETHRewardsPools.sol\":8697:8705  poolInfo */\n      0x03\n        /* \"contracts/dETHRewardsPools.sol\":8706:8710  _pid */\n      dup5\n        /* \"contracts/dETHRewardsPools.sol\":8697:8711  poolInfo[_pid] */\n      dup2\n      sload\n      dup2\n      lt\n      tag_274\n      jumpi\n      tag_275\n      tag_143\n      jump\t// in\n    tag_275:\n    tag_274:\n      swap1\n      0x00\n      mstore\n      keccak256(0x00, 0x20)\n      swap1\n      0x05\n      mul\n      add\n        /* \"contracts/dETHRewardsPools.sol\":8673:8711  PoolInfo storage pool = poolInfo[_pid] */\n      swap1\n      pop\n        /* \"contracts/dETHRewardsPools.sol\":8722:8743  UserInfo storage user */\n      0x00\n        /* \"contracts/dETHRewardsPools.sol\":8746:8754  userInfo */\n      0x04\n        /* \"contracts/dETHRewardsPools.sol\":8746:8760  userInfo[_pid] */\n      0x00\n        /* \"contracts/dETHRewardsPools.sol\":8755:8759  _pid */\n      dup7\n        /* \"contracts/dETHRewardsPools.sol\":8746:8760  userInfo[_pid] */\n      dup2\n      mstore\n      0x20\n      add\n      swap1\n      dup2\n      mstore\n      0x20\n      add\n      0x00\n      keccak256\n        /* \"contracts/dETHRewardsPools.sol\":8746:8769  userInfo[_pid][_sender] */\n      0x00\n        /* \"contracts/dETHRewardsPools.sol\":8761:8768  _sender */\n      dup5\n        /* \"contracts/dETHRewardsPools.sol\":8746:8769  userInfo[_pid][_sender] */\n      0xffffffffffffffffffffffffffffffffffffffff\n      and\n      0xffffffffffffffffffffffffffffffffffffffff\n      and\n      dup2\n      mstore\n      0x20\n      add\n      swap1\n      dup2\n      mstore\n      0x20\n      add\n      0x00\n      keccak256\n        /* \"contracts/dETHRewardsPools.sol\":8722:8769  UserInfo storage user = userInfo[_pid][_sender] */\n      swap1\n      pop\n        /* \"contracts/dETHRewardsPools.sol\":8780:8796  updatePool(_pid) */\n      tag_277\n        /* \"contracts/dETHRewardsPools.sol\":8791:8795  _pid */\n      dup6\n        /* \"contracts/dETHRewardsPools.sol\":8780:8790  updatePool */\n      tag_69\n        /* \"contracts/dETHRewardsPools.sol\":8780:8796  updatePool(_pid) */\n      jump\t// in\n    tag_277:\n        /* \"contracts/dETHRewardsPools.sol\":8825:8826  0 */\n      0x00\n        /* \"contracts/dETHRewardsPools.sol\":8811:8815  user */\n      dup2\n        /* \"contracts/dETHRewardsPools.sol\":8811:8822  user.amount */\n      0x00\n      add\n      sload\n        /* \"contracts/dETHRewardsPools.sol\":8811:8826  user.amount > 0 */\n      gt\n        /* \"contracts/dETHRewardsPools.sol\":8807:9104  if (user.amount > 0) {... */\n      iszero\n      tag_278\n      jumpi\n        /* \"contracts/dETHRewardsPools.sol\":8843:8859  uint256 _pending */\n      0x00\n        /* \"contracts/dETHRewardsPools.sol\":8862:8930  user.amount.mul(pool.accDETHPerShare).div(1e18).sub(user.rewardDebt) */\n      tag_279\n        /* \"contracts/dETHRewardsPools.sol\":8914:8918  user */\n      dup3\n        /* \"contracts/dETHRewardsPools.sol\":8914:8929  user.rewardDebt */\n      0x01\n      add\n      sload\n        /* \"contracts/dETHRewardsPools.sol\":8862:8909  user.amount.mul(pool.accDETHPerShare).div(1e18) */\n      tag_280\n        /* \"contracts/dETHRewardsPools.sol\":8904:8908  1e18 */\n      0x0de0b6b3a7640000\n        /* \"contracts/dETHRewardsPools.sol\":8862:8899  user.amount.mul(pool.accDETHPerShare) */\n      tag_281\n        /* \"contracts/dETHRewardsPools.sol\":8878:8882  pool */\n      dup8\n        /* \"contracts/dETHRewardsPools.sol\":8878:8898  pool.accDETHPerShare */\n      0x03\n      add\n      sload\n        /* \"contracts/dETHRewardsPools.sol\":8862:8866  user */\n      dup8\n        /* \"contracts/dETHRewardsPools.sol\":8862:8873  user.amount */\n      0x00\n      add\n      sload\n        /* \"contracts/dETHRewardsPools.sol\":8862:8877  user.amount.mul */\n      tag_155\n      swap1\n        /* \"contracts/dETHRewardsPools.sol\":8862:8899  user.amount.mul(pool.accDETHPerShare) */\n      swap2\n      swap1\n      0xffffffff\n      and\n      jump\t// in\n    tag_281:\n        /* \"contracts/dETHRewardsPools.sol\":8862:8903  user.amount.mul(pool.accDETHPerShare).div */\n      tag_156\n      swap1\n        /* \"contracts/dETHRewardsPools.sol\":8862:8909  user.amount.mul(pool.accDETHPerShare).div(1e18) */\n      swap2\n      swap1\n      0xffffffff\n      and\n      jump\t// in\n    tag_280:\n        /* \"contracts/dETHRewardsPools.sol\":8862:8913  user.amount.mul(pool.accDETHPerShare).div(1e18).sub */\n      tag_163\n      swap1\n        /* \"contracts/dETHRewardsPools.sol\":8862:8930  user.amount.mul(pool.accDETHPerShare).div(1e18).sub(user.rewardDebt) */\n      swap2\n      swap1\n      0xffffffff\n      and\n      jump\t// in\n    tag_279:\n        /* \"contracts/dETHRewardsPools.sol\":8843:8930  uint256 _pending = user.amount.mul(pool.accDETHPerShare).div(1e18).sub(user.rewardDebt) */\n      swap1\n      pop\n        /* \"contracts/dETHRewardsPools.sol\":8960:8961  0 */\n      0x00\n        /* \"contracts/dETHRewardsPools.sol\":8949:8957  _pending */\n      dup2\n        /* \"contracts/dETHRewardsPools.sol\":8949:8961  _pending > 0 */\n      gt\n        /* \"contracts/dETHRewardsPools.sol\":8945:9093  if (_pending > 0) {... */\n      iszero\n      tag_282\n      jumpi\n        /* \"contracts/dETHRewardsPools.sol\":8982:9024  pool.token.safeTransfer(_sender, _pending) */\n      tag_283\n        /* \"contracts/dETHRewardsPools.sol\":9006:9013  _sender */\n      dup5\n        /* \"contracts/dETHRewardsPools.sol\":9015:9023  _pending */\n      dup3\n        /* \"contracts/dETHRewardsPools.sol\":8982:8986  pool */\n      dup6\n        /* \"contracts/dETHRewardsPools.sol\":8982:8992  pool.token */\n      0x00\n      add\n      0x00\n      swap1\n      sload\n      swap1\n      0x0100\n      exp\n      swap1\n      div\n      0xffffffffffffffffffffffffffffffffffffffff\n      and\n        /* \"contracts/dETHRewardsPools.sol\":8982:9005  pool.token.safeTransfer */\n      0xffffffffffffffffffffffffffffffffffffffff\n      and\n      tag_212\n      swap1\n        /* \"contracts/dETHRewardsPools.sol\":8982:9024  pool.token.safeTransfer(_sender, _pending) */\n      swap3\n      swap2\n      swap1\n      0xffffffff\n      and\n      jump\t// in\n    tag_283:\n        /* \"contracts/dETHRewardsPools.sol\":9059:9066  _sender */\n      dup4\n        /* \"contracts/dETHRewardsPools.sol\":9048:9077  RewardPaid(_sender, _pending) */\n      0xffffffffffffffffffffffffffffffffffffffff\n      and\n      0xe2403640ba68fed3a2f88b7557551d1993f84b99bb10ff833f0cf8db0c5e0486\n        /* \"contracts/dETHRewardsPools.sol\":9068:9076  _pending */\n      dup3\n        /* \"contracts/dETHRewardsPools.sol\":9048:9077  RewardPaid(_sender, _pending) */\n      mload(0x40)\n      tag_284\n      swap2\n      swap1\n      tag_36\n      jump\t// in\n    tag_284:\n      mload(0x40)\n      dup1\n      swap2\n      sub\n      swap1\n      log2\n        /* \"contracts/dETHRewardsPools.sol\":8945:9093  if (_pending > 0) {... */\n    tag_282:\n        /* \"contracts/dETHRewardsPools.sol\":8828:9104  {... */\n      pop\n        /* \"contracts/dETHRewardsPools.sol\":8807:9104  if (user.amount > 0) {... */\n    tag_278:\n        /* \"contracts/dETHRewardsPools.sol\":9128:9129  0 */\n      0x00\n        /* \"contracts/dETHRewardsPools.sol\":9118:9125  _amount */\n      dup5\n        /* \"contracts/dETHRewardsPools.sol\":9118:9129  _amount > 0 */\n      gt\n        /* \"contracts/dETHRewardsPools.sol\":9114:9696  if (_amount > 0) {... */\n      iszero\n      tag_285\n      jumpi\n        /* \"contracts/dETHRewardsPools.sol\":9146:9206  pool.token.safeTransferFrom(_sender, address(this), _amount) */\n      tag_286\n        /* \"contracts/dETHRewardsPools.sol\":9174:9181  _sender */\n      dup4\n        /* \"contracts/dETHRewardsPools.sol\":9191:9195  this */\n      address\n        /* \"contracts/dETHRewardsPools.sol\":9198:9205  _amount */\n      dup7\n        /* \"contracts/dETHRewardsPools.sol\":9146:9150  pool */\n      dup6\n        /* \"contracts/dETHRewardsPools.sol\":9146:9156  pool.token */\n      0x00\n      add\n      0x00\n      swap1\n      sload\n      swap1\n      0x0100\n      exp\n      swap1\n      div\n      0xffffffffffffffffffffffffffffffffffffffff\n      and\n        /* \"contracts/dETHRewardsPools.sol\":9146:9173  pool.token.safeTransferFrom */\n      0xffffffffffffffffffffffffffffffffffffffff\n      and\n      tag_287\n      swap1\n        /* \"contracts/dETHRewardsPools.sol\":9146:9206  pool.token.safeTransferFrom(_sender, address(this), _amount) */\n      swap4\n      swap3\n      swap2\n      swap1\n      0xffffffff\n      and\n      jump\t// in\n    tag_286:\n        /* \"contracts/dETHRewardsPools.sol\":9245:9246  0 */\n      0x00\n        /* \"contracts/dETHRewardsPools.sol\":9225:9229  pool */\n      dup3\n        /* \"contracts/dETHRewardsPools.sol\":9225:9242  pool.depositFeeBP */\n      0x04\n      add\n      0x00\n      swap1\n      sload\n      swap1\n      0x0100\n      exp\n      swap1\n      div\n      0xffff\n      and\n        /* \"contracts/dETHRewardsPools.sol\":9225:9246  pool.depositFeeBP > 0 */\n      0xffff\n      and\n      gt\n        /* \"contracts/dETHRewardsPools.sol\":9221:9563  if (pool.depositFeeBP > 0) {... */\n      iszero\n      tag_288\n      jumpi\n        /* \"contracts/dETHRewardsPools.sol\":9267:9285  uint256 depositFee */\n      0x00\n        /* \"contracts/dETHRewardsPools.sol\":9288:9329  _amount.mul(pool.depositFeeBP).div(10000) */\n      tag_289\n        /* \"contracts/dETHRewardsPools.sol\":9323:9328  10000 */\n      0x2710\n        /* \"contracts/dETHRewardsPools.sol\":9288:9318  _amount.mul(pool.depositFeeBP) */\n      tag_290\n        /* \"contracts/dETHRewardsPools.sol\":9300:9304  pool */\n      dup6\n        /* \"contracts/dETHRewardsPools.sol\":9300:9317  pool.depositFeeBP */\n      0x04\n      add\n      0x00\n      swap1\n      sload\n      swap1\n      0x0100\n      exp\n      swap1\n      div\n      0xffff\n      and\n        /* \"contracts/dETHRewardsPools.sol\":9288:9318  _amount.mul(pool.depositFeeBP) */\n      0xffff\n      and\n        /* \"contracts/dETHRewardsPools.sol\":9288:9295  _amount */\n      dup9\n        /* \"contracts/dETHRewardsPools.sol\":9288:9299  _amount.mul */\n      tag_155\n      swap1\n        /* \"contracts/dETHRewardsPools.sol\":9288:9318  _amount.mul(pool.depositFeeBP) */\n      swap2\n      swap1\n      0xffffffff\n      and\n      jump\t// in\n    tag_290:\n        /* \"contracts/dETHRewardsPools.sol\":9288:9322  _amount.mul(pool.depositFeeBP).div */\n      tag_156\n      swap1\n        /* \"contracts/dETHRewardsPools.sol\":9288:9329  _amount.mul(pool.depositFeeBP).div(10000) */\n      swap2\n      swap1\n      0xffffffff\n      and\n      jump\t// in\n    tag_289:\n        /* \"contracts/dETHRewardsPools.sol\":9267:9329  uint256 depositFee = _amount.mul(pool.depositFeeBP).div(10000) */\n      swap1\n      pop\n        /* \"contracts/dETHRewardsPools.sol\":9348:9395  pool.token.safeTransfer(feeAddress, depositFee) */\n      tag_291\n        /* \"contracts/dETHRewardsPools.sol\":9372:9382  feeAddress */\n      0x02\n      0x00\n      swap1\n      sload\n      swap1\n      0x0100\n      exp\n      swap1\n      div\n      0xffffffffffffffffffffffffffffffffffffffff\n      and\n        /* \"contracts/dETHRewardsPools.sol\":9384:9394  depositFee */\n      dup3\n        /* \"contracts/dETHRewardsPools.sol\":9348:9352  pool */\n      dup6\n        /* \"contracts/dETHRewardsPools.sol\":9348:9358  pool.token */\n      0x00\n      add\n      0x00\n      swap1\n      sload\n      swap1\n      0x0100\n      exp\n      swap1\n      div\n      0xffffffffffffffffffffffffffffffffffffffff\n      and\n        /* \"contracts/dETHRewardsPools.sol\":9348:9371  pool.token.safeTransfer */\n      0xffffffffffffffffffffffffffffffffffffffff\n      and\n      tag_212\n      swap1\n        /* \"contracts/dETHRewardsPools.sol\":9348:9395  pool.token.safeTransfer(feeAddress, depositFee) */\n      swap3\n      swap2\n      swap1\n      0xffffffff\n      and\n      jump\t// in\n    tag_291:\n        /* \"contracts/dETHRewardsPools.sol\":9428:9468  user.amount.add(_amount).sub(depositFee) */\n      tag_292\n        /* \"contracts/dETHRewardsPools.sol\":9457:9467  depositFee */\n      dup2\n        /* \"contracts/dETHRewardsPools.sol\":9428:9452  user.amount.add(_amount) */\n      tag_293\n        /* \"contracts/dETHRewardsPools.sol\":9444:9451  _amount */\n      dup8\n        /* \"contracts/dETHRewardsPools.sol\":9428:9432  user */\n      dup6\n        /* \"contracts/dETHRewardsPools.sol\":9428:9439  user.amount */\n      0x00\n      add\n      sload\n        /* \"contracts/dETHRewardsPools.sol\":9428:9443  user.amount.add */\n      tag_137\n      swap1\n        /* \"contracts/dETHRewardsPools.sol\":9428:9452  user.amount.add(_amount) */\n      swap2\n      swap1\n      0xffffffff\n      and\n      jump\t// in\n    tag_293:\n        /* \"contracts/dETHRewardsPools.sol\":9428:9456  user.amount.add(_amount).sub */\n      tag_163\n      swap1\n        /* \"contracts/dETHRewardsPools.sol\":9428:9468  user.amount.add(_amount).sub(depositFee) */\n      swap2\n      swap1\n      0xffffffff\n      and\n      jump\t// in\n    tag_292:\n        /* \"contracts/dETHRewardsPools.sol\":9414:9418  user */\n      dup3\n        /* \"contracts/dETHRewardsPools.sol\":9414:9425  user.amount */\n      0x00\n      add\n        /* \"contracts/dETHRewardsPools.sol\":9414:9468  user.amount = user.amount.add(_amount).sub(depositFee) */\n      dup2\n      swap1\n      sstore\n      pop\n        /* \"contracts/dETHRewardsPools.sol\":9248:9484  {... */\n      pop\n        /* \"contracts/dETHRewardsPools.sol\":9221:9563  if (pool.depositFeeBP > 0) {... */\n      jump(tag_294)\n    tag_288:\n        /* \"contracts/dETHRewardsPools.sol\":9523:9547  user.amount.add(_amount) */\n      tag_295\n        /* \"contracts/dETHRewardsPools.sol\":9539:9546  _amount */\n      dup5\n        /* \"contracts/dETHRewardsPools.sol\":9523:9527  user */\n      dup3\n        /* \"contracts/dETHRewardsPools.sol\":9523:9534  user.amount */\n      0x00\n      add\n      sload\n        /* \"contracts/dETHRewardsPools.sol\":9523:9538  user.amount.add */\n      tag_137\n      swap1\n        /* \"contracts/dETHRewardsPools.sol\":9523:9547  user.amount.add(_amount) */\n      swap2\n      swap1\n      0xffffffff\n      and\n      jump\t// in\n    tag_295:\n        /* \"contracts/dETHRewardsPools.sol\":9509:9513  user */\n      dup2\n        /* \"contracts/dETHRewardsPools.sol\":9509:9520  user.amount */\n      0x00\n      add\n        /* \"contracts/dETHRewardsPools.sol\":9509:9547  user.amount = user.amount.add(_amount) */\n      dup2\n      swap1\n      sstore\n      pop\n        /* \"contracts/dETHRewardsPools.sol\":9221:9563  if (pool.depositFeeBP > 0) {... */\n    tag_294:\n        /* \"contracts/dETHRewardsPools.sol\":9591:9638  user.amount.mul(pool.accDETHPerShare).div(1e18) */\n      tag_296\n        /* \"contracts/dETHRewardsPools.sol\":9633:9637  1e18 */\n      0x0de0b6b3a7640000\n        /* \"contracts/dETHRewardsPools.sol\":9591:9628  user.amount.mul(pool.accDETHPerShare) */\n      tag_297\n        /* \"contracts/dETHRewardsPools.sol\":9607:9611  pool */\n      dup5\n        /* \"contracts/dETHRewardsPools.sol\":9607:9627  pool.accDETHPerShare */\n      0x03\n      add\n      sload\n        /* \"contracts/dETHRewardsPools.sol\":9591:9595  user */\n      dup5\n        /* \"contracts/dETHRewardsPools.sol\":9591:9602  user.amount */\n      0x00\n      add\n      sload\n        /* \"contracts/dETHRewardsPools.sol\":9591:9606  user.amount.mul */\n      tag_155\n      swap1\n        /* \"contracts/dETHRewardsPools.sol\":9591:9628  user.amount.mul(pool.accDETHPerShare) */\n      swap2\n      swap1\n      0xffffffff\n      and\n      jump\t// in\n    tag_297:\n        /* \"contracts/dETHRewardsPools.sol\":9591:9632  user.amount.mul(pool.accDETHPerShare).div */\n      tag_156\n      swap1\n        /* \"contracts/dETHRewardsPools.sol\":9591:9638  user.amount.mul(pool.accDETHPerShare).div(1e18) */\n      swap2\n      swap1\n      0xffffffff\n      and\n      jump\t// in\n    tag_296:\n        /* \"contracts/dETHRewardsPools.sol\":9573:9577  user */\n      dup2\n        /* \"contracts/dETHRewardsPools.sol\":9573:9588  user.rewardDebt */\n      0x01\n      add\n        /* \"contracts/dETHRewardsPools.sol\":9573:9638  user.rewardDebt = user.amount.mul(pool.accDETHPerShare).div(1e18) */\n      dup2\n      swap1\n      sstore\n      pop\n        /* \"contracts/dETHRewardsPools.sol\":9671:9675  _pid */\n      dup5\n        /* \"contracts/dETHRewardsPools.sol\":9662:9669  _sender */\n      dup4\n        /* \"contracts/dETHRewardsPools.sol\":9654:9685  Deposit(_sender, _pid, _amount) */\n      0xffffffffffffffffffffffffffffffffffffffff\n      and\n      0x90890809c654f11d6e72a28fa60149770a0d11ec6c92319d6ceb2bb0a4ea1a15\n        /* \"contracts/dETHRewardsPools.sol\":9677:9684  _amount */\n      dup7\n        /* \"contracts/dETHRewardsPools.sol\":9654:9685  Deposit(_sender, _pid, _amount) */\n      mload(0x40)\n      tag_298\n      swap2\n      swap1\n      tag_36\n      jump\t// in\n    tag_298:\n      mload(0x40)\n      dup1\n      swap2\n      sub\n      swap1\n      log3\n        /* \"contracts/dETHRewardsPools.sol\":9114:9696  if (_amount > 0) {... */\n    tag_285:\n        /* \"contracts/dETHRewardsPools.sol\":8623:9703  {... */\n      pop\n      pop\n      pop\n        /* \"contracts/dETHRewardsPools.sol\":8568:9703  function deposit(uint256 _pid, uint256 _amount) public {... */\n      pop\n      pop\n      jump\t// out\n        /* \"contracts/dETHRewardsPools.sol\":5339:5721  function setGlobalDepositFee(uint16 _globalDepositFeeBP) external onlyOperator {... */\n    tag_113:\n        /* \"contracts/dETHRewardsPools.sol\":2994:3004  msg.sender */\n      caller\n        /* \"contracts/dETHRewardsPools.sol\":2982:3004  operator == msg.sender */\n      0xffffffffffffffffffffffffffffffffffffffff\n      and\n        /* \"contracts/dETHRewardsPools.sol\":2982:2990  operator */\n      0x00\n      dup1\n      sload\n      swap1\n      0x0100\n      exp\n      swap1\n      div\n      0xffffffffffffffffffffffffffffffffffffffff\n      and\n        /* \"contracts/dETHRewardsPools.sol\":2982:3004  operator == msg.sender */\n      0xffffffffffffffffffffffffffffffffffffffff\n      and\n      eq\n        /* \"contracts/dETHRewardsPools.sol\":2974:3051  require(operator == msg.sender, \"dETHRewardPool: caller is not the operator\") */\n      tag_300\n      jumpi\n      mload(0x40)\n      0x08c379a000000000000000000000000000000000000000000000000000000000\n      dup2\n      mstore\n      0x04\n      add\n      tag_301\n      swap1\n      tag_117\n      jump\t// in\n    tag_301:\n      mload(0x40)\n      dup1\n      swap2\n      sub\n      swap1\n      revert\n    tag_300:\n        /* \"contracts/dETHRewardsPools.sol\":5460:5461  0 */\n      0x00\n        /* \"contracts/dETHRewardsPools.sol\":5437:5456  _globalDepositFeeBP */\n      dup2\n        /* \"contracts/dETHRewardsPools.sol\":5437:5461  _globalDepositFeeBP <= 0 */\n      0xffff\n      and\n      gt\n      iszero\n        /* \"contracts/dETHRewardsPools.sol\":5429:5503  require(_globalDepositFeeBP <= 0, \"set: invalid deposit fee basis points\") */\n      tag_303\n      jumpi\n      mload(0x40)\n      0x08c379a000000000000000000000000000000000000000000000000000000000\n      dup2\n      mstore\n      0x04\n      add\n      tag_304\n      swap1\n      tag_305\n      jump\t// in\n    tag_304:\n      mload(0x40)\n      dup1\n      swap2\n      sub\n      swap1\n      revert\n    tag_303:\n        /* \"contracts/dETHRewardsPools.sol\":5519:5530  uint256 pid */\n      0x00\n        /* \"contracts/dETHRewardsPools.sol\":5514:5714  for (uint256 pid = 0; pid < poolInfo.length; ++pid) {                ... */\n    tag_306:\n        /* \"contracts/dETHRewardsPools.sol\":5542:5550  poolInfo */\n      0x03\n        /* \"contracts/dETHRewardsPools.sol\":5542:5557  poolInfo.length */\n      dup1\n      sload\n      swap1\n      pop\n        /* \"contracts/dETHRewardsPools.sol\":5536:5539  pid */\n      dup2\n        /* \"contracts/dETHRewardsPools.sol\":5536:5557  pid < poolInfo.length */\n      lt\n        /* \"contracts/dETHRewardsPools.sol\":5514:5714  for (uint256 pid = 0; pid < poolInfo.length; ++pid) {                ... */\n      iszero\n      tag_307\n      jumpi\n        /* \"contracts/dETHRewardsPools.sol\":5606:5609  pid */\n      dup1\n        /* \"contracts/dETHRewardsPools.sol\":5598:5687  setPool(pid, address(poolInfo[pid].token), poolInfo[pid].allocPoint, _globalDepositFeeBP) */\n      0x39f0c3d078af018954b4fa56832a05a2b511afaa999b133ea3f1c487c21ed287\n        /* \"contracts/dETHRewardsPools.sol\":5619:5627  poolInfo */\n      0x03\n        /* \"contracts/dETHRewardsPools.sol\":5628:5631  pid */\n      dup4\n        /* \"contracts/dETHRewardsPools.sol\":5619:5632  poolInfo[pid] */\n      dup2\n      sload\n      dup2\n      lt\n      tag_309\n      jumpi\n      tag_310\n      tag_143\n      jump\t// in\n    tag_310:\n    tag_309:\n      swap1\n      0x00\n      mstore\n      keccak256(0x00, 0x20)\n      swap1\n      0x05\n      mul\n      add\n        /* \"contracts/dETHRewardsPools.sol\":5619:5638  poolInfo[pid].token */\n      0x00\n      add\n      0x00\n      swap1\n      sload\n      swap1\n      0x0100\n      exp\n      swap1\n      div\n      0xffffffffffffffffffffffffffffffffffffffff\n      and\n        /* \"contracts/dETHRewardsPools.sol\":5641:5649  poolInfo */\n      0x03\n        /* \"contracts/dETHRewardsPools.sol\":5650:5653  pid */\n      dup5\n        /* \"contracts/dETHRewardsPools.sol\":5641:5654  poolInfo[pid] */\n      dup2\n      sload\n      dup2\n      lt\n      tag_312\n      jumpi\n      tag_313\n      tag_143\n      jump\t// in\n    tag_313:\n    tag_312:\n      swap1\n      0x00\n      mstore\n      keccak256(0x00, 0x20)\n      swap1\n      0x05\n      mul\n      add\n        /* \"contracts/dETHRewardsPools.sol\":5641:5665  poolInfo[pid].allocPoint */\n      0x01\n      add\n      sload\n        /* \"contracts/dETHRewardsPools.sol\":5667:5686  _globalDepositFeeBP */\n      dup6\n        /* \"contracts/dETHRewardsPools.sol\":5598:5687  setPool(pid, address(poolInfo[pid].token), poolInfo[pid].allocPoint, _globalDepositFeeBP) */\n      mload(0x40)\n      tag_315\n      swap4\n      swap3\n      swap2\n      swap1\n      tag_316\n      jump\t// in\n    tag_315:\n      mload(0x40)\n      dup1\n      swap2\n      sub\n      swap1\n      log2\n        /* \"contracts/dETHRewardsPools.sol\":5559:5564  ++pid */\n      dup1\n      tag_317\n      swap1\n      tag_261\n      jump\t// in\n    tag_317:\n      swap1\n      pop\n        /* \"contracts/dETHRewardsPools.sol\":5514:5714  for (uint256 pid = 0; pid < poolInfo.length; ++pid) {                ... */\n      jump(tag_306)\n    tag_307:\n      pop\n        /* \"contracts/dETHRewardsPools.sol\":5339:5721  function setGlobalDepositFee(uint16 _globalDepositFeeBP) external onlyOperator {... */\n      pop\n      jump\t// out\n        /* \"contracts/dETHRewardsPools.sol\":3079:3339  function checkPoolDuplicate(IERC20 _token) internal view {... */\n    tag_120:\n        /* \"contracts/dETHRewardsPools.sol\":3147:3161  uint256 length */\n      0x00\n        /* \"contracts/dETHRewardsPools.sol\":3164:3172  poolInfo */\n      0x03\n        /* \"contracts/dETHRewardsPools.sol\":3164:3179  poolInfo.length */\n      dup1\n      sload\n      swap1\n      pop\n        /* \"contracts/dETHRewardsPools.sol\":3147:3179  uint256 length = poolInfo.length */\n      swap1\n      pop\n        /* \"contracts/dETHRewardsPools.sol\":3195:3206  uint256 pid */\n      0x00\n        /* \"contracts/dETHRewardsPools.sol\":3190:3332  for (uint256 pid = 0; pid < length; ++pid) {... */\n    tag_319:\n        /* \"contracts/dETHRewardsPools.sol\":3218:3224  length */\n      dup2\n        /* \"contracts/dETHRewardsPools.sol\":3212:3215  pid */\n      dup2\n        /* \"contracts/dETHRewardsPools.sol\":3212:3224  pid < length */\n      lt\n        /* \"contracts/dETHRewardsPools.sol\":3190:3332  for (uint256 pid = 0; pid < length; ++pid) {... */\n      iszero\n      tag_320\n      jumpi\n        /* \"contracts/dETHRewardsPools.sol\":3279:3285  _token */\n      dup3\n        /* \"contracts/dETHRewardsPools.sol\":3256:3285  poolInfo[pid].token != _token */\n      0xffffffffffffffffffffffffffffffffffffffff\n      and\n        /* \"contracts/dETHRewardsPools.sol\":3256:3264  poolInfo */\n      0x03\n        /* \"contracts/dETHRewardsPools.sol\":3265:3268  pid */\n      dup3\n        /* \"contracts/dETHRewardsPools.sol\":3256:3269  poolInfo[pid] */\n      dup2\n      sload\n      dup2\n      lt\n      tag_322\n      jumpi\n      tag_323\n      tag_143\n      jump\t// in\n    tag_323:\n    tag_322:\n      swap1\n      0x00\n      mstore\n      keccak256(0x00, 0x20)\n      swap1\n      0x05\n      mul\n      add\n        /* \"contracts/dETHRewardsPools.sol\":3256:3275  poolInfo[pid].token */\n      0x00\n      add\n      0x00\n      swap1\n      sload\n      swap1\n      0x0100\n      exp\n      swap1\n      div\n      0xffffffffffffffffffffffffffffffffffffffff\n      and\n        /* \"contracts/dETHRewardsPools.sol\":3256:3285  poolInfo[pid].token != _token */\n      0xffffffffffffffffffffffffffffffffffffffff\n      and\n      sub\n        /* \"contracts/dETHRewardsPools.sol\":3248:3320  require(poolInfo[pid].token != _token, \"dETHRewardPool: existing pool?\") */\n      tag_325\n      jumpi\n      mload(0x40)\n      0x08c379a000000000000000000000000000000000000000000000000000000000\n      dup2\n      mstore\n      0x04\n      add\n      tag_326\n      swap1\n      tag_327\n      jump\t// in\n    tag_326:\n      mload(0x40)\n      dup1\n      swap2\n      sub\n      swap1\n      revert\n    tag_325:\n        /* \"contracts/dETHRewardsPools.sol\":3226:3231  ++pid */\n      dup1\n      tag_328\n      swap1\n      tag_261\n      jump\t// in\n    tag_328:\n      swap1\n      pop\n        /* \"contracts/dETHRewardsPools.sol\":3190:3332  for (uint256 pid = 0; pid < length; ++pid) {... */\n      jump(tag_319)\n    tag_320:\n      pop\n        /* \"contracts/dETHRewardsPools.sol\":3136:3339  {... */\n      pop\n        /* \"contracts/dETHRewardsPools.sol\":3079:3339  function checkPoolDuplicate(IERC20 _token) internal view {... */\n      pop\n      jump\t// out\n        /* \"@openzeppelin/contracts/utils/math/SafeMath.sol\":2755:2851  function add(uint256 a, uint256 b) internal pure returns (uint256) {... */\n    tag_137:\n        /* \"@openzeppelin/contracts/utils/math/SafeMath.sol\":2813:2820  uint256 */\n      0x00\n        /* \"@openzeppelin/contracts/utils/math/SafeMath.sol\":2843:2844  b */\n      dup2\n        /* \"@openzeppelin/contracts/utils/math/SafeMath.sol\":2839:2840  a */\n      dup4\n        /* \"@openzeppelin/contracts/utils/math/SafeMath.sol\":2839:2844  a + b */\n      tag_330\n      swap2\n      swap1\n      tag_246\n      jump\t// in\n    tag_330:\n        /* \"@openzeppelin/contracts/utils/math/SafeMath.sol\":2832:2844  return a + b */\n      swap1\n      pop\n        /* \"@openzeppelin/contracts/utils/math/SafeMath.sol\":2755:2851  function add(uint256 a, uint256 b) internal pure returns (uint256) {... */\n      swap3\n      swap2\n      pop\n      pop\n      jump\t// out\n        /* \"@openzeppelin/contracts/utils/math/SafeMath.sol\":3465:3561  function mul(uint256 a, uint256 b) internal pure returns (uint256) {... */\n    tag_155:\n        /* \"@openzeppelin/contracts/utils/math/SafeMath.sol\":3523:3530  uint256 */\n      0x00\n        /* \"@openzeppelin/contracts/utils/math/SafeMath.sol\":3553:3554  b */\n      dup2\n        /* \"@openzeppelin/contracts/utils/math/SafeMath.sol\":3549:3550  a */\n      dup4\n        /* \"@openzeppelin/contracts/utils/math/SafeMath.sol\":3549:3554  a * b */\n      tag_332\n      swap2\n      swap1\n      tag_333\n      jump\t// in\n    tag_332:\n        /* \"@openzeppelin/contracts/utils/math/SafeMath.sol\":3542:3554  return a * b */\n      swap1\n      pop\n        /* \"@openzeppelin/contracts/utils/math/SafeMath.sol\":3465:3561  function mul(uint256 a, uint256 b) internal pure returns (uint256) {... */\n      swap3\n      swap2\n      pop\n      pop\n      jump\t// out\n        /* \"@openzeppelin/contracts/utils/math/SafeMath.sol\":3850:3946  function div(uint256 a, uint256 b) internal pure returns (uint256) {... */\n    tag_156:\n        /* \"@openzeppelin/contracts/utils/math/SafeMath.sol\":3908:3915  uint256 */\n      0x00\n        /* \"@openzeppelin/contracts/utils/math/SafeMath.sol\":3938:3939  b */\n      dup2\n        /* \"@openzeppelin/contracts/utils/math/SafeMath.sol\":3934:3935  a */\n      dup4\n        /* \"@openzeppelin/contracts/utils/math/SafeMath.sol\":3934:3939  a / b */\n      tag_335\n      swap2\n      swap1\n      tag_336\n      jump\t// in\n    tag_335:\n        /* \"@openzeppelin/contracts/utils/math/SafeMath.sol\":3927:3939  return a / b */\n      swap1\n      pop\n        /* \"@openzeppelin/contracts/utils/math/SafeMath.sol\":3850:3946  function div(uint256 a, uint256 b) internal pure returns (uint256) {... */\n      swap3\n      swap2\n      pop\n      pop\n      jump\t// out\n        /* \"@openzeppelin/contracts/utils/math/SafeMath.sol\":3122:3218  function sub(uint256 a, uint256 b) internal pure returns (uint256) {... */\n    tag_163:\n        /* \"@openzeppelin/contracts/utils/math/SafeMath.sol\":3180:3187  uint256 */\n      0x00\n        /* \"@openzeppelin/contracts/utils/math/SafeMath.sol\":3210:3211  b */\n      dup2\n        /* \"@openzeppelin/contracts/utils/math/SafeMath.sol\":3206:3207  a */\n      dup4\n        /* \"@openzeppelin/contracts/utils/math/SafeMath.sol\":3206:3211  a - b */\n      tag_338\n      swap2\n      swap1\n      tag_339\n      jump\t// in\n    tag_338:\n        /* \"@openzeppelin/contracts/utils/math/SafeMath.sol\":3199:3211  return a - b */\n      swap1\n      pop\n        /* \"@openzeppelin/contracts/utils/math/SafeMath.sol\":3122:3218  function sub(uint256 a, uint256 b) internal pure returns (uint256) {... */\n      swap3\n      swap2\n      pop\n      pop\n      jump\t// out\n        /* \"contracts/dETHRewardsPools.sol\":11111:11476  function safedETHTransfer(address _to, uint256 _amount) internal {... */\n    tag_207:\n        /* \"contracts/dETHRewardsPools.sol\":11187:11207  uint256 _dETHBalance */\n      0x00\n        /* \"contracts/dETHRewardsPools.sol\":11210:11214  deth */\n      0x01\n      0x00\n      swap1\n      sload\n      swap1\n      0x0100\n      exp\n      swap1\n      div\n      0xffffffffffffffffffffffffffffffffffffffff\n      and\n        /* \"contracts/dETHRewardsPools.sol\":11210:11224  deth.balanceOf */\n      0xffffffffffffffffffffffffffffffffffffffff\n      and\n      0x70a08231\n        /* \"contracts/dETHRewardsPools.sol\":11233:11237  this */\n      address\n        /* \"contracts/dETHRewardsPools.sol\":11210:11239  deth.balanceOf(address(this)) */\n      mload(0x40)\n      dup3\n      0xffffffff\n      and\n      0xe0\n      shl\n      dup2\n      mstore\n      0x04\n      add\n      tag_341\n      swap2\n      swap1\n      tag_63\n      jump\t// in\n    tag_341:\n      0x20\n      mload(0x40)\n      dup1\n      dup4\n      sub\n      dup2\n      dup7\n      gas\n      staticcall\n      iszero\n      dup1\n      iszero\n      tag_343\n      jumpi\n      returndatasize\n      0x00\n      dup1\n      returndatacopy\n      revert(0x00, returndatasize)\n    tag_343:\n      pop\n      pop\n      pop\n      pop\n      mload(0x40)\n      returndatasize\n      not(0x1f)\n      0x1f\n      dup3\n      add\n      and\n      dup3\n      add\n      dup1\n      0x40\n      mstore\n      pop\n      dup2\n      add\n      swap1\n      tag_344\n      swap2\n      swap1\n      tag_149\n      jump\t// in\n    tag_344:\n        /* \"contracts/dETHRewardsPools.sol\":11187:11239  uint256 _dETHBalance = deth.balanceOf(address(this)) */\n      swap1\n      pop\n        /* \"contracts/dETHRewardsPools.sol\":11269:11270  0 */\n      0x00\n        /* \"contracts/dETHRewardsPools.sol\":11254:11266  _dETHBalance */\n      dup2\n        /* \"contracts/dETHRewardsPools.sol\":11254:11270  _dETHBalance > 0 */\n      gt\n        /* \"contracts/dETHRewardsPools.sol\":11250:11469  if (_dETHBalance > 0) {... */\n      iszero\n      tag_345\n      jumpi\n        /* \"contracts/dETHRewardsPools.sol\":11301:11313  _dETHBalance */\n      dup1\n        /* \"contracts/dETHRewardsPools.sol\":11291:11298  _amount */\n      dup3\n        /* \"contracts/dETHRewardsPools.sol\":11291:11313  _amount > _dETHBalance */\n      gt\n        /* \"contracts/dETHRewardsPools.sol\":11287:11458  if (_amount > _dETHBalance) {... */\n      iszero\n      tag_346\n      jumpi\n        /* \"contracts/dETHRewardsPools.sol\":11334:11370  deth.safeTransfer(_to, _dETHBalance) */\n      tag_347\n        /* \"contracts/dETHRewardsPools.sol\":11352:11355  _to */\n      dup4\n        /* \"contracts/dETHRewardsPools.sol\":11357:11369  _dETHBalance */\n      dup3\n        /* \"contracts/dETHRewardsPools.sol\":11334:11338  deth */\n      0x01\n      0x00\n      swap1\n      sload\n      swap1\n      0x0100\n      exp\n      swap1\n      div\n      0xffffffffffffffffffffffffffffffffffffffff\n      and\n        /* \"contracts/dETHRewardsPools.sol\":11334:11351  deth.safeTransfer */\n      0xffffffffffffffffffffffffffffffffffffffff\n      and\n      tag_212\n      swap1\n        /* \"contracts/dETHRewardsPools.sol\":11334:11370  deth.safeTransfer(_to, _dETHBalance) */\n      swap3\n      swap2\n      swap1\n      0xffffffff\n      and\n      jump\t// in\n    tag_347:\n        /* \"contracts/dETHRewardsPools.sol\":11287:11458  if (_amount > _dETHBalance) {... */\n      jump(tag_348)\n    tag_346:\n        /* \"contracts/dETHRewardsPools.sol\":11411:11442  deth.safeTransfer(_to, _amount) */\n      tag_349\n        /* \"contracts/dETHRewardsPools.sol\":11429:11432  _to */\n      dup4\n        /* \"contracts/dETHRewardsPools.sol\":11434:11441  _amount */\n      dup4\n        /* \"contracts/dETHRewardsPools.sol\":11411:11415  deth */\n      0x01\n      0x00\n      swap1\n      sload\n      swap1\n      0x0100\n      exp\n      swap1\n      div\n      0xffffffffffffffffffffffffffffffffffffffff\n      and\n        /* \"contracts/dETHRewardsPools.sol\":11411:11428  deth.safeTransfer */\n      0xffffffffffffffffffffffffffffffffffffffff\n      and\n      tag_212\n      swap1\n        /* \"contracts/dETHRewardsPools.sol\":11411:11442  deth.safeTransfer(_to, _amount) */\n      swap3\n      swap2\n      swap1\n      0xffffffff\n      and\n      jump\t// in\n    tag_349:\n        /* \"contracts/dETHRewardsPools.sol\":11287:11458  if (_amount > _dETHBalance) {... */\n    tag_348:\n        /* \"contracts/dETHRewardsPools.sol\":11250:11469  if (_dETHBalance > 0) {... */\n    tag_345:\n        /* \"contracts/dETHRewardsPools.sol\":11176:11476  {... */\n      pop\n        /* \"contracts/dETHRewardsPools.sol\":11111:11476  function safedETHTransfer(address _to, uint256 _amount) internal {... */\n      pop\n      pop\n      jump\t// out\n        /* \"@openzeppelin/contracts/token/ERC20/utils/SafeERC20.sol\":763:968  function safeTransfer(... */\n    tag_212:\n        /* \"@openzeppelin/contracts/token/ERC20/utils/SafeERC20.sol\":875:961  _callOptionalReturn(token, abi.encodeWithSelector(token.transfer.selector, to, value)) */\n      tag_351\n        /* \"@openzeppelin/contracts/token/ERC20/utils/SafeERC20.sol\":895:900  token */\n      dup4\n        /* \"@openzeppelin/contracts/token/ERC20/utils/SafeERC20.sol\":925:948  token.transfer.selector */\n      shl(0xe0, 0xa9059cbb)\n        /* \"@openzeppelin/contracts/token/ERC20/utils/SafeERC20.sol\":950:952  to */\n      dup5\n        /* \"@openzeppelin/contracts/token/ERC20/utils/SafeERC20.sol\":954:959  value */\n      dup5\n        /* \"@openzeppelin/contracts/token/ERC20/utils/SafeERC20.sol\":902:960  abi.encodeWithSelector(token.transfer.selector, to, value) */\n      add(0x24, mload(0x40))\n      tag_352\n      swap3\n      swap2\n      swap1\n      tag_353\n      jump\t// in\n    tag_352:\n      mload(0x40)\n      0x20\n      dup2\n      dup4\n      sub\n      sub\n      dup2\n      mstore\n      swap1\n      0x40\n      mstore\n      swap1\n      not(0xffffffffffffffffffffffffffffffffffffffffffffffffffffffff)\n      and\n      0x20\n      dup3\n      add\n      dup1\n      mload\n      0xffffffffffffffffffffffffffffffffffffffffffffffffffffffff\n      dup4\n      dup2\n      dup4\n      and\n      or\n      dup4\n      mstore\n      pop\n      pop\n      pop\n      pop\n        /* \"@openzeppelin/contracts/token/ERC20/utils/SafeERC20.sol\":875:894  _callOptionalReturn */\n      tag_354\n        /* \"@openzeppelin/contracts/token/ERC20/utils/SafeERC20.sol\":875:961  _callOptionalReturn(token, abi.encodeWithSelector(token.transfer.selector, to, value)) */\n      jump\t// in\n    tag_351:\n        /* \"@openzeppelin/contracts/token/ERC20/utils/SafeERC20.sol\":763:968  function safeTransfer(... */\n      pop\n      pop\n      pop\n      jump\t// out\n        /* \"@openzeppelin/contracts/token/ERC20/utils/SafeERC20.sol\":974:1215  function safeTransferFrom(... */\n    tag_287:\n        /* \"@openzeppelin/contracts/token/ERC20/utils/SafeERC20.sol\":1112:1208  _callOptionalReturn(token, abi.encodeWithSelector(token.transferFrom.selector, from, to, value)) */\n      tag_356\n        /* \"@openzeppelin/contracts/token/ERC20/utils/SafeERC20.sol\":1132:1137  token */\n      dup5\n        /* \"@openzeppelin/contracts/token/ERC20/utils/SafeERC20.sol\":1162:1189  token.transferFrom.selector */\n      shl(0xe0, 0x23b872dd)\n        /* \"@openzeppelin/contracts/token/ERC20/utils/SafeERC20.sol\":1191:1195  from */\n      dup6\n        /* \"@openzeppelin/contracts/token/ERC20/utils/SafeERC20.sol\":1197:1199  to */\n      dup6\n        /* \"@openzeppelin/contracts/token/ERC20/utils/SafeERC20.sol\":1201:1206  value */\n      dup6\n        /* \"@openzeppelin/contracts/token/ERC20/utils/SafeERC20.sol\":1139:1207  abi.encodeWithSelector(token.transferFrom.selector, from, to, value) */\n      add(0x24, mload(0x40))\n      tag_357\n      swap4\n      swap3\n      swap2\n      swap1\n      tag_358\n      jump\t// in\n    tag_357:\n      mload(0x40)\n      0x20\n      dup2\n      dup4\n      sub\n      sub\n      dup2\n      mstore\n      swap1\n      0x40\n      mstore\n      swap1\n      not(0xffffffffffffffffffffffffffffffffffffffffffffffffffffffff)\n      and\n      0x20\n      dup3\n      add\n      dup1\n      mload\n      0xffffffffffffffffffffffffffffffffffffffffffffffffffffffff\n      dup4\n      dup2\n      dup4\n      and\n      or\n      dup4\n      mstore\n      pop\n      pop\n      pop\n      pop\n        /* \"@openzeppelin/contracts/token/ERC20/utils/SafeERC20.sol\":1112:1131  _callOptionalReturn */\n      tag_354\n        /* \"@openzeppelin/contracts/token/ERC20/utils/SafeERC20.sol\":1112:1208  _callOptionalReturn(token, abi.encodeWithSelector(token.transferFrom.selector, from, to, value)) */\n      jump\t// in\n    tag_356:\n        /* \"@openzeppelin/contracts/token/ERC20/utils/SafeERC20.sol\":974:1215  function safeTransferFrom(... */\n      pop\n      pop\n      pop\n      pop\n      jump\t// out\n        /* \"@openzeppelin/contracts/token/ERC20/utils/SafeERC20.sol\":3747:4453  function _callOptionalReturn(IERC20 token, bytes memory data) private {... */\n    tag_354:\n        /* \"@openzeppelin/contracts/token/ERC20/utils/SafeERC20.sol\":4166:4189  bytes memory returndata */\n      0x00\n        /* \"@openzeppelin/contracts/token/ERC20/utils/SafeERC20.sol\":4192:4261  address(token).functionCall(data, \"SafeERC20: low-level call failed\") */\n      tag_360\n        /* \"@openzeppelin/contracts/token/ERC20/utils/SafeERC20.sol\":4220:4224  data */\n      dup3\n        /* \"@openzeppelin/contracts/token/ERC20/utils/SafeERC20.sol\":4192:4261  address(token).functionCall(data, \"SafeERC20: low-level call failed\") */\n      mload(0x40)\n      dup1\n      0x40\n      add\n      0x40\n      mstore\n      dup1\n      0x20\n      dup2\n      mstore\n      0x20\n      add\n      0x5361666545524332303a206c6f772d6c6576656c2063616c6c206661696c6564\n      dup2\n      mstore\n      pop\n        /* \"@openzeppelin/contracts/token/ERC20/utils/SafeERC20.sol\":4200:4205  token */\n      dup6\n        /* \"@openzeppelin/contracts/token/ERC20/utils/SafeERC20.sol\":4192:4219  address(token).functionCall */\n      0xffffffffffffffffffffffffffffffffffffffff\n      and\n      tag_361\n      swap1\n        /* \"@openzeppelin/contracts/token/ERC20/utils/SafeERC20.sol\":4192:4261  address(token).functionCall(data, \"SafeERC20: low-level call failed\") */\n      swap3\n      swap2\n      swap1\n      0xffffffff\n      and\n      jump\t// in\n    tag_360:\n        /* \"@openzeppelin/contracts/token/ERC20/utils/SafeERC20.sol\":4166:4261  bytes memory returndata = address(token).functionCall(data, \"SafeERC20: low-level call failed\") */\n      swap1\n      pop\n        /* \"@openzeppelin/contracts/token/ERC20/utils/SafeERC20.sol\":4295:4296  0 */\n      0x00\n        /* \"@openzeppelin/contracts/token/ERC20/utils/SafeERC20.sol\":4275:4285  returndata */\n      dup2\n        /* \"@openzeppelin/contracts/token/ERC20/utils/SafeERC20.sol\":4275:4292  returndata.length */\n      mload\n        /* \"@openzeppelin/contracts/token/ERC20/utils/SafeERC20.sol\":4275:4296  returndata.length > 0 */\n      gt\n        /* \"@openzeppelin/contracts/token/ERC20/utils/SafeERC20.sol\":4271:4447  if (returndata.length > 0) {... */\n      iszero\n      tag_362\n      jumpi\n        /* \"@openzeppelin/contracts/token/ERC20/utils/SafeERC20.sol\":4370:4380  returndata */\n      dup1\n        /* \"@openzeppelin/contracts/token/ERC20/utils/SafeERC20.sol\":4359:4389  abi.decode(returndata, (bool)) */\n      dup1\n      0x20\n      add\n      swap1\n      mload\n      dup2\n      add\n      swap1\n      tag_363\n      swap2\n      swap1\n      tag_364\n      jump\t// in\n    tag_363:\n        /* \"@openzeppelin/contracts/token/ERC20/utils/SafeERC20.sol\":4351:4436  require(abi.decode(returndata, (bool)), \"SafeERC20: ERC20 operation did not succeed\") */\n      tag_365\n      jumpi\n      mload(0x40)\n      0x08c379a000000000000000000000000000000000000000000000000000000000\n      dup2\n      mstore\n      0x04\n      add\n      tag_366\n      swap1\n      tag_367\n      jump\t// in\n    tag_366:\n      mload(0x40)\n      dup1\n      swap2\n      sub\n      swap1\n      revert\n    tag_365:\n        /* \"@openzeppelin/contracts/token/ERC20/utils/SafeERC20.sol\":4271:4447  if (returndata.length > 0) {... */\n    tag_362:\n        /* \"@openzeppelin/contracts/token/ERC20/utils/SafeERC20.sol\":3817:4453  {... */\n      pop\n        /* \"@openzeppelin/contracts/token/ERC20/utils/SafeERC20.sol\":3747:4453  function _callOptionalReturn(IERC20 token, bytes memory data) private {... */\n      pop\n      pop\n      jump\t// out\n        /* \"@openzeppelin/contracts/utils/Address.sol\":3861:4084  function functionCall(... */\n    tag_361:\n        /* \"@openzeppelin/contracts/utils/Address.sol\":3994:4006  bytes memory */\n      0x60\n        /* \"@openzeppelin/contracts/utils/Address.sol\":4025:4077  functionCallWithValue(target, data, 0, errorMessage) */\n      tag_369\n        /* \"@openzeppelin/contracts/utils/Address.sol\":4047:4053  target */\n      dup5\n        /* \"@openzeppelin/contracts/utils/Address.sol\":4055:4059  data */\n      dup5\n        /* \"@openzeppelin/contracts/utils/Address.sol\":4061:4062  0 */\n      0x00\n        /* \"@openzeppelin/contracts/utils/Address.sol\":4064:4076  errorMessage */\n      dup6\n        /* \"@openzeppelin/contracts/utils/Address.sol\":4025:4046  functionCallWithValue */\n      tag_370\n        /* \"@openzeppelin/contracts/utils/Address.sol\":4025:4077  functionCallWithValue(target, data, 0, errorMessage) */\n      jump\t// in\n    tag_369:\n        /* \"@openzeppelin/contracts/utils/Address.sol\":4018:4077  return functionCallWithValue(target, data, 0, errorMessage) */\n      swap1\n      pop\n        /* \"@openzeppelin/contracts/utils/Address.sol\":3861:4084  function functionCall(... */\n      swap4\n      swap3\n      pop\n      pop\n      pop\n      jump\t// out\n        /* \"@openzeppelin/contracts/utils/Address.sol\":4948:5447  function functionCallWithValue(... */\n    tag_370:\n        /* \"@openzeppelin/contracts/utils/Address.sol\":5113:5125  bytes memory */\n      0x60\n        /* \"@openzeppelin/contracts/utils/Address.sol\":5170:5175  value */\n      dup3\n        /* \"@openzeppelin/contracts/utils/Address.sol\":5145:5166  address(this).balance */\n      selfbalance\n        /* \"@openzeppelin/contracts/utils/Address.sol\":5145:5175  address(this).balance >= value */\n      lt\n      iszero\n        /* \"@openzeppelin/contracts/utils/Address.sol\":5137:5218  require(address(this).balance >= value, \"Address: insufficient balance for call\") */\n      tag_372\n      jumpi\n      mload(0x40)\n      0x08c379a000000000000000000000000000000000000000000000000000000000\n      dup2\n      mstore\n      0x04\n      add\n      tag_373\n      swap1\n      tag_374\n      jump\t// in\n    tag_373:\n      mload(0x40)\n      dup1\n      swap2\n      sub\n      swap1\n      revert\n    tag_372:\n        /* \"@openzeppelin/contracts/utils/Address.sol\":5236:5254  isContract(target) */\n      tag_375\n        /* \"@openzeppelin/contracts/utils/Address.sol\":5247:5253  target */\n      dup6\n        /* \"@openzeppelin/contracts/utils/Address.sol\":5236:5246  isContract */\n      tag_376\n        /* \"@openzeppelin/contracts/utils/Address.sol\":5236:5254  isContract(target) */\n      jump\t// in\n    tag_375:\n        /* \"@openzeppelin/contracts/utils/Address.sol\":5228:5288  require(isContract(target), \"Address: call to non-contract\") */\n      tag_377\n      jumpi\n      mload(0x40)\n      0x08c379a000000000000000000000000000000000000000000000000000000000\n      dup2\n      mstore\n      0x04\n      add\n      tag_378\n      swap1\n      tag_379\n      jump\t// in\n    tag_378:\n      mload(0x40)\n      dup1\n      swap2\n      sub\n      swap1\n      revert\n    tag_377:\n        /* \"@openzeppelin/contracts/utils/Address.sol\":5300:5312  bool success */\n      0x00\n        /* \"@openzeppelin/contracts/utils/Address.sol\":5314:5337  bytes memory returndata */\n      dup1\n        /* \"@openzeppelin/contracts/utils/Address.sol\":5341:5347  target */\n      dup7\n        /* \"@openzeppelin/contracts/utils/Address.sol\":5341:5352  target.call */\n      0xffffffffffffffffffffffffffffffffffffffff\n      and\n        /* \"@openzeppelin/contracts/utils/Address.sol\":5360:5365  value */\n      dup6\n        /* \"@openzeppelin/contracts/utils/Address.sol\":5367:5371  data */\n      dup8\n        /* \"@openzeppelin/contracts/utils/Address.sol\":5341:5372  target.call{value: value}(data) */\n      mload(0x40)\n      tag_380\n      swap2\n      swap1\n      tag_381\n      jump\t// in\n    tag_380:\n      0x00\n      mload(0x40)\n      dup1\n      dup4\n      sub\n      dup2\n      dup6\n      dup8\n      gas\n      call\n      swap3\n      pop\n      pop\n      pop\n      returndatasize\n      dup1\n      0x00\n      dup2\n      eq\n      tag_384\n      jumpi\n      mload(0x40)\n      swap2\n      pop\n      and(add(returndatasize, 0x3f), not(0x1f))\n      dup3\n      add\n      0x40\n      mstore\n      returndatasize\n      dup3\n      mstore\n      returndatasize\n      0x00\n      0x20\n      dup5\n      add\n      returndatacopy\n      jump(tag_383)\n    tag_384:\n      0x60\n      swap2\n      pop\n    tag_383:\n      pop\n        /* \"@openzeppelin/contracts/utils/Address.sol\":5299:5372  (bool success, bytes memory returndata) = target.call{value: value}(data) */\n      swap2\n      pop\n      swap2\n      pop\n        /* \"@openzeppelin/contracts/utils/Address.sol\":5389:5440  verifyCallResult(success, returndata, errorMessage) */\n      tag_385\n        /* \"@openzeppelin/contracts/utils/Address.sol\":5406:5413  success */\n      dup3\n        /* \"@openzeppelin/contracts/utils/Address.sol\":5415:5425  returndata */\n      dup3\n        /* \"@openzeppelin/contracts/utils/Address.sol\":5427:5439  errorMessage */\n      dup7\n        /* \"@openzeppelin/contracts/utils/Address.sol\":5389:5405  verifyCallResult */\n      tag_386\n        /* \"@openzeppelin/contracts/utils/Address.sol\":5389:5440  verifyCallResult(success, returndata, errorMessage) */\n      jump\t// in\n    tag_385:\n        /* \"@openzeppelin/contracts/utils/Address.sol\":5382:5440  return verifyCallResult(success, returndata, errorMessage) */\n      swap3\n      pop\n      pop\n      pop\n        /* \"@openzeppelin/contracts/utils/Address.sol\":4948:5447  function functionCallWithValue(... */\n      swap5\n      swap4\n      pop\n      pop\n      pop\n      pop\n      jump\t// out\n        /* \"@openzeppelin/contracts/utils/Address.sol\":1175:1495  function isContract(address account) internal view returns (bool) {... */\n    tag_376:\n        /* \"@openzeppelin/contracts/utils/Address.sol\":1235:1239  bool */\n      0x00\n        /* \"@openzeppelin/contracts/utils/Address.sol\":1487:1488  0 */\n      dup1\n        /* \"@openzeppelin/contracts/utils/Address.sol\":1465:1472  account */\n      dup3\n        /* \"@openzeppelin/contracts/utils/Address.sol\":1465:1484  account.code.length */\n      0xffffffffffffffffffffffffffffffffffffffff\n      and\n      extcodesize\n        /* \"@openzeppelin/contracts/utils/Address.sol\":1465:1488  account.code.length > 0 */\n      gt\n        /* \"@openzeppelin/contracts/utils/Address.sol\":1458:1488  return account.code.length > 0 */\n      swap1\n      pop\n        /* \"@openzeppelin/contracts/utils/Address.sol\":1175:1495  function isContract(address account) internal view returns (bool) {... */\n      swap2\n      swap1\n      pop\n      jump\t// out\n        /* \"@openzeppelin/contracts/utils/Address.sol\":7561:8303  function verifyCallResult(... */\n    tag_386:\n        /* \"@openzeppelin/contracts/utils/Address.sol\":7707:7719  bytes memory */\n      0x60\n        /* \"@openzeppelin/contracts/utils/Address.sol\":7735:7742  success */\n      dup4\n        /* \"@openzeppelin/contracts/utils/Address.sol\":7731:8297  if (success) {... */\n      iszero\n      tag_389\n      jumpi\n        /* \"@openzeppelin/contracts/utils/Address.sol\":7765:7775  returndata */\n      dup3\n        /* \"@openzeppelin/contracts/utils/Address.sol\":7758:7775  return returndata */\n      swap1\n      pop\n      jump(tag_388)\n        /* \"@openzeppelin/contracts/utils/Address.sol\":7731:8297  if (success) {... */\n    tag_389:\n        /* \"@openzeppelin/contracts/utils/Address.sol\":7896:7897  0 */\n      0x00\n        /* \"@openzeppelin/contracts/utils/Address.sol\":7876:7886  returndata */\n      dup4\n        /* \"@openzeppelin/contracts/utils/Address.sol\":7876:7893  returndata.length */\n      mload\n        /* \"@openzeppelin/contracts/utils/Address.sol\":7876:7897  returndata.length > 0 */\n      gt\n        /* \"@openzeppelin/contracts/utils/Address.sol\":7872:8287  if (returndata.length > 0) {... */\n      iszero\n      tag_391\n      jumpi\n        /* \"@openzeppelin/contracts/utils/Address.sol\":8120:8130  returndata */\n      dup3\n        /* \"@openzeppelin/contracts/utils/Address.sol\":8114:8131  mload(returndata) */\n      mload\n        /* \"@openzeppelin/contracts/utils/Address.sol\":8180:8195  returndata_size */\n      dup1\n        /* \"@openzeppelin/contracts/utils/Address.sol\":8167:8177  returndata */\n      dup5\n        /* \"@openzeppelin/contracts/utils/Address.sol\":8163:8165  32 */\n      0x20\n        /* \"@openzeppelin/contracts/utils/Address.sol\":8159:8178  add(32, returndata) */\n      add\n        /* \"@openzeppelin/contracts/utils/Address.sol\":8152:8196  revert(add(32, returndata), returndata_size) */\n      revert\n        /* \"@openzeppelin/contracts/utils/Address.sol\":7872:8287  if (returndata.length > 0) {... */\n    tag_391:\n        /* \"@openzeppelin/contracts/utils/Address.sol\":8259:8271  errorMessage */\n      dup2\n        /* \"@openzeppelin/contracts/utils/Address.sol\":8252:8272  revert(errorMessage) */\n      mload(0x40)\n      0x08c379a000000000000000000000000000000000000000000000000000000000\n      dup2\n      mstore\n      0x04\n      add\n      tag_393\n      swap2\n      swap1\n      tag_394\n      jump\t// in\n    tag_393:\n      mload(0x40)\n      dup1\n      swap2\n      sub\n      swap1\n      revert\n        /* \"@openzeppelin/contracts/utils/Address.sol\":7561:8303  function verifyCallResult(... */\n    tag_388:\n      swap4\n      swap3\n      pop\n      pop\n      pop\n      jump\t// out\n        /* \"#utility.yul\":88:205   */\n    tag_396:\n        /* \"#utility.yul\":197:198   */\n      0x00\n        /* \"#utility.yul\":194:195   */\n      dup1\n        /* \"#utility.yul\":187:199   */\n      revert\n        /* \"#utility.yul\":334:411   */\n    tag_398:\n        /* \"#utility.yul\":371:378   */\n      0x00\n        /* \"#utility.yul\":400:405   */\n      dup2\n        /* \"#utility.yul\":389:405   */\n      swap1\n      pop\n        /* \"#utility.yul\":334:411   */\n      swap2\n      swap1\n      pop\n      jump\t// out\n        /* \"#utility.yul\":417:539   */\n    tag_399:\n        /* \"#utility.yul\":490:514   */\n      tag_465\n        /* \"#utility.yul\":508:513   */\n      dup2\n        /* \"#utility.yul\":490:514   */\n      tag_398\n      jump\t// in\n    tag_465:\n        /* \"#utility.yul\":483:488   */\n      dup2\n        /* \"#utility.yul\":480:515   */\n      eq\n        /* \"#utility.yul\":470:533   */\n      tag_466\n      jumpi\n        /* \"#utility.yul\":529:530   */\n      0x00\n        /* \"#utility.yul\":526:527   */\n      dup1\n        /* \"#utility.yul\":519:531   */\n      revert\n        /* \"#utility.yul\":470:533   */\n    tag_466:\n        /* \"#utility.yul\":417:539   */\n      pop\n      jump\t// out\n        /* \"#utility.yul\":545:684   */\n    tag_400:\n        /* \"#utility.yul\":591:596   */\n      0x00\n        /* \"#utility.yul\":629:635   */\n      dup2\n        /* \"#utility.yul\":616:636   */\n      calldataload\n        /* \"#utility.yul\":607:636   */\n      swap1\n      pop\n        /* \"#utility.yul\":645:678   */\n      tag_468\n        /* \"#utility.yul\":672:677   */\n      dup2\n        /* \"#utility.yul\":645:678   */\n      tag_399\n      jump\t// in\n    tag_468:\n        /* \"#utility.yul\":545:684   */\n      swap3\n      swap2\n      pop\n      pop\n      jump\t// out\n        /* \"#utility.yul\":690:816   */\n    tag_401:\n        /* \"#utility.yul\":727:734   */\n      0x00\n        /* \"#utility.yul\":767:809   */\n      0xffffffffffffffffffffffffffffffffffffffff\n        /* \"#utility.yul\":760:765   */\n      dup3\n        /* \"#utility.yul\":756:810   */\n      and\n        /* \"#utility.yul\":745:810   */\n      swap1\n      pop\n        /* \"#utility.yul\":690:816   */\n      swap2\n      swap1\n      pop\n      jump\t// out\n        /* \"#utility.yul\":822:918   */\n    tag_402:\n        /* \"#utility.yul\":859:866   */\n      0x00\n        /* \"#utility.yul\":888:912   */\n      tag_471\n        /* \"#utility.yul\":906:911   */\n      dup3\n        /* \"#utility.yul\":888:912   */\n      tag_401\n      jump\t// in\n    tag_471:\n        /* \"#utility.yul\":877:912   */\n      swap1\n      pop\n        /* \"#utility.yul\":822:918   */\n      swap2\n      swap1\n      pop\n      jump\t// out\n        /* \"#utility.yul\":924:1033   */\n    tag_403:\n        /* \"#utility.yul\":974:981   */\n      0x00\n        /* \"#utility.yul\":1003:1027   */\n      tag_473\n        /* \"#utility.yul\":1021:1026   */\n      dup3\n        /* \"#utility.yul\":1003:1027   */\n      tag_402\n      jump\t// in\n    tag_473:\n        /* \"#utility.yul\":992:1027   */\n      swap1\n      pop\n        /* \"#utility.yul\":924:1033   */\n      swap2\n      swap1\n      pop\n      jump\t// out\n        /* \"#utility.yul\":1039:1187   */\n    tag_404:\n        /* \"#utility.yul\":1125:1162   */\n      tag_475\n        /* \"#utility.yul\":1156:1161   */\n      dup2\n        /* \"#utility.yul\":1125:1162   */\n      tag_403\n      jump\t// in\n    tag_475:\n        /* \"#utility.yul\":1118:1123   */\n      dup2\n        /* \"#utility.yul\":1115:1163   */\n      eq\n        /* \"#utility.yul\":1105:1181   */\n      tag_476\n      jumpi\n        /* \"#utility.yul\":1177:1178   */\n      0x00\n        /* \"#utility.yul\":1174:1175   */\n      dup1\n        /* \"#utility.yul\":1167:1179   */\n      revert\n        /* \"#utility.yul\":1105:1181   */\n    tag_476:\n        /* \"#utility.yul\":1039:1187   */\n      pop\n      jump\t// out\n        /* \"#utility.yul\":1193:1358   */\n    tag_405:\n        /* \"#utility.yul\":1252:1257   */\n      0x00\n        /* \"#utility.yul\":1290:1296   */\n      dup2\n        /* \"#utility.yul\":1277:1297   */\n      calldataload\n        /* \"#utility.yul\":1268:1297   */\n      swap1\n      pop\n        /* \"#utility.yul\":1306:1352   */\n      tag_478\n        /* \"#utility.yul\":1346:1351   */\n      dup2\n        /* \"#utility.yul\":1306:1352   */\n      tag_404\n      jump\t// in\n    tag_478:\n        /* \"#utility.yul\":1193:1358   */\n      swap3\n      swap2\n      pop\n      pop\n      jump\t// out\n        /* \"#utility.yul\":1364:1454   */\n    tag_406:\n        /* \"#utility.yul\":1398:1405   */\n      0x00\n        /* \"#utility.yul\":1441:1446   */\n      dup2\n        /* \"#utility.yul\":1434:1447   */\n      iszero\n        /* \"#utility.yul\":1427:1448   */\n      iszero\n        /* \"#utility.yul\":1416:1448   */\n      swap1\n      pop\n        /* \"#utility.yul\":1364:1454   */\n      swap2\n      swap1\n      pop\n      jump\t// out\n        /* \"#utility.yul\":1460:1576   */\n    tag_407:\n        /* \"#utility.yul\":1530:1551   */\n      tag_481\n        /* \"#utility.yul\":1545:1550   */\n      dup2\n        /* \"#utility.yul\":1530:1551   */\n      tag_406\n      jump\t// in\n    tag_481:\n        /* \"#utility.yul\":1523:1528   */\n      dup2\n        /* \"#utility.yul\":1520:1552   */\n      eq\n        /* \"#utility.yul\":1510:1570   */\n      tag_482\n      jumpi\n        /* \"#utility.yul\":1566:1567   */\n      0x00\n        /* \"#utility.yul\":1563:1564   */\n      dup1\n        /* \"#utility.yul\":1556:1568   */\n      revert\n        /* \"#utility.yul\":1510:1570   */\n    tag_482:\n        /* \"#utility.yul\":1460:1576   */\n      pop\n      jump\t// out\n        /* \"#utility.yul\":1582:1715   */\n    tag_408:\n        /* \"#utility.yul\":1625:1630   */\n      0x00\n        /* \"#utility.yul\":1663:1669   */\n      dup2\n        /* \"#utility.yul\":1650:1670   */\n      calldataload\n        /* \"#utility.yul\":1641:1670   */\n      swap1\n      pop\n        /* \"#utility.yul\":1679:1709   */\n      tag_484\n        /* \"#utility.yul\":1703:1708   */\n      dup2\n        /* \"#utility.yul\":1679:1709   */\n      tag_407\n      jump\t// in\n    tag_484:\n        /* \"#utility.yul\":1582:1715   */\n      swap3\n      swap2\n      pop\n      pop\n      jump\t// out\n        /* \"#utility.yul\":1721:1810   */\n    tag_409:\n        /* \"#utility.yul\":1757:1764   */\n      0x00\n        /* \"#utility.yul\":1797:1803   */\n      0xffff\n        /* \"#utility.yul\":1790:1795   */\n      dup3\n        /* \"#utility.yul\":1786:1804   */\n      and\n        /* \"#utility.yul\":1775:1804   */\n      swap1\n      pop\n        /* \"#utility.yul\":1721:1810   */\n      swap2\n      swap1\n      pop\n      jump\t// out\n        /* \"#utility.yul\":1816:1936   */\n    tag_410:\n        /* \"#utility.yul\":1888:1911   */\n      tag_487\n        /* \"#utility.yul\":1905:1910   */\n      dup2\n        /* \"#utility.yul\":1888:1911   */\n      tag_409\n      jump\t// in\n    tag_487:\n        /* \"#utility.yul\":1881:1886   */\n      dup2\n        /* \"#utility.yul\":1878:1912   */\n      eq\n        /* \"#utility.yul\":1868:1930   */\n      tag_488\n      jumpi\n        /* \"#utility.yul\":1926:1927   */\n      0x00\n        /* \"#utility.yul\":1923:1924   */\n      dup1\n        /* \"#utility.yul\":1916:1928   */\n      revert\n        /* \"#utility.yul\":1868:1930   */\n    tag_488:\n        /* \"#utility.yul\":1816:1936   */\n      pop\n      jump\t// out\n        /* \"#utility.yul\":1942:2079   */\n    tag_411:\n        /* \"#utility.yul\":1987:1992   */\n      0x00\n        /* \"#utility.yul\":2025:2031   */\n      dup2\n        /* \"#utility.yul\":2012:2032   */\n      calldataload\n        /* \"#utility.yul\":2003:2032   */\n      swap1\n      pop\n        /* \"#utility.yul\":2041:2073   */\n      tag_490\n        /* \"#utility.yul\":2067:2072   */\n      dup2\n        /* \"#utility.yul\":2041:2073   */\n      tag_410\n      jump\t// in\n    tag_490:\n        /* \"#utility.yul\":1942:2079   */\n      swap3\n      swap2\n      pop\n      pop\n      jump\t// out\n        /* \"#utility.yul\":2085:3014   */\n    tag_31:\n        /* \"#utility.yul\":2189:2195   */\n      0x00\n        /* \"#utility.yul\":2197:2203   */\n      dup1\n        /* \"#utility.yul\":2205:2211   */\n      0x00\n        /* \"#utility.yul\":2213:2219   */\n      dup1\n        /* \"#utility.yul\":2221:2227   */\n      0x00\n        /* \"#utility.yul\":2270:2273   */\n      0xa0\n        /* \"#utility.yul\":2258:2267   */\n      dup7\n        /* \"#utility.yul\":2249:2256   */\n      dup9\n        /* \"#utility.yul\":2245:2268   */\n      sub\n        /* \"#utility.yul\":2241:2274   */\n      slt\n        /* \"#utility.yul\":2238:2358   */\n      iszero\n      tag_492\n      jumpi\n        /* \"#utility.yul\":2277:2356   */\n      tag_493\n      tag_396\n      jump\t// in\n    tag_493:\n        /* \"#utility.yul\":2238:2358   */\n    tag_492:\n        /* \"#utility.yul\":2397:2398   */\n      0x00\n        /* \"#utility.yul\":2422:2475   */\n      tag_494\n        /* \"#utility.yul\":2467:2474   */\n      dup9\n        /* \"#utility.yul\":2458:2464   */\n      dup3\n        /* \"#utility.yul\":2447:2456   */\n      dup10\n        /* \"#utility.yul\":2443:2465   */\n      add\n        /* \"#utility.yul\":2422:2475   */\n      tag_400\n      jump\t// in\n    tag_494:\n        /* \"#utility.yul\":2412:2475   */\n      swap6\n      pop\n        /* \"#utility.yul\":2368:2485   */\n      pop\n        /* \"#utility.yul\":2524:2526   */\n      0x20\n        /* \"#utility.yul\":2550:2616   */\n      tag_495\n        /* \"#utility.yul\":2608:2615   */\n      dup9\n        /* \"#utility.yul\":2599:2605   */\n      dup3\n        /* \"#utility.yul\":2588:2597   */\n      dup10\n        /* \"#utility.yul\":2584:2606   */\n      add\n        /* \"#utility.yul\":2550:2616   */\n      tag_405\n      jump\t// in\n    tag_495:\n        /* \"#utility.yul\":2540:2616   */\n      swap5\n      pop\n        /* \"#utility.yul\":2495:2626   */\n      pop\n        /* \"#utility.yul\":2665:2667   */\n      0x40\n        /* \"#utility.yul\":2691:2741   */\n      tag_496\n        /* \"#utility.yul\":2733:2740   */\n      dup9\n        /* \"#utility.yul\":2724:2730   */\n      dup3\n        /* \"#utility.yul\":2713:2722   */\n      dup10\n        /* \"#utility.yul\":2709:2731   */\n      add\n        /* \"#utility.yul\":2691:2741   */\n      tag_408\n      jump\t// in\n    tag_496:\n        /* \"#utility.yul\":2681:2741   */\n      swap4\n      pop\n        /* \"#utility.yul\":2636:2751   */\n      pop\n        /* \"#utility.yul\":2790:2792   */\n      0x60\n        /* \"#utility.yul\":2816:2868   */\n      tag_497\n        /* \"#utility.yul\":2860:2867   */\n      dup9\n        /* \"#utility.yul\":2851:2857   */\n      dup3\n        /* \"#utility.yul\":2840:2849   */\n      dup10\n        /* \"#utility.yul\":2836:2858   */\n      add\n        /* \"#utility.yul\":2816:2868   */\n      tag_411\n      jump\t// in\n    tag_497:\n        /* \"#utility.yul\":2806:2868   */\n      swap3\n      pop\n        /* \"#utility.yul\":2761:2878   */\n      pop\n        /* \"#utility.yul\":2917:2920   */\n      0x80\n        /* \"#utility.yul\":2944:2997   */\n      tag_498\n        /* \"#utility.yul\":2989:2996   */\n      dup9\n        /* \"#utility.yul\":2980:2986   */\n      dup3\n        /* \"#utility.yul\":2969:2978   */\n      dup10\n        /* \"#utility.yul\":2965:2987   */\n      add\n        /* \"#utility.yul\":2944:2997   */\n      tag_400\n      jump\t// in\n    tag_498:\n        /* \"#utility.yul\":2934:2997   */\n      swap2\n      pop\n        /* \"#utility.yul\":2888:3007   */\n      pop\n        /* \"#utility.yul\":2085:3014   */\n      swap3\n      swap6\n      pop\n      swap3\n      swap6\n      swap1\n      swap4\n      pop\n      jump\t// out\n        /* \"#utility.yul\":3020:3138   */\n    tag_412:\n        /* \"#utility.yul\":3107:3131   */\n      tag_500\n        /* \"#utility.yul\":3125:3130   */\n      dup2\n        /* \"#utility.yul\":3107:3131   */\n      tag_398\n      jump\t// in\n    tag_500:\n        /* \"#utility.yul\":3102:3105   */\n      dup3\n        /* \"#utility.yul\":3095:3132   */\n      mstore\n        /* \"#utility.yul\":3020:3138   */\n      pop\n      pop\n      jump\t// out\n        /* \"#utility.yul\":3144:3366   */\n    tag_36:\n        /* \"#utility.yul\":3237:3241   */\n      0x00\n        /* \"#utility.yul\":3275:3277   */\n      0x20\n        /* \"#utility.yul\":3264:3273   */\n      dup3\n        /* \"#utility.yul\":3260:3278   */\n      add\n        /* \"#utility.yul\":3252:3278   */\n      swap1\n      pop\n        /* \"#utility.yul\":3288:3359   */\n      tag_502\n        /* \"#utility.yul\":3356:3357   */\n      0x00\n        /* \"#utility.yul\":3345:3354   */\n      dup4\n        /* \"#utility.yul\":3341:3358   */\n      add\n        /* \"#utility.yul\":3332:3338   */\n      dup5\n        /* \"#utility.yul\":3288:3359   */\n      tag_412\n      jump\t// in\n    tag_502:\n        /* \"#utility.yul\":3144:3366   */\n      swap3\n      swap2\n      pop\n      pop\n      jump\t// out\n        /* \"#utility.yul\":3372:3701   */\n    tag_39:\n        /* \"#utility.yul\":3431:3437   */\n      0x00\n        /* \"#utility.yul\":3480:3482   */\n      0x20\n        /* \"#utility.yul\":3468:3477   */\n      dup3\n        /* \"#utility.yul\":3459:3466   */\n      dup5\n        /* \"#utility.yul\":3455:3478   */\n      sub\n        /* \"#utility.yul\":3451:3483   */\n      slt\n        /* \"#utility.yul\":3448:3567   */\n      iszero\n      tag_504\n      jumpi\n        /* \"#utility.yul\":3486:3565   */\n      tag_505\n      tag_396\n      jump\t// in\n    tag_505:\n        /* \"#utility.yul\":3448:3567   */\n    tag_504:\n        /* \"#utility.yul\":3606:3607   */\n      0x00\n        /* \"#utility.yul\":3631:3684   */\n      tag_506\n        /* \"#utility.yul\":3676:3683   */\n      dup5\n        /* \"#utility.yul\":3667:3673   */\n      dup3\n        /* \"#utility.yul\":3656:3665   */\n      dup6\n        /* \"#utility.yul\":3652:3674   */\n      add\n        /* \"#utility.yul\":3631:3684   */\n      tag_400\n      jump\t// in\n    tag_506:\n        /* \"#utility.yul\":3621:3684   */\n      swap2\n      pop\n        /* \"#utility.yul\":3577:3694   */\n      pop\n        /* \"#utility.yul\":3372:3701   */\n      swap3\n      swap2\n      pop\n      pop\n      jump\t// out\n        /* \"#utility.yul\":3707:3767   */\n    tag_413:\n        /* \"#utility.yul\":3735:3738   */\n      0x00\n        /* \"#utility.yul\":3756:3761   */\n      dup2\n        /* \"#utility.yul\":3749:3761   */\n      swap1\n      pop\n        /* \"#utility.yul\":3707:3767   */\n      swap2\n      swap1\n      pop\n      jump\t// out\n        /* \"#utility.yul\":3773:3915   */\n    tag_414:\n        /* \"#utility.yul\":3823:3832   */\n      0x00\n        /* \"#utility.yul\":3856:3909   */\n      tag_509\n        /* \"#utility.yul\":3874:3908   */\n      tag_510\n        /* \"#utility.yul\":3883:3907   */\n      tag_511\n        /* \"#utility.yul\":3901:3906   */\n      dup5\n        /* \"#utility.yul\":3883:3907   */\n      tag_401\n      jump\t// in\n    tag_511:\n        /* \"#utility.yul\":3874:3908   */\n      tag_413\n      jump\t// in\n    tag_510:\n        /* \"#utility.yul\":3856:3909   */\n      tag_401\n      jump\t// in\n    tag_509:\n        /* \"#utility.yul\":3843:3909   */\n      swap1\n      pop\n        /* \"#utility.yul\":3773:3915   */\n      swap2\n      swap1\n      pop\n      jump\t// out\n        /* \"#utility.yul\":3921:4047   */\n    tag_415:\n        /* \"#utility.yul\":3971:3980   */\n      0x00\n        /* \"#utility.yul\":4004:4041   */\n      tag_513\n        /* \"#utility.yul\":4035:4040   */\n      dup3\n        /* \"#utility.yul\":4004:4041   */\n      tag_414\n      jump\t// in\n    tag_513:\n        /* \"#utility.yul\":3991:4041   */\n      swap1\n      pop\n        /* \"#utility.yul\":3921:4047   */\n      swap2\n      swap1\n      pop\n      jump\t// out\n        /* \"#utility.yul\":4053:4192   */\n    tag_416:\n        /* \"#utility.yul\":4116:4125   */\n      0x00\n        /* \"#utility.yul\":4149:4186   */\n      tag_515\n        /* \"#utility.yul\":4180:4185   */\n      dup3\n        /* \"#utility.yul\":4149:4186   */\n      tag_415\n      jump\t// in\n    tag_515:\n        /* \"#utility.yul\":4136:4186   */\n      swap1\n      pop\n        /* \"#utility.yul\":4053:4192   */\n      swap2\n      swap1\n      pop\n      jump\t// out\n        /* \"#utility.yul\":4198:4355   */\n    tag_417:\n        /* \"#utility.yul\":4298:4348   */\n      tag_517\n        /* \"#utility.yul\":4342:4347   */\n      dup2\n        /* \"#utility.yul\":4298:4348   */\n      tag_416\n      jump\t// in\n    tag_517:\n        /* \"#utility.yul\":4293:4296   */\n      dup3\n        /* \"#utility.yul\":4286:4349   */\n      mstore\n        /* \"#utility.yul\":4198:4355   */\n      pop\n      pop\n      jump\t// out\n        /* \"#utility.yul\":4361:4476   */\n    tag_418:\n        /* \"#utility.yul\":4446:4469   */\n      tag_519\n        /* \"#utility.yul\":4463:4468   */\n      dup2\n        /* \"#utility.yul\":4446:4469   */\n      tag_409\n      jump\t// in\n    tag_519:\n        /* \"#utility.yul\":4441:4444   */\n      dup3\n        /* \"#utility.yul\":4434:4470   */\n      mstore\n        /* \"#utility.yul\":4361:4476   */\n      pop\n      pop\n      jump\t// out\n        /* \"#utility.yul\":4482:4591   */\n    tag_419:\n        /* \"#utility.yul\":4563:4584   */\n      tag_521\n        /* \"#utility.yul\":4578:4583   */\n      dup2\n        /* \"#utility.yul\":4563:4584   */\n      tag_406\n      jump\t// in\n    tag_521:\n        /* \"#utility.yul\":4558:4561   */\n      dup3\n        /* \"#utility.yul\":4551:4585   */\n      mstore\n        /* \"#utility.yul\":4482:4591   */\n      pop\n      pop\n      jump\t// out\n        /* \"#utility.yul\":4597:5382   */\n    tag_42:\n        /* \"#utility.yul\":4835:4839   */\n      0x00\n        /* \"#utility.yul\":4873:4876   */\n      0xc0\n        /* \"#utility.yul\":4862:4871   */\n      dup3\n        /* \"#utility.yul\":4858:4877   */\n      add\n        /* \"#utility.yul\":4850:4877   */\n      swap1\n      pop\n        /* \"#utility.yul\":4887:4971   */\n      tag_523\n        /* \"#utility.yul\":4968:4969   */\n      0x00\n        /* \"#utility.yul\":4957:4966   */\n      dup4\n        /* \"#utility.yul\":4953:4970   */\n      add\n        /* \"#utility.yul\":4944:4950   */\n      dup10\n        /* \"#utility.yul\":4887:4971   */\n      tag_417\n      jump\t// in\n    tag_523:\n        /* \"#utility.yul\":4981:5053   */\n      tag_524\n        /* \"#utility.yul\":5049:5051   */\n      0x20\n        /* \"#utility.yul\":5038:5047   */\n      dup4\n        /* \"#utility.yul\":5034:5052   */\n      add\n        /* \"#utility.yul\":5025:5031   */\n      dup9\n        /* \"#utility.yul\":4981:5053   */\n      tag_412\n      jump\t// in\n    tag_524:\n        /* \"#utility.yul\":5063:5135   */\n      tag_525\n        /* \"#utility.yul\":5131:5133   */\n      0x40\n        /* \"#utility.yul\":5120:5129   */\n      dup4\n        /* \"#utility.yul\":5116:5134   */\n      add\n        /* \"#utility.yul\":5107:5113   */\n      dup8\n        /* \"#utility.yul\":5063:5135   */\n      tag_412\n      jump\t// in\n    tag_525:\n        /* \"#utility.yul\":5145:5217   */\n      tag_526\n        /* \"#utility.yul\":5213:5215   */\n      0x60\n        /* \"#utility.yul\":5202:5211   */\n      dup4\n        /* \"#utility.yul\":5198:5216   */\n      add\n        /* \"#utility.yul\":5189:5195   */\n      dup7\n        /* \"#utility.yul\":5145:5217   */\n      tag_412\n      jump\t// in\n    tag_526:\n        /* \"#utility.yul\":5227:5298   */\n      tag_527\n        /* \"#utility.yul\":5293:5296   */\n      0x80\n        /* \"#utility.yul\":5282:5291   */\n      dup4\n        /* \"#utility.yul\":5278:5297   */\n      add\n        /* \"#utility.yul\":5269:5275   */\n      dup6\n        /* \"#utility.yul\":5227:5298   */\n      tag_418\n      jump\t// in\n    tag_527:\n        /* \"#utility.yul\":5308:5375   */\n      tag_528\n        /* \"#utility.yul\":5370:5373   */\n      0xa0\n        /* \"#utility.yul\":5359:5368   */\n      dup4\n        /* \"#utility.yul\":5355:5374   */\n      add\n        /* \"#utility.yul\":5346:5352   */\n      dup5\n        /* \"#utility.yul\":5308:5375   */\n      tag_419\n      jump\t// in\n    tag_528:\n        /* \"#utility.yul\":4597:5382   */\n      swap8\n      swap7\n      pop\n      pop\n      pop\n      pop\n      pop\n      pop\n      pop\n      jump\t// out\n        /* \"#utility.yul\":5388:5510   */\n    tag_420:\n        /* \"#utility.yul\":5461:5485   */\n      tag_530\n        /* \"#utility.yul\":5479:5484   */\n      dup2\n        /* \"#utility.yul\":5461:5485   */\n      tag_402\n      jump\t// in\n    tag_530:\n        /* \"#utility.yul\":5454:5459   */\n      dup2\n        /* \"#utility.yul\":5451:5486   */\n      eq\n        /* \"#utility.yul\":5441:5504   */\n      tag_531\n      jumpi\n        /* \"#utility.yul\":5500:5501   */\n      0x00\n        /* \"#utility.yul\":5497:5498   */\n      dup1\n        /* \"#utility.yul\":5490:5502   */\n      revert\n        /* \"#utility.yul\":5441:5504   */\n    tag_531:\n        /* \"#utility.yul\":5388:5510   */\n      pop\n      jump\t// out\n        /* \"#utility.yul\":5516:5655   */\n    tag_421:\n        /* \"#utility.yul\":5562:5567   */\n      0x00\n        /* \"#utility.yul\":5600:5606   */\n      dup2\n        /* \"#utility.yul\":5587:5607   */\n      calldataload\n        /* \"#utility.yul\":5578:5607   */\n      swap1\n      pop\n        /* \"#utility.yul\":5616:5649   */\n      tag_533\n        /* \"#utility.yul\":5643:5648   */\n      dup2\n        /* \"#utility.yul\":5616:5649   */\n      tag_420\n      jump\t// in\n    tag_533:\n        /* \"#utility.yul\":5516:5655   */\n      swap3\n      swap2\n      pop\n      pop\n      jump\t// out\n        /* \"#utility.yul\":5661:6135   */\n    tag_48:\n        /* \"#utility.yul\":5729:5735   */\n      0x00\n        /* \"#utility.yul\":5737:5743   */\n      dup1\n        /* \"#utility.yul\":5786:5788   */\n      0x40\n        /* \"#utility.yul\":5774:5783   */\n      dup4\n        /* \"#utility.yul\":5765:5772   */\n      dup6\n        /* \"#utility.yul\":5761:5784   */\n      sub\n        /* \"#utility.yul\":5757:5789   */\n      slt\n        /* \"#utility.yul\":5754:5873   */\n      iszero\n      tag_535\n      jumpi\n        /* \"#utility.yul\":5792:5871   */\n      tag_536\n      tag_396\n      jump\t// in\n    tag_536:\n        /* \"#utility.yul\":5754:5873   */\n    tag_535:\n        /* \"#utility.yul\":5912:5913   */\n      0x00\n        /* \"#utility.yul\":5937:5990   */\n      tag_537\n        /* \"#utility.yul\":5982:5989   */\n      dup6\n        /* \"#utility.yul\":5973:5979   */\n      dup3\n        /* \"#utility.yul\":5962:5971   */\n      dup7\n        /* \"#utility.yul\":5958:5980   */\n      add\n        /* \"#utility.yul\":5937:5990   */\n      tag_400\n      jump\t// in\n    tag_537:\n        /* \"#utility.yul\":5927:5990   */\n      swap3\n      pop\n        /* \"#utility.yul\":5883:6000   */\n      pop\n        /* \"#utility.yul\":6039:6041   */\n      0x20\n        /* \"#utility.yul\":6065:6118   */\n      tag_538\n        /* \"#utility.yul\":6110:6117   */\n      dup6\n        /* \"#utility.yul\":6101:6107   */\n      dup3\n        /* \"#utility.yul\":6090:6099   */\n      dup7\n        /* \"#utility.yul\":6086:6108   */\n      add\n        /* \"#utility.yul\":6065:6118   */\n      tag_421\n      jump\t// in\n    tag_538:\n        /* \"#utility.yul\":6055:6118   */\n      swap2\n      pop\n        /* \"#utility.yul\":6010:6128   */\n      pop\n        /* \"#utility.yul\":5661:6135   */\n      swap3\n      pop\n      swap3\n      swap1\n      pop\n      jump\t// out\n        /* \"#utility.yul\":6141:6615   */\n    tag_53:\n        /* \"#utility.yul\":6209:6215   */\n      0x00\n        /* \"#utility.yul\":6217:6223   */\n      dup1\n        /* \"#utility.yul\":6266:6268   */\n      0x40\n        /* \"#utility.yul\":6254:6263   */\n      dup4\n        /* \"#utility.yul\":6245:6252   */\n      dup6\n        /* \"#utility.yul\":6241:6264   */\n      sub\n        /* \"#utility.yul\":6237:6269   */\n      slt\n        /* \"#utility.yul\":6234:6353   */\n      iszero\n      tag_540\n      jumpi\n        /* \"#utility.yul\":6272:6351   */\n      tag_541\n      tag_396\n      jump\t// in\n    tag_541:\n        /* \"#utility.yul\":6234:6353   */\n    tag_540:\n        /* \"#utility.yul\":6392:6393   */\n      0x00\n        /* \"#utility.yul\":6417:6470   */\n      tag_542\n        /* \"#utility.yul\":6462:6469   */\n      dup6\n        /* \"#utility.yul\":6453:6459   */\n      dup3\n        /* \"#utility.yul\":6442:6451   */\n      dup7\n        /* \"#utility.yul\":6438:6460   */\n      add\n        /* \"#utility.yul\":6417:6470   */\n      tag_400\n      jump\t// in\n    tag_542:\n        /* \"#utility.yul\":6407:6470   */\n      swap3\n      pop\n        /* \"#utility.yul\":6363:6480   */\n      pop\n        /* \"#utility.yul\":6519:6521   */\n      0x20\n        /* \"#utility.yul\":6545:6598   */\n      tag_543\n        /* \"#utility.yul\":6590:6597   */\n      dup6\n        /* \"#utility.yul\":6581:6587   */\n      dup3\n        /* \"#utility.yul\":6570:6579   */\n      dup7\n        /* \"#utility.yul\":6566:6588   */\n      add\n        /* \"#utility.yul\":6545:6598   */\n      tag_400\n      jump\t// in\n    tag_543:\n        /* \"#utility.yul\":6535:6598   */\n      swap2\n      pop\n        /* \"#utility.yul\":6490:6608   */\n      pop\n        /* \"#utility.yul\":6141:6615   */\n      swap3\n      pop\n      swap3\n      swap1\n      pop\n      jump\t// out\n        /* \"#utility.yul\":6621:7238   */\n    tag_58:\n        /* \"#utility.yul\":6697:6703   */\n      0x00\n        /* \"#utility.yul\":6705:6711   */\n      dup1\n        /* \"#utility.yul\":6713:6719   */\n      0x00\n        /* \"#utility.yul\":6762:6764   */\n      0x60\n        /* \"#utility.yul\":6750:6759   */\n      dup5\n        /* \"#utility.yul\":6741:6748   */\n      dup7\n        /* \"#utility.yul\":6737:6760   */\n      sub\n        /* \"#utility.yul\":6733:6765   */\n      slt\n        /* \"#utility.yul\":6730:6849   */\n      iszero\n      tag_545\n      jumpi\n        /* \"#utility.yul\":6768:6847   */\n      tag_546\n      tag_396\n      jump\t// in\n    tag_546:\n        /* \"#utility.yul\":6730:6849   */\n    tag_545:\n        /* \"#utility.yul\":6888:6889   */\n      0x00\n        /* \"#utility.yul\":6913:6966   */\n      tag_547\n        /* \"#utility.yul\":6958:6965   */\n      dup7\n        /* \"#utility.yul\":6949:6955   */\n      dup3\n        /* \"#utility.yul\":6938:6947   */\n      dup8\n        /* \"#utility.yul\":6934:6956   */\n      add\n        /* \"#utility.yul\":6913:6966   */\n      tag_400\n      jump\t// in\n    tag_547:\n        /* \"#utility.yul\":6903:6966   */\n      swap4\n      pop\n        /* \"#utility.yul\":6859:6976   */\n      pop\n        /* \"#utility.yul\":7015:7017   */\n      0x20\n        /* \"#utility.yul\":7041:7094   */\n      tag_548\n        /* \"#utility.yul\":7086:7093   */\n      dup7\n        /* \"#utility.yul\":7077:7083   */\n      dup3\n        /* \"#utility.yul\":7066:7075   */\n      dup8\n        /* \"#utility.yul\":7062:7084   */\n      add\n        /* \"#utility.yul\":7041:7094   */\n      tag_400\n      jump\t// in\n    tag_548:\n        /* \"#utility.yul\":7031:7094   */\n      swap3\n      pop\n        /* \"#utility.yul\":6986:7104   */\n      pop\n        /* \"#utility.yul\":7143:7145   */\n      0x40\n        /* \"#utility.yul\":7169:7221   */\n      tag_549\n        /* \"#utility.yul\":7213:7220   */\n      dup7\n        /* \"#utility.yul\":7204:7210   */\n      dup3\n        /* \"#utility.yul\":7193:7202   */\n      dup8\n        /* \"#utility.yul\":7189:7211   */\n      add\n        /* \"#utility.yul\":7169:7221   */\n      tag_411\n      jump\t// in\n    tag_549:\n        /* \"#utility.yul\":7159:7221   */\n      swap2\n      pop\n        /* \"#utility.yul\":7114:7231   */\n      pop\n        /* \"#utility.yul\":6621:7238   */\n      swap3\n      pop\n      swap3\n      pop\n      swap3\n      jump\t// out\n        /* \"#utility.yul\":7244:7362   */\n    tag_422:\n        /* \"#utility.yul\":7331:7355   */\n      tag_551\n        /* \"#utility.yul\":7349:7354   */\n      dup2\n        /* \"#utility.yul\":7331:7355   */\n      tag_402\n      jump\t// in\n    tag_551:\n        /* \"#utility.yul\":7326:7329   */\n      dup3\n        /* \"#utility.yul\":7319:7356   */\n      mstore\n        /* \"#utility.yul\":7244:7362   */\n      pop\n      pop\n      jump\t// out\n        /* \"#utility.yul\":7368:7590   */\n    tag_63:\n        /* \"#utility.yul\":7461:7465   */\n      0x00\n        /* \"#utility.yul\":7499:7501   */\n      0x20\n        /* \"#utility.yul\":7488:7497   */\n      dup3\n        /* \"#utility.yul\":7484:7502   */\n      add\n        /* \"#utility.yul\":7476:7502   */\n      swap1\n      pop\n        /* \"#utility.yul\":7512:7583   */\n      tag_553\n        /* \"#utility.yul\":7580:7581   */\n      0x00\n        /* \"#utility.yul\":7569:7578   */\n      dup4\n        /* \"#utility.yul\":7565:7582   */\n      add\n        /* \"#utility.yul\":7556:7562   */\n      dup5\n        /* \"#utility.yul\":7512:7583   */\n      tag_422\n      jump\t// in\n    tag_553:\n        /* \"#utility.yul\":7368:7590   */\n      swap3\n      swap2\n      pop\n      pop\n      jump\t// out\n        /* \"#utility.yul\":7596:8241   */\n    tag_75:\n        /* \"#utility.yul\":7686:7692   */\n      0x00\n        /* \"#utility.yul\":7694:7700   */\n      dup1\n        /* \"#utility.yul\":7702:7708   */\n      0x00\n        /* \"#utility.yul\":7751:7753   */\n      0x60\n        /* \"#utility.yul\":7739:7748   */\n      dup5\n        /* \"#utility.yul\":7730:7737   */\n      dup7\n        /* \"#utility.yul\":7726:7749   */\n      sub\n        /* \"#utility.yul\":7722:7754   */\n      slt\n        /* \"#utility.yul\":7719:7838   */\n      iszero\n      tag_555\n      jumpi\n        /* \"#utility.yul\":7757:7836   */\n      tag_556\n      tag_396\n      jump\t// in\n    tag_556:\n        /* \"#utility.yul\":7719:7838   */\n    tag_555:\n        /* \"#utility.yul\":7877:7878   */\n      0x00\n        /* \"#utility.yul\":7902:7968   */\n      tag_557\n        /* \"#utility.yul\":7960:7967   */\n      dup7\n        /* \"#utility.yul\":7951:7957   */\n      dup3\n        /* \"#utility.yul\":7940:7949   */\n      dup8\n        /* \"#utility.yul\":7936:7958   */\n      add\n        /* \"#utility.yul\":7902:7968   */\n      tag_405\n      jump\t// in\n    tag_557:\n        /* \"#utility.yul\":7892:7968   */\n      swap4\n      pop\n        /* \"#utility.yul\":7848:7978   */\n      pop\n        /* \"#utility.yul\":8017:8019   */\n      0x20\n        /* \"#utility.yul\":8043:8096   */\n      tag_558\n        /* \"#utility.yul\":8088:8095   */\n      dup7\n        /* \"#utility.yul\":8079:8085   */\n      dup3\n        /* \"#utility.yul\":8068:8077   */\n      dup8\n        /* \"#utility.yul\":8064:8086   */\n      add\n        /* \"#utility.yul\":8043:8096   */\n      tag_400\n      jump\t// in\n    tag_558:\n        /* \"#utility.yul\":8033:8096   */\n      swap3\n      pop\n        /* \"#utility.yul\":7988:8106   */\n      pop\n        /* \"#utility.yul\":8145:8147   */\n      0x40\n        /* \"#utility.yul\":8171:8224   */\n      tag_559\n        /* \"#utility.yul\":8216:8223   */\n      dup7\n        /* \"#utility.yul\":8207:8213   */\n      dup3\n        /* \"#utility.yul\":8196:8205   */\n      dup8\n        /* \"#utility.yul\":8192:8214   */\n      add\n        /* \"#utility.yul\":8171:8224   */\n      tag_421\n      jump\t// in\n    tag_559:\n        /* \"#utility.yul\":8161:8224   */\n      swap2\n      pop\n        /* \"#utility.yul\":8116:8234   */\n      pop\n        /* \"#utility.yul\":7596:8241   */\n      swap3\n      pop\n      swap3\n      pop\n      swap3\n      jump\t// out\n        /* \"#utility.yul\":8247:8579   */\n    tag_92:\n        /* \"#utility.yul\":8368:8372   */\n      0x00\n        /* \"#utility.yul\":8406:8408   */\n      0x40\n        /* \"#utility.yul\":8395:8404   */\n      dup3\n        /* \"#utility.yul\":8391:8409   */\n      add\n        /* \"#utility.yul\":8383:8409   */\n      swap1\n      pop\n        /* \"#utility.yul\":8419:8490   */\n      tag_561\n        /* \"#utility.yul\":8487:8488   */\n      0x00\n        /* \"#utility.yul\":8476:8485   */\n      dup4\n        /* \"#utility.yul\":8472:8489   */\n      add\n        /* \"#utility.yul\":8463:8469   */\n      dup6\n        /* \"#utility.yul\":8419:8490   */\n      tag_412\n      jump\t// in\n    tag_561:\n        /* \"#utility.yul\":8500:8572   */\n      tag_562\n        /* \"#utility.yul\":8568:8570   */\n      0x20\n        /* \"#utility.yul\":8557:8566   */\n      dup4\n        /* \"#utility.yul\":8553:8571   */\n      add\n        /* \"#utility.yul\":8544:8550   */\n      dup5\n        /* \"#utility.yul\":8500:8572   */\n      tag_412\n      jump\t// in\n    tag_562:\n        /* \"#utility.yul\":8247:8579   */\n      swap4\n      swap3\n      pop\n      pop\n      pop\n      jump\t// out\n        /* \"#utility.yul\":8585:8914   */\n    tag_98:\n        /* \"#utility.yul\":8644:8650   */\n      0x00\n        /* \"#utility.yul\":8693:8695   */\n      0x20\n        /* \"#utility.yul\":8681:8690   */\n      dup3\n        /* \"#utility.yul\":8672:8679   */\n      dup5\n        /* \"#utility.yul\":8668:8691   */\n      sub\n        /* \"#utility.yul\":8664:8696   */\n      slt\n        /* \"#utility.yul\":8661:8780   */\n      iszero\n      tag_564\n      jumpi\n        /* \"#utility.yul\":8699:8778   */\n      tag_565\n      tag_396\n      jump\t// in\n    tag_565:\n        /* \"#utility.yul\":8661:8780   */\n    tag_564:\n        /* \"#utility.yul\":8819:8820   */\n      0x00\n        /* \"#utility.yul\":8844:8897   */\n      tag_566\n        /* \"#utility.yul\":8889:8896   */\n      dup5\n        /* \"#utility.yul\":8880:8886   */\n      dup3\n        /* \"#utility.yul\":8869:8878   */\n      dup6\n        /* \"#utility.yul\":8865:8887   */\n      add\n        /* \"#utility.yul\":8844:8897   */\n      tag_421\n      jump\t// in\n    tag_566:\n        /* \"#utility.yul\":8834:8897   */\n      swap2\n      pop\n        /* \"#utility.yul\":8790:8907   */\n      pop\n        /* \"#utility.yul\":8585:8914   */\n      swap3\n      swap2\n      pop\n      pop\n      jump\t// out\n        /* \"#utility.yul\":8920:9168   */\n    tag_103:\n        /* \"#utility.yul\":9026:9030   */\n      0x00\n        /* \"#utility.yul\":9064:9066   */\n      0x20\n        /* \"#utility.yul\":9053:9062   */\n      dup3\n        /* \"#utility.yul\":9049:9067   */\n      add\n        /* \"#utility.yul\":9041:9067   */\n      swap1\n      pop\n        /* \"#utility.yul\":9077:9161   */\n      tag_568\n        /* \"#utility.yul\":9158:9159   */\n      0x00\n        /* \"#utility.yul\":9147:9156   */\n      dup4\n        /* \"#utility.yul\":9143:9160   */\n      add\n        /* \"#utility.yul\":9134:9140   */\n      dup5\n        /* \"#utility.yul\":9077:9161   */\n      tag_417\n      jump\t// in\n    tag_568:\n        /* \"#utility.yul\":8920:9168   */\n      swap3\n      swap2\n      pop\n      pop\n      jump\t// out\n        /* \"#utility.yul\":9174:9501   */\n    tag_112:\n        /* \"#utility.yul\":9232:9238   */\n      0x00\n        /* \"#utility.yul\":9281:9283   */\n      0x20\n        /* \"#utility.yul\":9269:9278   */\n      dup3\n        /* \"#utility.yul\":9260:9267   */\n      dup5\n        /* \"#utility.yul\":9256:9279   */\n      sub\n        /* \"#utility.yul\":9252:9284   */\n      slt\n        /* \"#utility.yul\":9249:9368   */\n      iszero\n      tag_570\n      jumpi\n        /* \"#utility.yul\":9287:9366   */\n      tag_571\n      tag_396\n      jump\t// in\n    tag_571:\n        /* \"#utility.yul\":9249:9368   */\n    tag_570:\n        /* \"#utility.yul\":9407:9408   */\n      0x00\n        /* \"#utility.yul\":9432:9484   */\n      tag_572\n        /* \"#utility.yul\":9476:9483   */\n      dup5\n        /* \"#utility.yul\":9467:9473   */\n      dup3\n        /* \"#utility.yul\":9456:9465   */\n      dup6\n        /* \"#utility.yul\":9452:9474   */\n      add\n        /* \"#utility.yul\":9432:9484   */\n      tag_411\n      jump\t// in\n    tag_572:\n        /* \"#utility.yul\":9422:9484   */\n      swap2\n      pop\n        /* \"#utility.yul\":9378:9494   */\n      pop\n        /* \"#utility.yul\":9174:9501   */\n      swap3\n      swap2\n      pop\n      pop\n      jump\t// out\n        /* \"#utility.yul\":9507:9676   */\n    tag_423:\n        /* \"#utility.yul\":9591:9602   */\n      0x00\n        /* \"#utility.yul\":9625:9631   */\n      dup3\n        /* \"#utility.yul\":9620:9623   */\n      dup3\n        /* \"#utility.yul\":9613:9632   */\n      mstore\n        /* \"#utility.yul\":9665:9669   */\n      0x20\n        /* \"#utility.yul\":9660:9663   */\n      dup3\n        /* \"#utility.yul\":9656:9670   */\n      add\n        /* \"#utility.yul\":9641:9670   */\n      swap1\n      pop\n        /* \"#utility.yul\":9507:9676   */\n      swap3\n      swap2\n      pop\n      pop\n      jump\t// out\n        /* \"#utility.yul\":9682:9911   */\n    tag_424:\n        /* \"#utility.yul\":9822:9856   */\n      0x64455448526577617264506f6f6c3a2063616c6c6572206973206e6f74207468\n        /* \"#utility.yul\":9818:9819   */\n      0x00\n        /* \"#utility.yul\":9810:9816   */\n      dup3\n        /* \"#utility.yul\":9806:9820   */\n      add\n        /* \"#utility.yul\":9799:9857   */\n      mstore\n        /* \"#utility.yul\":9891:9903   */\n      0x65206f70657261746f7200000000000000000000000000000000000000000000\n        /* \"#utility.yul\":9886:9888   */\n      0x20\n        /* \"#utility.yul\":9878:9884   */\n      dup3\n        /* \"#utility.yul\":9874:9889   */\n      add\n        /* \"#utility.yul\":9867:9904   */\n      mstore\n        /* \"#utility.yul\":9682:9911   */\n      pop\n      jump\t// out\n        /* \"#utility.yul\":9917:10283   */\n    tag_425:\n        /* \"#utility.yul\":10059:10062   */\n      0x00\n        /* \"#utility.yul\":10080:10147   */\n      tag_576\n        /* \"#utility.yul\":10144:10146   */\n      0x2a\n        /* \"#utility.yul\":10139:10142   */\n      dup4\n        /* \"#utility.yul\":10080:10147   */\n      tag_423\n      jump\t// in\n    tag_576:\n        /* \"#utility.yul\":10073:10147   */\n      swap2\n      pop\n        /* \"#utility.yul\":10156:10249   */\n      tag_577\n        /* \"#utility.yul\":10245:10248   */\n      dup3\n        /* \"#utility.yul\":10156:10249   */\n      tag_424\n      jump\t// in\n    tag_577:\n        /* \"#utility.yul\":10274:10276   */\n      0x40\n        /* \"#utility.yul\":10269:10272   */\n      dup3\n        /* \"#utility.yul\":10265:10277   */\n      add\n        /* \"#utility.yul\":10258:10277   */\n      swap1\n      pop\n        /* \"#utility.yul\":9917:10283   */\n      swap2\n      swap1\n      pop\n      jump\t// out\n        /* \"#utility.yul\":10289:10708   */\n    tag_117:\n        /* \"#utility.yul\":10455:10459   */\n      0x00\n        /* \"#utility.yul\":10493:10495   */\n      0x20\n        /* \"#utility.yul\":10482:10491   */\n      dup3\n        /* \"#utility.yul\":10478:10496   */\n      add\n        /* \"#utility.yul\":10470:10496   */\n      swap1\n      pop\n        /* \"#utility.yul\":10542:10551   */\n      dup2\n        /* \"#utility.yul\":10536:10540   */\n      dup2\n        /* \"#utility.yul\":10532:10552   */\n      sub\n        /* \"#utility.yul\":10528:10529   */\n      0x00\n        /* \"#utility.yul\":10517:10526   */\n      dup4\n        /* \"#utility.yul\":10513:10530   */\n      add\n        /* \"#utility.yul\":10506:10553   */\n      mstore\n        /* \"#utility.yul\":10570:10701   */\n      tag_579\n        /* \"#utility.yul\":10696:10700   */\n      dup2\n        /* \"#utility.yul\":10570:10701   */\n      tag_425\n      jump\t// in\n    tag_579:\n        /* \"#utility.yul\":10562:10701   */\n      swap1\n      pop\n        /* \"#utility.yul\":10289:10708   */\n      swap2\n      swap1\n      pop\n      jump\t// out\n        /* \"#utility.yul\":10714:10938   */\n    tag_426:\n        /* \"#utility.yul\":10854:10888   */\n      0x6164643a20696e76616c6964206465706f736974206665652062617369732070\n        /* \"#utility.yul\":10850:10851   */\n      0x00\n        /* \"#utility.yul\":10842:10848   */\n      dup3\n        /* \"#utility.yul\":10838:10852   */\n      add\n        /* \"#utility.yul\":10831:10889   */\n      mstore\n        /* \"#utility.yul\":10923:10930   */\n      0x6f696e7473000000000000000000000000000000000000000000000000000000\n        /* \"#utility.yul\":10918:10920   */\n      0x20\n        /* \"#utility.yul\":10910:10916   */\n      dup3\n        /* \"#utility.yul\":10906:10921   */\n      add\n        /* \"#utility.yul\":10899:10931   */\n      mstore\n        /* \"#utility.yul\":10714:10938   */\n      pop\n      jump\t// out\n        /* \"#utility.yul\":10944:11310   */\n    tag_427:\n        /* \"#utility.yul\":11086:11089   */\n      0x00\n        /* \"#utility.yul\":11107:11174   */\n      tag_582\n        /* \"#utility.yul\":11171:11173   */\n      0x25\n        /* \"#utility.yul\":11166:11169   */\n      dup4\n        /* \"#utility.yul\":11107:11174   */\n      tag_423\n      jump\t// in\n    tag_582:\n        /* \"#utility.yul\":11100:11174   */\n      swap2\n      pop\n        /* \"#utility.yul\":11183:11276   */\n      tag_583\n        /* \"#utility.yul\":11272:11275   */\n      dup3\n        /* \"#utility.yul\":11183:11276   */\n      tag_426\n      jump\t// in\n    tag_583:\n        /* \"#utility.yul\":11301:11303   */\n      0x40\n        /* \"#utility.yul\":11296:11299   */\n      dup3\n        /* \"#utility.yul\":11292:11304   */\n      add\n        /* \"#utility.yul\":11285:11304   */\n      swap1\n      pop\n        /* \"#utility.yul\":10944:11310   */\n      swap2\n      swap1\n      pop\n      jump\t// out\n        /* \"#utility.yul\":11316:11735   */\n    tag_123:\n        /* \"#utility.yul\":11482:11486   */\n      0x00\n        /* \"#utility.yul\":11520:11522   */\n      0x20\n        /* \"#utility.yul\":11509:11518   */\n      dup3\n        /* \"#utility.yul\":11505:11523   */\n      add\n        /* \"#utility.yul\":11497:11523   */\n      swap1\n      pop\n        /* \"#utility.yul\":11569:11578   */\n      dup2\n        /* \"#utility.yul\":11563:11567   */\n      dup2\n        /* \"#utility.yul\":11559:11579   */\n      sub\n        /* \"#utility.yul\":11555:11556   */\n      0x00\n        /* \"#utility.yul\":11544:11553   */\n      dup4\n        /* \"#utility.yul\":11540:11557   */\n      add\n        /* \"#utility.yul\":11533:11580   */\n      mstore\n        /* \"#utility.yul\":11597:11728   */\n      tag_585\n        /* \"#utility.yul\":11723:11727   */\n      dup2\n        /* \"#utility.yul\":11597:11728   */\n      tag_427\n      jump\t// in\n    tag_585:\n        /* \"#utility.yul\":11589:11728   */\n      swap1\n      pop\n        /* \"#utility.yul\":11316:11735   */\n      swap2\n      swap1\n      pop\n      jump\t// out\n        /* \"#utility.yul\":11741:11921   */\n    tag_143:\n        /* \"#utility.yul\":11789:11866   */\n      0x4e487b7100000000000000000000000000000000000000000000000000000000\n        /* \"#utility.yul\":11786:11787   */\n      0x00\n        /* \"#utility.yul\":11779:11867   */\n      mstore\n        /* \"#utility.yul\":11886:11890   */\n      0x32\n        /* \"#utility.yul\":11883:11884   */\n      0x04\n        /* \"#utility.yul\":11876:11891   */\n      mstore\n        /* \"#utility.yul\":11910:11914   */\n      0x24\n        /* \"#utility.yul\":11907:11908   */\n      0x00\n        /* \"#utility.yul\":11900:11915   */\n      revert\n        /* \"#utility.yul\":11927:12070   */\n    tag_428:\n        /* \"#utility.yul\":11984:11989   */\n      0x00\n        /* \"#utility.yul\":12015:12021   */\n      dup2\n        /* \"#utility.yul\":12009:12022   */\n      mload\n        /* \"#utility.yul\":12000:12022   */\n      swap1\n      pop\n        /* \"#utility.yul\":12031:12064   */\n      tag_588\n        /* \"#utility.yul\":12058:12063   */\n      dup2\n        /* \"#utility.yul\":12031:12064   */\n      tag_399\n      jump\t// in\n    tag_588:\n        /* \"#utility.yul\":11927:12070   */\n      swap3\n      swap2\n      pop\n      pop\n      jump\t// out\n        /* \"#utility.yul\":12076:12427   */\n    tag_149:\n        /* \"#utility.yul\":12146:12152   */\n      0x00\n        /* \"#utility.yul\":12195:12197   */\n      0x20\n        /* \"#utility.yul\":12183:12192   */\n      dup3\n        /* \"#utility.yul\":12174:12181   */\n      dup5\n        /* \"#utility.yul\":12170:12193   */\n      sub\n        /* \"#utility.yul\":12166:12198   */\n      slt\n        /* \"#utility.yul\":12163:12282   */\n      iszero\n      tag_590\n      jumpi\n        /* \"#utility.yul\":12201:12280   */\n      tag_591\n      tag_396\n      jump\t// in\n    tag_591:\n        /* \"#utility.yul\":12163:12282   */\n    tag_590:\n        /* \"#utility.yul\":12321:12322   */\n      0x00\n        /* \"#utility.yul\":12346:12410   */\n      tag_592\n        /* \"#utility.yul\":12402:12409   */\n      dup5\n        /* \"#utility.yul\":12393:12399   */\n      dup3\n        /* \"#utility.yul\":12382:12391   */\n      dup6\n        /* \"#utility.yul\":12378:12400   */\n      add\n        /* \"#utility.yul\":12346:12410   */\n      tag_428\n      jump\t// in\n    tag_592:\n        /* \"#utility.yul\":12336:12410   */\n      swap2\n      pop\n        /* \"#utility.yul\":12292:12420   */\n      pop\n        /* \"#utility.yul\":12076:12427   */\n      swap3\n      swap2\n      pop\n      pop\n      jump\t// out\n        /* \"#utility.yul\":12433:12657   */\n    tag_429:\n        /* \"#utility.yul\":12573:12607   */\n      0x4465706f736974204665652043616e6e6f7420657175616c206d6f7265207468\n        /* \"#utility.yul\":12569:12570   */\n      0x00\n        /* \"#utility.yul\":12561:12567   */\n      dup3\n        /* \"#utility.yul\":12557:12571   */\n      add\n        /* \"#utility.yul\":12550:12608   */\n      mstore\n        /* \"#utility.yul\":12642:12649   */\n      0x616e203025000000000000000000000000000000000000000000000000000000\n        /* \"#utility.yul\":12637:12639   */\n      0x20\n        /* \"#utility.yul\":12629:12635   */\n      dup3\n        /* \"#utility.yul\":12625:12640   */\n      add\n        /* \"#utility.yul\":12618:12650   */\n      mstore\n        /* \"#utility.yul\":12433:12657   */\n      pop\n      jump\t// out\n        /* \"#utility.yul\":12663:13029   */\n    tag_430:\n        /* \"#utility.yul\":12805:12808   */\n      0x00\n        /* \"#utility.yul\":12826:12893   */\n      tag_595\n        /* \"#utility.yul\":12890:12892   */\n      0x25\n        /* \"#utility.yul\":12885:12888   */\n      dup4\n        /* \"#utility.yul\":12826:12893   */\n      tag_423\n      jump\t// in\n    tag_595:\n        /* \"#utility.yul\":12819:12893   */\n      swap2\n      pop\n        /* \"#utility.yul\":12902:12995   */\n      tag_596\n        /* \"#utility.yul\":12991:12994   */\n      dup3\n        /* \"#utility.yul\":12902:12995   */\n      tag_429\n      jump\t// in\n    tag_596:\n        /* \"#utility.yul\":13020:13022   */\n      0x40\n        /* \"#utility.yul\":13015:13018   */\n      dup3\n        /* \"#utility.yul\":13011:13023   */\n      add\n        /* \"#utility.yul\":13004:13023   */\n      swap1\n      pop\n        /* \"#utility.yul\":12663:13029   */\n      swap2\n      swap1\n      pop\n      jump\t// out\n        /* \"#utility.yul\":13035:13454   */\n    tag_186:\n        /* \"#utility.yul\":13201:13205   */\n      0x00\n        /* \"#utility.yul\":13239:13241   */\n      0x20\n        /* \"#utility.yul\":13228:13237   */\n      dup3\n        /* \"#utility.yul\":13224:13242   */\n      add\n        /* \"#utility.yul\":13216:13242   */\n      swap1\n      pop\n        /* \"#utility.yul\":13288:13297   */\n      dup2\n        /* \"#utility.yul\":13282:13286   */\n      dup2\n        /* \"#utility.yul\":13278:13298   */\n      sub\n        /* \"#utility.yul\":13274:13275   */\n      0x00\n        /* \"#utility.yul\":13263:13272   */\n      dup4\n        /* \"#utility.yul\":13259:13276   */\n      add\n        /* \"#utility.yul\":13252:13299   */\n      mstore\n        /* \"#utility.yul\":13316:13447   */\n      tag_598\n        /* \"#utility.yul\":13442:13446   */\n      dup2\n        /* \"#utility.yul\":13316:13447   */\n      tag_430\n      jump\t// in\n    tag_598:\n        /* \"#utility.yul\":13308:13447   */\n      swap1\n      pop\n        /* \"#utility.yul\":13035:13454   */\n      swap2\n      swap1\n      pop\n      jump\t// out\n        /* \"#utility.yul\":13460:13628   */\n    tag_431:\n        /* \"#utility.yul\":13600:13620   */\n      0x77697468647261773a206e6f7420676f6f640000000000000000000000000000\n        /* \"#utility.yul\":13596:13597   */\n      0x00\n        /* \"#utility.yul\":13588:13594   */\n      dup3\n        /* \"#utility.yul\":13584:13598   */\n      add\n        /* \"#utility.yul\":13577:13621   */\n      mstore\n        /* \"#utility.yul\":13460:13628   */\n      pop\n      jump\t// out\n        /* \"#utility.yul\":13634:14000   */\n    tag_432:\n        /* \"#utility.yul\":13776:13779   */\n      0x00\n        /* \"#utility.yul\":13797:13864   */\n      tag_601\n        /* \"#utility.yul\":13861:13863   */\n      0x12\n        /* \"#utility.yul\":13856:13859   */\n      dup4\n        /* \"#utility.yul\":13797:13864   */\n      tag_423\n      jump\t// in\n    tag_601:\n        /* \"#utility.yul\":13790:13864   */\n      swap2\n      pop\n        /* \"#utility.yul\":13873:13966   */\n      tag_602\n        /* \"#utility.yul\":13962:13965   */\n      dup3\n        /* \"#utility.yul\":13873:13966   */\n      tag_431\n      jump\t// in\n    tag_602:\n        /* \"#utility.yul\":13991:13993   */\n      0x20\n        /* \"#utility.yul\":13986:13989   */\n      dup3\n        /* \"#utility.yul\":13982:13994   */\n      add\n        /* \"#utility.yul\":13975:13994   */\n      swap1\n      pop\n        /* \"#utility.yul\":13634:14000   */\n      swap2\n      swap1\n      pop\n      jump\t// out\n        /* \"#utility.yul\":14006:14425   */\n    tag_200:\n        /* \"#utility.yul\":14172:14176   */\n      0x00\n        /* \"#utility.yul\":14210:14212   */\n      0x20\n        /* \"#utility.yul\":14199:14208   */\n      dup3\n        /* \"#utility.yul\":14195:14213   */\n      add\n        /* \"#utility.yul\":14187:14213   */\n      swap1\n      pop\n        /* \"#utility.yul\":14259:14268   */\n      dup2\n        /* \"#utility.yul\":14253:14257   */\n      dup2\n        /* \"#utility.yul\":14249:14269   */\n      sub\n        /* \"#utility.yul\":14245:14246   */\n      0x00\n        /* \"#utility.yul\":14234:14243   */\n      dup4\n        /* \"#utility.yul\":14230:14247   */\n      add\n        /* \"#utility.yul\":14223:14270   */\n      mstore\n        /* \"#utility.yul\":14287:14418   */\n      tag_604\n        /* \"#utility.yul\":14413:14417   */\n      dup2\n        /* \"#utility.yul\":14287:14418   */\n      tag_432\n      jump\t// in\n    tag_604:\n        /* \"#utility.yul\":14279:14418   */\n      swap1\n      pop\n        /* \"#utility.yul\":14006:14425   */\n      swap2\n      swap1\n      pop\n      jump\t// out\n        /* \"#utility.yul\":14431:14611   */\n    tag_433:\n        /* \"#utility.yul\":14479:14556   */\n      0x4e487b7100000000000000000000000000000000000000000000000000000000\n        /* \"#utility.yul\":14476:14477   */\n      0x00\n        /* \"#utility.yul\":14469:14557   */\n      mstore\n        /* \"#utility.yul\":14576:14580   */\n      0x11\n        /* \"#utility.yul\":14573:14574   */\n      0x04\n        /* \"#utility.yul\":14566:14581   */\n      mstore\n        /* \"#utility.yul\":14600:14604   */\n      0x24\n        /* \"#utility.yul\":14597:14598   */\n      0x00\n        /* \"#utility.yul\":14590:14605   */\n      revert\n        /* \"#utility.yul\":14617:14808   */\n    tag_246:\n        /* \"#utility.yul\":14657:14660   */\n      0x00\n        /* \"#utility.yul\":14676:14696   */\n      tag_607\n        /* \"#utility.yul\":14694:14695   */\n      dup3\n        /* \"#utility.yul\":14676:14696   */\n      tag_398\n      jump\t// in\n    tag_607:\n        /* \"#utility.yul\":14671:14696   */\n      swap2\n      pop\n        /* \"#utility.yul\":14710:14730   */\n      tag_608\n        /* \"#utility.yul\":14728:14729   */\n      dup4\n        /* \"#utility.yul\":14710:14730   */\n      tag_398\n      jump\t// in\n    tag_608:\n        /* \"#utility.yul\":14705:14730   */\n      swap3\n      pop\n        /* \"#utility.yul\":14753:14754   */\n      dup3\n        /* \"#utility.yul\":14750:14751   */\n      dup3\n        /* \"#utility.yul\":14746:14755   */\n      add\n        /* \"#utility.yul\":14739:14755   */\n      swap1\n      pop\n        /* \"#utility.yul\":14774:14777   */\n      dup1\n        /* \"#utility.yul\":14771:14772   */\n      dup3\n        /* \"#utility.yul\":14768:14778   */\n      gt\n        /* \"#utility.yul\":14765:14801   */\n      iszero\n      tag_609\n      jumpi\n        /* \"#utility.yul\":14781:14799   */\n      tag_610\n      tag_433\n      jump\t// in\n    tag_610:\n        /* \"#utility.yul\":14765:14801   */\n    tag_609:\n        /* \"#utility.yul\":14617:14808   */\n      swap3\n      swap2\n      pop\n      pop\n      jump\t// out\n        /* \"#utility.yul\":14814:14968   */\n    tag_434:\n        /* \"#utility.yul\":14954:14960   */\n      0x6465746800000000000000000000000000000000000000000000000000000000\n        /* \"#utility.yul\":14950:14951   */\n      0x00\n        /* \"#utility.yul\":14942:14948   */\n      dup3\n        /* \"#utility.yul\":14938:14952   */\n      add\n        /* \"#utility.yul\":14931:14961   */\n      mstore\n        /* \"#utility.yul\":14814:14968   */\n      pop\n      jump\t// out\n        /* \"#utility.yul\":14974:15339   */\n    tag_435:\n        /* \"#utility.yul\":15116:15119   */\n      0x00\n        /* \"#utility.yul\":15137:15203   */\n      tag_613\n        /* \"#utility.yul\":15201:15202   */\n      0x04\n        /* \"#utility.yul\":15196:15199   */\n      dup4\n        /* \"#utility.yul\":15137:15203   */\n      tag_423\n      jump\t// in\n    tag_613:\n        /* \"#utility.yul\":15130:15203   */\n      swap2\n      pop\n        /* \"#utility.yul\":15212:15305   */\n      tag_614\n        /* \"#utility.yul\":15301:15304   */\n      dup3\n        /* \"#utility.yul\":15212:15305   */\n      tag_434\n      jump\t// in\n    tag_614:\n        /* \"#utility.yul\":15330:15332   */\n      0x20\n        /* \"#utility.yul\":15325:15328   */\n      dup3\n        /* \"#utility.yul\":15321:15333   */\n      add\n        /* \"#utility.yul\":15314:15333   */\n      swap1\n      pop\n        /* \"#utility.yul\":14974:15339   */\n      swap2\n      swap1\n      pop\n      jump\t// out\n        /* \"#utility.yul\":15345:15764   */\n    tag_250:\n        /* \"#utility.yul\":15511:15515   */\n      0x00\n        /* \"#utility.yul\":15549:15551   */\n      0x20\n        /* \"#utility.yul\":15538:15547   */\n      dup3\n        /* \"#utility.yul\":15534:15552   */\n      add\n        /* \"#utility.yul\":15526:15552   */\n      swap1\n      pop\n        /* \"#utility.yul\":15598:15607   */\n      dup2\n        /* \"#utility.yul\":15592:15596   */\n      dup2\n        /* \"#utility.yul\":15588:15608   */\n      sub\n        /* \"#utility.yul\":15584:15585   */\n      0x00\n        /* \"#utility.yul\":15573:15582   */\n      dup4\n        /* \"#utility.yul\":15569:15586   */\n      add\n        /* \"#utility.yul\":15562:15609   */\n      mstore\n        /* \"#utility.yul\":15626:15757   */\n      tag_616\n        /* \"#utility.yul\":15752:15756   */\n      dup2\n        /* \"#utility.yul\":15626:15757   */\n      tag_435\n      jump\t// in\n    tag_616:\n        /* \"#utility.yul\":15618:15757   */\n      swap1\n      pop\n        /* \"#utility.yul\":15345:15764   */\n      swap2\n      swap1\n      pop\n      jump\t// out\n        /* \"#utility.yul\":15770:15930   */\n    tag_436:\n        /* \"#utility.yul\":15910:15922   */\n      0x706f6f6c2e746f6b656e00000000000000000000000000000000000000000000\n        /* \"#utility.yul\":15906:15907   */\n      0x00\n        /* \"#utility.yul\":15898:15904   */\n      dup3\n        /* \"#utility.yul\":15894:15908   */\n      add\n        /* \"#utility.yul\":15887:15923   */\n      mstore\n        /* \"#utility.yul\":15770:15930   */\n      pop\n      jump\t// out\n        /* \"#utility.yul\":15936:16302   */\n    tag_437:\n        /* \"#utility.yul\":16078:16081   */\n      0x00\n        /* \"#utility.yul\":16099:16166   */\n      tag_619\n        /* \"#utility.yul\":16163:16165   */\n      0x0a\n        /* \"#utility.yul\":16158:16161   */\n      dup4\n        /* \"#utility.yul\":16099:16166   */\n      tag_423\n      jump\t// in\n    tag_619:\n        /* \"#utility.yul\":16092:16166   */\n      swap2\n      pop\n        /* \"#utility.yul\":16175:16268   */\n      tag_620\n        /* \"#utility.yul\":16264:16267   */\n      dup3\n        /* \"#utility.yul\":16175:16268   */\n      tag_436\n      jump\t// in\n    tag_620:\n        /* \"#utility.yul\":16293:16295   */\n      0x20\n        /* \"#utility.yul\":16288:16291   */\n      dup3\n        /* \"#utility.yul\":16284:16296   */\n      add\n        /* \"#utility.yul\":16277:16296   */\n      swap1\n      pop\n        /* \"#utility.yul\":15936:16302   */\n      swap2\n      swap1\n      pop\n      jump\t// out\n        /* \"#utility.yul\":16308:16727   */\n    tag_259:\n        /* \"#utility.yul\":16474:16478   */\n      0x00\n        /* \"#utility.yul\":16512:16514   */\n      0x20\n        /* \"#utility.yul\":16501:16510   */\n      dup3\n        /* \"#utility.yul\":16497:16515   */\n      add\n        /* \"#utility.yul\":16489:16515   */\n      swap1\n      pop\n        /* \"#utility.yul\":16561:16570   */\n      dup2\n        /* \"#utility.yul\":16555:16559   */\n      dup2\n        /* \"#utility.yul\":16551:16571   */\n      sub\n        /* \"#utility.yul\":16547:16548   */\n      0x00\n        /* \"#utility.yul\":16536:16545   */\n      dup4\n        /* \"#utility.yul\":16532:16549   */\n      add\n        /* \"#utility.yul\":16525:16572   */\n      mstore\n        /* \"#utility.yul\":16589:16720   */\n      tag_622\n        /* \"#utility.yul\":16715:16719   */\n      dup2\n        /* \"#utility.yul\":16589:16720   */\n      tag_437\n      jump\t// in\n    tag_622:\n        /* \"#utility.yul\":16581:16720   */\n      swap1\n      pop\n        /* \"#utility.yul\":16308:16727   */\n      swap2\n      swap1\n      pop\n      jump\t// out\n        /* \"#utility.yul\":16733:16966   */\n    tag_261:\n        /* \"#utility.yul\":16772:16775   */\n      0x00\n        /* \"#utility.yul\":16795:16819   */\n      tag_624\n        /* \"#utility.yul\":16813:16818   */\n      dup3\n        /* \"#utility.yul\":16795:16819   */\n      tag_398\n      jump\t// in\n    tag_624:\n        /* \"#utility.yul\":16786:16819   */\n      swap2\n      pop\n        /* \"#utility.yul\":16841:16907   */\n      0xffffffffffffffffffffffffffffffffffffffffffffffffffffffffffffffff\n        /* \"#utility.yul\":16834:16839   */\n      dup3\n        /* \"#utility.yul\":16831:16908   */\n      sub\n        /* \"#utility.yul\":16828:16931   */\n      tag_625\n      jumpi\n        /* \"#utility.yul\":16911:16929   */\n      tag_626\n      tag_433\n      jump\t// in\n    tag_626:\n        /* \"#utility.yul\":16828:16931   */\n    tag_625:\n        /* \"#utility.yul\":16958:16959   */\n      0x01\n        /* \"#utility.yul\":16951:16956   */\n      dup3\n        /* \"#utility.yul\":16947:16960   */\n      add\n        /* \"#utility.yul\":16940:16960   */\n      swap1\n      pop\n        /* \"#utility.yul\":16733:16966   */\n      swap2\n      swap1\n      pop\n      jump\t// out\n        /* \"#utility.yul\":16972:17196   */\n    tag_438:\n        /* \"#utility.yul\":17112:17146   */\n      0x7365743a20696e76616c6964206465706f736974206665652062617369732070\n        /* \"#utility.yul\":17108:17109   */\n      0x00\n        /* \"#utility.yul\":17100:17106   */\n      dup3\n        /* \"#utility.yul\":17096:17110   */\n      add\n        /* \"#utility.yul\":17089:17147   */\n      mstore\n        /* \"#utility.yul\":17181:17188   */\n      0x6f696e7473000000000000000000000000000000000000000000000000000000\n        /* \"#utility.yul\":17176:17178   */\n      0x20\n        /* \"#utility.yul\":17168:17174   */\n      dup3\n        /* \"#utility.yul\":17164:17179   */\n      add\n        /* \"#utility.yul\":17157:17189   */\n      mstore\n        /* \"#utility.yul\":16972:17196   */\n      pop\n      jump\t// out\n        /* \"#utility.yul\":17202:17568   */\n    tag_439:\n        /* \"#utility.yul\":17344:17347   */\n      0x00\n        /* \"#utility.yul\":17365:17432   */\n      tag_629\n        /* \"#utility.yul\":17429:17431   */\n      0x25\n        /* \"#utility.yul\":17424:17427   */\n      dup4\n        /* \"#utility.yul\":17365:17432   */\n      tag_423\n      jump\t// in\n    tag_629:\n        /* \"#utility.yul\":17358:17432   */\n      swap2\n      pop\n        /* \"#utility.yul\":17441:17534   */\n      tag_630\n        /* \"#utility.yul\":17530:17533   */\n      dup3\n        /* \"#utility.yul\":17441:17534   */\n      tag_438\n      jump\t// in\n    tag_630:\n        /* \"#utility.yul\":17559:17561   */\n      0x40\n        /* \"#utility.yul\":17554:17557   */\n      dup3\n        /* \"#utility.yul\":17550:17562   */\n      add\n        /* \"#utility.yul\":17543:17562   */\n      swap1\n      pop\n        /* \"#utility.yul\":17202:17568   */\n      swap2\n      swap1\n      pop\n      jump\t// out\n        /* \"#utility.yul\":17574:17993   */\n    tag_305:\n        /* \"#utility.yul\":17740:17744   */\n      0x00\n        /* \"#utility.yul\":17778:17780   */\n      0x20\n        /* \"#utility.yul\":17767:17776   */\n      dup3\n        /* \"#utility.yul\":17763:17781   */\n      add\n        /* \"#utility.yul\":17755:17781   */\n      swap1\n      pop\n        /* \"#utility.yul\":17827:17836   */\n      dup2\n        /* \"#utility.yul\":17821:17825   */\n      dup2\n        /* \"#utility.yul\":17817:17837   */\n      sub\n        /* \"#utility.yul\":17813:17814   */\n      0x00\n        /* \"#utility.yul\":17802:17811   */\n      dup4\n        /* \"#utility.yul\":17798:17815   */\n      add\n        /* \"#utility.yul\":17791:17838   */\n      mstore\n        /* \"#utility.yul\":17855:17986   */\n      tag_632\n        /* \"#utility.yul\":17981:17985   */\n      dup2\n        /* \"#utility.yul\":17855:17986   */\n      tag_439\n      jump\t// in\n    tag_632:\n        /* \"#utility.yul\":17847:17986   */\n      swap1\n      pop\n        /* \"#utility.yul\":17574:17993   */\n      swap2\n      swap1\n      pop\n      jump\t// out\n        /* \"#utility.yul\":17999:18139   */\n    tag_440:\n        /* \"#utility.yul\":18048:18057   */\n      0x00\n        /* \"#utility.yul\":18081:18133   */\n      tag_634\n        /* \"#utility.yul\":18099:18132   */\n      tag_635\n        /* \"#utility.yul\":18108:18131   */\n      tag_636\n        /* \"#utility.yul\":18125:18130   */\n      dup5\n        /* \"#utility.yul\":18108:18131   */\n      tag_409\n      jump\t// in\n    tag_636:\n        /* \"#utility.yul\":18099:18132   */\n      tag_413\n      jump\t// in\n    tag_635:\n        /* \"#utility.yul\":18081:18133   */\n      tag_398\n      jump\t// in\n    tag_634:\n        /* \"#utility.yul\":18068:18133   */\n      swap1\n      pop\n        /* \"#utility.yul\":17999:18139   */\n      swap2\n      swap1\n      pop\n      jump\t// out\n        /* \"#utility.yul\":18145:18274   */\n    tag_441:\n        /* \"#utility.yul\":18231:18267   */\n      tag_638\n        /* \"#utility.yul\":18261:18266   */\n      dup2\n        /* \"#utility.yul\":18231:18267   */\n      tag_440\n      jump\t// in\n    tag_638:\n        /* \"#utility.yul\":18226:18229   */\n      dup3\n        /* \"#utility.yul\":18219:18268   */\n      mstore\n        /* \"#utility.yul\":18145:18274   */\n      pop\n      pop\n      jump\t// out\n        /* \"#utility.yul\":18280:18720   */\n    tag_316:\n        /* \"#utility.yul\":18428:18432   */\n      0x00\n        /* \"#utility.yul\":18466:18468   */\n      0x60\n        /* \"#utility.yul\":18455:18464   */\n      dup3\n        /* \"#utility.yul\":18451:18469   */\n      add\n        /* \"#utility.yul\":18443:18469   */\n      swap1\n      pop\n        /* \"#utility.yul\":18479:18550   */\n      tag_640\n        /* \"#utility.yul\":18547:18548   */\n      0x00\n        /* \"#utility.yul\":18536:18545   */\n      dup4\n        /* \"#utility.yul\":18532:18549   */\n      add\n        /* \"#utility.yul\":18523:18529   */\n      dup7\n        /* \"#utility.yul\":18479:18550   */\n      tag_422\n      jump\t// in\n    tag_640:\n        /* \"#utility.yul\":18560:18632   */\n      tag_641\n        /* \"#utility.yul\":18628:18630   */\n      0x20\n        /* \"#utility.yul\":18617:18626   */\n      dup4\n        /* \"#utility.yul\":18613:18631   */\n      add\n        /* \"#utility.yul\":18604:18610   */\n      dup6\n        /* \"#utility.yul\":18560:18632   */\n      tag_412\n      jump\t// in\n    tag_641:\n        /* \"#utility.yul\":18642:18713   */\n      tag_642\n        /* \"#utility.yul\":18709:18711   */\n      0x40\n        /* \"#utility.yul\":18698:18707   */\n      dup4\n        /* \"#utility.yul\":18694:18712   */\n      add\n        /* \"#utility.yul\":18685:18691   */\n      dup5\n        /* \"#utility.yul\":18642:18713   */\n      tag_441\n      jump\t// in\n    tag_642:\n        /* \"#utility.yul\":18280:18720   */\n      swap5\n      swap4\n      pop\n      pop\n      pop\n      pop\n      jump\t// out\n        /* \"#utility.yul\":18726:18906   */\n    tag_442:\n        /* \"#utility.yul\":18866:18898   */\n      0x64455448526577617264506f6f6c3a206578697374696e6720706f6f6c3f0000\n        /* \"#utility.yul\":18862:18863   */\n      0x00\n        /* \"#utility.yul\":18854:18860   */\n      dup3\n        /* \"#utility.yul\":18850:18864   */\n      add\n        /* \"#utility.yul\":18843:18899   */\n      mstore\n        /* \"#utility.yul\":18726:18906   */\n      pop\n      jump\t// out\n        /* \"#utility.yul\":18912:19278   */\n    tag_443:\n        /* \"#utility.yul\":19054:19057   */\n      0x00\n        /* \"#utility.yul\":19075:19142   */\n      tag_645\n        /* \"#utility.yul\":19139:19141   */\n      0x1e\n        /* \"#utility.yul\":19134:19137   */\n      dup4\n        /* \"#utility.yul\":19075:19142   */\n      tag_423\n      jump\t// in\n    tag_645:\n        /* \"#utility.yul\":19068:19142   */\n      swap2\n      pop\n        /* \"#utility.yul\":19151:19244   */\n      tag_646\n        /* \"#utility.yul\":19240:19243   */\n      dup3\n        /* \"#utility.yul\":19151:19244   */\n      tag_442\n      jump\t// in\n    tag_646:\n        /* \"#utility.yul\":19269:19271   */\n      0x20\n        /* \"#utility.yul\":19264:19267   */\n      dup3\n        /* \"#utility.yul\":19260:19272   */\n      add\n        /* \"#utility.yul\":19253:19272   */\n      swap1\n      pop\n        /* \"#utility.yul\":18912:19278   */\n      swap2\n      swap1\n      pop\n      jump\t// out\n        /* \"#utility.yul\":19284:19703   */\n    tag_327:\n        /* \"#utility.yul\":19450:19454   */\n      0x00\n        /* \"#utility.yul\":19488:19490   */\n      0x20\n        /* \"#utility.yul\":19477:19486   */\n      dup3\n        /* \"#utility.yul\":19473:19491   */\n      add\n        /* \"#utility.yul\":19465:19491   */\n      swap1\n      pop\n        /* \"#utility.yul\":19537:19546   */\n      dup2\n        /* \"#utility.yul\":19531:19535   */\n      dup2\n        /* \"#utility.yul\":19527:19547   */\n      sub\n        /* \"#utility.yul\":19523:19524   */\n      0x00\n        /* \"#utility.yul\":19512:19521   */\n      dup4\n        /* \"#utility.yul\":19508:19525   */\n      add\n        /* \"#utility.yul\":19501:19548   */\n      mstore\n        /* \"#utility.yul\":19565:19696   */\n      tag_648\n        /* \"#utility.yul\":19691:19695   */\n      dup2\n        /* \"#utility.yul\":19565:19696   */\n      tag_443\n      jump\t// in\n    tag_648:\n        /* \"#utility.yul\":19557:19696   */\n      swap1\n      pop\n        /* \"#utility.yul\":19284:19703   */\n      swap2\n      swap1\n      pop\n      jump\t// out\n        /* \"#utility.yul\":19709:20057   */\n    tag_333:\n        /* \"#utility.yul\":19749:19756   */\n      0x00\n        /* \"#utility.yul\":19772:19792   */\n      tag_650\n        /* \"#utility.yul\":19790:19791   */\n      dup3\n        /* \"#utility.yul\":19772:19792   */\n      tag_398\n      jump\t// in\n    tag_650:\n        /* \"#utility.yul\":19767:19792   */\n      swap2\n      pop\n        /* \"#utility.yul\":19806:19826   */\n      tag_651\n        /* \"#utility.yul\":19824:19825   */\n      dup4\n        /* \"#utility.yul\":19806:19826   */\n      tag_398\n      jump\t// in\n    tag_651:\n        /* \"#utility.yul\":19801:19826   */\n      swap3\n      pop\n        /* \"#utility.yul\":19994:19995   */\n      dup2\n        /* \"#utility.yul\":19926:19992   */\n      0xffffffffffffffffffffffffffffffffffffffffffffffffffffffffffffffff\n        /* \"#utility.yul\":19922:19996   */\n      div\n        /* \"#utility.yul\":19919:19920   */\n      dup4\n        /* \"#utility.yul\":19916:19997   */\n      gt\n        /* \"#utility.yul\":19911:19912   */\n      dup3\n        /* \"#utility.yul\":19904:19913   */\n      iszero\n        /* \"#utility.yul\":19897:19914   */\n      iszero\n        /* \"#utility.yul\":19893:19998   */\n      and\n        /* \"#utility.yul\":19890:20021   */\n      iszero\n      tag_652\n      jumpi\n        /* \"#utility.yul\":20001:20019   */\n      tag_653\n      tag_433\n      jump\t// in\n    tag_653:\n        /* \"#utility.yul\":19890:20021   */\n    tag_652:\n        /* \"#utility.yul\":20049:20050   */\n      dup3\n        /* \"#utility.yul\":20046:20047   */\n      dup3\n        /* \"#utility.yul\":20042:20051   */\n      mul\n        /* \"#utility.yul\":20031:20051   */\n      swap1\n      pop\n        /* \"#utility.yul\":19709:20057   */\n      swap3\n      swap2\n      pop\n      pop\n      jump\t// out\n        /* \"#utility.yul\":20063:20243   */\n    tag_444:\n        /* \"#utility.yul\":20111:20188   */\n      0x4e487b7100000000000000000000000000000000000000000000000000000000\n        /* \"#utility.yul\":20108:20109   */\n      0x00\n        /* \"#utility.yul\":20101:20189   */\n      mstore\n        /* \"#utility.yul\":20208:20212   */\n      0x12\n        /* \"#utility.yul\":20205:20206   */\n      0x04\n        /* \"#utility.yul\":20198:20213   */\n      mstore\n        /* \"#utility.yul\":20232:20236   */\n      0x24\n        /* \"#utility.yul\":20229:20230   */\n      0x00\n        /* \"#utility.yul\":20222:20237   */\n      revert\n        /* \"#utility.yul\":20249:20434   */\n    tag_336:\n        /* \"#utility.yul\":20289:20290   */\n      0x00\n        /* \"#utility.yul\":20306:20326   */\n      tag_656\n        /* \"#utility.yul\":20324:20325   */\n      dup3\n        /* \"#utility.yul\":20306:20326   */\n      tag_398\n      jump\t// in\n    tag_656:\n        /* \"#utility.yul\":20301:20326   */\n      swap2\n      pop\n        /* \"#utility.yul\":20340:20360   */\n      tag_657\n        /* \"#utility.yul\":20358:20359   */\n      dup4\n        /* \"#utility.yul\":20340:20360   */\n      tag_398\n      jump\t// in\n    tag_657:\n        /* \"#utility.yul\":20335:20360   */\n      swap3\n      pop\n        /* \"#utility.yul\":20379:20380   */\n      dup3\n        /* \"#utility.yul\":20369:20404   */\n      tag_658\n      jumpi\n        /* \"#utility.yul\":20384:20402   */\n      tag_659\n      tag_444\n      jump\t// in\n    tag_659:\n        /* \"#utility.yul\":20369:20404   */\n    tag_658:\n        /* \"#utility.yul\":20426:20427   */\n      dup3\n        /* \"#utility.yul\":20423:20424   */\n      dup3\n        /* \"#utility.yul\":20419:20428   */\n      div\n        /* \"#utility.yul\":20414:20428   */\n      swap1\n      pop\n        /* \"#utility.yul\":20249:20434   */\n      swap3\n      swap2\n      pop\n      pop\n      jump\t// out\n        /* \"#utility.yul\":20440:20634   */\n    tag_339:\n        /* \"#utility.yul\":20480:20484   */\n      0x00\n        /* \"#utility.yul\":20500:20520   */\n      tag_661\n        /* \"#utility.yul\":20518:20519   */\n      dup3\n        /* \"#utility.yul\":20500:20520   */\n      tag_398\n      jump\t// in\n    tag_661:\n        /* \"#utility.yul\":20495:20520   */\n      swap2\n      pop\n        /* \"#utility.yul\":20534:20554   */\n      tag_662\n        /* \"#utility.yul\":20552:20553   */\n      dup4\n        /* \"#utility.yul\":20534:20554   */\n      tag_398\n      jump\t// in\n    tag_662:\n        /* \"#utility.yul\":20529:20554   */\n      swap3\n      pop\n        /* \"#utility.yul\":20578:20579   */\n      dup3\n        /* \"#utility.yul\":20575:20576   */\n      dup3\n        /* \"#utility.yul\":20571:20580   */\n      sub\n        /* \"#utility.yul\":20563:20580   */\n      swap1\n      pop\n        /* \"#utility.yul\":20602:20603   */\n      dup2\n        /* \"#utility.yul\":20596:20600   */\n      dup2\n        /* \"#utility.yul\":20593:20604   */\n      gt\n        /* \"#utility.yul\":20590:20627   */\n      iszero\n      tag_663\n      jumpi\n        /* \"#utility.yul\":20607:20625   */\n      tag_664\n      tag_433\n      jump\t// in\n    tag_664:\n        /* \"#utility.yul\":20590:20627   */\n    tag_663:\n        /* \"#utility.yul\":20440:20634   */\n      swap3\n      swap2\n      pop\n      pop\n      jump\t// out\n        /* \"#utility.yul\":20640:20972   */\n    tag_353:\n        /* \"#utility.yul\":20761:20765   */\n      0x00\n        /* \"#utility.yul\":20799:20801   */\n      0x40\n        /* \"#utility.yul\":20788:20797   */\n      dup3\n        /* \"#utility.yul\":20784:20802   */\n      add\n        /* \"#utility.yul\":20776:20802   */\n      swap1\n      pop\n        /* \"#utility.yul\":20812:20883   */\n      tag_666\n        /* \"#utility.yul\":20880:20881   */\n      0x00\n        /* \"#utility.yul\":20869:20878   */\n      dup4\n        /* \"#utility.yul\":20865:20882   */\n      add\n        /* \"#utility.yul\":20856:20862   */\n      dup6\n        /* \"#utility.yul\":20812:20883   */\n      tag_422\n      jump\t// in\n    tag_666:\n        /* \"#utility.yul\":20893:20965   */\n      tag_667\n        /* \"#utility.yul\":20961:20963   */\n      0x20\n        /* \"#utility.yul\":20950:20959   */\n      dup4\n        /* \"#utility.yul\":20946:20964   */\n      add\n        /* \"#utility.yul\":20937:20943   */\n      dup5\n        /* \"#utility.yul\":20893:20965   */\n      tag_412\n      jump\t// in\n    tag_667:\n        /* \"#utility.yul\":20640:20972   */\n      swap4\n      swap3\n      pop\n      pop\n      pop\n      jump\t// out\n        /* \"#utility.yul\":20978:21420   */\n    tag_358:\n        /* \"#utility.yul\":21127:21131   */\n      0x00\n        /* \"#utility.yul\":21165:21167   */\n      0x60\n        /* \"#utility.yul\":21154:21163   */\n      dup3\n        /* \"#utility.yul\":21150:21168   */\n      add\n        /* \"#utility.yul\":21142:21168   */\n      swap1\n      pop\n        /* \"#utility.yul\":21178:21249   */\n      tag_669\n        /* \"#utility.yul\":21246:21247   */\n      0x00\n        /* \"#utility.yul\":21235:21244   */\n      dup4\n        /* \"#utility.yul\":21231:21248   */\n      add\n        /* \"#utility.yul\":21222:21228   */\n      dup7\n        /* \"#utility.yul\":21178:21249   */\n      tag_422\n      jump\t// in\n    tag_669:\n        /* \"#utility.yul\":21259:21331   */\n      tag_670\n        /* \"#utility.yul\":21327:21329   */\n      0x20\n        /* \"#utility.yul\":21316:21325   */\n      dup4\n        /* \"#utility.yul\":21312:21330   */\n      add\n        /* \"#utility.yul\":21303:21309   */\n      dup6\n        /* \"#utility.yul\":21259:21331   */\n      tag_422\n      jump\t// in\n    tag_670:\n        /* \"#utility.yul\":21341:21413   */\n      tag_671\n        /* \"#utility.yul\":21409:21411   */\n      0x40\n        /* \"#utility.yul\":21398:21407   */\n      dup4\n        /* \"#utility.yul\":21394:21412   */\n      add\n        /* \"#utility.yul\":21385:21391   */\n      dup5\n        /* \"#utility.yul\":21341:21413   */\n      tag_412\n      jump\t// in\n    tag_671:\n        /* \"#utility.yul\":20978:21420   */\n      swap5\n      swap4\n      pop\n      pop\n      pop\n      pop\n      jump\t// out\n        /* \"#utility.yul\":21426:21563   */\n    tag_445:\n        /* \"#utility.yul\":21480:21485   */\n      0x00\n        /* \"#utility.yul\":21511:21517   */\n      dup2\n        /* \"#utility.yul\":21505:21518   */\n      mload\n        /* \"#utility.yul\":21496:21518   */\n      swap1\n      pop\n        /* \"#utility.yul\":21527:21557   */\n      tag_673\n        /* \"#utility.yul\":21551:21556   */\n      dup2\n        /* \"#utility.yul\":21527:21557   */\n      tag_407\n      jump\t// in\n    tag_673:\n        /* \"#utility.yul\":21426:21563   */\n      swap3\n      swap2\n      pop\n      pop\n      jump\t// out\n        /* \"#utility.yul\":21569:21914   */\n    tag_364:\n        /* \"#utility.yul\":21636:21642   */\n      0x00\n        /* \"#utility.yul\":21685:21687   */\n      0x20\n        /* \"#utility.yul\":21673:21682   */\n      dup3\n        /* \"#utility.yul\":21664:21671   */\n      dup5\n        /* \"#utility.yul\":21660:21683   */\n      sub\n        /* \"#utility.yul\":21656:21688   */\n      slt\n        /* \"#utility.yul\":21653:21772   */\n      iszero\n      tag_675\n      jumpi\n        /* \"#utility.yul\":21691:21770   */\n      tag_676\n      tag_396\n      jump\t// in\n    tag_676:\n        /* \"#utility.yul\":21653:21772   */\n    tag_675:\n        /* \"#utility.yul\":21811:21812   */\n      0x00\n        /* \"#utility.yul\":21836:21897   */\n      tag_677\n        /* \"#utility.yul\":21889:21896   */\n      dup5\n        /* \"#utility.yul\":21880:21886   */\n      dup3\n        /* \"#utility.yul\":21869:21878   */\n      dup6\n        /* \"#utility.yul\":21865:21887   */\n      add\n        /* \"#utility.yul\":21836:21897   */\n      tag_445\n      jump\t// in\n    tag_677:\n        /* \"#utility.yul\":21826:21897   */\n      swap2\n      pop\n        /* \"#utility.yul\":21782:21907   */\n      pop\n        /* \"#utility.yul\":21569:21914   */\n      swap3\n      swap2\n      pop\n      pop\n      jump\t// out\n        /* \"#utility.yul\":21920:22149   */\n    tag_446:\n        /* \"#utility.yul\":22060:22094   */\n      0x5361666545524332303a204552433230206f7065726174696f6e20646964206e\n        /* \"#utility.yul\":22056:22057   */\n      0x00\n        /* \"#utility.yul\":22048:22054   */\n      dup3\n        /* \"#utility.yul\":22044:22058   */\n      add\n        /* \"#utility.yul\":22037:22095   */\n      mstore\n        /* \"#utility.yul\":22129:22141   */\n      0x6f74207375636365656400000000000000000000000000000000000000000000\n        /* \"#utility.yul\":22124:22126   */\n      0x20\n        /* \"#utility.yul\":22116:22122   */\n      dup3\n        /* \"#utility.yul\":22112:22127   */\n      add\n        /* \"#utility.yul\":22105:22142   */\n      mstore\n        /* \"#utility.yul\":21920:22149   */\n      pop\n      jump\t// out\n        /* \"#utility.yul\":22155:22521   */\n    tag_447:\n        /* \"#utility.yul\":22297:22300   */\n      0x00\n        /* \"#utility.yul\":22318:22385   */\n      tag_680\n        /* \"#utility.yul\":22382:22384   */\n      0x2a\n        /* \"#utility.yul\":22377:22380   */\n      dup4\n        /* \"#utility.yul\":22318:22385   */\n      tag_423\n      jump\t// in\n    tag_680:\n        /* \"#utility.yul\":22311:22385   */\n      swap2\n      pop\n        /* \"#utility.yul\":22394:22487   */\n      tag_681\n        /* \"#utility.yul\":22483:22486   */\n      dup3\n        /* \"#utility.yul\":22394:22487   */\n      tag_446\n      jump\t// in\n    tag_681:\n        /* \"#utility.yul\":22512:22514   */\n      0x40\n        /* \"#utility.yul\":22507:22510   */\n      dup3\n        /* \"#utility.yul\":22503:22515   */\n      add\n        /* \"#utility.yul\":22496:22515   */\n      swap1\n      pop\n        /* \"#utility.yul\":22155:22521   */\n      swap2\n      swap1\n      pop\n      jump\t// out\n        /* \"#utility.yul\":22527:22946   */\n    tag_367:\n        /* \"#utility.yul\":22693:22697   */\n      0x00\n        /* \"#utility.yul\":22731:22733   */\n      0x20\n        /* \"#utility.yul\":22720:22729   */\n      dup3\n        /* \"#utility.yul\":22716:22734   */\n      add\n        /* \"#utility.yul\":22708:22734   */\n      swap1\n      pop\n        /* \"#utility.yul\":22780:22789   */\n      dup2\n        /* \"#utility.yul\":22774:22778   */\n      dup2\n        /* \"#utility.yul\":22770:22790   */\n      sub\n        /* \"#utility.yul\":22766:22767   */\n      0x00\n        /* \"#utility.yul\":22755:22764   */\n      dup4\n        /* \"#utility.yul\":22751:22768   */\n      add\n        /* \"#utility.yul\":22744:22791   */\n      mstore\n        /* \"#utility.yul\":22808:22939   */\n      tag_683\n        /* \"#utility.yul\":22934:22938   */\n      dup2\n        /* \"#utility.yul\":22808:22939   */\n      tag_447\n      jump\t// in\n    tag_683:\n        /* \"#utility.yul\":22800:22939   */\n      swap1\n      pop\n        /* \"#utility.yul\":22527:22946   */\n      swap2\n      swap1\n      pop\n      jump\t// out\n        /* \"#utility.yul\":22952:23177   */\n    tag_448:\n        /* \"#utility.yul\":23092:23126   */\n      0x416464726573733a20696e73756666696369656e742062616c616e636520666f\n        /* \"#utility.yul\":23088:23089   */\n      0x00\n        /* \"#utility.yul\":23080:23086   */\n      dup3\n        /* \"#utility.yul\":23076:23090   */\n      add\n        /* \"#utility.yul\":23069:23127   */\n      mstore\n        /* \"#utility.yul\":23161:23169   */\n      0x722063616c6c0000000000000000000000000000000000000000000000000000\n        /* \"#utility.yul\":23156:23158   */\n      0x20\n        /* \"#utility.yul\":23148:23154   */\n      dup3\n        /* \"#utility.yul\":23144:23159   */\n      add\n        /* \"#utility.yul\":23137:23170   */\n      mstore\n        /* \"#utility.yul\":22952:23177   */\n      pop\n      jump\t// out\n        /* \"#utility.yul\":23183:23549   */\n    tag_449:\n        /* \"#utility.yul\":23325:23328   */\n      0x00\n        /* \"#utility.yul\":23346:23413   */\n      tag_686\n        /* \"#utility.yul\":23410:23412   */\n      0x26\n        /* \"#utility.yul\":23405:23408   */\n      dup4\n        /* \"#utility.yul\":23346:23413   */\n      tag_423\n      jump\t// in\n    tag_686:\n        /* \"#utility.yul\":23339:23413   */\n      swap2\n      pop\n        /* \"#utility.yul\":23422:23515   */\n      tag_687\n        /* \"#utility.yul\":23511:23514   */\n      dup3\n        /* \"#utility.yul\":23422:23515   */\n      tag_448\n      jump\t// in\n    tag_687:\n        /* \"#utility.yul\":23540:23542   */\n      0x40\n        /* \"#utility.yul\":23535:23538   */\n      dup3\n        /* \"#utility.yul\":23531:23543   */\n      add\n        /* \"#utility.yul\":23524:23543   */\n      swap1\n      pop\n        /* \"#utility.yul\":23183:23549   */\n      swap2\n      swap1\n      pop\n      jump\t// out\n        /* \"#utility.yul\":23555:23974   */\n    tag_374:\n        /* \"#utility.yul\":23721:23725   */\n      0x00\n        /* \"#utility.yul\":23759:23761   */\n      0x20\n        /* \"#utility.yul\":23748:23757   */\n      dup3\n        /* \"#utility.yul\":23744:23762   */\n      add\n        /* \"#utility.yul\":23736:23762   */\n      swap1\n      pop\n        /* \"#utility.yul\":23808:23817   */\n      dup2\n        /* \"#utility.yul\":23802:23806   */\n      dup2\n        /* \"#utility.yul\":23798:23818   */\n      sub\n        /* \"#utility.yul\":23794:23795   */\n      0x00\n        /* \"#utility.yul\":23783:23792   */\n      dup4\n        /* \"#utility.yul\":23779:23796   */\n      add\n        /* \"#utility.yul\":23772:23819   */\n      mstore\n        /* \"#utility.yul\":23836:23967   */\n      tag_689\n        /* \"#utility.yul\":23962:23966   */\n      dup2\n        /* \"#utility.yul\":23836:23967   */\n      tag_449\n      jump\t// in\n    tag_689:\n        /* \"#utility.yul\":23828:23967   */\n      swap1\n      pop\n        /* \"#utility.yul\":23555:23974   */\n      swap2\n      swap1\n      pop\n      jump\t// out\n        /* \"#utility.yul\":23980:24159   */\n    tag_450:\n        /* \"#utility.yul\":24120:24151   */\n      0x416464726573733a2063616c6c20746f206e6f6e2d636f6e7472616374000000\n        /* \"#utility.yul\":24116:24117   */\n      0x00\n        /* \"#utility.yul\":24108:24114   */\n      dup3\n        /* \"#utility.yul\":24104:24118   */\n      add\n        /* \"#utility.yul\":24097:24152   */\n      mstore\n        /* \"#utility.yul\":23980:24159   */\n      pop\n      jump\t// out\n        /* \"#utility.yul\":24165:24531   */\n    tag_451:\n        /* \"#utility.yul\":24307:24310   */\n      0x00\n        /* \"#utility.yul\":24328:24395   */\n      tag_692\n        /* \"#utility.yul\":24392:24394   */\n      0x1d\n        /* \"#utility.yul\":24387:24390   */\n      dup4\n        /* \"#utility.yul\":24328:24395   */\n      tag_423\n      jump\t// in\n    tag_692:\n        /* \"#utility.yul\":24321:24395   */\n      swap2\n      pop\n        /* \"#utility.yul\":24404:24497   */\n      tag_693\n        /* \"#utility.yul\":24493:24496   */\n      dup3\n        /* \"#utility.yul\":24404:24497   */\n      tag_450\n      jump\t// in\n    tag_693:\n        /* \"#utility.yul\":24522:24524   */\n      0x20\n        /* \"#utility.yul\":24517:24520   */\n      dup3\n        /* \"#utility.yul\":24513:24525   */\n      add\n        /* \"#utility.yul\":24506:24525   */\n      swap1\n      pop\n        /* \"#utility.yul\":24165:24531   */\n      swap2\n      swap1\n      pop\n      jump\t// out\n        /* \"#utility.yul\":24537:24956   */\n    tag_379:\n        /* \"#utility.yul\":24703:24707   */\n      0x00\n        /* \"#utility.yul\":24741:24743   */\n      0x20\n        /* \"#utility.yul\":24730:24739   */\n      dup3\n        /* \"#utility.yul\":24726:24744   */\n      add\n        /* \"#utility.yul\":24718:24744   */\n      swap1\n      pop\n        /* \"#utility.yul\":24790:24799   */\n      dup2\n        /* \"#utility.yul\":24784:24788   */\n      dup2\n        /* \"#utility.yul\":24780:24800   */\n      sub\n        /* \"#utility.yul\":24776:24777   */\n      0x00\n        /* \"#utility.yul\":24765:24774   */\n      dup4\n        /* \"#utility.yul\":24761:24778   */\n      add\n        /* \"#utility.yul\":24754:24801   */\n      mstore\n        /* \"#utility.yul\":24818:24949   */\n      tag_695\n        /* \"#utility.yul\":24944:24948   */\n      dup2\n        /* \"#utility.yul\":24818:24949   */\n      tag_451\n      jump\t// in\n    tag_695:\n        /* \"#utility.yul\":24810:24949   */\n      swap1\n      pop\n        /* \"#utility.yul\":24537:24956   */\n      swap2\n      swap1\n      pop\n      jump\t// out\n        /* \"#utility.yul\":24962:25060   */\n    tag_452:\n        /* \"#utility.yul\":25013:25019   */\n      0x00\n        /* \"#utility.yul\":25047:25052   */\n      dup2\n        /* \"#utility.yul\":25041:25053   */\n      mload\n        /* \"#utility.yul\":25031:25053   */\n      swap1\n      pop\n        /* \"#utility.yul\":24962:25060   */\n      swap2\n      swap1\n      pop\n      jump\t// out\n        /* \"#utility.yul\":25066:25213   */\n    tag_453:\n        /* \"#utility.yul\":25167:25178   */\n      0x00\n        /* \"#utility.yul\":25204:25207   */\n      dup2\n        /* \"#utility.yul\":25189:25207   */\n      swap1\n      pop\n        /* \"#utility.yul\":25066:25213   */\n      swap3\n      swap2\n      pop\n      pop\n      jump\t// out\n        /* \"#utility.yul\":25219:25465   */\n    tag_454:\n        /* \"#utility.yul\":25300:25301   */\n      0x00\n        /* \"#utility.yul\":25310:25423   */\n    tag_699:\n        /* \"#utility.yul\":25324:25330   */\n      dup4\n        /* \"#utility.yul\":25321:25322   */\n      dup2\n        /* \"#utility.yul\":25318:25331   */\n      lt\n        /* \"#utility.yul\":25310:25423   */\n      iszero\n      tag_701\n      jumpi\n        /* \"#utility.yul\":25409:25410   */\n      dup1\n        /* \"#utility.yul\":25404:25407   */\n      dup3\n        /* \"#utility.yul\":25400:25411   */\n      add\n        /* \"#utility.yul\":25394:25412   */\n      mload\n        /* \"#utility.yul\":25390:25391   */\n      dup2\n        /* \"#utility.yul\":25385:25388   */\n      dup5\n        /* \"#utility.yul\":25381:25392   */\n      add\n        /* \"#utility.yul\":25374:25413   */\n      mstore\n        /* \"#utility.yul\":25346:25348   */\n      0x20\n        /* \"#utility.yul\":25343:25344   */\n      dup2\n        /* \"#utility.yul\":25339:25349   */\n      add\n        /* \"#utility.yul\":25334:25349   */\n      swap1\n      pop\n        /* \"#utility.yul\":25310:25423   */\n      jump(tag_699)\n    tag_701:\n        /* \"#utility.yul\":25457:25458   */\n      0x00\n        /* \"#utility.yul\":25448:25454   */\n      dup5\n        /* \"#utility.yul\":25443:25446   */\n      dup5\n        /* \"#utility.yul\":25439:25455   */\n      add\n        /* \"#utility.yul\":25432:25459   */\n      mstore\n        /* \"#utility.yul\":25281:25465   */\n      pop\n        /* \"#utility.yul\":25219:25465   */\n      pop\n      pop\n      pop\n      jump\t// out\n        /* \"#utility.yul\":25471:25857   */\n    tag_455:\n        /* \"#utility.yul\":25575:25578   */\n      0x00\n        /* \"#utility.yul\":25603:25641   */\n      tag_703\n        /* \"#utility.yul\":25635:25640   */\n      dup3\n        /* \"#utility.yul\":25603:25641   */\n      tag_452\n      jump\t// in\n    tag_703:\n        /* \"#utility.yul\":25657:25745   */\n      tag_704\n        /* \"#utility.yul\":25738:25744   */\n      dup2\n        /* \"#utility.yul\":25733:25736   */\n      dup6\n        /* \"#utility.yul\":25657:25745   */\n      tag_453\n      jump\t// in\n    tag_704:\n        /* \"#utility.yul\":25650:25745   */\n      swap4\n      pop\n        /* \"#utility.yul\":25754:25819   */\n      tag_705\n        /* \"#utility.yul\":25812:25818   */\n      dup2\n        /* \"#utility.yul\":25807:25810   */\n      dup6\n        /* \"#utility.yul\":25800:25804   */\n      0x20\n        /* \"#utility.yul\":25793:25798   */\n      dup7\n        /* \"#utility.yul\":25789:25805   */\n      add\n        /* \"#utility.yul\":25754:25819   */\n      tag_454\n      jump\t// in\n    tag_705:\n        /* \"#utility.yul\":25844:25850   */\n      dup1\n        /* \"#utility.yul\":25839:25842   */\n      dup5\n        /* \"#utility.yul\":25835:25851   */\n      add\n        /* \"#utility.yul\":25828:25851   */\n      swap2\n      pop\n        /* \"#utility.yul\":25579:25857   */\n      pop\n        /* \"#utility.yul\":25471:25857   */\n      swap3\n      swap2\n      pop\n      pop\n      jump\t// out\n        /* \"#utility.yul\":25863:26134   */\n    tag_381:\n        /* \"#utility.yul\":25993:25996   */\n      0x00\n        /* \"#utility.yul\":26015:26108   */\n      tag_707\n        /* \"#utility.yul\":26104:26107   */\n      dup3\n        /* \"#utility.yul\":26095:26101   */\n      dup5\n        /* \"#utility.yul\":26015:26108   */\n      tag_455\n      jump\t// in\n    tag_707:\n        /* \"#utility.yul\":26008:26108   */\n      swap2\n      pop\n        /* \"#utility.yul\":26125:26128   */\n      dup2\n        /* \"#utility.yul\":26118:26128   */\n      swap1\n      pop\n        /* \"#utility.yul\":25863:26134   */\n      swap3\n      swap2\n      pop\n      pop\n      jump\t// out\n        /* \"#utility.yul\":26140:26239   */\n    tag_456:\n        /* \"#utility.yul\":26192:26198   */\n      0x00\n        /* \"#utility.yul\":26226:26231   */\n      dup2\n        /* \"#utility.yul\":26220:26232   */\n      mload\n        /* \"#utility.yul\":26210:26232   */\n      swap1\n      pop\n        /* \"#utility.yul\":26140:26239   */\n      swap2\n      swap1\n      pop\n      jump\t// out\n        /* \"#utility.yul\":26245:26347   */\n    tag_457:\n        /* \"#utility.yul\":26286:26292   */\n      0x00\n        /* \"#utility.yul\":26337:26339   */\n      0x1f\n        /* \"#utility.yul\":26333:26340   */\n      not\n        /* \"#utility.yul\":26328:26330   */\n      0x1f\n        /* \"#utility.yul\":26321:26326   */\n      dup4\n        /* \"#utility.yul\":26317:26331   */\n      add\n        /* \"#utility.yul\":26313:26341   */\n      and\n        /* \"#utility.yul\":26303:26341   */\n      swap1\n      pop\n        /* \"#utility.yul\":26245:26347   */\n      swap2\n      swap1\n      pop\n      jump\t// out\n        /* \"#utility.yul\":26353:26730   */\n    tag_458:\n        /* \"#utility.yul\":26441:26444   */\n      0x00\n        /* \"#utility.yul\":26469:26508   */\n      tag_711\n        /* \"#utility.yul\":26502:26507   */\n      dup3\n        /* \"#utility.yul\":26469:26508   */\n      tag_456\n      jump\t// in\n    tag_711:\n        /* \"#utility.yul\":26524:26595   */\n      tag_712\n        /* \"#utility.yul\":26588:26594   */\n      dup2\n        /* \"#utility.yul\":26583:26586   */\n      dup6\n        /* \"#utility.yul\":26524:26595   */\n      tag_423\n      jump\t// in\n    tag_712:\n        /* \"#utility.yul\":26517:26595   */\n      swap4\n      pop\n        /* \"#utility.yul\":26604:26669   */\n      tag_713\n        /* \"#utility.yul\":26662:26668   */\n      dup2\n        /* \"#utility.yul\":26657:26660   */\n      dup6\n        /* \"#utility.yul\":26650:26654   */\n      0x20\n        /* \"#utility.yul\":26643:26648   */\n      dup7\n        /* \"#utility.yul\":26639:26655   */\n      add\n        /* \"#utility.yul\":26604:26669   */\n      tag_454\n      jump\t// in\n    tag_713:\n        /* \"#utility.yul\":26694:26723   */\n      tag_714\n        /* \"#utility.yul\":26716:26722   */\n      dup2\n        /* \"#utility.yul\":26694:26723   */\n      tag_457\n      jump\t// in\n    tag_714:\n        /* \"#utility.yul\":26689:26692   */\n      dup5\n        /* \"#utility.yul\":26685:26724   */\n      add\n        /* \"#utility.yul\":26678:26724   */\n      swap2\n      pop\n        /* \"#utility.yul\":26445:26730   */\n      pop\n        /* \"#utility.yul\":26353:26730   */\n      swap3\n      swap2\n      pop\n      pop\n      jump\t// out\n        /* \"#utility.yul\":26736:27049   */\n    tag_394:\n        /* \"#utility.yul\":26849:26853   */\n      0x00\n        /* \"#utility.yul\":26887:26889   */\n      0x20\n        /* \"#utility.yul\":26876:26885   */\n      dup3\n        /* \"#utility.yul\":26872:26890   */\n      add\n        /* \"#utility.yul\":26864:26890   */\n      swap1\n      pop\n        /* \"#utility.yul\":26936:26945   */\n      dup2\n        /* \"#utility.yul\":26930:26934   */\n      dup2\n        /* \"#utility.yul\":26926:26946   */\n      sub\n        /* \"#utility.yul\":26922:26923   */\n      0x00\n        /* \"#utility.yul\":26911:26920   */\n      dup4\n        /* \"#utility.yul\":26907:26924   */\n      add\n        /* \"#utility.yul\":26900:26947   */\n      mstore\n        /* \"#utility.yul\":26964:27042   */\n      tag_716\n        /* \"#utility.yul\":27037:27041   */\n      dup2\n        /* \"#utility.yul\":27028:27034   */\n      dup5\n        /* \"#utility.yul\":26964:27042   */\n      tag_458\n      jump\t// in\n    tag_716:\n        /* \"#utility.yul\":26956:27042   */\n      swap1\n      pop\n        /* \"#utility.yul\":26736:27049   */\n      swap3\n      swap2\n      pop\n      pop\n      jump\t// out\n\n    auxdata: 0xa264697066735822122082c141540b4fdced735f396ac87a55006571b3666a63853ec61b7e6ee5243b4f64736f6c63430008100033\n}\n",
				"bytecode": {
					"linkReferences": {},
					"object": "60806040526000600555660c83bc41b5030060085562979c806009553480156200002857600080fd5b50604051620034063803806200340683398181016040528101906200004e9190620002b5565b82421062000093576040517f08c379a00000000000000000000000000000000000000000000000000000000081526004016200008a9062000388565b60405180910390fd5b600073ffffffffffffffffffffffffffffffffffffffff168473ffffffffffffffffffffffffffffffffffffffff16146200010a5783600160006101000a81548173ffffffffffffffffffffffffffffffffffffffff021916908373ffffffffffffffffffffffffffffffffffffffff1602179055505b82600681905550600954600654620001239190620003d9565b60078190555081600a60006101000a81548161ffff021916908361ffff16021790555080600260006101000a81548173ffffffffffffffffffffffffffffffffffffffff021916908373ffffffffffffffffffffffffffffffffffffffff160217905550336000806101000a81548173ffffffffffffffffffffffffffffffffffffffff021916908373ffffffffffffffffffffffffffffffffffffffff1602179055505050505062000414565b600080fd5b600073ffffffffffffffffffffffffffffffffffffffff82169050919050565b60006200020382620001d6565b9050919050565b6200021581620001f6565b81146200022157600080fd5b50565b60008151905062000235816200020a565b92915050565b6000819050919050565b62000250816200023b565b81146200025c57600080fd5b50565b600081519050620002708162000245565b92915050565b600061ffff82169050919050565b6200028f8162000276565b81146200029b57600080fd5b50565b600081519050620002af8162000284565b92915050565b60008060008060808587031215620002d257620002d1620001d1565b5b6000620002e28782880162000224565b9450506020620002f5878288016200025f565b935050604062000308878288016200029e565b92505060606200031b8782880162000224565b91505092959194509250565b600082825260208201905092915050565b7f6c61746500000000000000000000000000000000000000000000000000000000600082015250565b60006200037060048362000327565b91506200037d8262000338565b602082019050919050565b60006020820190508181036000830152620003a38162000361565b9050919050565b7f4e487b7100000000000000000000000000000000000000000000000000000000600052601160045260246000fd5b6000620003e6826200023b565b9150620003f3836200023b565b92508282019050808211156200040e576200040d620003aa565b5b92915050565b612fe280620004246000396000f3fe608060405234801561001057600080fd5b506004361061014d5760003560e01c806354575af4116100c3578063943f013d1161007c578063943f013d1461037e578063b3ab15fb1461039c578063d18ccd89146103b8578063dc9e5dea146103d6578063e2bbb158146103f4578063ecb1ab54146104105761014d565b806354575af4146102cd578063570ca735146102e95780635f96dc1114610307578063630b5ba1146103255780636e271dd51461032f57806393f1a40b1461034d5761014d565b8063231f0c6a11610115578063231f0c6a1461020f57806324bcb38c1461023f578063412753581461025b578063441a3e701461027957806351eb05a6146102955780635312ea8e146102b15761014d565b806308bee6421461015257806309cf60911461016e5780631526fe271461018c57806317caf6f1146101c15780631e8fa23a146101df575b600080fd5b61016c60048036038101906101679190612236565b61042c565b005b6101766106c2565b60405161018391906122c0565b60405180910390f35b6101a660048036038101906101a191906122db565b6106d1565b6040516101b896959493929190612385565b60405180910390f35b6101c9610758565b6040516101d691906122c0565b60405180910390f35b6101f960048036038101906101f49190612412565b61075e565b60405161020691906122c0565b60405180910390f35b61022960048036038101906102249190612452565b610975565b60405161023691906122c0565b60405180910390f35b61025960048036038101906102549190612492565b610a88565b005b610263610c03565b60405161027091906124f4565b60405180910390f35b610293600480360381019061028e9190612452565b610c29565b005b6102af60048036038101906102aa91906122db565b610eb5565b005b6102cb60048036038101906102c691906122db565b6110a2565b005b6102e760048036038101906102e2919061250f565b6111dd565b005b6102f1611425565b6040516102fe91906124f4565b60405180910390f35b61030f611449565b60405161031c91906122c0565b60405180910390f35b61032d61144f565b005b610337611482565b60405161034491906122c0565b60405180910390f35b61036760048036038101906103629190612412565b611488565b604051610375929190612562565b60405180910390f35b6103866114b9565b60405161039391906122c0565b60405180910390f35b6103b660048036038101906103b1919061258b565b6114bf565b005b6103c0611590565b6040516103cd91906125b8565b60405180910390f35b6103de6115b6565b6040516103eb91906122c0565b60405180910390f35b61040e60048036038101906104099190612452565b6115bc565b005b61042a600480360381019061042591906125d3565b61195f565b005b3373ffffffffffffffffffffffffffffffffffffffff1660008054906101000a900473ffffffffffffffffffffffffffffffffffffffff1673ffffffffffffffffffffffffffffffffffffffff16146104ba576040517f08c379a00000000000000000000000000000000000000000000000000000000081526004016104b190612683565b60405180910390fd5b6104c384611b00565b60648261ffff16111561050b576040517f08c379a000000000000000000000000000000000000000000000000000000000815260040161050290612715565b60405180910390fd5b821561051a5761051961144f565b5b60065442101561054c5760008103610536576006549050610547565b6006548110156105465760065490505b5b610564565b600081148061055a57504281105b15610563574290505b5b6000600654821115806105775750428211155b905060036040518060c001604052808773ffffffffffffffffffffffffffffffffffffffff168152602001888152602001848152602001600081526020018561ffff168152602001831515815250908060018154018082558091505060019003906000526020600020906005020160009091909190915060008201518160000160006101000a81548173ffffffffffffffffffffffffffffffffffffffff021916908373ffffffffffffffffffffffffffffffffffffffff16021790555060208201518160010155604082015181600201556060820151816003015560808201518160040160006101000a81548161ffff021916908361ffff16021790555060a08201518160040160026101000a81548160ff021916908315150217905550505080156106ba576106b386600554611bde90919063ffffffff16565b6005819055505b505050505050565b6a034f086f3b33b68400000081565b600381815481106106e157600080fd5b90600052602060002090600502016000915090508060000160009054906101000a900473ffffffffffffffffffffffffffffffffffffffff16908060010154908060020154908060030154908060040160009054906101000a900461ffff16908060040160029054906101000a900460ff16905086565b60055481565b6000806003848154811061077557610774612735565b5b9060005260206000209060050201905060006004600086815260200190815260200160002060008573ffffffffffffffffffffffffffffffffffffffff1673ffffffffffffffffffffffffffffffffffffffff168152602001908152602001600020905060008260030154905060008360000160009054906101000a900473ffffffffffffffffffffffffffffffffffffffff1673ffffffffffffffffffffffffffffffffffffffff166370a08231306040518263ffffffff1660e01b815260040161084191906124f4565b602060405180830381865afa15801561085e573d6000803e3d6000fd5b505050506040513d601f19601f820116820180604052508101906108829190612779565b9050836002015442118015610898575060008114155b156109225760006108ad856002015442610975565b905060006108dc6005546108ce886001015485611bf490919063ffffffff16565b611c0a90919063ffffffff16565b905061091d61090e84610900670de0b6b3a764000085611bf490919063ffffffff16565b611c0a90919063ffffffff16565b85611bde90919063ffffffff16565b935050505b610969836001015461095b670de0b6b3a764000061094d868860000154611bf490919063ffffffff16565b611c0a90919063ffffffff16565b611c2090919063ffffffff16565b94505050505092915050565b60008183106109875760009050610a82565b6007548210610a0d5760075483106109a25760009050610a82565b60065483116109dd576109d66008546109c8600654600754611c2090919063ffffffff16565b611bf490919063ffffffff16565b9050610a82565b610a066008546109f885600754611c2090919063ffffffff16565b611bf490919063ffffffff16565b9050610a82565b6006548211610a1f5760009050610a82565b6006548311610a5857610a51600854610a4360065485611c2090919063ffffffff16565b611bf490919063ffffffff16565b9050610a82565b610a7f600854610a718585611c2090919063ffffffff16565b611bf490919063ffffffff16565b90505b92915050565b3373ffffffffffffffffffffffffffffffffffffffff1660008054906101000a900473ffffffffffffffffffffffffffffffffffffffff1673ffffffffffffffffffffffffffffffffffffffff1614610b16576040517f08c379a0000000000000000000000000000000000000000000000000000000008152600401610b0d90612683565b60405180910390fd5b60008161ffff161115610b5e576040517f08c379a0000000000000000000000000000000000000000000000000000000008152600401610b5590612818565b60405180910390fd5b610b6661144f565b600060038481548110610b7c57610b7b612735565b5b906000526020600020906005020190508060040160029054906101000a900460ff1615610bd557610bce83610bc08360010154600554611c2090919063ffffffff16565b611bde90919063ffffffff16565b6005819055505b828160010181905550818160040160006101000a81548161ffff021916908361ffff16021790555050505050565b600260009054906101000a900473ffffffffffffffffffffffffffffffffffffffff1681565b6000339050600060038481548110610c4457610c43612735565b5b9060005260206000209060050201905060006004600086815260200190815260200160002060008473ffffffffffffffffffffffffffffffffffffffff1673ffffffffffffffffffffffffffffffffffffffff16815260200190815260200160002090508381600001541015610cef576040517f08c379a0000000000000000000000000000000000000000000000000000000008152600401610ce690612884565b60405180910390fd5b610cf885610eb5565b6000610d458260010154610d37670de0b6b3a7640000610d2987600301548760000154611bf490919063ffffffff16565b611c0a90919063ffffffff16565b611c2090919063ffffffff16565b90506000811115610da957610d5a8482611c36565b8373ffffffffffffffffffffffffffffffffffffffff167fe2403640ba68fed3a2f88b7557551d1993f84b99bb10ff833f0cf8db0c5e048682604051610da091906122c0565b60405180910390a25b6000851115610e2157610dc9858360000154611c2090919063ffffffff16565b8260000181905550610e2084868560000160009054906101000a900473ffffffffffffffffffffffffffffffffffffffff1673ffffffffffffffffffffffffffffffffffffffff16611d8d9092919063ffffffff16565b5b610e56670de0b6b3a7640000610e4885600301548560000154611bf490919063ffffffff16565b611c0a90919063ffffffff16565b8260010181905550858473ffffffffffffffffffffffffffffffffffffffff167ff279e6a1f5e320cca91135676d9cb6e44ca8a08c0b88342bcdb1144f6511b56887604051610ea591906122c0565b60405180910390a3505050505050565b600060038281548110610ecb57610eca612735565b5b9060005260206000209060050201905080600201544211610eec575061109f565b60008160000160009054906101000a900473ffffffffffffffffffffffffffffffffffffffff1673ffffffffffffffffffffffffffffffffffffffff166370a08231306040518263ffffffff1660e01b8152600401610f4b91906124f4565b602060405180830381865afa158015610f68573d6000803e3d6000fd5b505050506040513d601f19601f82011682018060405250810190610f8c9190612779565b905060008103610fa657428260020181905550505061109f565b8160040160029054906101000a900460ff16610ff95760018260040160026101000a81548160ff021916908315150217905550610ff28260010154600554611bde90919063ffffffff16565b6005819055505b60006005541115611093576000611014836002015442610975565b90506000611043600554611035866001015485611bf490919063ffffffff16565b611c0a90919063ffffffff16565b905061108861107584611067670de0b6b3a764000085611bf490919063ffffffff16565b611c0a90919063ffffffff16565b8560030154611bde90919063ffffffff16565b846003018190555050505b42826002018190555050505b50565b6000600382815481106110b8576110b7612735565b5b9060005260206000209060050201905060006004600084815260200190815260200160002060003373ffffffffffffffffffffffffffffffffffffffff1673ffffffffffffffffffffffffffffffffffffffff1681526020019081526020016000209050600081600001549050600082600001819055506000826001018190555061118833828560000160009054906101000a900473ffffffffffffffffffffffffffffffffffffffff1673ffffffffffffffffffffffffffffffffffffffff16611d8d9092919063ffffffff16565b833373ffffffffffffffffffffffffffffffffffffffff167fbb757047c2b5f3974fe26b7c10f732e7bce710b0952a71082702781e62ae0595836040516111cf91906122c0565b60405180910390a350505050565b3373ffffffffffffffffffffffffffffffffffffffff1660008054906101000a900473ffffffffffffffffffffffffffffffffffffffff1673ffffffffffffffffffffffffffffffffffffffff161461126b576040517f08c379a000000000000000000000000000000000000000000000000000000000815260040161126290612683565b60405180910390fd5b6276a70060075461127c91906128d3565b4210156113f557600160009054906101000a900473ffffffffffffffffffffffffffffffffffffffff1673ffffffffffffffffffffffffffffffffffffffff168373ffffffffffffffffffffffffffffffffffffffff1603611313576040517f08c379a000000000000000000000000000000000000000000000000000000000815260040161130a90612953565b60405180910390fd5b6000600380549050905060005b818110156113f25760006003828154811061133e5761133d612735565b5b906000526020600020906005020190508060000160009054906101000a900473ffffffffffffffffffffffffffffffffffffffff1673ffffffffffffffffffffffffffffffffffffffff168673ffffffffffffffffffffffffffffffffffffffff16036113e0576040517f08c379a00000000000000000000000000000000000000000000000000000000081526004016113d7906129bf565b60405180910390fd5b50806113eb906129df565b9050611320565b50505b61142081838573ffffffffffffffffffffffffffffffffffffffff16611d8d9092919063ffffffff16565b505050565b60008054906101000a900473ffffffffffffffffffffffffffffffffffffffff1681565b60065481565b6000600380549050905060005b8181101561147e5761146d81610eb5565b80611477906129df565b905061145c565b5050565b60075481565b6004602052816000526040600020602052806000526040600020600091509150508060000154908060010154905082565b60095481565b3373ffffffffffffffffffffffffffffffffffffffff1660008054906101000a900473ffffffffffffffffffffffffffffffffffffffff1673ffffffffffffffffffffffffffffffffffffffff161461154d576040517f08c379a000000000000000000000000000000000000000000000000000000000815260040161154490612683565b60405180910390fd5b806000806101000a81548173ffffffffffffffffffffffffffffffffffffffff021916908373ffffffffffffffffffffffffffffffffffffffff16021790555050565b600160009054906101000a900473ffffffffffffffffffffffffffffffffffffffff1681565b60085481565b60003390506000600384815481106115d7576115d6612735565b5b9060005260206000209060050201905060006004600086815260200190815260200160002060008473ffffffffffffffffffffffffffffffffffffffff1673ffffffffffffffffffffffffffffffffffffffff168152602001908152602001600020905061164485610eb5565b60008160000154111561174957600061169e8260010154611690670de0b6b3a764000061168287600301548760000154611bf490919063ffffffff16565b611c0a90919063ffffffff16565b611c2090919063ffffffff16565b90506000811115611747576116f884828560000160009054906101000a900473ffffffffffffffffffffffffffffffffffffffff1673ffffffffffffffffffffffffffffffffffffffff16611d8d9092919063ffffffff16565b8373ffffffffffffffffffffffffffffffffffffffff167fe2403640ba68fed3a2f88b7557551d1993f84b99bb10ff833f0cf8db0c5e04868260405161173e91906122c0565b60405180910390a25b505b6000841115611958576117a38330868560000160009054906101000a900473ffffffffffffffffffffffffffffffffffffffff1673ffffffffffffffffffffffffffffffffffffffff16611e13909392919063ffffffff16565b60008260040160009054906101000a900461ffff1661ffff1611156118ab5760006118016127106117f38560040160009054906101000a900461ffff1661ffff1688611bf490919063ffffffff16565b611c0a90919063ffffffff16565b9050611874600260009054906101000a900473ffffffffffffffffffffffffffffffffffffffff16828560000160009054906101000a900473ffffffffffffffffffffffffffffffffffffffff1673ffffffffffffffffffffffffffffffffffffffff16611d8d9092919063ffffffff16565b61189d8161188f878560000154611bde90919063ffffffff16565b611c2090919063ffffffff16565b8260000181905550506118cb565b6118c2848260000154611bde90919063ffffffff16565b81600001819055505b611900670de0b6b3a76400006118f284600301548460000154611bf490919063ffffffff16565b611c0a90919063ffffffff16565b8160010181905550848373ffffffffffffffffffffffffffffffffffffffff167f90890809c654f11d6e72a28fa60149770a0d11ec6c92319d6ceb2bb0a4ea1a158660405161194f91906122c0565b60405180910390a35b5050505050565b3373ffffffffffffffffffffffffffffffffffffffff1660008054906101000a900473ffffffffffffffffffffffffffffffffffffffff1673ffffffffffffffffffffffffffffffffffffffff16146119ed576040517f08c379a00000000000000000000000000000000000000000000000000000000081526004016119e490612683565b60405180910390fd5b60008161ffff161115611a35576040517f08c379a0000000000000000000000000000000000000000000000000000000008152600401611a2c90612a99565b60405180910390fd5b60005b600380549050811015611afc57807f39f0c3d078af018954b4fa56832a05a2b511afaa999b133ea3f1c487c21ed28760038381548110611a7b57611a7a612735565b5b906000526020600020906005020160000160009054906101000a900473ffffffffffffffffffffffffffffffffffffffff1660038481548110611ac157611ac0612735565b5b90600052602060002090600502016001015485604051611ae393929190612aea565b60405180910390a280611af5906129df565b9050611a38565b5050565b6000600380549050905060005b81811015611bd9578273ffffffffffffffffffffffffffffffffffffffff1660038281548110611b4057611b3f612735565b5b906000526020600020906005020160000160009054906101000a900473ffffffffffffffffffffffffffffffffffffffff1673ffffffffffffffffffffffffffffffffffffffff1603611bc8576040517f08c379a0000000000000000000000000000000000000000000000000000000008152600401611bbf90612b6d565b60405180910390fd5b80611bd2906129df565b9050611b0d565b505050565b60008183611bec91906128d3565b905092915050565b60008183611c029190612b8d565b905092915050565b60008183611c189190612c16565b905092915050565b60008183611c2e9190612c47565b905092915050565b6000600160009054906101000a900473ffffffffffffffffffffffffffffffffffffffff1673ffffffffffffffffffffffffffffffffffffffff166370a08231306040518263ffffffff1660e01b8152600401611c9391906124f4565b602060405180830381865afa158015611cb0573d6000803e3d6000fd5b505050506040513d601f19601f82011682018060405250810190611cd49190612779565b90506000811115611d885780821115611d3957611d348382600160009054906101000a900473ffffffffffffffffffffffffffffffffffffffff1673ffffffffffffffffffffffffffffffffffffffff16611d8d9092919063ffffffff16565b611d87565b611d868383600160009054906101000a900473ffffffffffffffffffffffffffffffffffffffff1673ffffffffffffffffffffffffffffffffffffffff16611d8d9092919063ffffffff16565b5b5b505050565b611e0e8363a9059cbb60e01b8484604051602401611dac929190612c7b565b604051602081830303815290604052907bffffffffffffffffffffffffffffffffffffffffffffffffffffffff19166020820180517bffffffffffffffffffffffffffffffffffffffffffffffffffffffff8381831617835250505050611e9c565b505050565b611e96846323b872dd60e01b858585604051602401611e3493929190612ca4565b604051602081830303815290604052907bffffffffffffffffffffffffffffffffffffffffffffffffffffffff19166020820180517bffffffffffffffffffffffffffffffffffffffffffffffffffffffff8381831617835250505050611e9c565b50505050565b6000611efe826040518060400160405280602081526020017f5361666545524332303a206c6f772d6c6576656c2063616c6c206661696c65648152508573ffffffffffffffffffffffffffffffffffffffff16611f639092919063ffffffff16565b9050600081511115611f5e5780806020019051810190611f1e9190612cf0565b611f5d576040517f08c379a0000000000000000000000000000000000000000000000000000000008152600401611f5490612d8f565b60405180910390fd5b5b505050565b6060611f728484600085611f7b565b90509392505050565b606082471015611fc0576040517f08c379a0000000000000000000000000000000000000000000000000000000008152600401611fb790612e21565b60405180910390fd5b611fc98561208f565b612008576040517f08c379a0000000000000000000000000000000000000000000000000000000008152600401611fff90612e8d565b60405180910390fd5b6000808673ffffffffffffffffffffffffffffffffffffffff1685876040516120319190612f1e565b60006040518083038185875af1925050503d806000811461206e576040519150601f19603f3d011682016040523d82523d6000602084013e612073565b606091505b50915091506120838282866120b2565b92505050949350505050565b6000808273ffffffffffffffffffffffffffffffffffffffff163b119050919050565b606083156120c257829050612112565b6000835111156120d55782518084602001fd5b816040517f08c379a00000000000000000000000000000000000000000000000000000000081526004016121099190612f8a565b60405180910390fd5b9392505050565b600080fd5b6000819050919050565b6121318161211e565b811461213c57600080fd5b50565b60008135905061214e81612128565b92915050565b600073ffffffffffffffffffffffffffffffffffffffff82169050919050565b600061217f82612154565b9050919050565b600061219182612174565b9050919050565b6121a181612186565b81146121ac57600080fd5b50565b6000813590506121be81612198565b92915050565b60008115159050919050565b6121d9816121c4565b81146121e457600080fd5b50565b6000813590506121f6816121d0565b92915050565b600061ffff82169050919050565b612213816121fc565b811461221e57600080fd5b50565b6000813590506122308161220a565b92915050565b600080600080600060a0868803121561225257612251612119565b5b60006122608882890161213f565b9550506020612271888289016121af565b9450506040612282888289016121e7565b935050606061229388828901612221565b92505060806122a48882890161213f565b9150509295509295909350565b6122ba8161211e565b82525050565b60006020820190506122d560008301846122b1565b92915050565b6000602082840312156122f1576122f0612119565b5b60006122ff8482850161213f565b91505092915050565b6000819050919050565b600061232d61232861232384612154565b612308565b612154565b9050919050565b600061233f82612312565b9050919050565b600061235182612334565b9050919050565b61236181612346565b82525050565b612370816121fc565b82525050565b61237f816121c4565b82525050565b600060c08201905061239a6000830189612358565b6123a760208301886122b1565b6123b460408301876122b1565b6123c160608301866122b1565b6123ce6080830185612367565b6123db60a0830184612376565b979650505050505050565b6123ef81612174565b81146123fa57600080fd5b50565b60008135905061240c816123e6565b92915050565b6000806040838503121561242957612428612119565b5b60006124378582860161213f565b9250506020612448858286016123fd565b9150509250929050565b6000806040838503121561246957612468612119565b5b60006124778582860161213f565b92505060206124888582860161213f565b9150509250929050565b6000806000606084860312156124ab576124aa612119565b5b60006124b98682870161213f565b93505060206124ca8682870161213f565b92505060406124db86828701612221565b9150509250925092565b6124ee81612174565b82525050565b600060208201905061250960008301846124e5565b92915050565b60008060006060848603121561252857612527612119565b5b6000612536868287016121af565b93505060206125478682870161213f565b9250506040612558868287016123fd565b9150509250925092565b600060408201905061257760008301856122b1565b61258460208301846122b1565b9392505050565b6000602082840312156125a1576125a0612119565b5b60006125af848285016123fd565b91505092915050565b60006020820190506125cd6000830184612358565b92915050565b6000602082840312156125e9576125e8612119565b5b60006125f784828501612221565b91505092915050565b600082825260208201905092915050565b7f64455448526577617264506f6f6c3a2063616c6c6572206973206e6f7420746860008201527f65206f70657261746f7200000000000000000000000000000000000000000000602082015250565b600061266d602a83612600565b915061267882612611565b604082019050919050565b6000602082019050818103600083015261269c81612660565b9050919050565b7f6164643a20696e76616c6964206465706f73697420666565206261736973207060008201527f6f696e7473000000000000000000000000000000000000000000000000000000602082015250565b60006126ff602583612600565b915061270a826126a3565b604082019050919050565b6000602082019050818103600083015261272e816126f2565b9050919050565b7f4e487b7100000000000000000000000000000000000000000000000000000000600052603260045260246000fd5b60008151905061277381612128565b92915050565b60006020828403121561278f5761278e612119565b5b600061279d84828501612764565b91505092915050565b7f4465706f736974204665652043616e6e6f7420657175616c206d6f726520746860008201527f616e203025000000000000000000000000000000000000000000000000000000602082015250565b6000612802602583612600565b915061280d826127a6565b604082019050919050565b60006020820190508181036000830152612831816127f5565b9050919050565b7f77697468647261773a206e6f7420676f6f640000000000000000000000000000600082015250565b600061286e601283612600565b915061287982612838565b602082019050919050565b6000602082019050818103600083015261289d81612861565b9050919050565b7f4e487b7100000000000000000000000000000000000000000000000000000000600052601160045260246000fd5b60006128de8261211e565b91506128e98361211e565b9250828201905080821115612901576129006128a4565b5b92915050565b7f6465746800000000000000000000000000000000000000000000000000000000600082015250565b600061293d600483612600565b915061294882612907565b602082019050919050565b6000602082019050818103600083015261296c81612930565b9050919050565b7f706f6f6c2e746f6b656e00000000000000000000000000000000000000000000600082015250565b60006129a9600a83612600565b91506129b482612973565b602082019050919050565b600060208201905081810360008301526129d88161299c565b9050919050565b60006129ea8261211e565b91507fffffffffffffffffffffffffffffffffffffffffffffffffffffffffffffffff8203612a1c57612a1b6128a4565b5b600182019050919050565b7f7365743a20696e76616c6964206465706f73697420666565206261736973207060008201527f6f696e7473000000000000000000000000000000000000000000000000000000602082015250565b6000612a83602583612600565b9150612a8e82612a27565b604082019050919050565b60006020820190508181036000830152612ab281612a76565b9050919050565b6000612ad4612acf612aca846121fc565b612308565b61211e565b9050919050565b612ae481612ab9565b82525050565b6000606082019050612aff60008301866124e5565b612b0c60208301856122b1565b612b196040830184612adb565b949350505050565b7f64455448526577617264506f6f6c3a206578697374696e6720706f6f6c3f0000600082015250565b6000612b57601e83612600565b9150612b6282612b21565b602082019050919050565b60006020820190508181036000830152612b8681612b4a565b9050919050565b6000612b988261211e565b9150612ba38361211e565b9250817fffffffffffffffffffffffffffffffffffffffffffffffffffffffffffffffff0483118215151615612bdc57612bdb6128a4565b5b828202905092915050565b7f4e487b7100000000000000000000000000000000000000000000000000000000600052601260045260246000fd5b6000612c218261211e565b9150612c2c8361211e565b925082612c3c57612c3b612be7565b5b828204905092915050565b6000612c528261211e565b9150612c5d8361211e565b9250828203905081811115612c7557612c746128a4565b5b92915050565b6000604082019050612c9060008301856124e5565b612c9d60208301846122b1565b9392505050565b6000606082019050612cb960008301866124e5565b612cc660208301856124e5565b612cd360408301846122b1565b949350505050565b600081519050612cea816121d0565b92915050565b600060208284031215612d0657612d05612119565b5b6000612d1484828501612cdb565b91505092915050565b7f5361666545524332303a204552433230206f7065726174696f6e20646964206e60008201527f6f74207375636365656400000000000000000000000000000000000000000000602082015250565b6000612d79602a83612600565b9150612d8482612d1d565b604082019050919050565b60006020820190508181036000830152612da881612d6c565b9050919050565b7f416464726573733a20696e73756666696369656e742062616c616e636520666f60008201527f722063616c6c0000000000000000000000000000000000000000000000000000602082015250565b6000612e0b602683612600565b9150612e1682612daf565b604082019050919050565b60006020820190508181036000830152612e3a81612dfe565b9050919050565b7f416464726573733a2063616c6c20746f206e6f6e2d636f6e7472616374000000600082015250565b6000612e77601d83612600565b9150612e8282612e41565b602082019050919050565b60006020820190508181036000830152612ea681612e6a565b9050919050565b600081519050919050565b600081905092915050565b60005b83811015612ee1578082015181840152602081019050612ec6565b60008484015250505050565b6000612ef882612ead565b612f028185612eb8565b9350612f12818560208601612ec3565b80840191505092915050565b6000612f2a8284612eed565b915081905092915050565b600081519050919050565b6000601f19601f8301169050919050565b6000612f5c82612f35565b612f668185612600565b9350612f76818560208601612ec3565b612f7f81612f40565b840191505092915050565b60006020820190508181036000830152612fa48184612f51565b90509291505056fea264697066735822122082c141540b4fdced735f396ac87a55006571b3666a63853ec61b7e6ee5243b4f64736f6c63430008100033",
					"opcodes": "PUSH1 0x80 PUSH1 0x40 MSTORE PUSH1 0x0 PUSH1 0x5 SSTORE PUSH7 0xC83BC41B50300 PUSH1 0x8 SSTORE PUSH3 0x979C80 PUSH1 0x9 SSTORE CALLVALUE DUP1 ISZERO PUSH3 0x28 JUMPI PUSH1 0x0 DUP1 REVERT JUMPDEST POP PUSH1 0x40 MLOAD PUSH3 0x3406 CODESIZE SUB DUP1 PUSH3 0x3406 DUP4 CODECOPY DUP2 DUP2 ADD PUSH1 0x40 MSTORE DUP2 ADD SWAP1 PUSH3 0x4E SWAP2 SWAP1 PUSH3 0x2B5 JUMP JUMPDEST DUP3 TIMESTAMP LT PUSH3 0x93 JUMPI PUSH1 0x40 MLOAD PUSH32 0x8C379A000000000000000000000000000000000000000000000000000000000 DUP2 MSTORE PUSH1 0x4 ADD PUSH3 0x8A SWAP1 PUSH3 0x388 JUMP JUMPDEST PUSH1 0x40 MLOAD DUP1 SWAP2 SUB SWAP1 REVERT JUMPDEST PUSH1 0x0 PUSH20 0xFFFFFFFFFFFFFFFFFFFFFFFFFFFFFFFFFFFFFFFF AND DUP5 PUSH20 0xFFFFFFFFFFFFFFFFFFFFFFFFFFFFFFFFFFFFFFFF AND EQ PUSH3 0x10A JUMPI DUP4 PUSH1 0x1 PUSH1 0x0 PUSH2 0x100 EXP DUP2 SLOAD DUP2 PUSH20 0xFFFFFFFFFFFFFFFFFFFFFFFFFFFFFFFFFFFFFFFF MUL NOT AND SWAP1 DUP4 PUSH20 0xFFFFFFFFFFFFFFFFFFFFFFFFFFFFFFFFFFFFFFFF AND MUL OR SWAP1 SSTORE POP JUMPDEST DUP3 PUSH1 0x6 DUP2 SWAP1 SSTORE POP PUSH1 0x9 SLOAD PUSH1 0x6 SLOAD PUSH3 0x123 SWAP2 SWAP1 PUSH3 0x3D9 JUMP JUMPDEST PUSH1 0x7 DUP2 SWAP1 SSTORE POP DUP2 PUSH1 0xA PUSH1 0x0 PUSH2 0x100 EXP DUP2 SLOAD DUP2 PUSH2 0xFFFF MUL NOT AND SWAP1 DUP4 PUSH2 0xFFFF AND MUL OR SWAP1 SSTORE POP DUP1 PUSH1 0x2 PUSH1 0x0 PUSH2 0x100 EXP DUP2 SLOAD DUP2 PUSH20 0xFFFFFFFFFFFFFFFFFFFFFFFFFFFFFFFFFFFFFFFF MUL NOT AND SWAP1 DUP4 PUSH20 0xFFFFFFFFFFFFFFFFFFFFFFFFFFFFFFFFFFFFFFFF AND MUL OR SWAP1 SSTORE POP CALLER PUSH1 0x0 DUP1 PUSH2 0x100 EXP DUP2 SLOAD DUP2 PUSH20 0xFFFFFFFFFFFFFFFFFFFFFFFFFFFFFFFFFFFFFFFF MUL NOT AND SWAP1 DUP4 PUSH20 0xFFFFFFFFFFFFFFFFFFFFFFFFFFFFFFFFFFFFFFFF AND MUL OR SWAP1 SSTORE POP POP POP POP POP PUSH3 0x414 JUMP JUMPDEST PUSH1 0x0 DUP1 REVERT JUMPDEST PUSH1 0x0 PUSH20 0xFFFFFFFFFFFFFFFFFFFFFFFFFFFFFFFFFFFFFFFF DUP3 AND SWAP1 POP SWAP2 SWAP1 POP JUMP JUMPDEST PUSH1 0x0 PUSH3 0x203 DUP3 PUSH3 0x1D6 JUMP JUMPDEST SWAP1 POP SWAP2 SWAP1 POP JUMP JUMPDEST PUSH3 0x215 DUP2 PUSH3 0x1F6 JUMP JUMPDEST DUP2 EQ PUSH3 0x221 JUMPI PUSH1 0x0 DUP1 REVERT JUMPDEST POP JUMP JUMPDEST PUSH1 0x0 DUP2 MLOAD SWAP1 POP PUSH3 0x235 DUP2 PUSH3 0x20A JUMP JUMPDEST SWAP3 SWAP2 POP POP JUMP JUMPDEST PUSH1 0x0 DUP2 SWAP1 POP SWAP2 SWAP1 POP JUMP JUMPDEST PUSH3 0x250 DUP2 PUSH3 0x23B JUMP JUMPDEST DUP2 EQ PUSH3 0x25C JUMPI PUSH1 0x0 DUP1 REVERT JUMPDEST POP JUMP JUMPDEST PUSH1 0x0 DUP2 MLOAD SWAP1 POP PUSH3 0x270 DUP2 PUSH3 0x245 JUMP JUMPDEST SWAP3 SWAP2 POP POP JUMP JUMPDEST PUSH1 0x0 PUSH2 0xFFFF DUP3 AND SWAP1 POP SWAP2 SWAP1 POP JUMP JUMPDEST PUSH3 0x28F DUP2 PUSH3 0x276 JUMP JUMPDEST DUP2 EQ PUSH3 0x29B JUMPI PUSH1 0x0 DUP1 REVERT JUMPDEST POP JUMP JUMPDEST PUSH1 0x0 DUP2 MLOAD SWAP1 POP PUSH3 0x2AF DUP2 PUSH3 0x284 JUMP JUMPDEST SWAP3 SWAP2 POP POP JUMP JUMPDEST PUSH1 0x0 DUP1 PUSH1 0x0 DUP1 PUSH1 0x80 DUP6 DUP8 SUB SLT ISZERO PUSH3 0x2D2 JUMPI PUSH3 0x2D1 PUSH3 0x1D1 JUMP JUMPDEST JUMPDEST PUSH1 0x0 PUSH3 0x2E2 DUP8 DUP3 DUP9 ADD PUSH3 0x224 JUMP JUMPDEST SWAP5 POP POP PUSH1 0x20 PUSH3 0x2F5 DUP8 DUP3 DUP9 ADD PUSH3 0x25F JUMP JUMPDEST SWAP4 POP POP PUSH1 0x40 PUSH3 0x308 DUP8 DUP3 DUP9 ADD PUSH3 0x29E JUMP JUMPDEST SWAP3 POP POP PUSH1 0x60 PUSH3 0x31B DUP8 DUP3 DUP9 ADD PUSH3 0x224 JUMP JUMPDEST SWAP2 POP POP SWAP3 SWAP6 SWAP2 SWAP5 POP SWAP3 POP JUMP JUMPDEST PUSH1 0x0 DUP3 DUP3 MSTORE PUSH1 0x20 DUP3 ADD SWAP1 POP SWAP3 SWAP2 POP POP JUMP JUMPDEST PUSH32 0x6C61746500000000000000000000000000000000000000000000000000000000 PUSH1 0x0 DUP3 ADD MSTORE POP JUMP JUMPDEST PUSH1 0x0 PUSH3 0x370 PUSH1 0x4 DUP4 PUSH3 0x327 JUMP JUMPDEST SWAP2 POP PUSH3 0x37D DUP3 PUSH3 0x338 JUMP JUMPDEST PUSH1 0x20 DUP3 ADD SWAP1 POP SWAP2 SWAP1 POP JUMP JUMPDEST PUSH1 0x0 PUSH1 0x20 DUP3 ADD SWAP1 POP DUP2 DUP2 SUB PUSH1 0x0 DUP4 ADD MSTORE PUSH3 0x3A3 DUP2 PUSH3 0x361 JUMP JUMPDEST SWAP1 POP SWAP2 SWAP1 POP JUMP JUMPDEST PUSH32 0x4E487B7100000000000000000000000000000000000000000000000000000000 PUSH1 0x0 MSTORE PUSH1 0x11 PUSH1 0x4 MSTORE PUSH1 0x24 PUSH1 0x0 REVERT JUMPDEST PUSH1 0x0 PUSH3 0x3E6 DUP3 PUSH3 0x23B JUMP JUMPDEST SWAP2 POP PUSH3 0x3F3 DUP4 PUSH3 0x23B JUMP JUMPDEST SWAP3 POP DUP3 DUP3 ADD SWAP1 POP DUP1 DUP3 GT ISZERO PUSH3 0x40E JUMPI PUSH3 0x40D PUSH3 0x3AA JUMP JUMPDEST JUMPDEST SWAP3 SWAP2 POP POP JUMP JUMPDEST PUSH2 0x2FE2 DUP1 PUSH3 0x424 PUSH1 0x0 CODECOPY PUSH1 0x0 RETURN INVALID PUSH1 0x80 PUSH1 0x40 MSTORE CALLVALUE DUP1 ISZERO PUSH2 0x10 JUMPI PUSH1 0x0 DUP1 REVERT JUMPDEST POP PUSH1 0x4 CALLDATASIZE LT PUSH2 0x14D JUMPI PUSH1 0x0 CALLDATALOAD PUSH1 0xE0 SHR DUP1 PUSH4 0x54575AF4 GT PUSH2 0xC3 JUMPI DUP1 PUSH4 0x943F013D GT PUSH2 0x7C JUMPI DUP1 PUSH4 0x943F013D EQ PUSH2 0x37E JUMPI DUP1 PUSH4 0xB3AB15FB EQ PUSH2 0x39C JUMPI DUP1 PUSH4 0xD18CCD89 EQ PUSH2 0x3B8 JUMPI DUP1 PUSH4 0xDC9E5DEA EQ PUSH2 0x3D6 JUMPI DUP1 PUSH4 0xE2BBB158 EQ PUSH2 0x3F4 JUMPI DUP1 PUSH4 0xECB1AB54 EQ PUSH2 0x410 JUMPI PUSH2 0x14D JUMP JUMPDEST DUP1 PUSH4 0x54575AF4 EQ PUSH2 0x2CD JUMPI DUP1 PUSH4 0x570CA735 EQ PUSH2 0x2E9 JUMPI DUP1 PUSH4 0x5F96DC11 EQ PUSH2 0x307 JUMPI DUP1 PUSH4 0x630B5BA1 EQ PUSH2 0x325 JUMPI DUP1 PUSH4 0x6E271DD5 EQ PUSH2 0x32F JUMPI DUP1 PUSH4 0x93F1A40B EQ PUSH2 0x34D JUMPI PUSH2 0x14D JUMP JUMPDEST DUP1 PUSH4 0x231F0C6A GT PUSH2 0x115 JUMPI DUP1 PUSH4 0x231F0C6A EQ PUSH2 0x20F JUMPI DUP1 PUSH4 0x24BCB38C EQ PUSH2 0x23F JUMPI DUP1 PUSH4 0x41275358 EQ PUSH2 0x25B JUMPI DUP1 PUSH4 0x441A3E70 EQ PUSH2 0x279 JUMPI DUP1 PUSH4 0x51EB05A6 EQ PUSH2 0x295 JUMPI DUP1 PUSH4 0x5312EA8E EQ PUSH2 0x2B1 JUMPI PUSH2 0x14D JUMP JUMPDEST DUP1 PUSH4 0x8BEE642 EQ PUSH2 0x152 JUMPI DUP1 PUSH4 0x9CF6091 EQ PUSH2 0x16E JUMPI DUP1 PUSH4 0x1526FE27 EQ PUSH2 0x18C JUMPI DUP1 PUSH4 0x17CAF6F1 EQ PUSH2 0x1C1 JUMPI DUP1 PUSH4 0x1E8FA23A EQ PUSH2 0x1DF JUMPI JUMPDEST PUSH1 0x0 DUP1 REVERT JUMPDEST PUSH2 0x16C PUSH1 0x4 DUP1 CALLDATASIZE SUB DUP2 ADD SWAP1 PUSH2 0x167 SWAP2 SWAP1 PUSH2 0x2236 JUMP JUMPDEST PUSH2 0x42C JUMP JUMPDEST STOP JUMPDEST PUSH2 0x176 PUSH2 0x6C2 JUMP JUMPDEST PUSH1 0x40 MLOAD PUSH2 0x183 SWAP2 SWAP1 PUSH2 0x22C0 JUMP JUMPDEST PUSH1 0x40 MLOAD DUP1 SWAP2 SUB SWAP1 RETURN JUMPDEST PUSH2 0x1A6 PUSH1 0x4 DUP1 CALLDATASIZE SUB DUP2 ADD SWAP1 PUSH2 0x1A1 SWAP2 SWAP1 PUSH2 0x22DB JUMP JUMPDEST PUSH2 0x6D1 JUMP JUMPDEST PUSH1 0x40 MLOAD PUSH2 0x1B8 SWAP7 SWAP6 SWAP5 SWAP4 SWAP3 SWAP2 SWAP1 PUSH2 0x2385 JUMP JUMPDEST PUSH1 0x40 MLOAD DUP1 SWAP2 SUB SWAP1 RETURN JUMPDEST PUSH2 0x1C9 PUSH2 0x758 JUMP JUMPDEST PUSH1 0x40 MLOAD PUSH2 0x1D6 SWAP2 SWAP1 PUSH2 0x22C0 JUMP JUMPDEST PUSH1 0x40 MLOAD DUP1 SWAP2 SUB SWAP1 RETURN JUMPDEST PUSH2 0x1F9 PUSH1 0x4 DUP1 CALLDATASIZE SUB DUP2 ADD SWAP1 PUSH2 0x1F4 SWAP2 SWAP1 PUSH2 0x2412 JUMP JUMPDEST PUSH2 0x75E JUMP JUMPDEST PUSH1 0x40 MLOAD PUSH2 0x206 SWAP2 SWAP1 PUSH2 0x22C0 JUMP JUMPDEST PUSH1 0x40 MLOAD DUP1 SWAP2 SUB SWAP1 RETURN JUMPDEST PUSH2 0x229 PUSH1 0x4 DUP1 CALLDATASIZE SUB DUP2 ADD SWAP1 PUSH2 0x224 SWAP2 SWAP1 PUSH2 0x2452 JUMP JUMPDEST PUSH2 0x975 JUMP JUMPDEST PUSH1 0x40 MLOAD PUSH2 0x236 SWAP2 SWAP1 PUSH2 0x22C0 JUMP JUMPDEST PUSH1 0x40 MLOAD DUP1 SWAP2 SUB SWAP1 RETURN JUMPDEST PUSH2 0x259 PUSH1 0x4 DUP1 CALLDATASIZE SUB DUP2 ADD SWAP1 PUSH2 0x254 SWAP2 SWAP1 PUSH2 0x2492 JUMP JUMPDEST PUSH2 0xA88 JUMP JUMPDEST STOP JUMPDEST PUSH2 0x263 PUSH2 0xC03 JUMP JUMPDEST PUSH1 0x40 MLOAD PUSH2 0x270 SWAP2 SWAP1 PUSH2 0x24F4 JUMP JUMPDEST PUSH1 0x40 MLOAD DUP1 SWAP2 SUB SWAP1 RETURN JUMPDEST PUSH2 0x293 PUSH1 0x4 DUP1 CALLDATASIZE SUB DUP2 ADD SWAP1 PUSH2 0x28E SWAP2 SWAP1 PUSH2 0x2452 JUMP JUMPDEST PUSH2 0xC29 JUMP JUMPDEST STOP JUMPDEST PUSH2 0x2AF PUSH1 0x4 DUP1 CALLDATASIZE SUB DUP2 ADD SWAP1 PUSH2 0x2AA SWAP2 SWAP1 PUSH2 0x22DB JUMP JUMPDEST PUSH2 0xEB5 JUMP JUMPDEST STOP JUMPDEST PUSH2 0x2CB PUSH1 0x4 DUP1 CALLDATASIZE SUB DUP2 ADD SWAP1 PUSH2 0x2C6 SWAP2 SWAP1 PUSH2 0x22DB JUMP JUMPDEST PUSH2 0x10A2 JUMP JUMPDEST STOP JUMPDEST PUSH2 0x2E7 PUSH1 0x4 DUP1 CALLDATASIZE SUB DUP2 ADD SWAP1 PUSH2 0x2E2 SWAP2 SWAP1 PUSH2 0x250F JUMP JUMPDEST PUSH2 0x11DD JUMP JUMPDEST STOP JUMPDEST PUSH2 0x2F1 PUSH2 0x1425 JUMP JUMPDEST PUSH1 0x40 MLOAD PUSH2 0x2FE SWAP2 SWAP1 PUSH2 0x24F4 JUMP JUMPDEST PUSH1 0x40 MLOAD DUP1 SWAP2 SUB SWAP1 RETURN JUMPDEST PUSH2 0x30F PUSH2 0x1449 JUMP JUMPDEST PUSH1 0x40 MLOAD PUSH2 0x31C SWAP2 SWAP1 PUSH2 0x22C0 JUMP JUMPDEST PUSH1 0x40 MLOAD DUP1 SWAP2 SUB SWAP1 RETURN JUMPDEST PUSH2 0x32D PUSH2 0x144F JUMP JUMPDEST STOP JUMPDEST PUSH2 0x337 PUSH2 0x1482 JUMP JUMPDEST PUSH1 0x40 MLOAD PUSH2 0x344 SWAP2 SWAP1 PUSH2 0x22C0 JUMP JUMPDEST PUSH1 0x40 MLOAD DUP1 SWAP2 SUB SWAP1 RETURN JUMPDEST PUSH2 0x367 PUSH1 0x4 DUP1 CALLDATASIZE SUB DUP2 ADD SWAP1 PUSH2 0x362 SWAP2 SWAP1 PUSH2 0x2412 JUMP JUMPDEST PUSH2 0x1488 JUMP JUMPDEST PUSH1 0x40 MLOAD PUSH2 0x375 SWAP3 SWAP2 SWAP1 PUSH2 0x2562 JUMP JUMPDEST PUSH1 0x40 MLOAD DUP1 SWAP2 SUB SWAP1 RETURN JUMPDEST PUSH2 0x386 PUSH2 0x14B9 JUMP JUMPDEST PUSH1 0x40 MLOAD PUSH2 0x393 SWAP2 SWAP1 PUSH2 0x22C0 JUMP JUMPDEST PUSH1 0x40 MLOAD DUP1 SWAP2 SUB SWAP1 RETURN JUMPDEST PUSH2 0x3B6 PUSH1 0x4 DUP1 CALLDATASIZE SUB DUP2 ADD SWAP1 PUSH2 0x3B1 SWAP2 SWAP1 PUSH2 0x258B JUMP JUMPDEST PUSH2 0x14BF JUMP JUMPDEST STOP JUMPDEST PUSH2 0x3C0 PUSH2 0x1590 JUMP JUMPDEST PUSH1 0x40 MLOAD PUSH2 0x3CD SWAP2 SWAP1 PUSH2 0x25B8 JUMP JUMPDEST PUSH1 0x40 MLOAD DUP1 SWAP2 SUB SWAP1 RETURN JUMPDEST PUSH2 0x3DE PUSH2 0x15B6 JUMP JUMPDEST PUSH1 0x40 MLOAD PUSH2 0x3EB SWAP2 SWAP1 PUSH2 0x22C0 JUMP JUMPDEST PUSH1 0x40 MLOAD DUP1 SWAP2 SUB SWAP1 RETURN JUMPDEST PUSH2 0x40E PUSH1 0x4 DUP1 CALLDATASIZE SUB DUP2 ADD SWAP1 PUSH2 0x409 SWAP2 SWAP1 PUSH2 0x2452 JUMP JUMPDEST PUSH2 0x15BC JUMP JUMPDEST STOP JUMPDEST PUSH2 0x42A PUSH1 0x4 DUP1 CALLDATASIZE SUB DUP2 ADD SWAP1 PUSH2 0x425 SWAP2 SWAP1 PUSH2 0x25D3 JUMP JUMPDEST PUSH2 0x195F JUMP JUMPDEST STOP JUMPDEST CALLER PUSH20 0xFFFFFFFFFFFFFFFFFFFFFFFFFFFFFFFFFFFFFFFF AND PUSH1 0x0 DUP1 SLOAD SWAP1 PUSH2 0x100 EXP SWAP1 DIV PUSH20 0xFFFFFFFFFFFFFFFFFFFFFFFFFFFFFFFFFFFFFFFF AND PUSH20 0xFFFFFFFFFFFFFFFFFFFFFFFFFFFFFFFFFFFFFFFF AND EQ PUSH2 0x4BA JUMPI PUSH1 0x40 MLOAD PUSH32 0x8C379A000000000000000000000000000000000000000000000000000000000 DUP2 MSTORE PUSH1 0x4 ADD PUSH2 0x4B1 SWAP1 PUSH2 0x2683 JUMP JUMPDEST PUSH1 0x40 MLOAD DUP1 SWAP2 SUB SWAP1 REVERT JUMPDEST PUSH2 0x4C3 DUP5 PUSH2 0x1B00 JUMP JUMPDEST PUSH1 0x64 DUP3 PUSH2 0xFFFF AND GT ISZERO PUSH2 0x50B JUMPI PUSH1 0x40 MLOAD PUSH32 0x8C379A000000000000000000000000000000000000000000000000000000000 DUP2 MSTORE PUSH1 0x4 ADD PUSH2 0x502 SWAP1 PUSH2 0x2715 JUMP JUMPDEST PUSH1 0x40 MLOAD DUP1 SWAP2 SUB SWAP1 REVERT JUMPDEST DUP3 ISZERO PUSH2 0x51A JUMPI PUSH2 0x519 PUSH2 0x144F JUMP JUMPDEST JUMPDEST PUSH1 0x6 SLOAD TIMESTAMP LT ISZERO PUSH2 0x54C JUMPI PUSH1 0x0 DUP2 SUB PUSH2 0x536 JUMPI PUSH1 0x6 SLOAD SWAP1 POP PUSH2 0x547 JUMP JUMPDEST PUSH1 0x6 SLOAD DUP2 LT ISZERO PUSH2 0x546 JUMPI PUSH1 0x6 SLOAD SWAP1 POP JUMPDEST JUMPDEST PUSH2 0x564 JUMP JUMPDEST PUSH1 0x0 DUP2 EQ DUP1 PUSH2 0x55A JUMPI POP TIMESTAMP DUP2 LT JUMPDEST ISZERO PUSH2 0x563 JUMPI TIMESTAMP SWAP1 POP JUMPDEST JUMPDEST PUSH1 0x0 PUSH1 0x6 SLOAD DUP3 GT ISZERO DUP1 PUSH2 0x577 JUMPI POP TIMESTAMP DUP3 GT ISZERO JUMPDEST SWAP1 POP PUSH1 0x3 PUSH1 0x40 MLOAD DUP1 PUSH1 0xC0 ADD PUSH1 0x40 MSTORE DUP1 DUP8 PUSH20 0xFFFFFFFFFFFFFFFFFFFFFFFFFFFFFFFFFFFFFFFF AND DUP2 MSTORE PUSH1 0x20 ADD DUP9 DUP2 MSTORE PUSH1 0x20 ADD DUP5 DUP2 MSTORE PUSH1 0x20 ADD PUSH1 0x0 DUP2 MSTORE PUSH1 0x20 ADD DUP6 PUSH2 0xFFFF AND DUP2 MSTORE PUSH1 0x20 ADD DUP4 ISZERO ISZERO DUP2 MSTORE POP SWAP1 DUP1 PUSH1 0x1 DUP2 SLOAD ADD DUP1 DUP3 SSTORE DUP1 SWAP2 POP POP PUSH1 0x1 SWAP1 SUB SWAP1 PUSH1 0x0 MSTORE PUSH1 0x20 PUSH1 0x0 KECCAK256 SWAP1 PUSH1 0x5 MUL ADD PUSH1 0x0 SWAP1 SWAP2 SWAP1 SWAP2 SWAP1 SWAP2 POP PUSH1 0x0 DUP3 ADD MLOAD DUP2 PUSH1 0x0 ADD PUSH1 0x0 PUSH2 0x100 EXP DUP2 SLOAD DUP2 PUSH20 0xFFFFFFFFFFFFFFFFFFFFFFFFFFFFFFFFFFFFFFFF MUL NOT AND SWAP1 DUP4 PUSH20 0xFFFFFFFFFFFFFFFFFFFFFFFFFFFFFFFFFFFFFFFF AND MUL OR SWAP1 SSTORE POP PUSH1 0x20 DUP3 ADD MLOAD DUP2 PUSH1 0x1 ADD SSTORE PUSH1 0x40 DUP3 ADD MLOAD DUP2 PUSH1 0x2 ADD SSTORE PUSH1 0x60 DUP3 ADD MLOAD DUP2 PUSH1 0x3 ADD SSTORE PUSH1 0x80 DUP3 ADD MLOAD DUP2 PUSH1 0x4 ADD PUSH1 0x0 PUSH2 0x100 EXP DUP2 SLOAD DUP2 PUSH2 0xFFFF MUL NOT AND SWAP1 DUP4 PUSH2 0xFFFF AND MUL OR SWAP1 SSTORE POP PUSH1 0xA0 DUP3 ADD MLOAD DUP2 PUSH1 0x4 ADD PUSH1 0x2 PUSH2 0x100 EXP DUP2 SLOAD DUP2 PUSH1 0xFF MUL NOT AND SWAP1 DUP4 ISZERO ISZERO MUL OR SWAP1 SSTORE POP POP POP DUP1 ISZERO PUSH2 0x6BA JUMPI PUSH2 0x6B3 DUP7 PUSH1 0x5 SLOAD PUSH2 0x1BDE SWAP1 SWAP2 SWAP1 PUSH4 0xFFFFFFFF AND JUMP JUMPDEST PUSH1 0x5 DUP2 SWAP1 SSTORE POP JUMPDEST POP POP POP POP POP POP JUMP JUMPDEST PUSH11 0x34F086F3B33B684000000 DUP2 JUMP JUMPDEST PUSH1 0x3 DUP2 DUP2 SLOAD DUP2 LT PUSH2 0x6E1 JUMPI PUSH1 0x0 DUP1 REVERT JUMPDEST SWAP1 PUSH1 0x0 MSTORE PUSH1 0x20 PUSH1 0x0 KECCAK256 SWAP1 PUSH1 0x5 MUL ADD PUSH1 0x0 SWAP2 POP SWAP1 POP DUP1 PUSH1 0x0 ADD PUSH1 0x0 SWAP1 SLOAD SWAP1 PUSH2 0x100 EXP SWAP1 DIV PUSH20 0xFFFFFFFFFFFFFFFFFFFFFFFFFFFFFFFFFFFFFFFF AND SWAP1 DUP1 PUSH1 0x1 ADD SLOAD SWAP1 DUP1 PUSH1 0x2 ADD SLOAD SWAP1 DUP1 PUSH1 0x3 ADD SLOAD SWAP1 DUP1 PUSH1 0x4 ADD PUSH1 0x0 SWAP1 SLOAD SWAP1 PUSH2 0x100 EXP SWAP1 DIV PUSH2 0xFFFF AND SWAP1 DUP1 PUSH1 0x4 ADD PUSH1 0x2 SWAP1 SLOAD SWAP1 PUSH2 0x100 EXP SWAP1 DIV PUSH1 0xFF AND SWAP1 POP DUP7 JUMP JUMPDEST PUSH1 0x5 SLOAD DUP2 JUMP JUMPDEST PUSH1 0x0 DUP1 PUSH1 0x3 DUP5 DUP2 SLOAD DUP2 LT PUSH2 0x775 JUMPI PUSH2 0x774 PUSH2 0x2735 JUMP JUMPDEST JUMPDEST SWAP1 PUSH1 0x0 MSTORE PUSH1 0x20 PUSH1 0x0 KECCAK256 SWAP1 PUSH1 0x5 MUL ADD SWAP1 POP PUSH1 0x0 PUSH1 0x4 PUSH1 0x0 DUP7 DUP2 MSTORE PUSH1 0x20 ADD SWAP1 DUP2 MSTORE PUSH1 0x20 ADD PUSH1 0x0 KECCAK256 PUSH1 0x0 DUP6 PUSH20 0xFFFFFFFFFFFFFFFFFFFFFFFFFFFFFFFFFFFFFFFF AND PUSH20 0xFFFFFFFFFFFFFFFFFFFFFFFFFFFFFFFFFFFFFFFF AND DUP2 MSTORE PUSH1 0x20 ADD SWAP1 DUP2 MSTORE PUSH1 0x20 ADD PUSH1 0x0 KECCAK256 SWAP1 POP PUSH1 0x0 DUP3 PUSH1 0x3 ADD SLOAD SWAP1 POP PUSH1 0x0 DUP4 PUSH1 0x0 ADD PUSH1 0x0 SWAP1 SLOAD SWAP1 PUSH2 0x100 EXP SWAP1 DIV PUSH20 0xFFFFFFFFFFFFFFFFFFFFFFFFFFFFFFFFFFFFFFFF AND PUSH20 0xFFFFFFFFFFFFFFFFFFFFFFFFFFFFFFFFFFFFFFFF AND PUSH4 0x70A08231 ADDRESS PUSH1 0x40 MLOAD DUP3 PUSH4 0xFFFFFFFF AND PUSH1 0xE0 SHL DUP2 MSTORE PUSH1 0x4 ADD PUSH2 0x841 SWAP2 SWAP1 PUSH2 0x24F4 JUMP JUMPDEST PUSH1 0x20 PUSH1 0x40 MLOAD DUP1 DUP4 SUB DUP2 DUP7 GAS STATICCALL ISZERO DUP1 ISZERO PUSH2 0x85E JUMPI RETURNDATASIZE PUSH1 0x0 DUP1 RETURNDATACOPY RETURNDATASIZE PUSH1 0x0 REVERT JUMPDEST POP POP POP POP PUSH1 0x40 MLOAD RETURNDATASIZE PUSH1 0x1F NOT PUSH1 0x1F DUP3 ADD AND DUP3 ADD DUP1 PUSH1 0x40 MSTORE POP DUP2 ADD SWAP1 PUSH2 0x882 SWAP2 SWAP1 PUSH2 0x2779 JUMP JUMPDEST SWAP1 POP DUP4 PUSH1 0x2 ADD SLOAD TIMESTAMP GT DUP1 ISZERO PUSH2 0x898 JUMPI POP PUSH1 0x0 DUP2 EQ ISZERO JUMPDEST ISZERO PUSH2 0x922 JUMPI PUSH1 0x0 PUSH2 0x8AD DUP6 PUSH1 0x2 ADD SLOAD TIMESTAMP PUSH2 0x975 JUMP JUMPDEST SWAP1 POP PUSH1 0x0 PUSH2 0x8DC PUSH1 0x5 SLOAD PUSH2 0x8CE DUP9 PUSH1 0x1 ADD SLOAD DUP6 PUSH2 0x1BF4 SWAP1 SWAP2 SWAP1 PUSH4 0xFFFFFFFF AND JUMP JUMPDEST PUSH2 0x1C0A SWAP1 SWAP2 SWAP1 PUSH4 0xFFFFFFFF AND JUMP JUMPDEST SWAP1 POP PUSH2 0x91D PUSH2 0x90E DUP5 PUSH2 0x900 PUSH8 0xDE0B6B3A7640000 DUP6 PUSH2 0x1BF4 SWAP1 SWAP2 SWAP1 PUSH4 0xFFFFFFFF AND JUMP JUMPDEST PUSH2 0x1C0A SWAP1 SWAP2 SWAP1 PUSH4 0xFFFFFFFF AND JUMP JUMPDEST DUP6 PUSH2 0x1BDE SWAP1 SWAP2 SWAP1 PUSH4 0xFFFFFFFF AND JUMP JUMPDEST SWAP4 POP POP POP JUMPDEST PUSH2 0x969 DUP4 PUSH1 0x1 ADD SLOAD PUSH2 0x95B PUSH8 0xDE0B6B3A7640000 PUSH2 0x94D DUP7 DUP9 PUSH1 0x0 ADD SLOAD PUSH2 0x1BF4 SWAP1 SWAP2 SWAP1 PUSH4 0xFFFFFFFF AND JUMP JUMPDEST PUSH2 0x1C0A SWAP1 SWAP2 SWAP1 PUSH4 0xFFFFFFFF AND JUMP JUMPDEST PUSH2 0x1C20 SWAP1 SWAP2 SWAP1 PUSH4 0xFFFFFFFF AND JUMP JUMPDEST SWAP5 POP POP POP POP POP SWAP3 SWAP2 POP POP JUMP JUMPDEST PUSH1 0x0 DUP2 DUP4 LT PUSH2 0x987 JUMPI PUSH1 0x0 SWAP1 POP PUSH2 0xA82 JUMP JUMPDEST PUSH1 0x7 SLOAD DUP3 LT PUSH2 0xA0D JUMPI PUSH1 0x7 SLOAD DUP4 LT PUSH2 0x9A2 JUMPI PUSH1 0x0 SWAP1 POP PUSH2 0xA82 JUMP JUMPDEST PUSH1 0x6 SLOAD DUP4 GT PUSH2 0x9DD JUMPI PUSH2 0x9D6 PUSH1 0x8 SLOAD PUSH2 0x9C8 PUSH1 0x6 SLOAD PUSH1 0x7 SLOAD PUSH2 0x1C20 SWAP1 SWAP2 SWAP1 PUSH4 0xFFFFFFFF AND JUMP JUMPDEST PUSH2 0x1BF4 SWAP1 SWAP2 SWAP1 PUSH4 0xFFFFFFFF AND JUMP JUMPDEST SWAP1 POP PUSH2 0xA82 JUMP JUMPDEST PUSH2 0xA06 PUSH1 0x8 SLOAD PUSH2 0x9F8 DUP6 PUSH1 0x7 SLOAD PUSH2 0x1C20 SWAP1 SWAP2 SWAP1 PUSH4 0xFFFFFFFF AND JUMP JUMPDEST PUSH2 0x1BF4 SWAP1 SWAP2 SWAP1 PUSH4 0xFFFFFFFF AND JUMP JUMPDEST SWAP1 POP PUSH2 0xA82 JUMP JUMPDEST PUSH1 0x6 SLOAD DUP3 GT PUSH2 0xA1F JUMPI PUSH1 0x0 SWAP1 POP PUSH2 0xA82 JUMP JUMPDEST PUSH1 0x6 SLOAD DUP4 GT PUSH2 0xA58 JUMPI PUSH2 0xA51 PUSH1 0x8 SLOAD PUSH2 0xA43 PUSH1 0x6 SLOAD DUP6 PUSH2 0x1C20 SWAP1 SWAP2 SWAP1 PUSH4 0xFFFFFFFF AND JUMP JUMPDEST PUSH2 0x1BF4 SWAP1 SWAP2 SWAP1 PUSH4 0xFFFFFFFF AND JUMP JUMPDEST SWAP1 POP PUSH2 0xA82 JUMP JUMPDEST PUSH2 0xA7F PUSH1 0x8 SLOAD PUSH2 0xA71 DUP6 DUP6 PUSH2 0x1C20 SWAP1 SWAP2 SWAP1 PUSH4 0xFFFFFFFF AND JUMP JUMPDEST PUSH2 0x1BF4 SWAP1 SWAP2 SWAP1 PUSH4 0xFFFFFFFF AND JUMP JUMPDEST SWAP1 POP JUMPDEST SWAP3 SWAP2 POP POP JUMP JUMPDEST CALLER PUSH20 0xFFFFFFFFFFFFFFFFFFFFFFFFFFFFFFFFFFFFFFFF AND PUSH1 0x0 DUP1 SLOAD SWAP1 PUSH2 0x100 EXP SWAP1 DIV PUSH20 0xFFFFFFFFFFFFFFFFFFFFFFFFFFFFFFFFFFFFFFFF AND PUSH20 0xFFFFFFFFFFFFFFFFFFFFFFFFFFFFFFFFFFFFFFFF AND EQ PUSH2 0xB16 JUMPI PUSH1 0x40 MLOAD PUSH32 0x8C379A000000000000000000000000000000000000000000000000000000000 DUP2 MSTORE PUSH1 0x4 ADD PUSH2 0xB0D SWAP1 PUSH2 0x2683 JUMP JUMPDEST PUSH1 0x40 MLOAD DUP1 SWAP2 SUB SWAP1 REVERT JUMPDEST PUSH1 0x0 DUP2 PUSH2 0xFFFF AND GT ISZERO PUSH2 0xB5E JUMPI PUSH1 0x40 MLOAD PUSH32 0x8C379A000000000000000000000000000000000000000000000000000000000 DUP2 MSTORE PUSH1 0x4 ADD PUSH2 0xB55 SWAP1 PUSH2 0x2818 JUMP JUMPDEST PUSH1 0x40 MLOAD DUP1 SWAP2 SUB SWAP1 REVERT JUMPDEST PUSH2 0xB66 PUSH2 0x144F JUMP JUMPDEST PUSH1 0x0 PUSH1 0x3 DUP5 DUP2 SLOAD DUP2 LT PUSH2 0xB7C JUMPI PUSH2 0xB7B PUSH2 0x2735 JUMP JUMPDEST JUMPDEST SWAP1 PUSH1 0x0 MSTORE PUSH1 0x20 PUSH1 0x0 KECCAK256 SWAP1 PUSH1 0x5 MUL ADD SWAP1 POP DUP1 PUSH1 0x4 ADD PUSH1 0x2 SWAP1 SLOAD SWAP1 PUSH2 0x100 EXP SWAP1 DIV PUSH1 0xFF AND ISZERO PUSH2 0xBD5 JUMPI PUSH2 0xBCE DUP4 PUSH2 0xBC0 DUP4 PUSH1 0x1 ADD SLOAD PUSH1 0x5 SLOAD PUSH2 0x1C20 SWAP1 SWAP2 SWAP1 PUSH4 0xFFFFFFFF AND JUMP JUMPDEST PUSH2 0x1BDE SWAP1 SWAP2 SWAP1 PUSH4 0xFFFFFFFF AND JUMP JUMPDEST PUSH1 0x5 DUP2 SWAP1 SSTORE POP JUMPDEST DUP3 DUP2 PUSH1 0x1 ADD DUP2 SWAP1 SSTORE POP DUP2 DUP2 PUSH1 0x4 ADD PUSH1 0x0 PUSH2 0x100 EXP DUP2 SLOAD DUP2 PUSH2 0xFFFF MUL NOT AND SWAP1 DUP4 PUSH2 0xFFFF AND MUL OR SWAP1 SSTORE POP POP POP POP POP JUMP JUMPDEST PUSH1 0x2 PUSH1 0x0 SWAP1 SLOAD SWAP1 PUSH2 0x100 EXP SWAP1 DIV PUSH20 0xFFFFFFFFFFFFFFFFFFFFFFFFFFFFFFFFFFFFFFFF AND DUP2 JUMP JUMPDEST PUSH1 0x0 CALLER SWAP1 POP PUSH1 0x0 PUSH1 0x3 DUP5 DUP2 SLOAD DUP2 LT PUSH2 0xC44 JUMPI PUSH2 0xC43 PUSH2 0x2735 JUMP JUMPDEST JUMPDEST SWAP1 PUSH1 0x0 MSTORE PUSH1 0x20 PUSH1 0x0 KECCAK256 SWAP1 PUSH1 0x5 MUL ADD SWAP1 POP PUSH1 0x0 PUSH1 0x4 PUSH1 0x0 DUP7 DUP2 MSTORE PUSH1 0x20 ADD SWAP1 DUP2 MSTORE PUSH1 0x20 ADD PUSH1 0x0 KECCAK256 PUSH1 0x0 DUP5 PUSH20 0xFFFFFFFFFFFFFFFFFFFFFFFFFFFFFFFFFFFFFFFF AND PUSH20 0xFFFFFFFFFFFFFFFFFFFFFFFFFFFFFFFFFFFFFFFF AND DUP2 MSTORE PUSH1 0x20 ADD SWAP1 DUP2 MSTORE PUSH1 0x20 ADD PUSH1 0x0 KECCAK256 SWAP1 POP DUP4 DUP2 PUSH1 0x0 ADD SLOAD LT ISZERO PUSH2 0xCEF JUMPI PUSH1 0x40 MLOAD PUSH32 0x8C379A000000000000000000000000000000000000000000000000000000000 DUP2 MSTORE PUSH1 0x4 ADD PUSH2 0xCE6 SWAP1 PUSH2 0x2884 JUMP JUMPDEST PUSH1 0x40 MLOAD DUP1 SWAP2 SUB SWAP1 REVERT JUMPDEST PUSH2 0xCF8 DUP6 PUSH2 0xEB5 JUMP JUMPDEST PUSH1 0x0 PUSH2 0xD45 DUP3 PUSH1 0x1 ADD SLOAD PUSH2 0xD37 PUSH8 0xDE0B6B3A7640000 PUSH2 0xD29 DUP8 PUSH1 0x3 ADD SLOAD DUP8 PUSH1 0x0 ADD SLOAD PUSH2 0x1BF4 SWAP1 SWAP2 SWAP1 PUSH4 0xFFFFFFFF AND JUMP JUMPDEST PUSH2 0x1C0A SWAP1 SWAP2 SWAP1 PUSH4 0xFFFFFFFF AND JUMP JUMPDEST PUSH2 0x1C20 SWAP1 SWAP2 SWAP1 PUSH4 0xFFFFFFFF AND JUMP JUMPDEST SWAP1 POP PUSH1 0x0 DUP2 GT ISZERO PUSH2 0xDA9 JUMPI PUSH2 0xD5A DUP5 DUP3 PUSH2 0x1C36 JUMP JUMPDEST DUP4 PUSH20 0xFFFFFFFFFFFFFFFFFFFFFFFFFFFFFFFFFFFFFFFF AND PUSH32 0xE2403640BA68FED3A2F88B7557551D1993F84B99BB10FF833F0CF8DB0C5E0486 DUP3 PUSH1 0x40 MLOAD PUSH2 0xDA0 SWAP2 SWAP1 PUSH2 0x22C0 JUMP JUMPDEST PUSH1 0x40 MLOAD DUP1 SWAP2 SUB SWAP1 LOG2 JUMPDEST PUSH1 0x0 DUP6 GT ISZERO PUSH2 0xE21 JUMPI PUSH2 0xDC9 DUP6 DUP4 PUSH1 0x0 ADD SLOAD PUSH2 0x1C20 SWAP1 SWAP2 SWAP1 PUSH4 0xFFFFFFFF AND JUMP JUMPDEST DUP3 PUSH1 0x0 ADD DUP2 SWAP1 SSTORE POP PUSH2 0xE20 DUP5 DUP7 DUP6 PUSH1 0x0 ADD PUSH1 0x0 SWAP1 SLOAD SWAP1 PUSH2 0x100 EXP SWAP1 DIV PUSH20 0xFFFFFFFFFFFFFFFFFFFFFFFFFFFFFFFFFFFFFFFF AND PUSH20 0xFFFFFFFFFFFFFFFFFFFFFFFFFFFFFFFFFFFFFFFF AND PUSH2 0x1D8D SWAP1 SWAP3 SWAP2 SWAP1 PUSH4 0xFFFFFFFF AND JUMP JUMPDEST JUMPDEST PUSH2 0xE56 PUSH8 0xDE0B6B3A7640000 PUSH2 0xE48 DUP6 PUSH1 0x3 ADD SLOAD DUP6 PUSH1 0x0 ADD SLOAD PUSH2 0x1BF4 SWAP1 SWAP2 SWAP1 PUSH4 0xFFFFFFFF AND JUMP JUMPDEST PUSH2 0x1C0A SWAP1 SWAP2 SWAP1 PUSH4 0xFFFFFFFF AND JUMP JUMPDEST DUP3 PUSH1 0x1 ADD DUP2 SWAP1 SSTORE POP DUP6 DUP5 PUSH20 0xFFFFFFFFFFFFFFFFFFFFFFFFFFFFFFFFFFFFFFFF AND PUSH32 0xF279E6A1F5E320CCA91135676D9CB6E44CA8A08C0B88342BCDB1144F6511B568 DUP8 PUSH1 0x40 MLOAD PUSH2 0xEA5 SWAP2 SWAP1 PUSH2 0x22C0 JUMP JUMPDEST PUSH1 0x40 MLOAD DUP1 SWAP2 SUB SWAP1 LOG3 POP POP POP POP POP POP JUMP JUMPDEST PUSH1 0x0 PUSH1 0x3 DUP3 DUP2 SLOAD DUP2 LT PUSH2 0xECB JUMPI PUSH2 0xECA PUSH2 0x2735 JUMP JUMPDEST JUMPDEST SWAP1 PUSH1 0x0 MSTORE PUSH1 0x20 PUSH1 0x0 KECCAK256 SWAP1 PUSH1 0x5 MUL ADD SWAP1 POP DUP1 PUSH1 0x2 ADD SLOAD TIMESTAMP GT PUSH2 0xEEC JUMPI POP PUSH2 0x109F JUMP JUMPDEST PUSH1 0x0 DUP2 PUSH1 0x0 ADD PUSH1 0x0 SWAP1 SLOAD SWAP1 PUSH2 0x100 EXP SWAP1 DIV PUSH20 0xFFFFFFFFFFFFFFFFFFFFFFFFFFFFFFFFFFFFFFFF AND PUSH20 0xFFFFFFFFFFFFFFFFFFFFFFFFFFFFFFFFFFFFFFFF AND PUSH4 0x70A08231 ADDRESS PUSH1 0x40 MLOAD DUP3 PUSH4 0xFFFFFFFF AND PUSH1 0xE0 SHL DUP2 MSTORE PUSH1 0x4 ADD PUSH2 0xF4B SWAP2 SWAP1 PUSH2 0x24F4 JUMP JUMPDEST PUSH1 0x20 PUSH1 0x40 MLOAD DUP1 DUP4 SUB DUP2 DUP7 GAS STATICCALL ISZERO DUP1 ISZERO PUSH2 0xF68 JUMPI RETURNDATASIZE PUSH1 0x0 DUP1 RETURNDATACOPY RETURNDATASIZE PUSH1 0x0 REVERT JUMPDEST POP POP POP POP PUSH1 0x40 MLOAD RETURNDATASIZE PUSH1 0x1F NOT PUSH1 0x1F DUP3 ADD AND DUP3 ADD DUP1 PUSH1 0x40 MSTORE POP DUP2 ADD SWAP1 PUSH2 0xF8C SWAP2 SWAP1 PUSH2 0x2779 JUMP JUMPDEST SWAP1 POP PUSH1 0x0 DUP2 SUB PUSH2 0xFA6 JUMPI TIMESTAMP DUP3 PUSH1 0x2 ADD DUP2 SWAP1 SSTORE POP POP POP PUSH2 0x109F JUMP JUMPDEST DUP2 PUSH1 0x4 ADD PUSH1 0x2 SWAP1 SLOAD SWAP1 PUSH2 0x100 EXP SWAP1 DIV PUSH1 0xFF AND PUSH2 0xFF9 JUMPI PUSH1 0x1 DUP3 PUSH1 0x4 ADD PUSH1 0x2 PUSH2 0x100 EXP DUP2 SLOAD DUP2 PUSH1 0xFF MUL NOT AND SWAP1 DUP4 ISZERO ISZERO MUL OR SWAP1 SSTORE POP PUSH2 0xFF2 DUP3 PUSH1 0x1 ADD SLOAD PUSH1 0x5 SLOAD PUSH2 0x1BDE SWAP1 SWAP2 SWAP1 PUSH4 0xFFFFFFFF AND JUMP JUMPDEST PUSH1 0x5 DUP2 SWAP1 SSTORE POP JUMPDEST PUSH1 0x0 PUSH1 0x5 SLOAD GT ISZERO PUSH2 0x1093 JUMPI PUSH1 0x0 PUSH2 0x1014 DUP4 PUSH1 0x2 ADD SLOAD TIMESTAMP PUSH2 0x975 JUMP JUMPDEST SWAP1 POP PUSH1 0x0 PUSH2 0x1043 PUSH1 0x5 SLOAD PUSH2 0x1035 DUP7 PUSH1 0x1 ADD SLOAD DUP6 PUSH2 0x1BF4 SWAP1 SWAP2 SWAP1 PUSH4 0xFFFFFFFF AND JUMP JUMPDEST PUSH2 0x1C0A SWAP1 SWAP2 SWAP1 PUSH4 0xFFFFFFFF AND JUMP JUMPDEST SWAP1 POP PUSH2 0x1088 PUSH2 0x1075 DUP5 PUSH2 0x1067 PUSH8 0xDE0B6B3A7640000 DUP6 PUSH2 0x1BF4 SWAP1 SWAP2 SWAP1 PUSH4 0xFFFFFFFF AND JUMP JUMPDEST PUSH2 0x1C0A SWAP1 SWAP2 SWAP1 PUSH4 0xFFFFFFFF AND JUMP JUMPDEST DUP6 PUSH1 0x3 ADD SLOAD PUSH2 0x1BDE SWAP1 SWAP2 SWAP1 PUSH4 0xFFFFFFFF AND JUMP JUMPDEST DUP5 PUSH1 0x3 ADD DUP2 SWAP1 SSTORE POP POP POP JUMPDEST TIMESTAMP DUP3 PUSH1 0x2 ADD DUP2 SWAP1 SSTORE POP POP POP JUMPDEST POP JUMP JUMPDEST PUSH1 0x0 PUSH1 0x3 DUP3 DUP2 SLOAD DUP2 LT PUSH2 0x10B8 JUMPI PUSH2 0x10B7 PUSH2 0x2735 JUMP JUMPDEST JUMPDEST SWAP1 PUSH1 0x0 MSTORE PUSH1 0x20 PUSH1 0x0 KECCAK256 SWAP1 PUSH1 0x5 MUL ADD SWAP1 POP PUSH1 0x0 PUSH1 0x4 PUSH1 0x0 DUP5 DUP2 MSTORE PUSH1 0x20 ADD SWAP1 DUP2 MSTORE PUSH1 0x20 ADD PUSH1 0x0 KECCAK256 PUSH1 0x0 CALLER PUSH20 0xFFFFFFFFFFFFFFFFFFFFFFFFFFFFFFFFFFFFFFFF AND PUSH20 0xFFFFFFFFFFFFFFFFFFFFFFFFFFFFFFFFFFFFFFFF AND DUP2 MSTORE PUSH1 0x20 ADD SWAP1 DUP2 MSTORE PUSH1 0x20 ADD PUSH1 0x0 KECCAK256 SWAP1 POP PUSH1 0x0 DUP2 PUSH1 0x0 ADD SLOAD SWAP1 POP PUSH1 0x0 DUP3 PUSH1 0x0 ADD DUP2 SWAP1 SSTORE POP PUSH1 0x0 DUP3 PUSH1 0x1 ADD DUP2 SWAP1 SSTORE POP PUSH2 0x1188 CALLER DUP3 DUP6 PUSH1 0x0 ADD PUSH1 0x0 SWAP1 SLOAD SWAP1 PUSH2 0x100 EXP SWAP1 DIV PUSH20 0xFFFFFFFFFFFFFFFFFFFFFFFFFFFFFFFFFFFFFFFF AND PUSH20 0xFFFFFFFFFFFFFFFFFFFFFFFFFFFFFFFFFFFFFFFF AND PUSH2 0x1D8D SWAP1 SWAP3 SWAP2 SWAP1 PUSH4 0xFFFFFFFF AND JUMP JUMPDEST DUP4 CALLER PUSH20 0xFFFFFFFFFFFFFFFFFFFFFFFFFFFFFFFFFFFFFFFF AND PUSH32 0xBB757047C2B5F3974FE26B7C10F732E7BCE710B0952A71082702781E62AE0595 DUP4 PUSH1 0x40 MLOAD PUSH2 0x11CF SWAP2 SWAP1 PUSH2 0x22C0 JUMP JUMPDEST PUSH1 0x40 MLOAD DUP1 SWAP2 SUB SWAP1 LOG3 POP POP POP POP JUMP JUMPDEST CALLER PUSH20 0xFFFFFFFFFFFFFFFFFFFFFFFFFFFFFFFFFFFFFFFF AND PUSH1 0x0 DUP1 SLOAD SWAP1 PUSH2 0x100 EXP SWAP1 DIV PUSH20 0xFFFFFFFFFFFFFFFFFFFFFFFFFFFFFFFFFFFFFFFF AND PUSH20 0xFFFFFFFFFFFFFFFFFFFFFFFFFFFFFFFFFFFFFFFF AND EQ PUSH2 0x126B JUMPI PUSH1 0x40 MLOAD PUSH32 0x8C379A000000000000000000000000000000000000000000000000000000000 DUP2 MSTORE PUSH1 0x4 ADD PUSH2 0x1262 SWAP1 PUSH2 0x2683 JUMP JUMPDEST PUSH1 0x40 MLOAD DUP1 SWAP2 SUB SWAP1 REVERT JUMPDEST PUSH3 0x76A700 PUSH1 0x7 SLOAD PUSH2 0x127C SWAP2 SWAP1 PUSH2 0x28D3 JUMP JUMPDEST TIMESTAMP LT ISZERO PUSH2 0x13F5 JUMPI PUSH1 0x1 PUSH1 0x0 SWAP1 SLOAD SWAP1 PUSH2 0x100 EXP SWAP1 DIV PUSH20 0xFFFFFFFFFFFFFFFFFFFFFFFFFFFFFFFFFFFFFFFF AND PUSH20 0xFFFFFFFFFFFFFFFFFFFFFFFFFFFFFFFFFFFFFFFF AND DUP4 PUSH20 0xFFFFFFFFFFFFFFFFFFFFFFFFFFFFFFFFFFFFFFFF AND SUB PUSH2 0x1313 JUMPI PUSH1 0x40 MLOAD PUSH32 0x8C379A000000000000000000000000000000000000000000000000000000000 DUP2 MSTORE PUSH1 0x4 ADD PUSH2 0x130A SWAP1 PUSH2 0x2953 JUMP JUMPDEST PUSH1 0x40 MLOAD DUP1 SWAP2 SUB SWAP1 REVERT JUMPDEST PUSH1 0x0 PUSH1 0x3 DUP1 SLOAD SWAP1 POP SWAP1 POP PUSH1 0x0 JUMPDEST DUP2 DUP2 LT ISZERO PUSH2 0x13F2 JUMPI PUSH1 0x0 PUSH1 0x3 DUP3 DUP2 SLOAD DUP2 LT PUSH2 0x133E JUMPI PUSH2 0x133D PUSH2 0x2735 JUMP JUMPDEST JUMPDEST SWAP1 PUSH1 0x0 MSTORE PUSH1 0x20 PUSH1 0x0 KECCAK256 SWAP1 PUSH1 0x5 MUL ADD SWAP1 POP DUP1 PUSH1 0x0 ADD PUSH1 0x0 SWAP1 SLOAD SWAP1 PUSH2 0x100 EXP SWAP1 DIV PUSH20 0xFFFFFFFFFFFFFFFFFFFFFFFFFFFFFFFFFFFFFFFF AND PUSH20 0xFFFFFFFFFFFFFFFFFFFFFFFFFFFFFFFFFFFFFFFF AND DUP7 PUSH20 0xFFFFFFFFFFFFFFFFFFFFFFFFFFFFFFFFFFFFFFFF AND SUB PUSH2 0x13E0 JUMPI PUSH1 0x40 MLOAD PUSH32 0x8C379A000000000000000000000000000000000000000000000000000000000 DUP2 MSTORE PUSH1 0x4 ADD PUSH2 0x13D7 SWAP1 PUSH2 0x29BF JUMP JUMPDEST PUSH1 0x40 MLOAD DUP1 SWAP2 SUB SWAP1 REVERT JUMPDEST POP DUP1 PUSH2 0x13EB SWAP1 PUSH2 0x29DF JUMP JUMPDEST SWAP1 POP PUSH2 0x1320 JUMP JUMPDEST POP POP JUMPDEST PUSH2 0x1420 DUP2 DUP4 DUP6 PUSH20 0xFFFFFFFFFFFFFFFFFFFFFFFFFFFFFFFFFFFFFFFF AND PUSH2 0x1D8D SWAP1 SWAP3 SWAP2 SWAP1 PUSH4 0xFFFFFFFF AND JUMP JUMPDEST POP POP POP JUMP JUMPDEST PUSH1 0x0 DUP1 SLOAD SWAP1 PUSH2 0x100 EXP SWAP1 DIV PUSH20 0xFFFFFFFFFFFFFFFFFFFFFFFFFFFFFFFFFFFFFFFF AND DUP2 JUMP JUMPDEST PUSH1 0x6 SLOAD DUP2 JUMP JUMPDEST PUSH1 0x0 PUSH1 0x3 DUP1 SLOAD SWAP1 POP SWAP1 POP PUSH1 0x0 JUMPDEST DUP2 DUP2 LT ISZERO PUSH2 0x147E JUMPI PUSH2 0x146D DUP2 PUSH2 0xEB5 JUMP JUMPDEST DUP1 PUSH2 0x1477 SWAP1 PUSH2 0x29DF JUMP JUMPDEST SWAP1 POP PUSH2 0x145C JUMP JUMPDEST POP POP JUMP JUMPDEST PUSH1 0x7 SLOAD DUP2 JUMP JUMPDEST PUSH1 0x4 PUSH1 0x20 MSTORE DUP2 PUSH1 0x0 MSTORE PUSH1 0x40 PUSH1 0x0 KECCAK256 PUSH1 0x20 MSTORE DUP1 PUSH1 0x0 MSTORE PUSH1 0x40 PUSH1 0x0 KECCAK256 PUSH1 0x0 SWAP2 POP SWAP2 POP POP DUP1 PUSH1 0x0 ADD SLOAD SWAP1 DUP1 PUSH1 0x1 ADD SLOAD SWAP1 POP DUP3 JUMP JUMPDEST PUSH1 0x9 SLOAD DUP2 JUMP JUMPDEST CALLER PUSH20 0xFFFFFFFFFFFFFFFFFFFFFFFFFFFFFFFFFFFFFFFF AND PUSH1 0x0 DUP1 SLOAD SWAP1 PUSH2 0x100 EXP SWAP1 DIV PUSH20 0xFFFFFFFFFFFFFFFFFFFFFFFFFFFFFFFFFFFFFFFF AND PUSH20 0xFFFFFFFFFFFFFFFFFFFFFFFFFFFFFFFFFFFFFFFF AND EQ PUSH2 0x154D JUMPI PUSH1 0x40 MLOAD PUSH32 0x8C379A000000000000000000000000000000000000000000000000000000000 DUP2 MSTORE PUSH1 0x4 ADD PUSH2 0x1544 SWAP1 PUSH2 0x2683 JUMP JUMPDEST PUSH1 0x40 MLOAD DUP1 SWAP2 SUB SWAP1 REVERT JUMPDEST DUP1 PUSH1 0x0 DUP1 PUSH2 0x100 EXP DUP2 SLOAD DUP2 PUSH20 0xFFFFFFFFFFFFFFFFFFFFFFFFFFFFFFFFFFFFFFFF MUL NOT AND SWAP1 DUP4 PUSH20 0xFFFFFFFFFFFFFFFFFFFFFFFFFFFFFFFFFFFFFFFF AND MUL OR SWAP1 SSTORE POP POP JUMP JUMPDEST PUSH1 0x1 PUSH1 0x0 SWAP1 SLOAD SWAP1 PUSH2 0x100 EXP SWAP1 DIV PUSH20 0xFFFFFFFFFFFFFFFFFFFFFFFFFFFFFFFFFFFFFFFF AND DUP2 JUMP JUMPDEST PUSH1 0x8 SLOAD DUP2 JUMP JUMPDEST PUSH1 0x0 CALLER SWAP1 POP PUSH1 0x0 PUSH1 0x3 DUP5 DUP2 SLOAD DUP2 LT PUSH2 0x15D7 JUMPI PUSH2 0x15D6 PUSH2 0x2735 JUMP JUMPDEST JUMPDEST SWAP1 PUSH1 0x0 MSTORE PUSH1 0x20 PUSH1 0x0 KECCAK256 SWAP1 PUSH1 0x5 MUL ADD SWAP1 POP PUSH1 0x0 PUSH1 0x4 PUSH1 0x0 DUP7 DUP2 MSTORE PUSH1 0x20 ADD SWAP1 DUP2 MSTORE PUSH1 0x20 ADD PUSH1 0x0 KECCAK256 PUSH1 0x0 DUP5 PUSH20 0xFFFFFFFFFFFFFFFFFFFFFFFFFFFFFFFFFFFFFFFF AND PUSH20 0xFFFFFFFFFFFFFFFFFFFFFFFFFFFFFFFFFFFFFFFF AND DUP2 MSTORE PUSH1 0x20 ADD SWAP1 DUP2 MSTORE PUSH1 0x20 ADD PUSH1 0x0 KECCAK256 SWAP1 POP PUSH2 0x1644 DUP6 PUSH2 0xEB5 JUMP JUMPDEST PUSH1 0x0 DUP2 PUSH1 0x0 ADD SLOAD GT ISZERO PUSH2 0x1749 JUMPI PUSH1 0x0 PUSH2 0x169E DUP3 PUSH1 0x1 ADD SLOAD PUSH2 0x1690 PUSH8 0xDE0B6B3A7640000 PUSH2 0x1682 DUP8 PUSH1 0x3 ADD SLOAD DUP8 PUSH1 0x0 ADD SLOAD PUSH2 0x1BF4 SWAP1 SWAP2 SWAP1 PUSH4 0xFFFFFFFF AND JUMP JUMPDEST PUSH2 0x1C0A SWAP1 SWAP2 SWAP1 PUSH4 0xFFFFFFFF AND JUMP JUMPDEST PUSH2 0x1C20 SWAP1 SWAP2 SWAP1 PUSH4 0xFFFFFFFF AND JUMP JUMPDEST SWAP1 POP PUSH1 0x0 DUP2 GT ISZERO PUSH2 0x1747 JUMPI PUSH2 0x16F8 DUP5 DUP3 DUP6 PUSH1 0x0 ADD PUSH1 0x0 SWAP1 SLOAD SWAP1 PUSH2 0x100 EXP SWAP1 DIV PUSH20 0xFFFFFFFFFFFFFFFFFFFFFFFFFFFFFFFFFFFFFFFF AND PUSH20 0xFFFFFFFFFFFFFFFFFFFFFFFFFFFFFFFFFFFFFFFF AND PUSH2 0x1D8D SWAP1 SWAP3 SWAP2 SWAP1 PUSH4 0xFFFFFFFF AND JUMP JUMPDEST DUP4 PUSH20 0xFFFFFFFFFFFFFFFFFFFFFFFFFFFFFFFFFFFFFFFF AND PUSH32 0xE2403640BA68FED3A2F88B7557551D1993F84B99BB10FF833F0CF8DB0C5E0486 DUP3 PUSH1 0x40 MLOAD PUSH2 0x173E SWAP2 SWAP1 PUSH2 0x22C0 JUMP JUMPDEST PUSH1 0x40 MLOAD DUP1 SWAP2 SUB SWAP1 LOG2 JUMPDEST POP JUMPDEST PUSH1 0x0 DUP5 GT ISZERO PUSH2 0x1958 JUMPI PUSH2 0x17A3 DUP4 ADDRESS DUP7 DUP6 PUSH1 0x0 ADD PUSH1 0x0 SWAP1 SLOAD SWAP1 PUSH2 0x100 EXP SWAP1 DIV PUSH20 0xFFFFFFFFFFFFFFFFFFFFFFFFFFFFFFFFFFFFFFFF AND PUSH20 0xFFFFFFFFFFFFFFFFFFFFFFFFFFFFFFFFFFFFFFFF AND PUSH2 0x1E13 SWAP1 SWAP4 SWAP3 SWAP2 SWAP1 PUSH4 0xFFFFFFFF AND JUMP JUMPDEST PUSH1 0x0 DUP3 PUSH1 0x4 ADD PUSH1 0x0 SWAP1 SLOAD SWAP1 PUSH2 0x100 EXP SWAP1 DIV PUSH2 0xFFFF AND PUSH2 0xFFFF AND GT ISZERO PUSH2 0x18AB JUMPI PUSH1 0x0 PUSH2 0x1801 PUSH2 0x2710 PUSH2 0x17F3 DUP6 PUSH1 0x4 ADD PUSH1 0x0 SWAP1 SLOAD SWAP1 PUSH2 0x100 EXP SWAP1 DIV PUSH2 0xFFFF AND PUSH2 0xFFFF AND DUP9 PUSH2 0x1BF4 SWAP1 SWAP2 SWAP1 PUSH4 0xFFFFFFFF AND JUMP JUMPDEST PUSH2 0x1C0A SWAP1 SWAP2 SWAP1 PUSH4 0xFFFFFFFF AND JUMP JUMPDEST SWAP1 POP PUSH2 0x1874 PUSH1 0x2 PUSH1 0x0 SWAP1 SLOAD SWAP1 PUSH2 0x100 EXP SWAP1 DIV PUSH20 0xFFFFFFFFFFFFFFFFFFFFFFFFFFFFFFFFFFFFFFFF AND DUP3 DUP6 PUSH1 0x0 ADD PUSH1 0x0 SWAP1 SLOAD SWAP1 PUSH2 0x100 EXP SWAP1 DIV PUSH20 0xFFFFFFFFFFFFFFFFFFFFFFFFFFFFFFFFFFFFFFFF AND PUSH20 0xFFFFFFFFFFFFFFFFFFFFFFFFFFFFFFFFFFFFFFFF AND PUSH2 0x1D8D SWAP1 SWAP3 SWAP2 SWAP1 PUSH4 0xFFFFFFFF AND JUMP JUMPDEST PUSH2 0x189D DUP2 PUSH2 0x188F DUP8 DUP6 PUSH1 0x0 ADD SLOAD PUSH2 0x1BDE SWAP1 SWAP2 SWAP1 PUSH4 0xFFFFFFFF AND JUMP JUMPDEST PUSH2 0x1C20 SWAP1 SWAP2 SWAP1 PUSH4 0xFFFFFFFF AND JUMP JUMPDEST DUP3 PUSH1 0x0 ADD DUP2 SWAP1 SSTORE POP POP PUSH2 0x18CB JUMP JUMPDEST PUSH2 0x18C2 DUP5 DUP3 PUSH1 0x0 ADD SLOAD PUSH2 0x1BDE SWAP1 SWAP2 SWAP1 PUSH4 0xFFFFFFFF AND JUMP JUMPDEST DUP2 PUSH1 0x0 ADD DUP2 SWAP1 SSTORE POP JUMPDEST PUSH2 0x1900 PUSH8 0xDE0B6B3A7640000 PUSH2 0x18F2 DUP5 PUSH1 0x3 ADD SLOAD DUP5 PUSH1 0x0 ADD SLOAD PUSH2 0x1BF4 SWAP1 SWAP2 SWAP1 PUSH4 0xFFFFFFFF AND JUMP JUMPDEST PUSH2 0x1C0A SWAP1 SWAP2 SWAP1 PUSH4 0xFFFFFFFF AND JUMP JUMPDEST DUP2 PUSH1 0x1 ADD DUP2 SWAP1 SSTORE POP DUP5 DUP4 PUSH20 0xFFFFFFFFFFFFFFFFFFFFFFFFFFFFFFFFFFFFFFFF AND PUSH32 0x90890809C654F11D6E72A28FA60149770A0D11EC6C92319D6CEB2BB0A4EA1A15 DUP7 PUSH1 0x40 MLOAD PUSH2 0x194F SWAP2 SWAP1 PUSH2 0x22C0 JUMP JUMPDEST PUSH1 0x40 MLOAD DUP1 SWAP2 SUB SWAP1 LOG3 JUMPDEST POP POP POP POP POP JUMP JUMPDEST CALLER PUSH20 0xFFFFFFFFFFFFFFFFFFFFFFFFFFFFFFFFFFFFFFFF AND PUSH1 0x0 DUP1 SLOAD SWAP1 PUSH2 0x100 EXP SWAP1 DIV PUSH20 0xFFFFFFFFFFFFFFFFFFFFFFFFFFFFFFFFFFFFFFFF AND PUSH20 0xFFFFFFFFFFFFFFFFFFFFFFFFFFFFFFFFFFFFFFFF AND EQ PUSH2 0x19ED JUMPI PUSH1 0x40 MLOAD PUSH32 0x8C379A000000000000000000000000000000000000000000000000000000000 DUP2 MSTORE PUSH1 0x4 ADD PUSH2 0x19E4 SWAP1 PUSH2 0x2683 JUMP JUMPDEST PUSH1 0x40 MLOAD DUP1 SWAP2 SUB SWAP1 REVERT JUMPDEST PUSH1 0x0 DUP2 PUSH2 0xFFFF AND GT ISZERO PUSH2 0x1A35 JUMPI PUSH1 0x40 MLOAD PUSH32 0x8C379A000000000000000000000000000000000000000000000000000000000 DUP2 MSTORE PUSH1 0x4 ADD PUSH2 0x1A2C SWAP1 PUSH2 0x2A99 JUMP JUMPDEST PUSH1 0x40 MLOAD DUP1 SWAP2 SUB SWAP1 REVERT JUMPDEST PUSH1 0x0 JUMPDEST PUSH1 0x3 DUP1 SLOAD SWAP1 POP DUP2 LT ISZERO PUSH2 0x1AFC JUMPI DUP1 PUSH32 0x39F0C3D078AF018954B4FA56832A05A2B511AFAA999B133EA3F1C487C21ED287 PUSH1 0x3 DUP4 DUP2 SLOAD DUP2 LT PUSH2 0x1A7B JUMPI PUSH2 0x1A7A PUSH2 0x2735 JUMP JUMPDEST JUMPDEST SWAP1 PUSH1 0x0 MSTORE PUSH1 0x20 PUSH1 0x0 KECCAK256 SWAP1 PUSH1 0x5 MUL ADD PUSH1 0x0 ADD PUSH1 0x0 SWAP1 SLOAD SWAP1 PUSH2 0x100 EXP SWAP1 DIV PUSH20 0xFFFFFFFFFFFFFFFFFFFFFFFFFFFFFFFFFFFFFFFF AND PUSH1 0x3 DUP5 DUP2 SLOAD DUP2 LT PUSH2 0x1AC1 JUMPI PUSH2 0x1AC0 PUSH2 0x2735 JUMP JUMPDEST JUMPDEST SWAP1 PUSH1 0x0 MSTORE PUSH1 0x20 PUSH1 0x0 KECCAK256 SWAP1 PUSH1 0x5 MUL ADD PUSH1 0x1 ADD SLOAD DUP6 PUSH1 0x40 MLOAD PUSH2 0x1AE3 SWAP4 SWAP3 SWAP2 SWAP1 PUSH2 0x2AEA JUMP JUMPDEST PUSH1 0x40 MLOAD DUP1 SWAP2 SUB SWAP1 LOG2 DUP1 PUSH2 0x1AF5 SWAP1 PUSH2 0x29DF JUMP JUMPDEST SWAP1 POP PUSH2 0x1A38 JUMP JUMPDEST POP POP JUMP JUMPDEST PUSH1 0x0 PUSH1 0x3 DUP1 SLOAD SWAP1 POP SWAP1 POP PUSH1 0x0 JUMPDEST DUP2 DUP2 LT ISZERO PUSH2 0x1BD9 JUMPI DUP3 PUSH20 0xFFFFFFFFFFFFFFFFFFFFFFFFFFFFFFFFFFFFFFFF AND PUSH1 0x3 DUP3 DUP2 SLOAD DUP2 LT PUSH2 0x1B40 JUMPI PUSH2 0x1B3F PUSH2 0x2735 JUMP JUMPDEST JUMPDEST SWAP1 PUSH1 0x0 MSTORE PUSH1 0x20 PUSH1 0x0 KECCAK256 SWAP1 PUSH1 0x5 MUL ADD PUSH1 0x0 ADD PUSH1 0x0 SWAP1 SLOAD SWAP1 PUSH2 0x100 EXP SWAP1 DIV PUSH20 0xFFFFFFFFFFFFFFFFFFFFFFFFFFFFFFFFFFFFFFFF AND PUSH20 0xFFFFFFFFFFFFFFFFFFFFFFFFFFFFFFFFFFFFFFFF AND SUB PUSH2 0x1BC8 JUMPI PUSH1 0x40 MLOAD PUSH32 0x8C379A000000000000000000000000000000000000000000000000000000000 DUP2 MSTORE PUSH1 0x4 ADD PUSH2 0x1BBF SWAP1 PUSH2 0x2B6D JUMP JUMPDEST PUSH1 0x40 MLOAD DUP1 SWAP2 SUB SWAP1 REVERT JUMPDEST DUP1 PUSH2 0x1BD2 SWAP1 PUSH2 0x29DF JUMP JUMPDEST SWAP1 POP PUSH2 0x1B0D JUMP JUMPDEST POP POP POP JUMP JUMPDEST PUSH1 0x0 DUP2 DUP4 PUSH2 0x1BEC SWAP2 SWAP1 PUSH2 0x28D3 JUMP JUMPDEST SWAP1 POP SWAP3 SWAP2 POP POP JUMP JUMPDEST PUSH1 0x0 DUP2 DUP4 PUSH2 0x1C02 SWAP2 SWAP1 PUSH2 0x2B8D JUMP JUMPDEST SWAP1 POP SWAP3 SWAP2 POP POP JUMP JUMPDEST PUSH1 0x0 DUP2 DUP4 PUSH2 0x1C18 SWAP2 SWAP1 PUSH2 0x2C16 JUMP JUMPDEST SWAP1 POP SWAP3 SWAP2 POP POP JUMP JUMPDEST PUSH1 0x0 DUP2 DUP4 PUSH2 0x1C2E SWAP2 SWAP1 PUSH2 0x2C47 JUMP JUMPDEST SWAP1 POP SWAP3 SWAP2 POP POP JUMP JUMPDEST PUSH1 0x0 PUSH1 0x1 PUSH1 0x0 SWAP1 SLOAD SWAP1 PUSH2 0x100 EXP SWAP1 DIV PUSH20 0xFFFFFFFFFFFFFFFFFFFFFFFFFFFFFFFFFFFFFFFF AND PUSH20 0xFFFFFFFFFFFFFFFFFFFFFFFFFFFFFFFFFFFFFFFF AND PUSH4 0x70A08231 ADDRESS PUSH1 0x40 MLOAD DUP3 PUSH4 0xFFFFFFFF AND PUSH1 0xE0 SHL DUP2 MSTORE PUSH1 0x4 ADD PUSH2 0x1C93 SWAP2 SWAP1 PUSH2 0x24F4 JUMP JUMPDEST PUSH1 0x20 PUSH1 0x40 MLOAD DUP1 DUP4 SUB DUP2 DUP7 GAS STATICCALL ISZERO DUP1 ISZERO PUSH2 0x1CB0 JUMPI RETURNDATASIZE PUSH1 0x0 DUP1 RETURNDATACOPY RETURNDATASIZE PUSH1 0x0 REVERT JUMPDEST POP POP POP POP PUSH1 0x40 MLOAD RETURNDATASIZE PUSH1 0x1F NOT PUSH1 0x1F DUP3 ADD AND DUP3 ADD DUP1 PUSH1 0x40 MSTORE POP DUP2 ADD SWAP1 PUSH2 0x1CD4 SWAP2 SWAP1 PUSH2 0x2779 JUMP JUMPDEST SWAP1 POP PUSH1 0x0 DUP2 GT ISZERO PUSH2 0x1D88 JUMPI DUP1 DUP3 GT ISZERO PUSH2 0x1D39 JUMPI PUSH2 0x1D34 DUP4 DUP3 PUSH1 0x1 PUSH1 0x0 SWAP1 SLOAD SWAP1 PUSH2 0x100 EXP SWAP1 DIV PUSH20 0xFFFFFFFFFFFFFFFFFFFFFFFFFFFFFFFFFFFFFFFF AND PUSH20 0xFFFFFFFFFFFFFFFFFFFFFFFFFFFFFFFFFFFFFFFF AND PUSH2 0x1D8D SWAP1 SWAP3 SWAP2 SWAP1 PUSH4 0xFFFFFFFF AND JUMP JUMPDEST PUSH2 0x1D87 JUMP JUMPDEST PUSH2 0x1D86 DUP4 DUP4 PUSH1 0x1 PUSH1 0x0 SWAP1 SLOAD SWAP1 PUSH2 0x100 EXP SWAP1 DIV PUSH20 0xFFFFFFFFFFFFFFFFFFFFFFFFFFFFFFFFFFFFFFFF AND PUSH20 0xFFFFFFFFFFFFFFFFFFFFFFFFFFFFFFFFFFFFFFFF AND PUSH2 0x1D8D SWAP1 SWAP3 SWAP2 SWAP1 PUSH4 0xFFFFFFFF AND JUMP JUMPDEST JUMPDEST JUMPDEST POP POP POP JUMP JUMPDEST PUSH2 0x1E0E DUP4 PUSH4 0xA9059CBB PUSH1 0xE0 SHL DUP5 DUP5 PUSH1 0x40 MLOAD PUSH1 0x24 ADD PUSH2 0x1DAC SWAP3 SWAP2 SWAP1 PUSH2 0x2C7B JUMP JUMPDEST PUSH1 0x40 MLOAD PUSH1 0x20 DUP2 DUP4 SUB SUB DUP2 MSTORE SWAP1 PUSH1 0x40 MSTORE SWAP1 PUSH28 0xFFFFFFFFFFFFFFFFFFFFFFFFFFFFFFFFFFFFFFFFFFFFFFFFFFFFFFFF NOT AND PUSH1 0x20 DUP3 ADD DUP1 MLOAD PUSH28 0xFFFFFFFFFFFFFFFFFFFFFFFFFFFFFFFFFFFFFFFFFFFFFFFFFFFFFFFF DUP4 DUP2 DUP4 AND OR DUP4 MSTORE POP POP POP POP PUSH2 0x1E9C JUMP JUMPDEST POP POP POP JUMP JUMPDEST PUSH2 0x1E96 DUP5 PUSH4 0x23B872DD PUSH1 0xE0 SHL DUP6 DUP6 DUP6 PUSH1 0x40 MLOAD PUSH1 0x24 ADD PUSH2 0x1E34 SWAP4 SWAP3 SWAP2 SWAP1 PUSH2 0x2CA4 JUMP JUMPDEST PUSH1 0x40 MLOAD PUSH1 0x20 DUP2 DUP4 SUB SUB DUP2 MSTORE SWAP1 PUSH1 0x40 MSTORE SWAP1 PUSH28 0xFFFFFFFFFFFFFFFFFFFFFFFFFFFFFFFFFFFFFFFFFFFFFFFFFFFFFFFF NOT AND PUSH1 0x20 DUP3 ADD DUP1 MLOAD PUSH28 0xFFFFFFFFFFFFFFFFFFFFFFFFFFFFFFFFFFFFFFFFFFFFFFFFFFFFFFFF DUP4 DUP2 DUP4 AND OR DUP4 MSTORE POP POP POP POP PUSH2 0x1E9C JUMP JUMPDEST POP POP POP POP JUMP JUMPDEST PUSH1 0x0 PUSH2 0x1EFE DUP3 PUSH1 0x40 MLOAD DUP1 PUSH1 0x40 ADD PUSH1 0x40 MSTORE DUP1 PUSH1 0x20 DUP2 MSTORE PUSH1 0x20 ADD PUSH32 0x5361666545524332303A206C6F772D6C6576656C2063616C6C206661696C6564 DUP2 MSTORE POP DUP6 PUSH20 0xFFFFFFFFFFFFFFFFFFFFFFFFFFFFFFFFFFFFFFFF AND PUSH2 0x1F63 SWAP1 SWAP3 SWAP2 SWAP1 PUSH4 0xFFFFFFFF AND JUMP JUMPDEST SWAP1 POP PUSH1 0x0 DUP2 MLOAD GT ISZERO PUSH2 0x1F5E JUMPI DUP1 DUP1 PUSH1 0x20 ADD SWAP1 MLOAD DUP2 ADD SWAP1 PUSH2 0x1F1E SWAP2 SWAP1 PUSH2 0x2CF0 JUMP JUMPDEST PUSH2 0x1F5D JUMPI PUSH1 0x40 MLOAD PUSH32 0x8C379A000000000000000000000000000000000000000000000000000000000 DUP2 MSTORE PUSH1 0x4 ADD PUSH2 0x1F54 SWAP1 PUSH2 0x2D8F JUMP JUMPDEST PUSH1 0x40 MLOAD DUP1 SWAP2 SUB SWAP1 REVERT JUMPDEST JUMPDEST POP POP POP JUMP JUMPDEST PUSH1 0x60 PUSH2 0x1F72 DUP5 DUP5 PUSH1 0x0 DUP6 PUSH2 0x1F7B JUMP JUMPDEST SWAP1 POP SWAP4 SWAP3 POP POP POP JUMP JUMPDEST PUSH1 0x60 DUP3 SELFBALANCE LT ISZERO PUSH2 0x1FC0 JUMPI PUSH1 0x40 MLOAD PUSH32 0x8C379A000000000000000000000000000000000000000000000000000000000 DUP2 MSTORE PUSH1 0x4 ADD PUSH2 0x1FB7 SWAP1 PUSH2 0x2E21 JUMP JUMPDEST PUSH1 0x40 MLOAD DUP1 SWAP2 SUB SWAP1 REVERT JUMPDEST PUSH2 0x1FC9 DUP6 PUSH2 0x208F JUMP JUMPDEST PUSH2 0x2008 JUMPI PUSH1 0x40 MLOAD PUSH32 0x8C379A000000000000000000000000000000000000000000000000000000000 DUP2 MSTORE PUSH1 0x4 ADD PUSH2 0x1FFF SWAP1 PUSH2 0x2E8D JUMP JUMPDEST PUSH1 0x40 MLOAD DUP1 SWAP2 SUB SWAP1 REVERT JUMPDEST PUSH1 0x0 DUP1 DUP7 PUSH20 0xFFFFFFFFFFFFFFFFFFFFFFFFFFFFFFFFFFFFFFFF AND DUP6 DUP8 PUSH1 0x40 MLOAD PUSH2 0x2031 SWAP2 SWAP1 PUSH2 0x2F1E JUMP JUMPDEST PUSH1 0x0 PUSH1 0x40 MLOAD DUP1 DUP4 SUB DUP2 DUP6 DUP8 GAS CALL SWAP3 POP POP POP RETURNDATASIZE DUP1 PUSH1 0x0 DUP2 EQ PUSH2 0x206E JUMPI PUSH1 0x40 MLOAD SWAP2 POP PUSH1 0x1F NOT PUSH1 0x3F RETURNDATASIZE ADD AND DUP3 ADD PUSH1 0x40 MSTORE RETURNDATASIZE DUP3 MSTORE RETURNDATASIZE PUSH1 0x0 PUSH1 0x20 DUP5 ADD RETURNDATACOPY PUSH2 0x2073 JUMP JUMPDEST PUSH1 0x60 SWAP2 POP JUMPDEST POP SWAP2 POP SWAP2 POP PUSH2 0x2083 DUP3 DUP3 DUP7 PUSH2 0x20B2 JUMP JUMPDEST SWAP3 POP POP POP SWAP5 SWAP4 POP POP POP POP JUMP JUMPDEST PUSH1 0x0 DUP1 DUP3 PUSH20 0xFFFFFFFFFFFFFFFFFFFFFFFFFFFFFFFFFFFFFFFF AND EXTCODESIZE GT SWAP1 POP SWAP2 SWAP1 POP JUMP JUMPDEST PUSH1 0x60 DUP4 ISZERO PUSH2 0x20C2 JUMPI DUP3 SWAP1 POP PUSH2 0x2112 JUMP JUMPDEST PUSH1 0x0 DUP4 MLOAD GT ISZERO PUSH2 0x20D5 JUMPI DUP3 MLOAD DUP1 DUP5 PUSH1 0x20 ADD REVERT JUMPDEST DUP2 PUSH1 0x40 MLOAD PUSH32 0x8C379A000000000000000000000000000000000000000000000000000000000 DUP2 MSTORE PUSH1 0x4 ADD PUSH2 0x2109 SWAP2 SWAP1 PUSH2 0x2F8A JUMP JUMPDEST PUSH1 0x40 MLOAD DUP1 SWAP2 SUB SWAP1 REVERT JUMPDEST SWAP4 SWAP3 POP POP POP JUMP JUMPDEST PUSH1 0x0 DUP1 REVERT JUMPDEST PUSH1 0x0 DUP2 SWAP1 POP SWAP2 SWAP1 POP JUMP JUMPDEST PUSH2 0x2131 DUP2 PUSH2 0x211E JUMP JUMPDEST DUP2 EQ PUSH2 0x213C JUMPI PUSH1 0x0 DUP1 REVERT JUMPDEST POP JUMP JUMPDEST PUSH1 0x0 DUP2 CALLDATALOAD SWAP1 POP PUSH2 0x214E DUP2 PUSH2 0x2128 JUMP JUMPDEST SWAP3 SWAP2 POP POP JUMP JUMPDEST PUSH1 0x0 PUSH20 0xFFFFFFFFFFFFFFFFFFFFFFFFFFFFFFFFFFFFFFFF DUP3 AND SWAP1 POP SWAP2 SWAP1 POP JUMP JUMPDEST PUSH1 0x0 PUSH2 0x217F DUP3 PUSH2 0x2154 JUMP JUMPDEST SWAP1 POP SWAP2 SWAP1 POP JUMP JUMPDEST PUSH1 0x0 PUSH2 0x2191 DUP3 PUSH2 0x2174 JUMP JUMPDEST SWAP1 POP SWAP2 SWAP1 POP JUMP JUMPDEST PUSH2 0x21A1 DUP2 PUSH2 0x2186 JUMP JUMPDEST DUP2 EQ PUSH2 0x21AC JUMPI PUSH1 0x0 DUP1 REVERT JUMPDEST POP JUMP JUMPDEST PUSH1 0x0 DUP2 CALLDATALOAD SWAP1 POP PUSH2 0x21BE DUP2 PUSH2 0x2198 JUMP JUMPDEST SWAP3 SWAP2 POP POP JUMP JUMPDEST PUSH1 0x0 DUP2 ISZERO ISZERO SWAP1 POP SWAP2 SWAP1 POP JUMP JUMPDEST PUSH2 0x21D9 DUP2 PUSH2 0x21C4 JUMP JUMPDEST DUP2 EQ PUSH2 0x21E4 JUMPI PUSH1 0x0 DUP1 REVERT JUMPDEST POP JUMP JUMPDEST PUSH1 0x0 DUP2 CALLDATALOAD SWAP1 POP PUSH2 0x21F6 DUP2 PUSH2 0x21D0 JUMP JUMPDEST SWAP3 SWAP2 POP POP JUMP JUMPDEST PUSH1 0x0 PUSH2 0xFFFF DUP3 AND SWAP1 POP SWAP2 SWAP1 POP JUMP JUMPDEST PUSH2 0x2213 DUP2 PUSH2 0x21FC JUMP JUMPDEST DUP2 EQ PUSH2 0x221E JUMPI PUSH1 0x0 DUP1 REVERT JUMPDEST POP JUMP JUMPDEST PUSH1 0x0 DUP2 CALLDATALOAD SWAP1 POP PUSH2 0x2230 DUP2 PUSH2 0x220A JUMP JUMPDEST SWAP3 SWAP2 POP POP JUMP JUMPDEST PUSH1 0x0 DUP1 PUSH1 0x0 DUP1 PUSH1 0x0 PUSH1 0xA0 DUP7 DUP9 SUB SLT ISZERO PUSH2 0x2252 JUMPI PUSH2 0x2251 PUSH2 0x2119 JUMP JUMPDEST JUMPDEST PUSH1 0x0 PUSH2 0x2260 DUP9 DUP3 DUP10 ADD PUSH2 0x213F JUMP JUMPDEST SWAP6 POP POP PUSH1 0x20 PUSH2 0x2271 DUP9 DUP3 DUP10 ADD PUSH2 0x21AF JUMP JUMPDEST SWAP5 POP POP PUSH1 0x40 PUSH2 0x2282 DUP9 DUP3 DUP10 ADD PUSH2 0x21E7 JUMP JUMPDEST SWAP4 POP POP PUSH1 0x60 PUSH2 0x2293 DUP9 DUP3 DUP10 ADD PUSH2 0x2221 JUMP JUMPDEST SWAP3 POP POP PUSH1 0x80 PUSH2 0x22A4 DUP9 DUP3 DUP10 ADD PUSH2 0x213F JUMP JUMPDEST SWAP2 POP POP SWAP3 SWAP6 POP SWAP3 SWAP6 SWAP1 SWAP4 POP JUMP JUMPDEST PUSH2 0x22BA DUP2 PUSH2 0x211E JUMP JUMPDEST DUP3 MSTORE POP POP JUMP JUMPDEST PUSH1 0x0 PUSH1 0x20 DUP3 ADD SWAP1 POP PUSH2 0x22D5 PUSH1 0x0 DUP4 ADD DUP5 PUSH2 0x22B1 JUMP JUMPDEST SWAP3 SWAP2 POP POP JUMP JUMPDEST PUSH1 0x0 PUSH1 0x20 DUP3 DUP5 SUB SLT ISZERO PUSH2 0x22F1 JUMPI PUSH2 0x22F0 PUSH2 0x2119 JUMP JUMPDEST JUMPDEST PUSH1 0x0 PUSH2 0x22FF DUP5 DUP3 DUP6 ADD PUSH2 0x213F JUMP JUMPDEST SWAP2 POP POP SWAP3 SWAP2 POP POP JUMP JUMPDEST PUSH1 0x0 DUP2 SWAP1 POP SWAP2 SWAP1 POP JUMP JUMPDEST PUSH1 0x0 PUSH2 0x232D PUSH2 0x2328 PUSH2 0x2323 DUP5 PUSH2 0x2154 JUMP JUMPDEST PUSH2 0x2308 JUMP JUMPDEST PUSH2 0x2154 JUMP JUMPDEST SWAP1 POP SWAP2 SWAP1 POP JUMP JUMPDEST PUSH1 0x0 PUSH2 0x233F DUP3 PUSH2 0x2312 JUMP JUMPDEST SWAP1 POP SWAP2 SWAP1 POP JUMP JUMPDEST PUSH1 0x0 PUSH2 0x2351 DUP3 PUSH2 0x2334 JUMP JUMPDEST SWAP1 POP SWAP2 SWAP1 POP JUMP JUMPDEST PUSH2 0x2361 DUP2 PUSH2 0x2346 JUMP JUMPDEST DUP3 MSTORE POP POP JUMP JUMPDEST PUSH2 0x2370 DUP2 PUSH2 0x21FC JUMP JUMPDEST DUP3 MSTORE POP POP JUMP JUMPDEST PUSH2 0x237F DUP2 PUSH2 0x21C4 JUMP JUMPDEST DUP3 MSTORE POP POP JUMP JUMPDEST PUSH1 0x0 PUSH1 0xC0 DUP3 ADD SWAP1 POP PUSH2 0x239A PUSH1 0x0 DUP4 ADD DUP10 PUSH2 0x2358 JUMP JUMPDEST PUSH2 0x23A7 PUSH1 0x20 DUP4 ADD DUP9 PUSH2 0x22B1 JUMP JUMPDEST PUSH2 0x23B4 PUSH1 0x40 DUP4 ADD DUP8 PUSH2 0x22B1 JUMP JUMPDEST PUSH2 0x23C1 PUSH1 0x60 DUP4 ADD DUP7 PUSH2 0x22B1 JUMP JUMPDEST PUSH2 0x23CE PUSH1 0x80 DUP4 ADD DUP6 PUSH2 0x2367 JUMP JUMPDEST PUSH2 0x23DB PUSH1 0xA0 DUP4 ADD DUP5 PUSH2 0x2376 JUMP JUMPDEST SWAP8 SWAP7 POP POP POP POP POP POP POP JUMP JUMPDEST PUSH2 0x23EF DUP2 PUSH2 0x2174 JUMP JUMPDEST DUP2 EQ PUSH2 0x23FA JUMPI PUSH1 0x0 DUP1 REVERT JUMPDEST POP JUMP JUMPDEST PUSH1 0x0 DUP2 CALLDATALOAD SWAP1 POP PUSH2 0x240C DUP2 PUSH2 0x23E6 JUMP JUMPDEST SWAP3 SWAP2 POP POP JUMP JUMPDEST PUSH1 0x0 DUP1 PUSH1 0x40 DUP4 DUP6 SUB SLT ISZERO PUSH2 0x2429 JUMPI PUSH2 0x2428 PUSH2 0x2119 JUMP JUMPDEST JUMPDEST PUSH1 0x0 PUSH2 0x2437 DUP6 DUP3 DUP7 ADD PUSH2 0x213F JUMP JUMPDEST SWAP3 POP POP PUSH1 0x20 PUSH2 0x2448 DUP6 DUP3 DUP7 ADD PUSH2 0x23FD JUMP JUMPDEST SWAP2 POP POP SWAP3 POP SWAP3 SWAP1 POP JUMP JUMPDEST PUSH1 0x0 DUP1 PUSH1 0x40 DUP4 DUP6 SUB SLT ISZERO PUSH2 0x2469 JUMPI PUSH2 0x2468 PUSH2 0x2119 JUMP JUMPDEST JUMPDEST PUSH1 0x0 PUSH2 0x2477 DUP6 DUP3 DUP7 ADD PUSH2 0x213F JUMP JUMPDEST SWAP3 POP POP PUSH1 0x20 PUSH2 0x2488 DUP6 DUP3 DUP7 ADD PUSH2 0x213F JUMP JUMPDEST SWAP2 POP POP SWAP3 POP SWAP3 SWAP1 POP JUMP JUMPDEST PUSH1 0x0 DUP1 PUSH1 0x0 PUSH1 0x60 DUP5 DUP7 SUB SLT ISZERO PUSH2 0x24AB JUMPI PUSH2 0x24AA PUSH2 0x2119 JUMP JUMPDEST JUMPDEST PUSH1 0x0 PUSH2 0x24B9 DUP7 DUP3 DUP8 ADD PUSH2 0x213F JUMP JUMPDEST SWAP4 POP POP PUSH1 0x20 PUSH2 0x24CA DUP7 DUP3 DUP8 ADD PUSH2 0x213F JUMP JUMPDEST SWAP3 POP POP PUSH1 0x40 PUSH2 0x24DB DUP7 DUP3 DUP8 ADD PUSH2 0x2221 JUMP JUMPDEST SWAP2 POP POP SWAP3 POP SWAP3 POP SWAP3 JUMP JUMPDEST PUSH2 0x24EE DUP2 PUSH2 0x2174 JUMP JUMPDEST DUP3 MSTORE POP POP JUMP JUMPDEST PUSH1 0x0 PUSH1 0x20 DUP3 ADD SWAP1 POP PUSH2 0x2509 PUSH1 0x0 DUP4 ADD DUP5 PUSH2 0x24E5 JUMP JUMPDEST SWAP3 SWAP2 POP POP JUMP JUMPDEST PUSH1 0x0 DUP1 PUSH1 0x0 PUSH1 0x60 DUP5 DUP7 SUB SLT ISZERO PUSH2 0x2528 JUMPI PUSH2 0x2527 PUSH2 0x2119 JUMP JUMPDEST JUMPDEST PUSH1 0x0 PUSH2 0x2536 DUP7 DUP3 DUP8 ADD PUSH2 0x21AF JUMP JUMPDEST SWAP4 POP POP PUSH1 0x20 PUSH2 0x2547 DUP7 DUP3 DUP8 ADD PUSH2 0x213F JUMP JUMPDEST SWAP3 POP POP PUSH1 0x40 PUSH2 0x2558 DUP7 DUP3 DUP8 ADD PUSH2 0x23FD JUMP JUMPDEST SWAP2 POP POP SWAP3 POP SWAP3 POP SWAP3 JUMP JUMPDEST PUSH1 0x0 PUSH1 0x40 DUP3 ADD SWAP1 POP PUSH2 0x2577 PUSH1 0x0 DUP4 ADD DUP6 PUSH2 0x22B1 JUMP JUMPDEST PUSH2 0x2584 PUSH1 0x20 DUP4 ADD DUP5 PUSH2 0x22B1 JUMP JUMPDEST SWAP4 SWAP3 POP POP POP JUMP JUMPDEST PUSH1 0x0 PUSH1 0x20 DUP3 DUP5 SUB SLT ISZERO PUSH2 0x25A1 JUMPI PUSH2 0x25A0 PUSH2 0x2119 JUMP JUMPDEST JUMPDEST PUSH1 0x0 PUSH2 0x25AF DUP5 DUP3 DUP6 ADD PUSH2 0x23FD JUMP JUMPDEST SWAP2 POP POP SWAP3 SWAP2 POP POP JUMP JUMPDEST PUSH1 0x0 PUSH1 0x20 DUP3 ADD SWAP1 POP PUSH2 0x25CD PUSH1 0x0 DUP4 ADD DUP5 PUSH2 0x2358 JUMP JUMPDEST SWAP3 SWAP2 POP POP JUMP JUMPDEST PUSH1 0x0 PUSH1 0x20 DUP3 DUP5 SUB SLT ISZERO PUSH2 0x25E9 JUMPI PUSH2 0x25E8 PUSH2 0x2119 JUMP JUMPDEST JUMPDEST PUSH1 0x0 PUSH2 0x25F7 DUP5 DUP3 DUP6 ADD PUSH2 0x2221 JUMP JUMPDEST SWAP2 POP POP SWAP3 SWAP2 POP POP JUMP JUMPDEST PUSH1 0x0 DUP3 DUP3 MSTORE PUSH1 0x20 DUP3 ADD SWAP1 POP SWAP3 SWAP2 POP POP JUMP JUMPDEST PUSH32 0x64455448526577617264506F6F6C3A2063616C6C6572206973206E6F74207468 PUSH1 0x0 DUP3 ADD MSTORE PUSH32 0x65206F70657261746F7200000000000000000000000000000000000000000000 PUSH1 0x20 DUP3 ADD MSTORE POP JUMP JUMPDEST PUSH1 0x0 PUSH2 0x266D PUSH1 0x2A DUP4 PUSH2 0x2600 JUMP JUMPDEST SWAP2 POP PUSH2 0x2678 DUP3 PUSH2 0x2611 JUMP JUMPDEST PUSH1 0x40 DUP3 ADD SWAP1 POP SWAP2 SWAP1 POP JUMP JUMPDEST PUSH1 0x0 PUSH1 0x20 DUP3 ADD SWAP1 POP DUP2 DUP2 SUB PUSH1 0x0 DUP4 ADD MSTORE PUSH2 0x269C DUP2 PUSH2 0x2660 JUMP JUMPDEST SWAP1 POP SWAP2 SWAP1 POP JUMP JUMPDEST PUSH32 0x6164643A20696E76616C6964206465706F736974206665652062617369732070 PUSH1 0x0 DUP3 ADD MSTORE PUSH32 0x6F696E7473000000000000000000000000000000000000000000000000000000 PUSH1 0x20 DUP3 ADD MSTORE POP JUMP JUMPDEST PUSH1 0x0 PUSH2 0x26FF PUSH1 0x25 DUP4 PUSH2 0x2600 JUMP JUMPDEST SWAP2 POP PUSH2 0x270A DUP3 PUSH2 0x26A3 JUMP JUMPDEST PUSH1 0x40 DUP3 ADD SWAP1 POP SWAP2 SWAP1 POP JUMP JUMPDEST PUSH1 0x0 PUSH1 0x20 DUP3 ADD SWAP1 POP DUP2 DUP2 SUB PUSH1 0x0 DUP4 ADD MSTORE PUSH2 0x272E DUP2 PUSH2 0x26F2 JUMP JUMPDEST SWAP1 POP SWAP2 SWAP1 POP JUMP JUMPDEST PUSH32 0x4E487B7100000000000000000000000000000000000000000000000000000000 PUSH1 0x0 MSTORE PUSH1 0x32 PUSH1 0x4 MSTORE PUSH1 0x24 PUSH1 0x0 REVERT JUMPDEST PUSH1 0x0 DUP2 MLOAD SWAP1 POP PUSH2 0x2773 DUP2 PUSH2 0x2128 JUMP JUMPDEST SWAP3 SWAP2 POP POP JUMP JUMPDEST PUSH1 0x0 PUSH1 0x20 DUP3 DUP5 SUB SLT ISZERO PUSH2 0x278F JUMPI PUSH2 0x278E PUSH2 0x2119 JUMP JUMPDEST JUMPDEST PUSH1 0x0 PUSH2 0x279D DUP5 DUP3 DUP6 ADD PUSH2 0x2764 JUMP JUMPDEST SWAP2 POP POP SWAP3 SWAP2 POP POP JUMP JUMPDEST PUSH32 0x4465706F736974204665652043616E6E6F7420657175616C206D6F7265207468 PUSH1 0x0 DUP3 ADD MSTORE PUSH32 0x616E203025000000000000000000000000000000000000000000000000000000 PUSH1 0x20 DUP3 ADD MSTORE POP JUMP JUMPDEST PUSH1 0x0 PUSH2 0x2802 PUSH1 0x25 DUP4 PUSH2 0x2600 JUMP JUMPDEST SWAP2 POP PUSH2 0x280D DUP3 PUSH2 0x27A6 JUMP JUMPDEST PUSH1 0x40 DUP3 ADD SWAP1 POP SWAP2 SWAP1 POP JUMP JUMPDEST PUSH1 0x0 PUSH1 0x20 DUP3 ADD SWAP1 POP DUP2 DUP2 SUB PUSH1 0x0 DUP4 ADD MSTORE PUSH2 0x2831 DUP2 PUSH2 0x27F5 JUMP JUMPDEST SWAP1 POP SWAP2 SWAP1 POP JUMP JUMPDEST PUSH32 0x77697468647261773A206E6F7420676F6F640000000000000000000000000000 PUSH1 0x0 DUP3 ADD MSTORE POP JUMP JUMPDEST PUSH1 0x0 PUSH2 0x286E PUSH1 0x12 DUP4 PUSH2 0x2600 JUMP JUMPDEST SWAP2 POP PUSH2 0x2879 DUP3 PUSH2 0x2838 JUMP JUMPDEST PUSH1 0x20 DUP3 ADD SWAP1 POP SWAP2 SWAP1 POP JUMP JUMPDEST PUSH1 0x0 PUSH1 0x20 DUP3 ADD SWAP1 POP DUP2 DUP2 SUB PUSH1 0x0 DUP4 ADD MSTORE PUSH2 0x289D DUP2 PUSH2 0x2861 JUMP JUMPDEST SWAP1 POP SWAP2 SWAP1 POP JUMP JUMPDEST PUSH32 0x4E487B7100000000000000000000000000000000000000000000000000000000 PUSH1 0x0 MSTORE PUSH1 0x11 PUSH1 0x4 MSTORE PUSH1 0x24 PUSH1 0x0 REVERT JUMPDEST PUSH1 0x0 PUSH2 0x28DE DUP3 PUSH2 0x211E JUMP JUMPDEST SWAP2 POP PUSH2 0x28E9 DUP4 PUSH2 0x211E JUMP JUMPDEST SWAP3 POP DUP3 DUP3 ADD SWAP1 POP DUP1 DUP3 GT ISZERO PUSH2 0x2901 JUMPI PUSH2 0x2900 PUSH2 0x28A4 JUMP JUMPDEST JUMPDEST SWAP3 SWAP2 POP POP JUMP JUMPDEST PUSH32 0x6465746800000000000000000000000000000000000000000000000000000000 PUSH1 0x0 DUP3 ADD MSTORE POP JUMP JUMPDEST PUSH1 0x0 PUSH2 0x293D PUSH1 0x4 DUP4 PUSH2 0x2600 JUMP JUMPDEST SWAP2 POP PUSH2 0x2948 DUP3 PUSH2 0x2907 JUMP JUMPDEST PUSH1 0x20 DUP3 ADD SWAP1 POP SWAP2 SWAP1 POP JUMP JUMPDEST PUSH1 0x0 PUSH1 0x20 DUP3 ADD SWAP1 POP DUP2 DUP2 SUB PUSH1 0x0 DUP4 ADD MSTORE PUSH2 0x296C DUP2 PUSH2 0x2930 JUMP JUMPDEST SWAP1 POP SWAP2 SWAP1 POP JUMP JUMPDEST PUSH32 0x706F6F6C2E746F6B656E00000000000000000000000000000000000000000000 PUSH1 0x0 DUP3 ADD MSTORE POP JUMP JUMPDEST PUSH1 0x0 PUSH2 0x29A9 PUSH1 0xA DUP4 PUSH2 0x2600 JUMP JUMPDEST SWAP2 POP PUSH2 0x29B4 DUP3 PUSH2 0x2973 JUMP JUMPDEST PUSH1 0x20 DUP3 ADD SWAP1 POP SWAP2 SWAP1 POP JUMP JUMPDEST PUSH1 0x0 PUSH1 0x20 DUP3 ADD SWAP1 POP DUP2 DUP2 SUB PUSH1 0x0 DUP4 ADD MSTORE PUSH2 0x29D8 DUP2 PUSH2 0x299C JUMP JUMPDEST SWAP1 POP SWAP2 SWAP1 POP JUMP JUMPDEST PUSH1 0x0 PUSH2 0x29EA DUP3 PUSH2 0x211E JUMP JUMPDEST SWAP2 POP PUSH32 0xFFFFFFFFFFFFFFFFFFFFFFFFFFFFFFFFFFFFFFFFFFFFFFFFFFFFFFFFFFFFFFFF DUP3 SUB PUSH2 0x2A1C JUMPI PUSH2 0x2A1B PUSH2 0x28A4 JUMP JUMPDEST JUMPDEST PUSH1 0x1 DUP3 ADD SWAP1 POP SWAP2 SWAP1 POP JUMP JUMPDEST PUSH32 0x7365743A20696E76616C6964206465706F736974206665652062617369732070 PUSH1 0x0 DUP3 ADD MSTORE PUSH32 0x6F696E7473000000000000000000000000000000000000000000000000000000 PUSH1 0x20 DUP3 ADD MSTORE POP JUMP JUMPDEST PUSH1 0x0 PUSH2 0x2A83 PUSH1 0x25 DUP4 PUSH2 0x2600 JUMP JUMPDEST SWAP2 POP PUSH2 0x2A8E DUP3 PUSH2 0x2A27 JUMP JUMPDEST PUSH1 0x40 DUP3 ADD SWAP1 POP SWAP2 SWAP1 POP JUMP JUMPDEST PUSH1 0x0 PUSH1 0x20 DUP3 ADD SWAP1 POP DUP2 DUP2 SUB PUSH1 0x0 DUP4 ADD MSTORE PUSH2 0x2AB2 DUP2 PUSH2 0x2A76 JUMP JUMPDEST SWAP1 POP SWAP2 SWAP1 POP JUMP JUMPDEST PUSH1 0x0 PUSH2 0x2AD4 PUSH2 0x2ACF PUSH2 0x2ACA DUP5 PUSH2 0x21FC JUMP JUMPDEST PUSH2 0x2308 JUMP JUMPDEST PUSH2 0x211E JUMP JUMPDEST SWAP1 POP SWAP2 SWAP1 POP JUMP JUMPDEST PUSH2 0x2AE4 DUP2 PUSH2 0x2AB9 JUMP JUMPDEST DUP3 MSTORE POP POP JUMP JUMPDEST PUSH1 0x0 PUSH1 0x60 DUP3 ADD SWAP1 POP PUSH2 0x2AFF PUSH1 0x0 DUP4 ADD DUP7 PUSH2 0x24E5 JUMP JUMPDEST PUSH2 0x2B0C PUSH1 0x20 DUP4 ADD DUP6 PUSH2 0x22B1 JUMP JUMPDEST PUSH2 0x2B19 PUSH1 0x40 DUP4 ADD DUP5 PUSH2 0x2ADB JUMP JUMPDEST SWAP5 SWAP4 POP POP POP POP JUMP JUMPDEST PUSH32 0x64455448526577617264506F6F6C3A206578697374696E6720706F6F6C3F0000 PUSH1 0x0 DUP3 ADD MSTORE POP JUMP JUMPDEST PUSH1 0x0 PUSH2 0x2B57 PUSH1 0x1E DUP4 PUSH2 0x2600 JUMP JUMPDEST SWAP2 POP PUSH2 0x2B62 DUP3 PUSH2 0x2B21 JUMP JUMPDEST PUSH1 0x20 DUP3 ADD SWAP1 POP SWAP2 SWAP1 POP JUMP JUMPDEST PUSH1 0x0 PUSH1 0x20 DUP3 ADD SWAP1 POP DUP2 DUP2 SUB PUSH1 0x0 DUP4 ADD MSTORE PUSH2 0x2B86 DUP2 PUSH2 0x2B4A JUMP JUMPDEST SWAP1 POP SWAP2 SWAP1 POP JUMP JUMPDEST PUSH1 0x0 PUSH2 0x2B98 DUP3 PUSH2 0x211E JUMP JUMPDEST SWAP2 POP PUSH2 0x2BA3 DUP4 PUSH2 0x211E JUMP JUMPDEST SWAP3 POP DUP2 PUSH32 0xFFFFFFFFFFFFFFFFFFFFFFFFFFFFFFFFFFFFFFFFFFFFFFFFFFFFFFFFFFFFFFFF DIV DUP4 GT DUP3 ISZERO ISZERO AND ISZERO PUSH2 0x2BDC JUMPI PUSH2 0x2BDB PUSH2 0x28A4 JUMP JUMPDEST JUMPDEST DUP3 DUP3 MUL SWAP1 POP SWAP3 SWAP2 POP POP JUMP JUMPDEST PUSH32 0x4E487B7100000000000000000000000000000000000000000000000000000000 PUSH1 0x0 MSTORE PUSH1 0x12 PUSH1 0x4 MSTORE PUSH1 0x24 PUSH1 0x0 REVERT JUMPDEST PUSH1 0x0 PUSH2 0x2C21 DUP3 PUSH2 0x211E JUMP JUMPDEST SWAP2 POP PUSH2 0x2C2C DUP4 PUSH2 0x211E JUMP JUMPDEST SWAP3 POP DUP3 PUSH2 0x2C3C JUMPI PUSH2 0x2C3B PUSH2 0x2BE7 JUMP JUMPDEST JUMPDEST DUP3 DUP3 DIV SWAP1 POP SWAP3 SWAP2 POP POP JUMP JUMPDEST PUSH1 0x0 PUSH2 0x2C52 DUP3 PUSH2 0x211E JUMP JUMPDEST SWAP2 POP PUSH2 0x2C5D DUP4 PUSH2 0x211E JUMP JUMPDEST SWAP3 POP DUP3 DUP3 SUB SWAP1 POP DUP2 DUP2 GT ISZERO PUSH2 0x2C75 JUMPI PUSH2 0x2C74 PUSH2 0x28A4 JUMP JUMPDEST JUMPDEST SWAP3 SWAP2 POP POP JUMP JUMPDEST PUSH1 0x0 PUSH1 0x40 DUP3 ADD SWAP1 POP PUSH2 0x2C90 PUSH1 0x0 DUP4 ADD DUP6 PUSH2 0x24E5 JUMP JUMPDEST PUSH2 0x2C9D PUSH1 0x20 DUP4 ADD DUP5 PUSH2 0x22B1 JUMP JUMPDEST SWAP4 SWAP3 POP POP POP JUMP JUMPDEST PUSH1 0x0 PUSH1 0x60 DUP3 ADD SWAP1 POP PUSH2 0x2CB9 PUSH1 0x0 DUP4 ADD DUP7 PUSH2 0x24E5 JUMP JUMPDEST PUSH2 0x2CC6 PUSH1 0x20 DUP4 ADD DUP6 PUSH2 0x24E5 JUMP JUMPDEST PUSH2 0x2CD3 PUSH1 0x40 DUP4 ADD DUP5 PUSH2 0x22B1 JUMP JUMPDEST SWAP5 SWAP4 POP POP POP POP JUMP JUMPDEST PUSH1 0x0 DUP2 MLOAD SWAP1 POP PUSH2 0x2CEA DUP2 PUSH2 0x21D0 JUMP JUMPDEST SWAP3 SWAP2 POP POP JUMP JUMPDEST PUSH1 0x0 PUSH1 0x20 DUP3 DUP5 SUB SLT ISZERO PUSH2 0x2D06 JUMPI PUSH2 0x2D05 PUSH2 0x2119 JUMP JUMPDEST JUMPDEST PUSH1 0x0 PUSH2 0x2D14 DUP5 DUP3 DUP6 ADD PUSH2 0x2CDB JUMP JUMPDEST SWAP2 POP POP SWAP3 SWAP2 POP POP JUMP JUMPDEST PUSH32 0x5361666545524332303A204552433230206F7065726174696F6E20646964206E PUSH1 0x0 DUP3 ADD MSTORE PUSH32 0x6F74207375636365656400000000000000000000000000000000000000000000 PUSH1 0x20 DUP3 ADD MSTORE POP JUMP JUMPDEST PUSH1 0x0 PUSH2 0x2D79 PUSH1 0x2A DUP4 PUSH2 0x2600 JUMP JUMPDEST SWAP2 POP PUSH2 0x2D84 DUP3 PUSH2 0x2D1D JUMP JUMPDEST PUSH1 0x40 DUP3 ADD SWAP1 POP SWAP2 SWAP1 POP JUMP JUMPDEST PUSH1 0x0 PUSH1 0x20 DUP3 ADD SWAP1 POP DUP2 DUP2 SUB PUSH1 0x0 DUP4 ADD MSTORE PUSH2 0x2DA8 DUP2 PUSH2 0x2D6C JUMP JUMPDEST SWAP1 POP SWAP2 SWAP1 POP JUMP JUMPDEST PUSH32 0x416464726573733A20696E73756666696369656E742062616C616E636520666F PUSH1 0x0 DUP3 ADD MSTORE PUSH32 0x722063616C6C0000000000000000000000000000000000000000000000000000 PUSH1 0x20 DUP3 ADD MSTORE POP JUMP JUMPDEST PUSH1 0x0 PUSH2 0x2E0B PUSH1 0x26 DUP4 PUSH2 0x2600 JUMP JUMPDEST SWAP2 POP PUSH2 0x2E16 DUP3 PUSH2 0x2DAF JUMP JUMPDEST PUSH1 0x40 DUP3 ADD SWAP1 POP SWAP2 SWAP1 POP JUMP JUMPDEST PUSH1 0x0 PUSH1 0x20 DUP3 ADD SWAP1 POP DUP2 DUP2 SUB PUSH1 0x0 DUP4 ADD MSTORE PUSH2 0x2E3A DUP2 PUSH2 0x2DFE JUMP JUMPDEST SWAP1 POP SWAP2 SWAP1 POP JUMP JUMPDEST PUSH32 0x416464726573733A2063616C6C20746F206E6F6E2D636F6E7472616374000000 PUSH1 0x0 DUP3 ADD MSTORE POP JUMP JUMPDEST PUSH1 0x0 PUSH2 0x2E77 PUSH1 0x1D DUP4 PUSH2 0x2600 JUMP JUMPDEST SWAP2 POP PUSH2 0x2E82 DUP3 PUSH2 0x2E41 JUMP JUMPDEST PUSH1 0x20 DUP3 ADD SWAP1 POP SWAP2 SWAP1 POP JUMP JUMPDEST PUSH1 0x0 PUSH1 0x20 DUP3 ADD SWAP1 POP DUP2 DUP2 SUB PUSH1 0x0 DUP4 ADD MSTORE PUSH2 0x2EA6 DUP2 PUSH2 0x2E6A JUMP JUMPDEST SWAP1 POP SWAP2 SWAP1 POP JUMP JUMPDEST PUSH1 0x0 DUP2 MLOAD SWAP1 POP SWAP2 SWAP1 POP JUMP JUMPDEST PUSH1 0x0 DUP2 SWAP1 POP SWAP3 SWAP2 POP POP JUMP JUMPDEST PUSH1 0x0 JUMPDEST DUP4 DUP2 LT ISZERO PUSH2 0x2EE1 JUMPI DUP1 DUP3 ADD MLOAD DUP2 DUP5 ADD MSTORE PUSH1 0x20 DUP2 ADD SWAP1 POP PUSH2 0x2EC6 JUMP JUMPDEST PUSH1 0x0 DUP5 DUP5 ADD MSTORE POP POP POP POP JUMP JUMPDEST PUSH1 0x0 PUSH2 0x2EF8 DUP3 PUSH2 0x2EAD JUMP JUMPDEST PUSH2 0x2F02 DUP2 DUP6 PUSH2 0x2EB8 JUMP JUMPDEST SWAP4 POP PUSH2 0x2F12 DUP2 DUP6 PUSH1 0x20 DUP7 ADD PUSH2 0x2EC3 JUMP JUMPDEST DUP1 DUP5 ADD SWAP2 POP POP SWAP3 SWAP2 POP POP JUMP JUMPDEST PUSH1 0x0 PUSH2 0x2F2A DUP3 DUP5 PUSH2 0x2EED JUMP JUMPDEST SWAP2 POP DUP2 SWAP1 POP SWAP3 SWAP2 POP POP JUMP JUMPDEST PUSH1 0x0 DUP2 MLOAD SWAP1 POP SWAP2 SWAP1 POP JUMP JUMPDEST PUSH1 0x0 PUSH1 0x1F NOT PUSH1 0x1F DUP4 ADD AND SWAP1 POP SWAP2 SWAP1 POP JUMP JUMPDEST PUSH1 0x0 PUSH2 0x2F5C DUP3 PUSH2 0x2F35 JUMP JUMPDEST PUSH2 0x2F66 DUP2 DUP6 PUSH2 0x2600 JUMP JUMPDEST SWAP4 POP PUSH2 0x2F76 DUP2 DUP6 PUSH1 0x20 DUP7 ADD PUSH2 0x2EC3 JUMP JUMPDEST PUSH2 0x2F7F DUP2 PUSH2 0x2F40 JUMP JUMPDEST DUP5 ADD SWAP2 POP POP SWAP3 SWAP2 POP POP JUMP JUMPDEST PUSH1 0x0 PUSH1 0x20 DUP3 ADD SWAP1 POP DUP2 DUP2 SUB PUSH1 0x0 DUP4 ADD MSTORE PUSH2 0x2FA4 DUP2 DUP5 PUSH2 0x2F51 JUMP JUMPDEST SWAP1 POP SWAP3 SWAP2 POP POP JUMP INVALID LOG2 PUSH5 0x6970667358 0x22 SLT KECCAK256 DUP3 0xC1 COINBASE SLOAD SIGNEXTEND 0x4F 0xDC 0xED PUSH20 0x5F396AC87A55006571B3666A63853EC61B7E6EE5 0x24 EXTCODESIZE 0x4F PUSH5 0x736F6C6343 STOP ADDMOD LT STOP CALLER "
				},
				"gasEstimates": {
					"creation": {
						"codeDepositCost": "2451600",
						"executionCost": "infinite",
						"totalCost": "infinite"
					},
					"external": {
						"TOTAL_REWARDS()": "375",
						"add(uint256,address,bool,uint16,uint256)": "infinite",
						"deposit(uint256,uint256)": "infinite",
						"deth()": "infinite",
						"dethPerSecond()": "2517",
						"emergencyWithdraw(uint256)": "infinite",
						"feeAddress()": "2581",
						"getGeneratedReward(uint256,uint256)": "infinite",
						"governanceRecoverUnsupported(address,uint256,address)": "infinite",
						"massUpdatePools()": "infinite",
						"operator()": "2556",
						"pendingdETH(uint256,address)": "infinite",
						"poolEndTime()": "2540",
						"poolInfo(uint256)": "infinite",
						"poolStartTime()": "2496",
						"runningTime()": "2451",
						"set(uint256,uint256,uint16)": "infinite",
						"setGlobalDepositFee(uint16)": "infinite",
						"setOperator(address)": "26933",
						"totalAllocPoint()": "2519",
						"updatePool(uint256)": "infinite",
						"userInfo(uint256,address)": "infinite",
						"withdraw(uint256,uint256)": "infinite"
					},
					"internal": {
						"checkPoolDuplicate(contract IERC20)": "infinite",
						"safedETHTransfer(address,uint256)": "infinite"
					}
				},
				"methodIdentifiers": {
					"TOTAL_REWARDS()": "09cf6091",
					"add(uint256,address,bool,uint16,uint256)": "08bee642",
					"deposit(uint256,uint256)": "e2bbb158",
					"deth()": "d18ccd89",
					"dethPerSecond()": "dc9e5dea",
					"emergencyWithdraw(uint256)": "5312ea8e",
					"feeAddress()": "41275358",
					"getGeneratedReward(uint256,uint256)": "231f0c6a",
					"governanceRecoverUnsupported(address,uint256,address)": "54575af4",
					"massUpdatePools()": "630b5ba1",
					"operator()": "570ca735",
					"pendingdETH(uint256,address)": "1e8fa23a",
					"poolEndTime()": "6e271dd5",
					"poolInfo(uint256)": "1526fe27",
					"poolStartTime()": "5f96dc11",
					"runningTime()": "943f013d",
					"set(uint256,uint256,uint16)": "24bcb38c",
					"setGlobalDepositFee(uint16)": "ecb1ab54",
					"setOperator(address)": "b3ab15fb",
					"totalAllocPoint()": "17caf6f1",
					"updatePool(uint256)": "51eb05a6",
					"userInfo(uint256,address)": "93f1a40b",
					"withdraw(uint256,uint256)": "441a3e70"
				}
			},
			"storageLayout": {
				"storage": [
					{
						"astId": 1018,
						"contract": "contracts/dETHRewardsPools.sol:dETHRewardPools",
						"label": "operator",
						"offset": 0,
						"slot": "0",
						"type": "t_address"
					},
					{
						"astId": 1040,
						"contract": "contracts/dETHRewardsPools.sol:dETHRewardPools",
						"label": "deth",
						"offset": 0,
						"slot": "1",
						"type": "t_contract(IERC20)80"
					},
					{
						"astId": 1042,
						"contract": "contracts/dETHRewardsPools.sol:dETHRewardPools",
						"label": "feeAddress",
						"offset": 0,
						"slot": "2",
						"type": "t_address"
					},
					{
						"astId": 1046,
						"contract": "contracts/dETHRewardsPools.sol:dETHRewardPools",
						"label": "poolInfo",
						"offset": 0,
						"slot": "3",
						"type": "t_array(t_struct(PoolInfo)1037_storage)dyn_storage"
					},
					{
						"astId": 1053,
						"contract": "contracts/dETHRewardsPools.sol:dETHRewardPools",
						"label": "userInfo",
						"offset": 0,
						"slot": "4",
						"type": "t_mapping(t_uint256,t_mapping(t_address,t_struct(UserInfo)1023_storage))"
					},
					{
						"astId": 1056,
						"contract": "contracts/dETHRewardsPools.sol:dETHRewardPools",
						"label": "totalAllocPoint",
						"offset": 0,
						"slot": "5",
						"type": "t_uint256"
					},
					{
						"astId": 1058,
						"contract": "contracts/dETHRewardsPools.sol:dETHRewardPools",
						"label": "poolStartTime",
						"offset": 0,
						"slot": "6",
						"type": "t_uint256"
					},
					{
						"astId": 1060,
						"contract": "contracts/dETHRewardsPools.sol:dETHRewardPools",
						"label": "poolEndTime",
						"offset": 0,
						"slot": "7",
						"type": "t_uint256"
					},
					{
						"astId": 1063,
						"contract": "contracts/dETHRewardsPools.sol:dETHRewardPools",
						"label": "dethPerSecond",
						"offset": 0,
						"slot": "8",
						"type": "t_uint256"
					},
					{
						"astId": 1066,
						"contract": "contracts/dETHRewardsPools.sol:dETHRewardPools",
						"label": "runningTime",
						"offset": 0,
						"slot": "9",
						"type": "t_uint256"
					},
					{
						"astId": 1071,
						"contract": "contracts/dETHRewardsPools.sol:dETHRewardPools",
						"label": "depositFeeBP",
						"offset": 0,
						"slot": "10",
						"type": "t_uint16"
					}
				],
				"types": {
					"t_address": {
						"encoding": "inplace",
						"label": "address",
						"numberOfBytes": "20"
					},
					"t_array(t_struct(PoolInfo)1037_storage)dyn_storage": {
						"base": "t_struct(PoolInfo)1037_storage",
						"encoding": "dynamic_array",
						"label": "struct dETHRewardPools.PoolInfo[]",
						"numberOfBytes": "32"
					},
					"t_bool": {
						"encoding": "inplace",
						"label": "bool",
						"numberOfBytes": "1"
					},
					"t_contract(IERC20)80": {
						"encoding": "inplace",
						"label": "contract IERC20",
						"numberOfBytes": "20"
					},
					"t_mapping(t_address,t_struct(UserInfo)1023_storage)": {
						"encoding": "mapping",
						"key": "t_address",
						"label": "mapping(address => struct dETHRewardPools.UserInfo)",
						"numberOfBytes": "32",
						"value": "t_struct(UserInfo)1023_storage"
					},
					"t_mapping(t_uint256,t_mapping(t_address,t_struct(UserInfo)1023_storage))": {
						"encoding": "mapping",
						"key": "t_uint256",
						"label": "mapping(uint256 => mapping(address => struct dETHRewardPools.UserInfo))",
						"numberOfBytes": "32",
						"value": "t_mapping(t_address,t_struct(UserInfo)1023_storage)"
					},
					"t_struct(PoolInfo)1037_storage": {
						"encoding": "inplace",
						"label": "struct dETHRewardPools.PoolInfo",
						"members": [
							{
								"astId": 1026,
								"contract": "contracts/dETHRewardsPools.sol:dETHRewardPools",
								"label": "token",
								"offset": 0,
								"slot": "0",
								"type": "t_contract(IERC20)80"
							},
							{
								"astId": 1028,
								"contract": "contracts/dETHRewardsPools.sol:dETHRewardPools",
								"label": "allocPoint",
								"offset": 0,
								"slot": "1",
								"type": "t_uint256"
							},
							{
								"astId": 1030,
								"contract": "contracts/dETHRewardsPools.sol:dETHRewardPools",
								"label": "lastRewardTime",
								"offset": 0,
								"slot": "2",
								"type": "t_uint256"
							},
							{
								"astId": 1032,
								"contract": "contracts/dETHRewardsPools.sol:dETHRewardPools",
								"label": "accDETHPerShare",
								"offset": 0,
								"slot": "3",
								"type": "t_uint256"
							},
							{
								"astId": 1034,
								"contract": "contracts/dETHRewardsPools.sol:dETHRewardPools",
								"label": "depositFeeBP",
								"offset": 0,
								"slot": "4",
								"type": "t_uint16"
							},
							{
								"astId": 1036,
								"contract": "contracts/dETHRewardsPools.sol:dETHRewardPools",
								"label": "isStarted",
								"offset": 2,
								"slot": "4",
								"type": "t_bool"
							}
						],
						"numberOfBytes": "160"
					},
					"t_struct(UserInfo)1023_storage": {
						"encoding": "inplace",
						"label": "struct dETHRewardPools.UserInfo",
						"members": [
							{
								"astId": 1020,
								"contract": "contracts/dETHRewardsPools.sol:dETHRewardPools",
								"label": "amount",
								"offset": 0,
								"slot": "0",
								"type": "t_uint256"
							},
							{
								"astId": 1022,
								"contract": "contracts/dETHRewardsPools.sol:dETHRewardPools",
								"label": "rewardDebt",
								"offset": 0,
								"slot": "1",
								"type": "t_uint256"
							}
						],
						"numberOfBytes": "64"
					},
					"t_uint16": {
						"encoding": "inplace",
						"label": "uint16",
						"numberOfBytes": "2"
					},
					"t_uint256": {
						"encoding": "inplace",
						"label": "uint256",
						"numberOfBytes": "32"
					}
				}
			},
			"userdoc": {
				"kind": "user",
				"methods": {},
				"version": 1
			}
		}
	}
}