{
  "_format": "hh-sol-artifact-1",
  "contractName": "Burna",
  "sourceName": "contracts/Burna.sol",
  "abi": [
    {
      "inputs": [
        {
          "internalType": "address payable",
          "name": "_deth",
          "type": "address"
        },
        {
          "internalType": "uint256",
          "name": "_startTime",
          "type": "uint256"
        }
      ],
      "stateMutability": "nonpayable",
      "type": "constructor"
    },
    {
      "anonymous": false,
      "inputs": [
        {
          "indexed": false,
          "internalType": "uint256",
          "name": "_amount",
          "type": "uint256"
        },
        {
          "indexed": false,
          "internalType": "uint256",
          "name": "_time",
          "type": "uint256"
        }
      ],
      "name": "BurnerFunded",
      "type": "event"
    },
    {
      "anonymous": false,
      "inputs": [
        {
          "indexed": true,
          "internalType": "address",
          "name": "previousOwner",
          "type": "address"
        },
        {
          "indexed": true,
          "internalType": "address",
          "name": "newOwner",
          "type": "address"
        }
      ],
      "name": "OwnershipTransferred",
      "type": "event"
    },
    {
      "anonymous": false,
      "inputs": [
        {
          "indexed": false,
          "internalType": "uint256",
          "name": "_amount",
          "type": "uint256"
        },
        {
          "indexed": false,
          "internalType": "uint256",
          "name": "_time",
          "type": "uint256"
        }
      ],
      "name": "dethBurned",
      "type": "event"
    },
    {
      "inputs": [],
      "name": "burn",
      "outputs": [],
      "stateMutability": "nonpayable",
      "type": "function"
    },
    {
      "inputs": [],
      "name": "deadAddress",
      "outputs": [
        {
          "internalType": "address",
          "name": "",
          "type": "address"
        }
      ],
      "stateMutability": "view",
      "type": "function"
    },
    {
      "inputs": [],
      "name": "dethAddress",
      "outputs": [
        {
          "internalType": "address",
          "name": "",
          "type": "address"
        }
      ],
      "stateMutability": "view",
      "type": "function"
    },
    {
      "inputs": [],
      "name": "getDeadAddress",
      "outputs": [
        {
          "internalType": "address",
          "name": "",
          "type": "address"
        }
      ],
      "stateMutability": "view",
      "type": "function"
    },
    {
      "inputs": [],
      "name": "getDethAddress",
      "outputs": [
        {
          "internalType": "address",
          "name": "",
          "type": "address"
        }
      ],
      "stateMutability": "view",
      "type": "function"
    },
    {
      "inputs": [],
      "name": "getStartTime",
      "outputs": [
        {
          "internalType": "uint256",
          "name": "",
          "type": "uint256"
        }
      ],
      "stateMutability": "view",
      "type": "function"
    },
    {
      "inputs": [],
      "name": "getTotalBurned",
      "outputs": [
        {
          "internalType": "uint256",
          "name": "",
          "type": "uint256"
        }
      ],
      "stateMutability": "view",
      "type": "function"
    },
    {
      "inputs": [],
      "name": "lastTimeBurned",
      "outputs": [
        {
          "internalType": "uint256",
          "name": "",
          "type": "uint256"
        }
      ],
      "stateMutability": "view",
      "type": "function"
    },
    {
      "inputs": [],
      "name": "owner",
      "outputs": [
        {
          "internalType": "address",
          "name": "",
          "type": "address"
        }
      ],
      "stateMutability": "view",
      "type": "function"
    },
    {
      "inputs": [],
      "name": "pendingBurnAmount",
      "outputs": [
        {
          "internalType": "uint256",
          "name": "",
          "type": "uint256"
        }
      ],
      "stateMutability": "view",
      "type": "function"
    },
    {
      "inputs": [],
      "name": "renounceOwnership",
      "outputs": [],
      "stateMutability": "nonpayable",
      "type": "function"
    },
    {
      "inputs": [],
      "name": "startTime",
      "outputs": [
        {
          "internalType": "uint256",
          "name": "",
          "type": "uint256"
        }
      ],
      "stateMutability": "view",
      "type": "function"
    },
    {
      "inputs": [],
      "name": "totalBurned",
      "outputs": [
        {
          "internalType": "uint256",
          "name": "",
          "type": "uint256"
        }
      ],
      "stateMutability": "view",
      "type": "function"
    },
    {
      "inputs": [
        {
          "internalType": "address",
          "name": "newOwner",
          "type": "address"
        }
      ],
      "name": "transferOwnership",
      "outputs": [],
      "stateMutability": "nonpayable",
      "type": "function"
    }
  ],
  "bytecode": "0x60a06040526ddead000000000000000000000000608052600060045534801561002757600080fd5b506040516107903803806107908339818101604052604081101561004a57600080fd5b508051602090910151600061005d6100df565b600080546001600160a01b0319166001600160a01b0383169081178255604051929350917f8be0079c531659141344cd1fd0a4f28419497f9722a3daafe3b4186f6b6457e0908290a350600180546001600160a01b039093166001600160a01b03199384168117909155600280549093161790915560038190556005556100e3565b3390565b60805160601c61068661010a600039806101af528061029d528061044952506106866000f3fe608060405234801561001057600080fd5b50600436106100ea5760003560e01c8063b0feb1301161008c578063c889178411610066578063c88917841461016f578063cd066e4514610177578063d89135cd1461017f578063f2fde38b14610187576100ea565b8063b0feb13014610157578063b55cd04b1461015f578063c828371e14610167576100ea565b8063715018a6116100c8578063715018a61461013757806378e979251461013f5780638da5cb5b146101475780639020e6451461014f576100ea565b806327c8f835146100ef5780633d4b5cc61461011357806344df8e701461012d575b600080fd5b6100f76101ad565b604080516001600160a01b039092168252519081900360200190f35b61011b6101d1565b60408051918252519081900360200190f35b6101356101d7565b005b61013561036f565b61011b610423565b6100f7610429565b6100f7610438565b6100f7610447565b61011b61046b565b61011b610471565b61011b610477565b6100f7610484565b61011b6104de565b6101356004803603602081101561019d57600080fd5b50356001600160a01b03166104e4565b7f000000000000000000000000000000000000000000000000000000000000000081565b60055481565b6002546001600160a01b031661021e5760405162461bcd60e51b81526004018080602001828103825260388152602001806105f36038913960400191505060405180910390fd5b6003544211610274576040805162461bcd60e51b815260206004820152601960248201527f4275726e6572206973206e6f7420796574207374617274656400000000000000604482015290519081900360640190fd5b600061027e610477565b426005556001546040805163a9059cbb60e01b81526001600160a01b037f00000000000000000000000000000000000000000000000000000000000000008116600483015260248201859052915193945091169163a9059cbb916044808201926020929091908290030181600087803b1580156102fa57600080fd5b505af115801561030e573d6000803e3d6000fd5b505050506040513d602081101561032457600080fd5b5050600480548201905560055460408051838152602081019290925280517f9d7b6228054d3633be8cd708771f400e539e62d2df76aca71f3d8b0eb287eb249281900390910190a150565b6103776105ee565b6000546001600160a01b039081169116146103d9576040805162461bcd60e51b815260206004820181905260248201527f4f776e61626c653a2063616c6c6572206973206e6f7420746865206f776e6572604482015290519081900360640190fd5b600080546040516001600160a01b03909116907f8be0079c531659141344cd1fd0a4f28419497f9722a3daafe3b4186f6b6457e0908390a3600080546001600160a01b0319169055565b60035481565b6000546001600160a01b031690565b6002546001600160a01b031681565b7f000000000000000000000000000000000000000000000000000000000000000090565b60045490565b60035490565b600554420362f1ed300290565b6002546000906001600160a01b03166104ce5760405162461bcd60e51b81526004018080602001828103825260388152602001806105f36038913960400191505060405180910390fd5b506002546001600160a01b031690565b60045481565b6104ec6105ee565b6000546001600160a01b0390811691161461054e576040805162461bcd60e51b815260206004820181905260248201527f4f776e61626c653a2063616c6c6572206973206e6f7420746865206f776e6572604482015290519081900360640190fd5b6001600160a01b0381166105935760405162461bcd60e51b815260040180806020018281038252602681526020018061062b6026913960400191505060405180910390fd5b600080546040516001600160a01b03808516939216917f8be0079c531659141344cd1fd0a4f28419497f9722a3daafe3b4186f6b6457e091a3600080546001600160a01b0319166001600160a01b0392909216919091179055565b339056fe2e2e2e486f772064696420796f75206465706c6f7920776974686f75742073657474696e672074686520642e45544820616464726573733f4f776e61626c653a206e6577206f776e657220697320746865207a65726f2061646472657373a26469706673582212207c94471967ef0d2fc411797ba6bed797e20c45eca0b423be50fcb413364895da64736f6c634300060c0033",
  "linkReferences": {},
  "deployedLinkReferences": {}
}