{
  "_format": "hh-sol-artifact-1",
  "contractName": "UniswapV2Router02",
  "sourceName": "contracts/mock/UniswapV2Router02.sol",
  "abi": [
    {
      "inputs": [],
      "name": "WETH",
      "outputs": [
        {
          "internalType": "address",
          "name": "",
          "type": "address"
        }
      ],
      "stateMutability": "view",
      "type": "function"
    },
    {
      "inputs": [
        {
          "internalType": "address",
          "name": "tokenA",
          "type": "address"
        },
        {
          "internalType": "address",
          "name": "tokenB",
          "type": "address"
        },
        {
          "internalType": "uint256",
          "name": "amountADesired",
          "type": "uint256"
        },
        {
          "internalType": "uint256",
          "name": "amountBDesired",
          "type": "uint256"
        },
        {
          "internalType": "uint256",
          "name": "amountAMin",
          "type": "uint256"
        },
        {
          "internalType": "uint256",
          "name": "amountBMin",
          "type": "uint256"
        },
        {
          "internalType": "address",
          "name": "to",
          "type": "address"
        },
        {
          "internalType": "uint256",
          "name": "deadline",
          "type": "uint256"
        }
      ],
      "name": "addLiquidity",
      "outputs": [
        {
          "internalType": "uint256",
          "name": "amountA",
          "type": "uint256"
        },
        {
          "internalType": "uint256",
          "name": "amountB",
          "type": "uint256"
        },
        {
          "internalType": "uint256",
          "name": "liquidity",
          "type": "uint256"
        }
      ],
      "stateMutability": "nonpayable",
      "type": "function"
    },
    {
      "inputs": [
        {
          "internalType": "address",
          "name": "token",
          "type": "address"
        },
        {
          "internalType": "uint256",
          "name": "amountTokenDesired",
          "type": "uint256"
        },
        {
          "internalType": "uint256",
          "name": "amountTokenMin",
          "type": "uint256"
        },
        {
          "internalType": "uint256",
          "name": "amountETHMin",
          "type": "uint256"
        },
        {
          "internalType": "address",
          "name": "to",
          "type": "address"
        },
        {
          "internalType": "uint256",
          "name": "deadline",
          "type": "uint256"
        }
      ],
      "name": "addLiquidityETH",
      "outputs": [
        {
          "internalType": "uint256",
          "name": "amountToken",
          "type": "uint256"
        },
        {
          "internalType": "uint256",
          "name": "amountETH",
          "type": "uint256"
        },
        {
          "internalType": "uint256",
          "name": "liquidity",
          "type": "uint256"
        }
      ],
      "stateMutability": "payable",
      "type": "function"
    },
    {
      "inputs": [],
      "name": "factory",
      "outputs": [
        {
          "internalType": "address",
          "name": "",
          "type": "address"
        }
      ],
      "stateMutability": "view",
      "type": "function"
    },
    {
      "inputs": [
        {
          "internalType": "uint256",
          "name": "amountOut",
          "type": "uint256"
        },
        {
          "internalType": "uint256",
          "name": "reserveIn",
          "type": "uint256"
        },
        {
          "internalType": "uint256",
          "name": "reserveOut",
          "type": "uint256"
        }
      ],
      "name": "getAmountIn",
      "outputs": [
        {
          "internalType": "uint256",
          "name": "amountIn",
          "type": "uint256"
        }
      ],
      "stateMutability": "pure",
      "type": "function"
    },
    {
      "inputs": [
        {
          "internalType": "uint256",
          "name": "amountIn",
          "type": "uint256"
        },
        {
          "internalType": "uint256",
          "name": "reserveIn",
          "type": "uint256"
        },
        {
          "internalType": "uint256",
          "name": "reserveOut",
          "type": "uint256"
        }
      ],
      "name": "getAmountOut",
      "outputs": [
        {
          "internalType": "uint256",
          "name": "amountOut",
          "type": "uint256"
        }
      ],
      "stateMutability": "pure",
      "type": "function"
    },
    {
      "inputs": [
        {
          "internalType": "uint256",
          "name": "amountOut",
          "type": "uint256"
        },
        {
          "internalType": "address[]",
          "name": "path",
          "type": "address[]"
        }
      ],
      "name": "getAmountsIn",
      "outputs": [
        {
          "internalType": "uint256[]",
          "name": "amounts",
          "type": "uint256[]"
        }
      ],
      "stateMutability": "view",
      "type": "function"
    },
    {
      "inputs": [
        {
          "internalType": "uint256",
          "name": "amountIn",
          "type": "uint256"
        },
        {
          "internalType": "address[]",
          "name": "path",
          "type": "address[]"
        }
      ],
      "name": "getAmountsOut",
      "outputs": [
        {
          "internalType": "uint256[]",
          "name": "amounts",
          "type": "uint256[]"
        }
      ],
      "stateMutability": "view",
      "type": "function"
    },
    {
      "inputs": [
        {
          "internalType": "address",
          "name": "_factory",
          "type": "address"
        },
        {
          "internalType": "address",
          "name": "_WETH",
          "type": "address"
        }
      ],
      "name": "init",
      "outputs": [],
      "stateMutability": "nonpayable",
      "type": "function"
    },
    {
      "inputs": [
        {
          "internalType": "uint256",
          "name": "amountA",
          "type": "uint256"
        },
        {
          "internalType": "uint256",
          "name": "reserveA",
          "type": "uint256"
        },
        {
          "internalType": "uint256",
          "name": "reserveB",
          "type": "uint256"
        }
      ],
      "name": "quote",
      "outputs": [
        {
          "internalType": "uint256",
          "name": "amountB",
          "type": "uint256"
        }
      ],
      "stateMutability": "pure",
      "type": "function"
    },
    {
      "inputs": [
        {
          "internalType": "address",
          "name": "tokenA",
          "type": "address"
        },
        {
          "internalType": "address",
          "name": "tokenB",
          "type": "address"
        },
        {
          "internalType": "uint256",
          "name": "liquidity",
          "type": "uint256"
        },
        {
          "internalType": "uint256",
          "name": "amountAMin",
          "type": "uint256"
        },
        {
          "internalType": "uint256",
          "name": "amountBMin",
          "type": "uint256"
        },
        {
          "internalType": "address",
          "name": "to",
          "type": "address"
        },
        {
          "internalType": "uint256",
          "name": "deadline",
          "type": "uint256"
        }
      ],
      "name": "removeLiquidity",
      "outputs": [
        {
          "internalType": "uint256",
          "name": "amountA",
          "type": "uint256"
        },
        {
          "internalType": "uint256",
          "name": "amountB",
          "type": "uint256"
        }
      ],
      "stateMutability": "nonpayable",
      "type": "function"
    },
    {
      "inputs": [
        {
          "internalType": "address",
          "name": "token",
          "type": "address"
        },
        {
          "internalType": "uint256",
          "name": "liquidity",
          "type": "uint256"
        },
        {
          "internalType": "uint256",
          "name": "amountTokenMin",
          "type": "uint256"
        },
        {
          "internalType": "uint256",
          "name": "amountETHMin",
          "type": "uint256"
        },
        {
          "internalType": "address",
          "name": "to",
          "type": "address"
        },
        {
          "internalType": "uint256",
          "name": "deadline",
          "type": "uint256"
        }
      ],
      "name": "removeLiquidityETH",
      "outputs": [
        {
          "internalType": "uint256",
          "name": "amountToken",
          "type": "uint256"
        },
        {
          "internalType": "uint256",
          "name": "amountETH",
          "type": "uint256"
        }
      ],
      "stateMutability": "nonpayable",
      "type": "function"
    },
    {
      "inputs": [
        {
          "internalType": "address",
          "name": "token",
          "type": "address"
        },
        {
          "internalType": "uint256",
          "name": "liquidity",
          "type": "uint256"
        },
        {
          "internalType": "uint256",
          "name": "amountTokenMin",
          "type": "uint256"
        },
        {
          "internalType": "uint256",
          "name": "amountETHMin",
          "type": "uint256"
        },
        {
          "internalType": "address",
          "name": "to",
          "type": "address"
        },
        {
          "internalType": "uint256",
          "name": "deadline",
          "type": "uint256"
        }
      ],
      "name": "removeLiquidityETHSupportingFeeOnTransferTokens",
      "outputs": [
        {
          "internalType": "uint256",
          "name": "amountETH",
          "type": "uint256"
        }
      ],
      "stateMutability": "nonpayable",
      "type": "function"
    },
    {
      "inputs": [
        {
          "internalType": "address",
          "name": "token",
          "type": "address"
        },
        {
          "internalType": "uint256",
          "name": "liquidity",
          "type": "uint256"
        },
        {
          "internalType": "uint256",
          "name": "amountTokenMin",
          "type": "uint256"
        },
        {
          "internalType": "uint256",
          "name": "amountETHMin",
          "type": "uint256"
        },
        {
          "internalType": "address",
          "name": "to",
          "type": "address"
        },
        {
          "internalType": "uint256",
          "name": "deadline",
          "type": "uint256"
        },
        {
          "internalType": "bool",
          "name": "approveMax",
          "type": "bool"
        },
        {
          "internalType": "uint8",
          "name": "v",
          "type": "uint8"
        },
        {
          "internalType": "bytes32",
          "name": "r",
          "type": "bytes32"
        },
        {
          "internalType": "bytes32",
          "name": "s",
          "type": "bytes32"
        }
      ],
      "name": "removeLiquidityETHWithPermit",
      "outputs": [
        {
          "internalType": "uint256",
          "name": "amountToken",
          "type": "uint256"
        },
        {
          "internalType": "uint256",
          "name": "amountETH",
          "type": "uint256"
        }
      ],
      "stateMutability": "nonpayable",
      "type": "function"
    },
    {
      "inputs": [
        {
          "internalType": "address",
          "name": "token",
          "type": "address"
        },
        {
          "internalType": "uint256",
          "name": "liquidity",
          "type": "uint256"
        },
        {
          "internalType": "uint256",
          "name": "amountTokenMin",
          "type": "uint256"
        },
        {
          "internalType": "uint256",
          "name": "amountETHMin",
          "type": "uint256"
        },
        {
          "internalType": "address",
          "name": "to",
          "type": "address"
        },
        {
          "internalType": "uint256",
          "name": "deadline",
          "type": "uint256"
        },
        {
          "internalType": "bool",
          "name": "approveMax",
          "type": "bool"
        },
        {
          "internalType": "uint8",
          "name": "v",
          "type": "uint8"
        },
        {
          "internalType": "bytes32",
          "name": "r",
          "type": "bytes32"
        },
        {
          "internalType": "bytes32",
          "name": "s",
          "type": "bytes32"
        }
      ],
      "name": "removeLiquidityETHWithPermitSupportingFeeOnTransferTokens",
      "outputs": [
        {
          "internalType": "uint256",
          "name": "amountETH",
          "type": "uint256"
        }
      ],
      "stateMutability": "nonpayable",
      "type": "function"
    },
    {
      "inputs": [
        {
          "internalType": "address",
          "name": "tokenA",
          "type": "address"
        },
        {
          "internalType": "address",
          "name": "tokenB",
          "type": "address"
        },
        {
          "internalType": "uint256",
          "name": "liquidity",
          "type": "uint256"
        },
        {
          "internalType": "uint256",
          "name": "amountAMin",
          "type": "uint256"
        },
        {
          "internalType": "uint256",
          "name": "amountBMin",
          "type": "uint256"
        },
        {
          "internalType": "address",
          "name": "to",
          "type": "address"
        },
        {
          "internalType": "uint256",
          "name": "deadline",
          "type": "uint256"
        },
        {
          "internalType": "bool",
          "name": "approveMax",
          "type": "bool"
        },
        {
          "internalType": "uint8",
          "name": "v",
          "type": "uint8"
        },
        {
          "internalType": "bytes32",
          "name": "r",
          "type": "bytes32"
        },
        {
          "internalType": "bytes32",
          "name": "s",
          "type": "bytes32"
        }
      ],
      "name": "removeLiquidityWithPermit",
      "outputs": [
        {
          "internalType": "uint256",
          "name": "amountA",
          "type": "uint256"
        },
        {
          "internalType": "uint256",
          "name": "amountB",
          "type": "uint256"
        }
      ],
      "stateMutability": "nonpayable",
      "type": "function"
    },
    {
      "inputs": [
        {
          "internalType": "uint256",
          "name": "amountOut",
          "type": "uint256"
        },
        {
          "internalType": "address[]",
          "name": "path",
          "type": "address[]"
        },
        {
          "internalType": "address",
          "name": "to",
          "type": "address"
        },
        {
          "internalType": "uint256",
          "name": "deadline",
          "type": "uint256"
        }
      ],
      "name": "swapETHForExactTokens",
      "outputs": [
        {
          "internalType": "uint256[]",
          "name": "amounts",
          "type": "uint256[]"
        }
      ],
      "stateMutability": "payable",
      "type": "function"
    },
    {
      "inputs": [
        {
          "internalType": "uint256",
          "name": "amountOutMin",
          "type": "uint256"
        },
        {
          "internalType": "address[]",
          "name": "path",
          "type": "address[]"
        },
        {
          "internalType": "address",
          "name": "to",
          "type": "address"
        },
        {
          "internalType": "uint256",
          "name": "deadline",
          "type": "uint256"
        }
      ],
      "name": "swapExactETHForTokens",
      "outputs": [
        {
          "internalType": "uint256[]",
          "name": "amounts",
          "type": "uint256[]"
        }
      ],
      "stateMutability": "payable",
      "type": "function"
    },
    {
      "inputs": [
        {
          "internalType": "uint256",
          "name": "amountOutMin",
          "type": "uint256"
        },
        {
          "internalType": "address[]",
          "name": "path",
          "type": "address[]"
        },
        {
          "internalType": "address",
          "name": "to",
          "type": "address"
        },
        {
          "internalType": "uint256",
          "name": "deadline",
          "type": "uint256"
        }
      ],
      "name": "swapExactETHForTokensSupportingFeeOnTransferTokens",
      "outputs": [],
      "stateMutability": "payable",
      "type": "function"
    },
    {
      "inputs": [
        {
          "internalType": "uint256",
          "name": "amountIn",
          "type": "uint256"
        },
        {
          "internalType": "uint256",
          "name": "amountOutMin",
          "type": "uint256"
        },
        {
          "internalType": "address[]",
          "name": "path",
          "type": "address[]"
        },
        {
          "internalType": "address",
          "name": "to",
          "type": "address"
        },
        {
          "internalType": "uint256",
          "name": "deadline",
          "type": "uint256"
        }
      ],
      "name": "swapExactTokensForETH",
      "outputs": [
        {
          "internalType": "uint256[]",
          "name": "amounts",
          "type": "uint256[]"
        }
      ],
      "stateMutability": "nonpayable",
      "type": "function"
    },
    {
      "inputs": [
        {
          "internalType": "uint256",
          "name": "amountIn",
          "type": "uint256"
        },
        {
          "internalType": "uint256",
          "name": "amountOutMin",
          "type": "uint256"
        },
        {
          "internalType": "address[]",
          "name": "path",
          "type": "address[]"
        },
        {
          "internalType": "address",
          "name": "to",
          "type": "address"
        },
        {
          "internalType": "uint256",
          "name": "deadline",
          "type": "uint256"
        }
      ],
      "name": "swapExactTokensForETHSupportingFeeOnTransferTokens",
      "outputs": [],
      "stateMutability": "nonpayable",
      "type": "function"
    },
    {
      "inputs": [
        {
          "internalType": "uint256",
          "name": "amountIn",
          "type": "uint256"
        },
        {
          "internalType": "uint256",
          "name": "amountOutMin",
          "type": "uint256"
        },
        {
          "internalType": "address[]",
          "name": "path",
          "type": "address[]"
        },
        {
          "internalType": "address",
          "name": "to",
          "type": "address"
        },
        {
          "internalType": "uint256",
          "name": "deadline",
          "type": "uint256"
        }
      ],
      "name": "swapExactTokensForTokens",
      "outputs": [
        {
          "internalType": "uint256[]",
          "name": "amounts",
          "type": "uint256[]"
        }
      ],
      "stateMutability": "nonpayable",
      "type": "function"
    },
    {
      "inputs": [
        {
          "internalType": "uint256",
          "name": "amountIn",
          "type": "uint256"
        },
        {
          "internalType": "uint256",
          "name": "amountOutMin",
          "type": "uint256"
        },
        {
          "internalType": "address[]",
          "name": "path",
          "type": "address[]"
        },
        {
          "internalType": "address",
          "name": "to",
          "type": "address"
        },
        {
          "internalType": "uint256",
          "name": "deadline",
          "type": "uint256"
        }
      ],
      "name": "swapExactTokensForTokensSupportingFeeOnTransferTokens",
      "outputs": [],
      "stateMutability": "nonpayable",
      "type": "function"
    },
    {
      "inputs": [
        {
          "internalType": "uint256",
          "name": "amountOut",
          "type": "uint256"
        },
        {
          "internalType": "uint256",
          "name": "amountInMax",
          "type": "uint256"
        },
        {
          "internalType": "address[]",
          "name": "path",
          "type": "address[]"
        },
        {
          "internalType": "address",
          "name": "to",
          "type": "address"
        },
        {
          "internalType": "uint256",
          "name": "deadline",
          "type": "uint256"
        }
      ],
      "name": "swapTokensForExactETH",
      "outputs": [
        {
          "internalType": "uint256[]",
          "name": "amounts",
          "type": "uint256[]"
        }
      ],
      "stateMutability": "nonpayable",
      "type": "function"
    },
    {
      "inputs": [
        {
          "internalType": "uint256",
          "name": "amountOut",
          "type": "uint256"
        },
        {
          "internalType": "uint256",
          "name": "amountInMax",
          "type": "uint256"
        },
        {
          "internalType": "address[]",
          "name": "path",
          "type": "address[]"
        },
        {
          "internalType": "address",
          "name": "to",
          "type": "address"
        },
        {
          "internalType": "uint256",
          "name": "deadline",
          "type": "uint256"
        }
      ],
      "name": "swapTokensForExactTokens",
      "outputs": [
        {
          "internalType": "uint256[]",
          "name": "amounts",
          "type": "uint256[]"
        }
      ],
      "stateMutability": "nonpayable",
      "type": "function"
    },
    {
      "stateMutability": "payable",
      "type": "receive"
    }
  ],
  "bytecode": "0x60806040526001805460ff60a01b1916905534801561001d57600080fd5b50613fcc8061002d6000396000f3fe60806040526004361061016a5760003560e01c80638803dbee116100d1578063c45a01551161008a578063e8e3370011610064578063e8e3370014610b4a578063f09a401614610bca578063f305d71914610c05578063fb3bdb4114610c4b57610185565b8063c45a015514610a0d578063d06ca61f14610a22578063ded9382a14610ad757610185565b80638803dbee146107dc578063ad5c464814610872578063ad615dec146108a3578063af2979eb146108d9578063b6f9de951461092c578063baa2abde146109b057610185565b80634a25d94a116101235780634a25d94a146104ed5780635b0d5984146105835780635c11d795146105f6578063791ac9471461068c5780637ff36ab51461072257806385f8c259146107a657610185565b806302751cec1461018a578063054d50d4146101f657806318cbafe51461023e5780631f00ca74146103245780632195995c146103d957806338ed17391461045757610185565b36610185576001546001600160a01b0316331461018357fe5b005b600080fd5b34801561019657600080fd5b506101dd600480360360c08110156101ad57600080fd5b506001600160a01b0381358116916020810135916040820135916060810135916080820135169060a00135610ccf565b6040805192835260208301919091528051918290030190f35b34801561020257600080fd5b5061022c6004803603606081101561021957600080fd5b5080359060208101359060400135610db9565b60408051918252519081900360200190f35b34801561024a57600080fd5b506102d4600480360360a081101561026157600080fd5b813591602081013591810190606081016040820135600160201b81111561028757600080fd5b82018360208201111561029957600080fd5b803590602001918460208302840111600160201b831117156102ba57600080fd5b91935091506001600160a01b038135169060200135610dce565b60408051602080825283518183015283519192839290830191858101910280838360005b838110156103105781810151838201526020016102f8565b505050509050019250505060405180910390f35b34801561033057600080fd5b506102d46004803603604081101561034757600080fd5b81359190810190604081016020820135600160201b81111561036857600080fd5b82018360208201111561037a57600080fd5b803590602001918460208302840111600160201b8311171561039b57600080fd5b9190808060200260200160405190810160405280939291908181526020018383602002808284376000920191909152509295506110a5945050505050565b3480156103e557600080fd5b506101dd60048036036101608110156103fd57600080fd5b506001600160a01b038135811691602081013582169160408201359160608101359160808201359160a08101359091169060c08101359060e081013515159060ff61010082013516906101208101359061014001356110c8565b34801561046357600080fd5b506102d4600480360360a081101561047a57600080fd5b813591602081013591810190606081016040820135600160201b8111156104a057600080fd5b8201836020820111156104b257600080fd5b803590602001918460208302840111600160201b831117156104d357600080fd5b91935091506001600160a01b0381351690602001356111ae565b3480156104f957600080fd5b506102d4600480360360a081101561051057600080fd5b813591602081013591810190606081016040820135600160201b81111561053657600080fd5b82018360208201111561054857600080fd5b803590602001918460208302840111600160201b8311171561056957600080fd5b91935091506001600160a01b0381351690602001356112e5565b34801561058f57600080fd5b5061022c60048036036101408110156105a757600080fd5b506001600160a01b0381358116916020810135916040820135916060810135916080820135169060a08101359060c081013515159060ff60e0820135169061010081013590610120013561144b565b34801561060257600080fd5b50610183600480360360a081101561061957600080fd5b813591602081013591810190606081016040820135600160201b81111561063f57600080fd5b82018360208201111561065157600080fd5b803590602001918460208302840111600160201b8311171561067257600080fd5b91935091506001600160a01b03813516906020013561152c565b34801561069857600080fd5b50610183600480360360a08110156106af57600080fd5b813591602081013591810190606081016040820135600160201b8111156106d557600080fd5b8201836020820111156106e757600080fd5b803590602001918460208302840111600160201b8311171561070857600080fd5b91935091506001600160a01b03813516906020013561179c565b6102d46004803603608081101561073857600080fd5b81359190810190604081016020820135600160201b81111561075957600080fd5b82018360208201111561076b57600080fd5b803590602001918460208302840111600160201b8311171561078c57600080fd5b91935091506001600160a01b0381351690602001356119cb565b3480156107b257600080fd5b5061022c600480360360608110156107c957600080fd5b5080359060208101359060400135611c94565b3480156107e857600080fd5b506102d4600480360360a08110156107ff57600080fd5b813591602081013591810190606081016040820135600160201b81111561082557600080fd5b82018360208201111561083757600080fd5b803590602001918460208302840111600160201b8311171561085857600080fd5b91935091506001600160a01b038135169060200135611ca1565b34801561087e57600080fd5b50610887611d91565b604080516001600160a01b039092168252519081900360200190f35b3480156108af57600080fd5b5061022c600480360360608110156108c657600080fd5b5080359060208101359060400135611da0565b3480156108e557600080fd5b5061022c600480360360c08110156108fc57600080fd5b506001600160a01b0381358116916020810135916040820135916060810135916080820135169060a00135611dad565b6101836004803603608081101561094257600080fd5b81359190810190604081016020820135600160201b81111561096357600080fd5b82018360208201111561097557600080fd5b803590602001918460208302840111600160201b8311171561099657600080fd5b91935091506001600160a01b038135169060200135611f03565b3480156109bc57600080fd5b506101dd600480360360e08110156109d357600080fd5b506001600160a01b038135811691602081013582169160408201359160608101359160808201359160a08101359091169060c00135612205565b348015610a1957600080fd5b5061088761244c565b348015610a2e57600080fd5b506102d460048036036040811015610a4557600080fd5b81359190810190604081016020820135600160201b811115610a6657600080fd5b820183602082011115610a7857600080fd5b803590602001918460208302840111600160201b83111715610a9957600080fd5b91908080602002602001604051908101604052809392919081815260200183836020028082843760009201919091525092955061245b945050505050565b348015610ae357600080fd5b506101dd6004803603610140811015610afb57600080fd5b506001600160a01b0381358116916020810135916040820135916060810135916080820135169060a08101359060c081013515159060ff60e08201351690610100810135906101200135612475565b348015610b5657600080fd5b50610bac6004803603610100811015610b6e57600080fd5b506001600160a01b038135811691602081013582169160408201359160608101359160808201359160a08101359160c0820135169060e00135612571565b60408051938452602084019290925282820152519081900360600190f35b348015610bd657600080fd5b5061018360048036036040811015610bed57600080fd5b506001600160a01b038135811691602001351661268d565b610bac600480360360c0811015610c1b57600080fd5b506001600160a01b0381358116916020810135916040820135916060810135916080820135169060a001356126e3565b6102d460048036036080811015610c6157600080fd5b81359190810190604081016020820135600160201b811115610c8257600080fd5b820183602082011115610c9457600080fd5b803590602001918460208302840111600160201b83111715610cb557600080fd5b91935091506001600160a01b038135169060200135612905565b6000808242811015610d12576040805162461bcd60e51b81526020600482015260076024820152661156141254915160ca1b604482015290519081900360640190fd5b600154610d2e908a906001600160a01b03168a8a8a308a612205565b9093509150610d3e898685612c08565b60015460408051632e1a7d4d60e01b81526004810185905290516001600160a01b0390921691632e1a7d4d9160248082019260009290919082900301818387803b158015610d8b57600080fd5b505af1158015610d9f573d6000803e3d6000fd5b50505050610dad8583612d64565b50965096945050505050565b6000610dc6848484612e68565b949350505050565b60608142811015610e10576040805162461bcd60e51b81526020600482015260076024820152661156141254915160ca1b604482015290519081900360640190fd5b6001546001600160a01b031686866000198101818110610e2c57fe5b905060200201356001600160a01b03166001600160a01b031614610e86576040805162461bcd60e51b815260206004820152600c60248201526b0929cac82989288bea082a8960a31b604482015290519081900360640190fd5b6000546040805160208089028281018201909352888252610ed0936001600160a01b0316928c92918b918b91829190850190849080828437600092019190915250612f6592505050565b91508682600184510381518110610ee357fe5b60200260200101511015610f2c576040805162461bcd60e51b815260206004820152601a6024820152600080516020613f77833981519152604482015290519081900360640190fd5b610fbd86866000818110610f3c57fe5b905060200201356001600160a01b031633610fa360008054906101000a90046001600160a01b03168a8a6000818110610f7157fe5b905060200201356001600160a01b03168b8b6001818110610f8e57fe5b905060200201356001600160a01b03166130a0565b85600081518110610fb057fe5b6020026020010151613160565b610ffc828787808060200260200160405190810160405280939291908181526020018383602002808284376000920191909152503092506132ca915050565b60015482516001600160a01b0390911690632e1a7d4d908490600019810190811061102357fe5b60200260200101516040518263ffffffff1660e01b815260040180828152602001915050600060405180830381600087803b15801561106157600080fd5b505af1158015611075573d6000803e3d6000fd5b5050505061109a848360018551038151811061108d57fe5b6020026020010151612d64565b509695505050505050565b6000546060906110bf906001600160a01b031684846134e4565b90505b92915050565b60008054819081906110e4906001600160a01b03168f8f6130a0565b90506000876110f3578c6110f7565b6000195b6040805163d505accf60e01b815233600482015230602482015260448101839052606481018c905260ff8a16608482015260a4810189905260c4810188905290519192506001600160a01b0384169163d505accf9160e48082019260009290919082900301818387803b15801561116d57600080fd5b505af1158015611181573d6000803e3d6000fd5b505050506111948f8f8f8f8f8f8f612205565b809450819550505050509b509b9950505050505050505050565b606081428110156111f0576040805162461bcd60e51b81526020600482015260076024820152661156141254915160ca1b604482015290519081900360640190fd5b600054604080516020808902828101820190935288825261123a936001600160a01b0316928c92918b918b91829190850190849080828437600092019190915250612f6592505050565b9150868260018451038151811061124d57fe5b60200260200101511015611296576040805162461bcd60e51b815260206004820152601a6024820152600080516020613f77833981519152604482015290519081900360640190fd5b6112a686866000818110610f3c57fe5b61109a828787808060200260200160405190810160405280939291908181526020018383602002808284376000920191909152508992506132ca915050565b60608142811015611327576040805162461bcd60e51b81526020600482015260076024820152661156141254915160ca1b604482015290519081900360640190fd5b6001546001600160a01b03168686600019810181811061134357fe5b905060200201356001600160a01b03166001600160a01b03161461139d576040805162461bcd60e51b815260206004820152600c60248201526b0929cac82989288bea082a8960a31b604482015290519081900360640190fd5b60005460408051602080890282810182019093528882526113e7936001600160a01b0316928c92918b918b918291908501908490808284376000920191909152506134e492505050565b915086826000815181106113f757fe5b60200260200101511115610f2c576040805162461bcd60e51b8152602060048201526016602482015275115610d154d4d2559157d25394155517d05353d5539560521b604482015290519081900360640190fd5b60008054600154829161146c916001600160a01b03918216918f91166130a0565b905060008661147b578b61147f565b6000195b6040805163d505accf60e01b815233600482015230602482015260448101839052606481018b905260ff8916608482015260a4810188905260c4810187905290519192506001600160a01b0384169163d505accf9160e48082019260009290919082900301818387803b1580156114f557600080fd5b505af1158015611509573d6000803e3d6000fd5b5050505061151b8d8d8d8d8d8d611dad565b9d9c50505050505050505050505050565b804281101561156c576040805162461bcd60e51b81526020600482015260076024820152661156141254915160ca1b604482015290519081900360640190fd5b6115d48585600081811061157c57fe5b905060200201356001600160a01b0316336115ce60008054906101000a90046001600160a01b0316898960008181106115b157fe5b905060200201356001600160a01b03168a8a6001818110610f8e57fe5b8a613160565b6000858560001981018181106115e657fe5b905060200201356001600160a01b03166001600160a01b03166370a08231856040518263ffffffff1660e01b815260040180826001600160a01b0316815260200191505060206040518083038186803b15801561164257600080fd5b505afa158015611656573d6000803e3d6000fd5b505050506040513d602081101561166c57600080fd5b505160408051602088810282810182019093528882529293506116ae92909189918991829185019084908082843760009201919091525088925061360b915050565b8661175182888860001981018181106116c357fe5b905060200201356001600160a01b03166001600160a01b03166370a08231886040518263ffffffff1660e01b815260040180826001600160a01b0316815260200191505060206040518083038186803b15801561171f57600080fd5b505afa158015611733573d6000803e3d6000fd5b505050506040513d602081101561174957600080fd5b5051906138ea565b1015611792576040805162461bcd60e51b815260206004820152601a6024820152600080516020613f77833981519152604482015290519081900360640190fd5b5050505050505050565b80428110156117dc576040805162461bcd60e51b81526020600482015260076024820152661156141254915160ca1b604482015290519081900360640190fd5b6001546001600160a01b0316858560001981018181106117f857fe5b905060200201356001600160a01b03166001600160a01b031614611852576040805162461bcd60e51b815260206004820152600c60248201526b0929cac82989288bea082a8960a31b604482015290519081900360640190fd5b6118628585600081811061157c57fe5b6118a085858080602002602001604051908101604052809392919081815260200183836020028082843760009201919091525030925061360b915050565b600154604080516370a0823160e01b815230600482015290516000926001600160a01b0316916370a08231916024808301926020929190829003018186803b1580156118eb57600080fd5b505afa1580156118ff573d6000803e3d6000fd5b505050506040513d602081101561191557600080fd5b505190508681101561195c576040805162461bcd60e51b815260206004820152601a6024820152600080516020613f77833981519152604482015290519081900360640190fd5b60015460408051632e1a7d4d60e01b81526004810184905290516001600160a01b0390921691632e1a7d4d9160248082019260009290919082900301818387803b1580156119a957600080fd5b505af11580156119bd573d6000803e3d6000fd5b505050506117928482612d64565b60608142811015611a0d576040805162461bcd60e51b81526020600482015260076024820152661156141254915160ca1b604482015290519081900360640190fd5b6001546001600160a01b03168686600081611a2457fe5b905060200201356001600160a01b03166001600160a01b031614611a7e576040805162461bcd60e51b815260206004820152600c60248201526b0929cac82989288bea082a8960a31b604482015290519081900360640190fd5b6000546040805160208089028281018201909352888252611ac8936001600160a01b0316923492918b918b91829190850190849080828437600092019190915250612f6592505050565b91508682600184510381518110611adb57fe5b60200260200101511015611b24576040805162461bcd60e51b815260206004820152601a6024820152600080516020613f77833981519152604482015290519081900360640190fd5b60015482516001600160a01b039091169063d0e30db0908490600090611b4657fe5b60200260200101516040518263ffffffff1660e01b81526004016000604051808303818588803b158015611b7957600080fd5b505af1158015611b8d573d6000803e3d6000fd5b5050600154600080546001600160a01b03928316955063a9059cbb9450611bbe9350909116908a908a90816115b157fe5b84600081518110611bcb57fe5b60200260200101516040518363ffffffff1660e01b815260040180836001600160a01b0316815260200182815260200192505050602060405180830381600087803b158015611c1957600080fd5b505af1158015611c2d573d6000803e3d6000fd5b505050506040513d6020811015611c4357600080fd5b5051611c4b57fe5b611c8a828787808060200260200160405190810160405280939291908181526020018383602002808284376000920191909152508992506132ca915050565b5095945050505050565b6000610dc684848461393a565b60608142811015611ce3576040805162461bcd60e51b81526020600482015260076024820152661156141254915160ca1b604482015290519081900360640190fd5b6000546040805160208089028281018201909352888252611d2d936001600160a01b0316928c92918b918b918291908501908490808284376000920191909152506134e492505050565b91508682600081518110611d3d57fe5b60200260200101511115611296576040805162461bcd60e51b8152602060048201526016602482015275115610d154d4d2559157d25394155517d05353d5539560521b604482015290519081900360640190fd5b6001546001600160a01b031681565b6000610dc6848484613a25565b60008142811015611def576040805162461bcd60e51b81526020600482015260076024820152661156141254915160ca1b604482015290519081900360640190fd5b600154611e0b9089906001600160a01b03168989893089612205565b905080925050611e9488858a6001600160a01b03166370a08231306040518263ffffffff1660e01b815260040180826001600160a01b0316815260200191505060206040518083038186803b158015611e6357600080fd5b505afa158015611e77573d6000803e3d6000fd5b505050506040513d6020811015611e8d57600080fd5b5051612c08565b60015460408051632e1a7d4d60e01b81526004810185905290516001600160a01b0390921691632e1a7d4d9160248082019260009290919082900301818387803b158015611ee157600080fd5b505af1158015611ef5573d6000803e3d6000fd5b5050505061109a8483612d64565b8042811015611f43576040805162461bcd60e51b81526020600482015260076024820152661156141254915160ca1b604482015290519081900360640190fd5b6001546001600160a01b03168585600081611f5a57fe5b905060200201356001600160a01b03166001600160a01b031614611fb4576040805162461bcd60e51b815260206004820152600c60248201526b0929cac82989288bea082a8960a31b604482015290519081900360640190fd5b60015460408051630d0e30db60e41b8152905134926001600160a01b03169163d0e30db091849160048082019260009290919082900301818588803b158015611ffc57600080fd5b505af1158015612010573d6000803e3d6000fd5b5050600154600080546001600160a01b03928316955063a9059cbb94506120419350909116908a908a90816115b157fe5b836040518363ffffffff1660e01b815260040180836001600160a01b0316815260200182815260200192505050602060405180830381600087803b15801561208857600080fd5b505af115801561209c573d6000803e3d6000fd5b505050506040513d60208110156120b257600080fd5b50516120ba57fe5b6000868660001981018181106120cc57fe5b905060200201356001600160a01b03166001600160a01b03166370a08231866040518263ffffffff1660e01b815260040180826001600160a01b0316815260200191505060206040518083038186803b15801561212857600080fd5b505afa15801561213c573d6000803e3d6000fd5b505050506040513d602081101561215257600080fd5b505160408051602089810282810182019093528982529293506121949290918a918a91829185019084908082843760009201919091525089925061360b915050565b8761175182898960001981018181106121a957fe5b905060200201356001600160a01b03166001600160a01b03166370a08231896040518263ffffffff1660e01b815260040180826001600160a01b0316815260200191505060206040518083038186803b15801561171f57600080fd5b6000808242811015612248576040805162461bcd60e51b81526020600482015260076024820152661156141254915160ca1b604482015290519081900360640190fd5b60008054612260906001600160a01b03168c8c6130a0565b604080516323b872dd60e01b81523360048201526001600160a01b03831660248201819052604482018d9052915192935090916323b872dd916064808201926020929091908290030181600087803b1580156122bb57600080fd5b505af11580156122cf573d6000803e3d6000fd5b505050506040513d60208110156122e557600080fd5b50506040805163226bf2d160e21b81526001600160a01b03888116600483015282516000938493928616926389afcb44926024808301939282900301818787803b15801561233257600080fd5b505af1158015612346573d6000803e3d6000fd5b505050506040513d604081101561235c57600080fd5b508051602090910151909250905060006123768e8e613ae6565b509050806001600160a01b03168e6001600160a01b03161461239957818361239c565b82825b90975095508a8710156123ee576040805162461bcd60e51b8152602060048201526015602482015274125394d551919250d251539517d057d05353d55395605a1b604482015290519081900360640190fd5b8986101561243b576040805162461bcd60e51b8152602060048201526015602482015274125394d551919250d251539517d097d05353d55395605a1b604482015290519081900360640190fd5b505050505097509795505050505050565b6000546001600160a01b031681565b6000546060906110bf906001600160a01b03168484612f65565b60008060006124ad60008054906101000a90046001600160a01b03168e600160009054906101000a90046001600160a01b03166130a0565b90506000876124bc578c6124c0565b6000195b6040805163d505accf60e01b815233600482015230602482015260448101839052606481018c905260ff8a16608482015260a4810189905260c4810188905290519192506001600160a01b0384169163d505accf9160e48082019260009290919082900301818387803b15801561253657600080fd5b505af115801561254a573d6000803e3d6000fd5b5050505061255c8e8e8e8e8e8e610ccf565b909f909e509c50505050505050505050505050565b600080600083428110156125b6576040805162461bcd60e51b81526020600482015260076024820152661156141254915160ca1b604482015290519081900360640190fd5b6125c48c8c8c8c8c8c613bbf565b60008054929650909450906125e3906001600160a01b03168e8e6130a0565b90506125f18d338388613160565b6125fd8c338387613160565b806001600160a01b0316636a627842886040518263ffffffff1660e01b815260040180826001600160a01b03168152602001915050602060405180830381600087803b15801561264c57600080fd5b505af1158015612660573d6000803e3d6000fd5b505050506040513d602081101561267657600080fd5b5051949d939c50939a509198505050505050505050565b600154600160a01b900460ff16156126a457600080fd5b60018054600080546001600160a01b03199081166001600160a01b0396871617909155600160a01b60ff60a01b19909216919091171691909216179055565b60008060008342811015612728576040805162461bcd60e51b81526020600482015260076024820152661156141254915160ca1b604482015290519081900360640190fd5b600154612743908b906001600160a01b03168b348c8c613bbf565b6000805460015493975091955091612769916001600160a01b03908116918e91166130a0565b90506127778b338388613160565b600160009054906101000a90046001600160a01b03166001600160a01b031663d0e30db0856040518263ffffffff1660e01b81526004016000604051808303818588803b1580156127c757600080fd5b505af11580156127db573d6000803e3d6000fd5b50506001546040805163a9059cbb60e01b81526001600160a01b038781166004830152602482018b9052915191909216945063a9059cbb9350604480830193506020928290030181600087803b15801561283457600080fd5b505af1158015612848573d6000803e3d6000fd5b505050506040513d602081101561285e57600080fd5b505161286657fe5b806001600160a01b0316636a627842886040518263ffffffff1660e01b815260040180826001600160a01b03168152602001915050602060405180830381600087803b1580156128b557600080fd5b505af11580156128c9573d6000803e3d6000fd5b505050506040513d60208110156128df57600080fd5b50519250348410156128f7576128f733853403612d64565b505096509650969350505050565b60608142811015612947576040805162461bcd60e51b81526020600482015260076024820152661156141254915160ca1b604482015290519081900360640190fd5b6001546001600160a01b0316868660008161295e57fe5b905060200201356001600160a01b03166001600160a01b0316146129b8576040805162461bcd60e51b815260206004820152600c60248201526b0929cac82989288bea082a8960a31b604482015290519081900360640190fd5b6000546040805160208089028281018201909352888252612a02936001600160a01b0316928b92918b918b918291908501908490808284376000920191909152506134e492505050565b91503482600081518110612a1257fe5b60200260200101511115612a66576040805162461bcd60e51b8152602060048201526016602482015275115610d154d4d2559157d25394155517d05353d5539560521b604482015290519081900360640190fd5b60015482516001600160a01b039091169063d0e30db0908490600090612a8857fe5b60200260200101516040518263ffffffff1660e01b81526004016000604051808303818588803b158015612abb57600080fd5b505af1158015612acf573d6000803e3d6000fd5b5050600154600080546001600160a01b03928316955063a9059cbb9450612b009350909116908a908a90816115b157fe5b84600081518110612b0d57fe5b60200260200101516040518363ffffffff1660e01b815260040180836001600160a01b0316815260200182815260200192505050602060405180830381600087803b158015612b5b57600080fd5b505af1158015612b6f573d6000803e3d6000fd5b505050506040513d6020811015612b8557600080fd5b5051612b8d57fe5b612bcc828787808060200260200160405190810160405280939291908181526020018383602002808284376000920191909152508992506132ca915050565b81600081518110612bd957fe5b6020026020010151341115611c8a57611c8a3383600081518110612bf957fe5b60200260200101513403612d64565b604080516001600160a01b038481166024830152604480830185905283518084039091018152606490920183526020820180516001600160e01b031663a9059cbb60e01b178152925182516000946060949389169392918291908083835b60208310612c855780518252601f199092019160209182019101612c66565b6001836020036101000a0380198251168184511680821785525050505050509050019150506000604051808303816000865af19150503d8060008114612ce7576040519150601f19603f3d011682016040523d82523d6000602084013e612cec565b606091505b5091509150818015612d1a575080511580612d1a5750808060200190516020811015612d1757600080fd5b50515b612d5d576040805162461bcd60e51b815260206004820152600f60248201526e1514905394d1915497d19052531151608a1b604482015290519081900360640190fd5b5050505050565b604080516000808252602082019092526001600160a01b0384169083906040518082805190602001908083835b60208310612db05780518252601f199092019160209182019101612d91565b6001836020036101000a03801982511681845116808217855250505050505090500191505060006040518083038185875af1925050503d8060008114612e12576040519150601f19603f3d011682016040523d82523d6000602084013e612e17565b606091505b5050905080612e63576040805162461bcd60e51b81526020600482015260136024820152721094d0d7d514905394d1915497d19052531151606a1b604482015290519081900360640190fd5b505050565b6000808411612ebe576040805162461bcd60e51b815260206004820152601960248201527f494e53554646494349454e545f494e5055545f414d4f554e5400000000000000604482015290519081900360640190fd5b600083118015612ece5750600082115b612f18576040805162461bcd60e51b8152602060048201526016602482015275494e53554646494349454e545f4c495155494449545960501b604482015290519081900360640190fd5b6000612f26856103e5613dfd565b90506000612f348285613dfd565b90506000612f4e83612f48886103e8613dfd565b90613e60565b9050808281612f5957fe5b04979650505050505050565b6060600282511015612fad576040805162461bcd60e51b815260206004820152600c60248201526b0929cac82989288bea082a8960a31b604482015290519081900360640190fd5b815167ffffffffffffffff81118015612fc557600080fd5b50604051908082528060200260200182016040528015612fef578160200160208202803683370190505b509050828160008151811061300057fe5b60200260200101818152505060005b6001835103811015613098576000806130528786858151811061302e57fe5b602002602001015187866001018151811061304557fe5b6020026020010151613eaf565b9150915061307484848151811061306557fe5b60200260200101518383612e68565b84846001018151811061308357fe5b6020908102919091010152505060010161300f565b509392505050565b60008060006130af8585613ae6565b604080516bffffffffffffffffffffffff19606094851b811660208084019190915293851b81166034830152825160288184030181526048830184528051908501206001600160f81b031960688401529a90941b9093166069840152607d8301989098527f41c1374822b8d1b49dde266fe3d844a18b94d9414f4bb5558e0ef971c33d54b3609d808401919091528851808403909101815260bd909201909752805196019590952095945050505050565b604080516001600160a01b0385811660248301528481166044830152606480830185905283518084039091018152608490920183526020820180516001600160e01b03166323b872dd60e01b17815292518251600094606094938a169392918291908083835b602083106131e55780518252601f1990920191602091820191016131c6565b6001836020036101000a0380198251168184511680821785525050505050509050019150506000604051808303816000865af19150503d8060008114613247576040519150601f19603f3d011682016040523d82523d6000602084013e61324c565b606091505b509150915081801561327a57508051158061327a575080806020019051602081101561327757600080fd5b50515b6132c2576040805162461bcd60e51b81526020600482015260146024820152731514905394d1915497d19493d357d1905253115160621b604482015290519081900360640190fd5b505050505050565b60005b60018351038110156134de576000808483815181106132e857fe5b60200260200101518584600101815181106132ff57fe5b60200260200101519150915060006133178383613ae6565b509050600087856001018151811061332b57fe5b60200260200101519050600080836001600160a01b0316866001600160a01b0316146133595782600061335d565b6000835b91509150600060028a5103881061337457886133a5565b6000548a516133a5916001600160a01b03169088908d9060028d0190811061339857fe5b60200260200101516130a0565b6000549091506133bf906001600160a01b031688886130a0565b6001600160a01b031663022c0d9f84848460006040519080825280601f01601f1916602001820160405280156133fc576020820181803683370190505b506040518563ffffffff1660e01b815260040180858152602001848152602001836001600160a01b0316815260200180602001828103825283818151815260200191508051906020019080838360005b8381101561346457818101518382015260200161344c565b50505050905090810190601f1680156134915780820380516001836020036101000a031916815260200191505b5095505050505050600060405180830381600087803b1580156134b357600080fd5b505af11580156134c7573d6000803e3d6000fd5b5050600190990198506132cd975050505050505050565b50505050565b606060028251101561352c576040805162461bcd60e51b815260206004820152600c60248201526b0929cac82989288bea082a8960a31b604482015290519081900360640190fd5b815167ffffffffffffffff8111801561354457600080fd5b5060405190808252806020026020018201604052801561356e578160200160208202803683370190505b509050828160018351038151811061358257fe5b60209081029190910101528151600019015b8015613098576000806135c4878660018603815181106135b057fe5b602002602001015187868151811061304557fe5b915091506135e68484815181106135d757fe5b6020026020010151838361393a565b8460018503815181106135f557fe5b6020908102919091010152505060001901613594565b60005b6001835103811015612e635760008084838151811061362957fe5b602002602001015185846001018151811061364057fe5b60200260200101519150915060006136588383613ae6565b506000805491925090613675906001600160a01b031685856130a0565b9050600080600080846001600160a01b0316630902f1ac6040518163ffffffff1660e01b815260040160606040518083038186803b1580156136b657600080fd5b505afa1580156136ca573d6000803e3d6000fd5b505050506040513d60608110156136e057600080fd5b5080516020909101516001600160701b0391821693501690506000806001600160a01b038a811690891614613716578284613719565b83835b9150915061376e828b6001600160a01b03166370a082318a6040518263ffffffff1660e01b815260040180826001600160a01b0316815260200191505060206040518083038186803b15801561171f57600080fd5b955061377b868383612e68565b945050505050600080856001600160a01b0316886001600160a01b0316146137a5578260006137a9565b6000835b91509150600060028c51038a106137c0578a6137e4565b6000548c516137e4916001600160a01b0316908a908f9060028f0190811061339857fe5b604080516000808252602082019283905263022c0d9f60e01b835260248201878152604483018790526001600160a01b038086166064850152608060848501908152845160a48601819052969750908c169563022c0d9f958a958a958a9591949193919260c486019290918190849084905b8381101561386e578181015183820152602001613856565b50505050905090810190601f16801561389b5780820380516001836020036101000a031916815260200191505b5095505050505050600060405180830381600087803b1580156138bd57600080fd5b505af11580156138d1573d6000803e3d6000fd5b50506001909b019a5061360e9950505050505050505050565b808203828111156110c2576040805162461bcd60e51b815260206004820152601560248201527464732d6d6174682d7375622d756e646572666c6f7760581b604482015290519081900360640190fd5b600080841161397e576040805162461bcd60e51b815260206004820152601a6024820152600080516020613f77833981519152604482015290519081900360640190fd5b60008311801561398e5750600082115b6139d8576040805162461bcd60e51b8152602060048201526016602482015275494e53554646494349454e545f4c495155494449545960501b604482015290519081900360640190fd5b60006139f06103e86139ea8688613dfd565b90613dfd565b90506000613a046103e56139ea86896138ea565b9050613a1b6001828481613a1457fe5b0490613e60565b9695505050505050565b6000808411613a71576040805162461bcd60e51b8152602060048201526013602482015272125394d551919250d251539517d05353d55395606a1b604482015290519081900360640190fd5b600083118015613a815750600082115b613acb576040805162461bcd60e51b8152602060048201526016602482015275494e53554646494349454e545f4c495155494449545960501b604482015290519081900360640190fd5b82613ad68584613dfd565b81613add57fe5b04949350505050565b600080826001600160a01b0316846001600160a01b03161415613b46576040805162461bcd60e51b81526020600482015260136024820152724944454e544943414c5f41444452455353455360681b604482015290519081900360640190fd5b826001600160a01b0316846001600160a01b031610613b66578284613b69565b83835b90925090506001600160a01b038216613bb8576040805162461bcd60e51b815260206004820152600c60248201526b5a45524f5f4144445245535360a01b604482015290519081900360640190fd5b9250929050565b600080546040805163e6a4390560e01b81526001600160a01b038a811660048301528981166024830152915184938493169163e6a43905916044808301926020929190829003018186803b158015613c1657600080fd5b505afa158015613c2a573d6000803e3d6000fd5b505050506040513d6020811015613c4057600080fd5b50516001600160a01b03161415613cd85760008054604080516364e329cb60e11b81526001600160a01b038c811660048301528b811660248301529151919092169263c9c6539692604480820193602093909283900390910190829087803b158015613cab57600080fd5b505af1158015613cbf573d6000803e3d6000fd5b505050506040513d6020811015613cd557600080fd5b50505b600080548190613cf2906001600160a01b03168b8b613eaf565b91509150816000148015613d04575080155b15613d1457879350869250613df0565b6000613d21898484613a25565b9050878111613d825785811015613d77576040805162461bcd60e51b8152602060048201526015602482015274125394d551919250d251539517d097d05353d55395605a1b604482015290519081900360640190fd5b889450925082613dee565b6000613d8f898486613a25565b905089811115613d9b57fe5b87811015613de8576040805162461bcd60e51b8152602060048201526015602482015274125394d551919250d251539517d057d05353d55395605a1b604482015290519081900360640190fd5b94508793505b505b5050965096945050505050565b6000811580613e1857505080820282828281613e1557fe5b04145b6110c2576040805162461bcd60e51b815260206004820152601460248201527364732d6d6174682d6d756c2d6f766572666c6f7760601b604482015290519081900360640190fd5b808201828110156110c2576040805162461bcd60e51b815260206004820152601460248201527364732d6d6174682d6164642d6f766572666c6f7760601b604482015290519081900360640190fd5b6000806000613ebe8585613ae6565b509050600080613ecf8888886130a0565b6001600160a01b0316630902f1ac6040518163ffffffff1660e01b815260040160606040518083038186803b158015613f0757600080fd5b505afa158015613f1b573d6000803e3d6000fd5b505050506040513d6060811015613f3157600080fd5b5080516020909101516001600160701b0391821693501690506001600160a01b0387811690841614613f64578082613f67565b81815b9099909850965050505050505056fe494e53554646494349454e545f4f55545055545f414d4f554e54000000000000a26469706673582212203987d5237249684dbd489c61761c9a868db60fea3b7ad73601d24afbcfba927664736f6c634300060c0033",
  "linkReferences": {},
  "deployedLinkReferences": {}
}